{
  "contractName": "Affilly8",
  "abi": [
    {
      "inputs": [
        {
          "internalType": "address",
          "name": "_adr",
          "type": "address"
        }
      ],
      "stateMutability": "nonpayable",
      "type": "constructor"
    },
    {
      "anonymous": false,
      "inputs": [
        {
          "indexed": true,
          "internalType": "uint256",
          "name": "id",
          "type": "uint256"
        },
        {
          "indexed": false,
          "internalType": "address",
          "name": "sender",
          "type": "address"
        },
        {
          "indexed": false,
          "internalType": "address",
          "name": "home",
          "type": "address"
        },
        {
          "indexed": false,
          "internalType": "uint256",
          "name": "num",
          "type": "uint256"
        },
        {
          "indexed": false,
          "internalType": "bytes",
          "name": "message",
          "type": "bytes"
        },
        {
          "indexed": false,
          "internalType": "uint256",
          "name": "stamp",
          "type": "uint256"
        }
      ],
      "name": "Log",
      "type": "event"
    },
    {
      "anonymous": false,
      "inputs": [
        {
          "indexed": true,
          "internalType": "uint256",
          "name": "id",
          "type": "uint256"
        },
        {
          "indexed": false,
          "internalType": "address",
          "name": "sender",
          "type": "address"
        },
        {
          "indexed": false,
          "internalType": "address",
          "name": "home",
          "type": "address"
        },
        {
          "indexed": false,
          "internalType": "uint256",
          "name": "num",
          "type": "uint256"
        },
        {
          "indexed": false,
          "internalType": "bytes",
          "name": "message",
          "type": "bytes"
        },
        {
          "indexed": false,
          "internalType": "uint256",
          "name": "stamp",
          "type": "uint256"
        }
      ],
      "name": "Wait",
      "type": "event"
    },
    {
      "stateMutability": "nonpayable",
      "type": "fallback"
    },
    {
      "inputs": [],
      "name": "EthUsdPrice",
      "outputs": [
        {
          "internalType": "int256",
          "name": "",
          "type": "int256"
        }
      ],
      "stateMutability": "view",
      "type": "function",
      "constant": true
    },
    {
      "inputs": [],
      "name": "author",
      "outputs": [
        {
          "internalType": "address",
          "name": "",
          "type": "address"
        }
      ],
      "stateMutability": "view",
      "type": "function",
      "constant": true
    },
    {
      "inputs": [],
      "name": "availSupply",
      "outputs": [
        {
          "internalType": "uint256",
          "name": "",
          "type": "uint256"
        }
      ],
      "stateMutability": "view",
      "type": "function",
      "constant": true
    },
    {
      "inputs": [],
      "name": "avax",
      "outputs": [
        {
          "internalType": "address",
          "name": "",
          "type": "address"
        }
      ],
      "stateMutability": "view",
      "type": "function",
      "constant": true
    },
    {
      "inputs": [
        {
          "internalType": "uint256",
          "name": "",
          "type": "uint256"
        }
      ],
      "name": "campaigns",
      "outputs": [
        {
          "internalType": "uint256",
          "name": "id",
          "type": "uint256"
        },
        {
          "internalType": "bytes",
          "name": "data",
          "type": "bytes"
        },
        {
          "internalType": "address",
          "name": "owner",
          "type": "address"
        },
        {
          "internalType": "address",
          "name": "tokenAddress",
          "type": "address"
        },
        {
          "internalType": "uint256",
          "name": "tokenId",
          "type": "uint256"
        },
        {
          "internalType": "uint256",
          "name": "price",
          "type": "uint256"
        },
        {
          "internalType": "address",
          "name": "payCurrency",
          "type": "address"
        },
        {
          "internalType": "uint256",
          "name": "fee",
          "type": "uint256"
        },
        {
          "internalType": "uint256",
          "name": "duration",
          "type": "uint256"
        }
      ],
      "stateMutability": "view",
      "type": "function",
      "constant": true
    },
    {
      "inputs": [
        {
          "internalType": "address",
          "name": "_to",
          "type": "address"
        },
        {
          "internalType": "uint256",
          "name": "_role",
          "type": "uint256"
        }
      ],
      "name": "changeRole",
      "outputs": [
        {
          "internalType": "bool",
          "name": "",
          "type": "bool"
        }
      ],
      "stateMutability": "nonpayable",
      "type": "function"
    },
    {
      "inputs": [],
      "name": "getRole",
      "outputs": [
        {
          "internalType": "uint256",
          "name": "",
          "type": "uint256"
        }
      ],
      "stateMutability": "view",
      "type": "function",
      "constant": true
    },
    {
      "inputs": [
        {
          "internalType": "address",
          "name": "",
          "type": "address"
        }
      ],
      "name": "isUser",
      "outputs": [
        {
          "internalType": "bool",
          "name": "",
          "type": "bool"
        }
      ],
      "stateMutability": "view",
      "type": "function",
      "constant": true
    },
    {
      "inputs": [],
      "name": "isUserBool",
      "outputs": [
        {
          "internalType": "bool",
          "name": "",
          "type": "bool"
        }
      ],
      "stateMutability": "view",
      "type": "function",
      "constant": true
    },
    {
      "inputs": [
        {
          "internalType": "uint256",
          "name": "",
          "type": "uint256"
        }
      ],
      "name": "links",
      "outputs": [
        {
          "internalType": "uint256",
          "name": "id",
          "type": "uint256"
        },
        {
          "internalType": "uint256",
          "name": "campaigId",
          "type": "uint256"
        },
        {
          "internalType": "address",
          "name": "promoter",
          "type": "address"
        }
      ],
      "stateMutability": "view",
      "type": "function",
      "constant": true
    },
    {
      "inputs": [
        {
          "internalType": "string",
          "name": "_data",
          "type": "string"
        }
      ],
      "name": "makeU",
      "outputs": [
        {
          "internalType": "bool",
          "name": "",
          "type": "bool"
        }
      ],
      "stateMutability": "nonpayable",
      "type": "function"
    },
    {
      "inputs": [],
      "name": "maxSupply",
      "outputs": [
        {
          "internalType": "uint256",
          "name": "",
          "type": "uint256"
        }
      ],
      "stateMutability": "view",
      "type": "function",
      "constant": true
    },
    {
      "inputs": [
        {
          "internalType": "address",
          "name": "",
          "type": "address"
        }
      ],
      "name": "role",
      "outputs": [
        {
          "internalType": "uint256",
          "name": "",
          "type": "uint256"
        }
      ],
      "stateMutability": "view",
      "type": "function",
      "constant": true
    },
    {
      "inputs": [
        {
          "internalType": "address",
          "name": "_mlq",
          "type": "address"
        }
      ],
      "name": "setMLQ",
      "outputs": [
        {
          "internalType": "bool",
          "name": "",
          "type": "bool"
        }
      ],
      "stateMutability": "nonpayable",
      "type": "function"
    },
    {
      "inputs": [
        {
          "internalType": "address",
          "name": "",
          "type": "address"
        },
        {
          "internalType": "uint256",
          "name": "",
          "type": "uint256"
        }
      ],
      "name": "showCampaign",
      "outputs": [
        {
          "internalType": "uint256",
          "name": "id",
          "type": "uint256"
        },
        {
          "internalType": "bytes",
          "name": "data",
          "type": "bytes"
        },
        {
          "internalType": "address",
          "name": "owner",
          "type": "address"
        },
        {
          "internalType": "address",
          "name": "tokenAddress",
          "type": "address"
        },
        {
          "internalType": "uint256",
          "name": "tokenId",
          "type": "uint256"
        },
        {
          "internalType": "uint256",
          "name": "price",
          "type": "uint256"
        },
        {
          "internalType": "address",
          "name": "payCurrency",
          "type": "address"
        },
        {
          "internalType": "uint256",
          "name": "fee",
          "type": "uint256"
        },
        {
          "internalType": "uint256",
          "name": "duration",
          "type": "uint256"
        }
      ],
      "stateMutability": "view",
      "type": "function",
      "constant": true
    },
    {
      "inputs": [
        {
          "internalType": "address",
          "name": "",
          "type": "address"
        },
        {
          "internalType": "uint256",
          "name": "",
          "type": "uint256"
        }
      ],
      "name": "showLinks",
      "outputs": [
        {
          "internalType": "uint256",
          "name": "id",
          "type": "uint256"
        },
        {
          "internalType": "uint256",
          "name": "campaigId",
          "type": "uint256"
        },
        {
          "internalType": "address",
          "name": "promoter",
          "type": "address"
        }
      ],
      "stateMutability": "view",
      "type": "function",
      "constant": true
    },
    {
      "inputs": [],
      "name": "showU",
      "outputs": [
        {
          "internalType": "string",
          "name": "",
          "type": "string"
        },
        {
          "internalType": "uint256",
          "name": "",
          "type": "uint256"
        }
      ],
      "stateMutability": "view",
      "type": "function",
      "constant": true
    },
    {
      "inputs": [
        {
          "internalType": "uint256",
          "name": "",
          "type": "uint256"
        }
      ],
      "name": "txs",
      "outputs": [
        {
          "internalType": "uint256",
          "name": "id",
          "type": "uint256"
        },
        {
          "internalType": "uint256",
          "name": "rlid",
          "type": "uint256"
        },
        {
          "internalType": "uint256",
          "name": "cid",
          "type": "uint256"
        },
        {
          "internalType": "uint256",
          "name": "txdate",
          "type": "uint256"
        }
      ],
      "stateMutability": "view",
      "type": "function",
      "constant": true
    },
    {
      "inputs": [
        {
          "internalType": "address",
          "name": "",
          "type": "address"
        }
      ],
      "name": "uData",
      "outputs": [
        {
          "internalType": "bytes",
          "name": "",
          "type": "bytes"
        }
      ],
      "stateMutability": "view",
      "type": "function",
      "constant": true
    },
    {
      "inputs": [
        {
          "internalType": "address",
          "name": "_contract",
          "type": "address"
        }
      ],
      "name": "withdrawToken",
      "outputs": [
        {
          "internalType": "bool",
          "name": "",
          "type": "bool"
        }
      ],
      "stateMutability": "nonpayable",
      "type": "function"
    },
    {
      "inputs": [],
      "name": "getCampaignCount",
      "outputs": [
        {
          "internalType": "uint256",
          "name": "",
          "type": "uint256"
        }
      ],
      "stateMutability": "view",
      "type": "function",
      "constant": true
    },
    {
      "inputs": [],
      "name": "getLinkCount",
      "outputs": [
        {
          "internalType": "uint256",
          "name": "",
          "type": "uint256"
        }
      ],
      "stateMutability": "view",
      "type": "function",
      "constant": true
    },
    {
      "inputs": [],
      "name": "getTxCount",
      "outputs": [
        {
          "internalType": "uint256",
          "name": "",
          "type": "uint256"
        }
      ],
      "stateMutability": "view",
      "type": "function",
      "constant": true
    },
    {
      "inputs": [
        {
          "internalType": "uint256",
          "name": "_cid",
          "type": "uint256"
        }
      ],
      "name": "getCampaignTokAdr",
      "outputs": [
        {
          "internalType": "address",
          "name": "",
          "type": "address"
        }
      ],
      "stateMutability": "view",
      "type": "function",
      "constant": true
    },
    {
      "inputs": [],
      "name": "beProducer",
      "outputs": [
        {
          "internalType": "bool",
          "name": "",
          "type": "bool"
        }
      ],
      "stateMutability": "nonpayable",
      "type": "function"
    },
    {
      "inputs": [],
      "name": "bePromoter",
      "outputs": [
        {
          "internalType": "bool",
          "name": "",
          "type": "bool"
        }
      ],
      "stateMutability": "nonpayable",
      "type": "function"
    },
    {
      "inputs": [
        {
          "internalType": "uint256",
          "name": "_cid",
          "type": "uint256"
        }
      ],
      "name": "makeLink",
      "outputs": [
        {
          "internalType": "bool",
          "name": "",
          "type": "bool"
        }
      ],
      "stateMutability": "nonpayable",
      "type": "function"
    },
    {
      "inputs": [
        {
          "internalType": "uint256",
          "name": "_id",
          "type": "uint256"
        },
        {
          "internalType": "string",
          "name": "_data",
          "type": "string"
        },
        {
          "internalType": "address",
          "name": "_owner",
          "type": "address"
        },
        {
          "internalType": "address",
          "name": "_tokenAddress",
          "type": "address"
        },
        {
          "internalType": "uint256",
          "name": "_tokenId",
          "type": "uint256"
        },
        {
          "internalType": "uint256",
          "name": "_price",
          "type": "uint256"
        },
        {
          "internalType": "address",
          "name": "_payCurrency",
          "type": "address"
        },
        {
          "internalType": "uint256",
          "name": "_fee",
          "type": "uint256"
        },
        {
          "internalType": "uint256",
          "name": "_duration",
          "type": "uint256"
        }
      ],
      "name": "makeCampaign",
      "outputs": [
        {
          "internalType": "bool",
          "name": "",
          "type": "bool"
        }
      ],
      "stateMutability": "payable",
      "type": "function",
      "payable": true
    },
    {
      "inputs": [
        {
          "internalType": "uint256",
          "name": "_cid",
          "type": "uint256"
        }
      ],
      "name": "approveCampaign",
      "outputs": [
        {
          "internalType": "bool",
          "name": "",
          "type": "bool"
        }
      ],
      "stateMutability": "payable",
      "type": "function",
      "payable": true
    },
    {
      "inputs": [
        {
          "internalType": "uint256",
          "name": "_rlid",
          "type": "uint256"
        }
      ],
      "name": "approveFunds",
      "outputs": [
        {
          "internalType": "bool",
          "name": "",
          "type": "bool"
        }
      ],
      "stateMutability": "payable",
      "type": "function",
      "payable": true
    },
    {
      "inputs": [
        {
          "internalType": "uint256",
          "name": "_rlid",
          "type": "uint256"
        }
      ],
      "name": "finalize",
      "outputs": [
        {
          "internalType": "bool",
          "name": "",
          "type": "bool"
        }
      ],
      "stateMutability": "payable",
      "type": "function",
      "payable": true
    },
    {
      "inputs": [
        {
          "internalType": "uint256",
          "name": "_eth",
          "type": "uint256"
        },
        {
          "internalType": "uint256",
          "name": "_mlq",
          "type": "uint256"
        }
      ],
      "name": "withdraw",
      "outputs": [
        {
          "internalType": "bool",
          "name": "",
          "type": "bool"
        }
      ],
      "stateMutability": "nonpayable",
      "type": "function"
    }
  ],
  "bytecode": "0x6080604052731cd6f4d329d38043a6bdb3665c3a7b06f79b52426000806101000a81548173ffffffffffffffffffffffffffffffffffffffff021916908373ffffffffffffffffffffffffffffffffffffffff16021790555073a60bd1147c32acdf9060badbaa0f62f6bfd19437600160006101000a81548173ffffffffffffffffffffffffffffffffffffffff021916908373ffffffffffffffffffffffffffffffffffffffff160217905550670de0b6b3a7640000600855348015620000c657600080fd5b50604051620057a9380380620057a98339818101604052810190620000ec9190620004ab565b8080600f60006101000a81548173ffffffffffffffffffffffffffffffffffffffff021916908373ffffffffffffffffffffffffffffffffffffffff1602179055505060008054906101000a900473ffffffffffffffffffffffffffffffffffffffff1673ffffffffffffffffffffffffffffffffffffffff163373ffffffffffffffffffffffffffffffffffffffff161480620001d75750600160009054906101000a900473ffffffffffffffffffffffffffffffffffffffff1673ffffffffffffffffffffffffffffffffffffffff163373ffffffffffffffffffffffffffffffffffffffff16145b620001e157600080fd5b6063600260003373ffffffffffffffffffffffffffffffffffffffff1673ffffffffffffffffffffffffffffffffffffffff1681526020019081526020016000208190555060026007819055506040518060600160405280603681526020016200577360369139600360003373ffffffffffffffffffffffffffffffffffffffff1673ffffffffffffffffffffffffffffffffffffffff16815260200190815260200160002090805190602001906200029c92919062000391565b506001600d60003373ffffffffffffffffffffffffffffffffffffffff1673ffffffffffffffffffffffffffffffffffffffff16815260200190815260200160002060006101000a81548160ff021916908315150217905550600e547f5c155e8f37136295b53ae72fb3c0f568542d008fa91b541061b2d58d80d2657f33306103e76040518060400160405280601081526020017f636f6e74726163742063726561746564000000000000000000000000000000008152504260405162000368959493929190620005fa565b60405180910390a2600e600081548092919062000385906200068d565b9190505550506200073e565b8280546200039f9062000709565b90600052602060002090601f016020900481019282620003c357600085556200040f565b82601f10620003de57805160ff19168380011785556200040f565b828001600101855582156200040f579182015b828111156200040e578251825591602001919060010190620003f1565b5b5090506200041e919062000422565b5090565b5b808211156200043d57600081600090555060010162000423565b5090565b600080fd5b600073ffffffffffffffffffffffffffffffffffffffff82169050919050565b6000620004738262000446565b9050919050565b620004858162000466565b81146200049157600080fd5b50565b600081519050620004a5816200047a565b92915050565b600060208284031215620004c457620004c362000441565b5b6000620004d48482850162000494565b91505092915050565b620004e88162000466565b82525050565b6000819050919050565b6000819050919050565b6000819050919050565b60006200052d620005276200052184620004ee565b62000502565b620004f8565b9050919050565b6200053f816200050c565b82525050565b600081519050919050565b600082825260208201905092915050565b60005b838110156200058157808201518184015260208101905062000564565b8381111562000591576000848401525b50505050565b6000601f19601f8301169050919050565b6000620005b58262000545565b620005c1818562000550565b9350620005d381856020860162000561565b620005de8162000597565b840191505092915050565b620005f481620004f8565b82525050565b600060a082019050620006116000830188620004dd565b620006206020830187620004dd565b6200062f604083018662000534565b8181036060830152620006438185620005a8565b9050620006546080830184620005e9565b9695505050505050565b7f4e487b7100000000000000000000000000000000000000000000000000000000600052601160045260246000fd5b60006200069a82620004f8565b91507fffffffffffffffffffffffffffffffffffffffffffffffffffffffffffffffff8203620006cf57620006ce6200065e565b5b600182019050919050565b7f4e487b7100000000000000000000000000000000000000000000000000000000600052602260045260246000fd5b600060028204905060018216806200072257607f821691505b602082108103620007385762000737620006da565b5b50919050565b615025806200074e6000396000f3fe6080604052600436106101e65760003560e01c806394f4a25911610102578063d590f8c911610095578063ef51b79d11610064578063ef51b79d146107bc578063f4567fa8146107e7578063f5715d5614610824578063fde0817414610864576101e7565b8063d590f8c9146106e5578063d5abeb0114610722578063ea319b881461074d578063ee4e1b531461078c576101e7565b8063b7187e35116100d1578063b7187e3514610608578063ba21975014610645578063c96f6ca914610670578063d09e747f146106a0576101e7565b806394f4a2591461054a5780639f5215dd14610587578063a6c3e6b9146105b2578063b447b0a5146105dd576101e7565b80632e3606ad1161017a5780636d65d97b116101495780636d65d97b14610461578063881d8a401461049e57806389241f96146104dd578063894760691461050d576101e7565b80632e3606ad146103915780634209fff1146103bc578063441a3e70146103f95780636caa921814610436576101e7565b80631dd46c1e116101b65780631dd46c1e146102d2578063268b5227146102fd578063274daa351461033a5780632a1e5ef314610366576101e7565b806253d555146101f557806305261aea146102205780630acfd58e14610250578063141961bc1461028d576101e7565b5b3480156101f357600080fd5b005b34801561020157600080fd5b5061020a61088f565b6040516102179190613f1d565b60405180910390f35b61023a60048036038101906102359190613f82565b6108b5565b6040516102479190613fca565b60405180910390f35b34801561025c57600080fd5b5061027760048036038101906102729190614011565b611233565b6040516102849190613fca565b60405180910390f35b34801561029957600080fd5b506102b460048036038101906102af9190613f82565b611305565b6040516102c9999897969594939291906140f9565b60405180910390f35b3480156102de57600080fd5b506102e761144b565b6040516102f4919061418d565b60405180910390f35b34801561030957600080fd5b50610324600480360381019061031f91906142dd565b611455565b6040516103319190613fca565b60405180910390f35b34801561034657600080fd5b5061034f611551565b60405161035d92919061437b565b60405180910390f35b34801561037257600080fd5b5061037b611668565b6040516103889190613fca565b60405180910390f35b34801561039d57600080fd5b506103a6611930565b6040516103b39190613fca565b60405180910390f35b3480156103c857600080fd5b506103e360048036038101906103de91906143ab565b611bf7565b6040516103f09190613fca565b60405180910390f35b34801561040557600080fd5b50610420600480360381019061041b91906143d8565b611c17565b60405161042d9190613fca565b60405180910390f35b34801561044257600080fd5b5061044b611e8e565b604051610458919061418d565b60405180910390f35b34801561046d57600080fd5b5061048860048036038101906104839190613f82565b611e98565b6040516104959190613fca565b60405180910390f35b3480156104aa57600080fd5b506104c560048036038101906104c09190613f82565b6122f9565b6040516104d493929190614418565b60405180910390f35b6104f760048036038101906104f29190613f82565b612353565b6040516105049190613fca565b60405180910390f35b34801561051957600080fd5b50610534600480360381019061052f91906143ab565b612843565b6040516105419190613fca565b60405180910390f35b34801561055657600080fd5b50610571600480360381019061056c91906143ab565b612a4d565b60405161057e9190613fca565b60405180910390f35b34801561059357600080fd5b5061059c612a99565b6040516105a9919061418d565b60405180910390f35b3480156105be57600080fd5b506105c7612a9f565b6040516105d49190613f1d565b60405180910390f35b3480156105e957600080fd5b506105f2612ac3565b6040516105ff9190614468565b60405180910390f35b34801561061457600080fd5b5061062f600480360381019061062a91906143ab565b612b64565b60405161063c9190614483565b60405180910390f35b34801561065157600080fd5b5061065a612c04565b6040516106679190613fca565b60405180910390f35b61068a600480360381019061068591906144a5565b612c58565b6040516106979190613fca565b60405180910390f35b3480156106ac57600080fd5b506106c760048036038101906106c29190614011565b613322565b6040516106dc999897969594939291906140f9565b60405180910390f35b3480156106f157600080fd5b5061070c600480360381019061070791906143ab565b613465565b604051610719919061418d565b60405180910390f35b34801561072e57600080fd5b5061073761347d565b604051610744919061418d565b60405180910390f35b34801561075957600080fd5b50610774600480360381019061076f9190614011565b613483565b60405161078393929190614418565b60405180910390f35b6107a660048036038101906107a19190613f82565b6134da565b6040516107b39190613fca565b60405180910390f35b3480156107c857600080fd5b506107d1613981565b6040516107de919061418d565b60405180910390f35b3480156107f357600080fd5b5061080e60048036038101906108099190613f82565b61398b565b60405161081b9190613f1d565b60405180910390f35b34801561083057600080fd5b5061084b60048036038101906108469190613f82565b6139da565b60405161085b949392919061458b565b60405180910390f35b34801561087057600080fd5b50610879613a1a565b604051610886919061418d565b60405180910390f35b600160009054906101000a900473ffffffffffffffffffffffffffffffffffffffff1681565b600080601183815481106108cc576108cb6145d0565b5b90600052602060002090600302016001015490506000601184815481106108f6576108f56145d0565b5b906000526020600020906003020160020160009054906101000a900473ffffffffffffffffffffffffffffffffffffffff1690506000601083815481106109405761093f6145d0565b5b906000526020600020906009020160405180610120016040529081600082015481526020016001820180546109749061462e565b80601f01602080910402602001604051908101604052809291908181526020018280546109a09061462e565b80156109ed5780601f106109c2576101008083540402835291602001916109ed565b820191906000526020600020905b8154815290600101906020018083116109d057829003601f168201915b505050505081526020016002820160009054906101000a900473ffffffffffffffffffffffffffffffffffffffff1673ffffffffffffffffffffffffffffffffffffffff1673ffffffffffffffffffffffffffffffffffffffff1681526020016003820160009054906101000a900473ffffffffffffffffffffffffffffffffffffffff1673ffffffffffffffffffffffffffffffffffffffff1673ffffffffffffffffffffffffffffffffffffffff16815260200160048201548152602001600582015481526020016006820160009054906101000a900473ffffffffffffffffffffffffffffffffffffffff1673ffffffffffffffffffffffffffffffffffffffff1673ffffffffffffffffffffffffffffffffffffffff16815260200160078201548152602001600882015481525050905060006007548260a001516064610b3891906146bd565b610b4291906146ee565b905060008260e001516007546064610b5a9190614748565b8460a001516064610b6b91906146bd565b610b7591906146ee565b610b7f9190614748565b90508260600151600a60006101000a81548173ffffffffffffffffffffffffffffffffffffffff021916908373ffffffffffffffffffffffffffffffffffffffff160217905550600073ffffffffffffffffffffffffffffffffffffffff168360c0015173ffffffffffffffffffffffffffffffffffffffff1614610f7e578260c00151600960006101000a81548173ffffffffffffffffffffffffffffffffffffffff021916908373ffffffffffffffffffffffffffffffffffffffff1602179055508260a00151600960009054906101000a900473ffffffffffffffffffffffffffffffffffffffff1673ffffffffffffffffffffffffffffffffffffffff166370a08231336040518263ffffffff1660e01b8152600401610ca39190613f1d565b602060405180830381865afa158015610cc0573d6000803e3d6000fd5b505050506040513d601f19601f82011682018060405250810190610ce49190614791565b1015610cef57600080fd5b600960009054906101000a900473ffffffffffffffffffffffffffffffffffffffff1673ffffffffffffffffffffffffffffffffffffffff166323b872dd338560400151846040518463ffffffff1660e01b8152600401610d52939291906147be565b6020604051808303816000875af1158015610d71573d6000803e3d6000fd5b505050506040513d601f19601f82011682018060405250810190610d959190614821565b50600a60009054906101000a900473ffffffffffffffffffffffffffffffffffffffff1673ffffffffffffffffffffffffffffffffffffffff166323b872dd84604001513386608001516040518463ffffffff1660e01b8152600401610dfd939291906147be565b600060405180830381600087803b158015610e1757600080fd5b505af1158015610e2b573d6000803e3d6000fd5b50505050600960009054906101000a900473ffffffffffffffffffffffffffffffffffffffff1673ffffffffffffffffffffffffffffffffffffffff166323b872dd33868660e001516040518463ffffffff1660e01b8152600401610e92939291906147be565b6020604051808303816000875af1158015610eb1573d6000803e3d6000fd5b505050506040513d601f19601f82011682018060405250810190610ed59190614821565b50600960009054906101000a900473ffffffffffffffffffffffffffffffffffffffff1673ffffffffffffffffffffffffffffffffffffffff166323b872dd3330856040518463ffffffff1660e01b8152600401610f35939291906147be565b6020604051808303816000875af1158015610f54573d6000803e3d6000fd5b505050506040513d601f19601f82011682018060405250810190610f789190614821565b50611106565b8260a00151341015610f8f57600080fd5b826040015173ffffffffffffffffffffffffffffffffffffffff166108fc829081150290604051600060405180830381858888f19350505050158015610fd9573d6000803e3d6000fd5b50600a60009054906101000a900473ffffffffffffffffffffffffffffffffffffffff1673ffffffffffffffffffffffffffffffffffffffff166323b872dd84604001513386608001516040518463ffffffff1660e01b8152600401611041939291906147be565b600060405180830381600087803b15801561105b57600080fd5b505af115801561106f573d6000803e3d6000fd5b505050508373ffffffffffffffffffffffffffffffffffffffff166108fc8460e001519081150290604051600060405180830381858888f193505050501580156110bd573d6000803e3d6000fd5b503073ffffffffffffffffffffffffffffffffffffffff166108fc839081150290604051600060405180830381858888f19350505050158015611104573d6000803e3d6000fd5b505b601260405180608001604052806019548152602001898152602001878152602001428152509080600181540180825580915050600190039060005260206000209060040201600090919091909150600082015181600001556020820151816001015560408201518160020155606082015181600301555050600e547f5c155e8f37136295b53ae72fb3c0f568542d008fa91b541061b2d58d80d2657f33308a6040518060400160405280600e81526020017f6c696e6b207478206661696c6564000000000000000000000000000000000000815250426040516111ed95949392919061484e565b60405180910390a260196000815480929190611208906148a8565b9190505550600e6000815480929190611220906148a8565b9190505550600195505050505050919050565b60006063600260003373ffffffffffffffffffffffffffffffffffffffff1673ffffffffffffffffffffffffffffffffffffffff16815260200190815260200160002054146112b7576040517f08c379a00000000000000000000000000000000000000000000000000000000081526004016112ae9061493c565b60405180910390fd5b81600260008573ffffffffffffffffffffffffffffffffffffffff1673ffffffffffffffffffffffffffffffffffffffff168152602001908152602001600020819055506001905092915050565b6010818154811061131557600080fd5b906000526020600020906009020160009150905080600001549080600101805461133e9061462e565b80601f016020809104026020016040519081016040528092919081815260200182805461136a9061462e565b80156113b75780601f1061138c576101008083540402835291602001916113b7565b820191906000526020600020905b81548152906001019060200180831161139a57829003601f168201915b5050505050908060020160009054906101000a900473ffffffffffffffffffffffffffffffffffffffff16908060030160009054906101000a900473ffffffffffffffffffffffffffffffffffffffff16908060040154908060050154908060060160009054906101000a900473ffffffffffffffffffffffffffffffffffffffff16908060070154908060080154905089565b6000601954905090565b60006001600d60003373ffffffffffffffffffffffffffffffffffffffff1673ffffffffffffffffffffffffffffffffffffffff16815260200190815260200160002060006101000a81548160ff0219169083151502179055506001600260003373ffffffffffffffffffffffffffffffffffffffff1673ffffffffffffffffffffffffffffffffffffffff1681526020019081526020016000208190555081600360003373ffffffffffffffffffffffffffffffffffffffff1673ffffffffffffffffffffffffffffffffffffffff1681526020019081526020016000209080519060200190611547929190613dac565b5060019050919050565b60606000600360003373ffffffffffffffffffffffffffffffffffffffff1673ffffffffffffffffffffffffffffffffffffffff168152602001908152602001600020600260003373ffffffffffffffffffffffffffffffffffffffff1673ffffffffffffffffffffffffffffffffffffffff168152602001908152602001600020548180546115e09061462e565b80601f016020809104026020016040519081016040528092919081815260200182805461160c9061462e565b80156116595780601f1061162e57610100808354040283529160200191611659565b820191906000526020600020905b81548152906001019060200180831161163c57829003601f168201915b50505050509150915091509091565b600060011515600d60003373ffffffffffffffffffffffffffffffffffffffff1673ffffffffffffffffffffffffffffffffffffffff16815260200190815260200160002060009054906101000a900460ff161515146116fd576040517f08c379a00000000000000000000000000000000000000000000000000000000081526004016116f4906149a8565b60405180910390fd5b6003600260003373ffffffffffffffffffffffffffffffffffffffff1673ffffffffffffffffffffffffffffffffffffffff168152602001908152602001600020540361177f576040517f08c379a000000000000000000000000000000000000000000000000000000000815260040161177690614a14565b60405180910390fd5b6001600260003373ffffffffffffffffffffffffffffffffffffffff1673ffffffffffffffffffffffffffffffffffffffff168152602001908152602001600020540361180c576003600260003373ffffffffffffffffffffffffffffffffffffffff1673ffffffffffffffffffffffffffffffffffffffff168152602001908152602001600020819055505b60028060003373ffffffffffffffffffffffffffffffffffffffff1673ffffffffffffffffffffffffffffffffffffffff1681526020019081526020016000205403611898576004600260003373ffffffffffffffffffffffffffffffffffffffff1673ffffffffffffffffffffffffffffffffffffffff168152602001908152602001600020819055505b600e547f5c155e8f37136295b53ae72fb3c0f568542d008fa91b541061b2d58d80d2657f33306103e76040518060400160405280600f81526020017f626563616d652070726f6d6f746572000000000000000000000000000000000081525042604051611909959493929190614a79565b60405180910390a2600e6000815480929190611924906148a8565b91905055506001905090565b600060011515600d60003373ffffffffffffffffffffffffffffffffffffffff1673ffffffffffffffffffffffffffffffffffffffff16815260200190815260200160002060009054906101000a900460ff161515146119c5576040517f08c379a00000000000000000000000000000000000000000000000000000000081526004016119bc906149a8565b60405180910390fd5b60028060003373ffffffffffffffffffffffffffffffffffffffff1673ffffffffffffffffffffffffffffffffffffffff1681526020019081526020016000205403611a46576040517f08c379a0000000000000000000000000000000000000000000000000000000008152600401611a3d90614b1f565b60405180910390fd5b6001600260003373ffffffffffffffffffffffffffffffffffffffff1673ffffffffffffffffffffffffffffffffffffffff1681526020019081526020016000205403611ad25760028060003373ffffffffffffffffffffffffffffffffffffffff1673ffffffffffffffffffffffffffffffffffffffff168152602001908152602001600020819055505b6003600260003373ffffffffffffffffffffffffffffffffffffffff1673ffffffffffffffffffffffffffffffffffffffff1681526020019081526020016000205403611b5f576004600260003373ffffffffffffffffffffffffffffffffffffffff1673ffffffffffffffffffffffffffffffffffffffff168152602001908152602001600020819055505b600e547f5c155e8f37136295b53ae72fb3c0f568542d008fa91b541061b2d58d80d2657f33306103e76040518060400160405280600f81526020017f626563616d652070726f6475636572000000000000000000000000000000000081525042604051611bd0959493929190614a79565b60405180910390a2600e6000815480929190611beb906148a8565b91905055506001905090565b600d6020528060005260406000206000915054906101000a900460ff1681565b60006063600260003373ffffffffffffffffffffffffffffffffffffffff1673ffffffffffffffffffffffffffffffffffffffff1681526020019081526020016000205414611c9b576040517f08c379a0000000000000000000000000000000000000000000000000000000008152600401611c929061493c565b60405180910390fd5b600c60009054906101000a900473ffffffffffffffffffffffffffffffffffffffff1673ffffffffffffffffffffffffffffffffffffffff166370a08231306040518263ffffffff1660e01b8152600401611cf69190613f1d565b602060405180830381865afa158015611d13573d6000803e3d6000fd5b505050506040513d601f19601f82011682018060405250810190611d379190614791565b670de0b6b3a764000083611d4b91906146ee565b1115611d5657600080fd5b47670de0b6b3a764000084611d6b91906146ee565b1115611d7657600080fd5b600c60009054906101000a900473ffffffffffffffffffffffffffffffffffffffff1673ffffffffffffffffffffffffffffffffffffffff1663a9059cbb33670de0b6b3a764000085611dc991906146ee565b6040518363ffffffff1660e01b8152600401611de6929190614b94565b6020604051808303816000875af1158015611e05573d6000803e3d6000fd5b505050506040513d601f19601f82011682018060405250810190611e299190614821565b503373ffffffffffffffffffffffffffffffffffffffff166108fc670de0b6b3a764000085611e5891906146ee565b9081150290604051600060405180830381858888f19350505050158015611e83573d6000803e3d6000fd5b506001905092915050565b6000601754905090565b600060011515600d60003373ffffffffffffffffffffffffffffffffffffffff1673ffffffffffffffffffffffffffffffffffffffff16815260200190815260200160002060009054906101000a900460ff16151514611f2d576040517f08c379a0000000000000000000000000000000000000000000000000000000008152600401611f24906149a8565b60405180910390fd5b6003600260003373ffffffffffffffffffffffffffffffffffffffff1673ffffffffffffffffffffffffffffffffffffffff168152602001908152602001600020541480611fba57506004600260003373ffffffffffffffffffffffffffffffffffffffff1673ffffffffffffffffffffffffffffffffffffffff16815260200190815260200160002054145b8061200457506063600260003373ffffffffffffffffffffffffffffffffffffffff1673ffffffffffffffffffffffffffffffffffffffff16815260200190815260200160002054145b612043576040517f08c379a000000000000000000000000000000000000000000000000000000000815260040161203a90614c09565b60405180910390fd5b6011604051806060016040528060185481526020018481526020013373ffffffffffffffffffffffffffffffffffffffff168152509080600181540180825580915050600190039060005260206000209060030201600090919091909150600082015181600001556020820151816001015560408201518160020160006101000a81548173ffffffffffffffffffffffffffffffffffffffff021916908373ffffffffffffffffffffffffffffffffffffffff1602179055505050601560003373ffffffffffffffffffffffffffffffffffffffff1673ffffffffffffffffffffffffffffffffffffffff168152602001908152602001600020600081548092919061214e906148a8565b9190505550601160185481548110612169576121686145d0565b5b9060005260206000209060030201601660003373ffffffffffffffffffffffffffffffffffffffff1673ffffffffffffffffffffffffffffffffffffffff1681526020019081526020016000206000601854815260200190815260200160002060008201548160000155600182015481600101556002820160009054906101000a900473ffffffffffffffffffffffffffffffffffffffff168160020160006101000a81548173ffffffffffffffffffffffffffffffffffffffff021916908373ffffffffffffffffffffffffffffffffffffffff160217905550905050600e547f5c155e8f37136295b53ae72fb3c0f568542d008fa91b541061b2d58d80d2657f33306018546040518060400160405280600c81526020017f6c696e6b20637265617465640000000000000000000000000000000000000000815250426040516122b895949392919061484e565b60405180910390a2600e60008154809291906122d3906148a8565b9190505550601860008154809291906122eb906148a8565b919050555060019050919050565b6011818154811061230957600080fd5b90600052602060002090600302016000915090508060000154908060010154908060020160009054906101000a900473ffffffffffffffffffffffffffffffffffffffff16905083565b60008060106011848154811061236c5761236b6145d0565b5b9060005260206000209060030201600101548154811061238f5761238e6145d0565b5b906000526020600020906009020160405180610120016040529081600082015481526020016001820180546123c39061462e565b80601f01602080910402602001604051908101604052809291908181526020018280546123ef9061462e565b801561243c5780601f106124115761010080835404028352916020019161243c565b820191906000526020600020905b81548152906001019060200180831161241f57829003601f168201915b505050505081526020016002820160009054906101000a900473ffffffffffffffffffffffffffffffffffffffff1673ffffffffffffffffffffffffffffffffffffffff1673ffffffffffffffffffffffffffffffffffffffff1681526020016003820160009054906101000a900473ffffffffffffffffffffffffffffffffffffffff1673ffffffffffffffffffffffffffffffffffffffff1673ffffffffffffffffffffffffffffffffffffffff16815260200160048201548152602001600582015481526020016006820160009054906101000a900473ffffffffffffffffffffffffffffffffffffffff1673ffffffffffffffffffffffffffffffffffffffff1673ffffffffffffffffffffffffffffffffffffffff16815260200160078201548152602001600882015481525050905060118381548110612585576125846145d0565b5b906000526020600020906003020160020160009054906101000a900473ffffffffffffffffffffffffffffffffffffffff1673ffffffffffffffffffffffffffffffffffffffff163373ffffffffffffffffffffffffffffffffffffffff16141580156126225750806040015173ffffffffffffffffffffffffffffffffffffffff163373ffffffffffffffffffffffffffffffffffffffff1614155b612661576040517f08c379a000000000000000000000000000000000000000000000000000000000815260040161265890614cc1565b60405180910390fd5b600073ffffffffffffffffffffffffffffffffffffffff168160c0015173ffffffffffffffffffffffffffffffffffffffff16036126d4576040517f08c379a00000000000000000000000000000000000000000000000000000000081526004016126cb90614d53565b60405180910390fd5b8060c00151600960006101000a81548173ffffffffffffffffffffffffffffffffffffffff021916908373ffffffffffffffffffffffffffffffffffffffff160217905550600960009054906101000a900473ffffffffffffffffffffffffffffffffffffffff1673ffffffffffffffffffffffffffffffffffffffff1663095ea7b3308360a001516040518363ffffffff1660e01b815260040161277a929190614d73565b6020604051808303816000875af1158015612799573d6000803e3d6000fd5b505050506040513d601f19601f820116820180604052508101906127bd9190614821565b50600e547f5c155e8f37136295b53ae72fb3c0f568542d008fa91b541061b2d58d80d2657f333084608001516040518060400160405280601081526020017f2e20746f6b656e20617070726f76616c000000000000000000000000000000008152504260405161283195949392919061484e565b60405180910390a26001915050919050565b60006063600260003373ffffffffffffffffffffffffffffffffffffffff1673ffffffffffffffffffffffffffffffffffffffff16815260200190815260200160002054146128c7576040517f08c379a00000000000000000000000000000000000000000000000000000000081526004016128be9061493c565b60405180910390fd5b81600960006101000a81548173ffffffffffffffffffffffffffffffffffffffff021916908373ffffffffffffffffffffffffffffffffffffffff160217905550600960009054906101000a900473ffffffffffffffffffffffffffffffffffffffff1673ffffffffffffffffffffffffffffffffffffffff1663a9059cbb33600960009054906101000a900473ffffffffffffffffffffffffffffffffffffffff1673ffffffffffffffffffffffffffffffffffffffff166370a08231306040518263ffffffff1660e01b81526004016129a29190613f1d565b602060405180830381865afa1580156129bf573d6000803e3d6000fd5b505050506040513d601f19601f820116820180604052508101906129e39190614791565b6040518363ffffffff1660e01b8152600401612a00929190614d73565b6020604051808303816000875af1158015612a1f573d6000803e3d6000fd5b505050506040513d601f19601f82011682018060405250810190612a439190614821565b5060019050919050565b600081600c60006101000a81548173ffffffffffffffffffffffffffffffffffffffff021916908373ffffffffffffffffffffffffffffffffffffffff16021790555060019050919050565b60055481565b60008054906101000a900473ffffffffffffffffffffffffffffffffffffffff1681565b600080600f60009054906101000a900473ffffffffffffffffffffffffffffffffffffffff1673ffffffffffffffffffffffffffffffffffffffff1663feaf968c6040518163ffffffff1660e01b815260040160a060405180830381865afa158015612b33573d6000803e3d6000fd5b505050506040513d601f19601f82011682018060405250810190612b579190614e0a565b5050509150508091505090565b60036020528060005260406000206000915090508054612b839061462e565b80601f0160208091040260200160405190810160405280929190818152602001828054612baf9061462e565b8015612bfc5780601f10612bd157610100808354040283529160200191612bfc565b820191906000526020600020905b815481529060010190602001808311612bdf57829003601f168201915b505050505081565b6000600d60003373ffffffffffffffffffffffffffffffffffffffff1673ffffffffffffffffffffffffffffffffffffffff16815260200190815260200160002060009054906101000a900460ff16905090565b600060011515600d60003373ffffffffffffffffffffffffffffffffffffffff1673ffffffffffffffffffffffffffffffffffffffff16815260200190815260200160002060009054906101000a900460ff16151514612ced576040517f08c379a0000000000000000000000000000000000000000000000000000000008152600401612ce4906149a8565b60405180910390fd5b60028060003373ffffffffffffffffffffffffffffffffffffffff1673ffffffffffffffffffffffffffffffffffffffff168152602001908152602001600020541480612d7957506004600260003373ffffffffffffffffffffffffffffffffffffffff1673ffffffffffffffffffffffffffffffffffffffff16815260200190815260200160002054145b80612dc357506063600260003373ffffffffffffffffffffffffffffffffffffffff1673ffffffffffffffffffffffffffffffffffffffff16815260200190815260200160002054145b612e02576040517f08c379a0000000000000000000000000000000000000000000000000000000008152600401612df990614ed1565b60405180910390fd5b60106040518061012001604052808c81526020018b81526020018a73ffffffffffffffffffffffffffffffffffffffff1681526020018973ffffffffffffffffffffffffffffffffffffffff16815260200188815260200160085488612e6891906146ee565b81526020018673ffffffffffffffffffffffffffffffffffffffff16815260200160085486612e9791906146ee565b8152602001603c8086612eaa91906146ee565b612eb491906146ee565b8152509080600181540180825580915050600190039060005260206000209060090201600090919091909150600082015181600001556020820151816001019080519060200190612f06929190613dac565b5060408201518160020160006101000a81548173ffffffffffffffffffffffffffffffffffffffff021916908373ffffffffffffffffffffffffffffffffffffffff16021790555060608201518160030160006101000a81548173ffffffffffffffffffffffffffffffffffffffff021916908373ffffffffffffffffffffffffffffffffffffffff1602179055506080820151816004015560a0820151816005015560c08201518160060160006101000a81548173ffffffffffffffffffffffffffffffffffffffff021916908373ffffffffffffffffffffffffffffffffffffffff16021790555060e0820151816007015561010082015181600801555050601360003373ffffffffffffffffffffffffffffffffffffffff1673ffffffffffffffffffffffffffffffffffffffff1681526020019081526020016000206000815480929190613057906148a8565b9190505550601060175481548110613072576130716145d0565b5b9060005260206000209060090201601460003373ffffffffffffffffffffffffffffffffffffffff1673ffffffffffffffffffffffffffffffffffffffff168152602001908152602001600020600060175481526020019081526020016000206000820154816000015560018201816001019080546130f09061462e565b6130fb929190613e32565b506002820160009054906101000a900473ffffffffffffffffffffffffffffffffffffffff168160020160006101000a81548173ffffffffffffffffffffffffffffffffffffffff021916908373ffffffffffffffffffffffffffffffffffffffff1602179055506003820160009054906101000a900473ffffffffffffffffffffffffffffffffffffffff168160030160006101000a81548173ffffffffffffffffffffffffffffffffffffffff021916908373ffffffffffffffffffffffffffffffffffffffff16021790555060048201548160040155600582015481600501556006820160009054906101000a900473ffffffffffffffffffffffffffffffffffffffff168160060160006101000a81548173ffffffffffffffffffffffffffffffffffffffff021916908373ffffffffffffffffffffffffffffffffffffffff1602179055506007820154816007015560088201548160080155905050600e547f5c155e8f37136295b53ae72fb3c0f568542d008fa91b541061b2d58d80d2657f33306017546040518060400160405280601281526020017f2e2063616d706169676e20637265617465640000000000000000000000000000815250426040516132cd95949392919061484e565b60405180910390a2600e60008154809291906132e8906148a8565b91905055506132f8601754613a61565b506017600081548092919061330c906148a8565b9190505550600190509998505050505050505050565b6014602052816000526040600020602052806000526040600020600091509150508060000154908060010180546133589061462e565b80601f01602080910402602001604051908101604052809291908181526020018280546133849061462e565b80156133d15780601f106133a6576101008083540402835291602001916133d1565b820191906000526020600020905b8154815290600101906020018083116133b457829003601f168201915b5050505050908060020160009054906101000a900473ffffffffffffffffffffffffffffffffffffffff16908060030160009054906101000a900473ffffffffffffffffffffffffffffffffffffffff16908060040154908060050154908060060160009054906101000a900473ffffffffffffffffffffffffffffffffffffffff16908060070154908060080154905089565b60026020528060005260406000206000915090505481565b60045481565b6016602052816000526040600020602052806000526040600020600091509150508060000154908060010154908060020160009054906101000a900473ffffffffffffffffffffffffffffffffffffffff16905083565b600080601083815481106134f1576134f06145d0565b5b906000526020600020906009020160405180610120016040529081600082015481526020016001820180546135259061462e565b80601f01602080910402602001604051908101604052809291908181526020018280546135519061462e565b801561359e5780601f106135735761010080835404028352916020019161359e565b820191906000526020600020905b81548152906001019060200180831161358157829003601f168201915b505050505081526020016002820160009054906101000a900473ffffffffffffffffffffffffffffffffffffffff1673ffffffffffffffffffffffffffffffffffffffff1673ffffffffffffffffffffffffffffffffffffffff1681526020016003820160009054906101000a900473ffffffffffffffffffffffffffffffffffffffff1673ffffffffffffffffffffffffffffffffffffffff1673ffffffffffffffffffffffffffffffffffffffff16815260200160048201548152602001600582015481526020016006820160009054906101000a900473ffffffffffffffffffffffffffffffffffffffff1673ffffffffffffffffffffffffffffffffffffffff1673ffffffffffffffffffffffffffffffffffffffff168152602001600782015481526020016008820154815250509050806040015173ffffffffffffffffffffffffffffffffffffffff163373ffffffffffffffffffffffffffffffffffffffff1614613745576040517f08c379a000000000000000000000000000000000000000000000000000000000815260040161373c90614f63565b60405180910390fd5b8060600151600a60006101000a81548173ffffffffffffffffffffffffffffffffffffffff021916908373ffffffffffffffffffffffffffffffffffffffff1602179055506000600a60009054906101000a900473ffffffffffffffffffffffffffffffffffffffff1673ffffffffffffffffffffffffffffffffffffffff166370a08231336040518263ffffffff1660e01b81526004016137e79190613f1d565b602060405180830381865afa158015613804573d6000803e3d6000fd5b505050506040513d601f19601f820116820180604052508101906138289190614791565b1015613869576040517f08c379a000000000000000000000000000000000000000000000000000000000815260040161386090614fcf565b60405180910390fd5b600a60009054906101000a900473ffffffffffffffffffffffffffffffffffffffff1673ffffffffffffffffffffffffffffffffffffffff1663095ea7b33083608001516040518363ffffffff1660e01b81526004016138ca929190614d73565b600060405180830381600087803b1580156138e457600080fd5b505af11580156138f8573d6000803e3d6000fd5b50505050600e547f5c155e8f37136295b53ae72fb3c0f568542d008fa91b541061b2d58d80d2657f333084608001516040518060400160405280600e81526020017f2e206e667420617070726f76616c0000000000000000000000000000000000008152504260405161396f95949392919061484e565b60405180910390a26001915050919050565b6000601854905090565b6000601082815481106139a1576139a06145d0565b5b906000526020600020906009020160030160009054906101000a900473ffffffffffffffffffffffffffffffffffffffff169050919050565b601281815481106139ea57600080fd5b90600052602060002090600402016000915090508060000154908060010154908060020154908060030154905084565b6000600260003373ffffffffffffffffffffffffffffffffffffffff1673ffffffffffffffffffffffffffffffffffffffff16815260200190815260200160002054905090565b600060011515600d60003373ffffffffffffffffffffffffffffffffffffffff1673ffffffffffffffffffffffffffffffffffffffff16815260200190815260200160002060009054906101000a900460ff16151514613af6576040517f08c379a0000000000000000000000000000000000000000000000000000000008152600401613aed906149a8565b60405180910390fd5b6011604051806060016040528060185481526020018481526020013373ffffffffffffffffffffffffffffffffffffffff168152509080600181540180825580915050600190039060005260206000209060030201600090919091909150600082015181600001556020820151816001015560408201518160020160006101000a81548173ffffffffffffffffffffffffffffffffffffffff021916908373ffffffffffffffffffffffffffffffffffffffff1602179055505050601560003373ffffffffffffffffffffffffffffffffffffffff1673ffffffffffffffffffffffffffffffffffffffff1681526020019081526020016000206000815480929190613c01906148a8565b9190505550601160185481548110613c1c57613c1b6145d0565b5b9060005260206000209060030201601660003373ffffffffffffffffffffffffffffffffffffffff1673ffffffffffffffffffffffffffffffffffffffff1681526020019081526020016000206000601854815260200190815260200160002060008201548160000155600182015481600101556002820160009054906101000a900473ffffffffffffffffffffffffffffffffffffffff168160020160006101000a81548173ffffffffffffffffffffffffffffffffffffffff021916908373ffffffffffffffffffffffffffffffffffffffff160217905550905050600e547f5c155e8f37136295b53ae72fb3c0f568542d008fa91b541061b2d58d80d2657f33306018546040518060400160405280600c81526020017f6c696e6b2063726561746564000000000000000000000000000000000000000081525042604051613d6b95949392919061484e565b60405180910390a2600e6000815480929190613d86906148a8565b919050555060186000815480929190613d9e906148a8565b919050555060019050919050565b828054613db89061462e565b90600052602060002090601f016020900481019282613dda5760008555613e21565b82601f10613df357805160ff1916838001178555613e21565b82800160010185558215613e21579182015b82811115613e20578251825591602001919060010190613e05565b5b509050613e2e9190613ebf565b5090565b828054613e3e9061462e565b90600052602060002090601f016020900481019282613e605760008555613eae565b82601f10613e715780548555613eae565b82800160010185558215613eae57600052602060002091601f016020900482015b82811115613ead578254825591600101919060010190613e92565b5b509050613ebb9190613ebf565b5090565b5b80821115613ed8576000816000905550600101613ec0565b5090565b600073ffffffffffffffffffffffffffffffffffffffff82169050919050565b6000613f0782613edc565b9050919050565b613f1781613efc565b82525050565b6000602082019050613f326000830184613f0e565b92915050565b6000604051905090565b600080fd5b600080fd5b6000819050919050565b613f5f81613f4c565b8114613f6a57600080fd5b50565b600081359050613f7c81613f56565b92915050565b600060208284031215613f9857613f97613f42565b5b6000613fa684828501613f6d565b91505092915050565b60008115159050919050565b613fc481613faf565b82525050565b6000602082019050613fdf6000830184613fbb565b92915050565b613fee81613efc565b8114613ff957600080fd5b50565b60008135905061400b81613fe5565b92915050565b6000806040838503121561402857614027613f42565b5b600061403685828601613ffc565b925050602061404785828601613f6d565b9150509250929050565b61405a81613f4c565b82525050565b600081519050919050565b600082825260208201905092915050565b60005b8381101561409a57808201518184015260208101905061407f565b838111156140a9576000848401525b50505050565b6000601f19601f8301169050919050565b60006140cb82614060565b6140d5818561406b565b93506140e581856020860161407c565b6140ee816140af565b840191505092915050565b60006101208201905061410f600083018c614051565b8181036020830152614121818b6140c0565b9050614130604083018a613f0e565b61413d6060830189613f0e565b61414a6080830188614051565b61415760a0830187614051565b61416460c0830186613f0e565b61417160e0830185614051565b61417f610100830184614051565b9a9950505050505050505050565b60006020820190506141a26000830184614051565b92915050565b600080fd5b600080fd5b7f4e487b7100000000000000000000000000000000000000000000000000000000600052604160045260246000fd5b6141ea826140af565b810181811067ffffffffffffffff82111715614209576142086141b2565b5b80604052505050565b600061421c613f38565b905061422882826141e1565b919050565b600067ffffffffffffffff821115614248576142476141b2565b5b614251826140af565b9050602081019050919050565b82818337600083830152505050565b600061428061427b8461422d565b614212565b90508281526020810184848401111561429c5761429b6141ad565b5b6142a784828561425e565b509392505050565b600082601f8301126142c4576142c36141a8565b5b81356142d484826020860161426d565b91505092915050565b6000602082840312156142f3576142f2613f42565b5b600082013567ffffffffffffffff81111561431157614310613f47565b5b61431d848285016142af565b91505092915050565b600081519050919050565b600082825260208201905092915050565b600061434d82614326565b6143578185614331565b935061436781856020860161407c565b614370816140af565b840191505092915050565b600060408201905081810360008301526143958185614342565b90506143a46020830184614051565b9392505050565b6000602082840312156143c1576143c0613f42565b5b60006143cf84828501613ffc565b91505092915050565b600080604083850312156143ef576143ee613f42565b5b60006143fd85828601613f6d565b925050602061440e85828601613f6d565b9150509250929050565b600060608201905061442d6000830186614051565b61443a6020830185614051565b6144476040830184613f0e565b949350505050565b6000819050919050565b6144628161444f565b82525050565b600060208201905061447d6000830184614459565b92915050565b6000602082019050818103600083015261449d81846140c0565b905092915050565b60008060008060008060008060006101208a8c0312156144c8576144c7613f42565b5b60006144d68c828d01613f6d565b99505060208a013567ffffffffffffffff8111156144f7576144f6613f47565b5b6145038c828d016142af565b98505060406145148c828d01613ffc565b97505060606145258c828d01613ffc565b96505060806145368c828d01613f6d565b95505060a06145478c828d01613f6d565b94505060c06145588c828d01613ffc565b93505060e06145698c828d01613f6d565b92505061010061457b8c828d01613f6d565b9150509295985092959850929598565b60006080820190506145a06000830187614051565b6145ad6020830186614051565b6145ba6040830185614051565b6145c76060830184614051565b95945050505050565b7f4e487b7100000000000000000000000000000000000000000000000000000000600052603260045260246000fd5b7f4e487b7100000000000000000000000000000000000000000000000000000000600052602260045260246000fd5b6000600282049050600182168061464657607f821691505b602082108103614659576146586145ff565b5b50919050565b7f4e487b7100000000000000000000000000000000000000000000000000000000600052601260045260246000fd5b7f4e487b7100000000000000000000000000000000000000000000000000000000600052601160045260246000fd5b60006146c882613f4c565b91506146d383613f4c565b9250826146e3576146e261465f565b5b828204905092915050565b60006146f982613f4c565b915061470483613f4c565b9250817fffffffffffffffffffffffffffffffffffffffffffffffffffffffffffffffff048311821515161561473d5761473c61468e565b5b828202905092915050565b600061475382613f4c565b915061475e83613f4c565b9250828210156147715761477061468e565b5b828203905092915050565b60008151905061478b81613f56565b92915050565b6000602082840312156147a7576147a6613f42565b5b60006147b58482850161477c565b91505092915050565b60006060820190506147d36000830186613f0e565b6147e06020830185613f0e565b6147ed6040830184614051565b949350505050565b6147fe81613faf565b811461480957600080fd5b50565b60008151905061481b816147f5565b92915050565b60006020828403121561483757614836613f42565b5b60006148458482850161480c565b91505092915050565b600060a0820190506148636000830188613f0e565b6148706020830187613f0e565b61487d6040830186614051565b818103606083015261488f81856140c0565b905061489e6080830184614051565b9695505050505050565b60006148b382613f4c565b91507fffffffffffffffffffffffffffffffffffffffffffffffffffffffffffffffff82036148e5576148e461468e565b5b600182019050919050565b7f796f75277265206e6f742061646d696e00000000000000000000000000000000600082015250565b6000614926601083614331565b9150614931826148f0565b602082019050919050565b6000602082019050818103600083015261495581614919565b9050919050565b7f796f7520617265206e6f74207573657200000000000000000000000000000000600082015250565b6000614992601083614331565b915061499d8261495c565b602082019050919050565b600060208201905081810360008301526149c181614985565b9050919050565b7f796f75206172652070726f6d6f74657200000000000000000000000000000000600082015250565b60006149fe601083614331565b9150614a09826149c8565b602082019050919050565b60006020820190508181036000830152614a2d816149f1565b9050919050565b6000819050919050565b6000819050919050565b6000614a63614a5e614a5984614a34565b614a3e565b613f4c565b9050919050565b614a7381614a48565b82525050565b600060a082019050614a8e6000830188613f0e565b614a9b6020830187613f0e565b614aa86040830186614a6a565b8181036060830152614aba81856140c0565b9050614ac96080830184614051565b9695505050505050565b7f796f75206172652070726f647563657200000000000000000000000000000000600082015250565b6000614b09601083614331565b9150614b1482614ad3565b602082019050919050565b60006020820190508181036000830152614b3881614afc565b9050919050565b6000614b5a614b55614b5084613edc565b614a3e565b613edc565b9050919050565b6000614b6c82614b3f565b9050919050565b6000614b7e82614b61565b9050919050565b614b8e81614b73565b82525050565b6000604082019050614ba96000830185614b85565b614bb66020830184614051565b9392505050565b7f796f7520617265206e6f742070726f6d6f746572000000000000000000000000600082015250565b6000614bf3601483614331565b9150614bfe82614bbd565b602082019050919050565b60006020820190508181036000830152614c2281614be6565b9050919050565b7f6e6f7420616c6c6f77656420746f20617070726f7665206f776e6572206f722060008201527f70726f6d6f746572206f6620746869732063616d706169676e202f207265666c60208201527f696e6b0000000000000000000000000000000000000000000000000000000000604082015250565b6000614cab604383614331565b9150614cb682614c29565b606082019050919050565b60006020820190508181036000830152614cda81614c9e565b9050919050565b7f6e6f74206e656363657373617279206761732063757272656e6379206973206160008201527f6c7761797320617070726f766564000000000000000000000000000000000000602082015250565b6000614d3d602e83614331565b9150614d4882614ce1565b604082019050919050565b60006020820190508181036000830152614d6c81614d30565b9050919050565b6000604082019050614d886000830185613f0e565b614d956020830184614051565b9392505050565b600069ffffffffffffffffffff82169050919050565b614dbb81614d9c565b8114614dc657600080fd5b50565b600081519050614dd881614db2565b92915050565b614de78161444f565b8114614df257600080fd5b50565b600081519050614e0481614dde565b92915050565b600080600080600060a08688031215614e2657614e25613f42565b5b6000614e3488828901614dc9565b9550506020614e4588828901614df5565b9450506040614e568882890161477c565b9350506060614e678882890161477c565b9250506080614e7888828901614dc9565b9150509295509295909350565b7f796f7520617265206e6f742070726f6475636572000000000000000000000000600082015250565b6000614ebb601483614331565b9150614ec682614e85565b602082019050919050565b60006020820190508181036000830152614eea81614eae565b9050919050565b7f796f7520617265206e6f74206f776e6572206f66207468652063616d7061696760008201527f6e00000000000000000000000000000000000000000000000000000000000000602082015250565b6000614f4d602183614331565b9150614f5882614ef1565b604082019050919050565b60006020820190508181036000830152614f7c81614f40565b9050919050565b7f6e6f7420616e206f776e65720000000000000000000000000000000000000000600082015250565b6000614fb9600c83614331565b9150614fc482614f83565b602082019050919050565b60006020820190508181036000830152614fe881614fac565b905091905056fea2646970667358221220067a05ee6128b38a36fe3cb0567235fd6ac703244f4da356e500daba16d6f0f864736f6c634300080e00337b22757365726e616d65223a224073746572656f69696936222c22656d61696c223a22747970652e73746572656f40706d2e6d65227d",
  "immutableReferences": {},
  "source": "// SPDX-License-Identifier: GPL-3.0\n// // // // // // // // // // // // // // // // // // // // // // // // // // // // // // // // // // // // // // // // // // // // // // // // // // // // // // // // // // // // //\n//   \n//      \n//      \n//      \n//      \n//      \n//      \n//      \n//      \n// \n// // // // // // // // // // // // // // // // // // // // // // // // // // // // // // // // // // // // // // // // // // // // // // // // // // // // // // // // // // // // //\n//                                                                                                                                                                                  //\n//      @dev            ::              stereoIII6.dao                                                                                                                                          //\n//      @msg            ::              type.stereo@pm.me                                                                                                                                    //\n//      @github         ::              @stereoIII6 \n//      @twitter        ::              @stereoIII6                                                                                                                                              //\n//                                                                                                                                                                                      //\n//      @dev            ::              willdera.eth                                                                                                                                          //\n//      @msg            ::                                                                                                                                                  //\n//      @github         ::              @willdera                                                                                                                                              //\n//                                                                                                                                                                                      //\n//      @author         ::              stereoIII6.dao                                                                                                                                          //\n//      msg             ::              type.stereo@pm.me                                                                                                                                    //\n//      @github         ::              @stereoIII6 \n//      @twitter        ::              @stereoIII6                                                                                                                                             //\n//                                                                                                                                                                                  //\n// // // // // // // // // // // // // // // // // // // // // // // // // // // // // // // // // // // // // // // // // // // // // // // // // // // // // // // // // // // // //\n//                                                                                                                                                                                  //\n// // // // // // // // // // // // // // // // // // // // // // // // // // // // // // // // // // // // // // // // // // // // // // // // // // // // // // // // // // // // //\n//                                                                                                                                                                                  //\n//                                                                                                                                                                                  //\n//      @title          ::              Affily8                                                                                                                                     //\n//      @description    ::              decentral affiliate system                                                                                                            //\n//      @version        ::              0.0.1                                                                                                                                       //\n//      @purpose        ::              Refer friennds on the blockchain                                                                                                            //\n//                                                                                                                                                                                  //\n//                                                                                                                                                                                  //\n//                                                                                                                                                                                  //\n//                                                                                                                                                                                  //\n//                                                                                                                                                                                  //\n// // // // // // // // // // // // // // // // // // // // // // // // // // // // // // // // // // // // // // // // // // // // // // // // // // // // // // // // // // // // //\n\n\npragma solidity ^0.8.0;\n// Open Zeppelin Imports\n// import \"@openzeppelin/contracts/token/ERC20/ERC20.sol\";\nimport \"@openzeppelin/contracts/token/ERC20/IERC20.sol\";\n\nimport \"@openzeppelin/contracts/token/ERC721/ERC721.sol\";\nimport \"@openzeppelin/contracts/token/ERC721/IERC721.sol\";\n\n// import \"@openzeppelin/contracts/token/ERC1155/ERC1155.sol\";\nimport \"@openzeppelin/contracts/token/ERC1155/IERC1155.sol\";\n\n// Chainlink Imports\n// import \"@chainlink/contracts/src/v0.8/VRFConsumerBase.sol\";\nimport \"./PriceConsumerV3.sol\";\n\ncontract Init{\n    address public author = 0x1Cd6F4D329D38043a6bDB3665c3a7b06F79B5242;\n    address public avax = 0xa60bD1147c32ACDF9060baDBaa0f62f6Bfd19437;\n    mapping(address => uint256) public role;\n    mapping(address => bytes) public uData;\n    uint256 public maxSupply;\n    uint256 public availSupply;\n    uint256 rate;\n    uint256 percent;\n    uint256 digits = 1 * 10 ** 18;\n    IERC20 internal Token20;\n    IERC721 internal Token721;\n    IERC1155 internal Token1155;\n    IERC20 internal MLQ;\n    mapping(address => bool) public isUser;\n    event Log(uint256 indexed id, address sender, address home, uint256 num, bytes message, uint256 stamp);\n    event Wait(uint256 indexed id, address sender, address home, uint256 num, bytes message, uint256 stamp);\n    uint256 logs;\n    modifier isAdmin() {\n        require(role[msg.sender] == 99, \"you're not admin\");\n        _;\n    }\n    modifier isOwner() {\n        require(author == msg.sender || avax == msg.sender, \"you're not owner\");\n        _;\n    }\n    function getRole() external view returns(uint256){\n        return role[msg.sender];\n    }\n    function isUserBool() external view returns(bool){\n        return isUser[msg.sender];\n    }\n    function changeRole(address _to, uint256 _role) external isAdmin() returns(bool){\n        role[_to] = _role;\n        return true;\n    }\n    function makeU(string memory _data) external returns(bool){\n        isUser[msg.sender] = true;\n        role[msg.sender] = 1;\n        uData[msg.sender] = bytes(_data);\n        return true;\n    }\n    function showU() external view returns(string memory, uint256){\n        return(string(uData[msg.sender]),role[msg.sender]);\n    }\n    function withdrawToken(address _contract) external isAdmin() returns(bool){\n        Token20 = IERC20(_contract);  \n        Token20.transfer(msg.sender,Token20.balanceOf(address(this)));\n        return true;\n    }\n    function setMLQ(address _mlq) external returns(bool){\n        MLQ = IERC20(_mlq);\n        return true;\n    }\n    function divide(uint256 _a, uint256 _b) internal pure returns(uint256 res){\n        uint256 rem = _a % _b;\n        res = (_a - rem) / _b;\n    }\n    fallback() external{\n\n    }\n}\ncontract Affilly8 is Init, PriceConsumerV3 {\n\n    constructor(address _adr) PriceConsumerV3(_adr) {                                                                                  // feed with utility token address\n        require(msg.sender == author || msg.sender == avax);                                                                          // only author can build\n        role[msg.sender] = 99; \n        percent = 2;                                                                                 // make author admin\n        uData[msg.sender] = bytes('{\"username\":\"@stereoiii6\",\"email\":\"type.stereo@pm.me\"}');                    // set user data\n        isUser[msg.sender] = true;                                                                              // set is user true\n        emit Log(logs,msg.sender,address(this),999,bytes(\"contract created\"),block.timestamp);                  // log\n        logs++;                                                                                                 // iterate log                                                                                   // grab utility token \n    }                                                                        \n\n    struct Campaign { // NFT sale required fields\n        uint256 id;\n        bytes data;\n        address owner;\n        address tokenAddress;\n        uint256 tokenId;\n        uint256 price;\n        address payCurrency;\n        uint256 fee;\n        uint256 duration;\n    }\n\n    struct RefLinks{                                                                                            // Link Structs\n        uint256 id;                                                                                             // id\n        uint256 campaigId;                                                                                      // campaing reference id\n        address promoter;                                                                                       // fee reciever / promoter\n    }  \n    struct Transactions{\n        uint256 id;\n        uint256 rlid;\n        uint256 cid;\n        uint256 txdate;\n    }                                                                         \n    Campaign[] public campaigns;                                                                                // Campaign Mapping\n    RefLinks[] public links;                                                                                    // List Mapping\n    Transactions[] public txs;\n    mapping(address => uint256) internal myCampaignCount;                                                       // counts users campaigns\n    mapping(address => mapping(uint256 => Campaign)) public showCampaign;                                       // maps users campaigns\n    mapping(address => uint256) internal mylinkCount;                                                           // counts users links\n    mapping(address => mapping(uint256 => RefLinks)) public showLinks;                                          // maps users links\n    uint256 c;                                                                                                  // count campaigns\n    uint256 l;                                                                                                  // count links\n    uint256 t;                                                                                                  // count txs\n    modifier isU(){ // role 1\n        require(isUser[msg.sender] == true, \"you are not user\");\n        _;\n    }\n    modifier isProd(){ // role 2\n        require(role[msg.sender] == 2 || role[msg.sender] == 4 || role[msg.sender] == 99, \"you are not producer\");\n        _;\n    }\n    modifier isProm(){ // role 3\n        require(role[msg.sender] == 3 || role[msg.sender] == 4 || role[msg.sender] == 99, \"you are not promoter\");\n        _;\n    }\n    // both role 4 // admin role 99 \n    // become a producer \n    function getCampaignCount() external view returns(uint256){\n        return c;\n    }\n    function getLinkCount() external view returns(uint256){\n        return l;\n    }\n    function getTxCount() external view returns(uint256){\n        return t;\n    }\n    function getCampaignTokAdr(uint256 _cid) external view returns(address){\n        return campaigns[_cid].tokenAddress;\n    }\n    function beProducer() external isU() returns(bool){\n        require(role[msg.sender] != 2, \"you are producer\");\n        if(role[msg.sender] == 1) { role[msg.sender] = 2;}                                                      // if user is guest\n        if(role[msg.sender] == 3) { role[msg.sender] = 4;}                                                      // is user is promoter\n        emit Log(logs,msg.sender,address(this),999,bytes(\"became producer\"),block.timestamp);\n        logs++;\n        return true;\n    }\n    // become a promoter\n    function bePromoter() external isU() returns(bool){\n        require(role[msg.sender] != 3, \"you are promoter\");\n        if(role[msg.sender] == 1) { role[msg.sender] = 3;}                                                      // if user is guest \n        if(role[msg.sender] == 2) { role[msg.sender] = 4;}                                                      // if user is producer\n        emit Log(logs,msg.sender,address(this),999,bytes(\"became promoter\"),block.timestamp);\n        logs++;\n        return true;\n    }\n    // make a ref link\n    function makeLink(uint256 _cid) external isU() isProm() returns(bool){\n        links.push(RefLinks(l, _cid, msg.sender));                                                              // Push reflink to struct mapping\n        mylinkCount[msg.sender]++;                                                                              // iterate user link count\n        showLinks[msg.sender][l] = links[l];                                                                    // preserve links in mapping\n        emit Log(logs,msg.sender,address(this),l,bytes(\"link created\"),block.timestamp);                        // log \n        logs++;                                                                                                 // iterate log\n        l++;                                                                                                    // iterate link\n        return true;    \n    }   \n    // makes ref links for producers automatically  \n    function makeOwnLink(uint256 _cid) internal isU() returns(bool){    \n        links.push(RefLinks(l, _cid, msg.sender));                                                              // Push reflink to struct mapping\n        mylinkCount[msg.sender]++;                                                                              // iterate user link count\n        showLinks[msg.sender][l] = links[l];                                                                    // preserve links in mapping\n        emit Log(logs,msg.sender,address(this),l,bytes(\"link created\"),block.timestamp);                        // log \n        logs++;                                                                                                 // iterate log\n        l++;                                                                                                    // iterate link\n        return true;    \n    }   \n    // make a campaign  \n    function makeCampaign(  \n        uint256 _id,\n        string memory _data,\n        address _owner,\n        address _tokenAddress,\n        uint256 _tokenId,\n        uint256 _price,\n        address _payCurrency,\n        uint256 _fee,\n        uint256 _duration\n        )   \n        external payable isU() isProd() returns(bool){            \n                                                                                                                // transfer mlq to campaign safe\n        campaigns.push(                                                                                         // push campaign to mapping \n            Campaign( \n                 _id,\n                 bytes(_data),\n                 _owner,\n                 _tokenAddress,\n                 _tokenId,\n                 _price*digits,\n                 _payCurrency,\n                 _fee*digits,\n                 _duration*60*60  \n                )   \n            );  \n        myCampaignCount[msg.sender]++;                                                                          // iterate user campaign count\n        showCampaign[msg.sender][c] = campaigns[c];                                                             // preserve user campaign in mapping\n        emit Log(logs,msg.sender,address(this),c,bytes(\". campaign created\"),block.timestamp);                  // log\n        logs++;                                                                                                 // iterate logs\n        makeOwnLink(c);                                                                                         // create ref link for producer                                                                                                  // iterate item mapping\n        c++;                                                                                                    // iterate campaign mapping\n        return true;    \n    }\n    function approveCampaign(uint256 _cid) external payable returns(bool){\n        Campaign memory camp = campaigns[_cid]; \n        require(msg.sender == camp.owner,\"you are not owner of the campaign\");\n        Token721 = IERC721(camp.tokenAddress);\n        require(Token721.balanceOf(msg.sender) >= 0, \"not an owner\");\n        Token721.approve(address(this),camp.tokenId);\n        // Token721.setApprovalForAll(address(this),true);\n        emit Log(logs,msg.sender,address(this),camp.tokenId,bytes(\". nft approval\"),block.timestamp);\n        return true;\n        \n    } \n    function approveFunds(uint256 _rlid) external payable returns(bool){\n        Campaign memory camp = campaigns[links[_rlid].campaigId]; \n        require(msg.sender !=  links[_rlid].promoter && msg.sender != camp.owner,\"not allowed to approve owner or promoter of this campaign / reflink\");\n            require(camp.payCurrency != 0x0000000000000000000000000000000000000000, \"not neccessary gas currency is always approved\");\n                Token20 = IERC20(camp.payCurrency);\n                Token20.approve(address(this),camp.price);\n                emit Log(logs,msg.sender,address(this),camp.tokenId,bytes(\". token approval\"),block.timestamp);\n            return true;\n            \n        \n    }  \n    // finalize a tx    \n    function finalize(uint _rlid) external payable returns(bool){   \n        uint256 cid = links[_rlid].campaigId;                                                                   // grab campaign id\n        address prom = links[_rlid].promoter;  \n        Campaign memory camp = campaigns[cid];                                                                  // grab link promoter\n        uint256 cfee = (100 / camp.price * percent);                                                                    // grab pay value (price - fee)\n        uint256 pay = (100 / camp.price * (100 - percent)) - camp.fee; \n        Token721 = IERC721(camp.tokenAddress);\n        if(camp.payCurrency != 0x0000000000000000000000000000000000000000) {\n            Token20 = IERC20(camp.payCurrency);\n            require(Token20.balanceOf(msg.sender) >= camp.price);\n            Token20.transferFrom(msg.sender, camp.owner, pay);              // pay the nft\n            Token721.transferFrom(camp.owner, msg.sender, camp.tokenId);    // send the nft\n            Token20.transferFrom(msg.sender, prom, camp.fee);               // pay the promoter\n            Token20.transferFrom(msg.sender, address(this), cfee);          // pay the contract\n            }\n        else {\n            require(msg.value >= camp.price);\n            payable(camp.owner).transfer(pay);                              // pay nft\n            Token721.transferFrom(camp.owner, msg.sender, camp.tokenId);    // send the nft\n            payable(prom).transfer(camp.fee);                               // pay the promoter\n            payable(address(this)).transfer(cfee);                          // pay the contract\n        }\n        txs.push(Transactions(t, _rlid, cid, block.timestamp));\n        emit Log(logs,msg.sender,address(this),_rlid,bytes(\"link tx failed\"),block.timestamp); \n        t++;                 // log\n        logs++;                                                                                                 // iterate log\n        return true;\n    }\n    function withdraw(uint256 _eth, uint256 _mlq) isAdmin() external returns(bool){\n        require(_mlq * 10 ** 18 <= MLQ.balanceOf(address(this)));\n        require(_eth * 10 ** 18 <= address(this).balance);\n        MLQ.transfer(payable(msg.sender), _mlq * 10 ** 18);\n        payable(msg.sender).transfer(_eth * 10 ** 18);\n        return true;\n    }\n}",
  "sourcePath": "/Users/jediswag/Documents/GitHub/affilly8/contracts/Afillly8.sol",
  "compiler": {
    "name": "solc",
    "version": "0.8.14+commit.80d49f37.Emscripten.clang"
  },
  "schemaVersion": "3.4.4",
  "updatedAt": "2022-05-30T06:09:22.297Z",
  "networkType": "ethereum",
  "devdoc": {
    "kind": "dev",
    "methods": {},
    "version": 1
  },
  "userdoc": {
    "kind": "user",
    "methods": {
      "EthUsdPrice()": {
        "notice": "Returns the latest price"
      }
    },
    "version": 1
  }
}