{
  "contractName": "Affilly8",
  "abi": [
    {
      "inputs": [],
      "stateMutability": "nonpayable",
      "type": "constructor"
    },
    {
      "anonymous": false,
      "inputs": [
        {
          "indexed": true,
          "internalType": "uint256",
          "name": "id",
          "type": "uint256"
        },
        {
          "indexed": false,
          "internalType": "address",
          "name": "sender",
          "type": "address"
        },
        {
          "indexed": false,
          "internalType": "address",
          "name": "home",
          "type": "address"
        },
        {
          "indexed": false,
          "internalType": "uint256",
          "name": "num",
          "type": "uint256"
        },
        {
          "indexed": false,
          "internalType": "bytes",
          "name": "message",
          "type": "bytes"
        },
        {
          "indexed": false,
          "internalType": "uint256",
          "name": "stamp",
          "type": "uint256"
        }
      ],
      "name": "Log",
      "type": "event"
    },
    {
      "anonymous": false,
      "inputs": [
        {
          "indexed": true,
          "internalType": "uint256",
          "name": "id",
          "type": "uint256"
        },
        {
          "indexed": false,
          "internalType": "address",
          "name": "sender",
          "type": "address"
        },
        {
          "indexed": false,
          "internalType": "address",
          "name": "home",
          "type": "address"
        },
        {
          "indexed": false,
          "internalType": "uint256",
          "name": "num",
          "type": "uint256"
        },
        {
          "indexed": false,
          "internalType": "bytes",
          "name": "message",
          "type": "bytes"
        },
        {
          "indexed": false,
          "internalType": "uint256",
          "name": "stamp",
          "type": "uint256"
        }
      ],
      "name": "Wait",
      "type": "event"
    },
    {
      "stateMutability": "nonpayable",
      "type": "fallback"
    },
    {
      "inputs": [],
      "name": "EthUsdPrice",
      "outputs": [
        {
          "internalType": "int256",
          "name": "",
          "type": "int256"
        }
      ],
      "stateMutability": "view",
      "type": "function",
      "constant": true
    },
    {
      "inputs": [],
      "name": "author",
      "outputs": [
        {
          "internalType": "address",
          "name": "",
          "type": "address"
        }
      ],
      "stateMutability": "view",
      "type": "function",
      "constant": true
    },
    {
      "inputs": [],
      "name": "availSupply",
      "outputs": [
        {
          "internalType": "uint256",
          "name": "",
          "type": "uint256"
        }
      ],
      "stateMutability": "view",
      "type": "function",
      "constant": true
    },
    {
      "inputs": [],
      "name": "avax",
      "outputs": [
        {
          "internalType": "address",
          "name": "",
          "type": "address"
        }
      ],
      "stateMutability": "view",
      "type": "function",
      "constant": true
    },
    {
      "inputs": [
        {
          "internalType": "uint256",
          "name": "",
          "type": "uint256"
        }
      ],
      "name": "campaigns",
      "outputs": [
        {
          "internalType": "uint256",
          "name": "id",
          "type": "uint256"
        },
        {
          "internalType": "bytes",
          "name": "data",
          "type": "bytes"
        },
        {
          "internalType": "address",
          "name": "owner",
          "type": "address"
        },
        {
          "internalType": "address",
          "name": "tokenAddress",
          "type": "address"
        },
        {
          "internalType": "uint256",
          "name": "tokenId",
          "type": "uint256"
        },
        {
          "internalType": "uint256",
          "name": "price",
          "type": "uint256"
        },
        {
          "internalType": "address",
          "name": "payCurrency",
          "type": "address"
        },
        {
          "internalType": "uint256",
          "name": "fee",
          "type": "uint256"
        },
        {
          "internalType": "uint256",
          "name": "duration",
          "type": "uint256"
        }
      ],
      "stateMutability": "view",
      "type": "function",
      "constant": true
    },
    {
      "inputs": [
        {
          "internalType": "address",
          "name": "_to",
          "type": "address"
        },
        {
          "internalType": "uint256",
          "name": "_role",
          "type": "uint256"
        }
      ],
      "name": "changeRole",
      "outputs": [
        {
          "internalType": "bool",
          "name": "",
          "type": "bool"
        }
      ],
      "stateMutability": "nonpayable",
      "type": "function"
    },
    {
      "inputs": [],
      "name": "getRole",
      "outputs": [
        {
          "internalType": "uint256",
          "name": "",
          "type": "uint256"
        }
      ],
      "stateMutability": "view",
      "type": "function",
      "constant": true
    },
    {
      "inputs": [
        {
          "internalType": "address",
          "name": "",
          "type": "address"
        }
      ],
      "name": "isUser",
      "outputs": [
        {
          "internalType": "bool",
          "name": "",
          "type": "bool"
        }
      ],
      "stateMutability": "view",
      "type": "function",
      "constant": true
    },
    {
      "inputs": [],
      "name": "isUserBool",
      "outputs": [
        {
          "internalType": "bool",
          "name": "",
          "type": "bool"
        }
      ],
      "stateMutability": "view",
      "type": "function",
      "constant": true
    },
    {
      "inputs": [
        {
          "internalType": "uint256",
          "name": "",
          "type": "uint256"
        }
      ],
      "name": "links",
      "outputs": [
        {
          "internalType": "uint256",
          "name": "id",
          "type": "uint256"
        },
        {
          "internalType": "uint256",
          "name": "campaigId",
          "type": "uint256"
        },
        {
          "internalType": "address",
          "name": "promoter",
          "type": "address"
        }
      ],
      "stateMutability": "view",
      "type": "function",
      "constant": true
    },
    {
      "inputs": [
        {
          "internalType": "string",
          "name": "_data",
          "type": "string"
        }
      ],
      "name": "makeU",
      "outputs": [
        {
          "internalType": "bool",
          "name": "",
          "type": "bool"
        }
      ],
      "stateMutability": "nonpayable",
      "type": "function"
    },
    {
      "inputs": [],
      "name": "maxSupply",
      "outputs": [
        {
          "internalType": "uint256",
          "name": "",
          "type": "uint256"
        }
      ],
      "stateMutability": "view",
      "type": "function",
      "constant": true
    },
    {
      "inputs": [
        {
          "internalType": "address",
          "name": "",
          "type": "address"
        }
      ],
      "name": "role",
      "outputs": [
        {
          "internalType": "uint256",
          "name": "",
          "type": "uint256"
        }
      ],
      "stateMutability": "view",
      "type": "function",
      "constant": true
    },
    {
      "inputs": [
        {
          "internalType": "address",
          "name": "_mlq",
          "type": "address"
        }
      ],
      "name": "setMLQ",
      "outputs": [
        {
          "internalType": "bool",
          "name": "",
          "type": "bool"
        }
      ],
      "stateMutability": "nonpayable",
      "type": "function"
    },
    {
      "inputs": [
        {
          "internalType": "address",
          "name": "",
          "type": "address"
        },
        {
          "internalType": "uint256",
          "name": "",
          "type": "uint256"
        }
      ],
      "name": "showCampaign",
      "outputs": [
        {
          "internalType": "uint256",
          "name": "id",
          "type": "uint256"
        },
        {
          "internalType": "bytes",
          "name": "data",
          "type": "bytes"
        },
        {
          "internalType": "address",
          "name": "owner",
          "type": "address"
        },
        {
          "internalType": "address",
          "name": "tokenAddress",
          "type": "address"
        },
        {
          "internalType": "uint256",
          "name": "tokenId",
          "type": "uint256"
        },
        {
          "internalType": "uint256",
          "name": "price",
          "type": "uint256"
        },
        {
          "internalType": "address",
          "name": "payCurrency",
          "type": "address"
        },
        {
          "internalType": "uint256",
          "name": "fee",
          "type": "uint256"
        },
        {
          "internalType": "uint256",
          "name": "duration",
          "type": "uint256"
        }
      ],
      "stateMutability": "view",
      "type": "function",
      "constant": true
    },
    {
      "inputs": [
        {
          "internalType": "address",
          "name": "",
          "type": "address"
        },
        {
          "internalType": "uint256",
          "name": "",
          "type": "uint256"
        }
      ],
      "name": "showLinks",
      "outputs": [
        {
          "internalType": "uint256",
          "name": "id",
          "type": "uint256"
        },
        {
          "internalType": "uint256",
          "name": "campaigId",
          "type": "uint256"
        },
        {
          "internalType": "address",
          "name": "promoter",
          "type": "address"
        }
      ],
      "stateMutability": "view",
      "type": "function",
      "constant": true
    },
    {
      "inputs": [],
      "name": "showU",
      "outputs": [
        {
          "internalType": "string",
          "name": "",
          "type": "string"
        },
        {
          "internalType": "uint256",
          "name": "",
          "type": "uint256"
        }
      ],
      "stateMutability": "view",
      "type": "function",
      "constant": true
    },
    {
      "inputs": [
        {
          "internalType": "uint256",
          "name": "",
          "type": "uint256"
        }
      ],
      "name": "txs",
      "outputs": [
        {
          "internalType": "uint256",
          "name": "id",
          "type": "uint256"
        },
        {
          "internalType": "uint256",
          "name": "rlid",
          "type": "uint256"
        },
        {
          "internalType": "uint256",
          "name": "cid",
          "type": "uint256"
        },
        {
          "internalType": "uint256",
          "name": "txdate",
          "type": "uint256"
        }
      ],
      "stateMutability": "view",
      "type": "function",
      "constant": true
    },
    {
      "inputs": [
        {
          "internalType": "address",
          "name": "",
          "type": "address"
        }
      ],
      "name": "uData",
      "outputs": [
        {
          "internalType": "bytes",
          "name": "",
          "type": "bytes"
        }
      ],
      "stateMutability": "view",
      "type": "function",
      "constant": true
    },
    {
      "inputs": [
        {
          "internalType": "address",
          "name": "_contract",
          "type": "address"
        }
      ],
      "name": "withdrawToken",
      "outputs": [
        {
          "internalType": "bool",
          "name": "",
          "type": "bool"
        }
      ],
      "stateMutability": "nonpayable",
      "type": "function"
    },
    {
      "inputs": [],
      "name": "getCampaignCount",
      "outputs": [
        {
          "internalType": "uint256",
          "name": "",
          "type": "uint256"
        }
      ],
      "stateMutability": "view",
      "type": "function",
      "constant": true
    },
    {
      "inputs": [],
      "name": "getLinkCount",
      "outputs": [
        {
          "internalType": "uint256",
          "name": "",
          "type": "uint256"
        }
      ],
      "stateMutability": "view",
      "type": "function",
      "constant": true
    },
    {
      "inputs": [],
      "name": "getTxCount",
      "outputs": [
        {
          "internalType": "uint256",
          "name": "",
          "type": "uint256"
        }
      ],
      "stateMutability": "view",
      "type": "function",
      "constant": true
    },
    {
      "inputs": [
        {
          "internalType": "uint256",
          "name": "_cid",
          "type": "uint256"
        }
      ],
      "name": "getCampaignTokAdr",
      "outputs": [
        {
          "internalType": "address",
          "name": "",
          "type": "address"
        }
      ],
      "stateMutability": "view",
      "type": "function",
      "constant": true
    },
    {
      "inputs": [],
      "name": "beProducer",
      "outputs": [
        {
          "internalType": "bool",
          "name": "",
          "type": "bool"
        }
      ],
      "stateMutability": "nonpayable",
      "type": "function"
    },
    {
      "inputs": [],
      "name": "bePromoter",
      "outputs": [
        {
          "internalType": "bool",
          "name": "",
          "type": "bool"
        }
      ],
      "stateMutability": "nonpayable",
      "type": "function"
    },
    {
      "inputs": [
        {
          "internalType": "uint256",
          "name": "_cid",
          "type": "uint256"
        }
      ],
      "name": "makeLink",
      "outputs": [
        {
          "internalType": "bool",
          "name": "",
          "type": "bool"
        }
      ],
      "stateMutability": "nonpayable",
      "type": "function"
    },
    {
      "inputs": [
        {
          "internalType": "uint256",
          "name": "_id",
          "type": "uint256"
        },
        {
          "internalType": "string",
          "name": "_data",
          "type": "string"
        },
        {
          "internalType": "address",
          "name": "_owner",
          "type": "address"
        },
        {
          "internalType": "address",
          "name": "_tokenAddress",
          "type": "address"
        },
        {
          "internalType": "uint256",
          "name": "_tokenId",
          "type": "uint256"
        },
        {
          "internalType": "uint256",
          "name": "_price",
          "type": "uint256"
        },
        {
          "internalType": "address",
          "name": "_payCurrency",
          "type": "address"
        },
        {
          "internalType": "uint256",
          "name": "_fee",
          "type": "uint256"
        },
        {
          "internalType": "uint256",
          "name": "_duration",
          "type": "uint256"
        }
      ],
      "name": "makeCampaign",
      "outputs": [
        {
          "internalType": "bool",
          "name": "",
          "type": "bool"
        }
      ],
      "stateMutability": "payable",
      "type": "function",
      "payable": true
    },
    {
      "inputs": [
        {
          "internalType": "uint256",
          "name": "_cid",
          "type": "uint256"
        }
      ],
      "name": "approveCampaign",
      "outputs": [
        {
          "internalType": "bool",
          "name": "",
          "type": "bool"
        }
      ],
      "stateMutability": "payable",
      "type": "function",
      "payable": true
    },
    {
      "inputs": [
        {
          "internalType": "uint256",
          "name": "_rlid",
          "type": "uint256"
        }
      ],
      "name": "approveFunds",
      "outputs": [
        {
          "internalType": "bool",
          "name": "",
          "type": "bool"
        }
      ],
      "stateMutability": "payable",
      "type": "function",
      "payable": true
    },
    {
      "inputs": [
        {
          "internalType": "uint256",
          "name": "_rlid",
          "type": "uint256"
        }
      ],
      "name": "finalize",
      "outputs": [
        {
          "internalType": "bool",
          "name": "",
          "type": "bool"
        }
      ],
      "stateMutability": "payable",
      "type": "function",
      "payable": true
    },
    {
      "inputs": [
        {
          "internalType": "uint256",
          "name": "_eth",
          "type": "uint256"
        },
        {
          "internalType": "uint256",
          "name": "_mlq",
          "type": "uint256"
        }
      ],
      "name": "withdraw",
      "outputs": [
        {
          "internalType": "bool",
          "name": "",
          "type": "bool"
        }
      ],
      "stateMutability": "nonpayable",
      "type": "function"
    }
  ],
  "bytecode": "0x6080604052731cd6f4d329d38043a6bdb3665c3a7b06f79b52426000806101000a81548173ffffffffffffffffffffffffffffffffffffffff021916908373ffffffffffffffffffffffffffffffffffffffff16021790555073a60bd1147c32acdf9060badbaa0f62f6bfd19437600160006101000a81548173ffffffffffffffffffffffffffffffffffffffff021916908373ffffffffffffffffffffffffffffffffffffffff160217905550670de0b6b3a7640000600855348015620000c657600080fd5b50732a3796273d47c4ed363b361d3aefb7f7e2a13782600f60006101000a81548173ffffffffffffffffffffffffffffffffffffffff021916908373ffffffffffffffffffffffffffffffffffffffff16021790555060008054906101000a900473ffffffffffffffffffffffffffffffffffffffff1673ffffffffffffffffffffffffffffffffffffffff163373ffffffffffffffffffffffffffffffffffffffff161480620001c45750600160009054906101000a900473ffffffffffffffffffffffffffffffffffffffff1673ffffffffffffffffffffffffffffffffffffffff163373ffffffffffffffffffffffffffffffffffffffff16145b620001ce57600080fd5b6063600260003373ffffffffffffffffffffffffffffffffffffffff1673ffffffffffffffffffffffffffffffffffffffff1681526020019081526020016000208190555060026007819055506040518060600160405280603681526020016200544e60369139600360003373ffffffffffffffffffffffffffffffffffffffff1673ffffffffffffffffffffffffffffffffffffffff1681526020019081526020016000209080519060200190620002899291906200037d565b506001600d60003373ffffffffffffffffffffffffffffffffffffffff1673ffffffffffffffffffffffffffffffffffffffff16815260200190815260200160002060006101000a81548160ff021916908315150217905550600e547f5c155e8f37136295b53ae72fb3c0f568542d008fa91b541061b2d58d80d2657f33306103e76040518060400160405280601081526020017f636f6e747261637420637265617465640000000000000000000000000000000081525042604051620003559594939291906200057e565b60405180910390a2600e6000815480929190620003729062000611565b9190505550620006c2565b8280546200038b906200068d565b90600052602060002090601f016020900481019282620003af5760008555620003fb565b82601f10620003ca57805160ff1916838001178555620003fb565b82800160010185558215620003fb579182015b82811115620003fa578251825591602001919060010190620003dd565b5b5090506200040a91906200040e565b5090565b5b80821115620004295760008160009055506001016200040f565b5090565b600073ffffffffffffffffffffffffffffffffffffffff82169050919050565b60006200045a826200042d565b9050919050565b6200046c816200044d565b82525050565b6000819050919050565b6000819050919050565b6000819050919050565b6000620004b1620004ab620004a58462000472565b62000486565b6200047c565b9050919050565b620004c38162000490565b82525050565b600081519050919050565b600082825260208201905092915050565b60005b8381101562000505578082015181840152602081019050620004e8565b8381111562000515576000848401525b50505050565b6000601f19601f8301169050919050565b60006200053982620004c9565b620005458185620004d4565b935062000557818560208601620004e5565b62000562816200051b565b840191505092915050565b62000578816200047c565b82525050565b600060a08201905062000595600083018862000461565b620005a4602083018762000461565b620005b36040830186620004b8565b8181036060830152620005c781856200052c565b9050620005d860808301846200056d565b9695505050505050565b7f4e487b7100000000000000000000000000000000000000000000000000000000600052601160045260246000fd5b60006200061e826200047c565b91507fffffffffffffffffffffffffffffffffffffffffffffffffffffffffffffffff8203620006535762000652620005e2565b5b600182019050919050565b7f4e487b7100000000000000000000000000000000000000000000000000000000600052602260045260246000fd5b60006002820490506001821680620006a657607f821691505b602082108103620006bc57620006bb6200065e565b5b50919050565b614d7c80620006d26000396000f3fe6080604052600436106101e65760003560e01c806394f4a25911610102578063d590f8c911610095578063ef51b79d11610064578063ef51b79d146107bc578063f4567fa8146107e7578063f5715d5614610824578063fde0817414610864576101e7565b8063d590f8c9146106e5578063d5abeb0114610722578063ea319b881461074d578063ee4e1b531461078c576101e7565b8063b7187e35116100d1578063b7187e3514610608578063ba21975014610645578063c96f6ca914610670578063d09e747f146106a0576101e7565b806394f4a2591461054a5780639f5215dd14610587578063a6c3e6b9146105b2578063b447b0a5146105dd576101e7565b80632e3606ad1161017a5780636d65d97b116101495780636d65d97b14610461578063881d8a401461049e57806389241f96146104dd578063894760691461050d576101e7565b80632e3606ad146103915780634209fff1146103bc578063441a3e70146103f95780636caa921814610436576101e7565b80631dd46c1e116101b65780631dd46c1e146102d2578063268b5227146102fd578063274daa351461033a5780632a1e5ef314610366576101e7565b806253d555146101f557806305261aea146102205780630acfd58e14610250578063141961bc1461028d576101e7565b5b3480156101f357600080fd5b005b34801561020157600080fd5b5061020a61088f565b6040516102179190613e50565b60405180910390f35b61023a60048036038101906102359190613eb5565b6108b5565b6040516102479190613efd565b60405180910390f35b34801561025c57600080fd5b5061027760048036038101906102729190613f44565b611233565b6040516102849190613efd565b60405180910390f35b34801561029957600080fd5b506102b460048036038101906102af9190613eb5565b611305565b6040516102c99998979695949392919061402c565b60405180910390f35b3480156102de57600080fd5b506102e761144b565b6040516102f491906140c0565b60405180910390f35b34801561030957600080fd5b50610324600480360381019061031f9190614210565b611455565b6040516103319190613efd565b60405180910390f35b34801561034657600080fd5b5061034f611551565b60405161035d9291906142ae565b60405180910390f35b34801561037257600080fd5b5061037b611668565b6040516103889190613efd565b60405180910390f35b34801561039d57600080fd5b506103a6611930565b6040516103b39190613efd565b60405180910390f35b3480156103c857600080fd5b506103e360048036038101906103de91906142de565b611bf7565b6040516103f09190613efd565b60405180910390f35b34801561040557600080fd5b50610420600480360381019061041b919061430b565b611c17565b60405161042d9190613efd565b60405180910390f35b34801561044257600080fd5b5061044b611e8e565b60405161045891906140c0565b60405180910390f35b34801561046d57600080fd5b5061048860048036038101906104839190613eb5565b611e98565b6040516104959190613efd565b60405180910390f35b3480156104aa57600080fd5b506104c560048036038101906104c09190613eb5565b6122f9565b6040516104d49392919061434b565b60405180910390f35b6104f760048036038101906104f29190613eb5565b612353565b6040516105049190613efd565b60405180910390f35b34801561051957600080fd5b50610534600480360381019061052f91906142de565b6127a6565b6040516105419190613efd565b60405180910390f35b34801561055657600080fd5b50610571600480360381019061056c91906142de565b6129b0565b60405161057e9190613efd565b60405180910390f35b34801561059357600080fd5b5061059c6129fc565b6040516105a991906140c0565b60405180910390f35b3480156105be57600080fd5b506105c7612a02565b6040516105d49190613e50565b60405180910390f35b3480156105e957600080fd5b506105f2612a26565b6040516105ff919061439b565b60405180910390f35b34801561061457600080fd5b5061062f600480360381019061062a91906142de565b612ac7565b60405161063c91906143b6565b60405180910390f35b34801561065157600080fd5b5061065a612b67565b6040516106679190613efd565b60405180910390f35b61068a600480360381019061068591906143d8565b612bbb565b6040516106979190613efd565b60405180910390f35b3480156106ac57600080fd5b506106c760048036038101906106c29190613f44565b613285565b6040516106dc9998979695949392919061402c565b60405180910390f35b3480156106f157600080fd5b5061070c600480360381019061070791906142de565b6133c8565b60405161071991906140c0565b60405180910390f35b34801561072e57600080fd5b506107376133e0565b60405161074491906140c0565b60405180910390f35b34801561075957600080fd5b50610774600480360381019061076f9190613f44565b6133e6565b6040516107839392919061434b565b60405180910390f35b6107a660048036038101906107a19190613eb5565b61343d565b6040516107b39190613efd565b60405180910390f35b3480156107c857600080fd5b506107d16138b4565b6040516107de91906140c0565b60405180910390f35b3480156107f357600080fd5b5061080e60048036038101906108099190613eb5565b6138be565b60405161081b9190613e50565b60405180910390f35b34801561083057600080fd5b5061084b60048036038101906108469190613eb5565b61390d565b60405161085b94939291906144be565b60405180910390f35b34801561087057600080fd5b5061087961394d565b60405161088691906140c0565b60405180910390f35b600160009054906101000a900473ffffffffffffffffffffffffffffffffffffffff1681565b600080601183815481106108cc576108cb614503565b5b90600052602060002090600302016001015490506000601184815481106108f6576108f5614503565b5b906000526020600020906003020160020160009054906101000a900473ffffffffffffffffffffffffffffffffffffffff1690506000601083815481106109405761093f614503565b5b9060005260206000209060090201604051806101200160405290816000820154815260200160018201805461097490614561565b80601f01602080910402602001604051908101604052809291908181526020018280546109a090614561565b80156109ed5780601f106109c2576101008083540402835291602001916109ed565b820191906000526020600020905b8154815290600101906020018083116109d057829003601f168201915b505050505081526020016002820160009054906101000a900473ffffffffffffffffffffffffffffffffffffffff1673ffffffffffffffffffffffffffffffffffffffff1673ffffffffffffffffffffffffffffffffffffffff1681526020016003820160009054906101000a900473ffffffffffffffffffffffffffffffffffffffff1673ffffffffffffffffffffffffffffffffffffffff1673ffffffffffffffffffffffffffffffffffffffff16815260200160048201548152602001600582015481526020016006820160009054906101000a900473ffffffffffffffffffffffffffffffffffffffff1673ffffffffffffffffffffffffffffffffffffffff1673ffffffffffffffffffffffffffffffffffffffff16815260200160078201548152602001600882015481525050905060006007548260a001516064610b3891906145f0565b610b429190614621565b905060008260e001516007546064610b5a919061467b565b8460a001516064610b6b91906145f0565b610b759190614621565b610b7f919061467b565b90508260600151600a60006101000a81548173ffffffffffffffffffffffffffffffffffffffff021916908373ffffffffffffffffffffffffffffffffffffffff160217905550600073ffffffffffffffffffffffffffffffffffffffff168360c0015173ffffffffffffffffffffffffffffffffffffffff1614610f7e578260c00151600960006101000a81548173ffffffffffffffffffffffffffffffffffffffff021916908373ffffffffffffffffffffffffffffffffffffffff1602179055508260a00151600960009054906101000a900473ffffffffffffffffffffffffffffffffffffffff1673ffffffffffffffffffffffffffffffffffffffff166370a08231336040518263ffffffff1660e01b8152600401610ca39190613e50565b602060405180830381865afa158015610cc0573d6000803e3d6000fd5b505050506040513d601f19601f82011682018060405250810190610ce491906146c4565b1015610cef57600080fd5b600960009054906101000a900473ffffffffffffffffffffffffffffffffffffffff1673ffffffffffffffffffffffffffffffffffffffff166323b872dd338560400151846040518463ffffffff1660e01b8152600401610d52939291906146f1565b6020604051808303816000875af1158015610d71573d6000803e3d6000fd5b505050506040513d601f19601f82011682018060405250810190610d959190614754565b50600a60009054906101000a900473ffffffffffffffffffffffffffffffffffffffff1673ffffffffffffffffffffffffffffffffffffffff166323b872dd84604001513386608001516040518463ffffffff1660e01b8152600401610dfd939291906146f1565b600060405180830381600087803b158015610e1757600080fd5b505af1158015610e2b573d6000803e3d6000fd5b50505050600960009054906101000a900473ffffffffffffffffffffffffffffffffffffffff1673ffffffffffffffffffffffffffffffffffffffff166323b872dd33868660e001516040518463ffffffff1660e01b8152600401610e92939291906146f1565b6020604051808303816000875af1158015610eb1573d6000803e3d6000fd5b505050506040513d601f19601f82011682018060405250810190610ed59190614754565b50600960009054906101000a900473ffffffffffffffffffffffffffffffffffffffff1673ffffffffffffffffffffffffffffffffffffffff166323b872dd3330856040518463ffffffff1660e01b8152600401610f35939291906146f1565b6020604051808303816000875af1158015610f54573d6000803e3d6000fd5b505050506040513d601f19601f82011682018060405250810190610f789190614754565b50611106565b8260a00151341015610f8f57600080fd5b826040015173ffffffffffffffffffffffffffffffffffffffff166108fc829081150290604051600060405180830381858888f19350505050158015610fd9573d6000803e3d6000fd5b50600a60009054906101000a900473ffffffffffffffffffffffffffffffffffffffff1673ffffffffffffffffffffffffffffffffffffffff166323b872dd84604001513386608001516040518463ffffffff1660e01b8152600401611041939291906146f1565b600060405180830381600087803b15801561105b57600080fd5b505af115801561106f573d6000803e3d6000fd5b505050508373ffffffffffffffffffffffffffffffffffffffff166108fc8460e001519081150290604051600060405180830381858888f193505050501580156110bd573d6000803e3d6000fd5b503073ffffffffffffffffffffffffffffffffffffffff166108fc839081150290604051600060405180830381858888f19350505050158015611104573d6000803e3d6000fd5b505b601260405180608001604052806019548152602001898152602001878152602001428152509080600181540180825580915050600190039060005260206000209060040201600090919091909150600082015181600001556020820151816001015560408201518160020155606082015181600301555050600e547f5c155e8f37136295b53ae72fb3c0f568542d008fa91b541061b2d58d80d2657f33308a6040518060400160405280600e81526020017f6c696e6b207478206661696c6564000000000000000000000000000000000000815250426040516111ed959493929190614781565b60405180910390a260196000815480929190611208906147db565b9190505550600e6000815480929190611220906147db565b9190505550600195505050505050919050565b60006063600260003373ffffffffffffffffffffffffffffffffffffffff1673ffffffffffffffffffffffffffffffffffffffff16815260200190815260200160002054146112b7576040517f08c379a00000000000000000000000000000000000000000000000000000000081526004016112ae9061486f565b60405180910390fd5b81600260008573ffffffffffffffffffffffffffffffffffffffff1673ffffffffffffffffffffffffffffffffffffffff168152602001908152602001600020819055506001905092915050565b6010818154811061131557600080fd5b906000526020600020906009020160009150905080600001549080600101805461133e90614561565b80601f016020809104026020016040519081016040528092919081815260200182805461136a90614561565b80156113b75780601f1061138c576101008083540402835291602001916113b7565b820191906000526020600020905b81548152906001019060200180831161139a57829003601f168201915b5050505050908060020160009054906101000a900473ffffffffffffffffffffffffffffffffffffffff16908060030160009054906101000a900473ffffffffffffffffffffffffffffffffffffffff16908060040154908060050154908060060160009054906101000a900473ffffffffffffffffffffffffffffffffffffffff16908060070154908060080154905089565b6000601954905090565b60006001600d60003373ffffffffffffffffffffffffffffffffffffffff1673ffffffffffffffffffffffffffffffffffffffff16815260200190815260200160002060006101000a81548160ff0219169083151502179055506001600260003373ffffffffffffffffffffffffffffffffffffffff1673ffffffffffffffffffffffffffffffffffffffff1681526020019081526020016000208190555081600360003373ffffffffffffffffffffffffffffffffffffffff1673ffffffffffffffffffffffffffffffffffffffff1681526020019081526020016000209080519060200190611547929190613cdf565b5060019050919050565b60606000600360003373ffffffffffffffffffffffffffffffffffffffff1673ffffffffffffffffffffffffffffffffffffffff168152602001908152602001600020600260003373ffffffffffffffffffffffffffffffffffffffff1673ffffffffffffffffffffffffffffffffffffffff168152602001908152602001600020548180546115e090614561565b80601f016020809104026020016040519081016040528092919081815260200182805461160c90614561565b80156116595780601f1061162e57610100808354040283529160200191611659565b820191906000526020600020905b81548152906001019060200180831161163c57829003601f168201915b50505050509150915091509091565b600060011515600d60003373ffffffffffffffffffffffffffffffffffffffff1673ffffffffffffffffffffffffffffffffffffffff16815260200190815260200160002060009054906101000a900460ff161515146116fd576040517f08c379a00000000000000000000000000000000000000000000000000000000081526004016116f4906148db565b60405180910390fd5b6003600260003373ffffffffffffffffffffffffffffffffffffffff1673ffffffffffffffffffffffffffffffffffffffff168152602001908152602001600020540361177f576040517f08c379a000000000000000000000000000000000000000000000000000000000815260040161177690614947565b60405180910390fd5b6001600260003373ffffffffffffffffffffffffffffffffffffffff1673ffffffffffffffffffffffffffffffffffffffff168152602001908152602001600020540361180c576003600260003373ffffffffffffffffffffffffffffffffffffffff1673ffffffffffffffffffffffffffffffffffffffff168152602001908152602001600020819055505b60028060003373ffffffffffffffffffffffffffffffffffffffff1673ffffffffffffffffffffffffffffffffffffffff1681526020019081526020016000205403611898576004600260003373ffffffffffffffffffffffffffffffffffffffff1673ffffffffffffffffffffffffffffffffffffffff168152602001908152602001600020819055505b600e547f5c155e8f37136295b53ae72fb3c0f568542d008fa91b541061b2d58d80d2657f33306103e76040518060400160405280600f81526020017f626563616d652070726f6d6f7465720000000000000000000000000000000000815250426040516119099594939291906149ac565b60405180910390a2600e6000815480929190611924906147db565b91905055506001905090565b600060011515600d60003373ffffffffffffffffffffffffffffffffffffffff1673ffffffffffffffffffffffffffffffffffffffff16815260200190815260200160002060009054906101000a900460ff161515146119c5576040517f08c379a00000000000000000000000000000000000000000000000000000000081526004016119bc906148db565b60405180910390fd5b60028060003373ffffffffffffffffffffffffffffffffffffffff1673ffffffffffffffffffffffffffffffffffffffff1681526020019081526020016000205403611a46576040517f08c379a0000000000000000000000000000000000000000000000000000000008152600401611a3d90614a52565b60405180910390fd5b6001600260003373ffffffffffffffffffffffffffffffffffffffff1673ffffffffffffffffffffffffffffffffffffffff1681526020019081526020016000205403611ad25760028060003373ffffffffffffffffffffffffffffffffffffffff1673ffffffffffffffffffffffffffffffffffffffff168152602001908152602001600020819055505b6003600260003373ffffffffffffffffffffffffffffffffffffffff1673ffffffffffffffffffffffffffffffffffffffff1681526020019081526020016000205403611b5f576004600260003373ffffffffffffffffffffffffffffffffffffffff1673ffffffffffffffffffffffffffffffffffffffff168152602001908152602001600020819055505b600e547f5c155e8f37136295b53ae72fb3c0f568542d008fa91b541061b2d58d80d2657f33306103e76040518060400160405280600f81526020017f626563616d652070726f6475636572000000000000000000000000000000000081525042604051611bd09594939291906149ac565b60405180910390a2600e6000815480929190611beb906147db565b91905055506001905090565b600d6020528060005260406000206000915054906101000a900460ff1681565b60006063600260003373ffffffffffffffffffffffffffffffffffffffff1673ffffffffffffffffffffffffffffffffffffffff1681526020019081526020016000205414611c9b576040517f08c379a0000000000000000000000000000000000000000000000000000000008152600401611c929061486f565b60405180910390fd5b600c60009054906101000a900473ffffffffffffffffffffffffffffffffffffffff1673ffffffffffffffffffffffffffffffffffffffff166370a08231306040518263ffffffff1660e01b8152600401611cf69190613e50565b602060405180830381865afa158015611d13573d6000803e3d6000fd5b505050506040513d601f19601f82011682018060405250810190611d3791906146c4565b670de0b6b3a764000083611d4b9190614621565b1115611d5657600080fd5b47670de0b6b3a764000084611d6b9190614621565b1115611d7657600080fd5b600c60009054906101000a900473ffffffffffffffffffffffffffffffffffffffff1673ffffffffffffffffffffffffffffffffffffffff1663a9059cbb33670de0b6b3a764000085611dc99190614621565b6040518363ffffffff1660e01b8152600401611de6929190614ac7565b6020604051808303816000875af1158015611e05573d6000803e3d6000fd5b505050506040513d601f19601f82011682018060405250810190611e299190614754565b503373ffffffffffffffffffffffffffffffffffffffff166108fc670de0b6b3a764000085611e589190614621565b9081150290604051600060405180830381858888f19350505050158015611e83573d6000803e3d6000fd5b506001905092915050565b6000601754905090565b600060011515600d60003373ffffffffffffffffffffffffffffffffffffffff1673ffffffffffffffffffffffffffffffffffffffff16815260200190815260200160002060009054906101000a900460ff16151514611f2d576040517f08c379a0000000000000000000000000000000000000000000000000000000008152600401611f24906148db565b60405180910390fd5b6003600260003373ffffffffffffffffffffffffffffffffffffffff1673ffffffffffffffffffffffffffffffffffffffff168152602001908152602001600020541480611fba57506004600260003373ffffffffffffffffffffffffffffffffffffffff1673ffffffffffffffffffffffffffffffffffffffff16815260200190815260200160002054145b8061200457506063600260003373ffffffffffffffffffffffffffffffffffffffff1673ffffffffffffffffffffffffffffffffffffffff16815260200190815260200160002054145b612043576040517f08c379a000000000000000000000000000000000000000000000000000000000815260040161203a90614b3c565b60405180910390fd5b6011604051806060016040528060185481526020018481526020013373ffffffffffffffffffffffffffffffffffffffff168152509080600181540180825580915050600190039060005260206000209060030201600090919091909150600082015181600001556020820151816001015560408201518160020160006101000a81548173ffffffffffffffffffffffffffffffffffffffff021916908373ffffffffffffffffffffffffffffffffffffffff1602179055505050601560003373ffffffffffffffffffffffffffffffffffffffff1673ffffffffffffffffffffffffffffffffffffffff168152602001908152602001600020600081548092919061214e906147db565b919050555060116018548154811061216957612168614503565b5b9060005260206000209060030201601660003373ffffffffffffffffffffffffffffffffffffffff1673ffffffffffffffffffffffffffffffffffffffff1681526020019081526020016000206000601854815260200190815260200160002060008201548160000155600182015481600101556002820160009054906101000a900473ffffffffffffffffffffffffffffffffffffffff168160020160006101000a81548173ffffffffffffffffffffffffffffffffffffffff021916908373ffffffffffffffffffffffffffffffffffffffff160217905550905050600e547f5c155e8f37136295b53ae72fb3c0f568542d008fa91b541061b2d58d80d2657f33306018546040518060400160405280600c81526020017f6c696e6b20637265617465640000000000000000000000000000000000000000815250426040516122b8959493929190614781565b60405180910390a2600e60008154809291906122d3906147db565b9190505550601860008154809291906122eb906147db565b919050555060019050919050565b6011818154811061230957600080fd5b90600052602060002090600302016000915090508060000154908060010154908060020160009054906101000a900473ffffffffffffffffffffffffffffffffffffffff16905083565b60008060106011848154811061236c5761236b614503565b5b9060005260206000209060030201600101548154811061238f5761238e614503565b5b906000526020600020906009020160405180610120016040529081600082015481526020016001820180546123c390614561565b80601f01602080910402602001604051908101604052809291908181526020018280546123ef90614561565b801561243c5780601f106124115761010080835404028352916020019161243c565b820191906000526020600020905b81548152906001019060200180831161241f57829003601f168201915b505050505081526020016002820160009054906101000a900473ffffffffffffffffffffffffffffffffffffffff1673ffffffffffffffffffffffffffffffffffffffff1673ffffffffffffffffffffffffffffffffffffffff1681526020016003820160009054906101000a900473ffffffffffffffffffffffffffffffffffffffff1673ffffffffffffffffffffffffffffffffffffffff1673ffffffffffffffffffffffffffffffffffffffff16815260200160048201548152602001600582015481526020016006820160009054906101000a900473ffffffffffffffffffffffffffffffffffffffff1673ffffffffffffffffffffffffffffffffffffffff1673ffffffffffffffffffffffffffffffffffffffff1681526020016007820154815260200160088201548152505090506011838154811061258557612584614503565b5b906000526020600020906003020160020160009054906101000a900473ffffffffffffffffffffffffffffffffffffffff1673ffffffffffffffffffffffffffffffffffffffff163373ffffffffffffffffffffffffffffffffffffffff161461279557600073ffffffffffffffffffffffffffffffffffffffff168160c0015173ffffffffffffffffffffffffffffffffffffffff1614612790578060c00151600960006101000a81548173ffffffffffffffffffffffffffffffffffffffff021916908373ffffffffffffffffffffffffffffffffffffffff160217905550600960009054906101000a900473ffffffffffffffffffffffffffffffffffffffff1673ffffffffffffffffffffffffffffffffffffffff1663095ea7b3308360a001516040518363ffffffff1660e01b81526004016126c7929190614b5c565b6020604051808303816000875af11580156126e6573d6000803e3d6000fd5b505050506040513d601f19601f8201168201806040525081019061270a9190614754565b50600e547f5c155e8f37136295b53ae72fb3c0f568542d008fa91b541061b2d58d80d2657f333084608001516040518060400160405280601081526020017f2e20746f6b656e20617070726f76616c000000000000000000000000000000008152504260405161277e959493929190614781565b60405180910390a260019150506127a1565b61279f565b60009150506127a1565b505b919050565b60006063600260003373ffffffffffffffffffffffffffffffffffffffff1673ffffffffffffffffffffffffffffffffffffffff168152602001908152602001600020541461282a576040517f08c379a00000000000000000000000000000000000000000000000000000000081526004016128219061486f565b60405180910390fd5b81600960006101000a81548173ffffffffffffffffffffffffffffffffffffffff021916908373ffffffffffffffffffffffffffffffffffffffff160217905550600960009054906101000a900473ffffffffffffffffffffffffffffffffffffffff1673ffffffffffffffffffffffffffffffffffffffff1663a9059cbb33600960009054906101000a900473ffffffffffffffffffffffffffffffffffffffff1673ffffffffffffffffffffffffffffffffffffffff166370a08231306040518263ffffffff1660e01b81526004016129059190613e50565b602060405180830381865afa158015612922573d6000803e3d6000fd5b505050506040513d601f19601f8201168201806040525081019061294691906146c4565b6040518363ffffffff1660e01b8152600401612963929190614b5c565b6020604051808303816000875af1158015612982573d6000803e3d6000fd5b505050506040513d601f19601f820116820180604052508101906129a69190614754565b5060019050919050565b600081600c60006101000a81548173ffffffffffffffffffffffffffffffffffffffff021916908373ffffffffffffffffffffffffffffffffffffffff16021790555060019050919050565b60055481565b60008054906101000a900473ffffffffffffffffffffffffffffffffffffffff1681565b600080600f60009054906101000a900473ffffffffffffffffffffffffffffffffffffffff1673ffffffffffffffffffffffffffffffffffffffff1663feaf968c6040518163ffffffff1660e01b815260040160a060405180830381865afa158015612a96573d6000803e3d6000fd5b505050506040513d601f19601f82011682018060405250810190612aba9190614bf3565b5050509150508091505090565b60036020528060005260406000206000915090508054612ae690614561565b80601f0160208091040260200160405190810160405280929190818152602001828054612b1290614561565b8015612b5f5780601f10612b3457610100808354040283529160200191612b5f565b820191906000526020600020905b815481529060010190602001808311612b4257829003601f168201915b505050505081565b6000600d60003373ffffffffffffffffffffffffffffffffffffffff1673ffffffffffffffffffffffffffffffffffffffff16815260200190815260200160002060009054906101000a900460ff16905090565b600060011515600d60003373ffffffffffffffffffffffffffffffffffffffff1673ffffffffffffffffffffffffffffffffffffffff16815260200190815260200160002060009054906101000a900460ff16151514612c50576040517f08c379a0000000000000000000000000000000000000000000000000000000008152600401612c47906148db565b60405180910390fd5b60028060003373ffffffffffffffffffffffffffffffffffffffff1673ffffffffffffffffffffffffffffffffffffffff168152602001908152602001600020541480612cdc57506004600260003373ffffffffffffffffffffffffffffffffffffffff1673ffffffffffffffffffffffffffffffffffffffff16815260200190815260200160002054145b80612d2657506063600260003373ffffffffffffffffffffffffffffffffffffffff1673ffffffffffffffffffffffffffffffffffffffff16815260200190815260200160002054145b612d65576040517f08c379a0000000000000000000000000000000000000000000000000000000008152600401612d5c90614cba565b60405180910390fd5b60106040518061012001604052808c81526020018b81526020018a73ffffffffffffffffffffffffffffffffffffffff1681526020018973ffffffffffffffffffffffffffffffffffffffff16815260200188815260200160085488612dcb9190614621565b81526020018673ffffffffffffffffffffffffffffffffffffffff16815260200160085486612dfa9190614621565b8152602001603c8086612e0d9190614621565b612e179190614621565b8152509080600181540180825580915050600190039060005260206000209060090201600090919091909150600082015181600001556020820151816001019080519060200190612e69929190613cdf565b5060408201518160020160006101000a81548173ffffffffffffffffffffffffffffffffffffffff021916908373ffffffffffffffffffffffffffffffffffffffff16021790555060608201518160030160006101000a81548173ffffffffffffffffffffffffffffffffffffffff021916908373ffffffffffffffffffffffffffffffffffffffff1602179055506080820151816004015560a0820151816005015560c08201518160060160006101000a81548173ffffffffffffffffffffffffffffffffffffffff021916908373ffffffffffffffffffffffffffffffffffffffff16021790555060e0820151816007015561010082015181600801555050601360003373ffffffffffffffffffffffffffffffffffffffff1673ffffffffffffffffffffffffffffffffffffffff1681526020019081526020016000206000815480929190612fba906147db565b9190505550601060175481548110612fd557612fd4614503565b5b9060005260206000209060090201601460003373ffffffffffffffffffffffffffffffffffffffff1673ffffffffffffffffffffffffffffffffffffffff1681526020019081526020016000206000601754815260200190815260200160002060008201548160000155600182018160010190805461305390614561565b61305e929190613d65565b506002820160009054906101000a900473ffffffffffffffffffffffffffffffffffffffff168160020160006101000a81548173ffffffffffffffffffffffffffffffffffffffff021916908373ffffffffffffffffffffffffffffffffffffffff1602179055506003820160009054906101000a900473ffffffffffffffffffffffffffffffffffffffff168160030160006101000a81548173ffffffffffffffffffffffffffffffffffffffff021916908373ffffffffffffffffffffffffffffffffffffffff16021790555060048201548160040155600582015481600501556006820160009054906101000a900473ffffffffffffffffffffffffffffffffffffffff168160060160006101000a81548173ffffffffffffffffffffffffffffffffffffffff021916908373ffffffffffffffffffffffffffffffffffffffff1602179055506007820154816007015560088201548160080155905050600e547f5c155e8f37136295b53ae72fb3c0f568542d008fa91b541061b2d58d80d2657f33306017546040518060400160405280601281526020017f2e2063616d706169676e2063726561746564000000000000000000000000000081525042604051613230959493929190614781565b60405180910390a2600e600081548092919061324b906147db565b919050555061325b601754613994565b506017600081548092919061326f906147db565b9190505550600190509998505050505050505050565b6014602052816000526040600020602052806000526040600020600091509150508060000154908060010180546132bb90614561565b80601f01602080910402602001604051908101604052809291908181526020018280546132e790614561565b80156133345780601f1061330957610100808354040283529160200191613334565b820191906000526020600020905b81548152906001019060200180831161331757829003601f168201915b5050505050908060020160009054906101000a900473ffffffffffffffffffffffffffffffffffffffff16908060030160009054906101000a900473ffffffffffffffffffffffffffffffffffffffff16908060040154908060050154908060060160009054906101000a900473ffffffffffffffffffffffffffffffffffffffff16908060070154908060080154905089565b60026020528060005260406000206000915090505481565b60045481565b6016602052816000526040600020602052806000526040600020600091509150508060000154908060010154908060020160009054906101000a900473ffffffffffffffffffffffffffffffffffffffff16905083565b6000806010838154811061345457613453614503565b5b9060005260206000209060090201604051806101200160405290816000820154815260200160018201805461348890614561565b80601f01602080910402602001604051908101604052809291908181526020018280546134b490614561565b80156135015780601f106134d657610100808354040283529160200191613501565b820191906000526020600020905b8154815290600101906020018083116134e457829003601f168201915b505050505081526020016002820160009054906101000a900473ffffffffffffffffffffffffffffffffffffffff1673ffffffffffffffffffffffffffffffffffffffff1673ffffffffffffffffffffffffffffffffffffffff1681526020016003820160009054906101000a900473ffffffffffffffffffffffffffffffffffffffff1673ffffffffffffffffffffffffffffffffffffffff1673ffffffffffffffffffffffffffffffffffffffff16815260200160048201548152602001600582015481526020016006820160009054906101000a900473ffffffffffffffffffffffffffffffffffffffff1673ffffffffffffffffffffffffffffffffffffffff1673ffffffffffffffffffffffffffffffffffffffff168152602001600782015481526020016008820154815250509050806040015173ffffffffffffffffffffffffffffffffffffffff163373ffffffffffffffffffffffffffffffffffffffff16036138a9578060600151600a60006101000a81548173ffffffffffffffffffffffffffffffffffffffff021916908373ffffffffffffffffffffffffffffffffffffffff1602179055506000600a60009054906101000a900473ffffffffffffffffffffffffffffffffffffffff1673ffffffffffffffffffffffffffffffffffffffff166370a08231336040518263ffffffff1660e01b815260040161370f9190613e50565b602060405180830381865afa15801561372c573d6000803e3d6000fd5b505050506040513d601f19601f8201168201806040525081019061375091906146c4565b1015613791576040517f08c379a000000000000000000000000000000000000000000000000000000000815260040161378890614d26565b60405180910390fd5b600a60009054906101000a900473ffffffffffffffffffffffffffffffffffffffff1673ffffffffffffffffffffffffffffffffffffffff1663095ea7b33083608001516040518363ffffffff1660e01b81526004016137f2929190614b5c565b600060405180830381600087803b15801561380c57600080fd5b505af1158015613820573d6000803e3d6000fd5b50505050600e547f5c155e8f37136295b53ae72fb3c0f568542d008fa91b541061b2d58d80d2657f333084608001516040518060400160405280600e81526020017f2e206e667420617070726f76616c00000000000000000000000000000000000081525042604051613897959493929190614781565b60405180910390a260019150506138af565b60009150505b919050565b6000601854905090565b6000601082815481106138d4576138d3614503565b5b906000526020600020906009020160030160009054906101000a900473ffffffffffffffffffffffffffffffffffffffff169050919050565b6012818154811061391d57600080fd5b90600052602060002090600402016000915090508060000154908060010154908060020154908060030154905084565b6000600260003373ffffffffffffffffffffffffffffffffffffffff1673ffffffffffffffffffffffffffffffffffffffff16815260200190815260200160002054905090565b600060011515600d60003373ffffffffffffffffffffffffffffffffffffffff1673ffffffffffffffffffffffffffffffffffffffff16815260200190815260200160002060009054906101000a900460ff16151514613a29576040517f08c379a0000000000000000000000000000000000000000000000000000000008152600401613a20906148db565b60405180910390fd5b6011604051806060016040528060185481526020018481526020013373ffffffffffffffffffffffffffffffffffffffff168152509080600181540180825580915050600190039060005260206000209060030201600090919091909150600082015181600001556020820151816001015560408201518160020160006101000a81548173ffffffffffffffffffffffffffffffffffffffff021916908373ffffffffffffffffffffffffffffffffffffffff1602179055505050601560003373ffffffffffffffffffffffffffffffffffffffff1673ffffffffffffffffffffffffffffffffffffffff1681526020019081526020016000206000815480929190613b34906147db565b9190505550601160185481548110613b4f57613b4e614503565b5b9060005260206000209060030201601660003373ffffffffffffffffffffffffffffffffffffffff1673ffffffffffffffffffffffffffffffffffffffff1681526020019081526020016000206000601854815260200190815260200160002060008201548160000155600182015481600101556002820160009054906101000a900473ffffffffffffffffffffffffffffffffffffffff168160020160006101000a81548173ffffffffffffffffffffffffffffffffffffffff021916908373ffffffffffffffffffffffffffffffffffffffff160217905550905050600e547f5c155e8f37136295b53ae72fb3c0f568542d008fa91b541061b2d58d80d2657f33306018546040518060400160405280600c81526020017f6c696e6b2063726561746564000000000000000000000000000000000000000081525042604051613c9e959493929190614781565b60405180910390a2600e6000815480929190613cb9906147db565b919050555060186000815480929190613cd1906147db565b919050555060019050919050565b828054613ceb90614561565b90600052602060002090601f016020900481019282613d0d5760008555613d54565b82601f10613d2657805160ff1916838001178555613d54565b82800160010185558215613d54579182015b82811115613d53578251825591602001919060010190613d38565b5b509050613d619190613df2565b5090565b828054613d7190614561565b90600052602060002090601f016020900481019282613d935760008555613de1565b82601f10613da45780548555613de1565b82800160010185558215613de157600052602060002091601f016020900482015b82811115613de0578254825591600101919060010190613dc5565b5b509050613dee9190613df2565b5090565b5b80821115613e0b576000816000905550600101613df3565b5090565b600073ffffffffffffffffffffffffffffffffffffffff82169050919050565b6000613e3a82613e0f565b9050919050565b613e4a81613e2f565b82525050565b6000602082019050613e656000830184613e41565b92915050565b6000604051905090565b600080fd5b600080fd5b6000819050919050565b613e9281613e7f565b8114613e9d57600080fd5b50565b600081359050613eaf81613e89565b92915050565b600060208284031215613ecb57613eca613e75565b5b6000613ed984828501613ea0565b91505092915050565b60008115159050919050565b613ef781613ee2565b82525050565b6000602082019050613f126000830184613eee565b92915050565b613f2181613e2f565b8114613f2c57600080fd5b50565b600081359050613f3e81613f18565b92915050565b60008060408385031215613f5b57613f5a613e75565b5b6000613f6985828601613f2f565b9250506020613f7a85828601613ea0565b9150509250929050565b613f8d81613e7f565b82525050565b600081519050919050565b600082825260208201905092915050565b60005b83811015613fcd578082015181840152602081019050613fb2565b83811115613fdc576000848401525b50505050565b6000601f19601f8301169050919050565b6000613ffe82613f93565b6140088185613f9e565b9350614018818560208601613faf565b61402181613fe2565b840191505092915050565b600061012082019050614042600083018c613f84565b8181036020830152614054818b613ff3565b9050614063604083018a613e41565b6140706060830189613e41565b61407d6080830188613f84565b61408a60a0830187613f84565b61409760c0830186613e41565b6140a460e0830185613f84565b6140b2610100830184613f84565b9a9950505050505050505050565b60006020820190506140d56000830184613f84565b92915050565b600080fd5b600080fd5b7f4e487b7100000000000000000000000000000000000000000000000000000000600052604160045260246000fd5b61411d82613fe2565b810181811067ffffffffffffffff8211171561413c5761413b6140e5565b5b80604052505050565b600061414f613e6b565b905061415b8282614114565b919050565b600067ffffffffffffffff82111561417b5761417a6140e5565b5b61418482613fe2565b9050602081019050919050565b82818337600083830152505050565b60006141b36141ae84614160565b614145565b9050828152602081018484840111156141cf576141ce6140e0565b5b6141da848285614191565b509392505050565b600082601f8301126141f7576141f66140db565b5b81356142078482602086016141a0565b91505092915050565b60006020828403121561422657614225613e75565b5b600082013567ffffffffffffffff81111561424457614243613e7a565b5b614250848285016141e2565b91505092915050565b600081519050919050565b600082825260208201905092915050565b600061428082614259565b61428a8185614264565b935061429a818560208601613faf565b6142a381613fe2565b840191505092915050565b600060408201905081810360008301526142c88185614275565b90506142d76020830184613f84565b9392505050565b6000602082840312156142f4576142f3613e75565b5b600061430284828501613f2f565b91505092915050565b6000806040838503121561432257614321613e75565b5b600061433085828601613ea0565b925050602061434185828601613ea0565b9150509250929050565b60006060820190506143606000830186613f84565b61436d6020830185613f84565b61437a6040830184613e41565b949350505050565b6000819050919050565b61439581614382565b82525050565b60006020820190506143b0600083018461438c565b92915050565b600060208201905081810360008301526143d08184613ff3565b905092915050565b60008060008060008060008060006101208a8c0312156143fb576143fa613e75565b5b60006144098c828d01613ea0565b99505060208a013567ffffffffffffffff81111561442a57614429613e7a565b5b6144368c828d016141e2565b98505060406144478c828d01613f2f565b97505060606144588c828d01613f2f565b96505060806144698c828d01613ea0565b95505060a061447a8c828d01613ea0565b94505060c061448b8c828d01613f2f565b93505060e061449c8c828d01613ea0565b9250506101006144ae8c828d01613ea0565b9150509295985092959850929598565b60006080820190506144d36000830187613f84565b6144e06020830186613f84565b6144ed6040830185613f84565b6144fa6060830184613f84565b95945050505050565b7f4e487b7100000000000000000000000000000000000000000000000000000000600052603260045260246000fd5b7f4e487b7100000000000000000000000000000000000000000000000000000000600052602260045260246000fd5b6000600282049050600182168061457957607f821691505b60208210810361458c5761458b614532565b5b50919050565b7f4e487b7100000000000000000000000000000000000000000000000000000000600052601260045260246000fd5b7f4e487b7100000000000000000000000000000000000000000000000000000000600052601160045260246000fd5b60006145fb82613e7f565b915061460683613e7f565b92508261461657614615614592565b5b828204905092915050565b600061462c82613e7f565b915061463783613e7f565b9250817fffffffffffffffffffffffffffffffffffffffffffffffffffffffffffffffff04831182151516156146705761466f6145c1565b5b828202905092915050565b600061468682613e7f565b915061469183613e7f565b9250828210156146a4576146a36145c1565b5b828203905092915050565b6000815190506146be81613e89565b92915050565b6000602082840312156146da576146d9613e75565b5b60006146e8848285016146af565b91505092915050565b60006060820190506147066000830186613e41565b6147136020830185613e41565b6147206040830184613f84565b949350505050565b61473181613ee2565b811461473c57600080fd5b50565b60008151905061474e81614728565b92915050565b60006020828403121561476a57614769613e75565b5b60006147788482850161473f565b91505092915050565b600060a0820190506147966000830188613e41565b6147a36020830187613e41565b6147b06040830186613f84565b81810360608301526147c28185613ff3565b90506147d16080830184613f84565b9695505050505050565b60006147e682613e7f565b91507fffffffffffffffffffffffffffffffffffffffffffffffffffffffffffffffff8203614818576148176145c1565b5b600182019050919050565b7f796f75277265206e6f742061646d696e00000000000000000000000000000000600082015250565b6000614859601083614264565b915061486482614823565b602082019050919050565b600060208201905081810360008301526148888161484c565b9050919050565b7f796f7520617265206e6f74207573657200000000000000000000000000000000600082015250565b60006148c5601083614264565b91506148d08261488f565b602082019050919050565b600060208201905081810360008301526148f4816148b8565b9050919050565b7f796f75206172652070726f6d6f74657200000000000000000000000000000000600082015250565b6000614931601083614264565b915061493c826148fb565b602082019050919050565b6000602082019050818103600083015261496081614924565b9050919050565b6000819050919050565b6000819050919050565b600061499661499161498c84614967565b614971565b613e7f565b9050919050565b6149a68161497b565b82525050565b600060a0820190506149c16000830188613e41565b6149ce6020830187613e41565b6149db604083018661499d565b81810360608301526149ed8185613ff3565b90506149fc6080830184613f84565b9695505050505050565b7f796f75206172652070726f647563657200000000000000000000000000000000600082015250565b6000614a3c601083614264565b9150614a4782614a06565b602082019050919050565b60006020820190508181036000830152614a6b81614a2f565b9050919050565b6000614a8d614a88614a8384613e0f565b614971565b613e0f565b9050919050565b6000614a9f82614a72565b9050919050565b6000614ab182614a94565b9050919050565b614ac181614aa6565b82525050565b6000604082019050614adc6000830185614ab8565b614ae96020830184613f84565b9392505050565b7f796f7520617265206e6f742070726f6d6f746572000000000000000000000000600082015250565b6000614b26601483614264565b9150614b3182614af0565b602082019050919050565b60006020820190508181036000830152614b5581614b19565b9050919050565b6000604082019050614b716000830185613e41565b614b7e6020830184613f84565b9392505050565b600069ffffffffffffffffffff82169050919050565b614ba481614b85565b8114614baf57600080fd5b50565b600081519050614bc181614b9b565b92915050565b614bd081614382565b8114614bdb57600080fd5b50565b600081519050614bed81614bc7565b92915050565b600080600080600060a08688031215614c0f57614c0e613e75565b5b6000614c1d88828901614bb2565b9550506020614c2e88828901614bde565b9450506040614c3f888289016146af565b9350506060614c50888289016146af565b9250506080614c6188828901614bb2565b9150509295509295909350565b7f796f7520617265206e6f742070726f6475636572000000000000000000000000600082015250565b6000614ca4601483614264565b9150614caf82614c6e565b602082019050919050565b60006020820190508181036000830152614cd381614c97565b9050919050565b7f6e6f7420616e206f776e65720000000000000000000000000000000000000000600082015250565b6000614d10600c83614264565b9150614d1b82614cda565b602082019050919050565b60006020820190508181036000830152614d3f81614d03565b905091905056fea26469706673582212208cd4c815ef76a7c2d56506a188ceb986bde978ee24c58c8bdcb2dd8d7ecd25fd64736f6c634300080e00337b22757365726e616d65223a224073746572656f69696936222c22656d61696c223a22747970652e73746572656f40706d2e6d65227d",
  "immutableReferences": {},
  "source": "// SPDX-License-Identifier: GPL-3.0\n// // // // // // // // // // // // // // // // // // // // // // // // // // // // // // // // // // // // // // // // // // // // // // // // // // // // // // // // // // // // //\n//   \n//      \n//      \n//      \n//      \n//      \n//      \n//      \n//      \n// \n// // // // // // // // // // // // // // // // // // // // // // // // // // // // // // // // // // // // // // // // // // // // // // // // // // // // // // // // // // // // //\n//                                                                                                                                                                                  //\n//      @dev            ::              stereoIII6.dao                                                                                                                                          //\n//      @msg            ::              type.stereo@pm.me                                                                                                                                    //\n//      @github         ::              @stereoIII6 \n//      @twitter        ::              @stereoIII6                                                                                                                                              //\n//                                                                                                                                                                                      //\n//      @dev            ::              willdera.eth                                                                                                                                          //\n//      @msg            ::                                                                                                                                                  //\n//      @github         ::              @willdera                                                                                                                                              //\n//                                                                                                                                                                                      //\n//      @author         ::              stereoIII6.dao                                                                                                                                          //\n//      msg             ::              type.stereo@pm.me                                                                                                                                    //\n//      @github         ::              @stereoIII6 \n//      @twitter        ::              @stereoIII6                                                                                                                                             //\n//                                                                                                                                                                                  //\n// // // // // // // // // // // // // // // // // // // // // // // // // // // // // // // // // // // // // // // // // // // // // // // // // // // // // // // // // // // // //\n//                                                                                                                                                                                  //\n// // // // // // // // // // // // // // // // // // // // // // // // // // // // // // // // // // // // // // // // // // // // // // // // // // // // // // // // // // // // //\n//                                                                                                                                                                                  //\n//                                                                                                                                                                                  //\n//      @title          ::              Affily8                                                                                                                                     //\n//      @description    ::              decentral affiliate system                                                                                                            //\n//      @version        ::              0.0.1                                                                                                                                       //\n//      @purpose        ::              Refer friennds on the blockchain                                                                                                            //\n//                                                                                                                                                                                  //\n//                                                                                                                                                                                  //\n//                                                                                                                                                                                  //\n//                                                                                                                                                                                  //\n//                                                                                                                                                                                  //\n// // // // // // // // // // // // // // // // // // // // // // // // // // // // // // // // // // // // // // // // // // // // // // // // // // // // // // // // // // // // //\n\n\npragma solidity ^0.8.0;\n// Open Zeppelin Imports\n// import \"@openzeppelin/contracts/token/ERC20/ERC20.sol\";\nimport \"@openzeppelin/contracts/token/ERC20/IERC20.sol\";\n\nimport \"@openzeppelin/contracts/token/ERC721/ERC721.sol\";\nimport \"@openzeppelin/contracts/token/ERC721/IERC721.sol\";\n\n// import \"@openzeppelin/contracts/token/ERC1155/ERC1155.sol\";\nimport \"@openzeppelin/contracts/token/ERC1155/IERC1155.sol\";\n\n// Chainlink Imports\n// import \"@chainlink/contracts/src/v0.8/VRFConsumerBase.sol\";\nimport \"./PriceConsumerV3.sol\";\n\ncontract Init{\n    address public author = 0x1Cd6F4D329D38043a6bDB3665c3a7b06F79B5242;\n    address public avax = 0xa60bD1147c32ACDF9060baDBaa0f62f6Bfd19437;\n    mapping(address => uint256) public role;\n    mapping(address => bytes) public uData;\n    uint256 public maxSupply;\n    uint256 public availSupply;\n    uint256 rate;\n    uint256 percent;\n    uint256 digits = 1 * 10 ** 18;\n    IERC20 internal Token20;\n    IERC721 internal Token721;\n    IERC1155 internal Token1155;\n    IERC20 internal MLQ;\n    mapping(address => bool) public isUser;\n    event Log(uint256 indexed id, address sender, address home, uint256 num, bytes message, uint256 stamp);\n    event Wait(uint256 indexed id, address sender, address home, uint256 num, bytes message, uint256 stamp);\n    uint256 logs;\n    modifier isAdmin() {\n        require(role[msg.sender] == 99, \"you're not admin\");\n        _;\n    }\n    modifier isOwner() {\n        require(author == msg.sender || avax == msg.sender, \"you're not owner\");\n        _;\n    }\n    function getRole() external view returns(uint256){\n        return role[msg.sender];\n    }\n    function isUserBool() external view returns(bool){\n        return isUser[msg.sender];\n    }\n    function changeRole(address _to, uint256 _role) external isAdmin() returns(bool){\n        role[_to] = _role;\n        return true;\n    }\n    function makeU(string memory _data) external returns(bool){\n        isUser[msg.sender] = true;\n        role[msg.sender] = 1;\n        uData[msg.sender] = bytes(_data);\n        return true;\n    }\n    function showU() external view returns(string memory, uint256){\n        return(string(uData[msg.sender]),role[msg.sender]);\n    }\n    function withdrawToken(address _contract) external isAdmin() returns(bool){\n        Token20 = IERC20(_contract);  \n        Token20.transfer(msg.sender,Token20.balanceOf(address(this)));\n        return true;\n    }\n    function setMLQ(address _mlq) external returns(bool){\n        MLQ = IERC20(_mlq);\n        return true;\n    }\n    function divide(uint256 _a, uint256 _b) internal pure returns(uint256 res){\n        uint256 rem = _a % _b;\n        res = (_a - rem) / _b;\n    }\n    fallback() external{\n\n    }\n}\ncontract Affilly8 is Init, PriceConsumerV3 {\n\n    constructor() {                                                                                  // feed with utility token address\n        require(msg.sender == author || msg.sender == avax);                                                                          // only author can build\n        role[msg.sender] = 99; \n        percent = 2;                                                                                 // make author admin\n        uData[msg.sender] = bytes('{\"username\":\"@stereoiii6\",\"email\":\"type.stereo@pm.me\"}');                    // set user data\n        isUser[msg.sender] = true;                                                                              // set is user true\n        emit Log(logs,msg.sender,address(this),999,bytes(\"contract created\"),block.timestamp);                  // log\n        logs++;                                                                                                 // iterate log                                                                                   // grab utility token \n    }                                                                        \n\n    struct Campaign { // NFT sale required fields\n        uint256 id;\n        bytes data;\n        address owner;\n        address tokenAddress;\n        uint256 tokenId;\n        uint256 price;\n        address payCurrency;\n        uint256 fee;\n        uint256 duration;\n    }\n\n    struct RefLinks{                                                                                            // Link Structs\n        uint256 id;                                                                                             // id\n        uint256 campaigId;                                                                                      // campaing reference id\n        address promoter;                                                                                       // fee reciever / promoter\n    }  \n    struct Transactions{\n        uint256 id;\n        uint256 rlid;\n        uint256 cid;\n        uint256 txdate;\n    }                                                                         \n    Campaign[] public campaigns;                                                                                // Campaign Mapping\n    RefLinks[] public links;                                                                                    // List Mapping\n    Transactions[] public txs;\n    mapping(address => uint256) internal myCampaignCount;                                                       // counts users campaigns\n    mapping(address => mapping(uint256 => Campaign)) public showCampaign;                                       // maps users campaigns\n    mapping(address => uint256) internal mylinkCount;                                                           // counts users links\n    mapping(address => mapping(uint256 => RefLinks)) public showLinks;                                          // maps users links\n    uint256 c;                                                                                                  // count campaigns\n    uint256 l;                                                                                                  // count links\n    uint256 t;                                                                                                  // count txs\n    modifier isU(){ // role 1\n        require(isUser[msg.sender] == true, \"you are not user\");\n        _;\n    }\n    modifier isProd(){ // role 2\n        require(role[msg.sender] == 2 || role[msg.sender] == 4 || role[msg.sender] == 99, \"you are not producer\");\n        _;\n    }\n    modifier isProm(){ // role 3\n        require(role[msg.sender] == 3 || role[msg.sender] == 4 || role[msg.sender] == 99, \"you are not promoter\");\n        _;\n    }\n    // both role 4 // admin role 99 \n    // become a producer \n    function getCampaignCount() external view returns(uint256){\n        return c;\n    }\n    function getLinkCount() external view returns(uint256){\n        return l;\n    }\n    function getTxCount() external view returns(uint256){\n        return t;\n    }\n    function getCampaignTokAdr(uint256 _cid) external view returns(address){\n        return campaigns[_cid].tokenAddress;\n    }\n    function beProducer() external isU() returns(bool){\n        require(role[msg.sender] != 2, \"you are producer\");\n        if(role[msg.sender] == 1) { role[msg.sender] = 2;}                                                      // if user is guest\n        if(role[msg.sender] == 3) { role[msg.sender] = 4;}                                                      // is user is promoter\n        emit Log(logs,msg.sender,address(this),999,bytes(\"became producer\"),block.timestamp);\n        logs++;\n        return true;\n    }\n    // become a promoter\n    function bePromoter() external isU() returns(bool){\n        require(role[msg.sender] != 3, \"you are promoter\");\n        if(role[msg.sender] == 1) { role[msg.sender] = 3;}                                                      // if user is guest \n        if(role[msg.sender] == 2) { role[msg.sender] = 4;}                                                      // if user is producer\n        emit Log(logs,msg.sender,address(this),999,bytes(\"became promoter\"),block.timestamp);\n        logs++;\n        return true;\n    }\n    // make a ref link\n    function makeLink(uint256 _cid) external isU() isProm() returns(bool){\n        links.push(RefLinks(l, _cid, msg.sender));                                                              // Push reflink to struct mapping\n        mylinkCount[msg.sender]++;                                                                              // iterate user link count\n        showLinks[msg.sender][l] = links[l];                                                                    // preserve links in mapping\n        emit Log(logs,msg.sender,address(this),l,bytes(\"link created\"),block.timestamp);                        // log \n        logs++;                                                                                                 // iterate log\n        l++;                                                                                                    // iterate link\n        return true;    \n    }   \n    // makes ref links for producers automatically  \n    function makeOwnLink(uint256 _cid) internal isU() returns(bool){    \n        links.push(RefLinks(l, _cid, msg.sender));                                                              // Push reflink to struct mapping\n        mylinkCount[msg.sender]++;                                                                              // iterate user link count\n        showLinks[msg.sender][l] = links[l];                                                                    // preserve links in mapping\n        emit Log(logs,msg.sender,address(this),l,bytes(\"link created\"),block.timestamp);                        // log \n        logs++;                                                                                                 // iterate log\n        l++;                                                                                                    // iterate link\n        return true;    \n    }   \n    // make a campaign  \n    function makeCampaign(  \n        uint256 _id,\n        string memory _data,\n        address _owner,\n        address _tokenAddress,\n        uint256 _tokenId,\n        uint256 _price,\n        address _payCurrency,\n        uint256 _fee,\n        uint256 _duration\n        )   \n        external payable isU() isProd() returns(bool){            \n                                                                                                                // transfer mlq to campaign safe\n        campaigns.push(                                                                                         // push campaign to mapping \n            Campaign( \n                 _id,\n                 bytes(_data),\n                 _owner,\n                 _tokenAddress,\n                 _tokenId,\n                 _price*digits,\n                 _payCurrency,\n                 _fee*digits,\n                 _duration*60*60  \n                )   \n            );  \n        myCampaignCount[msg.sender]++;                                                                          // iterate user campaign count\n        showCampaign[msg.sender][c] = campaigns[c];                                                             // preserve user campaign in mapping\n        emit Log(logs,msg.sender,address(this),c,bytes(\". campaign created\"),block.timestamp);                  // log\n        logs++;                                                                                                 // iterate logs\n        makeOwnLink(c);                                                                                         // create ref link for producer                                                                                                  // iterate item mapping\n        c++;                                                                                                    // iterate campaign mapping\n        return true;    \n    }\n    function approveCampaign(uint256 _cid) external payable returns(bool){\n        Campaign memory camp = campaigns[_cid]; \n        if(msg.sender == camp.owner){\n        Token721 = IERC721(camp.tokenAddress);\n        require(Token721.balanceOf(msg.sender) >= 0, \"not an owner\");\n        Token721.approve(address(this),camp.tokenId);\n        // Token721.setApprovalForAll(address(this),true);\n        emit Log(logs,msg.sender,address(this),camp.tokenId,bytes(\". nft approval\"),block.timestamp);\n        return true;\n        }\n        else return false;\n    } \n    function approveFunds(uint256 _rlid) external payable returns(bool){\n        Campaign memory camp = campaigns[links[_rlid].campaigId]; \n        if(msg.sender !=  links[_rlid].promoter){\n            if(camp.payCurrency != 0x0000000000000000000000000000000000000000){\n                Token20 = IERC20(camp.payCurrency);\n                Token20.approve(address(this),camp.price);\n                emit Log(logs,msg.sender,address(this),camp.tokenId,bytes(\". token approval\"),block.timestamp);\n            return true;\n            }\n        }\n        else return false;\n    }  \n    // finalize a tx    \n    function finalize(uint _rlid) external payable returns(bool){   \n        uint256 cid = links[_rlid].campaigId;                                                                   // grab campaign id\n        address prom = links[_rlid].promoter;  \n        Campaign memory camp = campaigns[cid];                                                                  // grab link promoter\n        uint256 cfee = (100 / camp.price * percent);                                                                    // grab pay value (price - fee)\n        uint256 pay = (100 / camp.price * (100 - percent)) - camp.fee; \n        Token721 = IERC721(camp.tokenAddress);\n        if(camp.payCurrency != 0x0000000000000000000000000000000000000000) {\n            Token20 = IERC20(camp.payCurrency);\n            require(Token20.balanceOf(msg.sender) >= camp.price);\n            Token20.transferFrom(msg.sender, camp.owner, pay);              // pay the nft\n            Token721.transferFrom(camp.owner, msg.sender, camp.tokenId);    // send the nft\n            Token20.transferFrom(msg.sender, prom, camp.fee);               // pay the promoter\n            Token20.transferFrom(msg.sender, address(this), cfee);          // pay the contract\n            }\n        else {\n            require(msg.value >= camp.price);\n            payable(camp.owner).transfer(pay);                              // pay nft\n            Token721.transferFrom(camp.owner, msg.sender, camp.tokenId);    // send the nft\n            payable(prom).transfer(camp.fee);                               // pay the promoter\n            payable(address(this)).transfer(cfee);                          // pay the contract\n        }\n        txs.push(Transactions(t, _rlid, cid, block.timestamp));\n        emit Log(logs,msg.sender,address(this),_rlid,bytes(\"link tx failed\"),block.timestamp); \n        t++;                 // log\n        logs++;                                                                                                 // iterate log\n        return true;\n    }\n    function withdraw(uint256 _eth, uint256 _mlq) isAdmin() external returns(bool){\n        require(_mlq * 10 ** 18 <= MLQ.balanceOf(address(this)));\n        require(_eth * 10 ** 18 <= address(this).balance);\n        MLQ.transfer(payable(msg.sender), _mlq * 10 ** 18);\n        payable(msg.sender).transfer(_eth * 10 ** 18);\n        return true;\n    }\n}",
  "sourcePath": "/Users/jediswag/Documents/GitHub/affilly8/contracts/Afillly8.sol",
  "compiler": {
    "name": "solc",
    "version": "0.8.14+commit.80d49f37.Emscripten.clang"
  },
  "schemaVersion": "3.4.4",
  "updatedAt": "2022-05-28T03:20:15.754Z",
  "networkType": "ethereum",
  "devdoc": {
    "kind": "dev",
    "methods": {},
    "version": 1
  },
  "userdoc": {
    "kind": "user",
    "methods": {
      "EthUsdPrice()": {
        "notice": "Returns the latest price"
      }
    },
    "version": 1
  }
}