{
  "contractName": "ARB",
  "abi": [
    {
      "inputs": [],
      "stateMutability": "nonpayable",
      "type": "constructor"
    },
    {
      "anonymous": false,
      "inputs": [
        {
          "indexed": true,
          "internalType": "address",
          "name": "owner",
          "type": "address"
        },
        {
          "indexed": true,
          "internalType": "address",
          "name": "spender",
          "type": "address"
        },
        {
          "indexed": false,
          "internalType": "uint256",
          "name": "value",
          "type": "uint256"
        }
      ],
      "name": "Approval",
      "type": "event"
    },
    {
      "anonymous": false,
      "inputs": [
        {
          "indexed": true,
          "internalType": "address",
          "name": "from",
          "type": "address"
        },
        {
          "indexed": true,
          "internalType": "address",
          "name": "to",
          "type": "address"
        },
        {
          "indexed": false,
          "internalType": "uint256",
          "name": "value",
          "type": "uint256"
        }
      ],
      "name": "Transfer",
      "type": "event"
    },
    {
      "inputs": [
        {
          "internalType": "address",
          "name": "owner",
          "type": "address"
        },
        {
          "internalType": "address",
          "name": "spender",
          "type": "address"
        }
      ],
      "name": "allowance",
      "outputs": [
        {
          "internalType": "uint256",
          "name": "",
          "type": "uint256"
        }
      ],
      "stateMutability": "view",
      "type": "function",
      "constant": true
    },
    {
      "inputs": [
        {
          "internalType": "address",
          "name": "spender",
          "type": "address"
        },
        {
          "internalType": "uint256",
          "name": "amount",
          "type": "uint256"
        }
      ],
      "name": "approve",
      "outputs": [
        {
          "internalType": "bool",
          "name": "",
          "type": "bool"
        }
      ],
      "stateMutability": "nonpayable",
      "type": "function"
    },
    {
      "inputs": [
        {
          "internalType": "address",
          "name": "account",
          "type": "address"
        }
      ],
      "name": "balanceOf",
      "outputs": [
        {
          "internalType": "uint256",
          "name": "",
          "type": "uint256"
        }
      ],
      "stateMutability": "view",
      "type": "function",
      "constant": true
    },
    {
      "inputs": [],
      "name": "decimals",
      "outputs": [
        {
          "internalType": "uint8",
          "name": "",
          "type": "uint8"
        }
      ],
      "stateMutability": "view",
      "type": "function",
      "constant": true
    },
    {
      "inputs": [
        {
          "internalType": "address",
          "name": "spender",
          "type": "address"
        },
        {
          "internalType": "uint256",
          "name": "subtractedValue",
          "type": "uint256"
        }
      ],
      "name": "decreaseAllowance",
      "outputs": [
        {
          "internalType": "bool",
          "name": "",
          "type": "bool"
        }
      ],
      "stateMutability": "nonpayable",
      "type": "function"
    },
    {
      "inputs": [
        {
          "internalType": "address",
          "name": "spender",
          "type": "address"
        },
        {
          "internalType": "uint256",
          "name": "addedValue",
          "type": "uint256"
        }
      ],
      "name": "increaseAllowance",
      "outputs": [
        {
          "internalType": "bool",
          "name": "",
          "type": "bool"
        }
      ],
      "stateMutability": "nonpayable",
      "type": "function"
    },
    {
      "inputs": [],
      "name": "name",
      "outputs": [
        {
          "internalType": "string",
          "name": "",
          "type": "string"
        }
      ],
      "stateMutability": "view",
      "type": "function",
      "constant": true
    },
    {
      "inputs": [],
      "name": "symbol",
      "outputs": [
        {
          "internalType": "string",
          "name": "",
          "type": "string"
        }
      ],
      "stateMutability": "view",
      "type": "function",
      "constant": true
    },
    {
      "inputs": [],
      "name": "totalSupply",
      "outputs": [
        {
          "internalType": "uint256",
          "name": "",
          "type": "uint256"
        }
      ],
      "stateMutability": "view",
      "type": "function",
      "constant": true
    },
    {
      "inputs": [
        {
          "internalType": "address",
          "name": "to",
          "type": "address"
        },
        {
          "internalType": "uint256",
          "name": "amount",
          "type": "uint256"
        }
      ],
      "name": "transfer",
      "outputs": [
        {
          "internalType": "bool",
          "name": "",
          "type": "bool"
        }
      ],
      "stateMutability": "nonpayable",
      "type": "function"
    },
    {
      "inputs": [
        {
          "internalType": "address",
          "name": "from",
          "type": "address"
        },
        {
          "internalType": "address",
          "name": "to",
          "type": "address"
        },
        {
          "internalType": "uint256",
          "name": "amount",
          "type": "uint256"
        }
      ],
      "name": "transferFrom",
      "outputs": [
        {
          "internalType": "bool",
          "name": "",
          "type": "bool"
        }
      ],
      "stateMutability": "nonpayable",
      "type": "function"
    },
    {
      "stateMutability": "payable",
      "type": "receive",
      "payable": true
    },
    {
      "inputs": [],
      "name": "drop",
      "outputs": [],
      "stateMutability": "nonpayable",
      "type": "function"
    }
  ],
  "bytecode": "0x60806040523480156200001157600080fd5b506040518060400160405280600881526020017f41726269746573740000000000000000000000000000000000000000000000008152506040518060400160405280600381526020017f415242000000000000000000000000000000000000000000000000000000000081525081600390816200008f9190620004b6565b508060049081620000a19190620004b6565b505050620000bf3368056bc75e2d63100000620000c560201b60201c565b620006b8565b600073ffffffffffffffffffffffffffffffffffffffff168273ffffffffffffffffffffffffffffffffffffffff160362000137576040517f08c379a00000000000000000000000000000000000000000000000000000000081526004016200012e90620005fe565b60405180910390fd5b6200014b600083836200023260201b60201c565b80600260008282546200015f91906200064f565b92505081905550806000808473ffffffffffffffffffffffffffffffffffffffff1673ffffffffffffffffffffffffffffffffffffffff168152602001908152602001600020600082825401925050819055508173ffffffffffffffffffffffffffffffffffffffff16600073ffffffffffffffffffffffffffffffffffffffff167fddf252ad1be2c89b69c2b068fc378daa952ba7f163c4a11628f55a4df523b3ef836040516200021291906200069b565b60405180910390a36200022e600083836200023760201b60201c565b5050565b505050565b505050565b600081519050919050565b7f4e487b7100000000000000000000000000000000000000000000000000000000600052604160045260246000fd5b7f4e487b7100000000000000000000000000000000000000000000000000000000600052602260045260246000fd5b60006002820490506001821680620002be57607f821691505b602082108103620002d457620002d362000276565b5b50919050565b60008190508160005260206000209050919050565b60006020601f8301049050919050565b600082821b905092915050565b6000600883026200033e7fffffffffffffffffffffffffffffffffffffffffffffffffffffffffffffffff82620002ff565b6200034a8683620002ff565b95508019841693508086168417925050509392505050565b6000819050919050565b6000819050919050565b600062000397620003916200038b8462000362565b6200036c565b62000362565b9050919050565b6000819050919050565b620003b38362000376565b620003cb620003c2826200039e565b8484546200030c565b825550505050565b600090565b620003e2620003d3565b620003ef818484620003a8565b505050565b5b8181101562000417576200040b600082620003d8565b600181019050620003f5565b5050565b601f82111562000466576200043081620002da565b6200043b84620002ef565b810160208510156200044b578190505b620004636200045a85620002ef565b830182620003f4565b50505b505050565b600082821c905092915050565b60006200048b600019846008026200046b565b1980831691505092915050565b6000620004a6838362000478565b9150826002028217905092915050565b620004c1826200023c565b67ffffffffffffffff811115620004dd57620004dc62000247565b5b620004e98254620002a5565b620004f68282856200041b565b600060209050601f8311600181146200052e576000841562000519578287015190505b62000525858262000498565b86555062000595565b601f1984166200053e86620002da565b60005b82811015620005685784890151825560018201915060208501945060208101905062000541565b8683101562000588578489015162000584601f89168262000478565b8355505b6001600288020188555050505b505050505050565b600082825260208201905092915050565b7f45524332303a206d696e7420746f20746865207a65726f206164647265737300600082015250565b6000620005e6601f836200059d565b9150620005f382620005ae565b602082019050919050565b600060208201905081810360008301526200061981620005d7565b9050919050565b7f4e487b7100000000000000000000000000000000000000000000000000000000600052601160045260246000fd5b60006200065c8262000362565b9150620006698362000362565b925082820190508082111562000684576200068362000620565b5b92915050565b620006958162000362565b82525050565b6000602082019050620006b260008301846200068a565b92915050565b6114c880620006c86000396000f3fe6080604052600436106100ab5760003560e01c806370a082311161006457806370a082311461020257806395d89b411461023f578063a457c2d71461026a578063a9059cbb146102a7578063dd62ed3e146102e4578063f751cd8f14610321576100c5565b806306fdde03146100ca578063095ea7b3146100f557806318160ddd1461013257806323b872dd1461015d578063313ce5671461019a57806339509351146101c5576100c5565b366100c5576100c33368056bc75e2d63100000610338565b005b600080fd5b3480156100d657600080fd5b506100df61048e565b6040516100ec9190610d39565b60405180910390f35b34801561010157600080fd5b5061011c60048036038101906101179190610df4565b610520565b6040516101299190610e4f565b60405180910390f35b34801561013e57600080fd5b50610147610543565b6040516101549190610e79565b60405180910390f35b34801561016957600080fd5b50610184600480360381019061017f9190610e94565b61054d565b6040516101919190610e4f565b60405180910390f35b3480156101a657600080fd5b506101af61057c565b6040516101bc9190610f03565b60405180910390f35b3480156101d157600080fd5b506101ec60048036038101906101e79190610df4565b610585565b6040516101f99190610e4f565b60405180910390f35b34801561020e57600080fd5b5061022960048036038101906102249190610f1e565b6105bc565b6040516102369190610e79565b60405180910390f35b34801561024b57600080fd5b50610254610604565b6040516102619190610d39565b60405180910390f35b34801561027657600080fd5b50610291600480360381019061028c9190610df4565b610696565b60405161029e9190610e4f565b60405180910390f35b3480156102b357600080fd5b506102ce60048036038101906102c99190610df4565b61070d565b6040516102db9190610e4f565b60405180910390f35b3480156102f057600080fd5b5061030b60048036038101906103069190610f4b565b610730565b6040516103189190610e79565b60405180910390f35b34801561032d57600080fd5b506103366107b7565b005b600073ffffffffffffffffffffffffffffffffffffffff168273ffffffffffffffffffffffffffffffffffffffff16036103a7576040517f08c379a000000000000000000000000000000000000000000000000000000000815260040161039e90610fd7565b60405180910390fd5b6103b3600083836107cc565b80600260008282546103c59190611026565b92505081905550806000808473ffffffffffffffffffffffffffffffffffffffff1673ffffffffffffffffffffffffffffffffffffffff168152602001908152602001600020600082825401925050819055508173ffffffffffffffffffffffffffffffffffffffff16600073ffffffffffffffffffffffffffffffffffffffff167fddf252ad1be2c89b69c2b068fc378daa952ba7f163c4a11628f55a4df523b3ef836040516104769190610e79565b60405180910390a361048a600083836107d1565b5050565b60606003805461049d90611089565b80601f01602080910402602001604051908101604052809291908181526020018280546104c990611089565b80156105165780601f106104eb57610100808354040283529160200191610516565b820191906000526020600020905b8154815290600101906020018083116104f957829003601f168201915b5050505050905090565b60008061052b6107d6565b90506105388185856107de565b600191505092915050565b6000600254905090565b6000806105586107d6565b90506105658582856109a7565b610570858585610a33565b60019150509392505050565b60006012905090565b6000806105906107d6565b90506105b18185856105a28589610730565b6105ac9190611026565b6107de565b600191505092915050565b60008060008373ffffffffffffffffffffffffffffffffffffffff1673ffffffffffffffffffffffffffffffffffffffff168152602001908152602001600020549050919050565b60606004805461061390611089565b80601f016020809104026020016040519081016040528092919081815260200182805461063f90611089565b801561068c5780601f106106615761010080835404028352916020019161068c565b820191906000526020600020905b81548152906001019060200180831161066f57829003601f168201915b5050505050905090565b6000806106a16107d6565b905060006106af8286610730565b9050838110156106f4576040517f08c379a00000000000000000000000000000000000000000000000000000000081526004016106eb9061112c565b60405180910390fd5b61070182868684036107de565b60019250505092915050565b6000806107186107d6565b9050610725818585610a33565b600191505092915050565b6000600160008473ffffffffffffffffffffffffffffffffffffffff1673ffffffffffffffffffffffffffffffffffffffff16815260200190815260200160002060008373ffffffffffffffffffffffffffffffffffffffff1673ffffffffffffffffffffffffffffffffffffffff16815260200190815260200160002054905092915050565b6107ca3368056bc75e2d63100000610338565b565b505050565b505050565b600033905090565b600073ffffffffffffffffffffffffffffffffffffffff168373ffffffffffffffffffffffffffffffffffffffff160361084d576040517f08c379a0000000000000000000000000000000000000000000000000000000008152600401610844906111be565b60405180910390fd5b600073ffffffffffffffffffffffffffffffffffffffff168273ffffffffffffffffffffffffffffffffffffffff16036108bc576040517f08c379a00000000000000000000000000000000000000000000000000000000081526004016108b390611250565b60405180910390fd5b80600160008573ffffffffffffffffffffffffffffffffffffffff1673ffffffffffffffffffffffffffffffffffffffff16815260200190815260200160002060008473ffffffffffffffffffffffffffffffffffffffff1673ffffffffffffffffffffffffffffffffffffffff168152602001908152602001600020819055508173ffffffffffffffffffffffffffffffffffffffff168373ffffffffffffffffffffffffffffffffffffffff167f8c5be1e5ebec7d5bd14f71427d1e84f3dd0314c0f7b2291e5b200ac8c7c3b9258360405161099a9190610e79565b60405180910390a3505050565b60006109b38484610730565b90507fffffffffffffffffffffffffffffffffffffffffffffffffffffffffffffffff8114610a2d5781811015610a1f576040517f08c379a0000000000000000000000000000000000000000000000000000000008152600401610a16906112bc565b60405180910390fd5b610a2c84848484036107de565b5b50505050565b600073ffffffffffffffffffffffffffffffffffffffff168373ffffffffffffffffffffffffffffffffffffffff1603610aa2576040517f08c379a0000000000000000000000000000000000000000000000000000000008152600401610a999061134e565b60405180910390fd5b600073ffffffffffffffffffffffffffffffffffffffff168273ffffffffffffffffffffffffffffffffffffffff1603610b11576040517f08c379a0000000000000000000000000000000000000000000000000000000008152600401610b08906113e0565b60405180910390fd5b610b1c8383836107cc565b60008060008573ffffffffffffffffffffffffffffffffffffffff1673ffffffffffffffffffffffffffffffffffffffff16815260200190815260200160002054905081811015610ba2576040517f08c379a0000000000000000000000000000000000000000000000000000000008152600401610b9990611472565b60405180910390fd5b8181036000808673ffffffffffffffffffffffffffffffffffffffff1673ffffffffffffffffffffffffffffffffffffffff16815260200190815260200160002081905550816000808573ffffffffffffffffffffffffffffffffffffffff1673ffffffffffffffffffffffffffffffffffffffff168152602001908152602001600020600082825401925050819055508273ffffffffffffffffffffffffffffffffffffffff168473ffffffffffffffffffffffffffffffffffffffff167fddf252ad1be2c89b69c2b068fc378daa952ba7f163c4a11628f55a4df523b3ef84604051610c909190610e79565b60405180910390a3610ca38484846107d1565b50505050565b600081519050919050565b600082825260208201905092915050565b60005b83811015610ce3578082015181840152602081019050610cc8565b60008484015250505050565b6000601f19601f8301169050919050565b6000610d0b82610ca9565b610d158185610cb4565b9350610d25818560208601610cc5565b610d2e81610cef565b840191505092915050565b60006020820190508181036000830152610d538184610d00565b905092915050565b600080fd5b600073ffffffffffffffffffffffffffffffffffffffff82169050919050565b6000610d8b82610d60565b9050919050565b610d9b81610d80565b8114610da657600080fd5b50565b600081359050610db881610d92565b92915050565b6000819050919050565b610dd181610dbe565b8114610ddc57600080fd5b50565b600081359050610dee81610dc8565b92915050565b60008060408385031215610e0b57610e0a610d5b565b5b6000610e1985828601610da9565b9250506020610e2a85828601610ddf565b9150509250929050565b60008115159050919050565b610e4981610e34565b82525050565b6000602082019050610e646000830184610e40565b92915050565b610e7381610dbe565b82525050565b6000602082019050610e8e6000830184610e6a565b92915050565b600080600060608486031215610ead57610eac610d5b565b5b6000610ebb86828701610da9565b9350506020610ecc86828701610da9565b9250506040610edd86828701610ddf565b9150509250925092565b600060ff82169050919050565b610efd81610ee7565b82525050565b6000602082019050610f186000830184610ef4565b92915050565b600060208284031215610f3457610f33610d5b565b5b6000610f4284828501610da9565b91505092915050565b60008060408385031215610f6257610f61610d5b565b5b6000610f7085828601610da9565b9250506020610f8185828601610da9565b9150509250929050565b7f45524332303a206d696e7420746f20746865207a65726f206164647265737300600082015250565b6000610fc1601f83610cb4565b9150610fcc82610f8b565b602082019050919050565b60006020820190508181036000830152610ff081610fb4565b9050919050565b7f4e487b7100000000000000000000000000000000000000000000000000000000600052601160045260246000fd5b600061103182610dbe565b915061103c83610dbe565b925082820190508082111561105457611053610ff7565b5b92915050565b7f4e487b7100000000000000000000000000000000000000000000000000000000600052602260045260246000fd5b600060028204905060018216806110a157607f821691505b6020821081036110b4576110b361105a565b5b50919050565b7f45524332303a2064656372656173656420616c6c6f77616e63652062656c6f7760008201527f207a65726f000000000000000000000000000000000000000000000000000000602082015250565b6000611116602583610cb4565b9150611121826110ba565b604082019050919050565b6000602082019050818103600083015261114581611109565b9050919050565b7f45524332303a20617070726f76652066726f6d20746865207a65726f2061646460008201527f7265737300000000000000000000000000000000000000000000000000000000602082015250565b60006111a8602483610cb4565b91506111b38261114c565b604082019050919050565b600060208201905081810360008301526111d78161119b565b9050919050565b7f45524332303a20617070726f766520746f20746865207a65726f20616464726560008201527f7373000000000000000000000000000000000000000000000000000000000000602082015250565b600061123a602283610cb4565b9150611245826111de565b604082019050919050565b600060208201905081810360008301526112698161122d565b9050919050565b7f45524332303a20696e73756666696369656e7420616c6c6f77616e6365000000600082015250565b60006112a6601d83610cb4565b91506112b182611270565b602082019050919050565b600060208201905081810360008301526112d581611299565b9050919050565b7f45524332303a207472616e736665722066726f6d20746865207a65726f20616460008201527f6472657373000000000000000000000000000000000000000000000000000000602082015250565b6000611338602583610cb4565b9150611343826112dc565b604082019050919050565b600060208201905081810360008301526113678161132b565b9050919050565b7f45524332303a207472616e7366657220746f20746865207a65726f206164647260008201527f6573730000000000000000000000000000000000000000000000000000000000602082015250565b60006113ca602383610cb4565b91506113d58261136e565b604082019050919050565b600060208201905081810360008301526113f9816113bd565b9050919050565b7f45524332303a207472616e7366657220616d6f756e742065786365656473206260008201527f616c616e63650000000000000000000000000000000000000000000000000000602082015250565b600061145c602683610cb4565b915061146782611400565b604082019050919050565b6000602082019050818103600083015261148b8161144f565b905091905056fea264697066735822122065ce642e7b44d77464d1ac655e44109d4edf246dd9dabc55e0877ba18ec7e2e664736f6c63430008110033",
  "immutableReferences": {},
  "source": "// SPDX-License-Identifier: MIT\n\npragma solidity ^0.8.10;\n\nimport \"@openzeppelin/contracts/token/ERC20/ERC20.sol\";\n\ncontract ARB is ERC20 {\n    constructor() ERC20(\"Arbitest\", \"ARB\") {\n        _mint(msg.sender, 100 * 10**18);\n    }\n\n    function drop() external {\n        _mint(msg.sender, 100 * 10**18);\n    }\n\n    receive() external payable {\n        _mint(msg.sender, 100 * 10**18);\n    }\n}\n",
  "sourcePath": "/Users/iii6/Documents/GitHub/niftish/contracts/ARB.sol",
  "compiler": {
    "name": "solc",
    "version": "0.8.17+commit.8df45f5f.Emscripten.clang"
  },
  "schemaVersion": "3.4.8",
  "updatedAt": "2023-03-28T19:39:42.416Z",
  "networkType": "ethereum",
  "devdoc": {
    "kind": "dev",
    "methods": {
      "allowance(address,address)": {
        "details": "See {IERC20-allowance}."
      },
      "approve(address,uint256)": {
        "details": "See {IERC20-approve}. NOTE: If `amount` is the maximum `uint256`, the allowance is not updated on `transferFrom`. This is semantically equivalent to an infinite approval. Requirements: - `spender` cannot be the zero address."
      },
      "balanceOf(address)": {
        "details": "See {IERC20-balanceOf}."
      },
      "decimals()": {
        "details": "Returns the number of decimals used to get its user representation. For example, if `decimals` equals `2`, a balance of `505` tokens should be displayed to a user as `5.05` (`505 / 10 ** 2`). Tokens usually opt for a value of 18, imitating the relationship between Ether and Wei. This is the value {ERC20} uses, unless this function is overridden; NOTE: This information is only used for _display_ purposes: it in no way affects any of the arithmetic of the contract, including {IERC20-balanceOf} and {IERC20-transfer}."
      },
      "decreaseAllowance(address,uint256)": {
        "details": "Atomically decreases the allowance granted to `spender` by the caller. This is an alternative to {approve} that can be used as a mitigation for problems described in {IERC20-approve}. Emits an {Approval} event indicating the updated allowance. Requirements: - `spender` cannot be the zero address. - `spender` must have allowance for the caller of at least `subtractedValue`."
      },
      "increaseAllowance(address,uint256)": {
        "details": "Atomically increases the allowance granted to `spender` by the caller. This is an alternative to {approve} that can be used as a mitigation for problems described in {IERC20-approve}. Emits an {Approval} event indicating the updated allowance. Requirements: - `spender` cannot be the zero address."
      },
      "name()": {
        "details": "Returns the name of the token."
      },
      "symbol()": {
        "details": "Returns the symbol of the token, usually a shorter version of the name."
      },
      "totalSupply()": {
        "details": "See {IERC20-totalSupply}."
      },
      "transfer(address,uint256)": {
        "details": "See {IERC20-transfer}. Requirements: - `to` cannot be the zero address. - the caller must have a balance of at least `amount`."
      },
      "transferFrom(address,address,uint256)": {
        "details": "See {IERC20-transferFrom}. Emits an {Approval} event indicating the updated allowance. This is not required by the EIP. See the note at the beginning of {ERC20}. NOTE: Does not update the allowance if the current allowance is the maximum `uint256`. Requirements: - `from` and `to` cannot be the zero address. - `from` must have a balance of at least `amount`. - the caller must have allowance for ``from``'s tokens of at least `amount`."
      }
    },
    "version": 1
  },
  "userdoc": {
    "kind": "user",
    "methods": {},
    "version": 1
  }
}