{
  "contractName": "COOLFROOT",
  "abi": [
    {
      "inputs": [
        {
          "internalType": "address",
          "name": "_ICE",
          "type": "address"
        },
        {
          "internalType": "address",
          "name": "_Greenlist",
          "type": "address"
        },
        {
          "internalType": "uint256",
          "name": "_t",
          "type": "uint256"
        }
      ],
      "stateMutability": "nonpayable",
      "type": "constructor"
    },
    {
      "anonymous": false,
      "inputs": [
        {
          "indexed": true,
          "internalType": "address",
          "name": "owner",
          "type": "address"
        },
        {
          "indexed": true,
          "internalType": "address",
          "name": "approved",
          "type": "address"
        },
        {
          "indexed": true,
          "internalType": "uint256",
          "name": "tokenId",
          "type": "uint256"
        }
      ],
      "name": "Approval",
      "type": "event"
    },
    {
      "anonymous": false,
      "inputs": [
        {
          "indexed": true,
          "internalType": "address",
          "name": "owner",
          "type": "address"
        },
        {
          "indexed": true,
          "internalType": "address",
          "name": "operator",
          "type": "address"
        },
        {
          "indexed": false,
          "internalType": "bool",
          "name": "approved",
          "type": "bool"
        }
      ],
      "name": "ApprovalForAll",
      "type": "event"
    },
    {
      "anonymous": false,
      "inputs": [
        {
          "indexed": true,
          "internalType": "address",
          "name": "from",
          "type": "address"
        },
        {
          "indexed": true,
          "internalType": "address",
          "name": "to",
          "type": "address"
        },
        {
          "indexed": true,
          "internalType": "uint256",
          "name": "tokenId",
          "type": "uint256"
        }
      ],
      "name": "Transfer",
      "type": "event"
    },
    {
      "inputs": [],
      "name": "GLC",
      "outputs": [
        {
          "internalType": "contract Greenlist",
          "name": "",
          "type": "address"
        }
      ],
      "stateMutability": "view",
      "type": "function"
    },
    {
      "inputs": [
        {
          "internalType": "address",
          "name": "to",
          "type": "address"
        },
        {
          "internalType": "uint256",
          "name": "tokenId",
          "type": "uint256"
        }
      ],
      "name": "approve",
      "outputs": [],
      "stateMutability": "nonpayable",
      "type": "function"
    },
    {
      "inputs": [
        {
          "internalType": "address",
          "name": "owner",
          "type": "address"
        }
      ],
      "name": "balanceOf",
      "outputs": [
        {
          "internalType": "uint256",
          "name": "",
          "type": "uint256"
        }
      ],
      "stateMutability": "view",
      "type": "function"
    },
    {
      "inputs": [
        {
          "internalType": "uint256",
          "name": "",
          "type": "uint256"
        }
      ],
      "name": "dias",
      "outputs": [
        {
          "internalType": "bytes",
          "name": "",
          "type": "bytes"
        }
      ],
      "stateMutability": "view",
      "type": "function"
    },
    {
      "inputs": [],
      "name": "digits",
      "outputs": [
        {
          "internalType": "uint256",
          "name": "",
          "type": "uint256"
        }
      ],
      "stateMutability": "view",
      "type": "function"
    },
    {
      "inputs": [
        {
          "internalType": "uint256",
          "name": "tokenId",
          "type": "uint256"
        }
      ],
      "name": "getApproved",
      "outputs": [
        {
          "internalType": "address",
          "name": "",
          "type": "address"
        }
      ],
      "stateMutability": "view",
      "type": "function"
    },
    {
      "inputs": [],
      "name": "ice",
      "outputs": [
        {
          "internalType": "contract ICE",
          "name": "",
          "type": "address"
        }
      ],
      "stateMutability": "view",
      "type": "function"
    },
    {
      "inputs": [
        {
          "internalType": "uint256",
          "name": "",
          "type": "uint256"
        }
      ],
      "name": "icebox",
      "outputs": [
        {
          "internalType": "uint256",
          "name": "",
          "type": "uint256"
        }
      ],
      "stateMutability": "view",
      "type": "function"
    },
    {
      "inputs": [
        {
          "internalType": "address",
          "name": "owner",
          "type": "address"
        },
        {
          "internalType": "address",
          "name": "operator",
          "type": "address"
        }
      ],
      "name": "isApprovedForAll",
      "outputs": [
        {
          "internalType": "bool",
          "name": "",
          "type": "bool"
        }
      ],
      "stateMutability": "view",
      "type": "function"
    },
    {
      "inputs": [],
      "name": "max",
      "outputs": [
        {
          "internalType": "uint256",
          "name": "",
          "type": "uint256"
        }
      ],
      "stateMutability": "view",
      "type": "function"
    },
    {
      "inputs": [
        {
          "internalType": "uint256",
          "name": "",
          "type": "uint256"
        }
      ],
      "name": "meltbox",
      "outputs": [
        {
          "internalType": "uint256",
          "name": "",
          "type": "uint256"
        }
      ],
      "stateMutability": "view",
      "type": "function"
    },
    {
      "inputs": [],
      "name": "minted",
      "outputs": [
        {
          "internalType": "uint256",
          "name": "",
          "type": "uint256"
        }
      ],
      "stateMutability": "view",
      "type": "function"
    },
    {
      "inputs": [
        {
          "internalType": "address",
          "name": "",
          "type": "address"
        }
      ],
      "name": "minter",
      "outputs": [
        {
          "internalType": "uint256",
          "name": "",
          "type": "uint256"
        }
      ],
      "stateMutability": "view",
      "type": "function"
    },
    {
      "inputs": [],
      "name": "name",
      "outputs": [
        {
          "internalType": "string",
          "name": "",
          "type": "string"
        }
      ],
      "stateMutability": "view",
      "type": "function"
    },
    {
      "inputs": [],
      "name": "num",
      "outputs": [
        {
          "internalType": "uint256",
          "name": "",
          "type": "uint256"
        }
      ],
      "stateMutability": "view",
      "type": "function"
    },
    {
      "inputs": [
        {
          "internalType": "uint256",
          "name": "",
          "type": "uint256"
        }
      ],
      "name": "ownedBy",
      "outputs": [
        {
          "internalType": "address",
          "name": "",
          "type": "address"
        }
      ],
      "stateMutability": "view",
      "type": "function"
    },
    {
      "inputs": [],
      "name": "owner",
      "outputs": [
        {
          "internalType": "address",
          "name": "",
          "type": "address"
        }
      ],
      "stateMutability": "view",
      "type": "function"
    },
    {
      "inputs": [
        {
          "internalType": "uint256",
          "name": "tokenId",
          "type": "uint256"
        }
      ],
      "name": "ownerOf",
      "outputs": [
        {
          "internalType": "address",
          "name": "",
          "type": "address"
        }
      ],
      "stateMutability": "view",
      "type": "function"
    },
    {
      "inputs": [],
      "name": "price",
      "outputs": [
        {
          "internalType": "uint256",
          "name": "",
          "type": "uint256"
        }
      ],
      "stateMutability": "view",
      "type": "function"
    },
    {
      "inputs": [
        {
          "internalType": "address",
          "name": "from",
          "type": "address"
        },
        {
          "internalType": "address",
          "name": "to",
          "type": "address"
        },
        {
          "internalType": "uint256",
          "name": "tokenId",
          "type": "uint256"
        }
      ],
      "name": "safeTransferFrom",
      "outputs": [],
      "stateMutability": "nonpayable",
      "type": "function"
    },
    {
      "inputs": [
        {
          "internalType": "address",
          "name": "from",
          "type": "address"
        },
        {
          "internalType": "address",
          "name": "to",
          "type": "address"
        },
        {
          "internalType": "uint256",
          "name": "tokenId",
          "type": "uint256"
        },
        {
          "internalType": "bytes",
          "name": "data",
          "type": "bytes"
        }
      ],
      "name": "safeTransferFrom",
      "outputs": [],
      "stateMutability": "nonpayable",
      "type": "function"
    },
    {
      "inputs": [
        {
          "internalType": "address",
          "name": "operator",
          "type": "address"
        },
        {
          "internalType": "bool",
          "name": "approved",
          "type": "bool"
        }
      ],
      "name": "setApprovalForAll",
      "outputs": [],
      "stateMutability": "nonpayable",
      "type": "function"
    },
    {
      "inputs": [],
      "name": "slots",
      "outputs": [
        {
          "internalType": "uint256",
          "name": "",
          "type": "uint256"
        }
      ],
      "stateMutability": "view",
      "type": "function"
    },
    {
      "inputs": [],
      "name": "sloz",
      "outputs": [
        {
          "internalType": "uint256",
          "name": "",
          "type": "uint256"
        }
      ],
      "stateMutability": "view",
      "type": "function"
    },
    {
      "inputs": [],
      "name": "start",
      "outputs": [
        {
          "internalType": "bool",
          "name": "",
          "type": "bool"
        }
      ],
      "stateMutability": "view",
      "type": "function"
    },
    {
      "inputs": [
        {
          "internalType": "uint256",
          "name": "",
          "type": "uint256"
        }
      ],
      "name": "status",
      "outputs": [
        {
          "internalType": "string",
          "name": "",
          "type": "string"
        }
      ],
      "stateMutability": "view",
      "type": "function"
    },
    {
      "inputs": [],
      "name": "statusprice",
      "outputs": [
        {
          "internalType": "uint256",
          "name": "",
          "type": "uint256"
        }
      ],
      "stateMutability": "view",
      "type": "function"
    },
    {
      "inputs": [
        {
          "internalType": "bytes4",
          "name": "interfaceId",
          "type": "bytes4"
        }
      ],
      "name": "supportsInterface",
      "outputs": [
        {
          "internalType": "bool",
          "name": "",
          "type": "bool"
        }
      ],
      "stateMutability": "view",
      "type": "function"
    },
    {
      "inputs": [],
      "name": "symbol",
      "outputs": [
        {
          "internalType": "string",
          "name": "",
          "type": "string"
        }
      ],
      "stateMutability": "view",
      "type": "function"
    },
    {
      "inputs": [
        {
          "internalType": "uint256",
          "name": "",
          "type": "uint256"
        }
      ],
      "name": "tid",
      "outputs": [
        {
          "internalType": "uint256",
          "name": "",
          "type": "uint256"
        }
      ],
      "stateMutability": "view",
      "type": "function"
    },
    {
      "inputs": [
        {
          "internalType": "uint256",
          "name": "tokenId",
          "type": "uint256"
        }
      ],
      "name": "tokenURI",
      "outputs": [
        {
          "internalType": "string",
          "name": "",
          "type": "string"
        }
      ],
      "stateMutability": "view",
      "type": "function"
    },
    {
      "inputs": [
        {
          "internalType": "address",
          "name": "from",
          "type": "address"
        },
        {
          "internalType": "address",
          "name": "to",
          "type": "address"
        },
        {
          "internalType": "uint256",
          "name": "tokenId",
          "type": "uint256"
        }
      ],
      "name": "transferFrom",
      "outputs": [],
      "stateMutability": "nonpayable",
      "type": "function"
    },
    {
      "inputs": [
        {
          "internalType": "uint256",
          "name": "_amnt",
          "type": "uint256"
        },
        {
          "internalType": "uint256",
          "name": "_diasID",
          "type": "uint256"
        },
        {
          "internalType": "string",
          "name": "_diasOBJ",
          "type": "string"
        },
        {
          "internalType": "string",
          "name": "_diasName",
          "type": "string"
        }
      ],
      "name": "mint",
      "outputs": [
        {
          "internalType": "uint256",
          "name": "",
          "type": "uint256"
        }
      ],
      "stateMutability": "payable",
      "type": "function"
    },
    {
      "inputs": [
        {
          "internalType": "uint256",
          "name": "_price",
          "type": "uint256"
        },
        {
          "internalType": "uint256",
          "name": "_sts",
          "type": "uint256"
        }
      ],
      "name": "setPrices",
      "outputs": [],
      "stateMutability": "nonpayable",
      "type": "function"
    },
    {
      "inputs": [
        {
          "internalType": "uint256",
          "name": "_diasID",
          "type": "uint256"
        },
        {
          "internalType": "string",
          "name": "_diasOBJ",
          "type": "string"
        },
        {
          "internalType": "string",
          "name": "_diasName",
          "type": "string"
        }
      ],
      "name": "greenMint",
      "outputs": [
        {
          "internalType": "uint256",
          "name": "",
          "type": "uint256"
        }
      ],
      "stateMutability": "nonpayable",
      "type": "function"
    },
    {
      "inputs": [
        {
          "internalType": "uint256",
          "name": "_id",
          "type": "uint256"
        },
        {
          "internalType": "string",
          "name": "_status",
          "type": "string"
        }
      ],
      "name": "setStatus",
      "outputs": [
        {
          "internalType": "bool",
          "name": "",
          "type": "bool"
        }
      ],
      "stateMutability": "payable",
      "type": "function"
    },
    {
      "inputs": [
        {
          "internalType": "uint256",
          "name": "_id",
          "type": "uint256"
        },
        {
          "internalType": "string",
          "name": "_status",
          "type": "string"
        }
      ],
      "name": "iceSetStatus",
      "outputs": [
        {
          "internalType": "string",
          "name": "",
          "type": "string"
        }
      ],
      "stateMutability": "nonpayable",
      "type": "function"
    },
    {
      "inputs": [
        {
          "internalType": "uint256",
          "name": "_amount",
          "type": "uint256"
        },
        {
          "internalType": "uint256",
          "name": "_id",
          "type": "uint256"
        }
      ],
      "name": "addIce",
      "outputs": [
        {
          "internalType": "string",
          "name": "",
          "type": "string"
        }
      ],
      "stateMutability": "nonpayable",
      "type": "function"
    },
    {
      "inputs": [],
      "name": "meltState",
      "outputs": [
        {
          "internalType": "int256",
          "name": "state",
          "type": "int256"
        }
      ],
      "stateMutability": "view",
      "type": "function"
    },
    {
      "inputs": [],
      "name": "changeMS",
      "outputs": [
        {
          "internalType": "bool",
          "name": "",
          "type": "bool"
        }
      ],
      "stateMutability": "nonpayable",
      "type": "function"
    },
    {
      "inputs": [
        {
          "internalType": "uint256",
          "name": "_tID",
          "type": "uint256"
        }
      ],
      "name": "showDIAS",
      "outputs": [
        {
          "internalType": "string",
          "name": "",
          "type": "string"
        }
      ],
      "stateMutability": "view",
      "type": "function"
    },
    {
      "inputs": [],
      "name": "withdraw",
      "outputs": [
        {
          "internalType": "uint256",
          "name": "",
          "type": "uint256"
        }
      ],
      "stateMutability": "nonpayable",
      "type": "function"
    }
  ],
  "bytecode": "0x6080604052670de0b6b3a76400006008553480156200001d57600080fd5b506040516200558e3803806200558e833981810160405281019062000043919062000388565b6040518060400160405280600b81526020017f436f6f6c2046726f6f74730000000000000000000000000000000000000000008152506040518060400160405280600681526020017f46523030545300000000000000000000000000000000000000000000000000008152508160009081620000c0919062000654565b508060019081620000d2919062000654565b5050506001600d819055506000600e8190555033600b60006101000a81548173ffffffffffffffffffffffffffffffffffffffff021916908373ffffffffffffffffffffffffffffffffffffffff16021790555082601760006101000a81548173ffffffffffffffffffffffffffffffffffffffff021916908373ffffffffffffffffffffffffffffffffffffffff16021790555081601860006101000a81548173ffffffffffffffffffffffffffffffffffffffff021916908373ffffffffffffffffffffffffffffffffffffffff160217905550600081036200029957600a600981905550601860009054906101000a900473ffffffffffffffffffffffffffffffffffffffff1673ffffffffffffffffffffffffffffffffffffffff16636ac5db196040518163ffffffff1660e01b8152600401602060405180830381865afa15801562000227573d6000803e3d6000fd5b505050506040513d601f19601f820116820180604052508101906200024d91906200073b565b600a81905550620186a060085460056200026891906200079c565b62000274919062000816565b600681905550620f42406008546200028d919062000816565b600781905550620002da565b6115b36009819055506104d2600a819055506008546058620002bc91906200079c565b6006819055506008546001620002d391906200079c565b6007819055505b5050506200084e565b600080fd5b600073ffffffffffffffffffffffffffffffffffffffff82169050919050565b60006200031582620002e8565b9050919050565b620003278162000308565b81146200033357600080fd5b50565b60008151905062000347816200031c565b92915050565b6000819050919050565b62000362816200034d565b81146200036e57600080fd5b50565b600081519050620003828162000357565b92915050565b600080600060608486031215620003a457620003a3620002e3565b5b6000620003b48682870162000336565b9350506020620003c78682870162000336565b9250506040620003da8682870162000371565b9150509250925092565b600081519050919050565b7f4e487b7100000000000000000000000000000000000000000000000000000000600052604160045260246000fd5b7f4e487b7100000000000000000000000000000000000000000000000000000000600052602260045260246000fd5b600060028204905060018216806200046657607f821691505b6020821081036200047c576200047b6200041e565b5b50919050565b60008190508160005260206000209050919050565b60006020601f8301049050919050565b600082821b905092915050565b600060088302620004e67fffffffffffffffffffffffffffffffffffffffffffffffffffffffffffffffff82620004a7565b620004f28683620004a7565b95508019841693508086168417925050509392505050565b6000819050919050565b6000620005356200052f62000529846200034d565b6200050a565b6200034d565b9050919050565b6000819050919050565b620005518362000514565b6200056962000560826200053c565b848454620004b4565b825550505050565b600090565b6200058062000571565b6200058d81848462000546565b505050565b5b81811015620005b557620005a960008262000576565b60018101905062000593565b5050565b601f8211156200060457620005ce8162000482565b620005d98462000497565b81016020851015620005e9578190505b62000601620005f88562000497565b83018262000592565b50505b505050565b600082821c905092915050565b6000620006296000198460080262000609565b1980831691505092915050565b600062000644838362000616565b9150826002028217905092915050565b6200065f82620003e4565b67ffffffffffffffff8111156200067b576200067a620003ef565b5b6200068782546200044d565b62000694828285620005b9565b600060209050601f831160018114620006cc5760008415620006b7578287015190505b620006c3858262000636565b86555062000733565b601f198416620006dc8662000482565b60005b828110156200070657848901518255600182019150602085019450602081019050620006df565b8683101562000726578489015162000722601f89168262000616565b8355505b6001600288020188555050505b505050505050565b600060208284031215620007545762000753620002e3565b5b6000620007648482850162000371565b91505092915050565b7f4e487b7100000000000000000000000000000000000000000000000000000000600052601160045260246000fd5b6000620007a9826200034d565b9150620007b6836200034d565b9250828202620007c6816200034d565b91508282048414831517620007e057620007df6200076d565b5b5092915050565b7f4e487b7100000000000000000000000000000000000000000000000000000000600052601260045260246000fd5b600062000823826200034d565b915062000830836200034d565b925082620008435762000842620007e7565b5b828204905092915050565b614d30806200085e6000396000f3fe6080604052600436106102515760003560e01c806370a0823111610139578063a613e0e7116100b6578063ae943abc1161007a578063ae943abc1461094c578063b88d4fde14610989578063be9a6555146109b2578063c87b56dd146109dd578063d64b3ae814610a1a578063e985e9c514610a5757610251565b8063a613e0e71461082d578063a9700e1f1461086a578063aa1ee94014610895578063ac0d4084146108d2578063ac8865d61461090f57610251565b806398e48c9f116100fd57806398e48c9f146107415780639b4f589f146107715780639e20437c146107ae578063a035b1fe146107d9578063a22cb4651461080457610251565b806370a082311461065357806376917df91461069057806380142754146106c05780638da5cb5b146106eb57806395d89b411461071657610251565b80633dd08c38116101d25780634c2a860d116101965780634c2a860d1461053f5780634e70b1dc1461056a5780634f02c420146105955780636352211e146105c05780636ac5db19146105fd5780636f743acd1461062857610251565b80633dd08c381461043457806342842e0e1461047157806342d21ef71461049a57806347e3be92146104d757806348547d691461051457610251565b8063095ea7b311610219578063095ea7b31461034f57806323b872dd146103785780632ce56773146103a15780633b8d676f146103de5780633ccfd60b1461040957610251565b806301ffc9a71461025657806305fefda71461029357806306390d6c146102bc57806306fdde03146102e7578063081812fc14610312575b600080fd5b34801561026257600080fd5b5061027d60048036038101906102789190613189565b610a94565b60405161028a91906131d1565b60405180910390f35b34801561029f57600080fd5b506102ba60048036038101906102b59190613222565b610b76565b005b3480156102c857600080fd5b506102d1610c15565b6040516102de9190613271565b60405180910390f35b3480156102f357600080fd5b506102fc610c1b565b604051610309919061331c565b60405180910390f35b34801561031e57600080fd5b506103396004803603810190610334919061333e565b610cad565b60405161034691906133ac565b60405180910390f35b34801561035b57600080fd5b50610376600480360381019061037191906133f3565b610cf3565b005b34801561038457600080fd5b5061039f600480360381019061039a9190613433565b610e0a565b005b3480156103ad57600080fd5b506103c860048036038101906103c391906135bb565b610e6a565b6040516103d5919061331c565b60405180910390f35b3480156103ea57600080fd5b506103f36111a4565b60405161040091906131d1565b60405180910390f35b34801561041557600080fd5b5061041e611243565b60405161042b9190613271565b60405180910390f35b34801561044057600080fd5b5061045b60048036038101906104569190613617565b6114d0565b6040516104689190613271565b60405180910390f35b34801561047d57600080fd5b5061049860048036038101906104939190613433565b6114e8565b005b3480156104a657600080fd5b506104c160048036038101906104bc919061333e565b611508565b6040516104ce919061331c565b60405180910390f35b3480156104e357600080fd5b506104fe60048036038101906104f99190613644565b6115a8565b60405161050b9190613271565b60405180910390f35b34801561052057600080fd5b50610529611820565b6040516105369190613271565b60405180910390f35b34801561054b57600080fd5b50610554611826565b604051610561919061372e565b60405180910390f35b34801561057657600080fd5b5061057f61184c565b60405161058c9190613271565b60405180910390f35b3480156105a157600080fd5b506105aa611851565b6040516105b79190613271565b60405180910390f35b3480156105cc57600080fd5b506105e760048036038101906105e2919061333e565b611857565b6040516105f491906133ac565b60405180910390f35b34801561060957600080fd5b506106126118dd565b60405161061f9190613271565b60405180910390f35b34801561063457600080fd5b5061063d6118e3565b60405161064a9190613271565b60405180910390f35b34801561065f57600080fd5b5061067a60048036038101906106759190613617565b6118e9565b6040516106879190613271565b60405180910390f35b6106aa60048036038101906106a591906135bb565b6119a0565b6040516106b791906131d1565b60405180910390f35b3480156106cc57600080fd5b506106d5611a7d565b6040516106e29190613762565b60405180910390f35b3480156106f757600080fd5b50610700611b0a565b60405161070d91906133ac565b60405180910390f35b34801561072257600080fd5b5061072b611b30565b604051610738919061331c565b60405180910390f35b61075b6004803603810190610756919061377d565b611bc2565b6040516107689190613271565b60405180910390f35b34801561077d57600080fd5b506107986004803603810190610793919061333e565b611d50565b6040516107a59190613871565b60405180910390f35b3480156107ba57600080fd5b506107c3611df0565b6040516107d09190613271565b60405180910390f35b3480156107e557600080fd5b506107ee611df6565b6040516107fb9190613271565b60405180910390f35b34801561081057600080fd5b5061082b600480360381019061082691906138bf565b611dfc565b005b34801561083957600080fd5b50610854600480360381019061084f919061333e565b611e12565b60405161086191906133ac565b60405180910390f35b34801561087657600080fd5b5061087f611e45565b60405161088c9190613920565b60405180910390f35b3480156108a157600080fd5b506108bc60048036038101906108b7919061333e565b611e6b565b6040516108c99190613271565b60405180910390f35b3480156108de57600080fd5b506108f960048036038101906108f49190613222565b611e83565b604051610906919061331c565b60405180910390f35b34801561091b57600080fd5b506109366004803603810190610931919061333e565b61209d565b604051610943919061331c565b60405180910390f35b34801561095857600080fd5b50610973600480360381019061096e919061333e565b612142565b6040516109809190613271565b60405180910390f35b34801561099557600080fd5b506109b060048036038101906109ab91906139dc565b61215a565b005b3480156109be57600080fd5b506109c76121bc565b6040516109d491906131d1565b60405180910390f35b3480156109e957600080fd5b50610a0460048036038101906109ff919061333e565b6121cf565b604051610a11919061331c565b60405180910390f35b348015610a2657600080fd5b50610a416004803603810190610a3c919061333e565b612237565b604051610a4e9190613271565b60405180910390f35b348015610a6357600080fd5b50610a7e6004803603810190610a799190613a5f565b61224f565b604051610a8b91906131d1565b60405180910390f35b60007f80ac58cd000000000000000000000000000000000000000000000000000000007bffffffffffffffffffffffffffffffffffffffffffffffffffffffff1916827bffffffffffffffffffffffffffffffffffffffffffffffffffffffff19161480610b5f57507f5b5e139f000000000000000000000000000000000000000000000000000000007bffffffffffffffffffffffffffffffffffffffffffffffffffffffff1916827bffffffffffffffffffffffffffffffffffffffffffffffffffffffff1916145b80610b6f5750610b6e826122e3565b5b9050919050565b600b60009054906101000a900473ffffffffffffffffffffffffffffffffffffffff1673ffffffffffffffffffffffffffffffffffffffff163373ffffffffffffffffffffffffffffffffffffffff1614610bd057600080fd5b606460085483610be09190613ace565b610bea9190613b3f565b6006819055506103e860085482610c019190613ace565b610c0b9190613b3f565b6007819055505050565b60075481565b606060008054610c2a90613b9f565b80601f0160208091040260200160405190810160405280929190818152602001828054610c5690613b9f565b8015610ca35780601f10610c7857610100808354040283529160200191610ca3565b820191906000526020600020905b815481529060010190602001808311610c8657829003601f168201915b5050505050905090565b6000610cb88261234d565b6004600083815260200190815260200160002060009054906101000a900473ffffffffffffffffffffffffffffffffffffffff169050919050565b6000610cfe82611857565b90508073ffffffffffffffffffffffffffffffffffffffff168373ffffffffffffffffffffffffffffffffffffffff1603610d6e576040517f08c379a0000000000000000000000000000000000000000000000000000000008152600401610d6590613c42565b60405180910390fd5b8073ffffffffffffffffffffffffffffffffffffffff16610d8d612398565b73ffffffffffffffffffffffffffffffffffffffff161480610dbc5750610dbb81610db6612398565b61224f565b5b610dfb576040517f08c379a0000000000000000000000000000000000000000000000000000000008152600401610df290613cd4565b60405180910390fd5b610e0583836123a0565b505050565b610e1b610e15612398565b82612459565b610e5a576040517f08c379a0000000000000000000000000000000000000000000000000000000008152600401610e5190613d66565b60405180910390fd5b610e658383836124ee565b505050565b60603373ffffffffffffffffffffffffffffffffffffffff166015600085815260200190815260200160002060009054906101000a900473ffffffffffffffffffffffffffffffffffffffff1673ffffffffffffffffffffffffffffffffffffffff1614610f0d576040517f08c379a0000000000000000000000000000000000000000000000000000000008152600401610f0490613dd2565b60405180910390fd5b600854601760009054906101000a900473ffffffffffffffffffffffffffffffffffffffff1673ffffffffffffffffffffffffffffffffffffffff166370a08231336040518263ffffffff1660e01b8152600401610f6b91906133ac565b602060405180830381865afa158015610f88573d6000803e3d6000fd5b505050506040513d601f19601f82011682018060405250810190610fac9190613e07565b1015610fed576040517f08c379a0000000000000000000000000000000000000000000000000000000008152600401610fe490613e80565b60405180910390fd5b601760009054906101000a900473ffffffffffffffffffffffffffffffffffffffff1673ffffffffffffffffffffffffffffffffffffffff1663fcd3533c600854336040518363ffffffff1660e01b815260040161104c929190613ea0565b6020604051808303816000875af115801561106b573d6000803e3d6000fd5b505050506040513d601f19601f8201168201806040525081019061108f9190613e07565b50600360094261109f9190613ec9565b10156111455760016013600085815260200190815260200160002060008282546110c99190613efa565b9250508190555060006014600085815260200190815260200160002054036111165762015180426110fa9190613efa565b6014600085815260200190815260200160002081905550611144565b6201518060146000858152602001908152602001600020600082825461113c9190613efa565b925050819055505b5b8160126000858152602001908152602001600020908161116591906140d0565b506040518060400160405280600581526020017f4652455348000000000000000000000000000000000000000000000000000000815250905092915050565b6000601860009054906101000a900473ffffffffffffffffffffffffffffffffffffffff1673ffffffffffffffffffffffffffffffffffffffff163373ffffffffffffffffffffffffffffffffffffffff1614611236576040517f08c379a000000000000000000000000000000000000000000000000000000000815260040161122d906141ee565b60405180910390fd5b61123e612623565b905090565b6000600b60009054906101000a900473ffffffffffffffffffffffffffffffffffffffff1673ffffffffffffffffffffffffffffffffffffffff163373ffffffffffffffffffffffffffffffffffffffff161461129f57600080fd5b6000606480476112af9190613ec9565b476112ba919061420e565b6112c49190613b3f565b90507379e205680908c03047e3f3a4e63fd192ff4cf40973ffffffffffffffffffffffffffffffffffffffff166108fc602d836113019190613ace565b9081150290604051600060405180830381858888f1935050505015801561132c573d6000803e3d6000fd5b5073b4ab6acfc8de6bc53cc696b902e59274d288d3e873ffffffffffffffffffffffffffffffffffffffff166108fc601e836113689190613ace565b9081150290604051600060405180830381858888f19350505050158015611393573d6000803e3d6000fd5b5073b4ab6acfc8de6bc53cc696b902e59274d288d3e873ffffffffffffffffffffffffffffffffffffffff166108fc600a836113cf9190613ace565b9081150290604051600060405180830381858888f193505050501580156113fa573d6000803e3d6000fd5b5073b4ab6acfc8de6bc53cc696b902e59274d288d3e873ffffffffffffffffffffffffffffffffffffffff166108fc600a836114369190613ace565b9081150290604051600060405180830381858888f19350505050158015611461573d6000803e3d6000fd5b507379e205680908c03047e3f3a4e63fd192ff4cf40973ffffffffffffffffffffffffffffffffffffffff166108fc60058361149d9190613ace565b9081150290604051600060405180830381858888f193505050501580156114c8573d6000803e3d6000fd5b504791505090565b60166020528060005260406000206000915090505481565b6115038383836040518060200160405280600081525061215a565b505050565b6012602052806000526040600020600091509050805461152790613b9f565b80601f016020809104026020016040519081016040528092919081815260200182805461155390613b9f565b80156115a05780601f10611575576101008083540402835291602001916115a0565b820191906000526020600020905b81548152906001019060200180831161158357829003601f168201915b505050505081565b6000600954600d5411156115f1576040517f08c379a00000000000000000000000000000000000000000000000000000000081526004016115e89061428e565b60405180910390fd5b60011515600f60009054906101000a900460ff16151514611647576040517f08c379a000000000000000000000000000000000000000000000000000000000815260040161163e906142fa565b60405180910390fd5b6000601860009054906101000a900473ffffffffffffffffffffffffffffffffffffffff1673ffffffffffffffffffffffffffffffffffffffff1663f794062e336040518263ffffffff1660e01b81526004016116a491906133ac565b602060405180830381865afa1580156116c1573d6000803e3d6000fd5b505050506040513d601f19601f820116820180604052508101906116e5919061432f565b9050600115158115151461172e576040517f08c379a0000000000000000000000000000000000000000000000000000000008152600401611725906143a8565b60405180910390fd5b600a54600e541115611775576040517f08c379a000000000000000000000000000000000000000000000000000000000815260040161176c90614414565b60405180910390fd5b3360156000600d54815260200190815260200160002060006101000a81548173ffffffffffffffffffffffffffffffffffffffff021916908373ffffffffffffffffffffffffffffffffffffffff1602179055506117d533868686612653565b5060006009426117e59190613ec9565b60016117f19190613efa565b9050600e600081548092919061180690614434565b91905055506118153382612813565b925050509392505050565b600e5481565b601760009054906101000a900473ffffffffffffffffffffffffffffffffffffffff1681565b600181565b600d5481565b600080611863836128cc565b9050600073ffffffffffffffffffffffffffffffffffffffff168173ffffffffffffffffffffffffffffffffffffffff16036118d4576040517f08c379a00000000000000000000000000000000000000000000000000000000081526004016118cb906144c8565b60405180910390fd5b80915050919050565b60095481565b600a5481565b60008073ffffffffffffffffffffffffffffffffffffffff168273ffffffffffffffffffffffffffffffffffffffff1603611959576040517f08c379a00000000000000000000000000000000000000000000000000000000081526004016119509061455a565b60405180910390fd5b600360008373ffffffffffffffffffffffffffffffffffffffff1673ffffffffffffffffffffffffffffffffffffffff168152602001908152602001600020549050919050565b60003373ffffffffffffffffffffffffffffffffffffffff166015600085815260200190815260200160002060009054906101000a900473ffffffffffffffffffffffffffffffffffffffff1673ffffffffffffffffffffffffffffffffffffffff1614611a43576040517f08c379a0000000000000000000000000000000000000000000000000000000008152600401611a3a90613dd2565b60405180910390fd5b600754341015611a5257600080fd5b81601260008581526020019081526020016000209081611a7291906140d0565b506001905092915050565b6000804260146000601660003373ffffffffffffffffffffffffffffffffffffffff1673ffffffffffffffffffffffffffffffffffffffff16815260200190815260200160002054815260200190815260200160002054611ade919061457a565b9050610e108082611aef91906145bd565b82611afa919061457a565b611b0491906145ee565b91505090565b600b60009054906101000a900473ffffffffffffffffffffffffffffffffffffffff1681565b606060018054611b3f90613b9f565b80601f0160208091040260200160405190810160405280929190818152602001828054611b6b90613b9f565b8015611bb85780601f10611b8d57610100808354040283529160200191611bb8565b820191906000526020600020905b815481529060010190602001808311611b9b57829003601f168201915b5050505050905090565b60006001600954611bd39190613efa565b600d541115611c17576040517f08c379a0000000000000000000000000000000000000000000000000000000008152600401611c0e9061428e565b60405180910390fd5b60065485611c259190613ace565b341015611c67576040517f08c379a0000000000000000000000000000000000000000000000000000000008152600401611c5e906146a4565b60405180910390fd5b60011515600f60009054906101000a900460ff16151514611cbd576040517f08c379a0000000000000000000000000000000000000000000000000000000008152600401611cb4906142fa565b60405180910390fd5b3360156000600d54815260200190815260200160002060006101000a81548173ffffffffffffffffffffffffffffffffffffffff021916908373ffffffffffffffffffffffffffffffffffffffff160217905550611d1d33858585612653565b506000600942611d2d9190613ec9565b6001611d399190613efa565b9050611d453382612813565b915050949350505050565b60106020528060005260406000206000915090508054611d6f90613b9f565b80601f0160208091040260200160405190810160405280929190818152602001828054611d9b90613b9f565b8015611de85780601f10611dbd57610100808354040283529160200191611de8565b820191906000526020600020905b815481529060010190602001808311611dcb57829003601f168201915b505050505081565b60085481565b60065481565b611e0e611e07612398565b8383612909565b5050565b60156020528060005260406000206000915054906101000a900473ffffffffffffffffffffffffffffffffffffffff1681565b601860009054906101000a900473ffffffffffffffffffffffffffffffffffffffff1681565b60146020528060005260406000206000915090505481565b606060085483611e939190613ace565b601760009054906101000a900473ffffffffffffffffffffffffffffffffffffffff1673ffffffffffffffffffffffffffffffffffffffff166370a08231336040518263ffffffff1660e01b8152600401611eee91906133ac565b602060405180830381865afa158015611f0b573d6000803e3d6000fd5b505050506040513d601f19601f82011682018060405250810190611f2f9190613e07565b1015611f3a57600080fd5b601760009054906101000a900473ffffffffffffffffffffffffffffffffffffffff1673ffffffffffffffffffffffffffffffffffffffff1663fcd3533c60085485611f869190613ace565b336040518363ffffffff1660e01b8152600401611fa4929190613ea0565b6020604051808303816000875af1158015611fc3573d6000803e3d6000fd5b505050506040513d601f19601f82011682018060405250810190611fe79190613e07565b508260136000848152602001908152602001600020600082825461200b9190613efa565b925050819055506018603c80856120229190613ace565b61202c9190613ace565b6120369190613ace565b6014600084815260200190815260200160002060008282546120589190613efa565b925050819055506040518060400160405280600481526020017f434f4f4c00000000000000000000000000000000000000000000000000000000815250905092915050565b60606010600083815260200190815260200160002080546120bd90613b9f565b80601f01602080910402602001604051908101604052809291908181526020018280546120e990613b9f565b80156121365780601f1061210b57610100808354040283529160200191612136565b820191906000526020600020905b81548152906001019060200180831161211957829003601f168201915b50505050509050919050565b60116020528060005260406000206000915090505481565b61216b612165612398565b83612459565b6121aa576040517f08c379a00000000000000000000000000000000000000000000000000000000081526004016121a190613d66565b60405180910390fd5b6121b684848484612a75565b50505050565b600f60009054906101000a900460ff1681565b60606121da8261234d565b60006121e4612ad1565b90506000815111612204576040518060200160405280600081525061222f565b8061220e84612ae8565b60405160200161221f929190614700565b6040516020818303038152906040525b915050919050565b60136020528060005260406000206000915090505481565b6000600560008473ffffffffffffffffffffffffffffffffffffffff1673ffffffffffffffffffffffffffffffffffffffff16815260200190815260200160002060008373ffffffffffffffffffffffffffffffffffffffff1673ffffffffffffffffffffffffffffffffffffffff16815260200190815260200160002060009054906101000a900460ff16905092915050565b60007f01ffc9a7000000000000000000000000000000000000000000000000000000007bffffffffffffffffffffffffffffffffffffffffffffffffffffffff1916827bffffffffffffffffffffffffffffffffffffffffffffffffffffffff1916149050919050565b61235681612bb6565b612395576040517f08c379a000000000000000000000000000000000000000000000000000000000815260040161238c906144c8565b60405180910390fd5b50565b600033905090565b816004600083815260200190815260200160002060006101000a81548173ffffffffffffffffffffffffffffffffffffffff021916908373ffffffffffffffffffffffffffffffffffffffff160217905550808273ffffffffffffffffffffffffffffffffffffffff1661241383611857565b73ffffffffffffffffffffffffffffffffffffffff167f8c5be1e5ebec7d5bd14f71427d1e84f3dd0314c0f7b2291e5b200ac8c7c3b92560405160405180910390a45050565b60008061246583611857565b90508073ffffffffffffffffffffffffffffffffffffffff168473ffffffffffffffffffffffffffffffffffffffff1614806124a757506124a6818561224f565b5b806124e557508373ffffffffffffffffffffffffffffffffffffffff166124cd84610cad565b73ffffffffffffffffffffffffffffffffffffffff16145b91505092915050565b8273ffffffffffffffffffffffffffffffffffffffff1661250e82611857565b73ffffffffffffffffffffffffffffffffffffffff1614612564576040517f08c379a000000000000000000000000000000000000000000000000000000000815260040161255b90614770565b60405180910390fd5b600061256f836118e9565b146125af576040517f08c379a00000000000000000000000000000000000000000000000000000000081526004016125a6906147dc565b60405180910390fd5b600073ffffffffffffffffffffffffffffffffffffffff168273ffffffffffffffffffffffffffffffffffffffff160361261e576040517f08c379a000000000000000000000000000000000000000000000000000000000815260040161261590614848565b60405180910390fd5b505050565b6000600f60009054906101000a900460ff1615600f60006101000a81548160ff0219169083151502179055905090565b6000600180612661876118e9565b61266b9190613efa565b11156126ac576040517f08c379a00000000000000000000000000000000000000000000000000000000081526004016126a3906148b4565b60405180910390fd5b600954600d5411156126f3576040517f08c379a00000000000000000000000000000000000000000000000000000000081526004016126ea90614920565b60405180910390fd5b6126ff85600d54612bf7565b8160126000600d548152602001908152602001600020908161272191906140d0565b508360116000600d548152602001908152602001600020819055508260106000600d548152602001908152602001600020908161275e919061499b565b5062093a804261276e9190613efa565b60146000600d54815260200190815260200160002081905550600d54601660008773ffffffffffffffffffffffffffffffffffffffff1673ffffffffffffffffffffffffffffffffffffffff16815260200190815260200160002081905550600d60008154809291906127e090614434565b919050555060016009546127f49190613efa565b600d541061280657612804612623565b505b600d549050949350505050565b6000601760009054906101000a900473ffffffffffffffffffffffffffffffffffffffff1673ffffffffffffffffffffffffffffffffffffffff1663a9059cbb84600854856128629190613ace565b6040518363ffffffff1660e01b815260040161287f929190614a6d565b6020604051808303816000875af115801561289e573d6000803e3d6000fd5b505050506040513d601f19601f820116820180604052508101906128c2919061432f565b5081905092915050565b60006002600083815260200190815260200160002060009054906101000a900473ffffffffffffffffffffffffffffffffffffffff169050919050565b8173ffffffffffffffffffffffffffffffffffffffff168373ffffffffffffffffffffffffffffffffffffffff1603612977576040517f08c379a000000000000000000000000000000000000000000000000000000000815260040161296e90614ae2565b60405180910390fd5b80600560008573ffffffffffffffffffffffffffffffffffffffff1673ffffffffffffffffffffffffffffffffffffffff16815260200190815260200160002060008473ffffffffffffffffffffffffffffffffffffffff1673ffffffffffffffffffffffffffffffffffffffff16815260200190815260200160002060006101000a81548160ff0219169083151502179055508173ffffffffffffffffffffffffffffffffffffffff168373ffffffffffffffffffffffffffffffffffffffff167f17307eab39ab6107e8899845ad3d59bd9653f200f220920489ca2b5937696c3183604051612a6891906131d1565b60405180910390a3505050565b612a808484846124ee565b612a8c84848484612e14565b612acb576040517f08c379a0000000000000000000000000000000000000000000000000000000008152600401612ac290614b74565b60405180910390fd5b50505050565b606060405180602001604052806000815250905090565b606060006001612af784612f9b565b01905060008167ffffffffffffffff811115612b1657612b15613490565b5b6040519080825280601f01601f191660200182016040528015612b485781602001600182028036833780820191505090505b509050600082602001820190505b600115612bab578080600190039150507f3031323334353637383961626364656600000000000000000000000000000000600a86061a8153600a8581612b9f57612b9e613b10565b5b04945060008503612b56575b819350505050919050565b60008073ffffffffffffffffffffffffffffffffffffffff16612bd8836128cc565b73ffffffffffffffffffffffffffffffffffffffff1614159050919050565b600073ffffffffffffffffffffffffffffffffffffffff168273ffffffffffffffffffffffffffffffffffffffff1603612c66576040517f08c379a0000000000000000000000000000000000000000000000000000000008152600401612c5d90614be0565b60405180910390fd5b612c6f81612bb6565b15612caf576040517f08c379a0000000000000000000000000000000000000000000000000000000008152600401612ca690614c4c565b60405180910390fd5b612cbd6000838360016130ee565b612cc681612bb6565b15612d06576040517f08c379a0000000000000000000000000000000000000000000000000000000008152600401612cfd90614c4c565b60405180910390fd5b6001600360008473ffffffffffffffffffffffffffffffffffffffff1673ffffffffffffffffffffffffffffffffffffffff16815260200190815260200160002060008282540192505081905550816002600083815260200190815260200160002060006101000a81548173ffffffffffffffffffffffffffffffffffffffff021916908373ffffffffffffffffffffffffffffffffffffffff160217905550808273ffffffffffffffffffffffffffffffffffffffff16600073ffffffffffffffffffffffffffffffffffffffff167fddf252ad1be2c89b69c2b068fc378daa952ba7f163c4a11628f55a4df523b3ef60405160405180910390a4612e106000838360016130f4565b5050565b6000612e358473ffffffffffffffffffffffffffffffffffffffff166130fa565b15612f8e578373ffffffffffffffffffffffffffffffffffffffff1663150b7a02612e5e612398565b8786866040518563ffffffff1660e01b8152600401612e809493929190614c6c565b6020604051808303816000875af1925050508015612ebc57506040513d601f19601f82011682018060405250810190612eb99190614ccd565b60015b612f3e573d8060008114612eec576040519150601f19603f3d011682016040523d82523d6000602084013e612ef1565b606091505b506000815103612f36576040517f08c379a0000000000000000000000000000000000000000000000000000000008152600401612f2d90614b74565b60405180910390fd5b805181602001fd5b63150b7a0260e01b7bffffffffffffffffffffffffffffffffffffffffffffffffffffffff1916817bffffffffffffffffffffffffffffffffffffffffffffffffffffffff191614915050612f93565b600190505b949350505050565b600080600090507a184f03e93ff9f4daa797ed6e38ed64bf6a1f0100000000000000008310612ff9577a184f03e93ff9f4daa797ed6e38ed64bf6a1f0100000000000000008381612fef57612fee613b10565b5b0492506040810190505b6d04ee2d6d415b85acef81000000008310613036576d04ee2d6d415b85acef8100000000838161302c5761302b613b10565b5b0492506020810190505b662386f26fc10000831061306557662386f26fc10000838161305b5761305a613b10565b5b0492506010810190505b6305f5e100831061308e576305f5e100838161308457613083613b10565b5b0492506008810190505b61271083106130b35761271083816130a9576130a8613b10565b5b0492506004810190505b606483106130d657606483816130cc576130cb613b10565b5b0492506002810190505b600a83106130e5576001810190505b80915050919050565b50505050565b50505050565b6000808273ffffffffffffffffffffffffffffffffffffffff163b119050919050565b6000604051905090565b600080fd5b600080fd5b60007fffffffff0000000000000000000000000000000000000000000000000000000082169050919050565b61316681613131565b811461317157600080fd5b50565b6000813590506131838161315d565b92915050565b60006020828403121561319f5761319e613127565b5b60006131ad84828501613174565b91505092915050565b60008115159050919050565b6131cb816131b6565b82525050565b60006020820190506131e660008301846131c2565b92915050565b6000819050919050565b6131ff816131ec565b811461320a57600080fd5b50565b60008135905061321c816131f6565b92915050565b6000806040838503121561323957613238613127565b5b60006132478582860161320d565b92505060206132588582860161320d565b9150509250929050565b61326b816131ec565b82525050565b60006020820190506132866000830184613262565b92915050565b600081519050919050565b600082825260208201905092915050565b60005b838110156132c65780820151818401526020810190506132ab565b60008484015250505050565b6000601f19601f8301169050919050565b60006132ee8261328c565b6132f88185613297565b93506133088185602086016132a8565b613311816132d2565b840191505092915050565b6000602082019050818103600083015261333681846132e3565b905092915050565b60006020828403121561335457613353613127565b5b60006133628482850161320d565b91505092915050565b600073ffffffffffffffffffffffffffffffffffffffff82169050919050565b60006133968261336b565b9050919050565b6133a68161338b565b82525050565b60006020820190506133c1600083018461339d565b92915050565b6133d08161338b565b81146133db57600080fd5b50565b6000813590506133ed816133c7565b92915050565b6000806040838503121561340a57613409613127565b5b6000613418858286016133de565b92505060206134298582860161320d565b9150509250929050565b60008060006060848603121561344c5761344b613127565b5b600061345a868287016133de565b935050602061346b868287016133de565b925050604061347c8682870161320d565b9150509250925092565b600080fd5b600080fd5b7f4e487b7100000000000000000000000000000000000000000000000000000000600052604160045260246000fd5b6134c8826132d2565b810181811067ffffffffffffffff821117156134e7576134e6613490565b5b80604052505050565b60006134fa61311d565b905061350682826134bf565b919050565b600067ffffffffffffffff82111561352657613525613490565b5b61352f826132d2565b9050602081019050919050565b82818337600083830152505050565b600061355e6135598461350b565b6134f0565b90508281526020810184848401111561357a5761357961348b565b5b61358584828561353c565b509392505050565b600082601f8301126135a2576135a1613486565b5b81356135b284826020860161354b565b91505092915050565b600080604083850312156135d2576135d1613127565b5b60006135e08582860161320d565b925050602083013567ffffffffffffffff8111156136015761360061312c565b5b61360d8582860161358d565b9150509250929050565b60006020828403121561362d5761362c613127565b5b600061363b848285016133de565b91505092915050565b60008060006060848603121561365d5761365c613127565b5b600061366b8682870161320d565b935050602084013567ffffffffffffffff81111561368c5761368b61312c565b5b6136988682870161358d565b925050604084013567ffffffffffffffff8111156136b9576136b861312c565b5b6136c58682870161358d565b9150509250925092565b6000819050919050565b60006136f46136ef6136ea8461336b565b6136cf565b61336b565b9050919050565b6000613706826136d9565b9050919050565b6000613718826136fb565b9050919050565b6137288161370d565b82525050565b6000602082019050613743600083018461371f565b92915050565b6000819050919050565b61375c81613749565b82525050565b60006020820190506137776000830184613753565b92915050565b6000806000806080858703121561379757613796613127565b5b60006137a58782880161320d565b94505060206137b68782880161320d565b935050604085013567ffffffffffffffff8111156137d7576137d661312c565b5b6137e38782880161358d565b925050606085013567ffffffffffffffff8111156138045761380361312c565b5b6138108782880161358d565b91505092959194509250565b600081519050919050565b600082825260208201905092915050565b60006138438261381c565b61384d8185613827565b935061385d8185602086016132a8565b613866816132d2565b840191505092915050565b6000602082019050818103600083015261388b8184613838565b905092915050565b61389c816131b6565b81146138a757600080fd5b50565b6000813590506138b981613893565b92915050565b600080604083850312156138d6576138d5613127565b5b60006138e4858286016133de565b92505060206138f5858286016138aa565b9150509250929050565b600061390a826136fb565b9050919050565b61391a816138ff565b82525050565b60006020820190506139356000830184613911565b92915050565b600067ffffffffffffffff82111561395657613955613490565b5b61395f826132d2565b9050602081019050919050565b600061397f61397a8461393b565b6134f0565b90508281526020810184848401111561399b5761399a61348b565b5b6139a684828561353c565b509392505050565b600082601f8301126139c3576139c2613486565b5b81356139d384826020860161396c565b91505092915050565b600080600080608085870312156139f6576139f5613127565b5b6000613a04878288016133de565b9450506020613a15878288016133de565b9350506040613a268782880161320d565b925050606085013567ffffffffffffffff811115613a4757613a4661312c565b5b613a53878288016139ae565b91505092959194509250565b60008060408385031215613a7657613a75613127565b5b6000613a84858286016133de565b9250506020613a95858286016133de565b9150509250929050565b7f4e487b7100000000000000000000000000000000000000000000000000000000600052601160045260246000fd5b6000613ad9826131ec565b9150613ae4836131ec565b9250828202613af2816131ec565b91508282048414831517613b0957613b08613a9f565b5b5092915050565b7f4e487b7100000000000000000000000000000000000000000000000000000000600052601260045260246000fd5b6000613b4a826131ec565b9150613b55836131ec565b925082613b6557613b64613b10565b5b828204905092915050565b7f4e487b7100000000000000000000000000000000000000000000000000000000600052602260045260246000fd5b60006002820490506001821680613bb757607f821691505b602082108103613bca57613bc9613b70565b5b50919050565b7f4552433732313a20617070726f76616c20746f2063757272656e74206f776e6560008201527f7200000000000000000000000000000000000000000000000000000000000000602082015250565b6000613c2c602183613297565b9150613c3782613bd0565b604082019050919050565b60006020820190508181036000830152613c5b81613c1f565b9050919050565b7f4552433732313a20617070726f76652063616c6c6572206973206e6f7420746f60008201527f6b656e206f776e6572206f7220617070726f76656420666f7220616c6c000000602082015250565b6000613cbe603d83613297565b9150613cc982613c62565b604082019050919050565b60006020820190508181036000830152613ced81613cb1565b9050919050565b7f4552433732313a2063616c6c6572206973206e6f7420746f6b656e206f776e6560008201527f72206f7220617070726f76656400000000000000000000000000000000000000602082015250565b6000613d50602d83613297565b9150613d5b82613cf4565b604082019050919050565b60006020820190508181036000830152613d7f81613d43565b9050919050565b7f4e4f542055522753000000000000000000000000000000000000000000000000600082015250565b6000613dbc600883613297565b9150613dc782613d86565b602082019050919050565b60006020820190508181036000830152613deb81613daf565b9050919050565b600081519050613e01816131f6565b92915050565b600060208284031215613e1d57613e1c613127565b5b6000613e2b84828501613df2565b91505092915050565b7f4c4f204943450000000000000000000000000000000000000000000000000000600082015250565b6000613e6a600683613297565b9150613e7582613e34565b602082019050919050565b60006020820190508181036000830152613e9981613e5d565b9050919050565b6000604082019050613eb56000830185613262565b613ec2602083018461339d565b9392505050565b6000613ed4826131ec565b9150613edf836131ec565b925082613eef57613eee613b10565b5b828206905092915050565b6000613f05826131ec565b9150613f10836131ec565b9250828201905080821115613f2857613f27613a9f565b5b92915050565b60008190508160005260206000209050919050565b60006020601f8301049050919050565b600082821b905092915050565b600060088302613f907fffffffffffffffffffffffffffffffffffffffffffffffffffffffffffffffff82613f53565b613f9a8683613f53565b95508019841693508086168417925050509392505050565b6000613fcd613fc8613fc3846131ec565b6136cf565b6131ec565b9050919050565b6000819050919050565b613fe783613fb2565b613ffb613ff382613fd4565b848454613f60565b825550505050565b600090565b614010614003565b61401b818484613fde565b505050565b5b8181101561403f57614034600082614008565b600181019050614021565b5050565b601f8211156140845761405581613f2e565b61405e84613f43565b8101602085101561406d578190505b61408161407985613f43565b830182614020565b50505b505050565b600082821c905092915050565b60006140a760001984600802614089565b1980831691505092915050565b60006140c08383614096565b9150826002028217905092915050565b6140d98261328c565b67ffffffffffffffff8111156140f2576140f1613490565b5b6140fc8254613b9f565b614107828285614043565b600060209050601f83116001811461413a5760008415614128578287015190505b61413285826140b4565b86555061419a565b601f19841661414886613f2e565b60005b828110156141705784890151825560018201915060208501945060208101905061414b565b8683101561418d5784890151614189601f891682614096565b8355505b6001600288020188555050505b505050505050565b7f4e4f5420434f4e54524143542021000000000000000000000000000000000000600082015250565b60006141d8600e83613297565b91506141e3826141a2565b602082019050919050565b60006020820190508181036000830152614207816141cb565b9050919050565b6000614219826131ec565b9150614224836131ec565b925082820390508181111561423c5761423b613a9f565b5b92915050565b7f534f4c4400000000000000000000000000000000000000000000000000000000600082015250565b6000614278600483613297565b915061428382614242565b602082019050919050565b600060208201905081810360008301526142a78161426b565b9050919050565b7f534f4f4e00000000000000000000000000000000000000000000000000000000600082015250565b60006142e4600483613297565b91506142ef826142ae565b602082019050919050565b60006020820190508181036000830152614313816142d7565b9050919050565b60008151905061432981613893565b92915050565b60006020828403121561434557614344613127565b5b60006143538482850161431a565b91505092915050565b7f4e4f54204c49535a440000000000000000000000000000000000000000000000600082015250565b6000614392600983613297565b915061439d8261435c565b602082019050919050565b600060208201905081810360008301526143c181614385565b9050919050565b7f414c4c20474f4e00000000000000000000000000000000000000000000000000600082015250565b60006143fe600783613297565b9150614409826143c8565b602082019050919050565b6000602082019050818103600083015261442d816143f1565b9050919050565b600061443f826131ec565b91507fffffffffffffffffffffffffffffffffffffffffffffffffffffffffffffffff820361447157614470613a9f565b5b600182019050919050565b7f4552433732313a20696e76616c696420746f6b656e2049440000000000000000600082015250565b60006144b2601883613297565b91506144bd8261447c565b602082019050919050565b600060208201905081810360008301526144e1816144a5565b9050919050565b7f4552433732313a2061646472657373207a65726f206973206e6f74206120766160008201527f6c6964206f776e65720000000000000000000000000000000000000000000000602082015250565b6000614544602983613297565b915061454f826144e8565b604082019050919050565b6000602082019050818103600083015261457381614537565b9050919050565b600061458582613749565b915061459083613749565b92508282039050818112600084121682821360008512151617156145b7576145b6613a9f565b5b92915050565b60006145c882613749565b91506145d383613749565b9250826145e3576145e2613b10565b5b828207905092915050565b60006145f982613749565b915061460483613749565b92508261461457614613613b10565b5b600160000383147f80000000000000000000000000000000000000000000000000000000000000008314161561464d5761464c613a9f565b5b828205905092915050565b7f43415348204c4f00000000000000000000000000000000000000000000000000600082015250565b600061468e600783613297565b915061469982614658565b602082019050919050565b600060208201905081810360008301526146bd81614681565b9050919050565b600081905092915050565b60006146da8261328c565b6146e481856146c4565b93506146f48185602086016132a8565b80840191505092915050565b600061470c82856146cf565b915061471882846146cf565b91508190509392505050565b7f4e4f542046524f4f54204f574e41000000000000000000000000000000000000600082015250565b600061475a600e83613297565b915061476582614724565b602082019050919050565b600060208201905081810360008301526147898161474d565b9050919050565b7f414c52454459204f574e41000000000000000000000000000000000000000000600082015250565b60006147c6600b83613297565b91506147d182614790565b602082019050919050565b600060208201905081810360008301526147f5816147b9565b9050919050565b7f4e4f5420544f205a45524f000000000000000000000000000000000000000000600082015250565b6000614832600b83613297565b915061483d826147fc565b602082019050919050565b6000602082019050818103600083015261486181614825565b9050919050565b7f584344494420574f4c4c4954204d415800000000000000000000000000000000600082015250565b600061489e601083613297565b91506148a982614868565b602082019050919050565b600060208201905081810360008301526148cd81614891565b9050919050565b7f474f4e0000000000000000000000000000000000000000000000000000000000600082015250565b600061490a600383613297565b9150614915826148d4565b602082019050919050565b60006020820190508181036000830152614939816148fd565b9050919050565b60008190508160005260206000209050919050565b601f8211156149965761496781614940565b61497084613f43565b8101602085101561497f578190505b61499361498b85613f43565b830182614020565b50505b505050565b6149a48261381c565b67ffffffffffffffff8111156149bd576149bc613490565b5b6149c78254613b9f565b6149d2828285614955565b600060209050601f831160018114614a0557600084156149f3578287015190505b6149fd85826140b4565b865550614a65565b601f198416614a1386614940565b60005b82811015614a3b57848901518255600182019150602085019450602081019050614a16565b86831015614a585784890151614a54601f891682614096565b8355505b6001600288020188555050505b505050505050565b6000604082019050614a82600083018561339d565b614a8f6020830184613262565b9392505050565b7f4552433732313a20617070726f766520746f2063616c6c657200000000000000600082015250565b6000614acc601983613297565b9150614ad782614a96565b602082019050919050565b60006020820190508181036000830152614afb81614abf565b9050919050565b7f4552433732313a207472616e7366657220746f206e6f6e20455243373231526560008201527f63656976657220696d706c656d656e7465720000000000000000000000000000602082015250565b6000614b5e603283613297565b9150614b6982614b02565b604082019050919050565b60006020820190508181036000830152614b8d81614b51565b9050919050565b7f4552433732313a206d696e7420746f20746865207a65726f2061646472657373600082015250565b6000614bca602083613297565b9150614bd582614b94565b602082019050919050565b60006020820190508181036000830152614bf981614bbd565b9050919050565b7f4552433732313a20746f6b656e20616c7265616479206d696e74656400000000600082015250565b6000614c36601c83613297565b9150614c4182614c00565b602082019050919050565b60006020820190508181036000830152614c6581614c29565b9050919050565b6000608082019050614c81600083018761339d565b614c8e602083018661339d565b614c9b6040830185613262565b8181036060830152614cad8184613838565b905095945050505050565b600081519050614cc78161315d565b92915050565b600060208284031215614ce357614ce2613127565b5b6000614cf184828501614cb8565b9150509291505056fea26469706673582212207fe4f5d438e91a4458d4f69e4a8a8d7a66a912feabbe2f33c57f327b8027b5b364736f6c63430008110033",
  "immutableReferences": {},
  "source": "// SPDX-License-Identifier: MIT\n\npragma solidity ^0.8.10;\n\nimport \"@openzeppelin/contracts/token/ERC20/ERC20.sol\";\nimport \"@openzeppelin/contracts/token/ERC721/ERC721.sol\";\nerror Done(address user);\n\n\nlibrary wallets {\n    address constant artist = 0x79E205680908c03047e3f3A4E63FD192Ff4Cf409; // 30%\n    address constant comm = 0xB4AB6aCfc8DE6BC53Cc696B902e59274d288D3E8; // 30%\n    address constant opsec = 0xB4AB6aCfc8DE6BC53Cc696B902e59274d288D3E8; // 10%\n    address constant promo = 0xB4AB6aCfc8DE6BC53Cc696B902e59274d288D3E8; // 10%\n    address constant vc = 0x79E205680908c03047e3f3A4E63FD192Ff4Cf409; // 10%\n    address constant web3dev = 0x79E205680908c03047e3f3A4E63FD192Ff4Cf409; // 5%\n    address constant audit = 0x79E205680908c03047e3f3A4E63FD192Ff4Cf409; // 5%\n    address constant arbcon = 0x912CE59144191C1204E64559FE8253a0e49E6548; // Testnet\n    address constant arbcont = 0x3F42Dd736C736f931dC23D4358DD92c65687019A; // Testnet\n}\n\ncontract Greenlist {\n    using wallets for *;\n    struct State{\n        uint id;\n        string message;\n        string url;\n        uint likes;\n        uint shares;\n        uint stamp;\n    }\n    address public admin;\n    uint256 constant digits = 10**18;\n    uint256 public l;\n    uint256 public max;\n    string public message;\n    uint public likes;\n    uint public shares;\n    mapping(address => uint) public liked;\n    mapping(uint => State) public states;\n    uint m;\n    string public url = \"https://coolfroots.xyz\";\n    uint256 public stamp;\n    uint256 public msgprice;\n    uint256 public arbprice;\n    ERC20 public arb;\n    COOLFROOT public FCT;\n    mapping(address => bool) public isListed;\n    address[1235] public users;\n    modifier notListed(address _adr) {\n        require(isListed[_adr] == false, \"already listed\");\n        _;\n    }\n    modifier onlyA() {\n        require(msg.sender == admin);\n        _;\n    }\n\n    constructor(uint256 _t) {\n        admin = msg.sender;\n\n        if (_t == 0) {\n            l = 0; // Testnet\n            max = 2; // Testnet\n            msgprice = (30 * digits) / 10000;\n            arbprice = (40 * digits) / 10;\n            arb = ERC20(wallets.arbcont);\n        } else {\n            isListed[msg.sender] = true; // OFF ON TESTNET\n            users[0] = msg.sender;\n            l = 0; // Mainnet\n            max = 1234; // Mainnet\n            msgprice = (30 * digits) / 10000;\n            arbprice = (40 * digits) / 10;\n            arb = ERC20(wallets.arbcon);\n        }\n\n        message = \"GET #FROOTS NOW !\";\n        likes=1;\n    }\n\n    function setFCT(address _fct) external onlyA returns (bool) {\n        FCT = COOLFROOT(_fct);\n        return true;\n    }\n\n    function autoStart() internal returns (bool) {\n        return FCT.changeMS();\n    }\n\n    function getListed() external notListed(msg.sender) returns (bool) {\n        require(l < max, \"TU LAYT\");\n        return _makeListing(msg.sender);\n    }\n\n    function _makeListing(address _adr)\n        internal\n        notListed(_adr)\n        returns (bool)\n    {\n        isListed[_adr] = true;\n        users[l] = (_adr);\n        l++;\n        if (l == max) autoStart();\n        return isListed[_adr];\n    }\n\n    function makeListing(address _adr)\n        external\n        notListed(_adr)\n        onlyA\n        returns (bool)\n    {\n        return _makeListing(_adr);\n    }\n\n    function giveLike() external returns(uint){\n        if(liked[msg.sender] > 0) revert Done(msg.sender);\n        likes++;\n        return liked[msg.sender] = likes;\n    }\n    function showUsers() external view returns (address[1235] memory) {\n        return users;\n    }\n\n    function setMsg(string memory _msg, string memory _url)\n        external\n        payable\n        returns (bool)\n    {\n        require(msg.value >= msgprice, \"LO FUNZ\");\n        require(block.timestamp >= stamp + 60 * 60, \"CHILL\");\n        message = _msg;\n        url = _url;\n        stamp = block.timestamp;\n        return true;\n    }\n\n    function saveState() external {\n        states[m] = State(m,message,url,0,0,block.timestamp);\n        m++;\n    }\n    function getShareData() external {\n\n    }\n    function setArbMsg(string memory _msg, string memory _url)\n        external\n        returns (bool)\n    {\n        require(arb.balanceOf(msg.sender) >= arbprice, \"LO ARB\");\n        require(block.timestamp >= stamp + 60 * 60, \"CHILL\");\n        uint256 one = ((arbprice - (arbprice % 100)) / 100);\n        arb.transferFrom(msg.sender, wallets.artist, one * 30);\n        arb.transferFrom(msg.sender, wallets.comm, one * 30);\n        arb.transferFrom(msg.sender, wallets.opsec, one * 10);\n        arb.transferFrom(msg.sender, wallets.promo, one * 10);\n        arb.transferFrom(msg.sender, wallets.vc, one * 10);\n        arb.transferFrom(msg.sender, wallets.web3dev, one * 5);\n        arb.transferFrom(msg.sender, wallets.audit, one * 5);\n        message = _msg;\n        url = _url;\n        stamp = block.timestamp;\n        return true;\n    }\n\n    function setMsgAdmin(string memory _msg, string memory _url)\n        external\n        onlyA\n        returns (bool)\n    {\n        message = _msg;\n        url = _url;\n        stamp = block.timestamp;\n        return true;\n    }\n\n    function showMsg() external view returns (string memory) {\n        return message;\n    }\n\n    function withdraw() external onlyA returns (uint256) {\n        uint256 one = ((address(this).balance - (address(this).balance % 100)) /\n            100);\n        payable(wallets.artist).transfer(one * 30);\n        payable(wallets.comm).transfer(one * 30);\n        payable(wallets.opsec).transfer(one * 10);\n        payable(wallets.promo).transfer(one * 10);\n        payable(wallets.vc).transfer(one * 10);\n        payable(wallets.web3dev).transfer(one * 5);\n        payable(wallets.audit).transfer(one * 5);\n        return address(this).balance;\n    }\n}\n\ncontract ICE is ERC20 {\n    using wallets for *;\n    uint256 public constant digits = 10**18;\n    uint256 public price; // Testnet :: 10000 // Mainnet :: 10\n    address public froots;\n    address admin;\n    modifier onlyA() {\n        require(msg.sender == admin);\n        _;\n    }\n\n    constructor(uint256 _t) ERC20(\"Incredibly Cool Essence\", \"ICE\") {\n        admin = msg.sender;\n        if (_t == 0) {\n            price = (8 * digits) / 10000000;\n        } else {\n            if (_t == 1) {\n                price = (1 * digits) / 1000;\n            }\n            if (_t == 2) {\n                price = (1 * digits) / 1000;\n            }\n        }\n    }\n\n    function setPrices(uint256 _ice) external onlyA {\n        price = (_ice * digits) / 10000;\n    }\n\n    function _domint(uint256 _amnt, address _adr) internal returns (uint256) {\n        _mint(_adr, _amnt);\n        return _amnt;\n    }\n\n    function setFroots(address _adr) external onlyA returns (address) {\n        froots = _adr;\n        return froots;\n    }\n\n    function burn(uint256 _amnt, address _adr) external returns (uint256) {\n        _burn(_adr, _amnt);\n        return _amnt;\n    }\n\n    function swap(uint256 _amnt, address _adr)\n        external\n        payable\n        returns (uint256)\n    {\n        require(_amnt >= 10, \"MO ICE\");\n        require(msg.value >= price * _amnt, \"LO FUNZ\");\n        return _domint(_amnt * digits, _adr);\n    }\n\n    function move() external {\n        _domint(1000000 * digits, address(froots));\n    }\n\n    function withdraw() external onlyA returns (uint256) {\n        uint256 one = ((address(this).balance - (address(this).balance % 100)) /\n            100);\n        payable(wallets.artist).transfer(one * 30);\n        payable(wallets.comm).transfer(one * 30);\n        payable(wallets.opsec).transfer(one * 10);\n        payable(wallets.promo).transfer(one * 10);\n        payable(wallets.vc).transfer(one * 10);\n        payable(wallets.web3dev).transfer(one * 5);\n        payable(wallets.audit).transfer(one * 5);\n        return address(this).balance;\n    }\n}\n\ncontract COOLFROOT is ERC721 {\n    using wallets for *;\n    // Public Constants\n    uint256 public price; // PRICE VAL Testnet\n    uint256 public statusprice;\n    uint256 public digits = 1 * 10**18; // PRICE VAL Mainnet\n    uint256 public constant num = 1; // MAX MINTS / WALLET\n\n    uint256 public max; // MAX TOTAL MINTS\n    uint256 public sloz; // MAX FREE MINTS\n    // */\n    // Public Variables\n    address public owner; // CONTRACT OWNER\n    address iceAdr;\n    uint256 public minted; // TOKENS MINTED 1-5000\n    uint256 public slots; // SLOZ USED 1-1234\n    bool public start; // ALLOWS MINT TO START\n    // Public Mappings\n    mapping(uint256 => bytes) public dias; // TOKEN ID SHOWS DIAS BYTES OBJECT\n    mapping(uint256 => uint256) public tid; // TOKEN ID SHOWS DIAS ID\n    mapping(uint256 => string) public status; // TOKEN ID SHOWS USER STATUS\n    mapping(uint256 => uint256) public icebox; // TOKEN ID SHOWS FROOT ICE BALANCE\n    mapping(uint256 => uint256) public meltbox; // melted ICE of token id\n    mapping(uint256 => address) public ownedBy;\n    mapping(address => uint256) public minter; // Token ID by Address\n    ICE public ice;\n    Greenlist public GLC;\n\n    modifier onlyO() {\n        // ONLY OWNER CAN USE MOD FUNX\n        require(msg.sender == owner);\n        _;\n    }\n\n    constructor(\n        address _ICE,\n        address _Greenlist,\n        uint256 _t\n    ) ERC721(\"Cool Froots\", \"FR00TS\") {\n        // INIT CONTRACT SET PUB VARS\n        minted = 1;\n        slots = 0;\n        owner = msg.sender;\n        ice = ICE(_ICE);\n        GLC = Greenlist(_Greenlist);\n        if (_t == 0) {\n            max = 10;\n            sloz = GLC.max();\n            price = (5 * digits) / 100000; // 0.00005 MATIC\n            statusprice = digits / 1000000; // 0.000001 MATIC\n\n        } else {\n            max = 5555;\n            sloz = 1234;\n            price = 88 * digits; // MATIC\n            statusprice = 1 * digits; // MATIC\n\n        }\n    }\n\n    function _earn(address _adr, uint256 _o) internal returns (uint256) {\n        ice.transfer(_adr, _o * digits);\n        return _o;\n    }\n\n    function mint(\n        uint256 _amnt,\n        uint256 _diasID,\n        string memory _diasOBJ,string memory _diasName\n    ) external payable returns (uint256) {\n        // INITIATES THE MINT OF UP TO 7 TOKENS IF ALLOWED\n        require(minted <= max + 1, \"SOLD\");\n        require(msg.value >= _amnt * price, \"CASH LO\");\n        require(start == true, \"SOON\");\n        ownedBy[minted] = msg.sender;\n        mintOne(msg.sender, _diasID, _diasOBJ,_diasName);\n        uint256 o = 1 + (block.timestamp % 9);\n        return _earn(msg.sender, o);\n    }\n\n    function setPrices(uint256 _price, uint256 _sts) external onlyO {\n        price = (_price * digits) / 100; // 0.05ETH\n        statusprice = (_sts * digits) / 1000; // 0.001ETH\n    }\n\n    function greenMint(uint256 _diasID, string memory _diasOBJ,string memory _diasName)\n        external\n        returns (uint256)\n    {\n        // INITIATES THE MINT OF UP TO 7 TOKENS IF ALLOWED\n        require(minted <= max, \"SOLD\");\n        require(start == true, \"SOON\");\n        bool boo = GLC.isListed(msg.sender);\n        require(boo == true, \"NOT LISZD\");\n        require(slots <= sloz, \"ALL GON\");\n        ownedBy[minted] = msg.sender;\n        mintOne(msg.sender, _diasID, _diasOBJ,_diasName);\n        uint256 o = 1 + (block.timestamp % 9);\n        slots++;\n        return _earn(msg.sender, o);\n    }\n\n    function setStatus(uint256 _id, string memory _status)\n        external\n        payable\n        returns (bool)\n    {\n        require(ownedBy[_id] == msg.sender, \"NOT UR'S\");\n        // require(start == false, \"MINT IS STILL IN PROGRESS\");\n        require(msg.value >= statusprice);\n        status[_id] = _status;\n        return true;\n    }\n\n    function iceSetStatus(uint256 _id, string memory _status)\n        external\n        returns (string memory)\n    {\n        require(ownedBy[_id] == msg.sender, \"NOT UR'S\");\n        // require(start == false, \"MINT IS STILL IN PROGRESS\");\n        require(ice.balanceOf(msg.sender) >= digits, \"LO ICE\");\n        ice.burn(digits, msg.sender);\n        if (block.timestamp % 9 < 3) {\n            icebox[_id] += 1;\n            if (meltbox[_id] == 0)\n                meltbox[_id] = block.timestamp + 1 * 60 * 60 * 24;\n            else meltbox[_id] += 1 * 60 * 60 * 24;\n        }\n        status[_id] = _status;\n        return \"FRESH\";\n    }\n\n    function addIce(uint256 _amount, uint256 _id)\n        external\n        returns (string memory)\n    {\n        require(ice.balanceOf(msg.sender) >= _amount * digits);\n        ice.burn(_amount * digits, msg.sender);\n        icebox[_id] += _amount;\n        meltbox[_id] += _amount * 60 * 60 * 24;\n        return \"COOL\";\n    }\n\n    function meltState() external view returns (int256 state) {\n        int256 meltleft = int256(meltbox[minter[msg.sender]]) -\n            int256(block.timestamp);\n        return state = ((meltleft - (meltleft % 3600)) / 3600);\n    }\n\n    function changeMS() external returns (bool) {\n        require(msg.sender == address(GLC), \"NOT CONTRACT !\");\n        return cMS();\n    }\n\n    function cMS() internal returns (bool) {\n        return start = !start;\n    }\n\n    function mintOne(\n        address _adr,\n        uint256 _diasID,\n        string memory _diasOBJ,\n        string memory _name\n    ) internal returns (uint256) {\n        // INTERNAL // MINTS ONE TOKEN\n        require(balanceOf(_adr) + 1 <= num, \"XCDID WOLLIT MAX\");\n        require(minted <= max, \"GON\");\n        _mint(_adr, minted);\n        status[minted] = _name;\n        tid[minted] = _diasID;\n        dias[minted] = bytes(_diasOBJ);\n        meltbox[minted] = block.timestamp + (7 * 60 * 60 * 24);\n        minter[_adr] = minted;\n        minted++;\n        if (minted >= max + 1) cMS();\n        return minted;\n    }\n\n    function showDIAS(uint _tID) external view returns(string memory) {\n        return string(dias[_tID]);\n    }\n\n    function _transfer(address from, address to, uint256 tokenId) internal virtual override {\n        require(ERC721.ownerOf(tokenId) == from, \"NOT FROOT OWNA\");\n        require(ERC721.balanceOf(to) == 0, \"ALREDY OWNA\");\n        require(to != address(0), \"NOT TO ZERO\");\n    }\n\n    function withdraw() external onlyO returns (uint256) {\n        uint256 one = ((address(this).balance - (address(this).balance % 100)) /\n            100);\n        payable(wallets.artist).transfer(one * 45);\n        payable(wallets.comm).transfer(one * 30);\n        payable(wallets.opsec).transfer(one * 10);\n        payable(wallets.promo).transfer(one * 10);\n        payable(wallets.audit).transfer(one * 5);\n        return address(this).balance;\n    }\n}\n\n\n",
  "sourcePath": "/Users/iii6/Documents/GitHub/niftish/contracts/FrootyCoolTingz.sol",
  "compiler": {
    "name": "solc",
    "version": "0.8.17+commit.8df45f5f.Emscripten.clang"
  },
  "schemaVersion": "3.4.8",
  "updatedAt": "2023-06-29T01:19:28.480Z",
  "networkType": "ethereum",
  "devdoc": {
    "kind": "dev",
    "methods": {
      "approve(address,uint256)": {
        "details": "See {IERC721-approve}."
      },
      "balanceOf(address)": {
        "details": "See {IERC721-balanceOf}."
      },
      "getApproved(uint256)": {
        "details": "See {IERC721-getApproved}."
      },
      "isApprovedForAll(address,address)": {
        "details": "See {IERC721-isApprovedForAll}."
      },
      "name()": {
        "details": "See {IERC721Metadata-name}."
      },
      "ownerOf(uint256)": {
        "details": "See {IERC721-ownerOf}."
      },
      "safeTransferFrom(address,address,uint256)": {
        "details": "See {IERC721-safeTransferFrom}."
      },
      "safeTransferFrom(address,address,uint256,bytes)": {
        "details": "See {IERC721-safeTransferFrom}."
      },
      "setApprovalForAll(address,bool)": {
        "details": "See {IERC721-setApprovalForAll}."
      },
      "supportsInterface(bytes4)": {
        "details": "See {IERC165-supportsInterface}."
      },
      "symbol()": {
        "details": "See {IERC721Metadata-symbol}."
      },
      "tokenURI(uint256)": {
        "details": "See {IERC721Metadata-tokenURI}."
      },
      "transferFrom(address,address,uint256)": {
        "details": "See {IERC721-transferFrom}."
      }
    },
    "version": 1
  },
  "userdoc": {
    "kind": "user",
    "methods": {},
    "version": 1
  }
}