{
  "contractName": "COOLFROOT",
  "abi": [
    {
      "inputs": [
        {
          "internalType": "address",
          "name": "_ICE",
          "type": "address"
        },
        {
          "internalType": "address",
          "name": "_Greenlist",
          "type": "address"
        },
        {
          "internalType": "uint256",
          "name": "_t",
          "type": "uint256"
        }
      ],
      "stateMutability": "nonpayable",
      "type": "constructor"
    },
    {
      "anonymous": false,
      "inputs": [
        {
          "indexed": true,
          "internalType": "address",
          "name": "owner",
          "type": "address"
        },
        {
          "indexed": true,
          "internalType": "address",
          "name": "approved",
          "type": "address"
        },
        {
          "indexed": true,
          "internalType": "uint256",
          "name": "tokenId",
          "type": "uint256"
        }
      ],
      "name": "Approval",
      "type": "event"
    },
    {
      "anonymous": false,
      "inputs": [
        {
          "indexed": true,
          "internalType": "address",
          "name": "owner",
          "type": "address"
        },
        {
          "indexed": true,
          "internalType": "address",
          "name": "operator",
          "type": "address"
        },
        {
          "indexed": false,
          "internalType": "bool",
          "name": "approved",
          "type": "bool"
        }
      ],
      "name": "ApprovalForAll",
      "type": "event"
    },
    {
      "anonymous": false,
      "inputs": [
        {
          "indexed": true,
          "internalType": "address",
          "name": "from",
          "type": "address"
        },
        {
          "indexed": true,
          "internalType": "address",
          "name": "to",
          "type": "address"
        },
        {
          "indexed": true,
          "internalType": "uint256",
          "name": "tokenId",
          "type": "uint256"
        }
      ],
      "name": "Transfer",
      "type": "event"
    },
    {
      "inputs": [],
      "name": "GLC",
      "outputs": [
        {
          "internalType": "contract Greenlist",
          "name": "",
          "type": "address"
        }
      ],
      "stateMutability": "view",
      "type": "function"
    },
    {
      "inputs": [
        {
          "internalType": "address",
          "name": "to",
          "type": "address"
        },
        {
          "internalType": "uint256",
          "name": "tokenId",
          "type": "uint256"
        }
      ],
      "name": "approve",
      "outputs": [],
      "stateMutability": "nonpayable",
      "type": "function"
    },
    {
      "inputs": [],
      "name": "arb",
      "outputs": [
        {
          "internalType": "contract ERC20",
          "name": "",
          "type": "address"
        }
      ],
      "stateMutability": "view",
      "type": "function"
    },
    {
      "inputs": [],
      "name": "arbprice",
      "outputs": [
        {
          "internalType": "uint256",
          "name": "",
          "type": "uint256"
        }
      ],
      "stateMutability": "view",
      "type": "function"
    },
    {
      "inputs": [],
      "name": "arbstatusprice",
      "outputs": [
        {
          "internalType": "uint256",
          "name": "",
          "type": "uint256"
        }
      ],
      "stateMutability": "view",
      "type": "function"
    },
    {
      "inputs": [
        {
          "internalType": "address",
          "name": "owner",
          "type": "address"
        }
      ],
      "name": "balanceOf",
      "outputs": [
        {
          "internalType": "uint256",
          "name": "",
          "type": "uint256"
        }
      ],
      "stateMutability": "view",
      "type": "function"
    },
    {
      "inputs": [
        {
          "internalType": "uint256",
          "name": "",
          "type": "uint256"
        }
      ],
      "name": "dias",
      "outputs": [
        {
          "internalType": "bytes",
          "name": "",
          "type": "bytes"
        }
      ],
      "stateMutability": "view",
      "type": "function"
    },
    {
      "inputs": [],
      "name": "digits",
      "outputs": [
        {
          "internalType": "uint256",
          "name": "",
          "type": "uint256"
        }
      ],
      "stateMutability": "view",
      "type": "function"
    },
    {
      "inputs": [
        {
          "internalType": "uint256",
          "name": "tokenId",
          "type": "uint256"
        }
      ],
      "name": "getApproved",
      "outputs": [
        {
          "internalType": "address",
          "name": "",
          "type": "address"
        }
      ],
      "stateMutability": "view",
      "type": "function"
    },
    {
      "inputs": [],
      "name": "ice",
      "outputs": [
        {
          "internalType": "contract ICE",
          "name": "",
          "type": "address"
        }
      ],
      "stateMutability": "view",
      "type": "function"
    },
    {
      "inputs": [
        {
          "internalType": "uint256",
          "name": "",
          "type": "uint256"
        }
      ],
      "name": "icebox",
      "outputs": [
        {
          "internalType": "uint256",
          "name": "",
          "type": "uint256"
        }
      ],
      "stateMutability": "view",
      "type": "function"
    },
    {
      "inputs": [
        {
          "internalType": "address",
          "name": "owner",
          "type": "address"
        },
        {
          "internalType": "address",
          "name": "operator",
          "type": "address"
        }
      ],
      "name": "isApprovedForAll",
      "outputs": [
        {
          "internalType": "bool",
          "name": "",
          "type": "bool"
        }
      ],
      "stateMutability": "view",
      "type": "function"
    },
    {
      "inputs": [],
      "name": "max",
      "outputs": [
        {
          "internalType": "uint256",
          "name": "",
          "type": "uint256"
        }
      ],
      "stateMutability": "view",
      "type": "function"
    },
    {
      "inputs": [
        {
          "internalType": "uint256",
          "name": "",
          "type": "uint256"
        }
      ],
      "name": "meltbox",
      "outputs": [
        {
          "internalType": "uint256",
          "name": "",
          "type": "uint256"
        }
      ],
      "stateMutability": "view",
      "type": "function"
    },
    {
      "inputs": [],
      "name": "minted",
      "outputs": [
        {
          "internalType": "uint256",
          "name": "",
          "type": "uint256"
        }
      ],
      "stateMutability": "view",
      "type": "function"
    },
    {
      "inputs": [
        {
          "internalType": "address",
          "name": "",
          "type": "address"
        }
      ],
      "name": "minter",
      "outputs": [
        {
          "internalType": "uint256",
          "name": "",
          "type": "uint256"
        }
      ],
      "stateMutability": "view",
      "type": "function"
    },
    {
      "inputs": [],
      "name": "name",
      "outputs": [
        {
          "internalType": "string",
          "name": "",
          "type": "string"
        }
      ],
      "stateMutability": "view",
      "type": "function"
    },
    {
      "inputs": [],
      "name": "num",
      "outputs": [
        {
          "internalType": "uint256",
          "name": "",
          "type": "uint256"
        }
      ],
      "stateMutability": "view",
      "type": "function"
    },
    {
      "inputs": [
        {
          "internalType": "uint256",
          "name": "",
          "type": "uint256"
        }
      ],
      "name": "ownedBy",
      "outputs": [
        {
          "internalType": "address",
          "name": "",
          "type": "address"
        }
      ],
      "stateMutability": "view",
      "type": "function"
    },
    {
      "inputs": [],
      "name": "owner",
      "outputs": [
        {
          "internalType": "address",
          "name": "",
          "type": "address"
        }
      ],
      "stateMutability": "view",
      "type": "function"
    },
    {
      "inputs": [
        {
          "internalType": "uint256",
          "name": "tokenId",
          "type": "uint256"
        }
      ],
      "name": "ownerOf",
      "outputs": [
        {
          "internalType": "address",
          "name": "",
          "type": "address"
        }
      ],
      "stateMutability": "view",
      "type": "function"
    },
    {
      "inputs": [],
      "name": "price",
      "outputs": [
        {
          "internalType": "uint256",
          "name": "",
          "type": "uint256"
        }
      ],
      "stateMutability": "view",
      "type": "function"
    },
    {
      "inputs": [
        {
          "internalType": "address",
          "name": "from",
          "type": "address"
        },
        {
          "internalType": "address",
          "name": "to",
          "type": "address"
        },
        {
          "internalType": "uint256",
          "name": "tokenId",
          "type": "uint256"
        }
      ],
      "name": "safeTransferFrom",
      "outputs": [],
      "stateMutability": "nonpayable",
      "type": "function"
    },
    {
      "inputs": [
        {
          "internalType": "address",
          "name": "from",
          "type": "address"
        },
        {
          "internalType": "address",
          "name": "to",
          "type": "address"
        },
        {
          "internalType": "uint256",
          "name": "tokenId",
          "type": "uint256"
        },
        {
          "internalType": "bytes",
          "name": "data",
          "type": "bytes"
        }
      ],
      "name": "safeTransferFrom",
      "outputs": [],
      "stateMutability": "nonpayable",
      "type": "function"
    },
    {
      "inputs": [
        {
          "internalType": "address",
          "name": "operator",
          "type": "address"
        },
        {
          "internalType": "bool",
          "name": "approved",
          "type": "bool"
        }
      ],
      "name": "setApprovalForAll",
      "outputs": [],
      "stateMutability": "nonpayable",
      "type": "function"
    },
    {
      "inputs": [],
      "name": "slots",
      "outputs": [
        {
          "internalType": "uint256",
          "name": "",
          "type": "uint256"
        }
      ],
      "stateMutability": "view",
      "type": "function"
    },
    {
      "inputs": [],
      "name": "sloz",
      "outputs": [
        {
          "internalType": "uint256",
          "name": "",
          "type": "uint256"
        }
      ],
      "stateMutability": "view",
      "type": "function"
    },
    {
      "inputs": [],
      "name": "start",
      "outputs": [
        {
          "internalType": "bool",
          "name": "",
          "type": "bool"
        }
      ],
      "stateMutability": "view",
      "type": "function"
    },
    {
      "inputs": [
        {
          "internalType": "uint256",
          "name": "",
          "type": "uint256"
        }
      ],
      "name": "status",
      "outputs": [
        {
          "internalType": "string",
          "name": "",
          "type": "string"
        }
      ],
      "stateMutability": "view",
      "type": "function"
    },
    {
      "inputs": [],
      "name": "statusprice",
      "outputs": [
        {
          "internalType": "uint256",
          "name": "",
          "type": "uint256"
        }
      ],
      "stateMutability": "view",
      "type": "function"
    },
    {
      "inputs": [
        {
          "internalType": "bytes4",
          "name": "interfaceId",
          "type": "bytes4"
        }
      ],
      "name": "supportsInterface",
      "outputs": [
        {
          "internalType": "bool",
          "name": "",
          "type": "bool"
        }
      ],
      "stateMutability": "view",
      "type": "function"
    },
    {
      "inputs": [],
      "name": "symbol",
      "outputs": [
        {
          "internalType": "string",
          "name": "",
          "type": "string"
        }
      ],
      "stateMutability": "view",
      "type": "function"
    },
    {
      "inputs": [
        {
          "internalType": "uint256",
          "name": "",
          "type": "uint256"
        }
      ],
      "name": "tid",
      "outputs": [
        {
          "internalType": "uint256",
          "name": "",
          "type": "uint256"
        }
      ],
      "stateMutability": "view",
      "type": "function"
    },
    {
      "inputs": [
        {
          "internalType": "uint256",
          "name": "tokenId",
          "type": "uint256"
        }
      ],
      "name": "tokenURI",
      "outputs": [
        {
          "internalType": "string",
          "name": "",
          "type": "string"
        }
      ],
      "stateMutability": "view",
      "type": "function"
    },
    {
      "inputs": [
        {
          "internalType": "address",
          "name": "from",
          "type": "address"
        },
        {
          "internalType": "address",
          "name": "to",
          "type": "address"
        },
        {
          "internalType": "uint256",
          "name": "tokenId",
          "type": "uint256"
        }
      ],
      "name": "transferFrom",
      "outputs": [],
      "stateMutability": "nonpayable",
      "type": "function"
    },
    {
      "inputs": [
        {
          "internalType": "uint256",
          "name": "_amnt",
          "type": "uint256"
        },
        {
          "internalType": "uint256",
          "name": "_diasID",
          "type": "uint256"
        },
        {
          "internalType": "string",
          "name": "_diasOBJ",
          "type": "string"
        },
        {
          "internalType": "string",
          "name": "_diasName",
          "type": "string"
        }
      ],
      "name": "mint",
      "outputs": [
        {
          "internalType": "uint256",
          "name": "",
          "type": "uint256"
        }
      ],
      "stateMutability": "payable",
      "type": "function"
    },
    {
      "inputs": [
        {
          "internalType": "uint256",
          "name": "_price",
          "type": "uint256"
        },
        {
          "internalType": "uint256",
          "name": "_arb",
          "type": "uint256"
        },
        {
          "internalType": "uint256",
          "name": "_sts",
          "type": "uint256"
        },
        {
          "internalType": "uint256",
          "name": "_asts",
          "type": "uint256"
        }
      ],
      "name": "setPrices",
      "outputs": [],
      "stateMutability": "nonpayable",
      "type": "function"
    },
    {
      "inputs": [
        {
          "internalType": "uint256",
          "name": "_amnt",
          "type": "uint256"
        },
        {
          "internalType": "uint256",
          "name": "_diasID",
          "type": "uint256"
        },
        {
          "internalType": "string",
          "name": "_diasOBJ",
          "type": "string"
        },
        {
          "internalType": "string",
          "name": "_diasName",
          "type": "string"
        }
      ],
      "name": "arbmint",
      "outputs": [
        {
          "internalType": "uint256",
          "name": "",
          "type": "uint256"
        }
      ],
      "stateMutability": "payable",
      "type": "function"
    },
    {
      "inputs": [
        {
          "internalType": "uint256",
          "name": "_diasID",
          "type": "uint256"
        },
        {
          "internalType": "string",
          "name": "_diasOBJ",
          "type": "string"
        },
        {
          "internalType": "string",
          "name": "_diasName",
          "type": "string"
        }
      ],
      "name": "greenMint",
      "outputs": [
        {
          "internalType": "uint256",
          "name": "",
          "type": "uint256"
        }
      ],
      "stateMutability": "nonpayable",
      "type": "function"
    },
    {
      "inputs": [
        {
          "internalType": "uint256",
          "name": "_id",
          "type": "uint256"
        },
        {
          "internalType": "string",
          "name": "_status",
          "type": "string"
        }
      ],
      "name": "setStatus",
      "outputs": [
        {
          "internalType": "bool",
          "name": "",
          "type": "bool"
        }
      ],
      "stateMutability": "payable",
      "type": "function"
    },
    {
      "inputs": [
        {
          "internalType": "uint256",
          "name": "_id",
          "type": "uint256"
        },
        {
          "internalType": "string",
          "name": "_status",
          "type": "string"
        }
      ],
      "name": "iceSetStatus",
      "outputs": [
        {
          "internalType": "string",
          "name": "",
          "type": "string"
        }
      ],
      "stateMutability": "nonpayable",
      "type": "function"
    },
    {
      "inputs": [
        {
          "internalType": "uint256",
          "name": "_id",
          "type": "uint256"
        },
        {
          "internalType": "string",
          "name": "_status",
          "type": "string"
        }
      ],
      "name": "arbSetStatus",
      "outputs": [
        {
          "internalType": "string",
          "name": "",
          "type": "string"
        }
      ],
      "stateMutability": "nonpayable",
      "type": "function"
    },
    {
      "inputs": [
        {
          "internalType": "uint256",
          "name": "_amount",
          "type": "uint256"
        },
        {
          "internalType": "uint256",
          "name": "_id",
          "type": "uint256"
        }
      ],
      "name": "addIce",
      "outputs": [
        {
          "internalType": "string",
          "name": "",
          "type": "string"
        }
      ],
      "stateMutability": "nonpayable",
      "type": "function"
    },
    {
      "inputs": [],
      "name": "meltState",
      "outputs": [
        {
          "internalType": "int256",
          "name": "state",
          "type": "int256"
        }
      ],
      "stateMutability": "view",
      "type": "function"
    },
    {
      "inputs": [],
      "name": "changeMS",
      "outputs": [
        {
          "internalType": "bool",
          "name": "",
          "type": "bool"
        }
      ],
      "stateMutability": "nonpayable",
      "type": "function"
    },
    {
      "inputs": [
        {
          "internalType": "uint256",
          "name": "_tID",
          "type": "uint256"
        }
      ],
      "name": "showDIAS",
      "outputs": [
        {
          "internalType": "string",
          "name": "",
          "type": "string"
        }
      ],
      "stateMutability": "view",
      "type": "function"
    },
    {
      "inputs": [],
      "name": "withdraw",
      "outputs": [
        {
          "internalType": "uint256",
          "name": "",
          "type": "uint256"
        }
      ],
      "stateMutability": "nonpayable",
      "type": "function"
    }
  ],
  "bytecode": "0x6080604052670de0b6b3a7640000600a553480156200001d57600080fd5b5060405162006600380380620066008339818101604052810190620000439190620004c8565b6040518060400160405280600b81526020017f436f6f6c2046726f6f74730000000000000000000000000000000000000000008152506040518060400160405280600681526020017f46523030545300000000000000000000000000000000000000000000000000008152508160009081620000c0919062000794565b508060019081620000d2919062000794565b5050506001600f81905550600060108190555033600d60006101000a81548173ffffffffffffffffffffffffffffffffffffffff021916908373ffffffffffffffffffffffffffffffffffffffff16021790555082601960006101000a81548173ffffffffffffffffffffffffffffffffffffffff021916908373ffffffffffffffffffffffffffffffffffffffff16021790555081601a60006101000a81548173ffffffffffffffffffffffffffffffffffffffff021916908373ffffffffffffffffffffffffffffffffffffffff160217905550600081036200033a57600a600b81905550601a60009054906101000a900473ffffffffffffffffffffffffffffffffffffffff1673ffffffffffffffffffffffffffffffffffffffff16636ac5db196040518163ffffffff1660e01b8152600401602060405180830381865afa15801562000227573d6000803e3d6000fd5b505050506040513d601f19601f820116820180604052508101906200024d91906200087b565b600c81905550620186a0600a546004620002689190620008dc565b62000274919062000956565b600681905550620f4240600a546200028d919062000956565b6007819055506103e8600a546007620002a79190620008dc565b620002b3919062000956565b600881905550612710600a546002620002cd9190620008dc565b620002d9919062000956565b600981905550733f42dd736c736f931dc23d4358dd92c65687019a601b60006101000a81548173ffffffffffffffffffffffffffffffffffffffff021916908373ffffffffffffffffffffffffffffffffffffffff1602179055506200041a565b6115b3600b819055506104d2600c819055506064600a5460046200035f9190620008dc565b6200036b919062000956565b6006819055506103e8600a5462000383919062000956565b600781905550600a5460076200039a9190620008dc565b600881905550600a80546002620003b29190620008dc565b620003be919062000956565b60098190555073912ce59144191c1204e64559fe8253a0e49e6548601b60006101000a81548173ffffffffffffffffffffffffffffffffffffffff021916908373ffffffffffffffffffffffffffffffffffffffff1602179055505b5050506200098e565b600080fd5b600073ffffffffffffffffffffffffffffffffffffffff82169050919050565b6000620004558262000428565b9050919050565b620004678162000448565b81146200047357600080fd5b50565b60008151905062000487816200045c565b92915050565b6000819050919050565b620004a2816200048d565b8114620004ae57600080fd5b50565b600081519050620004c28162000497565b92915050565b600080600060608486031215620004e457620004e362000423565b5b6000620004f48682870162000476565b9350506020620005078682870162000476565b92505060406200051a86828701620004b1565b9150509250925092565b600081519050919050565b7f4e487b7100000000000000000000000000000000000000000000000000000000600052604160045260246000fd5b7f4e487b7100000000000000000000000000000000000000000000000000000000600052602260045260246000fd5b60006002820490506001821680620005a657607f821691505b602082108103620005bc57620005bb6200055e565b5b50919050565b60008190508160005260206000209050919050565b60006020601f8301049050919050565b600082821b905092915050565b600060088302620006267fffffffffffffffffffffffffffffffffffffffffffffffffffffffffffffffff82620005e7565b620006328683620005e7565b95508019841693508086168417925050509392505050565b6000819050919050565b6000620006756200066f62000669846200048d565b6200064a565b6200048d565b9050919050565b6000819050919050565b620006918362000654565b620006a9620006a0826200067c565b848454620005f4565b825550505050565b600090565b620006c0620006b1565b620006cd81848462000686565b505050565b5b81811015620006f557620006e9600082620006b6565b600181019050620006d3565b5050565b601f82111562000744576200070e81620005c2565b6200071984620005d7565b8101602085101562000729578190505b620007416200073885620005d7565b830182620006d2565b50505b505050565b600082821c905092915050565b6000620007696000198460080262000749565b1980831691505092915050565b600062000784838362000756565b9150826002028217905092915050565b6200079f8262000524565b67ffffffffffffffff811115620007bb57620007ba6200052f565b5b620007c782546200058d565b620007d4828285620006f9565b600060209050601f8311600181146200080c5760008415620007f7578287015190505b62000803858262000776565b86555062000873565b601f1984166200081c86620005c2565b60005b8281101562000846578489015182556001820191506020850194506020810190506200081f565b8683101562000866578489015162000862601f89168262000756565b8355505b6001600288020188555050505b505050505050565b60006020828403121562000894576200089362000423565b5b6000620008a484828501620004b1565b91505092915050565b7f4e487b7100000000000000000000000000000000000000000000000000000000600052601160045260246000fd5b6000620008e9826200048d565b9150620008f6836200048d565b925082820262000906816200048d565b9150828204841483151762000920576200091f620008ad565b5b5092915050565b7f4e487b7100000000000000000000000000000000000000000000000000000000600052601260045260246000fd5b600062000963826200048d565b915062000970836200048d565b92508262000983576200098262000927565b5b828204905092915050565b615c62806200099e6000396000f3fe6080604052600436106102885760003560e01c806376917df91161015a578063ac0d4084116100c1578063c87b56dd1161007a578063c87b56dd14610a71578063d64b3ae814610aae578063d8e8685414610aeb578063e3c44ff714610b14578063e985e9c514610b3f578063f62d8dfb14610b7c57610288565b8063ac0d40841461093b578063ac8865d614610978578063acb5fedf146109b5578063ae943abc146109e0578063b88d4fde14610a1d578063be9a655514610a4657610288565b80639e20437c116101135780639e20437c14610817578063a035b1fe14610842578063a22cb4651461086d578063a613e0e714610896578063a9700e1f146108d3578063aa1ee940146108fe57610288565b806376917df9146106f957806380142754146107295780638da5cb5b1461075457806395d89b411461077f57806398e48c9f146107aa5780639b4f589f146107da57610288565b806342d21ef7116101fe5780635395acd2116101b75780635395acd2146105ce5780636352211e146105f95780636ac5db19146106365780636f743acd1461066157806370a082311461068c57806371d96d13146106c957610288565b806342d21ef7146104a857806347e3be92146104e557806348547d69146105225780634c2a860d1461054d5780634e70b1dc146105785780634f02c420146105a357610288565b806323b872dd1161025057806323b872dd146103865780632ce56773146103af5780633b8d676f146103ec5780633ccfd60b146104175780633dd08c381461044257806342842e0e1461047f57610288565b806301ffc9a71461028d57806306390d6c146102ca57806306fdde03146102f5578063081812fc14610320578063095ea7b31461035d575b600080fd5b34801561029957600080fd5b506102b460048036038101906102af9190613fe1565b610bb9565b6040516102c19190614029565b60405180910390f35b3480156102d657600080fd5b506102df610c9b565b6040516102ec919061405d565b60405180910390f35b34801561030157600080fd5b5061030a610ca1565b6040516103179190614108565b60405180910390f35b34801561032c57600080fd5b5061034760048036038101906103429190614156565b610d33565b60405161035491906141c4565b60405180910390f35b34801561036957600080fd5b50610384600480360381019061037f919061420b565b610d79565b005b34801561039257600080fd5b506103ad60048036038101906103a8919061424b565b610e90565b005b3480156103bb57600080fd5b506103d660048036038101906103d191906143d3565b610ef0565b6040516103e39190614108565b60405180910390f35b3480156103f857600080fd5b5061040161122a565b60405161040e9190614029565b60405180910390f35b34801561042357600080fd5b5061042c6112c9565b604051610439919061405d565b60405180910390f35b34801561044e57600080fd5b506104696004803603810190610464919061442f565b611556565b604051610476919061405d565b60405180910390f35b34801561048b57600080fd5b506104a660048036038101906104a1919061424b565b61156e565b005b3480156104b457600080fd5b506104cf60048036038101906104ca9190614156565b61158e565b6040516104dc9190614108565b60405180910390f35b3480156104f157600080fd5b5061050c6004803603810190610507919061445c565b61162e565b604051610519919061405d565b60405180910390f35b34801561052e57600080fd5b506105376118a6565b604051610544919061405d565b60405180910390f35b34801561055957600080fd5b506105626118ac565b60405161056f9190614546565b60405180910390f35b34801561058457600080fd5b5061058d6118d2565b60405161059a919061405d565b60405180910390f35b3480156105af57600080fd5b506105b86118d7565b6040516105c5919061405d565b60405180910390f35b3480156105da57600080fd5b506105e36118dd565b6040516105f0919061405d565b60405180910390f35b34801561060557600080fd5b50610620600480360381019061061b9190614156565b6118e3565b60405161062d91906141c4565b60405180910390f35b34801561064257600080fd5b5061064b611969565b604051610658919061405d565b60405180910390f35b34801561066d57600080fd5b5061067661196f565b604051610683919061405d565b60405180910390f35b34801561069857600080fd5b506106b360048036038101906106ae919061442f565b611975565b6040516106c0919061405d565b60405180910390f35b6106e360048036038101906106de9190614561565b611a2c565b6040516106f0919061405d565b60405180910390f35b610713600480360381019061070e91906143d3565b612066565b6040516107209190614029565b60405180910390f35b34801561073557600080fd5b5061073e612143565b60405161074b9190614619565b60405180910390f35b34801561076057600080fd5b506107696121d0565b60405161077691906141c4565b60405180910390f35b34801561078b57600080fd5b506107946121f6565b6040516107a19190614108565b60405180910390f35b6107c460048036038101906107bf9190614561565b612288565b6040516107d1919061405d565b60405180910390f35b3480156107e657600080fd5b5061080160048036038101906107fc9190614156565b612416565b60405161080e9190614689565b60405180910390f35b34801561082357600080fd5b5061082c6124b6565b604051610839919061405d565b60405180910390f35b34801561084e57600080fd5b506108576124bc565b604051610864919061405d565b60405180910390f35b34801561087957600080fd5b50610894600480360381019061088f91906146d7565b6124c2565b005b3480156108a257600080fd5b506108bd60048036038101906108b89190614156565b6124d8565b6040516108ca91906141c4565b60405180910390f35b3480156108df57600080fd5b506108e861250b565b6040516108f59190614738565b60405180910390f35b34801561090a57600080fd5b5061092560048036038101906109209190614156565b612531565b604051610932919061405d565b60405180910390f35b34801561094757600080fd5b50610962600480360381019061095d9190614753565b612549565b60405161096f9190614108565b60405180910390f35b34801561098457600080fd5b5061099f600480360381019061099a9190614156565b612763565b6040516109ac9190614108565b60405180910390f35b3480156109c157600080fd5b506109ca612808565b6040516109d791906147b4565b60405180910390f35b3480156109ec57600080fd5b50610a076004803603810190610a029190614156565b61282e565b604051610a14919061405d565b60405180910390f35b348015610a2957600080fd5b50610a446004803603810190610a3f9190614870565b612846565b005b348015610a5257600080fd5b50610a5b6128a8565b604051610a689190614029565b60405180910390f35b348015610a7d57600080fd5b50610a986004803603810190610a939190614156565b6128bb565b604051610aa59190614108565b60405180910390f35b348015610aba57600080fd5b50610ad56004803603810190610ad09190614156565b612923565b604051610ae2919061405d565b60405180910390f35b348015610af757600080fd5b50610b126004803603810190610b0d91906148f3565b61293b565b005b348015610b2057600080fd5b50610b29612a0f565b604051610b36919061405d565b60405180910390f35b348015610b4b57600080fd5b50610b666004803603810190610b61919061495a565b612a15565b604051610b739190614029565b60405180910390f35b348015610b8857600080fd5b50610ba36004803603810190610b9e91906143d3565b612aa9565b604051610bb09190614108565b60405180910390f35b60007f80ac58cd000000000000000000000000000000000000000000000000000000007bffffffffffffffffffffffffffffffffffffffffffffffffffffffff1916827bffffffffffffffffffffffffffffffffffffffffffffffffffffffff19161480610c8457507f5b5e139f000000000000000000000000000000000000000000000000000000007bffffffffffffffffffffffffffffffffffffffffffffffffffffffff1916827bffffffffffffffffffffffffffffffffffffffffffffffffffffffff1916145b80610c945750610c938261313b565b5b9050919050565b60075481565b606060008054610cb0906149c9565b80601f0160208091040260200160405190810160405280929190818152602001828054610cdc906149c9565b8015610d295780601f10610cfe57610100808354040283529160200191610d29565b820191906000526020600020905b815481529060010190602001808311610d0c57829003601f168201915b5050505050905090565b6000610d3e826131a5565b6004600083815260200190815260200160002060009054906101000a900473ffffffffffffffffffffffffffffffffffffffff169050919050565b6000610d84826118e3565b90508073ffffffffffffffffffffffffffffffffffffffff168373ffffffffffffffffffffffffffffffffffffffff1603610df4576040517f08c379a0000000000000000000000000000000000000000000000000000000008152600401610deb90614a6c565b60405180910390fd5b8073ffffffffffffffffffffffffffffffffffffffff16610e136131f0565b73ffffffffffffffffffffffffffffffffffffffff161480610e425750610e4181610e3c6131f0565b612a15565b5b610e81576040517f08c379a0000000000000000000000000000000000000000000000000000000008152600401610e7890614afe565b60405180910390fd5b610e8b83836131f8565b505050565b610ea1610e9b6131f0565b826132b1565b610ee0576040517f08c379a0000000000000000000000000000000000000000000000000000000008152600401610ed790614b90565b60405180910390fd5b610eeb838383613346565b505050565b60603373ffffffffffffffffffffffffffffffffffffffff166017600085815260200190815260200160002060009054906101000a900473ffffffffffffffffffffffffffffffffffffffff1673ffffffffffffffffffffffffffffffffffffffff1614610f93576040517f08c379a0000000000000000000000000000000000000000000000000000000008152600401610f8a90614bfc565b60405180910390fd5b600a54601960009054906101000a900473ffffffffffffffffffffffffffffffffffffffff1673ffffffffffffffffffffffffffffffffffffffff166370a08231336040518263ffffffff1660e01b8152600401610ff191906141c4565b602060405180830381865afa15801561100e573d6000803e3d6000fd5b505050506040513d601f19601f820116820180604052508101906110329190614c31565b1015611073576040517f08c379a000000000000000000000000000000000000000000000000000000000815260040161106a90614caa565b60405180910390fd5b601960009054906101000a900473ffffffffffffffffffffffffffffffffffffffff1673ffffffffffffffffffffffffffffffffffffffff1663fcd3533c600a54336040518363ffffffff1660e01b81526004016110d2929190614cca565b6020604051808303816000875af11580156110f1573d6000803e3d6000fd5b505050506040513d601f19601f820116820180604052508101906111159190614c31565b5060036009426111259190614d22565b10156111cb57600160156000858152602001908152602001600020600082825461114f9190614d82565b92505081905550600060166000858152602001908152602001600020540361119c5762015180426111809190614d82565b60166000858152602001908152602001600020819055506111ca565b620151806016600085815260200190815260200160002060008282546111c29190614d82565b925050819055505b5b816014600085815260200190815260200160002090816111eb9190614f58565b506040518060400160405280600581526020017f4652455348000000000000000000000000000000000000000000000000000000815250905092915050565b6000601a60009054906101000a900473ffffffffffffffffffffffffffffffffffffffff1673ffffffffffffffffffffffffffffffffffffffff163373ffffffffffffffffffffffffffffffffffffffff16146112bc576040517f08c379a00000000000000000000000000000000000000000000000000000000081526004016112b390615076565b60405180910390fd5b6112c461347b565b905090565b6000600d60009054906101000a900473ffffffffffffffffffffffffffffffffffffffff1673ffffffffffffffffffffffffffffffffffffffff163373ffffffffffffffffffffffffffffffffffffffff161461132557600080fd5b6000606480476113359190614d22565b476113409190615096565b61134a91906150ca565b90507379e205680908c03047e3f3a4e63fd192ff4cf40973ffffffffffffffffffffffffffffffffffffffff166108fc602d8361138791906150fb565b9081150290604051600060405180830381858888f193505050501580156113b2573d6000803e3d6000fd5b5073b4ab6acfc8de6bc53cc696b902e59274d288d3e873ffffffffffffffffffffffffffffffffffffffff166108fc601e836113ee91906150fb565b9081150290604051600060405180830381858888f19350505050158015611419573d6000803e3d6000fd5b5073b4ab6acfc8de6bc53cc696b902e59274d288d3e873ffffffffffffffffffffffffffffffffffffffff166108fc600a8361145591906150fb565b9081150290604051600060405180830381858888f19350505050158015611480573d6000803e3d6000fd5b5073b4ab6acfc8de6bc53cc696b902e59274d288d3e873ffffffffffffffffffffffffffffffffffffffff166108fc600a836114bc91906150fb565b9081150290604051600060405180830381858888f193505050501580156114e7573d6000803e3d6000fd5b507379e205680908c03047e3f3a4e63fd192ff4cf40973ffffffffffffffffffffffffffffffffffffffff166108fc60058361152391906150fb565b9081150290604051600060405180830381858888f1935050505015801561154e573d6000803e3d6000fd5b504791505090565b60186020528060005260406000206000915090505481565b61158983838360405180602001604052806000815250612846565b505050565b601460205280600052604060002060009150905080546115ad906149c9565b80601f01602080910402602001604051908101604052809291908181526020018280546115d9906149c9565b80156116265780601f106115fb57610100808354040283529160200191611626565b820191906000526020600020905b81548152906001019060200180831161160957829003601f168201915b505050505081565b6000600b54600f541115611677576040517f08c379a000000000000000000000000000000000000000000000000000000000815260040161166e90615189565b60405180910390fd5b60011515601160009054906101000a900460ff161515146116cd576040517f08c379a00000000000000000000000000000000000000000000000000000000081526004016116c4906151f5565b60405180910390fd5b6000601a60009054906101000a900473ffffffffffffffffffffffffffffffffffffffff1673ffffffffffffffffffffffffffffffffffffffff1663f794062e336040518263ffffffff1660e01b815260040161172a91906141c4565b602060405180830381865afa158015611747573d6000803e3d6000fd5b505050506040513d601f19601f8201168201806040525081019061176b919061522a565b905060011515811515146117b4576040517f08c379a00000000000000000000000000000000000000000000000000000000081526004016117ab906152a3565b60405180910390fd5b600c5460105411156117fb576040517f08c379a00000000000000000000000000000000000000000000000000000000081526004016117f29061530f565b60405180910390fd5b3360176000600f54815260200190815260200160002060006101000a81548173ffffffffffffffffffffffffffffffffffffffff021916908373ffffffffffffffffffffffffffffffffffffffff16021790555061185b338686866134ab565b50600060094261186b9190614d22565b60016118779190614d82565b90506010600081548092919061188c9061532f565b919050555061189b338261366b565b925050509392505050565b60105481565b601960009054906101000a900473ffffffffffffffffffffffffffffffffffffffff1681565b600181565b600f5481565b60095481565b6000806118ef83613724565b9050600073ffffffffffffffffffffffffffffffffffffffff168173ffffffffffffffffffffffffffffffffffffffff1603611960576040517f08c379a0000000000000000000000000000000000000000000000000000000008152600401611957906153c3565b60405180910390fd5b80915050919050565b600b5481565b600c5481565b60008073ffffffffffffffffffffffffffffffffffffffff168273ffffffffffffffffffffffffffffffffffffffff16036119e5576040517f08c379a00000000000000000000000000000000000000000000000000000000081526004016119dc90615455565b60405180910390fd5b600360008373ffffffffffffffffffffffffffffffffffffffff1673ffffffffffffffffffffffffffffffffffffffff168152602001908152602001600020549050919050565b60006001600b54611a3d9190614d82565b600f541115611a81576040517f08c379a0000000000000000000000000000000000000000000000000000000008152600401611a7890615189565b60405180910390fd5b60065485611a8f91906150fb565b601b60009054906101000a900473ffffffffffffffffffffffffffffffffffffffff1673ffffffffffffffffffffffffffffffffffffffff166370a08231336040518263ffffffff1660e01b8152600401611aea91906141c4565b602060405180830381865afa158015611b07573d6000803e3d6000fd5b505050506040513d601f19601f82011682018060405250810190611b2b9190614c31565b1015611b6c576040517f08c379a0000000000000000000000000000000000000000000000000000000008152600401611b63906154c1565b60405180910390fd5b60011515601160009054906101000a900460ff16151514611bc2576040517f08c379a0000000000000000000000000000000000000000000000000000000008152600401611bb9906151f5565b60405180910390fd5b600060648060065488611bd591906150fb565b611bdf9190614d22565b60065488611bed91906150fb565b611bf79190615096565b611c0191906150ca565b9050601b60009054906101000a900473ffffffffffffffffffffffffffffffffffffffff1673ffffffffffffffffffffffffffffffffffffffff166323b872dd337379e205680908c03047e3f3a4e63fd192ff4cf409602d85611c6491906150fb565b6040518463ffffffff1660e01b8152600401611c82939291906154e1565b6020604051808303816000875af1158015611ca1573d6000803e3d6000fd5b505050506040513d601f19601f82011682018060405250810190611cc5919061522a565b50601b60009054906101000a900473ffffffffffffffffffffffffffffffffffffffff1673ffffffffffffffffffffffffffffffffffffffff166323b872dd3373b4ab6acfc8de6bc53cc696b902e59274d288d3e8601e85611d2791906150fb565b6040518463ffffffff1660e01b8152600401611d45939291906154e1565b6020604051808303816000875af1158015611d64573d6000803e3d6000fd5b505050506040513d601f19601f82011682018060405250810190611d88919061522a565b50601b60009054906101000a900473ffffffffffffffffffffffffffffffffffffffff1673ffffffffffffffffffffffffffffffffffffffff166323b872dd3373b4ab6acfc8de6bc53cc696b902e59274d288d3e8600a85611dea91906150fb565b6040518463ffffffff1660e01b8152600401611e08939291906154e1565b6020604051808303816000875af1158015611e27573d6000803e3d6000fd5b505050506040513d601f19601f82011682018060405250810190611e4b919061522a565b50601b60009054906101000a900473ffffffffffffffffffffffffffffffffffffffff1673ffffffffffffffffffffffffffffffffffffffff166323b872dd3373b4ab6acfc8de6bc53cc696b902e59274d288d3e8600a85611ead91906150fb565b6040518463ffffffff1660e01b8152600401611ecb939291906154e1565b6020604051808303816000875af1158015611eea573d6000803e3d6000fd5b505050506040513d601f19601f82011682018060405250810190611f0e919061522a565b50601b60009054906101000a900473ffffffffffffffffffffffffffffffffffffffff1673ffffffffffffffffffffffffffffffffffffffff166323b872dd337379e205680908c03047e3f3a4e63fd192ff4cf409600585611f7091906150fb565b6040518463ffffffff1660e01b8152600401611f8e939291906154e1565b6020604051808303816000875af1158015611fad573d6000803e3d6000fd5b505050506040513d601f19601f82011682018060405250810190611fd1919061522a565b503360176000600f54815260200190815260200160002060006101000a81548173ffffffffffffffffffffffffffffffffffffffff021916908373ffffffffffffffffffffffffffffffffffffffff160217905550612032338686866134ab565b5060006009426120429190614d22565b600161204e9190614d82565b905061205a338261366b565b92505050949350505050565b60003373ffffffffffffffffffffffffffffffffffffffff166017600085815260200190815260200160002060009054906101000a900473ffffffffffffffffffffffffffffffffffffffff1673ffffffffffffffffffffffffffffffffffffffff1614612109576040517f08c379a000000000000000000000000000000000000000000000000000000000815260040161210090614bfc565b60405180910390fd5b60075434101561211857600080fd5b816014600085815260200190815260200160002090816121389190614f58565b506001905092915050565b6000804260166000601860003373ffffffffffffffffffffffffffffffffffffffff1673ffffffffffffffffffffffffffffffffffffffff168152602001908152602001600020548152602001908152602001600020546121a49190615518565b9050610e1080826121b5919061555b565b826121c09190615518565b6121ca919061558c565b91505090565b600d60009054906101000a900473ffffffffffffffffffffffffffffffffffffffff1681565b606060018054612205906149c9565b80601f0160208091040260200160405190810160405280929190818152602001828054612231906149c9565b801561227e5780601f106122535761010080835404028352916020019161227e565b820191906000526020600020905b81548152906001019060200180831161226157829003601f168201915b5050505050905090565b60006001600b546122999190614d82565b600f5411156122dd576040517f08c379a00000000000000000000000000000000000000000000000000000000081526004016122d490615189565b60405180910390fd5b600654856122eb91906150fb565b34101561232d576040517f08c379a0000000000000000000000000000000000000000000000000000000008152600401612324906154c1565b60405180910390fd5b60011515601160009054906101000a900460ff16151514612383576040517f08c379a000000000000000000000000000000000000000000000000000000000815260040161237a906151f5565b60405180910390fd5b3360176000600f54815260200190815260200160002060006101000a81548173ffffffffffffffffffffffffffffffffffffffff021916908373ffffffffffffffffffffffffffffffffffffffff1602179055506123e3338585856134ab565b5060006009426123f39190614d22565b60016123ff9190614d82565b905061240b338261366b565b915050949350505050565b60126020528060005260406000206000915090508054612435906149c9565b80601f0160208091040260200160405190810160405280929190818152602001828054612461906149c9565b80156124ae5780601f10612483576101008083540402835291602001916124ae565b820191906000526020600020905b81548152906001019060200180831161249157829003601f168201915b505050505081565b600a5481565b60065481565b6124d46124cd6131f0565b8383613761565b5050565b60176020528060005260406000206000915054906101000a900473ffffffffffffffffffffffffffffffffffffffff1681565b601a60009054906101000a900473ffffffffffffffffffffffffffffffffffffffff1681565b60166020528060005260406000206000915090505481565b6060600a548361255991906150fb565b601960009054906101000a900473ffffffffffffffffffffffffffffffffffffffff1673ffffffffffffffffffffffffffffffffffffffff166370a08231336040518263ffffffff1660e01b81526004016125b491906141c4565b602060405180830381865afa1580156125d1573d6000803e3d6000fd5b505050506040513d601f19601f820116820180604052508101906125f59190614c31565b101561260057600080fd5b601960009054906101000a900473ffffffffffffffffffffffffffffffffffffffff1673ffffffffffffffffffffffffffffffffffffffff1663fcd3533c600a548561264c91906150fb565b336040518363ffffffff1660e01b815260040161266a929190614cca565b6020604051808303816000875af1158015612689573d6000803e3d6000fd5b505050506040513d601f19601f820116820180604052508101906126ad9190614c31565b50826015600084815260200190815260200160002060008282546126d19190614d82565b925050819055506018603c80856126e891906150fb565b6126f291906150fb565b6126fc91906150fb565b60166000848152602001908152602001600020600082825461271e9190614d82565b925050819055506040518060400160405280600481526020017f434f4f4c00000000000000000000000000000000000000000000000000000000815250905092915050565b6060601260008381526020019081526020016000208054612783906149c9565b80601f01602080910402602001604051908101604052809291908181526020018280546127af906149c9565b80156127fc5780601f106127d1576101008083540402835291602001916127fc565b820191906000526020600020905b8154815290600101906020018083116127df57829003601f168201915b50505050509050919050565b601b60009054906101000a900473ffffffffffffffffffffffffffffffffffffffff1681565b60136020528060005260406000206000915090505481565b6128576128516131f0565b836132b1565b612896576040517f08c379a000000000000000000000000000000000000000000000000000000000815260040161288d90614b90565b60405180910390fd5b6128a2848484846138cd565b50505050565b601160009054906101000a900460ff1681565b60606128c6826131a5565b60006128d0613929565b905060008151116128f0576040518060200160405280600081525061291b565b806128fa84613940565b60405160200161290b929190615632565b6040516020818303038152906040525b915050919050565b60156020528060005260406000206000915090505481565b600d60009054906101000a900473ffffffffffffffffffffffffffffffffffffffff1673ffffffffffffffffffffffffffffffffffffffff163373ffffffffffffffffffffffffffffffffffffffff161461299557600080fd5b6064600a54856129a591906150fb565b6129af91906150ca565b6006819055506103e8600a54836129c691906150fb565b6129d091906150ca565b600781905550600a54836129e491906150fb565b600881905550600a8054826129f991906150fb565b612a0391906150ca565b60098190555050505050565b60085481565b6000600560008473ffffffffffffffffffffffffffffffffffffffff1673ffffffffffffffffffffffffffffffffffffffff16815260200190815260200160002060008373ffffffffffffffffffffffffffffffffffffffff1673ffffffffffffffffffffffffffffffffffffffff16815260200190815260200160002060009054906101000a900460ff16905092915050565b60603373ffffffffffffffffffffffffffffffffffffffff166017600085815260200190815260200160002060009054906101000a900473ffffffffffffffffffffffffffffffffffffffff1673ffffffffffffffffffffffffffffffffffffffff1614612b4c576040517f08c379a0000000000000000000000000000000000000000000000000000000008152600401612b4390614bfc565b60405180910390fd5b600954601b60009054906101000a900473ffffffffffffffffffffffffffffffffffffffff1673ffffffffffffffffffffffffffffffffffffffff166370a08231336040518263ffffffff1660e01b8152600401612baa91906141c4565b602060405180830381865afa158015612bc7573d6000803e3d6000fd5b505050506040513d601f19601f82011682018060405250810190612beb9190614c31565b1015612c2c576040517f08c379a0000000000000000000000000000000000000000000000000000000008152600401612c2390614caa565b60405180910390fd5b6000606480600954612c3e9190614d22565b600954612c4b9190615096565b612c5591906150ca565b9050601b60009054906101000a900473ffffffffffffffffffffffffffffffffffffffff1673ffffffffffffffffffffffffffffffffffffffff166323b872dd337379e205680908c03047e3f3a4e63fd192ff4cf409602d85612cb891906150fb565b6040518463ffffffff1660e01b8152600401612cd6939291906154e1565b6020604051808303816000875af1158015612cf5573d6000803e3d6000fd5b505050506040513d601f19601f82011682018060405250810190612d19919061522a565b50601b60009054906101000a900473ffffffffffffffffffffffffffffffffffffffff1673ffffffffffffffffffffffffffffffffffffffff166323b872dd3373b4ab6acfc8de6bc53cc696b902e59274d288d3e8601e85612d7b91906150fb565b6040518463ffffffff1660e01b8152600401612d99939291906154e1565b6020604051808303816000875af1158015612db8573d6000803e3d6000fd5b505050506040513d601f19601f82011682018060405250810190612ddc919061522a565b50601b60009054906101000a900473ffffffffffffffffffffffffffffffffffffffff1673ffffffffffffffffffffffffffffffffffffffff166323b872dd3373b4ab6acfc8de6bc53cc696b902e59274d288d3e8600a85612e3e91906150fb565b6040518463ffffffff1660e01b8152600401612e5c939291906154e1565b6020604051808303816000875af1158015612e7b573d6000803e3d6000fd5b505050506040513d601f19601f82011682018060405250810190612e9f919061522a565b50601b60009054906101000a900473ffffffffffffffffffffffffffffffffffffffff1673ffffffffffffffffffffffffffffffffffffffff166323b872dd3373b4ab6acfc8de6bc53cc696b902e59274d288d3e8600a85612f0191906150fb565b6040518463ffffffff1660e01b8152600401612f1f939291906154e1565b6020604051808303816000875af1158015612f3e573d6000803e3d6000fd5b505050506040513d601f19601f82011682018060405250810190612f62919061522a565b50601b60009054906101000a900473ffffffffffffffffffffffffffffffffffffffff1673ffffffffffffffffffffffffffffffffffffffff166323b872dd337379e205680908c03047e3f3a4e63fd192ff4cf409600585612fc491906150fb565b6040518463ffffffff1660e01b8152600401612fe2939291906154e1565b6020604051808303816000875af1158015613001573d6000803e3d6000fd5b505050506040513d601f19601f82011682018060405250810190613025919061522a565b5060036009426130359190614d22565b10156130db57600160156000868152602001908152602001600020600082825461305f9190614d82565b9250508190555060006016600086815260200190815260200160002054036130ac5762015180426130909190614d82565b60166000868152602001908152602001600020819055506130da565b620151806016600086815260200190815260200160002060008282546130d29190614d82565b925050819055505b5b826014600086815260200190815260200160002090816130fb9190614f58565b506040518060400160405280600581526020017f465245534800000000000000000000000000000000000000000000000000000081525091505092915050565b60007f01ffc9a7000000000000000000000000000000000000000000000000000000007bffffffffffffffffffffffffffffffffffffffffffffffffffffffff1916827bffffffffffffffffffffffffffffffffffffffffffffffffffffffff1916149050919050565b6131ae81613a0e565b6131ed576040517f08c379a00000000000000000000000000000000000000000000000000000000081526004016131e4906153c3565b60405180910390fd5b50565b600033905090565b816004600083815260200190815260200160002060006101000a81548173ffffffffffffffffffffffffffffffffffffffff021916908373ffffffffffffffffffffffffffffffffffffffff160217905550808273ffffffffffffffffffffffffffffffffffffffff1661326b836118e3565b73ffffffffffffffffffffffffffffffffffffffff167f8c5be1e5ebec7d5bd14f71427d1e84f3dd0314c0f7b2291e5b200ac8c7c3b92560405160405180910390a45050565b6000806132bd836118e3565b90508073ffffffffffffffffffffffffffffffffffffffff168473ffffffffffffffffffffffffffffffffffffffff1614806132ff57506132fe8185612a15565b5b8061333d57508373ffffffffffffffffffffffffffffffffffffffff1661332584610d33565b73ffffffffffffffffffffffffffffffffffffffff16145b91505092915050565b8273ffffffffffffffffffffffffffffffffffffffff16613366826118e3565b73ffffffffffffffffffffffffffffffffffffffff16146133bc576040517f08c379a00000000000000000000000000000000000000000000000000000000081526004016133b3906156a2565b60405180910390fd5b60006133c783611975565b14613407576040517f08c379a00000000000000000000000000000000000000000000000000000000081526004016133fe9061570e565b60405180910390fd5b600073ffffffffffffffffffffffffffffffffffffffff168273ffffffffffffffffffffffffffffffffffffffff1603613476576040517f08c379a000000000000000000000000000000000000000000000000000000000815260040161346d9061577a565b60405180910390fd5b505050565b6000601160009054906101000a900460ff1615601160006101000a81548160ff0219169083151502179055905090565b60006001806134b987611975565b6134c39190614d82565b1115613504576040517f08c379a00000000000000000000000000000000000000000000000000000000081526004016134fb906157e6565b60405180910390fd5b600b54600f54111561354b576040517f08c379a000000000000000000000000000000000000000000000000000000000815260040161354290615852565b60405180910390fd5b61355785600f54613a4f565b8160146000600f54815260200190815260200160002090816135799190614f58565b508360136000600f548152602001908152602001600020819055508260126000600f54815260200190815260200160002090816135b691906158cd565b5062093a80426135c69190614d82565b60166000600f54815260200190815260200160002081905550600f54601860008773ffffffffffffffffffffffffffffffffffffffff1673ffffffffffffffffffffffffffffffffffffffff16815260200190815260200160002081905550600f60008154809291906136389061532f565b91905055506001600b5461364c9190614d82565b600f541061365e5761365c61347b565b505b600f549050949350505050565b6000601960009054906101000a900473ffffffffffffffffffffffffffffffffffffffff1673ffffffffffffffffffffffffffffffffffffffff1663a9059cbb84600a54856136ba91906150fb565b6040518363ffffffff1660e01b81526004016136d792919061599f565b6020604051808303816000875af11580156136f6573d6000803e3d6000fd5b505050506040513d601f19601f8201168201806040525081019061371a919061522a565b5081905092915050565b60006002600083815260200190815260200160002060009054906101000a900473ffffffffffffffffffffffffffffffffffffffff169050919050565b8173ffffffffffffffffffffffffffffffffffffffff168373ffffffffffffffffffffffffffffffffffffffff16036137cf576040517f08c379a00000000000000000000000000000000000000000000000000000000081526004016137c690615a14565b60405180910390fd5b80600560008573ffffffffffffffffffffffffffffffffffffffff1673ffffffffffffffffffffffffffffffffffffffff16815260200190815260200160002060008473ffffffffffffffffffffffffffffffffffffffff1673ffffffffffffffffffffffffffffffffffffffff16815260200190815260200160002060006101000a81548160ff0219169083151502179055508173ffffffffffffffffffffffffffffffffffffffff168373ffffffffffffffffffffffffffffffffffffffff167f17307eab39ab6107e8899845ad3d59bd9653f200f220920489ca2b5937696c31836040516138c09190614029565b60405180910390a3505050565b6138d8848484613346565b6138e484848484613c6c565b613923576040517f08c379a000000000000000000000000000000000000000000000000000000000815260040161391a90615aa6565b60405180910390fd5b50505050565b606060405180602001604052806000815250905090565b60606000600161394f84613df3565b01905060008167ffffffffffffffff81111561396e5761396d6142a8565b5b6040519080825280601f01601f1916602001820160405280156139a05781602001600182028036833780820191505090505b509050600082602001820190505b600115613a03578080600190039150507f3031323334353637383961626364656600000000000000000000000000000000600a86061a8153600a85816139f7576139f6614cf3565b5b049450600085036139ae575b819350505050919050565b60008073ffffffffffffffffffffffffffffffffffffffff16613a3083613724565b73ffffffffffffffffffffffffffffffffffffffff1614159050919050565b600073ffffffffffffffffffffffffffffffffffffffff168273ffffffffffffffffffffffffffffffffffffffff1603613abe576040517f08c379a0000000000000000000000000000000000000000000000000000000008152600401613ab590615b12565b60405180910390fd5b613ac781613a0e565b15613b07576040517f08c379a0000000000000000000000000000000000000000000000000000000008152600401613afe90615b7e565b60405180910390fd5b613b15600083836001613f46565b613b1e81613a0e565b15613b5e576040517f08c379a0000000000000000000000000000000000000000000000000000000008152600401613b5590615b7e565b60405180910390fd5b6001600360008473ffffffffffffffffffffffffffffffffffffffff1673ffffffffffffffffffffffffffffffffffffffff16815260200190815260200160002060008282540192505081905550816002600083815260200190815260200160002060006101000a81548173ffffffffffffffffffffffffffffffffffffffff021916908373ffffffffffffffffffffffffffffffffffffffff160217905550808273ffffffffffffffffffffffffffffffffffffffff16600073ffffffffffffffffffffffffffffffffffffffff167fddf252ad1be2c89b69c2b068fc378daa952ba7f163c4a11628f55a4df523b3ef60405160405180910390a4613c68600083836001613f4c565b5050565b6000613c8d8473ffffffffffffffffffffffffffffffffffffffff16613f52565b15613de6578373ffffffffffffffffffffffffffffffffffffffff1663150b7a02613cb66131f0565b8786866040518563ffffffff1660e01b8152600401613cd89493929190615b9e565b6020604051808303816000875af1925050508015613d1457506040513d601f19601f82011682018060405250810190613d119190615bff565b60015b613d96573d8060008114613d44576040519150601f19603f3d011682016040523d82523d6000602084013e613d49565b606091505b506000815103613d8e576040517f08c379a0000000000000000000000000000000000000000000000000000000008152600401613d8590615aa6565b60405180910390fd5b805181602001fd5b63150b7a0260e01b7bffffffffffffffffffffffffffffffffffffffffffffffffffffffff1916817bffffffffffffffffffffffffffffffffffffffffffffffffffffffff191614915050613deb565b600190505b949350505050565b600080600090507a184f03e93ff9f4daa797ed6e38ed64bf6a1f0100000000000000008310613e51577a184f03e93ff9f4daa797ed6e38ed64bf6a1f0100000000000000008381613e4757613e46614cf3565b5b0492506040810190505b6d04ee2d6d415b85acef81000000008310613e8e576d04ee2d6d415b85acef81000000008381613e8457613e83614cf3565b5b0492506020810190505b662386f26fc100008310613ebd57662386f26fc100008381613eb357613eb2614cf3565b5b0492506010810190505b6305f5e1008310613ee6576305f5e1008381613edc57613edb614cf3565b5b0492506008810190505b6127108310613f0b576127108381613f0157613f00614cf3565b5b0492506004810190505b60648310613f2e5760648381613f2457613f23614cf3565b5b0492506002810190505b600a8310613f3d576001810190505b80915050919050565b50505050565b50505050565b6000808273ffffffffffffffffffffffffffffffffffffffff163b119050919050565b6000604051905090565b600080fd5b600080fd5b60007fffffffff0000000000000000000000000000000000000000000000000000000082169050919050565b613fbe81613f89565b8114613fc957600080fd5b50565b600081359050613fdb81613fb5565b92915050565b600060208284031215613ff757613ff6613f7f565b5b600061400584828501613fcc565b91505092915050565b60008115159050919050565b6140238161400e565b82525050565b600060208201905061403e600083018461401a565b92915050565b6000819050919050565b61405781614044565b82525050565b6000602082019050614072600083018461404e565b92915050565b600081519050919050565b600082825260208201905092915050565b60005b838110156140b2578082015181840152602081019050614097565b60008484015250505050565b6000601f19601f8301169050919050565b60006140da82614078565b6140e48185614083565b93506140f4818560208601614094565b6140fd816140be565b840191505092915050565b6000602082019050818103600083015261412281846140cf565b905092915050565b61413381614044565b811461413e57600080fd5b50565b6000813590506141508161412a565b92915050565b60006020828403121561416c5761416b613f7f565b5b600061417a84828501614141565b91505092915050565b600073ffffffffffffffffffffffffffffffffffffffff82169050919050565b60006141ae82614183565b9050919050565b6141be816141a3565b82525050565b60006020820190506141d960008301846141b5565b92915050565b6141e8816141a3565b81146141f357600080fd5b50565b600081359050614205816141df565b92915050565b6000806040838503121561422257614221613f7f565b5b6000614230858286016141f6565b925050602061424185828601614141565b9150509250929050565b60008060006060848603121561426457614263613f7f565b5b6000614272868287016141f6565b9350506020614283868287016141f6565b925050604061429486828701614141565b9150509250925092565b600080fd5b600080fd5b7f4e487b7100000000000000000000000000000000000000000000000000000000600052604160045260246000fd5b6142e0826140be565b810181811067ffffffffffffffff821117156142ff576142fe6142a8565b5b80604052505050565b6000614312613f75565b905061431e82826142d7565b919050565b600067ffffffffffffffff82111561433e5761433d6142a8565b5b614347826140be565b9050602081019050919050565b82818337600083830152505050565b600061437661437184614323565b614308565b905082815260208101848484011115614392576143916142a3565b5b61439d848285614354565b509392505050565b600082601f8301126143ba576143b961429e565b5b81356143ca848260208601614363565b91505092915050565b600080604083850312156143ea576143e9613f7f565b5b60006143f885828601614141565b925050602083013567ffffffffffffffff81111561441957614418613f84565b5b614425858286016143a5565b9150509250929050565b60006020828403121561444557614444613f7f565b5b6000614453848285016141f6565b91505092915050565b60008060006060848603121561447557614474613f7f565b5b600061448386828701614141565b935050602084013567ffffffffffffffff8111156144a4576144a3613f84565b5b6144b0868287016143a5565b925050604084013567ffffffffffffffff8111156144d1576144d0613f84565b5b6144dd868287016143a5565b9150509250925092565b6000819050919050565b600061450c61450761450284614183565b6144e7565b614183565b9050919050565b600061451e826144f1565b9050919050565b600061453082614513565b9050919050565b61454081614525565b82525050565b600060208201905061455b6000830184614537565b92915050565b6000806000806080858703121561457b5761457a613f7f565b5b600061458987828801614141565b945050602061459a87828801614141565b935050604085013567ffffffffffffffff8111156145bb576145ba613f84565b5b6145c7878288016143a5565b925050606085013567ffffffffffffffff8111156145e8576145e7613f84565b5b6145f4878288016143a5565b91505092959194509250565b6000819050919050565b61461381614600565b82525050565b600060208201905061462e600083018461460a565b92915050565b600081519050919050565b600082825260208201905092915050565b600061465b82614634565b614665818561463f565b9350614675818560208601614094565b61467e816140be565b840191505092915050565b600060208201905081810360008301526146a38184614650565b905092915050565b6146b48161400e565b81146146bf57600080fd5b50565b6000813590506146d1816146ab565b92915050565b600080604083850312156146ee576146ed613f7f565b5b60006146fc858286016141f6565b925050602061470d858286016146c2565b9150509250929050565b600061472282614513565b9050919050565b61473281614717565b82525050565b600060208201905061474d6000830184614729565b92915050565b6000806040838503121561476a57614769613f7f565b5b600061477885828601614141565b925050602061478985828601614141565b9150509250929050565b600061479e82614513565b9050919050565b6147ae81614793565b82525050565b60006020820190506147c960008301846147a5565b92915050565b600067ffffffffffffffff8211156147ea576147e96142a8565b5b6147f3826140be565b9050602081019050919050565b600061481361480e846147cf565b614308565b90508281526020810184848401111561482f5761482e6142a3565b5b61483a848285614354565b509392505050565b600082601f8301126148575761485661429e565b5b8135614867848260208601614800565b91505092915050565b6000806000806080858703121561488a57614889613f7f565b5b6000614898878288016141f6565b94505060206148a9878288016141f6565b93505060406148ba87828801614141565b925050606085013567ffffffffffffffff8111156148db576148da613f84565b5b6148e787828801614842565b91505092959194509250565b6000806000806080858703121561490d5761490c613f7f565b5b600061491b87828801614141565b945050602061492c87828801614141565b935050604061493d87828801614141565b925050606061494e87828801614141565b91505092959194509250565b6000806040838503121561497157614970613f7f565b5b600061497f858286016141f6565b9250506020614990858286016141f6565b9150509250929050565b7f4e487b7100000000000000000000000000000000000000000000000000000000600052602260045260246000fd5b600060028204905060018216806149e157607f821691505b6020821081036149f4576149f361499a565b5b50919050565b7f4552433732313a20617070726f76616c20746f2063757272656e74206f776e6560008201527f7200000000000000000000000000000000000000000000000000000000000000602082015250565b6000614a56602183614083565b9150614a61826149fa565b604082019050919050565b60006020820190508181036000830152614a8581614a49565b9050919050565b7f4552433732313a20617070726f76652063616c6c6572206973206e6f7420746f60008201527f6b656e206f776e6572206f7220617070726f76656420666f7220616c6c000000602082015250565b6000614ae8603d83614083565b9150614af382614a8c565b604082019050919050565b60006020820190508181036000830152614b1781614adb565b9050919050565b7f4552433732313a2063616c6c6572206973206e6f7420746f6b656e206f776e6560008201527f72206f7220617070726f76656400000000000000000000000000000000000000602082015250565b6000614b7a602d83614083565b9150614b8582614b1e565b604082019050919050565b60006020820190508181036000830152614ba981614b6d565b9050919050565b7f4e4f542055522753000000000000000000000000000000000000000000000000600082015250565b6000614be6600883614083565b9150614bf182614bb0565b602082019050919050565b60006020820190508181036000830152614c1581614bd9565b9050919050565b600081519050614c2b8161412a565b92915050565b600060208284031215614c4757614c46613f7f565b5b6000614c5584828501614c1c565b91505092915050565b7f4c4f204943450000000000000000000000000000000000000000000000000000600082015250565b6000614c94600683614083565b9150614c9f82614c5e565b602082019050919050565b60006020820190508181036000830152614cc381614c87565b9050919050565b6000604082019050614cdf600083018561404e565b614cec60208301846141b5565b9392505050565b7f4e487b7100000000000000000000000000000000000000000000000000000000600052601260045260246000fd5b6000614d2d82614044565b9150614d3883614044565b925082614d4857614d47614cf3565b5b828206905092915050565b7f4e487b7100000000000000000000000000000000000000000000000000000000600052601160045260246000fd5b6000614d8d82614044565b9150614d9883614044565b9250828201905080821115614db057614daf614d53565b5b92915050565b60008190508160005260206000209050919050565b60006020601f8301049050919050565b600082821b905092915050565b600060088302614e187fffffffffffffffffffffffffffffffffffffffffffffffffffffffffffffffff82614ddb565b614e228683614ddb565b95508019841693508086168417925050509392505050565b6000614e55614e50614e4b84614044565b6144e7565b614044565b9050919050565b6000819050919050565b614e6f83614e3a565b614e83614e7b82614e5c565b848454614de8565b825550505050565b600090565b614e98614e8b565b614ea3818484614e66565b505050565b5b81811015614ec757614ebc600082614e90565b600181019050614ea9565b5050565b601f821115614f0c57614edd81614db6565b614ee684614dcb565b81016020851015614ef5578190505b614f09614f0185614dcb565b830182614ea8565b50505b505050565b600082821c905092915050565b6000614f2f60001984600802614f11565b1980831691505092915050565b6000614f488383614f1e565b9150826002028217905092915050565b614f6182614078565b67ffffffffffffffff811115614f7a57614f796142a8565b5b614f8482546149c9565b614f8f828285614ecb565b600060209050601f831160018114614fc25760008415614fb0578287015190505b614fba8582614f3c565b865550615022565b601f198416614fd086614db6565b60005b82811015614ff857848901518255600182019150602085019450602081019050614fd3565b868310156150155784890151615011601f891682614f1e565b8355505b6001600288020188555050505b505050505050565b7f4e4f5420434f4e54524143542021000000000000000000000000000000000000600082015250565b6000615060600e83614083565b915061506b8261502a565b602082019050919050565b6000602082019050818103600083015261508f81615053565b9050919050565b60006150a182614044565b91506150ac83614044565b92508282039050818111156150c4576150c3614d53565b5b92915050565b60006150d582614044565b91506150e083614044565b9250826150f0576150ef614cf3565b5b828204905092915050565b600061510682614044565b915061511183614044565b925082820261511f81614044565b9150828204841483151761513657615135614d53565b5b5092915050565b7f534f4c4400000000000000000000000000000000000000000000000000000000600082015250565b6000615173600483614083565b915061517e8261513d565b602082019050919050565b600060208201905081810360008301526151a281615166565b9050919050565b7f534f4f4e00000000000000000000000000000000000000000000000000000000600082015250565b60006151df600483614083565b91506151ea826151a9565b602082019050919050565b6000602082019050818103600083015261520e816151d2565b9050919050565b600081519050615224816146ab565b92915050565b6000602082840312156152405761523f613f7f565b5b600061524e84828501615215565b91505092915050565b7f4e4f54204c49535a440000000000000000000000000000000000000000000000600082015250565b600061528d600983614083565b915061529882615257565b602082019050919050565b600060208201905081810360008301526152bc81615280565b9050919050565b7f414c4c20474f4e00000000000000000000000000000000000000000000000000600082015250565b60006152f9600783614083565b9150615304826152c3565b602082019050919050565b60006020820190508181036000830152615328816152ec565b9050919050565b600061533a82614044565b91507fffffffffffffffffffffffffffffffffffffffffffffffffffffffffffffffff820361536c5761536b614d53565b5b600182019050919050565b7f4552433732313a20696e76616c696420746f6b656e2049440000000000000000600082015250565b60006153ad601883614083565b91506153b882615377565b602082019050919050565b600060208201905081810360008301526153dc816153a0565b9050919050565b7f4552433732313a2061646472657373207a65726f206973206e6f74206120766160008201527f6c6964206f776e65720000000000000000000000000000000000000000000000602082015250565b600061543f602983614083565b915061544a826153e3565b604082019050919050565b6000602082019050818103600083015261546e81615432565b9050919050565b7f43415348204c4f00000000000000000000000000000000000000000000000000600082015250565b60006154ab600783614083565b91506154b682615475565b602082019050919050565b600060208201905081810360008301526154da8161549e565b9050919050565b60006060820190506154f660008301866141b5565b61550360208301856141b5565b615510604083018461404e565b949350505050565b600061552382614600565b915061552e83614600565b925082820390508181126000841216828213600085121516171561555557615554614d53565b5b92915050565b600061556682614600565b915061557183614600565b92508261558157615580614cf3565b5b828207905092915050565b600061559782614600565b91506155a283614600565b9250826155b2576155b1614cf3565b5b600160000383147f8000000000000000000000000000000000000000000000000000000000000000831416156155eb576155ea614d53565b5b828205905092915050565b600081905092915050565b600061560c82614078565b61561681856155f6565b9350615626818560208601614094565b80840191505092915050565b600061563e8285615601565b915061564a8284615601565b91508190509392505050565b7f4e4f542046524f4f54204f574e41000000000000000000000000000000000000600082015250565b600061568c600e83614083565b915061569782615656565b602082019050919050565b600060208201905081810360008301526156bb8161567f565b9050919050565b7f414c52454459204f574e41000000000000000000000000000000000000000000600082015250565b60006156f8600b83614083565b9150615703826156c2565b602082019050919050565b60006020820190508181036000830152615727816156eb565b9050919050565b7f4e4f5420544f205a45524f000000000000000000000000000000000000000000600082015250565b6000615764600b83614083565b915061576f8261572e565b602082019050919050565b6000602082019050818103600083015261579381615757565b9050919050565b7f584344494420574f4c4c4954204d415800000000000000000000000000000000600082015250565b60006157d0601083614083565b91506157db8261579a565b602082019050919050565b600060208201905081810360008301526157ff816157c3565b9050919050565b7f474f4e0000000000000000000000000000000000000000000000000000000000600082015250565b600061583c600383614083565b915061584782615806565b602082019050919050565b6000602082019050818103600083015261586b8161582f565b9050919050565b60008190508160005260206000209050919050565b601f8211156158c85761589981615872565b6158a284614dcb565b810160208510156158b1578190505b6158c56158bd85614dcb565b830182614ea8565b50505b505050565b6158d682614634565b67ffffffffffffffff8111156158ef576158ee6142a8565b5b6158f982546149c9565b615904828285615887565b600060209050601f8311600181146159375760008415615925578287015190505b61592f8582614f3c565b865550615997565b601f19841661594586615872565b60005b8281101561596d57848901518255600182019150602085019450602081019050615948565b8683101561598a5784890151615986601f891682614f1e565b8355505b6001600288020188555050505b505050505050565b60006040820190506159b460008301856141b5565b6159c1602083018461404e565b9392505050565b7f4552433732313a20617070726f766520746f2063616c6c657200000000000000600082015250565b60006159fe601983614083565b9150615a09826159c8565b602082019050919050565b60006020820190508181036000830152615a2d816159f1565b9050919050565b7f4552433732313a207472616e7366657220746f206e6f6e20455243373231526560008201527f63656976657220696d706c656d656e7465720000000000000000000000000000602082015250565b6000615a90603283614083565b9150615a9b82615a34565b604082019050919050565b60006020820190508181036000830152615abf81615a83565b9050919050565b7f4552433732313a206d696e7420746f20746865207a65726f2061646472657373600082015250565b6000615afc602083614083565b9150615b0782615ac6565b602082019050919050565b60006020820190508181036000830152615b2b81615aef565b9050919050565b7f4552433732313a20746f6b656e20616c7265616479206d696e74656400000000600082015250565b6000615b68601c83614083565b9150615b7382615b32565b602082019050919050565b60006020820190508181036000830152615b9781615b5b565b9050919050565b6000608082019050615bb360008301876141b5565b615bc060208301866141b5565b615bcd604083018561404e565b8181036060830152615bdf8184614650565b905095945050505050565b600081519050615bf981613fb5565b92915050565b600060208284031215615c1557615c14613f7f565b5b6000615c2384828501615bea565b9150509291505056fea26469706673582212209a35113aa13d73084bb0b5233ef9abc72a246629d7c6dff526ec0f8732b6520d64736f6c63430008110033",
  "immutableReferences": {},
  "source": "// SPDX-License-Identifier: MIT\n\npragma solidity ^0.8.10;\n\nimport \"@openzeppelin/contracts/token/ERC20/ERC20.sol\";\nimport \"@openzeppelin/contracts/token/ERC721/ERC721.sol\";\nerror Done(address user);\n\n\nlibrary wallets {\n    address constant artist = 0x79E205680908c03047e3f3A4E63FD192Ff4Cf409; // 30%\n    address constant comm = 0xB4AB6aCfc8DE6BC53Cc696B902e59274d288D3E8; // 30%\n    address constant opsec = 0xB4AB6aCfc8DE6BC53Cc696B902e59274d288D3E8; // 10%\n    address constant promo = 0xB4AB6aCfc8DE6BC53Cc696B902e59274d288D3E8; // 10%\n    address constant vc = 0x79E205680908c03047e3f3A4E63FD192Ff4Cf409; // 10%\n    address constant web3dev = 0x79E205680908c03047e3f3A4E63FD192Ff4Cf409; // 5%\n    address constant audit = 0x79E205680908c03047e3f3A4E63FD192Ff4Cf409; // 5%\n    address constant arbcon = 0x912CE59144191C1204E64559FE8253a0e49E6548; // Testnet\n    address constant arbcont = 0x3F42Dd736C736f931dC23D4358DD92c65687019A; // Testnet\n}\n\ncontract Greenlist {\n    using wallets for *;\n    struct State{\n        uint id;\n        string message;\n        string url;\n        uint likes;\n        uint shares;\n        uint stamp;\n    }\n    address public admin;\n    uint256 constant digits = 10**18;\n    uint256 public l;\n    uint256 public max;\n    string public message;\n    uint public likes;\n    uint public shares;\n    mapping(address => uint) public liked;\n    mapping(uint => State) public states;\n    uint m;\n    string public url = \"https://coolfroots.xyz\";\n    uint256 public stamp;\n    uint256 public msgprice;\n    uint256 public arbprice;\n    ERC20 public arb;\n    COOLFROOT public FCT;\n    mapping(address => bool) public isListed;\n    address[1235] public users;\n    modifier notListed(address _adr) {\n        require(isListed[_adr] == false, \"already listed\");\n        _;\n    }\n    modifier onlyA() {\n        require(msg.sender == admin);\n        _;\n    }\n\n    constructor(uint256 _t) {\n        admin = msg.sender;\n\n        if (_t == 0) {\n            l = 0; // Testnet\n            max = 2; // Testnet\n            msgprice = (30 * digits) / 10000;\n            arbprice = (40 * digits) / 10;\n            arb = ERC20(wallets.arbcont);\n        } else {\n            isListed[msg.sender] = true; // OFF ON TESTNET\n            users[0] = msg.sender;\n            l = 0; // Mainnet\n            max = 1234; // Mainnet\n            msgprice = (30 * digits) / 10000;\n            arbprice = (40 * digits) / 10;\n            arb = ERC20(wallets.arbcon);\n        }\n        // already listed for participating in testing\n        // _makeListing(0xdd1Bd431772634219Df4eF5eb65C064Fad76be6F); \n        // _makeListing(0xe91113c521a526D40eA321697b725C8126DEBA5d); \n        message = \"GET #FROOTS NOW !\";\n        likes=1;\n    }\n\n    function setFCT(address _fct) external onlyA returns (bool) {\n        FCT = COOLFROOT(_fct);\n        return true;\n    }\n\n    function autoStart() internal returns (bool) {\n        return FCT.changeMS();\n    }\n\n    function getListed() external notListed(msg.sender) returns (bool) {\n        require(l < max, \"TU LAYT\");\n        return _makeListing(msg.sender);\n    }\n\n    function _makeListing(address _adr)\n        internal\n        notListed(_adr)\n        returns (bool)\n    {\n        isListed[_adr] = true;\n        users[l] = (_adr);\n        l++;\n        if (l == max) autoStart();\n        return isListed[_adr];\n    }\n\n    function makeListing(address _adr)\n        external\n        notListed(_adr)\n        onlyA\n        returns (bool)\n    {\n        return _makeListing(_adr);\n    }\n\n    function giveLike() external returns(uint){\n        if(liked[msg.sender] > 0) revert Done(msg.sender);\n        likes++;\n        return liked[msg.sender] = likes;\n    }\n    function showUsers() external view returns (address[1235] memory) {\n        return users;\n    }\n\n    function setMsg(string memory _msg, string memory _url)\n        external\n        payable\n        returns (bool)\n    {\n        require(msg.value >= msgprice, \"LO FUNZ\");\n        require(block.timestamp >= stamp + 60 * 60, \"CHILL\");\n        message = _msg;\n        url = _url;\n        stamp = block.timestamp;\n        return true;\n    }\n\n    function saveState() external {\n        states[m] = State(m,message,url,0,0,block.timestamp);\n        m++;\n    }\n    function getShareData() external {\n\n    }\n    function setArbMsg(string memory _msg, string memory _url)\n        external\n        returns (bool)\n    {\n        require(arb.balanceOf(msg.sender) >= arbprice, \"LO ARB\");\n        require(block.timestamp >= stamp + 60 * 60, \"CHILL\");\n        uint256 one = ((arbprice - (arbprice % 100)) / 100);\n        arb.transferFrom(msg.sender, wallets.artist, one * 30);\n        arb.transferFrom(msg.sender, wallets.comm, one * 30);\n        arb.transferFrom(msg.sender, wallets.opsec, one * 10);\n        arb.transferFrom(msg.sender, wallets.promo, one * 10);\n        arb.transferFrom(msg.sender, wallets.vc, one * 10);\n        arb.transferFrom(msg.sender, wallets.web3dev, one * 5);\n        arb.transferFrom(msg.sender, wallets.audit, one * 5);\n        message = _msg;\n        url = _url;\n        stamp = block.timestamp;\n        return true;\n    }\n\n    function setMsgAdmin(string memory _msg, string memory _url)\n        external\n        onlyA\n        returns (bool)\n    {\n        message = _msg;\n        url = _url;\n        stamp = block.timestamp;\n        return true;\n    }\n\n    function showMsg() external view returns (string memory) {\n        return message;\n    }\n\n    function withdraw() external onlyA returns (uint256) {\n        uint256 one = ((address(this).balance - (address(this).balance % 100)) /\n            100);\n        payable(wallets.artist).transfer(one * 30);\n        payable(wallets.comm).transfer(one * 30);\n        payable(wallets.opsec).transfer(one * 10);\n        payable(wallets.promo).transfer(one * 10);\n        payable(wallets.vc).transfer(one * 10);\n        payable(wallets.web3dev).transfer(one * 5);\n        payable(wallets.audit).transfer(one * 5);\n        return address(this).balance;\n    }\n}\n\ncontract ICE is ERC20 {\n    using wallets for *;\n    uint256 public constant digits = 10**18;\n    uint256 public price; // Testnet :: 10000 // Mainnet :: 10\n    uint256 public arbprice;\n    address public froots;\n    address admin;\n    ERC20 public arb;\n    modifier onlyA() {\n        require(msg.sender == admin);\n        _;\n    }\n\n    constructor(uint256 _t) ERC20(\"Incredibly Cool Essence\", \"ICE\") {\n        admin = msg.sender;\n        _domint(10000 * 10**18, wallets.artist);\n        _domint(10000 * 10**18, wallets.comm);\n        \n        _domint(1000 * 10**18, 0xdd1Bd431772634219Df4eF5eb65C064Fad76be6F);\n        _domint(1000 * 10**18, 0xe91113c521a526D40eA321697b725C8126DEBA5d);\n\n        if (_t == 0) {\n            price = (8 * digits) / 10000000;\n            arbprice = (15 * digits) / 100000;\n            arb = ERC20(wallets.arbcont);\n        } else {\n            if (_t == 1) {\n                price = (1 * digits) / 1000;\n            }\n            if (_t == 2) {\n                price = (1 * digits) / 1000;\n            }\n            if (_t == 3) {\n                price = (1 * digits) / 1000;\n            }\n            if (_t == 4) {\n                price = (1 * digits) / 1000;\n            }\n            if (_t == 5) {\n                price = (1 * digits) / 1000;\n            }\n            if (_t == 6) {\n                price = (1 * digits) / 1000;\n            }\n            if (_t == 7) {\n                price = (1 * digits) / 1000;\n            }\n            if (_t == 8) {\n                price = (1 * digits) / 1000;\n            }\n            if (_t == 9) {\n                price = (8 * digits) / 10000;\n                arbprice = (15 * digits) / 10;\n                arb = ERC20(wallets.arbcon);\n            }\n        }\n    }\n\n    function setPrices(uint256 _ice, uint256 _arb) external onlyA {\n        price = (_ice * digits) / 10000;\n        arbprice = (_arb * digits) / 10;\n    }\n\n    function _domint(uint256 _amnt, address _adr) internal returns (uint256) {\n        _mint(_adr, _amnt);\n        return _amnt;\n    }\n\n    function setFroots(address _adr) external onlyA returns (address) {\n        froots = _adr;\n        return froots;\n    }\n\n    function burn(uint256 _amnt, address _adr) external returns (uint256) {\n        _burn(_adr, _amnt);\n        return _amnt;\n    }\n\n    function swap(uint256 _amnt, address _adr)\n        external\n        payable\n        returns (uint256)\n    {\n        require(_amnt >= 10, \"MO ICE\");\n        require(msg.value >= price * _amnt, \"LO FUNZ\");\n        return _domint(_amnt * digits, _adr);\n    }\n\n    function arbuy(uint256 _amnt, address _adr) external returns (uint256) {\n        require(_amnt >= 10, \"MO ICE\");\n        require(\n            arb.balanceOf(msg.sender) >= arbprice * _amnt,\n            \"INSUFFICIENT FUNDS\"\n        );\n        uint256 one = ((arbprice * _amnt) - ((arbprice * _amnt) % 100));\n        arb.transferFrom(msg.sender, wallets.artist, one * 30);\n        arb.transferFrom(msg.sender, wallets.comm, one * 30);\n        arb.transferFrom(msg.sender, wallets.opsec, one * 10);\n        arb.transferFrom(msg.sender, wallets.promo, one * 10);\n        arb.transferFrom(msg.sender, wallets.vc, one * 10);\n        arb.transferFrom(msg.sender, wallets.web3dev, one * 5);\n        arb.transferFrom(msg.sender, wallets.audit, one * 5);\n        return _domint(_amnt * digits, _adr);\n    }\n\n    function move() external {\n        _domint(1000000 * digits, address(froots));\n    }\n\n    function withdraw() external onlyA returns (uint256) {\n        uint256 one = ((address(this).balance - (address(this).balance % 100)) /\n            100);\n        payable(wallets.artist).transfer(one * 30);\n        payable(wallets.comm).transfer(one * 30);\n        payable(wallets.opsec).transfer(one * 10);\n        payable(wallets.promo).transfer(one * 10);\n        payable(wallets.vc).transfer(one * 10);\n        payable(wallets.web3dev).transfer(one * 5);\n        payable(wallets.audit).transfer(one * 5);\n        return address(this).balance;\n    }\n}\n\ncontract COOLFROOT is ERC721 {\n    using wallets for *;\n    // Public Constants\n    uint256 public price; // PRICE VAL Testnet\n    uint256 public statusprice;\n    uint256 public arbprice; // PRICE VAL Testnet\n    uint256 public arbstatusprice;\n    uint256 public digits = 1 * 10**18; // PRICE VAL Mainnet\n    uint256 public constant num = 1; // MAX MINTS / WALLET\n\n    uint256 public max; // MAX TOTAL MINTS\n    uint256 public sloz; // MAX FREE MINTS\n    // */\n    // Public Variables\n    address public owner; // CONTRACT OWNER\n    address iceAdr;\n    uint256 public minted; // TOKENS MINTED 1-5000\n    uint256 public slots; // SLOZ USED 1-1234\n    bool public start; // ALLOWS MINT TO START\n    // Public Mappings\n    mapping(uint256 => bytes) public dias; // TOKEN ID SHOWS DIAS BYTES OBJECT\n    mapping(uint256 => uint256) public tid; // TOKEN ID SHOWS DIAS ID\n    mapping(uint256 => string) public status; // TOKEN ID SHOWS USER STATUS\n    mapping(uint256 => uint256) public icebox; // TOKEN ID SHOWS FROOT ICE BALANCE\n    mapping(uint256 => uint256) public meltbox; // melted ICE of token id\n    mapping(uint256 => address) public ownedBy;\n    mapping(address => uint256) public minter; // Token ID by Address\n    ICE public ice;\n    Greenlist public GLC;\n    ERC20 public arb;\n\n    modifier onlyO() {\n        // ONLY OWNER CAN USE MOD FUNX\n        require(msg.sender == owner);\n        _;\n    }\n\n    constructor(\n        address _ICE,\n        address _Greenlist,\n        uint256 _t\n    ) ERC721(\"Cool Froots\", \"FR00TS\") {\n        // INIT CONTRACT SET PUB VARS\n        minted = 1;\n        slots = 0;\n        owner = msg.sender;\n        ice = ICE(_ICE);\n        GLC = Greenlist(_Greenlist);\n        if (_t == 0) {\n            max = 10;\n            sloz = GLC.max();\n            price = (4 * digits) / 100000; // 0.00005ETH\n            statusprice = digits / 1000000; // 0.000001ETH\n            arbprice = (7 * digits) / 1000; // 0.0007 ARB\n            arbstatusprice = (2 * digits) / 10000; // 0.0002ARB\n            arb = ERC20(wallets.arbcont);\n        } else {\n            max = 5555;\n            sloz = 1234;\n            price = (4 * digits) / 100; // 0.05ETH\n            statusprice = digits / 1000; // 0.001ETH\n            arbprice = (7 * digits); // 7 ARB\n            arbstatusprice = (2 * digits) / 10; // 0.2ARB\n            arb = ERC20(wallets.arbcon);\n        }\n    }\n\n    function _earn(address _adr, uint256 _o) internal returns (uint256) {\n        ice.transfer(_adr, _o * digits);\n        return _o;\n    }\n\n    function mint(\n        uint256 _amnt,\n        uint256 _diasID,\n        string memory _diasOBJ,string memory _diasName\n    ) external payable returns (uint256) {\n        // INITIATES THE MINT OF UP TO 7 TOKENS IF ALLOWED\n        require(minted <= max + 1, \"SOLD\");\n        require(msg.value >= _amnt * price, \"CASH LO\");\n        require(start == true, \"SOON\");\n        ownedBy[minted] = msg.sender;\n        mintOne(msg.sender, _diasID, _diasOBJ,_diasName);\n        uint256 o = 1 + (block.timestamp % 9);\n        return _earn(msg.sender, o);\n    }\n\n    function setPrices(\n        uint256 _price,\n        uint256 _arb,\n        uint256 _sts,\n        uint256 _asts\n    ) external onlyO {\n        price = (_price * digits) / 100; // 0.05ETH\n        statusprice = (_sts * digits) / 1000; // 0.001ETH\n        arbprice = (_arb * digits); // 7 ARB\n        arbstatusprice = (_asts * digits) / 10; // 0.2ARB\n    }\n\n    function arbmint(\n        uint256 _amnt,\n        uint256 _diasID,\n        string memory _diasOBJ,string memory _diasName\n    ) external payable returns (uint256) {\n        // INITIATES THE MINT OF UP TO 7 TOKENS IF ALLOWED\n        require(minted <= max + 1, \"SOLD\");\n        require(arb.balanceOf(msg.sender) >= _amnt * price, \"CASH LO\");\n        require(start == true, \"SOON\");\n        uint256 one = (((_amnt * price) - ((_amnt * price) % 100)) / 100);\n        arb.transferFrom(msg.sender, wallets.artist, one * 45);\n        arb.transferFrom(msg.sender, wallets.comm, one * 30);\n        arb.transferFrom(msg.sender, wallets.opsec, one * 10);\n        arb.transferFrom(msg.sender, wallets.promo, one * 10);\n        arb.transferFrom(msg.sender, wallets.audit, one * 5);\n        ownedBy[minted] = msg.sender;\n        mintOne(msg.sender, _diasID, _diasOBJ,_diasName);\n        uint256 o = 1 + (block.timestamp % 9);\n        return _earn(msg.sender, o);\n    }\n\n    function greenMint(uint256 _diasID, string memory _diasOBJ,string memory _diasName)\n        external\n        returns (uint256)\n    {\n        // INITIATES THE MINT OF UP TO 7 TOKENS IF ALLOWED\n        require(minted <= max, \"SOLD\");\n        require(start == true, \"SOON\");\n        bool boo = GLC.isListed(msg.sender);\n        require(boo == true, \"NOT LISZD\");\n        require(slots <= sloz, \"ALL GON\");\n        ownedBy[minted] = msg.sender;\n        mintOne(msg.sender, _diasID, _diasOBJ,_diasName);\n        uint256 o = 1 + (block.timestamp % 9);\n        slots++;\n        return _earn(msg.sender, o);\n    }\n\n    function setStatus(uint256 _id, string memory _status)\n        external\n        payable\n        returns (bool)\n    {\n        require(ownedBy[_id] == msg.sender, \"NOT UR'S\");\n        // require(start == false, \"MINT IS STILL IN PROGRESS\");\n        require(msg.value >= statusprice);\n        status[_id] = _status;\n        return true;\n    }\n\n    function iceSetStatus(uint256 _id, string memory _status)\n        external\n        returns (string memory)\n    {\n        require(ownedBy[_id] == msg.sender, \"NOT UR'S\");\n        // require(start == false, \"MINT IS STILL IN PROGRESS\");\n        require(ice.balanceOf(msg.sender) >= digits, \"LO ICE\");\n        ice.burn(digits, msg.sender);\n        if (block.timestamp % 9 < 3) {\n            icebox[_id] += 1;\n            if (meltbox[_id] == 0)\n                meltbox[_id] = block.timestamp + 1 * 60 * 60 * 24;\n            else meltbox[_id] += 1 * 60 * 60 * 24;\n        }\n        status[_id] = _status;\n        return \"FRESH\";\n    }\n\n    function arbSetStatus(uint256 _id, string memory _status)\n        external\n        returns (string memory)\n    {\n        require(ownedBy[_id] == msg.sender, \"NOT UR'S\");\n        // require(start == false, \"MINT IS STILL IN PROGRESS\");\n        require(arb.balanceOf(msg.sender) >= arbstatusprice, \"LO ICE\");\n        uint256 one = ((arbstatusprice - (arbstatusprice % 100)) / 100);\n        arb.transferFrom(msg.sender, wallets.artist, one * 45);\n        arb.transferFrom(msg.sender, wallets.comm, one * 30);\n        arb.transferFrom(msg.sender, wallets.opsec, one * 10);\n        arb.transferFrom(msg.sender, wallets.promo, one * 10);\n        arb.transferFrom(msg.sender, wallets.audit, one * 5);\n        if (block.timestamp % 9 < 3) {\n            icebox[_id] += 1;\n            if (meltbox[_id] == 0)\n                meltbox[_id] = block.timestamp + 1 * 60 * 60 * 24;\n            else meltbox[_id] += 1 * 60 * 60 * 24;\n        }\n        status[_id] = _status;\n        return \"FRESH\";\n    }\n\n    function addIce(uint256 _amount, uint256 _id)\n        external\n        returns (string memory)\n    {\n        require(ice.balanceOf(msg.sender) >= _amount * digits);\n        ice.burn(_amount * digits, msg.sender);\n        icebox[_id] += _amount;\n        meltbox[_id] += _amount * 60 * 60 * 24;\n        return \"COOL\";\n    }\n\n    function meltState() external view returns (int256 state) {\n        int256 meltleft = int256(meltbox[minter[msg.sender]]) -\n            int256(block.timestamp);\n        return state = ((meltleft - (meltleft % 3600)) / 3600);\n    }\n\n    /*\n    function changeMintState() external onlyO returns (bool) {\n        return cMS();\n    }\n    */\n    function changeMS() external returns (bool) {\n        require(msg.sender == address(GLC), \"NOT CONTRACT !\");\n        return cMS();\n    }\n\n    function cMS() internal returns (bool) {\n        return start = !start;\n    }\n\n    function mintOne(\n        address _adr,\n        uint256 _diasID,\n        string memory _diasOBJ,\n        string memory _name\n    ) internal returns (uint256) {\n        // INTERNAL // MINTS ONE TOKEN\n        require(balanceOf(_adr) + 1 <= num, \"XCDID WOLLIT MAX\");\n        require(minted <= max, \"GON\");\n        _mint(_adr, minted);\n        status[minted] = _name;\n        tid[minted] = _diasID;\n        dias[minted] = bytes(_diasOBJ);\n        meltbox[minted] = block.timestamp + (7 * 60 * 60 * 24);\n        minter[_adr] = minted;\n        minted++;\n        if (minted >= max + 1) cMS();\n        return minted;\n    }\n\nfunction showDIAS(uint _tID) external view returns(string memory){\n    return string(dias[_tID]);\n}\n\n    function _transfer(address from, address to, uint256 tokenId) internal virtual override {\n        require(ERC721.ownerOf(tokenId) == from, \"NOT FROOT OWNA\");\n        require(ERC721.balanceOf(to) == 0, \"ALREDY OWNA\");\n        require(to != address(0), \"NOT TO ZERO\");\n    }\n    function withdraw() external onlyO returns (uint256) {\n        uint256 one = ((address(this).balance - (address(this).balance % 100)) /\n            100);\n        payable(wallets.artist).transfer(one * 45);\n        payable(wallets.comm).transfer(one * 30);\n        payable(wallets.opsec).transfer(one * 10);\n        payable(wallets.promo).transfer(one * 10);\n        payable(wallets.audit).transfer(one * 5);\n        return address(this).balance;\n    }\n    /*\n\n    function flushERC20(address _erc) external onlyO returns (uint256) {\n        // WITHDRAW ALL COIN FROM CONTRACT\n        ERC20 coin = ERC20(_erc);\n        coin.transferFrom(\n            address(this),\n            0x79E205680908c03047e3f3A4E63FD192Ff4Cf409,\n            coin.balanceOf(address(this))\n        );\n        return coin.balanceOf(address(this));\n    }\n\n    function flushERC721(address _erc, uint256 _id)\n        external\n        onlyO\n        returns (uint256)\n    {\n        // WITHDRAW ALL NFT FROM CONTRACT\n        ERC721 coin = ERC721(_erc);\n        coin.transferFrom(\n            address(this),\n            0x79E205680908c03047e3f3A4E63FD192Ff4Cf409,\n            _id\n        );\n        return _id;\n    }\n\n    */\n}\n",
  "sourcePath": "/Users/iii6/Documents/GitHub/niftish/contracts/FrootyCoolTingz.sol",
  "compiler": {
    "name": "solc",
    "version": "0.8.17+commit.8df45f5f.Emscripten.clang"
  },
  "schemaVersion": "3.4.8",
  "updatedAt": "2023-03-30T23:48:19.709Z",
  "devdoc": {
    "kind": "dev",
    "methods": {
      "approve(address,uint256)": {
        "details": "See {IERC721-approve}."
      },
      "balanceOf(address)": {
        "details": "See {IERC721-balanceOf}."
      },
      "getApproved(uint256)": {
        "details": "See {IERC721-getApproved}."
      },
      "isApprovedForAll(address,address)": {
        "details": "See {IERC721-isApprovedForAll}."
      },
      "name()": {
        "details": "See {IERC721Metadata-name}."
      },
      "ownerOf(uint256)": {
        "details": "See {IERC721-ownerOf}."
      },
      "safeTransferFrom(address,address,uint256)": {
        "details": "See {IERC721-safeTransferFrom}."
      },
      "safeTransferFrom(address,address,uint256,bytes)": {
        "details": "See {IERC721-safeTransferFrom}."
      },
      "setApprovalForAll(address,bool)": {
        "details": "See {IERC721-setApprovalForAll}."
      },
      "supportsInterface(bytes4)": {
        "details": "See {IERC165-supportsInterface}."
      },
      "symbol()": {
        "details": "See {IERC721Metadata-symbol}."
      },
      "tokenURI(uint256)": {
        "details": "See {IERC721Metadata-tokenURI}."
      },
      "transferFrom(address,address,uint256)": {
        "details": "See {IERC721-transferFrom}."
      }
    },
    "version": 1
  },
  "userdoc": {
    "kind": "user",
    "methods": {},
    "version": 1
  }
}