{
  "contractName": "COOLFROOT",
  "abi": [
    {
      "inputs": [
        {
          "internalType": "address",
          "name": "_ICE",
          "type": "address"
        },
        {
          "internalType": "address",
          "name": "_Greenlist",
          "type": "address"
        },
        {
          "internalType": "uint256",
          "name": "_t",
          "type": "uint256"
        }
      ],
      "stateMutability": "nonpayable",
      "type": "constructor"
    },
    {
      "anonymous": false,
      "inputs": [
        {
          "indexed": true,
          "internalType": "address",
          "name": "owner",
          "type": "address"
        },
        {
          "indexed": true,
          "internalType": "address",
          "name": "approved",
          "type": "address"
        },
        {
          "indexed": true,
          "internalType": "uint256",
          "name": "tokenId",
          "type": "uint256"
        }
      ],
      "name": "Approval",
      "type": "event"
    },
    {
      "anonymous": false,
      "inputs": [
        {
          "indexed": true,
          "internalType": "address",
          "name": "owner",
          "type": "address"
        },
        {
          "indexed": true,
          "internalType": "address",
          "name": "operator",
          "type": "address"
        },
        {
          "indexed": false,
          "internalType": "bool",
          "name": "approved",
          "type": "bool"
        }
      ],
      "name": "ApprovalForAll",
      "type": "event"
    },
    {
      "anonymous": false,
      "inputs": [
        {
          "indexed": true,
          "internalType": "address",
          "name": "from",
          "type": "address"
        },
        {
          "indexed": true,
          "internalType": "address",
          "name": "to",
          "type": "address"
        },
        {
          "indexed": true,
          "internalType": "uint256",
          "name": "tokenId",
          "type": "uint256"
        }
      ],
      "name": "Transfer",
      "type": "event"
    },
    {
      "inputs": [],
      "name": "GLC",
      "outputs": [
        {
          "internalType": "contract Greenlist",
          "name": "",
          "type": "address"
        }
      ],
      "stateMutability": "view",
      "type": "function",
      "constant": true
    },
    {
      "inputs": [
        {
          "internalType": "address",
          "name": "to",
          "type": "address"
        },
        {
          "internalType": "uint256",
          "name": "tokenId",
          "type": "uint256"
        }
      ],
      "name": "approve",
      "outputs": [],
      "stateMutability": "nonpayable",
      "type": "function"
    },
    {
      "inputs": [],
      "name": "arb",
      "outputs": [
        {
          "internalType": "contract ERC20",
          "name": "",
          "type": "address"
        }
      ],
      "stateMutability": "view",
      "type": "function",
      "constant": true
    },
    {
      "inputs": [],
      "name": "arbprice",
      "outputs": [
        {
          "internalType": "uint256",
          "name": "",
          "type": "uint256"
        }
      ],
      "stateMutability": "view",
      "type": "function",
      "constant": true
    },
    {
      "inputs": [],
      "name": "arbstatusprice",
      "outputs": [
        {
          "internalType": "uint256",
          "name": "",
          "type": "uint256"
        }
      ],
      "stateMutability": "view",
      "type": "function",
      "constant": true
    },
    {
      "inputs": [
        {
          "internalType": "address",
          "name": "owner",
          "type": "address"
        }
      ],
      "name": "balanceOf",
      "outputs": [
        {
          "internalType": "uint256",
          "name": "",
          "type": "uint256"
        }
      ],
      "stateMutability": "view",
      "type": "function",
      "constant": true
    },
    {
      "inputs": [
        {
          "internalType": "uint256",
          "name": "",
          "type": "uint256"
        }
      ],
      "name": "dias",
      "outputs": [
        {
          "internalType": "bytes",
          "name": "",
          "type": "bytes"
        }
      ],
      "stateMutability": "view",
      "type": "function",
      "constant": true
    },
    {
      "inputs": [],
      "name": "digits",
      "outputs": [
        {
          "internalType": "uint256",
          "name": "",
          "type": "uint256"
        }
      ],
      "stateMutability": "view",
      "type": "function",
      "constant": true
    },
    {
      "inputs": [
        {
          "internalType": "uint256",
          "name": "tokenId",
          "type": "uint256"
        }
      ],
      "name": "getApproved",
      "outputs": [
        {
          "internalType": "address",
          "name": "",
          "type": "address"
        }
      ],
      "stateMutability": "view",
      "type": "function",
      "constant": true
    },
    {
      "inputs": [],
      "name": "ice",
      "outputs": [
        {
          "internalType": "contract ICE",
          "name": "",
          "type": "address"
        }
      ],
      "stateMutability": "view",
      "type": "function",
      "constant": true
    },
    {
      "inputs": [
        {
          "internalType": "uint256",
          "name": "",
          "type": "uint256"
        }
      ],
      "name": "icebox",
      "outputs": [
        {
          "internalType": "uint256",
          "name": "",
          "type": "uint256"
        }
      ],
      "stateMutability": "view",
      "type": "function",
      "constant": true
    },
    {
      "inputs": [
        {
          "internalType": "address",
          "name": "owner",
          "type": "address"
        },
        {
          "internalType": "address",
          "name": "operator",
          "type": "address"
        }
      ],
      "name": "isApprovedForAll",
      "outputs": [
        {
          "internalType": "bool",
          "name": "",
          "type": "bool"
        }
      ],
      "stateMutability": "view",
      "type": "function",
      "constant": true
    },
    {
      "inputs": [],
      "name": "max",
      "outputs": [
        {
          "internalType": "uint256",
          "name": "",
          "type": "uint256"
        }
      ],
      "stateMutability": "view",
      "type": "function",
      "constant": true
    },
    {
      "inputs": [
        {
          "internalType": "uint256",
          "name": "",
          "type": "uint256"
        }
      ],
      "name": "meltbox",
      "outputs": [
        {
          "internalType": "uint256",
          "name": "",
          "type": "uint256"
        }
      ],
      "stateMutability": "view",
      "type": "function",
      "constant": true
    },
    {
      "inputs": [],
      "name": "minted",
      "outputs": [
        {
          "internalType": "uint256",
          "name": "",
          "type": "uint256"
        }
      ],
      "stateMutability": "view",
      "type": "function",
      "constant": true
    },
    {
      "inputs": [
        {
          "internalType": "address",
          "name": "",
          "type": "address"
        }
      ],
      "name": "minter",
      "outputs": [
        {
          "internalType": "uint256",
          "name": "",
          "type": "uint256"
        }
      ],
      "stateMutability": "view",
      "type": "function",
      "constant": true
    },
    {
      "inputs": [],
      "name": "nam",
      "outputs": [
        {
          "internalType": "string",
          "name": "",
          "type": "string"
        }
      ],
      "stateMutability": "view",
      "type": "function",
      "constant": true
    },
    {
      "inputs": [],
      "name": "name",
      "outputs": [
        {
          "internalType": "string",
          "name": "",
          "type": "string"
        }
      ],
      "stateMutability": "view",
      "type": "function",
      "constant": true
    },
    {
      "inputs": [],
      "name": "num",
      "outputs": [
        {
          "internalType": "uint256",
          "name": "",
          "type": "uint256"
        }
      ],
      "stateMutability": "view",
      "type": "function",
      "constant": true
    },
    {
      "inputs": [
        {
          "internalType": "uint256",
          "name": "",
          "type": "uint256"
        }
      ],
      "name": "ownedBy",
      "outputs": [
        {
          "internalType": "address",
          "name": "",
          "type": "address"
        }
      ],
      "stateMutability": "view",
      "type": "function",
      "constant": true
    },
    {
      "inputs": [],
      "name": "owner",
      "outputs": [
        {
          "internalType": "address",
          "name": "",
          "type": "address"
        }
      ],
      "stateMutability": "view",
      "type": "function",
      "constant": true
    },
    {
      "inputs": [
        {
          "internalType": "uint256",
          "name": "tokenId",
          "type": "uint256"
        }
      ],
      "name": "ownerOf",
      "outputs": [
        {
          "internalType": "address",
          "name": "",
          "type": "address"
        }
      ],
      "stateMutability": "view",
      "type": "function",
      "constant": true
    },
    {
      "inputs": [],
      "name": "price",
      "outputs": [
        {
          "internalType": "uint256",
          "name": "",
          "type": "uint256"
        }
      ],
      "stateMutability": "view",
      "type": "function",
      "constant": true
    },
    {
      "inputs": [
        {
          "internalType": "address",
          "name": "from",
          "type": "address"
        },
        {
          "internalType": "address",
          "name": "to",
          "type": "address"
        },
        {
          "internalType": "uint256",
          "name": "tokenId",
          "type": "uint256"
        }
      ],
      "name": "safeTransferFrom",
      "outputs": [],
      "stateMutability": "nonpayable",
      "type": "function"
    },
    {
      "inputs": [
        {
          "internalType": "address",
          "name": "from",
          "type": "address"
        },
        {
          "internalType": "address",
          "name": "to",
          "type": "address"
        },
        {
          "internalType": "uint256",
          "name": "tokenId",
          "type": "uint256"
        },
        {
          "internalType": "bytes",
          "name": "_data",
          "type": "bytes"
        }
      ],
      "name": "safeTransferFrom",
      "outputs": [],
      "stateMutability": "nonpayable",
      "type": "function"
    },
    {
      "inputs": [
        {
          "internalType": "address",
          "name": "operator",
          "type": "address"
        },
        {
          "internalType": "bool",
          "name": "approved",
          "type": "bool"
        }
      ],
      "name": "setApprovalForAll",
      "outputs": [],
      "stateMutability": "nonpayable",
      "type": "function"
    },
    {
      "inputs": [],
      "name": "slots",
      "outputs": [
        {
          "internalType": "uint256",
          "name": "",
          "type": "uint256"
        }
      ],
      "stateMutability": "view",
      "type": "function",
      "constant": true
    },
    {
      "inputs": [],
      "name": "sloz",
      "outputs": [
        {
          "internalType": "uint256",
          "name": "",
          "type": "uint256"
        }
      ],
      "stateMutability": "view",
      "type": "function",
      "constant": true
    },
    {
      "inputs": [],
      "name": "start",
      "outputs": [
        {
          "internalType": "bool",
          "name": "",
          "type": "bool"
        }
      ],
      "stateMutability": "view",
      "type": "function",
      "constant": true
    },
    {
      "inputs": [
        {
          "internalType": "uint256",
          "name": "",
          "type": "uint256"
        }
      ],
      "name": "status",
      "outputs": [
        {
          "internalType": "string",
          "name": "",
          "type": "string"
        }
      ],
      "stateMutability": "view",
      "type": "function",
      "constant": true
    },
    {
      "inputs": [],
      "name": "statusprice",
      "outputs": [
        {
          "internalType": "uint256",
          "name": "",
          "type": "uint256"
        }
      ],
      "stateMutability": "view",
      "type": "function",
      "constant": true
    },
    {
      "inputs": [
        {
          "internalType": "bytes4",
          "name": "interfaceId",
          "type": "bytes4"
        }
      ],
      "name": "supportsInterface",
      "outputs": [
        {
          "internalType": "bool",
          "name": "",
          "type": "bool"
        }
      ],
      "stateMutability": "view",
      "type": "function",
      "constant": true
    },
    {
      "inputs": [],
      "name": "sym",
      "outputs": [
        {
          "internalType": "string",
          "name": "",
          "type": "string"
        }
      ],
      "stateMutability": "view",
      "type": "function",
      "constant": true
    },
    {
      "inputs": [],
      "name": "symbol",
      "outputs": [
        {
          "internalType": "string",
          "name": "",
          "type": "string"
        }
      ],
      "stateMutability": "view",
      "type": "function",
      "constant": true
    },
    {
      "inputs": [
        {
          "internalType": "uint256",
          "name": "",
          "type": "uint256"
        }
      ],
      "name": "tid",
      "outputs": [
        {
          "internalType": "uint256",
          "name": "",
          "type": "uint256"
        }
      ],
      "stateMutability": "view",
      "type": "function",
      "constant": true
    },
    {
      "inputs": [
        {
          "internalType": "uint256",
          "name": "tokenId",
          "type": "uint256"
        }
      ],
      "name": "tokenURI",
      "outputs": [
        {
          "internalType": "string",
          "name": "",
          "type": "string"
        }
      ],
      "stateMutability": "view",
      "type": "function",
      "constant": true
    },
    {
      "inputs": [
        {
          "internalType": "address",
          "name": "from",
          "type": "address"
        },
        {
          "internalType": "address",
          "name": "to",
          "type": "address"
        },
        {
          "internalType": "uint256",
          "name": "tokenId",
          "type": "uint256"
        }
      ],
      "name": "transferFrom",
      "outputs": [],
      "stateMutability": "nonpayable",
      "type": "function"
    },
    {
      "inputs": [
        {
          "internalType": "address",
          "name": "_adr",
          "type": "address"
        }
      ],
      "name": "isOwner",
      "outputs": [
        {
          "internalType": "bool",
          "name": "",
          "type": "bool"
        }
      ],
      "stateMutability": "view",
      "type": "function",
      "constant": true
    },
    {
      "inputs": [
        {
          "internalType": "uint256",
          "name": "_amnt",
          "type": "uint256"
        },
        {
          "internalType": "uint256[]",
          "name": "_diasIDs",
          "type": "uint256[]"
        },
        {
          "internalType": "string[]",
          "name": "_diasOBJs",
          "type": "string[]"
        }
      ],
      "name": "mint",
      "outputs": [
        {
          "internalType": "uint256",
          "name": "",
          "type": "uint256"
        }
      ],
      "stateMutability": "payable",
      "type": "function",
      "payable": true
    },
    {
      "inputs": [
        {
          "internalType": "uint256",
          "name": "_price",
          "type": "uint256"
        },
        {
          "internalType": "uint256",
          "name": "_arb",
          "type": "uint256"
        },
        {
          "internalType": "uint256",
          "name": "_sts",
          "type": "uint256"
        },
        {
          "internalType": "uint256",
          "name": "_asts",
          "type": "uint256"
        }
      ],
      "name": "setPrices",
      "outputs": [],
      "stateMutability": "nonpayable",
      "type": "function"
    },
    {
      "inputs": [
        {
          "internalType": "address",
          "name": "_arb",
          "type": "address"
        }
      ],
      "name": "setARB",
      "outputs": [],
      "stateMutability": "nonpayable",
      "type": "function"
    },
    {
      "inputs": [
        {
          "internalType": "uint256",
          "name": "_amnt",
          "type": "uint256"
        },
        {
          "internalType": "uint256[]",
          "name": "_diasIDs",
          "type": "uint256[]"
        },
        {
          "internalType": "string[]",
          "name": "_diasOBJs",
          "type": "string[]"
        }
      ],
      "name": "arbmint",
      "outputs": [
        {
          "internalType": "uint256",
          "name": "",
          "type": "uint256"
        }
      ],
      "stateMutability": "payable",
      "type": "function",
      "payable": true
    },
    {
      "inputs": [
        {
          "internalType": "uint256[]",
          "name": "_diasIDs",
          "type": "uint256[]"
        },
        {
          "internalType": "string[]",
          "name": "_diasOBJs",
          "type": "string[]"
        }
      ],
      "name": "greenMint",
      "outputs": [
        {
          "internalType": "uint256",
          "name": "",
          "type": "uint256"
        }
      ],
      "stateMutability": "nonpayable",
      "type": "function"
    },
    {
      "inputs": [
        {
          "internalType": "uint256",
          "name": "_id",
          "type": "uint256"
        },
        {
          "internalType": "string",
          "name": "_status",
          "type": "string"
        }
      ],
      "name": "setStatus",
      "outputs": [
        {
          "internalType": "bool",
          "name": "",
          "type": "bool"
        }
      ],
      "stateMutability": "payable",
      "type": "function",
      "payable": true
    },
    {
      "inputs": [
        {
          "internalType": "uint256",
          "name": "_id",
          "type": "uint256"
        },
        {
          "internalType": "string",
          "name": "_status",
          "type": "string"
        }
      ],
      "name": "iceSetStatus",
      "outputs": [
        {
          "internalType": "string",
          "name": "",
          "type": "string"
        }
      ],
      "stateMutability": "nonpayable",
      "type": "function"
    },
    {
      "inputs": [
        {
          "internalType": "uint256",
          "name": "_id",
          "type": "uint256"
        },
        {
          "internalType": "string",
          "name": "_status",
          "type": "string"
        }
      ],
      "name": "arbSetStatus",
      "outputs": [
        {
          "internalType": "string",
          "name": "",
          "type": "string"
        }
      ],
      "stateMutability": "nonpayable",
      "type": "function"
    },
    {
      "inputs": [
        {
          "internalType": "uint256",
          "name": "_amount",
          "type": "uint256"
        },
        {
          "internalType": "uint256",
          "name": "_id",
          "type": "uint256"
        }
      ],
      "name": "addIce",
      "outputs": [
        {
          "internalType": "string",
          "name": "",
          "type": "string"
        }
      ],
      "stateMutability": "nonpayable",
      "type": "function"
    },
    {
      "inputs": [],
      "name": "meltState",
      "outputs": [
        {
          "internalType": "int256",
          "name": "state",
          "type": "int256"
        }
      ],
      "stateMutability": "view",
      "type": "function",
      "constant": true
    },
    {
      "inputs": [],
      "name": "changeMintState",
      "outputs": [
        {
          "internalType": "bool",
          "name": "",
          "type": "bool"
        }
      ],
      "stateMutability": "nonpayable",
      "type": "function"
    },
    {
      "inputs": [],
      "name": "changeMS",
      "outputs": [
        {
          "internalType": "bool",
          "name": "",
          "type": "bool"
        }
      ],
      "stateMutability": "nonpayable",
      "type": "function"
    },
    {
      "inputs": [
        {
          "internalType": "uint256",
          "name": "_id",
          "type": "uint256"
        }
      ],
      "name": "holder",
      "outputs": [
        {
          "internalType": "address",
          "name": "",
          "type": "address"
        }
      ],
      "stateMutability": "view",
      "type": "function",
      "constant": true
    },
    {
      "inputs": [],
      "name": "clearSloz",
      "outputs": [
        {
          "internalType": "bool",
          "name": "",
          "type": "bool"
        }
      ],
      "stateMutability": "nonpayable",
      "type": "function"
    },
    {
      "inputs": [],
      "name": "withdraw",
      "outputs": [
        {
          "internalType": "uint256",
          "name": "",
          "type": "uint256"
        }
      ],
      "stateMutability": "nonpayable",
      "type": "function"
    }
  ],
  "bytecode": "0x6080604052670de0b6b3a7640000600a553480156200001d57600080fd5b50604051620068ca380380620068ca8339818101604052810190620000439190620004ac565b6040518060400160405280600b81526020017f436f6f6c2046726f6f74730000000000000000000000000000000000000000008152506040518060400160405280600681526020017f46523030545300000000000000000000000000000000000000000000000000008152508160009081620000c0919062000778565b508060019081620000d2919062000778565b5050506001600f81905550600060128190555033600d60006101000a81548173ffffffffffffffffffffffffffffffffffffffff021916908373ffffffffffffffffffffffffffffffffffffffff1602179055506040518060400160405280600b81526020017f436f6f6c2046726f6f7473000000000000000000000000000000000000000000815250601090816200016c919062000778565b506040518060400160405280600681526020017f46524f4f5453000000000000000000000000000000000000000000000000000081525060119081620001b3919062000778565b5082601b60006101000a81548173ffffffffffffffffffffffffffffffffffffffff021916908373ffffffffffffffffffffffffffffffffffffffff16021790555081601c60006101000a81548173ffffffffffffffffffffffffffffffffffffffff021916908373ffffffffffffffffffffffffffffffffffffffff1602179055506000810362000373576032600b81905550601c60009054906101000a900473ffffffffffffffffffffffffffffffffffffffff1673ffffffffffffffffffffffffffffffffffffffff16636ac5db196040518163ffffffff1660e01b8152600401602060405180830381865afa158015620002b5573d6000803e3d6000fd5b505050506040513d601f19601f82011682018060405250810190620002db91906200085f565b600c81905550620186a0600a546004620002f69190620008c0565b6200030291906200093a565b600681905550620f4240600a546200031b91906200093a565b6007819055506103e8600a546007620003359190620008c0565b6200034191906200093a565b600881905550612710600a5460026200035b9190620008c0565b6200036791906200093a565b600981905550620003fe565b6115b3600b819055506104d2600c819055506064600a546004620003989190620008c0565b620003a491906200093a565b6006819055506103e8600a54620003bc91906200093a565b600781905550600a546007620003d39190620008c0565b600881905550600a80546002620003eb9190620008c0565b620003f791906200093a565b6009819055505b50505062000972565b600080fd5b600073ffffffffffffffffffffffffffffffffffffffff82169050919050565b600062000439826200040c565b9050919050565b6200044b816200042c565b81146200045757600080fd5b50565b6000815190506200046b8162000440565b92915050565b6000819050919050565b620004868162000471565b81146200049257600080fd5b50565b600081519050620004a6816200047b565b92915050565b600080600060608486031215620004c857620004c762000407565b5b6000620004d8868287016200045a565b9350506020620004eb868287016200045a565b9250506040620004fe8682870162000495565b9150509250925092565b600081519050919050565b7f4e487b7100000000000000000000000000000000000000000000000000000000600052604160045260246000fd5b7f4e487b7100000000000000000000000000000000000000000000000000000000600052602260045260246000fd5b600060028204905060018216806200058a57607f821691505b602082108103620005a0576200059f62000542565b5b50919050565b60008190508160005260206000209050919050565b60006020601f8301049050919050565b600082821b905092915050565b6000600883026200060a7fffffffffffffffffffffffffffffffffffffffffffffffffffffffffffffffff82620005cb565b620006168683620005cb565b95508019841693508086168417925050509392505050565b6000819050919050565b600062000659620006536200064d8462000471565b6200062e565b62000471565b9050919050565b6000819050919050565b620006758362000638565b6200068d620006848262000660565b848454620005d8565b825550505050565b600090565b620006a462000695565b620006b18184846200066a565b505050565b5b81811015620006d957620006cd6000826200069a565b600181019050620006b7565b5050565b601f8211156200072857620006f281620005a6565b620006fd84620005bb565b810160208510156200070d578190505b620007256200071c85620005bb565b830182620006b6565b50505b505050565b600082821c905092915050565b60006200074d600019846008026200072d565b1980831691505092915050565b60006200076883836200073a565b9150826002028217905092915050565b620007838262000508565b67ffffffffffffffff8111156200079f576200079e62000513565b5b620007ab825462000571565b620007b8828285620006dd565b600060209050601f831160018114620007f05760008415620007db578287015190505b620007e785826200075a565b86555062000857565b601f1984166200080086620005a6565b60005b828110156200082a5784890151825560018201915060208501945060208101905062000803565b868310156200084a578489015162000846601f8916826200073a565b8355505b6001600288020188555050505b505050505050565b60006020828403121562000878576200087762000407565b5b6000620008888482850162000495565b91505092915050565b7f4e487b7100000000000000000000000000000000000000000000000000000000600052601160045260246000fd5b6000620008cd8262000471565b9150620008da8362000471565b9250828202620008ea8162000471565b9150828204841483151762000904576200090362000891565b5b5092915050565b7f4e487b7100000000000000000000000000000000000000000000000000000000600052601260045260246000fd5b6000620009478262000471565b9150620009548362000471565b9250826200096757620009666200090b565b5b828204905092915050565b615f4880620009826000396000f3fe60806040526004361061031a5760003560e01c806380142754116101ab578063acb5fedf116100f7578063ca88485911610095578063e3c44ff71161006f578063e3c44ff714610c8d578063e985e9c514610cb8578063ea25b61d14610cf5578063f62d8dfb14610d205761031a565b8063ca88485914610bf7578063d64b3ae814610c27578063d8e8685414610c645761031a565b8063b88d4fde116100d1578063b88d4fde14610b29578063ba899a2e14610b52578063be9a655514610b8f578063c87b56dd14610bba5761031a565b8063acb5fedf14610a96578063ae943abc14610ac1578063b524fd6f14610afe5761031a565b80639e20437c11610164578063a613e0e71161013e578063a613e0e7146109b4578063a9700e1f146109f1578063aa1ee94014610a1c578063ac0d408414610a595761031a565b80639e20437c14610935578063a035b1fe14610960578063a22cb4651461098b5761031a565b8063801427541461082157806383813a281461084c5780638da5cb5b1461087757806395d89b41146108a25780639af9bec0146108cd5780639b4f589f146108f85761031a565b806342d21ef71161026a5780636352211e1161022357806370a08231116101fd57806370a082311461074e57806376917df91461078b5780637cbca3e0146107bb5780637d23b33c146107e45761031a565b80636352211e146106bb5780636ac5db19146106f85780636f743acd146107235761031a565b806342d21ef7146105a757806348547d69146105e45780634c2a860d1461060f5780634e70b1dc1461063a5780634f02c420146106655780635395acd2146106905761031a565b806323b872dd116102d75780633b8d676f116102b15780633b8d676f146104eb5780633ccfd60b146105165780633dd08c381461054157806342842e0e1461057e5761031a565b806323b872dd146104485780632ce56773146104715780632f54bf6e146104ae5761031a565b806301ffc9a71461031f57806306390d6c1461035c57806306fdde0314610387578063081812fc146103b2578063095ea7b3146103ef57806320a7270d14610418575b600080fd5b34801561032b57600080fd5b5061034660048036038101906103419190613ec8565b610d5d565b6040516103539190613f10565b60405180910390f35b34801561036857600080fd5b50610371610e3f565b60405161037e9190613f44565b60405180910390f35b34801561039357600080fd5b5061039c610e45565b6040516103a99190613fef565b60405180910390f35b3480156103be57600080fd5b506103d960048036038101906103d4919061403d565b610ed7565b6040516103e691906140ab565b60405180910390f35b3480156103fb57600080fd5b50610416600480360381019061041191906140f2565b610f5c565b005b610432600480360381019061042d9190614410565b611073565b60405161043f9190613f44565b60405180910390f35b34801561045457600080fd5b5061046f600480360381019061046a919061449b565b611200565b005b34801561047d57600080fd5b50610498600480360381019061049391906144ee565b611260565b6040516104a59190613fef565b60405180910390f35b3480156104ba57600080fd5b506104d560048036038101906104d0919061454a565b61159a565b6040516104e29190613f10565b60405180910390f35b3480156104f757600080fd5b50610500611604565b60405161050d9190613f10565b60405180910390f35b34801561052257600080fd5b5061052b6116a3565b6040516105389190613f44565b60405180910390f35b34801561054d57600080fd5b506105686004803603810190610563919061454a565b6117fb565b6040516105759190613f44565b60405180910390f35b34801561058a57600080fd5b506105a560048036038101906105a0919061449b565b611813565b005b3480156105b357600080fd5b506105ce60048036038101906105c9919061403d565b611833565b6040516105db9190613fef565b60405180910390f35b3480156105f057600080fd5b506105f96118d3565b6040516106069190613f44565b60405180910390f35b34801561061b57600080fd5b506106246118d9565b60405161063191906145d6565b60405180910390f35b34801561064657600080fd5b5061064f6118ff565b60405161065c9190613f44565b60405180910390f35b34801561067157600080fd5b5061067a611904565b6040516106879190613f44565b60405180910390f35b34801561069c57600080fd5b506106a561190a565b6040516106b29190613f44565b60405180910390f35b3480156106c757600080fd5b506106e260048036038101906106dd919061403d565b611910565b6040516106ef91906140ab565b60405180910390f35b34801561070457600080fd5b5061070d6119c1565b60405161071a9190613f44565b60405180910390f35b34801561072f57600080fd5b506107386119c7565b6040516107459190613f44565b60405180910390f35b34801561075a57600080fd5b506107756004803603810190610770919061454a565b6119cd565b6040516107829190613f44565b60405180910390f35b6107a560048036038101906107a091906144ee565b611a84565b6040516107b29190613f10565b60405180910390f35b3480156107c757600080fd5b506107e260048036038101906107dd919061454a565b611b61565b005b3480156107f057600080fd5b5061080b600480360381019061080691906145f1565b611bff565b6040516108189190613f44565b60405180910390f35b34801561082d57600080fd5b50610836611e77565b6040516108439190614682565b60405180910390f35b34801561085857600080fd5b50610861611f04565b60405161086e9190613fef565b60405180910390f35b34801561088357600080fd5b5061088c611f92565b60405161089991906140ab565b60405180910390f35b3480156108ae57600080fd5b506108b7611fb8565b6040516108c49190613fef565b60405180910390f35b3480156108d957600080fd5b506108e261204a565b6040516108ef9190613fef565b60405180910390f35b34801561090457600080fd5b5061091f600480360381019061091a919061403d565b6120d8565b60405161092c91906146f2565b60405180910390f35b34801561094157600080fd5b5061094a612178565b6040516109579190613f44565b60405180910390f35b34801561096c57600080fd5b5061097561217e565b6040516109829190613f44565b60405180910390f35b34801561099757600080fd5b506109b260048036038101906109ad9190614740565b612184565b005b3480156109c057600080fd5b506109db60048036038101906109d6919061403d565b61219a565b6040516109e891906140ab565b60405180910390f35b3480156109fd57600080fd5b50610a066121cd565b604051610a1391906147a1565b60405180910390f35b348015610a2857600080fd5b50610a436004803603810190610a3e919061403d565b6121f3565b604051610a509190613f44565b60405180910390f35b348015610a6557600080fd5b50610a806004803603810190610a7b91906147bc565b61220b565b604051610a8d9190613fef565b60405180910390f35b348015610aa257600080fd5b50610aab612425565b604051610ab8919061481d565b60405180910390f35b348015610acd57600080fd5b50610ae86004803603810190610ae3919061403d565b61244b565b604051610af59190613f44565b60405180910390f35b348015610b0a57600080fd5b50610b13612463565b604051610b209190613f10565b60405180910390f35b348015610b3557600080fd5b50610b506004803603810190610b4b91906148d9565b6124cc565b005b348015610b5e57600080fd5b50610b796004803603810190610b74919061403d565b61252e565b604051610b8691906140ab565b60405180910390f35b348015610b9b57600080fd5b50610ba461256b565b604051610bb19190613f10565b60405180910390f35b348015610bc657600080fd5b50610be16004803603810190610bdc919061403d565b61257e565b604051610bee9190613fef565b60405180910390f35b610c116004803603810190610c0c9190614410565b612625565b604051610c1e9190613f44565b60405180910390f35b348015610c3357600080fd5b50610c4e6004803603810190610c49919061403d565b612a15565b604051610c5b9190613f44565b60405180910390f35b348015610c7057600080fd5b50610c8b6004803603810190610c86919061495c565b612a2d565b005b348015610c9957600080fd5b50610ca2612aa9565b604051610caf9190613f44565b60405180910390f35b348015610cc457600080fd5b50610cdf6004803603810190610cda91906149c3565b612aaf565b604051610cec9190613f10565b60405180910390f35b348015610d0157600080fd5b50610d0a612b43565b604051610d179190613f10565b60405180910390f35b348015610d2c57600080fd5b50610d476004803603810190610d4291906144ee565b612b55565b604051610d549190613fef565b60405180910390f35b60007f80ac58cd000000000000000000000000000000000000000000000000000000007bffffffffffffffffffffffffffffffffffffffffffffffffffffffff1916827bffffffffffffffffffffffffffffffffffffffffffffffffffffffff19161480610e2857507f5b5e139f000000000000000000000000000000000000000000000000000000007bffffffffffffffffffffffffffffffffffffffffffffffffffffffff1916827bffffffffffffffffffffffffffffffffffffffffffffffffffffffff1916145b80610e385750610e3782612ff4565b5b9050919050565b60075481565b606060008054610e5490614a32565b80601f0160208091040260200160405190810160405280929190818152602001828054610e8090614a32565b8015610ecd5780601f10610ea257610100808354040283529160200191610ecd565b820191906000526020600020905b815481529060010190602001808311610eb057829003601f168201915b5050505050905090565b6000610ee28261305e565b610f21576040517f08c379a0000000000000000000000000000000000000000000000000000000008152600401610f1890614ad5565b60405180910390fd5b6004600083815260200190815260200160002060009054906101000a900473ffffffffffffffffffffffffffffffffffffffff169050919050565b6000610f6782611910565b90508073ffffffffffffffffffffffffffffffffffffffff168373ffffffffffffffffffffffffffffffffffffffff1603610fd7576040517f08c379a0000000000000000000000000000000000000000000000000000000008152600401610fce90614b67565b60405180910390fd5b8073ffffffffffffffffffffffffffffffffffffffff16610ff66130ca565b73ffffffffffffffffffffffffffffffffffffffff16148061102557506110248161101f6130ca565b612aaf565b5b611064576040517f08c379a000000000000000000000000000000000000000000000000000000000815260040161105b90614bf9565b60405180910390fd5b61106e83836130d2565b505050565b60006001600b546110849190614c48565b600f5411156110c8576040517f08c379a00000000000000000000000000000000000000000000000000000000081526004016110bf90614cc8565b60405180910390fd5b600654846110d69190614ce8565b341015611118576040517f08c379a000000000000000000000000000000000000000000000000000000000815260040161110f90614d76565b60405180910390fd5b60011515601360009054906101000a900460ff1615151461116e576040517f08c379a000000000000000000000000000000000000000000000000000000000815260040161116590614de2565b60405180910390fd5b3360196000600f54815260200190815260200160002060006101000a81548173ffffffffffffffffffffffffffffffffffffffff021916908373ffffffffffffffffffffffffffffffffffffffff1602179055506111ce8433858561318b565b5060006009426111de9190614e31565b60016111ea9190614c48565b90506111f63382613291565b9150509392505050565b61121161120b6130ca565b8261334a565b611250576040517f08c379a000000000000000000000000000000000000000000000000000000000815260040161124790614ed4565b60405180910390fd5b61125b838383613428565b505050565b60603373ffffffffffffffffffffffffffffffffffffffff166019600085815260200190815260200160002060009054906101000a900473ffffffffffffffffffffffffffffffffffffffff1673ffffffffffffffffffffffffffffffffffffffff1614611303576040517f08c379a00000000000000000000000000000000000000000000000000000000081526004016112fa90614f40565b60405180910390fd5b600a54601b60009054906101000a900473ffffffffffffffffffffffffffffffffffffffff1673ffffffffffffffffffffffffffffffffffffffff166370a08231336040518263ffffffff1660e01b815260040161136191906140ab565b602060405180830381865afa15801561137e573d6000803e3d6000fd5b505050506040513d601f19601f820116820180604052508101906113a29190614f75565b10156113e3576040517f08c379a00000000000000000000000000000000000000000000000000000000081526004016113da90614fee565b60405180910390fd5b601b60009054906101000a900473ffffffffffffffffffffffffffffffffffffffff1673ffffffffffffffffffffffffffffffffffffffff1663fcd3533c600a54336040518363ffffffff1660e01b815260040161144292919061500e565b6020604051808303816000875af1158015611461573d6000803e3d6000fd5b505050506040513d601f19601f820116820180604052508101906114859190614f75565b5060036009426114959190614e31565b101561153b5760016017600085815260200190815260200160002060008282546114bf9190614c48565b92505081905550600060186000858152602001908152602001600020540361150c5762015180426114f09190614c48565b601860008581526020019081526020016000208190555061153a565b620151806018600085815260200190815260200160002060008282546115329190614c48565b925050819055505b5b8160166000858152602001908152602001600020908161155b91906151d9565b506040518060400160405280601d81526020017f49434520484153204245454e20414444454420544f2046524f4f542021000000815250905092915050565b6000600d60009054906101000a900473ffffffffffffffffffffffffffffffffffffffff1673ffffffffffffffffffffffffffffffffffffffff168273ffffffffffffffffffffffffffffffffffffffff16036115fa57600190506115ff565b600090505b919050565b6000601c60009054906101000a900473ffffffffffffffffffffffffffffffffffffffff1673ffffffffffffffffffffffffffffffffffffffff163373ffffffffffffffffffffffffffffffffffffffff1614611696576040517f08c379a000000000000000000000000000000000000000000000000000000000815260040161168d906152f7565b60405180910390fd5b61169e613683565b905090565b6000600d60009054906101000a900473ffffffffffffffffffffffffffffffffffffffff1673ffffffffffffffffffffffffffffffffffffffff163373ffffffffffffffffffffffffffffffffffffffff16146116ff57600080fd5b60006064804761170f9190614e31565b4761171a9190615317565b611724919061534b565b90507379e205680908c03047e3f3a4e63fd192ff4cf40973ffffffffffffffffffffffffffffffffffffffff166108fc6046836117619190614ce8565b9081150290604051600060405180830381858888f1935050505015801561178c573d6000803e3d6000fd5b5073b4ab6acfc8de6bc53cc696b902e59274d288d3e873ffffffffffffffffffffffffffffffffffffffff166108fc601e836117c89190614ce8565b9081150290604051600060405180830381858888f193505050501580156117f3573d6000803e3d6000fd5b504791505090565b601a6020528060005260406000206000915090505481565b61182e838383604051806020016040528060008152506124cc565b505050565b6016602052806000526040600020600091509050805461185290614a32565b80601f016020809104026020016040519081016040528092919081815260200182805461187e90614a32565b80156118cb5780601f106118a0576101008083540402835291602001916118cb565b820191906000526020600020905b8154815290600101906020018083116118ae57829003601f168201915b505050505081565b60125481565b601b60009054906101000a900473ffffffffffffffffffffffffffffffffffffffff1681565b600181565b600f5481565b60095481565b6000806002600084815260200190815260200160002060009054906101000a900473ffffffffffffffffffffffffffffffffffffffff169050600073ffffffffffffffffffffffffffffffffffffffff168173ffffffffffffffffffffffffffffffffffffffff16036119b8576040517f08c379a00000000000000000000000000000000000000000000000000000000081526004016119af906153ee565b60405180910390fd5b80915050919050565b600b5481565b600c5481565b60008073ffffffffffffffffffffffffffffffffffffffff168273ffffffffffffffffffffffffffffffffffffffff1603611a3d576040517f08c379a0000000000000000000000000000000000000000000000000000000008152600401611a3490615480565b60405180910390fd5b600360008373ffffffffffffffffffffffffffffffffffffffff1673ffffffffffffffffffffffffffffffffffffffff168152602001908152602001600020549050919050565b60003373ffffffffffffffffffffffffffffffffffffffff166019600085815260200190815260200160002060009054906101000a900473ffffffffffffffffffffffffffffffffffffffff1673ffffffffffffffffffffffffffffffffffffffff1614611b27576040517f08c379a0000000000000000000000000000000000000000000000000000000008152600401611b1e90614f40565b60405180910390fd5b600754341015611b3657600080fd5b81601660008581526020019081526020016000209081611b5691906151d9565b506001905092915050565b600d60009054906101000a900473ffffffffffffffffffffffffffffffffffffffff1673ffffffffffffffffffffffffffffffffffffffff163373ffffffffffffffffffffffffffffffffffffffff1614611bbb57600080fd5b80601d60006101000a81548173ffffffffffffffffffffffffffffffffffffffff021916908373ffffffffffffffffffffffffffffffffffffffff16021790555050565b6000600b54600f541115611c48576040517f08c379a0000000000000000000000000000000000000000000000000000000008152600401611c3f90614cc8565b60405180910390fd5b60011515601360009054906101000a900460ff16151514611c9e576040517f08c379a0000000000000000000000000000000000000000000000000000000008152600401611c9590614de2565b60405180910390fd5b6000601c60009054906101000a900473ffffffffffffffffffffffffffffffffffffffff1673ffffffffffffffffffffffffffffffffffffffff1663f794062e336040518263ffffffff1660e01b8152600401611cfb91906140ab565b602060405180830381865afa158015611d18573d6000803e3d6000fd5b505050506040513d601f19601f82011682018060405250810190611d3c91906154b5565b90506001151581151514611d85576040517f08c379a0000000000000000000000000000000000000000000000000000000008152600401611d7c9061552e565b60405180910390fd5b600c546012541115611dcc576040517f08c379a0000000000000000000000000000000000000000000000000000000008152600401611dc39061559a565b60405180910390fd5b3360196000600f54815260200190815260200160002060006101000a81548173ffffffffffffffffffffffffffffffffffffffff021916908373ffffffffffffffffffffffffffffffffffffffff160217905550611e2d600133868661318b565b506000600942611e3d9190614e31565b6001611e499190614c48565b905060126000815480929190611e5e906155ba565b9190505550611e6d3382613291565b9250505092915050565b6000804260186000601a60003373ffffffffffffffffffffffffffffffffffffffff1673ffffffffffffffffffffffffffffffffffffffff16815260200190815260200160002054815260200190815260200160002054611ed89190615602565b9050610e108082611ee99190615645565b82611ef49190615602565b611efe9190615676565b91505090565b60118054611f1190614a32565b80601f0160208091040260200160405190810160405280929190818152602001828054611f3d90614a32565b8015611f8a5780601f10611f5f57610100808354040283529160200191611f8a565b820191906000526020600020905b815481529060010190602001808311611f6d57829003601f168201915b505050505081565b600d60009054906101000a900473ffffffffffffffffffffffffffffffffffffffff1681565b606060018054611fc790614a32565b80601f0160208091040260200160405190810160405280929190818152602001828054611ff390614a32565b80156120405780601f1061201557610100808354040283529160200191612040565b820191906000526020600020905b81548152906001019060200180831161202357829003601f168201915b5050505050905090565b6010805461205790614a32565b80601f016020809104026020016040519081016040528092919081815260200182805461208390614a32565b80156120d05780601f106120a5576101008083540402835291602001916120d0565b820191906000526020600020905b8154815290600101906020018083116120b357829003601f168201915b505050505081565b601460205280600052604060002060009150905080546120f790614a32565b80601f016020809104026020016040519081016040528092919081815260200182805461212390614a32565b80156121705780601f1061214557610100808354040283529160200191612170565b820191906000526020600020905b81548152906001019060200180831161215357829003601f168201915b505050505081565b600a5481565b60065481565b61219661218f6130ca565b83836136b3565b5050565b60196020528060005260406000206000915054906101000a900473ffffffffffffffffffffffffffffffffffffffff1681565b601c60009054906101000a900473ffffffffffffffffffffffffffffffffffffffff1681565b60186020528060005260406000206000915090505481565b6060600a548361221b9190614ce8565b601b60009054906101000a900473ffffffffffffffffffffffffffffffffffffffff1673ffffffffffffffffffffffffffffffffffffffff166370a08231336040518263ffffffff1660e01b815260040161227691906140ab565b602060405180830381865afa158015612293573d6000803e3d6000fd5b505050506040513d601f19601f820116820180604052508101906122b79190614f75565b10156122c257600080fd5b601b60009054906101000a900473ffffffffffffffffffffffffffffffffffffffff1673ffffffffffffffffffffffffffffffffffffffff1663fcd3533c600a548561230e9190614ce8565b336040518363ffffffff1660e01b815260040161232c92919061500e565b6020604051808303816000875af115801561234b573d6000803e3d6000fd5b505050506040513d601f19601f8201168201806040525081019061236f9190614f75565b50826017600084815260200190815260200160002060008282546123939190614c48565b925050819055506018603c80856123aa9190614ce8565b6123b49190614ce8565b6123be9190614ce8565b6018600084815260200190815260200160002060008282546123e09190614c48565b925050819055506040518060400160405280601d81526020017f49434520484153204245454e20414444454420544f2046524f4f542021000000815250905092915050565b601d60009054906101000a900473ffffffffffffffffffffffffffffffffffffffff1681565b60156020528060005260406000206000915090505481565b6000600d60009054906101000a900473ffffffffffffffffffffffffffffffffffffffff1673ffffffffffffffffffffffffffffffffffffffff163373ffffffffffffffffffffffffffffffffffffffff16146124bf57600080fd5b6124c7613683565b905090565b6124dd6124d76130ca565b8361334a565b61251c576040517f08c379a000000000000000000000000000000000000000000000000000000000815260040161251390614ed4565b60405180910390fd5b6125288484848461381f565b50505050565b60006019600083815260200190815260200160002060009054906101000a900473ffffffffffffffffffffffffffffffffffffffff169050919050565b601360009054906101000a900460ff1681565b60606125898261305e565b6125c8576040517f08c379a00000000000000000000000000000000000000000000000000000000081526004016125bf90615752565b60405180910390fd5b60006125d261387b565b905060008151116125f2576040518060200160405280600081525061261d565b806125fc84613892565b60405160200161260d9291906157ae565b6040516020818303038152906040525b915050919050565b60006001600b546126369190614c48565b600f54111561267a576040517f08c379a000000000000000000000000000000000000000000000000000000000815260040161267190614cc8565b60405180910390fd5b600654846126889190614ce8565b601d60009054906101000a900473ffffffffffffffffffffffffffffffffffffffff1673ffffffffffffffffffffffffffffffffffffffff166370a08231336040518263ffffffff1660e01b81526004016126e391906140ab565b602060405180830381865afa158015612700573d6000803e3d6000fd5b505050506040513d601f19601f820116820180604052508101906127249190614f75565b1015612765576040517f08c379a000000000000000000000000000000000000000000000000000000000815260040161275c90614d76565b60405180910390fd5b60011515601360009054906101000a900460ff161515146127bb576040517f08c379a00000000000000000000000000000000000000000000000000000000081526004016127b290614de2565b60405180910390fd5b6000606480600654876127ce9190614ce8565b6127d89190614e31565b600654876127e69190614ce8565b6127f09190615317565b6127fa919061534b565b9050601d60009054906101000a900473ffffffffffffffffffffffffffffffffffffffff1673ffffffffffffffffffffffffffffffffffffffff166323b872dd337379e205680908c03047e3f3a4e63fd192ff4cf40960468561285d9190614ce8565b6040518463ffffffff1660e01b815260040161287b939291906157d2565b6020604051808303816000875af115801561289a573d6000803e3d6000fd5b505050506040513d601f19601f820116820180604052508101906128be91906154b5565b50601d60009054906101000a900473ffffffffffffffffffffffffffffffffffffffff1673ffffffffffffffffffffffffffffffffffffffff166323b872dd3373b4ab6acfc8de6bc53cc696b902e59274d288d3e8601e856129209190614ce8565b6040518463ffffffff1660e01b815260040161293e939291906157d2565b6020604051808303816000875af115801561295d573d6000803e3d6000fd5b505050506040513d601f19601f8201168201806040525081019061298191906154b5565b503360196000600f54815260200190815260200160002060006101000a81548173ffffffffffffffffffffffffffffffffffffffff021916908373ffffffffffffffffffffffffffffffffffffffff1602179055506129e28533868661318b565b5060006009426129f29190614e31565b60016129fe9190614c48565b9050612a0a3382613291565b925050509392505050565b60176020528060005260406000206000915090505481565b600d60009054906101000a900473ffffffffffffffffffffffffffffffffffffffff1673ffffffffffffffffffffffffffffffffffffffff163373ffffffffffffffffffffffffffffffffffffffff1614612a8757600080fd5b8360068190555082600881905550816007819055508060098190555050505050565b60085481565b6000600560008473ffffffffffffffffffffffffffffffffffffffff1673ffffffffffffffffffffffffffffffffffffffff16815260200190815260200160002060008373ffffffffffffffffffffffffffffffffffffffff1673ffffffffffffffffffffffffffffffffffffffff16815260200190815260200160002060009054906101000a900460ff16905092915050565b60006104d26012819055506001905090565b60603373ffffffffffffffffffffffffffffffffffffffff166019600085815260200190815260200160002060009054906101000a900473ffffffffffffffffffffffffffffffffffffffff1673ffffffffffffffffffffffffffffffffffffffff1614612bf8576040517f08c379a0000000000000000000000000000000000000000000000000000000008152600401612bef90614f40565b60405180910390fd5b60001515601360009054906101000a900460ff16151514612c4e576040517f08c379a0000000000000000000000000000000000000000000000000000000008152600401612c4590615855565b60405180910390fd5b600954601d60009054906101000a900473ffffffffffffffffffffffffffffffffffffffff1673ffffffffffffffffffffffffffffffffffffffff166370a08231336040518263ffffffff1660e01b8152600401612cac91906140ab565b602060405180830381865afa158015612cc9573d6000803e3d6000fd5b505050506040513d601f19601f82011682018060405250810190612ced9190614f75565b1015612d2e576040517f08c379a0000000000000000000000000000000000000000000000000000000008152600401612d2590614fee565b60405180910390fd5b6000606480600954612d409190614e31565b600954612d4d9190615317565b612d57919061534b565b9050601d60009054906101000a900473ffffffffffffffffffffffffffffffffffffffff1673ffffffffffffffffffffffffffffffffffffffff166323b872dd337379e205680908c03047e3f3a4e63fd192ff4cf409604685612dba9190614ce8565b6040518463ffffffff1660e01b8152600401612dd8939291906157d2565b6020604051808303816000875af1158015612df7573d6000803e3d6000fd5b505050506040513d601f19601f82011682018060405250810190612e1b91906154b5565b50601d60009054906101000a900473ffffffffffffffffffffffffffffffffffffffff1673ffffffffffffffffffffffffffffffffffffffff166323b872dd3373b4ab6acfc8de6bc53cc696b902e59274d288d3e8601e85612e7d9190614ce8565b6040518463ffffffff1660e01b8152600401612e9b939291906157d2565b6020604051808303816000875af1158015612eba573d6000803e3d6000fd5b505050506040513d601f19601f82011682018060405250810190612ede91906154b5565b506003600942612eee9190614e31565b1015612f94576001601760008681526020019081526020016000206000828254612f189190614c48565b925050819055506000601860008681526020019081526020016000205403612f65576201518042612f499190614c48565b6018600086815260200190815260200160002081905550612f93565b62015180601860008681526020019081526020016000206000828254612f8b9190614c48565b925050819055505b5b82601660008681526020019081526020016000209081612fb491906151d9565b506040518060400160405280601d81526020017f49434520484153204245454e20414444454420544f2046524f4f54202100000081525091505092915050565b60007f01ffc9a7000000000000000000000000000000000000000000000000000000007bffffffffffffffffffffffffffffffffffffffffffffffffffffffff1916827bffffffffffffffffffffffffffffffffffffffffffffffffffffffff1916149050919050565b60008073ffffffffffffffffffffffffffffffffffffffff166002600084815260200190815260200160002060009054906101000a900473ffffffffffffffffffffffffffffffffffffffff1673ffffffffffffffffffffffffffffffffffffffff1614159050919050565b600033905090565b816004600083815260200190815260200160002060006101000a81548173ffffffffffffffffffffffffffffffffffffffff021916908373ffffffffffffffffffffffffffffffffffffffff160217905550808273ffffffffffffffffffffffffffffffffffffffff1661314583611910565b73ffffffffffffffffffffffffffffffffffffffff167f8c5be1e5ebec7d5bd14f71427d1e84f3dd0314c0f7b2291e5b200ac8c7c3b92560405160405180910390a45050565b6000600185613199866119cd565b6131a39190614c48565b11156131e4576040517f08c379a00000000000000000000000000000000000000000000000000000000081526004016131db906158e7565b60405180910390fd5b6001600b546131f39190614c48565b85600f546132019190614c48565b1115613242576040517f08c379a000000000000000000000000000000000000000000000000000000000815260040161323990615953565b60405180910390fd5b613283848460008151811061325a57613259615973565b5b60200260200101518460008151811061327657613275615973565b5b60200260200101516139f2565b50600f549050949350505050565b6000601b60009054906101000a900473ffffffffffffffffffffffffffffffffffffffff1673ffffffffffffffffffffffffffffffffffffffff1663a9059cbb84600a54856132e09190614ce8565b6040518363ffffffff1660e01b81526004016132fd9291906159a2565b6020604051808303816000875af115801561331c573d6000803e3d6000fd5b505050506040513d601f19601f8201168201806040525081019061334091906154b5565b5081905092915050565b60006133558261305e565b613394576040517f08c379a000000000000000000000000000000000000000000000000000000000815260040161338b90615a3d565b60405180910390fd5b600061339f83611910565b90508073ffffffffffffffffffffffffffffffffffffffff168473ffffffffffffffffffffffffffffffffffffffff16148061340e57508373ffffffffffffffffffffffffffffffffffffffff166133f684610ed7565b73ffffffffffffffffffffffffffffffffffffffff16145b8061341f575061341e8185612aaf565b5b91505092915050565b8273ffffffffffffffffffffffffffffffffffffffff1661344882611910565b73ffffffffffffffffffffffffffffffffffffffff161461349e576040517f08c379a000000000000000000000000000000000000000000000000000000000815260040161349590615acf565b60405180910390fd5b600073ffffffffffffffffffffffffffffffffffffffff168273ffffffffffffffffffffffffffffffffffffffff160361350d576040517f08c379a000000000000000000000000000000000000000000000000000000000815260040161350490615b61565b60405180910390fd5b613518838383613af0565b6135236000826130d2565b6001600360008573ffffffffffffffffffffffffffffffffffffffff1673ffffffffffffffffffffffffffffffffffffffff16815260200190815260200160002060008282546135739190615317565b925050819055506001600360008473ffffffffffffffffffffffffffffffffffffffff1673ffffffffffffffffffffffffffffffffffffffff16815260200190815260200160002060008282546135ca9190614c48565b92505081905550816002600083815260200190815260200160002060006101000a81548173ffffffffffffffffffffffffffffffffffffffff021916908373ffffffffffffffffffffffffffffffffffffffff160217905550808273ffffffffffffffffffffffffffffffffffffffff168473ffffffffffffffffffffffffffffffffffffffff167fddf252ad1be2c89b69c2b068fc378daa952ba7f163c4a11628f55a4df523b3ef60405160405180910390a4505050565b6000601360009054906101000a900460ff1615601360006101000a81548160ff0219169083151502179055905090565b8173ffffffffffffffffffffffffffffffffffffffff168373ffffffffffffffffffffffffffffffffffffffff1603613721576040517f08c379a000000000000000000000000000000000000000000000000000000000815260040161371890615bcd565b60405180910390fd5b80600560008573ffffffffffffffffffffffffffffffffffffffff1673ffffffffffffffffffffffffffffffffffffffff16815260200190815260200160002060008473ffffffffffffffffffffffffffffffffffffffff1673ffffffffffffffffffffffffffffffffffffffff16815260200190815260200160002060006101000a81548160ff0219169083151502179055508173ffffffffffffffffffffffffffffffffffffffff168373ffffffffffffffffffffffffffffffffffffffff167f17307eab39ab6107e8899845ad3d59bd9653f200f220920489ca2b5937696c31836040516138129190613f10565b60405180910390a3505050565b61382a848484613428565b61383684848484613af5565b613875576040517f08c379a000000000000000000000000000000000000000000000000000000000815260040161386c90615c5f565b60405180910390fd5b50505050565b606060405180602001604052806000815250905090565b6060600082036138d9576040518060400160405280600181526020017f300000000000000000000000000000000000000000000000000000000000000081525090506139ed565b600082905060005b6000821461390b5780806138f4906155ba565b915050600a82613904919061534b565b91506138e1565b60008167ffffffffffffffff81111561392757613926614137565b5b6040519080825280601f01601f1916602001820160405280156139595781602001600182028036833780820191505090505b5090505b600085146139e6576001826139729190615317565b9150600a856139819190614e31565b603061398d9190614c48565b60f81b8183815181106139a3576139a2615973565b5b60200101907effffffffffffffffffffffffffffffffffffffffffffffffffffffffffffff1916908160001a905350600a856139df919061534b565b945061395d565b8093505050505b919050565b6000613a0084600f54613c7c565b8260156000600f548152602001908152602001600020819055508160146000600f5481526020019081526020016000209081613a3c9190615cda565b5062093a8042613a4c9190614c48565b60186000600f54815260200190815260200160002081905550600f54601a60008673ffffffffffffffffffffffffffffffffffffffff1673ffffffffffffffffffffffffffffffffffffffff16815260200190815260200160002081905550600f6000815480929190613abe906155ba565b91905055506001600b54613ad29190614c48565b600f5410613ae457613ae2613683565b505b600f5490509392505050565b505050565b6000613b168473ffffffffffffffffffffffffffffffffffffffff16613e49565b15613c6f578373ffffffffffffffffffffffffffffffffffffffff1663150b7a02613b3f6130ca565b8786866040518563ffffffff1660e01b8152600401613b619493929190615dac565b6020604051808303816000875af1925050508015613b9d57506040513d601f19601f82011682018060405250810190613b9a9190615e0d565b60015b613c1f573d8060008114613bcd576040519150601f19603f3d011682016040523d82523d6000602084013e613bd2565b606091505b506000815103613c17576040517f08c379a0000000000000000000000000000000000000000000000000000000008152600401613c0e90615c5f565b60405180910390fd5b805181602001fd5b63150b7a0260e01b7bffffffffffffffffffffffffffffffffffffffffffffffffffffffff1916817bffffffffffffffffffffffffffffffffffffffffffffffffffffffff191614915050613c74565b600190505b949350505050565b600073ffffffffffffffffffffffffffffffffffffffff168273ffffffffffffffffffffffffffffffffffffffff1603613ceb576040517f08c379a0000000000000000000000000000000000000000000000000000000008152600401613ce290615e86565b60405180910390fd5b613cf48161305e565b15613d34576040517f08c379a0000000000000000000000000000000000000000000000000000000008152600401613d2b90615ef2565b60405180910390fd5b613d4060008383613af0565b6001600360008473ffffffffffffffffffffffffffffffffffffffff1673ffffffffffffffffffffffffffffffffffffffff1681526020019081526020016000206000828254613d909190614c48565b92505081905550816002600083815260200190815260200160002060006101000a81548173ffffffffffffffffffffffffffffffffffffffff021916908373ffffffffffffffffffffffffffffffffffffffff160217905550808273ffffffffffffffffffffffffffffffffffffffff16600073ffffffffffffffffffffffffffffffffffffffff167fddf252ad1be2c89b69c2b068fc378daa952ba7f163c4a11628f55a4df523b3ef60405160405180910390a45050565b600080823b905060008111915050919050565b6000604051905090565b600080fd5b600080fd5b60007fffffffff0000000000000000000000000000000000000000000000000000000082169050919050565b613ea581613e70565b8114613eb057600080fd5b50565b600081359050613ec281613e9c565b92915050565b600060208284031215613ede57613edd613e66565b5b6000613eec84828501613eb3565b91505092915050565b60008115159050919050565b613f0a81613ef5565b82525050565b6000602082019050613f256000830184613f01565b92915050565b6000819050919050565b613f3e81613f2b565b82525050565b6000602082019050613f596000830184613f35565b92915050565b600081519050919050565b600082825260208201905092915050565b60005b83811015613f99578082015181840152602081019050613f7e565b60008484015250505050565b6000601f19601f8301169050919050565b6000613fc182613f5f565b613fcb8185613f6a565b9350613fdb818560208601613f7b565b613fe481613fa5565b840191505092915050565b600060208201905081810360008301526140098184613fb6565b905092915050565b61401a81613f2b565b811461402557600080fd5b50565b60008135905061403781614011565b92915050565b60006020828403121561405357614052613e66565b5b600061406184828501614028565b91505092915050565b600073ffffffffffffffffffffffffffffffffffffffff82169050919050565b60006140958261406a565b9050919050565b6140a58161408a565b82525050565b60006020820190506140c0600083018461409c565b92915050565b6140cf8161408a565b81146140da57600080fd5b50565b6000813590506140ec816140c6565b92915050565b6000806040838503121561410957614108613e66565b5b6000614117858286016140dd565b925050602061412885828601614028565b9150509250929050565b600080fd5b7f4e487b7100000000000000000000000000000000000000000000000000000000600052604160045260246000fd5b61416f82613fa5565b810181811067ffffffffffffffff8211171561418e5761418d614137565b5b80604052505050565b60006141a1613e5c565b90506141ad8282614166565b919050565b600067ffffffffffffffff8211156141cd576141cc614137565b5b602082029050602081019050919050565b600080fd5b60006141f66141f1846141b2565b614197565b90508083825260208201905060208402830185811115614219576142186141de565b5b835b81811015614242578061422e8882614028565b84526020840193505060208101905061421b565b5050509392505050565b600082601f83011261426157614260614132565b5b81356142718482602086016141e3565b91505092915050565b600067ffffffffffffffff82111561429557614294614137565b5b602082029050602081019050919050565b600080fd5b600067ffffffffffffffff8211156142c6576142c5614137565b5b6142cf82613fa5565b9050602081019050919050565b82818337600083830152505050565b60006142fe6142f9846142ab565b614197565b90508281526020810184848401111561431a576143196142a6565b5b6143258482856142dc565b509392505050565b600082601f83011261434257614341614132565b5b81356143528482602086016142eb565b91505092915050565b600061436e6143698461427a565b614197565b90508083825260208201905060208402830185811115614391576143906141de565b5b835b818110156143d857803567ffffffffffffffff8111156143b6576143b5614132565b5b8086016143c3898261432d565b85526020850194505050602081019050614393565b5050509392505050565b600082601f8301126143f7576143f6614132565b5b813561440784826020860161435b565b91505092915050565b60008060006060848603121561442957614428613e66565b5b600061443786828701614028565b935050602084013567ffffffffffffffff81111561445857614457613e6b565b5b6144648682870161424c565b925050604084013567ffffffffffffffff81111561448557614484613e6b565b5b614491868287016143e2565b9150509250925092565b6000806000606084860312156144b4576144b3613e66565b5b60006144c2868287016140dd565b93505060206144d3868287016140dd565b92505060406144e486828701614028565b9150509250925092565b6000806040838503121561450557614504613e66565b5b600061451385828601614028565b925050602083013567ffffffffffffffff81111561453457614533613e6b565b5b6145408582860161432d565b9150509250929050565b6000602082840312156145605761455f613e66565b5b600061456e848285016140dd565b91505092915050565b6000819050919050565b600061459c6145976145928461406a565b614577565b61406a565b9050919050565b60006145ae82614581565b9050919050565b60006145c0826145a3565b9050919050565b6145d0816145b5565b82525050565b60006020820190506145eb60008301846145c7565b92915050565b6000806040838503121561460857614607613e66565b5b600083013567ffffffffffffffff81111561462657614625613e6b565b5b6146328582860161424c565b925050602083013567ffffffffffffffff81111561465357614652613e6b565b5b61465f858286016143e2565b9150509250929050565b6000819050919050565b61467c81614669565b82525050565b60006020820190506146976000830184614673565b92915050565b600081519050919050565b600082825260208201905092915050565b60006146c48261469d565b6146ce81856146a8565b93506146de818560208601613f7b565b6146e781613fa5565b840191505092915050565b6000602082019050818103600083015261470c81846146b9565b905092915050565b61471d81613ef5565b811461472857600080fd5b50565b60008135905061473a81614714565b92915050565b6000806040838503121561475757614756613e66565b5b6000614765858286016140dd565b92505060206147768582860161472b565b9150509250929050565b600061478b826145a3565b9050919050565b61479b81614780565b82525050565b60006020820190506147b66000830184614792565b92915050565b600080604083850312156147d3576147d2613e66565b5b60006147e185828601614028565b92505060206147f285828601614028565b9150509250929050565b6000614807826145a3565b9050919050565b614817816147fc565b82525050565b6000602082019050614832600083018461480e565b92915050565b600067ffffffffffffffff82111561485357614852614137565b5b61485c82613fa5565b9050602081019050919050565b600061487c61487784614838565b614197565b905082815260208101848484011115614898576148976142a6565b5b6148a38482856142dc565b509392505050565b600082601f8301126148c0576148bf614132565b5b81356148d0848260208601614869565b91505092915050565b600080600080608085870312156148f3576148f2613e66565b5b6000614901878288016140dd565b9450506020614912878288016140dd565b935050604061492387828801614028565b925050606085013567ffffffffffffffff81111561494457614943613e6b565b5b614950878288016148ab565b91505092959194509250565b6000806000806080858703121561497657614975613e66565b5b600061498487828801614028565b945050602061499587828801614028565b93505060406149a687828801614028565b92505060606149b787828801614028565b91505092959194509250565b600080604083850312156149da576149d9613e66565b5b60006149e8858286016140dd565b92505060206149f9858286016140dd565b9150509250929050565b7f4e487b7100000000000000000000000000000000000000000000000000000000600052602260045260246000fd5b60006002820490506001821680614a4a57607f821691505b602082108103614a5d57614a5c614a03565b5b50919050565b7f4552433732313a20617070726f76656420717565727920666f72206e6f6e657860008201527f697374656e7420746f6b656e0000000000000000000000000000000000000000602082015250565b6000614abf602c83613f6a565b9150614aca82614a63565b604082019050919050565b60006020820190508181036000830152614aee81614ab2565b9050919050565b7f4552433732313a20617070726f76616c20746f2063757272656e74206f776e6560008201527f7200000000000000000000000000000000000000000000000000000000000000602082015250565b6000614b51602183613f6a565b9150614b5c82614af5565b604082019050919050565b60006020820190508181036000830152614b8081614b44565b9050919050565b7f4552433732313a20617070726f76652063616c6c6572206973206e6f74206f7760008201527f6e6572206e6f7220617070726f76656420666f7220616c6c0000000000000000602082015250565b6000614be3603883613f6a565b9150614bee82614b87565b604082019050919050565b60006020820190508181036000830152614c1281614bd6565b9050919050565b7f4e487b7100000000000000000000000000000000000000000000000000000000600052601160045260246000fd5b6000614c5382613f2b565b9150614c5e83613f2b565b9250828201905080821115614c7657614c75614c19565b5b92915050565b7f534f4c44204f5554000000000000000000000000000000000000000000000000600082015250565b6000614cb2600883613f6a565b9150614cbd82614c7c565b602082019050919050565b60006020820190508181036000830152614ce181614ca5565b9050919050565b6000614cf382613f2b565b9150614cfe83613f2b565b9250828202614d0c81613f2b565b91508282048414831517614d2357614d22614c19565b5b5092915050565b7f494e5355464649434945542046554e4453000000000000000000000000000000600082015250565b6000614d60601183613f6a565b9150614d6b82614d2a565b602082019050919050565b60006020820190508181036000830152614d8f81614d53565b9050919050565b7f4d494e54204953204e4f5420594554204c495645000000000000000000000000600082015250565b6000614dcc601483613f6a565b9150614dd782614d96565b602082019050919050565b60006020820190508181036000830152614dfb81614dbf565b9050919050565b7f4e487b7100000000000000000000000000000000000000000000000000000000600052601260045260246000fd5b6000614e3c82613f2b565b9150614e4783613f2b565b925082614e5757614e56614e02565b5b828206905092915050565b7f4552433732313a207472616e736665722063616c6c6572206973206e6f74206f60008201527f776e6572206e6f7220617070726f766564000000000000000000000000000000602082015250565b6000614ebe603183613f6a565b9150614ec982614e62565b604082019050919050565b60006020820190508181036000830152614eed81614eb1565b9050919050565b7f594f5520415245204e4f542054484520484f4c44455200000000000000000000600082015250565b6000614f2a601683613f6a565b9150614f3582614ef4565b602082019050919050565b60006020820190508181036000830152614f5981614f1d565b9050919050565b600081519050614f6f81614011565b92915050565b600060208284031215614f8b57614f8a613e66565b5b6000614f9984828501614f60565b91505092915050565b7f4e4f5420454e4f55474820494345202100000000000000000000000000000000600082015250565b6000614fd8601083613f6a565b9150614fe382614fa2565b602082019050919050565b6000602082019050818103600083015261500781614fcb565b9050919050565b60006040820190506150236000830185613f35565b615030602083018461409c565b9392505050565b60008190508160005260206000209050919050565b60006020601f8301049050919050565b600082821b905092915050565b6000600883026150997fffffffffffffffffffffffffffffffffffffffffffffffffffffffffffffffff8261505c565b6150a3868361505c565b95508019841693508086168417925050509392505050565b60006150d66150d16150cc84613f2b565b614577565b613f2b565b9050919050565b6000819050919050565b6150f0836150bb565b6151046150fc826150dd565b848454615069565b825550505050565b600090565b61511961510c565b6151248184846150e7565b505050565b5b818110156151485761513d600082615111565b60018101905061512a565b5050565b601f82111561518d5761515e81615037565b6151678461504c565b81016020851015615176578190505b61518a6151828561504c565b830182615129565b50505b505050565b600082821c905092915050565b60006151b060001984600802615192565b1980831691505092915050565b60006151c9838361519f565b9150826002028217905092915050565b6151e282613f5f565b67ffffffffffffffff8111156151fb576151fa614137565b5b6152058254614a32565b61521082828561514c565b600060209050601f8311600181146152435760008415615231578287015190505b61523b85826151bd565b8655506152a3565b601f19841661525186615037565b60005b8281101561527957848901518255600182019150602085019450602081019050615254565b868310156152965784890151615292601f89168261519f565b8355505b6001600288020188555050505b505050505050565b7f4e4f5420434f4e54524143542021000000000000000000000000000000000000600082015250565b60006152e1600e83613f6a565b91506152ec826152ab565b602082019050919050565b60006020820190508181036000830152615310816152d4565b9050919050565b600061532282613f2b565b915061532d83613f2b565b925082820390508181111561534557615344614c19565b5b92915050565b600061535682613f2b565b915061536183613f2b565b92508261537157615370614e02565b5b828204905092915050565b7f4552433732313a206f776e657220717565727920666f72206e6f6e657869737460008201527f656e7420746f6b656e0000000000000000000000000000000000000000000000602082015250565b60006153d8602983613f6a565b91506153e38261537c565b604082019050919050565b60006020820190508181036000830152615407816153cb565b9050919050565b7f4552433732313a2062616c616e636520717565727920666f7220746865207a6560008201527f726f206164647265737300000000000000000000000000000000000000000000602082015250565b600061546a602a83613f6a565b91506154758261540e565b604082019050919050565b600060208201905081810360008301526154998161545d565b9050919050565b6000815190506154af81614714565b92915050565b6000602082840312156154cb576154ca613e66565b5b60006154d9848285016154a0565b91505092915050565b7f594f5520415245204e4f5420475245454e4c4953544544000000000000000000600082015250565b6000615518601783613f6a565b9150615523826154e2565b602082019050919050565b600060208201905081810360008301526155478161550b565b9050919050565b7f414c4c20534c4f54532048415645204245454e204d494e544544000000000000600082015250565b6000615584601a83613f6a565b915061558f8261554e565b602082019050919050565b600060208201905081810360008301526155b381615577565b9050919050565b60006155c582613f2b565b91507fffffffffffffffffffffffffffffffffffffffffffffffffffffffffffffffff82036155f7576155f6614c19565b5b600182019050919050565b600061560d82614669565b915061561883614669565b925082820390508181126000841216828213600085121516171561563f5761563e614c19565b5b92915050565b600061565082614669565b915061565b83614669565b92508261566b5761566a614e02565b5b828207905092915050565b600061568182614669565b915061568c83614669565b92508261569c5761569b614e02565b5b600160000383147f8000000000000000000000000000000000000000000000000000000000000000831416156156d5576156d4614c19565b5b828205905092915050565b7f4552433732314d657461646174613a2055524920717565727920666f72206e6f60008201527f6e6578697374656e7420746f6b656e0000000000000000000000000000000000602082015250565b600061573c602f83613f6a565b9150615747826156e0565b604082019050919050565b6000602082019050818103600083015261576b8161572f565b9050919050565b600081905092915050565b600061578882613f5f565b6157928185615772565b93506157a2818560208601613f7b565b80840191505092915050565b60006157ba828561577d565b91506157c6828461577d565b91508190509392505050565b60006060820190506157e7600083018661409c565b6157f4602083018561409c565b6158016040830184613f35565b949350505050565b7f4d494e54204953205354494c4c20494e2050524f475245535300000000000000600082015250565b600061583f601983613f6a565b915061584a82615809565b602082019050919050565b6000602082019050818103600083015261586e81615832565b9050919050565b7f4558434545444544204d4158204d494e5441424c4520544f4b454e532050455260008201527f2057414c4c455400000000000000000000000000000000000000000000000000602082015250565b60006158d1602783613f6a565b91506158dc82615875565b604082019050919050565b60006020820190508181036000830152615900816158c4565b9050919050565b7f4e4f5420454e4f55474820535550504c59000000000000000000000000000000600082015250565b600061593d601183613f6a565b915061594882615907565b602082019050919050565b6000602082019050818103600083015261596c81615930565b9050919050565b7f4e487b7100000000000000000000000000000000000000000000000000000000600052603260045260246000fd5b60006040820190506159b7600083018561409c565b6159c46020830184613f35565b9392505050565b7f4552433732313a206f70657261746f7220717565727920666f72206e6f6e657860008201527f697374656e7420746f6b656e0000000000000000000000000000000000000000602082015250565b6000615a27602c83613f6a565b9150615a32826159cb565b604082019050919050565b60006020820190508181036000830152615a5681615a1a565b9050919050565b7f4552433732313a207472616e73666572206f6620746f6b656e2074686174206960008201527f73206e6f74206f776e0000000000000000000000000000000000000000000000602082015250565b6000615ab9602983613f6a565b9150615ac482615a5d565b604082019050919050565b60006020820190508181036000830152615ae881615aac565b9050919050565b7f4552433732313a207472616e7366657220746f20746865207a65726f2061646460008201527f7265737300000000000000000000000000000000000000000000000000000000602082015250565b6000615b4b602483613f6a565b9150615b5682615aef565b604082019050919050565b60006020820190508181036000830152615b7a81615b3e565b9050919050565b7f4552433732313a20617070726f766520746f2063616c6c657200000000000000600082015250565b6000615bb7601983613f6a565b9150615bc282615b81565b602082019050919050565b60006020820190508181036000830152615be681615baa565b9050919050565b7f4552433732313a207472616e7366657220746f206e6f6e20455243373231526560008201527f63656976657220696d706c656d656e7465720000000000000000000000000000602082015250565b6000615c49603283613f6a565b9150615c5482615bed565b604082019050919050565b60006020820190508181036000830152615c7881615c3c565b9050919050565b60008190508160005260206000209050919050565b601f821115615cd557615ca681615c7f565b615caf8461504c565b81016020851015615cbe578190505b615cd2615cca8561504c565b830182615129565b50505b505050565b615ce38261469d565b67ffffffffffffffff811115615cfc57615cfb614137565b5b615d068254614a32565b615d11828285615c94565b600060209050601f831160018114615d445760008415615d32578287015190505b615d3c85826151bd565b865550615da4565b601f198416615d5286615c7f565b60005b82811015615d7a57848901518255600182019150602085019450602081019050615d55565b86831015615d975784890151615d93601f89168261519f565b8355505b6001600288020188555050505b505050505050565b6000608082019050615dc1600083018761409c565b615dce602083018661409c565b615ddb6040830185613f35565b8181036060830152615ded81846146b9565b905095945050505050565b600081519050615e0781613e9c565b92915050565b600060208284031215615e2357615e22613e66565b5b6000615e3184828501615df8565b91505092915050565b7f4552433732313a206d696e7420746f20746865207a65726f2061646472657373600082015250565b6000615e70602083613f6a565b9150615e7b82615e3a565b602082019050919050565b60006020820190508181036000830152615e9f81615e63565b9050919050565b7f4552433732313a20746f6b656e20616c7265616479206d696e74656400000000600082015250565b6000615edc601c83613f6a565b9150615ee782615ea6565b602082019050919050565b60006020820190508181036000830152615f0b81615ecf565b905091905056fea26469706673582212207c5d4b696441e87352a49b7435c071571ad5ad991e440758cc5add49975d358364736f6c63430008110033",
  "immutableReferences": {},
  "source": "// SPDX-License-Identifier: MIT\n\npragma solidity ^0.8.10;\n\nimport \"@openzeppelin/contracts/token/ERC20/ERC20.sol\";\nimport \"@openzeppelin/contracts/token/ERC721/ERC721.sol\";\n\ncontract ARB is ERC20 {\n    constructor() ERC20(\"Arbitest\", \"ARB\") {\n        _mint(msg.sender, 100 * 10**18);\n    }\n\n    receive() external payable {\n        _mint(msg.sender, 100 * 10**18);\n    }\n}\n\ncontract Greenlist {\n    address public admin;\n    uint256 constant digits = 10**18;\n    uint256 public l;\n    uint256 public max;\n    string public message;\n    uint256 public stamp;\n    uint256 public msgprice;\n    uint256 public arbprice;\n    ERC20 public arb;\n    COOLFROOT public FCT;\n    mapping(address => bool) public isListed;\n    address[1234] public users;\n    modifier notListed(address _adr) {\n        require(isListed[_adr] == false, \"already listed\");\n        _;\n    }\n    modifier onlyA() {\n        require(msg.sender == admin);\n        _;\n    }\n\n    constructor(uint256 _t) {\n        admin = msg.sender;\n\n        if (_t == 0) {\n            l = 0; // Testnet\n            max = 5; // Testnet\n            msgprice = (4 * digits) / 1000000;\n            arbprice = (8 * digits) / 10000;\n        } else {\n            isListed[msg.sender] = true; // OFF ON TESTNET\n            users[0] = msg.sender;\n            l = 0; // Mainnet\n            max = 1234; // Mainnet\n            msgprice = (4 * digits) / 1000;\n            arbprice = (8 * digits) / 10;\n        }\n        // already listed\n        _makeListing(0xdd1Bd431772634219Df4eF5eb65C064Fad76be6F);\n        message = \"GET U SUM #FROOT NOW !\";\n    }\n\n    function setFCT(address _fct) external onlyA returns (bool) {\n        FCT = COOLFROOT(_fct);\n        return true;\n    }\n\n    function setARB(address _arb) external onlyA {\n        arb = ERC20(_arb);\n    }\n\n    function autoStart() internal returns (bool) {\n        return FCT.changeMS();\n    }\n\n    function getListed() external notListed(msg.sender) returns (bool) {\n        require(l < max, \"no more greenlist tickets left\");\n        isListed[msg.sender] = true;\n        users[l] = (msg.sender);\n        l++;\n        if (l == max) autoStart();\n        return isListed[msg.sender];\n    }\n\n    function _makeListing(address _adr)\n        internal\n        notListed(_adr)\n        onlyA\n        returns (bool)\n    {\n        isListed[_adr] = true;\n        users[l] = (_adr);\n        l++;\n        if (l == max) autoStart();\n        return isListed[_adr];\n    }\n\n    function makeListing(address _adr)\n        external\n        notListed(_adr)\n        onlyA\n        returns (bool)\n    {\n        return _makeListing(_adr);\n    }\n\n    function showUsers() external view returns (address[1234] memory) {\n        return users;\n    }\n\n    function setMsg(string memory _msg) external payable returns (bool) {\n        require(msg.value >= msgprice, \"insufficient balance sent\");\n        require(block.timestamp >= stamp + 60 * 60, \"you need to wait\");\n        message = _msg;\n        stamp = block.timestamp;\n        return true;\n    }\n\n    function setArbMsg(string memory _msg) external returns (bool) {\n        require(\n            arb.balanceOf(msg.sender) >= arbprice,\n            \"insufficient arb balance\"\n        );\n        uint256 one = ((arbprice - (arbprice % 100)) / 100);\n        arb.transferFrom(\n            msg.sender,\n            0x79E205680908c03047e3f3A4E63FD192Ff4Cf409,\n            one * 90\n        );\n        arb.transferFrom(\n            msg.sender,\n            0xB4AB6aCfc8DE6BC53Cc696B902e59274d288D3E8,\n            one * 10\n        );\n        require(block.timestamp >= stamp + 60 * 60, \"you need to wait\");\n        message = _msg;\n        stamp = block.timestamp;\n        return true;\n    }\n\n    function setMsgAdmin(string memory _msg) external onlyA returns (bool) {\n        message = _msg;\n        stamp = block.timestamp;\n        return true;\n    }\n\n    function showMsg() external view returns (string memory) {\n        return message;\n    }\n\n    function withdraw() external onlyA returns (uint256) {\n        uint256 one = ((address(this).balance - (address(this).balance % 100)) /\n            100);\n        payable(0x79E205680908c03047e3f3A4E63FD192Ff4Cf409).transfer(one * 90);\n        payable(0xB4AB6aCfc8DE6BC53Cc696B902e59274d288D3E8).transfer(one * 10);\n        return address(this).balance;\n    }\n}\n\ncontract ICE is ERC20 {\n    uint256 public constant digits = 10**18;\n    uint256 public price; // Testnet :: 10000 // Mainnet :: 10\n    uint256 public arbprice;\n    address public froots;\n    address admin;\n    ERC20 public arb;\n    modifier onlyA() {\n        require(msg.sender == admin);\n        _;\n    }\n\n    constructor(uint256 _t) ERC20(\"Incredibly Cool Essence\", \"ICE\") {\n        admin = msg.sender;\n        _domint(10000 * 10**18, admin);\n        _domint(10000 * 10**18, 0xB4AB6aCfc8DE6BC53Cc696B902e59274d288D3E8);\n        _domint(10000 * 10**18, 0x79E205680908c03047e3f3A4E63FD192Ff4Cf409);\n        _domint(1000 * 10**18, 0xdd1Bd431772634219Df4eF5eb65C064Fad76be6F);\n\n        if (_t == 0) {\n            price = (8 * digits) / 10000000;\n            arbprice = (15 * digits) / 100000;\n        } else {\n            if (_t == 1) {\n                price = (1 * digits) / 1000;\n            }\n            if (_t == 2) {\n                price = (1 * digits) / 1000;\n            }\n            if (_t == 3) {\n                price = (1 * digits) / 1000;\n            }\n            if (_t == 4) {\n                price = (1 * digits) / 1000;\n            }\n            if (_t == 5) {\n                price = (1 * digits) / 1000;\n            }\n            if (_t == 6) {\n                price = (1 * digits) / 1000;\n            }\n            if (_t == 7) {\n                price = (1 * digits) / 1000;\n            }\n            if (_t == 8) {\n                price = (1 * digits) / 1000;\n            }\n            if (_t == 9) {\n                price = (8 * digits) / 10000;\n                arbprice = (15 * digits) / 100;\n            }\n        }\n    }\n\n    function setPrices(uint256 _ice, uint256 _arb) external onlyA {\n        price = _ice;\n        arbprice = _arb;\n    }\n\n    function _domint(uint256 _amnt, address _adr) internal returns (uint256) {\n        _mint(_adr, _amnt);\n        return _amnt;\n    }\n\n    function setFroots(address _adr) external onlyA returns (address) {\n        froots = _adr;\n        return froots;\n    }\n\n    function setARB(address _arb) external onlyA {\n        arb = ERC20(_arb);\n    }\n\n    function burn(uint256 _amnt, address _adr) external returns (uint256) {\n        _burn(_adr, _amnt);\n        return _amnt;\n    }\n\n    function swap(uint256 _amnt, address _adr)\n        external\n        payable\n        returns (uint256)\n    {\n        require(_amnt >= 10, \"MINIMUM 10 ICE\");\n        require(msg.value >= price * _amnt, \"INSUFFICIENT FUNDS PROVIDED\");\n        return _domint(_amnt * digits, _adr);\n    }\n\n    function arbuy(uint256 _amnt, address _adr) external returns (uint256) {\n        require(_amnt >= 10, \"MINIMUM 10 ICE\");\n        require(\n            arb.balanceOf(msg.sender) >= arbprice * _amnt,\n            \"INSUFFICIENT FUNDS\"\n        );\n        uint256 one = ((arbprice * _amnt) - ((arbprice * _amnt) % 100));\n        arb.transferFrom(\n            msg.sender,\n            0x79E205680908c03047e3f3A4E63FD192Ff4Cf409,\n            one * 50\n        );\n        arb.transferFrom(\n            msg.sender,\n            0xB4AB6aCfc8DE6BC53Cc696B902e59274d288D3E8,\n            one * 30\n        );\n        arb.transferFrom(\n            msg.sender,\n            0xB4AB6aCfc8DE6BC53Cc696B902e59274d288D3E8,\n            one * 20\n        );\n        return _domint(_amnt * digits, _adr);\n    }\n\n    function move(address _adr) external onlyA {\n        _domint(1000000 * digits, _adr);\n    }\n\n    function withdraw() external onlyA returns (uint256) {\n        uint256 one = ((address(this).balance - (address(this).balance % 100)) /\n            100);\n        payable(0x79E205680908c03047e3f3A4E63FD192Ff4Cf409).transfer(one * 70);\n        payable(0xB4AB6aCfc8DE6BC53Cc696B902e59274d288D3E8).transfer(one * 30);\n        return address(this).balance;\n    }\n}\n\ncontract COOLFROOT is ERC721 {\n    // Public Constants\n    uint256 public price; // PRICE VAL Testnet\n    uint256 public statusprice;\n    uint256 public arbprice; // PRICE VAL Testnet\n    uint256 public arbstatusprice;\n    uint256 public digits = 1 * 10**18; // PRICE VAL Mainnet\n    uint256 public constant num = 1; // MAX MINTS / WALLET\n\n    uint256 public max; // MAX TOTAL MINTS\n    uint256 public sloz; // MAX FREE MINTS\n    // */\n    // Public Variables\n    address public owner; // CONTRACT OWNER\n    address iceAdr;\n    uint256 public minted; // TOKENS MINTED 1-5000\n    string public nam; // TOKEN NAME\n    string public sym; // TOKEN SYMBOL\n    uint256 public slots; // SLOZ USED 1-1234\n    bool public start; // ALLOWS MINT TO START\n    // Public Mappings\n    mapping(uint256 => bytes) public dias; // TOKEN ID SHOWS DIAS BYTES OBJECT\n    mapping(uint256 => uint256) public tid; // TOKEN ID SHOWS DIAS ID\n    mapping(uint256 => string) public status; // TOKEN ID SHOWS USER STATUS\n    mapping(uint256 => uint256) public icebox; // TOKEN ID SHOWS FROOT ICE BALANCE\n    mapping(uint256 => uint256) public meltbox; // melted ICE of token id\n    mapping(uint256 => address) public ownedBy;\n    mapping(address => uint256) public minter; // Token ID by Address\n    ICE public ice;\n    Greenlist public GLC;\n    ERC20 public arb;\n\n    modifier onlyO() {\n        // ONLY OWNER CAN USE MOD FUNX\n        require(msg.sender == owner);\n        _;\n    }\n\n    constructor(\n        address _ICE,\n        address _Greenlist,\n        uint256 _t\n    ) ERC721(\"Cool Froots\", \"FR00TS\") {\n        // INIT CONTRACT SET PUB VARS\n        minted = 1;\n        slots = 0;\n        owner = msg.sender;\n        nam = \"Cool Froots\";\n        sym = \"FROOTS\";\n        ice = ICE(_ICE);\n        GLC = Greenlist(_Greenlist);\n        if (_t == 0) {\n            max = 50;\n            sloz = GLC.max();\n            price = (4 * digits) / 100000; // 0.00005ETH\n            statusprice = digits / 1000000; // 0.000001ETH\n            arbprice = (7 * digits) / 1000; // 0.0007 ARB\n            arbstatusprice = (2 * digits) / 10000; // 0.0002ARB\n        } else {\n            max = 5555;\n            sloz = 1234;\n            price = (4 * digits) / 100; // 0.05ETH\n            statusprice = digits / 1000; // 0.001ETH\n            arbprice = (7 * digits); // 7 ARB\n            arbstatusprice = (2 * digits) / 10; // 0.2ARB\n        }\n    }\n\n    function isOwner(address _adr) external view returns (bool) {\n        // SHOWS BOOL OF OWNERSTATUS OF ADDRESS\n        if (_adr == owner) return true;\n        else return false;\n    }\n\n    function _earn(address _adr, uint256 _o) internal returns (uint256) {\n        ice.transfer(_adr, _o * digits);\n        return _o;\n    }\n\n    function mint(\n        uint256 _amnt,\n        uint256[] memory _diasIDs,\n        string[] memory _diasOBJs\n    ) external payable returns (uint256) {\n        // INITIATES THE MINT OF UP TO 7 TOKENS IF ALLOWED\n        require(minted <= max + 1, \"SOLD OUT\");\n        require(msg.value >= _amnt * price, \"INSUFFICIET FUNDS\");\n        require(start == true, \"MINT IS NOT YET LIVE\");\n        ownedBy[minted] = msg.sender;\n        _doMint(_amnt, msg.sender, _diasIDs, _diasOBJs);\n        uint256 o = 1 + (block.timestamp % 9);\n        return _earn(msg.sender, o);\n    }\n\n    function setPrices(\n        uint256 _price,\n        uint256 _arb,\n        uint256 _sts,\n        uint256 _asts\n    ) external onlyO {\n        price = _price;\n        arbprice = _arb;\n        statusprice = _sts;\n        arbstatusprice = _asts;\n    }\n\n    function setARB(address _arb) external onlyO {\n        arb = ERC20(_arb);\n    }\n\n    function arbmint(\n        uint256 _amnt,\n        uint256[] memory _diasIDs,\n        string[] memory _diasOBJs\n    ) external payable returns (uint256) {\n        // INITIATES THE MINT OF UP TO 7 TOKENS IF ALLOWED\n        require(minted <= max + 1, \"SOLD OUT\");\n        require(\n            arb.balanceOf(msg.sender) >= _amnt * price,\n            \"INSUFFICIET FUNDS\"\n        );\n        require(start == true, \"MINT IS NOT YET LIVE\");\n        uint256 one = (((_amnt * price) - ((_amnt * price) % 100)) / 100);\n        arb.transferFrom(\n            msg.sender,\n            0x79E205680908c03047e3f3A4E63FD192Ff4Cf409,\n            one * 70\n        );\n        arb.transferFrom(\n            msg.sender,\n            0xB4AB6aCfc8DE6BC53Cc696B902e59274d288D3E8,\n            one * 30\n        );\n        ownedBy[minted] = msg.sender;\n        _doMint(_amnt, msg.sender, _diasIDs, _diasOBJs);\n        uint256 o = 1 + (block.timestamp % 9);\n        return _earn(msg.sender, o);\n    }\n\n    function greenMint(uint256[] memory _diasIDs, string[] memory _diasOBJs)\n        external\n        returns (uint256)\n    {\n        // INITIATES THE MINT OF UP TO 7 TOKENS IF ALLOWED\n        require(minted <= max, \"SOLD OUT\");\n        require(start == true, \"MINT IS NOT YET LIVE\");\n        bool boo = GLC.isListed(msg.sender);\n        require(boo == true, \"YOU ARE NOT GREENLISTED\");\n        require(slots <= sloz, \"ALL SLOTS HAVE BEEN MINTED\");\n        ownedBy[minted] = msg.sender;\n        _doMint(1, msg.sender, _diasIDs, _diasOBJs);\n        uint256 o = 1 + (block.timestamp % 9);\n        slots++;\n        return _earn(msg.sender, o);\n    }\n\n    function setStatus(uint256 _id, string memory _status)\n        external\n        payable\n        returns (bool)\n    {\n        require(ownedBy[_id] == msg.sender, \"YOU ARE NOT THE HOLDER\");\n        // require(start == false, \"MINT IS STILL IN PROGRESS\");\n        require(msg.value >= statusprice);\n        status[_id] = _status;\n        return true;\n    }\n\n    function iceSetStatus(uint256 _id, string memory _status)\n        external\n        returns (string memory)\n    {\n        require(ownedBy[_id] == msg.sender, \"YOU ARE NOT THE HOLDER\");\n        // require(start == false, \"MINT IS STILL IN PROGRESS\");\n        require(ice.balanceOf(msg.sender) >= digits, \"NOT ENOUGH ICE !\");\n        ice.burn(digits, msg.sender);\n        if (block.timestamp % 9 < 3) {\n            icebox[_id] += 1;\n            if (meltbox[_id] == 0)\n                meltbox[_id] = block.timestamp + 1 * 60 * 60 * 24;\n            else meltbox[_id] += 1 * 60 * 60 * 24;\n        }\n        status[_id] = _status;\n        return \"ICE HAS BEEN ADDED TO FROOT !\";\n    }\n\n    function arbSetStatus(uint256 _id, string memory _status)\n        external\n        returns (string memory)\n    {\n        require(ownedBy[_id] == msg.sender, \"YOU ARE NOT THE HOLDER\");\n        require(start == false, \"MINT IS STILL IN PROGRESS\");\n        require(\n            arb.balanceOf(msg.sender) >= arbstatusprice,\n            \"NOT ENOUGH ICE !\"\n        );\n        uint256 one = ((arbstatusprice - (arbstatusprice % 100)) / 100);\n        arb.transferFrom(\n            msg.sender,\n            0x79E205680908c03047e3f3A4E63FD192Ff4Cf409,\n            one * 70\n        );\n        arb.transferFrom(\n            msg.sender,\n            0xB4AB6aCfc8DE6BC53Cc696B902e59274d288D3E8,\n            one * 30\n        );\n        if (block.timestamp % 9 < 3) {\n            icebox[_id] += 1;\n            if (meltbox[_id] == 0)\n                meltbox[_id] = block.timestamp + 1 * 60 * 60 * 24;\n            else meltbox[_id] += 1 * 60 * 60 * 24;\n        }\n        status[_id] = _status;\n        return \"ICE HAS BEEN ADDED TO FROOT !\";\n    }\n\n    function addIce(uint256 _amount, uint256 _id)\n        external\n        returns (string memory)\n    {\n        require(ice.balanceOf(msg.sender) >= _amount * digits);\n        ice.burn(_amount * digits, msg.sender);\n        icebox[_id] += _amount;\n        meltbox[_id] += _amount * 60 * 60 * 24;\n        return \"ICE HAS BEEN ADDED TO FROOT !\";\n    }\n\n    function meltState() external view returns (int256 state) {\n        int256 meltleft = int256(meltbox[minter[msg.sender]]) -\n            int256(block.timestamp);\n        return state = ((meltleft - (meltleft % 3600)) / 3600);\n    }\n\n    function changeMintState() external onlyO returns (bool) {\n        return cMS();\n    }\n\n    // ONLY TESTNET\n    /* */\n    function changeMS() external returns (bool) {\n        require(msg.sender == address(GLC), \"NOT CONTRACT !\");\n        return cMS();\n    }\n\n    // */\n    function cMS() internal returns (bool) {\n        return start = !start;\n    }\n\n    function mintOne(\n        address _adr,\n        uint256 _diasID,\n        string memory _diasOBJ\n    ) internal returns (uint256) {\n        // INTERNAL // MINTS ONE TOKEN\n        _mint(_adr, minted);\n        tid[minted] = _diasID;\n        dias[minted] = bytes(_diasOBJ);\n        meltbox[minted] = block.timestamp + (7 * 60 * 60 * 24);\n        minter[_adr] = minted;\n        minted++;\n        if (minted >= max + 1) cMS();\n        return minted;\n    }\n\n    function _doMint(\n        uint256 _amnt,\n        address _adr,\n        uint256[] memory _diasIDs,\n        string[] memory _diasOBJs\n    ) internal returns (uint256) {\n        require(\n            balanceOf(_adr) + _amnt <= num,\n            \"EXCEEDED MAX MINTABLE TOKENS PER WALLET\"\n        );\n        require(minted + _amnt <= max + 1, \"NOT ENOUGH SUPPLY\");\n        // INTERNAL // MINTS UP TO 7 TOKENS IN ONE TX\n        mintOne(_adr, _diasIDs[0], _diasOBJs[0]);\n        return minted;\n    }\n\n    function holder(uint256 _id) external view returns (address) {\n        // SHOWS OWNER OF TOKEN BY TID\n        return ownedBy[_id];\n    }\n\n    function clearSloz() external returns (bool) {\n        slots = 1234;\n        return true;\n    }\n\n    function withdraw() external onlyO returns (uint256) {\n        uint256 one = ((address(this).balance - (address(this).balance % 100)) /\n            100);\n        payable(0x79E205680908c03047e3f3A4E63FD192Ff4Cf409).transfer(one * 70);\n        payable(0xB4AB6aCfc8DE6BC53Cc696B902e59274d288D3E8).transfer(one * 30);\n        return address(this).balance;\n    }\n    /*\n\n    function flushERC20(address _erc) external onlyO returns (uint256) {\n        // WITHDRAW ALL COIN FROM CONTRACT\n        ERC20 coin = ERC20(_erc);\n        coin.transferFrom(\n            address(this),\n            0x79E205680908c03047e3f3A4E63FD192Ff4Cf409,\n            coin.balanceOf(address(this))\n        );\n        return coin.balanceOf(address(this));\n    }\n\n    function flushERC721(address _erc, uint256 _id)\n        external\n        onlyO\n        returns (uint256)\n    {\n        // WITHDRAW ALL NFT FROM CONTRACT\n        ERC721 coin = ERC721(_erc);\n        coin.transferFrom(\n            address(this),\n            0x79E205680908c03047e3f3A4E63FD192Ff4Cf409,\n            _id\n        );\n        return _id;\n    }\n\n    */\n}\n",
  "sourcePath": "/Users/iii6/Documents/GitHub/niftish/contracts/FrootyCoolTingz.sol",
  "compiler": {
    "name": "solc",
    "version": "0.8.17+commit.8df45f5f.Emscripten.clang"
  },
  "schemaVersion": "3.4.8",
  "updatedAt": "2023-03-23T22:30:37.314Z",
  "networkType": "ethereum",
  "devdoc": {
    "kind": "dev",
    "methods": {
      "approve(address,uint256)": {
        "details": "See {IERC721-approve}."
      },
      "balanceOf(address)": {
        "details": "See {IERC721-balanceOf}."
      },
      "getApproved(uint256)": {
        "details": "See {IERC721-getApproved}."
      },
      "isApprovedForAll(address,address)": {
        "details": "See {IERC721-isApprovedForAll}."
      },
      "name()": {
        "details": "See {IERC721Metadata-name}."
      },
      "ownerOf(uint256)": {
        "details": "See {IERC721-ownerOf}."
      },
      "safeTransferFrom(address,address,uint256)": {
        "details": "See {IERC721-safeTransferFrom}."
      },
      "safeTransferFrom(address,address,uint256,bytes)": {
        "details": "See {IERC721-safeTransferFrom}."
      },
      "setApprovalForAll(address,bool)": {
        "details": "See {IERC721-setApprovalForAll}."
      },
      "supportsInterface(bytes4)": {
        "details": "See {IERC165-supportsInterface}."
      },
      "symbol()": {
        "details": "See {IERC721Metadata-symbol}."
      },
      "tokenURI(uint256)": {
        "details": "See {IERC721Metadata-tokenURI}."
      },
      "transferFrom(address,address,uint256)": {
        "details": "See {IERC721-transferFrom}."
      }
    },
    "version": 1
  },
  "userdoc": {
    "kind": "user",
    "methods": {},
    "version": 1
  }
}