{
  "contractName": "COOLFROOT",
  "abi": [
    {
      "inputs": [
        {
          "internalType": "address",
          "name": "_ICE",
          "type": "address"
        },
        {
          "internalType": "address",
          "name": "_Greenlist",
          "type": "address"
        },
        {
          "internalType": "uint256",
          "name": "_t",
          "type": "uint256"
        }
      ],
      "stateMutability": "nonpayable",
      "type": "constructor"
    },
    {
      "anonymous": false,
      "inputs": [
        {
          "indexed": true,
          "internalType": "address",
          "name": "owner",
          "type": "address"
        },
        {
          "indexed": true,
          "internalType": "address",
          "name": "approved",
          "type": "address"
        },
        {
          "indexed": true,
          "internalType": "uint256",
          "name": "tokenId",
          "type": "uint256"
        }
      ],
      "name": "Approval",
      "type": "event"
    },
    {
      "anonymous": false,
      "inputs": [
        {
          "indexed": true,
          "internalType": "address",
          "name": "owner",
          "type": "address"
        },
        {
          "indexed": true,
          "internalType": "address",
          "name": "operator",
          "type": "address"
        },
        {
          "indexed": false,
          "internalType": "bool",
          "name": "approved",
          "type": "bool"
        }
      ],
      "name": "ApprovalForAll",
      "type": "event"
    },
    {
      "anonymous": false,
      "inputs": [
        {
          "indexed": true,
          "internalType": "address",
          "name": "from",
          "type": "address"
        },
        {
          "indexed": true,
          "internalType": "address",
          "name": "to",
          "type": "address"
        },
        {
          "indexed": true,
          "internalType": "uint256",
          "name": "tokenId",
          "type": "uint256"
        }
      ],
      "name": "Transfer",
      "type": "event"
    },
    {
      "inputs": [],
      "name": "GLC",
      "outputs": [
        {
          "internalType": "contract Greenlist",
          "name": "",
          "type": "address"
        }
      ],
      "stateMutability": "view",
      "type": "function",
      "constant": true
    },
    {
      "inputs": [
        {
          "internalType": "address",
          "name": "to",
          "type": "address"
        },
        {
          "internalType": "uint256",
          "name": "tokenId",
          "type": "uint256"
        }
      ],
      "name": "approve",
      "outputs": [],
      "stateMutability": "nonpayable",
      "type": "function"
    },
    {
      "inputs": [],
      "name": "arb",
      "outputs": [
        {
          "internalType": "contract ERC20",
          "name": "",
          "type": "address"
        }
      ],
      "stateMutability": "view",
      "type": "function",
      "constant": true
    },
    {
      "inputs": [],
      "name": "arbprice",
      "outputs": [
        {
          "internalType": "uint256",
          "name": "",
          "type": "uint256"
        }
      ],
      "stateMutability": "view",
      "type": "function",
      "constant": true
    },
    {
      "inputs": [],
      "name": "arbstatusprice",
      "outputs": [
        {
          "internalType": "uint256",
          "name": "",
          "type": "uint256"
        }
      ],
      "stateMutability": "view",
      "type": "function",
      "constant": true
    },
    {
      "inputs": [
        {
          "internalType": "address",
          "name": "owner",
          "type": "address"
        }
      ],
      "name": "balanceOf",
      "outputs": [
        {
          "internalType": "uint256",
          "name": "",
          "type": "uint256"
        }
      ],
      "stateMutability": "view",
      "type": "function",
      "constant": true
    },
    {
      "inputs": [
        {
          "internalType": "uint256",
          "name": "",
          "type": "uint256"
        }
      ],
      "name": "dias",
      "outputs": [
        {
          "internalType": "bytes",
          "name": "",
          "type": "bytes"
        }
      ],
      "stateMutability": "view",
      "type": "function",
      "constant": true
    },
    {
      "inputs": [],
      "name": "digits",
      "outputs": [
        {
          "internalType": "uint256",
          "name": "",
          "type": "uint256"
        }
      ],
      "stateMutability": "view",
      "type": "function",
      "constant": true
    },
    {
      "inputs": [
        {
          "internalType": "uint256",
          "name": "tokenId",
          "type": "uint256"
        }
      ],
      "name": "getApproved",
      "outputs": [
        {
          "internalType": "address",
          "name": "",
          "type": "address"
        }
      ],
      "stateMutability": "view",
      "type": "function",
      "constant": true
    },
    {
      "inputs": [],
      "name": "ice",
      "outputs": [
        {
          "internalType": "contract ICE",
          "name": "",
          "type": "address"
        }
      ],
      "stateMutability": "view",
      "type": "function",
      "constant": true
    },
    {
      "inputs": [
        {
          "internalType": "uint256",
          "name": "",
          "type": "uint256"
        }
      ],
      "name": "icebox",
      "outputs": [
        {
          "internalType": "uint256",
          "name": "",
          "type": "uint256"
        }
      ],
      "stateMutability": "view",
      "type": "function",
      "constant": true
    },
    {
      "inputs": [
        {
          "internalType": "address",
          "name": "owner",
          "type": "address"
        },
        {
          "internalType": "address",
          "name": "operator",
          "type": "address"
        }
      ],
      "name": "isApprovedForAll",
      "outputs": [
        {
          "internalType": "bool",
          "name": "",
          "type": "bool"
        }
      ],
      "stateMutability": "view",
      "type": "function",
      "constant": true
    },
    {
      "inputs": [],
      "name": "max",
      "outputs": [
        {
          "internalType": "uint256",
          "name": "",
          "type": "uint256"
        }
      ],
      "stateMutability": "view",
      "type": "function",
      "constant": true
    },
    {
      "inputs": [
        {
          "internalType": "uint256",
          "name": "",
          "type": "uint256"
        }
      ],
      "name": "meltbox",
      "outputs": [
        {
          "internalType": "uint256",
          "name": "",
          "type": "uint256"
        }
      ],
      "stateMutability": "view",
      "type": "function",
      "constant": true
    },
    {
      "inputs": [],
      "name": "minted",
      "outputs": [
        {
          "internalType": "uint256",
          "name": "",
          "type": "uint256"
        }
      ],
      "stateMutability": "view",
      "type": "function",
      "constant": true
    },
    {
      "inputs": [
        {
          "internalType": "address",
          "name": "",
          "type": "address"
        }
      ],
      "name": "minter",
      "outputs": [
        {
          "internalType": "uint256",
          "name": "",
          "type": "uint256"
        }
      ],
      "stateMutability": "view",
      "type": "function",
      "constant": true
    },
    {
      "inputs": [],
      "name": "nam",
      "outputs": [
        {
          "internalType": "string",
          "name": "",
          "type": "string"
        }
      ],
      "stateMutability": "view",
      "type": "function",
      "constant": true
    },
    {
      "inputs": [],
      "name": "name",
      "outputs": [
        {
          "internalType": "string",
          "name": "",
          "type": "string"
        }
      ],
      "stateMutability": "view",
      "type": "function",
      "constant": true
    },
    {
      "inputs": [],
      "name": "num",
      "outputs": [
        {
          "internalType": "uint256",
          "name": "",
          "type": "uint256"
        }
      ],
      "stateMutability": "view",
      "type": "function",
      "constant": true
    },
    {
      "inputs": [
        {
          "internalType": "uint256",
          "name": "",
          "type": "uint256"
        }
      ],
      "name": "ownedBy",
      "outputs": [
        {
          "internalType": "address",
          "name": "",
          "type": "address"
        }
      ],
      "stateMutability": "view",
      "type": "function",
      "constant": true
    },
    {
      "inputs": [],
      "name": "owner",
      "outputs": [
        {
          "internalType": "address",
          "name": "",
          "type": "address"
        }
      ],
      "stateMutability": "view",
      "type": "function",
      "constant": true
    },
    {
      "inputs": [
        {
          "internalType": "uint256",
          "name": "tokenId",
          "type": "uint256"
        }
      ],
      "name": "ownerOf",
      "outputs": [
        {
          "internalType": "address",
          "name": "",
          "type": "address"
        }
      ],
      "stateMutability": "view",
      "type": "function",
      "constant": true
    },
    {
      "inputs": [],
      "name": "price",
      "outputs": [
        {
          "internalType": "uint256",
          "name": "",
          "type": "uint256"
        }
      ],
      "stateMutability": "view",
      "type": "function",
      "constant": true
    },
    {
      "inputs": [
        {
          "internalType": "address",
          "name": "from",
          "type": "address"
        },
        {
          "internalType": "address",
          "name": "to",
          "type": "address"
        },
        {
          "internalType": "uint256",
          "name": "tokenId",
          "type": "uint256"
        }
      ],
      "name": "safeTransferFrom",
      "outputs": [],
      "stateMutability": "nonpayable",
      "type": "function"
    },
    {
      "inputs": [
        {
          "internalType": "address",
          "name": "from",
          "type": "address"
        },
        {
          "internalType": "address",
          "name": "to",
          "type": "address"
        },
        {
          "internalType": "uint256",
          "name": "tokenId",
          "type": "uint256"
        },
        {
          "internalType": "bytes",
          "name": "_data",
          "type": "bytes"
        }
      ],
      "name": "safeTransferFrom",
      "outputs": [],
      "stateMutability": "nonpayable",
      "type": "function"
    },
    {
      "inputs": [
        {
          "internalType": "address",
          "name": "operator",
          "type": "address"
        },
        {
          "internalType": "bool",
          "name": "approved",
          "type": "bool"
        }
      ],
      "name": "setApprovalForAll",
      "outputs": [],
      "stateMutability": "nonpayable",
      "type": "function"
    },
    {
      "inputs": [],
      "name": "slots",
      "outputs": [
        {
          "internalType": "uint256",
          "name": "",
          "type": "uint256"
        }
      ],
      "stateMutability": "view",
      "type": "function",
      "constant": true
    },
    {
      "inputs": [],
      "name": "sloz",
      "outputs": [
        {
          "internalType": "uint256",
          "name": "",
          "type": "uint256"
        }
      ],
      "stateMutability": "view",
      "type": "function",
      "constant": true
    },
    {
      "inputs": [],
      "name": "start",
      "outputs": [
        {
          "internalType": "bool",
          "name": "",
          "type": "bool"
        }
      ],
      "stateMutability": "view",
      "type": "function",
      "constant": true
    },
    {
      "inputs": [
        {
          "internalType": "uint256",
          "name": "",
          "type": "uint256"
        }
      ],
      "name": "status",
      "outputs": [
        {
          "internalType": "string",
          "name": "",
          "type": "string"
        }
      ],
      "stateMutability": "view",
      "type": "function",
      "constant": true
    },
    {
      "inputs": [],
      "name": "statusprice",
      "outputs": [
        {
          "internalType": "uint256",
          "name": "",
          "type": "uint256"
        }
      ],
      "stateMutability": "view",
      "type": "function",
      "constant": true
    },
    {
      "inputs": [
        {
          "internalType": "bytes4",
          "name": "interfaceId",
          "type": "bytes4"
        }
      ],
      "name": "supportsInterface",
      "outputs": [
        {
          "internalType": "bool",
          "name": "",
          "type": "bool"
        }
      ],
      "stateMutability": "view",
      "type": "function",
      "constant": true
    },
    {
      "inputs": [],
      "name": "sym",
      "outputs": [
        {
          "internalType": "string",
          "name": "",
          "type": "string"
        }
      ],
      "stateMutability": "view",
      "type": "function",
      "constant": true
    },
    {
      "inputs": [],
      "name": "symbol",
      "outputs": [
        {
          "internalType": "string",
          "name": "",
          "type": "string"
        }
      ],
      "stateMutability": "view",
      "type": "function",
      "constant": true
    },
    {
      "inputs": [
        {
          "internalType": "uint256",
          "name": "",
          "type": "uint256"
        }
      ],
      "name": "tid",
      "outputs": [
        {
          "internalType": "uint256",
          "name": "",
          "type": "uint256"
        }
      ],
      "stateMutability": "view",
      "type": "function",
      "constant": true
    },
    {
      "inputs": [
        {
          "internalType": "uint256",
          "name": "tokenId",
          "type": "uint256"
        }
      ],
      "name": "tokenURI",
      "outputs": [
        {
          "internalType": "string",
          "name": "",
          "type": "string"
        }
      ],
      "stateMutability": "view",
      "type": "function",
      "constant": true
    },
    {
      "inputs": [
        {
          "internalType": "address",
          "name": "from",
          "type": "address"
        },
        {
          "internalType": "address",
          "name": "to",
          "type": "address"
        },
        {
          "internalType": "uint256",
          "name": "tokenId",
          "type": "uint256"
        }
      ],
      "name": "transferFrom",
      "outputs": [],
      "stateMutability": "nonpayable",
      "type": "function"
    },
    {
      "inputs": [
        {
          "internalType": "address",
          "name": "_adr",
          "type": "address"
        }
      ],
      "name": "isOwner",
      "outputs": [
        {
          "internalType": "bool",
          "name": "",
          "type": "bool"
        }
      ],
      "stateMutability": "view",
      "type": "function",
      "constant": true
    },
    {
      "inputs": [
        {
          "internalType": "uint256",
          "name": "_amnt",
          "type": "uint256"
        },
        {
          "internalType": "uint256[]",
          "name": "_diasIDs",
          "type": "uint256[]"
        },
        {
          "internalType": "string[]",
          "name": "_diasOBJs",
          "type": "string[]"
        }
      ],
      "name": "mint",
      "outputs": [
        {
          "internalType": "uint256",
          "name": "",
          "type": "uint256"
        }
      ],
      "stateMutability": "payable",
      "type": "function",
      "payable": true
    },
    {
      "inputs": [
        {
          "internalType": "address",
          "name": "_arb",
          "type": "address"
        }
      ],
      "name": "setARB",
      "outputs": [],
      "stateMutability": "nonpayable",
      "type": "function"
    },
    {
      "inputs": [
        {
          "internalType": "uint256",
          "name": "_amnt",
          "type": "uint256"
        },
        {
          "internalType": "uint256[]",
          "name": "_diasIDs",
          "type": "uint256[]"
        },
        {
          "internalType": "string[]",
          "name": "_diasOBJs",
          "type": "string[]"
        }
      ],
      "name": "arbmint",
      "outputs": [
        {
          "internalType": "uint256",
          "name": "",
          "type": "uint256"
        }
      ],
      "stateMutability": "payable",
      "type": "function",
      "payable": true
    },
    {
      "inputs": [
        {
          "internalType": "uint256[]",
          "name": "_diasIDs",
          "type": "uint256[]"
        },
        {
          "internalType": "string[]",
          "name": "_diasOBJs",
          "type": "string[]"
        }
      ],
      "name": "greenMint",
      "outputs": [
        {
          "internalType": "uint256",
          "name": "",
          "type": "uint256"
        }
      ],
      "stateMutability": "nonpayable",
      "type": "function"
    },
    {
      "inputs": [
        {
          "internalType": "uint256",
          "name": "_id",
          "type": "uint256"
        },
        {
          "internalType": "string",
          "name": "_status",
          "type": "string"
        }
      ],
      "name": "setStatus",
      "outputs": [
        {
          "internalType": "bool",
          "name": "",
          "type": "bool"
        }
      ],
      "stateMutability": "payable",
      "type": "function",
      "payable": true
    },
    {
      "inputs": [
        {
          "internalType": "uint256",
          "name": "_id",
          "type": "uint256"
        },
        {
          "internalType": "string",
          "name": "_status",
          "type": "string"
        }
      ],
      "name": "iceSetStatus",
      "outputs": [
        {
          "internalType": "string",
          "name": "",
          "type": "string"
        }
      ],
      "stateMutability": "nonpayable",
      "type": "function"
    },
    {
      "inputs": [
        {
          "internalType": "uint256",
          "name": "_id",
          "type": "uint256"
        },
        {
          "internalType": "string",
          "name": "_status",
          "type": "string"
        }
      ],
      "name": "arbSetStatus",
      "outputs": [
        {
          "internalType": "string",
          "name": "",
          "type": "string"
        }
      ],
      "stateMutability": "nonpayable",
      "type": "function"
    },
    {
      "inputs": [
        {
          "internalType": "uint256",
          "name": "_amount",
          "type": "uint256"
        },
        {
          "internalType": "uint256",
          "name": "_id",
          "type": "uint256"
        }
      ],
      "name": "addIce",
      "outputs": [
        {
          "internalType": "string",
          "name": "",
          "type": "string"
        }
      ],
      "stateMutability": "nonpayable",
      "type": "function"
    },
    {
      "inputs": [],
      "name": "meltState",
      "outputs": [
        {
          "internalType": "int256",
          "name": "state",
          "type": "int256"
        }
      ],
      "stateMutability": "view",
      "type": "function",
      "constant": true
    },
    {
      "inputs": [],
      "name": "changeMintState",
      "outputs": [
        {
          "internalType": "bool",
          "name": "",
          "type": "bool"
        }
      ],
      "stateMutability": "nonpayable",
      "type": "function"
    },
    {
      "inputs": [],
      "name": "changeMS",
      "outputs": [
        {
          "internalType": "bool",
          "name": "",
          "type": "bool"
        }
      ],
      "stateMutability": "nonpayable",
      "type": "function"
    },
    {
      "inputs": [
        {
          "internalType": "uint256",
          "name": "_id",
          "type": "uint256"
        }
      ],
      "name": "holder",
      "outputs": [
        {
          "internalType": "address",
          "name": "",
          "type": "address"
        }
      ],
      "stateMutability": "view",
      "type": "function",
      "constant": true
    },
    {
      "inputs": [],
      "name": "clearSloz",
      "outputs": [
        {
          "internalType": "bool",
          "name": "",
          "type": "bool"
        }
      ],
      "stateMutability": "nonpayable",
      "type": "function"
    },
    {
      "inputs": [],
      "name": "withdraw",
      "outputs": [
        {
          "internalType": "uint256",
          "name": "",
          "type": "uint256"
        }
      ],
      "stateMutability": "nonpayable",
      "type": "function"
    }
  ],
  "bytecode": "0x6080604052670de0b6b3a7640000600a553480156200001d57600080fd5b506040516200684f3803806200684f8339818101604052810190620000439190620004ac565b6040518060400160405280600b81526020017f436f6f6c2046726f6f74730000000000000000000000000000000000000000008152506040518060400160405280600681526020017f46523030545300000000000000000000000000000000000000000000000000008152508160009081620000c0919062000778565b508060019081620000d2919062000778565b5050506001600f81905550600060128190555033600d60006101000a81548173ffffffffffffffffffffffffffffffffffffffff021916908373ffffffffffffffffffffffffffffffffffffffff1602179055506040518060400160405280600b81526020017f436f6f6c2046726f6f7473000000000000000000000000000000000000000000815250601090816200016c919062000778565b506040518060400160405280600681526020017f46524f4f5453000000000000000000000000000000000000000000000000000081525060119081620001b3919062000778565b5082601b60006101000a81548173ffffffffffffffffffffffffffffffffffffffff021916908373ffffffffffffffffffffffffffffffffffffffff16021790555081601c60006101000a81548173ffffffffffffffffffffffffffffffffffffffff021916908373ffffffffffffffffffffffffffffffffffffffff1602179055506000810362000373576032600b81905550601c60009054906101000a900473ffffffffffffffffffffffffffffffffffffffff1673ffffffffffffffffffffffffffffffffffffffff16636ac5db196040518163ffffffff1660e01b8152600401602060405180830381865afa158015620002b5573d6000803e3d6000fd5b505050506040513d601f19601f82011682018060405250810190620002db91906200085f565b600c81905550620186a0600a546004620002f69190620008c0565b6200030291906200093a565b600681905550620f4240600a546200031b91906200093a565b6007819055506103e8600a546007620003359190620008c0565b6200034191906200093a565b600881905550612710600a5460026200035b9190620008c0565b6200036791906200093a565b600981905550620003fe565b6115b3600b819055506104d2600c819055506064600a546004620003989190620008c0565b620003a491906200093a565b6006819055506103e8600a54620003bc91906200093a565b600781905550600a546007620003d39190620008c0565b600881905550600a80546002620003eb9190620008c0565b620003f791906200093a565b6009819055505b50505062000972565b600080fd5b600073ffffffffffffffffffffffffffffffffffffffff82169050919050565b600062000439826200040c565b9050919050565b6200044b816200042c565b81146200045757600080fd5b50565b6000815190506200046b8162000440565b92915050565b6000819050919050565b620004868162000471565b81146200049257600080fd5b50565b600081519050620004a6816200047b565b92915050565b600080600060608486031215620004c857620004c762000407565b5b6000620004d8868287016200045a565b9350506020620004eb868287016200045a565b9250506040620004fe8682870162000495565b9150509250925092565b600081519050919050565b7f4e487b7100000000000000000000000000000000000000000000000000000000600052604160045260246000fd5b7f4e487b7100000000000000000000000000000000000000000000000000000000600052602260045260246000fd5b600060028204905060018216806200058a57607f821691505b602082108103620005a0576200059f62000542565b5b50919050565b60008190508160005260206000209050919050565b60006020601f8301049050919050565b600082821b905092915050565b6000600883026200060a7fffffffffffffffffffffffffffffffffffffffffffffffffffffffffffffffff82620005cb565b620006168683620005cb565b95508019841693508086168417925050509392505050565b6000819050919050565b600062000659620006536200064d8462000471565b6200062e565b62000471565b9050919050565b6000819050919050565b620006758362000638565b6200068d620006848262000660565b848454620005d8565b825550505050565b600090565b620006a462000695565b620006b18184846200066a565b505050565b5b81811015620006d957620006cd6000826200069a565b600181019050620006b7565b5050565b601f8211156200072857620006f281620005a6565b620006fd84620005bb565b810160208510156200070d578190505b620007256200071c85620005bb565b830182620006b6565b50505b505050565b600082821c905092915050565b60006200074d600019846008026200072d565b1980831691505092915050565b60006200076883836200073a565b9150826002028217905092915050565b620007838262000508565b67ffffffffffffffff8111156200079f576200079e62000513565b5b620007ab825462000571565b620007b8828285620006dd565b600060209050601f831160018114620007f05760008415620007db578287015190505b620007e785826200075a565b86555062000857565b601f1984166200080086620005a6565b60005b828110156200082a5784890151825560018201915060208501945060208101905062000803565b868310156200084a578489015162000846601f8916826200073a565b8355505b6001600288020188555050505b505050505050565b60006020828403121562000878576200087762000407565b5b6000620008888482850162000495565b91505092915050565b7f4e487b7100000000000000000000000000000000000000000000000000000000600052601160045260246000fd5b6000620008cd8262000471565b9150620008da8362000471565b9250828202620008ea8162000471565b9150828204841483151762000904576200090362000891565b5b5092915050565b7f4e487b7100000000000000000000000000000000000000000000000000000000600052601260045260246000fd5b6000620009478262000471565b9150620009548362000471565b9250826200096757620009666200090b565b5b828204905092915050565b615ecd80620009826000396000f3fe6080604052600436106102ff5760003560e01c80638014275411610190578063acb5fedf116100dc578063c87b56dd11610095578063e3c44ff71161006f578063e3c44ff714610c49578063e985e9c514610c74578063ea25b61d14610cb1578063f62d8dfb14610cdc576102ff565b8063c87b56dd14610b9f578063ca88485914610bdc578063d64b3ae814610c0c576102ff565b8063acb5fedf14610a7b578063ae943abc14610aa6578063b524fd6f14610ae3578063b88d4fde14610b0e578063ba899a2e14610b37578063be9a655514610b74576102ff565b80639e20437c11610149578063a613e0e711610123578063a613e0e714610999578063a9700e1f146109d6578063aa1ee94014610a01578063ac0d408414610a3e576102ff565b80639e20437c1461091a578063a035b1fe14610945578063a22cb46514610970576102ff565b8063801427541461080657806383813a28146108315780638da5cb5b1461085c57806395d89b41146108875780639af9bec0146108b25780639b4f589f146108dd576102ff565b806342d21ef71161024f5780636352211e1161020857806370a08231116101e257806370a082311461073357806376917df9146107705780637cbca3e0146107a05780637d23b33c146107c9576102ff565b80636352211e146106a05780636ac5db19146106dd5780636f743acd14610708576102ff565b806342d21ef71461058c57806348547d69146105c95780634c2a860d146105f45780634e70b1dc1461061f5780634f02c4201461064a5780635395acd214610675576102ff565b806323b872dd116102bc5780633b8d676f116102965780633b8d676f146104d05780633ccfd60b146104fb5780633dd08c381461052657806342842e0e14610563576102ff565b806323b872dd1461042d5780632ce56773146104565780632f54bf6e14610493576102ff565b806301ffc9a71461030457806306390d6c1461034157806306fdde031461036c578063081812fc14610397578063095ea7b3146103d457806320a7270d146103fd575b600080fd5b34801561031057600080fd5b5061032b60048036038101906103269190613eb4565b610d19565b6040516103389190613efc565b60405180910390f35b34801561034d57600080fd5b50610356610dfb565b6040516103639190613f30565b60405180910390f35b34801561037857600080fd5b50610381610e01565b60405161038e9190613fdb565b60405180910390f35b3480156103a357600080fd5b506103be60048036038101906103b99190614029565b610e93565b6040516103cb9190614097565b60405180910390f35b3480156103e057600080fd5b506103fb60048036038101906103f691906140de565b610f18565b005b610417600480360381019061041291906143fc565b61102f565b6040516104249190613f30565b60405180910390f35b34801561043957600080fd5b50610454600480360381019061044f9190614487565b6111bc565b005b34801561046257600080fd5b5061047d600480360381019061047891906144da565b61121c565b60405161048a9190613fdb565b60405180910390f35b34801561049f57600080fd5b506104ba60048036038101906104b59190614536565b6115ac565b6040516104c79190613efc565b60405180910390f35b3480156104dc57600080fd5b506104e5611616565b6040516104f29190613efc565b60405180910390f35b34801561050757600080fd5b506105106116b5565b60405161051d9190613f30565b60405180910390f35b34801561053257600080fd5b5061054d60048036038101906105489190614536565b61180d565b60405161055a9190613f30565b60405180910390f35b34801561056f57600080fd5b5061058a60048036038101906105859190614487565b611825565b005b34801561059857600080fd5b506105b360048036038101906105ae9190614029565b611845565b6040516105c09190613fdb565b60405180910390f35b3480156105d557600080fd5b506105de6118e5565b6040516105eb9190613f30565b60405180910390f35b34801561060057600080fd5b506106096118eb565b60405161061691906145c2565b60405180910390f35b34801561062b57600080fd5b50610634611911565b6040516106419190613f30565b60405180910390f35b34801561065657600080fd5b5061065f611916565b60405161066c9190613f30565b60405180910390f35b34801561068157600080fd5b5061068a61191c565b6040516106979190613f30565b60405180910390f35b3480156106ac57600080fd5b506106c760048036038101906106c29190614029565b611922565b6040516106d49190614097565b60405180910390f35b3480156106e957600080fd5b506106f26119d3565b6040516106ff9190613f30565b60405180910390f35b34801561071457600080fd5b5061071d6119d9565b60405161072a9190613f30565b60405180910390f35b34801561073f57600080fd5b5061075a60048036038101906107559190614536565b6119df565b6040516107679190613f30565b60405180910390f35b61078a600480360381019061078591906144da565b611a96565b6040516107979190613efc565b60405180910390f35b3480156107ac57600080fd5b506107c760048036038101906107c29190614536565b611bc9565b005b3480156107d557600080fd5b506107f060048036038101906107eb91906145dd565b611c67565b6040516107fd9190613f30565b60405180910390f35b34801561081257600080fd5b5061081b611edf565b604051610828919061466e565b60405180910390f35b34801561083d57600080fd5b50610846611f6c565b6040516108539190613fdb565b60405180910390f35b34801561086857600080fd5b50610871611ffa565b60405161087e9190614097565b60405180910390f35b34801561089357600080fd5b5061089c612020565b6040516108a99190613fdb565b60405180910390f35b3480156108be57600080fd5b506108c76120b2565b6040516108d49190613fdb565b60405180910390f35b3480156108e957600080fd5b5061090460048036038101906108ff9190614029565b612140565b60405161091191906146de565b60405180910390f35b34801561092657600080fd5b5061092f6121e0565b60405161093c9190613f30565b60405180910390f35b34801561095157600080fd5b5061095a6121e6565b6040516109679190613f30565b60405180910390f35b34801561097c57600080fd5b506109976004803603810190610992919061472c565b6121ec565b005b3480156109a557600080fd5b506109c060048036038101906109bb9190614029565b612202565b6040516109cd9190614097565b60405180910390f35b3480156109e257600080fd5b506109eb612235565b6040516109f8919061478d565b60405180910390f35b348015610a0d57600080fd5b50610a286004803603810190610a239190614029565b61225b565b604051610a359190613f30565b60405180910390f35b348015610a4a57600080fd5b50610a656004803603810190610a6091906147a8565b612273565b604051610a729190613fdb565b60405180910390f35b348015610a8757600080fd5b50610a9061248d565b604051610a9d9190614809565b60405180910390f35b348015610ab257600080fd5b50610acd6004803603810190610ac89190614029565b6124b3565b604051610ada9190613f30565b60405180910390f35b348015610aef57600080fd5b50610af86124cb565b604051610b059190613efc565b60405180910390f35b348015610b1a57600080fd5b50610b356004803603810190610b3091906148c5565b612534565b005b348015610b4357600080fd5b50610b5e6004803603810190610b599190614029565b612596565b604051610b6b9190614097565b60405180910390f35b348015610b8057600080fd5b50610b896125d3565b604051610b969190613efc565b60405180910390f35b348015610bab57600080fd5b50610bc66004803603810190610bc19190614029565b6125e6565b604051610bd39190613fdb565b60405180910390f35b610bf66004803603810190610bf191906143fc565b61268d565b604051610c039190613f30565b60405180910390f35b348015610c1857600080fd5b50610c336004803603810190610c2e9190614029565b612a7d565b604051610c409190613f30565b60405180910390f35b348015610c5557600080fd5b50610c5e612a95565b604051610c6b9190613f30565b60405180910390f35b348015610c8057600080fd5b50610c9b6004803603810190610c969190614948565b612a9b565b604051610ca89190613efc565b60405180910390f35b348015610cbd57600080fd5b50610cc6612b2f565b604051610cd39190613efc565b60405180910390f35b348015610ce857600080fd5b50610d036004803603810190610cfe91906144da565b612b41565b604051610d109190613fdb565b60405180910390f35b60007f80ac58cd000000000000000000000000000000000000000000000000000000007bffffffffffffffffffffffffffffffffffffffffffffffffffffffff1916827bffffffffffffffffffffffffffffffffffffffffffffffffffffffff19161480610de457507f5b5e139f000000000000000000000000000000000000000000000000000000007bffffffffffffffffffffffffffffffffffffffffffffffffffffffff1916827bffffffffffffffffffffffffffffffffffffffffffffffffffffffff1916145b80610df45750610df382612fe0565b5b9050919050565b60075481565b606060008054610e10906149b7565b80601f0160208091040260200160405190810160405280929190818152602001828054610e3c906149b7565b8015610e895780601f10610e5e57610100808354040283529160200191610e89565b820191906000526020600020905b815481529060010190602001808311610e6c57829003601f168201915b5050505050905090565b6000610e9e8261304a565b610edd576040517f08c379a0000000000000000000000000000000000000000000000000000000008152600401610ed490614a5a565b60405180910390fd5b6004600083815260200190815260200160002060009054906101000a900473ffffffffffffffffffffffffffffffffffffffff169050919050565b6000610f2382611922565b90508073ffffffffffffffffffffffffffffffffffffffff168373ffffffffffffffffffffffffffffffffffffffff1603610f93576040517f08c379a0000000000000000000000000000000000000000000000000000000008152600401610f8a90614aec565b60405180910390fd5b8073ffffffffffffffffffffffffffffffffffffffff16610fb26130b6565b73ffffffffffffffffffffffffffffffffffffffff161480610fe15750610fe081610fdb6130b6565b612a9b565b5b611020576040517f08c379a000000000000000000000000000000000000000000000000000000000815260040161101790614b7e565b60405180910390fd5b61102a83836130be565b505050565b60006001600b546110409190614bcd565b600f541115611084576040517f08c379a000000000000000000000000000000000000000000000000000000000815260040161107b90614c4d565b60405180910390fd5b600654846110929190614c6d565b3410156110d4576040517f08c379a00000000000000000000000000000000000000000000000000000000081526004016110cb90614cfb565b60405180910390fd5b60011515601360009054906101000a900460ff1615151461112a576040517f08c379a000000000000000000000000000000000000000000000000000000000815260040161112190614d67565b60405180910390fd5b3360196000600f54815260200190815260200160002060006101000a81548173ffffffffffffffffffffffffffffffffffffffff021916908373ffffffffffffffffffffffffffffffffffffffff16021790555061118a84338585613177565b50600060094261119a9190614db6565b60016111a69190614bcd565b90506111b2338261327d565b9150509392505050565b6111cd6111c76130b6565b82613336565b61120c576040517f08c379a000000000000000000000000000000000000000000000000000000000815260040161120390614e59565b60405180910390fd5b611217838383613414565b505050565b60603373ffffffffffffffffffffffffffffffffffffffff166019600085815260200190815260200160002060009054906101000a900473ffffffffffffffffffffffffffffffffffffffff1673ffffffffffffffffffffffffffffffffffffffff16146112bf576040517f08c379a00000000000000000000000000000000000000000000000000000000081526004016112b690614ec5565b60405180910390fd5b60001515601360009054906101000a900460ff16151514611315576040517f08c379a000000000000000000000000000000000000000000000000000000000815260040161130c90614f31565b60405180910390fd5b600a54601b60009054906101000a900473ffffffffffffffffffffffffffffffffffffffff1673ffffffffffffffffffffffffffffffffffffffff166370a08231336040518263ffffffff1660e01b81526004016113739190614097565b602060405180830381865afa158015611390573d6000803e3d6000fd5b505050506040513d601f19601f820116820180604052508101906113b49190614f66565b10156113f5576040517f08c379a00000000000000000000000000000000000000000000000000000000081526004016113ec90614fdf565b60405180910390fd5b601b60009054906101000a900473ffffffffffffffffffffffffffffffffffffffff1673ffffffffffffffffffffffffffffffffffffffff1663fcd3533c600a54336040518363ffffffff1660e01b8152600401611454929190614fff565b6020604051808303816000875af1158015611473573d6000803e3d6000fd5b505050506040513d601f19601f820116820180604052508101906114979190614f66565b5060036009426114a79190614db6565b101561154d5760016017600085815260200190815260200160002060008282546114d19190614bcd565b92505081905550600060186000858152602001908152602001600020540361151e5762015180426115029190614bcd565b601860008581526020019081526020016000208190555061154c565b620151806018600085815260200190815260200160002060008282546115449190614bcd565b925050819055505b5b8160166000858152602001908152602001600020908161156d91906151ca565b506040518060400160405280601d81526020017f49434520484153204245454e20414444454420544f2046524f4f542021000000815250905092915050565b6000600d60009054906101000a900473ffffffffffffffffffffffffffffffffffffffff1673ffffffffffffffffffffffffffffffffffffffff168273ffffffffffffffffffffffffffffffffffffffff160361160c5760019050611611565b600090505b919050565b6000601c60009054906101000a900473ffffffffffffffffffffffffffffffffffffffff1673ffffffffffffffffffffffffffffffffffffffff163373ffffffffffffffffffffffffffffffffffffffff16146116a8576040517f08c379a000000000000000000000000000000000000000000000000000000000815260040161169f906152e8565b60405180910390fd5b6116b061366f565b905090565b6000600d60009054906101000a900473ffffffffffffffffffffffffffffffffffffffff1673ffffffffffffffffffffffffffffffffffffffff163373ffffffffffffffffffffffffffffffffffffffff161461171157600080fd5b6000606480476117219190614db6565b4761172c9190615308565b611736919061533c565b90507379e205680908c03047e3f3a4e63fd192ff4cf40973ffffffffffffffffffffffffffffffffffffffff166108fc6046836117739190614c6d565b9081150290604051600060405180830381858888f1935050505015801561179e573d6000803e3d6000fd5b5073b4ab6acfc8de6bc53cc696b902e59274d288d3e873ffffffffffffffffffffffffffffffffffffffff166108fc601e836117da9190614c6d565b9081150290604051600060405180830381858888f19350505050158015611805573d6000803e3d6000fd5b504791505090565b601a6020528060005260406000206000915090505481565b61184083838360405180602001604052806000815250612534565b505050565b60166020528060005260406000206000915090508054611864906149b7565b80601f0160208091040260200160405190810160405280929190818152602001828054611890906149b7565b80156118dd5780601f106118b2576101008083540402835291602001916118dd565b820191906000526020600020905b8154815290600101906020018083116118c057829003601f168201915b505050505081565b60125481565b601b60009054906101000a900473ffffffffffffffffffffffffffffffffffffffff1681565b600181565b600f5481565b60095481565b6000806002600084815260200190815260200160002060009054906101000a900473ffffffffffffffffffffffffffffffffffffffff169050600073ffffffffffffffffffffffffffffffffffffffff168173ffffffffffffffffffffffffffffffffffffffff16036119ca576040517f08c379a00000000000000000000000000000000000000000000000000000000081526004016119c1906153df565b60405180910390fd5b80915050919050565b600b5481565b600c5481565b60008073ffffffffffffffffffffffffffffffffffffffff168273ffffffffffffffffffffffffffffffffffffffff1603611a4f576040517f08c379a0000000000000000000000000000000000000000000000000000000008152600401611a4690615471565b60405180910390fd5b600360008373ffffffffffffffffffffffffffffffffffffffff1673ffffffffffffffffffffffffffffffffffffffff168152602001908152602001600020549050919050565b60003373ffffffffffffffffffffffffffffffffffffffff166019600085815260200190815260200160002060009054906101000a900473ffffffffffffffffffffffffffffffffffffffff1673ffffffffffffffffffffffffffffffffffffffff1614611b39576040517f08c379a0000000000000000000000000000000000000000000000000000000008152600401611b3090614ec5565b60405180910390fd5b60001515601360009054906101000a900460ff16151514611b8f576040517f08c379a0000000000000000000000000000000000000000000000000000000008152600401611b8690614f31565b60405180910390fd5b600754341015611b9e57600080fd5b81601660008581526020019081526020016000209081611bbe91906151ca565b506001905092915050565b600d60009054906101000a900473ffffffffffffffffffffffffffffffffffffffff1673ffffffffffffffffffffffffffffffffffffffff163373ffffffffffffffffffffffffffffffffffffffff1614611c2357600080fd5b80601d60006101000a81548173ffffffffffffffffffffffffffffffffffffffff021916908373ffffffffffffffffffffffffffffffffffffffff16021790555050565b6000600b54600f541115611cb0576040517f08c379a0000000000000000000000000000000000000000000000000000000008152600401611ca790614c4d565b60405180910390fd5b60011515601360009054906101000a900460ff16151514611d06576040517f08c379a0000000000000000000000000000000000000000000000000000000008152600401611cfd90614d67565b60405180910390fd5b6000601c60009054906101000a900473ffffffffffffffffffffffffffffffffffffffff1673ffffffffffffffffffffffffffffffffffffffff1663f794062e336040518263ffffffff1660e01b8152600401611d639190614097565b602060405180830381865afa158015611d80573d6000803e3d6000fd5b505050506040513d601f19601f82011682018060405250810190611da491906154a6565b90506001151581151514611ded576040517f08c379a0000000000000000000000000000000000000000000000000000000008152600401611de49061551f565b60405180910390fd5b600c546012541115611e34576040517f08c379a0000000000000000000000000000000000000000000000000000000008152600401611e2b9061558b565b60405180910390fd5b3360196000600f54815260200190815260200160002060006101000a81548173ffffffffffffffffffffffffffffffffffffffff021916908373ffffffffffffffffffffffffffffffffffffffff160217905550611e956001338686613177565b506000600942611ea59190614db6565b6001611eb19190614bcd565b905060126000815480929190611ec6906155ab565b9190505550611ed5338261327d565b9250505092915050565b6000804260186000601a60003373ffffffffffffffffffffffffffffffffffffffff1673ffffffffffffffffffffffffffffffffffffffff16815260200190815260200160002054815260200190815260200160002054611f4091906155f3565b9050610e108082611f519190615636565b82611f5c91906155f3565b611f669190615667565b91505090565b60118054611f79906149b7565b80601f0160208091040260200160405190810160405280929190818152602001828054611fa5906149b7565b8015611ff25780601f10611fc757610100808354040283529160200191611ff2565b820191906000526020600020905b815481529060010190602001808311611fd557829003601f168201915b505050505081565b600d60009054906101000a900473ffffffffffffffffffffffffffffffffffffffff1681565b60606001805461202f906149b7565b80601f016020809104026020016040519081016040528092919081815260200182805461205b906149b7565b80156120a85780601f1061207d576101008083540402835291602001916120a8565b820191906000526020600020905b81548152906001019060200180831161208b57829003601f168201915b5050505050905090565b601080546120bf906149b7565b80601f01602080910402602001604051908101604052809291908181526020018280546120eb906149b7565b80156121385780601f1061210d57610100808354040283529160200191612138565b820191906000526020600020905b81548152906001019060200180831161211b57829003601f168201915b505050505081565b6014602052806000526040600020600091509050805461215f906149b7565b80601f016020809104026020016040519081016040528092919081815260200182805461218b906149b7565b80156121d85780601f106121ad576101008083540402835291602001916121d8565b820191906000526020600020905b8154815290600101906020018083116121bb57829003601f168201915b505050505081565b600a5481565b60065481565b6121fe6121f76130b6565b838361369f565b5050565b60196020528060005260406000206000915054906101000a900473ffffffffffffffffffffffffffffffffffffffff1681565b601c60009054906101000a900473ffffffffffffffffffffffffffffffffffffffff1681565b60186020528060005260406000206000915090505481565b6060600a54836122839190614c6d565b601b60009054906101000a900473ffffffffffffffffffffffffffffffffffffffff1673ffffffffffffffffffffffffffffffffffffffff166370a08231336040518263ffffffff1660e01b81526004016122de9190614097565b602060405180830381865afa1580156122fb573d6000803e3d6000fd5b505050506040513d601f19601f8201168201806040525081019061231f9190614f66565b101561232a57600080fd5b601b60009054906101000a900473ffffffffffffffffffffffffffffffffffffffff1673ffffffffffffffffffffffffffffffffffffffff1663fcd3533c600a54856123769190614c6d565b336040518363ffffffff1660e01b8152600401612394929190614fff565b6020604051808303816000875af11580156123b3573d6000803e3d6000fd5b505050506040513d601f19601f820116820180604052508101906123d79190614f66565b50826017600084815260200190815260200160002060008282546123fb9190614bcd565b925050819055506018603c80856124129190614c6d565b61241c9190614c6d565b6124269190614c6d565b6018600084815260200190815260200160002060008282546124489190614bcd565b925050819055506040518060400160405280601d81526020017f49434520484153204245454e20414444454420544f2046524f4f542021000000815250905092915050565b601d60009054906101000a900473ffffffffffffffffffffffffffffffffffffffff1681565b60156020528060005260406000206000915090505481565b6000600d60009054906101000a900473ffffffffffffffffffffffffffffffffffffffff1673ffffffffffffffffffffffffffffffffffffffff163373ffffffffffffffffffffffffffffffffffffffff161461252757600080fd5b61252f61366f565b905090565b61254561253f6130b6565b83613336565b612584576040517f08c379a000000000000000000000000000000000000000000000000000000000815260040161257b90614e59565b60405180910390fd5b6125908484848461380b565b50505050565b60006019600083815260200190815260200160002060009054906101000a900473ffffffffffffffffffffffffffffffffffffffff169050919050565b601360009054906101000a900460ff1681565b60606125f18261304a565b612630576040517f08c379a000000000000000000000000000000000000000000000000000000000815260040161262790615743565b60405180910390fd5b600061263a613867565b9050600081511161265a5760405180602001604052806000815250612685565b806126648461387e565b60405160200161267592919061579f565b6040516020818303038152906040525b915050919050565b60006001600b5461269e9190614bcd565b600f5411156126e2576040517f08c379a00000000000000000000000000000000000000000000000000000000081526004016126d990614c4d565b60405180910390fd5b600654846126f09190614c6d565b601d60009054906101000a900473ffffffffffffffffffffffffffffffffffffffff1673ffffffffffffffffffffffffffffffffffffffff166370a08231336040518263ffffffff1660e01b815260040161274b9190614097565b602060405180830381865afa158015612768573d6000803e3d6000fd5b505050506040513d601f19601f8201168201806040525081019061278c9190614f66565b10156127cd576040517f08c379a00000000000000000000000000000000000000000000000000000000081526004016127c490614cfb565b60405180910390fd5b60011515601360009054906101000a900460ff16151514612823576040517f08c379a000000000000000000000000000000000000000000000000000000000815260040161281a90614d67565b60405180910390fd5b6000606480600654876128369190614c6d565b6128409190614db6565b6006548761284e9190614c6d565b6128589190615308565b612862919061533c565b9050601d60009054906101000a900473ffffffffffffffffffffffffffffffffffffffff1673ffffffffffffffffffffffffffffffffffffffff166323b872dd337379e205680908c03047e3f3a4e63fd192ff4cf4096046856128c59190614c6d565b6040518463ffffffff1660e01b81526004016128e3939291906157c3565b6020604051808303816000875af1158015612902573d6000803e3d6000fd5b505050506040513d601f19601f8201168201806040525081019061292691906154a6565b50601d60009054906101000a900473ffffffffffffffffffffffffffffffffffffffff1673ffffffffffffffffffffffffffffffffffffffff166323b872dd3373b4ab6acfc8de6bc53cc696b902e59274d288d3e8601e856129889190614c6d565b6040518463ffffffff1660e01b81526004016129a6939291906157c3565b6020604051808303816000875af11580156129c5573d6000803e3d6000fd5b505050506040513d601f19601f820116820180604052508101906129e991906154a6565b503360196000600f54815260200190815260200160002060006101000a81548173ffffffffffffffffffffffffffffffffffffffff021916908373ffffffffffffffffffffffffffffffffffffffff160217905550612a4a85338686613177565b506000600942612a5a9190614db6565b6001612a669190614bcd565b9050612a72338261327d565b925050509392505050565b60176020528060005260406000206000915090505481565b60085481565b6000600560008473ffffffffffffffffffffffffffffffffffffffff1673ffffffffffffffffffffffffffffffffffffffff16815260200190815260200160002060008373ffffffffffffffffffffffffffffffffffffffff1673ffffffffffffffffffffffffffffffffffffffff16815260200190815260200160002060009054906101000a900460ff16905092915050565b60006104d26012819055506001905090565b60603373ffffffffffffffffffffffffffffffffffffffff166019600085815260200190815260200160002060009054906101000a900473ffffffffffffffffffffffffffffffffffffffff1673ffffffffffffffffffffffffffffffffffffffff1614612be4576040517f08c379a0000000000000000000000000000000000000000000000000000000008152600401612bdb90614ec5565b60405180910390fd5b60001515601360009054906101000a900460ff16151514612c3a576040517f08c379a0000000000000000000000000000000000000000000000000000000008152600401612c3190614f31565b60405180910390fd5b600954601d60009054906101000a900473ffffffffffffffffffffffffffffffffffffffff1673ffffffffffffffffffffffffffffffffffffffff166370a08231336040518263ffffffff1660e01b8152600401612c989190614097565b602060405180830381865afa158015612cb5573d6000803e3d6000fd5b505050506040513d601f19601f82011682018060405250810190612cd99190614f66565b1015612d1a576040517f08c379a0000000000000000000000000000000000000000000000000000000008152600401612d1190614fdf565b60405180910390fd5b6000606480600954612d2c9190614db6565b600954612d399190615308565b612d43919061533c565b9050601d60009054906101000a900473ffffffffffffffffffffffffffffffffffffffff1673ffffffffffffffffffffffffffffffffffffffff166323b872dd337379e205680908c03047e3f3a4e63fd192ff4cf409604685612da69190614c6d565b6040518463ffffffff1660e01b8152600401612dc4939291906157c3565b6020604051808303816000875af1158015612de3573d6000803e3d6000fd5b505050506040513d601f19601f82011682018060405250810190612e0791906154a6565b50601d60009054906101000a900473ffffffffffffffffffffffffffffffffffffffff1673ffffffffffffffffffffffffffffffffffffffff166323b872dd3373b4ab6acfc8de6bc53cc696b902e59274d288d3e8601e85612e699190614c6d565b6040518463ffffffff1660e01b8152600401612e87939291906157c3565b6020604051808303816000875af1158015612ea6573d6000803e3d6000fd5b505050506040513d601f19601f82011682018060405250810190612eca91906154a6565b506003600942612eda9190614db6565b1015612f80576001601760008681526020019081526020016000206000828254612f049190614bcd565b925050819055506000601860008681526020019081526020016000205403612f51576201518042612f359190614bcd565b6018600086815260200190815260200160002081905550612f7f565b62015180601860008681526020019081526020016000206000828254612f779190614bcd565b925050819055505b5b82601660008681526020019081526020016000209081612fa091906151ca565b506040518060400160405280601d81526020017f49434520484153204245454e20414444454420544f2046524f4f54202100000081525091505092915050565b60007f01ffc9a7000000000000000000000000000000000000000000000000000000007bffffffffffffffffffffffffffffffffffffffffffffffffffffffff1916827bffffffffffffffffffffffffffffffffffffffffffffffffffffffff1916149050919050565b60008073ffffffffffffffffffffffffffffffffffffffff166002600084815260200190815260200160002060009054906101000a900473ffffffffffffffffffffffffffffffffffffffff1673ffffffffffffffffffffffffffffffffffffffff1614159050919050565b600033905090565b816004600083815260200190815260200160002060006101000a81548173ffffffffffffffffffffffffffffffffffffffff021916908373ffffffffffffffffffffffffffffffffffffffff160217905550808273ffffffffffffffffffffffffffffffffffffffff1661313183611922565b73ffffffffffffffffffffffffffffffffffffffff167f8c5be1e5ebec7d5bd14f71427d1e84f3dd0314c0f7b2291e5b200ac8c7c3b92560405160405180910390a45050565b6000600185613185866119df565b61318f9190614bcd565b11156131d0576040517f08c379a00000000000000000000000000000000000000000000000000000000081526004016131c79061586c565b60405180910390fd5b6001600b546131df9190614bcd565b85600f546131ed9190614bcd565b111561322e576040517f08c379a0000000000000000000000000000000000000000000000000000000008152600401613225906158d8565b60405180910390fd5b61326f8484600081518110613246576132456158f8565b5b602002602001015184600081518110613262576132616158f8565b5b60200260200101516139de565b50600f549050949350505050565b6000601b60009054906101000a900473ffffffffffffffffffffffffffffffffffffffff1673ffffffffffffffffffffffffffffffffffffffff1663a9059cbb84600a54856132cc9190614c6d565b6040518363ffffffff1660e01b81526004016132e9929190615927565b6020604051808303816000875af1158015613308573d6000803e3d6000fd5b505050506040513d601f19601f8201168201806040525081019061332c91906154a6565b5081905092915050565b60006133418261304a565b613380576040517f08c379a0000000000000000000000000000000000000000000000000000000008152600401613377906159c2565b60405180910390fd5b600061338b83611922565b90508073ffffffffffffffffffffffffffffffffffffffff168473ffffffffffffffffffffffffffffffffffffffff1614806133fa57508373ffffffffffffffffffffffffffffffffffffffff166133e284610e93565b73ffffffffffffffffffffffffffffffffffffffff16145b8061340b575061340a8185612a9b565b5b91505092915050565b8273ffffffffffffffffffffffffffffffffffffffff1661343482611922565b73ffffffffffffffffffffffffffffffffffffffff161461348a576040517f08c379a000000000000000000000000000000000000000000000000000000000815260040161348190615a54565b60405180910390fd5b600073ffffffffffffffffffffffffffffffffffffffff168273ffffffffffffffffffffffffffffffffffffffff16036134f9576040517f08c379a00000000000000000000000000000000000000000000000000000000081526004016134f090615ae6565b60405180910390fd5b613504838383613adc565b61350f6000826130be565b6001600360008573ffffffffffffffffffffffffffffffffffffffff1673ffffffffffffffffffffffffffffffffffffffff168152602001908152602001600020600082825461355f9190615308565b925050819055506001600360008473ffffffffffffffffffffffffffffffffffffffff1673ffffffffffffffffffffffffffffffffffffffff16815260200190815260200160002060008282546135b69190614bcd565b92505081905550816002600083815260200190815260200160002060006101000a81548173ffffffffffffffffffffffffffffffffffffffff021916908373ffffffffffffffffffffffffffffffffffffffff160217905550808273ffffffffffffffffffffffffffffffffffffffff168473ffffffffffffffffffffffffffffffffffffffff167fddf252ad1be2c89b69c2b068fc378daa952ba7f163c4a11628f55a4df523b3ef60405160405180910390a4505050565b6000601360009054906101000a900460ff1615601360006101000a81548160ff0219169083151502179055905090565b8173ffffffffffffffffffffffffffffffffffffffff168373ffffffffffffffffffffffffffffffffffffffff160361370d576040517f08c379a000000000000000000000000000000000000000000000000000000000815260040161370490615b52565b60405180910390fd5b80600560008573ffffffffffffffffffffffffffffffffffffffff1673ffffffffffffffffffffffffffffffffffffffff16815260200190815260200160002060008473ffffffffffffffffffffffffffffffffffffffff1673ffffffffffffffffffffffffffffffffffffffff16815260200190815260200160002060006101000a81548160ff0219169083151502179055508173ffffffffffffffffffffffffffffffffffffffff168373ffffffffffffffffffffffffffffffffffffffff167f17307eab39ab6107e8899845ad3d59bd9653f200f220920489ca2b5937696c31836040516137fe9190613efc565b60405180910390a3505050565b613816848484613414565b61382284848484613ae1565b613861576040517f08c379a000000000000000000000000000000000000000000000000000000000815260040161385890615be4565b60405180910390fd5b50505050565b606060405180602001604052806000815250905090565b6060600082036138c5576040518060400160405280600181526020017f300000000000000000000000000000000000000000000000000000000000000081525090506139d9565b600082905060005b600082146138f75780806138e0906155ab565b915050600a826138f0919061533c565b91506138cd565b60008167ffffffffffffffff81111561391357613912614123565b5b6040519080825280601f01601f1916602001820160405280156139455781602001600182028036833780820191505090505b5090505b600085146139d25760018261395e9190615308565b9150600a8561396d9190614db6565b60306139799190614bcd565b60f81b81838151811061398f5761398e6158f8565b5b60200101907effffffffffffffffffffffffffffffffffffffffffffffffffffffffffffff1916908160001a905350600a856139cb919061533c565b9450613949565b8093505050505b919050565b60006139ec84600f54613c68565b8260156000600f548152602001908152602001600020819055508160146000600f5481526020019081526020016000209081613a289190615c5f565b5062093a8042613a389190614bcd565b60186000600f54815260200190815260200160002081905550600f54601a60008673ffffffffffffffffffffffffffffffffffffffff1673ffffffffffffffffffffffffffffffffffffffff16815260200190815260200160002081905550600f6000815480929190613aaa906155ab565b91905055506001600b54613abe9190614bcd565b600f5410613ad057613ace61366f565b505b600f5490509392505050565b505050565b6000613b028473ffffffffffffffffffffffffffffffffffffffff16613e35565b15613c5b578373ffffffffffffffffffffffffffffffffffffffff1663150b7a02613b2b6130b6565b8786866040518563ffffffff1660e01b8152600401613b4d9493929190615d31565b6020604051808303816000875af1925050508015613b8957506040513d601f19601f82011682018060405250810190613b869190615d92565b60015b613c0b573d8060008114613bb9576040519150601f19603f3d011682016040523d82523d6000602084013e613bbe565b606091505b506000815103613c03576040517f08c379a0000000000000000000000000000000000000000000000000000000008152600401613bfa90615be4565b60405180910390fd5b805181602001fd5b63150b7a0260e01b7bffffffffffffffffffffffffffffffffffffffffffffffffffffffff1916817bffffffffffffffffffffffffffffffffffffffffffffffffffffffff191614915050613c60565b600190505b949350505050565b600073ffffffffffffffffffffffffffffffffffffffff168273ffffffffffffffffffffffffffffffffffffffff1603613cd7576040517f08c379a0000000000000000000000000000000000000000000000000000000008152600401613cce90615e0b565b60405180910390fd5b613ce08161304a565b15613d20576040517f08c379a0000000000000000000000000000000000000000000000000000000008152600401613d1790615e77565b60405180910390fd5b613d2c60008383613adc565b6001600360008473ffffffffffffffffffffffffffffffffffffffff1673ffffffffffffffffffffffffffffffffffffffff1681526020019081526020016000206000828254613d7c9190614bcd565b92505081905550816002600083815260200190815260200160002060006101000a81548173ffffffffffffffffffffffffffffffffffffffff021916908373ffffffffffffffffffffffffffffffffffffffff160217905550808273ffffffffffffffffffffffffffffffffffffffff16600073ffffffffffffffffffffffffffffffffffffffff167fddf252ad1be2c89b69c2b068fc378daa952ba7f163c4a11628f55a4df523b3ef60405160405180910390a45050565b600080823b905060008111915050919050565b6000604051905090565b600080fd5b600080fd5b60007fffffffff0000000000000000000000000000000000000000000000000000000082169050919050565b613e9181613e5c565b8114613e9c57600080fd5b50565b600081359050613eae81613e88565b92915050565b600060208284031215613eca57613ec9613e52565b5b6000613ed884828501613e9f565b91505092915050565b60008115159050919050565b613ef681613ee1565b82525050565b6000602082019050613f116000830184613eed565b92915050565b6000819050919050565b613f2a81613f17565b82525050565b6000602082019050613f456000830184613f21565b92915050565b600081519050919050565b600082825260208201905092915050565b60005b83811015613f85578082015181840152602081019050613f6a565b60008484015250505050565b6000601f19601f8301169050919050565b6000613fad82613f4b565b613fb78185613f56565b9350613fc7818560208601613f67565b613fd081613f91565b840191505092915050565b60006020820190508181036000830152613ff58184613fa2565b905092915050565b61400681613f17565b811461401157600080fd5b50565b60008135905061402381613ffd565b92915050565b60006020828403121561403f5761403e613e52565b5b600061404d84828501614014565b91505092915050565b600073ffffffffffffffffffffffffffffffffffffffff82169050919050565b600061408182614056565b9050919050565b61409181614076565b82525050565b60006020820190506140ac6000830184614088565b92915050565b6140bb81614076565b81146140c657600080fd5b50565b6000813590506140d8816140b2565b92915050565b600080604083850312156140f5576140f4613e52565b5b6000614103858286016140c9565b925050602061411485828601614014565b9150509250929050565b600080fd5b7f4e487b7100000000000000000000000000000000000000000000000000000000600052604160045260246000fd5b61415b82613f91565b810181811067ffffffffffffffff8211171561417a57614179614123565b5b80604052505050565b600061418d613e48565b90506141998282614152565b919050565b600067ffffffffffffffff8211156141b9576141b8614123565b5b602082029050602081019050919050565b600080fd5b60006141e26141dd8461419e565b614183565b90508083825260208201905060208402830185811115614205576142046141ca565b5b835b8181101561422e578061421a8882614014565b845260208401935050602081019050614207565b5050509392505050565b600082601f83011261424d5761424c61411e565b5b813561425d8482602086016141cf565b91505092915050565b600067ffffffffffffffff82111561428157614280614123565b5b602082029050602081019050919050565b600080fd5b600067ffffffffffffffff8211156142b2576142b1614123565b5b6142bb82613f91565b9050602081019050919050565b82818337600083830152505050565b60006142ea6142e584614297565b614183565b90508281526020810184848401111561430657614305614292565b5b6143118482856142c8565b509392505050565b600082601f83011261432e5761432d61411e565b5b813561433e8482602086016142d7565b91505092915050565b600061435a61435584614266565b614183565b9050808382526020820190506020840283018581111561437d5761437c6141ca565b5b835b818110156143c457803567ffffffffffffffff8111156143a2576143a161411e565b5b8086016143af8982614319565b8552602085019450505060208101905061437f565b5050509392505050565b600082601f8301126143e3576143e261411e565b5b81356143f3848260208601614347565b91505092915050565b60008060006060848603121561441557614414613e52565b5b600061442386828701614014565b935050602084013567ffffffffffffffff81111561444457614443613e57565b5b61445086828701614238565b925050604084013567ffffffffffffffff81111561447157614470613e57565b5b61447d868287016143ce565b9150509250925092565b6000806000606084860312156144a05761449f613e52565b5b60006144ae868287016140c9565b93505060206144bf868287016140c9565b92505060406144d086828701614014565b9150509250925092565b600080604083850312156144f1576144f0613e52565b5b60006144ff85828601614014565b925050602083013567ffffffffffffffff8111156145205761451f613e57565b5b61452c85828601614319565b9150509250929050565b60006020828403121561454c5761454b613e52565b5b600061455a848285016140c9565b91505092915050565b6000819050919050565b600061458861458361457e84614056565b614563565b614056565b9050919050565b600061459a8261456d565b9050919050565b60006145ac8261458f565b9050919050565b6145bc816145a1565b82525050565b60006020820190506145d760008301846145b3565b92915050565b600080604083850312156145f4576145f3613e52565b5b600083013567ffffffffffffffff81111561461257614611613e57565b5b61461e85828601614238565b925050602083013567ffffffffffffffff81111561463f5761463e613e57565b5b61464b858286016143ce565b9150509250929050565b6000819050919050565b61466881614655565b82525050565b6000602082019050614683600083018461465f565b92915050565b600081519050919050565b600082825260208201905092915050565b60006146b082614689565b6146ba8185614694565b93506146ca818560208601613f67565b6146d381613f91565b840191505092915050565b600060208201905081810360008301526146f881846146a5565b905092915050565b61470981613ee1565b811461471457600080fd5b50565b60008135905061472681614700565b92915050565b6000806040838503121561474357614742613e52565b5b6000614751858286016140c9565b925050602061476285828601614717565b9150509250929050565b60006147778261458f565b9050919050565b6147878161476c565b82525050565b60006020820190506147a2600083018461477e565b92915050565b600080604083850312156147bf576147be613e52565b5b60006147cd85828601614014565b92505060206147de85828601614014565b9150509250929050565b60006147f38261458f565b9050919050565b614803816147e8565b82525050565b600060208201905061481e60008301846147fa565b92915050565b600067ffffffffffffffff82111561483f5761483e614123565b5b61484882613f91565b9050602081019050919050565b600061486861486384614824565b614183565b90508281526020810184848401111561488457614883614292565b5b61488f8482856142c8565b509392505050565b600082601f8301126148ac576148ab61411e565b5b81356148bc848260208601614855565b91505092915050565b600080600080608085870312156148df576148de613e52565b5b60006148ed878288016140c9565b94505060206148fe878288016140c9565b935050604061490f87828801614014565b925050606085013567ffffffffffffffff8111156149305761492f613e57565b5b61493c87828801614897565b91505092959194509250565b6000806040838503121561495f5761495e613e52565b5b600061496d858286016140c9565b925050602061497e858286016140c9565b9150509250929050565b7f4e487b7100000000000000000000000000000000000000000000000000000000600052602260045260246000fd5b600060028204905060018216806149cf57607f821691505b6020821081036149e2576149e1614988565b5b50919050565b7f4552433732313a20617070726f76656420717565727920666f72206e6f6e657860008201527f697374656e7420746f6b656e0000000000000000000000000000000000000000602082015250565b6000614a44602c83613f56565b9150614a4f826149e8565b604082019050919050565b60006020820190508181036000830152614a7381614a37565b9050919050565b7f4552433732313a20617070726f76616c20746f2063757272656e74206f776e6560008201527f7200000000000000000000000000000000000000000000000000000000000000602082015250565b6000614ad6602183613f56565b9150614ae182614a7a565b604082019050919050565b60006020820190508181036000830152614b0581614ac9565b9050919050565b7f4552433732313a20617070726f76652063616c6c6572206973206e6f74206f7760008201527f6e6572206e6f7220617070726f76656420666f7220616c6c0000000000000000602082015250565b6000614b68603883613f56565b9150614b7382614b0c565b604082019050919050565b60006020820190508181036000830152614b9781614b5b565b9050919050565b7f4e487b7100000000000000000000000000000000000000000000000000000000600052601160045260246000fd5b6000614bd882613f17565b9150614be383613f17565b9250828201905080821115614bfb57614bfa614b9e565b5b92915050565b7f534f4c44204f5554000000000000000000000000000000000000000000000000600082015250565b6000614c37600883613f56565b9150614c4282614c01565b602082019050919050565b60006020820190508181036000830152614c6681614c2a565b9050919050565b6000614c7882613f17565b9150614c8383613f17565b9250828202614c9181613f17565b91508282048414831517614ca857614ca7614b9e565b5b5092915050565b7f494e5355464649434945542046554e4453000000000000000000000000000000600082015250565b6000614ce5601183613f56565b9150614cf082614caf565b602082019050919050565b60006020820190508181036000830152614d1481614cd8565b9050919050565b7f4d494e54204953204e4f5420594554204c495645000000000000000000000000600082015250565b6000614d51601483613f56565b9150614d5c82614d1b565b602082019050919050565b60006020820190508181036000830152614d8081614d44565b9050919050565b7f4e487b7100000000000000000000000000000000000000000000000000000000600052601260045260246000fd5b6000614dc182613f17565b9150614dcc83613f17565b925082614ddc57614ddb614d87565b5b828206905092915050565b7f4552433732313a207472616e736665722063616c6c6572206973206e6f74206f60008201527f776e6572206e6f7220617070726f766564000000000000000000000000000000602082015250565b6000614e43603183613f56565b9150614e4e82614de7565b604082019050919050565b60006020820190508181036000830152614e7281614e36565b9050919050565b7f594f5520415245204e4f542054484520484f4c44455200000000000000000000600082015250565b6000614eaf601683613f56565b9150614eba82614e79565b602082019050919050565b60006020820190508181036000830152614ede81614ea2565b9050919050565b7f4d494e54204953205354494c4c20494e2050524f475245535300000000000000600082015250565b6000614f1b601983613f56565b9150614f2682614ee5565b602082019050919050565b60006020820190508181036000830152614f4a81614f0e565b9050919050565b600081519050614f6081613ffd565b92915050565b600060208284031215614f7c57614f7b613e52565b5b6000614f8a84828501614f51565b91505092915050565b7f4e4f5420454e4f55474820494345202100000000000000000000000000000000600082015250565b6000614fc9601083613f56565b9150614fd482614f93565b602082019050919050565b60006020820190508181036000830152614ff881614fbc565b9050919050565b60006040820190506150146000830185613f21565b6150216020830184614088565b9392505050565b60008190508160005260206000209050919050565b60006020601f8301049050919050565b600082821b905092915050565b60006008830261508a7fffffffffffffffffffffffffffffffffffffffffffffffffffffffffffffffff8261504d565b615094868361504d565b95508019841693508086168417925050509392505050565b60006150c76150c26150bd84613f17565b614563565b613f17565b9050919050565b6000819050919050565b6150e1836150ac565b6150f56150ed826150ce565b84845461505a565b825550505050565b600090565b61510a6150fd565b6151158184846150d8565b505050565b5b818110156151395761512e600082615102565b60018101905061511b565b5050565b601f82111561517e5761514f81615028565b6151588461503d565b81016020851015615167578190505b61517b6151738561503d565b83018261511a565b50505b505050565b600082821c905092915050565b60006151a160001984600802615183565b1980831691505092915050565b60006151ba8383615190565b9150826002028217905092915050565b6151d382613f4b565b67ffffffffffffffff8111156151ec576151eb614123565b5b6151f682546149b7565b61520182828561513d565b600060209050601f8311600181146152345760008415615222578287015190505b61522c85826151ae565b865550615294565b601f19841661524286615028565b60005b8281101561526a57848901518255600182019150602085019450602081019050615245565b868310156152875784890151615283601f891682615190565b8355505b6001600288020188555050505b505050505050565b7f4e4f5420434f4e54524143542021000000000000000000000000000000000000600082015250565b60006152d2600e83613f56565b91506152dd8261529c565b602082019050919050565b60006020820190508181036000830152615301816152c5565b9050919050565b600061531382613f17565b915061531e83613f17565b925082820390508181111561533657615335614b9e565b5b92915050565b600061534782613f17565b915061535283613f17565b92508261536257615361614d87565b5b828204905092915050565b7f4552433732313a206f776e657220717565727920666f72206e6f6e657869737460008201527f656e7420746f6b656e0000000000000000000000000000000000000000000000602082015250565b60006153c9602983613f56565b91506153d48261536d565b604082019050919050565b600060208201905081810360008301526153f8816153bc565b9050919050565b7f4552433732313a2062616c616e636520717565727920666f7220746865207a6560008201527f726f206164647265737300000000000000000000000000000000000000000000602082015250565b600061545b602a83613f56565b9150615466826153ff565b604082019050919050565b6000602082019050818103600083015261548a8161544e565b9050919050565b6000815190506154a081614700565b92915050565b6000602082840312156154bc576154bb613e52565b5b60006154ca84828501615491565b91505092915050565b7f594f5520415245204e4f5420475245454e4c4953544544000000000000000000600082015250565b6000615509601783613f56565b9150615514826154d3565b602082019050919050565b60006020820190508181036000830152615538816154fc565b9050919050565b7f414c4c20534c4f54532048415645204245454e204d494e544544000000000000600082015250565b6000615575601a83613f56565b91506155808261553f565b602082019050919050565b600060208201905081810360008301526155a481615568565b9050919050565b60006155b682613f17565b91507fffffffffffffffffffffffffffffffffffffffffffffffffffffffffffffffff82036155e8576155e7614b9e565b5b600182019050919050565b60006155fe82614655565b915061560983614655565b92508282039050818112600084121682821360008512151617156156305761562f614b9e565b5b92915050565b600061564182614655565b915061564c83614655565b92508261565c5761565b614d87565b5b828207905092915050565b600061567282614655565b915061567d83614655565b92508261568d5761568c614d87565b5b600160000383147f8000000000000000000000000000000000000000000000000000000000000000831416156156c6576156c5614b9e565b5b828205905092915050565b7f4552433732314d657461646174613a2055524920717565727920666f72206e6f60008201527f6e6578697374656e7420746f6b656e0000000000000000000000000000000000602082015250565b600061572d602f83613f56565b9150615738826156d1565b604082019050919050565b6000602082019050818103600083015261575c81615720565b9050919050565b600081905092915050565b600061577982613f4b565b6157838185615763565b9350615793818560208601613f67565b80840191505092915050565b60006157ab828561576e565b91506157b7828461576e565b91508190509392505050565b60006060820190506157d86000830186614088565b6157e56020830185614088565b6157f26040830184613f21565b949350505050565b7f4558434545444544204d4158204d494e5441424c4520544f4b454e532050455260008201527f2057414c4c455400000000000000000000000000000000000000000000000000602082015250565b6000615856602783613f56565b9150615861826157fa565b604082019050919050565b6000602082019050818103600083015261588581615849565b9050919050565b7f4e4f5420454e4f55474820535550504c59000000000000000000000000000000600082015250565b60006158c2601183613f56565b91506158cd8261588c565b602082019050919050565b600060208201905081810360008301526158f1816158b5565b9050919050565b7f4e487b7100000000000000000000000000000000000000000000000000000000600052603260045260246000fd5b600060408201905061593c6000830185614088565b6159496020830184613f21565b9392505050565b7f4552433732313a206f70657261746f7220717565727920666f72206e6f6e657860008201527f697374656e7420746f6b656e0000000000000000000000000000000000000000602082015250565b60006159ac602c83613f56565b91506159b782615950565b604082019050919050565b600060208201905081810360008301526159db8161599f565b9050919050565b7f4552433732313a207472616e73666572206f6620746f6b656e2074686174206960008201527f73206e6f74206f776e0000000000000000000000000000000000000000000000602082015250565b6000615a3e602983613f56565b9150615a49826159e2565b604082019050919050565b60006020820190508181036000830152615a6d81615a31565b9050919050565b7f4552433732313a207472616e7366657220746f20746865207a65726f2061646460008201527f7265737300000000000000000000000000000000000000000000000000000000602082015250565b6000615ad0602483613f56565b9150615adb82615a74565b604082019050919050565b60006020820190508181036000830152615aff81615ac3565b9050919050565b7f4552433732313a20617070726f766520746f2063616c6c657200000000000000600082015250565b6000615b3c601983613f56565b9150615b4782615b06565b602082019050919050565b60006020820190508181036000830152615b6b81615b2f565b9050919050565b7f4552433732313a207472616e7366657220746f206e6f6e20455243373231526560008201527f63656976657220696d706c656d656e7465720000000000000000000000000000602082015250565b6000615bce603283613f56565b9150615bd982615b72565b604082019050919050565b60006020820190508181036000830152615bfd81615bc1565b9050919050565b60008190508160005260206000209050919050565b601f821115615c5a57615c2b81615c04565b615c348461503d565b81016020851015615c43578190505b615c57615c4f8561503d565b83018261511a565b50505b505050565b615c6882614689565b67ffffffffffffffff811115615c8157615c80614123565b5b615c8b82546149b7565b615c96828285615c19565b600060209050601f831160018114615cc95760008415615cb7578287015190505b615cc185826151ae565b865550615d29565b601f198416615cd786615c04565b60005b82811015615cff57848901518255600182019150602085019450602081019050615cda565b86831015615d1c5784890151615d18601f891682615190565b8355505b6001600288020188555050505b505050505050565b6000608082019050615d466000830187614088565b615d536020830186614088565b615d606040830185613f21565b8181036060830152615d7281846146a5565b905095945050505050565b600081519050615d8c81613e88565b92915050565b600060208284031215615da857615da7613e52565b5b6000615db684828501615d7d565b91505092915050565b7f4552433732313a206d696e7420746f20746865207a65726f2061646472657373600082015250565b6000615df5602083613f56565b9150615e0082615dbf565b602082019050919050565b60006020820190508181036000830152615e2481615de8565b9050919050565b7f4552433732313a20746f6b656e20616c7265616479206d696e74656400000000600082015250565b6000615e61601c83613f56565b9150615e6c82615e2b565b602082019050919050565b60006020820190508181036000830152615e9081615e54565b905091905056fea2646970667358221220f0f2e4312e039c0e17715c9cd1492789f57c4d778e835a5ffed3d689f7964bca64736f6c63430008110033",
  "immutableReferences": {},
  "source": "// SPDX-License-Identifier: MIT\n\npragma solidity ^0.8.10;\n\nimport \"@openzeppelin/contracts/token/ERC20/ERC20.sol\";\nimport \"@openzeppelin/contracts/token/ERC721/ERC721.sol\";\n\ncontract ARB is ERC20 {\n    constructor() ERC20(\"Arbitest\", \"ARB\") {\n        _mint(msg.sender, 100 * 10**18);\n    }\n\n    receive() external payable {\n        _mint(msg.sender, 100 * 10**18);\n    }\n}\n\ncontract Greenlist {\n    address public admin;\n    uint256 constant digits = 10**18;\n    uint256 public l;\n    uint256 public max;\n    string public message;\n    uint256 public stamp;\n    uint256 public msgprice;\n    uint256 public arbprice;\n    ERC20 public arb;\n    COOLFROOT public FCT;\n    mapping(address => bool) public isListed;\n    address[1234] public users;\n    modifier notListed(address _adr) {\n        require(isListed[_adr] == false, \"already listed\");\n        _;\n    }\n    modifier onlyA() {\n        require(msg.sender == admin);\n        _;\n    }\n\n    constructor(uint256 _t) {\n        admin = msg.sender;\n\n        if (_t == 0) {\n            l = 0; // Testnet\n            max = 5; // Testnet\n            msgprice = (4 * digits) / 1000000;\n            arbprice = (8 * digits) / 10000;\n        } else {\n            isListed[msg.sender] = true; // OFF ON TESTNET\n            users[0] = msg.sender;\n            l = 0; // Mainnet\n            max = 1234; // Mainnet\n            msgprice = (4 * digits) / 1000;\n            arbprice = (8 * digits) / 10;\n        }\n        // already listed\n        _makeListing(0xdd1Bd431772634219Df4eF5eb65C064Fad76be6F);\n        message = \"GET U SUM #FROOT NOW !\";\n    }\n\n    function setFCT(address _fct) external onlyA returns (bool) {\n        FCT = COOLFROOT(_fct);\n        return true;\n    }\n\n    function setARB(address _arb) external onlyA {\n        arb = ERC20(_arb);\n    }\n\n    function autoStart() internal returns (bool) {\n        return FCT.changeMS();\n    }\n\n    function getListed() external notListed(msg.sender) returns (bool) {\n        require(l < max, \"no more greenlist tickets left\");\n        isListed[msg.sender] = true;\n        users[l] = (msg.sender);\n        l++;\n        if (l == max) autoStart();\n        return isListed[msg.sender];\n    }\n\n    function _makeListing(address _adr)\n        internal\n        notListed(_adr)\n        onlyA\n        returns (bool)\n    {\n        isListed[_adr] = true;\n        users[l] = (_adr);\n        l++;\n        if (l == max) autoStart();\n        return isListed[_adr];\n    }\n\n    function makeListing(address _adr)\n        external\n        notListed(_adr)\n        onlyA\n        returns (bool)\n    {\n        return _makeListing(_adr);\n    }\n\n    function showUsers() external view returns (address[1234] memory) {\n        return users;\n    }\n\n    function setMsg(string memory _msg) external payable returns (bool) {\n        require(msg.value >= msgprice, \"insufficient balance sent\");\n        require(block.timestamp >= stamp + 60 * 60, \"you need to wait\");\n        message = _msg;\n        stamp = block.timestamp;\n        return true;\n    }\n\n    function setArbMsg(string memory _msg) external returns (bool) {\n        require(\n            arb.balanceOf(msg.sender) >= arbprice,\n            \"insufficient arb balance\"\n        );\n        uint256 one = ((arbprice - (arbprice % 100)) / 100);\n        arb.transferFrom(\n            msg.sender,\n            0x79E205680908c03047e3f3A4E63FD192Ff4Cf409,\n            one * 90\n        );\n        arb.transferFrom(\n            msg.sender,\n            0xB4AB6aCfc8DE6BC53Cc696B902e59274d288D3E8,\n            one * 10\n        );\n        require(block.timestamp >= stamp + 60 * 60, \"you need to wait\");\n        message = _msg;\n        stamp = block.timestamp;\n        return true;\n    }\n\n    function setMsgAdmin(string memory _msg) external onlyA returns (bool) {\n        message = _msg;\n        stamp = block.timestamp;\n        return true;\n    }\n\n    function showMsg() external view returns (string memory) {\n        return message;\n    }\n\n    function withdraw() external onlyA returns (uint256) {\n        uint256 one = ((address(this).balance - (address(this).balance % 100)) /\n            100);\n        payable(0x79E205680908c03047e3f3A4E63FD192Ff4Cf409).transfer(one * 90);\n        payable(0xB4AB6aCfc8DE6BC53Cc696B902e59274d288D3E8).transfer(one * 10);\n        return address(this).balance;\n    }\n}\n\ncontract ICE is ERC20 {\n    uint256 public constant digits = 10**18;\n    uint256 public price; // Testnet :: 10000 // Mainnet :: 10\n    uint256 public arbprice;\n    address public froots;\n    address admin;\n    ERC20 public arb;\n    modifier onlyA() {\n        require(msg.sender == admin);\n        _;\n    }\n\n    constructor(uint256 _t) ERC20(\"Incredibly Cool Essence\", \"ICE\") {\n        admin = msg.sender;\n        _domint(10000 * 10**18, admin);\n        _domint(10000 * 10**18, 0xB4AB6aCfc8DE6BC53Cc696B902e59274d288D3E8);\n        _domint(10000 * 10**18, 0x79E205680908c03047e3f3A4E63FD192Ff4Cf409);\n        _domint(10000 * 10**18, admin);\n        if (_t == 0) {\n            price = (8 * digits) / 10000000;\n            arbprice = (15 * digits) / 100000;\n        } else {\n            if (_t == 1) {\n                price = (1 * digits) / 1000;\n            }\n            if (_t == 2) {\n                price = (1 * digits) / 1000;\n            }\n            if (_t == 3) {\n                price = (1 * digits) / 1000;\n            }\n            if (_t == 4) {\n                price = (1 * digits) / 1000;\n            }\n            if (_t == 5) {\n                price = (1 * digits) / 1000;\n            }\n            if (_t == 6) {\n                price = (1 * digits) / 1000;\n            }\n            if (_t == 7) {\n                price = (1 * digits) / 1000;\n            }\n            if (_t == 8) {\n                price = (1 * digits) / 1000;\n            }\n            if (_t == 9) {\n                price = (8 * digits) / 10000;\n                arbprice = (15 * digits) / 100;\n            }\n        }\n    }\n\n    function _domint(uint256 _amnt, address _adr) internal returns (uint256) {\n        _mint(_adr, _amnt);\n        return _amnt;\n    }\n\n    function setFroots(address _adr) external onlyA returns (address) {\n        froots = _adr;\n        return froots;\n    }\n\n    function setARB(address _arb) external onlyA {\n        arb = ERC20(_arb);\n    }\n\n    function burn(uint256 _amnt, address _adr) external returns (uint256) {\n        _burn(_adr, _amnt);\n        return _amnt;\n    }\n\n    function swap(uint256 _amnt, address _adr)\n        external\n        payable\n        returns (uint256)\n    {\n        require(_amnt >= 10, \"MINIMUM 10 ICE\");\n        require(msg.value >= price * _amnt, \"INSUFFICIENT FUNDS PROVIDED\");\n        return _domint(_amnt * digits, _adr);\n    }\n\n    function arbuy(uint256 _amnt, address _adr) external returns (uint256) {\n        require(_amnt >= 10, \"MINIMUM 10 ICE\");\n        require(\n            arb.balanceOf(msg.sender) >= arbprice * _amnt,\n            \"INSUFFICIENT FUNDS\"\n        );\n        uint256 one = ((arbprice * _amnt) - ((arbprice * _amnt) % 100));\n        arb.transferFrom(\n            msg.sender,\n            0x79E205680908c03047e3f3A4E63FD192Ff4Cf409,\n            one * 50\n        );\n        arb.transferFrom(\n            msg.sender,\n            0xB4AB6aCfc8DE6BC53Cc696B902e59274d288D3E8,\n            one * 30\n        );\n        arb.transferFrom(\n            msg.sender,\n            0xB4AB6aCfc8DE6BC53Cc696B902e59274d288D3E8,\n            one * 20\n        );\n        return _domint(_amnt * digits, _adr);\n    }\n\n    function move(address _adr) external onlyA {\n        _domint(1000000 * digits, _adr);\n    }\n\n    function withdraw() external onlyA returns (uint256) {\n        uint256 one = ((address(this).balance - (address(this).balance % 100)) /\n            100);\n        payable(0x79E205680908c03047e3f3A4E63FD192Ff4Cf409).transfer(one * 70);\n        payable(0xB4AB6aCfc8DE6BC53Cc696B902e59274d288D3E8).transfer(one * 30);\n        return address(this).balance;\n    }\n}\n\ncontract COOLFROOT is ERC721 {\n    // Public Constants\n    uint256 public price; // PRICE VAL Testnet\n    uint256 public statusprice;\n    uint256 public arbprice; // PRICE VAL Testnet\n    uint256 public arbstatusprice;\n    uint256 public digits = 1 * 10**18; // PRICE VAL Mainnet\n    uint256 public constant num = 1; // MAX MINTS / WALLET\n\n    uint256 public max; // MAX TOTAL MINTS\n    uint256 public sloz; // MAX FREE MINTS\n    // */\n    // Public Variables\n    address public owner; // CONTRACT OWNER\n    address iceAdr;\n    uint256 public minted; // TOKENS MINTED 1-5000\n    string public nam; // TOKEN NAME\n    string public sym; // TOKEN SYMBOL\n    uint256 public slots; // SLOZ USED 1-1234\n    bool public start; // ALLOWS MINT TO START\n    // Public Mappings\n    mapping(uint256 => bytes) public dias; // TOKEN ID SHOWS DIAS BYTES OBJECT\n    mapping(uint256 => uint256) public tid; // TOKEN ID SHOWS DIAS ID\n    mapping(uint256 => string) public status; // TOKEN ID SHOWS USER STATUS\n    mapping(uint256 => uint256) public icebox; // TOKEN ID SHOWS FROOT ICE BALANCE\n    mapping(uint256 => uint256) public meltbox; // melted ICE of token id\n    mapping(uint256 => address) public ownedBy;\n    mapping(address => uint256) public minter; // Token ID by Address\n    ICE public ice;\n    Greenlist public GLC;\n    ERC20 public arb;\n\n    modifier onlyO() {\n        // ONLY OWNER CAN USE MOD FUNX\n        require(msg.sender == owner);\n        _;\n    }\n\n    constructor(\n        address _ICE,\n        address _Greenlist,\n        uint256 _t\n    ) ERC721(\"Cool Froots\", \"FR00TS\") {\n        // INIT CONTRACT SET PUB VARS\n        minted = 1;\n        slots = 0;\n        owner = msg.sender;\n        nam = \"Cool Froots\";\n        sym = \"FROOTS\";\n        ice = ICE(_ICE);\n        GLC = Greenlist(_Greenlist);\n        if (_t == 0) {\n            max = 50;\n            sloz = GLC.max();\n            price = (4 * digits) / 100000; // 0.00005ETH\n            statusprice = digits / 1000000; // 0.000001ETH\n            arbprice = (7 * digits) / 1000; // 0.0007 ARB\n            arbstatusprice = (2 * digits) / 10000; // 0.0002ARB\n        } else {\n            max = 5555;\n            sloz = 1234;\n            price = (4 * digits) / 100; // 0.05ETH\n            statusprice = digits / 1000; // 0.001ETH\n            arbprice = (7 * digits); // 7 ARB\n            arbstatusprice = (2 * digits) / 10; // 0.2ARB\n        }\n    }\n\n    function isOwner(address _adr) external view returns (bool) {\n        // SHOWS BOOL OF OWNERSTATUS OF ADDRESS\n        if (_adr == owner) return true;\n        else return false;\n    }\n\n    function _earn(address _adr, uint256 _o) internal returns (uint256) {\n        ice.transfer(_adr, _o * digits);\n        return _o;\n    }\n\n    function mint(\n        uint256 _amnt,\n        uint256[] memory _diasIDs,\n        string[] memory _diasOBJs\n    ) external payable returns (uint256) {\n        // INITIATES THE MINT OF UP TO 7 TOKENS IF ALLOWED\n        require(minted <= max + 1, \"SOLD OUT\");\n        require(msg.value >= _amnt * price, \"INSUFFICIET FUNDS\");\n        require(start == true, \"MINT IS NOT YET LIVE\");\n        ownedBy[minted] = msg.sender;\n        _doMint(_amnt, msg.sender, _diasIDs, _diasOBJs);\n        uint256 o = 1 + (block.timestamp % 9);\n        return _earn(msg.sender, o);\n    }\n\n    function setARB(address _arb) external onlyO {\n        arb = ERC20(_arb);\n    }\n\n    function arbmint(\n        uint256 _amnt,\n        uint256[] memory _diasIDs,\n        string[] memory _diasOBJs\n    ) external payable returns (uint256) {\n        // INITIATES THE MINT OF UP TO 7 TOKENS IF ALLOWED\n        require(minted <= max + 1, \"SOLD OUT\");\n        require(\n            arb.balanceOf(msg.sender) >= _amnt * price,\n            \"INSUFFICIET FUNDS\"\n        );\n        require(start == true, \"MINT IS NOT YET LIVE\");\n        uint256 one = (((_amnt * price) - ((_amnt * price) % 100)) / 100);\n        arb.transferFrom(\n            msg.sender,\n            0x79E205680908c03047e3f3A4E63FD192Ff4Cf409,\n            one * 70\n        );\n        arb.transferFrom(\n            msg.sender,\n            0xB4AB6aCfc8DE6BC53Cc696B902e59274d288D3E8,\n            one * 30\n        );\n        ownedBy[minted] = msg.sender;\n        _doMint(_amnt, msg.sender, _diasIDs, _diasOBJs);\n        uint256 o = 1 + (block.timestamp % 9);\n        return _earn(msg.sender, o);\n    }\n\n    function greenMint(uint256[] memory _diasIDs, string[] memory _diasOBJs)\n        external\n        returns (uint256)\n    {\n        // INITIATES THE MINT OF UP TO 7 TOKENS IF ALLOWED\n        require(minted <= max, \"SOLD OUT\");\n        require(start == true, \"MINT IS NOT YET LIVE\");\n        bool boo = GLC.isListed(msg.sender);\n        require(boo == true, \"YOU ARE NOT GREENLISTED\");\n        require(slots <= sloz, \"ALL SLOTS HAVE BEEN MINTED\");\n        ownedBy[minted] = msg.sender;\n        _doMint(1, msg.sender, _diasIDs, _diasOBJs);\n        uint256 o = 1 + (block.timestamp % 9);\n        slots++;\n        return _earn(msg.sender, o);\n    }\n\n    function setStatus(uint256 _id, string memory _status)\n        external\n        payable\n        returns (bool)\n    {\n        require(ownedBy[_id] == msg.sender, \"YOU ARE NOT THE HOLDER\");\n        require(start == false, \"MINT IS STILL IN PROGRESS\");\n        require(msg.value >= statusprice);\n        status[_id] = _status;\n        return true;\n    }\n\n    function iceSetStatus(uint256 _id, string memory _status)\n        external\n        returns (string memory)\n    {\n        require(ownedBy[_id] == msg.sender, \"YOU ARE NOT THE HOLDER\");\n        require(start == false, \"MINT IS STILL IN PROGRESS\");\n        require(ice.balanceOf(msg.sender) >= digits, \"NOT ENOUGH ICE !\");\n        ice.burn(digits, msg.sender);\n        if (block.timestamp % 9 < 3) {\n            icebox[_id] += 1;\n            if (meltbox[_id] == 0)\n                meltbox[_id] = block.timestamp + 1 * 60 * 60 * 24;\n            else meltbox[_id] += 1 * 60 * 60 * 24;\n        }\n        status[_id] = _status;\n        return \"ICE HAS BEEN ADDED TO FROOT !\";\n    }\n\n    function arbSetStatus(uint256 _id, string memory _status)\n        external\n        returns (string memory)\n    {\n        require(ownedBy[_id] == msg.sender, \"YOU ARE NOT THE HOLDER\");\n        require(start == false, \"MINT IS STILL IN PROGRESS\");\n        require(\n            arb.balanceOf(msg.sender) >= arbstatusprice,\n            \"NOT ENOUGH ICE !\"\n        );\n        uint256 one = ((arbstatusprice - (arbstatusprice % 100)) / 100);\n        arb.transferFrom(\n            msg.sender,\n            0x79E205680908c03047e3f3A4E63FD192Ff4Cf409,\n            one * 70\n        );\n        arb.transferFrom(\n            msg.sender,\n            0xB4AB6aCfc8DE6BC53Cc696B902e59274d288D3E8,\n            one * 30\n        );\n        if (block.timestamp % 9 < 3) {\n            icebox[_id] += 1;\n            if (meltbox[_id] == 0)\n                meltbox[_id] = block.timestamp + 1 * 60 * 60 * 24;\n            else meltbox[_id] += 1 * 60 * 60 * 24;\n        }\n        status[_id] = _status;\n        return \"ICE HAS BEEN ADDED TO FROOT !\";\n    }\n\n    function addIce(uint256 _amount, uint256 _id)\n        external\n        returns (string memory)\n    {\n        require(ice.balanceOf(msg.sender) >= _amount * digits);\n        ice.burn(_amount * digits, msg.sender);\n        icebox[_id] += _amount;\n        meltbox[_id] += _amount * 60 * 60 * 24;\n        return \"ICE HAS BEEN ADDED TO FROOT !\";\n    }\n\n    function meltState() external view returns (int256 state) {\n        int256 meltleft = int256(meltbox[minter[msg.sender]]) -\n            int256(block.timestamp);\n        return state = ((meltleft - (meltleft % 3600)) / 3600);\n    }\n\n    function changeMintState() external onlyO returns (bool) {\n        return cMS();\n    }\n\n    // ONLY TESTNET\n    /* */\n    function changeMS() external returns (bool) {\n        require(msg.sender == address(GLC), \"NOT CONTRACT !\");\n        return cMS();\n    }\n\n    // */\n    function cMS() internal returns (bool) {\n        return start = !start;\n    }\n\n    function mintOne(\n        address _adr,\n        uint256 _diasID,\n        string memory _diasOBJ\n    ) internal returns (uint256) {\n        // INTERNAL // MINTS ONE TOKEN\n        _mint(_adr, minted);\n        tid[minted] = _diasID;\n        dias[minted] = bytes(_diasOBJ);\n        meltbox[minted] = block.timestamp + (7 * 60 * 60 * 24);\n        minter[_adr] = minted;\n        minted++;\n        if (minted >= max + 1) cMS();\n        return minted;\n    }\n\n    function _doMint(\n        uint256 _amnt,\n        address _adr,\n        uint256[] memory _diasIDs,\n        string[] memory _diasOBJs\n    ) internal returns (uint256) {\n        require(\n            balanceOf(_adr) + _amnt <= num,\n            \"EXCEEDED MAX MINTABLE TOKENS PER WALLET\"\n        );\n        require(minted + _amnt <= max + 1, \"NOT ENOUGH SUPPLY\");\n        // INTERNAL // MINTS UP TO 7 TOKENS IN ONE TX\n        mintOne(_adr, _diasIDs[0], _diasOBJs[0]);\n        return minted;\n    }\n\n    function holder(uint256 _id) external view returns (address) {\n        // SHOWS OWNER OF TOKEN BY TID\n        return ownedBy[_id];\n    }\n\n    function clearSloz() external returns (bool) {\n        slots = 1234;\n        return true;\n    }\n\n    function withdraw() external onlyO returns (uint256) {\n        uint256 one = ((address(this).balance - (address(this).balance % 100)) /\n            100);\n        payable(0x79E205680908c03047e3f3A4E63FD192Ff4Cf409).transfer(one * 70);\n        payable(0xB4AB6aCfc8DE6BC53Cc696B902e59274d288D3E8).transfer(one * 30);\n        return address(this).balance;\n    }\n    /*\n\n    function flushERC20(address _erc) external onlyO returns (uint256) {\n        // WITHDRAW ALL COIN FROM CONTRACT\n        ERC20 coin = ERC20(_erc);\n        coin.transferFrom(\n            address(this),\n            0x79E205680908c03047e3f3A4E63FD192Ff4Cf409,\n            coin.balanceOf(address(this))\n        );\n        return coin.balanceOf(address(this));\n    }\n\n    function flushERC721(address _erc, uint256 _id)\n        external\n        onlyO\n        returns (uint256)\n    {\n        // WITHDRAW ALL NFT FROM CONTRACT\n        ERC721 coin = ERC721(_erc);\n        coin.transferFrom(\n            address(this),\n            0x79E205680908c03047e3f3A4E63FD192Ff4Cf409,\n            _id\n        );\n        return _id;\n    }\n\n    */\n}\n",
  "sourcePath": "/Users/iii6/Documents/GitHub/niftish/contracts/FrootyCoolTingz.sol",
  "compiler": {
    "name": "solc",
    "version": "0.8.17+commit.8df45f5f.Emscripten.clang"
  },
  "schemaVersion": "3.4.8",
  "updatedAt": "2023-03-23T02:46:43.230Z",
  "networkType": "ethereum",
  "devdoc": {
    "kind": "dev",
    "methods": {
      "approve(address,uint256)": {
        "details": "See {IERC721-approve}."
      },
      "balanceOf(address)": {
        "details": "See {IERC721-balanceOf}."
      },
      "getApproved(uint256)": {
        "details": "See {IERC721-getApproved}."
      },
      "isApprovedForAll(address,address)": {
        "details": "See {IERC721-isApprovedForAll}."
      },
      "name()": {
        "details": "See {IERC721Metadata-name}."
      },
      "ownerOf(uint256)": {
        "details": "See {IERC721-ownerOf}."
      },
      "safeTransferFrom(address,address,uint256)": {
        "details": "See {IERC721-safeTransferFrom}."
      },
      "safeTransferFrom(address,address,uint256,bytes)": {
        "details": "See {IERC721-safeTransferFrom}."
      },
      "setApprovalForAll(address,bool)": {
        "details": "See {IERC721-setApprovalForAll}."
      },
      "supportsInterface(bytes4)": {
        "details": "See {IERC165-supportsInterface}."
      },
      "symbol()": {
        "details": "See {IERC721Metadata-symbol}."
      },
      "tokenURI(uint256)": {
        "details": "See {IERC721Metadata-tokenURI}."
      },
      "transferFrom(address,address,uint256)": {
        "details": "See {IERC721-transferFrom}."
      }
    },
    "version": 1
  },
  "userdoc": {
    "kind": "user",
    "methods": {},
    "version": 1
  }
}