{
  "contractName": "COOLFROOT",
  "abi": [
    {
      "inputs": [
        {
          "internalType": "address",
          "name": "_ICE",
          "type": "address"
        },
        {
          "internalType": "address",
          "name": "_Greenlist",
          "type": "address"
        },
        {
          "internalType": "uint256",
          "name": "_t",
          "type": "uint256"
        }
      ],
      "stateMutability": "nonpayable",
      "type": "constructor"
    },
    {
      "anonymous": false,
      "inputs": [
        {
          "indexed": true,
          "internalType": "address",
          "name": "owner",
          "type": "address"
        },
        {
          "indexed": true,
          "internalType": "address",
          "name": "approved",
          "type": "address"
        },
        {
          "indexed": true,
          "internalType": "uint256",
          "name": "tokenId",
          "type": "uint256"
        }
      ],
      "name": "Approval",
      "type": "event"
    },
    {
      "anonymous": false,
      "inputs": [
        {
          "indexed": true,
          "internalType": "address",
          "name": "owner",
          "type": "address"
        },
        {
          "indexed": true,
          "internalType": "address",
          "name": "operator",
          "type": "address"
        },
        {
          "indexed": false,
          "internalType": "bool",
          "name": "approved",
          "type": "bool"
        }
      ],
      "name": "ApprovalForAll",
      "type": "event"
    },
    {
      "anonymous": false,
      "inputs": [
        {
          "indexed": true,
          "internalType": "address",
          "name": "from",
          "type": "address"
        },
        {
          "indexed": true,
          "internalType": "address",
          "name": "to",
          "type": "address"
        },
        {
          "indexed": true,
          "internalType": "uint256",
          "name": "tokenId",
          "type": "uint256"
        }
      ],
      "name": "Transfer",
      "type": "event"
    },
    {
      "inputs": [],
      "name": "GLC",
      "outputs": [
        {
          "internalType": "contract Greenlist",
          "name": "",
          "type": "address"
        }
      ],
      "stateMutability": "view",
      "type": "function",
      "constant": true
    },
    {
      "inputs": [
        {
          "internalType": "address",
          "name": "to",
          "type": "address"
        },
        {
          "internalType": "uint256",
          "name": "tokenId",
          "type": "uint256"
        }
      ],
      "name": "approve",
      "outputs": [],
      "stateMutability": "nonpayable",
      "type": "function"
    },
    {
      "inputs": [],
      "name": "arb",
      "outputs": [
        {
          "internalType": "contract ERC20",
          "name": "",
          "type": "address"
        }
      ],
      "stateMutability": "view",
      "type": "function",
      "constant": true
    },
    {
      "inputs": [],
      "name": "arbprice",
      "outputs": [
        {
          "internalType": "uint256",
          "name": "",
          "type": "uint256"
        }
      ],
      "stateMutability": "view",
      "type": "function",
      "constant": true
    },
    {
      "inputs": [],
      "name": "arbstatusprice",
      "outputs": [
        {
          "internalType": "uint256",
          "name": "",
          "type": "uint256"
        }
      ],
      "stateMutability": "view",
      "type": "function",
      "constant": true
    },
    {
      "inputs": [
        {
          "internalType": "address",
          "name": "owner",
          "type": "address"
        }
      ],
      "name": "balanceOf",
      "outputs": [
        {
          "internalType": "uint256",
          "name": "",
          "type": "uint256"
        }
      ],
      "stateMutability": "view",
      "type": "function",
      "constant": true
    },
    {
      "inputs": [
        {
          "internalType": "uint256",
          "name": "",
          "type": "uint256"
        }
      ],
      "name": "dias",
      "outputs": [
        {
          "internalType": "bytes",
          "name": "",
          "type": "bytes"
        }
      ],
      "stateMutability": "view",
      "type": "function",
      "constant": true
    },
    {
      "inputs": [],
      "name": "digits",
      "outputs": [
        {
          "internalType": "uint256",
          "name": "",
          "type": "uint256"
        }
      ],
      "stateMutability": "view",
      "type": "function",
      "constant": true
    },
    {
      "inputs": [
        {
          "internalType": "uint256",
          "name": "tokenId",
          "type": "uint256"
        }
      ],
      "name": "getApproved",
      "outputs": [
        {
          "internalType": "address",
          "name": "",
          "type": "address"
        }
      ],
      "stateMutability": "view",
      "type": "function",
      "constant": true
    },
    {
      "inputs": [],
      "name": "ice",
      "outputs": [
        {
          "internalType": "contract ICE",
          "name": "",
          "type": "address"
        }
      ],
      "stateMutability": "view",
      "type": "function",
      "constant": true
    },
    {
      "inputs": [
        {
          "internalType": "uint256",
          "name": "",
          "type": "uint256"
        }
      ],
      "name": "icebox",
      "outputs": [
        {
          "internalType": "uint256",
          "name": "",
          "type": "uint256"
        }
      ],
      "stateMutability": "view",
      "type": "function",
      "constant": true
    },
    {
      "inputs": [
        {
          "internalType": "address",
          "name": "owner",
          "type": "address"
        },
        {
          "internalType": "address",
          "name": "operator",
          "type": "address"
        }
      ],
      "name": "isApprovedForAll",
      "outputs": [
        {
          "internalType": "bool",
          "name": "",
          "type": "bool"
        }
      ],
      "stateMutability": "view",
      "type": "function",
      "constant": true
    },
    {
      "inputs": [],
      "name": "max",
      "outputs": [
        {
          "internalType": "uint256",
          "name": "",
          "type": "uint256"
        }
      ],
      "stateMutability": "view",
      "type": "function",
      "constant": true
    },
    {
      "inputs": [
        {
          "internalType": "uint256",
          "name": "",
          "type": "uint256"
        }
      ],
      "name": "meltbox",
      "outputs": [
        {
          "internalType": "uint256",
          "name": "",
          "type": "uint256"
        }
      ],
      "stateMutability": "view",
      "type": "function",
      "constant": true
    },
    {
      "inputs": [],
      "name": "minted",
      "outputs": [
        {
          "internalType": "uint256",
          "name": "",
          "type": "uint256"
        }
      ],
      "stateMutability": "view",
      "type": "function",
      "constant": true
    },
    {
      "inputs": [
        {
          "internalType": "address",
          "name": "",
          "type": "address"
        }
      ],
      "name": "minter",
      "outputs": [
        {
          "internalType": "uint256",
          "name": "",
          "type": "uint256"
        }
      ],
      "stateMutability": "view",
      "type": "function",
      "constant": true
    },
    {
      "inputs": [],
      "name": "name",
      "outputs": [
        {
          "internalType": "string",
          "name": "",
          "type": "string"
        }
      ],
      "stateMutability": "view",
      "type": "function",
      "constant": true
    },
    {
      "inputs": [],
      "name": "num",
      "outputs": [
        {
          "internalType": "uint256",
          "name": "",
          "type": "uint256"
        }
      ],
      "stateMutability": "view",
      "type": "function",
      "constant": true
    },
    {
      "inputs": [
        {
          "internalType": "uint256",
          "name": "",
          "type": "uint256"
        }
      ],
      "name": "ownedBy",
      "outputs": [
        {
          "internalType": "address",
          "name": "",
          "type": "address"
        }
      ],
      "stateMutability": "view",
      "type": "function",
      "constant": true
    },
    {
      "inputs": [],
      "name": "owner",
      "outputs": [
        {
          "internalType": "address",
          "name": "",
          "type": "address"
        }
      ],
      "stateMutability": "view",
      "type": "function",
      "constant": true
    },
    {
      "inputs": [
        {
          "internalType": "uint256",
          "name": "tokenId",
          "type": "uint256"
        }
      ],
      "name": "ownerOf",
      "outputs": [
        {
          "internalType": "address",
          "name": "",
          "type": "address"
        }
      ],
      "stateMutability": "view",
      "type": "function",
      "constant": true
    },
    {
      "inputs": [],
      "name": "price",
      "outputs": [
        {
          "internalType": "uint256",
          "name": "",
          "type": "uint256"
        }
      ],
      "stateMutability": "view",
      "type": "function",
      "constant": true
    },
    {
      "inputs": [
        {
          "internalType": "address",
          "name": "from",
          "type": "address"
        },
        {
          "internalType": "address",
          "name": "to",
          "type": "address"
        },
        {
          "internalType": "uint256",
          "name": "tokenId",
          "type": "uint256"
        }
      ],
      "name": "safeTransferFrom",
      "outputs": [],
      "stateMutability": "nonpayable",
      "type": "function"
    },
    {
      "inputs": [
        {
          "internalType": "address",
          "name": "from",
          "type": "address"
        },
        {
          "internalType": "address",
          "name": "to",
          "type": "address"
        },
        {
          "internalType": "uint256",
          "name": "tokenId",
          "type": "uint256"
        },
        {
          "internalType": "bytes",
          "name": "data",
          "type": "bytes"
        }
      ],
      "name": "safeTransferFrom",
      "outputs": [],
      "stateMutability": "nonpayable",
      "type": "function"
    },
    {
      "inputs": [
        {
          "internalType": "address",
          "name": "operator",
          "type": "address"
        },
        {
          "internalType": "bool",
          "name": "approved",
          "type": "bool"
        }
      ],
      "name": "setApprovalForAll",
      "outputs": [],
      "stateMutability": "nonpayable",
      "type": "function"
    },
    {
      "inputs": [],
      "name": "slots",
      "outputs": [
        {
          "internalType": "uint256",
          "name": "",
          "type": "uint256"
        }
      ],
      "stateMutability": "view",
      "type": "function",
      "constant": true
    },
    {
      "inputs": [],
      "name": "sloz",
      "outputs": [
        {
          "internalType": "uint256",
          "name": "",
          "type": "uint256"
        }
      ],
      "stateMutability": "view",
      "type": "function",
      "constant": true
    },
    {
      "inputs": [],
      "name": "start",
      "outputs": [
        {
          "internalType": "bool",
          "name": "",
          "type": "bool"
        }
      ],
      "stateMutability": "view",
      "type": "function",
      "constant": true
    },
    {
      "inputs": [
        {
          "internalType": "uint256",
          "name": "",
          "type": "uint256"
        }
      ],
      "name": "status",
      "outputs": [
        {
          "internalType": "string",
          "name": "",
          "type": "string"
        }
      ],
      "stateMutability": "view",
      "type": "function",
      "constant": true
    },
    {
      "inputs": [],
      "name": "statusprice",
      "outputs": [
        {
          "internalType": "uint256",
          "name": "",
          "type": "uint256"
        }
      ],
      "stateMutability": "view",
      "type": "function",
      "constant": true
    },
    {
      "inputs": [
        {
          "internalType": "bytes4",
          "name": "interfaceId",
          "type": "bytes4"
        }
      ],
      "name": "supportsInterface",
      "outputs": [
        {
          "internalType": "bool",
          "name": "",
          "type": "bool"
        }
      ],
      "stateMutability": "view",
      "type": "function",
      "constant": true
    },
    {
      "inputs": [],
      "name": "symbol",
      "outputs": [
        {
          "internalType": "string",
          "name": "",
          "type": "string"
        }
      ],
      "stateMutability": "view",
      "type": "function",
      "constant": true
    },
    {
      "inputs": [
        {
          "internalType": "uint256",
          "name": "",
          "type": "uint256"
        }
      ],
      "name": "tid",
      "outputs": [
        {
          "internalType": "uint256",
          "name": "",
          "type": "uint256"
        }
      ],
      "stateMutability": "view",
      "type": "function",
      "constant": true
    },
    {
      "inputs": [
        {
          "internalType": "uint256",
          "name": "tokenId",
          "type": "uint256"
        }
      ],
      "name": "tokenURI",
      "outputs": [
        {
          "internalType": "string",
          "name": "",
          "type": "string"
        }
      ],
      "stateMutability": "view",
      "type": "function",
      "constant": true
    },
    {
      "inputs": [
        {
          "internalType": "address",
          "name": "from",
          "type": "address"
        },
        {
          "internalType": "address",
          "name": "to",
          "type": "address"
        },
        {
          "internalType": "uint256",
          "name": "tokenId",
          "type": "uint256"
        }
      ],
      "name": "transferFrom",
      "outputs": [],
      "stateMutability": "nonpayable",
      "type": "function"
    },
    {
      "inputs": [
        {
          "internalType": "uint256",
          "name": "_amnt",
          "type": "uint256"
        },
        {
          "internalType": "uint256",
          "name": "_diasID",
          "type": "uint256"
        },
        {
          "internalType": "string",
          "name": "_diasOBJ",
          "type": "string"
        }
      ],
      "name": "mint",
      "outputs": [
        {
          "internalType": "uint256",
          "name": "",
          "type": "uint256"
        }
      ],
      "stateMutability": "payable",
      "type": "function",
      "payable": true
    },
    {
      "inputs": [
        {
          "internalType": "uint256",
          "name": "_price",
          "type": "uint256"
        },
        {
          "internalType": "uint256",
          "name": "_arb",
          "type": "uint256"
        },
        {
          "internalType": "uint256",
          "name": "_sts",
          "type": "uint256"
        },
        {
          "internalType": "uint256",
          "name": "_asts",
          "type": "uint256"
        }
      ],
      "name": "setPrices",
      "outputs": [],
      "stateMutability": "nonpayable",
      "type": "function"
    },
    {
      "inputs": [
        {
          "internalType": "uint256",
          "name": "_amnt",
          "type": "uint256"
        },
        {
          "internalType": "uint256",
          "name": "_diasID",
          "type": "uint256"
        },
        {
          "internalType": "string",
          "name": "_diasOBJ",
          "type": "string"
        }
      ],
      "name": "arbmint",
      "outputs": [
        {
          "internalType": "uint256",
          "name": "",
          "type": "uint256"
        }
      ],
      "stateMutability": "payable",
      "type": "function",
      "payable": true
    },
    {
      "inputs": [
        {
          "internalType": "uint256",
          "name": "_diasID",
          "type": "uint256"
        },
        {
          "internalType": "string",
          "name": "_diasOBJ",
          "type": "string"
        }
      ],
      "name": "greenMint",
      "outputs": [
        {
          "internalType": "uint256",
          "name": "",
          "type": "uint256"
        }
      ],
      "stateMutability": "nonpayable",
      "type": "function"
    },
    {
      "inputs": [
        {
          "internalType": "uint256",
          "name": "_id",
          "type": "uint256"
        },
        {
          "internalType": "string",
          "name": "_status",
          "type": "string"
        }
      ],
      "name": "setStatus",
      "outputs": [
        {
          "internalType": "bool",
          "name": "",
          "type": "bool"
        }
      ],
      "stateMutability": "payable",
      "type": "function",
      "payable": true
    },
    {
      "inputs": [
        {
          "internalType": "uint256",
          "name": "_id",
          "type": "uint256"
        },
        {
          "internalType": "string",
          "name": "_status",
          "type": "string"
        }
      ],
      "name": "iceSetStatus",
      "outputs": [
        {
          "internalType": "string",
          "name": "",
          "type": "string"
        }
      ],
      "stateMutability": "nonpayable",
      "type": "function"
    },
    {
      "inputs": [
        {
          "internalType": "uint256",
          "name": "_id",
          "type": "uint256"
        },
        {
          "internalType": "string",
          "name": "_status",
          "type": "string"
        }
      ],
      "name": "arbSetStatus",
      "outputs": [
        {
          "internalType": "string",
          "name": "",
          "type": "string"
        }
      ],
      "stateMutability": "nonpayable",
      "type": "function"
    },
    {
      "inputs": [
        {
          "internalType": "uint256",
          "name": "_amount",
          "type": "uint256"
        },
        {
          "internalType": "uint256",
          "name": "_id",
          "type": "uint256"
        }
      ],
      "name": "addIce",
      "outputs": [
        {
          "internalType": "string",
          "name": "",
          "type": "string"
        }
      ],
      "stateMutability": "nonpayable",
      "type": "function"
    },
    {
      "inputs": [],
      "name": "meltState",
      "outputs": [
        {
          "internalType": "int256",
          "name": "state",
          "type": "int256"
        }
      ],
      "stateMutability": "view",
      "type": "function",
      "constant": true
    },
    {
      "inputs": [],
      "name": "changeMS",
      "outputs": [
        {
          "internalType": "bool",
          "name": "",
          "type": "bool"
        }
      ],
      "stateMutability": "nonpayable",
      "type": "function"
    },
    {
      "inputs": [],
      "name": "withdraw",
      "outputs": [
        {
          "internalType": "uint256",
          "name": "",
          "type": "uint256"
        }
      ],
      "stateMutability": "nonpayable",
      "type": "function"
    }
  ],
  "bytecode": "0x6080604052670de0b6b3a7640000600a553480156200001d57600080fd5b50604051620065d2380380620065d28339818101604052810190620000439190620004c8565b6040518060400160405280600b81526020017f436f6f6c2046726f6f74730000000000000000000000000000000000000000008152506040518060400160405280600681526020017f46523030545300000000000000000000000000000000000000000000000000008152508160009081620000c0919062000794565b508060019081620000d2919062000794565b5050506001600f81905550600060108190555033600d60006101000a81548173ffffffffffffffffffffffffffffffffffffffff021916908373ffffffffffffffffffffffffffffffffffffffff16021790555082601960006101000a81548173ffffffffffffffffffffffffffffffffffffffff021916908373ffffffffffffffffffffffffffffffffffffffff16021790555081601a60006101000a81548173ffffffffffffffffffffffffffffffffffffffff021916908373ffffffffffffffffffffffffffffffffffffffff160217905550600081036200033a57600a600b81905550601a60009054906101000a900473ffffffffffffffffffffffffffffffffffffffff1673ffffffffffffffffffffffffffffffffffffffff16636ac5db196040518163ffffffff1660e01b8152600401602060405180830381865afa15801562000227573d6000803e3d6000fd5b505050506040513d601f19601f820116820180604052508101906200024d91906200087b565b600c81905550620186a0600a546004620002689190620008dc565b62000274919062000956565b600681905550620f4240600a546200028d919062000956565b6007819055506103e8600a546007620002a79190620008dc565b620002b3919062000956565b600881905550612710600a546002620002cd9190620008dc565b620002d9919062000956565b600981905550733f42dd736c736f931dc23d4358dd92c65687019a601b60006101000a81548173ffffffffffffffffffffffffffffffffffffffff021916908373ffffffffffffffffffffffffffffffffffffffff1602179055506200041a565b6115b3600b819055506104d2600c819055506064600a5460046200035f9190620008dc565b6200036b919062000956565b6006819055506103e8600a5462000383919062000956565b600781905550600a5460076200039a9190620008dc565b600881905550600a80546002620003b29190620008dc565b620003be919062000956565b60098190555073912ce59144191c1204e64559fe8253a0e49e6548601b60006101000a81548173ffffffffffffffffffffffffffffffffffffffff021916908373ffffffffffffffffffffffffffffffffffffffff1602179055505b5050506200098e565b600080fd5b600073ffffffffffffffffffffffffffffffffffffffff82169050919050565b6000620004558262000428565b9050919050565b620004678162000448565b81146200047357600080fd5b50565b60008151905062000487816200045c565b92915050565b6000819050919050565b620004a2816200048d565b8114620004ae57600080fd5b50565b600081519050620004c28162000497565b92915050565b600080600060608486031215620004e457620004e362000423565b5b6000620004f48682870162000476565b9350506020620005078682870162000476565b92505060406200051a86828701620004b1565b9150509250925092565b600081519050919050565b7f4e487b7100000000000000000000000000000000000000000000000000000000600052604160045260246000fd5b7f4e487b7100000000000000000000000000000000000000000000000000000000600052602260045260246000fd5b60006002820490506001821680620005a657607f821691505b602082108103620005bc57620005bb6200055e565b5b50919050565b60008190508160005260206000209050919050565b60006020601f8301049050919050565b600082821b905092915050565b600060088302620006267fffffffffffffffffffffffffffffffffffffffffffffffffffffffffffffffff82620005e7565b620006328683620005e7565b95508019841693508086168417925050509392505050565b6000819050919050565b6000620006756200066f62000669846200048d565b6200064a565b6200048d565b9050919050565b6000819050919050565b620006918362000654565b620006a9620006a0826200067c565b848454620005f4565b825550505050565b600090565b620006c0620006b1565b620006cd81848462000686565b505050565b5b81811015620006f557620006e9600082620006b6565b600181019050620006d3565b5050565b601f82111562000744576200070e81620005c2565b6200071984620005d7565b8101602085101562000729578190505b620007416200073885620005d7565b830182620006d2565b50505b505050565b600082821c905092915050565b6000620007696000198460080262000749565b1980831691505092915050565b600062000784838362000756565b9150826002028217905092915050565b6200079f8262000524565b67ffffffffffffffff811115620007bb57620007ba6200052f565b5b620007c782546200058d565b620007d4828285620006f9565b600060209050601f8311600181146200080c5760008415620007f7578287015190505b62000803858262000776565b86555062000873565b601f1984166200081c86620005c2565b60005b8281101562000846578489015182556001820191506020850194506020810190506200081f565b8683101562000866578489015162000862601f89168262000756565b8355505b6001600288020188555050505b505050505050565b60006020828403121562000894576200089362000423565b5b6000620008a484828501620004b1565b91505092915050565b7f4e487b7100000000000000000000000000000000000000000000000000000000600052601160045260246000fd5b6000620008e9826200048d565b9150620008f6836200048d565b925082820262000906816200048d565b9150828204841483151762000920576200091f620008ad565b5b5092915050565b7f4e487b7100000000000000000000000000000000000000000000000000000000600052601260045260246000fd5b600062000963826200048d565b915062000970836200048d565b92508262000983576200098262000927565b5b828204905092915050565b615c34806200099e6000396000f3fe60806040526004361061027d5760003560e01c8063888ba27a1161014f578063ac0d4084116100c1578063c87b56dd1161007a578063c87b56dd14610a29578063d64b3ae814610a66578063d8e8685414610aa3578063e3c44ff714610acc578063e985e9c514610af7578063f62d8dfb14610b345761027d565b8063ac0d408414610900578063acb5fedf1461093d578063ae943abc14610968578063b88d4fde146109a5578063be9a6555146109ce578063c6e64e53146109f95761027d565b80639e20437c116101135780639e20437c146107dc578063a035b1fe14610807578063a22cb46514610832578063a613e0e71461085b578063a9700e1f14610898578063aa1ee940146108c35761027d565b8063888ba27a146106dc5780638da5cb5b1461070c5780639521e5261461073757806395d89b41146107745780639b4f589f1461079f5761027d565b806342d21ef7116101f35780636352211e116101ac5780636352211e146105b15780636ac5db19146105ee5780636f743acd1461061957806370a082311461064457806376917df91461068157806380142754146106b15761027d565b806342d21ef71461049d57806348547d69146104da5780634c2a860d146105055780634e70b1dc146105305780634f02c4201461055b5780635395acd2146105865761027d565b806323b872dd1161024557806323b872dd1461037b5780632ce56773146103a45780633b8d676f146103e15780633ccfd60b1461040c5780633dd08c381461043757806342842e0e146104745761027d565b806301ffc9a71461028257806306390d6c146102bf57806306fdde03146102ea578063081812fc14610315578063095ea7b314610352575b600080fd5b34801561028e57600080fd5b506102a960048036038101906102a4919061408e565b610b71565b6040516102b691906140d6565b60405180910390f35b3480156102cb57600080fd5b506102d4610c53565b6040516102e1919061410a565b60405180910390f35b3480156102f657600080fd5b506102ff610c59565b60405161030c91906141b5565b60405180910390f35b34801561032157600080fd5b5061033c60048036038101906103379190614203565b610ceb565b6040516103499190614271565b60405180910390f35b34801561035e57600080fd5b50610379600480360381019061037491906142b8565b610d31565b005b34801561038757600080fd5b506103a2600480360381019061039d91906142f8565b610e48565b005b3480156103b057600080fd5b506103cb60048036038101906103c69190614480565b610ea8565b6040516103d891906141b5565b60405180910390f35b3480156103ed57600080fd5b506103f66111e2565b60405161040391906140d6565b60405180910390f35b34801561041857600080fd5b50610421611281565b60405161042e919061410a565b60405180910390f35b34801561044357600080fd5b5061045e600480360381019061045991906144dc565b61150e565b60405161046b919061410a565b60405180910390f35b34801561048057600080fd5b5061049b600480360381019061049691906142f8565b611526565b005b3480156104a957600080fd5b506104c460048036038101906104bf9190614203565b611546565b6040516104d191906141b5565b60405180910390f35b3480156104e657600080fd5b506104ef6115e6565b6040516104fc919061410a565b60405180910390f35b34801561051157600080fd5b5061051a6115ec565b6040516105279190614568565b60405180910390f35b34801561053c57600080fd5b50610545611612565b604051610552919061410a565b60405180910390f35b34801561056757600080fd5b50610570611617565b60405161057d919061410a565b60405180910390f35b34801561059257600080fd5b5061059b61161d565b6040516105a8919061410a565b60405180910390f35b3480156105bd57600080fd5b506105d860048036038101906105d39190614203565b611623565b6040516105e59190614271565b60405180910390f35b3480156105fa57600080fd5b506106036116a9565b604051610610919061410a565b60405180910390f35b34801561062557600080fd5b5061062e6116af565b60405161063b919061410a565b60405180910390f35b34801561065057600080fd5b5061066b600480360381019061066691906144dc565b6116b5565b604051610678919061410a565b60405180910390f35b61069b60048036038101906106969190614480565b61176c565b6040516106a891906140d6565b60405180910390f35b3480156106bd57600080fd5b506106c6611849565b6040516106d3919061459c565b60405180910390f35b6106f660048036038101906106f191906145b7565b6118d6565b604051610703919061410a565b60405180910390f35b34801561071857600080fd5b50610721611f0e565b60405161072e9190614271565b60405180910390f35b34801561074357600080fd5b5061075e60048036038101906107599190614480565b611f34565b60405161076b919061410a565b60405180910390f35b34801561078057600080fd5b506107896121aa565b60405161079691906141b5565b60405180910390f35b3480156107ab57600080fd5b506107c660048036038101906107c19190614203565b61223c565b6040516107d3919061467b565b60405180910390f35b3480156107e857600080fd5b506107f16122dc565b6040516107fe919061410a565b60405180910390f35b34801561081357600080fd5b5061081c6122e2565b604051610829919061410a565b60405180910390f35b34801561083e57600080fd5b50610859600480360381019061085491906146c9565b6122e8565b005b34801561086757600080fd5b50610882600480360381019061087d9190614203565b6122fe565b60405161088f9190614271565b60405180910390f35b3480156108a457600080fd5b506108ad612331565b6040516108ba919061472a565b60405180910390f35b3480156108cf57600080fd5b506108ea60048036038101906108e59190614203565b612357565b6040516108f7919061410a565b60405180910390f35b34801561090c57600080fd5b5061092760048036038101906109229190614745565b61236f565b60405161093491906141b5565b60405180910390f35b34801561094957600080fd5b50610952612589565b60405161095f91906147a6565b60405180910390f35b34801561097457600080fd5b5061098f600480360381019061098a9190614203565b6125af565b60405161099c919061410a565b60405180910390f35b3480156109b157600080fd5b506109cc60048036038101906109c79190614862565b6125c7565b005b3480156109da57600080fd5b506109e3612629565b6040516109f091906140d6565b60405180910390f35b610a136004803603810190610a0e91906145b7565b61263c565b604051610a20919061410a565b60405180910390f35b348015610a3557600080fd5b50610a506004803603810190610a4b9190614203565b6127c8565b604051610a5d91906141b5565b60405180910390f35b348015610a7257600080fd5b50610a8d6004803603810190610a889190614203565b612830565b604051610a9a919061410a565b60405180910390f35b348015610aaf57600080fd5b50610aca6004803603810190610ac591906148e5565b612848565b005b348015610ad857600080fd5b50610ae161291c565b604051610aee919061410a565b60405180910390f35b348015610b0357600080fd5b50610b1e6004803603810190610b19919061494c565b612922565b604051610b2b91906140d6565b60405180910390f35b348015610b4057600080fd5b50610b5b6004803603810190610b569190614480565b6129b6565b604051610b6891906141b5565b60405180910390f35b60007f80ac58cd000000000000000000000000000000000000000000000000000000007bffffffffffffffffffffffffffffffffffffffffffffffffffffffff1916827bffffffffffffffffffffffffffffffffffffffffffffffffffffffff19161480610c3c57507f5b5e139f000000000000000000000000000000000000000000000000000000007bffffffffffffffffffffffffffffffffffffffffffffffffffffffff1916827bffffffffffffffffffffffffffffffffffffffffffffffffffffffff1916145b80610c4c5750610c4b82613048565b5b9050919050565b60075481565b606060008054610c68906149bb565b80601f0160208091040260200160405190810160405280929190818152602001828054610c94906149bb565b8015610ce15780601f10610cb657610100808354040283529160200191610ce1565b820191906000526020600020905b815481529060010190602001808311610cc457829003601f168201915b5050505050905090565b6000610cf6826130b2565b6004600083815260200190815260200160002060009054906101000a900473ffffffffffffffffffffffffffffffffffffffff169050919050565b6000610d3c82611623565b90508073ffffffffffffffffffffffffffffffffffffffff168373ffffffffffffffffffffffffffffffffffffffff1603610dac576040517f08c379a0000000000000000000000000000000000000000000000000000000008152600401610da390614a5e565b60405180910390fd5b8073ffffffffffffffffffffffffffffffffffffffff16610dcb6130fd565b73ffffffffffffffffffffffffffffffffffffffff161480610dfa5750610df981610df46130fd565b612922565b5b610e39576040517f08c379a0000000000000000000000000000000000000000000000000000000008152600401610e3090614af0565b60405180910390fd5b610e438383613105565b505050565b610e59610e536130fd565b826131be565b610e98576040517f08c379a0000000000000000000000000000000000000000000000000000000008152600401610e8f90614b82565b60405180910390fd5b610ea3838383613253565b505050565b60603373ffffffffffffffffffffffffffffffffffffffff166017600085815260200190815260200160002060009054906101000a900473ffffffffffffffffffffffffffffffffffffffff1673ffffffffffffffffffffffffffffffffffffffff1614610f4b576040517f08c379a0000000000000000000000000000000000000000000000000000000008152600401610f4290614bee565b60405180910390fd5b600a54601960009054906101000a900473ffffffffffffffffffffffffffffffffffffffff1673ffffffffffffffffffffffffffffffffffffffff166370a08231336040518263ffffffff1660e01b8152600401610fa99190614271565b602060405180830381865afa158015610fc6573d6000803e3d6000fd5b505050506040513d601f19601f82011682018060405250810190610fea9190614c23565b101561102b576040517f08c379a000000000000000000000000000000000000000000000000000000000815260040161102290614c9c565b60405180910390fd5b601960009054906101000a900473ffffffffffffffffffffffffffffffffffffffff1673ffffffffffffffffffffffffffffffffffffffff1663fcd3533c600a54336040518363ffffffff1660e01b815260040161108a929190614cbc565b6020604051808303816000875af11580156110a9573d6000803e3d6000fd5b505050506040513d601f19601f820116820180604052508101906110cd9190614c23565b5060036009426110dd9190614d14565b10156111835760016015600085815260200190815260200160002060008282546111079190614d74565b9250508190555060006016600085815260200190815260200160002054036111545762015180426111389190614d74565b6016600085815260200190815260200160002081905550611182565b6201518060166000858152602001908152602001600020600082825461117a9190614d74565b925050819055505b5b816014600085815260200190815260200160002090816111a39190614f4a565b506040518060400160405280600581526020017f4652455348000000000000000000000000000000000000000000000000000000815250905092915050565b6000601a60009054906101000a900473ffffffffffffffffffffffffffffffffffffffff1673ffffffffffffffffffffffffffffffffffffffff163373ffffffffffffffffffffffffffffffffffffffff1614611274576040517f08c379a000000000000000000000000000000000000000000000000000000000815260040161126b90615068565b60405180910390fd5b61127c61354c565b905090565b6000600d60009054906101000a900473ffffffffffffffffffffffffffffffffffffffff1673ffffffffffffffffffffffffffffffffffffffff163373ffffffffffffffffffffffffffffffffffffffff16146112dd57600080fd5b6000606480476112ed9190614d14565b476112f89190615088565b61130291906150bc565b90507379e205680908c03047e3f3a4e63fd192ff4cf40973ffffffffffffffffffffffffffffffffffffffff166108fc602d8361133f91906150ed565b9081150290604051600060405180830381858888f1935050505015801561136a573d6000803e3d6000fd5b5073b4ab6acfc8de6bc53cc696b902e59274d288d3e873ffffffffffffffffffffffffffffffffffffffff166108fc601e836113a691906150ed565b9081150290604051600060405180830381858888f193505050501580156113d1573d6000803e3d6000fd5b5073b4ab6acfc8de6bc53cc696b902e59274d288d3e873ffffffffffffffffffffffffffffffffffffffff166108fc600a8361140d91906150ed565b9081150290604051600060405180830381858888f19350505050158015611438573d6000803e3d6000fd5b5073b4ab6acfc8de6bc53cc696b902e59274d288d3e873ffffffffffffffffffffffffffffffffffffffff166108fc600a8361147491906150ed565b9081150290604051600060405180830381858888f1935050505015801561149f573d6000803e3d6000fd5b507379e205680908c03047e3f3a4e63fd192ff4cf40973ffffffffffffffffffffffffffffffffffffffff166108fc6005836114db91906150ed565b9081150290604051600060405180830381858888f19350505050158015611506573d6000803e3d6000fd5b504791505090565b60186020528060005260406000206000915090505481565b611541838383604051806020016040528060008152506125c7565b505050565b60146020528060005260406000206000915090508054611565906149bb565b80601f0160208091040260200160405190810160405280929190818152602001828054611591906149bb565b80156115de5780601f106115b3576101008083540402835291602001916115de565b820191906000526020600020905b8154815290600101906020018083116115c157829003601f168201915b505050505081565b60105481565b601960009054906101000a900473ffffffffffffffffffffffffffffffffffffffff1681565b600181565b600f5481565b60095481565b60008061162f8361357c565b9050600073ffffffffffffffffffffffffffffffffffffffff168173ffffffffffffffffffffffffffffffffffffffff16036116a0576040517f08c379a00000000000000000000000000000000000000000000000000000000081526004016116979061517b565b60405180910390fd5b80915050919050565b600b5481565b600c5481565b60008073ffffffffffffffffffffffffffffffffffffffff168273ffffffffffffffffffffffffffffffffffffffff1603611725576040517f08c379a000000000000000000000000000000000000000000000000000000000815260040161171c9061520d565b60405180910390fd5b600360008373ffffffffffffffffffffffffffffffffffffffff1673ffffffffffffffffffffffffffffffffffffffff168152602001908152602001600020549050919050565b60003373ffffffffffffffffffffffffffffffffffffffff166017600085815260200190815260200160002060009054906101000a900473ffffffffffffffffffffffffffffffffffffffff1673ffffffffffffffffffffffffffffffffffffffff161461180f576040517f08c379a000000000000000000000000000000000000000000000000000000000815260040161180690614bee565b60405180910390fd5b60075434101561181e57600080fd5b8160146000858152602001908152602001600020908161183e9190614f4a565b506001905092915050565b6000804260166000601860003373ffffffffffffffffffffffffffffffffffffffff1673ffffffffffffffffffffffffffffffffffffffff168152602001908152602001600020548152602001908152602001600020546118aa919061522d565b9050610e1080826118bb9190615270565b826118c6919061522d565b6118d091906152a1565b91505090565b60006001600b546118e79190614d74565b600f54111561192b576040517f08c379a000000000000000000000000000000000000000000000000000000000815260040161192290615357565b60405180910390fd5b6006548461193991906150ed565b601b60009054906101000a900473ffffffffffffffffffffffffffffffffffffffff1673ffffffffffffffffffffffffffffffffffffffff166370a08231336040518263ffffffff1660e01b81526004016119949190614271565b602060405180830381865afa1580156119b1573d6000803e3d6000fd5b505050506040513d601f19601f820116820180604052508101906119d59190614c23565b1015611a16576040517f08c379a0000000000000000000000000000000000000000000000000000000008152600401611a0d906153c3565b60405180910390fd5b60011515601160009054906101000a900460ff16151514611a6c576040517f08c379a0000000000000000000000000000000000000000000000000000000008152600401611a639061542f565b60405180910390fd5b600060648060065487611a7f91906150ed565b611a899190614d14565b60065487611a9791906150ed565b611aa19190615088565b611aab91906150bc565b9050601b60009054906101000a900473ffffffffffffffffffffffffffffffffffffffff1673ffffffffffffffffffffffffffffffffffffffff166323b872dd337379e205680908c03047e3f3a4e63fd192ff4cf409602d85611b0e91906150ed565b6040518463ffffffff1660e01b8152600401611b2c9392919061544f565b6020604051808303816000875af1158015611b4b573d6000803e3d6000fd5b505050506040513d601f19601f82011682018060405250810190611b6f919061549b565b50601b60009054906101000a900473ffffffffffffffffffffffffffffffffffffffff1673ffffffffffffffffffffffffffffffffffffffff166323b872dd3373b4ab6acfc8de6bc53cc696b902e59274d288d3e8601e85611bd191906150ed565b6040518463ffffffff1660e01b8152600401611bef9392919061544f565b6020604051808303816000875af1158015611c0e573d6000803e3d6000fd5b505050506040513d601f19601f82011682018060405250810190611c32919061549b565b50601b60009054906101000a900473ffffffffffffffffffffffffffffffffffffffff1673ffffffffffffffffffffffffffffffffffffffff166323b872dd3373b4ab6acfc8de6bc53cc696b902e59274d288d3e8600a85611c9491906150ed565b6040518463ffffffff1660e01b8152600401611cb29392919061544f565b6020604051808303816000875af1158015611cd1573d6000803e3d6000fd5b505050506040513d601f19601f82011682018060405250810190611cf5919061549b565b50601b60009054906101000a900473ffffffffffffffffffffffffffffffffffffffff1673ffffffffffffffffffffffffffffffffffffffff166323b872dd3373b4ab6acfc8de6bc53cc696b902e59274d288d3e8600a85611d5791906150ed565b6040518463ffffffff1660e01b8152600401611d759392919061544f565b6020604051808303816000875af1158015611d94573d6000803e3d6000fd5b505050506040513d601f19601f82011682018060405250810190611db8919061549b565b50601b60009054906101000a900473ffffffffffffffffffffffffffffffffffffffff1673ffffffffffffffffffffffffffffffffffffffff166323b872dd337379e205680908c03047e3f3a4e63fd192ff4cf409600585611e1a91906150ed565b6040518463ffffffff1660e01b8152600401611e389392919061544f565b6020604051808303816000875af1158015611e57573d6000803e3d6000fd5b505050506040513d601f19601f82011682018060405250810190611e7b919061549b565b503360176000600f54815260200190815260200160002060006101000a81548173ffffffffffffffffffffffffffffffffffffffff021916908373ffffffffffffffffffffffffffffffffffffffff160217905550611edb3385856135b9565b506000600942611eeb9190614d14565b6001611ef79190614d74565b9050611f033382613755565b925050509392505050565b600d60009054906101000a900473ffffffffffffffffffffffffffffffffffffffff1681565b6000600b54600f541115611f7d576040517f08c379a0000000000000000000000000000000000000000000000000000000008152600401611f7490615357565b60405180910390fd5b60011515601160009054906101000a900460ff16151514611fd3576040517f08c379a0000000000000000000000000000000000000000000000000000000008152600401611fca9061542f565b60405180910390fd5b6000601a60009054906101000a900473ffffffffffffffffffffffffffffffffffffffff1673ffffffffffffffffffffffffffffffffffffffff1663f794062e336040518263ffffffff1660e01b81526004016120309190614271565b602060405180830381865afa15801561204d573d6000803e3d6000fd5b505050506040513d601f19601f82011682018060405250810190612071919061549b565b905060011515811515146120ba576040517f08c379a00000000000000000000000000000000000000000000000000000000081526004016120b190615514565b60405180910390fd5b600c546010541115612101576040517f08c379a00000000000000000000000000000000000000000000000000000000081526004016120f890615580565b60405180910390fd5b3360176000600f54815260200190815260200160002060006101000a81548173ffffffffffffffffffffffffffffffffffffffff021916908373ffffffffffffffffffffffffffffffffffffffff1602179055506121603385856135b9565b5060006009426121709190614d14565b600161217c9190614d74565b905060106000815480929190612191906155a0565b91905055506121a03382613755565b9250505092915050565b6060600180546121b9906149bb565b80601f01602080910402602001604051908101604052809291908181526020018280546121e5906149bb565b80156122325780601f1061220757610100808354040283529160200191612232565b820191906000526020600020905b81548152906001019060200180831161221557829003601f168201915b5050505050905090565b6012602052806000526040600020600091509050805461225b906149bb565b80601f0160208091040260200160405190810160405280929190818152602001828054612287906149bb565b80156122d45780601f106122a9576101008083540402835291602001916122d4565b820191906000526020600020905b8154815290600101906020018083116122b757829003601f168201915b505050505081565b600a5481565b60065481565b6122fa6122f36130fd565b838361380e565b5050565b60176020528060005260406000206000915054906101000a900473ffffffffffffffffffffffffffffffffffffffff1681565b601a60009054906101000a900473ffffffffffffffffffffffffffffffffffffffff1681565b60166020528060005260406000206000915090505481565b6060600a548361237f91906150ed565b601960009054906101000a900473ffffffffffffffffffffffffffffffffffffffff1673ffffffffffffffffffffffffffffffffffffffff166370a08231336040518263ffffffff1660e01b81526004016123da9190614271565b602060405180830381865afa1580156123f7573d6000803e3d6000fd5b505050506040513d601f19601f8201168201806040525081019061241b9190614c23565b101561242657600080fd5b601960009054906101000a900473ffffffffffffffffffffffffffffffffffffffff1673ffffffffffffffffffffffffffffffffffffffff1663fcd3533c600a548561247291906150ed565b336040518363ffffffff1660e01b8152600401612490929190614cbc565b6020604051808303816000875af11580156124af573d6000803e3d6000fd5b505050506040513d601f19601f820116820180604052508101906124d39190614c23565b50826015600084815260200190815260200160002060008282546124f79190614d74565b925050819055506018603c808561250e91906150ed565b61251891906150ed565b61252291906150ed565b6016600084815260200190815260200160002060008282546125449190614d74565b925050819055506040518060400160405280600481526020017f434f4f4c00000000000000000000000000000000000000000000000000000000815250905092915050565b601b60009054906101000a900473ffffffffffffffffffffffffffffffffffffffff1681565b60136020528060005260406000206000915090505481565b6125d86125d26130fd565b836131be565b612617576040517f08c379a000000000000000000000000000000000000000000000000000000000815260040161260e90614b82565b60405180910390fd5b6126238484848461397a565b50505050565b601160009054906101000a900460ff1681565b60006001600b5461264d9190614d74565b600f541115612691576040517f08c379a000000000000000000000000000000000000000000000000000000000815260040161268890615357565b60405180910390fd5b6006548461269f91906150ed565b3410156126e1576040517f08c379a00000000000000000000000000000000000000000000000000000000081526004016126d8906153c3565b60405180910390fd5b60011515601160009054906101000a900460ff16151514612737576040517f08c379a000000000000000000000000000000000000000000000000000000000815260040161272e9061542f565b60405180910390fd5b3360176000600f54815260200190815260200160002060006101000a81548173ffffffffffffffffffffffffffffffffffffffff021916908373ffffffffffffffffffffffffffffffffffffffff1602179055506127963384846135b9565b5060006009426127a69190614d14565b60016127b29190614d74565b90506127be3382613755565b9150509392505050565b60606127d3826130b2565b60006127dd6139d6565b905060008151116127fd5760405180602001604052806000815250612828565b80612807846139ed565b604051602001612818929190615624565b6040516020818303038152906040525b915050919050565b60156020528060005260406000206000915090505481565b600d60009054906101000a900473ffffffffffffffffffffffffffffffffffffffff1673ffffffffffffffffffffffffffffffffffffffff163373ffffffffffffffffffffffffffffffffffffffff16146128a257600080fd5b6064600a54856128b291906150ed565b6128bc91906150bc565b6006819055506103e8600a54836128d391906150ed565b6128dd91906150bc565b600781905550600a54836128f191906150ed565b600881905550600a80548261290691906150ed565b61291091906150bc565b60098190555050505050565b60085481565b6000600560008473ffffffffffffffffffffffffffffffffffffffff1673ffffffffffffffffffffffffffffffffffffffff16815260200190815260200160002060008373ffffffffffffffffffffffffffffffffffffffff1673ffffffffffffffffffffffffffffffffffffffff16815260200190815260200160002060009054906101000a900460ff16905092915050565b60603373ffffffffffffffffffffffffffffffffffffffff166017600085815260200190815260200160002060009054906101000a900473ffffffffffffffffffffffffffffffffffffffff1673ffffffffffffffffffffffffffffffffffffffff1614612a59576040517f08c379a0000000000000000000000000000000000000000000000000000000008152600401612a5090614bee565b60405180910390fd5b600954601b60009054906101000a900473ffffffffffffffffffffffffffffffffffffffff1673ffffffffffffffffffffffffffffffffffffffff166370a08231336040518263ffffffff1660e01b8152600401612ab79190614271565b602060405180830381865afa158015612ad4573d6000803e3d6000fd5b505050506040513d601f19601f82011682018060405250810190612af89190614c23565b1015612b39576040517f08c379a0000000000000000000000000000000000000000000000000000000008152600401612b3090614c9c565b60405180910390fd5b6000606480600954612b4b9190614d14565b600954612b589190615088565b612b6291906150bc565b9050601b60009054906101000a900473ffffffffffffffffffffffffffffffffffffffff1673ffffffffffffffffffffffffffffffffffffffff166323b872dd337379e205680908c03047e3f3a4e63fd192ff4cf409602d85612bc591906150ed565b6040518463ffffffff1660e01b8152600401612be39392919061544f565b6020604051808303816000875af1158015612c02573d6000803e3d6000fd5b505050506040513d601f19601f82011682018060405250810190612c26919061549b565b50601b60009054906101000a900473ffffffffffffffffffffffffffffffffffffffff1673ffffffffffffffffffffffffffffffffffffffff166323b872dd3373b4ab6acfc8de6bc53cc696b902e59274d288d3e8601e85612c8891906150ed565b6040518463ffffffff1660e01b8152600401612ca69392919061544f565b6020604051808303816000875af1158015612cc5573d6000803e3d6000fd5b505050506040513d601f19601f82011682018060405250810190612ce9919061549b565b50601b60009054906101000a900473ffffffffffffffffffffffffffffffffffffffff1673ffffffffffffffffffffffffffffffffffffffff166323b872dd3373b4ab6acfc8de6bc53cc696b902e59274d288d3e8600a85612d4b91906150ed565b6040518463ffffffff1660e01b8152600401612d699392919061544f565b6020604051808303816000875af1158015612d88573d6000803e3d6000fd5b505050506040513d601f19601f82011682018060405250810190612dac919061549b565b50601b60009054906101000a900473ffffffffffffffffffffffffffffffffffffffff1673ffffffffffffffffffffffffffffffffffffffff166323b872dd3373b4ab6acfc8de6bc53cc696b902e59274d288d3e8600a85612e0e91906150ed565b6040518463ffffffff1660e01b8152600401612e2c9392919061544f565b6020604051808303816000875af1158015612e4b573d6000803e3d6000fd5b505050506040513d601f19601f82011682018060405250810190612e6f919061549b565b50601b60009054906101000a900473ffffffffffffffffffffffffffffffffffffffff1673ffffffffffffffffffffffffffffffffffffffff166323b872dd337379e205680908c03047e3f3a4e63fd192ff4cf409600585612ed191906150ed565b6040518463ffffffff1660e01b8152600401612eef9392919061544f565b6020604051808303816000875af1158015612f0e573d6000803e3d6000fd5b505050506040513d601f19601f82011682018060405250810190612f32919061549b565b506003600942612f429190614d14565b1015612fe8576001601560008681526020019081526020016000206000828254612f6c9190614d74565b925050819055506000601660008681526020019081526020016000205403612fb9576201518042612f9d9190614d74565b6016600086815260200190815260200160002081905550612fe7565b62015180601660008681526020019081526020016000206000828254612fdf9190614d74565b925050819055505b5b826014600086815260200190815260200160002090816130089190614f4a565b506040518060400160405280600581526020017f465245534800000000000000000000000000000000000000000000000000000081525091505092915050565b60007f01ffc9a7000000000000000000000000000000000000000000000000000000007bffffffffffffffffffffffffffffffffffffffffffffffffffffffff1916827bffffffffffffffffffffffffffffffffffffffffffffffffffffffff1916149050919050565b6130bb81613abb565b6130fa576040517f08c379a00000000000000000000000000000000000000000000000000000000081526004016130f19061517b565b60405180910390fd5b50565b600033905090565b816004600083815260200190815260200160002060006101000a81548173ffffffffffffffffffffffffffffffffffffffff021916908373ffffffffffffffffffffffffffffffffffffffff160217905550808273ffffffffffffffffffffffffffffffffffffffff1661317883611623565b73ffffffffffffffffffffffffffffffffffffffff167f8c5be1e5ebec7d5bd14f71427d1e84f3dd0314c0f7b2291e5b200ac8c7c3b92560405160405180910390a45050565b6000806131ca83611623565b90508073ffffffffffffffffffffffffffffffffffffffff168473ffffffffffffffffffffffffffffffffffffffff16148061320c575061320b8185612922565b5b8061324a57508373ffffffffffffffffffffffffffffffffffffffff1661323284610ceb565b73ffffffffffffffffffffffffffffffffffffffff16145b91505092915050565b8273ffffffffffffffffffffffffffffffffffffffff1661327382611623565b73ffffffffffffffffffffffffffffffffffffffff16146132c9576040517f08c379a00000000000000000000000000000000000000000000000000000000081526004016132c0906156ba565b60405180910390fd5b600073ffffffffffffffffffffffffffffffffffffffff168273ffffffffffffffffffffffffffffffffffffffff1603613338576040517f08c379a000000000000000000000000000000000000000000000000000000000815260040161332f9061574c565b60405180910390fd5b6133458383836001613afc565b8273ffffffffffffffffffffffffffffffffffffffff1661336582611623565b73ffffffffffffffffffffffffffffffffffffffff16146133bb576040517f08c379a00000000000000000000000000000000000000000000000000000000081526004016133b2906156ba565b60405180910390fd5b6004600082815260200190815260200160002060006101000a81549073ffffffffffffffffffffffffffffffffffffffff02191690556001600360008573ffffffffffffffffffffffffffffffffffffffff1673ffffffffffffffffffffffffffffffffffffffff168152602001908152602001600020600082825403925050819055506001600360008473ffffffffffffffffffffffffffffffffffffffff1673ffffffffffffffffffffffffffffffffffffffff16815260200190815260200160002060008282540192505081905550816002600083815260200190815260200160002060006101000a81548173ffffffffffffffffffffffffffffffffffffffff021916908373ffffffffffffffffffffffffffffffffffffffff160217905550808273ffffffffffffffffffffffffffffffffffffffff168473ffffffffffffffffffffffffffffffffffffffff167fddf252ad1be2c89b69c2b068fc378daa952ba7f163c4a11628f55a4df523b3ef60405160405180910390a46135478383836001613b02565b505050565b6000601160009054906101000a900460ff1615601160006101000a81548160ff0219169083151502179055905090565b60006002600083815260200190815260200160002060009054906101000a900473ffffffffffffffffffffffffffffffffffffffff169050919050565b60006001806135c7866116b5565b6135d19190614d74565b1115613612576040517f08c379a0000000000000000000000000000000000000000000000000000000008152600401613609906157b8565b60405180910390fd5b600b54600f541115613659576040517f08c379a000000000000000000000000000000000000000000000000000000000815260040161365090615824565b60405180910390fd5b61366584600f54613b08565b8260136000600f548152602001908152602001600020819055508160126000600f54815260200190815260200160002090816136a1919061589f565b5062093a80426136b19190614d74565b60166000600f54815260200190815260200160002081905550600f54601860008673ffffffffffffffffffffffffffffffffffffffff1673ffffffffffffffffffffffffffffffffffffffff16815260200190815260200160002081905550600f6000815480929190613723906155a0565b91905055506001600b546137379190614d74565b600f54106137495761374761354c565b505b600f5490509392505050565b6000601960009054906101000a900473ffffffffffffffffffffffffffffffffffffffff1673ffffffffffffffffffffffffffffffffffffffff1663a9059cbb84600a54856137a491906150ed565b6040518363ffffffff1660e01b81526004016137c1929190615971565b6020604051808303816000875af11580156137e0573d6000803e3d6000fd5b505050506040513d601f19601f82011682018060405250810190613804919061549b565b5081905092915050565b8173ffffffffffffffffffffffffffffffffffffffff168373ffffffffffffffffffffffffffffffffffffffff160361387c576040517f08c379a0000000000000000000000000000000000000000000000000000000008152600401613873906159e6565b60405180910390fd5b80600560008573ffffffffffffffffffffffffffffffffffffffff1673ffffffffffffffffffffffffffffffffffffffff16815260200190815260200160002060008473ffffffffffffffffffffffffffffffffffffffff1673ffffffffffffffffffffffffffffffffffffffff16815260200190815260200160002060006101000a81548160ff0219169083151502179055508173ffffffffffffffffffffffffffffffffffffffff168373ffffffffffffffffffffffffffffffffffffffff167f17307eab39ab6107e8899845ad3d59bd9653f200f220920489ca2b5937696c318360405161396d91906140d6565b60405180910390a3505050565b613985848484613253565b61399184848484613d25565b6139d0576040517f08c379a00000000000000000000000000000000000000000000000000000000081526004016139c790615a78565b60405180910390fd5b50505050565b606060405180602001604052806000815250905090565b6060600060016139fc84613eac565b01905060008167ffffffffffffffff811115613a1b57613a1a614355565b5b6040519080825280601f01601f191660200182016040528015613a4d5781602001600182028036833780820191505090505b509050600082602001820190505b600115613ab0578080600190039150507f3031323334353637383961626364656600000000000000000000000000000000600a86061a8153600a8581613aa457613aa3614ce5565b5b04945060008503613a5b575b819350505050919050565b60008073ffffffffffffffffffffffffffffffffffffffff16613add8361357c565b73ffffffffffffffffffffffffffffffffffffffff1614159050919050565b50505050565b50505050565b600073ffffffffffffffffffffffffffffffffffffffff168273ffffffffffffffffffffffffffffffffffffffff1603613b77576040517f08c379a0000000000000000000000000000000000000000000000000000000008152600401613b6e90615ae4565b60405180910390fd5b613b8081613abb565b15613bc0576040517f08c379a0000000000000000000000000000000000000000000000000000000008152600401613bb790615b50565b60405180910390fd5b613bce600083836001613afc565b613bd781613abb565b15613c17576040517f08c379a0000000000000000000000000000000000000000000000000000000008152600401613c0e90615b50565b60405180910390fd5b6001600360008473ffffffffffffffffffffffffffffffffffffffff1673ffffffffffffffffffffffffffffffffffffffff16815260200190815260200160002060008282540192505081905550816002600083815260200190815260200160002060006101000a81548173ffffffffffffffffffffffffffffffffffffffff021916908373ffffffffffffffffffffffffffffffffffffffff160217905550808273ffffffffffffffffffffffffffffffffffffffff16600073ffffffffffffffffffffffffffffffffffffffff167fddf252ad1be2c89b69c2b068fc378daa952ba7f163c4a11628f55a4df523b3ef60405160405180910390a4613d21600083836001613b02565b5050565b6000613d468473ffffffffffffffffffffffffffffffffffffffff16613fff565b15613e9f578373ffffffffffffffffffffffffffffffffffffffff1663150b7a02613d6f6130fd565b8786866040518563ffffffff1660e01b8152600401613d919493929190615b70565b6020604051808303816000875af1925050508015613dcd57506040513d601f19601f82011682018060405250810190613dca9190615bd1565b60015b613e4f573d8060008114613dfd576040519150601f19603f3d011682016040523d82523d6000602084013e613e02565b606091505b506000815103613e47576040517f08c379a0000000000000000000000000000000000000000000000000000000008152600401613e3e90615a78565b60405180910390fd5b805181602001fd5b63150b7a0260e01b7bffffffffffffffffffffffffffffffffffffffffffffffffffffffff1916817bffffffffffffffffffffffffffffffffffffffffffffffffffffffff191614915050613ea4565b600190505b949350505050565b600080600090507a184f03e93ff9f4daa797ed6e38ed64bf6a1f0100000000000000008310613f0a577a184f03e93ff9f4daa797ed6e38ed64bf6a1f0100000000000000008381613f0057613eff614ce5565b5b0492506040810190505b6d04ee2d6d415b85acef81000000008310613f47576d04ee2d6d415b85acef81000000008381613f3d57613f3c614ce5565b5b0492506020810190505b662386f26fc100008310613f7657662386f26fc100008381613f6c57613f6b614ce5565b5b0492506010810190505b6305f5e1008310613f9f576305f5e1008381613f9557613f94614ce5565b5b0492506008810190505b6127108310613fc4576127108381613fba57613fb9614ce5565b5b0492506004810190505b60648310613fe75760648381613fdd57613fdc614ce5565b5b0492506002810190505b600a8310613ff6576001810190505b80915050919050565b6000808273ffffffffffffffffffffffffffffffffffffffff163b119050919050565b6000604051905090565b600080fd5b600080fd5b60007fffffffff0000000000000000000000000000000000000000000000000000000082169050919050565b61406b81614036565b811461407657600080fd5b50565b60008135905061408881614062565b92915050565b6000602082840312156140a4576140a361402c565b5b60006140b284828501614079565b91505092915050565b60008115159050919050565b6140d0816140bb565b82525050565b60006020820190506140eb60008301846140c7565b92915050565b6000819050919050565b614104816140f1565b82525050565b600060208201905061411f60008301846140fb565b92915050565b600081519050919050565b600082825260208201905092915050565b60005b8381101561415f578082015181840152602081019050614144565b60008484015250505050565b6000601f19601f8301169050919050565b600061418782614125565b6141918185614130565b93506141a1818560208601614141565b6141aa8161416b565b840191505092915050565b600060208201905081810360008301526141cf818461417c565b905092915050565b6141e0816140f1565b81146141eb57600080fd5b50565b6000813590506141fd816141d7565b92915050565b6000602082840312156142195761421861402c565b5b6000614227848285016141ee565b91505092915050565b600073ffffffffffffffffffffffffffffffffffffffff82169050919050565b600061425b82614230565b9050919050565b61426b81614250565b82525050565b60006020820190506142866000830184614262565b92915050565b61429581614250565b81146142a057600080fd5b50565b6000813590506142b28161428c565b92915050565b600080604083850312156142cf576142ce61402c565b5b60006142dd858286016142a3565b92505060206142ee858286016141ee565b9150509250929050565b6000806000606084860312156143115761431061402c565b5b600061431f868287016142a3565b9350506020614330868287016142a3565b9250506040614341868287016141ee565b9150509250925092565b600080fd5b600080fd5b7f4e487b7100000000000000000000000000000000000000000000000000000000600052604160045260246000fd5b61438d8261416b565b810181811067ffffffffffffffff821117156143ac576143ab614355565b5b80604052505050565b60006143bf614022565b90506143cb8282614384565b919050565b600067ffffffffffffffff8211156143eb576143ea614355565b5b6143f48261416b565b9050602081019050919050565b82818337600083830152505050565b600061442361441e846143d0565b6143b5565b90508281526020810184848401111561443f5761443e614350565b5b61444a848285614401565b509392505050565b600082601f8301126144675761446661434b565b5b8135614477848260208601614410565b91505092915050565b600080604083850312156144975761449661402c565b5b60006144a5858286016141ee565b925050602083013567ffffffffffffffff8111156144c6576144c5614031565b5b6144d285828601614452565b9150509250929050565b6000602082840312156144f2576144f161402c565b5b6000614500848285016142a3565b91505092915050565b6000819050919050565b600061452e61452961452484614230565b614509565b614230565b9050919050565b600061454082614513565b9050919050565b600061455282614535565b9050919050565b61456281614547565b82525050565b600060208201905061457d6000830184614559565b92915050565b6000819050919050565b61459681614583565b82525050565b60006020820190506145b1600083018461458d565b92915050565b6000806000606084860312156145d0576145cf61402c565b5b60006145de868287016141ee565b93505060206145ef868287016141ee565b925050604084013567ffffffffffffffff8111156146105761460f614031565b5b61461c86828701614452565b9150509250925092565b600081519050919050565b600082825260208201905092915050565b600061464d82614626565b6146578185614631565b9350614667818560208601614141565b6146708161416b565b840191505092915050565b600060208201905081810360008301526146958184614642565b905092915050565b6146a6816140bb565b81146146b157600080fd5b50565b6000813590506146c38161469d565b92915050565b600080604083850312156146e0576146df61402c565b5b60006146ee858286016142a3565b92505060206146ff858286016146b4565b9150509250929050565b600061471482614535565b9050919050565b61472481614709565b82525050565b600060208201905061473f600083018461471b565b92915050565b6000806040838503121561475c5761475b61402c565b5b600061476a858286016141ee565b925050602061477b858286016141ee565b9150509250929050565b600061479082614535565b9050919050565b6147a081614785565b82525050565b60006020820190506147bb6000830184614797565b92915050565b600067ffffffffffffffff8211156147dc576147db614355565b5b6147e58261416b565b9050602081019050919050565b6000614805614800846147c1565b6143b5565b90508281526020810184848401111561482157614820614350565b5b61482c848285614401565b509392505050565b600082601f8301126148495761484861434b565b5b81356148598482602086016147f2565b91505092915050565b6000806000806080858703121561487c5761487b61402c565b5b600061488a878288016142a3565b945050602061489b878288016142a3565b93505060406148ac878288016141ee565b925050606085013567ffffffffffffffff8111156148cd576148cc614031565b5b6148d987828801614834565b91505092959194509250565b600080600080608085870312156148ff576148fe61402c565b5b600061490d878288016141ee565b945050602061491e878288016141ee565b935050604061492f878288016141ee565b9250506060614940878288016141ee565b91505092959194509250565b600080604083850312156149635761496261402c565b5b6000614971858286016142a3565b9250506020614982858286016142a3565b9150509250929050565b7f4e487b7100000000000000000000000000000000000000000000000000000000600052602260045260246000fd5b600060028204905060018216806149d357607f821691505b6020821081036149e6576149e561498c565b5b50919050565b7f4552433732313a20617070726f76616c20746f2063757272656e74206f776e6560008201527f7200000000000000000000000000000000000000000000000000000000000000602082015250565b6000614a48602183614130565b9150614a53826149ec565b604082019050919050565b60006020820190508181036000830152614a7781614a3b565b9050919050565b7f4552433732313a20617070726f76652063616c6c6572206973206e6f7420746f60008201527f6b656e206f776e6572206f7220617070726f76656420666f7220616c6c000000602082015250565b6000614ada603d83614130565b9150614ae582614a7e565b604082019050919050565b60006020820190508181036000830152614b0981614acd565b9050919050565b7f4552433732313a2063616c6c6572206973206e6f7420746f6b656e206f776e6560008201527f72206f7220617070726f76656400000000000000000000000000000000000000602082015250565b6000614b6c602d83614130565b9150614b7782614b10565b604082019050919050565b60006020820190508181036000830152614b9b81614b5f565b9050919050565b7f4e4f542055522753000000000000000000000000000000000000000000000000600082015250565b6000614bd8600883614130565b9150614be382614ba2565b602082019050919050565b60006020820190508181036000830152614c0781614bcb565b9050919050565b600081519050614c1d816141d7565b92915050565b600060208284031215614c3957614c3861402c565b5b6000614c4784828501614c0e565b91505092915050565b7f4c4f204943450000000000000000000000000000000000000000000000000000600082015250565b6000614c86600683614130565b9150614c9182614c50565b602082019050919050565b60006020820190508181036000830152614cb581614c79565b9050919050565b6000604082019050614cd160008301856140fb565b614cde6020830184614262565b9392505050565b7f4e487b7100000000000000000000000000000000000000000000000000000000600052601260045260246000fd5b6000614d1f826140f1565b9150614d2a836140f1565b925082614d3a57614d39614ce5565b5b828206905092915050565b7f4e487b7100000000000000000000000000000000000000000000000000000000600052601160045260246000fd5b6000614d7f826140f1565b9150614d8a836140f1565b9250828201905080821115614da257614da1614d45565b5b92915050565b60008190508160005260206000209050919050565b60006020601f8301049050919050565b600082821b905092915050565b600060088302614e0a7fffffffffffffffffffffffffffffffffffffffffffffffffffffffffffffffff82614dcd565b614e148683614dcd565b95508019841693508086168417925050509392505050565b6000614e47614e42614e3d846140f1565b614509565b6140f1565b9050919050565b6000819050919050565b614e6183614e2c565b614e75614e6d82614e4e565b848454614dda565b825550505050565b600090565b614e8a614e7d565b614e95818484614e58565b505050565b5b81811015614eb957614eae600082614e82565b600181019050614e9b565b5050565b601f821115614efe57614ecf81614da8565b614ed884614dbd565b81016020851015614ee7578190505b614efb614ef385614dbd565b830182614e9a565b50505b505050565b600082821c905092915050565b6000614f2160001984600802614f03565b1980831691505092915050565b6000614f3a8383614f10565b9150826002028217905092915050565b614f5382614125565b67ffffffffffffffff811115614f6c57614f6b614355565b5b614f7682546149bb565b614f81828285614ebd565b600060209050601f831160018114614fb45760008415614fa2578287015190505b614fac8582614f2e565b865550615014565b601f198416614fc286614da8565b60005b82811015614fea57848901518255600182019150602085019450602081019050614fc5565b868310156150075784890151615003601f891682614f10565b8355505b6001600288020188555050505b505050505050565b7f4e4f5420434f4e54524143542021000000000000000000000000000000000000600082015250565b6000615052600e83614130565b915061505d8261501c565b602082019050919050565b6000602082019050818103600083015261508181615045565b9050919050565b6000615093826140f1565b915061509e836140f1565b92508282039050818111156150b6576150b5614d45565b5b92915050565b60006150c7826140f1565b91506150d2836140f1565b9250826150e2576150e1614ce5565b5b828204905092915050565b60006150f8826140f1565b9150615103836140f1565b9250828202615111816140f1565b9150828204841483151761512857615127614d45565b5b5092915050565b7f4552433732313a20696e76616c696420746f6b656e2049440000000000000000600082015250565b6000615165601883614130565b91506151708261512f565b602082019050919050565b6000602082019050818103600083015261519481615158565b9050919050565b7f4552433732313a2061646472657373207a65726f206973206e6f74206120766160008201527f6c6964206f776e65720000000000000000000000000000000000000000000000602082015250565b60006151f7602983614130565b91506152028261519b565b604082019050919050565b60006020820190508181036000830152615226816151ea565b9050919050565b600061523882614583565b915061524383614583565b925082820390508181126000841216828213600085121516171561526a57615269614d45565b5b92915050565b600061527b82614583565b915061528683614583565b92508261529657615295614ce5565b5b828207905092915050565b60006152ac82614583565b91506152b783614583565b9250826152c7576152c6614ce5565b5b600160000383147f800000000000000000000000000000000000000000000000000000000000000083141615615300576152ff614d45565b5b828205905092915050565b7f534f4c4400000000000000000000000000000000000000000000000000000000600082015250565b6000615341600483614130565b915061534c8261530b565b602082019050919050565b6000602082019050818103600083015261537081615334565b9050919050565b7f43415348204c4f00000000000000000000000000000000000000000000000000600082015250565b60006153ad600783614130565b91506153b882615377565b602082019050919050565b600060208201905081810360008301526153dc816153a0565b9050919050565b7f534f4f4e00000000000000000000000000000000000000000000000000000000600082015250565b6000615419600483614130565b9150615424826153e3565b602082019050919050565b600060208201905081810360008301526154488161540c565b9050919050565b60006060820190506154646000830186614262565b6154716020830185614262565b61547e60408301846140fb565b949350505050565b6000815190506154958161469d565b92915050565b6000602082840312156154b1576154b061402c565b5b60006154bf84828501615486565b91505092915050565b7f4e4f54204c49535a440000000000000000000000000000000000000000000000600082015250565b60006154fe600983614130565b9150615509826154c8565b602082019050919050565b6000602082019050818103600083015261552d816154f1565b9050919050565b7f414c4c20474f4e00000000000000000000000000000000000000000000000000600082015250565b600061556a600783614130565b915061557582615534565b602082019050919050565b600060208201905081810360008301526155998161555d565b9050919050565b60006155ab826140f1565b91507fffffffffffffffffffffffffffffffffffffffffffffffffffffffffffffffff82036155dd576155dc614d45565b5b600182019050919050565b600081905092915050565b60006155fe82614125565b61560881856155e8565b9350615618818560208601614141565b80840191505092915050565b600061563082856155f3565b915061563c82846155f3565b91508190509392505050565b7f4552433732313a207472616e736665722066726f6d20696e636f72726563742060008201527f6f776e6572000000000000000000000000000000000000000000000000000000602082015250565b60006156a4602583614130565b91506156af82615648565b604082019050919050565b600060208201905081810360008301526156d381615697565b9050919050565b7f4552433732313a207472616e7366657220746f20746865207a65726f2061646460008201527f7265737300000000000000000000000000000000000000000000000000000000602082015250565b6000615736602483614130565b9150615741826156da565b604082019050919050565b6000602082019050818103600083015261576581615729565b9050919050565b7f584344494420574f4c4c4954204d415800000000000000000000000000000000600082015250565b60006157a2601083614130565b91506157ad8261576c565b602082019050919050565b600060208201905081810360008301526157d181615795565b9050919050565b7f474f4e0000000000000000000000000000000000000000000000000000000000600082015250565b600061580e600383614130565b9150615819826157d8565b602082019050919050565b6000602082019050818103600083015261583d81615801565b9050919050565b60008190508160005260206000209050919050565b601f82111561589a5761586b81615844565b61587484614dbd565b81016020851015615883578190505b61589761588f85614dbd565b830182614e9a565b50505b505050565b6158a882614626565b67ffffffffffffffff8111156158c1576158c0614355565b5b6158cb82546149bb565b6158d6828285615859565b600060209050601f83116001811461590957600084156158f7578287015190505b6159018582614f2e565b865550615969565b601f19841661591786615844565b60005b8281101561593f5784890151825560018201915060208501945060208101905061591a565b8683101561595c5784890151615958601f891682614f10565b8355505b6001600288020188555050505b505050505050565b60006040820190506159866000830185614262565b61599360208301846140fb565b9392505050565b7f4552433732313a20617070726f766520746f2063616c6c657200000000000000600082015250565b60006159d0601983614130565b91506159db8261599a565b602082019050919050565b600060208201905081810360008301526159ff816159c3565b9050919050565b7f4552433732313a207472616e7366657220746f206e6f6e20455243373231526560008201527f63656976657220696d706c656d656e7465720000000000000000000000000000602082015250565b6000615a62603283614130565b9150615a6d82615a06565b604082019050919050565b60006020820190508181036000830152615a9181615a55565b9050919050565b7f4552433732313a206d696e7420746f20746865207a65726f2061646472657373600082015250565b6000615ace602083614130565b9150615ad982615a98565b602082019050919050565b60006020820190508181036000830152615afd81615ac1565b9050919050565b7f4552433732313a20746f6b656e20616c7265616479206d696e74656400000000600082015250565b6000615b3a601c83614130565b9150615b4582615b04565b602082019050919050565b60006020820190508181036000830152615b6981615b2d565b9050919050565b6000608082019050615b856000830187614262565b615b926020830186614262565b615b9f60408301856140fb565b8181036060830152615bb18184614642565b905095945050505050565b600081519050615bcb81614062565b92915050565b600060208284031215615be757615be661402c565b5b6000615bf584828501615bbc565b9150509291505056fea2646970667358221220874cd412b349190a3732c3bfb389a94ba6229d6c3f173d59adcb05f5d2f09a9f64736f6c63430008110033",
  "immutableReferences": {},
  "source": "// SPDX-License-Identifier: MIT\n\npragma solidity ^0.8.10;\n\nimport \"@openzeppelin/contracts/token/ERC20/ERC20.sol\";\nimport \"@openzeppelin/contracts/token/ERC721/ERC721.sol\";\n\nlibrary wallets {\n    address constant artist = 0x79E205680908c03047e3f3A4E63FD192Ff4Cf409; // 30%\n    address constant comm = 0xB4AB6aCfc8DE6BC53Cc696B902e59274d288D3E8; // 30%\n    address constant opsec = 0xB4AB6aCfc8DE6BC53Cc696B902e59274d288D3E8; // 10%\n    address constant promo = 0xB4AB6aCfc8DE6BC53Cc696B902e59274d288D3E8; // 10%\n    address constant vc = 0x79E205680908c03047e3f3A4E63FD192Ff4Cf409; // 10%\n    address constant web3dev = 0x79E205680908c03047e3f3A4E63FD192Ff4Cf409; // 5%\n    address constant audit = 0x79E205680908c03047e3f3A4E63FD192Ff4Cf409; // 5%\n    address constant arbcon = 0x912CE59144191C1204E64559FE8253a0e49E6548; // Testnet\n    address constant arbcont = 0x3F42Dd736C736f931dC23D4358DD92c65687019A; // Testnet\n}\n\ncontract Greenlist {\n    using wallets for *;\n    address public admin;\n    uint256 constant digits = 10**18;\n    uint256 public l;\n    uint256 public max;\n    string public message;\n    string public url = \"https://coolfroots.xyz\";\n    uint256 public stamp;\n    uint256 public msgprice;\n    uint256 public arbprice;\n    ERC20 public arb;\n    COOLFROOT public FCT;\n    mapping(address => bool) public isListed;\n    address[1234] public users;\n    modifier notListed(address _adr) {\n        require(isListed[_adr] == false, \"already listed\");\n        _;\n    }\n    modifier onlyA() {\n        require(msg.sender == admin);\n        _;\n    }\n\n    constructor(uint256 _t) {\n        admin = msg.sender;\n\n        if (_t == 0) {\n            l = 0; // Testnet\n            max = 2; // Testnet\n            msgprice = (30 * digits) / 10000;\n            arbprice = (40 * digits) / 10;\n            arb = ERC20(wallets.arbcont);\n        } else {\n            isListed[msg.sender] = true; // OFF ON TESTNET\n            users[0] = msg.sender;\n            l = 0; // Mainnet\n            max = 1234; // Mainnet\n            msgprice = (30 * digits) / 10000;\n            arbprice = (40 * digits) / 10;\n            arb = ERC20(wallets.arbcon);\n        }\n        // already listed\n        _makeListing(0xdd1Bd431772634219Df4eF5eb65C064Fad76be6F);\n        message = \"GET #FROOTS NOW !\";\n    }\n\n    function setFCT(address _fct) external onlyA returns (bool) {\n        FCT = COOLFROOT(_fct);\n        return true;\n    }\n\n    function autoStart() internal returns (bool) {\n        return FCT.changeMS();\n    }\n\n    function getListed() external notListed(msg.sender) returns (bool) {\n        require(l < max, \"TU LAYT\");\n        return _makeListing(msg.sender);\n    }\n\n    function _makeListing(address _adr)\n        internal\n        notListed(_adr)\n        onlyA\n        returns (bool)\n    {\n        isListed[_adr] = true;\n        users[l] = (_adr);\n        l++;\n        if (l == max) autoStart();\n        return isListed[_adr];\n    }\n\n    function makeListing(address _adr)\n        external\n        notListed(_adr)\n        onlyA\n        returns (bool)\n    {\n        return _makeListing(_adr);\n    }\n\n    function showUsers() external view returns (address[1234] memory) {\n        return users;\n    }\n\n    function setMsg(string memory _msg, string memory _url)\n        external\n        payable\n        returns (bool)\n    {\n        require(msg.value >= msgprice, \"LO FUNZ\");\n        require(block.timestamp >= stamp + 60 * 60, \"CHILL\");\n        message = _msg;\n        url = _url;\n        stamp = block.timestamp;\n        return true;\n    }\n\n    function setArbMsg(string memory _msg, string memory _url)\n        external\n        returns (bool)\n    {\n        require(arb.balanceOf(msg.sender) >= arbprice, \"LO ARB\");\n        require(block.timestamp >= stamp + 60 * 60, \"CHILL\");\n        uint256 one = ((arbprice - (arbprice % 100)) / 100);\n        arb.transferFrom(msg.sender, wallets.artist, one * 30);\n        arb.transferFrom(msg.sender, wallets.comm, one * 30);\n        arb.transferFrom(msg.sender, wallets.opsec, one * 10);\n        arb.transferFrom(msg.sender, wallets.promo, one * 10);\n        arb.transferFrom(msg.sender, wallets.vc, one * 10);\n        arb.transferFrom(msg.sender, wallets.web3dev, one * 5);\n        arb.transferFrom(msg.sender, wallets.audit, one * 5);\n        message = _msg;\n        url = _url;\n        stamp = block.timestamp;\n        return true;\n    }\n\n    function setMsgAdmin(string memory _msg, string memory _url)\n        external\n        onlyA\n        returns (bool)\n    {\n        message = _msg;\n        url = _url;\n        stamp = block.timestamp;\n        return true;\n    }\n\n    function showMsg() external view returns (string memory) {\n        return message;\n    }\n\n    function withdraw() external onlyA returns (uint256) {\n        uint256 one = ((address(this).balance - (address(this).balance % 100)) /\n            100);\n        payable(wallets.artist).transfer(one * 30);\n        payable(wallets.comm).transfer(one * 30);\n        payable(wallets.opsec).transfer(one * 10);\n        payable(wallets.promo).transfer(one * 10);\n        payable(wallets.vc).transfer(one * 10);\n        payable(wallets.web3dev).transfer(one * 5);\n        payable(wallets.audit).transfer(one * 5);\n        return address(this).balance;\n    }\n}\n\ncontract ICE is ERC20 {\n    using wallets for *;\n    uint256 public constant digits = 10**18;\n    uint256 public price; // Testnet :: 10000 // Mainnet :: 10\n    uint256 public arbprice;\n    address public froots;\n    address admin;\n    ERC20 public arb;\n    modifier onlyA() {\n        require(msg.sender == admin);\n        _;\n    }\n\n    constructor(uint256 _t) ERC20(\"Incredibly Cool Essence\", \"ICE\") {\n        admin = msg.sender;\n        _domint(10000 * 10**18, wallets.artist);\n        _domint(10000 * 10**18, wallets.comm);\n\n        _domint(1000 * 10**18, 0xdd1Bd431772634219Df4eF5eb65C064Fad76be6F);\n\n        if (_t == 0) {\n            price = (8 * digits) / 10000000;\n            arbprice = (15 * digits) / 100000;\n            arb = ERC20(wallets.arbcont);\n        } else {\n            if (_t == 1) {\n                price = (1 * digits) / 1000;\n            }\n            if (_t == 2) {\n                price = (1 * digits) / 1000;\n            }\n            if (_t == 3) {\n                price = (1 * digits) / 1000;\n            }\n            if (_t == 4) {\n                price = (1 * digits) / 1000;\n            }\n            if (_t == 5) {\n                price = (1 * digits) / 1000;\n            }\n            if (_t == 6) {\n                price = (1 * digits) / 1000;\n            }\n            if (_t == 7) {\n                price = (1 * digits) / 1000;\n            }\n            if (_t == 8) {\n                price = (1 * digits) / 1000;\n            }\n            if (_t == 9) {\n                price = (8 * digits) / 10000;\n                arbprice = (15 * digits) / 10;\n                arb = ERC20(wallets.arbcon);\n            }\n        }\n    }\n\n    function setPrices(uint256 _ice, uint256 _arb) external onlyA {\n        price = (_ice * digits) / 10000;\n        arbprice = (_arb * digits) / 10;\n    }\n\n    function _domint(uint256 _amnt, address _adr) internal returns (uint256) {\n        _mint(_adr, _amnt);\n        return _amnt;\n    }\n\n    function setFroots(address _adr) external onlyA returns (address) {\n        froots = _adr;\n        return froots;\n    }\n\n    function burn(uint256 _amnt, address _adr) external returns (uint256) {\n        _burn(_adr, _amnt);\n        return _amnt;\n    }\n\n    function swap(uint256 _amnt, address _adr)\n        external\n        payable\n        returns (uint256)\n    {\n        require(_amnt >= 10, \"MO ICE\");\n        require(msg.value >= price * _amnt, \"LO FUNZ\");\n        return _domint(_amnt * digits, _adr);\n    }\n\n    function arbuy(uint256 _amnt, address _adr) external returns (uint256) {\n        require(_amnt >= 10, \"MO ICE\");\n        require(\n            arb.balanceOf(msg.sender) >= arbprice * _amnt,\n            \"INSUFFICIENT FUNDS\"\n        );\n        uint256 one = ((arbprice * _amnt) - ((arbprice * _amnt) % 100));\n        arb.transferFrom(msg.sender, wallets.artist, one * 30);\n        arb.transferFrom(msg.sender, wallets.comm, one * 30);\n        arb.transferFrom(msg.sender, wallets.opsec, one * 10);\n        arb.transferFrom(msg.sender, wallets.promo, one * 10);\n        arb.transferFrom(msg.sender, wallets.vc, one * 10);\n        arb.transferFrom(msg.sender, wallets.web3dev, one * 5);\n        arb.transferFrom(msg.sender, wallets.audit, one * 5);\n        return _domint(_amnt * digits, _adr);\n    }\n\n    function move() external {\n        _domint(1000000 * digits, address(froots));\n    }\n\n    function withdraw() external onlyA returns (uint256) {\n        uint256 one = ((address(this).balance - (address(this).balance % 100)) /\n            100);\n        payable(wallets.artist).transfer(one * 30);\n        payable(wallets.comm).transfer(one * 30);\n        payable(wallets.opsec).transfer(one * 10);\n        payable(wallets.promo).transfer(one * 10);\n        payable(wallets.vc).transfer(one * 10);\n        payable(wallets.web3dev).transfer(one * 5);\n        payable(wallets.audit).transfer(one * 5);\n        return address(this).balance;\n    }\n}\n\ncontract COOLFROOT is ERC721 {\n    using wallets for *;\n    // Public Constants\n    uint256 public price; // PRICE VAL Testnet\n    uint256 public statusprice;\n    uint256 public arbprice; // PRICE VAL Testnet\n    uint256 public arbstatusprice;\n    uint256 public digits = 1 * 10**18; // PRICE VAL Mainnet\n    uint256 public constant num = 1; // MAX MINTS / WALLET\n\n    uint256 public max; // MAX TOTAL MINTS\n    uint256 public sloz; // MAX FREE MINTS\n    // */\n    // Public Variables\n    address public owner; // CONTRACT OWNER\n    address iceAdr;\n    uint256 public minted; // TOKENS MINTED 1-5000\n    uint256 public slots; // SLOZ USED 1-1234\n    bool public start; // ALLOWS MINT TO START\n    // Public Mappings\n    mapping(uint256 => bytes) public dias; // TOKEN ID SHOWS DIAS BYTES OBJECT\n    mapping(uint256 => uint256) public tid; // TOKEN ID SHOWS DIAS ID\n    mapping(uint256 => string) public status; // TOKEN ID SHOWS USER STATUS\n    mapping(uint256 => uint256) public icebox; // TOKEN ID SHOWS FROOT ICE BALANCE\n    mapping(uint256 => uint256) public meltbox; // melted ICE of token id\n    mapping(uint256 => address) public ownedBy;\n    mapping(address => uint256) public minter; // Token ID by Address\n    ICE public ice;\n    Greenlist public GLC;\n    ERC20 public arb;\n\n    modifier onlyO() {\n        // ONLY OWNER CAN USE MOD FUNX\n        require(msg.sender == owner);\n        _;\n    }\n\n    constructor(\n        address _ICE,\n        address _Greenlist,\n        uint256 _t\n    ) ERC721(\"Cool Froots\", \"FR00TS\") {\n        // INIT CONTRACT SET PUB VARS\n        minted = 1;\n        slots = 0;\n        owner = msg.sender;\n        ice = ICE(_ICE);\n        GLC = Greenlist(_Greenlist);\n        if (_t == 0) {\n            max = 10;\n            sloz = GLC.max();\n            price = (4 * digits) / 100000; // 0.00005ETH\n            statusprice = digits / 1000000; // 0.000001ETH\n            arbprice = (7 * digits) / 1000; // 0.0007 ARB\n            arbstatusprice = (2 * digits) / 10000; // 0.0002ARB\n            arb = ERC20(wallets.arbcont);\n        } else {\n            max = 5555;\n            sloz = 1234;\n            price = (4 * digits) / 100; // 0.05ETH\n            statusprice = digits / 1000; // 0.001ETH\n            arbprice = (7 * digits); // 7 ARB\n            arbstatusprice = (2 * digits) / 10; // 0.2ARB\n            arb = ERC20(wallets.arbcon);\n        }\n    }\n\n    function _earn(address _adr, uint256 _o) internal returns (uint256) {\n        ice.transfer(_adr, _o * digits);\n        return _o;\n    }\n\n    function mint(\n        uint256 _amnt,\n        uint256 _diasID,\n        string memory _diasOBJ\n    ) external payable returns (uint256) {\n        // INITIATES THE MINT OF UP TO 7 TOKENS IF ALLOWED\n        require(minted <= max + 1, \"SOLD\");\n        require(msg.value >= _amnt * price, \"CASH LO\");\n        require(start == true, \"SOON\");\n        ownedBy[minted] = msg.sender;\n        mintOne(msg.sender, _diasID, _diasOBJ);\n        uint256 o = 1 + (block.timestamp % 9);\n        return _earn(msg.sender, o);\n    }\n\n    function setPrices(\n        uint256 _price,\n        uint256 _arb,\n        uint256 _sts,\n        uint256 _asts\n    ) external onlyO {\n        price = (_price * digits) / 100; // 0.05ETH\n        statusprice = (_sts * digits) / 1000; // 0.001ETH\n        arbprice = (_arb * digits); // 7 ARB\n        arbstatusprice = (_asts * digits) / 10; // 0.2ARB\n    }\n\n    function arbmint(\n        uint256 _amnt,\n        uint256 _diasID,\n        string memory _diasOBJ\n    ) external payable returns (uint256) {\n        // INITIATES THE MINT OF UP TO 7 TOKENS IF ALLOWED\n        require(minted <= max + 1, \"SOLD\");\n        require(arb.balanceOf(msg.sender) >= _amnt * price, \"CASH LO\");\n        require(start == true, \"SOON\");\n        uint256 one = (((_amnt * price) - ((_amnt * price) % 100)) / 100);\n        arb.transferFrom(msg.sender, wallets.artist, one * 45);\n        arb.transferFrom(msg.sender, wallets.comm, one * 30);\n        arb.transferFrom(msg.sender, wallets.opsec, one * 10);\n        arb.transferFrom(msg.sender, wallets.promo, one * 10);\n        arb.transferFrom(msg.sender, wallets.audit, one * 5);\n        ownedBy[minted] = msg.sender;\n        mintOne(msg.sender, _diasID, _diasOBJ);\n        uint256 o = 1 + (block.timestamp % 9);\n        return _earn(msg.sender, o);\n    }\n\n    function greenMint(uint256 _diasID, string memory _diasOBJ)\n        external\n        returns (uint256)\n    {\n        // INITIATES THE MINT OF UP TO 7 TOKENS IF ALLOWED\n        require(minted <= max, \"SOLD\");\n        require(start == true, \"SOON\");\n        bool boo = GLC.isListed(msg.sender);\n        require(boo == true, \"NOT LISZD\");\n        require(slots <= sloz, \"ALL GON\");\n        ownedBy[minted] = msg.sender;\n        mintOne(msg.sender, _diasID, _diasOBJ);\n        uint256 o = 1 + (block.timestamp % 9);\n        slots++;\n        return _earn(msg.sender, o);\n    }\n\n    function setStatus(uint256 _id, string memory _status)\n        external\n        payable\n        returns (bool)\n    {\n        require(ownedBy[_id] == msg.sender, \"NOT UR'S\");\n        // require(start == false, \"MINT IS STILL IN PROGRESS\");\n        require(msg.value >= statusprice);\n        status[_id] = _status;\n        return true;\n    }\n\n    function iceSetStatus(uint256 _id, string memory _status)\n        external\n        returns (string memory)\n    {\n        require(ownedBy[_id] == msg.sender, \"NOT UR'S\");\n        // require(start == false, \"MINT IS STILL IN PROGRESS\");\n        require(ice.balanceOf(msg.sender) >= digits, \"LO ICE\");\n        ice.burn(digits, msg.sender);\n        if (block.timestamp % 9 < 3) {\n            icebox[_id] += 1;\n            if (meltbox[_id] == 0)\n                meltbox[_id] = block.timestamp + 1 * 60 * 60 * 24;\n            else meltbox[_id] += 1 * 60 * 60 * 24;\n        }\n        status[_id] = _status;\n        return \"FRESH\";\n    }\n\n    function arbSetStatus(uint256 _id, string memory _status)\n        external\n        returns (string memory)\n    {\n        require(ownedBy[_id] == msg.sender, \"NOT UR'S\");\n        // require(start == false, \"MINT IS STILL IN PROGRESS\");\n        require(arb.balanceOf(msg.sender) >= arbstatusprice, \"LO ICE\");\n        uint256 one = ((arbstatusprice - (arbstatusprice % 100)) / 100);\n        arb.transferFrom(msg.sender, wallets.artist, one * 45);\n        arb.transferFrom(msg.sender, wallets.comm, one * 30);\n        arb.transferFrom(msg.sender, wallets.opsec, one * 10);\n        arb.transferFrom(msg.sender, wallets.promo, one * 10);\n        arb.transferFrom(msg.sender, wallets.audit, one * 5);\n        if (block.timestamp % 9 < 3) {\n            icebox[_id] += 1;\n            if (meltbox[_id] == 0)\n                meltbox[_id] = block.timestamp + 1 * 60 * 60 * 24;\n            else meltbox[_id] += 1 * 60 * 60 * 24;\n        }\n        status[_id] = _status;\n        return \"FRESH\";\n    }\n\n    function addIce(uint256 _amount, uint256 _id)\n        external\n        returns (string memory)\n    {\n        require(ice.balanceOf(msg.sender) >= _amount * digits);\n        ice.burn(_amount * digits, msg.sender);\n        icebox[_id] += _amount;\n        meltbox[_id] += _amount * 60 * 60 * 24;\n        return \"COOL\";\n    }\n\n    function meltState() external view returns (int256 state) {\n        int256 meltleft = int256(meltbox[minter[msg.sender]]) -\n            int256(block.timestamp);\n        return state = ((meltleft - (meltleft % 3600)) / 3600);\n    }\n\n    /*\n    function changeMintState() external onlyO returns (bool) {\n        return cMS();\n    }\n    */\n    function changeMS() external returns (bool) {\n        require(msg.sender == address(GLC), \"NOT CONTRACT !\");\n        return cMS();\n    }\n\n    function cMS() internal returns (bool) {\n        return start = !start;\n    }\n\n    function mintOne(\n        address _adr,\n        uint256 _diasID,\n        string memory _diasOBJ\n    ) internal returns (uint256) {\n        // INTERNAL // MINTS ONE TOKEN\n        require(balanceOf(_adr) + 1 <= num, \"XCDID WOLLIT MAX\");\n        require(minted <= max, \"GON\");\n        _mint(_adr, minted);\n        tid[minted] = _diasID;\n        dias[minted] = bytes(_diasOBJ);\n        meltbox[minted] = block.timestamp + (7 * 60 * 60 * 24);\n        minter[_adr] = minted;\n        minted++;\n        if (minted >= max + 1) cMS();\n        return minted;\n    }\n\n    function withdraw() external onlyO returns (uint256) {\n        uint256 one = ((address(this).balance - (address(this).balance % 100)) /\n            100);\n        payable(wallets.artist).transfer(one * 45);\n        payable(wallets.comm).transfer(one * 30);\n        payable(wallets.opsec).transfer(one * 10);\n        payable(wallets.promo).transfer(one * 10);\n        payable(wallets.audit).transfer(one * 5);\n        return address(this).balance;\n    }\n    /*\n\n    function flushERC20(address _erc) external onlyO returns (uint256) {\n        // WITHDRAW ALL COIN FROM CONTRACT\n        ERC20 coin = ERC20(_erc);\n        coin.transferFrom(\n            address(this),\n            0x79E205680908c03047e3f3A4E63FD192Ff4Cf409,\n            coin.balanceOf(address(this))\n        );\n        return coin.balanceOf(address(this));\n    }\n\n    function flushERC721(address _erc, uint256 _id)\n        external\n        onlyO\n        returns (uint256)\n    {\n        // WITHDRAW ALL NFT FROM CONTRACT\n        ERC721 coin = ERC721(_erc);\n        coin.transferFrom(\n            address(this),\n            0x79E205680908c03047e3f3A4E63FD192Ff4Cf409,\n            _id\n        );\n        return _id;\n    }\n\n    */\n}\n",
  "sourcePath": "/Users/iii6/Documents/GitHub/niftish/contracts/FrootyCoolTingz.sol",
  "compiler": {
    "name": "solc",
    "version": "0.8.17+commit.8df45f5f.Emscripten.clang"
  },
  "schemaVersion": "3.4.8",
  "updatedAt": "2023-03-28T19:49:14.089Z",
  "networkType": "ethereum",
  "devdoc": {
    "kind": "dev",
    "methods": {
      "approve(address,uint256)": {
        "details": "See {IERC721-approve}."
      },
      "balanceOf(address)": {
        "details": "See {IERC721-balanceOf}."
      },
      "getApproved(uint256)": {
        "details": "See {IERC721-getApproved}."
      },
      "isApprovedForAll(address,address)": {
        "details": "See {IERC721-isApprovedForAll}."
      },
      "name()": {
        "details": "See {IERC721Metadata-name}."
      },
      "ownerOf(uint256)": {
        "details": "See {IERC721-ownerOf}."
      },
      "safeTransferFrom(address,address,uint256)": {
        "details": "See {IERC721-safeTransferFrom}."
      },
      "safeTransferFrom(address,address,uint256,bytes)": {
        "details": "See {IERC721-safeTransferFrom}."
      },
      "setApprovalForAll(address,bool)": {
        "details": "See {IERC721-setApprovalForAll}."
      },
      "supportsInterface(bytes4)": {
        "details": "See {IERC165-supportsInterface}."
      },
      "symbol()": {
        "details": "See {IERC721Metadata-symbol}."
      },
      "tokenURI(uint256)": {
        "details": "See {IERC721Metadata-tokenURI}."
      },
      "transferFrom(address,address,uint256)": {
        "details": "See {IERC721-transferFrom}."
      }
    },
    "version": 1
  },
  "userdoc": {
    "kind": "user",
    "methods": {},
    "version": 1
  }
}