{
  "contractName": "Counter",
  "abi": [
    {
      "inputs": [
        {
          "internalType": "uint256",
          "name": "updateInterval",
          "type": "uint256"
        }
      ],
      "stateMutability": "nonpayable",
      "type": "constructor"
    },
    {
      "inputs": [],
      "name": "counter",
      "outputs": [
        {
          "internalType": "uint256",
          "name": "",
          "type": "uint256"
        }
      ],
      "stateMutability": "view",
      "type": "function",
      "constant": true
    },
    {
      "inputs": [],
      "name": "interval",
      "outputs": [
        {
          "internalType": "uint256",
          "name": "",
          "type": "uint256"
        }
      ],
      "stateMutability": "view",
      "type": "function",
      "constant": true
    },
    {
      "inputs": [],
      "name": "lastTimeStamp",
      "outputs": [
        {
          "internalType": "uint256",
          "name": "",
          "type": "uint256"
        }
      ],
      "stateMutability": "view",
      "type": "function",
      "constant": true
    },
    {
      "inputs": [
        {
          "internalType": "bytes",
          "name": "",
          "type": "bytes"
        }
      ],
      "name": "checkUpkeep",
      "outputs": [
        {
          "internalType": "bool",
          "name": "upkeepNeeded",
          "type": "bool"
        },
        {
          "internalType": "bytes",
          "name": "",
          "type": "bytes"
        }
      ],
      "stateMutability": "view",
      "type": "function",
      "constant": true
    },
    {
      "inputs": [
        {
          "internalType": "bytes",
          "name": "",
          "type": "bytes"
        }
      ],
      "name": "performUpkeep",
      "outputs": [],
      "stateMutability": "nonpayable",
      "type": "function"
    }
  ],
  "bytecode": "0x60a060405234801561001057600080fd5b5060405161053d38038061053d83398181016040528101906100329190610089565b80608081815250504260018190555060008081905550506100b6565b600080fd5b6000819050919050565b61006681610053565b811461007157600080fd5b50565b6000815190506100838161005d565b92915050565b60006020828403121561009f5761009e61004e565b5b60006100ad84828501610074565b91505092915050565b60805161045e6100df6000396000818161010b0152818161016b01526101a4015261045e6000f3fe608060405234801561001057600080fd5b50600436106100575760003560e01c80633f3b3b271461005c5780634585e33b1461007a57806361bc221a146100965780636e04ff0d146100b4578063947a36fb146100e5575b600080fd5b610064610103565b60405161007191906101df565b60405180910390f35b610094600480360381019061008f9190610269565b610109565b005b61009e61015f565b6040516100ab91906101df565b60405180910390f35b6100ce60048036038101906100c99190610269565b610165565b6040516100dc929190610361565b60405180910390f35b6100ed6101a2565b6040516100fa91906101df565b60405180910390f35b60015481565b7f00000000000000000000000000000000000000000000000000000000000000006001544261013891906103c0565b111561015b5742600181905550600160005461015491906103f4565b6000819055505b5050565b60005481565b600060607f00000000000000000000000000000000000000000000000000000000000000006001544261019891906103c0565b1191509250929050565b7f000000000000000000000000000000000000000000000000000000000000000081565b6000819050919050565b6101d9816101c6565b82525050565b60006020820190506101f460008301846101d0565b92915050565b600080fd5b600080fd5b600080fd5b600080fd5b600080fd5b60008083601f84011261022957610228610204565b5b8235905067ffffffffffffffff81111561024657610245610209565b5b6020830191508360018202830111156102625761026161020e565b5b9250929050565b600080602083850312156102805761027f6101fa565b5b600083013567ffffffffffffffff81111561029e5761029d6101ff565b5b6102aa85828601610213565b92509250509250929050565b60008115159050919050565b6102cb816102b6565b82525050565b600081519050919050565b600082825260208201905092915050565b60005b8381101561030b5780820151818401526020810190506102f0565b60008484015250505050565b6000601f19601f8301169050919050565b6000610333826102d1565b61033d81856102dc565b935061034d8185602086016102ed565b61035681610317565b840191505092915050565b600060408201905061037660008301856102c2565b81810360208301526103888184610328565b90509392505050565b7f4e487b7100000000000000000000000000000000000000000000000000000000600052601160045260246000fd5b60006103cb826101c6565b91506103d6836101c6565b92508282039050818111156103ee576103ed610391565b5b92915050565b60006103ff826101c6565b915061040a836101c6565b925082820190508082111561042257610421610391565b5b9291505056fea2646970667358221220f1379fc9edad7ca7f7cdefa267bd5a9caf7fe5e5db1d423edc5b4822226b0f0964736f6c63430008110033",
  "immutableReferences": {
    "3796": [
      {
        "length": 32,
        "start": 267
      },
      {
        "length": 32,
        "start": 363
      },
      {
        "length": 32,
        "start": 420
      }
    ]
  },
  "source": "// SPDX-License-Identifier: MIT\npragma solidity >=0.7.0 <0.9.0;\n\nimport \"@chainlink/contracts/src/v0.8/automation/AutomationCompatible.sol\";\nimport {COOLFROOT} from \"./FrootyCoolTingz.sol\";\n\nerror NotOwner(address user);\nerror NoChange(uint256 id);\nerror NotYet(uint256 time);\n\ncontract FrootsUpdate is AutomationCompatible {\n    event Log(uint256 l, uint256 t, address from, address to, bytes context);\n    uint256 l;\n    mapping(uint256 => address) public count;\n    mapping(address => uint256) private statecount;\n    mapping(address => mapping(uint256 => State)) private statelist;\n    COOLFROOT public froots;\n    uint256 u;\n    uint256 public immutable interval;\n    uint256 public lastTimeStamp;\n    struct State {\n        address owner;\n        uint256 tokenId;\n        uint256 diasID;\n        string status;\n        uint256 time;\n        uint256 budget;\n        uint256 interval;\n    }\n\n    constructor(address _froots) {\n        emit Log(\n            l,\n            block.timestamp,\n            msg.sender,\n            address(this),\n            bytes(\"deploy contract\")\n        );\n        l++;\n        froots = COOLFROOT(_froots);\n        interval = 60;\n        lastTimeStamp = block.timestamp;\n    }\n\n    function giveTime() external view returns (uint256) {\n        return _giveTime();\n    }\n\n    function _giveTime() internal view returns (uint256) {\n        return block.timestamp;\n    }\n\n    function checkUpkeep(\n        bytes calldata /* checkData */\n    )\n        external\n        view\n        override\n        returns (\n            bool upkeepNeeded,\n            bytes memory /* performData */\n        )\n    {\n        upkeepNeeded = (block.timestamp - lastTimeStamp) > interval;\n        // We don't use the checkData in this example. The checkData is defined when the Upkeep was registered.\n    }\n\n    function performUpkeep(\n        bytes calldata /* performData */\n    ) external override {\n        //We highly recommend revalidating the upkeep in the performUpkeep function\n        if ((block.timestamp - lastTimeStamp) > interval) {\n            lastTimeStamp = block.timestamp;\n            // action here\n            _doUpkeep();\n            emit Log(\n                l,\n                block.timestamp,\n                msg.sender,\n                address(this),\n                bytes(\"performed update\")\n            );\n            l++;\n        }\n        // We don't use the performData in this example. The performData is generated by the Automation Node's call to your checkUpkeep function\n    }\n\n    function setUpKeep(uint256 _budget, uint256 _interval)\n        external\n        returns (State memory)\n    {\n        uint256 tokenID = froots.minter(msg.sender);\n        if (tokenID <= 0) revert NotOwner(msg.sender);\n        uint256 diasID = froots.tid(tokenID);\n        string memory statusNow = froots.status(tokenID);\n        State memory state = State(\n            msg.sender,\n            tokenID,\n            diasID,\n            statusNow,\n            block.timestamp,\n            _budget,\n            _interval\n        );\n        count[u] = msg.sender;\n        statecount[msg.sender] = 0;\n        statelist[msg.sender][statecount[msg.sender]] = state;\n        statecount[msg.sender]++;\n        u++;\n        return state;\n    }\n\n    function _doUpkeep() internal {\n        for (uint256 i; i <= u; i++) {\n            // each user\n            uint256 c = statecount[count[u]];\n            uint256 tokenID = froots.minter(msg.sender);\n            uint256 diasID = froots.tid(tokenID);\n            string memory statusNow = froots.status(tokenID);\n            uint256 unterval = interval * statelist[count[u]][c - 1].interval;\n            uint256 laststamp = statelist[count[u]][c - 1].time;\n            if (\n                keccak256(abi.encodePacked(statusNow)) ==\n                keccak256(abi.encodePacked(statelist[count[u]][c - 1].status))\n            ) {\n                if (laststamp + unterval >= block.timestamp) {\n                    State memory state = State(\n                        count[u],\n                        tokenID,\n                        diasID,\n                        statusNow,\n                        block.timestamp,\n                        statelist[count[u]][c - 1].budget--,\n                        statelist[count[u]][c - 1].interval\n                    );\n                    statelist[count[u]][c] = state;\n                    statecount[count[u]]++;\n                } else revert NotYet(laststamp + unterval);\n            } else revert NoChange(diasID);\n        }\n    }\n\n    function getStateCount(address _adr, uint256 _state)\n        external\n        view\n        returns (State memory)\n    {\n        return statelist[_adr][_state];\n    }\n}\n\n\ncontract Counter is AutomationCompatibleInterface {\n    /**\n     * Public counter variable\n     */\n    uint public counter;\n\n    /**\n     * Use an interval in seconds and a timestamp to slow execution of Upkeep\n     */\n    uint public immutable interval;\n    uint public lastTimeStamp;\n\n    constructor(uint updateInterval) {\n        interval = updateInterval;\n        lastTimeStamp = block.timestamp;\n\n        counter = 0;\n    }\n\n    function checkUpkeep(\n        bytes calldata /* checkData */\n    )\n        external\n        view\n        override\n        returns (bool upkeepNeeded, bytes memory /* performData */)\n    {\n        upkeepNeeded = (block.timestamp - lastTimeStamp) > interval;\n        // We don't use the checkData in this example. The checkData is defined when the Upkeep was registered.\n    }\n\n    function performUpkeep(bytes calldata /* performData */) external override {\n        //We highly recommend revalidating the upkeep in the performUpkeep function\n        if ((block.timestamp - lastTimeStamp) > interval) {\n            lastTimeStamp = block.timestamp;\n            counter = counter + 1;\n        }\n        // We don't use the performData in this example. The performData is generated by the Automation Node's call to your checkUpkeep function\n    }\n}\n\n",
  "sourcePath": "/Users/iii6/Documents/GitHub/niftish/contracts/FrootsUpdates.sol",
  "compiler": {
    "name": "solc",
    "version": "0.8.17+commit.8df45f5f.Emscripten.clang"
  },
  "schemaVersion": "3.4.8",
  "updatedAt": "2023-03-28T19:49:14.058Z",
  "networkType": "ethereum",
  "devdoc": {
    "kind": "dev",
    "methods": {},
    "version": 1
  },
  "userdoc": {
    "kind": "user",
    "methods": {
      "counter()": {
        "notice": "Public counter variable"
      },
      "interval()": {
        "notice": "Use an interval in seconds and a timestamp to slow execution of Upkeep"
      }
    },
    "version": 1
  }
}