{
  "contractName": "FrootyCoolTingz",
  "abi": [
    {
      "inputs": [
        {
          "internalType": "address",
          "name": "_ICE",
          "type": "address"
        },
        {
          "internalType": "address",
          "name": "_Greenlist",
          "type": "address"
        },
        {
          "internalType": "uint256",
          "name": "_t",
          "type": "uint256"
        }
      ],
      "stateMutability": "nonpayable",
      "type": "constructor"
    },
    {
      "anonymous": false,
      "inputs": [
        {
          "indexed": true,
          "internalType": "address",
          "name": "owner",
          "type": "address"
        },
        {
          "indexed": true,
          "internalType": "address",
          "name": "approved",
          "type": "address"
        },
        {
          "indexed": true,
          "internalType": "uint256",
          "name": "tokenId",
          "type": "uint256"
        }
      ],
      "name": "Approval",
      "type": "event"
    },
    {
      "anonymous": false,
      "inputs": [
        {
          "indexed": true,
          "internalType": "address",
          "name": "owner",
          "type": "address"
        },
        {
          "indexed": true,
          "internalType": "address",
          "name": "operator",
          "type": "address"
        },
        {
          "indexed": false,
          "internalType": "bool",
          "name": "approved",
          "type": "bool"
        }
      ],
      "name": "ApprovalForAll",
      "type": "event"
    },
    {
      "anonymous": false,
      "inputs": [
        {
          "indexed": true,
          "internalType": "address",
          "name": "from",
          "type": "address"
        },
        {
          "indexed": true,
          "internalType": "address",
          "name": "to",
          "type": "address"
        },
        {
          "indexed": true,
          "internalType": "uint256",
          "name": "tokenId",
          "type": "uint256"
        }
      ],
      "name": "Transfer",
      "type": "event"
    },
    {
      "inputs": [],
      "name": "GLC",
      "outputs": [
        {
          "internalType": "contract Greenlist",
          "name": "",
          "type": "address"
        }
      ],
      "stateMutability": "view",
      "type": "function",
      "constant": true
    },
    {
      "inputs": [
        {
          "internalType": "address",
          "name": "to",
          "type": "address"
        },
        {
          "internalType": "uint256",
          "name": "tokenId",
          "type": "uint256"
        }
      ],
      "name": "approve",
      "outputs": [],
      "stateMutability": "nonpayable",
      "type": "function"
    },
    {
      "inputs": [
        {
          "internalType": "address",
          "name": "owner",
          "type": "address"
        }
      ],
      "name": "balanceOf",
      "outputs": [
        {
          "internalType": "uint256",
          "name": "",
          "type": "uint256"
        }
      ],
      "stateMutability": "view",
      "type": "function",
      "constant": true
    },
    {
      "inputs": [
        {
          "internalType": "uint256",
          "name": "",
          "type": "uint256"
        }
      ],
      "name": "dias",
      "outputs": [
        {
          "internalType": "bytes",
          "name": "",
          "type": "bytes"
        }
      ],
      "stateMutability": "view",
      "type": "function",
      "constant": true
    },
    {
      "inputs": [
        {
          "internalType": "uint256",
          "name": "tokenId",
          "type": "uint256"
        }
      ],
      "name": "getApproved",
      "outputs": [
        {
          "internalType": "address",
          "name": "",
          "type": "address"
        }
      ],
      "stateMutability": "view",
      "type": "function",
      "constant": true
    },
    {
      "inputs": [],
      "name": "ice",
      "outputs": [
        {
          "internalType": "contract ICE",
          "name": "",
          "type": "address"
        }
      ],
      "stateMutability": "view",
      "type": "function",
      "constant": true
    },
    {
      "inputs": [
        {
          "internalType": "uint256",
          "name": "",
          "type": "uint256"
        }
      ],
      "name": "icebox",
      "outputs": [
        {
          "internalType": "uint256",
          "name": "",
          "type": "uint256"
        }
      ],
      "stateMutability": "view",
      "type": "function",
      "constant": true
    },
    {
      "inputs": [
        {
          "internalType": "address",
          "name": "owner",
          "type": "address"
        },
        {
          "internalType": "address",
          "name": "operator",
          "type": "address"
        }
      ],
      "name": "isApprovedForAll",
      "outputs": [
        {
          "internalType": "bool",
          "name": "",
          "type": "bool"
        }
      ],
      "stateMutability": "view",
      "type": "function",
      "constant": true
    },
    {
      "inputs": [],
      "name": "max",
      "outputs": [
        {
          "internalType": "uint256",
          "name": "",
          "type": "uint256"
        }
      ],
      "stateMutability": "view",
      "type": "function",
      "constant": true
    },
    {
      "inputs": [
        {
          "internalType": "uint256",
          "name": "",
          "type": "uint256"
        }
      ],
      "name": "meltbox",
      "outputs": [
        {
          "internalType": "uint256",
          "name": "",
          "type": "uint256"
        }
      ],
      "stateMutability": "view",
      "type": "function",
      "constant": true
    },
    {
      "inputs": [],
      "name": "minted",
      "outputs": [
        {
          "internalType": "uint256",
          "name": "",
          "type": "uint256"
        }
      ],
      "stateMutability": "view",
      "type": "function",
      "constant": true
    },
    {
      "inputs": [
        {
          "internalType": "address",
          "name": "",
          "type": "address"
        }
      ],
      "name": "minter",
      "outputs": [
        {
          "internalType": "uint256",
          "name": "",
          "type": "uint256"
        }
      ],
      "stateMutability": "view",
      "type": "function",
      "constant": true
    },
    {
      "inputs": [],
      "name": "nam",
      "outputs": [
        {
          "internalType": "string",
          "name": "",
          "type": "string"
        }
      ],
      "stateMutability": "view",
      "type": "function",
      "constant": true
    },
    {
      "inputs": [],
      "name": "name",
      "outputs": [
        {
          "internalType": "string",
          "name": "",
          "type": "string"
        }
      ],
      "stateMutability": "view",
      "type": "function",
      "constant": true
    },
    {
      "inputs": [],
      "name": "num",
      "outputs": [
        {
          "internalType": "uint256",
          "name": "",
          "type": "uint256"
        }
      ],
      "stateMutability": "view",
      "type": "function",
      "constant": true
    },
    {
      "inputs": [
        {
          "internalType": "uint256",
          "name": "",
          "type": "uint256"
        }
      ],
      "name": "ownedBy",
      "outputs": [
        {
          "internalType": "address",
          "name": "",
          "type": "address"
        }
      ],
      "stateMutability": "view",
      "type": "function",
      "constant": true
    },
    {
      "inputs": [],
      "name": "owner",
      "outputs": [
        {
          "internalType": "address",
          "name": "",
          "type": "address"
        }
      ],
      "stateMutability": "view",
      "type": "function",
      "constant": true
    },
    {
      "inputs": [
        {
          "internalType": "uint256",
          "name": "tokenId",
          "type": "uint256"
        }
      ],
      "name": "ownerOf",
      "outputs": [
        {
          "internalType": "address",
          "name": "",
          "type": "address"
        }
      ],
      "stateMutability": "view",
      "type": "function",
      "constant": true
    },
    {
      "inputs": [],
      "name": "price",
      "outputs": [
        {
          "internalType": "uint256",
          "name": "",
          "type": "uint256"
        }
      ],
      "stateMutability": "view",
      "type": "function",
      "constant": true
    },
    {
      "inputs": [
        {
          "internalType": "address",
          "name": "from",
          "type": "address"
        },
        {
          "internalType": "address",
          "name": "to",
          "type": "address"
        },
        {
          "internalType": "uint256",
          "name": "tokenId",
          "type": "uint256"
        }
      ],
      "name": "safeTransferFrom",
      "outputs": [],
      "stateMutability": "nonpayable",
      "type": "function"
    },
    {
      "inputs": [
        {
          "internalType": "address",
          "name": "from",
          "type": "address"
        },
        {
          "internalType": "address",
          "name": "to",
          "type": "address"
        },
        {
          "internalType": "uint256",
          "name": "tokenId",
          "type": "uint256"
        },
        {
          "internalType": "bytes",
          "name": "_data",
          "type": "bytes"
        }
      ],
      "name": "safeTransferFrom",
      "outputs": [],
      "stateMutability": "nonpayable",
      "type": "function"
    },
    {
      "inputs": [
        {
          "internalType": "address",
          "name": "operator",
          "type": "address"
        },
        {
          "internalType": "bool",
          "name": "approved",
          "type": "bool"
        }
      ],
      "name": "setApprovalForAll",
      "outputs": [],
      "stateMutability": "nonpayable",
      "type": "function"
    },
    {
      "inputs": [],
      "name": "slots",
      "outputs": [
        {
          "internalType": "uint256",
          "name": "",
          "type": "uint256"
        }
      ],
      "stateMutability": "view",
      "type": "function",
      "constant": true
    },
    {
      "inputs": [],
      "name": "sloz",
      "outputs": [
        {
          "internalType": "uint256",
          "name": "",
          "type": "uint256"
        }
      ],
      "stateMutability": "view",
      "type": "function",
      "constant": true
    },
    {
      "inputs": [],
      "name": "start",
      "outputs": [
        {
          "internalType": "bool",
          "name": "",
          "type": "bool"
        }
      ],
      "stateMutability": "view",
      "type": "function",
      "constant": true
    },
    {
      "inputs": [
        {
          "internalType": "uint256",
          "name": "",
          "type": "uint256"
        }
      ],
      "name": "status",
      "outputs": [
        {
          "internalType": "string",
          "name": "",
          "type": "string"
        }
      ],
      "stateMutability": "view",
      "type": "function",
      "constant": true
    },
    {
      "inputs": [
        {
          "internalType": "bytes4",
          "name": "interfaceId",
          "type": "bytes4"
        }
      ],
      "name": "supportsInterface",
      "outputs": [
        {
          "internalType": "bool",
          "name": "",
          "type": "bool"
        }
      ],
      "stateMutability": "view",
      "type": "function",
      "constant": true
    },
    {
      "inputs": [],
      "name": "sym",
      "outputs": [
        {
          "internalType": "string",
          "name": "",
          "type": "string"
        }
      ],
      "stateMutability": "view",
      "type": "function",
      "constant": true
    },
    {
      "inputs": [],
      "name": "symbol",
      "outputs": [
        {
          "internalType": "string",
          "name": "",
          "type": "string"
        }
      ],
      "stateMutability": "view",
      "type": "function",
      "constant": true
    },
    {
      "inputs": [
        {
          "internalType": "uint256",
          "name": "",
          "type": "uint256"
        }
      ],
      "name": "tid",
      "outputs": [
        {
          "internalType": "uint256",
          "name": "",
          "type": "uint256"
        }
      ],
      "stateMutability": "view",
      "type": "function",
      "constant": true
    },
    {
      "inputs": [
        {
          "internalType": "uint256",
          "name": "tokenId",
          "type": "uint256"
        }
      ],
      "name": "tokenURI",
      "outputs": [
        {
          "internalType": "string",
          "name": "",
          "type": "string"
        }
      ],
      "stateMutability": "view",
      "type": "function",
      "constant": true
    },
    {
      "inputs": [
        {
          "internalType": "address",
          "name": "from",
          "type": "address"
        },
        {
          "internalType": "address",
          "name": "to",
          "type": "address"
        },
        {
          "internalType": "uint256",
          "name": "tokenId",
          "type": "uint256"
        }
      ],
      "name": "transferFrom",
      "outputs": [],
      "stateMutability": "nonpayable",
      "type": "function"
    },
    {
      "inputs": [
        {
          "internalType": "address",
          "name": "_adr",
          "type": "address"
        }
      ],
      "name": "isOwner",
      "outputs": [
        {
          "internalType": "bool",
          "name": "",
          "type": "bool"
        }
      ],
      "stateMutability": "view",
      "type": "function",
      "constant": true
    },
    {
      "inputs": [
        {
          "internalType": "uint256",
          "name": "_amnt",
          "type": "uint256"
        },
        {
          "internalType": "uint256[]",
          "name": "_diasIDs",
          "type": "uint256[]"
        },
        {
          "internalType": "string[]",
          "name": "_diasOBJs",
          "type": "string[]"
        }
      ],
      "name": "mint",
      "outputs": [
        {
          "internalType": "uint256",
          "name": "",
          "type": "uint256"
        }
      ],
      "stateMutability": "payable",
      "type": "function",
      "payable": true
    },
    {
      "inputs": [
        {
          "internalType": "uint256[]",
          "name": "_diasIDs",
          "type": "uint256[]"
        },
        {
          "internalType": "string[]",
          "name": "_diasOBJs",
          "type": "string[]"
        }
      ],
      "name": "greenMint",
      "outputs": [
        {
          "internalType": "uint256",
          "name": "",
          "type": "uint256"
        }
      ],
      "stateMutability": "nonpayable",
      "type": "function"
    },
    {
      "inputs": [
        {
          "internalType": "uint256",
          "name": "_id",
          "type": "uint256"
        },
        {
          "internalType": "string",
          "name": "_status",
          "type": "string"
        }
      ],
      "name": "setStatus",
      "outputs": [
        {
          "internalType": "bool",
          "name": "",
          "type": "bool"
        }
      ],
      "stateMutability": "payable",
      "type": "function",
      "payable": true
    },
    {
      "inputs": [
        {
          "internalType": "uint256",
          "name": "_amount",
          "type": "uint256"
        },
        {
          "internalType": "uint256",
          "name": "_id",
          "type": "uint256"
        }
      ],
      "name": "addIce",
      "outputs": [
        {
          "internalType": "string",
          "name": "",
          "type": "string"
        }
      ],
      "stateMutability": "nonpayable",
      "type": "function"
    },
    {
      "inputs": [],
      "name": "meltState",
      "outputs": [
        {
          "internalType": "int256",
          "name": "state",
          "type": "int256"
        }
      ],
      "stateMutability": "view",
      "type": "function",
      "constant": true
    },
    {
      "inputs": [],
      "name": "changeMintState",
      "outputs": [
        {
          "internalType": "bool",
          "name": "",
          "type": "bool"
        }
      ],
      "stateMutability": "nonpayable",
      "type": "function"
    },
    {
      "inputs": [],
      "name": "changeMS",
      "outputs": [
        {
          "internalType": "bool",
          "name": "",
          "type": "bool"
        }
      ],
      "stateMutability": "nonpayable",
      "type": "function"
    },
    {
      "inputs": [
        {
          "internalType": "uint256",
          "name": "_id",
          "type": "uint256"
        }
      ],
      "name": "holder",
      "outputs": [
        {
          "internalType": "address",
          "name": "",
          "type": "address"
        }
      ],
      "stateMutability": "view",
      "type": "function",
      "constant": true
    },
    {
      "inputs": [],
      "name": "clearSloz",
      "outputs": [
        {
          "internalType": "bool",
          "name": "",
          "type": "bool"
        }
      ],
      "stateMutability": "nonpayable",
      "type": "function"
    },
    {
      "inputs": [],
      "name": "flush",
      "outputs": [
        {
          "internalType": "uint256",
          "name": "",
          "type": "uint256"
        }
      ],
      "stateMutability": "nonpayable",
      "type": "function"
    },
    {
      "inputs": [
        {
          "internalType": "address",
          "name": "_erc",
          "type": "address"
        }
      ],
      "name": "flushERC20",
      "outputs": [
        {
          "internalType": "uint256",
          "name": "",
          "type": "uint256"
        }
      ],
      "stateMutability": "nonpayable",
      "type": "function"
    },
    {
      "inputs": [
        {
          "internalType": "address",
          "name": "_erc",
          "type": "address"
        },
        {
          "internalType": "uint256",
          "name": "_id",
          "type": "uint256"
        }
      ],
      "name": "flushERC721",
      "outputs": [
        {
          "internalType": "uint256",
          "name": "",
          "type": "uint256"
        }
      ],
      "stateMutability": "nonpayable",
      "type": "function"
    }
  ],
  "bytecode": "0x60806040523480156200001157600080fd5b506040516200584e3803806200584e83398181016040528101906200003791906200032b565b6040518060400160405280600b81526020017f436f6f6c2046726f6f74730000000000000000000000000000000000000000008152506040518060400160405280600581526020017f46524f4f540000000000000000000000000000000000000000000000000000008152508160009081620000b49190620005f7565b508060019081620000c69190620005f7565b5050506001600b819055506000600e8190555033600960006101000a81548173ffffffffffffffffffffffffffffffffffffffff021916908373ffffffffffffffffffffffffffffffffffffffff1602179055506040518060400160405280600b81526020017f436f6f6c2046726f6f7473000000000000000000000000000000000000000000815250600c9081620001609190620005f7565b506040518060400160405280600581526020017f46524f4f54000000000000000000000000000000000000000000000000000000815250600d9081620001a79190620005f7565b5082601760006101000a81548173ffffffffffffffffffffffffffffffffffffffff021916908373ffffffffffffffffffffffffffffffffffffffff16021790555081601860006101000a81548173ffffffffffffffffffffffffffffffffffffffff021916908373ffffffffffffffffffffffffffffffffffffffff1602179055506000810362000252576005600781905550600160088190555066b1a2bc2ec500006006819055505b600181036200027d576115b36007819055506104d2600881905550674563918244f400006006819055505b505050620006de565b600080fd5b600073ffffffffffffffffffffffffffffffffffffffff82169050919050565b6000620002b8826200028b565b9050919050565b620002ca81620002ab565b8114620002d657600080fd5b50565b600081519050620002ea81620002bf565b92915050565b6000819050919050565b6200030581620002f0565b81146200031157600080fd5b50565b6000815190506200032581620002fa565b92915050565b60008060006060848603121562000347576200034662000286565b5b60006200035786828701620002d9565b93505060206200036a86828701620002d9565b92505060406200037d8682870162000314565b9150509250925092565b600081519050919050565b7f4e487b7100000000000000000000000000000000000000000000000000000000600052604160045260246000fd5b7f4e487b7100000000000000000000000000000000000000000000000000000000600052602260045260246000fd5b600060028204905060018216806200040957607f821691505b6020821081036200041f576200041e620003c1565b5b50919050565b60008190508160005260206000209050919050565b60006020601f8301049050919050565b600082821b905092915050565b600060088302620004897fffffffffffffffffffffffffffffffffffffffffffffffffffffffffffffffff826200044a565b6200049586836200044a565b95508019841693508086168417925050509392505050565b6000819050919050565b6000620004d8620004d2620004cc84620002f0565b620004ad565b620002f0565b9050919050565b6000819050919050565b620004f483620004b7565b6200050c6200050382620004df565b84845462000457565b825550505050565b600090565b6200052362000514565b62000530818484620004e9565b505050565b5b8181101562000558576200054c60008262000519565b60018101905062000536565b5050565b601f821115620005a757620005718162000425565b6200057c846200043a565b810160208510156200058c578190505b620005a46200059b856200043a565b83018262000535565b50505b505050565b600082821c905092915050565b6000620005cc60001984600802620005ac565b1980831691505092915050565b6000620005e78383620005b9565b9150826002028217905092915050565b620006028262000387565b67ffffffffffffffff8111156200061e576200061d62000392565b5b6200062a8254620003f0565b620006378282856200055c565b600060209050601f8311600181146200066f57600084156200065a578287015190505b620006668582620005d9565b865550620006d6565b601f1984166200067f8662000425565b60005b82811015620006a95784890151825560018201915060208501945060208101905062000682565b86831015620006c95784890151620006c5601f891682620005b9565b8355505b6001600288020188555050505b505050505050565b61516080620006ee6000396000f3fe6080604052600436106102725760003560e01c806376917df91161014f578063a9700e1f116100c1578063ba899a2e1161007a578063ba899a2e14610a12578063be9a655514610a4f578063c87b56dd14610a7a578063d64b3ae814610ab7578063e985e9c514610af4578063ea25b61d14610b3157610272565b8063a9700e1f146108dc578063aa1ee94014610907578063ac0d408414610944578063ae943abc14610981578063b524fd6f146109be578063b88d4fde146109e957610272565b806395d89b411161011357806395d89b41146107b85780639af9bec0146107e35780639b4f589f1461080e578063a035b1fe1461084b578063a22cb46514610876578063a613e0e71461089f57610272565b806376917df9146106ca5780637d23b33c146106fa578063801427541461073757806383813a28146107625780638da5cb5b1461078d57610272565b806342d21ef7116101e85780634f02c420116101ac5780634f02c420146105a45780636352211e146105cf5780636ac5db191461060c5780636b9f96ea146106375780636f743acd1461066257806370a082311461068d57610272565b806342d21ef7146104a9578063477523c2146104e657806348547d69146105235780634c2a860d1461054e5780634e70b1dc1461057957610272565b8063216d534c1161023a578063216d534c1461037557806323b872dd146103b25780632f54bf6e146103db5780633b8d676f146104185780633dd08c381461044357806342842e0e1461048057610272565b806301ffc9a71461027757806306fdde03146102b4578063081812fc146102df578063095ea7b31461031c57806320a7270d14610345575b600080fd5b34801561028357600080fd5b5061029e60048036038101906102999190613214565b610b5c565b6040516102ab919061325c565b60405180910390f35b3480156102c057600080fd5b506102c9610c3e565b6040516102d69190613307565b60405180910390f35b3480156102eb57600080fd5b506103066004803603810190610301919061335f565b610cd0565b60405161031391906133cd565b60405180910390f35b34801561032857600080fd5b50610343600480360381019061033e9190613414565b610d55565b005b61035f600480360381019061035a9190613732565b610e6c565b60405161036c91906137cc565b60405180910390f35b34801561038157600080fd5b5061039c60048036038101906103979190613414565b611094565b6040516103a991906137cc565b60405180910390f35b3480156103be57600080fd5b506103d960048036038101906103d491906137e7565b611135565b005b3480156103e757600080fd5b5061040260048036038101906103fd919061383a565b611195565b60405161040f919061325c565b60405180910390f35b34801561042457600080fd5b5061042d6111ff565b60405161043a919061325c565b60405180910390f35b34801561044f57600080fd5b5061046a6004803603810190610465919061383a565b61120e565b60405161047791906137cc565b60405180910390f35b34801561048c57600080fd5b506104a760048036038101906104a291906137e7565b611226565b005b3480156104b557600080fd5b506104d060048036038101906104cb919061335f565b611246565b6040516104dd9190613307565b60405180910390f35b3480156104f257600080fd5b5061050d6004803603810190610508919061383a565b6112e6565b60405161051a91906137cc565b60405180910390f35b34801561052f57600080fd5b5061053861148a565b60405161054591906137cc565b60405180910390f35b34801561055a57600080fd5b50610563611490565b60405161057091906138c6565b60405180910390f35b34801561058557600080fd5b5061058e6114b6565b60405161059b91906137cc565b60405180910390f35b3480156105b057600080fd5b506105b96114bb565b6040516105c691906137cc565b60405180910390f35b3480156105db57600080fd5b506105f660048036038101906105f1919061335f565b6114c1565b60405161060391906133cd565b60405180910390f35b34801561061857600080fd5b50610621611572565b60405161062e91906137cc565b60405180910390f35b34801561064357600080fd5b5061064c611578565b60405161065991906137cc565b60405180910390f35b34801561066e57600080fd5b506106776115e9565b60405161068491906137cc565b60405180910390f35b34801561069957600080fd5b506106b460048036038101906106af919061383a565b6115ef565b6040516106c191906137cc565b60405180910390f35b6106e460048036038101906106df91906138e1565b6116a6565b6040516106f1919061325c565b60405180910390f35b34801561070657600080fd5b50610721600480360381019061071c919061393d565b61189e565b60405161072e91906137cc565b60405180910390f35b34801561074357600080fd5b5061074c611ba3565b60405161075991906139ce565b60405180910390f35b34801561076e57600080fd5b50610777611c26565b6040516107849190613307565b60405180910390f35b34801561079957600080fd5b506107a2611cb4565b6040516107af91906133cd565b60405180910390f35b3480156107c457600080fd5b506107cd611cda565b6040516107da9190613307565b60405180910390f35b3480156107ef57600080fd5b506107f8611d6c565b6040516108059190613307565b60405180910390f35b34801561081a57600080fd5b506108356004803603810190610830919061335f565b611dfa565b6040516108429190613a3e565b60405180910390f35b34801561085757600080fd5b50610860611e9a565b60405161086d91906137cc565b60405180910390f35b34801561088257600080fd5b5061089d60048036038101906108989190613a8c565b611ea0565b005b3480156108ab57600080fd5b506108c660048036038101906108c1919061335f565b611eb6565b6040516108d391906133cd565b60405180910390f35b3480156108e857600080fd5b506108f1611ee9565b6040516108fe9190613aed565b60405180910390f35b34801561091357600080fd5b5061092e6004803603810190610929919061335f565b611f0f565b60405161093b91906137cc565b60405180910390f35b34801561095057600080fd5b5061096b60048036038101906109669190613b08565b611f27565b6040516109789190613307565b60405180910390f35b34801561098d57600080fd5b506109a860048036038101906109a3919061335f565b6121b4565b6040516109b591906137cc565b60405180910390f35b3480156109ca57600080fd5b506109d36121cc565b6040516109e0919061325c565b60405180910390f35b3480156109f557600080fd5b50610a106004803603810190610a0b9190613be9565b612235565b005b348015610a1e57600080fd5b50610a396004803603810190610a34919061335f565b612297565b604051610a4691906133cd565b60405180910390f35b348015610a5b57600080fd5b50610a646122a9565b604051610a71919061325c565b60405180910390f35b348015610a8657600080fd5b50610aa16004803603810190610a9c919061335f565b6122bc565b604051610aae9190613307565b60405180910390f35b348015610ac357600080fd5b50610ade6004803603810190610ad9919061335f565b612363565b604051610aeb91906137cc565b60405180910390f35b348015610b0057600080fd5b50610b1b6004803603810190610b169190613c6c565b61237b565b604051610b28919061325c565b60405180910390f35b348015610b3d57600080fd5b50610b4661240f565b604051610b53919061325c565b60405180910390f35b60007f80ac58cd000000000000000000000000000000000000000000000000000000007bffffffffffffffffffffffffffffffffffffffffffffffffffffffff1916827bffffffffffffffffffffffffffffffffffffffffffffffffffffffff19161480610c2757507f5b5e139f000000000000000000000000000000000000000000000000000000007bffffffffffffffffffffffffffffffffffffffffffffffffffffffff1916827bffffffffffffffffffffffffffffffffffffffffffffffffffffffff1916145b80610c375750610c3682612421565b5b9050919050565b606060008054610c4d90613cdb565b80601f0160208091040260200160405190810160405280929190818152602001828054610c7990613cdb565b8015610cc65780601f10610c9b57610100808354040283529160200191610cc6565b820191906000526020600020905b815481529060010190602001808311610ca957829003601f168201915b5050505050905090565b6000610cdb8261248b565b610d1a576040517f08c379a0000000000000000000000000000000000000000000000000000000008152600401610d1190613d7e565b60405180910390fd5b6004600083815260200190815260200160002060009054906101000a900473ffffffffffffffffffffffffffffffffffffffff169050919050565b6000610d60826114c1565b90508073ffffffffffffffffffffffffffffffffffffffff168373ffffffffffffffffffffffffffffffffffffffff1603610dd0576040517f08c379a0000000000000000000000000000000000000000000000000000000008152600401610dc790613e10565b60405180910390fd5b8073ffffffffffffffffffffffffffffffffffffffff16610def6124f7565b73ffffffffffffffffffffffffffffffffffffffff161480610e1e5750610e1d81610e186124f7565b61237b565b5b610e5d576040517f08c379a0000000000000000000000000000000000000000000000000000000008152600401610e5490613ea2565b60405180910390fd5b610e6783836124ff565b505050565b6000600e54600854610e7e9190613ef1565b600754610e8b9190613ef1565b600b5410610ece576040517f08c379a0000000000000000000000000000000000000000000000000000000008152600401610ec590613f71565b60405180910390fd5b60065484610edc9190613f91565b341015610f1e576040517f08c379a0000000000000000000000000000000000000000000000000000000008152600401610f159061401f565b60405180910390fd5b60011515600f60009054906101000a900460ff16151514610f74576040517f08c379a0000000000000000000000000000000000000000000000000000000008152600401610f6b9061408b565b60405180910390fd5b3360156000600b54815260200190815260200160002060006101000a81548173ffffffffffffffffffffffffffffffffffffffff021916908373ffffffffffffffffffffffffffffffffffffffff160217905550610fd4843385856125b8565b506000600942610fe491906140da565b9050601760009054906101000a900473ffffffffffffffffffffffffffffffffffffffff1673ffffffffffffffffffffffffffffffffffffffff1663b02bf4b933836040518363ffffffff1660e01b815260040161104392919061410b565b6020604051808303816000875af1158015611062573d6000803e3d6000fd5b505050506040513d601f19601f820116820180604052508101906110869190614149565b50600b549150509392505050565b6000808390508073ffffffffffffffffffffffffffffffffffffffff166323b872dd30600960009054906101000a900473ffffffffffffffffffffffffffffffffffffffff16866040518463ffffffff1660e01b81526004016110f993929190614176565b600060405180830381600087803b15801561111357600080fd5b505af1158015611127573d6000803e3d6000fd5b505050508291505092915050565b6111466111406124f7565b826126be565b611185576040517f08c379a000000000000000000000000000000000000000000000000000000000815260040161117c9061421f565b60405180910390fd5b61119083838361279c565b505050565b6000600960009054906101000a900473ffffffffffffffffffffffffffffffffffffffff1673ffffffffffffffffffffffffffffffffffffffff168273ffffffffffffffffffffffffffffffffffffffff16036111f557600190506111fa565b600090505b919050565b60006112096129f7565b905090565b60166020528060005260406000206000915090505481565b61124183838360405180602001604052806000815250612235565b505050565b6012602052806000526040600020600091509050805461126590613cdb565b80601f016020809104026020016040519081016040528092919081815260200182805461129190613cdb565b80156112de5780601f106112b3576101008083540402835291602001916112de565b820191906000526020600020905b8154815290600101906020018083116112c157829003601f168201915b505050505081565b6000808290508073ffffffffffffffffffffffffffffffffffffffff166323b872dd30600960009054906101000a900473ffffffffffffffffffffffffffffffffffffffff168473ffffffffffffffffffffffffffffffffffffffff166370a08231306040518263ffffffff1660e01b815260040161136591906133cd565b602060405180830381865afa158015611382573d6000803e3d6000fd5b505050506040513d601f19601f820116820180604052508101906113a69190614254565b6040518463ffffffff1660e01b81526004016113c493929190614176565b6020604051808303816000875af11580156113e3573d6000803e3d6000fd5b505050506040513d601f19601f820116820180604052508101906114079190614149565b508073ffffffffffffffffffffffffffffffffffffffff166370a08231306040518263ffffffff1660e01b815260040161144191906133cd565b602060405180830381865afa15801561145e573d6000803e3d6000fd5b505050506040513d601f19601f820116820180604052508101906114829190614254565b915050919050565b600e5481565b601760009054906101000a900473ffffffffffffffffffffffffffffffffffffffff1681565b600181565b600b5481565b6000806002600084815260200190815260200160002060009054906101000a900473ffffffffffffffffffffffffffffffffffffffff169050600073ffffffffffffffffffffffffffffffffffffffff168173ffffffffffffffffffffffffffffffffffffffff1603611569576040517f08c379a0000000000000000000000000000000000000000000000000000000008152600401611560906142f3565b60405180910390fd5b80915050919050565b60075481565b6000600960009054906101000a900473ffffffffffffffffffffffffffffffffffffffff1673ffffffffffffffffffffffffffffffffffffffff166108fc479081150290604051600060405180830381858888f193505050501580156115e2573d6000803e3d6000fd5b5047905090565b60085481565b60008073ffffffffffffffffffffffffffffffffffffffff168273ffffffffffffffffffffffffffffffffffffffff160361165f576040517f08c379a000000000000000000000000000000000000000000000000000000000815260040161165690614385565b60405180910390fd5b600360008373ffffffffffffffffffffffffffffffffffffffff1673ffffffffffffffffffffffffffffffffffffffff168152602001908152602001600020549050919050565b60003373ffffffffffffffffffffffffffffffffffffffff166015600085815260200190815260200160002060009054906101000a900473ffffffffffffffffffffffffffffffffffffffff1673ffffffffffffffffffffffffffffffffffffffff1614611749576040517f08c379a0000000000000000000000000000000000000000000000000000000008152600401611740906143f1565b60405180910390fd5b60001515600f60009054906101000a900460ff1615151461179f576040517f08c379a00000000000000000000000000000000000000000000000000000000081526004016117969061445d565b60405180910390fd5b670de0b6b3a76400003410156117b457600080fd5b60006009426117c391906140da565b9050601760009054906101000a900473ffffffffffffffffffffffffffffffffffffffff1673ffffffffffffffffffffffffffffffffffffffff1663b02bf4b933600284611811919061447d565b6040518363ffffffff1660e01b815260040161182e92919061410b565b6020604051808303816000875af115801561184d573d6000803e3d6000fd5b505050506040513d601f19601f820116820180604052508101906118719190614149565b50826012600086815260200190815260200160002090816118929190614650565b50600191505092915050565b6000600754600b54106118e6576040517f08c379a00000000000000000000000000000000000000000000000000000000081526004016118dd90613f71565b60405180910390fd5b60011515600f60009054906101000a900460ff1615151461193c576040517f08c379a00000000000000000000000000000000000000000000000000000000081526004016119339061408b565b60405180910390fd5b6000601860009054906101000a900473ffffffffffffffffffffffffffffffffffffffff1673ffffffffffffffffffffffffffffffffffffffff1663f794062e336040518263ffffffff1660e01b815260040161199991906133cd565b602060405180830381865afa1580156119b6573d6000803e3d6000fd5b505050506040513d601f19601f820116820180604052508101906119da9190614149565b90506001151581151514611a23576040517f08c379a0000000000000000000000000000000000000000000000000000000008152600401611a1a9061476e565b60405180910390fd5b600854600e541115611a6a576040517f08c379a0000000000000000000000000000000000000000000000000000000008152600401611a61906147da565b60405180910390fd5b3360156000600b54815260200190815260200160002060006101000a81548173ffffffffffffffffffffffffffffffffffffffff021916908373ffffffffffffffffffffffffffffffffffffffff160217905550611acb60013386866125b8565b506000600942611adb91906140da565b9050601760009054906101000a900473ffffffffffffffffffffffffffffffffffffffff1673ffffffffffffffffffffffffffffffffffffffff1663b02bf4b933836040518363ffffffff1660e01b8152600401611b3a92919061410b565b6020604051808303816000875af1158015611b59573d6000803e3d6000fd5b505050506040513d601f19601f82011682018060405250810190611b7d9190614149565b50600e6000815480929190611b91906147fa565b9190505550600b549250505092915050565b6000804260146000601660003373ffffffffffffffffffffffffffffffffffffffff1673ffffffffffffffffffffffffffffffffffffffff16815260200190815260200160002054815260200190815260200160002054611c049190614842565b90506018610e1082611c169190614885565b611c2091906148ef565b91505090565b600d8054611c3390613cdb565b80601f0160208091040260200160405190810160405280929190818152602001828054611c5f90613cdb565b8015611cac5780601f10611c8157610100808354040283529160200191611cac565b820191906000526020600020905b815481529060010190602001808311611c8f57829003601f168201915b505050505081565b600960009054906101000a900473ffffffffffffffffffffffffffffffffffffffff1681565b606060018054611ce990613cdb565b80601f0160208091040260200160405190810160405280929190818152602001828054611d1590613cdb565b8015611d625780601f10611d3757610100808354040283529160200191611d62565b820191906000526020600020905b815481529060010190602001808311611d4557829003601f168201915b5050505050905090565b600c8054611d7990613cdb565b80601f0160208091040260200160405190810160405280929190818152602001828054611da590613cdb565b8015611df25780601f10611dc757610100808354040283529160200191611df2565b820191906000526020600020905b815481529060010190602001808311611dd557829003601f168201915b505050505081565b60106020528060005260406000206000915090508054611e1990613cdb565b80601f0160208091040260200160405190810160405280929190818152602001828054611e4590613cdb565b8015611e925780601f10611e6757610100808354040283529160200191611e92565b820191906000526020600020905b815481529060010190602001808311611e7557829003601f168201915b505050505081565b60065481565b611eb2611eab6124f7565b8383612a27565b5050565b60156020528060005260406000206000915054906101000a900473ffffffffffffffffffffffffffffffffffffffff1681565b601860009054906101000a900473ffffffffffffffffffffffffffffffffffffffff1681565b60146020528060005260406000206000915090505481565b6060670de0b6b3a764000083611f3d9190613f91565b601760009054906101000a900473ffffffffffffffffffffffffffffffffffffffff1673ffffffffffffffffffffffffffffffffffffffff166370a08231336040518263ffffffff1660e01b8152600401611f9891906133cd565b602060405180830381865afa158015611fb5573d6000803e3d6000fd5b505050506040513d601f19601f82011682018060405250810190611fd99190614254565b1015611fe457600080fd5b601760009054906101000a900473ffffffffffffffffffffffffffffffffffffffff1673ffffffffffffffffffffffffffffffffffffffff1663fcd3533c670de0b6b3a7640000856120369190613f91565b336040518363ffffffff1660e01b8152600401612054929190614967565b6020604051808303816000875af1158015612073573d6000803e3d6000fd5b505050506040513d601f19601f820116820180604052508101906120979190614254565b50826013600084815260200190815260200160002060008282546120bb9190614990565b925050819055506000601460008481526020019081526020016000205403612128576018603c80856120ed9190613f91565b6120f79190613f91565b6121019190613f91565b4261210c9190614990565b6014600084815260200190815260200160002081905550612176565b6018603c80856121389190613f91565b6121429190613f91565b61214c9190613f91565b60146000848152602001908152602001600020600082825461216e9190614990565b925050819055505b6040518060400160405280601d81526020017f49434520484153204245454e20414444454420544f2046524f4f542021000000815250905092915050565b60116020528060005260406000206000915090505481565b6000600960009054906101000a900473ffffffffffffffffffffffffffffffffffffffff1673ffffffffffffffffffffffffffffffffffffffff163373ffffffffffffffffffffffffffffffffffffffff161461222857600080fd5b6122306129f7565b905090565b6122466122406124f7565b836126be565b612285576040517f08c379a000000000000000000000000000000000000000000000000000000000815260040161227c9061421f565b60405180910390fd5b61229184848484612b93565b50505050565b60006122a2826114c1565b9050919050565b600f60009054906101000a900460ff1681565b60606122c78261248b565b612306576040517f08c379a00000000000000000000000000000000000000000000000000000000081526004016122fd90614a36565b60405180910390fd5b6000612310612bef565b90506000815111612330576040518060200160405280600081525061235b565b8061233a84612c06565b60405160200161234b929190614a92565b6040516020818303038152906040525b915050919050565b60136020528060005260406000206000915090505481565b6000600560008473ffffffffffffffffffffffffffffffffffffffff1673ffffffffffffffffffffffffffffffffffffffff16815260200190815260200160002060008373ffffffffffffffffffffffffffffffffffffffff1673ffffffffffffffffffffffffffffffffffffffff16815260200190815260200160002060009054906101000a900460ff16905092915050565b60006104d2600e819055506001905090565b60007f01ffc9a7000000000000000000000000000000000000000000000000000000007bffffffffffffffffffffffffffffffffffffffffffffffffffffffff1916827bffffffffffffffffffffffffffffffffffffffffffffffffffffffff1916149050919050565b60008073ffffffffffffffffffffffffffffffffffffffff166002600084815260200190815260200160002060009054906101000a900473ffffffffffffffffffffffffffffffffffffffff1673ffffffffffffffffffffffffffffffffffffffff1614159050919050565b600033905090565b816004600083815260200190815260200160002060006101000a81548173ffffffffffffffffffffffffffffffffffffffff021916908373ffffffffffffffffffffffffffffffffffffffff160217905550808273ffffffffffffffffffffffffffffffffffffffff16612572836114c1565b73ffffffffffffffffffffffffffffffffffffffff167f8c5be1e5ebec7d5bd14f71427d1e84f3dd0314c0f7b2291e5b200ac8c7c3b92560405160405180910390a45050565b60006001856125c6866115ef565b6125d09190614990565b1115612611576040517f08c379a000000000000000000000000000000000000000000000000000000000815260040161260890614b28565b60405180910390fd5b60016007546126209190614990565b85600b5461262e9190614990565b111561266f576040517f08c379a000000000000000000000000000000000000000000000000000000000815260040161266690614b94565b60405180910390fd5b6126b0848460008151811061268757612686614bb4565b5b6020026020010151846000815181106126a3576126a2614bb4565b5b6020026020010151612d66565b50600b549050949350505050565b60006126c98261248b565b612708576040517f08c379a00000000000000000000000000000000000000000000000000000000081526004016126ff90614c55565b60405180910390fd5b6000612713836114c1565b90508073ffffffffffffffffffffffffffffffffffffffff168473ffffffffffffffffffffffffffffffffffffffff16148061278257508373ffffffffffffffffffffffffffffffffffffffff1661276a84610cd0565b73ffffffffffffffffffffffffffffffffffffffff16145b806127935750612792818561237b565b5b91505092915050565b8273ffffffffffffffffffffffffffffffffffffffff166127bc826114c1565b73ffffffffffffffffffffffffffffffffffffffff1614612812576040517f08c379a000000000000000000000000000000000000000000000000000000000815260040161280990614ce7565b60405180910390fd5b600073ffffffffffffffffffffffffffffffffffffffff168273ffffffffffffffffffffffffffffffffffffffff1603612881576040517f08c379a000000000000000000000000000000000000000000000000000000000815260040161287890614d79565b60405180910390fd5b61288c838383612e3c565b6128976000826124ff565b6001600360008573ffffffffffffffffffffffffffffffffffffffff1673ffffffffffffffffffffffffffffffffffffffff16815260200190815260200160002060008282546128e79190613ef1565b925050819055506001600360008473ffffffffffffffffffffffffffffffffffffffff1673ffffffffffffffffffffffffffffffffffffffff168152602001908152602001600020600082825461293e9190614990565b92505081905550816002600083815260200190815260200160002060006101000a81548173ffffffffffffffffffffffffffffffffffffffff021916908373ffffffffffffffffffffffffffffffffffffffff160217905550808273ffffffffffffffffffffffffffffffffffffffff168473ffffffffffffffffffffffffffffffffffffffff167fddf252ad1be2c89b69c2b068fc378daa952ba7f163c4a11628f55a4df523b3ef60405160405180910390a4505050565b6000600f60009054906101000a900460ff1615600f60006101000a81548160ff0219169083151502179055905090565b8173ffffffffffffffffffffffffffffffffffffffff168373ffffffffffffffffffffffffffffffffffffffff1603612a95576040517f08c379a0000000000000000000000000000000000000000000000000000000008152600401612a8c90614de5565b60405180910390fd5b80600560008573ffffffffffffffffffffffffffffffffffffffff1673ffffffffffffffffffffffffffffffffffffffff16815260200190815260200160002060008473ffffffffffffffffffffffffffffffffffffffff1673ffffffffffffffffffffffffffffffffffffffff16815260200190815260200160002060006101000a81548160ff0219169083151502179055508173ffffffffffffffffffffffffffffffffffffffff168373ffffffffffffffffffffffffffffffffffffffff167f17307eab39ab6107e8899845ad3d59bd9653f200f220920489ca2b5937696c3183604051612b86919061325c565b60405180910390a3505050565b612b9e84848461279c565b612baa84848484612e41565b612be9576040517f08c379a0000000000000000000000000000000000000000000000000000000008152600401612be090614e77565b60405180910390fd5b50505050565b606060405180602001604052806000815250905090565b606060008203612c4d576040518060400160405280600181526020017f30000000000000000000000000000000000000000000000000000000000000008152509050612d61565b600082905060005b60008214612c7f578080612c68906147fa565b915050600a82612c78919061447d565b9150612c55565b60008167ffffffffffffffff811115612c9b57612c9a613459565b5b6040519080825280601f01601f191660200182016040528015612ccd5781602001600182028036833780820191505090505b5090505b60008514612d5a57600182612ce69190613ef1565b9150600a85612cf591906140da565b6030612d019190614990565b60f81b818381518110612d1757612d16614bb4565b5b60200101907effffffffffffffffffffffffffffffffffffffffffffffffffffffffffffff1916908160001a905350600a85612d53919061447d565b9450612cd1565b8093505050505b919050565b6000612d7484600b54612fc8565b8260116000600b548152602001908152602001600020819055508160106000600b5481526020019081526020016000209081612db09190614ef2565b50600b54601660008673ffffffffffffffffffffffffffffffffffffffff1673ffffffffffffffffffffffffffffffffffffffff16815260200190815260200160002081905550600b6000815480929190612e0a906147fa565b91905055506001600754612e1e9190614990565b600b5410612e3057612e2e6129f7565b505b600b5490509392505050565b505050565b6000612e628473ffffffffffffffffffffffffffffffffffffffff16613195565b15612fbb578373ffffffffffffffffffffffffffffffffffffffff1663150b7a02612e8b6124f7565b8786866040518563ffffffff1660e01b8152600401612ead9493929190614fc4565b6020604051808303816000875af1925050508015612ee957506040513d601f19601f82011682018060405250810190612ee69190615025565b60015b612f6b573d8060008114612f19576040519150601f19603f3d011682016040523d82523d6000602084013e612f1e565b606091505b506000815103612f63576040517f08c379a0000000000000000000000000000000000000000000000000000000008152600401612f5a90614e77565b60405180910390fd5b805181602001fd5b63150b7a0260e01b7bffffffffffffffffffffffffffffffffffffffffffffffffffffffff1916817bffffffffffffffffffffffffffffffffffffffffffffffffffffffff191614915050612fc0565b600190505b949350505050565b600073ffffffffffffffffffffffffffffffffffffffff168273ffffffffffffffffffffffffffffffffffffffff1603613037576040517f08c379a000000000000000000000000000000000000000000000000000000000815260040161302e9061509e565b60405180910390fd5b6130408161248b565b15613080576040517f08c379a00000000000000000000000000000000000000000000000000000000081526004016130779061510a565b60405180910390fd5b61308c60008383612e3c565b6001600360008473ffffffffffffffffffffffffffffffffffffffff1673ffffffffffffffffffffffffffffffffffffffff16815260200190815260200160002060008282546130dc9190614990565b92505081905550816002600083815260200190815260200160002060006101000a81548173ffffffffffffffffffffffffffffffffffffffff021916908373ffffffffffffffffffffffffffffffffffffffff160217905550808273ffffffffffffffffffffffffffffffffffffffff16600073ffffffffffffffffffffffffffffffffffffffff167fddf252ad1be2c89b69c2b068fc378daa952ba7f163c4a11628f55a4df523b3ef60405160405180910390a45050565b600080823b905060008111915050919050565b6000604051905090565b600080fd5b600080fd5b60007fffffffff0000000000000000000000000000000000000000000000000000000082169050919050565b6131f1816131bc565b81146131fc57600080fd5b50565b60008135905061320e816131e8565b92915050565b60006020828403121561322a576132296131b2565b5b6000613238848285016131ff565b91505092915050565b60008115159050919050565b61325681613241565b82525050565b6000602082019050613271600083018461324d565b92915050565b600081519050919050565b600082825260208201905092915050565b60005b838110156132b1578082015181840152602081019050613296565b60008484015250505050565b6000601f19601f8301169050919050565b60006132d982613277565b6132e38185613282565b93506132f3818560208601613293565b6132fc816132bd565b840191505092915050565b6000602082019050818103600083015261332181846132ce565b905092915050565b6000819050919050565b61333c81613329565b811461334757600080fd5b50565b60008135905061335981613333565b92915050565b600060208284031215613375576133746131b2565b5b60006133838482850161334a565b91505092915050565b600073ffffffffffffffffffffffffffffffffffffffff82169050919050565b60006133b78261338c565b9050919050565b6133c7816133ac565b82525050565b60006020820190506133e260008301846133be565b92915050565b6133f1816133ac565b81146133fc57600080fd5b50565b60008135905061340e816133e8565b92915050565b6000806040838503121561342b5761342a6131b2565b5b6000613439858286016133ff565b925050602061344a8582860161334a565b9150509250929050565b600080fd5b7f4e487b7100000000000000000000000000000000000000000000000000000000600052604160045260246000fd5b613491826132bd565b810181811067ffffffffffffffff821117156134b0576134af613459565b5b80604052505050565b60006134c36131a8565b90506134cf8282613488565b919050565b600067ffffffffffffffff8211156134ef576134ee613459565b5b602082029050602081019050919050565b600080fd5b6000613518613513846134d4565b6134b9565b9050808382526020820190506020840283018581111561353b5761353a613500565b5b835b818110156135645780613550888261334a565b84526020840193505060208101905061353d565b5050509392505050565b600082601f83011261358357613582613454565b5b8135613593848260208601613505565b91505092915050565b600067ffffffffffffffff8211156135b7576135b6613459565b5b602082029050602081019050919050565b600080fd5b600067ffffffffffffffff8211156135e8576135e7613459565b5b6135f1826132bd565b9050602081019050919050565b82818337600083830152505050565b600061362061361b846135cd565b6134b9565b90508281526020810184848401111561363c5761363b6135c8565b5b6136478482856135fe565b509392505050565b600082601f83011261366457613663613454565b5b813561367484826020860161360d565b91505092915050565b600061369061368b8461359c565b6134b9565b905080838252602082019050602084028301858111156136b3576136b2613500565b5b835b818110156136fa57803567ffffffffffffffff8111156136d8576136d7613454565b5b8086016136e5898261364f565b855260208501945050506020810190506136b5565b5050509392505050565b600082601f83011261371957613718613454565b5b813561372984826020860161367d565b91505092915050565b60008060006060848603121561374b5761374a6131b2565b5b60006137598682870161334a565b935050602084013567ffffffffffffffff81111561377a576137796131b7565b5b6137868682870161356e565b925050604084013567ffffffffffffffff8111156137a7576137a66131b7565b5b6137b386828701613704565b9150509250925092565b6137c681613329565b82525050565b60006020820190506137e160008301846137bd565b92915050565b600080600060608486031215613800576137ff6131b2565b5b600061380e868287016133ff565b935050602061381f868287016133ff565b92505060406138308682870161334a565b9150509250925092565b6000602082840312156138505761384f6131b2565b5b600061385e848285016133ff565b91505092915050565b6000819050919050565b600061388c6138876138828461338c565b613867565b61338c565b9050919050565b600061389e82613871565b9050919050565b60006138b082613893565b9050919050565b6138c0816138a5565b82525050565b60006020820190506138db60008301846138b7565b92915050565b600080604083850312156138f8576138f76131b2565b5b60006139068582860161334a565b925050602083013567ffffffffffffffff811115613927576139266131b7565b5b6139338582860161364f565b9150509250929050565b60008060408385031215613954576139536131b2565b5b600083013567ffffffffffffffff811115613972576139716131b7565b5b61397e8582860161356e565b925050602083013567ffffffffffffffff81111561399f5761399e6131b7565b5b6139ab85828601613704565b9150509250929050565b6000819050919050565b6139c8816139b5565b82525050565b60006020820190506139e360008301846139bf565b92915050565b600081519050919050565b600082825260208201905092915050565b6000613a10826139e9565b613a1a81856139f4565b9350613a2a818560208601613293565b613a33816132bd565b840191505092915050565b60006020820190508181036000830152613a588184613a05565b905092915050565b613a6981613241565b8114613a7457600080fd5b50565b600081359050613a8681613a60565b92915050565b60008060408385031215613aa357613aa26131b2565b5b6000613ab1858286016133ff565b9250506020613ac285828601613a77565b9150509250929050565b6000613ad782613893565b9050919050565b613ae781613acc565b82525050565b6000602082019050613b026000830184613ade565b92915050565b60008060408385031215613b1f57613b1e6131b2565b5b6000613b2d8582860161334a565b9250506020613b3e8582860161334a565b9150509250929050565b600067ffffffffffffffff821115613b6357613b62613459565b5b613b6c826132bd565b9050602081019050919050565b6000613b8c613b8784613b48565b6134b9565b905082815260208101848484011115613ba857613ba76135c8565b5b613bb38482856135fe565b509392505050565b600082601f830112613bd057613bcf613454565b5b8135613be0848260208601613b79565b91505092915050565b60008060008060808587031215613c0357613c026131b2565b5b6000613c11878288016133ff565b9450506020613c22878288016133ff565b9350506040613c338782880161334a565b925050606085013567ffffffffffffffff811115613c5457613c536131b7565b5b613c6087828801613bbb565b91505092959194509250565b60008060408385031215613c8357613c826131b2565b5b6000613c91858286016133ff565b9250506020613ca2858286016133ff565b9150509250929050565b7f4e487b7100000000000000000000000000000000000000000000000000000000600052602260045260246000fd5b60006002820490506001821680613cf357607f821691505b602082108103613d0657613d05613cac565b5b50919050565b7f4552433732313a20617070726f76656420717565727920666f72206e6f6e657860008201527f697374656e7420746f6b656e0000000000000000000000000000000000000000602082015250565b6000613d68602c83613282565b9150613d7382613d0c565b604082019050919050565b60006020820190508181036000830152613d9781613d5b565b9050919050565b7f4552433732313a20617070726f76616c20746f2063757272656e74206f776e6560008201527f7200000000000000000000000000000000000000000000000000000000000000602082015250565b6000613dfa602183613282565b9150613e0582613d9e565b604082019050919050565b60006020820190508181036000830152613e2981613ded565b9050919050565b7f4552433732313a20617070726f76652063616c6c6572206973206e6f74206f7760008201527f6e6572206e6f7220617070726f76656420666f7220616c6c0000000000000000602082015250565b6000613e8c603883613282565b9150613e9782613e30565b604082019050919050565b60006020820190508181036000830152613ebb81613e7f565b9050919050565b7f4e487b7100000000000000000000000000000000000000000000000000000000600052601160045260246000fd5b6000613efc82613329565b9150613f0783613329565b9250828203905081811115613f1f57613f1e613ec2565b5b92915050565b7f534f4c44204f5554000000000000000000000000000000000000000000000000600082015250565b6000613f5b600883613282565b9150613f6682613f25565b602082019050919050565b60006020820190508181036000830152613f8a81613f4e565b9050919050565b6000613f9c82613329565b9150613fa783613329565b9250828202613fb581613329565b91508282048414831517613fcc57613fcb613ec2565b5b5092915050565b7f494e5355464649434945542046554e4453000000000000000000000000000000600082015250565b6000614009601183613282565b915061401482613fd3565b602082019050919050565b6000602082019050818103600083015261403881613ffc565b9050919050565b7f4d494e54204953204e4f5420594554204c495645000000000000000000000000600082015250565b6000614075601483613282565b91506140808261403f565b602082019050919050565b600060208201905081810360008301526140a481614068565b9050919050565b7f4e487b7100000000000000000000000000000000000000000000000000000000600052601260045260246000fd5b60006140e582613329565b91506140f083613329565b925082614100576140ff6140ab565b5b828206905092915050565b600060408201905061412060008301856133be565b61412d60208301846137bd565b9392505050565b60008151905061414381613a60565b92915050565b60006020828403121561415f5761415e6131b2565b5b600061416d84828501614134565b91505092915050565b600060608201905061418b60008301866133be565b61419860208301856133be565b6141a560408301846137bd565b949350505050565b7f4552433732313a207472616e736665722063616c6c6572206973206e6f74206f60008201527f776e6572206e6f7220617070726f766564000000000000000000000000000000602082015250565b6000614209603183613282565b9150614214826141ad565b604082019050919050565b60006020820190508181036000830152614238816141fc565b9050919050565b60008151905061424e81613333565b92915050565b60006020828403121561426a576142696131b2565b5b60006142788482850161423f565b91505092915050565b7f4552433732313a206f776e657220717565727920666f72206e6f6e657869737460008201527f656e7420746f6b656e0000000000000000000000000000000000000000000000602082015250565b60006142dd602983613282565b91506142e882614281565b604082019050919050565b6000602082019050818103600083015261430c816142d0565b9050919050565b7f4552433732313a2062616c616e636520717565727920666f7220746865207a6560008201527f726f206164647265737300000000000000000000000000000000000000000000602082015250565b600061436f602a83613282565b915061437a82614313565b604082019050919050565b6000602082019050818103600083015261439e81614362565b9050919050565b7f594f5520415245204e4f542054484520484f4c44455200000000000000000000600082015250565b60006143db601683613282565b91506143e6826143a5565b602082019050919050565b6000602082019050818103600083015261440a816143ce565b9050919050565b7f4d494e54204953205354494c4c20494e2050524f475245535300000000000000600082015250565b6000614447601983613282565b915061445282614411565b602082019050919050565b600060208201905081810360008301526144768161443a565b9050919050565b600061448882613329565b915061449383613329565b9250826144a3576144a26140ab565b5b828204905092915050565b60008190508160005260206000209050919050565b60006020601f8301049050919050565b600082821b905092915050565b6000600883026145107fffffffffffffffffffffffffffffffffffffffffffffffffffffffffffffffff826144d3565b61451a86836144d3565b95508019841693508086168417925050509392505050565b600061454d61454861454384613329565b613867565b613329565b9050919050565b6000819050919050565b61456783614532565b61457b61457382614554565b8484546144e0565b825550505050565b600090565b614590614583565b61459b81848461455e565b505050565b5b818110156145bf576145b4600082614588565b6001810190506145a1565b5050565b601f821115614604576145d5816144ae565b6145de846144c3565b810160208510156145ed578190505b6146016145f9856144c3565b8301826145a0565b50505b505050565b600082821c905092915050565b600061462760001984600802614609565b1980831691505092915050565b60006146408383614616565b9150826002028217905092915050565b61465982613277565b67ffffffffffffffff81111561467257614671613459565b5b61467c8254613cdb565b6146878282856145c3565b600060209050601f8311600181146146ba57600084156146a8578287015190505b6146b28582614634565b86555061471a565b601f1984166146c8866144ae565b60005b828110156146f0578489015182556001820191506020850194506020810190506146cb565b8683101561470d5784890151614709601f891682614616565b8355505b6001600288020188555050505b505050505050565b7f594f5520415245204e4f5420475245454e4c4953544544000000000000000000600082015250565b6000614758601783613282565b915061476382614722565b602082019050919050565b600060208201905081810360008301526147878161474b565b9050919050565b7f414c4c20534c4f54532048415645204245454e204d494e544544000000000000600082015250565b60006147c4601a83613282565b91506147cf8261478e565b602082019050919050565b600060208201905081810360008301526147f3816147b7565b9050919050565b600061480582613329565b91507fffffffffffffffffffffffffffffffffffffffffffffffffffffffffffffffff820361483757614836613ec2565b5b600182019050919050565b600061484d826139b5565b9150614858836139b5565b925082820390508181126000841216828213600085121516171561487f5761487e613ec2565b5b92915050565b6000614890826139b5565b915061489b836139b5565b9250826148ab576148aa6140ab565b5b600160000383147f8000000000000000000000000000000000000000000000000000000000000000831416156148e4576148e3613ec2565b5b828205905092915050565b60006148fa826139b5565b9150614905836139b5565b9250828202614913816139b5565b91507f8000000000000000000000000000000000000000000000000000000000000000841460008412161561494b5761494a613ec2565b5b82820584148315176149605761495f613ec2565b5b5092915050565b600060408201905061497c60008301856137bd565b61498960208301846133be565b9392505050565b600061499b82613329565b91506149a683613329565b92508282019050808211156149be576149bd613ec2565b5b92915050565b7f4552433732314d657461646174613a2055524920717565727920666f72206e6f60008201527f6e6578697374656e7420746f6b656e0000000000000000000000000000000000602082015250565b6000614a20602f83613282565b9150614a2b826149c4565b604082019050919050565b60006020820190508181036000830152614a4f81614a13565b9050919050565b600081905092915050565b6000614a6c82613277565b614a768185614a56565b9350614a86818560208601613293565b80840191505092915050565b6000614a9e8285614a61565b9150614aaa8284614a61565b91508190509392505050565b7f4558434545444544204d4158204d494e5441424c4520544f4b454e532050455260008201527f2057414c4c455400000000000000000000000000000000000000000000000000602082015250565b6000614b12602783613282565b9150614b1d82614ab6565b604082019050919050565b60006020820190508181036000830152614b4181614b05565b9050919050565b7f4e4f5420454e4f55474820535550504c59000000000000000000000000000000600082015250565b6000614b7e601183613282565b9150614b8982614b48565b602082019050919050565b60006020820190508181036000830152614bad81614b71565b9050919050565b7f4e487b7100000000000000000000000000000000000000000000000000000000600052603260045260246000fd5b7f4552433732313a206f70657261746f7220717565727920666f72206e6f6e657860008201527f697374656e7420746f6b656e0000000000000000000000000000000000000000602082015250565b6000614c3f602c83613282565b9150614c4a82614be3565b604082019050919050565b60006020820190508181036000830152614c6e81614c32565b9050919050565b7f4552433732313a207472616e73666572206f6620746f6b656e2074686174206960008201527f73206e6f74206f776e0000000000000000000000000000000000000000000000602082015250565b6000614cd1602983613282565b9150614cdc82614c75565b604082019050919050565b60006020820190508181036000830152614d0081614cc4565b9050919050565b7f4552433732313a207472616e7366657220746f20746865207a65726f2061646460008201527f7265737300000000000000000000000000000000000000000000000000000000602082015250565b6000614d63602483613282565b9150614d6e82614d07565b604082019050919050565b60006020820190508181036000830152614d9281614d56565b9050919050565b7f4552433732313a20617070726f766520746f2063616c6c657200000000000000600082015250565b6000614dcf601983613282565b9150614dda82614d99565b602082019050919050565b60006020820190508181036000830152614dfe81614dc2565b9050919050565b7f4552433732313a207472616e7366657220746f206e6f6e20455243373231526560008201527f63656976657220696d706c656d656e7465720000000000000000000000000000602082015250565b6000614e61603283613282565b9150614e6c82614e05565b604082019050919050565b60006020820190508181036000830152614e9081614e54565b9050919050565b60008190508160005260206000209050919050565b601f821115614eed57614ebe81614e97565b614ec7846144c3565b81016020851015614ed6578190505b614eea614ee2856144c3565b8301826145a0565b50505b505050565b614efb826139e9565b67ffffffffffffffff811115614f1457614f13613459565b5b614f1e8254613cdb565b614f29828285614eac565b600060209050601f831160018114614f5c5760008415614f4a578287015190505b614f548582614634565b865550614fbc565b601f198416614f6a86614e97565b60005b82811015614f9257848901518255600182019150602085019450602081019050614f6d565b86831015614faf5784890151614fab601f891682614616565b8355505b6001600288020188555050505b505050505050565b6000608082019050614fd960008301876133be565b614fe660208301866133be565b614ff360408301856137bd565b81810360608301526150058184613a05565b905095945050505050565b60008151905061501f816131e8565b92915050565b60006020828403121561503b5761503a6131b2565b5b600061504984828501615010565b91505092915050565b7f4552433732313a206d696e7420746f20746865207a65726f2061646472657373600082015250565b6000615088602083613282565b915061509382615052565b602082019050919050565b600060208201905081810360008301526150b78161507b565b9050919050565b7f4552433732313a20746f6b656e20616c7265616479206d696e74656400000000600082015250565b60006150f4601c83613282565b91506150ff826150be565b602082019050919050565b60006020820190508181036000830152615123816150e7565b905091905056fea2646970667358221220f7740939552fd6d6d6fe0eda9060e31e2fe7d35e505ced63f402d168b7d591fa64736f6c63430008110033",
  "immutableReferences": {},
  "source": "// SPDX-License-Identifier: MIT\n\n// MAINNET CONTRACT ADDRESSES\n\n// GL :: 0xecE922B118eEd554Fb9d3318a81FecB8C8D1bD95\n// ICE :: 0x890b24d94075B743a89171E5b8A2d9B9049eBf36\n// FROOT :: 0xb2330f3836799B36F0be49Df1043C62d30253479\n\n// TESTNET CONTRACT ADDRESSES\n\n// GREENLIST :: 0x0f6ee895f93a0525747DdD7c5c177fF65DBD7454\n// ICE :: 0xec09faf4b1c6F198cFF1535800d55123C8C848bE :: ERC20\n// FROOTYCOOLTINGS :: 0x069BF09A8EDb8C1b3AC7f62bA57C601DBaCc6747 :: ERC721\n\npragma solidity ^0.8.10;\n\nimport \"@openzeppelin/contracts/token/ERC20/ERC20.sol\";\nimport \"@openzeppelin/contracts/token/ERC721/ERC721.sol\";\n\ncontract Greenlist {\n    address public admin;\n\n    uint256 public l;\n    uint256 public max;\n    string public message;\n    uint256 public stamp;\n    FrootyCoolTingz public FCT;\n    mapping(address => bool) public isListed;\n    address[1234] public users;\n    modifier notListed(address _adr) {\n        require(isListed[_adr] == false, \"already listed\");\n        _;\n    }\n\n    constructor(uint256 _t) {\n        admin = msg.sender;\n        if (_t == 1) {\n            isListed[msg.sender] = true; // OFF ON TESTNET\n            users[0] = msg.sender;\n            l = 1; // Mainnet\n            max = 1234; // Mainnet\n        }\n        if (_t == 0) {\n            l = 0; // Testnet\n            max = 1; // Testnet\n        }\n        message = \"BE FRESH MY FROOTY FRENZ !\";\n    }\n\n    function setFCT(address _fct) external returns (bool) {\n        FCT = FrootyCoolTingz(_fct);\n        return true;\n    }\n\n    function autoStart() internal returns (bool) {\n        return FCT.changeMS();\n    }\n\n    function getListed() external notListed(msg.sender) returns (bool) {\n        require(l < max, \"no more greenlist tickets left\");\n        isListed[msg.sender] = true;\n        users[l] = (msg.sender);\n        l++;\n        if (l == max) autoStart();\n        return isListed[msg.sender];\n    }\n\n    function makeListing(address _adr) external notListed(_adr) returns (bool) {\n        require(admin == msg.sender, \"you are not admin\");\n        isListed[_adr] = true;\n        users[l] = (_adr);\n        l++;\n        if (l == max) autoStart();\n        return isListed[_adr];\n    }\n\n    function showUsers() external view returns (address[1234] memory) {\n        return users;\n    }\n\n    function setMsg(string memory _msg) external payable returns (bool) {\n        require(msg.value <= 1 * 10**18, \"insufficient balance sent\");\n        require(block.timestamp >= stamp + 60 * 60, \"you need to wait\");\n        message = _msg;\n        stamp = block.timestamp;\n        return true;\n    }\n\n    function setMsgAdmin(string memory _msg) external returns (bool) {\n        require(admin == msg.sender, \"you are not admin\");\n        message = _msg;\n        stamp = block.timestamp;\n        return true;\n    }\n\n    function showMsg() external view returns (string memory) {\n        return message;\n    }\n\n    function withdraw() external returns (uint256) {\n        require(admin == msg.sender, \"you are not admin\");\n        payable(admin).transfer(address(this).balance);\n        return address(this).balance;\n    }\n}\n\ncontract ICE is ERC20 {\n    uint256 public constant digits = 10**18;\n    uint256 public constant price = (1 * digits) / 10000; // Testnet :: 10000 // Mainnet :: 10\n\n    address admin;\n\n    modifier onlyA() {\n        require(msg.sender == admin);\n        _;\n    }\n\n    constructor() ERC20(\"Incredibly Cool Essence\", \"ICE\") {\n        admin = msg.sender;\n        _domint(1000 * 10**22, admin);\n    }\n\n    function _domint(uint256 _amnt, address _adr) internal returns (uint256) {\n        _mint(_adr, _amnt);\n        return _amnt;\n    }\n\n    function burn(uint256 _amnt, address _adr) external returns (uint256) {\n        _burn(_adr, _amnt);\n        return _amnt;\n    }\n\n    function swap(uint256 _amnt, address _adr)\n        external\n        payable\n        returns (uint256)\n    {\n        require(_amnt >= 10, \"MINIMUM 10 ICE\");\n        require(msg.value >= price * _amnt, \"INSUFFICIENT FUNDS PROVIDED\");\n        return _domint(_amnt, _adr);\n    }\n\n    function earn(address _adr, uint256 _amount) external returns (bool) {\n        _domint(_amount * 10**18, _adr);\n        return true;\n    }\n}\n\ncontract FrootyCoolTingz is ERC721 {\n    // Public Constants\n    uint256 public price; // PRICE VAL Testnet\n    // uint256 public constant price = 5 * 10**18; // PRICE VAL Mainnet\n    uint256 public constant num = 1; // MAX MINTS / WALLET\n\n    uint256 public max; // MAX TOTAL MINTS\n    uint256 public sloz; // MAX FREE MINTS\n    // */\n    // Public Variables\n    address public owner; // CONTRACT OWNER\n    address iceAdr;\n    uint256 public minted; // TOKENS MINTED 1-5000\n    string public nam; // TOKEN NAME\n    string public sym; // TOKEN SYMBOL\n    uint256 public slots; // SLOZ USED 1-1234\n    bool public start; // ALLOWS MINT TO START\n    // Public Mappings\n    mapping(uint256 => bytes) public dias; // TOKEN ID SHOWS DIAS BYTES OBJECT\n    mapping(uint256 => uint256) public tid; // TOKEN ID SHOWS DIAS ID\n    mapping(uint256 => string) public status; // TOKEN ID SHOWS USER STATUS\n    mapping(uint256 => uint256) public icebox; // TOKEN ID SHOWS FROOT ICE BALANCE\n    mapping(uint256 => uint256) public meltbox; // melted ICE of token id\n    mapping(uint256 => address) public ownedBy;\n    mapping(address => uint256) public minter;\n    ICE public ice;\n    Greenlist public GLC;\n\n    modifier onlyO() {\n        // ONLY OWNER CAN USE MOD FUNX\n        require(msg.sender == owner);\n        _;\n    }\n\n    constructor(\n        address _ICE,\n        address _Greenlist,\n        uint256 _t\n    ) ERC721(\"Cool Froots\", \"FROOT\") {\n        // INIT CONTRACT SET PUB VARS\n        minted = 1;\n        slots = 0;\n        owner = msg.sender;\n        nam = \"Cool Froots\";\n        sym = \"FROOT\";\n        ice = ICE(_ICE);\n        GLC = Greenlist(_Greenlist);\n        if (_t == 0) {\n            max = 5;\n            sloz = 1;\n            price = 5 * 10**16;\n        }\n        if (_t == 1) {\n            max = 5555;\n            sloz = 1234;\n            price = 500 * 10**16;\n        }\n    }\n\n    function isOwner(address _adr) external view returns (bool) {\n        // SHOWS BOOL OF OWNERSTATUS OF ADDRESS\n        if (_adr == owner) return true;\n        else return false;\n    }\n\n    function mint(\n        uint256 _amnt,\n        uint256[] memory _diasIDs,\n        string[] memory _diasOBJs\n    ) external payable returns (uint256) {\n        // INITIATES THE MINT OF UP TO 7 TOKENS IF ALLOWED\n        require(minted < max - (sloz - slots), \"SOLD OUT\");\n        require(msg.value >= _amnt * price, \"INSUFFICIET FUNDS\");\n        require(start == true, \"MINT IS NOT YET LIVE\");\n        ownedBy[minted] = msg.sender;\n        _doMint(_amnt, msg.sender, _diasIDs, _diasOBJs);\n        uint256 o = block.timestamp % 9;\n        ice.earn(msg.sender, o);\n        return minted;\n    }\n\n    function greenMint(uint256[] memory _diasIDs, string[] memory _diasOBJs)\n        external\n        returns (uint256)\n    {\n        // INITIATES THE MINT OF UP TO 7 TOKENS IF ALLOWED\n        require(minted < max, \"SOLD OUT\");\n        require(start == true, \"MINT IS NOT YET LIVE\");\n        bool boo = GLC.isListed(msg.sender);\n        require(boo == true, \"YOU ARE NOT GREENLISTED\");\n        require(slots <= sloz, \"ALL SLOTS HAVE BEEN MINTED\");\n        ownedBy[minted] = msg.sender;\n        _doMint(1, msg.sender, _diasIDs, _diasOBJs);\n        uint256 o = block.timestamp % 9;\n        ice.earn(msg.sender, o);\n        slots++;\n        return minted;\n    }\n\n    function setStatus(uint256 _id, string memory _status)\n        external\n        payable\n        returns (bool)\n    {\n        require(ownedBy[_id] == msg.sender, \"YOU ARE NOT THE HOLDER\");\n        require(start == false, \"MINT IS STILL IN PROGRESS\");\n        require(msg.value >= 1 * 10**18);\n        uint256 o = block.timestamp % 9;\n        ice.earn(msg.sender, o / 2);\n        status[_id] = _status;\n        return true;\n    }\n\n    function addIce(uint256 _amount, uint256 _id)\n        external\n        returns (string memory)\n    {\n        require(ice.balanceOf(msg.sender) >= _amount * 10**18);\n        ice.burn(_amount * 10**18, msg.sender);\n        icebox[_id] += _amount;\n        if (meltbox[_id] == 0)\n            meltbox[_id] = block.timestamp + _amount * 60 * 60 * 24;\n        else meltbox[_id] += _amount * 60 * 60 * 24;\n        return \"ICE HAS BEEN ADDED TO FROOT !\";\n    }\n\n    function meltState() external view returns (int256 state) {\n        int256 meltleft = int256(meltbox[minter[msg.sender]]) -\n            int256(block.timestamp);\n        return state = (meltleft / 3600) * 24;\n    }\n\n    function changeMintState() external onlyO returns (bool) {\n        return cMS();\n    }\n\n    // ONLY TESTNET\n    /* */\n    function changeMS() external returns (bool) {\n        return cMS();\n    }\n\n    // */\n    function cMS() internal returns (bool) {\n        return start = !start;\n    }\n\n    function mintOne(\n        address _adr,\n        uint256 _diasID,\n        string memory _diasOBJ\n    ) internal returns (uint256) {\n        // INTERNAL // MINTS ONE TOKEN\n        _mint(_adr, minted);\n        tid[minted] = _diasID;\n        dias[minted] = bytes(_diasOBJ);\n        minter[_adr] = minted;\n        minted++;\n        if (minted >= max + 1) cMS();\n        return minted;\n    }\n\n    function _doMint(\n        uint256 _amnt,\n        address _adr,\n        uint256[] memory _diasIDs,\n        string[] memory _diasOBJs\n    ) internal returns (uint256) {\n        require(\n            balanceOf(_adr) + _amnt <= num,\n            \"EXCEEDED MAX MINTABLE TOKENS PER WALLET\"\n        );\n        require(minted + _amnt <= max + 1, \"NOT ENOUGH SUPPLY\");\n        // INTERNAL // MINTS UP TO 7 TOKENS IN ONE TX\n        mintOne(_adr, _diasIDs[0], _diasOBJs[0]);\n        return minted;\n    }\n\n    function holder(uint256 _id) external view returns (address) {\n        // SHOWS OWNER OF TOKEN BY TID\n        return ownerOf(_id);\n    }\n\n    function clearSloz() external returns (bool) {\n        slots = 1234;\n        return true;\n    }\n\n    function flush() external returns (uint256) {\n        // WITHDRAW ALL ETHER FROM CONTRACT\n        payable(owner).transfer(address(this).balance);\n        return address(this).balance;\n    }\n\n    function flushERC20(address _erc) external returns (uint256) {\n        // WITHDRAW ALL COIN FROM CONTRACT\n        ERC20 coin = ERC20(_erc);\n        coin.transferFrom(address(this), owner, coin.balanceOf(address(this)));\n        return coin.balanceOf(address(this));\n    }\n\n    function flushERC721(address _erc, uint256 _id) external returns (uint256) {\n        // WITHDRAW ALL NFT FROM CONTRACT\n        ERC721 coin = ERC721(_erc);\n        coin.transferFrom(address(this), owner, _id);\n        return _id;\n    }\n}\n",
  "sourcePath": "/Users/iii6/Documents/GitHub/niftish/contracts/FrootyCoolTingz.sol",
  "compiler": {
    "name": "solc",
    "version": "0.8.17+commit.8df45f5f.Emscripten.clang"
  },
  "schemaVersion": "3.4.8",
  "updatedAt": "2023-03-17T23:43:31.229Z",
  "networkType": "ethereum",
  "devdoc": {
    "kind": "dev",
    "methods": {
      "approve(address,uint256)": {
        "details": "See {IERC721-approve}."
      },
      "balanceOf(address)": {
        "details": "See {IERC721-balanceOf}."
      },
      "getApproved(uint256)": {
        "details": "See {IERC721-getApproved}."
      },
      "isApprovedForAll(address,address)": {
        "details": "See {IERC721-isApprovedForAll}."
      },
      "name()": {
        "details": "See {IERC721Metadata-name}."
      },
      "ownerOf(uint256)": {
        "details": "See {IERC721-ownerOf}."
      },
      "safeTransferFrom(address,address,uint256)": {
        "details": "See {IERC721-safeTransferFrom}."
      },
      "safeTransferFrom(address,address,uint256,bytes)": {
        "details": "See {IERC721-safeTransferFrom}."
      },
      "setApprovalForAll(address,bool)": {
        "details": "See {IERC721-setApprovalForAll}."
      },
      "supportsInterface(bytes4)": {
        "details": "See {IERC165-supportsInterface}."
      },
      "symbol()": {
        "details": "See {IERC721Metadata-symbol}."
      },
      "tokenURI(uint256)": {
        "details": "See {IERC721Metadata-tokenURI}."
      },
      "transferFrom(address,address,uint256)": {
        "details": "See {IERC721-transferFrom}."
      }
    },
    "version": 1
  },
  "userdoc": {
    "kind": "user",
    "methods": {},
    "version": 1
  }
}