{
  "contractName": "FrootyCoolTingz",
  "abi": [
    {
      "inputs": [
        {
          "internalType": "address",
          "name": "_ICE",
          "type": "address"
        },
        {
          "internalType": "address",
          "name": "_Greenlist",
          "type": "address"
        },
        {
          "internalType": "uint256",
          "name": "_t",
          "type": "uint256"
        }
      ],
      "stateMutability": "nonpayable",
      "type": "constructor"
    },
    {
      "anonymous": false,
      "inputs": [
        {
          "indexed": true,
          "internalType": "address",
          "name": "owner",
          "type": "address"
        },
        {
          "indexed": true,
          "internalType": "address",
          "name": "approved",
          "type": "address"
        },
        {
          "indexed": true,
          "internalType": "uint256",
          "name": "tokenId",
          "type": "uint256"
        }
      ],
      "name": "Approval",
      "type": "event"
    },
    {
      "anonymous": false,
      "inputs": [
        {
          "indexed": true,
          "internalType": "address",
          "name": "owner",
          "type": "address"
        },
        {
          "indexed": true,
          "internalType": "address",
          "name": "operator",
          "type": "address"
        },
        {
          "indexed": false,
          "internalType": "bool",
          "name": "approved",
          "type": "bool"
        }
      ],
      "name": "ApprovalForAll",
      "type": "event"
    },
    {
      "anonymous": false,
      "inputs": [
        {
          "indexed": true,
          "internalType": "address",
          "name": "from",
          "type": "address"
        },
        {
          "indexed": true,
          "internalType": "address",
          "name": "to",
          "type": "address"
        },
        {
          "indexed": true,
          "internalType": "uint256",
          "name": "tokenId",
          "type": "uint256"
        }
      ],
      "name": "Transfer",
      "type": "event"
    },
    {
      "inputs": [],
      "name": "GLC",
      "outputs": [
        {
          "internalType": "contract Greenlist",
          "name": "",
          "type": "address"
        }
      ],
      "stateMutability": "view",
      "type": "function",
      "constant": true
    },
    {
      "inputs": [
        {
          "internalType": "address",
          "name": "to",
          "type": "address"
        },
        {
          "internalType": "uint256",
          "name": "tokenId",
          "type": "uint256"
        }
      ],
      "name": "approve",
      "outputs": [],
      "stateMutability": "nonpayable",
      "type": "function"
    },
    {
      "inputs": [
        {
          "internalType": "address",
          "name": "owner",
          "type": "address"
        }
      ],
      "name": "balanceOf",
      "outputs": [
        {
          "internalType": "uint256",
          "name": "",
          "type": "uint256"
        }
      ],
      "stateMutability": "view",
      "type": "function",
      "constant": true
    },
    {
      "inputs": [
        {
          "internalType": "uint256",
          "name": "",
          "type": "uint256"
        }
      ],
      "name": "dias",
      "outputs": [
        {
          "internalType": "bytes",
          "name": "",
          "type": "bytes"
        }
      ],
      "stateMutability": "view",
      "type": "function",
      "constant": true
    },
    {
      "inputs": [
        {
          "internalType": "uint256",
          "name": "tokenId",
          "type": "uint256"
        }
      ],
      "name": "getApproved",
      "outputs": [
        {
          "internalType": "address",
          "name": "",
          "type": "address"
        }
      ],
      "stateMutability": "view",
      "type": "function",
      "constant": true
    },
    {
      "inputs": [],
      "name": "ice",
      "outputs": [
        {
          "internalType": "contract ICE",
          "name": "",
          "type": "address"
        }
      ],
      "stateMutability": "view",
      "type": "function",
      "constant": true
    },
    {
      "inputs": [
        {
          "internalType": "uint256",
          "name": "",
          "type": "uint256"
        }
      ],
      "name": "icebox",
      "outputs": [
        {
          "internalType": "uint256",
          "name": "",
          "type": "uint256"
        }
      ],
      "stateMutability": "view",
      "type": "function",
      "constant": true
    },
    {
      "inputs": [
        {
          "internalType": "address",
          "name": "owner",
          "type": "address"
        },
        {
          "internalType": "address",
          "name": "operator",
          "type": "address"
        }
      ],
      "name": "isApprovedForAll",
      "outputs": [
        {
          "internalType": "bool",
          "name": "",
          "type": "bool"
        }
      ],
      "stateMutability": "view",
      "type": "function",
      "constant": true
    },
    {
      "inputs": [],
      "name": "max",
      "outputs": [
        {
          "internalType": "uint256",
          "name": "",
          "type": "uint256"
        }
      ],
      "stateMutability": "view",
      "type": "function",
      "constant": true
    },
    {
      "inputs": [
        {
          "internalType": "uint256",
          "name": "",
          "type": "uint256"
        }
      ],
      "name": "meltbox",
      "outputs": [
        {
          "internalType": "uint256",
          "name": "",
          "type": "uint256"
        }
      ],
      "stateMutability": "view",
      "type": "function",
      "constant": true
    },
    {
      "inputs": [],
      "name": "minted",
      "outputs": [
        {
          "internalType": "uint256",
          "name": "",
          "type": "uint256"
        }
      ],
      "stateMutability": "view",
      "type": "function",
      "constant": true
    },
    {
      "inputs": [
        {
          "internalType": "address",
          "name": "",
          "type": "address"
        }
      ],
      "name": "minter",
      "outputs": [
        {
          "internalType": "uint256",
          "name": "",
          "type": "uint256"
        }
      ],
      "stateMutability": "view",
      "type": "function",
      "constant": true
    },
    {
      "inputs": [],
      "name": "nam",
      "outputs": [
        {
          "internalType": "string",
          "name": "",
          "type": "string"
        }
      ],
      "stateMutability": "view",
      "type": "function",
      "constant": true
    },
    {
      "inputs": [],
      "name": "name",
      "outputs": [
        {
          "internalType": "string",
          "name": "",
          "type": "string"
        }
      ],
      "stateMutability": "view",
      "type": "function",
      "constant": true
    },
    {
      "inputs": [],
      "name": "num",
      "outputs": [
        {
          "internalType": "uint256",
          "name": "",
          "type": "uint256"
        }
      ],
      "stateMutability": "view",
      "type": "function",
      "constant": true
    },
    {
      "inputs": [
        {
          "internalType": "uint256",
          "name": "",
          "type": "uint256"
        }
      ],
      "name": "ownedBy",
      "outputs": [
        {
          "internalType": "address",
          "name": "",
          "type": "address"
        }
      ],
      "stateMutability": "view",
      "type": "function",
      "constant": true
    },
    {
      "inputs": [],
      "name": "owner",
      "outputs": [
        {
          "internalType": "address",
          "name": "",
          "type": "address"
        }
      ],
      "stateMutability": "view",
      "type": "function",
      "constant": true
    },
    {
      "inputs": [
        {
          "internalType": "uint256",
          "name": "tokenId",
          "type": "uint256"
        }
      ],
      "name": "ownerOf",
      "outputs": [
        {
          "internalType": "address",
          "name": "",
          "type": "address"
        }
      ],
      "stateMutability": "view",
      "type": "function",
      "constant": true
    },
    {
      "inputs": [],
      "name": "price",
      "outputs": [
        {
          "internalType": "uint256",
          "name": "",
          "type": "uint256"
        }
      ],
      "stateMutability": "view",
      "type": "function",
      "constant": true
    },
    {
      "inputs": [
        {
          "internalType": "address",
          "name": "from",
          "type": "address"
        },
        {
          "internalType": "address",
          "name": "to",
          "type": "address"
        },
        {
          "internalType": "uint256",
          "name": "tokenId",
          "type": "uint256"
        }
      ],
      "name": "safeTransferFrom",
      "outputs": [],
      "stateMutability": "nonpayable",
      "type": "function"
    },
    {
      "inputs": [
        {
          "internalType": "address",
          "name": "from",
          "type": "address"
        },
        {
          "internalType": "address",
          "name": "to",
          "type": "address"
        },
        {
          "internalType": "uint256",
          "name": "tokenId",
          "type": "uint256"
        },
        {
          "internalType": "bytes",
          "name": "_data",
          "type": "bytes"
        }
      ],
      "name": "safeTransferFrom",
      "outputs": [],
      "stateMutability": "nonpayable",
      "type": "function"
    },
    {
      "inputs": [
        {
          "internalType": "address",
          "name": "operator",
          "type": "address"
        },
        {
          "internalType": "bool",
          "name": "approved",
          "type": "bool"
        }
      ],
      "name": "setApprovalForAll",
      "outputs": [],
      "stateMutability": "nonpayable",
      "type": "function"
    },
    {
      "inputs": [],
      "name": "slots",
      "outputs": [
        {
          "internalType": "uint256",
          "name": "",
          "type": "uint256"
        }
      ],
      "stateMutability": "view",
      "type": "function",
      "constant": true
    },
    {
      "inputs": [],
      "name": "sloz",
      "outputs": [
        {
          "internalType": "uint256",
          "name": "",
          "type": "uint256"
        }
      ],
      "stateMutability": "view",
      "type": "function",
      "constant": true
    },
    {
      "inputs": [],
      "name": "start",
      "outputs": [
        {
          "internalType": "bool",
          "name": "",
          "type": "bool"
        }
      ],
      "stateMutability": "view",
      "type": "function",
      "constant": true
    },
    {
      "inputs": [
        {
          "internalType": "uint256",
          "name": "",
          "type": "uint256"
        }
      ],
      "name": "status",
      "outputs": [
        {
          "internalType": "string",
          "name": "",
          "type": "string"
        }
      ],
      "stateMutability": "view",
      "type": "function",
      "constant": true
    },
    {
      "inputs": [],
      "name": "statusprice",
      "outputs": [
        {
          "internalType": "uint256",
          "name": "",
          "type": "uint256"
        }
      ],
      "stateMutability": "view",
      "type": "function",
      "constant": true
    },
    {
      "inputs": [
        {
          "internalType": "bytes4",
          "name": "interfaceId",
          "type": "bytes4"
        }
      ],
      "name": "supportsInterface",
      "outputs": [
        {
          "internalType": "bool",
          "name": "",
          "type": "bool"
        }
      ],
      "stateMutability": "view",
      "type": "function",
      "constant": true
    },
    {
      "inputs": [],
      "name": "sym",
      "outputs": [
        {
          "internalType": "string",
          "name": "",
          "type": "string"
        }
      ],
      "stateMutability": "view",
      "type": "function",
      "constant": true
    },
    {
      "inputs": [],
      "name": "symbol",
      "outputs": [
        {
          "internalType": "string",
          "name": "",
          "type": "string"
        }
      ],
      "stateMutability": "view",
      "type": "function",
      "constant": true
    },
    {
      "inputs": [
        {
          "internalType": "uint256",
          "name": "",
          "type": "uint256"
        }
      ],
      "name": "tid",
      "outputs": [
        {
          "internalType": "uint256",
          "name": "",
          "type": "uint256"
        }
      ],
      "stateMutability": "view",
      "type": "function",
      "constant": true
    },
    {
      "inputs": [
        {
          "internalType": "uint256",
          "name": "tokenId",
          "type": "uint256"
        }
      ],
      "name": "tokenURI",
      "outputs": [
        {
          "internalType": "string",
          "name": "",
          "type": "string"
        }
      ],
      "stateMutability": "view",
      "type": "function",
      "constant": true
    },
    {
      "inputs": [
        {
          "internalType": "address",
          "name": "from",
          "type": "address"
        },
        {
          "internalType": "address",
          "name": "to",
          "type": "address"
        },
        {
          "internalType": "uint256",
          "name": "tokenId",
          "type": "uint256"
        }
      ],
      "name": "transferFrom",
      "outputs": [],
      "stateMutability": "nonpayable",
      "type": "function"
    },
    {
      "inputs": [
        {
          "internalType": "address",
          "name": "_adr",
          "type": "address"
        }
      ],
      "name": "isOwner",
      "outputs": [
        {
          "internalType": "bool",
          "name": "",
          "type": "bool"
        }
      ],
      "stateMutability": "view",
      "type": "function",
      "constant": true
    },
    {
      "inputs": [
        {
          "internalType": "uint256",
          "name": "_amnt",
          "type": "uint256"
        },
        {
          "internalType": "uint256[]",
          "name": "_diasIDs",
          "type": "uint256[]"
        },
        {
          "internalType": "string[]",
          "name": "_diasOBJs",
          "type": "string[]"
        }
      ],
      "name": "mint",
      "outputs": [
        {
          "internalType": "uint256",
          "name": "",
          "type": "uint256"
        }
      ],
      "stateMutability": "payable",
      "type": "function",
      "payable": true
    },
    {
      "inputs": [
        {
          "internalType": "uint256[]",
          "name": "_diasIDs",
          "type": "uint256[]"
        },
        {
          "internalType": "string[]",
          "name": "_diasOBJs",
          "type": "string[]"
        }
      ],
      "name": "greenMint",
      "outputs": [
        {
          "internalType": "uint256",
          "name": "",
          "type": "uint256"
        }
      ],
      "stateMutability": "nonpayable",
      "type": "function"
    },
    {
      "inputs": [
        {
          "internalType": "uint256",
          "name": "_id",
          "type": "uint256"
        },
        {
          "internalType": "string",
          "name": "_status",
          "type": "string"
        }
      ],
      "name": "setStatus",
      "outputs": [
        {
          "internalType": "bool",
          "name": "",
          "type": "bool"
        }
      ],
      "stateMutability": "payable",
      "type": "function",
      "payable": true
    },
    {
      "inputs": [
        {
          "internalType": "uint256",
          "name": "_amount",
          "type": "uint256"
        },
        {
          "internalType": "uint256",
          "name": "_id",
          "type": "uint256"
        }
      ],
      "name": "addIce",
      "outputs": [
        {
          "internalType": "string",
          "name": "",
          "type": "string"
        }
      ],
      "stateMutability": "nonpayable",
      "type": "function"
    },
    {
      "inputs": [],
      "name": "meltState",
      "outputs": [
        {
          "internalType": "int256",
          "name": "state",
          "type": "int256"
        }
      ],
      "stateMutability": "view",
      "type": "function",
      "constant": true
    },
    {
      "inputs": [],
      "name": "changeMintState",
      "outputs": [
        {
          "internalType": "bool",
          "name": "",
          "type": "bool"
        }
      ],
      "stateMutability": "nonpayable",
      "type": "function"
    },
    {
      "inputs": [],
      "name": "changeMS",
      "outputs": [
        {
          "internalType": "bool",
          "name": "",
          "type": "bool"
        }
      ],
      "stateMutability": "nonpayable",
      "type": "function"
    },
    {
      "inputs": [
        {
          "internalType": "uint256",
          "name": "_id",
          "type": "uint256"
        }
      ],
      "name": "holder",
      "outputs": [
        {
          "internalType": "address",
          "name": "",
          "type": "address"
        }
      ],
      "stateMutability": "view",
      "type": "function",
      "constant": true
    },
    {
      "inputs": [],
      "name": "clearSloz",
      "outputs": [
        {
          "internalType": "bool",
          "name": "",
          "type": "bool"
        }
      ],
      "stateMutability": "nonpayable",
      "type": "function"
    },
    {
      "inputs": [],
      "name": "flush",
      "outputs": [
        {
          "internalType": "uint256",
          "name": "",
          "type": "uint256"
        }
      ],
      "stateMutability": "nonpayable",
      "type": "function"
    },
    {
      "inputs": [
        {
          "internalType": "address",
          "name": "_erc",
          "type": "address"
        }
      ],
      "name": "flushERC20",
      "outputs": [
        {
          "internalType": "uint256",
          "name": "",
          "type": "uint256"
        }
      ],
      "stateMutability": "nonpayable",
      "type": "function"
    },
    {
      "inputs": [
        {
          "internalType": "address",
          "name": "_erc",
          "type": "address"
        },
        {
          "internalType": "uint256",
          "name": "_id",
          "type": "uint256"
        }
      ],
      "name": "flushERC721",
      "outputs": [
        {
          "internalType": "uint256",
          "name": "",
          "type": "uint256"
        }
      ],
      "stateMutability": "nonpayable",
      "type": "function"
    }
  ],
  "bytecode": "0x60806040523480156200001157600080fd5b50604051620058be380380620058be833981810160405281019062000037919062000347565b6040518060400160405280600b81526020017f436f6f6c2046726f6f74730000000000000000000000000000000000000000008152506040518060400160405280600581526020017f46524f4f540000000000000000000000000000000000000000000000000000008152508160009081620000b4919062000613565b508060019081620000c6919062000613565b5050506001600c819055506000600f8190555033600a60006101000a81548173ffffffffffffffffffffffffffffffffffffffff021916908373ffffffffffffffffffffffffffffffffffffffff1602179055506040518060400160405280600b81526020017f436f6f6c2046726f6f7473000000000000000000000000000000000000000000815250600d908162000160919062000613565b506040518060400160405280600581526020017f46524f4f54000000000000000000000000000000000000000000000000000000815250600e9081620001a7919062000613565b5082601860006101000a81548173ffffffffffffffffffffffffffffffffffffffff021916908373ffffffffffffffffffffffffffffffffffffffff16021790555081601960006101000a81548173ffffffffffffffffffffffffffffffffffffffff021916908373ffffffffffffffffffffffffffffffffffffffff1602179055506000810362000260576005600881905550600160098190555066b1a2bc2ec5000060068190555066038d7ea4c680006007819055505b6001810362000299576115b36008819055506104d2600981905550674563918244f4000060068190555066038d7ea4c680006007819055505b505050620006fa565b600080fd5b600073ffffffffffffffffffffffffffffffffffffffff82169050919050565b6000620002d482620002a7565b9050919050565b620002e681620002c7565b8114620002f257600080fd5b50565b6000815190506200030681620002db565b92915050565b6000819050919050565b62000321816200030c565b81146200032d57600080fd5b50565b600081519050620003418162000316565b92915050565b600080600060608486031215620003635762000362620002a2565b5b60006200037386828701620002f5565b93505060206200038686828701620002f5565b9250506040620003998682870162000330565b9150509250925092565b600081519050919050565b7f4e487b7100000000000000000000000000000000000000000000000000000000600052604160045260246000fd5b7f4e487b7100000000000000000000000000000000000000000000000000000000600052602260045260246000fd5b600060028204905060018216806200042557607f821691505b6020821081036200043b576200043a620003dd565b5b50919050565b60008190508160005260206000209050919050565b60006020601f8301049050919050565b600082821b905092915050565b600060088302620004a57fffffffffffffffffffffffffffffffffffffffffffffffffffffffffffffffff8262000466565b620004b1868362000466565b95508019841693508086168417925050509392505050565b6000819050919050565b6000620004f4620004ee620004e8846200030c565b620004c9565b6200030c565b9050919050565b6000819050919050565b6200051083620004d3565b620005286200051f82620004fb565b84845462000473565b825550505050565b600090565b6200053f62000530565b6200054c81848462000505565b505050565b5b8181101562000574576200056860008262000535565b60018101905062000552565b5050565b601f821115620005c3576200058d8162000441565b620005988462000456565b81016020851015620005a8578190505b620005c0620005b78562000456565b83018262000551565b50505b505050565b600082821c905092915050565b6000620005e860001984600802620005c8565b1980831691505092915050565b6000620006038383620005d5565b9150826002028217905092915050565b6200061e82620003a3565b67ffffffffffffffff8111156200063a5762000639620003ae565b5b6200064682546200040c565b6200065382828562000578565b600060209050601f8311600181146200068b576000841562000676578287015190505b620006828582620005f5565b865550620006f2565b601f1984166200069b8662000441565b60005b82811015620006c5578489015182556001820191506020850194506020810190506200069e565b86831015620006e55784890151620006e1601f891682620005d5565b8355505b6001600288020188555050505b505050505050565b6151b4806200070a6000396000f3fe60806040526004361061027d5760003560e01c806376917df91161014f578063a9700e1f116100c1578063ba899a2e1161007a578063ba899a2e14610a48578063be9a655514610a85578063c87b56dd14610ab0578063d64b3ae814610aed578063e985e9c514610b2a578063ea25b61d14610b675761027d565b8063a9700e1f14610912578063aa1ee9401461093d578063ac0d40841461097a578063ae943abc146109b7578063b524fd6f146109f4578063b88d4fde14610a1f5761027d565b806395d89b411161011357806395d89b41146107ee5780639af9bec0146108195780639b4f589f14610844578063a035b1fe14610881578063a22cb465146108ac578063a613e0e7146108d55761027d565b806376917df9146107005780637d23b33c14610730578063801427541461076d57806383813a28146107985780638da5cb5b146107c35761027d565b806342842e0e116101f35780634f02c420116101ac5780634f02c420146105da5780636352211e146106055780636ac5db19146106425780636b9f96ea1461066d5780636f743acd1461069857806370a08231146106c35761027d565b806342842e0e146104b657806342d21ef7146104df578063477523c21461051c57806348547d69146105595780634c2a860d146105845780634e70b1dc146105af5761027d565b806320a7270d1161024557806320a7270d1461037b578063216d534c146103ab57806323b872dd146103e85780632f54bf6e146104115780633b8d676f1461044e5780633dd08c38146104795761027d565b806301ffc9a71461028257806306390d6c146102bf57806306fdde03146102ea578063081812fc14610315578063095ea7b314610352575b600080fd5b34801561028e57600080fd5b506102a960048036038101906102a49190613268565b610b92565b6040516102b691906132b0565b60405180910390f35b3480156102cb57600080fd5b506102d4610c74565b6040516102e191906132e4565b60405180910390f35b3480156102f657600080fd5b506102ff610c7a565b60405161030c919061338f565b60405180910390f35b34801561032157600080fd5b5061033c600480360381019061033791906133dd565b610d0c565b604051610349919061344b565b60405180910390f35b34801561035e57600080fd5b5061037960048036038101906103749190613492565b610d91565b005b610395600480360381019061039091906137b0565b610ea8565b6040516103a291906132e4565b60405180910390f35b3480156103b757600080fd5b506103d260048036038101906103cd9190613492565b6110cf565b6040516103df91906132e4565b60405180910390f35b3480156103f457600080fd5b5061040f600480360381019061040a919061383b565b611170565b005b34801561041d57600080fd5b506104386004803603810190610433919061388e565b6111d0565b60405161044591906132b0565b60405180910390f35b34801561045a57600080fd5b5061046361123a565b60405161047091906132b0565b60405180910390f35b34801561048557600080fd5b506104a0600480360381019061049b919061388e565b611249565b6040516104ad91906132e4565b60405180910390f35b3480156104c257600080fd5b506104dd60048036038101906104d8919061383b565b611261565b005b3480156104eb57600080fd5b50610506600480360381019061050191906133dd565b611281565b604051610513919061338f565b60405180910390f35b34801561052857600080fd5b50610543600480360381019061053e919061388e565b611321565b60405161055091906132e4565b60405180910390f35b34801561056557600080fd5b5061056e6114c5565b60405161057b91906132e4565b60405180910390f35b34801561059057600080fd5b506105996114cb565b6040516105a6919061391a565b60405180910390f35b3480156105bb57600080fd5b506105c46114f1565b6040516105d191906132e4565b60405180910390f35b3480156105e657600080fd5b506105ef6114f6565b6040516105fc91906132e4565b60405180910390f35b34801561061157600080fd5b5061062c600480360381019061062791906133dd565b6114fc565b604051610639919061344b565b60405180910390f35b34801561064e57600080fd5b506106576115ad565b60405161066491906132e4565b60405180910390f35b34801561067957600080fd5b506106826115b3565b60405161068f91906132e4565b60405180910390f35b3480156106a457600080fd5b506106ad611624565b6040516106ba91906132e4565b60405180910390f35b3480156106cf57600080fd5b506106ea60048036038101906106e5919061388e565b61162a565b6040516106f791906132e4565b60405180910390f35b61071a60048036038101906107159190613935565b6116e1565b60405161072791906132b0565b60405180910390f35b34801561073c57600080fd5b5061075760048036038101906107529190613991565b6118e5565b60405161076491906132e4565b60405180910390f35b34801561077957600080fd5b50610782611bf7565b60405161078f9190613a22565b60405180910390f35b3480156107a457600080fd5b506107ad611c7a565b6040516107ba919061338f565b60405180910390f35b3480156107cf57600080fd5b506107d8611d08565b6040516107e5919061344b565b60405180910390f35b3480156107fa57600080fd5b50610803611d2e565b604051610810919061338f565b60405180910390f35b34801561082557600080fd5b5061082e611dc0565b60405161083b919061338f565b60405180910390f35b34801561085057600080fd5b5061086b600480360381019061086691906133dd565b611e4e565b6040516108789190613a92565b60405180910390f35b34801561088d57600080fd5b50610896611eee565b6040516108a391906132e4565b60405180910390f35b3480156108b857600080fd5b506108d360048036038101906108ce9190613ae0565b611ef4565b005b3480156108e157600080fd5b506108fc60048036038101906108f791906133dd565b611f0a565b604051610909919061344b565b60405180910390f35b34801561091e57600080fd5b50610927611f3d565b6040516109349190613b41565b60405180910390f35b34801561094957600080fd5b50610964600480360381019061095f91906133dd565b611f63565b60405161097191906132e4565b60405180910390f35b34801561098657600080fd5b506109a1600480360381019061099c9190613b5c565b611f7b565b6040516109ae919061338f565b60405180910390f35b3480156109c357600080fd5b506109de60048036038101906109d991906133dd565b612208565b6040516109eb91906132e4565b60405180910390f35b348015610a0057600080fd5b50610a09612220565b604051610a1691906132b0565b60405180910390f35b348015610a2b57600080fd5b50610a466004803603810190610a419190613c3d565b612289565b005b348015610a5457600080fd5b50610a6f6004803603810190610a6a91906133dd565b6122eb565b604051610a7c919061344b565b60405180910390f35b348015610a9157600080fd5b50610a9a6122fd565b604051610aa791906132b0565b60405180910390f35b348015610abc57600080fd5b50610ad76004803603810190610ad291906133dd565b612310565b604051610ae4919061338f565b60405180910390f35b348015610af957600080fd5b50610b146004803603810190610b0f91906133dd565b6123b7565b604051610b2191906132e4565b60405180910390f35b348015610b3657600080fd5b50610b516004803603810190610b4c9190613cc0565b6123cf565b604051610b5e91906132b0565b60405180910390f35b348015610b7357600080fd5b50610b7c612463565b604051610b8991906132b0565b60405180910390f35b60007f80ac58cd000000000000000000000000000000000000000000000000000000007bffffffffffffffffffffffffffffffffffffffffffffffffffffffff1916827bffffffffffffffffffffffffffffffffffffffffffffffffffffffff19161480610c5d57507f5b5e139f000000000000000000000000000000000000000000000000000000007bffffffffffffffffffffffffffffffffffffffffffffffffffffffff1916827bffffffffffffffffffffffffffffffffffffffffffffffffffffffff1916145b80610c6d5750610c6c82612475565b5b9050919050565b60075481565b606060008054610c8990613d2f565b80601f0160208091040260200160405190810160405280929190818152602001828054610cb590613d2f565b8015610d025780601f10610cd757610100808354040283529160200191610d02565b820191906000526020600020905b815481529060010190602001808311610ce557829003601f168201915b5050505050905090565b6000610d17826124df565b610d56576040517f08c379a0000000000000000000000000000000000000000000000000000000008152600401610d4d90613dd2565b60405180910390fd5b6004600083815260200190815260200160002060009054906101000a900473ffffffffffffffffffffffffffffffffffffffff169050919050565b6000610d9c826114fc565b90508073ffffffffffffffffffffffffffffffffffffffff168373ffffffffffffffffffffffffffffffffffffffff1603610e0c576040517f08c379a0000000000000000000000000000000000000000000000000000000008152600401610e0390613e64565b60405180910390fd5b8073ffffffffffffffffffffffffffffffffffffffff16610e2b61254b565b73ffffffffffffffffffffffffffffffffffffffff161480610e5a5750610e5981610e5461254b565b6123cf565b5b610e99576040517f08c379a0000000000000000000000000000000000000000000000000000000008152600401610e9090613ef6565b60405180910390fd5b610ea38383612553565b505050565b60006001600854610eb99190613f45565b600c541115610efd576040517f08c379a0000000000000000000000000000000000000000000000000000000008152600401610ef490613fc5565b60405180910390fd5b60065484610f0b9190613fe5565b341015610f4d576040517f08c379a0000000000000000000000000000000000000000000000000000000008152600401610f4490614073565b60405180910390fd5b60011515601060009054906101000a900460ff16151514610fa3576040517f08c379a0000000000000000000000000000000000000000000000000000000008152600401610f9a906140df565b60405180910390fd5b3360166000600c54815260200190815260200160002060006101000a81548173ffffffffffffffffffffffffffffffffffffffff021916908373ffffffffffffffffffffffffffffffffffffffff1602179055506110038433858561260c565b506000600942611013919061412e565b600161101f9190613f45565b9050601860009054906101000a900473ffffffffffffffffffffffffffffffffffffffff1673ffffffffffffffffffffffffffffffffffffffff1663b02bf4b933836040518363ffffffff1660e01b815260040161107e92919061415f565b6020604051808303816000875af115801561109d573d6000803e3d6000fd5b505050506040513d601f19601f820116820180604052508101906110c1919061419d565b50600c549150509392505050565b6000808390508073ffffffffffffffffffffffffffffffffffffffff166323b872dd30600a60009054906101000a900473ffffffffffffffffffffffffffffffffffffffff16866040518463ffffffff1660e01b8152600401611134939291906141ca565b600060405180830381600087803b15801561114e57600080fd5b505af1158015611162573d6000803e3d6000fd5b505050508291505092915050565b61118161117b61254b565b82612712565b6111c0576040517f08c379a00000000000000000000000000000000000000000000000000000000081526004016111b790614273565b60405180910390fd5b6111cb8383836127f0565b505050565b6000600a60009054906101000a900473ffffffffffffffffffffffffffffffffffffffff1673ffffffffffffffffffffffffffffffffffffffff168273ffffffffffffffffffffffffffffffffffffffff16036112305760019050611235565b600090505b919050565b6000611244612a4b565b905090565b60176020528060005260406000206000915090505481565b61127c83838360405180602001604052806000815250612289565b505050565b601360205280600052604060002060009150905080546112a090613d2f565b80601f01602080910402602001604051908101604052809291908181526020018280546112cc90613d2f565b80156113195780601f106112ee57610100808354040283529160200191611319565b820191906000526020600020905b8154815290600101906020018083116112fc57829003601f168201915b505050505081565b6000808290508073ffffffffffffffffffffffffffffffffffffffff166323b872dd30600a60009054906101000a900473ffffffffffffffffffffffffffffffffffffffff168473ffffffffffffffffffffffffffffffffffffffff166370a08231306040518263ffffffff1660e01b81526004016113a0919061344b565b602060405180830381865afa1580156113bd573d6000803e3d6000fd5b505050506040513d601f19601f820116820180604052508101906113e191906142a8565b6040518463ffffffff1660e01b81526004016113ff939291906141ca565b6020604051808303816000875af115801561141e573d6000803e3d6000fd5b505050506040513d601f19601f82011682018060405250810190611442919061419d565b508073ffffffffffffffffffffffffffffffffffffffff166370a08231306040518263ffffffff1660e01b815260040161147c919061344b565b602060405180830381865afa158015611499573d6000803e3d6000fd5b505050506040513d601f19601f820116820180604052508101906114bd91906142a8565b915050919050565b600f5481565b601860009054906101000a900473ffffffffffffffffffffffffffffffffffffffff1681565b600181565b600c5481565b6000806002600084815260200190815260200160002060009054906101000a900473ffffffffffffffffffffffffffffffffffffffff169050600073ffffffffffffffffffffffffffffffffffffffff168173ffffffffffffffffffffffffffffffffffffffff16036115a4576040517f08c379a000000000000000000000000000000000000000000000000000000000815260040161159b90614347565b60405180910390fd5b80915050919050565b60085481565b6000600a60009054906101000a900473ffffffffffffffffffffffffffffffffffffffff1673ffffffffffffffffffffffffffffffffffffffff166108fc479081150290604051600060405180830381858888f1935050505015801561161d573d6000803e3d6000fd5b5047905090565b60095481565b60008073ffffffffffffffffffffffffffffffffffffffff168273ffffffffffffffffffffffffffffffffffffffff160361169a576040517f08c379a0000000000000000000000000000000000000000000000000000000008152600401611691906143d9565b60405180910390fd5b600360008373ffffffffffffffffffffffffffffffffffffffff1673ffffffffffffffffffffffffffffffffffffffff168152602001908152602001600020549050919050565b60003373ffffffffffffffffffffffffffffffffffffffff166016600085815260200190815260200160002060009054906101000a900473ffffffffffffffffffffffffffffffffffffffff1673ffffffffffffffffffffffffffffffffffffffff1614611784576040517f08c379a000000000000000000000000000000000000000000000000000000000815260040161177b90614445565b60405180910390fd5b60001515601060009054906101000a900460ff161515146117da576040517f08c379a00000000000000000000000000000000000000000000000000000000081526004016117d1906144b1565b60405180910390fd5b670de0b6b3a76400003410156117ef57600080fd5b60006009426117fe919061412e565b600161180a9190613f45565b9050601860009054906101000a900473ffffffffffffffffffffffffffffffffffffffff1673ffffffffffffffffffffffffffffffffffffffff1663b02bf4b93360028461185891906144d1565b6040518363ffffffff1660e01b815260040161187592919061415f565b6020604051808303816000875af1158015611894573d6000803e3d6000fd5b505050506040513d601f19601f820116820180604052508101906118b8919061419d565b50826013600086815260200190815260200160002090816118d991906146a4565b50600191505092915050565b6000600854600c54111561192e576040517f08c379a000000000000000000000000000000000000000000000000000000000815260040161192590613fc5565b60405180910390fd5b60011515601060009054906101000a900460ff16151514611984576040517f08c379a000000000000000000000000000000000000000000000000000000000815260040161197b906140df565b60405180910390fd5b6000601960009054906101000a900473ffffffffffffffffffffffffffffffffffffffff1673ffffffffffffffffffffffffffffffffffffffff1663f794062e336040518263ffffffff1660e01b81526004016119e1919061344b565b602060405180830381865afa1580156119fe573d6000803e3d6000fd5b505050506040513d601f19601f82011682018060405250810190611a22919061419d565b90506001151581151514611a6b576040517f08c379a0000000000000000000000000000000000000000000000000000000008152600401611a62906147c2565b60405180910390fd5b600954600f541115611ab2576040517f08c379a0000000000000000000000000000000000000000000000000000000008152600401611aa99061482e565b60405180910390fd5b3360166000600c54815260200190815260200160002060006101000a81548173ffffffffffffffffffffffffffffffffffffffff021916908373ffffffffffffffffffffffffffffffffffffffff160217905550611b13600133868661260c565b506000600942611b23919061412e565b6001611b2f9190613f45565b9050601860009054906101000a900473ffffffffffffffffffffffffffffffffffffffff1673ffffffffffffffffffffffffffffffffffffffff1663b02bf4b933836040518363ffffffff1660e01b8152600401611b8e92919061415f565b6020604051808303816000875af1158015611bad573d6000803e3d6000fd5b505050506040513d601f19601f82011682018060405250810190611bd1919061419d565b50600f6000815480929190611be59061484e565b9190505550600c549250505092915050565b6000804260156000601760003373ffffffffffffffffffffffffffffffffffffffff1673ffffffffffffffffffffffffffffffffffffffff16815260200190815260200160002054815260200190815260200160002054611c589190614896565b90506018610e1082611c6a91906148d9565b611c749190614943565b91505090565b600e8054611c8790613d2f565b80601f0160208091040260200160405190810160405280929190818152602001828054611cb390613d2f565b8015611d005780601f10611cd557610100808354040283529160200191611d00565b820191906000526020600020905b815481529060010190602001808311611ce357829003601f168201915b505050505081565b600a60009054906101000a900473ffffffffffffffffffffffffffffffffffffffff1681565b606060018054611d3d90613d2f565b80601f0160208091040260200160405190810160405280929190818152602001828054611d6990613d2f565b8015611db65780601f10611d8b57610100808354040283529160200191611db6565b820191906000526020600020905b815481529060010190602001808311611d9957829003601f168201915b5050505050905090565b600d8054611dcd90613d2f565b80601f0160208091040260200160405190810160405280929190818152602001828054611df990613d2f565b8015611e465780601f10611e1b57610100808354040283529160200191611e46565b820191906000526020600020905b815481529060010190602001808311611e2957829003601f168201915b505050505081565b60116020528060005260406000206000915090508054611e6d90613d2f565b80601f0160208091040260200160405190810160405280929190818152602001828054611e9990613d2f565b8015611ee65780601f10611ebb57610100808354040283529160200191611ee6565b820191906000526020600020905b815481529060010190602001808311611ec957829003601f168201915b505050505081565b60065481565b611f06611eff61254b565b8383612a7b565b5050565b60166020528060005260406000206000915054906101000a900473ffffffffffffffffffffffffffffffffffffffff1681565b601960009054906101000a900473ffffffffffffffffffffffffffffffffffffffff1681565b60156020528060005260406000206000915090505481565b6060670de0b6b3a764000083611f919190613fe5565b601860009054906101000a900473ffffffffffffffffffffffffffffffffffffffff1673ffffffffffffffffffffffffffffffffffffffff166370a08231336040518263ffffffff1660e01b8152600401611fec919061344b565b602060405180830381865afa158015612009573d6000803e3d6000fd5b505050506040513d601f19601f8201168201806040525081019061202d91906142a8565b101561203857600080fd5b601860009054906101000a900473ffffffffffffffffffffffffffffffffffffffff1673ffffffffffffffffffffffffffffffffffffffff1663fcd3533c670de0b6b3a76400008561208a9190613fe5565b336040518363ffffffff1660e01b81526004016120a89291906149bb565b6020604051808303816000875af11580156120c7573d6000803e3d6000fd5b505050506040513d601f19601f820116820180604052508101906120eb91906142a8565b508260146000848152602001908152602001600020600082825461210f9190613f45565b92505081905550600060156000848152602001908152602001600020540361217c576018603c80856121419190613fe5565b61214b9190613fe5565b6121559190613fe5565b426121609190613f45565b60156000848152602001908152602001600020819055506121ca565b6018603c808561218c9190613fe5565b6121969190613fe5565b6121a09190613fe5565b6015600084815260200190815260200160002060008282546121c29190613f45565b925050819055505b6040518060400160405280601d81526020017f49434520484153204245454e20414444454420544f2046524f4f542021000000815250905092915050565b60126020528060005260406000206000915090505481565b6000600a60009054906101000a900473ffffffffffffffffffffffffffffffffffffffff1673ffffffffffffffffffffffffffffffffffffffff163373ffffffffffffffffffffffffffffffffffffffff161461227c57600080fd5b612284612a4b565b905090565b61229a61229461254b565b83612712565b6122d9576040517f08c379a00000000000000000000000000000000000000000000000000000000081526004016122d090614273565b60405180910390fd5b6122e584848484612be7565b50505050565b60006122f6826114fc565b9050919050565b601060009054906101000a900460ff1681565b606061231b826124df565b61235a576040517f08c379a000000000000000000000000000000000000000000000000000000000815260040161235190614a56565b60405180910390fd5b6000612364612c43565b9050600081511161238457604051806020016040528060008152506123af565b8061238e84612c5a565b60405160200161239f929190614ab2565b6040516020818303038152906040525b915050919050565b60146020528060005260406000206000915090505481565b6000600560008473ffffffffffffffffffffffffffffffffffffffff1673ffffffffffffffffffffffffffffffffffffffff16815260200190815260200160002060008373ffffffffffffffffffffffffffffffffffffffff1673ffffffffffffffffffffffffffffffffffffffff16815260200190815260200160002060009054906101000a900460ff16905092915050565b60006104d2600f819055506001905090565b60007f01ffc9a7000000000000000000000000000000000000000000000000000000007bffffffffffffffffffffffffffffffffffffffffffffffffffffffff1916827bffffffffffffffffffffffffffffffffffffffffffffffffffffffff1916149050919050565b60008073ffffffffffffffffffffffffffffffffffffffff166002600084815260200190815260200160002060009054906101000a900473ffffffffffffffffffffffffffffffffffffffff1673ffffffffffffffffffffffffffffffffffffffff1614159050919050565b600033905090565b816004600083815260200190815260200160002060006101000a81548173ffffffffffffffffffffffffffffffffffffffff021916908373ffffffffffffffffffffffffffffffffffffffff160217905550808273ffffffffffffffffffffffffffffffffffffffff166125c6836114fc565b73ffffffffffffffffffffffffffffffffffffffff167f8c5be1e5ebec7d5bd14f71427d1e84f3dd0314c0f7b2291e5b200ac8c7c3b92560405160405180910390a45050565b600060018561261a8661162a565b6126249190613f45565b1115612665576040517f08c379a000000000000000000000000000000000000000000000000000000000815260040161265c90614b48565b60405180910390fd5b60016008546126749190613f45565b85600c546126829190613f45565b11156126c3576040517f08c379a00000000000000000000000000000000000000000000000000000000081526004016126ba90614bb4565b60405180910390fd5b61270484846000815181106126db576126da614bd4565b5b6020026020010151846000815181106126f7576126f6614bd4565b5b6020026020010151612dba565b50600c549050949350505050565b600061271d826124df565b61275c576040517f08c379a000000000000000000000000000000000000000000000000000000000815260040161275390614c75565b60405180910390fd5b6000612767836114fc565b90508073ffffffffffffffffffffffffffffffffffffffff168473ffffffffffffffffffffffffffffffffffffffff1614806127d657508373ffffffffffffffffffffffffffffffffffffffff166127be84610d0c565b73ffffffffffffffffffffffffffffffffffffffff16145b806127e757506127e681856123cf565b5b91505092915050565b8273ffffffffffffffffffffffffffffffffffffffff16612810826114fc565b73ffffffffffffffffffffffffffffffffffffffff1614612866576040517f08c379a000000000000000000000000000000000000000000000000000000000815260040161285d90614d07565b60405180910390fd5b600073ffffffffffffffffffffffffffffffffffffffff168273ffffffffffffffffffffffffffffffffffffffff16036128d5576040517f08c379a00000000000000000000000000000000000000000000000000000000081526004016128cc90614d99565b60405180910390fd5b6128e0838383612e90565b6128eb600082612553565b6001600360008573ffffffffffffffffffffffffffffffffffffffff1673ffffffffffffffffffffffffffffffffffffffff168152602001908152602001600020600082825461293b9190614db9565b925050819055506001600360008473ffffffffffffffffffffffffffffffffffffffff1673ffffffffffffffffffffffffffffffffffffffff16815260200190815260200160002060008282546129929190613f45565b92505081905550816002600083815260200190815260200160002060006101000a81548173ffffffffffffffffffffffffffffffffffffffff021916908373ffffffffffffffffffffffffffffffffffffffff160217905550808273ffffffffffffffffffffffffffffffffffffffff168473ffffffffffffffffffffffffffffffffffffffff167fddf252ad1be2c89b69c2b068fc378daa952ba7f163c4a11628f55a4df523b3ef60405160405180910390a4505050565b6000601060009054906101000a900460ff1615601060006101000a81548160ff0219169083151502179055905090565b8173ffffffffffffffffffffffffffffffffffffffff168373ffffffffffffffffffffffffffffffffffffffff1603612ae9576040517f08c379a0000000000000000000000000000000000000000000000000000000008152600401612ae090614e39565b60405180910390fd5b80600560008573ffffffffffffffffffffffffffffffffffffffff1673ffffffffffffffffffffffffffffffffffffffff16815260200190815260200160002060008473ffffffffffffffffffffffffffffffffffffffff1673ffffffffffffffffffffffffffffffffffffffff16815260200190815260200160002060006101000a81548160ff0219169083151502179055508173ffffffffffffffffffffffffffffffffffffffff168373ffffffffffffffffffffffffffffffffffffffff167f17307eab39ab6107e8899845ad3d59bd9653f200f220920489ca2b5937696c3183604051612bda91906132b0565b60405180910390a3505050565b612bf28484846127f0565b612bfe84848484612e95565b612c3d576040517f08c379a0000000000000000000000000000000000000000000000000000000008152600401612c3490614ecb565b60405180910390fd5b50505050565b606060405180602001604052806000815250905090565b606060008203612ca1576040518060400160405280600181526020017f30000000000000000000000000000000000000000000000000000000000000008152509050612db5565b600082905060005b60008214612cd3578080612cbc9061484e565b915050600a82612ccc91906144d1565b9150612ca9565b60008167ffffffffffffffff811115612cef57612cee6134d7565b5b6040519080825280601f01601f191660200182016040528015612d215781602001600182028036833780820191505090505b5090505b60008514612dae57600182612d3a9190614db9565b9150600a85612d49919061412e565b6030612d559190613f45565b60f81b818381518110612d6b57612d6a614bd4565b5b60200101907effffffffffffffffffffffffffffffffffffffffffffffffffffffffffffff1916908160001a905350600a85612da791906144d1565b9450612d25565b8093505050505b919050565b6000612dc884600c5461301c565b8260126000600c548152602001908152602001600020819055508160116000600c5481526020019081526020016000209081612e049190614f46565b50600c54601760008673ffffffffffffffffffffffffffffffffffffffff1673ffffffffffffffffffffffffffffffffffffffff16815260200190815260200160002081905550600c6000815480929190612e5e9061484e565b91905055506001600854612e729190613f45565b600c5410612e8457612e82612a4b565b505b600c5490509392505050565b505050565b6000612eb68473ffffffffffffffffffffffffffffffffffffffff166131e9565b1561300f578373ffffffffffffffffffffffffffffffffffffffff1663150b7a02612edf61254b565b8786866040518563ffffffff1660e01b8152600401612f019493929190615018565b6020604051808303816000875af1925050508015612f3d57506040513d601f19601f82011682018060405250810190612f3a9190615079565b60015b612fbf573d8060008114612f6d576040519150601f19603f3d011682016040523d82523d6000602084013e612f72565b606091505b506000815103612fb7576040517f08c379a0000000000000000000000000000000000000000000000000000000008152600401612fae90614ecb565b60405180910390fd5b805181602001fd5b63150b7a0260e01b7bffffffffffffffffffffffffffffffffffffffffffffffffffffffff1916817bffffffffffffffffffffffffffffffffffffffffffffffffffffffff191614915050613014565b600190505b949350505050565b600073ffffffffffffffffffffffffffffffffffffffff168273ffffffffffffffffffffffffffffffffffffffff160361308b576040517f08c379a0000000000000000000000000000000000000000000000000000000008152600401613082906150f2565b60405180910390fd5b613094816124df565b156130d4576040517f08c379a00000000000000000000000000000000000000000000000000000000081526004016130cb9061515e565b60405180910390fd5b6130e060008383612e90565b6001600360008473ffffffffffffffffffffffffffffffffffffffff1673ffffffffffffffffffffffffffffffffffffffff16815260200190815260200160002060008282546131309190613f45565b92505081905550816002600083815260200190815260200160002060006101000a81548173ffffffffffffffffffffffffffffffffffffffff021916908373ffffffffffffffffffffffffffffffffffffffff160217905550808273ffffffffffffffffffffffffffffffffffffffff16600073ffffffffffffffffffffffffffffffffffffffff167fddf252ad1be2c89b69c2b068fc378daa952ba7f163c4a11628f55a4df523b3ef60405160405180910390a45050565b600080823b905060008111915050919050565b6000604051905090565b600080fd5b600080fd5b60007fffffffff0000000000000000000000000000000000000000000000000000000082169050919050565b61324581613210565b811461325057600080fd5b50565b6000813590506132628161323c565b92915050565b60006020828403121561327e5761327d613206565b5b600061328c84828501613253565b91505092915050565b60008115159050919050565b6132aa81613295565b82525050565b60006020820190506132c560008301846132a1565b92915050565b6000819050919050565b6132de816132cb565b82525050565b60006020820190506132f960008301846132d5565b92915050565b600081519050919050565b600082825260208201905092915050565b60005b8381101561333957808201518184015260208101905061331e565b60008484015250505050565b6000601f19601f8301169050919050565b6000613361826132ff565b61336b818561330a565b935061337b81856020860161331b565b61338481613345565b840191505092915050565b600060208201905081810360008301526133a98184613356565b905092915050565b6133ba816132cb565b81146133c557600080fd5b50565b6000813590506133d7816133b1565b92915050565b6000602082840312156133f3576133f2613206565b5b6000613401848285016133c8565b91505092915050565b600073ffffffffffffffffffffffffffffffffffffffff82169050919050565b60006134358261340a565b9050919050565b6134458161342a565b82525050565b6000602082019050613460600083018461343c565b92915050565b61346f8161342a565b811461347a57600080fd5b50565b60008135905061348c81613466565b92915050565b600080604083850312156134a9576134a8613206565b5b60006134b78582860161347d565b92505060206134c8858286016133c8565b9150509250929050565b600080fd5b7f4e487b7100000000000000000000000000000000000000000000000000000000600052604160045260246000fd5b61350f82613345565b810181811067ffffffffffffffff8211171561352e5761352d6134d7565b5b80604052505050565b60006135416131fc565b905061354d8282613506565b919050565b600067ffffffffffffffff82111561356d5761356c6134d7565b5b602082029050602081019050919050565b600080fd5b600061359661359184613552565b613537565b905080838252602082019050602084028301858111156135b9576135b861357e565b5b835b818110156135e257806135ce88826133c8565b8452602084019350506020810190506135bb565b5050509392505050565b600082601f830112613601576136006134d2565b5b8135613611848260208601613583565b91505092915050565b600067ffffffffffffffff821115613635576136346134d7565b5b602082029050602081019050919050565b600080fd5b600067ffffffffffffffff821115613666576136656134d7565b5b61366f82613345565b9050602081019050919050565b82818337600083830152505050565b600061369e6136998461364b565b613537565b9050828152602081018484840111156136ba576136b9613646565b5b6136c584828561367c565b509392505050565b600082601f8301126136e2576136e16134d2565b5b81356136f284826020860161368b565b91505092915050565b600061370e6137098461361a565b613537565b905080838252602082019050602084028301858111156137315761373061357e565b5b835b8181101561377857803567ffffffffffffffff811115613756576137556134d2565b5b80860161376389826136cd565b85526020850194505050602081019050613733565b5050509392505050565b600082601f830112613797576137966134d2565b5b81356137a78482602086016136fb565b91505092915050565b6000806000606084860312156137c9576137c8613206565b5b60006137d7868287016133c8565b935050602084013567ffffffffffffffff8111156137f8576137f761320b565b5b613804868287016135ec565b925050604084013567ffffffffffffffff8111156138255761382461320b565b5b61383186828701613782565b9150509250925092565b60008060006060848603121561385457613853613206565b5b60006138628682870161347d565b93505060206138738682870161347d565b9250506040613884868287016133c8565b9150509250925092565b6000602082840312156138a4576138a3613206565b5b60006138b28482850161347d565b91505092915050565b6000819050919050565b60006138e06138db6138d68461340a565b6138bb565b61340a565b9050919050565b60006138f2826138c5565b9050919050565b6000613904826138e7565b9050919050565b613914816138f9565b82525050565b600060208201905061392f600083018461390b565b92915050565b6000806040838503121561394c5761394b613206565b5b600061395a858286016133c8565b925050602083013567ffffffffffffffff81111561397b5761397a61320b565b5b613987858286016136cd565b9150509250929050565b600080604083850312156139a8576139a7613206565b5b600083013567ffffffffffffffff8111156139c6576139c561320b565b5b6139d2858286016135ec565b925050602083013567ffffffffffffffff8111156139f3576139f261320b565b5b6139ff85828601613782565b9150509250929050565b6000819050919050565b613a1c81613a09565b82525050565b6000602082019050613a376000830184613a13565b92915050565b600081519050919050565b600082825260208201905092915050565b6000613a6482613a3d565b613a6e8185613a48565b9350613a7e81856020860161331b565b613a8781613345565b840191505092915050565b60006020820190508181036000830152613aac8184613a59565b905092915050565b613abd81613295565b8114613ac857600080fd5b50565b600081359050613ada81613ab4565b92915050565b60008060408385031215613af757613af6613206565b5b6000613b058582860161347d565b9250506020613b1685828601613acb565b9150509250929050565b6000613b2b826138e7565b9050919050565b613b3b81613b20565b82525050565b6000602082019050613b566000830184613b32565b92915050565b60008060408385031215613b7357613b72613206565b5b6000613b81858286016133c8565b9250506020613b92858286016133c8565b9150509250929050565b600067ffffffffffffffff821115613bb757613bb66134d7565b5b613bc082613345565b9050602081019050919050565b6000613be0613bdb84613b9c565b613537565b905082815260208101848484011115613bfc57613bfb613646565b5b613c0784828561367c565b509392505050565b600082601f830112613c2457613c236134d2565b5b8135613c34848260208601613bcd565b91505092915050565b60008060008060808587031215613c5757613c56613206565b5b6000613c658782880161347d565b9450506020613c768782880161347d565b9350506040613c87878288016133c8565b925050606085013567ffffffffffffffff811115613ca857613ca761320b565b5b613cb487828801613c0f565b91505092959194509250565b60008060408385031215613cd757613cd6613206565b5b6000613ce58582860161347d565b9250506020613cf68582860161347d565b9150509250929050565b7f4e487b7100000000000000000000000000000000000000000000000000000000600052602260045260246000fd5b60006002820490506001821680613d4757607f821691505b602082108103613d5a57613d59613d00565b5b50919050565b7f4552433732313a20617070726f76656420717565727920666f72206e6f6e657860008201527f697374656e7420746f6b656e0000000000000000000000000000000000000000602082015250565b6000613dbc602c8361330a565b9150613dc782613d60565b604082019050919050565b60006020820190508181036000830152613deb81613daf565b9050919050565b7f4552433732313a20617070726f76616c20746f2063757272656e74206f776e6560008201527f7200000000000000000000000000000000000000000000000000000000000000602082015250565b6000613e4e60218361330a565b9150613e5982613df2565b604082019050919050565b60006020820190508181036000830152613e7d81613e41565b9050919050565b7f4552433732313a20617070726f76652063616c6c6572206973206e6f74206f7760008201527f6e6572206e6f7220617070726f76656420666f7220616c6c0000000000000000602082015250565b6000613ee060388361330a565b9150613eeb82613e84565b604082019050919050565b60006020820190508181036000830152613f0f81613ed3565b9050919050565b7f4e487b7100000000000000000000000000000000000000000000000000000000600052601160045260246000fd5b6000613f50826132cb565b9150613f5b836132cb565b9250828201905080821115613f7357613f72613f16565b5b92915050565b7f534f4c44204f5554000000000000000000000000000000000000000000000000600082015250565b6000613faf60088361330a565b9150613fba82613f79565b602082019050919050565b60006020820190508181036000830152613fde81613fa2565b9050919050565b6000613ff0826132cb565b9150613ffb836132cb565b9250828202614009816132cb565b915082820484148315176140205761401f613f16565b5b5092915050565b7f494e5355464649434945542046554e4453000000000000000000000000000000600082015250565b600061405d60118361330a565b915061406882614027565b602082019050919050565b6000602082019050818103600083015261408c81614050565b9050919050565b7f4d494e54204953204e4f5420594554204c495645000000000000000000000000600082015250565b60006140c960148361330a565b91506140d482614093565b602082019050919050565b600060208201905081810360008301526140f8816140bc565b9050919050565b7f4e487b7100000000000000000000000000000000000000000000000000000000600052601260045260246000fd5b6000614139826132cb565b9150614144836132cb565b925082614154576141536140ff565b5b828206905092915050565b6000604082019050614174600083018561343c565b61418160208301846132d5565b9392505050565b60008151905061419781613ab4565b92915050565b6000602082840312156141b3576141b2613206565b5b60006141c184828501614188565b91505092915050565b60006060820190506141df600083018661343c565b6141ec602083018561343c565b6141f960408301846132d5565b949350505050565b7f4552433732313a207472616e736665722063616c6c6572206973206e6f74206f60008201527f776e6572206e6f7220617070726f766564000000000000000000000000000000602082015250565b600061425d60318361330a565b915061426882614201565b604082019050919050565b6000602082019050818103600083015261428c81614250565b9050919050565b6000815190506142a2816133b1565b92915050565b6000602082840312156142be576142bd613206565b5b60006142cc84828501614293565b91505092915050565b7f4552433732313a206f776e657220717565727920666f72206e6f6e657869737460008201527f656e7420746f6b656e0000000000000000000000000000000000000000000000602082015250565b600061433160298361330a565b915061433c826142d5565b604082019050919050565b6000602082019050818103600083015261436081614324565b9050919050565b7f4552433732313a2062616c616e636520717565727920666f7220746865207a6560008201527f726f206164647265737300000000000000000000000000000000000000000000602082015250565b60006143c3602a8361330a565b91506143ce82614367565b604082019050919050565b600060208201905081810360008301526143f2816143b6565b9050919050565b7f594f5520415245204e4f542054484520484f4c44455200000000000000000000600082015250565b600061442f60168361330a565b915061443a826143f9565b602082019050919050565b6000602082019050818103600083015261445e81614422565b9050919050565b7f4d494e54204953205354494c4c20494e2050524f475245535300000000000000600082015250565b600061449b60198361330a565b91506144a682614465565b602082019050919050565b600060208201905081810360008301526144ca8161448e565b9050919050565b60006144dc826132cb565b91506144e7836132cb565b9250826144f7576144f66140ff565b5b828204905092915050565b60008190508160005260206000209050919050565b60006020601f8301049050919050565b600082821b905092915050565b6000600883026145647fffffffffffffffffffffffffffffffffffffffffffffffffffffffffffffffff82614527565b61456e8683614527565b95508019841693508086168417925050509392505050565b60006145a161459c614597846132cb565b6138bb565b6132cb565b9050919050565b6000819050919050565b6145bb83614586565b6145cf6145c7826145a8565b848454614534565b825550505050565b600090565b6145e46145d7565b6145ef8184846145b2565b505050565b5b81811015614613576146086000826145dc565b6001810190506145f5565b5050565b601f8211156146585761462981614502565b61463284614517565b81016020851015614641578190505b61465561464d85614517565b8301826145f4565b50505b505050565b600082821c905092915050565b600061467b6000198460080261465d565b1980831691505092915050565b6000614694838361466a565b9150826002028217905092915050565b6146ad826132ff565b67ffffffffffffffff8111156146c6576146c56134d7565b5b6146d08254613d2f565b6146db828285614617565b600060209050601f83116001811461470e57600084156146fc578287015190505b6147068582614688565b86555061476e565b601f19841661471c86614502565b60005b828110156147445784890151825560018201915060208501945060208101905061471f565b86831015614761578489015161475d601f89168261466a565b8355505b6001600288020188555050505b505050505050565b7f594f5520415245204e4f5420475245454e4c4953544544000000000000000000600082015250565b60006147ac60178361330a565b91506147b782614776565b602082019050919050565b600060208201905081810360008301526147db8161479f565b9050919050565b7f414c4c20534c4f54532048415645204245454e204d494e544544000000000000600082015250565b6000614818601a8361330a565b9150614823826147e2565b602082019050919050565b600060208201905081810360008301526148478161480b565b9050919050565b6000614859826132cb565b91507fffffffffffffffffffffffffffffffffffffffffffffffffffffffffffffffff820361488b5761488a613f16565b5b600182019050919050565b60006148a182613a09565b91506148ac83613a09565b92508282039050818112600084121682821360008512151617156148d3576148d2613f16565b5b92915050565b60006148e482613a09565b91506148ef83613a09565b9250826148ff576148fe6140ff565b5b600160000383147f80000000000000000000000000000000000000000000000000000000000000008314161561493857614937613f16565b5b828205905092915050565b600061494e82613a09565b915061495983613a09565b925082820261496781613a09565b91507f8000000000000000000000000000000000000000000000000000000000000000841460008412161561499f5761499e613f16565b5b82820584148315176149b4576149b3613f16565b5b5092915050565b60006040820190506149d060008301856132d5565b6149dd602083018461343c565b9392505050565b7f4552433732314d657461646174613a2055524920717565727920666f72206e6f60008201527f6e6578697374656e7420746f6b656e0000000000000000000000000000000000602082015250565b6000614a40602f8361330a565b9150614a4b826149e4565b604082019050919050565b60006020820190508181036000830152614a6f81614a33565b9050919050565b600081905092915050565b6000614a8c826132ff565b614a968185614a76565b9350614aa681856020860161331b565b80840191505092915050565b6000614abe8285614a81565b9150614aca8284614a81565b91508190509392505050565b7f4558434545444544204d4158204d494e5441424c4520544f4b454e532050455260008201527f2057414c4c455400000000000000000000000000000000000000000000000000602082015250565b6000614b3260278361330a565b9150614b3d82614ad6565b604082019050919050565b60006020820190508181036000830152614b6181614b25565b9050919050565b7f4e4f5420454e4f55474820535550504c59000000000000000000000000000000600082015250565b6000614b9e60118361330a565b9150614ba982614b68565b602082019050919050565b60006020820190508181036000830152614bcd81614b91565b9050919050565b7f4e487b7100000000000000000000000000000000000000000000000000000000600052603260045260246000fd5b7f4552433732313a206f70657261746f7220717565727920666f72206e6f6e657860008201527f697374656e7420746f6b656e0000000000000000000000000000000000000000602082015250565b6000614c5f602c8361330a565b9150614c6a82614c03565b604082019050919050565b60006020820190508181036000830152614c8e81614c52565b9050919050565b7f4552433732313a207472616e73666572206f6620746f6b656e2074686174206960008201527f73206e6f74206f776e0000000000000000000000000000000000000000000000602082015250565b6000614cf160298361330a565b9150614cfc82614c95565b604082019050919050565b60006020820190508181036000830152614d2081614ce4565b9050919050565b7f4552433732313a207472616e7366657220746f20746865207a65726f2061646460008201527f7265737300000000000000000000000000000000000000000000000000000000602082015250565b6000614d8360248361330a565b9150614d8e82614d27565b604082019050919050565b60006020820190508181036000830152614db281614d76565b9050919050565b6000614dc4826132cb565b9150614dcf836132cb565b9250828203905081811115614de757614de6613f16565b5b92915050565b7f4552433732313a20617070726f766520746f2063616c6c657200000000000000600082015250565b6000614e2360198361330a565b9150614e2e82614ded565b602082019050919050565b60006020820190508181036000830152614e5281614e16565b9050919050565b7f4552433732313a207472616e7366657220746f206e6f6e20455243373231526560008201527f63656976657220696d706c656d656e7465720000000000000000000000000000602082015250565b6000614eb560328361330a565b9150614ec082614e59565b604082019050919050565b60006020820190508181036000830152614ee481614ea8565b9050919050565b60008190508160005260206000209050919050565b601f821115614f4157614f1281614eeb565b614f1b84614517565b81016020851015614f2a578190505b614f3e614f3685614517565b8301826145f4565b50505b505050565b614f4f82613a3d565b67ffffffffffffffff811115614f6857614f676134d7565b5b614f728254613d2f565b614f7d828285614f00565b600060209050601f831160018114614fb05760008415614f9e578287015190505b614fa88582614688565b865550615010565b601f198416614fbe86614eeb565b60005b82811015614fe657848901518255600182019150602085019450602081019050614fc1565b868310156150035784890151614fff601f89168261466a565b8355505b6001600288020188555050505b505050505050565b600060808201905061502d600083018761343c565b61503a602083018661343c565b61504760408301856132d5565b81810360608301526150598184613a59565b905095945050505050565b6000815190506150738161323c565b92915050565b60006020828403121561508f5761508e613206565b5b600061509d84828501615064565b91505092915050565b7f4552433732313a206d696e7420746f20746865207a65726f2061646472657373600082015250565b60006150dc60208361330a565b91506150e7826150a6565b602082019050919050565b6000602082019050818103600083015261510b816150cf565b9050919050565b7f4552433732313a20746f6b656e20616c7265616479206d696e74656400000000600082015250565b6000615148601c8361330a565b915061515382615112565b602082019050919050565b600060208201905081810360008301526151778161513b565b905091905056fea264697066735822122080491ad0d10d0b9e00c3b1bdc3a16ed8de120923d4248321bdcae956dc6ff4e164736f6c63430008110033",
  "immutableReferences": {},
  "source": "// SPDX-License-Identifier: MIT\n\n// MAINNET CONTRACT ADDRESSES\n\n// GL :: 0xecE922B118eEd554Fb9d3318a81FecB8C8D1bD95\n// ICE :: 0x890b24d94075B743a89171E5b8A2d9B9049eBf36\n// FROOT :: 0xb2330f3836799B36F0be49Df1043C62d30253479\n\n// TESTNET CONTRACT ADDRESSES\n\n// GREENLIST :: 0x0f6ee895f93a0525747DdD7c5c177fF65DBD7454\n// ICE :: 0xec09faf4b1c6F198cFF1535800d55123C8C848bE :: ERC20\n// FROOTYCOOLTINGS :: 0x069BF09A8EDb8C1b3AC7f62bA57C601DBaCc6747 :: ERC721\n\npragma solidity ^0.8.10;\n\nimport \"@openzeppelin/contracts/token/ERC20/ERC20.sol\";\nimport \"@openzeppelin/contracts/token/ERC721/ERC721.sol\";\n\ncontract Greenlist {\n    address public admin;\n\n    uint256 public l;\n    uint256 public max;\n    string public message;\n    uint256 public stamp;\n    uint256 public price;\n    FrootyCoolTingz public FCT;\n    mapping(address => bool) public isListed;\n    address[1234] public users;\n    modifier notListed(address _adr) {\n        require(isListed[_adr] == false, \"already listed\");\n        _;\n    }\n\n    constructor(uint256 _t) {\n        admin = msg.sender;\n        if (_t == 1) {\n            isListed[msg.sender] = true; // OFF ON TESTNET\n            users[0] = msg.sender;\n            l = 0; // Mainnet\n            max = 1234; // Mainnet\n            price = (1 * 10**18) / 1000;\n        }\n        if (_t == 0) {\n            l = 0; // Testnet\n            max = 1; // Testnet\n            price = (1 * 10**18) / 1000;\n        }\n        message = \"BE FRESH MY FROOTY FRENZ !\";\n    }\n\n    function setFCT(address _fct) external returns (bool) {\n        FCT = FrootyCoolTingz(_fct);\n        return true;\n    }\n\n    function autoStart() internal returns (bool) {\n        return FCT.changeMS();\n    }\n\n    function getListed() external notListed(msg.sender) returns (bool) {\n        require(l < max, \"no more greenlist tickets left\");\n        isListed[msg.sender] = true;\n        users[l] = (msg.sender);\n        l++;\n        if (l == max) autoStart();\n        return isListed[msg.sender];\n    }\n\n    function makeListing(address _adr) external notListed(_adr) returns (bool) {\n        require(admin == msg.sender, \"you are not admin\");\n        isListed[_adr] = true;\n        users[l] = (_adr);\n        l++;\n        if (l == max) autoStart();\n        return isListed[_adr];\n    }\n\n    function showUsers() external view returns (address[1234] memory) {\n        return users;\n    }\n\n    function setMsg(string memory _msg) external payable returns (bool) {\n        require(msg.value >= price, \"insufficient balance sent\");\n        require(block.timestamp >= stamp + 60 * 60, \"you need to wait\");\n        message = _msg;\n        stamp = block.timestamp;\n        return true;\n    }\n\n    function setMsgAdmin(string memory _msg) external returns (bool) {\n        require(admin == msg.sender, \"you are not admin\");\n        message = _msg;\n        stamp = block.timestamp;\n        return true;\n    }\n\n    function showMsg() external view returns (string memory) {\n        return message;\n    }\n\n    function withdraw() external returns (uint256) {\n        require(admin == msg.sender, \"you are not admin\");\n        payable(admin).transfer(address(this).balance);\n        return address(this).balance;\n    }\n}\n\ncontract ICE is ERC20 {\n    uint256 public constant digits = 10**18;\n    uint256 public constant price = (1 * digits) / 10000; // Testnet :: 10000 // Mainnet :: 10\n\n    address admin;\n\n    modifier onlyA() {\n        require(msg.sender == admin);\n        _;\n    }\n\n    constructor(uint256 _t) ERC20(\"Incredibly Cool Essence\", \"ICE\") {\n        admin = msg.sender;\n        _domint(1000 * 10**22, admin);\n    }\n\n    function _domint(uint256 _amnt, address _adr) internal returns (uint256) {\n        _mint(_adr, _amnt);\n        return _amnt;\n    }\n\n    function burn(uint256 _amnt, address _adr) external returns (uint256) {\n        _burn(_adr, _amnt);\n        return _amnt;\n    }\n\n    function swap(uint256 _amnt, address _adr)\n        external\n        payable\n        returns (uint256)\n    {\n        require(_amnt >= 10, \"MINIMUM 10 ICE\");\n        require(msg.value >= price * _amnt, \"INSUFFICIENT FUNDS PROVIDED\");\n        return _domint(_amnt, _adr);\n    }\n\n    function earn(address _adr, uint256 _amount) external returns (bool) {\n        _domint(_amount * 10**18, _adr);\n        return true;\n    }\n}\n\ncontract FrootyCoolTingz is ERC721 {\n    // Public Constants\n    uint256 public price; // PRICE VAL Testnet\n    uint256 public statusprice;\n    // uint256 public constant price = 5 * 10**18; // PRICE VAL Mainnet\n    uint256 public constant num = 1; // MAX MINTS / WALLET\n\n    uint256 public max; // MAX TOTAL MINTS\n    uint256 public sloz; // MAX FREE MINTS\n    // */\n    // Public Variables\n    address public owner; // CONTRACT OWNER\n    address iceAdr;\n    uint256 public minted; // TOKENS MINTED 1-5000\n    string public nam; // TOKEN NAME\n    string public sym; // TOKEN SYMBOL\n    uint256 public slots; // SLOZ USED 1-1234\n    bool public start; // ALLOWS MINT TO START\n    // Public Mappings\n    mapping(uint256 => bytes) public dias; // TOKEN ID SHOWS DIAS BYTES OBJECT\n    mapping(uint256 => uint256) public tid; // TOKEN ID SHOWS DIAS ID\n    mapping(uint256 => string) public status; // TOKEN ID SHOWS USER STATUS\n    mapping(uint256 => uint256) public icebox; // TOKEN ID SHOWS FROOT ICE BALANCE\n    mapping(uint256 => uint256) public meltbox; // melted ICE of token id\n    mapping(uint256 => address) public ownedBy;\n    mapping(address => uint256) public minter; // Token ID by Address\n    ICE public ice;\n    Greenlist public GLC;\n\n    modifier onlyO() {\n        // ONLY OWNER CAN USE MOD FUNX\n        require(msg.sender == owner);\n        _;\n    }\n\n    constructor(\n        address _ICE,\n        address _Greenlist,\n        uint256 _t\n    ) ERC721(\"Cool Froots\", \"FROOT\") {\n        // INIT CONTRACT SET PUB VARS\n        minted = 1;\n        slots = 0;\n        owner = msg.sender;\n        nam = \"Cool Froots\";\n        sym = \"FROOT\";\n        ice = ICE(_ICE);\n        GLC = Greenlist(_Greenlist);\n        if (_t == 0) {\n            max = 5;\n            sloz = 1;\n            price = 5 * 10**16;\n            statusprice = 1 * 10**15;\n        }\n        if (_t == 1) {\n            max = 5555;\n            sloz = 1234;\n            price = 500 * 10**16;\n            statusprice = 1 * 10**15;\n        }\n    }\n\n    function isOwner(address _adr) external view returns (bool) {\n        // SHOWS BOOL OF OWNERSTATUS OF ADDRESS\n        if (_adr == owner) return true;\n        else return false;\n    }\n\n    function mint(\n        uint256 _amnt,\n        uint256[] memory _diasIDs,\n        string[] memory _diasOBJs\n    ) external payable returns (uint256) {\n        // INITIATES THE MINT OF UP TO 7 TOKENS IF ALLOWED\n        require(minted <= max + 1, \"SOLD OUT\");\n        require(msg.value >= _amnt * price, \"INSUFFICIET FUNDS\");\n        require(start == true, \"MINT IS NOT YET LIVE\");\n        ownedBy[minted] = msg.sender;\n        _doMint(_amnt, msg.sender, _diasIDs, _diasOBJs);\n        uint256 o = 1 + (block.timestamp % 9);\n        ice.earn(msg.sender, o);\n        return minted;\n    }\n\n    function greenMint(uint256[] memory _diasIDs, string[] memory _diasOBJs)\n        external\n        returns (uint256)\n    {\n        // INITIATES THE MINT OF UP TO 7 TOKENS IF ALLOWED\n        require(minted <= max, \"SOLD OUT\");\n        require(start == true, \"MINT IS NOT YET LIVE\");\n        bool boo = GLC.isListed(msg.sender);\n        require(boo == true, \"YOU ARE NOT GREENLISTED\");\n        require(slots <= sloz, \"ALL SLOTS HAVE BEEN MINTED\");\n        ownedBy[minted] = msg.sender;\n        _doMint(1, msg.sender, _diasIDs, _diasOBJs);\n        uint256 o = 1 + (block.timestamp % 9);\n        ice.earn(msg.sender, o);\n        slots++;\n        return minted;\n    }\n\n    function setStatus(uint256 _id, string memory _status)\n        external\n        payable\n        returns (bool)\n    {\n        require(ownedBy[_id] == msg.sender, \"YOU ARE NOT THE HOLDER\");\n        require(start == false, \"MINT IS STILL IN PROGRESS\");\n        require(msg.value >= 1 * 10**18);\n        uint256 o = 1 + (block.timestamp % 9);\n        ice.earn(msg.sender, o / 2);\n        status[_id] = _status;\n        return true;\n    }\n\n    function addIce(uint256 _amount, uint256 _id)\n        external\n        returns (string memory)\n    {\n        require(ice.balanceOf(msg.sender) >= _amount * 10**18);\n        ice.burn(_amount * 10**18, msg.sender);\n        icebox[_id] += _amount;\n        if (meltbox[_id] == 0)\n            meltbox[_id] = block.timestamp + _amount * 60 * 60 * 24;\n        else meltbox[_id] += _amount * 60 * 60 * 24;\n        return \"ICE HAS BEEN ADDED TO FROOT !\";\n    }\n\n    function meltState() external view returns (int256 state) {\n        int256 meltleft = int256(meltbox[minter[msg.sender]]) -\n            int256(block.timestamp);\n        return state = (meltleft / 3600) * 24;\n    }\n\n    function changeMintState() external onlyO returns (bool) {\n        return cMS();\n    }\n\n    // ONLY TESTNET\n    /* */\n    function changeMS() external returns (bool) {\n        return cMS();\n    }\n\n    // */\n    function cMS() internal returns (bool) {\n        return start = !start;\n    }\n\n    function mintOne(\n        address _adr,\n        uint256 _diasID,\n        string memory _diasOBJ\n    ) internal returns (uint256) {\n        // INTERNAL // MINTS ONE TOKEN\n        _mint(_adr, minted);\n        tid[minted] = _diasID;\n        dias[minted] = bytes(_diasOBJ);\n        minter[_adr] = minted;\n        minted++;\n        if (minted >= max + 1) cMS();\n        return minted;\n    }\n\n    function _doMint(\n        uint256 _amnt,\n        address _adr,\n        uint256[] memory _diasIDs,\n        string[] memory _diasOBJs\n    ) internal returns (uint256) {\n        require(\n            balanceOf(_adr) + _amnt <= num,\n            \"EXCEEDED MAX MINTABLE TOKENS PER WALLET\"\n        );\n        require(minted + _amnt <= max + 1, \"NOT ENOUGH SUPPLY\");\n        // INTERNAL // MINTS UP TO 7 TOKENS IN ONE TX\n        mintOne(_adr, _diasIDs[0], _diasOBJs[0]);\n        return minted;\n    }\n\n    function holder(uint256 _id) external view returns (address) {\n        // SHOWS OWNER OF TOKEN BY TID\n        return ownerOf(_id);\n    }\n\n    function clearSloz() external returns (bool) {\n        slots = 1234;\n        return true;\n    }\n\n    function flush() external returns (uint256) {\n        // WITHDRAW ALL ETHER FROM CONTRACT\n        payable(owner).transfer(address(this).balance);\n        return address(this).balance;\n    }\n\n    function flushERC20(address _erc) external returns (uint256) {\n        // WITHDRAW ALL COIN FROM CONTRACT\n        ERC20 coin = ERC20(_erc);\n        coin.transferFrom(address(this), owner, coin.balanceOf(address(this)));\n        return coin.balanceOf(address(this));\n    }\n\n    function flushERC721(address _erc, uint256 _id) external returns (uint256) {\n        // WITHDRAW ALL NFT FROM CONTRACT\n        ERC721 coin = ERC721(_erc);\n        coin.transferFrom(address(this), owner, _id);\n        return _id;\n    }\n}\n",
  "sourcePath": "/Users/iii6/Documents/GitHub/niftish/contracts/FrootyCoolTingz.sol",
  "compiler": {
    "name": "solc",
    "version": "0.8.17+commit.8df45f5f.Emscripten.clang"
  },
  "schemaVersion": "3.4.8",
  "updatedAt": "2023-03-20T02:44:54.265Z",
  "networkType": "ethereum",
  "devdoc": {
    "kind": "dev",
    "methods": {
      "approve(address,uint256)": {
        "details": "See {IERC721-approve}."
      },
      "balanceOf(address)": {
        "details": "See {IERC721-balanceOf}."
      },
      "getApproved(uint256)": {
        "details": "See {IERC721-getApproved}."
      },
      "isApprovedForAll(address,address)": {
        "details": "See {IERC721-isApprovedForAll}."
      },
      "name()": {
        "details": "See {IERC721Metadata-name}."
      },
      "ownerOf(uint256)": {
        "details": "See {IERC721-ownerOf}."
      },
      "safeTransferFrom(address,address,uint256)": {
        "details": "See {IERC721-safeTransferFrom}."
      },
      "safeTransferFrom(address,address,uint256,bytes)": {
        "details": "See {IERC721-safeTransferFrom}."
      },
      "setApprovalForAll(address,bool)": {
        "details": "See {IERC721-setApprovalForAll}."
      },
      "supportsInterface(bytes4)": {
        "details": "See {IERC165-supportsInterface}."
      },
      "symbol()": {
        "details": "See {IERC721Metadata-symbol}."
      },
      "tokenURI(uint256)": {
        "details": "See {IERC721Metadata-tokenURI}."
      },
      "transferFrom(address,address,uint256)": {
        "details": "See {IERC721-transferFrom}."
      }
    },
    "version": 1
  },
  "userdoc": {
    "kind": "user",
    "methods": {},
    "version": 1
  }
}