{
  "contractName": "FrootyCoolTingz",
  "abi": [
    {
      "inputs": [
        {
          "internalType": "address",
          "name": "_ICE",
          "type": "address"
        },
        {
          "internalType": "address",
          "name": "_Greenlist",
          "type": "address"
        },
        {
          "internalType": "uint256",
          "name": "_t",
          "type": "uint256"
        }
      ],
      "stateMutability": "nonpayable",
      "type": "constructor"
    },
    {
      "anonymous": false,
      "inputs": [
        {
          "indexed": true,
          "internalType": "address",
          "name": "owner",
          "type": "address"
        },
        {
          "indexed": true,
          "internalType": "address",
          "name": "approved",
          "type": "address"
        },
        {
          "indexed": true,
          "internalType": "uint256",
          "name": "tokenId",
          "type": "uint256"
        }
      ],
      "name": "Approval",
      "type": "event"
    },
    {
      "anonymous": false,
      "inputs": [
        {
          "indexed": true,
          "internalType": "address",
          "name": "owner",
          "type": "address"
        },
        {
          "indexed": true,
          "internalType": "address",
          "name": "operator",
          "type": "address"
        },
        {
          "indexed": false,
          "internalType": "bool",
          "name": "approved",
          "type": "bool"
        }
      ],
      "name": "ApprovalForAll",
      "type": "event"
    },
    {
      "anonymous": false,
      "inputs": [
        {
          "indexed": true,
          "internalType": "address",
          "name": "from",
          "type": "address"
        },
        {
          "indexed": true,
          "internalType": "address",
          "name": "to",
          "type": "address"
        },
        {
          "indexed": true,
          "internalType": "uint256",
          "name": "tokenId",
          "type": "uint256"
        }
      ],
      "name": "Transfer",
      "type": "event"
    },
    {
      "inputs": [],
      "name": "GLC",
      "outputs": [
        {
          "internalType": "contract Greenlist",
          "name": "",
          "type": "address"
        }
      ],
      "stateMutability": "view",
      "type": "function",
      "constant": true
    },
    {
      "inputs": [
        {
          "internalType": "address",
          "name": "to",
          "type": "address"
        },
        {
          "internalType": "uint256",
          "name": "tokenId",
          "type": "uint256"
        }
      ],
      "name": "approve",
      "outputs": [],
      "stateMutability": "nonpayable",
      "type": "function"
    },
    {
      "inputs": [
        {
          "internalType": "address",
          "name": "owner",
          "type": "address"
        }
      ],
      "name": "balanceOf",
      "outputs": [
        {
          "internalType": "uint256",
          "name": "",
          "type": "uint256"
        }
      ],
      "stateMutability": "view",
      "type": "function",
      "constant": true
    },
    {
      "inputs": [
        {
          "internalType": "uint256",
          "name": "",
          "type": "uint256"
        }
      ],
      "name": "dias",
      "outputs": [
        {
          "internalType": "bytes",
          "name": "",
          "type": "bytes"
        }
      ],
      "stateMutability": "view",
      "type": "function",
      "constant": true
    },
    {
      "inputs": [],
      "name": "digits",
      "outputs": [
        {
          "internalType": "uint256",
          "name": "",
          "type": "uint256"
        }
      ],
      "stateMutability": "view",
      "type": "function",
      "constant": true
    },
    {
      "inputs": [
        {
          "internalType": "uint256",
          "name": "tokenId",
          "type": "uint256"
        }
      ],
      "name": "getApproved",
      "outputs": [
        {
          "internalType": "address",
          "name": "",
          "type": "address"
        }
      ],
      "stateMutability": "view",
      "type": "function",
      "constant": true
    },
    {
      "inputs": [],
      "name": "ice",
      "outputs": [
        {
          "internalType": "contract ICE",
          "name": "",
          "type": "address"
        }
      ],
      "stateMutability": "view",
      "type": "function",
      "constant": true
    },
    {
      "inputs": [
        {
          "internalType": "uint256",
          "name": "",
          "type": "uint256"
        }
      ],
      "name": "icebox",
      "outputs": [
        {
          "internalType": "uint256",
          "name": "",
          "type": "uint256"
        }
      ],
      "stateMutability": "view",
      "type": "function",
      "constant": true
    },
    {
      "inputs": [
        {
          "internalType": "address",
          "name": "owner",
          "type": "address"
        },
        {
          "internalType": "address",
          "name": "operator",
          "type": "address"
        }
      ],
      "name": "isApprovedForAll",
      "outputs": [
        {
          "internalType": "bool",
          "name": "",
          "type": "bool"
        }
      ],
      "stateMutability": "view",
      "type": "function",
      "constant": true
    },
    {
      "inputs": [],
      "name": "max",
      "outputs": [
        {
          "internalType": "uint256",
          "name": "",
          "type": "uint256"
        }
      ],
      "stateMutability": "view",
      "type": "function",
      "constant": true
    },
    {
      "inputs": [
        {
          "internalType": "uint256",
          "name": "",
          "type": "uint256"
        }
      ],
      "name": "meltbox",
      "outputs": [
        {
          "internalType": "uint256",
          "name": "",
          "type": "uint256"
        }
      ],
      "stateMutability": "view",
      "type": "function",
      "constant": true
    },
    {
      "inputs": [],
      "name": "minted",
      "outputs": [
        {
          "internalType": "uint256",
          "name": "",
          "type": "uint256"
        }
      ],
      "stateMutability": "view",
      "type": "function",
      "constant": true
    },
    {
      "inputs": [
        {
          "internalType": "address",
          "name": "",
          "type": "address"
        }
      ],
      "name": "minter",
      "outputs": [
        {
          "internalType": "uint256",
          "name": "",
          "type": "uint256"
        }
      ],
      "stateMutability": "view",
      "type": "function",
      "constant": true
    },
    {
      "inputs": [],
      "name": "nam",
      "outputs": [
        {
          "internalType": "string",
          "name": "",
          "type": "string"
        }
      ],
      "stateMutability": "view",
      "type": "function",
      "constant": true
    },
    {
      "inputs": [],
      "name": "name",
      "outputs": [
        {
          "internalType": "string",
          "name": "",
          "type": "string"
        }
      ],
      "stateMutability": "view",
      "type": "function",
      "constant": true
    },
    {
      "inputs": [],
      "name": "num",
      "outputs": [
        {
          "internalType": "uint256",
          "name": "",
          "type": "uint256"
        }
      ],
      "stateMutability": "view",
      "type": "function",
      "constant": true
    },
    {
      "inputs": [
        {
          "internalType": "uint256",
          "name": "",
          "type": "uint256"
        }
      ],
      "name": "ownedBy",
      "outputs": [
        {
          "internalType": "address",
          "name": "",
          "type": "address"
        }
      ],
      "stateMutability": "view",
      "type": "function",
      "constant": true
    },
    {
      "inputs": [],
      "name": "owner",
      "outputs": [
        {
          "internalType": "address",
          "name": "",
          "type": "address"
        }
      ],
      "stateMutability": "view",
      "type": "function",
      "constant": true
    },
    {
      "inputs": [
        {
          "internalType": "uint256",
          "name": "tokenId",
          "type": "uint256"
        }
      ],
      "name": "ownerOf",
      "outputs": [
        {
          "internalType": "address",
          "name": "",
          "type": "address"
        }
      ],
      "stateMutability": "view",
      "type": "function",
      "constant": true
    },
    {
      "inputs": [],
      "name": "price",
      "outputs": [
        {
          "internalType": "uint256",
          "name": "",
          "type": "uint256"
        }
      ],
      "stateMutability": "view",
      "type": "function",
      "constant": true
    },
    {
      "inputs": [
        {
          "internalType": "address",
          "name": "from",
          "type": "address"
        },
        {
          "internalType": "address",
          "name": "to",
          "type": "address"
        },
        {
          "internalType": "uint256",
          "name": "tokenId",
          "type": "uint256"
        }
      ],
      "name": "safeTransferFrom",
      "outputs": [],
      "stateMutability": "nonpayable",
      "type": "function"
    },
    {
      "inputs": [
        {
          "internalType": "address",
          "name": "from",
          "type": "address"
        },
        {
          "internalType": "address",
          "name": "to",
          "type": "address"
        },
        {
          "internalType": "uint256",
          "name": "tokenId",
          "type": "uint256"
        },
        {
          "internalType": "bytes",
          "name": "_data",
          "type": "bytes"
        }
      ],
      "name": "safeTransferFrom",
      "outputs": [],
      "stateMutability": "nonpayable",
      "type": "function"
    },
    {
      "inputs": [
        {
          "internalType": "address",
          "name": "operator",
          "type": "address"
        },
        {
          "internalType": "bool",
          "name": "approved",
          "type": "bool"
        }
      ],
      "name": "setApprovalForAll",
      "outputs": [],
      "stateMutability": "nonpayable",
      "type": "function"
    },
    {
      "inputs": [],
      "name": "slots",
      "outputs": [
        {
          "internalType": "uint256",
          "name": "",
          "type": "uint256"
        }
      ],
      "stateMutability": "view",
      "type": "function",
      "constant": true
    },
    {
      "inputs": [],
      "name": "sloz",
      "outputs": [
        {
          "internalType": "uint256",
          "name": "",
          "type": "uint256"
        }
      ],
      "stateMutability": "view",
      "type": "function",
      "constant": true
    },
    {
      "inputs": [],
      "name": "start",
      "outputs": [
        {
          "internalType": "bool",
          "name": "",
          "type": "bool"
        }
      ],
      "stateMutability": "view",
      "type": "function",
      "constant": true
    },
    {
      "inputs": [
        {
          "internalType": "uint256",
          "name": "",
          "type": "uint256"
        }
      ],
      "name": "status",
      "outputs": [
        {
          "internalType": "string",
          "name": "",
          "type": "string"
        }
      ],
      "stateMutability": "view",
      "type": "function",
      "constant": true
    },
    {
      "inputs": [],
      "name": "statusprice",
      "outputs": [
        {
          "internalType": "uint256",
          "name": "",
          "type": "uint256"
        }
      ],
      "stateMutability": "view",
      "type": "function",
      "constant": true
    },
    {
      "inputs": [
        {
          "internalType": "bytes4",
          "name": "interfaceId",
          "type": "bytes4"
        }
      ],
      "name": "supportsInterface",
      "outputs": [
        {
          "internalType": "bool",
          "name": "",
          "type": "bool"
        }
      ],
      "stateMutability": "view",
      "type": "function",
      "constant": true
    },
    {
      "inputs": [],
      "name": "sym",
      "outputs": [
        {
          "internalType": "string",
          "name": "",
          "type": "string"
        }
      ],
      "stateMutability": "view",
      "type": "function",
      "constant": true
    },
    {
      "inputs": [],
      "name": "symbol",
      "outputs": [
        {
          "internalType": "string",
          "name": "",
          "type": "string"
        }
      ],
      "stateMutability": "view",
      "type": "function",
      "constant": true
    },
    {
      "inputs": [
        {
          "internalType": "uint256",
          "name": "",
          "type": "uint256"
        }
      ],
      "name": "tid",
      "outputs": [
        {
          "internalType": "uint256",
          "name": "",
          "type": "uint256"
        }
      ],
      "stateMutability": "view",
      "type": "function",
      "constant": true
    },
    {
      "inputs": [
        {
          "internalType": "uint256",
          "name": "tokenId",
          "type": "uint256"
        }
      ],
      "name": "tokenURI",
      "outputs": [
        {
          "internalType": "string",
          "name": "",
          "type": "string"
        }
      ],
      "stateMutability": "view",
      "type": "function",
      "constant": true
    },
    {
      "inputs": [
        {
          "internalType": "address",
          "name": "from",
          "type": "address"
        },
        {
          "internalType": "address",
          "name": "to",
          "type": "address"
        },
        {
          "internalType": "uint256",
          "name": "tokenId",
          "type": "uint256"
        }
      ],
      "name": "transferFrom",
      "outputs": [],
      "stateMutability": "nonpayable",
      "type": "function"
    },
    {
      "inputs": [
        {
          "internalType": "address",
          "name": "_adr",
          "type": "address"
        }
      ],
      "name": "isOwner",
      "outputs": [
        {
          "internalType": "bool",
          "name": "",
          "type": "bool"
        }
      ],
      "stateMutability": "view",
      "type": "function",
      "constant": true
    },
    {
      "inputs": [
        {
          "internalType": "uint256",
          "name": "_amnt",
          "type": "uint256"
        },
        {
          "internalType": "uint256[]",
          "name": "_diasIDs",
          "type": "uint256[]"
        },
        {
          "internalType": "string[]",
          "name": "_diasOBJs",
          "type": "string[]"
        }
      ],
      "name": "mint",
      "outputs": [
        {
          "internalType": "uint256",
          "name": "",
          "type": "uint256"
        }
      ],
      "stateMutability": "payable",
      "type": "function",
      "payable": true
    },
    {
      "inputs": [
        {
          "internalType": "uint256[]",
          "name": "_diasIDs",
          "type": "uint256[]"
        },
        {
          "internalType": "string[]",
          "name": "_diasOBJs",
          "type": "string[]"
        }
      ],
      "name": "greenMint",
      "outputs": [
        {
          "internalType": "uint256",
          "name": "",
          "type": "uint256"
        }
      ],
      "stateMutability": "nonpayable",
      "type": "function"
    },
    {
      "inputs": [
        {
          "internalType": "uint256",
          "name": "_id",
          "type": "uint256"
        },
        {
          "internalType": "string",
          "name": "_status",
          "type": "string"
        }
      ],
      "name": "setStatus",
      "outputs": [
        {
          "internalType": "bool",
          "name": "",
          "type": "bool"
        }
      ],
      "stateMutability": "payable",
      "type": "function",
      "payable": true
    },
    {
      "inputs": [
        {
          "internalType": "uint256",
          "name": "_amount",
          "type": "uint256"
        },
        {
          "internalType": "uint256",
          "name": "_id",
          "type": "uint256"
        }
      ],
      "name": "addIce",
      "outputs": [
        {
          "internalType": "string",
          "name": "",
          "type": "string"
        }
      ],
      "stateMutability": "nonpayable",
      "type": "function"
    },
    {
      "inputs": [],
      "name": "meltState",
      "outputs": [
        {
          "internalType": "int256",
          "name": "state",
          "type": "int256"
        }
      ],
      "stateMutability": "view",
      "type": "function",
      "constant": true
    },
    {
      "inputs": [],
      "name": "changeMintState",
      "outputs": [
        {
          "internalType": "bool",
          "name": "",
          "type": "bool"
        }
      ],
      "stateMutability": "nonpayable",
      "type": "function"
    },
    {
      "inputs": [],
      "name": "changeMS",
      "outputs": [
        {
          "internalType": "bool",
          "name": "",
          "type": "bool"
        }
      ],
      "stateMutability": "nonpayable",
      "type": "function"
    },
    {
      "inputs": [
        {
          "internalType": "uint256",
          "name": "_id",
          "type": "uint256"
        }
      ],
      "name": "holder",
      "outputs": [
        {
          "internalType": "address",
          "name": "",
          "type": "address"
        }
      ],
      "stateMutability": "view",
      "type": "function",
      "constant": true
    },
    {
      "inputs": [],
      "name": "clearSloz",
      "outputs": [
        {
          "internalType": "bool",
          "name": "",
          "type": "bool"
        }
      ],
      "stateMutability": "nonpayable",
      "type": "function"
    },
    {
      "inputs": [],
      "name": "flush",
      "outputs": [
        {
          "internalType": "uint256",
          "name": "",
          "type": "uint256"
        }
      ],
      "stateMutability": "nonpayable",
      "type": "function"
    },
    {
      "inputs": [
        {
          "internalType": "address",
          "name": "_erc",
          "type": "address"
        }
      ],
      "name": "flushERC20",
      "outputs": [
        {
          "internalType": "uint256",
          "name": "",
          "type": "uint256"
        }
      ],
      "stateMutability": "nonpayable",
      "type": "function"
    },
    {
      "inputs": [
        {
          "internalType": "address",
          "name": "_erc",
          "type": "address"
        },
        {
          "internalType": "uint256",
          "name": "_id",
          "type": "uint256"
        }
      ],
      "name": "flushERC721",
      "outputs": [
        {
          "internalType": "uint256",
          "name": "",
          "type": "uint256"
        }
      ],
      "stateMutability": "nonpayable",
      "type": "function"
    }
  ],
  "bytecode": "0x60806040523480156200001157600080fd5b5060405162005bde38038062005bde8339818101604052810190620000379190620004f2565b6040518060400160405280600b81526020017f436f6f6c2046726f6f74730000000000000000000000000000000000000000008152506040518060400160405280600581526020017f46524f4f540000000000000000000000000000000000000000000000000000008152508160009081620000b49190620007be565b508060019081620000c69190620007be565b5050506001600c819055506000600f8190555033600a60006101000a81548173ffffffffffffffffffffffffffffffffffffffff021916908373ffffffffffffffffffffffffffffffffffffffff1602179055506040518060400160405280600b81526020017f436f6f6c2046726f6f7473000000000000000000000000000000000000000000815250600d9081620001609190620007be565b506040518060400160405280600581526020017f46524f4f54000000000000000000000000000000000000000000000000000000815250600e9081620001a79190620007be565b5082601860006101000a81548173ffffffffffffffffffffffffffffffffffffffff021916908373ffffffffffffffffffffffffffffffffffffffff16021790555081601960006101000a81548173ffffffffffffffffffffffffffffffffffffffff021916908373ffffffffffffffffffffffffffffffffffffffff160217905550600081036200027e576005600881905550600160098190555066b1a2bc2ec50000600681905550612710670de0b6b3a764000060016200026b9190620008d4565b6200027791906200094e565b6007819055505b600081111562000444576115b36008819055506104d260098190555060018103620002fb576064670de0b6b3a76400006006620002bc9190620008d4565b620002c891906200094e565b600681905550612710670de0b6b3a76400006003620002e89190620008d4565b620002f491906200094e565b6007819055505b600281036200034d57670de0b6b3a7640000603c6200031b9190620008d4565b6006819055506064670de0b6b3a764000060066200033a9190620008d4565b6200034691906200094e565b6007819055505b600381036200039f57670de0b6b3a764000060036200036d9190620008d4565b6006819055506064670de0b6b3a764000060036200038c9190620008d4565b6200039891906200094e565b6007819055505b60048103620003f157670de0b6b3a76400006003620003bf9190620008d4565b6006819055506064670de0b6b3a76400006003620003de9190620008d4565b620003ea91906200094e565b6007819055505b600581036200044357670de0b6b3a7640000603c620004119190620008d4565b6006819055506064670de0b6b3a76400006006620004309190620008d4565b6200043c91906200094e565b6007819055505b5b50505062000986565b600080fd5b600073ffffffffffffffffffffffffffffffffffffffff82169050919050565b60006200047f8262000452565b9050919050565b620004918162000472565b81146200049d57600080fd5b50565b600081519050620004b18162000486565b92915050565b6000819050919050565b620004cc81620004b7565b8114620004d857600080fd5b50565b600081519050620004ec81620004c1565b92915050565b6000806000606084860312156200050e576200050d6200044d565b5b60006200051e86828701620004a0565b93505060206200053186828701620004a0565b92505060406200054486828701620004db565b9150509250925092565b600081519050919050565b7f4e487b7100000000000000000000000000000000000000000000000000000000600052604160045260246000fd5b7f4e487b7100000000000000000000000000000000000000000000000000000000600052602260045260246000fd5b60006002820490506001821680620005d057607f821691505b602082108103620005e657620005e562000588565b5b50919050565b60008190508160005260206000209050919050565b60006020601f8301049050919050565b600082821b905092915050565b600060088302620006507fffffffffffffffffffffffffffffffffffffffffffffffffffffffffffffffff8262000611565b6200065c868362000611565b95508019841693508086168417925050509392505050565b6000819050919050565b60006200069f620006996200069384620004b7565b62000674565b620004b7565b9050919050565b6000819050919050565b620006bb836200067e565b620006d3620006ca82620006a6565b8484546200061e565b825550505050565b600090565b620006ea620006db565b620006f7818484620006b0565b505050565b5b818110156200071f5762000713600082620006e0565b600181019050620006fd565b5050565b601f8211156200076e576200073881620005ec565b620007438462000601565b8101602085101562000753578190505b6200076b620007628562000601565b830182620006fc565b50505b505050565b600082821c905092915050565b6000620007936000198460080262000773565b1980831691505092915050565b6000620007ae838362000780565b9150826002028217905092915050565b620007c9826200054e565b67ffffffffffffffff811115620007e557620007e462000559565b5b620007f18254620005b7565b620007fe82828562000723565b600060209050601f83116001811462000836576000841562000821578287015190505b6200082d8582620007a0565b8655506200089d565b601f1984166200084686620005ec565b60005b82811015620008705784890151825560018201915060208501945060208101905062000849565b868310156200089057848901516200088c601f89168262000780565b8355505b6001600288020188555050505b505050505050565b7f4e487b7100000000000000000000000000000000000000000000000000000000600052601160045260246000fd5b6000620008e182620004b7565b9150620008ee83620004b7565b9250828202620008fe81620004b7565b91508282048414831517620009185762000917620008a5565b5b5092915050565b7f4e487b7100000000000000000000000000000000000000000000000000000000600052601260045260246000fd5b60006200095b82620004b7565b91506200096883620004b7565b9250826200097b576200097a6200091f565b5b828204905092915050565b61524880620009966000396000f3fe6080604052600436106102885760003560e01c806376917df91161015a578063a9700e1f116100c1578063ba899a2e1161007a578063ba899a2e14610a7e578063be9a655514610abb578063c87b56dd14610ae6578063d64b3ae814610b23578063e985e9c514610b60578063ea25b61d14610b9d57610288565b8063a9700e1f14610948578063aa1ee94014610973578063ac0d4084146109b0578063ae943abc146109ed578063b524fd6f14610a2a578063b88d4fde14610a5557610288565b80639af9bec0116101135780639af9bec0146108245780639b4f589f1461084f5780639e20437c1461088c578063a035b1fe146108b7578063a22cb465146108e2578063a613e0e71461090b57610288565b806376917df91461070b5780637d23b33c1461073b578063801427541461077857806383813a28146107a35780638da5cb5b146107ce57806395d89b41146107f957610288565b806342842e0e116101fe5780634f02c420116101b75780634f02c420146105e55780636352211e146106105780636ac5db191461064d5780636b9f96ea146106785780636f743acd146106a357806370a08231146106ce57610288565b806342842e0e146104c157806342d21ef7146104ea578063477523c21461052757806348547d69146105645780634c2a860d1461058f5780634e70b1dc146105ba57610288565b806320a7270d1161025057806320a7270d14610386578063216d534c146103b657806323b872dd146103f35780632f54bf6e1461041c5780633b8d676f146104595780633dd08c381461048457610288565b806301ffc9a71461028d57806306390d6c146102ca57806306fdde03146102f5578063081812fc14610320578063095ea7b31461035d575b600080fd5b34801561029957600080fd5b506102b460048036038101906102af91906132fc565b610bc8565b6040516102c19190613344565b60405180910390f35b3480156102d657600080fd5b506102df610caa565b6040516102ec9190613378565b60405180910390f35b34801561030157600080fd5b5061030a610cb0565b6040516103179190613423565b60405180910390f35b34801561032c57600080fd5b5061034760048036038101906103429190613471565b610d42565b60405161035491906134df565b60405180910390f35b34801561036957600080fd5b50610384600480360381019061037f9190613526565b610dc7565b005b6103a0600480360381019061039b9190613844565b610ede565b6040516103ad9190613378565b60405180910390f35b3480156103c257600080fd5b506103dd60048036038101906103d89190613526565b6110f9565b6040516103ea9190613378565b60405180910390f35b3480156103ff57600080fd5b5061041a600480360381019061041591906138cf565b61119a565b005b34801561042857600080fd5b50610443600480360381019061043e9190613922565b6111fa565b6040516104509190613344565b60405180910390f35b34801561046557600080fd5b5061046e611264565b60405161047b9190613344565b60405180910390f35b34801561049057600080fd5b506104ab60048036038101906104a69190613922565b6112ef565b6040516104b89190613378565b60405180910390f35b3480156104cd57600080fd5b506104e860048036038101906104e391906138cf565b611307565b005b3480156104f657600080fd5b50610511600480360381019061050c9190613471565b611327565b60405161051e9190613423565b60405180910390f35b34801561053357600080fd5b5061054e60048036038101906105499190613922565b6113c7565b60405161055b9190613378565b60405180910390f35b34801561057057600080fd5b5061057961156b565b6040516105869190613378565b60405180910390f35b34801561059b57600080fd5b506105a4611571565b6040516105b191906139ae565b60405180910390f35b3480156105c657600080fd5b506105cf611597565b6040516105dc9190613378565b60405180910390f35b3480156105f157600080fd5b506105fa61159c565b6040516106079190613378565b60405180910390f35b34801561061c57600080fd5b5061063760048036038101906106329190613471565b6115a2565b60405161064491906134df565b60405180910390f35b34801561065957600080fd5b50610662611653565b60405161066f9190613378565b60405180910390f35b34801561068457600080fd5b5061068d611659565b60405161069a9190613378565b60405180910390f35b3480156106af57600080fd5b506106b86116ca565b6040516106c59190613378565b60405180910390f35b3480156106da57600080fd5b506106f560048036038101906106f09190613922565b6116d0565b6040516107029190613378565b60405180910390f35b610725600480360381019061072091906139c9565b611787565b6040516107329190613344565b60405180910390f35b34801561074757600080fd5b50610762600480360381019061075d9190613a25565b611979565b60405161076f9190613378565b60405180910390f35b34801561078457600080fd5b5061078d611c7f565b60405161079a9190613ab6565b60405180910390f35b3480156107af57600080fd5b506107b8611d02565b6040516107c59190613423565b60405180910390f35b3480156107da57600080fd5b506107e3611d90565b6040516107f091906134df565b60405180910390f35b34801561080557600080fd5b5061080e611db6565b60405161081b9190613423565b60405180910390f35b34801561083057600080fd5b50610839611e48565b6040516108469190613423565b60405180910390f35b34801561085b57600080fd5b5061087660048036038101906108719190613471565b611ed6565b6040516108839190613b26565b60405180910390f35b34801561089857600080fd5b506108a1611f76565b6040516108ae9190613378565b60405180910390f35b3480156108c357600080fd5b506108cc611f82565b6040516108d99190613378565b60405180910390f35b3480156108ee57600080fd5b5061090960048036038101906109049190613b74565b611f88565b005b34801561091757600080fd5b50610932600480360381019061092d9190613471565b611f9e565b60405161093f91906134df565b60405180910390f35b34801561095457600080fd5b5061095d611fd1565b60405161096a9190613bd5565b60405180910390f35b34801561097f57600080fd5b5061099a60048036038101906109959190613471565b611ff7565b6040516109a79190613378565b60405180910390f35b3480156109bc57600080fd5b506109d760048036038101906109d29190613bf0565b61200f565b6040516109e49190613423565b60405180910390f35b3480156109f957600080fd5b50610a146004803603810190610a0f9190613471565b61229c565b604051610a219190613378565b60405180910390f35b348015610a3657600080fd5b50610a3f6122b4565b604051610a4c9190613344565b60405180910390f35b348015610a6157600080fd5b50610a7c6004803603810190610a779190613cd1565b61231d565b005b348015610a8a57600080fd5b50610aa56004803603810190610aa09190613471565b61237f565b604051610ab291906134df565b60405180910390f35b348015610ac757600080fd5b50610ad0612391565b604051610add9190613344565b60405180910390f35b348015610af257600080fd5b50610b0d6004803603810190610b089190613471565b6123a4565b604051610b1a9190613423565b60405180910390f35b348015610b2f57600080fd5b50610b4a6004803603810190610b459190613471565b61244b565b604051610b579190613378565b60405180910390f35b348015610b6c57600080fd5b50610b876004803603810190610b829190613d54565b612463565b604051610b949190613344565b60405180910390f35b348015610ba957600080fd5b50610bb26124f7565b604051610bbf9190613344565b60405180910390f35b60007f80ac58cd000000000000000000000000000000000000000000000000000000007bffffffffffffffffffffffffffffffffffffffffffffffffffffffff1916827bffffffffffffffffffffffffffffffffffffffffffffffffffffffff19161480610c9357507f5b5e139f000000000000000000000000000000000000000000000000000000007bffffffffffffffffffffffffffffffffffffffffffffffffffffffff1916827bffffffffffffffffffffffffffffffffffffffffffffffffffffffff1916145b80610ca35750610ca282612509565b5b9050919050565b60075481565b606060008054610cbf90613dc3565b80601f0160208091040260200160405190810160405280929190818152602001828054610ceb90613dc3565b8015610d385780601f10610d0d57610100808354040283529160200191610d38565b820191906000526020600020905b815481529060010190602001808311610d1b57829003601f168201915b5050505050905090565b6000610d4d82612573565b610d8c576040517f08c379a0000000000000000000000000000000000000000000000000000000008152600401610d8390613e66565b60405180910390fd5b6004600083815260200190815260200160002060009054906101000a900473ffffffffffffffffffffffffffffffffffffffff169050919050565b6000610dd2826115a2565b90508073ffffffffffffffffffffffffffffffffffffffff168373ffffffffffffffffffffffffffffffffffffffff1603610e42576040517f08c379a0000000000000000000000000000000000000000000000000000000008152600401610e3990613ef8565b60405180910390fd5b8073ffffffffffffffffffffffffffffffffffffffff16610e616125df565b73ffffffffffffffffffffffffffffffffffffffff161480610e905750610e8f81610e8a6125df565b612463565b5b610ecf576040517f08c379a0000000000000000000000000000000000000000000000000000000008152600401610ec690613f8a565b60405180910390fd5b610ed983836125e7565b505050565b60006001600854610eef9190613fd9565b600c541115610f33576040517f08c379a0000000000000000000000000000000000000000000000000000000008152600401610f2a90614059565b60405180910390fd5b60065484610f419190614079565b341015610f83576040517f08c379a0000000000000000000000000000000000000000000000000000000008152600401610f7a90614107565b60405180910390fd5b60011515601060009054906101000a900460ff16151514610fd9576040517f08c379a0000000000000000000000000000000000000000000000000000000008152600401610fd090614173565b60405180910390fd5b3360166000600c54815260200190815260200160002060006101000a81548173ffffffffffffffffffffffffffffffffffffffff021916908373ffffffffffffffffffffffffffffffffffffffff160217905550611039843385856126a0565b50600060094261104991906141c2565b9050601860009054906101000a900473ffffffffffffffffffffffffffffffffffffffff1673ffffffffffffffffffffffffffffffffffffffff1663b02bf4b933836040518363ffffffff1660e01b81526004016110a89291906141f3565b6020604051808303816000875af11580156110c7573d6000803e3d6000fd5b505050506040513d601f19601f820116820180604052508101906110eb9190614231565b50600c549150509392505050565b6000808390508073ffffffffffffffffffffffffffffffffffffffff166323b872dd30600a60009054906101000a900473ffffffffffffffffffffffffffffffffffffffff16866040518463ffffffff1660e01b815260040161115e9392919061425e565b600060405180830381600087803b15801561117857600080fd5b505af115801561118c573d6000803e3d6000fd5b505050508291505092915050565b6111ab6111a56125df565b826127a6565b6111ea576040517f08c379a00000000000000000000000000000000000000000000000000000000081526004016111e190614307565b60405180910390fd5b6111f5838383612884565b505050565b6000600a60009054906101000a900473ffffffffffffffffffffffffffffffffffffffff1673ffffffffffffffffffffffffffffffffffffffff168273ffffffffffffffffffffffffffffffffffffffff160361125a576001905061125f565b600090505b919050565b6000600a60009054906101000a900473ffffffffffffffffffffffffffffffffffffffff1673ffffffffffffffffffffffffffffffffffffffff16601960009054906101000a900473ffffffffffffffffffffffffffffffffffffffff1673ffffffffffffffffffffffffffffffffffffffff16146112e257600080fd5b6112ea612adf565b905090565b60176020528060005260406000206000915090505481565b6113228383836040518060200160405280600081525061231d565b505050565b6013602052806000526040600020600091509050805461134690613dc3565b80601f016020809104026020016040519081016040528092919081815260200182805461137290613dc3565b80156113bf5780601f10611394576101008083540402835291602001916113bf565b820191906000526020600020905b8154815290600101906020018083116113a257829003601f168201915b505050505081565b6000808290508073ffffffffffffffffffffffffffffffffffffffff166323b872dd30600a60009054906101000a900473ffffffffffffffffffffffffffffffffffffffff168473ffffffffffffffffffffffffffffffffffffffff166370a08231306040518263ffffffff1660e01b815260040161144691906134df565b602060405180830381865afa158015611463573d6000803e3d6000fd5b505050506040513d601f19601f82011682018060405250810190611487919061433c565b6040518463ffffffff1660e01b81526004016114a59392919061425e565b6020604051808303816000875af11580156114c4573d6000803e3d6000fd5b505050506040513d601f19601f820116820180604052508101906114e89190614231565b508073ffffffffffffffffffffffffffffffffffffffff166370a08231306040518263ffffffff1660e01b815260040161152291906134df565b602060405180830381865afa15801561153f573d6000803e3d6000fd5b505050506040513d601f19601f82011682018060405250810190611563919061433c565b915050919050565b600f5481565b601860009054906101000a900473ffffffffffffffffffffffffffffffffffffffff1681565b600181565b600c5481565b6000806002600084815260200190815260200160002060009054906101000a900473ffffffffffffffffffffffffffffffffffffffff169050600073ffffffffffffffffffffffffffffffffffffffff168173ffffffffffffffffffffffffffffffffffffffff160361164a576040517f08c379a0000000000000000000000000000000000000000000000000000000008152600401611641906143db565b60405180910390fd5b80915050919050565b60085481565b6000600a60009054906101000a900473ffffffffffffffffffffffffffffffffffffffff1673ffffffffffffffffffffffffffffffffffffffff166108fc479081150290604051600060405180830381858888f193505050501580156116c3573d6000803e3d6000fd5b5047905090565b60095481565b60008073ffffffffffffffffffffffffffffffffffffffff168273ffffffffffffffffffffffffffffffffffffffff1603611740576040517f08c379a00000000000000000000000000000000000000000000000000000000081526004016117379061446d565b60405180910390fd5b600360008373ffffffffffffffffffffffffffffffffffffffff1673ffffffffffffffffffffffffffffffffffffffff168152602001908152602001600020549050919050565b60003373ffffffffffffffffffffffffffffffffffffffff166016600085815260200190815260200160002060009054906101000a900473ffffffffffffffffffffffffffffffffffffffff1673ffffffffffffffffffffffffffffffffffffffff161461182a576040517f08c379a0000000000000000000000000000000000000000000000000000000008152600401611821906144d9565b60405180910390fd5b60001515601060009054906101000a900460ff16151514611880576040517f08c379a000000000000000000000000000000000000000000000000000000000815260040161187790614545565b60405180910390fd5b60075434101561188f57600080fd5b600060094261189e91906141c2565b9050601860009054906101000a900473ffffffffffffffffffffffffffffffffffffffff1673ffffffffffffffffffffffffffffffffffffffff1663b02bf4b9336002846118ec9190614565565b6040518363ffffffff1660e01b81526004016119099291906141f3565b6020604051808303816000875af1158015611928573d6000803e3d6000fd5b505050506040513d601f19601f8201168201806040525081019061194c9190614231565b508260136000868152602001908152602001600020908161196d9190614738565b50600191505092915050565b6000600854600c5411156119c2576040517f08c379a00000000000000000000000000000000000000000000000000000000081526004016119b990614059565b60405180910390fd5b60011515601060009054906101000a900460ff16151514611a18576040517f08c379a0000000000000000000000000000000000000000000000000000000008152600401611a0f90614173565b60405180910390fd5b6000601960009054906101000a900473ffffffffffffffffffffffffffffffffffffffff1673ffffffffffffffffffffffffffffffffffffffff1663f794062e336040518263ffffffff1660e01b8152600401611a7591906134df565b602060405180830381865afa158015611a92573d6000803e3d6000fd5b505050506040513d601f19601f82011682018060405250810190611ab69190614231565b90506001151581151514611aff576040517f08c379a0000000000000000000000000000000000000000000000000000000008152600401611af690614856565b60405180910390fd5b600954600f541115611b46576040517f08c379a0000000000000000000000000000000000000000000000000000000008152600401611b3d906148c2565b60405180910390fd5b3360166000600c54815260200190815260200160002060006101000a81548173ffffffffffffffffffffffffffffffffffffffff021916908373ffffffffffffffffffffffffffffffffffffffff160217905550611ba760013386866126a0565b506000600942611bb791906141c2565b9050601860009054906101000a900473ffffffffffffffffffffffffffffffffffffffff1673ffffffffffffffffffffffffffffffffffffffff1663b02bf4b933836040518363ffffffff1660e01b8152600401611c169291906141f3565b6020604051808303816000875af1158015611c35573d6000803e3d6000fd5b505050506040513d601f19601f82011682018060405250810190611c599190614231565b50600f6000815480929190611c6d906148e2565b9190505550600c549250505092915050565b6000804260156000601760003373ffffffffffffffffffffffffffffffffffffffff1673ffffffffffffffffffffffffffffffffffffffff16815260200190815260200160002054815260200190815260200160002054611ce0919061492a565b90506018610e1082611cf2919061496d565b611cfc91906149d7565b91505090565b600e8054611d0f90613dc3565b80601f0160208091040260200160405190810160405280929190818152602001828054611d3b90613dc3565b8015611d885780601f10611d5d57610100808354040283529160200191611d88565b820191906000526020600020905b815481529060010190602001808311611d6b57829003601f168201915b505050505081565b600a60009054906101000a900473ffffffffffffffffffffffffffffffffffffffff1681565b606060018054611dc590613dc3565b80601f0160208091040260200160405190810160405280929190818152602001828054611df190613dc3565b8015611e3e5780601f10611e1357610100808354040283529160200191611e3e565b820191906000526020600020905b815481529060010190602001808311611e2157829003601f168201915b5050505050905090565b600d8054611e5590613dc3565b80601f0160208091040260200160405190810160405280929190818152602001828054611e8190613dc3565b8015611ece5780601f10611ea357610100808354040283529160200191611ece565b820191906000526020600020905b815481529060010190602001808311611eb157829003601f168201915b505050505081565b60116020528060005260406000206000915090508054611ef590613dc3565b80601f0160208091040260200160405190810160405280929190818152602001828054611f2190613dc3565b8015611f6e5780601f10611f4357610100808354040283529160200191611f6e565b820191906000526020600020905b815481529060010190602001808311611f5157829003601f168201915b505050505081565b670de0b6b3a764000081565b60065481565b611f9a611f936125df565b8383612b0f565b5050565b60166020528060005260406000206000915054906101000a900473ffffffffffffffffffffffffffffffffffffffff1681565b601960009054906101000a900473ffffffffffffffffffffffffffffffffffffffff1681565b60156020528060005260406000206000915090505481565b6060670de0b6b3a7640000836120259190614079565b601860009054906101000a900473ffffffffffffffffffffffffffffffffffffffff1673ffffffffffffffffffffffffffffffffffffffff166370a08231336040518263ffffffff1660e01b815260040161208091906134df565b602060405180830381865afa15801561209d573d6000803e3d6000fd5b505050506040513d601f19601f820116820180604052508101906120c1919061433c565b10156120cc57600080fd5b601860009054906101000a900473ffffffffffffffffffffffffffffffffffffffff1673ffffffffffffffffffffffffffffffffffffffff1663fcd3533c670de0b6b3a76400008561211e9190614079565b336040518363ffffffff1660e01b815260040161213c929190614a4f565b6020604051808303816000875af115801561215b573d6000803e3d6000fd5b505050506040513d601f19601f8201168201806040525081019061217f919061433c565b50826014600084815260200190815260200160002060008282546121a39190613fd9565b925050819055506000601560008481526020019081526020016000205403612210576018603c80856121d59190614079565b6121df9190614079565b6121e99190614079565b426121f49190613fd9565b601560008481526020019081526020016000208190555061225e565b6018603c80856122209190614079565b61222a9190614079565b6122349190614079565b6015600084815260200190815260200160002060008282546122569190613fd9565b925050819055505b6040518060400160405280601d81526020017f49434520484153204245454e20414444454420544f2046524f4f542021000000815250905092915050565b60126020528060005260406000206000915090505481565b6000600a60009054906101000a900473ffffffffffffffffffffffffffffffffffffffff1673ffffffffffffffffffffffffffffffffffffffff163373ffffffffffffffffffffffffffffffffffffffff161461231057600080fd5b612318612adf565b905090565b61232e6123286125df565b836127a6565b61236d576040517f08c379a000000000000000000000000000000000000000000000000000000000815260040161236490614307565b60405180910390fd5b61237984848484612c7b565b50505050565b600061238a826115a2565b9050919050565b601060009054906101000a900460ff1681565b60606123af82612573565b6123ee576040517f08c379a00000000000000000000000000000000000000000000000000000000081526004016123e590614aea565b60405180910390fd5b60006123f8612cd7565b905060008151116124185760405180602001604052806000815250612443565b8061242284612cee565b604051602001612433929190614b46565b6040516020818303038152906040525b915050919050565b60146020528060005260406000206000915090505481565b6000600560008473ffffffffffffffffffffffffffffffffffffffff1673ffffffffffffffffffffffffffffffffffffffff16815260200190815260200160002060008373ffffffffffffffffffffffffffffffffffffffff1673ffffffffffffffffffffffffffffffffffffffff16815260200190815260200160002060009054906101000a900460ff16905092915050565b60006104d2600f819055506001905090565b60007f01ffc9a7000000000000000000000000000000000000000000000000000000007bffffffffffffffffffffffffffffffffffffffffffffffffffffffff1916827bffffffffffffffffffffffffffffffffffffffffffffffffffffffff1916149050919050565b60008073ffffffffffffffffffffffffffffffffffffffff166002600084815260200190815260200160002060009054906101000a900473ffffffffffffffffffffffffffffffffffffffff1673ffffffffffffffffffffffffffffffffffffffff1614159050919050565b600033905090565b816004600083815260200190815260200160002060006101000a81548173ffffffffffffffffffffffffffffffffffffffff021916908373ffffffffffffffffffffffffffffffffffffffff160217905550808273ffffffffffffffffffffffffffffffffffffffff1661265a836115a2565b73ffffffffffffffffffffffffffffffffffffffff167f8c5be1e5ebec7d5bd14f71427d1e84f3dd0314c0f7b2291e5b200ac8c7c3b92560405160405180910390a45050565b60006001856126ae866116d0565b6126b89190613fd9565b11156126f9576040517f08c379a00000000000000000000000000000000000000000000000000000000081526004016126f090614bdc565b60405180910390fd5b60016008546127089190613fd9565b85600c546127169190613fd9565b1115612757576040517f08c379a000000000000000000000000000000000000000000000000000000000815260040161274e90614c48565b60405180910390fd5b612798848460008151811061276f5761276e614c68565b5b60200260200101518460008151811061278b5761278a614c68565b5b6020026020010151612e4e565b50600c549050949350505050565b60006127b182612573565b6127f0576040517f08c379a00000000000000000000000000000000000000000000000000000000081526004016127e790614d09565b60405180910390fd5b60006127fb836115a2565b90508073ffffffffffffffffffffffffffffffffffffffff168473ffffffffffffffffffffffffffffffffffffffff16148061286a57508373ffffffffffffffffffffffffffffffffffffffff1661285284610d42565b73ffffffffffffffffffffffffffffffffffffffff16145b8061287b575061287a8185612463565b5b91505092915050565b8273ffffffffffffffffffffffffffffffffffffffff166128a4826115a2565b73ffffffffffffffffffffffffffffffffffffffff16146128fa576040517f08c379a00000000000000000000000000000000000000000000000000000000081526004016128f190614d9b565b60405180910390fd5b600073ffffffffffffffffffffffffffffffffffffffff168273ffffffffffffffffffffffffffffffffffffffff1603612969576040517f08c379a000000000000000000000000000000000000000000000000000000000815260040161296090614e2d565b60405180910390fd5b612974838383612f24565b61297f6000826125e7565b6001600360008573ffffffffffffffffffffffffffffffffffffffff1673ffffffffffffffffffffffffffffffffffffffff16815260200190815260200160002060008282546129cf9190614e4d565b925050819055506001600360008473ffffffffffffffffffffffffffffffffffffffff1673ffffffffffffffffffffffffffffffffffffffff1681526020019081526020016000206000828254612a269190613fd9565b92505081905550816002600083815260200190815260200160002060006101000a81548173ffffffffffffffffffffffffffffffffffffffff021916908373ffffffffffffffffffffffffffffffffffffffff160217905550808273ffffffffffffffffffffffffffffffffffffffff168473ffffffffffffffffffffffffffffffffffffffff167fddf252ad1be2c89b69c2b068fc378daa952ba7f163c4a11628f55a4df523b3ef60405160405180910390a4505050565b6000601060009054906101000a900460ff1615601060006101000a81548160ff0219169083151502179055905090565b8173ffffffffffffffffffffffffffffffffffffffff168373ffffffffffffffffffffffffffffffffffffffff1603612b7d576040517f08c379a0000000000000000000000000000000000000000000000000000000008152600401612b7490614ecd565b60405180910390fd5b80600560008573ffffffffffffffffffffffffffffffffffffffff1673ffffffffffffffffffffffffffffffffffffffff16815260200190815260200160002060008473ffffffffffffffffffffffffffffffffffffffff1673ffffffffffffffffffffffffffffffffffffffff16815260200190815260200160002060006101000a81548160ff0219169083151502179055508173ffffffffffffffffffffffffffffffffffffffff168373ffffffffffffffffffffffffffffffffffffffff167f17307eab39ab6107e8899845ad3d59bd9653f200f220920489ca2b5937696c3183604051612c6e9190613344565b60405180910390a3505050565b612c86848484612884565b612c9284848484612f29565b612cd1576040517f08c379a0000000000000000000000000000000000000000000000000000000008152600401612cc890614f5f565b60405180910390fd5b50505050565b606060405180602001604052806000815250905090565b606060008203612d35576040518060400160405280600181526020017f30000000000000000000000000000000000000000000000000000000000000008152509050612e49565b600082905060005b60008214612d67578080612d50906148e2565b915050600a82612d609190614565565b9150612d3d565b60008167ffffffffffffffff811115612d8357612d8261356b565b5b6040519080825280601f01601f191660200182016040528015612db55781602001600182028036833780820191505090505b5090505b60008514612e4257600182612dce9190614e4d565b9150600a85612ddd91906141c2565b6030612de99190613fd9565b60f81b818381518110612dff57612dfe614c68565b5b60200101907effffffffffffffffffffffffffffffffffffffffffffffffffffffffffffff1916908160001a905350600a85612e3b9190614565565b9450612db9565b8093505050505b919050565b6000612e5c84600c546130b0565b8260126000600c548152602001908152602001600020819055508160116000600c5481526020019081526020016000209081612e989190614fda565b50600c54601760008673ffffffffffffffffffffffffffffffffffffffff1673ffffffffffffffffffffffffffffffffffffffff16815260200190815260200160002081905550600c6000815480929190612ef2906148e2565b91905055506001600854612f069190613fd9565b600c5410612f1857612f16612adf565b505b600c5490509392505050565b505050565b6000612f4a8473ffffffffffffffffffffffffffffffffffffffff1661327d565b156130a3578373ffffffffffffffffffffffffffffffffffffffff1663150b7a02612f736125df565b8786866040518563ffffffff1660e01b8152600401612f9594939291906150ac565b6020604051808303816000875af1925050508015612fd157506040513d601f19601f82011682018060405250810190612fce919061510d565b60015b613053573d8060008114613001576040519150601f19603f3d011682016040523d82523d6000602084013e613006565b606091505b50600081510361304b576040517f08c379a000000000000000000000000000000000000000000000000000000000815260040161304290614f5f565b60405180910390fd5b805181602001fd5b63150b7a0260e01b7bffffffffffffffffffffffffffffffffffffffffffffffffffffffff1916817bffffffffffffffffffffffffffffffffffffffffffffffffffffffff1916149150506130a8565b600190505b949350505050565b600073ffffffffffffffffffffffffffffffffffffffff168273ffffffffffffffffffffffffffffffffffffffff160361311f576040517f08c379a000000000000000000000000000000000000000000000000000000000815260040161311690615186565b60405180910390fd5b61312881612573565b15613168576040517f08c379a000000000000000000000000000000000000000000000000000000000815260040161315f906151f2565b60405180910390fd5b61317460008383612f24565b6001600360008473ffffffffffffffffffffffffffffffffffffffff1673ffffffffffffffffffffffffffffffffffffffff16815260200190815260200160002060008282546131c49190613fd9565b92505081905550816002600083815260200190815260200160002060006101000a81548173ffffffffffffffffffffffffffffffffffffffff021916908373ffffffffffffffffffffffffffffffffffffffff160217905550808273ffffffffffffffffffffffffffffffffffffffff16600073ffffffffffffffffffffffffffffffffffffffff167fddf252ad1be2c89b69c2b068fc378daa952ba7f163c4a11628f55a4df523b3ef60405160405180910390a45050565b600080823b905060008111915050919050565b6000604051905090565b600080fd5b600080fd5b60007fffffffff0000000000000000000000000000000000000000000000000000000082169050919050565b6132d9816132a4565b81146132e457600080fd5b50565b6000813590506132f6816132d0565b92915050565b6000602082840312156133125761331161329a565b5b6000613320848285016132e7565b91505092915050565b60008115159050919050565b61333e81613329565b82525050565b60006020820190506133596000830184613335565b92915050565b6000819050919050565b6133728161335f565b82525050565b600060208201905061338d6000830184613369565b92915050565b600081519050919050565b600082825260208201905092915050565b60005b838110156133cd5780820151818401526020810190506133b2565b60008484015250505050565b6000601f19601f8301169050919050565b60006133f582613393565b6133ff818561339e565b935061340f8185602086016133af565b613418816133d9565b840191505092915050565b6000602082019050818103600083015261343d81846133ea565b905092915050565b61344e8161335f565b811461345957600080fd5b50565b60008135905061346b81613445565b92915050565b6000602082840312156134875761348661329a565b5b60006134958482850161345c565b91505092915050565b600073ffffffffffffffffffffffffffffffffffffffff82169050919050565b60006134c98261349e565b9050919050565b6134d9816134be565b82525050565b60006020820190506134f460008301846134d0565b92915050565b613503816134be565b811461350e57600080fd5b50565b600081359050613520816134fa565b92915050565b6000806040838503121561353d5761353c61329a565b5b600061354b85828601613511565b925050602061355c8582860161345c565b9150509250929050565b600080fd5b7f4e487b7100000000000000000000000000000000000000000000000000000000600052604160045260246000fd5b6135a3826133d9565b810181811067ffffffffffffffff821117156135c2576135c161356b565b5b80604052505050565b60006135d5613290565b90506135e1828261359a565b919050565b600067ffffffffffffffff8211156136015761360061356b565b5b602082029050602081019050919050565b600080fd5b600061362a613625846135e6565b6135cb565b9050808382526020820190506020840283018581111561364d5761364c613612565b5b835b818110156136765780613662888261345c565b84526020840193505060208101905061364f565b5050509392505050565b600082601f83011261369557613694613566565b5b81356136a5848260208601613617565b91505092915050565b600067ffffffffffffffff8211156136c9576136c861356b565b5b602082029050602081019050919050565b600080fd5b600067ffffffffffffffff8211156136fa576136f961356b565b5b613703826133d9565b9050602081019050919050565b82818337600083830152505050565b600061373261372d846136df565b6135cb565b90508281526020810184848401111561374e5761374d6136da565b5b613759848285613710565b509392505050565b600082601f83011261377657613775613566565b5b813561378684826020860161371f565b91505092915050565b60006137a261379d846136ae565b6135cb565b905080838252602082019050602084028301858111156137c5576137c4613612565b5b835b8181101561380c57803567ffffffffffffffff8111156137ea576137e9613566565b5b8086016137f78982613761565b855260208501945050506020810190506137c7565b5050509392505050565b600082601f83011261382b5761382a613566565b5b813561383b84826020860161378f565b91505092915050565b60008060006060848603121561385d5761385c61329a565b5b600061386b8682870161345c565b935050602084013567ffffffffffffffff81111561388c5761388b61329f565b5b61389886828701613680565b925050604084013567ffffffffffffffff8111156138b9576138b861329f565b5b6138c586828701613816565b9150509250925092565b6000806000606084860312156138e8576138e761329a565b5b60006138f686828701613511565b935050602061390786828701613511565b92505060406139188682870161345c565b9150509250925092565b6000602082840312156139385761393761329a565b5b600061394684828501613511565b91505092915050565b6000819050919050565b600061397461396f61396a8461349e565b61394f565b61349e565b9050919050565b600061398682613959565b9050919050565b60006139988261397b565b9050919050565b6139a88161398d565b82525050565b60006020820190506139c3600083018461399f565b92915050565b600080604083850312156139e0576139df61329a565b5b60006139ee8582860161345c565b925050602083013567ffffffffffffffff811115613a0f57613a0e61329f565b5b613a1b85828601613761565b9150509250929050565b60008060408385031215613a3c57613a3b61329a565b5b600083013567ffffffffffffffff811115613a5a57613a5961329f565b5b613a6685828601613680565b925050602083013567ffffffffffffffff811115613a8757613a8661329f565b5b613a9385828601613816565b9150509250929050565b6000819050919050565b613ab081613a9d565b82525050565b6000602082019050613acb6000830184613aa7565b92915050565b600081519050919050565b600082825260208201905092915050565b6000613af882613ad1565b613b028185613adc565b9350613b128185602086016133af565b613b1b816133d9565b840191505092915050565b60006020820190508181036000830152613b408184613aed565b905092915050565b613b5181613329565b8114613b5c57600080fd5b50565b600081359050613b6e81613b48565b92915050565b60008060408385031215613b8b57613b8a61329a565b5b6000613b9985828601613511565b9250506020613baa85828601613b5f565b9150509250929050565b6000613bbf8261397b565b9050919050565b613bcf81613bb4565b82525050565b6000602082019050613bea6000830184613bc6565b92915050565b60008060408385031215613c0757613c0661329a565b5b6000613c158582860161345c565b9250506020613c268582860161345c565b9150509250929050565b600067ffffffffffffffff821115613c4b57613c4a61356b565b5b613c54826133d9565b9050602081019050919050565b6000613c74613c6f84613c30565b6135cb565b905082815260208101848484011115613c9057613c8f6136da565b5b613c9b848285613710565b509392505050565b600082601f830112613cb857613cb7613566565b5b8135613cc8848260208601613c61565b91505092915050565b60008060008060808587031215613ceb57613cea61329a565b5b6000613cf987828801613511565b9450506020613d0a87828801613511565b9350506040613d1b8782880161345c565b925050606085013567ffffffffffffffff811115613d3c57613d3b61329f565b5b613d4887828801613ca3565b91505092959194509250565b60008060408385031215613d6b57613d6a61329a565b5b6000613d7985828601613511565b9250506020613d8a85828601613511565b9150509250929050565b7f4e487b7100000000000000000000000000000000000000000000000000000000600052602260045260246000fd5b60006002820490506001821680613ddb57607f821691505b602082108103613dee57613ded613d94565b5b50919050565b7f4552433732313a20617070726f76656420717565727920666f72206e6f6e657860008201527f697374656e7420746f6b656e0000000000000000000000000000000000000000602082015250565b6000613e50602c8361339e565b9150613e5b82613df4565b604082019050919050565b60006020820190508181036000830152613e7f81613e43565b9050919050565b7f4552433732313a20617070726f76616c20746f2063757272656e74206f776e6560008201527f7200000000000000000000000000000000000000000000000000000000000000602082015250565b6000613ee260218361339e565b9150613eed82613e86565b604082019050919050565b60006020820190508181036000830152613f1181613ed5565b9050919050565b7f4552433732313a20617070726f76652063616c6c6572206973206e6f74206f7760008201527f6e6572206e6f7220617070726f76656420666f7220616c6c0000000000000000602082015250565b6000613f7460388361339e565b9150613f7f82613f18565b604082019050919050565b60006020820190508181036000830152613fa381613f67565b9050919050565b7f4e487b7100000000000000000000000000000000000000000000000000000000600052601160045260246000fd5b6000613fe48261335f565b9150613fef8361335f565b925082820190508082111561400757614006613faa565b5b92915050565b7f534f4c44204f5554000000000000000000000000000000000000000000000000600082015250565b600061404360088361339e565b915061404e8261400d565b602082019050919050565b6000602082019050818103600083015261407281614036565b9050919050565b60006140848261335f565b915061408f8361335f565b925082820261409d8161335f565b915082820484148315176140b4576140b3613faa565b5b5092915050565b7f494e5355464649434945542046554e4453000000000000000000000000000000600082015250565b60006140f160118361339e565b91506140fc826140bb565b602082019050919050565b60006020820190508181036000830152614120816140e4565b9050919050565b7f4d494e54204953204e4f5420594554204c495645000000000000000000000000600082015250565b600061415d60148361339e565b915061416882614127565b602082019050919050565b6000602082019050818103600083015261418c81614150565b9050919050565b7f4e487b7100000000000000000000000000000000000000000000000000000000600052601260045260246000fd5b60006141cd8261335f565b91506141d88361335f565b9250826141e8576141e7614193565b5b828206905092915050565b600060408201905061420860008301856134d0565b6142156020830184613369565b9392505050565b60008151905061422b81613b48565b92915050565b6000602082840312156142475761424661329a565b5b60006142558482850161421c565b91505092915050565b600060608201905061427360008301866134d0565b61428060208301856134d0565b61428d6040830184613369565b949350505050565b7f4552433732313a207472616e736665722063616c6c6572206973206e6f74206f60008201527f776e6572206e6f7220617070726f766564000000000000000000000000000000602082015250565b60006142f160318361339e565b91506142fc82614295565b604082019050919050565b60006020820190508181036000830152614320816142e4565b9050919050565b60008151905061433681613445565b92915050565b6000602082840312156143525761435161329a565b5b600061436084828501614327565b91505092915050565b7f4552433732313a206f776e657220717565727920666f72206e6f6e657869737460008201527f656e7420746f6b656e0000000000000000000000000000000000000000000000602082015250565b60006143c560298361339e565b91506143d082614369565b604082019050919050565b600060208201905081810360008301526143f4816143b8565b9050919050565b7f4552433732313a2062616c616e636520717565727920666f7220746865207a6560008201527f726f206164647265737300000000000000000000000000000000000000000000602082015250565b6000614457602a8361339e565b9150614462826143fb565b604082019050919050565b600060208201905081810360008301526144868161444a565b9050919050565b7f594f5520415245204e4f542054484520484f4c44455200000000000000000000600082015250565b60006144c360168361339e565b91506144ce8261448d565b602082019050919050565b600060208201905081810360008301526144f2816144b6565b9050919050565b7f4d494e54204953205354494c4c20494e2050524f475245535300000000000000600082015250565b600061452f60198361339e565b915061453a826144f9565b602082019050919050565b6000602082019050818103600083015261455e81614522565b9050919050565b60006145708261335f565b915061457b8361335f565b92508261458b5761458a614193565b5b828204905092915050565b60008190508160005260206000209050919050565b60006020601f8301049050919050565b600082821b905092915050565b6000600883026145f87fffffffffffffffffffffffffffffffffffffffffffffffffffffffffffffffff826145bb565b61460286836145bb565b95508019841693508086168417925050509392505050565b600061463561463061462b8461335f565b61394f565b61335f565b9050919050565b6000819050919050565b61464f8361461a565b61466361465b8261463c565b8484546145c8565b825550505050565b600090565b61467861466b565b614683818484614646565b505050565b5b818110156146a75761469c600082614670565b600181019050614689565b5050565b601f8211156146ec576146bd81614596565b6146c6846145ab565b810160208510156146d5578190505b6146e96146e1856145ab565b830182614688565b50505b505050565b600082821c905092915050565b600061470f600019846008026146f1565b1980831691505092915050565b600061472883836146fe565b9150826002028217905092915050565b61474182613393565b67ffffffffffffffff81111561475a5761475961356b565b5b6147648254613dc3565b61476f8282856146ab565b600060209050601f8311600181146147a25760008415614790578287015190505b61479a858261471c565b865550614802565b601f1984166147b086614596565b60005b828110156147d8578489015182556001820191506020850194506020810190506147b3565b868310156147f557848901516147f1601f8916826146fe565b8355505b6001600288020188555050505b505050505050565b7f594f5520415245204e4f5420475245454e4c4953544544000000000000000000600082015250565b600061484060178361339e565b915061484b8261480a565b602082019050919050565b6000602082019050818103600083015261486f81614833565b9050919050565b7f414c4c20534c4f54532048415645204245454e204d494e544544000000000000600082015250565b60006148ac601a8361339e565b91506148b782614876565b602082019050919050565b600060208201905081810360008301526148db8161489f565b9050919050565b60006148ed8261335f565b91507fffffffffffffffffffffffffffffffffffffffffffffffffffffffffffffffff820361491f5761491e613faa565b5b600182019050919050565b600061493582613a9d565b915061494083613a9d565b925082820390508181126000841216828213600085121516171561496757614966613faa565b5b92915050565b600061497882613a9d565b915061498383613a9d565b92508261499357614992614193565b5b600160000383147f8000000000000000000000000000000000000000000000000000000000000000831416156149cc576149cb613faa565b5b828205905092915050565b60006149e282613a9d565b91506149ed83613a9d565b92508282026149fb81613a9d565b91507f80000000000000000000000000000000000000000000000000000000000000008414600084121615614a3357614a32613faa565b5b8282058414831517614a4857614a47613faa565b5b5092915050565b6000604082019050614a646000830185613369565b614a7160208301846134d0565b9392505050565b7f4552433732314d657461646174613a2055524920717565727920666f72206e6f60008201527f6e6578697374656e7420746f6b656e0000000000000000000000000000000000602082015250565b6000614ad4602f8361339e565b9150614adf82614a78565b604082019050919050565b60006020820190508181036000830152614b0381614ac7565b9050919050565b600081905092915050565b6000614b2082613393565b614b2a8185614b0a565b9350614b3a8185602086016133af565b80840191505092915050565b6000614b528285614b15565b9150614b5e8284614b15565b91508190509392505050565b7f4558434545444544204d4158204d494e5441424c4520544f4b454e532050455260008201527f2057414c4c455400000000000000000000000000000000000000000000000000602082015250565b6000614bc660278361339e565b9150614bd182614b6a565b604082019050919050565b60006020820190508181036000830152614bf581614bb9565b9050919050565b7f4e4f5420454e4f55474820535550504c59000000000000000000000000000000600082015250565b6000614c3260118361339e565b9150614c3d82614bfc565b602082019050919050565b60006020820190508181036000830152614c6181614c25565b9050919050565b7f4e487b7100000000000000000000000000000000000000000000000000000000600052603260045260246000fd5b7f4552433732313a206f70657261746f7220717565727920666f72206e6f6e657860008201527f697374656e7420746f6b656e0000000000000000000000000000000000000000602082015250565b6000614cf3602c8361339e565b9150614cfe82614c97565b604082019050919050565b60006020820190508181036000830152614d2281614ce6565b9050919050565b7f4552433732313a207472616e73666572206f6620746f6b656e2074686174206960008201527f73206e6f74206f776e0000000000000000000000000000000000000000000000602082015250565b6000614d8560298361339e565b9150614d9082614d29565b604082019050919050565b60006020820190508181036000830152614db481614d78565b9050919050565b7f4552433732313a207472616e7366657220746f20746865207a65726f2061646460008201527f7265737300000000000000000000000000000000000000000000000000000000602082015250565b6000614e1760248361339e565b9150614e2282614dbb565b604082019050919050565b60006020820190508181036000830152614e4681614e0a565b9050919050565b6000614e588261335f565b9150614e638361335f565b9250828203905081811115614e7b57614e7a613faa565b5b92915050565b7f4552433732313a20617070726f766520746f2063616c6c657200000000000000600082015250565b6000614eb760198361339e565b9150614ec282614e81565b602082019050919050565b60006020820190508181036000830152614ee681614eaa565b9050919050565b7f4552433732313a207472616e7366657220746f206e6f6e20455243373231526560008201527f63656976657220696d706c656d656e7465720000000000000000000000000000602082015250565b6000614f4960328361339e565b9150614f5482614eed565b604082019050919050565b60006020820190508181036000830152614f7881614f3c565b9050919050565b60008190508160005260206000209050919050565b601f821115614fd557614fa681614f7f565b614faf846145ab565b81016020851015614fbe578190505b614fd2614fca856145ab565b830182614688565b50505b505050565b614fe382613ad1565b67ffffffffffffffff811115614ffc57614ffb61356b565b5b6150068254613dc3565b615011828285614f94565b600060209050601f8311600181146150445760008415615032578287015190505b61503c858261471c565b8655506150a4565b601f19841661505286614f7f565b60005b8281101561507a57848901518255600182019150602085019450602081019050615055565b868310156150975784890151615093601f8916826146fe565b8355505b6001600288020188555050505b505050505050565b60006080820190506150c160008301876134d0565b6150ce60208301866134d0565b6150db6040830185613369565b81810360608301526150ed8184613aed565b905095945050505050565b600081519050615107816132d0565b92915050565b6000602082840312156151235761512261329a565b5b6000615131848285016150f8565b91505092915050565b7f4552433732313a206d696e7420746f20746865207a65726f2061646472657373600082015250565b600061517060208361339e565b915061517b8261513a565b602082019050919050565b6000602082019050818103600083015261519f81615163565b9050919050565b7f4552433732313a20746f6b656e20616c7265616479206d696e74656400000000600082015250565b60006151dc601c8361339e565b91506151e7826151a6565b602082019050919050565b6000602082019050818103600083015261520b816151cf565b905091905056fea2646970667358221220d53b5373b5678c3990d2ff68c9aded90b01ff3a6af16515e011246b3c218a72664736f6c63430008110033",
  "immutableReferences": {},
  "source": "// SPDX-License-Identifier: MIT\n\n// MAINNET CONTRACT ADDRESSES\n\n// GL :: 0xecE922B118eEd554Fb9d3318a81FecB8C8D1bD95\n// ICE :: 0x890b24d94075B743a89171E5b8A2d9B9049eBf36\n// FROOT :: 0xb2330f3836799B36F0be49Df1043C62d30253479\n\n// TESTNET CONTRACT ADDRESSES\n\n// GREENLIST :: 0x0f6ee895f93a0525747DdD7c5c177fF65DBD7454\n// ICE :: 0xec09faf4b1c6F198cFF1535800d55123C8C848bE :: ERC20\n// FROOTYCOOLTINGS :: 0x069BF09A8EDb8C1b3AC7f62bA57C601DBaCc6747 :: ERC721\n\npragma solidity ^0.8.10;\n\nimport \"@openzeppelin/contracts/token/ERC20/ERC20.sol\";\nimport \"@openzeppelin/contracts/token/ERC721/ERC721.sol\";\n\ncontract Greenlist {\n    address public admin;\n    uint256 public constant digits = 1 * 10**18;\n    uint256 public l;\n    uint256 public max;\n    string public message;\n    uint256 public msgprice;\n    uint256 public stamp;\n    FrootyCoolTingz public FCT;\n    mapping(address => bool) public isListed;\n    address[1234] public users;\n    modifier notListed(address _adr) {\n        require(isListed[_adr] == false, \"already listed\");\n        _;\n    }\n\n    constructor(uint256 _t) {\n        admin = msg.sender;\n        if (_t == 1) {\n            isListed[msg.sender] = true; // OFF ON TESTNET\n            users[0] = msg.sender;\n            l = 1; // Mainnet\n            max = 1234; // Mainnet\n            if (_t == 1) {\n                msgprice = (6 * digits) / 10000; // 0.03ETH\n            }\n            // MATIC\n            if (_t == 2) {\n                msgprice = (60 * digits) / 100; // 0.6MTC\n            }\n            // FIL\n            if (_t == 3) {\n                msgprice = (3 * digits) / 100; // 0.03FIL\n            }\n            // AVAX\n            if (_t == 4) {\n                msgprice = (3 * digits) / 100; // 0.03AVX\n            }\n            // CELO\n            if (_t == 5) {\n                msgprice = (60 * digits) / 100; // 0.6CLO\n            }\n        }\n        if (_t == 0) {\n            l = 0; // Testnet\n            max = 1; // Testnet\n            msgprice = 1 * 10**14;\n        }\n        message = \"BE FRESH MY FROOTY FRENZ !\";\n    }\n\n    function setFCT(address _fct) external returns (bool) {\n        FCT = FrootyCoolTingz(_fct);\n        return true;\n    }\n\n    function autoStart() internal returns (bool) {\n        return FCT.changeMS();\n    }\n\n    function getListed() external notListed(msg.sender) returns (bool) {\n        require(l < max, \"no more greenlist tickets left\");\n        isListed[msg.sender] = true;\n        users[l] = (msg.sender);\n        l++;\n        if (l == max) autoStart();\n        return isListed[msg.sender];\n    }\n\n    function makeListing(address _adr) external notListed(_adr) returns (bool) {\n        require(admin == msg.sender, \"you are not admin\");\n        isListed[_adr] = true;\n        users[l] = (_adr);\n        l++;\n        if (l == max) autoStart();\n        return isListed[_adr];\n    }\n\n    function showUsers() external view returns (address[1234] memory) {\n        return users;\n    }\n\n    function setMsg(string memory _msg) external payable returns (bool) {\n        require(msg.value <= msgprice, \"insufficient balance sent\");\n        require(block.timestamp >= stamp + 60 * 60, \"you need to wait\");\n        message = _msg;\n        stamp = block.timestamp;\n        return true;\n    }\n\n    function setMsgAdmin(string memory _msg) external returns (bool) {\n        require(admin == msg.sender, \"you are not admin\");\n        message = _msg;\n        stamp = block.timestamp;\n        return true;\n    }\n\n    function showMsg() external view returns (string memory) {\n        return message;\n    }\n\n    function withdraw() external returns (uint256) {\n        require(admin == msg.sender, \"you are not admin\");\n        payable(admin).transfer(address(this).balance);\n        return address(this).balance;\n    }\n}\n\ncontract ICE is ERC20 {\n    uint256 public constant digits = 10**18;\n    uint256 public price; // Testnet :: 10000 // Mainnet :: 10\n\n    address admin;\n\n    modifier onlyA() {\n        require(msg.sender == admin);\n        _;\n    }\n\n    constructor(uint256 _t) ERC20(\"Incredibly Cool Essence\", \"ICE\") {\n        admin = msg.sender;\n        if (_t == 0) {\n            price = (1 * digits) / 10000;\n        } else {\n            // ETH\n            if (_t == 1) {\n                price = (3 * digits) / 10000; // 0.0003ETH\n            }\n            // MATIC\n            if (_t == 2) {\n                price = (6 * digits) / 10; // 0.6MTC\n            }\n            // FIL\n            if (_t == 3) {\n                price = (3 * digits) / 100; // 0.03FIL\n            }\n            // AVAX\n            if (_t == 4) {\n                price = (3 * digits) / 100; // 0.03AVX\n            }\n            // CELO\n            if (_t == 5) {\n                price = (6 * digits) / 10; // 0.6CLO\n            }\n        }\n        _domint(1000 * 10**22, admin);\n    }\n\n    function _domint(uint256 _amnt, address _adr) internal returns (uint256) {\n        _mint(_adr, _amnt);\n        return _amnt;\n    }\n\n    function burn(uint256 _amnt, address _adr) external returns (uint256) {\n        _burn(_adr, _amnt);\n        return _amnt;\n    }\n\n    function swap(uint256 _amnt, address _adr)\n        external\n        payable\n        returns (uint256)\n    {\n        require(_amnt >= 10, \"MINIMUM 10 ICE\");\n        require(msg.value >= price * _amnt, \"INSUFFICIENT FUNDS PROVIDED\");\n        if (_amnt > 99) {\n            _amnt = _amnt + 5;\n        }\n        if (_amnt > 999) {\n            _amnt = _amnt + 60;\n        }\n        if (_amnt > 9999) {\n            _amnt = _amnt + 700;\n        }\n        if (_amnt > 99999) {\n            _amnt = _amnt + 8000;\n        }\n        if (_amnt > 999999) {\n            _amnt = _amnt + 90000;\n        }\n        if (_amnt > 999999) {\n            _amnt = _amnt + (_amnt / 10);\n        }\n        return _domint(_amnt, _adr);\n    }\n\n    function earn(address _adr, uint256 _amount) external returns (bool) {\n        _domint(_amount * 10**18, _adr);\n        return true;\n    }\n}\n\ncontract FrootyCoolTingz is ERC721 {\n    // Public Constants\n    uint256 public price; // PRICE VAL Testnet\n    uint256 public statusprice;\n    uint256 public constant digits = 1 * 10**18; // PRICE VAL Mainnet\n    uint256 public constant num = 1; // MAX MINTS / WALLET\n\n    uint256 public max; // MAX TOTAL MINTS\n    uint256 public sloz; // MAX FREE MINTS\n    // */\n    // Public Variables\n    address public owner; // CONTRACT OWNER\n    address iceAdr;\n    uint256 public minted; // TOKENS MINTED 1-5000\n    string public nam; // TOKEN NAME\n    string public sym; // TOKEN SYMBOL\n    uint256 public slots; // SLOZ USED 1-1234\n    bool public start; // ALLOWS MINT TO START\n    // Public Mappings\n    mapping(uint256 => bytes) public dias; // TOKEN ID SHOWS DIAS BYTES OBJECT\n    mapping(uint256 => uint256) public tid; // TOKEN ID SHOWS DIAS ID\n    mapping(uint256 => string) public status; // TOKEN ID SHOWS USER STATUS\n    mapping(uint256 => uint256) public icebox; // TOKEN ID SHOWS FROOT ICE BALANCE\n    mapping(uint256 => uint256) public meltbox; // melted ICE of token id\n    mapping(uint256 => address) public ownedBy;\n    mapping(address => uint256) public minter; // Token ID by Address\n    ICE public ice;\n    Greenlist public GLC;\n\n    modifier onlyO() {\n        // ONLY OWNER CAN USE MOD FUNX\n        require(msg.sender == owner);\n        _;\n    }\n    modifier onlyG() {\n        // ONLY OWNER CAN USE MOD FUNX\n        require(address(GLC) == owner);\n        _;\n    }\n\n    constructor(\n        address _ICE,\n        address _Greenlist,\n        uint256 _t\n    ) ERC721(\"Cool Froots\", \"FROOT\") {\n        // INIT CONTRACT SET PUB VARS\n        minted = 1;\n        slots = 0;\n        owner = msg.sender;\n        nam = \"Cool Froots\";\n        sym = \"FROOT\";\n        ice = ICE(_ICE);\n        GLC = Greenlist(_Greenlist);\n        if (_t == 0) {\n            max = 5;\n            sloz = 1;\n            price = 5 * 10**16;\n            statusprice = (1 * digits) / 10000; // 0.0001???\n        }\n        if (_t > 0) {\n            max = 5555;\n            sloz = 1234;\n            // ETH\n            if (_t == 1) {\n                price = (6 * digits) / 100; // 0.06ETH\n                statusprice = (3 * digits) / 10000; // 0.0003ETH\n            }\n            // MATIC\n            if (_t == 2) {\n                price = (60 * digits); // 60MTC\n                statusprice = (6 * digits) / 100; // 0.06MTC\n            }\n            // FIL\n            if (_t == 3) {\n                price = (3 * digits); // 3FIL\n                statusprice = (3 * digits) / 100; // 0.03FIL\n            }\n            // AVAX\n            if (_t == 4) {\n                price = (3 * digits); // 3AVX\n                statusprice = (3 * digits) / 100; // 0.03AVX\n            }\n            // CELO\n            if (_t == 5) {\n                price = (60 * digits); // 60CLO\n                statusprice = (6 * digits) / 100; // 0.06CLO\n            }\n        }\n    }\n\n    function isOwner(address _adr) external view returns (bool) {\n        // SHOWS BOOL OF OWNERSTATUS OF ADDRESS\n        if (_adr == owner) return true;\n        else return false;\n    }\n\n    function mint(\n        uint256 _amnt,\n        uint256[] memory _diasIDs,\n        string[] memory _diasOBJs\n    ) external payable returns (uint256) {\n        // INITIATES THE MINT OF UP TO 7 TOKENS IF ALLOWED\n        require(minted <= max + 1, \"SOLD OUT\");\n        require(msg.value >= _amnt * price, \"INSUFFICIET FUNDS\");\n        require(start == true, \"MINT IS NOT YET LIVE\");\n        ownedBy[minted] = msg.sender;\n        _doMint(_amnt, msg.sender, _diasIDs, _diasOBJs);\n        uint256 o = block.timestamp % 9;\n        ice.earn(msg.sender, o);\n        return minted;\n    }\n\n    function greenMint(uint256[] memory _diasIDs, string[] memory _diasOBJs)\n        external\n        returns (uint256)\n    {\n        // INITIATES THE MINT OF UP TO 7 TOKENS IF ALLOWED\n        require(minted <= max, \"SOLD OUT\");\n        require(start == true, \"MINT IS NOT YET LIVE\");\n        bool boo = GLC.isListed(msg.sender);\n        require(boo == true, \"YOU ARE NOT GREENLISTED\");\n        require(slots <= sloz, \"ALL SLOTS HAVE BEEN MINTED\");\n        ownedBy[minted] = msg.sender;\n        _doMint(1, msg.sender, _diasIDs, _diasOBJs);\n        uint256 o = block.timestamp % 9;\n        ice.earn(msg.sender, o);\n        slots++;\n        return minted;\n    }\n\n    function setStatus(uint256 _id, string memory _status)\n        external\n        payable\n        returns (bool)\n    {\n        require(ownedBy[_id] == msg.sender, \"YOU ARE NOT THE HOLDER\");\n        require(start == false, \"MINT IS STILL IN PROGRESS\");\n        require(msg.value >= statusprice);\n        uint256 o = block.timestamp % 9;\n        ice.earn(msg.sender, o / 2);\n        status[_id] = _status;\n        return true;\n    }\n\n    function addIce(uint256 _amount, uint256 _id)\n        external\n        returns (string memory)\n    {\n        require(ice.balanceOf(msg.sender) >= _amount * 10**18);\n        ice.burn(_amount * 10**18, msg.sender);\n        icebox[_id] += _amount;\n        if (meltbox[_id] == 0)\n            meltbox[_id] = block.timestamp + _amount * 60 * 60 * 24;\n        else meltbox[_id] += _amount * 60 * 60 * 24;\n        return \"ICE HAS BEEN ADDED TO FROOT !\";\n    }\n\n    function meltState() external view returns (int256 state) {\n        int256 meltleft = int256(meltbox[minter[msg.sender]]) -\n            int256(block.timestamp);\n        return state = (meltleft / 3600) * 24;\n    }\n\n    function changeMintState() external onlyO returns (bool) {\n        return cMS();\n    }\n\n    // ONLY TESTNET\n    /* */\n    function changeMS() external onlyG returns (bool) {\n        return cMS();\n    }\n\n    // */\n    function cMS() internal returns (bool) {\n        return start = !start;\n    }\n\n    function mintOne(\n        address _adr,\n        uint256 _diasID,\n        string memory _diasOBJ\n    ) internal returns (uint256) {\n        // INTERNAL // MINTS ONE TOKEN\n        _mint(_adr, minted);\n        tid[minted] = _diasID;\n        dias[minted] = bytes(_diasOBJ);\n        minter[_adr] = minted;\n        minted++;\n        if (minted >= max + 1) cMS();\n        return minted;\n    }\n\n    function _doMint(\n        uint256 _amnt,\n        address _adr,\n        uint256[] memory _diasIDs,\n        string[] memory _diasOBJs\n    ) internal returns (uint256) {\n        require(\n            balanceOf(_adr) + _amnt <= num,\n            \"EXCEEDED MAX MINTABLE TOKENS PER WALLET\"\n        );\n        require(minted + _amnt <= max + 1, \"NOT ENOUGH SUPPLY\");\n        // INTERNAL // MINTS UP TO 7 TOKENS IN ONE TX\n        mintOne(_adr, _diasIDs[0], _diasOBJs[0]);\n        return minted;\n    }\n\n    function holder(uint256 _id) external view returns (address) {\n        // SHOWS OWNER OF TOKEN BY TID\n        return ownerOf(_id);\n    }\n\n    function clearSloz() external returns (bool) {\n        slots = 1234;\n        return true;\n    }\n\n    function flush() external returns (uint256) {\n        // WITHDRAW ALL ETHER FROM CONTRACT\n        payable(owner).transfer(address(this).balance);\n        return address(this).balance;\n    }\n\n    function flushERC20(address _erc) external returns (uint256) {\n        // WITHDRAW ALL COIN FROM CONTRACT\n        ERC20 coin = ERC20(_erc);\n        coin.transferFrom(address(this), owner, coin.balanceOf(address(this)));\n        return coin.balanceOf(address(this));\n    }\n\n    function flushERC721(address _erc, uint256 _id) external returns (uint256) {\n        // WITHDRAW ALL NFT FROM CONTRACT\n        ERC721 coin = ERC721(_erc);\n        coin.transferFrom(address(this), owner, _id);\n        return _id;\n    }\n}\n",
  "sourcePath": "/Users/iii6/Documents/GitHub/niftish/contracts/FrootyCoolTingz.sol",
  "compiler": {
    "name": "solc",
    "version": "0.8.17+commit.8df45f5f.Emscripten.clang"
  },
  "schemaVersion": "3.4.8",
  "updatedAt": "2023-03-19T19:55:37.502Z",
  "networkType": "ethereum",
  "devdoc": {
    "kind": "dev",
    "methods": {
      "approve(address,uint256)": {
        "details": "See {IERC721-approve}."
      },
      "balanceOf(address)": {
        "details": "See {IERC721-balanceOf}."
      },
      "getApproved(uint256)": {
        "details": "See {IERC721-getApproved}."
      },
      "isApprovedForAll(address,address)": {
        "details": "See {IERC721-isApprovedForAll}."
      },
      "name()": {
        "details": "See {IERC721Metadata-name}."
      },
      "ownerOf(uint256)": {
        "details": "See {IERC721-ownerOf}."
      },
      "safeTransferFrom(address,address,uint256)": {
        "details": "See {IERC721-safeTransferFrom}."
      },
      "safeTransferFrom(address,address,uint256,bytes)": {
        "details": "See {IERC721-safeTransferFrom}."
      },
      "setApprovalForAll(address,bool)": {
        "details": "See {IERC721-setApprovalForAll}."
      },
      "supportsInterface(bytes4)": {
        "details": "See {IERC165-supportsInterface}."
      },
      "symbol()": {
        "details": "See {IERC721Metadata-symbol}."
      },
      "tokenURI(uint256)": {
        "details": "See {IERC721Metadata-tokenURI}."
      },
      "transferFrom(address,address,uint256)": {
        "details": "See {IERC721-transferFrom}."
      }
    },
    "version": 1
  },
  "userdoc": {
    "kind": "user",
    "methods": {},
    "version": 1
  }
}