{
  "contractName": "FrootsUpdate",
  "abi": [
    {
      "inputs": [
        {
          "internalType": "address",
          "name": "_froots",
          "type": "address"
        }
      ],
      "stateMutability": "nonpayable",
      "type": "constructor"
    },
    {
      "inputs": [
        {
          "internalType": "uint256",
          "name": "id",
          "type": "uint256"
        }
      ],
      "name": "NoChange",
      "type": "error"
    },
    {
      "inputs": [
        {
          "internalType": "address",
          "name": "user",
          "type": "address"
        }
      ],
      "name": "NotOwner",
      "type": "error"
    },
    {
      "inputs": [
        {
          "internalType": "uint256",
          "name": "time",
          "type": "uint256"
        }
      ],
      "name": "NotYet",
      "type": "error"
    },
    {
      "inputs": [],
      "name": "OnlySimulatedBackend",
      "type": "error"
    },
    {
      "inputs": [
        {
          "internalType": "uint256",
          "name": "",
          "type": "uint256"
        }
      ],
      "name": "count",
      "outputs": [
        {
          "internalType": "address",
          "name": "",
          "type": "address"
        }
      ],
      "stateMutability": "view",
      "type": "function",
      "constant": true
    },
    {
      "inputs": [],
      "name": "froots",
      "outputs": [
        {
          "internalType": "contract COOLFROOT",
          "name": "",
          "type": "address"
        }
      ],
      "stateMutability": "view",
      "type": "function",
      "constant": true
    },
    {
      "inputs": [],
      "name": "interval",
      "outputs": [
        {
          "internalType": "uint256",
          "name": "",
          "type": "uint256"
        }
      ],
      "stateMutability": "view",
      "type": "function",
      "constant": true
    },
    {
      "inputs": [],
      "name": "lastTimeStamp",
      "outputs": [
        {
          "internalType": "uint256",
          "name": "",
          "type": "uint256"
        }
      ],
      "stateMutability": "view",
      "type": "function",
      "constant": true
    },
    {
      "inputs": [
        {
          "internalType": "bytes",
          "name": "checkData",
          "type": "bytes"
        }
      ],
      "name": "checkUpkeep",
      "outputs": [
        {
          "internalType": "bool",
          "name": "upkeepNeeded",
          "type": "bool"
        },
        {
          "internalType": "bytes",
          "name": "performData",
          "type": "bytes"
        }
      ],
      "stateMutability": "view",
      "type": "function",
      "constant": true
    },
    {
      "inputs": [
        {
          "internalType": "bytes",
          "name": "",
          "type": "bytes"
        }
      ],
      "name": "performUpkeep",
      "outputs": [],
      "stateMutability": "nonpayable",
      "type": "function"
    },
    {
      "inputs": [
        {
          "internalType": "uint256",
          "name": "_budget",
          "type": "uint256"
        },
        {
          "internalType": "uint256",
          "name": "_interval",
          "type": "uint256"
        }
      ],
      "name": "setUpKeep",
      "outputs": [
        {
          "components": [
            {
              "internalType": "address",
              "name": "owner",
              "type": "address"
            },
            {
              "internalType": "uint256",
              "name": "tokenId",
              "type": "uint256"
            },
            {
              "internalType": "uint256",
              "name": "diasID",
              "type": "uint256"
            },
            {
              "internalType": "string",
              "name": "status",
              "type": "string"
            },
            {
              "internalType": "uint256",
              "name": "likes",
              "type": "uint256"
            },
            {
              "internalType": "uint256",
              "name": "time",
              "type": "uint256"
            },
            {
              "internalType": "uint256",
              "name": "budget",
              "type": "uint256"
            },
            {
              "internalType": "uint256",
              "name": "interval",
              "type": "uint256"
            }
          ],
          "internalType": "struct FrootsUpdate.State",
          "name": "",
          "type": "tuple"
        }
      ],
      "stateMutability": "nonpayable",
      "type": "function"
    },
    {
      "inputs": [],
      "name": "doUpdate",
      "outputs": [],
      "stateMutability": "nonpayable",
      "type": "function"
    },
    {
      "inputs": [
        {
          "internalType": "address",
          "name": "_adr",
          "type": "address"
        },
        {
          "internalType": "uint256",
          "name": "_state",
          "type": "uint256"
        }
      ],
      "name": "getStateCount",
      "outputs": [
        {
          "components": [
            {
              "internalType": "address",
              "name": "owner",
              "type": "address"
            },
            {
              "internalType": "uint256",
              "name": "tokenId",
              "type": "uint256"
            },
            {
              "internalType": "uint256",
              "name": "diasID",
              "type": "uint256"
            },
            {
              "internalType": "string",
              "name": "status",
              "type": "string"
            },
            {
              "internalType": "uint256",
              "name": "likes",
              "type": "uint256"
            },
            {
              "internalType": "uint256",
              "name": "time",
              "type": "uint256"
            },
            {
              "internalType": "uint256",
              "name": "budget",
              "type": "uint256"
            },
            {
              "internalType": "uint256",
              "name": "interval",
              "type": "uint256"
            }
          ],
          "internalType": "struct FrootsUpdate.State",
          "name": "",
          "type": "tuple"
        }
      ],
      "stateMutability": "view",
      "type": "function",
      "constant": true
    }
  ],
  "bytecode": "0x60a06040523480156200001157600080fd5b5060405162001fb938038062001fb9833981810160405281019062000037919062000100565b6000808190555080600460006101000a81548173ffffffffffffffffffffffffffffffffffffffff021916908373ffffffffffffffffffffffffffffffffffffffff160217905550603c60808181525050426006819055505062000132565b600080fd5b600073ffffffffffffffffffffffffffffffffffffffff82169050919050565b6000620000c8826200009b565b9050919050565b620000da81620000bb565b8114620000e657600080fd5b50565b600081519050620000fa81620000cf565b92915050565b60006020828403121562000119576200011862000096565b5b60006200012984828501620000e9565b91505092915050565b608051611e5662000163600039600081816103ae015281816108c1015281816109670152610c5c0152611e566000f3fe608060405234801561001057600080fd5b50600436106100935760003560e01c80634585e33b116100665780634585e33b14610120578063529529c11461013c5780636e04ff0d1461016c57806375ff10fd1461019d578063947a36fb146101bb57610093565b80631dca00d7146100985780633b3546c8146100c85780633e799336146100f85780633f3b3b2714610102575b600080fd5b6100b260048036038101906100ad919061131c565b6101d9565b6040516100bf91906114ba565b60405180910390f35b6100e260048036038101906100dd91906114dc565b610369565b6040516100ef9190611518565b60405180910390f35b61010061039c565b005b61010a6103a6565b6040516101179190611542565b60405180910390f35b61013a600480360381019061013591906115c2565b6103ac565b005b6101566004803603810190610151919061160f565b6103f5565b60405161016391906114ba565b60405180910390f35b610186600480360381019061018191906115c2565b6108bb565b6040516101949291906116bf565b60405180910390f35b6101a561093f565b6040516101b2919061174e565b60405180910390f35b6101c3610965565b6040516101d09190611542565b60405180910390f35b6101e1611219565b600360008473ffffffffffffffffffffffffffffffffffffffff1673ffffffffffffffffffffffffffffffffffffffff1681526020019081526020016000206000838152602001908152602001600020604051806101000160405290816000820160009054906101000a900473ffffffffffffffffffffffffffffffffffffffff1673ffffffffffffffffffffffffffffffffffffffff1673ffffffffffffffffffffffffffffffffffffffff16815260200160018201548152602001600282015481526020016003820180546102b790611798565b80601f01602080910402602001604051908101604052809291908181526020018280546102e390611798565b80156103305780601f1061030557610100808354040283529160200191610330565b820191906000526020600020905b81548152906001019060200180831161031357829003601f168201915b50505050508152602001600482015481526020016005820154815260200160068201548152602001600782015481525050905092915050565b60016020528060005260406000206000915054906101000a900473ffffffffffffffffffffffffffffffffffffffff1681565b6103a4610989565b565b60065481565b7f0000000000000000000000000000000000000000000000000000000000000000600654426103db91906117f8565b11156103f157426006819055506103f0610989565b5b5050565b6103fd611219565b6000600460009054906101000a900473ffffffffffffffffffffffffffffffffffffffff1673ffffffffffffffffffffffffffffffffffffffff16633dd08c38336040518263ffffffff1660e01b815260040161045a9190611518565b602060405180830381865afa158015610477573d6000803e3d6000fd5b505050506040513d601f19601f8201168201806040525081019061049b9190611841565b9050600081116104e257336040517f245aecd30000000000000000000000000000000000000000000000000000000081526004016104d99190611518565b60405180910390fd5b6000600460009054906101000a900473ffffffffffffffffffffffffffffffffffffffff1673ffffffffffffffffffffffffffffffffffffffff1663ae943abc836040518263ffffffff1660e01b815260040161053f9190611542565b602060405180830381865afa15801561055c573d6000803e3d6000fd5b505050506040513d601f19601f820116820180604052508101906105809190611841565b90506000600460009054906101000a900473ffffffffffffffffffffffffffffffffffffffff1673ffffffffffffffffffffffffffffffffffffffff166342d21ef7846040518263ffffffff1660e01b81526004016105df9190611542565b600060405180830381865afa1580156105fc573d6000803e3d6000fd5b505050506040513d6000823e3d601f19601f82011682018060405250810190610625919061198f565b905060006040518061010001604052803373ffffffffffffffffffffffffffffffffffffffff168152602001858152602001848152602001838152602001600081526020014281526020018881526020018781525090503360016000600554815260200190815260200160002060006101000a81548173ffffffffffffffffffffffffffffffffffffffff021916908373ffffffffffffffffffffffffffffffffffffffff1602179055506000600260003373ffffffffffffffffffffffffffffffffffffffff1673ffffffffffffffffffffffffffffffffffffffff1681526020019081526020016000208190555080600360003373ffffffffffffffffffffffffffffffffffffffff1673ffffffffffffffffffffffffffffffffffffffff1681526020019081526020016000206000600260003373ffffffffffffffffffffffffffffffffffffffff1673ffffffffffffffffffffffffffffffffffffffff16815260200190815260200160002054815260200190815260200160002060008201518160000160006101000a81548173ffffffffffffffffffffffffffffffffffffffff021916908373ffffffffffffffffffffffffffffffffffffffff160217905550602082015181600101556040820151816002015560608201518160030190816108159190611b7a565b506080820151816004015560a0820151816005015560c0820151816006015560e08201518160070155905050600260003373ffffffffffffffffffffffffffffffffffffffff1673ffffffffffffffffffffffffffffffffffffffff168152602001908152602001600020600081548092919061089190611c4c565b9190505550600560008154809291906108a990611c4c565b91905055508094505050505092915050565b600060607f0000000000000000000000000000000000000000000000000000000000000000600654426108ee91906117f8565b11915083838080601f016020809104026020016040519081016040528093929190818152602001838380828437600081840152601f19601f8201169050808301925050505050505090509250929050565b600460009054906101000a900473ffffffffffffffffffffffffffffffffffffffff1681565b7f000000000000000000000000000000000000000000000000000000000000000081565b60005b60055481116111ff57600060016000600554815260200190815260200160002060009054906101000a900473ffffffffffffffffffffffffffffffffffffffff1690506000600260008373ffffffffffffffffffffffffffffffffffffffff1673ffffffffffffffffffffffffffffffffffffffff1681526020019081526020016000205490506000600460009054906101000a900473ffffffffffffffffffffffffffffffffffffffff1673ffffffffffffffffffffffffffffffffffffffff16633dd08c38846040518263ffffffff1660e01b8152600401610a709190611518565b602060405180830381865afa158015610a8d573d6000803e3d6000fd5b505050506040513d601f19601f82011682018060405250810190610ab19190611841565b90506000600460009054906101000a900473ffffffffffffffffffffffffffffffffffffffff1673ffffffffffffffffffffffffffffffffffffffff1663ae943abc836040518263ffffffff1660e01b8152600401610b109190611542565b602060405180830381865afa158015610b2d573d6000803e3d6000fd5b505050506040513d601f19601f82011682018060405250810190610b519190611841565b90506000600460009054906101000a900473ffffffffffffffffffffffffffffffffffffffff1673ffffffffffffffffffffffffffffffffffffffff166342d21ef7846040518263ffffffff1660e01b8152600401610bb09190611542565b600060405180830381865afa158015610bcd573d6000803e3d6000fd5b505050506040513d6000823e3d601f19601f82011682018060405250810190610bf6919061198f565b90506000600360008773ffffffffffffffffffffffffffffffffffffffff1673ffffffffffffffffffffffffffffffffffffffff1681526020019081526020016000206000600187610c4891906117f8565b8152602001908152602001600020600701547f0000000000000000000000000000000000000000000000000000000000000000610c859190611c94565b90506000600360008873ffffffffffffffffffffffffffffffffffffffff1673ffffffffffffffffffffffffffffffffffffffff1681526020019081526020016000206000600188610cd791906117f8565b81526020019081526020016000206005015490506003600060016000600554815260200190815260200160002060009054906101000a900473ffffffffffffffffffffffffffffffffffffffff1673ffffffffffffffffffffffffffffffffffffffff1673ffffffffffffffffffffffffffffffffffffffff1681526020019081526020016000206000600188610d6e91906117f8565b8152602001908152602001600020600301604051602001610d8f9190611d64565b6040516020818303038152906040528051906020012083604051602001610db69190611dac565b60405160208183030381529060405280519060200120146111a857428282610dde9190611dc3565b1161115b57600060405180610100016040528060016000600554815260200190815260200160002060009054906101000a900473ffffffffffffffffffffffffffffffffffffffff1673ffffffffffffffffffffffffffffffffffffffff168152602001878152602001868152602001858152602001600081526020014281526020016003600060016000600554815260200190815260200160002060009054906101000a900473ffffffffffffffffffffffffffffffffffffffff1673ffffffffffffffffffffffffffffffffffffffff1673ffffffffffffffffffffffffffffffffffffffff168152602001908152602001600020600060018b610ee491906117f8565b81526020019081526020016000206006016000815480929190610f0690611df7565b9190505581526020016003600060016000600554815260200190815260200160002060009054906101000a900473ffffffffffffffffffffffffffffffffffffffff1673ffffffffffffffffffffffffffffffffffffffff1673ffffffffffffffffffffffffffffffffffffffff168152602001908152602001600020600060018b610f9291906117f8565b8152602001908152602001600020600701548152509050806003600060016000600554815260200190815260200160002060009054906101000a900473ffffffffffffffffffffffffffffffffffffffff1673ffffffffffffffffffffffffffffffffffffffff1673ffffffffffffffffffffffffffffffffffffffff168152602001908152602001600020600089815260200190815260200160002060008201518160000160006101000a81548173ffffffffffffffffffffffffffffffffffffffff021916908373ffffffffffffffffffffffffffffffffffffffff1602179055506020820151816001015560408201518160020155606082015181600301908161109f9190611b7a565b506080820151816004015560a0820151816005015560c0820151816006015560e082015181600701559050506002600060016000600554815260200190815260200160002060009054906101000a900473ffffffffffffffffffffffffffffffffffffffff1673ffffffffffffffffffffffffffffffffffffffff1673ffffffffffffffffffffffffffffffffffffffff168152602001908152602001600020600081548092919061115090611c4c565b9190505550506111a3565b81816111679190611dc3565b6040517fe465623600000000000000000000000000000000000000000000000000000000815260040161119a9190611542565b60405180910390fd5b6111e5565b836040517fb305b7e60000000000000000000000000000000000000000000000000000000081526004016111dc9190611542565b60405180910390fd5b5050505050505080806111f790611c4c565b91505061098c565b5060008081548092919061121290611c4c565b9190505550565b604051806101000160405280600073ffffffffffffffffffffffffffffffffffffffff168152602001600081526020016000815260200160608152602001600081526020016000815260200160008152602001600081525090565b6000604051905090565b600080fd5b600080fd5b600073ffffffffffffffffffffffffffffffffffffffff82169050919050565b60006112b382611288565b9050919050565b6112c3816112a8565b81146112ce57600080fd5b50565b6000813590506112e0816112ba565b92915050565b6000819050919050565b6112f9816112e6565b811461130457600080fd5b50565b600081359050611316816112f0565b92915050565b600080604083850312156113335761133261127e565b5b6000611341858286016112d1565b925050602061135285828601611307565b9150509250929050565b611365816112a8565b82525050565b611374816112e6565b82525050565b600081519050919050565b600082825260208201905092915050565b60005b838110156113b4578082015181840152602081019050611399565b60008484015250505050565b6000601f19601f8301169050919050565b60006113dc8261137a565b6113e68185611385565b93506113f6818560208601611396565b6113ff816113c0565b840191505092915050565b600061010083016000830151611423600086018261135c565b506020830151611436602086018261136b565b506040830151611449604086018261136b565b506060830151848203606086015261146182826113d1565b9150506080830151611476608086018261136b565b5060a083015161148960a086018261136b565b5060c083015161149c60c086018261136b565b5060e08301516114af60e086018261136b565b508091505092915050565b600060208201905081810360008301526114d4818461140a565b905092915050565b6000602082840312156114f2576114f161127e565b5b600061150084828501611307565b91505092915050565b611512816112a8565b82525050565b600060208201905061152d6000830184611509565b92915050565b61153c816112e6565b82525050565b60006020820190506115576000830184611533565b92915050565b600080fd5b600080fd5b600080fd5b60008083601f8401126115825761158161155d565b5b8235905067ffffffffffffffff81111561159f5761159e611562565b5b6020830191508360018202830111156115bb576115ba611567565b5b9250929050565b600080602083850312156115d9576115d861127e565b5b600083013567ffffffffffffffff8111156115f7576115f6611283565b5b6116038582860161156c565b92509250509250929050565b600080604083850312156116265761162561127e565b5b600061163485828601611307565b925050602061164585828601611307565b9150509250929050565b60008115159050919050565b6116648161164f565b82525050565b600081519050919050565b600082825260208201905092915050565b60006116918261166a565b61169b8185611675565b93506116ab818560208601611396565b6116b4816113c0565b840191505092915050565b60006040820190506116d4600083018561165b565b81810360208301526116e68184611686565b90509392505050565b6000819050919050565b600061171461170f61170a84611288565b6116ef565b611288565b9050919050565b6000611726826116f9565b9050919050565b60006117388261171b565b9050919050565b6117488161172d565b82525050565b6000602082019050611763600083018461173f565b92915050565b7f4e487b7100000000000000000000000000000000000000000000000000000000600052602260045260246000fd5b600060028204905060018216806117b057607f821691505b6020821081036117c3576117c2611769565b5b50919050565b7f4e487b7100000000000000000000000000000000000000000000000000000000600052601160045260246000fd5b6000611803826112e6565b915061180e836112e6565b9250828203905081811115611826576118256117c9565b5b92915050565b60008151905061183b816112f0565b92915050565b6000602082840312156118575761185661127e565b5b60006118658482850161182c565b91505092915050565b600080fd5b7f4e487b7100000000000000000000000000000000000000000000000000000000600052604160045260246000fd5b6118ab826113c0565b810181811067ffffffffffffffff821117156118ca576118c9611873565b5b80604052505050565b60006118dd611274565b90506118e982826118a2565b919050565b600067ffffffffffffffff82111561190957611908611873565b5b611912826113c0565b9050602081019050919050565b600061193261192d846118ee565b6118d3565b90508281526020810184848401111561194e5761194d61186e565b5b611959848285611396565b509392505050565b600082601f8301126119765761197561155d565b5b815161198684826020860161191f565b91505092915050565b6000602082840312156119a5576119a461127e565b5b600082015167ffffffffffffffff8111156119c3576119c2611283565b5b6119cf84828501611961565b91505092915050565b60008190508160005260206000209050919050565b60006020601f8301049050919050565b600082821b905092915050565b600060088302611a3a7fffffffffffffffffffffffffffffffffffffffffffffffffffffffffffffffff826119fd565b611a4486836119fd565b95508019841693508086168417925050509392505050565b6000611a77611a72611a6d846112e6565b6116ef565b6112e6565b9050919050565b6000819050919050565b611a9183611a5c565b611aa5611a9d82611a7e565b848454611a0a565b825550505050565b600090565b611aba611aad565b611ac5818484611a88565b505050565b5b81811015611ae957611ade600082611ab2565b600181019050611acb565b5050565b601f821115611b2e57611aff816119d8565b611b08846119ed565b81016020851015611b17578190505b611b2b611b23856119ed565b830182611aca565b50505b505050565b600082821c905092915050565b6000611b5160001984600802611b33565b1980831691505092915050565b6000611b6a8383611b40565b9150826002028217905092915050565b611b838261137a565b67ffffffffffffffff811115611b9c57611b9b611873565b5b611ba68254611798565b611bb1828285611aed565b600060209050601f831160018114611be45760008415611bd2578287015190505b611bdc8582611b5e565b865550611c44565b601f198416611bf2866119d8565b60005b82811015611c1a57848901518255600182019150602085019450602081019050611bf5565b86831015611c375784890151611c33601f891682611b40565b8355505b6001600288020188555050505b505050505050565b6000611c57826112e6565b91507fffffffffffffffffffffffffffffffffffffffffffffffffffffffffffffffff8203611c8957611c886117c9565b5b600182019050919050565b6000611c9f826112e6565b9150611caa836112e6565b9250828202611cb8816112e6565b91508282048414831517611ccf57611cce6117c9565b5b5092915050565b600081905092915050565b60008154611cee81611798565b611cf88186611cd6565b94506001821660008114611d135760018114611d2857611d5b565b60ff1983168652811515820286019350611d5b565b611d31856119d8565b60005b83811015611d5357815481890152600182019150602081019050611d34565b838801955050505b50505092915050565b6000611d708284611ce1565b915081905092915050565b6000611d868261137a565b611d908185611cd6565b9350611da0818560208601611396565b80840191505092915050565b6000611db88284611d7b565b915081905092915050565b6000611dce826112e6565b9150611dd9836112e6565b9250828201905080821115611df157611df06117c9565b5b92915050565b6000611e02826112e6565b915060008203611e1557611e146117c9565b5b60018203905091905056fea26469706673582212205292582957add36aff72fe97f8481db76e15894ee500532b47f6f150478967a764736f6c63430008110033",
  "immutableReferences": {
    "3467": [
      {
        "length": 32,
        "start": 942
      },
      {
        "length": 32,
        "start": 2241
      },
      {
        "length": 32,
        "start": 2407
      },
      {
        "length": 32,
        "start": 3164
      }
    ]
  },
  "source": "// SPDX-License-Identifier: MIT\npragma solidity >=0.7.0 <0.9.0;\n\nimport \"@chainlink/contracts/src/v0.8/AutomationCompatible.sol\";\nimport {COOLFROOT, Greenlist} from \"./FrootyCoolTingz.sol\";\n\nerror NotOwner(address user);\nerror NoChange(uint256 id);\nerror NotYet(uint256 time);\n\ncontract FrootsUpdate is AutomationCompatible {\n    uint256 l;\n\n    mapping(uint256 => address) public count;\n    mapping(address => uint256) private statecount;\n    mapping(address => mapping(uint256 => State)) private statelist;\n    COOLFROOT public froots;\n    uint256 u;\n\n    uint256 public immutable interval;\n    uint256 public lastTimeStamp;\n\n    struct State {\n        address owner;\n        uint256 tokenId;\n        uint256 diasID;\n        string status;\n        uint256 likes;\n        uint256 time;\n        uint256 budget;\n        uint256 interval;\n    }\n\n    constructor(address _froots) {\n        l=0;\n        froots = COOLFROOT(_froots);\n        interval = 60;\n        lastTimeStamp = block.timestamp;\n    }\n\n    function checkUpkeep(\n        bytes calldata checkData\n    )\n        external\n        view\n        override\n        returns (\n            bool upkeepNeeded  ,\n             bytes memory  performData \n        )\n    {\n        upkeepNeeded = (block.timestamp - lastTimeStamp) > interval;\n        // We don't use the checkData in this example. The checkData is defined when the Upkeep was registered.\n        performData = checkData;\n    }\n\n    function performUpkeep(\n        bytes calldata /* performData */\n    ) external override {\n        //We highly recommend revalidating the upkeep in the performUpkeep function\n        if ((block.timestamp - lastTimeStamp) > interval) {\n            lastTimeStamp = block.timestamp;\n            // action here\n            _doUpkeep();\n        }\n        // We don't use the performData in this example. The performData is generated by the Automation Node's call to your checkUpkeep function\n    }\n\n    function setUpKeep(uint256 _budget, uint256 _interval)\n        external\n        returns (State memory)\n    {\n        uint256 tokenID = froots.minter(msg.sender);\n        if (tokenID <= 0) revert NotOwner(msg.sender);\n        uint256 diasID = froots.tid(tokenID);\n        string memory statusNow = froots.status(tokenID);\n        State memory state = State(\n            msg.sender,\n            tokenID,\n            diasID,\n            statusNow,\n            0,\n            block.timestamp,\n            _budget,\n            _interval\n        );\n        count[u] = msg.sender;\n        statecount[msg.sender] = 0;\n        statelist[msg.sender][statecount[msg.sender]] = state;\n        statecount[msg.sender]++;\n        u++;\n        \n        return state;\n    }\n    function _doUpkeep() internal {\n        for (uint256 i=0; i <= u; i++) {\n            // each user\n            address user = count[u];\n            uint256 c = statecount[user];\n            uint256 tokenID = froots.minter(user);\n            uint256 diasID = froots.tid(tokenID);\n            string memory statusNow = froots.status(tokenID);\n            uint256 unterval = interval * statelist[user][c - 1].interval;\n            uint256 laststamp = statelist[user][c - 1].time;\n            if (\n                keccak256(abi.encodePacked(statusNow)) !=\n                keccak256(abi.encodePacked(statelist[count[u]][c - 1].status))\n            ) {\n            if (laststamp + unterval <= block.timestamp) {\n                    \n                    State memory state = State(\n                        count[u],\n                        tokenID,\n                        diasID,\n                        statusNow,\n                        0,\n                        block.timestamp,\n                        statelist[count[u]][c - 1].budget--,\n                        statelist[count[u]][c - 1].interval\n                    );\n                    statelist[count[u]][c] = state;\n                    statecount[count[u]]++;\n                \n                } else revert NotYet(laststamp + unterval);\n            } else revert NoChange(diasID); \n                \n        }\n        l++; \n    }\n    function doUpdate() external {\n        _doUpkeep();\n    }\n    function getStateCount(address _adr, uint256 _state)\n        external\n        view\n        returns (State memory)\n    {\n        return statelist[_adr][_state];\n    }\n}\n\n\ncontract GreenUpdate is AutomationCompatibleInterface {\n\n    uint public counter;\n    string message;\n    Greenlist public gl;\n    uint public immutable interval;\n    uint public lastTimeStamp;\n\n    constructor(address _gl) {\n        interval = 60 * 5;\n        lastTimeStamp = block.timestamp;\n        counter = 0;\n        gl = Greenlist(_gl);\n        // \n    }\n\n    function checkUpkeep(\n        bytes calldata checkData\n    )\n        external\n        view\n        override\n        returns (bool upkeepNeeded, bytes memory performData)\n    {\n        string memory nu = gl.message();\n        upkeepNeeded = (block.timestamp - lastTimeStamp) > interval && keccak256(abi.encodePacked(message)) != keccak256(abi.encodePacked(nu));\n        // We don't use the checkData in this example. The checkData is defined when the Upkeep was registered.\n        performData = checkData;\n    }\n\n    function performUpkeep(bytes calldata /* performData */) external override {\n        //We highly recommend revalidating the upkeep in the performUpkeep function\n        string memory nu = gl.message();\n        if ((block.timestamp - lastTimeStamp) > interval && keccak256(abi.encodePacked(message)) != keccak256(abi.encodePacked(nu)) ) {\n            lastTimeStamp = block.timestamp;\n            counter = counter + 1;\n            gl.saveState();\n            message = gl.message();\n        }\n        // We don't use the performData in this example. The performData is generated by the Automation Node's call to your checkUpkeep function\n    }\n}\n\n\n\n",
  "sourcePath": "/Users/iii6/Documents/GitHub/niftish/contracts/FrootsUpdates.sol",
  "compiler": {
    "name": "solc",
    "version": "0.8.17+commit.8df45f5f.Emscripten.clang"
  },
  "schemaVersion": "3.4.8",
  "updatedAt": "2023-06-29T01:19:28.455Z",
  "networkType": "ethereum",
  "devdoc": {
    "kind": "dev",
    "methods": {
      "checkUpkeep(bytes)": {
        "details": "To ensure that it is never called, you may want to add the cannotExecute modifier from KeeperBase to your implementation of this method.",
        "params": {
          "checkData": "specified in the upkeep registration so it is always the same for a registered upkeep. This can easily be broken down into specific arguments using `abi.decode`, so multiple upkeeps can be registered on the same contract and easily differentiated by the contract."
        },
        "returns": {
          "performData": "bytes that the keeper should call performUpkeep with, if upkeep is needed. If you would like to encode data to decode later, try `abi.encode`.",
          "upkeepNeeded": "boolean to indicate whether the keeper should call performUpkeep or not."
        }
      }
    },
    "version": 1
  },
  "userdoc": {
    "kind": "user",
    "methods": {
      "checkUpkeep(bytes)": {
        "notice": "method that is simulated by the keepers to see if any work actually needs to be performed. This method does does not actually need to be executable, and since it is only ever simulated it can consume lots of gas."
      }
    },
    "version": 1
  }
}