{
  "contractName": "FrootyCoolTingz",
  "abi": [
    {
      "inputs": [
        {
          "internalType": "address",
          "name": "_ICE",
          "type": "address"
        },
        {
          "internalType": "address",
          "name": "_Greenlist",
          "type": "address"
        }
      ],
      "stateMutability": "nonpayable",
      "type": "constructor"
    },
    {
      "anonymous": false,
      "inputs": [
        {
          "indexed": true,
          "internalType": "address",
          "name": "owner",
          "type": "address"
        },
        {
          "indexed": true,
          "internalType": "address",
          "name": "approved",
          "type": "address"
        },
        {
          "indexed": true,
          "internalType": "uint256",
          "name": "tokenId",
          "type": "uint256"
        }
      ],
      "name": "Approval",
      "type": "event"
    },
    {
      "anonymous": false,
      "inputs": [
        {
          "indexed": true,
          "internalType": "address",
          "name": "owner",
          "type": "address"
        },
        {
          "indexed": true,
          "internalType": "address",
          "name": "operator",
          "type": "address"
        },
        {
          "indexed": false,
          "internalType": "bool",
          "name": "approved",
          "type": "bool"
        }
      ],
      "name": "ApprovalForAll",
      "type": "event"
    },
    {
      "anonymous": false,
      "inputs": [
        {
          "indexed": true,
          "internalType": "address",
          "name": "from",
          "type": "address"
        },
        {
          "indexed": true,
          "internalType": "address",
          "name": "to",
          "type": "address"
        },
        {
          "indexed": true,
          "internalType": "uint256",
          "name": "tokenId",
          "type": "uint256"
        }
      ],
      "name": "Transfer",
      "type": "event"
    },
    {
      "inputs": [],
      "name": "GLC",
      "outputs": [
        {
          "internalType": "contract Greenlist",
          "name": "",
          "type": "address"
        }
      ],
      "stateMutability": "view",
      "type": "function",
      "constant": true
    },
    {
      "inputs": [
        {
          "internalType": "address",
          "name": "to",
          "type": "address"
        },
        {
          "internalType": "uint256",
          "name": "tokenId",
          "type": "uint256"
        }
      ],
      "name": "approve",
      "outputs": [],
      "stateMutability": "nonpayable",
      "type": "function"
    },
    {
      "inputs": [
        {
          "internalType": "address",
          "name": "owner",
          "type": "address"
        }
      ],
      "name": "balanceOf",
      "outputs": [
        {
          "internalType": "uint256",
          "name": "",
          "type": "uint256"
        }
      ],
      "stateMutability": "view",
      "type": "function",
      "constant": true
    },
    {
      "inputs": [
        {
          "internalType": "uint256",
          "name": "",
          "type": "uint256"
        }
      ],
      "name": "dias",
      "outputs": [
        {
          "internalType": "bytes",
          "name": "",
          "type": "bytes"
        }
      ],
      "stateMutability": "view",
      "type": "function",
      "constant": true
    },
    {
      "inputs": [
        {
          "internalType": "uint256",
          "name": "tokenId",
          "type": "uint256"
        }
      ],
      "name": "getApproved",
      "outputs": [
        {
          "internalType": "address",
          "name": "",
          "type": "address"
        }
      ],
      "stateMutability": "view",
      "type": "function",
      "constant": true
    },
    {
      "inputs": [],
      "name": "ice",
      "outputs": [
        {
          "internalType": "contract ICE",
          "name": "",
          "type": "address"
        }
      ],
      "stateMutability": "view",
      "type": "function",
      "constant": true
    },
    {
      "inputs": [
        {
          "internalType": "address",
          "name": "owner",
          "type": "address"
        },
        {
          "internalType": "address",
          "name": "operator",
          "type": "address"
        }
      ],
      "name": "isApprovedForAll",
      "outputs": [
        {
          "internalType": "bool",
          "name": "",
          "type": "bool"
        }
      ],
      "stateMutability": "view",
      "type": "function",
      "constant": true
    },
    {
      "inputs": [],
      "name": "max",
      "outputs": [
        {
          "internalType": "uint256",
          "name": "",
          "type": "uint256"
        }
      ],
      "stateMutability": "view",
      "type": "function",
      "constant": true
    },
    {
      "inputs": [],
      "name": "minted",
      "outputs": [
        {
          "internalType": "uint256",
          "name": "",
          "type": "uint256"
        }
      ],
      "stateMutability": "view",
      "type": "function",
      "constant": true
    },
    {
      "inputs": [],
      "name": "nam",
      "outputs": [
        {
          "internalType": "string",
          "name": "",
          "type": "string"
        }
      ],
      "stateMutability": "view",
      "type": "function",
      "constant": true
    },
    {
      "inputs": [],
      "name": "name",
      "outputs": [
        {
          "internalType": "string",
          "name": "",
          "type": "string"
        }
      ],
      "stateMutability": "view",
      "type": "function",
      "constant": true
    },
    {
      "inputs": [],
      "name": "num",
      "outputs": [
        {
          "internalType": "uint256",
          "name": "",
          "type": "uint256"
        }
      ],
      "stateMutability": "view",
      "type": "function",
      "constant": true
    },
    {
      "inputs": [
        {
          "internalType": "uint256",
          "name": "",
          "type": "uint256"
        }
      ],
      "name": "ownedBy",
      "outputs": [
        {
          "internalType": "address",
          "name": "",
          "type": "address"
        }
      ],
      "stateMutability": "view",
      "type": "function",
      "constant": true
    },
    {
      "inputs": [],
      "name": "owner",
      "outputs": [
        {
          "internalType": "address",
          "name": "",
          "type": "address"
        }
      ],
      "stateMutability": "view",
      "type": "function",
      "constant": true
    },
    {
      "inputs": [
        {
          "internalType": "uint256",
          "name": "tokenId",
          "type": "uint256"
        }
      ],
      "name": "ownerOf",
      "outputs": [
        {
          "internalType": "address",
          "name": "",
          "type": "address"
        }
      ],
      "stateMutability": "view",
      "type": "function",
      "constant": true
    },
    {
      "inputs": [],
      "name": "price",
      "outputs": [
        {
          "internalType": "uint256",
          "name": "",
          "type": "uint256"
        }
      ],
      "stateMutability": "view",
      "type": "function",
      "constant": true
    },
    {
      "inputs": [
        {
          "internalType": "address",
          "name": "from",
          "type": "address"
        },
        {
          "internalType": "address",
          "name": "to",
          "type": "address"
        },
        {
          "internalType": "uint256",
          "name": "tokenId",
          "type": "uint256"
        }
      ],
      "name": "safeTransferFrom",
      "outputs": [],
      "stateMutability": "nonpayable",
      "type": "function"
    },
    {
      "inputs": [
        {
          "internalType": "address",
          "name": "from",
          "type": "address"
        },
        {
          "internalType": "address",
          "name": "to",
          "type": "address"
        },
        {
          "internalType": "uint256",
          "name": "tokenId",
          "type": "uint256"
        },
        {
          "internalType": "bytes",
          "name": "_data",
          "type": "bytes"
        }
      ],
      "name": "safeTransferFrom",
      "outputs": [],
      "stateMutability": "nonpayable",
      "type": "function"
    },
    {
      "inputs": [
        {
          "internalType": "address",
          "name": "operator",
          "type": "address"
        },
        {
          "internalType": "bool",
          "name": "approved",
          "type": "bool"
        }
      ],
      "name": "setApprovalForAll",
      "outputs": [],
      "stateMutability": "nonpayable",
      "type": "function"
    },
    {
      "inputs": [],
      "name": "slots",
      "outputs": [
        {
          "internalType": "uint256",
          "name": "",
          "type": "uint256"
        }
      ],
      "stateMutability": "view",
      "type": "function",
      "constant": true
    },
    {
      "inputs": [],
      "name": "sloz",
      "outputs": [
        {
          "internalType": "uint256",
          "name": "",
          "type": "uint256"
        }
      ],
      "stateMutability": "view",
      "type": "function",
      "constant": true
    },
    {
      "inputs": [],
      "name": "start",
      "outputs": [
        {
          "internalType": "bool",
          "name": "",
          "type": "bool"
        }
      ],
      "stateMutability": "view",
      "type": "function",
      "constant": true
    },
    {
      "inputs": [
        {
          "internalType": "uint256",
          "name": "",
          "type": "uint256"
        }
      ],
      "name": "status",
      "outputs": [
        {
          "internalType": "string",
          "name": "",
          "type": "string"
        }
      ],
      "stateMutability": "view",
      "type": "function",
      "constant": true
    },
    {
      "inputs": [
        {
          "internalType": "bytes4",
          "name": "interfaceId",
          "type": "bytes4"
        }
      ],
      "name": "supportsInterface",
      "outputs": [
        {
          "internalType": "bool",
          "name": "",
          "type": "bool"
        }
      ],
      "stateMutability": "view",
      "type": "function",
      "constant": true
    },
    {
      "inputs": [],
      "name": "sym",
      "outputs": [
        {
          "internalType": "string",
          "name": "",
          "type": "string"
        }
      ],
      "stateMutability": "view",
      "type": "function",
      "constant": true
    },
    {
      "inputs": [],
      "name": "symbol",
      "outputs": [
        {
          "internalType": "string",
          "name": "",
          "type": "string"
        }
      ],
      "stateMutability": "view",
      "type": "function",
      "constant": true
    },
    {
      "inputs": [
        {
          "internalType": "uint256",
          "name": "",
          "type": "uint256"
        }
      ],
      "name": "tid",
      "outputs": [
        {
          "internalType": "uint256",
          "name": "",
          "type": "uint256"
        }
      ],
      "stateMutability": "view",
      "type": "function",
      "constant": true
    },
    {
      "inputs": [
        {
          "internalType": "uint256",
          "name": "tokenId",
          "type": "uint256"
        }
      ],
      "name": "tokenURI",
      "outputs": [
        {
          "internalType": "string",
          "name": "",
          "type": "string"
        }
      ],
      "stateMutability": "view",
      "type": "function",
      "constant": true
    },
    {
      "inputs": [
        {
          "internalType": "address",
          "name": "from",
          "type": "address"
        },
        {
          "internalType": "address",
          "name": "to",
          "type": "address"
        },
        {
          "internalType": "uint256",
          "name": "tokenId",
          "type": "uint256"
        }
      ],
      "name": "transferFrom",
      "outputs": [],
      "stateMutability": "nonpayable",
      "type": "function"
    },
    {
      "inputs": [
        {
          "internalType": "address",
          "name": "_adr",
          "type": "address"
        }
      ],
      "name": "isOwner",
      "outputs": [
        {
          "internalType": "bool",
          "name": "",
          "type": "bool"
        }
      ],
      "stateMutability": "view",
      "type": "function",
      "constant": true
    },
    {
      "inputs": [
        {
          "internalType": "uint256",
          "name": "_amnt",
          "type": "uint256"
        },
        {
          "internalType": "uint256[]",
          "name": "_diasIDs",
          "type": "uint256[]"
        },
        {
          "internalType": "string[]",
          "name": "_diasOBJs",
          "type": "string[]"
        }
      ],
      "name": "mint",
      "outputs": [
        {
          "internalType": "uint256",
          "name": "",
          "type": "uint256"
        }
      ],
      "stateMutability": "payable",
      "type": "function",
      "payable": true
    },
    {
      "inputs": [
        {
          "internalType": "uint256[]",
          "name": "_diasIDs",
          "type": "uint256[]"
        },
        {
          "internalType": "string[]",
          "name": "_diasOBJs",
          "type": "string[]"
        }
      ],
      "name": "greenMint",
      "outputs": [
        {
          "internalType": "uint256",
          "name": "",
          "type": "uint256"
        }
      ],
      "stateMutability": "nonpayable",
      "type": "function"
    },
    {
      "inputs": [
        {
          "internalType": "uint256",
          "name": "_id",
          "type": "uint256"
        },
        {
          "internalType": "string",
          "name": "_status",
          "type": "string"
        }
      ],
      "name": "setStatus",
      "outputs": [
        {
          "internalType": "bool",
          "name": "",
          "type": "bool"
        }
      ],
      "stateMutability": "payable",
      "type": "function",
      "payable": true
    },
    {
      "inputs": [],
      "name": "changeMintState",
      "outputs": [
        {
          "internalType": "bool",
          "name": "",
          "type": "bool"
        }
      ],
      "stateMutability": "nonpayable",
      "type": "function"
    },
    {
      "inputs": [],
      "name": "changeMS",
      "outputs": [
        {
          "internalType": "bool",
          "name": "",
          "type": "bool"
        }
      ],
      "stateMutability": "nonpayable",
      "type": "function"
    },
    {
      "inputs": [
        {
          "internalType": "uint256",
          "name": "_id",
          "type": "uint256"
        }
      ],
      "name": "holder",
      "outputs": [
        {
          "internalType": "address",
          "name": "",
          "type": "address"
        }
      ],
      "stateMutability": "view",
      "type": "function",
      "constant": true
    },
    {
      "inputs": [],
      "name": "clearSloz",
      "outputs": [
        {
          "internalType": "bool",
          "name": "",
          "type": "bool"
        }
      ],
      "stateMutability": "nonpayable",
      "type": "function"
    },
    {
      "inputs": [],
      "name": "flush",
      "outputs": [
        {
          "internalType": "uint256",
          "name": "",
          "type": "uint256"
        }
      ],
      "stateMutability": "nonpayable",
      "type": "function"
    },
    {
      "inputs": [
        {
          "internalType": "address",
          "name": "_erc",
          "type": "address"
        }
      ],
      "name": "flushERC20",
      "outputs": [
        {
          "internalType": "uint256",
          "name": "",
          "type": "uint256"
        }
      ],
      "stateMutability": "nonpayable",
      "type": "function"
    },
    {
      "inputs": [
        {
          "internalType": "address",
          "name": "_erc",
          "type": "address"
        },
        {
          "internalType": "uint256",
          "name": "_id",
          "type": "uint256"
        }
      ],
      "name": "flushERC721",
      "outputs": [
        {
          "internalType": "uint256",
          "name": "",
          "type": "uint256"
        }
      ],
      "stateMutability": "nonpayable",
      "type": "function"
    }
  ],
  "bytecode": "0x60806040523480156200001157600080fd5b50604051620053a9380380620053a983398181016040528101906200003791906200029c565b6040518060400160405280601181526020017f46726f6f747920436f6f6c2054696e677a0000000000000000000000000000008152506040518060400160405280600581526020017f46524f4f540000000000000000000000000000000000000000000000000000008152508160009081620000b491906200055d565b508060019081620000c691906200055d565b50505060016008819055506000600b8190555033600660006101000a81548173ffffffffffffffffffffffffffffffffffffffff021916908373ffffffffffffffffffffffffffffffffffffffff1602179055506040518060400160405280601181526020017f46726f6f747920436f6f6c2054696e677a000000000000000000000000000000815250600990816200016091906200055d565b506040518060400160405280600581526020017f46524f4f54000000000000000000000000000000000000000000000000000000815250600a9081620001a791906200055d565b5081601260006101000a81548173ffffffffffffffffffffffffffffffffffffffff021916908373ffffffffffffffffffffffffffffffffffffffff16021790555080601360006101000a81548173ffffffffffffffffffffffffffffffffffffffff021916908373ffffffffffffffffffffffffffffffffffffffff160217905550505062000644565b600080fd5b600073ffffffffffffffffffffffffffffffffffffffff82169050919050565b6000620002648262000237565b9050919050565b620002768162000257565b81146200028257600080fd5b50565b60008151905062000296816200026b565b92915050565b60008060408385031215620002b657620002b562000232565b5b6000620002c68582860162000285565b9250506020620002d98582860162000285565b9150509250929050565b600081519050919050565b7f4e487b7100000000000000000000000000000000000000000000000000000000600052604160045260246000fd5b7f4e487b7100000000000000000000000000000000000000000000000000000000600052602260045260246000fd5b600060028204905060018216806200036557607f821691505b6020821081036200037b576200037a6200031d565b5b50919050565b60008190508160005260206000209050919050565b60006020601f8301049050919050565b600082821b905092915050565b600060088302620003e57fffffffffffffffffffffffffffffffffffffffffffffffffffffffffffffffff82620003a6565b620003f18683620003a6565b95508019841693508086168417925050509392505050565b6000819050919050565b6000819050919050565b60006200043e62000438620004328462000409565b62000413565b62000409565b9050919050565b6000819050919050565b6200045a836200041d565b62000472620004698262000445565b848454620003b3565b825550505050565b600090565b620004896200047a565b620004968184846200044f565b505050565b5b81811015620004be57620004b26000826200047f565b6001810190506200049c565b5050565b601f8211156200050d57620004d78162000381565b620004e28462000396565b81016020851015620004f2578190505b6200050a620005018562000396565b8301826200049b565b50505b505050565b600082821c905092915050565b6000620005326000198460080262000512565b1980831691505092915050565b60006200054d83836200051f565b9150826002028217905092915050565b6200056882620002e3565b67ffffffffffffffff811115620005845762000583620002ee565b5b6200059082546200034c565b6200059d828285620004c2565b600060209050601f831160018114620005d55760008415620005c0578287015190505b620005cc85826200053f565b8655506200063c565b601f198416620005e58662000381565b60005b828110156200060f57848901518255600182019150602085019450602081019050620005e8565b868310156200062f57848901516200062b601f8916826200051f565b8355505b6001600288020188555050505b505050505050565b614d5580620006546000396000f3fe60806040526004361061023b5760003560e01c806370a082311161012e578063a613e0e7116100ab578063ba899a2e1161006f578063ba899a2e146108f9578063be9a655514610936578063c87b56dd14610961578063e985e9c51461099e578063ea25b61d146109db5761023b565b8063a613e0e714610800578063a9700e1f1461083d578063ae943abc14610868578063b524fd6f146108a5578063b88d4fde146108d05761023b565b806395d89b41116100f257806395d89b41146107195780639af9bec0146107445780639b4f589f1461076f578063a035b1fe146107ac578063a22cb465146107d75761023b565b806370a082311461061957806376917df9146106565780637d23b33c1461068657806383813a28146106c35780638da5cb5b146106ee5761023b565b806342d21ef7116101bc5780634f02c420116101805780634f02c420146105305780636352211e1461055b5780636ac5db19146105985780636b9f96ea146105c35780636f743acd146105ee5761023b565b806342d21ef714610435578063477523c21461047257806348547d69146104af5780634c2a860d146104da5780634e70b1dc146105055761023b565b8063216d534c11610203578063216d534c1461033e57806323b872dd1461037b5780632f54bf6e146103a45780633b8d676f146103e157806342842e0e1461040c5761023b565b806301ffc9a71461024057806306fdde031461027d578063081812fc146102a8578063095ea7b3146102e557806320a7270d1461030e575b600080fd5b34801561024c57600080fd5b5061026760048036038101906102629190612ff4565b610a06565b604051610274919061303c565b60405180910390f35b34801561028957600080fd5b50610292610ae8565b60405161029f91906130e7565b60405180910390f35b3480156102b457600080fd5b506102cf60048036038101906102ca919061313f565b610b7a565b6040516102dc91906131ad565b60405180910390f35b3480156102f157600080fd5b5061030c600480360381019061030791906131f4565b610bff565b005b61032860048036038101906103239190613512565b610d16565b60405161033591906135ac565b60405180910390f35b34801561034a57600080fd5b50610365600480360381019061036091906131f4565b610f09565b60405161037291906135ac565b60405180910390f35b34801561038757600080fd5b506103a2600480360381019061039d91906135c7565b610faa565b005b3480156103b057600080fd5b506103cb60048036038101906103c6919061361a565b61100a565b6040516103d8919061303c565b60405180910390f35b3480156103ed57600080fd5b506103f6611074565b604051610403919061303c565b60405180910390f35b34801561041857600080fd5b50610433600480360381019061042e91906135c7565b611083565b005b34801561044157600080fd5b5061045c6004803603810190610457919061313f565b6110a3565b60405161046991906130e7565b60405180910390f35b34801561047e57600080fd5b506104996004803603810190610494919061361a565b611143565b6040516104a691906135ac565b60405180910390f35b3480156104bb57600080fd5b506104c46112e7565b6040516104d191906135ac565b60405180910390f35b3480156104e657600080fd5b506104ef6112ed565b6040516104fc91906136a6565b60405180910390f35b34801561051157600080fd5b5061051a611313565b60405161052791906135ac565b60405180910390f35b34801561053c57600080fd5b50610545611318565b60405161055291906135ac565b60405180910390f35b34801561056757600080fd5b50610582600480360381019061057d919061313f565b61131e565b60405161058f91906131ad565b60405180910390f35b3480156105a457600080fd5b506105ad6113cf565b6040516105ba91906135ac565b60405180910390f35b3480156105cf57600080fd5b506105d86113d4565b6040516105e591906135ac565b60405180910390f35b3480156105fa57600080fd5b50610603611445565b60405161061091906135ac565b60405180910390f35b34801561062557600080fd5b50610640600480360381019061063b919061361a565b61144a565b60405161064d91906135ac565b60405180910390f35b610670600480360381019061066b91906136c1565b611501565b60405161067d919061303c565b60405180910390f35b34801561069257600080fd5b506106ad60048036038101906106a8919061371d565b6117a4565b6040516106ba91906135ac565b60405180910390f35b3480156106cf57600080fd5b506106d8611b0a565b6040516106e591906130e7565b60405180910390f35b3480156106fa57600080fd5b50610703611b98565b60405161071091906131ad565b60405180910390f35b34801561072557600080fd5b5061072e611bbe565b60405161073b91906130e7565b60405180910390f35b34801561075057600080fd5b50610759611c50565b60405161076691906130e7565b60405180910390f35b34801561077b57600080fd5b506107966004803603810190610791919061313f565b611cde565b6040516107a391906137ea565b60405180910390f35b3480156107b857600080fd5b506107c1611d7e565b6040516107ce91906135ac565b60405180910390f35b3480156107e357600080fd5b506107fe60048036038101906107f99190613838565b611d89565b005b34801561080c57600080fd5b506108276004803603810190610822919061313f565b611d9f565b60405161083491906131ad565b60405180910390f35b34801561084957600080fd5b50610852611dd2565b60405161085f9190613899565b60405180910390f35b34801561087457600080fd5b5061088f600480360381019061088a919061313f565b611df8565b60405161089c91906135ac565b60405180910390f35b3480156108b157600080fd5b506108ba611e10565b6040516108c7919061303c565b60405180910390f35b3480156108dc57600080fd5b506108f760048036038101906108f29190613955565b611e79565b005b34801561090557600080fd5b50610920600480360381019061091b919061313f565b611edb565b60405161092d91906131ad565b60405180910390f35b34801561094257600080fd5b5061094b611eed565b604051610958919061303c565b60405180910390f35b34801561096d57600080fd5b506109886004803603810190610983919061313f565b611f00565b60405161099591906130e7565b60405180910390f35b3480156109aa57600080fd5b506109c560048036038101906109c091906139d8565b611fa7565b6040516109d2919061303c565b60405180910390f35b3480156109e757600080fd5b506109f061203b565b6040516109fd919061303c565b60405180910390f35b60007f80ac58cd000000000000000000000000000000000000000000000000000000007bffffffffffffffffffffffffffffffffffffffffffffffffffffffff1916827bffffffffffffffffffffffffffffffffffffffffffffffffffffffff19161480610ad157507f5b5e139f000000000000000000000000000000000000000000000000000000007bffffffffffffffffffffffffffffffffffffffffffffffffffffffff1916827bffffffffffffffffffffffffffffffffffffffffffffffffffffffff1916145b80610ae15750610ae08261204d565b5b9050919050565b606060008054610af790613a47565b80601f0160208091040260200160405190810160405280929190818152602001828054610b2390613a47565b8015610b705780601f10610b4557610100808354040283529160200191610b70565b820191906000526020600020905b815481529060010190602001808311610b5357829003601f168201915b5050505050905090565b6000610b85826120b7565b610bc4576040517f08c379a0000000000000000000000000000000000000000000000000000000008152600401610bbb90613aea565b60405180910390fd5b6004600083815260200190815260200160002060009054906101000a900473ffffffffffffffffffffffffffffffffffffffff169050919050565b6000610c0a8261131e565b90508073ffffffffffffffffffffffffffffffffffffffff168373ffffffffffffffffffffffffffffffffffffffff1603610c7a576040517f08c379a0000000000000000000000000000000000000000000000000000000008152600401610c7190613b7c565b60405180910390fd5b8073ffffffffffffffffffffffffffffffffffffffff16610c99612123565b73ffffffffffffffffffffffffffffffffffffffff161480610cc85750610cc781610cc2612123565b611fa7565b5b610d07576040517f08c379a0000000000000000000000000000000000000000000000000000000008152600401610cfe90613c0e565b60405180910390fd5b610d11838361212b565b505050565b6000600b546001610d279190613c5d565b6005610d339190613c5d565b60085410610d76576040517f08c379a0000000000000000000000000000000000000000000000000000000008152600401610d6d90613cdd565b60405180910390fd5b6601c6bf5263400084610d899190613cfd565b341015610dcb576040517f08c379a0000000000000000000000000000000000000000000000000000000008152600401610dc290613d8b565b60405180910390fd5b60011515600c60009054906101000a900460ff16151514610e21576040517f08c379a0000000000000000000000000000000000000000000000000000000008152600401610e1890613df7565b60405180910390fd5b610e2d843385856121e4565b506000600942610e3d9190613e46565b905060005b818111610efb57601260009054906101000a900473ffffffffffffffffffffffffffffffffffffffff1673ffffffffffffffffffffffffffffffffffffffff1663fdb5fefc336040518263ffffffff1660e01b8152600401610ea491906131ad565b6020604051808303816000875af1158015610ec3573d6000803e3d6000fd5b505050506040513d601f19601f82011682018060405250810190610ee79190613e8c565b508080610ef390613eb9565b915050610e42565b506008549150509392505050565b6000808390508073ffffffffffffffffffffffffffffffffffffffff166323b872dd30600660009054906101000a900473ffffffffffffffffffffffffffffffffffffffff16866040518463ffffffff1660e01b8152600401610f6e93929190613f01565b600060405180830381600087803b158015610f8857600080fd5b505af1158015610f9c573d6000803e3d6000fd5b505050508291505092915050565b610fbb610fb5612123565b8261249f565b610ffa576040517f08c379a0000000000000000000000000000000000000000000000000000000008152600401610ff190613faa565b60405180910390fd5b61100583838361257d565b505050565b6000600660009054906101000a900473ffffffffffffffffffffffffffffffffffffffff1673ffffffffffffffffffffffffffffffffffffffff168273ffffffffffffffffffffffffffffffffffffffff160361106a576001905061106f565b600090505b919050565b600061107e6127d8565b905090565b61109e83838360405180602001604052806000815250611e79565b505050565b600f60205280600052604060002060009150905080546110c290613a47565b80601f01602080910402602001604051908101604052809291908181526020018280546110ee90613a47565b801561113b5780601f106111105761010080835404028352916020019161113b565b820191906000526020600020905b81548152906001019060200180831161111e57829003601f168201915b505050505081565b6000808290508073ffffffffffffffffffffffffffffffffffffffff166323b872dd30600660009054906101000a900473ffffffffffffffffffffffffffffffffffffffff168473ffffffffffffffffffffffffffffffffffffffff166370a08231306040518263ffffffff1660e01b81526004016111c291906131ad565b602060405180830381865afa1580156111df573d6000803e3d6000fd5b505050506040513d601f19601f820116820180604052508101906112039190613fdf565b6040518463ffffffff1660e01b815260040161122193929190613f01565b6020604051808303816000875af1158015611240573d6000803e3d6000fd5b505050506040513d601f19601f820116820180604052508101906112649190613e8c565b508073ffffffffffffffffffffffffffffffffffffffff166370a08231306040518263ffffffff1660e01b815260040161129e91906131ad565b602060405180830381865afa1580156112bb573d6000803e3d6000fd5b505050506040513d601f19601f820116820180604052508101906112df9190613fdf565b915050919050565b600b5481565b601260009054906101000a900473ffffffffffffffffffffffffffffffffffffffff1681565b600181565b60085481565b6000806002600084815260200190815260200160002060009054906101000a900473ffffffffffffffffffffffffffffffffffffffff169050600073ffffffffffffffffffffffffffffffffffffffff168173ffffffffffffffffffffffffffffffffffffffff16036113c6576040517f08c379a00000000000000000000000000000000000000000000000000000000081526004016113bd9061407e565b60405180910390fd5b80915050919050565b600581565b6000600660009054906101000a900473ffffffffffffffffffffffffffffffffffffffff1673ffffffffffffffffffffffffffffffffffffffff166108fc479081150290604051600060405180830381858888f1935050505015801561143e573d6000803e3d6000fd5b5047905090565b600181565b60008073ffffffffffffffffffffffffffffffffffffffff168273ffffffffffffffffffffffffffffffffffffffff16036114ba576040517f08c379a00000000000000000000000000000000000000000000000000000000081526004016114b190614110565b60405180910390fd5b600360008373ffffffffffffffffffffffffffffffffffffffff1673ffffffffffffffffffffffffffffffffffffffff168152602001908152602001600020549050919050565b60003373ffffffffffffffffffffffffffffffffffffffff166010600085815260200190815260200160002060009054906101000a900473ffffffffffffffffffffffffffffffffffffffff1673ffffffffffffffffffffffffffffffffffffffff16146115a4576040517f08c379a000000000000000000000000000000000000000000000000000000000815260040161159b9061417c565b60405180910390fd5b60001515600c60009054906101000a900460ff161515146115fa576040517f08c379a00000000000000000000000000000000000000000000000000000000081526004016115f1906141e8565b60405180910390fd5b670de0b6b3a764000034101561160f57600080fd5b601260009054906101000a900473ffffffffffffffffffffffffffffffffffffffff1673ffffffffffffffffffffffffffffffffffffffff1663fdb5fefc336040518263ffffffff1660e01b815260040161166a91906131ad565b6020604051808303816000875af1158015611689573d6000803e3d6000fd5b505050506040513d601f19601f820116820180604052508101906116ad9190613e8c565b5060006009426116bd9190613e46565b14806116d45750600980426116d29190613e46565b145b1561177957601260009054906101000a900473ffffffffffffffffffffffffffffffffffffffff1673ffffffffffffffffffffffffffffffffffffffff1663fdb5fefc336040518263ffffffff1660e01b815260040161173491906131ad565b6020604051808303816000875af1158015611753573d6000803e3d6000fd5b505050506040513d601f19601f820116820180604052508101906117779190613e8c565b505b81600f6000858152602001908152602001600020908161179991906143aa565b506001905092915050565b60006005600854106117eb576040517f08c379a00000000000000000000000000000000000000000000000000000000081526004016117e290613cdd565b60405180910390fd5b60011515600c60009054906101000a900460ff16151514611841576040517f08c379a000000000000000000000000000000000000000000000000000000000815260040161183890613df7565b60405180910390fd5b6000601360009054906101000a900473ffffffffffffffffffffffffffffffffffffffff1673ffffffffffffffffffffffffffffffffffffffff1663f794062e336040518263ffffffff1660e01b815260040161189e91906131ad565b602060405180830381865afa1580156118bb573d6000803e3d6000fd5b505050506040513d601f19601f820116820180604052508101906118df9190613e8c565b90506001151581151514611928576040517f08c379a000000000000000000000000000000000000000000000000000000000815260040161191f906144c8565b60405180910390fd5b6001600b54111561196e576040517f08c379a000000000000000000000000000000000000000000000000000000000815260040161196590614534565b60405180910390fd5b61197b60013386866121e4565b50601260009054906101000a900473ffffffffffffffffffffffffffffffffffffffff1673ffffffffffffffffffffffffffffffffffffffff1663fdb5fefc336040518263ffffffff1660e01b81526004016119d791906131ad565b6020604051808303816000875af11580156119f6573d6000803e3d6000fd5b505050506040513d601f19601f82011682018060405250810190611a1a9190613e8c565b506000600942611a2a9190613e46565b1480611a41575060098042611a3f9190613e46565b145b15611ae657601260009054906101000a900473ffffffffffffffffffffffffffffffffffffffff1673ffffffffffffffffffffffffffffffffffffffff1663fdb5fefc336040518263ffffffff1660e01b8152600401611aa191906131ad565b6020604051808303816000875af1158015611ac0573d6000803e3d6000fd5b505050506040513d601f19601f82011682018060405250810190611ae49190613e8c565b505b600b6000815480929190611af990613eb9565b919050555060085491505092915050565b600a8054611b1790613a47565b80601f0160208091040260200160405190810160405280929190818152602001828054611b4390613a47565b8015611b905780601f10611b6557610100808354040283529160200191611b90565b820191906000526020600020905b815481529060010190602001808311611b7357829003601f168201915b505050505081565b600660009054906101000a900473ffffffffffffffffffffffffffffffffffffffff1681565b606060018054611bcd90613a47565b80601f0160208091040260200160405190810160405280929190818152602001828054611bf990613a47565b8015611c465780601f10611c1b57610100808354040283529160200191611c46565b820191906000526020600020905b815481529060010190602001808311611c2957829003601f168201915b5050505050905090565b60098054611c5d90613a47565b80601f0160208091040260200160405190810160405280929190818152602001828054611c8990613a47565b8015611cd65780601f10611cab57610100808354040283529160200191611cd6565b820191906000526020600020905b815481529060010190602001808311611cb957829003601f168201915b505050505081565b600d6020528060005260406000206000915090508054611cfd90613a47565b80601f0160208091040260200160405190810160405280929190818152602001828054611d2990613a47565b8015611d765780601f10611d4b57610100808354040283529160200191611d76565b820191906000526020600020905b815481529060010190602001808311611d5957829003601f168201915b505050505081565b6601c6bf5263400081565b611d9b611d94612123565b8383612808565b5050565b60106020528060005260406000206000915054906101000a900473ffffffffffffffffffffffffffffffffffffffff1681565b601360009054906101000a900473ffffffffffffffffffffffffffffffffffffffff1681565b600e6020528060005260406000206000915090505481565b6000600660009054906101000a900473ffffffffffffffffffffffffffffffffffffffff1673ffffffffffffffffffffffffffffffffffffffff163373ffffffffffffffffffffffffffffffffffffffff1614611e6c57600080fd5b611e746127d8565b905090565b611e8a611e84612123565b8361249f565b611ec9576040517f08c379a0000000000000000000000000000000000000000000000000000000008152600401611ec090613faa565b60405180910390fd5b611ed584848484612974565b50505050565b6000611ee68261131e565b9050919050565b600c60009054906101000a900460ff1681565b6060611f0b826120b7565b611f4a576040517f08c379a0000000000000000000000000000000000000000000000000000000008152600401611f41906145c6565b60405180910390fd5b6000611f546129d0565b90506000815111611f745760405180602001604052806000815250611f9f565b80611f7e846129e7565b604051602001611f8f929190614622565b6040516020818303038152906040525b915050919050565b6000600560008473ffffffffffffffffffffffffffffffffffffffff1673ffffffffffffffffffffffffffffffffffffffff16815260200190815260200160002060008373ffffffffffffffffffffffffffffffffffffffff1673ffffffffffffffffffffffffffffffffffffffff16815260200190815260200160002060009054906101000a900460ff16905092915050565b60006104d2600b819055506001905090565b60007f01ffc9a7000000000000000000000000000000000000000000000000000000007bffffffffffffffffffffffffffffffffffffffffffffffffffffffff1916827bffffffffffffffffffffffffffffffffffffffffffffffffffffffff1916149050919050565b60008073ffffffffffffffffffffffffffffffffffffffff166002600084815260200190815260200160002060009054906101000a900473ffffffffffffffffffffffffffffffffffffffff1673ffffffffffffffffffffffffffffffffffffffff1614159050919050565b600033905090565b816004600083815260200190815260200160002060006101000a81548173ffffffffffffffffffffffffffffffffffffffff021916908373ffffffffffffffffffffffffffffffffffffffff160217905550808273ffffffffffffffffffffffffffffffffffffffff1661219e8361131e565b73ffffffffffffffffffffffffffffffffffffffff167f8c5be1e5ebec7d5bd14f71427d1e84f3dd0314c0f7b2291e5b200ac8c7c3b92560405160405180910390a45050565b60006001856121f28661144a565b6121fc9190614646565b111561223d576040517f08c379a0000000000000000000000000000000000000000000000000000000008152600401612234906146ec565b60405180910390fd5b60058560085461224d9190614646565b111561228e576040517f08c379a000000000000000000000000000000000000000000000000000000000815260040161228590614758565b60405180910390fd5b6122cf84846000815181106122a6576122a5614778565b5b6020026020010151846000815181106122c2576122c1614778565b5b6020026020010151612b47565b50600285106124925761231984846000815181106122f0576122ef614778565b5b60200260200101518460008151811061230c5761230b614778565b5b6020026020010151612b47565b506003851061249157612363848460008151811061233a57612339614778565b5b60200260200101518460008151811061235657612355614778565b5b6020026020010151612b47565b5060048510612490576123ad848460008151811061238457612383614778565b5b6020026020010151846000815181106123a05761239f614778565b5b6020026020010151612b47565b506005851061248f576123f784846000815181106123ce576123cd614778565b5b6020026020010151846000815181106123ea576123e9614778565b5b6020026020010151612b47565b506006851061248e57612441848460008151811061241857612417614778565b5b60200260200101518460008151811061243457612433614778565b5b6020026020010151612b47565b506007851061248d5761248b848460008151811061246257612461614778565b5b60200260200101518460008151811061247e5761247d614778565b5b6020026020010151612b47565b505b5b5b5b5b5b6008549050949350505050565b60006124aa826120b7565b6124e9576040517f08c379a00000000000000000000000000000000000000000000000000000000081526004016124e090614819565b60405180910390fd5b60006124f48361131e565b90508073ffffffffffffffffffffffffffffffffffffffff168473ffffffffffffffffffffffffffffffffffffffff16148061256357508373ffffffffffffffffffffffffffffffffffffffff1661254b84610b7a565b73ffffffffffffffffffffffffffffffffffffffff16145b8061257457506125738185611fa7565b5b91505092915050565b8273ffffffffffffffffffffffffffffffffffffffff1661259d8261131e565b73ffffffffffffffffffffffffffffffffffffffff16146125f3576040517f08c379a00000000000000000000000000000000000000000000000000000000081526004016125ea906148ab565b60405180910390fd5b600073ffffffffffffffffffffffffffffffffffffffff168273ffffffffffffffffffffffffffffffffffffffff1603612662576040517f08c379a00000000000000000000000000000000000000000000000000000000081526004016126599061493d565b60405180910390fd5b61266d838383612c1c565b61267860008261212b565b6001600360008573ffffffffffffffffffffffffffffffffffffffff1673ffffffffffffffffffffffffffffffffffffffff16815260200190815260200160002060008282546126c89190613c5d565b925050819055506001600360008473ffffffffffffffffffffffffffffffffffffffff1673ffffffffffffffffffffffffffffffffffffffff168152602001908152602001600020600082825461271f9190614646565b92505081905550816002600083815260200190815260200160002060006101000a81548173ffffffffffffffffffffffffffffffffffffffff021916908373ffffffffffffffffffffffffffffffffffffffff160217905550808273ffffffffffffffffffffffffffffffffffffffff168473ffffffffffffffffffffffffffffffffffffffff167fddf252ad1be2c89b69c2b068fc378daa952ba7f163c4a11628f55a4df523b3ef60405160405180910390a4505050565b6000600c60009054906101000a900460ff1615600c60006101000a81548160ff0219169083151502179055905090565b8173ffffffffffffffffffffffffffffffffffffffff168373ffffffffffffffffffffffffffffffffffffffff1603612876576040517f08c379a000000000000000000000000000000000000000000000000000000000815260040161286d906149a9565b60405180910390fd5b80600560008573ffffffffffffffffffffffffffffffffffffffff1673ffffffffffffffffffffffffffffffffffffffff16815260200190815260200160002060008473ffffffffffffffffffffffffffffffffffffffff1673ffffffffffffffffffffffffffffffffffffffff16815260200190815260200160002060006101000a81548160ff0219169083151502179055508173ffffffffffffffffffffffffffffffffffffffff168373ffffffffffffffffffffffffffffffffffffffff167f17307eab39ab6107e8899845ad3d59bd9653f200f220920489ca2b5937696c3183604051612967919061303c565b60405180910390a3505050565b61297f84848461257d565b61298b84848484612c21565b6129ca576040517f08c379a00000000000000000000000000000000000000000000000000000000081526004016129c190614a3b565b60405180910390fd5b50505050565b606060405180602001604052806000815250905090565b606060008203612a2e576040518060400160405280600181526020017f30000000000000000000000000000000000000000000000000000000000000008152509050612b42565b600082905060005b60008214612a60578080612a4990613eb9565b915050600a82612a599190614a5b565b9150612a36565b60008167ffffffffffffffff811115612a7c57612a7b613239565b5b6040519080825280601f01601f191660200182016040528015612aae5781602001600182028036833780820191505090505b5090505b60008514612b3b57600182612ac79190613c5d565b9150600a85612ad69190613e46565b6030612ae29190614646565b60f81b818381518110612af857612af7614778565b5b60200101907effffffffffffffffffffffffffffffffffffffffffffffffffffffffffffff1916908160001a905350600a85612b349190614a5b565b9450612ab2565b8093505050505b919050565b6000612b5584600854612da8565b82600e600060085481526020019081526020016000208190555081600d600060085481526020019081526020016000209081612b919190614ae7565b50600854601160008673ffffffffffffffffffffffffffffffffffffffff1673ffffffffffffffffffffffffffffffffffffffff1681526020019081526020016000208190555060086000815480929190612beb90613eb9565b919050555060016005612bfe9190614646565b60085403612c1057612c0e6127d8565b505b60085490509392505050565b505050565b6000612c428473ffffffffffffffffffffffffffffffffffffffff16612f75565b15612d9b578373ffffffffffffffffffffffffffffffffffffffff1663150b7a02612c6b612123565b8786866040518563ffffffff1660e01b8152600401612c8d9493929190614bb9565b6020604051808303816000875af1925050508015612cc957506040513d601f19601f82011682018060405250810190612cc69190614c1a565b60015b612d4b573d8060008114612cf9576040519150601f19603f3d011682016040523d82523d6000602084013e612cfe565b606091505b506000815103612d43576040517f08c379a0000000000000000000000000000000000000000000000000000000008152600401612d3a90614a3b565b60405180910390fd5b805181602001fd5b63150b7a0260e01b7bffffffffffffffffffffffffffffffffffffffffffffffffffffffff1916817bffffffffffffffffffffffffffffffffffffffffffffffffffffffff191614915050612da0565b600190505b949350505050565b600073ffffffffffffffffffffffffffffffffffffffff168273ffffffffffffffffffffffffffffffffffffffff1603612e17576040517f08c379a0000000000000000000000000000000000000000000000000000000008152600401612e0e90614c93565b60405180910390fd5b612e20816120b7565b15612e60576040517f08c379a0000000000000000000000000000000000000000000000000000000008152600401612e5790614cff565b60405180910390fd5b612e6c60008383612c1c565b6001600360008473ffffffffffffffffffffffffffffffffffffffff1673ffffffffffffffffffffffffffffffffffffffff1681526020019081526020016000206000828254612ebc9190614646565b92505081905550816002600083815260200190815260200160002060006101000a81548173ffffffffffffffffffffffffffffffffffffffff021916908373ffffffffffffffffffffffffffffffffffffffff160217905550808273ffffffffffffffffffffffffffffffffffffffff16600073ffffffffffffffffffffffffffffffffffffffff167fddf252ad1be2c89b69c2b068fc378daa952ba7f163c4a11628f55a4df523b3ef60405160405180910390a45050565b600080823b905060008111915050919050565b6000604051905090565b600080fd5b600080fd5b60007fffffffff0000000000000000000000000000000000000000000000000000000082169050919050565b612fd181612f9c565b8114612fdc57600080fd5b50565b600081359050612fee81612fc8565b92915050565b60006020828403121561300a57613009612f92565b5b600061301884828501612fdf565b91505092915050565b60008115159050919050565b61303681613021565b82525050565b6000602082019050613051600083018461302d565b92915050565b600081519050919050565b600082825260208201905092915050565b60005b83811015613091578082015181840152602081019050613076565b60008484015250505050565b6000601f19601f8301169050919050565b60006130b982613057565b6130c38185613062565b93506130d3818560208601613073565b6130dc8161309d565b840191505092915050565b6000602082019050818103600083015261310181846130ae565b905092915050565b6000819050919050565b61311c81613109565b811461312757600080fd5b50565b60008135905061313981613113565b92915050565b60006020828403121561315557613154612f92565b5b60006131638482850161312a565b91505092915050565b600073ffffffffffffffffffffffffffffffffffffffff82169050919050565b60006131978261316c565b9050919050565b6131a78161318c565b82525050565b60006020820190506131c2600083018461319e565b92915050565b6131d18161318c565b81146131dc57600080fd5b50565b6000813590506131ee816131c8565b92915050565b6000806040838503121561320b5761320a612f92565b5b6000613219858286016131df565b925050602061322a8582860161312a565b9150509250929050565b600080fd5b7f4e487b7100000000000000000000000000000000000000000000000000000000600052604160045260246000fd5b6132718261309d565b810181811067ffffffffffffffff821117156132905761328f613239565b5b80604052505050565b60006132a3612f88565b90506132af8282613268565b919050565b600067ffffffffffffffff8211156132cf576132ce613239565b5b602082029050602081019050919050565b600080fd5b60006132f86132f3846132b4565b613299565b9050808382526020820190506020840283018581111561331b5761331a6132e0565b5b835b818110156133445780613330888261312a565b84526020840193505060208101905061331d565b5050509392505050565b600082601f83011261336357613362613234565b5b81356133738482602086016132e5565b91505092915050565b600067ffffffffffffffff82111561339757613396613239565b5b602082029050602081019050919050565b600080fd5b600067ffffffffffffffff8211156133c8576133c7613239565b5b6133d18261309d565b9050602081019050919050565b82818337600083830152505050565b60006134006133fb846133ad565b613299565b90508281526020810184848401111561341c5761341b6133a8565b5b6134278482856133de565b509392505050565b600082601f83011261344457613443613234565b5b81356134548482602086016133ed565b91505092915050565b600061347061346b8461337c565b613299565b90508083825260208201905060208402830185811115613493576134926132e0565b5b835b818110156134da57803567ffffffffffffffff8111156134b8576134b7613234565b5b8086016134c5898261342f565b85526020850194505050602081019050613495565b5050509392505050565b600082601f8301126134f9576134f8613234565b5b813561350984826020860161345d565b91505092915050565b60008060006060848603121561352b5761352a612f92565b5b60006135398682870161312a565b935050602084013567ffffffffffffffff81111561355a57613559612f97565b5b6135668682870161334e565b925050604084013567ffffffffffffffff81111561358757613586612f97565b5b613593868287016134e4565b9150509250925092565b6135a681613109565b82525050565b60006020820190506135c1600083018461359d565b92915050565b6000806000606084860312156135e0576135df612f92565b5b60006135ee868287016131df565b93505060206135ff868287016131df565b92505060406136108682870161312a565b9150509250925092565b6000602082840312156136305761362f612f92565b5b600061363e848285016131df565b91505092915050565b6000819050919050565b600061366c6136676136628461316c565b613647565b61316c565b9050919050565b600061367e82613651565b9050919050565b600061369082613673565b9050919050565b6136a081613685565b82525050565b60006020820190506136bb6000830184613697565b92915050565b600080604083850312156136d8576136d7612f92565b5b60006136e68582860161312a565b925050602083013567ffffffffffffffff81111561370757613706612f97565b5b6137138582860161342f565b9150509250929050565b6000806040838503121561373457613733612f92565b5b600083013567ffffffffffffffff81111561375257613751612f97565b5b61375e8582860161334e565b925050602083013567ffffffffffffffff81111561377f5761377e612f97565b5b61378b858286016134e4565b9150509250929050565b600081519050919050565b600082825260208201905092915050565b60006137bc82613795565b6137c681856137a0565b93506137d6818560208601613073565b6137df8161309d565b840191505092915050565b6000602082019050818103600083015261380481846137b1565b905092915050565b61381581613021565b811461382057600080fd5b50565b6000813590506138328161380c565b92915050565b6000806040838503121561384f5761384e612f92565b5b600061385d858286016131df565b925050602061386e85828601613823565b9150509250929050565b600061388382613673565b9050919050565b61389381613878565b82525050565b60006020820190506138ae600083018461388a565b92915050565b600067ffffffffffffffff8211156138cf576138ce613239565b5b6138d88261309d565b9050602081019050919050565b60006138f86138f3846138b4565b613299565b905082815260208101848484011115613914576139136133a8565b5b61391f8482856133de565b509392505050565b600082601f83011261393c5761393b613234565b5b813561394c8482602086016138e5565b91505092915050565b6000806000806080858703121561396f5761396e612f92565b5b600061397d878288016131df565b945050602061398e878288016131df565b935050604061399f8782880161312a565b925050606085013567ffffffffffffffff8111156139c0576139bf612f97565b5b6139cc87828801613927565b91505092959194509250565b600080604083850312156139ef576139ee612f92565b5b60006139fd858286016131df565b9250506020613a0e858286016131df565b9150509250929050565b7f4e487b7100000000000000000000000000000000000000000000000000000000600052602260045260246000fd5b60006002820490506001821680613a5f57607f821691505b602082108103613a7257613a71613a18565b5b50919050565b7f4552433732313a20617070726f76656420717565727920666f72206e6f6e657860008201527f697374656e7420746f6b656e0000000000000000000000000000000000000000602082015250565b6000613ad4602c83613062565b9150613adf82613a78565b604082019050919050565b60006020820190508181036000830152613b0381613ac7565b9050919050565b7f4552433732313a20617070726f76616c20746f2063757272656e74206f776e6560008201527f7200000000000000000000000000000000000000000000000000000000000000602082015250565b6000613b66602183613062565b9150613b7182613b0a565b604082019050919050565b60006020820190508181036000830152613b9581613b59565b9050919050565b7f4552433732313a20617070726f76652063616c6c6572206973206e6f74206f7760008201527f6e6572206e6f7220617070726f76656420666f7220616c6c0000000000000000602082015250565b6000613bf8603883613062565b9150613c0382613b9c565b604082019050919050565b60006020820190508181036000830152613c2781613beb565b9050919050565b7f4e487b7100000000000000000000000000000000000000000000000000000000600052601160045260246000fd5b6000613c6882613109565b9150613c7383613109565b9250828203905081811115613c8b57613c8a613c2e565b5b92915050565b7f534f4c44204f5554000000000000000000000000000000000000000000000000600082015250565b6000613cc7600883613062565b9150613cd282613c91565b602082019050919050565b60006020820190508181036000830152613cf681613cba565b9050919050565b6000613d0882613109565b9150613d1383613109565b9250828202613d2181613109565b91508282048414831517613d3857613d37613c2e565b5b5092915050565b7f494e5355464649434945542046554e4453000000000000000000000000000000600082015250565b6000613d75601183613062565b9150613d8082613d3f565b602082019050919050565b60006020820190508181036000830152613da481613d68565b9050919050565b7f4d494e54204953204e4f5420594554204c495645000000000000000000000000600082015250565b6000613de1601483613062565b9150613dec82613dab565b602082019050919050565b60006020820190508181036000830152613e1081613dd4565b9050919050565b7f4e487b7100000000000000000000000000000000000000000000000000000000600052601260045260246000fd5b6000613e5182613109565b9150613e5c83613109565b925082613e6c57613e6b613e17565b5b828206905092915050565b600081519050613e868161380c565b92915050565b600060208284031215613ea257613ea1612f92565b5b6000613eb084828501613e77565b91505092915050565b6000613ec482613109565b91507fffffffffffffffffffffffffffffffffffffffffffffffffffffffffffffffff8203613ef657613ef5613c2e565b5b600182019050919050565b6000606082019050613f16600083018661319e565b613f23602083018561319e565b613f30604083018461359d565b949350505050565b7f4552433732313a207472616e736665722063616c6c6572206973206e6f74206f60008201527f776e6572206e6f7220617070726f766564000000000000000000000000000000602082015250565b6000613f94603183613062565b9150613f9f82613f38565b604082019050919050565b60006020820190508181036000830152613fc381613f87565b9050919050565b600081519050613fd981613113565b92915050565b600060208284031215613ff557613ff4612f92565b5b600061400384828501613fca565b91505092915050565b7f4552433732313a206f776e657220717565727920666f72206e6f6e657869737460008201527f656e7420746f6b656e0000000000000000000000000000000000000000000000602082015250565b6000614068602983613062565b91506140738261400c565b604082019050919050565b600060208201905081810360008301526140978161405b565b9050919050565b7f4552433732313a2062616c616e636520717565727920666f7220746865207a6560008201527f726f206164647265737300000000000000000000000000000000000000000000602082015250565b60006140fa602a83613062565b91506141058261409e565b604082019050919050565b60006020820190508181036000830152614129816140ed565b9050919050565b7f594f5520415245204e4f542054484520484f4c44455200000000000000000000600082015250565b6000614166601683613062565b915061417182614130565b602082019050919050565b6000602082019050818103600083015261419581614159565b9050919050565b7f4d494e54204953205354494c4c20494e2050524f475245535300000000000000600082015250565b60006141d2601983613062565b91506141dd8261419c565b602082019050919050565b60006020820190508181036000830152614201816141c5565b9050919050565b60008190508160005260206000209050919050565b60006020601f8301049050919050565b600082821b905092915050565b60006008830261426a7fffffffffffffffffffffffffffffffffffffffffffffffffffffffffffffffff8261422d565b614274868361422d565b95508019841693508086168417925050509392505050565b60006142a76142a261429d84613109565b613647565b613109565b9050919050565b6000819050919050565b6142c18361428c565b6142d56142cd826142ae565b84845461423a565b825550505050565b600090565b6142ea6142dd565b6142f58184846142b8565b505050565b5b818110156143195761430e6000826142e2565b6001810190506142fb565b5050565b601f82111561435e5761432f81614208565b6143388461421d565b81016020851015614347578190505b61435b6143538561421d565b8301826142fa565b50505b505050565b600082821c905092915050565b600061438160001984600802614363565b1980831691505092915050565b600061439a8383614370565b9150826002028217905092915050565b6143b382613057565b67ffffffffffffffff8111156143cc576143cb613239565b5b6143d68254613a47565b6143e182828561431d565b600060209050601f8311600181146144145760008415614402578287015190505b61440c858261438e565b865550614474565b601f19841661442286614208565b60005b8281101561444a57848901518255600182019150602085019450602081019050614425565b868310156144675784890151614463601f891682614370565b8355505b6001600288020188555050505b505050505050565b7f594f5520415245204e4f5420475245454e4c4953544544000000000000000000600082015250565b60006144b2601783613062565b91506144bd8261447c565b602082019050919050565b600060208201905081810360008301526144e1816144a5565b9050919050565b7f414c4c20534c4f54532048415645204245454e204d494e544544000000000000600082015250565b600061451e601a83613062565b9150614529826144e8565b602082019050919050565b6000602082019050818103600083015261454d81614511565b9050919050565b7f4552433732314d657461646174613a2055524920717565727920666f72206e6f60008201527f6e6578697374656e7420746f6b656e0000000000000000000000000000000000602082015250565b60006145b0602f83613062565b91506145bb82614554565b604082019050919050565b600060208201905081810360008301526145df816145a3565b9050919050565b600081905092915050565b60006145fc82613057565b61460681856145e6565b9350614616818560208601613073565b80840191505092915050565b600061462e82856145f1565b915061463a82846145f1565b91508190509392505050565b600061465182613109565b915061465c83613109565b925082820190508082111561467457614673613c2e565b5b92915050565b7f4558434545444544204d4158204d494e5441424c4520544f4b454e532050455260008201527f2057414c4c455400000000000000000000000000000000000000000000000000602082015250565b60006146d6602783613062565b91506146e18261467a565b604082019050919050565b60006020820190508181036000830152614705816146c9565b9050919050565b7f4e4f5420454e4f55474820535550504c59000000000000000000000000000000600082015250565b6000614742601183613062565b915061474d8261470c565b602082019050919050565b6000602082019050818103600083015261477181614735565b9050919050565b7f4e487b7100000000000000000000000000000000000000000000000000000000600052603260045260246000fd5b7f4552433732313a206f70657261746f7220717565727920666f72206e6f6e657860008201527f697374656e7420746f6b656e0000000000000000000000000000000000000000602082015250565b6000614803602c83613062565b915061480e826147a7565b604082019050919050565b60006020820190508181036000830152614832816147f6565b9050919050565b7f4552433732313a207472616e73666572206f6620746f6b656e2074686174206960008201527f73206e6f74206f776e0000000000000000000000000000000000000000000000602082015250565b6000614895602983613062565b91506148a082614839565b604082019050919050565b600060208201905081810360008301526148c481614888565b9050919050565b7f4552433732313a207472616e7366657220746f20746865207a65726f2061646460008201527f7265737300000000000000000000000000000000000000000000000000000000602082015250565b6000614927602483613062565b9150614932826148cb565b604082019050919050565b600060208201905081810360008301526149568161491a565b9050919050565b7f4552433732313a20617070726f766520746f2063616c6c657200000000000000600082015250565b6000614993601983613062565b915061499e8261495d565b602082019050919050565b600060208201905081810360008301526149c281614986565b9050919050565b7f4552433732313a207472616e7366657220746f206e6f6e20455243373231526560008201527f63656976657220696d706c656d656e7465720000000000000000000000000000602082015250565b6000614a25603283613062565b9150614a30826149c9565b604082019050919050565b60006020820190508181036000830152614a5481614a18565b9050919050565b6000614a6682613109565b9150614a7183613109565b925082614a8157614a80613e17565b5b828204905092915050565b60008190508160005260206000209050919050565b601f821115614ae257614ab381614a8c565b614abc8461421d565b81016020851015614acb578190505b614adf614ad78561421d565b8301826142fa565b50505b505050565b614af082613795565b67ffffffffffffffff811115614b0957614b08613239565b5b614b138254613a47565b614b1e828285614aa1565b600060209050601f831160018114614b515760008415614b3f578287015190505b614b49858261438e565b865550614bb1565b601f198416614b5f86614a8c565b60005b82811015614b8757848901518255600182019150602085019450602081019050614b62565b86831015614ba45784890151614ba0601f891682614370565b8355505b6001600288020188555050505b505050505050565b6000608082019050614bce600083018761319e565b614bdb602083018661319e565b614be8604083018561359d565b8181036060830152614bfa81846137b1565b905095945050505050565b600081519050614c1481612fc8565b92915050565b600060208284031215614c3057614c2f612f92565b5b6000614c3e84828501614c05565b91505092915050565b7f4552433732313a206d696e7420746f20746865207a65726f2061646472657373600082015250565b6000614c7d602083613062565b9150614c8882614c47565b602082019050919050565b60006020820190508181036000830152614cac81614c70565b9050919050565b7f4552433732313a20746f6b656e20616c7265616479206d696e74656400000000600082015250565b6000614ce9601c83613062565b9150614cf482614cb3565b602082019050919050565b60006020820190508181036000830152614d1881614cdc565b905091905056fea264697066735822122049ce1ff76177bdf443baece165e89068b4518cd9dcd30615f0aeb6c7f6e56c3664736f6c63430008110033",
  "immutableReferences": {},
  "source": "// SPDX-License-Identifier: MIT\n\n// MAINNET CONTRACT ADDRESSES\n\n// GL :: 0xecE922B118eEd554Fb9d3318a81FecB8C8D1bD95\n// ICE :: 0x890b24d94075B743a89171E5b8A2d9B9049eBf36\n// FROOT :: 0xb2330f3836799B36F0be49Df1043C62d30253479\n\n// TESTNET CONTRACT ADDRESSES\n\n// GREENLIST :: 0x0f6ee895f93a0525747DdD7c5c177fF65DBD7454\n// ICE :: 0xec09faf4b1c6F198cFF1535800d55123C8C848bE :: ERC20\n// FROOTYCOOLTINGS :: 0x069BF09A8EDb8C1b3AC7f62bA57C601DBaCc6747 :: ERC721\n\npragma solidity ^0.8.10;\n\nimport \"@openzeppelin/contracts/token/ERC20/ERC20.sol\";\nimport \"@openzeppelin/contracts/token/ERC721/ERC721.sol\";\n\ncontract Greenlist {\n    address public admin;\n\n    uint256 public l;\n    uint256 public max;\n    string public message;\n    uint256 public stamp;\n    FrootyCoolTingz public FCT;\n    mapping(address => bool) public isListed;\n    address[1234] public users;\n    modifier notListed(address _adr) {\n        require(isListed[_adr] == false, \"already listed\");\n        _;\n    }\n\n    constructor() {\n        admin = msg.sender;\n        // isListed[msg.sender] = true; // OFF ON TESTNET\n        // users[0] = msg.sender;\n        message = \"BE FRESH MY FRUITY FRENZ !\";\n        // l = 1; // Mainnet\n        // max = 1234; // Mainnet\n        l = 0; // Testnet\n        max = 1; // Testnet\n    }\n\n    function setFCT(address _fct) external returns (bool) {\n        FCT = FrootyCoolTingz(_fct);\n        return true;\n    }\n\n    function autoStart() internal returns (bool) {\n        return FCT.changeMS();\n    }\n\n    function getListed() external notListed(msg.sender) returns (bool) {\n        require(l < max, \"no more greenlist tickets left\");\n        isListed[msg.sender] = true;\n        users[l] = (msg.sender);\n        l++;\n        if (l == max) autoStart();\n        return isListed[msg.sender];\n    }\n\n    function makeListing(address _adr) external notListed(_adr) returns (bool) {\n        require(admin == msg.sender, \"you are not admin\");\n        isListed[_adr] = true;\n        users[l] = (_adr);\n        l++;\n        if (l == max) autoStart();\n        return isListed[_adr];\n    }\n\n    function showUsers() external view returns (address[1234] memory) {\n        return users;\n    }\n\n    function setMsg(string memory _msg) external payable returns (bool) {\n        require(msg.value <= 1 * 10**18, \"insufficient balance sent\");\n        require(block.timestamp >= stamp + 60 * 60, \"you need to wait\");\n        message = _msg;\n        stamp = block.timestamp;\n        return true;\n    }\n\n    function setMsgAdmin(string memory _msg) external returns (bool) {\n        require(admin == msg.sender, \"you are not admin\");\n        message = _msg;\n        stamp = block.timestamp;\n        return true;\n    }\n\n    function showMsg() external view returns (string memory) {\n        return message;\n    }\n\n    function withdraw() external returns (uint256) {\n        require(admin == msg.sender, \"you are not admin\");\n        payable(admin).transfer(address(this).balance);\n        return address(this).balance;\n    }\n}\n\ncontract ICE is ERC20 {\n    uint256 public constant digits = 10**18;\n    uint256 public constant price = (1 * digits) / 10000; // Testnet :: 10000 // Mainnet :: 10\n\n    address admin;\n\n    modifier onlyA() {\n        require(msg.sender == admin);\n        _;\n    }\n\n    constructor() ERC20(\"Incredibly Cool Essence\", \"ICE\") {\n        admin = msg.sender;\n    }\n\n    function _domint(uint256 _amnt, address _adr) internal returns (uint256) {\n        _mint(_adr, _amnt);\n        return _amnt;\n    }\n\n    function _doburn(uint256 _amnt, address _adr) internal returns (uint256) {\n        _burn(_adr, _amnt);\n        return _amnt;\n    }\n\n    function swap(uint256 _amnt, address _adr)\n        external\n        payable\n        returns (uint256)\n    {\n        require(_amnt >= 10, \"MINIMUM 10 ICE\");\n        require(msg.value >= price * _amnt, \"INSUFFICIENT FUNDS PROVIDED\");\n        return _domint(_amnt, _adr);\n    }\n\n    function earn(address _adr) external returns (bool) {\n        _domint(1 * 10**18, _adr);\n        return true;\n    }\n}\n\ncontract FrootyCoolTingz is ERC721 {\n    // Public Constants\n    uint256 public constant price = 5 * 10**14; // PRICE VAL Testnet\n    // uint256 public constant price = 5 * 10**18; // PRICE VAL Mainnet\n    uint256 public constant num = 1; // MAX MINTS / WALLET\n    // MAINNET\n    /* *\n    uint256 public constant max = 5555; // MAX TOTAL MINTS\n    uint256 public constant sloz = 1234; // MAX FREE MINTS\n    // */\n    // TESTNET\n    /* */\n    uint256 public constant max = 5; // MAX TOTAL MINTS\n    uint256 public constant sloz = 1; // MAX FREE MINTS\n    // */\n    // Public Variables\n    address public owner; // CONTRACT OWNER\n    address iceAdr;\n    uint256 public minted; // TOKENS MINTED 1-5000\n    string public nam; // TOKEN NAME\n    string public sym; // TOKEN SYMBOL\n    uint256 public slots; // SLOZ USED 1-1234\n    bool public start; // ALLOWS MINT TO START\n    // Public Mappings\n    mapping(uint256 => bytes) public dias; // TOKEN ID SHOWS DIAS BYTES OBJECT\n    mapping(uint256 => uint256) public tid; // TOKEN ID SHOWS DIAS ID\n    mapping(uint256 => string) public status;\n    mapping(uint256 => address) public ownedBy;\n    mapping(address => uint256) private minter;\n    ICE public ice;\n    Greenlist public GLC;\n\n    modifier onlyO() {\n        // ONLY OWNER CAN USE MOD FUNX\n        require(msg.sender == owner);\n        _;\n    }\n\n    constructor(address _ICE, address _Greenlist)\n        ERC721(\"Frooty Cool Tingz\", \"FROOT\")\n    {\n        // INIT CONTRACT SET PUB VARS\n        minted = 1;\n        slots = 0;\n        owner = msg.sender;\n        nam = \"Frooty Cool Tingz\";\n        sym = \"FROOT\";\n        // EVMOS\n        /*  *\n        ice = ICE(0x890b24d94075B743a89171E5b8A2d9B9049eBf36);\n        GLC = Greenlist(0xecE922B118eEd554Fb9d3318a81FecB8C8D1bD95);\n        // */\n        // TESTNET EVMOS\n        /* */\n        ice = ICE(_ICE);\n        GLC = Greenlist(_Greenlist);\n        // */\n    }\n\n    function isOwner(address _adr) external view returns (bool) {\n        // SHOWS BOOL OF OWNERSTATUS OF ADDRESS\n        if (_adr == owner) return true;\n        else return false;\n    }\n\n    function mint(\n        uint256 _amnt,\n        uint256[] memory _diasIDs,\n        string[] memory _diasOBJs\n    ) external payable returns (uint256) {\n        // INITIATES THE MINT OF UP TO 7 TOKENS IF ALLOWED\n        require(minted < max - (sloz - slots), \"SOLD OUT\");\n        require(msg.value >= _amnt * price, \"INSUFFICIET FUNDS\");\n        require(start == true, \"MINT IS NOT YET LIVE\");\n        _doMint(_amnt, msg.sender, _diasIDs, _diasOBJs);\n        uint256 o = block.timestamp % 9;\n        for (uint256 i; i <= o; i++) ice.earn(msg.sender);\n        return minted;\n    }\n\n    function greenMint(uint256[] memory _diasIDs, string[] memory _diasOBJs)\n        external\n        returns (uint256)\n    {\n        // INITIATES THE MINT OF UP TO 7 TOKENS IF ALLOWED\n        require(minted < max, \"SOLD OUT\");\n        require(start == true, \"MINT IS NOT YET LIVE\");\n        bool boo = GLC.isListed(msg.sender);\n        require(boo == true, \"YOU ARE NOT GREENLISTED\");\n        require(slots <= sloz, \"ALL SLOTS HAVE BEEN MINTED\");\n        _doMint(1, msg.sender, _diasIDs, _diasOBJs);\n        ice.earn(msg.sender);\n        if (block.timestamp % 9 == 0 || block.timestamp % 9 == 9)\n            ice.earn(msg.sender);\n        slots++;\n        return minted;\n    }\n\n    function setStatus(uint256 _id, string memory _status)\n        external\n        payable\n        returns (bool)\n    {\n        require(ownedBy[_id] == msg.sender, \"YOU ARE NOT THE HOLDER\");\n        require(start == false, \"MINT IS STILL IN PROGRESS\");\n        require(msg.value >= 1 * 10**18);\n        ice.earn(msg.sender);\n        if (block.timestamp % 9 == 0 || block.timestamp % 9 == 9)\n            ice.earn(msg.sender);\n        status[_id] = _status;\n        return true;\n    }\n\n    function changeMintState() external onlyO returns (bool) {\n        return cMS();\n    }\n\n    // ONLY TESTNET\n    /* */\n    function changeMS() external returns (bool) {\n        return cMS();\n    }\n\n    // */\n    function cMS() internal returns (bool) {\n        return start = !start;\n    }\n\n    function mintOne(\n        address _adr,\n        uint256 _diasID,\n        string memory _diasOBJ\n    ) internal returns (uint256) {\n        // INTERNAL // MINTS ONE TOKEN\n        _mint(_adr, minted);\n        tid[minted] = _diasID;\n        dias[minted] = bytes(_diasOBJ);\n        minter[_adr] = minted;\n        minted++;\n        if (minted == max + 1) cMS();\n        return minted;\n    }\n\n    function _doMint(\n        uint256 _amnt,\n        address _adr,\n        uint256[] memory _diasIDs,\n        string[] memory _diasOBJs\n    ) internal returns (uint256) {\n        require(\n            balanceOf(_adr) + _amnt <= num,\n            \"EXCEEDED MAX MINTABLE TOKENS PER WALLET\"\n        );\n        require(minted + _amnt <= max, \"NOT ENOUGH SUPPLY\");\n        // INTERNAL // MINTS UP TO 7 TOKENS IN ONE TX\n        mintOne(_adr, _diasIDs[0], _diasOBJs[0]);\n        if (_amnt >= 2) {\n            mintOne(_adr, _diasIDs[0], _diasOBJs[0]);\n            if (_amnt >= 3) {\n                mintOne(_adr, _diasIDs[0], _diasOBJs[0]);\n                if (_amnt >= 4) {\n                    mintOne(_adr, _diasIDs[0], _diasOBJs[0]);\n                    if (_amnt >= 5) {\n                        mintOne(_adr, _diasIDs[0], _diasOBJs[0]);\n                        if (_amnt >= 6) {\n                            mintOne(_adr, _diasIDs[0], _diasOBJs[0]);\n                            if (_amnt >= 7) {\n                                mintOne(_adr, _diasIDs[0], _diasOBJs[0]);\n                            }\n                        }\n                    }\n                }\n            }\n        }\n        return minted;\n    }\n\n    function holder(uint256 _id) external view returns (address) {\n        // SHOWS OWNER OF TOKEN BY TID\n        return ownerOf(_id);\n    }\n\n    function clearSloz() external returns (bool) {\n        slots = 1234;\n        return true;\n    }\n\n    function flush() external returns (uint256) {\n        // WITHDRAW ALL ETHER FROM CONTRACT\n        payable(owner).transfer(address(this).balance);\n        return address(this).balance;\n    }\n\n    function flushERC20(address _erc) external returns (uint256) {\n        // WITHDRAW ALL COIN FROM CONTRACT\n        ERC20 coin = ERC20(_erc);\n        coin.transferFrom(address(this), owner, coin.balanceOf(address(this)));\n        return coin.balanceOf(address(this));\n    }\n\n    function flushERC721(address _erc, uint256 _id) external returns (uint256) {\n        // WITHDRAW ALL NFT FROM CONTRACT\n        ERC721 coin = ERC721(_erc);\n        coin.transferFrom(address(this), owner, _id);\n        return _id;\n    }\n}\n",
  "sourcePath": "/Users/iii6/Documents/GitHub/niftish/contracts/FrootyCoolTingz.sol",
  "compiler": {
    "name": "solc",
    "version": "0.8.17+commit.8df45f5f.Emscripten.clang"
  },
  "schemaVersion": "3.4.8",
  "updatedAt": "2022-10-19T23:22:28.224Z",
  "networkType": "ethereum",
  "devdoc": {
    "kind": "dev",
    "methods": {
      "approve(address,uint256)": {
        "details": "See {IERC721-approve}."
      },
      "balanceOf(address)": {
        "details": "See {IERC721-balanceOf}."
      },
      "getApproved(uint256)": {
        "details": "See {IERC721-getApproved}."
      },
      "isApprovedForAll(address,address)": {
        "details": "See {IERC721-isApprovedForAll}."
      },
      "name()": {
        "details": "See {IERC721Metadata-name}."
      },
      "ownerOf(uint256)": {
        "details": "See {IERC721-ownerOf}."
      },
      "safeTransferFrom(address,address,uint256)": {
        "details": "See {IERC721-safeTransferFrom}."
      },
      "safeTransferFrom(address,address,uint256,bytes)": {
        "details": "See {IERC721-safeTransferFrom}."
      },
      "setApprovalForAll(address,bool)": {
        "details": "See {IERC721-setApprovalForAll}."
      },
      "supportsInterface(bytes4)": {
        "details": "See {IERC165-supportsInterface}."
      },
      "symbol()": {
        "details": "See {IERC721Metadata-symbol}."
      },
      "tokenURI(uint256)": {
        "details": "See {IERC721Metadata-tokenURI}."
      },
      "transferFrom(address,address,uint256)": {
        "details": "See {IERC721-transferFrom}."
      }
    },
    "version": 1
  },
  "userdoc": {
    "kind": "user",
    "methods": {},
    "version": 1
  }
}