{
  "contractName": "FrootyCoolTingz",
  "abi": [
    {
      "inputs": [
        {
          "internalType": "address",
          "name": "_ICE",
          "type": "address"
        },
        {
          "internalType": "address",
          "name": "_Greenlist",
          "type": "address"
        },
        {
          "internalType": "uint256",
          "name": "_t",
          "type": "uint256"
        }
      ],
      "stateMutability": "nonpayable",
      "type": "constructor"
    },
    {
      "anonymous": false,
      "inputs": [
        {
          "indexed": true,
          "internalType": "address",
          "name": "owner",
          "type": "address"
        },
        {
          "indexed": true,
          "internalType": "address",
          "name": "approved",
          "type": "address"
        },
        {
          "indexed": true,
          "internalType": "uint256",
          "name": "tokenId",
          "type": "uint256"
        }
      ],
      "name": "Approval",
      "type": "event"
    },
    {
      "anonymous": false,
      "inputs": [
        {
          "indexed": true,
          "internalType": "address",
          "name": "owner",
          "type": "address"
        },
        {
          "indexed": true,
          "internalType": "address",
          "name": "operator",
          "type": "address"
        },
        {
          "indexed": false,
          "internalType": "bool",
          "name": "approved",
          "type": "bool"
        }
      ],
      "name": "ApprovalForAll",
      "type": "event"
    },
    {
      "anonymous": false,
      "inputs": [
        {
          "indexed": true,
          "internalType": "address",
          "name": "from",
          "type": "address"
        },
        {
          "indexed": true,
          "internalType": "address",
          "name": "to",
          "type": "address"
        },
        {
          "indexed": true,
          "internalType": "uint256",
          "name": "tokenId",
          "type": "uint256"
        }
      ],
      "name": "Transfer",
      "type": "event"
    },
    {
      "inputs": [],
      "name": "GLC",
      "outputs": [
        {
          "internalType": "contract Greenlist",
          "name": "",
          "type": "address"
        }
      ],
      "stateMutability": "view",
      "type": "function",
      "constant": true
    },
    {
      "inputs": [
        {
          "internalType": "address",
          "name": "to",
          "type": "address"
        },
        {
          "internalType": "uint256",
          "name": "tokenId",
          "type": "uint256"
        }
      ],
      "name": "approve",
      "outputs": [],
      "stateMutability": "nonpayable",
      "type": "function"
    },
    {
      "inputs": [
        {
          "internalType": "address",
          "name": "owner",
          "type": "address"
        }
      ],
      "name": "balanceOf",
      "outputs": [
        {
          "internalType": "uint256",
          "name": "",
          "type": "uint256"
        }
      ],
      "stateMutability": "view",
      "type": "function",
      "constant": true
    },
    {
      "inputs": [
        {
          "internalType": "uint256",
          "name": "",
          "type": "uint256"
        }
      ],
      "name": "dias",
      "outputs": [
        {
          "internalType": "bytes",
          "name": "",
          "type": "bytes"
        }
      ],
      "stateMutability": "view",
      "type": "function",
      "constant": true
    },
    {
      "inputs": [],
      "name": "digits",
      "outputs": [
        {
          "internalType": "uint256",
          "name": "",
          "type": "uint256"
        }
      ],
      "stateMutability": "view",
      "type": "function",
      "constant": true
    },
    {
      "inputs": [
        {
          "internalType": "uint256",
          "name": "tokenId",
          "type": "uint256"
        }
      ],
      "name": "getApproved",
      "outputs": [
        {
          "internalType": "address",
          "name": "",
          "type": "address"
        }
      ],
      "stateMutability": "view",
      "type": "function",
      "constant": true
    },
    {
      "inputs": [],
      "name": "ice",
      "outputs": [
        {
          "internalType": "contract ICE",
          "name": "",
          "type": "address"
        }
      ],
      "stateMutability": "view",
      "type": "function",
      "constant": true
    },
    {
      "inputs": [
        {
          "internalType": "uint256",
          "name": "",
          "type": "uint256"
        }
      ],
      "name": "icebox",
      "outputs": [
        {
          "internalType": "uint256",
          "name": "",
          "type": "uint256"
        }
      ],
      "stateMutability": "view",
      "type": "function",
      "constant": true
    },
    {
      "inputs": [
        {
          "internalType": "address",
          "name": "owner",
          "type": "address"
        },
        {
          "internalType": "address",
          "name": "operator",
          "type": "address"
        }
      ],
      "name": "isApprovedForAll",
      "outputs": [
        {
          "internalType": "bool",
          "name": "",
          "type": "bool"
        }
      ],
      "stateMutability": "view",
      "type": "function",
      "constant": true
    },
    {
      "inputs": [],
      "name": "max",
      "outputs": [
        {
          "internalType": "uint256",
          "name": "",
          "type": "uint256"
        }
      ],
      "stateMutability": "view",
      "type": "function",
      "constant": true
    },
    {
      "inputs": [
        {
          "internalType": "uint256",
          "name": "",
          "type": "uint256"
        }
      ],
      "name": "meltbox",
      "outputs": [
        {
          "internalType": "uint256",
          "name": "",
          "type": "uint256"
        }
      ],
      "stateMutability": "view",
      "type": "function",
      "constant": true
    },
    {
      "inputs": [],
      "name": "minted",
      "outputs": [
        {
          "internalType": "uint256",
          "name": "",
          "type": "uint256"
        }
      ],
      "stateMutability": "view",
      "type": "function",
      "constant": true
    },
    {
      "inputs": [
        {
          "internalType": "address",
          "name": "",
          "type": "address"
        }
      ],
      "name": "minter",
      "outputs": [
        {
          "internalType": "uint256",
          "name": "",
          "type": "uint256"
        }
      ],
      "stateMutability": "view",
      "type": "function",
      "constant": true
    },
    {
      "inputs": [],
      "name": "nam",
      "outputs": [
        {
          "internalType": "string",
          "name": "",
          "type": "string"
        }
      ],
      "stateMutability": "view",
      "type": "function",
      "constant": true
    },
    {
      "inputs": [],
      "name": "name",
      "outputs": [
        {
          "internalType": "string",
          "name": "",
          "type": "string"
        }
      ],
      "stateMutability": "view",
      "type": "function",
      "constant": true
    },
    {
      "inputs": [],
      "name": "num",
      "outputs": [
        {
          "internalType": "uint256",
          "name": "",
          "type": "uint256"
        }
      ],
      "stateMutability": "view",
      "type": "function",
      "constant": true
    },
    {
      "inputs": [
        {
          "internalType": "uint256",
          "name": "",
          "type": "uint256"
        }
      ],
      "name": "ownedBy",
      "outputs": [
        {
          "internalType": "address",
          "name": "",
          "type": "address"
        }
      ],
      "stateMutability": "view",
      "type": "function",
      "constant": true
    },
    {
      "inputs": [],
      "name": "owner",
      "outputs": [
        {
          "internalType": "address",
          "name": "",
          "type": "address"
        }
      ],
      "stateMutability": "view",
      "type": "function",
      "constant": true
    },
    {
      "inputs": [
        {
          "internalType": "uint256",
          "name": "tokenId",
          "type": "uint256"
        }
      ],
      "name": "ownerOf",
      "outputs": [
        {
          "internalType": "address",
          "name": "",
          "type": "address"
        }
      ],
      "stateMutability": "view",
      "type": "function",
      "constant": true
    },
    {
      "inputs": [],
      "name": "price",
      "outputs": [
        {
          "internalType": "uint256",
          "name": "",
          "type": "uint256"
        }
      ],
      "stateMutability": "view",
      "type": "function",
      "constant": true
    },
    {
      "inputs": [
        {
          "internalType": "address",
          "name": "from",
          "type": "address"
        },
        {
          "internalType": "address",
          "name": "to",
          "type": "address"
        },
        {
          "internalType": "uint256",
          "name": "tokenId",
          "type": "uint256"
        }
      ],
      "name": "safeTransferFrom",
      "outputs": [],
      "stateMutability": "nonpayable",
      "type": "function"
    },
    {
      "inputs": [
        {
          "internalType": "address",
          "name": "from",
          "type": "address"
        },
        {
          "internalType": "address",
          "name": "to",
          "type": "address"
        },
        {
          "internalType": "uint256",
          "name": "tokenId",
          "type": "uint256"
        },
        {
          "internalType": "bytes",
          "name": "_data",
          "type": "bytes"
        }
      ],
      "name": "safeTransferFrom",
      "outputs": [],
      "stateMutability": "nonpayable",
      "type": "function"
    },
    {
      "inputs": [
        {
          "internalType": "address",
          "name": "operator",
          "type": "address"
        },
        {
          "internalType": "bool",
          "name": "approved",
          "type": "bool"
        }
      ],
      "name": "setApprovalForAll",
      "outputs": [],
      "stateMutability": "nonpayable",
      "type": "function"
    },
    {
      "inputs": [],
      "name": "slots",
      "outputs": [
        {
          "internalType": "uint256",
          "name": "",
          "type": "uint256"
        }
      ],
      "stateMutability": "view",
      "type": "function",
      "constant": true
    },
    {
      "inputs": [],
      "name": "sloz",
      "outputs": [
        {
          "internalType": "uint256",
          "name": "",
          "type": "uint256"
        }
      ],
      "stateMutability": "view",
      "type": "function",
      "constant": true
    },
    {
      "inputs": [],
      "name": "start",
      "outputs": [
        {
          "internalType": "bool",
          "name": "",
          "type": "bool"
        }
      ],
      "stateMutability": "view",
      "type": "function",
      "constant": true
    },
    {
      "inputs": [
        {
          "internalType": "uint256",
          "name": "",
          "type": "uint256"
        }
      ],
      "name": "status",
      "outputs": [
        {
          "internalType": "string",
          "name": "",
          "type": "string"
        }
      ],
      "stateMutability": "view",
      "type": "function",
      "constant": true
    },
    {
      "inputs": [],
      "name": "statusprice",
      "outputs": [
        {
          "internalType": "uint256",
          "name": "",
          "type": "uint256"
        }
      ],
      "stateMutability": "view",
      "type": "function",
      "constant": true
    },
    {
      "inputs": [
        {
          "internalType": "bytes4",
          "name": "interfaceId",
          "type": "bytes4"
        }
      ],
      "name": "supportsInterface",
      "outputs": [
        {
          "internalType": "bool",
          "name": "",
          "type": "bool"
        }
      ],
      "stateMutability": "view",
      "type": "function",
      "constant": true
    },
    {
      "inputs": [],
      "name": "sym",
      "outputs": [
        {
          "internalType": "string",
          "name": "",
          "type": "string"
        }
      ],
      "stateMutability": "view",
      "type": "function",
      "constant": true
    },
    {
      "inputs": [],
      "name": "symbol",
      "outputs": [
        {
          "internalType": "string",
          "name": "",
          "type": "string"
        }
      ],
      "stateMutability": "view",
      "type": "function",
      "constant": true
    },
    {
      "inputs": [
        {
          "internalType": "uint256",
          "name": "",
          "type": "uint256"
        }
      ],
      "name": "tid",
      "outputs": [
        {
          "internalType": "uint256",
          "name": "",
          "type": "uint256"
        }
      ],
      "stateMutability": "view",
      "type": "function",
      "constant": true
    },
    {
      "inputs": [
        {
          "internalType": "uint256",
          "name": "tokenId",
          "type": "uint256"
        }
      ],
      "name": "tokenURI",
      "outputs": [
        {
          "internalType": "string",
          "name": "",
          "type": "string"
        }
      ],
      "stateMutability": "view",
      "type": "function",
      "constant": true
    },
    {
      "inputs": [
        {
          "internalType": "address",
          "name": "from",
          "type": "address"
        },
        {
          "internalType": "address",
          "name": "to",
          "type": "address"
        },
        {
          "internalType": "uint256",
          "name": "tokenId",
          "type": "uint256"
        }
      ],
      "name": "transferFrom",
      "outputs": [],
      "stateMutability": "nonpayable",
      "type": "function"
    },
    {
      "inputs": [
        {
          "internalType": "address",
          "name": "_adr",
          "type": "address"
        }
      ],
      "name": "isOwner",
      "outputs": [
        {
          "internalType": "bool",
          "name": "",
          "type": "bool"
        }
      ],
      "stateMutability": "view",
      "type": "function",
      "constant": true
    },
    {
      "inputs": [
        {
          "internalType": "uint256",
          "name": "_amnt",
          "type": "uint256"
        },
        {
          "internalType": "uint256[]",
          "name": "_diasIDs",
          "type": "uint256[]"
        },
        {
          "internalType": "string[]",
          "name": "_diasOBJs",
          "type": "string[]"
        }
      ],
      "name": "mint",
      "outputs": [
        {
          "internalType": "uint256",
          "name": "",
          "type": "uint256"
        }
      ],
      "stateMutability": "payable",
      "type": "function",
      "payable": true
    },
    {
      "inputs": [
        {
          "internalType": "uint256[]",
          "name": "_diasIDs",
          "type": "uint256[]"
        },
        {
          "internalType": "string[]",
          "name": "_diasOBJs",
          "type": "string[]"
        }
      ],
      "name": "greenMint",
      "outputs": [
        {
          "internalType": "uint256",
          "name": "",
          "type": "uint256"
        }
      ],
      "stateMutability": "nonpayable",
      "type": "function"
    },
    {
      "inputs": [
        {
          "internalType": "uint256",
          "name": "_id",
          "type": "uint256"
        },
        {
          "internalType": "string",
          "name": "_status",
          "type": "string"
        }
      ],
      "name": "setStatus",
      "outputs": [
        {
          "internalType": "bool",
          "name": "",
          "type": "bool"
        }
      ],
      "stateMutability": "payable",
      "type": "function",
      "payable": true
    },
    {
      "inputs": [
        {
          "internalType": "uint256",
          "name": "_id",
          "type": "uint256"
        },
        {
          "internalType": "string",
          "name": "_status",
          "type": "string"
        }
      ],
      "name": "iceSetStatus",
      "outputs": [
        {
          "internalType": "string",
          "name": "",
          "type": "string"
        }
      ],
      "stateMutability": "nonpayable",
      "type": "function"
    },
    {
      "inputs": [
        {
          "internalType": "uint256",
          "name": "_amount",
          "type": "uint256"
        },
        {
          "internalType": "uint256",
          "name": "_id",
          "type": "uint256"
        }
      ],
      "name": "addIce",
      "outputs": [
        {
          "internalType": "string",
          "name": "",
          "type": "string"
        }
      ],
      "stateMutability": "nonpayable",
      "type": "function"
    },
    {
      "inputs": [],
      "name": "meltState",
      "outputs": [
        {
          "internalType": "int256",
          "name": "state",
          "type": "int256"
        }
      ],
      "stateMutability": "view",
      "type": "function",
      "constant": true
    },
    {
      "inputs": [],
      "name": "changeMintState",
      "outputs": [
        {
          "internalType": "bool",
          "name": "",
          "type": "bool"
        }
      ],
      "stateMutability": "nonpayable",
      "type": "function"
    },
    {
      "inputs": [],
      "name": "changeMS",
      "outputs": [
        {
          "internalType": "bool",
          "name": "",
          "type": "bool"
        }
      ],
      "stateMutability": "nonpayable",
      "type": "function"
    },
    {
      "inputs": [
        {
          "internalType": "uint256",
          "name": "_id",
          "type": "uint256"
        }
      ],
      "name": "holder",
      "outputs": [
        {
          "internalType": "address",
          "name": "",
          "type": "address"
        }
      ],
      "stateMutability": "view",
      "type": "function",
      "constant": true
    },
    {
      "inputs": [],
      "name": "clearSloz",
      "outputs": [
        {
          "internalType": "bool",
          "name": "",
          "type": "bool"
        }
      ],
      "stateMutability": "nonpayable",
      "type": "function"
    },
    {
      "inputs": [],
      "name": "flush",
      "outputs": [
        {
          "internalType": "uint256",
          "name": "",
          "type": "uint256"
        }
      ],
      "stateMutability": "nonpayable",
      "type": "function"
    },
    {
      "inputs": [
        {
          "internalType": "address",
          "name": "_erc",
          "type": "address"
        }
      ],
      "name": "flushERC20",
      "outputs": [
        {
          "internalType": "uint256",
          "name": "",
          "type": "uint256"
        }
      ],
      "stateMutability": "nonpayable",
      "type": "function"
    },
    {
      "inputs": [
        {
          "internalType": "address",
          "name": "_erc",
          "type": "address"
        },
        {
          "internalType": "uint256",
          "name": "_id",
          "type": "uint256"
        }
      ],
      "name": "flushERC721",
      "outputs": [
        {
          "internalType": "uint256",
          "name": "",
          "type": "uint256"
        }
      ],
      "stateMutability": "nonpayable",
      "type": "function"
    }
  ],
  "bytecode": "0x6080604052670de0b6b3a76400006008553480156200001d57600080fd5b5060405162005e3538038062005e35833981810160405281019062000043919062000382565b6040518060400160405280600b81526020017f436f6f6c2046726f6f74730000000000000000000000000000000000000000008152506040518060400160405280600581526020017f46524f4f540000000000000000000000000000000000000000000000000000008152508160009081620000c091906200064e565b508060019081620000d291906200064e565b5050506001600d81905550600060108190555033600b60006101000a81548173ffffffffffffffffffffffffffffffffffffffff021916908373ffffffffffffffffffffffffffffffffffffffff1602179055506040518060400160405280600b81526020017f436f6f6c2046726f6f7473000000000000000000000000000000000000000000815250600e90816200016c91906200064e565b506040518060400160405280600581526020017f46524f4f54000000000000000000000000000000000000000000000000000000815250600f9081620001b391906200064e565b5082601960006101000a81548173ffffffffffffffffffffffffffffffffffffffff021916908373ffffffffffffffffffffffffffffffffffffffff16021790555081601a60006101000a81548173ffffffffffffffffffffffffffffffffffffffff021916908373ffffffffffffffffffffffffffffffffffffffff16021790555060008103620002925760056009819055506001600a819055506064600854600562000262919062000764565b6200026e9190620007de565b6006819055506103e8600854620002869190620007de565b600781905550620002d4565b6115b36009819055506104d2600a819055506008546001620002b5919062000764565b6006819055506103e8600854620002cd9190620007de565b6007819055505b50505062000816565b600080fd5b600073ffffffffffffffffffffffffffffffffffffffff82169050919050565b60006200030f82620002e2565b9050919050565b620003218162000302565b81146200032d57600080fd5b50565b600081519050620003418162000316565b92915050565b6000819050919050565b6200035c8162000347565b81146200036857600080fd5b50565b6000815190506200037c8162000351565b92915050565b6000806000606084860312156200039e576200039d620002dd565b5b6000620003ae8682870162000330565b9350506020620003c18682870162000330565b9250506040620003d4868287016200036b565b9150509250925092565b600081519050919050565b7f4e487b7100000000000000000000000000000000000000000000000000000000600052604160045260246000fd5b7f4e487b7100000000000000000000000000000000000000000000000000000000600052602260045260246000fd5b600060028204905060018216806200046057607f821691505b60208210810362000476576200047562000418565b5b50919050565b60008190508160005260206000209050919050565b60006020601f8301049050919050565b600082821b905092915050565b600060088302620004e07fffffffffffffffffffffffffffffffffffffffffffffffffffffffffffffffff82620004a1565b620004ec8683620004a1565b95508019841693508086168417925050509392505050565b6000819050919050565b60006200052f62000529620005238462000347565b62000504565b62000347565b9050919050565b6000819050919050565b6200054b836200050e565b620005636200055a8262000536565b848454620004ae565b825550505050565b600090565b6200057a6200056b565b6200058781848462000540565b505050565b5b81811015620005af57620005a360008262000570565b6001810190506200058d565b5050565b601f821115620005fe57620005c8816200047c565b620005d38462000491565b81016020851015620005e3578190505b620005fb620005f28562000491565b8301826200058c565b50505b505050565b600082821c905092915050565b6000620006236000198460080262000603565b1980831691505092915050565b60006200063e838362000610565b9150826002028217905092915050565b6200065982620003de565b67ffffffffffffffff811115620006755762000674620003e9565b5b62000681825462000447565b6200068e828285620005b3565b600060209050601f831160018114620006c65760008415620006b1578287015190505b620006bd858262000630565b8655506200072d565b601f198416620006d6866200047c565b60005b828110156200070057848901518255600182019150602085019450602081019050620006d9565b868310156200072057848901516200071c601f89168262000610565b8355505b6001600288020188555050505b505050505050565b7f4e487b7100000000000000000000000000000000000000000000000000000000600052601160045260246000fd5b6000620007718262000347565b91506200077e8362000347565b92508282026200078e8162000347565b91508282048414831517620007a857620007a762000735565b5b5092915050565b7f4e487b7100000000000000000000000000000000000000000000000000000000600052601260045260246000fd5b6000620007eb8262000347565b9150620007f88362000347565b9250826200080b576200080a620007af565b5b828204905092915050565b61560f80620008266000396000f3fe6080604052600436106102935760003560e01c806376917df91161015a578063a9700e1f116100c1578063ba899a2e1161007a578063ba899a2e14610ac6578063be9a655514610b03578063c87b56dd14610b2e578063d64b3ae814610b6b578063e985e9c514610ba8578063ea25b61d14610be557610293565b8063a9700e1f14610990578063aa1ee940146109bb578063ac0d4084146109f8578063ae943abc14610a35578063b524fd6f14610a72578063b88d4fde14610a9d57610293565b80639af9bec0116101135780639af9bec01461086c5780639b4f589f146108975780639e20437c146108d4578063a035b1fe146108ff578063a22cb4651461092a578063a613e0e71461095357610293565b806376917df9146107535780637d23b33c1461078357806380142754146107c057806383813a28146107eb5780638da5cb5b1461081657806395d89b411461084157610293565b806342842e0e116101fe5780634f02c420116101b75780634f02c4201461062d5780636352211e146106585780636ac5db19146106955780636b9f96ea146106c05780636f743acd146106eb57806370a082311461071657610293565b806342842e0e1461050957806342d21ef714610532578063477523c21461056f57806348547d69146105ac5780634c2a860d146105d75780634e70b1dc1461060257610293565b8063216d534c11610250578063216d534c146103c157806323b872dd146103fe5780632ce56773146104275780632f54bf6e146104645780633b8d676f146104a15780633dd08c38146104cc57610293565b806301ffc9a71461029857806306390d6c146102d557806306fdde0314610300578063081812fc1461032b578063095ea7b31461036857806320a7270d14610391575b600080fd5b3480156102a457600080fd5b506102bf60048036038101906102ba91906135eb565b610c10565b6040516102cc9190613633565b60405180910390f35b3480156102e157600080fd5b506102ea610cf2565b6040516102f79190613667565b60405180910390f35b34801561030c57600080fd5b50610315610cf8565b6040516103229190613712565b60405180910390f35b34801561033757600080fd5b50610352600480360381019061034d9190613760565b610d8a565b60405161035f91906137ce565b60405180910390f35b34801561037457600080fd5b5061038f600480360381019061038a9190613815565b610e0f565b005b6103ab60048036038101906103a69190613b33565b610f26565b6040516103b89190613667565b60405180910390f35b3480156103cd57600080fd5b506103e860048036038101906103e39190613815565b6110b3565b6040516103f59190613667565b60405180910390f35b34801561040a57600080fd5b5061042560048036038101906104209190613bbe565b611154565b005b34801561043357600080fd5b5061044e60048036038101906104499190613c11565b6111b4565b60405161045b9190613712565b60405180910390f35b34801561047057600080fd5b5061048b60048036038101906104869190613c6d565b611544565b6040516104989190613633565b60405180910390f35b3480156104ad57600080fd5b506104b66115ae565b6040516104c39190613633565b60405180910390f35b3480156104d857600080fd5b506104f360048036038101906104ee9190613c6d565b61164d565b6040516105009190613667565b60405180910390f35b34801561051557600080fd5b50610530600480360381019061052b9190613bbe565b611665565b005b34801561053e57600080fd5b5061055960048036038101906105549190613760565b611685565b6040516105669190613712565b60405180910390f35b34801561057b57600080fd5b5061059660048036038101906105919190613c6d565b611725565b6040516105a39190613667565b60405180910390f35b3480156105b857600080fd5b506105c16118c9565b6040516105ce9190613667565b60405180910390f35b3480156105e357600080fd5b506105ec6118cf565b6040516105f99190613cf9565b60405180910390f35b34801561060e57600080fd5b506106176118f5565b6040516106249190613667565b60405180910390f35b34801561063957600080fd5b506106426118fa565b60405161064f9190613667565b60405180910390f35b34801561066457600080fd5b5061067f600480360381019061067a9190613760565b611900565b60405161068c91906137ce565b60405180910390f35b3480156106a157600080fd5b506106aa6119b1565b6040516106b79190613667565b60405180910390f35b3480156106cc57600080fd5b506106d56119b7565b6040516106e29190613667565b60405180910390f35b3480156106f757600080fd5b50610700611a28565b60405161070d9190613667565b60405180910390f35b34801561072257600080fd5b5061073d60048036038101906107389190613c6d565b611a2e565b60405161074a9190613667565b60405180910390f35b61076d60048036038101906107689190613c11565b611ae5565b60405161077a9190613633565b60405180910390f35b34801561078f57600080fd5b506107aa60048036038101906107a59190613d14565b611c18565b6040516107b79190613667565b60405180910390f35b3480156107cc57600080fd5b506107d5611e90565b6040516107e29190613da5565b60405180910390f35b3480156107f757600080fd5b50610800611f13565b60405161080d9190613712565b60405180910390f35b34801561082257600080fd5b5061082b611fa1565b60405161083891906137ce565b60405180910390f35b34801561084d57600080fd5b50610856611fc7565b6040516108639190613712565b60405180910390f35b34801561087857600080fd5b50610881612059565b60405161088e9190613712565b60405180910390f35b3480156108a357600080fd5b506108be60048036038101906108b99190613760565b6120e7565b6040516108cb9190613e15565b60405180910390f35b3480156108e057600080fd5b506108e9612187565b6040516108f69190613667565b60405180910390f35b34801561090b57600080fd5b5061091461218d565b6040516109219190613667565b60405180910390f35b34801561093657600080fd5b50610951600480360381019061094c9190613e63565b612193565b005b34801561095f57600080fd5b5061097a60048036038101906109759190613760565b6121a9565b60405161098791906137ce565b60405180910390f35b34801561099c57600080fd5b506109a56121dc565b6040516109b29190613ec4565b60405180910390f35b3480156109c757600080fd5b506109e260048036038101906109dd9190613760565b612202565b6040516109ef9190613667565b60405180910390f35b348015610a0457600080fd5b50610a1f6004803603810190610a1a9190613edf565b61221a565b604051610a2c9190613712565b60405180910390f35b348015610a4157600080fd5b50610a5c6004803603810190610a579190613760565b6124a7565b604051610a699190613667565b60405180910390f35b348015610a7e57600080fd5b50610a876124bf565b604051610a949190613633565b60405180910390f35b348015610aa957600080fd5b50610ac46004803603810190610abf9190613fc0565b612528565b005b348015610ad257600080fd5b50610aed6004803603810190610ae89190613760565b61258a565b604051610afa91906137ce565b60405180910390f35b348015610b0f57600080fd5b50610b186125c7565b604051610b259190613633565b60405180910390f35b348015610b3a57600080fd5b50610b556004803603810190610b509190613760565b6125da565b604051610b629190613712565b60405180910390f35b348015610b7757600080fd5b50610b926004803603810190610b8d9190613760565b612681565b604051610b9f9190613667565b60405180910390f35b348015610bb457600080fd5b50610bcf6004803603810190610bca9190614043565b612699565b604051610bdc9190613633565b60405180910390f35b348015610bf157600080fd5b50610bfa61272d565b604051610c079190613633565b60405180910390f35b60007f80ac58cd000000000000000000000000000000000000000000000000000000007bffffffffffffffffffffffffffffffffffffffffffffffffffffffff1916827bffffffffffffffffffffffffffffffffffffffffffffffffffffffff19161480610cdb57507f5b5e139f000000000000000000000000000000000000000000000000000000007bffffffffffffffffffffffffffffffffffffffffffffffffffffffff1916827bffffffffffffffffffffffffffffffffffffffffffffffffffffffff1916145b80610ceb5750610cea8261273f565b5b9050919050565b60075481565b606060008054610d07906140b2565b80601f0160208091040260200160405190810160405280929190818152602001828054610d33906140b2565b8015610d805780601f10610d5557610100808354040283529160200191610d80565b820191906000526020600020905b815481529060010190602001808311610d6357829003601f168201915b5050505050905090565b6000610d95826127a9565b610dd4576040517f08c379a0000000000000000000000000000000000000000000000000000000008152600401610dcb90614155565b60405180910390fd5b6004600083815260200190815260200160002060009054906101000a900473ffffffffffffffffffffffffffffffffffffffff169050919050565b6000610e1a82611900565b90508073ffffffffffffffffffffffffffffffffffffffff168373ffffffffffffffffffffffffffffffffffffffff1603610e8a576040517f08c379a0000000000000000000000000000000000000000000000000000000008152600401610e81906141e7565b60405180910390fd5b8073ffffffffffffffffffffffffffffffffffffffff16610ea9612815565b73ffffffffffffffffffffffffffffffffffffffff161480610ed85750610ed781610ed2612815565b612699565b5b610f17576040517f08c379a0000000000000000000000000000000000000000000000000000000008152600401610f0e90614279565b60405180910390fd5b610f21838361281d565b505050565b60006001600954610f3791906142c8565b600d541115610f7b576040517f08c379a0000000000000000000000000000000000000000000000000000000008152600401610f7290614348565b60405180910390fd5b60065484610f899190614368565b341015610fcb576040517f08c379a0000000000000000000000000000000000000000000000000000000008152600401610fc2906143f6565b60405180910390fd5b60011515601160009054906101000a900460ff16151514611021576040517f08c379a000000000000000000000000000000000000000000000000000000000815260040161101890614462565b60405180910390fd5b3360176000600d54815260200190815260200160002060006101000a81548173ffffffffffffffffffffffffffffffffffffffff021916908373ffffffffffffffffffffffffffffffffffffffff160217905550611081843385856128d6565b50600060094261109191906144b1565b600161109d91906142c8565b90506110a933826129dc565b9150509392505050565b6000808390508073ffffffffffffffffffffffffffffffffffffffff166323b872dd30600b60009054906101000a900473ffffffffffffffffffffffffffffffffffffffff16866040518463ffffffff1660e01b8152600401611118939291906144e2565b600060405180830381600087803b15801561113257600080fd5b505af1158015611146573d6000803e3d6000fd5b505050508291505092915050565b61116561115f612815565b82612a95565b6111a4576040517f08c379a000000000000000000000000000000000000000000000000000000000815260040161119b9061458b565b60405180910390fd5b6111af838383612b73565b505050565b60603373ffffffffffffffffffffffffffffffffffffffff166017600085815260200190815260200160002060009054906101000a900473ffffffffffffffffffffffffffffffffffffffff1673ffffffffffffffffffffffffffffffffffffffff1614611257576040517f08c379a000000000000000000000000000000000000000000000000000000000815260040161124e906145f7565b60405180910390fd5b60001515601160009054906101000a900460ff161515146112ad576040517f08c379a00000000000000000000000000000000000000000000000000000000081526004016112a490614663565b60405180910390fd5b600854601960009054906101000a900473ffffffffffffffffffffffffffffffffffffffff1673ffffffffffffffffffffffffffffffffffffffff166370a08231336040518263ffffffff1660e01b815260040161130b91906137ce565b602060405180830381865afa158015611328573d6000803e3d6000fd5b505050506040513d601f19601f8201168201806040525081019061134c9190614698565b101561138d576040517f08c379a000000000000000000000000000000000000000000000000000000000815260040161138490614711565b60405180910390fd5b601960009054906101000a900473ffffffffffffffffffffffffffffffffffffffff1673ffffffffffffffffffffffffffffffffffffffff1663fcd3533c600854336040518363ffffffff1660e01b81526004016113ec929190614731565b6020604051808303816000875af115801561140b573d6000803e3d6000fd5b505050506040513d601f19601f8201168201806040525081019061142f9190614698565b50600360094261143f91906144b1565b10156114e557600160156000858152602001908152602001600020600082825461146991906142c8565b9250508190555060006016600085815260200190815260200160002054036114b657620151804261149a91906142c8565b60166000858152602001908152602001600020819055506114e4565b620151806016600085815260200190815260200160002060008282546114dc91906142c8565b925050819055505b5b8160146000858152602001908152602001600020908161150591906148fc565b506040518060400160405280601d81526020017f49434520484153204245454e20414444454420544f2046524f4f542021000000815250905092915050565b6000600b60009054906101000a900473ffffffffffffffffffffffffffffffffffffffff1673ffffffffffffffffffffffffffffffffffffffff168273ffffffffffffffffffffffffffffffffffffffff16036115a457600190506115a9565b600090505b919050565b6000601a60009054906101000a900473ffffffffffffffffffffffffffffffffffffffff1673ffffffffffffffffffffffffffffffffffffffff163373ffffffffffffffffffffffffffffffffffffffff1614611640576040517f08c379a000000000000000000000000000000000000000000000000000000000815260040161163790614a1a565b60405180910390fd5b611648612dce565b905090565b60186020528060005260406000206000915090505481565b61168083838360405180602001604052806000815250612528565b505050565b601460205280600052604060002060009150905080546116a4906140b2565b80601f01602080910402602001604051908101604052809291908181526020018280546116d0906140b2565b801561171d5780601f106116f25761010080835404028352916020019161171d565b820191906000526020600020905b81548152906001019060200180831161170057829003601f168201915b505050505081565b6000808290508073ffffffffffffffffffffffffffffffffffffffff166323b872dd30600b60009054906101000a900473ffffffffffffffffffffffffffffffffffffffff168473ffffffffffffffffffffffffffffffffffffffff166370a08231306040518263ffffffff1660e01b81526004016117a491906137ce565b602060405180830381865afa1580156117c1573d6000803e3d6000fd5b505050506040513d601f19601f820116820180604052508101906117e59190614698565b6040518463ffffffff1660e01b8152600401611803939291906144e2565b6020604051808303816000875af1158015611822573d6000803e3d6000fd5b505050506040513d601f19601f820116820180604052508101906118469190614a4f565b508073ffffffffffffffffffffffffffffffffffffffff166370a08231306040518263ffffffff1660e01b815260040161188091906137ce565b602060405180830381865afa15801561189d573d6000803e3d6000fd5b505050506040513d601f19601f820116820180604052508101906118c19190614698565b915050919050565b60105481565b601960009054906101000a900473ffffffffffffffffffffffffffffffffffffffff1681565b600181565b600d5481565b6000806002600084815260200190815260200160002060009054906101000a900473ffffffffffffffffffffffffffffffffffffffff169050600073ffffffffffffffffffffffffffffffffffffffff168173ffffffffffffffffffffffffffffffffffffffff16036119a8576040517f08c379a000000000000000000000000000000000000000000000000000000000815260040161199f90614aee565b60405180910390fd5b80915050919050565b60095481565b6000600b60009054906101000a900473ffffffffffffffffffffffffffffffffffffffff1673ffffffffffffffffffffffffffffffffffffffff166108fc479081150290604051600060405180830381858888f19350505050158015611a21573d6000803e3d6000fd5b5047905090565b600a5481565b60008073ffffffffffffffffffffffffffffffffffffffff168273ffffffffffffffffffffffffffffffffffffffff1603611a9e576040517f08c379a0000000000000000000000000000000000000000000000000000000008152600401611a9590614b80565b60405180910390fd5b600360008373ffffffffffffffffffffffffffffffffffffffff1673ffffffffffffffffffffffffffffffffffffffff168152602001908152602001600020549050919050565b60003373ffffffffffffffffffffffffffffffffffffffff166017600085815260200190815260200160002060009054906101000a900473ffffffffffffffffffffffffffffffffffffffff1673ffffffffffffffffffffffffffffffffffffffff1614611b88576040517f08c379a0000000000000000000000000000000000000000000000000000000008152600401611b7f906145f7565b60405180910390fd5b60001515601160009054906101000a900460ff16151514611bde576040517f08c379a0000000000000000000000000000000000000000000000000000000008152600401611bd590614663565b60405180910390fd5b600754341015611bed57600080fd5b81601460008581526020019081526020016000209081611c0d91906148fc565b506001905092915050565b6000600954600d541115611c61576040517f08c379a0000000000000000000000000000000000000000000000000000000008152600401611c5890614348565b60405180910390fd5b60011515601160009054906101000a900460ff16151514611cb7576040517f08c379a0000000000000000000000000000000000000000000000000000000008152600401611cae90614462565b60405180910390fd5b6000601a60009054906101000a900473ffffffffffffffffffffffffffffffffffffffff1673ffffffffffffffffffffffffffffffffffffffff1663f794062e336040518263ffffffff1660e01b8152600401611d1491906137ce565b602060405180830381865afa158015611d31573d6000803e3d6000fd5b505050506040513d601f19601f82011682018060405250810190611d559190614a4f565b90506001151581151514611d9e576040517f08c379a0000000000000000000000000000000000000000000000000000000008152600401611d9590614bec565b60405180910390fd5b600a546010541115611de5576040517f08c379a0000000000000000000000000000000000000000000000000000000008152600401611ddc90614c58565b60405180910390fd5b3360176000600d54815260200190815260200160002060006101000a81548173ffffffffffffffffffffffffffffffffffffffff021916908373ffffffffffffffffffffffffffffffffffffffff160217905550611e4660013386866128d6565b506000600942611e5691906144b1565b6001611e6291906142c8565b905060106000815480929190611e7790614c78565b9190505550611e8633826129dc565b9250505092915050565b6000804260166000601860003373ffffffffffffffffffffffffffffffffffffffff1673ffffffffffffffffffffffffffffffffffffffff16815260200190815260200160002054815260200190815260200160002054611ef19190614cc0565b90506018610e1082611f039190614d03565b611f0d9190614d6d565b91505090565b600f8054611f20906140b2565b80601f0160208091040260200160405190810160405280929190818152602001828054611f4c906140b2565b8015611f995780601f10611f6e57610100808354040283529160200191611f99565b820191906000526020600020905b815481529060010190602001808311611f7c57829003601f168201915b505050505081565b600b60009054906101000a900473ffffffffffffffffffffffffffffffffffffffff1681565b606060018054611fd6906140b2565b80601f0160208091040260200160405190810160405280929190818152602001828054612002906140b2565b801561204f5780601f106120245761010080835404028352916020019161204f565b820191906000526020600020905b81548152906001019060200180831161203257829003601f168201915b5050505050905090565b600e8054612066906140b2565b80601f0160208091040260200160405190810160405280929190818152602001828054612092906140b2565b80156120df5780601f106120b4576101008083540402835291602001916120df565b820191906000526020600020905b8154815290600101906020018083116120c257829003601f168201915b505050505081565b60126020528060005260406000206000915090508054612106906140b2565b80601f0160208091040260200160405190810160405280929190818152602001828054612132906140b2565b801561217f5780601f106121545761010080835404028352916020019161217f565b820191906000526020600020905b81548152906001019060200180831161216257829003601f168201915b505050505081565b60085481565b60065481565b6121a561219e612815565b8383612dfe565b5050565b60176020528060005260406000206000915054906101000a900473ffffffffffffffffffffffffffffffffffffffff1681565b601a60009054906101000a900473ffffffffffffffffffffffffffffffffffffffff1681565b60166020528060005260406000206000915090505481565b6060670de0b6b3a7640000836122309190614368565b601960009054906101000a900473ffffffffffffffffffffffffffffffffffffffff1673ffffffffffffffffffffffffffffffffffffffff166370a08231336040518263ffffffff1660e01b815260040161228b91906137ce565b602060405180830381865afa1580156122a8573d6000803e3d6000fd5b505050506040513d601f19601f820116820180604052508101906122cc9190614698565b10156122d757600080fd5b601960009054906101000a900473ffffffffffffffffffffffffffffffffffffffff1673ffffffffffffffffffffffffffffffffffffffff1663fcd3533c670de0b6b3a7640000856123299190614368565b336040518363ffffffff1660e01b8152600401612347929190614731565b6020604051808303816000875af1158015612366573d6000803e3d6000fd5b505050506040513d601f19601f8201168201806040525081019061238a9190614698565b50826015600084815260200190815260200160002060008282546123ae91906142c8565b92505081905550600060166000848152602001908152602001600020540361241b576018603c80856123e09190614368565b6123ea9190614368565b6123f49190614368565b426123ff91906142c8565b6016600084815260200190815260200160002081905550612469565b6018603c808561242b9190614368565b6124359190614368565b61243f9190614368565b60166000848152602001908152602001600020600082825461246191906142c8565b925050819055505b6040518060400160405280601d81526020017f49434520484153204245454e20414444454420544f2046524f4f542021000000815250905092915050565b60136020528060005260406000206000915090505481565b6000600b60009054906101000a900473ffffffffffffffffffffffffffffffffffffffff1673ffffffffffffffffffffffffffffffffffffffff163373ffffffffffffffffffffffffffffffffffffffff161461251b57600080fd5b612523612dce565b905090565b612539612533612815565b83612a95565b612578576040517f08c379a000000000000000000000000000000000000000000000000000000000815260040161256f9061458b565b60405180910390fd5b61258484848484612f6a565b50505050565b60006017600083815260200190815260200160002060009054906101000a900473ffffffffffffffffffffffffffffffffffffffff169050919050565b601160009054906101000a900460ff1681565b60606125e5826127a9565b612624576040517f08c379a000000000000000000000000000000000000000000000000000000000815260040161261b90614e57565b60405180910390fd5b600061262e612fc6565b9050600081511161264e5760405180602001604052806000815250612679565b8061265884612fdd565b604051602001612669929190614eb3565b6040516020818303038152906040525b915050919050565b60156020528060005260406000206000915090505481565b6000600560008473ffffffffffffffffffffffffffffffffffffffff1673ffffffffffffffffffffffffffffffffffffffff16815260200190815260200160002060008373ffffffffffffffffffffffffffffffffffffffff1673ffffffffffffffffffffffffffffffffffffffff16815260200190815260200160002060009054906101000a900460ff16905092915050565b60006104d26010819055506001905090565b60007f01ffc9a7000000000000000000000000000000000000000000000000000000007bffffffffffffffffffffffffffffffffffffffffffffffffffffffff1916827bffffffffffffffffffffffffffffffffffffffffffffffffffffffff1916149050919050565b60008073ffffffffffffffffffffffffffffffffffffffff166002600084815260200190815260200160002060009054906101000a900473ffffffffffffffffffffffffffffffffffffffff1673ffffffffffffffffffffffffffffffffffffffff1614159050919050565b600033905090565b816004600083815260200190815260200160002060006101000a81548173ffffffffffffffffffffffffffffffffffffffff021916908373ffffffffffffffffffffffffffffffffffffffff160217905550808273ffffffffffffffffffffffffffffffffffffffff1661289083611900565b73ffffffffffffffffffffffffffffffffffffffff167f8c5be1e5ebec7d5bd14f71427d1e84f3dd0314c0f7b2291e5b200ac8c7c3b92560405160405180910390a45050565b60006001856128e486611a2e565b6128ee91906142c8565b111561292f576040517f08c379a000000000000000000000000000000000000000000000000000000000815260040161292690614f49565b60405180910390fd5b600160095461293e91906142c8565b85600d5461294c91906142c8565b111561298d576040517f08c379a000000000000000000000000000000000000000000000000000000000815260040161298490614fb5565b60405180910390fd5b6129ce84846000815181106129a5576129a4614fd5565b5b6020026020010151846000815181106129c1576129c0614fd5565b5b602002602001015161313d565b50600d549050949350505050565b6000601960009054906101000a900473ffffffffffffffffffffffffffffffffffffffff1673ffffffffffffffffffffffffffffffffffffffff1663a9059cbb8460085485612a2b9190614368565b6040518363ffffffff1660e01b8152600401612a48929190615004565b6020604051808303816000875af1158015612a67573d6000803e3d6000fd5b505050506040513d601f19601f82011682018060405250810190612a8b9190614a4f565b5081905092915050565b6000612aa0826127a9565b612adf576040517f08c379a0000000000000000000000000000000000000000000000000000000008152600401612ad69061509f565b60405180910390fd5b6000612aea83611900565b90508073ffffffffffffffffffffffffffffffffffffffff168473ffffffffffffffffffffffffffffffffffffffff161480612b5957508373ffffffffffffffffffffffffffffffffffffffff16612b4184610d8a565b73ffffffffffffffffffffffffffffffffffffffff16145b80612b6a5750612b698185612699565b5b91505092915050565b8273ffffffffffffffffffffffffffffffffffffffff16612b9382611900565b73ffffffffffffffffffffffffffffffffffffffff1614612be9576040517f08c379a0000000000000000000000000000000000000000000000000000000008152600401612be090615131565b60405180910390fd5b600073ffffffffffffffffffffffffffffffffffffffff168273ffffffffffffffffffffffffffffffffffffffff1603612c58576040517f08c379a0000000000000000000000000000000000000000000000000000000008152600401612c4f906151c3565b60405180910390fd5b612c63838383613213565b612c6e60008261281d565b6001600360008573ffffffffffffffffffffffffffffffffffffffff1673ffffffffffffffffffffffffffffffffffffffff1681526020019081526020016000206000828254612cbe91906151e3565b925050819055506001600360008473ffffffffffffffffffffffffffffffffffffffff1673ffffffffffffffffffffffffffffffffffffffff1681526020019081526020016000206000828254612d1591906142c8565b92505081905550816002600083815260200190815260200160002060006101000a81548173ffffffffffffffffffffffffffffffffffffffff021916908373ffffffffffffffffffffffffffffffffffffffff160217905550808273ffffffffffffffffffffffffffffffffffffffff168473ffffffffffffffffffffffffffffffffffffffff167fddf252ad1be2c89b69c2b068fc378daa952ba7f163c4a11628f55a4df523b3ef60405160405180910390a4505050565b6000601160009054906101000a900460ff1615601160006101000a81548160ff0219169083151502179055905090565b8173ffffffffffffffffffffffffffffffffffffffff168373ffffffffffffffffffffffffffffffffffffffff1603612e6c576040517f08c379a0000000000000000000000000000000000000000000000000000000008152600401612e6390615263565b60405180910390fd5b80600560008573ffffffffffffffffffffffffffffffffffffffff1673ffffffffffffffffffffffffffffffffffffffff16815260200190815260200160002060008473ffffffffffffffffffffffffffffffffffffffff1673ffffffffffffffffffffffffffffffffffffffff16815260200190815260200160002060006101000a81548160ff0219169083151502179055508173ffffffffffffffffffffffffffffffffffffffff168373ffffffffffffffffffffffffffffffffffffffff167f17307eab39ab6107e8899845ad3d59bd9653f200f220920489ca2b5937696c3183604051612f5d9190613633565b60405180910390a3505050565b612f75848484612b73565b612f8184848484613218565b612fc0576040517f08c379a0000000000000000000000000000000000000000000000000000000008152600401612fb7906152f5565b60405180910390fd5b50505050565b606060405180602001604052806000815250905090565b606060008203613024576040518060400160405280600181526020017f30000000000000000000000000000000000000000000000000000000000000008152509050613138565b600082905060005b6000821461305657808061303f90614c78565b915050600a8261304f9190615315565b915061302c565b60008167ffffffffffffffff8111156130725761307161385a565b5b6040519080825280601f01601f1916602001820160405280156130a45781602001600182028036833780820191505090505b5090505b60008514613131576001826130bd91906151e3565b9150600a856130cc91906144b1565b60306130d891906142c8565b60f81b8183815181106130ee576130ed614fd5565b5b60200101907effffffffffffffffffffffffffffffffffffffffffffffffffffffffffffff1916908160001a905350600a8561312a9190615315565b94506130a8565b8093505050505b919050565b600061314b84600d5461339f565b8260136000600d548152602001908152602001600020819055508160126000600d548152602001908152602001600020908161318791906153a1565b50600d54601860008673ffffffffffffffffffffffffffffffffffffffff1673ffffffffffffffffffffffffffffffffffffffff16815260200190815260200160002081905550600d60008154809291906131e190614c78565b919050555060016009546131f591906142c8565b600d541061320757613205612dce565b505b600d5490509392505050565b505050565b60006132398473ffffffffffffffffffffffffffffffffffffffff1661356c565b15613392578373ffffffffffffffffffffffffffffffffffffffff1663150b7a02613262612815565b8786866040518563ffffffff1660e01b81526004016132849493929190615473565b6020604051808303816000875af19250505080156132c057506040513d601f19601f820116820180604052508101906132bd91906154d4565b60015b613342573d80600081146132f0576040519150601f19603f3d011682016040523d82523d6000602084013e6132f5565b606091505b50600081510361333a576040517f08c379a0000000000000000000000000000000000000000000000000000000008152600401613331906152f5565b60405180910390fd5b805181602001fd5b63150b7a0260e01b7bffffffffffffffffffffffffffffffffffffffffffffffffffffffff1916817bffffffffffffffffffffffffffffffffffffffffffffffffffffffff191614915050613397565b600190505b949350505050565b600073ffffffffffffffffffffffffffffffffffffffff168273ffffffffffffffffffffffffffffffffffffffff160361340e576040517f08c379a00000000000000000000000000000000000000000000000000000000081526004016134059061554d565b60405180910390fd5b613417816127a9565b15613457576040517f08c379a000000000000000000000000000000000000000000000000000000000815260040161344e906155b9565b60405180910390fd5b61346360008383613213565b6001600360008473ffffffffffffffffffffffffffffffffffffffff1673ffffffffffffffffffffffffffffffffffffffff16815260200190815260200160002060008282546134b391906142c8565b92505081905550816002600083815260200190815260200160002060006101000a81548173ffffffffffffffffffffffffffffffffffffffff021916908373ffffffffffffffffffffffffffffffffffffffff160217905550808273ffffffffffffffffffffffffffffffffffffffff16600073ffffffffffffffffffffffffffffffffffffffff167fddf252ad1be2c89b69c2b068fc378daa952ba7f163c4a11628f55a4df523b3ef60405160405180910390a45050565b600080823b905060008111915050919050565b6000604051905090565b600080fd5b600080fd5b60007fffffffff0000000000000000000000000000000000000000000000000000000082169050919050565b6135c881613593565b81146135d357600080fd5b50565b6000813590506135e5816135bf565b92915050565b60006020828403121561360157613600613589565b5b600061360f848285016135d6565b91505092915050565b60008115159050919050565b61362d81613618565b82525050565b60006020820190506136486000830184613624565b92915050565b6000819050919050565b6136618161364e565b82525050565b600060208201905061367c6000830184613658565b92915050565b600081519050919050565b600082825260208201905092915050565b60005b838110156136bc5780820151818401526020810190506136a1565b60008484015250505050565b6000601f19601f8301169050919050565b60006136e482613682565b6136ee818561368d565b93506136fe81856020860161369e565b613707816136c8565b840191505092915050565b6000602082019050818103600083015261372c81846136d9565b905092915050565b61373d8161364e565b811461374857600080fd5b50565b60008135905061375a81613734565b92915050565b60006020828403121561377657613775613589565b5b60006137848482850161374b565b91505092915050565b600073ffffffffffffffffffffffffffffffffffffffff82169050919050565b60006137b88261378d565b9050919050565b6137c8816137ad565b82525050565b60006020820190506137e360008301846137bf565b92915050565b6137f2816137ad565b81146137fd57600080fd5b50565b60008135905061380f816137e9565b92915050565b6000806040838503121561382c5761382b613589565b5b600061383a85828601613800565b925050602061384b8582860161374b565b9150509250929050565b600080fd5b7f4e487b7100000000000000000000000000000000000000000000000000000000600052604160045260246000fd5b613892826136c8565b810181811067ffffffffffffffff821117156138b1576138b061385a565b5b80604052505050565b60006138c461357f565b90506138d08282613889565b919050565b600067ffffffffffffffff8211156138f0576138ef61385a565b5b602082029050602081019050919050565b600080fd5b6000613919613914846138d5565b6138ba565b9050808382526020820190506020840283018581111561393c5761393b613901565b5b835b818110156139655780613951888261374b565b84526020840193505060208101905061393e565b5050509392505050565b600082601f83011261398457613983613855565b5b8135613994848260208601613906565b91505092915050565b600067ffffffffffffffff8211156139b8576139b761385a565b5b602082029050602081019050919050565b600080fd5b600067ffffffffffffffff8211156139e9576139e861385a565b5b6139f2826136c8565b9050602081019050919050565b82818337600083830152505050565b6000613a21613a1c846139ce565b6138ba565b905082815260208101848484011115613a3d57613a3c6139c9565b5b613a488482856139ff565b509392505050565b600082601f830112613a6557613a64613855565b5b8135613a75848260208601613a0e565b91505092915050565b6000613a91613a8c8461399d565b6138ba565b90508083825260208201905060208402830185811115613ab457613ab3613901565b5b835b81811015613afb57803567ffffffffffffffff811115613ad957613ad8613855565b5b808601613ae68982613a50565b85526020850194505050602081019050613ab6565b5050509392505050565b600082601f830112613b1a57613b19613855565b5b8135613b2a848260208601613a7e565b91505092915050565b600080600060608486031215613b4c57613b4b613589565b5b6000613b5a8682870161374b565b935050602084013567ffffffffffffffff811115613b7b57613b7a61358e565b5b613b878682870161396f565b925050604084013567ffffffffffffffff811115613ba857613ba761358e565b5b613bb486828701613b05565b9150509250925092565b600080600060608486031215613bd757613bd6613589565b5b6000613be586828701613800565b9350506020613bf686828701613800565b9250506040613c078682870161374b565b9150509250925092565b60008060408385031215613c2857613c27613589565b5b6000613c368582860161374b565b925050602083013567ffffffffffffffff811115613c5757613c5661358e565b5b613c6385828601613a50565b9150509250929050565b600060208284031215613c8357613c82613589565b5b6000613c9184828501613800565b91505092915050565b6000819050919050565b6000613cbf613cba613cb58461378d565b613c9a565b61378d565b9050919050565b6000613cd182613ca4565b9050919050565b6000613ce382613cc6565b9050919050565b613cf381613cd8565b82525050565b6000602082019050613d0e6000830184613cea565b92915050565b60008060408385031215613d2b57613d2a613589565b5b600083013567ffffffffffffffff811115613d4957613d4861358e565b5b613d558582860161396f565b925050602083013567ffffffffffffffff811115613d7657613d7561358e565b5b613d8285828601613b05565b9150509250929050565b6000819050919050565b613d9f81613d8c565b82525050565b6000602082019050613dba6000830184613d96565b92915050565b600081519050919050565b600082825260208201905092915050565b6000613de782613dc0565b613df18185613dcb565b9350613e0181856020860161369e565b613e0a816136c8565b840191505092915050565b60006020820190508181036000830152613e2f8184613ddc565b905092915050565b613e4081613618565b8114613e4b57600080fd5b50565b600081359050613e5d81613e37565b92915050565b60008060408385031215613e7a57613e79613589565b5b6000613e8885828601613800565b9250506020613e9985828601613e4e565b9150509250929050565b6000613eae82613cc6565b9050919050565b613ebe81613ea3565b82525050565b6000602082019050613ed96000830184613eb5565b92915050565b60008060408385031215613ef657613ef5613589565b5b6000613f048582860161374b565b9250506020613f158582860161374b565b9150509250929050565b600067ffffffffffffffff821115613f3a57613f3961385a565b5b613f43826136c8565b9050602081019050919050565b6000613f63613f5e84613f1f565b6138ba565b905082815260208101848484011115613f7f57613f7e6139c9565b5b613f8a8482856139ff565b509392505050565b600082601f830112613fa757613fa6613855565b5b8135613fb7848260208601613f50565b91505092915050565b60008060008060808587031215613fda57613fd9613589565b5b6000613fe887828801613800565b9450506020613ff987828801613800565b935050604061400a8782880161374b565b925050606085013567ffffffffffffffff81111561402b5761402a61358e565b5b61403787828801613f92565b91505092959194509250565b6000806040838503121561405a57614059613589565b5b600061406885828601613800565b925050602061407985828601613800565b9150509250929050565b7f4e487b7100000000000000000000000000000000000000000000000000000000600052602260045260246000fd5b600060028204905060018216806140ca57607f821691505b6020821081036140dd576140dc614083565b5b50919050565b7f4552433732313a20617070726f76656420717565727920666f72206e6f6e657860008201527f697374656e7420746f6b656e0000000000000000000000000000000000000000602082015250565b600061413f602c8361368d565b915061414a826140e3565b604082019050919050565b6000602082019050818103600083015261416e81614132565b9050919050565b7f4552433732313a20617070726f76616c20746f2063757272656e74206f776e6560008201527f7200000000000000000000000000000000000000000000000000000000000000602082015250565b60006141d160218361368d565b91506141dc82614175565b604082019050919050565b60006020820190508181036000830152614200816141c4565b9050919050565b7f4552433732313a20617070726f76652063616c6c6572206973206e6f74206f7760008201527f6e6572206e6f7220617070726f76656420666f7220616c6c0000000000000000602082015250565b600061426360388361368d565b915061426e82614207565b604082019050919050565b6000602082019050818103600083015261429281614256565b9050919050565b7f4e487b7100000000000000000000000000000000000000000000000000000000600052601160045260246000fd5b60006142d38261364e565b91506142de8361364e565b92508282019050808211156142f6576142f5614299565b5b92915050565b7f534f4c44204f5554000000000000000000000000000000000000000000000000600082015250565b600061433260088361368d565b915061433d826142fc565b602082019050919050565b6000602082019050818103600083015261436181614325565b9050919050565b60006143738261364e565b915061437e8361364e565b925082820261438c8161364e565b915082820484148315176143a3576143a2614299565b5b5092915050565b7f494e5355464649434945542046554e4453000000000000000000000000000000600082015250565b60006143e060118361368d565b91506143eb826143aa565b602082019050919050565b6000602082019050818103600083015261440f816143d3565b9050919050565b7f4d494e54204953204e4f5420594554204c495645000000000000000000000000600082015250565b600061444c60148361368d565b915061445782614416565b602082019050919050565b6000602082019050818103600083015261447b8161443f565b9050919050565b7f4e487b7100000000000000000000000000000000000000000000000000000000600052601260045260246000fd5b60006144bc8261364e565b91506144c78361364e565b9250826144d7576144d6614482565b5b828206905092915050565b60006060820190506144f760008301866137bf565b61450460208301856137bf565b6145116040830184613658565b949350505050565b7f4552433732313a207472616e736665722063616c6c6572206973206e6f74206f60008201527f776e6572206e6f7220617070726f766564000000000000000000000000000000602082015250565b600061457560318361368d565b915061458082614519565b604082019050919050565b600060208201905081810360008301526145a481614568565b9050919050565b7f594f5520415245204e4f542054484520484f4c44455200000000000000000000600082015250565b60006145e160168361368d565b91506145ec826145ab565b602082019050919050565b60006020820190508181036000830152614610816145d4565b9050919050565b7f4d494e54204953205354494c4c20494e2050524f475245535300000000000000600082015250565b600061464d60198361368d565b915061465882614617565b602082019050919050565b6000602082019050818103600083015261467c81614640565b9050919050565b60008151905061469281613734565b92915050565b6000602082840312156146ae576146ad613589565b5b60006146bc84828501614683565b91505092915050565b7f4e4f5420454e4f55474820494345202100000000000000000000000000000000600082015250565b60006146fb60108361368d565b9150614706826146c5565b602082019050919050565b6000602082019050818103600083015261472a816146ee565b9050919050565b60006040820190506147466000830185613658565b61475360208301846137bf565b9392505050565b60008190508160005260206000209050919050565b60006020601f8301049050919050565b600082821b905092915050565b6000600883026147bc7fffffffffffffffffffffffffffffffffffffffffffffffffffffffffffffffff8261477f565b6147c6868361477f565b95508019841693508086168417925050509392505050565b60006147f96147f46147ef8461364e565b613c9a565b61364e565b9050919050565b6000819050919050565b614813836147de565b61482761481f82614800565b84845461478c565b825550505050565b600090565b61483c61482f565b61484781848461480a565b505050565b5b8181101561486b57614860600082614834565b60018101905061484d565b5050565b601f8211156148b0576148818161475a565b61488a8461476f565b81016020851015614899578190505b6148ad6148a58561476f565b83018261484c565b50505b505050565b600082821c905092915050565b60006148d3600019846008026148b5565b1980831691505092915050565b60006148ec83836148c2565b9150826002028217905092915050565b61490582613682565b67ffffffffffffffff81111561491e5761491d61385a565b5b61492882546140b2565b61493382828561486f565b600060209050601f8311600181146149665760008415614954578287015190505b61495e85826148e0565b8655506149c6565b601f1984166149748661475a565b60005b8281101561499c57848901518255600182019150602085019450602081019050614977565b868310156149b957848901516149b5601f8916826148c2565b8355505b6001600288020188555050505b505050505050565b7f4e4f5420434f4e54524143542021000000000000000000000000000000000000600082015250565b6000614a04600e8361368d565b9150614a0f826149ce565b602082019050919050565b60006020820190508181036000830152614a33816149f7565b9050919050565b600081519050614a4981613e37565b92915050565b600060208284031215614a6557614a64613589565b5b6000614a7384828501614a3a565b91505092915050565b7f4552433732313a206f776e657220717565727920666f72206e6f6e657869737460008201527f656e7420746f6b656e0000000000000000000000000000000000000000000000602082015250565b6000614ad860298361368d565b9150614ae382614a7c565b604082019050919050565b60006020820190508181036000830152614b0781614acb565b9050919050565b7f4552433732313a2062616c616e636520717565727920666f7220746865207a6560008201527f726f206164647265737300000000000000000000000000000000000000000000602082015250565b6000614b6a602a8361368d565b9150614b7582614b0e565b604082019050919050565b60006020820190508181036000830152614b9981614b5d565b9050919050565b7f594f5520415245204e4f5420475245454e4c4953544544000000000000000000600082015250565b6000614bd660178361368d565b9150614be182614ba0565b602082019050919050565b60006020820190508181036000830152614c0581614bc9565b9050919050565b7f414c4c20534c4f54532048415645204245454e204d494e544544000000000000600082015250565b6000614c42601a8361368d565b9150614c4d82614c0c565b602082019050919050565b60006020820190508181036000830152614c7181614c35565b9050919050565b6000614c838261364e565b91507fffffffffffffffffffffffffffffffffffffffffffffffffffffffffffffffff8203614cb557614cb4614299565b5b600182019050919050565b6000614ccb82613d8c565b9150614cd683613d8c565b9250828203905081811260008412168282136000851215161715614cfd57614cfc614299565b5b92915050565b6000614d0e82613d8c565b9150614d1983613d8c565b925082614d2957614d28614482565b5b600160000383147f800000000000000000000000000000000000000000000000000000000000000083141615614d6257614d61614299565b5b828205905092915050565b6000614d7882613d8c565b9150614d8383613d8c565b9250828202614d9181613d8c565b91507f80000000000000000000000000000000000000000000000000000000000000008414600084121615614dc957614dc8614299565b5b8282058414831517614dde57614ddd614299565b5b5092915050565b7f4552433732314d657461646174613a2055524920717565727920666f72206e6f60008201527f6e6578697374656e7420746f6b656e0000000000000000000000000000000000602082015250565b6000614e41602f8361368d565b9150614e4c82614de5565b604082019050919050565b60006020820190508181036000830152614e7081614e34565b9050919050565b600081905092915050565b6000614e8d82613682565b614e978185614e77565b9350614ea781856020860161369e565b80840191505092915050565b6000614ebf8285614e82565b9150614ecb8284614e82565b91508190509392505050565b7f4558434545444544204d4158204d494e5441424c4520544f4b454e532050455260008201527f2057414c4c455400000000000000000000000000000000000000000000000000602082015250565b6000614f3360278361368d565b9150614f3e82614ed7565b604082019050919050565b60006020820190508181036000830152614f6281614f26565b9050919050565b7f4e4f5420454e4f55474820535550504c59000000000000000000000000000000600082015250565b6000614f9f60118361368d565b9150614faa82614f69565b602082019050919050565b60006020820190508181036000830152614fce81614f92565b9050919050565b7f4e487b7100000000000000000000000000000000000000000000000000000000600052603260045260246000fd5b600060408201905061501960008301856137bf565b6150266020830184613658565b9392505050565b7f4552433732313a206f70657261746f7220717565727920666f72206e6f6e657860008201527f697374656e7420746f6b656e0000000000000000000000000000000000000000602082015250565b6000615089602c8361368d565b91506150948261502d565b604082019050919050565b600060208201905081810360008301526150b88161507c565b9050919050565b7f4552433732313a207472616e73666572206f6620746f6b656e2074686174206960008201527f73206e6f74206f776e0000000000000000000000000000000000000000000000602082015250565b600061511b60298361368d565b9150615126826150bf565b604082019050919050565b6000602082019050818103600083015261514a8161510e565b9050919050565b7f4552433732313a207472616e7366657220746f20746865207a65726f2061646460008201527f7265737300000000000000000000000000000000000000000000000000000000602082015250565b60006151ad60248361368d565b91506151b882615151565b604082019050919050565b600060208201905081810360008301526151dc816151a0565b9050919050565b60006151ee8261364e565b91506151f98361364e565b925082820390508181111561521157615210614299565b5b92915050565b7f4552433732313a20617070726f766520746f2063616c6c657200000000000000600082015250565b600061524d60198361368d565b915061525882615217565b602082019050919050565b6000602082019050818103600083015261527c81615240565b9050919050565b7f4552433732313a207472616e7366657220746f206e6f6e20455243373231526560008201527f63656976657220696d706c656d656e7465720000000000000000000000000000602082015250565b60006152df60328361368d565b91506152ea82615283565b604082019050919050565b6000602082019050818103600083015261530e816152d2565b9050919050565b60006153208261364e565b915061532b8361364e565b92508261533b5761533a614482565b5b828204905092915050565b60008190508160005260206000209050919050565b601f82111561539c5761536d81615346565b6153768461476f565b81016020851015615385578190505b6153996153918561476f565b83018261484c565b50505b505050565b6153aa82613dc0565b67ffffffffffffffff8111156153c3576153c261385a565b5b6153cd82546140b2565b6153d882828561535b565b600060209050601f83116001811461540b57600084156153f9578287015190505b61540385826148e0565b86555061546b565b601f19841661541986615346565b60005b828110156154415784890151825560018201915060208501945060208101905061541c565b8683101561545e578489015161545a601f8916826148c2565b8355505b6001600288020188555050505b505050505050565b600060808201905061548860008301876137bf565b61549560208301866137bf565b6154a26040830185613658565b81810360608301526154b48184613ddc565b905095945050505050565b6000815190506154ce816135bf565b92915050565b6000602082840312156154ea576154e9613589565b5b60006154f8848285016154bf565b91505092915050565b7f4552433732313a206d696e7420746f20746865207a65726f2061646472657373600082015250565b600061553760208361368d565b915061554282615501565b602082019050919050565b600060208201905081810360008301526155668161552a565b9050919050565b7f4552433732313a20746f6b656e20616c7265616479206d696e74656400000000600082015250565b60006155a3601c8361368d565b91506155ae8261556d565b602082019050919050565b600060208201905081810360008301526155d281615596565b905091905056fea2646970667358221220addbd5274052a92b0009a580aeb68dbf66996bff2309d3eb191d3373b17e966c64736f6c63430008110033",
  "immutableReferences": {},
  "source": "// SPDX-License-Identifier: MIT\n\npragma solidity ^0.8.10;\n\nimport \"@openzeppelin/contracts/token/ERC20/ERC20.sol\";\nimport \"@openzeppelin/contracts/token/ERC721/ERC721.sol\";\n\ncontract Greenlist {\n    address public admin;\n    uint256 constant digits = 10**18;\n    uint256 public l;\n    uint256 public max;\n    string public message;\n    uint256 public stamp;\n    uint256 public msgprice;\n    FrootyCoolTingz public FCT;\n    mapping(address => bool) public isListed;\n    address[1234] public users;\n    modifier notListed(address _adr) {\n        require(isListed[_adr] == false, \"already listed\");\n        _;\n    }\n\n    constructor(uint256 _t) {\n        admin = msg.sender;\n\n        if (_t == 0) {\n            l = 0; // Testnet\n            max = 1; // Testnet\n            msgprice = (1 * digits) / 1000;\n        } else {\n            isListed[msg.sender] = true; // OFF ON TESTNET\n            users[0] = msg.sender;\n            l = 0; // Mainnet\n            max = 1234; // Mainnet\n            msgprice = (1 * digits) / 1000;\n        }\n        message = \"GET U A #FROOT NOW !\";\n    }\n\n    function setFCT(address _fct) external returns (bool) {\n        FCT = FrootyCoolTingz(_fct);\n        return true;\n    }\n\n    function autoStart() internal returns (bool) {\n        return FCT.changeMS();\n    }\n\n    function getListed() external notListed(msg.sender) returns (bool) {\n        require(l < max, \"no more greenlist tickets left\");\n        isListed[msg.sender] = true;\n        users[l] = (msg.sender);\n        l++;\n        if (l == max) autoStart();\n        return isListed[msg.sender];\n    }\n\n    function makeListing(address _adr) external notListed(_adr) returns (bool) {\n        require(admin == msg.sender, \"you are not admin\");\n        isListed[_adr] = true;\n        users[l] = (_adr);\n        l++;\n        if (l == max) autoStart();\n        return isListed[_adr];\n    }\n\n    function showUsers() external view returns (address[1234] memory) {\n        return users;\n    }\n\n    function setMsg(string memory _msg) external payable returns (bool) {\n        require(msg.value >= msgprice, \"insufficient balance sent\");\n        require(block.timestamp >= stamp + 60 * 60, \"you need to wait\");\n        message = _msg;\n        stamp = block.timestamp;\n        return true;\n    }\n\n    function setMsgAdmin(string memory _msg) external returns (bool) {\n        require(admin == msg.sender, \"you are not admin\");\n        message = _msg;\n        stamp = block.timestamp;\n        return true;\n    }\n\n    function showMsg() external view returns (string memory) {\n        return message;\n    }\n\n    function withdraw() external returns (uint256) {\n        require(admin == msg.sender, \"you are not admin\");\n        payable(admin).transfer(address(this).balance);\n        return address(this).balance;\n    }\n}\n\ncontract ICE is ERC20 {\n    uint256 public constant digits = 10**18;\n    uint256 public price; // Testnet :: 10000 // Mainnet :: 10\n    address public froots;\n    address admin;\n\n    modifier onlyA() {\n        require(msg.sender == admin);\n        _;\n    }\n\n    constructor(uint256 _t) ERC20(\"Incredibly Cool Essence\", \"ICE\") {\n        admin = msg.sender;\n        _domint(1000 * 10**22, admin);\n        if (_t == 0) {\n            price = (1 * digits) / 1000;\n        } else {\n            if (_t == 1) {\n                price = (1 * digits) / 1000;\n            }\n            if (_t == 2) {\n                price = (1 * digits) / 1000;\n            }\n            if (_t == 3) {\n                price = (1 * digits) / 1000;\n            }\n            if (_t == 4) {\n                price = (1 * digits) / 1000;\n            }\n            if (_t == 5) {\n                price = (1 * digits) / 1000;\n            }\n            if (_t == 6) {\n                price = (1 * digits) / 1000;\n            }\n            if (_t == 7) {\n                price = (1 * digits) / 1000;\n            }\n            if (_t == 8) {\n                price = (1 * digits) / 1000;\n            }\n        }\n    }\n\n    function setFroots(address _adr) external returns (address) {\n        froots = _adr;\n        return froots;\n    }\n\n    function _domint(uint256 _amnt, address _adr) internal returns (uint256) {\n        _mint(_adr, _amnt);\n        return _amnt;\n    }\n\n    function burn(uint256 _amnt, address _adr) external returns (uint256) {\n        _burn(_adr, _amnt);\n        return _amnt;\n    }\n\n    function swap(uint256 _amnt, address _adr)\n        external\n        payable\n        returns (uint256)\n    {\n        require(_amnt >= 10, \"MINIMUM 10 ICE\");\n        require(msg.value >= price * _amnt, \"INSUFFICIENT FUNDS PROVIDED\");\n        return _domint(_amnt, _adr);\n    }\n\n    function move(address _adr) external onlyA {\n        _domint(1000000 * 10**18, _adr);\n    }\n}\n\ncontract FrootyCoolTingz is ERC721 {\n    // Public Constants\n    uint256 public price; // PRICE VAL Testnet\n    uint256 public statusprice;\n    uint256 public digits = 1 * 10**18; // PRICE VAL Mainnet\n    uint256 public constant num = 1; // MAX MINTS / WALLET\n\n    uint256 public max; // MAX TOTAL MINTS\n    uint256 public sloz; // MAX FREE MINTS\n    // */\n    // Public Variables\n    address public owner; // CONTRACT OWNER\n    address iceAdr;\n    uint256 public minted; // TOKENS MINTED 1-5000\n    string public nam; // TOKEN NAME\n    string public sym; // TOKEN SYMBOL\n    uint256 public slots; // SLOZ USED 1-1234\n    bool public start; // ALLOWS MINT TO START\n    // Public Mappings\n    mapping(uint256 => bytes) public dias; // TOKEN ID SHOWS DIAS BYTES OBJECT\n    mapping(uint256 => uint256) public tid; // TOKEN ID SHOWS DIAS ID\n    mapping(uint256 => string) public status; // TOKEN ID SHOWS USER STATUS\n    mapping(uint256 => uint256) public icebox; // TOKEN ID SHOWS FROOT ICE BALANCE\n    mapping(uint256 => uint256) public meltbox; // melted ICE of token id\n    mapping(uint256 => address) public ownedBy;\n    mapping(address => uint256) public minter; // Token ID by Address\n    ICE public ice;\n    Greenlist public GLC;\n\n    modifier onlyO() {\n        // ONLY OWNER CAN USE MOD FUNX\n        require(msg.sender == owner);\n        _;\n    }\n\n    constructor(\n        address _ICE,\n        address _Greenlist,\n        uint256 _t\n    ) ERC721(\"Cool Froots\", \"FROOT\") {\n        // INIT CONTRACT SET PUB VARS\n        minted = 1;\n        slots = 0;\n        owner = msg.sender;\n        nam = \"Cool Froots\";\n        sym = \"FROOT\";\n        ice = ICE(_ICE);\n        GLC = Greenlist(_Greenlist);\n        if (_t == 0) {\n            max = 5;\n            sloz = 1;\n            price = (5 * digits) / 100;\n            statusprice = digits / 1000;\n        } else {\n            max = 5555;\n            sloz = 1234;\n            price = 1 * digits;\n            statusprice = digits / 1000;\n        }\n    }\n\n    function isOwner(address _adr) external view returns (bool) {\n        // SHOWS BOOL OF OWNERSTATUS OF ADDRESS\n        if (_adr == owner) return true;\n        else return false;\n    }\n\n    function _earn(address _adr, uint256 _o) internal returns (uint256) {\n        ice.transfer(_adr, _o * digits);\n        return _o;\n    }\n\n    function mint(\n        uint256 _amnt,\n        uint256[] memory _diasIDs,\n        string[] memory _diasOBJs\n    ) external payable returns (uint256) {\n        // INITIATES THE MINT OF UP TO 7 TOKENS IF ALLOWED\n        require(minted <= max + 1, \"SOLD OUT\");\n        require(msg.value >= _amnt * price, \"INSUFFICIET FUNDS\");\n        require(start == true, \"MINT IS NOT YET LIVE\");\n        ownedBy[minted] = msg.sender;\n        _doMint(_amnt, msg.sender, _diasIDs, _diasOBJs);\n        uint256 o = 1 + (block.timestamp % 9);\n        return _earn(msg.sender, o);\n    }\n\n    function greenMint(uint256[] memory _diasIDs, string[] memory _diasOBJs)\n        external\n        returns (uint256)\n    {\n        // INITIATES THE MINT OF UP TO 7 TOKENS IF ALLOWED\n        require(minted <= max, \"SOLD OUT\");\n        require(start == true, \"MINT IS NOT YET LIVE\");\n        bool boo = GLC.isListed(msg.sender);\n        require(boo == true, \"YOU ARE NOT GREENLISTED\");\n        require(slots <= sloz, \"ALL SLOTS HAVE BEEN MINTED\");\n        ownedBy[minted] = msg.sender;\n        _doMint(1, msg.sender, _diasIDs, _diasOBJs);\n        uint256 o = 1 + (block.timestamp % 9);\n        slots++;\n        return _earn(msg.sender, o);\n    }\n\n    function setStatus(uint256 _id, string memory _status)\n        external\n        payable\n        returns (bool)\n    {\n        require(ownedBy[_id] == msg.sender, \"YOU ARE NOT THE HOLDER\");\n        require(start == false, \"MINT IS STILL IN PROGRESS\");\n        require(msg.value >= statusprice);\n        status[_id] = _status;\n        return true;\n    }\n\n    function iceSetStatus(uint256 _id, string memory _status)\n        external\n        returns (string memory)\n    {\n        require(ownedBy[_id] == msg.sender, \"YOU ARE NOT THE HOLDER\");\n        require(start == false, \"MINT IS STILL IN PROGRESS\");\n        require(ice.balanceOf(msg.sender) >= digits, \"NOT ENOUGH ICE !\");\n        ice.burn(digits, msg.sender);\n        if (block.timestamp % 9 < 3) {\n            icebox[_id] += 1;\n            if (meltbox[_id] == 0)\n                meltbox[_id] = block.timestamp + 1 * 60 * 60 * 24;\n            else meltbox[_id] += 1 * 60 * 60 * 24;\n        }\n        status[_id] = _status;\n        return \"ICE HAS BEEN ADDED TO FROOT !\";\n    }\n\n    function addIce(uint256 _amount, uint256 _id)\n        external\n        returns (string memory)\n    {\n        require(ice.balanceOf(msg.sender) >= _amount * 10**18);\n        ice.burn(_amount * 10**18, msg.sender);\n        icebox[_id] += _amount;\n        if (meltbox[_id] == 0)\n            meltbox[_id] = block.timestamp + _amount * 60 * 60 * 24;\n        else meltbox[_id] += _amount * 60 * 60 * 24;\n        return \"ICE HAS BEEN ADDED TO FROOT !\";\n    }\n\n    function meltState() external view returns (int256 state) {\n        int256 meltleft = int256(meltbox[minter[msg.sender]]) -\n            int256(block.timestamp);\n        return state = (meltleft / 3600) * 24;\n    }\n\n    function changeMintState() external onlyO returns (bool) {\n        return cMS();\n    }\n\n    // ONLY TESTNET\n    /* */\n    function changeMS() external returns (bool) {\n        require(msg.sender == address(GLC), \"NOT CONTRACT !\");\n        return cMS();\n    }\n\n    // */\n    function cMS() internal returns (bool) {\n        return start = !start;\n    }\n\n    function mintOne(\n        address _adr,\n        uint256 _diasID,\n        string memory _diasOBJ\n    ) internal returns (uint256) {\n        // INTERNAL // MINTS ONE TOKEN\n        _mint(_adr, minted);\n        tid[minted] = _diasID;\n        dias[minted] = bytes(_diasOBJ);\n        minter[_adr] = minted;\n        minted++;\n        if (minted >= max + 1) cMS();\n        return minted;\n    }\n\n    function _doMint(\n        uint256 _amnt,\n        address _adr,\n        uint256[] memory _diasIDs,\n        string[] memory _diasOBJs\n    ) internal returns (uint256) {\n        require(\n            balanceOf(_adr) + _amnt <= num,\n            \"EXCEEDED MAX MINTABLE TOKENS PER WALLET\"\n        );\n        require(minted + _amnt <= max + 1, \"NOT ENOUGH SUPPLY\");\n        // INTERNAL // MINTS UP TO 7 TOKENS IN ONE TX\n        mintOne(_adr, _diasIDs[0], _diasOBJs[0]);\n        return minted;\n    }\n\n    function holder(uint256 _id) external view returns (address) {\n        // SHOWS OWNER OF TOKEN BY TID\n        return ownedBy[_id];\n    }\n\n    function clearSloz() external returns (bool) {\n        slots = 1234;\n        return true;\n    }\n\n    function flush() external returns (uint256) {\n        // WITHDRAW ALL ETHER FROM CONTRACT\n        payable(owner).transfer(address(this).balance);\n        return address(this).balance;\n    }\n\n    function flushERC20(address _erc) external returns (uint256) {\n        // WITHDRAW ALL COIN FROM CONTRACT\n        ERC20 coin = ERC20(_erc);\n        coin.transferFrom(address(this), owner, coin.balanceOf(address(this)));\n        return coin.balanceOf(address(this));\n    }\n\n    function flushERC721(address _erc, uint256 _id) external returns (uint256) {\n        // WITHDRAW ALL NFT FROM CONTRACT\n        ERC721 coin = ERC721(_erc);\n        coin.transferFrom(address(this), owner, _id);\n        return _id;\n    }\n}\n",
  "sourcePath": "/Users/iii6/Documents/GitHub/niftish/contracts/FrootyCoolTingz.sol",
  "compiler": {
    "name": "solc",
    "version": "0.8.17+commit.8df45f5f.Emscripten.clang"
  },
  "schemaVersion": "3.4.8",
  "updatedAt": "2023-03-21T04:46:06.600Z",
  "networkType": "ethereum",
  "devdoc": {
    "kind": "dev",
    "methods": {
      "approve(address,uint256)": {
        "details": "See {IERC721-approve}."
      },
      "balanceOf(address)": {
        "details": "See {IERC721-balanceOf}."
      },
      "getApproved(uint256)": {
        "details": "See {IERC721-getApproved}."
      },
      "isApprovedForAll(address,address)": {
        "details": "See {IERC721-isApprovedForAll}."
      },
      "name()": {
        "details": "See {IERC721Metadata-name}."
      },
      "ownerOf(uint256)": {
        "details": "See {IERC721-ownerOf}."
      },
      "safeTransferFrom(address,address,uint256)": {
        "details": "See {IERC721-safeTransferFrom}."
      },
      "safeTransferFrom(address,address,uint256,bytes)": {
        "details": "See {IERC721-safeTransferFrom}."
      },
      "setApprovalForAll(address,bool)": {
        "details": "See {IERC721-setApprovalForAll}."
      },
      "supportsInterface(bytes4)": {
        "details": "See {IERC165-supportsInterface}."
      },
      "symbol()": {
        "details": "See {IERC721Metadata-symbol}."
      },
      "tokenURI(uint256)": {
        "details": "See {IERC721Metadata-tokenURI}."
      },
      "transferFrom(address,address,uint256)": {
        "details": "See {IERC721-transferFrom}."
      }
    },
    "version": 1
  },
  "userdoc": {
    "kind": "user",
    "methods": {},
    "version": 1
  }
}