{
  "contractName": "FrootyCoolTingz",
  "abi": [
    {
      "inputs": [
        {
          "internalType": "address",
          "name": "_ICE",
          "type": "address"
        },
        {
          "internalType": "address",
          "name": "_Greenlist",
          "type": "address"
        },
        {
          "internalType": "uint256",
          "name": "_t",
          "type": "uint256"
        }
      ],
      "stateMutability": "nonpayable",
      "type": "constructor"
    },
    {
      "anonymous": false,
      "inputs": [
        {
          "indexed": true,
          "internalType": "address",
          "name": "owner",
          "type": "address"
        },
        {
          "indexed": true,
          "internalType": "address",
          "name": "approved",
          "type": "address"
        },
        {
          "indexed": true,
          "internalType": "uint256",
          "name": "tokenId",
          "type": "uint256"
        }
      ],
      "name": "Approval",
      "type": "event"
    },
    {
      "anonymous": false,
      "inputs": [
        {
          "indexed": true,
          "internalType": "address",
          "name": "owner",
          "type": "address"
        },
        {
          "indexed": true,
          "internalType": "address",
          "name": "operator",
          "type": "address"
        },
        {
          "indexed": false,
          "internalType": "bool",
          "name": "approved",
          "type": "bool"
        }
      ],
      "name": "ApprovalForAll",
      "type": "event"
    },
    {
      "anonymous": false,
      "inputs": [
        {
          "indexed": true,
          "internalType": "address",
          "name": "from",
          "type": "address"
        },
        {
          "indexed": true,
          "internalType": "address",
          "name": "to",
          "type": "address"
        },
        {
          "indexed": true,
          "internalType": "uint256",
          "name": "tokenId",
          "type": "uint256"
        }
      ],
      "name": "Transfer",
      "type": "event"
    },
    {
      "inputs": [],
      "name": "GLC",
      "outputs": [
        {
          "internalType": "contract Greenlist",
          "name": "",
          "type": "address"
        }
      ],
      "stateMutability": "view",
      "type": "function",
      "constant": true
    },
    {
      "inputs": [
        {
          "internalType": "address",
          "name": "to",
          "type": "address"
        },
        {
          "internalType": "uint256",
          "name": "tokenId",
          "type": "uint256"
        }
      ],
      "name": "approve",
      "outputs": [],
      "stateMutability": "nonpayable",
      "type": "function"
    },
    {
      "inputs": [
        {
          "internalType": "address",
          "name": "owner",
          "type": "address"
        }
      ],
      "name": "balanceOf",
      "outputs": [
        {
          "internalType": "uint256",
          "name": "",
          "type": "uint256"
        }
      ],
      "stateMutability": "view",
      "type": "function",
      "constant": true
    },
    {
      "inputs": [
        {
          "internalType": "uint256",
          "name": "",
          "type": "uint256"
        }
      ],
      "name": "dias",
      "outputs": [
        {
          "internalType": "bytes",
          "name": "",
          "type": "bytes"
        }
      ],
      "stateMutability": "view",
      "type": "function",
      "constant": true
    },
    {
      "inputs": [
        {
          "internalType": "uint256",
          "name": "tokenId",
          "type": "uint256"
        }
      ],
      "name": "getApproved",
      "outputs": [
        {
          "internalType": "address",
          "name": "",
          "type": "address"
        }
      ],
      "stateMutability": "view",
      "type": "function",
      "constant": true
    },
    {
      "inputs": [],
      "name": "ice",
      "outputs": [
        {
          "internalType": "contract ICE",
          "name": "",
          "type": "address"
        }
      ],
      "stateMutability": "view",
      "type": "function",
      "constant": true
    },
    {
      "inputs": [
        {
          "internalType": "address",
          "name": "owner",
          "type": "address"
        },
        {
          "internalType": "address",
          "name": "operator",
          "type": "address"
        }
      ],
      "name": "isApprovedForAll",
      "outputs": [
        {
          "internalType": "bool",
          "name": "",
          "type": "bool"
        }
      ],
      "stateMutability": "view",
      "type": "function",
      "constant": true
    },
    {
      "inputs": [],
      "name": "max",
      "outputs": [
        {
          "internalType": "uint256",
          "name": "",
          "type": "uint256"
        }
      ],
      "stateMutability": "view",
      "type": "function",
      "constant": true
    },
    {
      "inputs": [],
      "name": "minted",
      "outputs": [
        {
          "internalType": "uint256",
          "name": "",
          "type": "uint256"
        }
      ],
      "stateMutability": "view",
      "type": "function",
      "constant": true
    },
    {
      "inputs": [],
      "name": "nam",
      "outputs": [
        {
          "internalType": "string",
          "name": "",
          "type": "string"
        }
      ],
      "stateMutability": "view",
      "type": "function",
      "constant": true
    },
    {
      "inputs": [],
      "name": "name",
      "outputs": [
        {
          "internalType": "string",
          "name": "",
          "type": "string"
        }
      ],
      "stateMutability": "view",
      "type": "function",
      "constant": true
    },
    {
      "inputs": [],
      "name": "num",
      "outputs": [
        {
          "internalType": "uint256",
          "name": "",
          "type": "uint256"
        }
      ],
      "stateMutability": "view",
      "type": "function",
      "constant": true
    },
    {
      "inputs": [
        {
          "internalType": "uint256",
          "name": "",
          "type": "uint256"
        }
      ],
      "name": "ownedBy",
      "outputs": [
        {
          "internalType": "address",
          "name": "",
          "type": "address"
        }
      ],
      "stateMutability": "view",
      "type": "function",
      "constant": true
    },
    {
      "inputs": [],
      "name": "owner",
      "outputs": [
        {
          "internalType": "address",
          "name": "",
          "type": "address"
        }
      ],
      "stateMutability": "view",
      "type": "function",
      "constant": true
    },
    {
      "inputs": [
        {
          "internalType": "uint256",
          "name": "tokenId",
          "type": "uint256"
        }
      ],
      "name": "ownerOf",
      "outputs": [
        {
          "internalType": "address",
          "name": "",
          "type": "address"
        }
      ],
      "stateMutability": "view",
      "type": "function",
      "constant": true
    },
    {
      "inputs": [],
      "name": "price",
      "outputs": [
        {
          "internalType": "uint256",
          "name": "",
          "type": "uint256"
        }
      ],
      "stateMutability": "view",
      "type": "function",
      "constant": true
    },
    {
      "inputs": [
        {
          "internalType": "address",
          "name": "from",
          "type": "address"
        },
        {
          "internalType": "address",
          "name": "to",
          "type": "address"
        },
        {
          "internalType": "uint256",
          "name": "tokenId",
          "type": "uint256"
        }
      ],
      "name": "safeTransferFrom",
      "outputs": [],
      "stateMutability": "nonpayable",
      "type": "function"
    },
    {
      "inputs": [
        {
          "internalType": "address",
          "name": "from",
          "type": "address"
        },
        {
          "internalType": "address",
          "name": "to",
          "type": "address"
        },
        {
          "internalType": "uint256",
          "name": "tokenId",
          "type": "uint256"
        },
        {
          "internalType": "bytes",
          "name": "_data",
          "type": "bytes"
        }
      ],
      "name": "safeTransferFrom",
      "outputs": [],
      "stateMutability": "nonpayable",
      "type": "function"
    },
    {
      "inputs": [
        {
          "internalType": "address",
          "name": "operator",
          "type": "address"
        },
        {
          "internalType": "bool",
          "name": "approved",
          "type": "bool"
        }
      ],
      "name": "setApprovalForAll",
      "outputs": [],
      "stateMutability": "nonpayable",
      "type": "function"
    },
    {
      "inputs": [],
      "name": "slots",
      "outputs": [
        {
          "internalType": "uint256",
          "name": "",
          "type": "uint256"
        }
      ],
      "stateMutability": "view",
      "type": "function",
      "constant": true
    },
    {
      "inputs": [],
      "name": "sloz",
      "outputs": [
        {
          "internalType": "uint256",
          "name": "",
          "type": "uint256"
        }
      ],
      "stateMutability": "view",
      "type": "function",
      "constant": true
    },
    {
      "inputs": [],
      "name": "start",
      "outputs": [
        {
          "internalType": "bool",
          "name": "",
          "type": "bool"
        }
      ],
      "stateMutability": "view",
      "type": "function",
      "constant": true
    },
    {
      "inputs": [
        {
          "internalType": "uint256",
          "name": "",
          "type": "uint256"
        }
      ],
      "name": "status",
      "outputs": [
        {
          "internalType": "string",
          "name": "",
          "type": "string"
        }
      ],
      "stateMutability": "view",
      "type": "function",
      "constant": true
    },
    {
      "inputs": [
        {
          "internalType": "bytes4",
          "name": "interfaceId",
          "type": "bytes4"
        }
      ],
      "name": "supportsInterface",
      "outputs": [
        {
          "internalType": "bool",
          "name": "",
          "type": "bool"
        }
      ],
      "stateMutability": "view",
      "type": "function",
      "constant": true
    },
    {
      "inputs": [],
      "name": "sym",
      "outputs": [
        {
          "internalType": "string",
          "name": "",
          "type": "string"
        }
      ],
      "stateMutability": "view",
      "type": "function",
      "constant": true
    },
    {
      "inputs": [],
      "name": "symbol",
      "outputs": [
        {
          "internalType": "string",
          "name": "",
          "type": "string"
        }
      ],
      "stateMutability": "view",
      "type": "function",
      "constant": true
    },
    {
      "inputs": [
        {
          "internalType": "uint256",
          "name": "",
          "type": "uint256"
        }
      ],
      "name": "tid",
      "outputs": [
        {
          "internalType": "uint256",
          "name": "",
          "type": "uint256"
        }
      ],
      "stateMutability": "view",
      "type": "function",
      "constant": true
    },
    {
      "inputs": [
        {
          "internalType": "uint256",
          "name": "tokenId",
          "type": "uint256"
        }
      ],
      "name": "tokenURI",
      "outputs": [
        {
          "internalType": "string",
          "name": "",
          "type": "string"
        }
      ],
      "stateMutability": "view",
      "type": "function",
      "constant": true
    },
    {
      "inputs": [
        {
          "internalType": "address",
          "name": "from",
          "type": "address"
        },
        {
          "internalType": "address",
          "name": "to",
          "type": "address"
        },
        {
          "internalType": "uint256",
          "name": "tokenId",
          "type": "uint256"
        }
      ],
      "name": "transferFrom",
      "outputs": [],
      "stateMutability": "nonpayable",
      "type": "function"
    },
    {
      "inputs": [
        {
          "internalType": "address",
          "name": "_adr",
          "type": "address"
        }
      ],
      "name": "isOwner",
      "outputs": [
        {
          "internalType": "bool",
          "name": "",
          "type": "bool"
        }
      ],
      "stateMutability": "view",
      "type": "function",
      "constant": true
    },
    {
      "inputs": [
        {
          "internalType": "uint256",
          "name": "_amnt",
          "type": "uint256"
        },
        {
          "internalType": "uint256[]",
          "name": "_diasIDs",
          "type": "uint256[]"
        },
        {
          "internalType": "string[]",
          "name": "_diasOBJs",
          "type": "string[]"
        }
      ],
      "name": "mint",
      "outputs": [
        {
          "internalType": "uint256",
          "name": "",
          "type": "uint256"
        }
      ],
      "stateMutability": "payable",
      "type": "function",
      "payable": true
    },
    {
      "inputs": [
        {
          "internalType": "uint256[]",
          "name": "_diasIDs",
          "type": "uint256[]"
        },
        {
          "internalType": "string[]",
          "name": "_diasOBJs",
          "type": "string[]"
        }
      ],
      "name": "greenMint",
      "outputs": [
        {
          "internalType": "uint256",
          "name": "",
          "type": "uint256"
        }
      ],
      "stateMutability": "nonpayable",
      "type": "function"
    },
    {
      "inputs": [
        {
          "internalType": "uint256",
          "name": "_id",
          "type": "uint256"
        },
        {
          "internalType": "string",
          "name": "_status",
          "type": "string"
        }
      ],
      "name": "setStatus",
      "outputs": [
        {
          "internalType": "bool",
          "name": "",
          "type": "bool"
        }
      ],
      "stateMutability": "payable",
      "type": "function",
      "payable": true
    },
    {
      "inputs": [],
      "name": "changeMintState",
      "outputs": [
        {
          "internalType": "bool",
          "name": "",
          "type": "bool"
        }
      ],
      "stateMutability": "nonpayable",
      "type": "function"
    },
    {
      "inputs": [],
      "name": "changeMS",
      "outputs": [
        {
          "internalType": "bool",
          "name": "",
          "type": "bool"
        }
      ],
      "stateMutability": "nonpayable",
      "type": "function"
    },
    {
      "inputs": [
        {
          "internalType": "uint256",
          "name": "_id",
          "type": "uint256"
        }
      ],
      "name": "holder",
      "outputs": [
        {
          "internalType": "address",
          "name": "",
          "type": "address"
        }
      ],
      "stateMutability": "view",
      "type": "function",
      "constant": true
    },
    {
      "inputs": [],
      "name": "clearSloz",
      "outputs": [
        {
          "internalType": "bool",
          "name": "",
          "type": "bool"
        }
      ],
      "stateMutability": "nonpayable",
      "type": "function"
    },
    {
      "inputs": [],
      "name": "flush",
      "outputs": [
        {
          "internalType": "uint256",
          "name": "",
          "type": "uint256"
        }
      ],
      "stateMutability": "nonpayable",
      "type": "function"
    },
    {
      "inputs": [
        {
          "internalType": "address",
          "name": "_erc",
          "type": "address"
        }
      ],
      "name": "flushERC20",
      "outputs": [
        {
          "internalType": "uint256",
          "name": "",
          "type": "uint256"
        }
      ],
      "stateMutability": "nonpayable",
      "type": "function"
    },
    {
      "inputs": [
        {
          "internalType": "address",
          "name": "_erc",
          "type": "address"
        },
        {
          "internalType": "uint256",
          "name": "_id",
          "type": "uint256"
        }
      ],
      "name": "flushERC721",
      "outputs": [
        {
          "internalType": "uint256",
          "name": "",
          "type": "uint256"
        }
      ],
      "stateMutability": "nonpayable",
      "type": "function"
    }
  ],
  "bytecode": "0x60806040523480156200001157600080fd5b50604051620054413803806200544183398181016040528101906200003791906200032b565b6040518060400160405280601181526020017f46726f6f747920436f6f6c2054696e677a0000000000000000000000000000008152506040518060400160405280600581526020017f46524f4f540000000000000000000000000000000000000000000000000000008152508160009081620000b49190620005f7565b508060019081620000c69190620005f7565b5050506001600b819055506000600e8190555033600960006101000a81548173ffffffffffffffffffffffffffffffffffffffff021916908373ffffffffffffffffffffffffffffffffffffffff1602179055506040518060400160405280601181526020017f46726f6f747920436f6f6c2054696e677a000000000000000000000000000000815250600c9081620001609190620005f7565b506040518060400160405280600581526020017f46524f4f54000000000000000000000000000000000000000000000000000000815250600d9081620001a79190620005f7565b5082601560006101000a81548173ffffffffffffffffffffffffffffffffffffffff021916908373ffffffffffffffffffffffffffffffffffffffff16021790555081601660006101000a81548173ffffffffffffffffffffffffffffffffffffffff021916908373ffffffffffffffffffffffffffffffffffffffff1602179055506000810362000252576005600781905550600160088190555066b1a2bc2ec500006006819055505b600181036200027d576115b36007819055506104d2600881905550674563918244f400006006819055505b505050620006de565b600080fd5b600073ffffffffffffffffffffffffffffffffffffffff82169050919050565b6000620002b8826200028b565b9050919050565b620002ca81620002ab565b8114620002d657600080fd5b50565b600081519050620002ea81620002bf565b92915050565b6000819050919050565b6200030581620002f0565b81146200031157600080fd5b50565b6000815190506200032581620002fa565b92915050565b60008060006060848603121562000347576200034662000286565b5b60006200035786828701620002d9565b93505060206200036a86828701620002d9565b92505060406200037d8682870162000314565b9150509250925092565b600081519050919050565b7f4e487b7100000000000000000000000000000000000000000000000000000000600052604160045260246000fd5b7f4e487b7100000000000000000000000000000000000000000000000000000000600052602260045260246000fd5b600060028204905060018216806200040957607f821691505b6020821081036200041f576200041e620003c1565b5b50919050565b60008190508160005260206000209050919050565b60006020601f8301049050919050565b600082821b905092915050565b600060088302620004897fffffffffffffffffffffffffffffffffffffffffffffffffffffffffffffffff826200044a565b6200049586836200044a565b95508019841693508086168417925050509392505050565b6000819050919050565b6000620004d8620004d2620004cc84620002f0565b620004ad565b620002f0565b9050919050565b6000819050919050565b620004f483620004b7565b6200050c6200050382620004df565b84845462000457565b825550505050565b600090565b6200052362000514565b62000530818484620004e9565b505050565b5b8181101562000558576200054c60008262000519565b60018101905062000536565b5050565b601f821115620005a757620005718162000425565b6200057c846200043a565b810160208510156200058c578190505b620005a46200059b856200043a565b83018262000535565b50505b505050565b600082821c905092915050565b6000620005cc60001984600802620005ac565b1980831691505092915050565b6000620005e78383620005b9565b9150826002028217905092915050565b620006028262000387565b67ffffffffffffffff8111156200061e576200061d62000392565b5b6200062a8254620003f0565b620006378282856200055c565b600060209050601f8311600181146200066f57600084156200065a578287015190505b620006668582620005d9565b865550620006d6565b601f1984166200067f8662000425565b60005b82811015620006a95784890151825560018201915060208501945060208101905062000682565b86831015620006c95784890151620006c5601f891682620005b9565b8355505b6001600288020188555050505b505050505050565b614d5380620006ee6000396000f3fe60806040526004361061023b5760003560e01c806370a082311161012e578063a613e0e7116100ab578063ba899a2e1161006f578063ba899a2e146108f9578063be9a655514610936578063c87b56dd14610961578063e985e9c51461099e578063ea25b61d146109db5761023b565b8063a613e0e714610800578063a9700e1f1461083d578063ae943abc14610868578063b524fd6f146108a5578063b88d4fde146108d05761023b565b806395d89b41116100f257806395d89b41146107195780639af9bec0146107445780639b4f589f1461076f578063a035b1fe146107ac578063a22cb465146107d75761023b565b806370a082311461061957806376917df9146106565780637d23b33c1461068657806383813a28146106c35780638da5cb5b146106ee5761023b565b806342d21ef7116101bc5780634f02c420116101805780634f02c420146105305780636352211e1461055b5780636ac5db19146105985780636b9f96ea146105c35780636f743acd146105ee5761023b565b806342d21ef714610435578063477523c21461047257806348547d69146104af5780634c2a860d146104da5780634e70b1dc146105055761023b565b8063216d534c11610203578063216d534c1461033e57806323b872dd1461037b5780632f54bf6e146103a45780633b8d676f146103e157806342842e0e1461040c5761023b565b806301ffc9a71461024057806306fdde031461027d578063081812fc146102a8578063095ea7b3146102e557806320a7270d1461030e575b600080fd5b34801561024c57600080fd5b5061026760048036038101906102629190612ff2565b610a06565b604051610274919061303a565b60405180910390f35b34801561028957600080fd5b50610292610ae8565b60405161029f91906130e5565b60405180910390f35b3480156102b457600080fd5b506102cf60048036038101906102ca919061313d565b610b7a565b6040516102dc91906131ab565b60405180910390f35b3480156102f157600080fd5b5061030c600480360381019061030791906131f2565b610bff565b005b61032860048036038101906103239190613510565b610d16565b60405161033591906135aa565b60405180910390f35b34801561034a57600080fd5b50610365600480360381019061036091906131f2565b610f06565b60405161037291906135aa565b60405180910390f35b34801561038757600080fd5b506103a2600480360381019061039d91906135c5565b610fa7565b005b3480156103b057600080fd5b506103cb60048036038101906103c69190613618565b611007565b6040516103d8919061303a565b60405180910390f35b3480156103ed57600080fd5b506103f6611071565b604051610403919061303a565b60405180910390f35b34801561041857600080fd5b50610433600480360381019061042e91906135c5565b611080565b005b34801561044157600080fd5b5061045c6004803603810190610457919061313d565b6110a0565b60405161046991906130e5565b60405180910390f35b34801561047e57600080fd5b5061049960048036038101906104949190613618565b611140565b6040516104a691906135aa565b60405180910390f35b3480156104bb57600080fd5b506104c46112e4565b6040516104d191906135aa565b60405180910390f35b3480156104e657600080fd5b506104ef6112ea565b6040516104fc91906136a4565b60405180910390f35b34801561051157600080fd5b5061051a611310565b60405161052791906135aa565b60405180910390f35b34801561053c57600080fd5b50610545611315565b60405161055291906135aa565b60405180910390f35b34801561056757600080fd5b50610582600480360381019061057d919061313d565b61131b565b60405161058f91906131ab565b60405180910390f35b3480156105a457600080fd5b506105ad6113cc565b6040516105ba91906135aa565b60405180910390f35b3480156105cf57600080fd5b506105d86113d2565b6040516105e591906135aa565b60405180910390f35b3480156105fa57600080fd5b50610603611443565b60405161061091906135aa565b60405180910390f35b34801561062557600080fd5b50610640600480360381019061063b9190613618565b611449565b60405161064d91906135aa565b60405180910390f35b610670600480360381019061066b91906136bf565b611500565b60405161067d919061303a565b60405180910390f35b34801561069257600080fd5b506106ad60048036038101906106a8919061371b565b6117a3565b6040516106ba91906135aa565b60405180910390f35b3480156106cf57600080fd5b506106d8611b0b565b6040516106e591906130e5565b60405180910390f35b3480156106fa57600080fd5b50610703611b99565b60405161071091906131ab565b60405180910390f35b34801561072557600080fd5b5061072e611bbf565b60405161073b91906130e5565b60405180910390f35b34801561075057600080fd5b50610759611c51565b60405161076691906130e5565b60405180910390f35b34801561077b57600080fd5b506107966004803603810190610791919061313d565b611cdf565b6040516107a391906137e8565b60405180910390f35b3480156107b857600080fd5b506107c1611d7f565b6040516107ce91906135aa565b60405180910390f35b3480156107e357600080fd5b506107fe60048036038101906107f99190613836565b611d85565b005b34801561080c57600080fd5b506108276004803603810190610822919061313d565b611d9b565b60405161083491906131ab565b60405180910390f35b34801561084957600080fd5b50610852611dce565b60405161085f9190613897565b60405180910390f35b34801561087457600080fd5b5061088f600480360381019061088a919061313d565b611df4565b60405161089c91906135aa565b60405180910390f35b3480156108b157600080fd5b506108ba611e0c565b6040516108c7919061303a565b60405180910390f35b3480156108dc57600080fd5b506108f760048036038101906108f29190613953565b611e75565b005b34801561090557600080fd5b50610920600480360381019061091b919061313d565b611ed7565b60405161092d91906131ab565b60405180910390f35b34801561094257600080fd5b5061094b611ee9565b604051610958919061303a565b60405180910390f35b34801561096d57600080fd5b506109886004803603810190610983919061313d565b611efc565b60405161099591906130e5565b60405180910390f35b3480156109aa57600080fd5b506109c560048036038101906109c091906139d6565b611fa3565b6040516109d2919061303a565b60405180910390f35b3480156109e757600080fd5b506109f0612037565b6040516109fd919061303a565b60405180910390f35b60007f80ac58cd000000000000000000000000000000000000000000000000000000007bffffffffffffffffffffffffffffffffffffffffffffffffffffffff1916827bffffffffffffffffffffffffffffffffffffffffffffffffffffffff19161480610ad157507f5b5e139f000000000000000000000000000000000000000000000000000000007bffffffffffffffffffffffffffffffffffffffffffffffffffffffff1916827bffffffffffffffffffffffffffffffffffffffffffffffffffffffff1916145b80610ae15750610ae082612049565b5b9050919050565b606060008054610af790613a45565b80601f0160208091040260200160405190810160405280929190818152602001828054610b2390613a45565b8015610b705780601f10610b4557610100808354040283529160200191610b70565b820191906000526020600020905b815481529060010190602001808311610b5357829003601f168201915b5050505050905090565b6000610b85826120b3565b610bc4576040517f08c379a0000000000000000000000000000000000000000000000000000000008152600401610bbb90613ae8565b60405180910390fd5b6004600083815260200190815260200160002060009054906101000a900473ffffffffffffffffffffffffffffffffffffffff169050919050565b6000610c0a8261131b565b90508073ffffffffffffffffffffffffffffffffffffffff168373ffffffffffffffffffffffffffffffffffffffff1603610c7a576040517f08c379a0000000000000000000000000000000000000000000000000000000008152600401610c7190613b7a565b60405180910390fd5b8073ffffffffffffffffffffffffffffffffffffffff16610c9961211f565b73ffffffffffffffffffffffffffffffffffffffff161480610cc85750610cc781610cc261211f565b611fa3565b5b610d07576040517f08c379a0000000000000000000000000000000000000000000000000000000008152600401610cfe90613c0c565b60405180910390fd5b610d118383612127565b505050565b6000600e54600854610d289190613c5b565b600754610d359190613c5b565b600b5410610d78576040517f08c379a0000000000000000000000000000000000000000000000000000000008152600401610d6f90613cdb565b60405180910390fd5b60065484610d869190613cfb565b341015610dc8576040517f08c379a0000000000000000000000000000000000000000000000000000000008152600401610dbf90613d89565b60405180910390fd5b60011515600f60009054906101000a900460ff16151514610e1e576040517f08c379a0000000000000000000000000000000000000000000000000000000008152600401610e1590613df5565b60405180910390fd5b610e2a843385856121e0565b506000600942610e3a9190613e44565b905060005b818111610ef857601560009054906101000a900473ffffffffffffffffffffffffffffffffffffffff1673ffffffffffffffffffffffffffffffffffffffff1663fdb5fefc336040518263ffffffff1660e01b8152600401610ea191906131ab565b6020604051808303816000875af1158015610ec0573d6000803e3d6000fd5b505050506040513d601f19601f82011682018060405250810190610ee49190613e8a565b508080610ef090613eb7565b915050610e3f565b50600b549150509392505050565b6000808390508073ffffffffffffffffffffffffffffffffffffffff166323b872dd30600960009054906101000a900473ffffffffffffffffffffffffffffffffffffffff16866040518463ffffffff1660e01b8152600401610f6b93929190613eff565b600060405180830381600087803b158015610f8557600080fd5b505af1158015610f99573d6000803e3d6000fd5b505050508291505092915050565b610fb8610fb261211f565b8261249c565b610ff7576040517f08c379a0000000000000000000000000000000000000000000000000000000008152600401610fee90613fa8565b60405180910390fd5b61100283838361257a565b505050565b6000600960009054906101000a900473ffffffffffffffffffffffffffffffffffffffff1673ffffffffffffffffffffffffffffffffffffffff168273ffffffffffffffffffffffffffffffffffffffff1603611067576001905061106c565b600090505b919050565b600061107b6127d5565b905090565b61109b83838360405180602001604052806000815250611e75565b505050565b601260205280600052604060002060009150905080546110bf90613a45565b80601f01602080910402602001604051908101604052809291908181526020018280546110eb90613a45565b80156111385780601f1061110d57610100808354040283529160200191611138565b820191906000526020600020905b81548152906001019060200180831161111b57829003601f168201915b505050505081565b6000808290508073ffffffffffffffffffffffffffffffffffffffff166323b872dd30600960009054906101000a900473ffffffffffffffffffffffffffffffffffffffff168473ffffffffffffffffffffffffffffffffffffffff166370a08231306040518263ffffffff1660e01b81526004016111bf91906131ab565b602060405180830381865afa1580156111dc573d6000803e3d6000fd5b505050506040513d601f19601f820116820180604052508101906112009190613fdd565b6040518463ffffffff1660e01b815260040161121e93929190613eff565b6020604051808303816000875af115801561123d573d6000803e3d6000fd5b505050506040513d601f19601f820116820180604052508101906112619190613e8a565b508073ffffffffffffffffffffffffffffffffffffffff166370a08231306040518263ffffffff1660e01b815260040161129b91906131ab565b602060405180830381865afa1580156112b8573d6000803e3d6000fd5b505050506040513d601f19601f820116820180604052508101906112dc9190613fdd565b915050919050565b600e5481565b601560009054906101000a900473ffffffffffffffffffffffffffffffffffffffff1681565b600181565b600b5481565b6000806002600084815260200190815260200160002060009054906101000a900473ffffffffffffffffffffffffffffffffffffffff169050600073ffffffffffffffffffffffffffffffffffffffff168173ffffffffffffffffffffffffffffffffffffffff16036113c3576040517f08c379a00000000000000000000000000000000000000000000000000000000081526004016113ba9061407c565b60405180910390fd5b80915050919050565b60075481565b6000600960009054906101000a900473ffffffffffffffffffffffffffffffffffffffff1673ffffffffffffffffffffffffffffffffffffffff166108fc479081150290604051600060405180830381858888f1935050505015801561143c573d6000803e3d6000fd5b5047905090565b60085481565b60008073ffffffffffffffffffffffffffffffffffffffff168273ffffffffffffffffffffffffffffffffffffffff16036114b9576040517f08c379a00000000000000000000000000000000000000000000000000000000081526004016114b09061410e565b60405180910390fd5b600360008373ffffffffffffffffffffffffffffffffffffffff1673ffffffffffffffffffffffffffffffffffffffff168152602001908152602001600020549050919050565b60003373ffffffffffffffffffffffffffffffffffffffff166013600085815260200190815260200160002060009054906101000a900473ffffffffffffffffffffffffffffffffffffffff1673ffffffffffffffffffffffffffffffffffffffff16146115a3576040517f08c379a000000000000000000000000000000000000000000000000000000000815260040161159a9061417a565b60405180910390fd5b60001515600f60009054906101000a900460ff161515146115f9576040517f08c379a00000000000000000000000000000000000000000000000000000000081526004016115f0906141e6565b60405180910390fd5b670de0b6b3a764000034101561160e57600080fd5b601560009054906101000a900473ffffffffffffffffffffffffffffffffffffffff1673ffffffffffffffffffffffffffffffffffffffff1663fdb5fefc336040518263ffffffff1660e01b815260040161166991906131ab565b6020604051808303816000875af1158015611688573d6000803e3d6000fd5b505050506040513d601f19601f820116820180604052508101906116ac9190613e8a565b5060006009426116bc9190613e44565b14806116d35750600980426116d19190613e44565b145b1561177857601560009054906101000a900473ffffffffffffffffffffffffffffffffffffffff1673ffffffffffffffffffffffffffffffffffffffff1663fdb5fefc336040518263ffffffff1660e01b815260040161173391906131ab565b6020604051808303816000875af1158015611752573d6000803e3d6000fd5b505050506040513d601f19601f820116820180604052508101906117769190613e8a565b505b8160126000858152602001908152602001600020908161179891906143a8565b506001905092915050565b6000600754600b54106117eb576040517f08c379a00000000000000000000000000000000000000000000000000000000081526004016117e290613cdb565b60405180910390fd5b60011515600f60009054906101000a900460ff16151514611841576040517f08c379a000000000000000000000000000000000000000000000000000000000815260040161183890613df5565b60405180910390fd5b6000601660009054906101000a900473ffffffffffffffffffffffffffffffffffffffff1673ffffffffffffffffffffffffffffffffffffffff1663f794062e336040518263ffffffff1660e01b815260040161189e91906131ab565b602060405180830381865afa1580156118bb573d6000803e3d6000fd5b505050506040513d601f19601f820116820180604052508101906118df9190613e8a565b90506001151581151514611928576040517f08c379a000000000000000000000000000000000000000000000000000000000815260040161191f906144c6565b60405180910390fd5b600854600e54111561196f576040517f08c379a000000000000000000000000000000000000000000000000000000000815260040161196690614532565b60405180910390fd5b61197c60013386866121e0565b50601560009054906101000a900473ffffffffffffffffffffffffffffffffffffffff1673ffffffffffffffffffffffffffffffffffffffff1663fdb5fefc336040518263ffffffff1660e01b81526004016119d891906131ab565b6020604051808303816000875af11580156119f7573d6000803e3d6000fd5b505050506040513d601f19601f82011682018060405250810190611a1b9190613e8a565b506000600942611a2b9190613e44565b1480611a42575060098042611a409190613e44565b145b15611ae757601560009054906101000a900473ffffffffffffffffffffffffffffffffffffffff1673ffffffffffffffffffffffffffffffffffffffff1663fdb5fefc336040518263ffffffff1660e01b8152600401611aa291906131ab565b6020604051808303816000875af1158015611ac1573d6000803e3d6000fd5b505050506040513d601f19601f82011682018060405250810190611ae59190613e8a565b505b600e6000815480929190611afa90613eb7565b9190505550600b5491505092915050565b600d8054611b1890613a45565b80601f0160208091040260200160405190810160405280929190818152602001828054611b4490613a45565b8015611b915780601f10611b6657610100808354040283529160200191611b91565b820191906000526020600020905b815481529060010190602001808311611b7457829003601f168201915b505050505081565b600960009054906101000a900473ffffffffffffffffffffffffffffffffffffffff1681565b606060018054611bce90613a45565b80601f0160208091040260200160405190810160405280929190818152602001828054611bfa90613a45565b8015611c475780601f10611c1c57610100808354040283529160200191611c47565b820191906000526020600020905b815481529060010190602001808311611c2a57829003601f168201915b5050505050905090565b600c8054611c5e90613a45565b80601f0160208091040260200160405190810160405280929190818152602001828054611c8a90613a45565b8015611cd75780601f10611cac57610100808354040283529160200191611cd7565b820191906000526020600020905b815481529060010190602001808311611cba57829003601f168201915b505050505081565b60106020528060005260406000206000915090508054611cfe90613a45565b80601f0160208091040260200160405190810160405280929190818152602001828054611d2a90613a45565b8015611d775780601f10611d4c57610100808354040283529160200191611d77565b820191906000526020600020905b815481529060010190602001808311611d5a57829003601f168201915b505050505081565b60065481565b611d97611d9061211f565b8383612805565b5050565b60136020528060005260406000206000915054906101000a900473ffffffffffffffffffffffffffffffffffffffff1681565b601660009054906101000a900473ffffffffffffffffffffffffffffffffffffffff1681565b60116020528060005260406000206000915090505481565b6000600960009054906101000a900473ffffffffffffffffffffffffffffffffffffffff1673ffffffffffffffffffffffffffffffffffffffff163373ffffffffffffffffffffffffffffffffffffffff1614611e6857600080fd5b611e706127d5565b905090565b611e86611e8061211f565b8361249c565b611ec5576040517f08c379a0000000000000000000000000000000000000000000000000000000008152600401611ebc90613fa8565b60405180910390fd5b611ed184848484612971565b50505050565b6000611ee28261131b565b9050919050565b600f60009054906101000a900460ff1681565b6060611f07826120b3565b611f46576040517f08c379a0000000000000000000000000000000000000000000000000000000008152600401611f3d906145c4565b60405180910390fd5b6000611f506129cd565b90506000815111611f705760405180602001604052806000815250611f9b565b80611f7a846129e4565b604051602001611f8b929190614620565b6040516020818303038152906040525b915050919050565b6000600560008473ffffffffffffffffffffffffffffffffffffffff1673ffffffffffffffffffffffffffffffffffffffff16815260200190815260200160002060008373ffffffffffffffffffffffffffffffffffffffff1673ffffffffffffffffffffffffffffffffffffffff16815260200190815260200160002060009054906101000a900460ff16905092915050565b60006104d2600e819055506001905090565b60007f01ffc9a7000000000000000000000000000000000000000000000000000000007bffffffffffffffffffffffffffffffffffffffffffffffffffffffff1916827bffffffffffffffffffffffffffffffffffffffffffffffffffffffff1916149050919050565b60008073ffffffffffffffffffffffffffffffffffffffff166002600084815260200190815260200160002060009054906101000a900473ffffffffffffffffffffffffffffffffffffffff1673ffffffffffffffffffffffffffffffffffffffff1614159050919050565b600033905090565b816004600083815260200190815260200160002060006101000a81548173ffffffffffffffffffffffffffffffffffffffff021916908373ffffffffffffffffffffffffffffffffffffffff160217905550808273ffffffffffffffffffffffffffffffffffffffff1661219a8361131b565b73ffffffffffffffffffffffffffffffffffffffff167f8c5be1e5ebec7d5bd14f71427d1e84f3dd0314c0f7b2291e5b200ac8c7c3b92560405160405180910390a45050565b60006001856121ee86611449565b6121f89190614644565b1115612239576040517f08c379a0000000000000000000000000000000000000000000000000000000008152600401612230906146ea565b60405180910390fd5b60075485600b5461224a9190614644565b111561228b576040517f08c379a000000000000000000000000000000000000000000000000000000000815260040161228290614756565b60405180910390fd5b6122cc84846000815181106122a3576122a2614776565b5b6020026020010151846000815181106122bf576122be614776565b5b6020026020010151612b44565b506002851061248f5761231684846000815181106122ed576122ec614776565b5b60200260200101518460008151811061230957612308614776565b5b6020026020010151612b44565b506003851061248e57612360848460008151811061233757612336614776565b5b60200260200101518460008151811061235357612352614776565b5b6020026020010151612b44565b506004851061248d576123aa848460008151811061238157612380614776565b5b60200260200101518460008151811061239d5761239c614776565b5b6020026020010151612b44565b506005851061248c576123f484846000815181106123cb576123ca614776565b5b6020026020010151846000815181106123e7576123e6614776565b5b6020026020010151612b44565b506006851061248b5761243e848460008151811061241557612414614776565b5b60200260200101518460008151811061243157612430614776565b5b6020026020010151612b44565b506007851061248a57612488848460008151811061245f5761245e614776565b5b60200260200101518460008151811061247b5761247a614776565b5b6020026020010151612b44565b505b5b5b5b5b5b600b549050949350505050565b60006124a7826120b3565b6124e6576040517f08c379a00000000000000000000000000000000000000000000000000000000081526004016124dd90614817565b60405180910390fd5b60006124f18361131b565b90508073ffffffffffffffffffffffffffffffffffffffff168473ffffffffffffffffffffffffffffffffffffffff16148061256057508373ffffffffffffffffffffffffffffffffffffffff1661254884610b7a565b73ffffffffffffffffffffffffffffffffffffffff16145b8061257157506125708185611fa3565b5b91505092915050565b8273ffffffffffffffffffffffffffffffffffffffff1661259a8261131b565b73ffffffffffffffffffffffffffffffffffffffff16146125f0576040517f08c379a00000000000000000000000000000000000000000000000000000000081526004016125e7906148a9565b60405180910390fd5b600073ffffffffffffffffffffffffffffffffffffffff168273ffffffffffffffffffffffffffffffffffffffff160361265f576040517f08c379a00000000000000000000000000000000000000000000000000000000081526004016126569061493b565b60405180910390fd5b61266a838383612c1a565b612675600082612127565b6001600360008573ffffffffffffffffffffffffffffffffffffffff1673ffffffffffffffffffffffffffffffffffffffff16815260200190815260200160002060008282546126c59190613c5b565b925050819055506001600360008473ffffffffffffffffffffffffffffffffffffffff1673ffffffffffffffffffffffffffffffffffffffff168152602001908152602001600020600082825461271c9190614644565b92505081905550816002600083815260200190815260200160002060006101000a81548173ffffffffffffffffffffffffffffffffffffffff021916908373ffffffffffffffffffffffffffffffffffffffff160217905550808273ffffffffffffffffffffffffffffffffffffffff168473ffffffffffffffffffffffffffffffffffffffff167fddf252ad1be2c89b69c2b068fc378daa952ba7f163c4a11628f55a4df523b3ef60405160405180910390a4505050565b6000600f60009054906101000a900460ff1615600f60006101000a81548160ff0219169083151502179055905090565b8173ffffffffffffffffffffffffffffffffffffffff168373ffffffffffffffffffffffffffffffffffffffff1603612873576040517f08c379a000000000000000000000000000000000000000000000000000000000815260040161286a906149a7565b60405180910390fd5b80600560008573ffffffffffffffffffffffffffffffffffffffff1673ffffffffffffffffffffffffffffffffffffffff16815260200190815260200160002060008473ffffffffffffffffffffffffffffffffffffffff1673ffffffffffffffffffffffffffffffffffffffff16815260200190815260200160002060006101000a81548160ff0219169083151502179055508173ffffffffffffffffffffffffffffffffffffffff168373ffffffffffffffffffffffffffffffffffffffff167f17307eab39ab6107e8899845ad3d59bd9653f200f220920489ca2b5937696c3183604051612964919061303a565b60405180910390a3505050565b61297c84848461257a565b61298884848484612c1f565b6129c7576040517f08c379a00000000000000000000000000000000000000000000000000000000081526004016129be90614a39565b60405180910390fd5b50505050565b606060405180602001604052806000815250905090565b606060008203612a2b576040518060400160405280600181526020017f30000000000000000000000000000000000000000000000000000000000000008152509050612b3f565b600082905060005b60008214612a5d578080612a4690613eb7565b915050600a82612a569190614a59565b9150612a33565b60008167ffffffffffffffff811115612a7957612a78613237565b5b6040519080825280601f01601f191660200182016040528015612aab5781602001600182028036833780820191505090505b5090505b60008514612b3857600182612ac49190613c5b565b9150600a85612ad39190613e44565b6030612adf9190614644565b60f81b818381518110612af557612af4614776565b5b60200101907effffffffffffffffffffffffffffffffffffffffffffffffffffffffffffff1916908160001a905350600a85612b319190614a59565b9450612aaf565b8093505050505b919050565b6000612b5284600b54612da6565b8260116000600b548152602001908152602001600020819055508160106000600b5481526020019081526020016000209081612b8e9190614ae5565b50600b54601460008673ffffffffffffffffffffffffffffffffffffffff1673ffffffffffffffffffffffffffffffffffffffff16815260200190815260200160002081905550600b6000815480929190612be890613eb7565b91905055506001600754612bfc9190614644565b600b5403612c0e57612c0c6127d5565b505b600b5490509392505050565b505050565b6000612c408473ffffffffffffffffffffffffffffffffffffffff16612f73565b15612d99578373ffffffffffffffffffffffffffffffffffffffff1663150b7a02612c6961211f565b8786866040518563ffffffff1660e01b8152600401612c8b9493929190614bb7565b6020604051808303816000875af1925050508015612cc757506040513d601f19601f82011682018060405250810190612cc49190614c18565b60015b612d49573d8060008114612cf7576040519150601f19603f3d011682016040523d82523d6000602084013e612cfc565b606091505b506000815103612d41576040517f08c379a0000000000000000000000000000000000000000000000000000000008152600401612d3890614a39565b60405180910390fd5b805181602001fd5b63150b7a0260e01b7bffffffffffffffffffffffffffffffffffffffffffffffffffffffff1916817bffffffffffffffffffffffffffffffffffffffffffffffffffffffff191614915050612d9e565b600190505b949350505050565b600073ffffffffffffffffffffffffffffffffffffffff168273ffffffffffffffffffffffffffffffffffffffff1603612e15576040517f08c379a0000000000000000000000000000000000000000000000000000000008152600401612e0c90614c91565b60405180910390fd5b612e1e816120b3565b15612e5e576040517f08c379a0000000000000000000000000000000000000000000000000000000008152600401612e5590614cfd565b60405180910390fd5b612e6a60008383612c1a565b6001600360008473ffffffffffffffffffffffffffffffffffffffff1673ffffffffffffffffffffffffffffffffffffffff1681526020019081526020016000206000828254612eba9190614644565b92505081905550816002600083815260200190815260200160002060006101000a81548173ffffffffffffffffffffffffffffffffffffffff021916908373ffffffffffffffffffffffffffffffffffffffff160217905550808273ffffffffffffffffffffffffffffffffffffffff16600073ffffffffffffffffffffffffffffffffffffffff167fddf252ad1be2c89b69c2b068fc378daa952ba7f163c4a11628f55a4df523b3ef60405160405180910390a45050565b600080823b905060008111915050919050565b6000604051905090565b600080fd5b600080fd5b60007fffffffff0000000000000000000000000000000000000000000000000000000082169050919050565b612fcf81612f9a565b8114612fda57600080fd5b50565b600081359050612fec81612fc6565b92915050565b60006020828403121561300857613007612f90565b5b600061301684828501612fdd565b91505092915050565b60008115159050919050565b6130348161301f565b82525050565b600060208201905061304f600083018461302b565b92915050565b600081519050919050565b600082825260208201905092915050565b60005b8381101561308f578082015181840152602081019050613074565b60008484015250505050565b6000601f19601f8301169050919050565b60006130b782613055565b6130c18185613060565b93506130d1818560208601613071565b6130da8161309b565b840191505092915050565b600060208201905081810360008301526130ff81846130ac565b905092915050565b6000819050919050565b61311a81613107565b811461312557600080fd5b50565b60008135905061313781613111565b92915050565b60006020828403121561315357613152612f90565b5b600061316184828501613128565b91505092915050565b600073ffffffffffffffffffffffffffffffffffffffff82169050919050565b60006131958261316a565b9050919050565b6131a58161318a565b82525050565b60006020820190506131c0600083018461319c565b92915050565b6131cf8161318a565b81146131da57600080fd5b50565b6000813590506131ec816131c6565b92915050565b6000806040838503121561320957613208612f90565b5b6000613217858286016131dd565b925050602061322885828601613128565b9150509250929050565b600080fd5b7f4e487b7100000000000000000000000000000000000000000000000000000000600052604160045260246000fd5b61326f8261309b565b810181811067ffffffffffffffff8211171561328e5761328d613237565b5b80604052505050565b60006132a1612f86565b90506132ad8282613266565b919050565b600067ffffffffffffffff8211156132cd576132cc613237565b5b602082029050602081019050919050565b600080fd5b60006132f66132f1846132b2565b613297565b90508083825260208201905060208402830185811115613319576133186132de565b5b835b81811015613342578061332e8882613128565b84526020840193505060208101905061331b565b5050509392505050565b600082601f83011261336157613360613232565b5b81356133718482602086016132e3565b91505092915050565b600067ffffffffffffffff82111561339557613394613237565b5b602082029050602081019050919050565b600080fd5b600067ffffffffffffffff8211156133c6576133c5613237565b5b6133cf8261309b565b9050602081019050919050565b82818337600083830152505050565b60006133fe6133f9846133ab565b613297565b90508281526020810184848401111561341a576134196133a6565b5b6134258482856133dc565b509392505050565b600082601f83011261344257613441613232565b5b81356134528482602086016133eb565b91505092915050565b600061346e6134698461337a565b613297565b90508083825260208201905060208402830185811115613491576134906132de565b5b835b818110156134d857803567ffffffffffffffff8111156134b6576134b5613232565b5b8086016134c3898261342d565b85526020850194505050602081019050613493565b5050509392505050565b600082601f8301126134f7576134f6613232565b5b813561350784826020860161345b565b91505092915050565b60008060006060848603121561352957613528612f90565b5b600061353786828701613128565b935050602084013567ffffffffffffffff81111561355857613557612f95565b5b6135648682870161334c565b925050604084013567ffffffffffffffff81111561358557613584612f95565b5b613591868287016134e2565b9150509250925092565b6135a481613107565b82525050565b60006020820190506135bf600083018461359b565b92915050565b6000806000606084860312156135de576135dd612f90565b5b60006135ec868287016131dd565b93505060206135fd868287016131dd565b925050604061360e86828701613128565b9150509250925092565b60006020828403121561362e5761362d612f90565b5b600061363c848285016131dd565b91505092915050565b6000819050919050565b600061366a6136656136608461316a565b613645565b61316a565b9050919050565b600061367c8261364f565b9050919050565b600061368e82613671565b9050919050565b61369e81613683565b82525050565b60006020820190506136b96000830184613695565b92915050565b600080604083850312156136d6576136d5612f90565b5b60006136e485828601613128565b925050602083013567ffffffffffffffff81111561370557613704612f95565b5b6137118582860161342d565b9150509250929050565b6000806040838503121561373257613731612f90565b5b600083013567ffffffffffffffff8111156137505761374f612f95565b5b61375c8582860161334c565b925050602083013567ffffffffffffffff81111561377d5761377c612f95565b5b613789858286016134e2565b9150509250929050565b600081519050919050565b600082825260208201905092915050565b60006137ba82613793565b6137c4818561379e565b93506137d4818560208601613071565b6137dd8161309b565b840191505092915050565b6000602082019050818103600083015261380281846137af565b905092915050565b6138138161301f565b811461381e57600080fd5b50565b6000813590506138308161380a565b92915050565b6000806040838503121561384d5761384c612f90565b5b600061385b858286016131dd565b925050602061386c85828601613821565b9150509250929050565b600061388182613671565b9050919050565b61389181613876565b82525050565b60006020820190506138ac6000830184613888565b92915050565b600067ffffffffffffffff8211156138cd576138cc613237565b5b6138d68261309b565b9050602081019050919050565b60006138f66138f1846138b2565b613297565b905082815260208101848484011115613912576139116133a6565b5b61391d8482856133dc565b509392505050565b600082601f83011261393a57613939613232565b5b813561394a8482602086016138e3565b91505092915050565b6000806000806080858703121561396d5761396c612f90565b5b600061397b878288016131dd565b945050602061398c878288016131dd565b935050604061399d87828801613128565b925050606085013567ffffffffffffffff8111156139be576139bd612f95565b5b6139ca87828801613925565b91505092959194509250565b600080604083850312156139ed576139ec612f90565b5b60006139fb858286016131dd565b9250506020613a0c858286016131dd565b9150509250929050565b7f4e487b7100000000000000000000000000000000000000000000000000000000600052602260045260246000fd5b60006002820490506001821680613a5d57607f821691505b602082108103613a7057613a6f613a16565b5b50919050565b7f4552433732313a20617070726f76656420717565727920666f72206e6f6e657860008201527f697374656e7420746f6b656e0000000000000000000000000000000000000000602082015250565b6000613ad2602c83613060565b9150613add82613a76565b604082019050919050565b60006020820190508181036000830152613b0181613ac5565b9050919050565b7f4552433732313a20617070726f76616c20746f2063757272656e74206f776e6560008201527f7200000000000000000000000000000000000000000000000000000000000000602082015250565b6000613b64602183613060565b9150613b6f82613b08565b604082019050919050565b60006020820190508181036000830152613b9381613b57565b9050919050565b7f4552433732313a20617070726f76652063616c6c6572206973206e6f74206f7760008201527f6e6572206e6f7220617070726f76656420666f7220616c6c0000000000000000602082015250565b6000613bf6603883613060565b9150613c0182613b9a565b604082019050919050565b60006020820190508181036000830152613c2581613be9565b9050919050565b7f4e487b7100000000000000000000000000000000000000000000000000000000600052601160045260246000fd5b6000613c6682613107565b9150613c7183613107565b9250828203905081811115613c8957613c88613c2c565b5b92915050565b7f534f4c44204f5554000000000000000000000000000000000000000000000000600082015250565b6000613cc5600883613060565b9150613cd082613c8f565b602082019050919050565b60006020820190508181036000830152613cf481613cb8565b9050919050565b6000613d0682613107565b9150613d1183613107565b9250828202613d1f81613107565b91508282048414831517613d3657613d35613c2c565b5b5092915050565b7f494e5355464649434945542046554e4453000000000000000000000000000000600082015250565b6000613d73601183613060565b9150613d7e82613d3d565b602082019050919050565b60006020820190508181036000830152613da281613d66565b9050919050565b7f4d494e54204953204e4f5420594554204c495645000000000000000000000000600082015250565b6000613ddf601483613060565b9150613dea82613da9565b602082019050919050565b60006020820190508181036000830152613e0e81613dd2565b9050919050565b7f4e487b7100000000000000000000000000000000000000000000000000000000600052601260045260246000fd5b6000613e4f82613107565b9150613e5a83613107565b925082613e6a57613e69613e15565b5b828206905092915050565b600081519050613e848161380a565b92915050565b600060208284031215613ea057613e9f612f90565b5b6000613eae84828501613e75565b91505092915050565b6000613ec282613107565b91507fffffffffffffffffffffffffffffffffffffffffffffffffffffffffffffffff8203613ef457613ef3613c2c565b5b600182019050919050565b6000606082019050613f14600083018661319c565b613f21602083018561319c565b613f2e604083018461359b565b949350505050565b7f4552433732313a207472616e736665722063616c6c6572206973206e6f74206f60008201527f776e6572206e6f7220617070726f766564000000000000000000000000000000602082015250565b6000613f92603183613060565b9150613f9d82613f36565b604082019050919050565b60006020820190508181036000830152613fc181613f85565b9050919050565b600081519050613fd781613111565b92915050565b600060208284031215613ff357613ff2612f90565b5b600061400184828501613fc8565b91505092915050565b7f4552433732313a206f776e657220717565727920666f72206e6f6e657869737460008201527f656e7420746f6b656e0000000000000000000000000000000000000000000000602082015250565b6000614066602983613060565b91506140718261400a565b604082019050919050565b6000602082019050818103600083015261409581614059565b9050919050565b7f4552433732313a2062616c616e636520717565727920666f7220746865207a6560008201527f726f206164647265737300000000000000000000000000000000000000000000602082015250565b60006140f8602a83613060565b91506141038261409c565b604082019050919050565b60006020820190508181036000830152614127816140eb565b9050919050565b7f594f5520415245204e4f542054484520484f4c44455200000000000000000000600082015250565b6000614164601683613060565b915061416f8261412e565b602082019050919050565b6000602082019050818103600083015261419381614157565b9050919050565b7f4d494e54204953205354494c4c20494e2050524f475245535300000000000000600082015250565b60006141d0601983613060565b91506141db8261419a565b602082019050919050565b600060208201905081810360008301526141ff816141c3565b9050919050565b60008190508160005260206000209050919050565b60006020601f8301049050919050565b600082821b905092915050565b6000600883026142687fffffffffffffffffffffffffffffffffffffffffffffffffffffffffffffffff8261422b565b614272868361422b565b95508019841693508086168417925050509392505050565b60006142a56142a061429b84613107565b613645565b613107565b9050919050565b6000819050919050565b6142bf8361428a565b6142d36142cb826142ac565b848454614238565b825550505050565b600090565b6142e86142db565b6142f38184846142b6565b505050565b5b818110156143175761430c6000826142e0565b6001810190506142f9565b5050565b601f82111561435c5761432d81614206565b6143368461421b565b81016020851015614345578190505b6143596143518561421b565b8301826142f8565b50505b505050565b600082821c905092915050565b600061437f60001984600802614361565b1980831691505092915050565b6000614398838361436e565b9150826002028217905092915050565b6143b182613055565b67ffffffffffffffff8111156143ca576143c9613237565b5b6143d48254613a45565b6143df82828561431b565b600060209050601f8311600181146144125760008415614400578287015190505b61440a858261438c565b865550614472565b601f19841661442086614206565b60005b8281101561444857848901518255600182019150602085019450602081019050614423565b868310156144655784890151614461601f89168261436e565b8355505b6001600288020188555050505b505050505050565b7f594f5520415245204e4f5420475245454e4c4953544544000000000000000000600082015250565b60006144b0601783613060565b91506144bb8261447a565b602082019050919050565b600060208201905081810360008301526144df816144a3565b9050919050565b7f414c4c20534c4f54532048415645204245454e204d494e544544000000000000600082015250565b600061451c601a83613060565b9150614527826144e6565b602082019050919050565b6000602082019050818103600083015261454b8161450f565b9050919050565b7f4552433732314d657461646174613a2055524920717565727920666f72206e6f60008201527f6e6578697374656e7420746f6b656e0000000000000000000000000000000000602082015250565b60006145ae602f83613060565b91506145b982614552565b604082019050919050565b600060208201905081810360008301526145dd816145a1565b9050919050565b600081905092915050565b60006145fa82613055565b61460481856145e4565b9350614614818560208601613071565b80840191505092915050565b600061462c82856145ef565b915061463882846145ef565b91508190509392505050565b600061464f82613107565b915061465a83613107565b925082820190508082111561467257614671613c2c565b5b92915050565b7f4558434545444544204d4158204d494e5441424c4520544f4b454e532050455260008201527f2057414c4c455400000000000000000000000000000000000000000000000000602082015250565b60006146d4602783613060565b91506146df82614678565b604082019050919050565b60006020820190508181036000830152614703816146c7565b9050919050565b7f4e4f5420454e4f55474820535550504c59000000000000000000000000000000600082015250565b6000614740601183613060565b915061474b8261470a565b602082019050919050565b6000602082019050818103600083015261476f81614733565b9050919050565b7f4e487b7100000000000000000000000000000000000000000000000000000000600052603260045260246000fd5b7f4552433732313a206f70657261746f7220717565727920666f72206e6f6e657860008201527f697374656e7420746f6b656e0000000000000000000000000000000000000000602082015250565b6000614801602c83613060565b915061480c826147a5565b604082019050919050565b60006020820190508181036000830152614830816147f4565b9050919050565b7f4552433732313a207472616e73666572206f6620746f6b656e2074686174206960008201527f73206e6f74206f776e0000000000000000000000000000000000000000000000602082015250565b6000614893602983613060565b915061489e82614837565b604082019050919050565b600060208201905081810360008301526148c281614886565b9050919050565b7f4552433732313a207472616e7366657220746f20746865207a65726f2061646460008201527f7265737300000000000000000000000000000000000000000000000000000000602082015250565b6000614925602483613060565b9150614930826148c9565b604082019050919050565b6000602082019050818103600083015261495481614918565b9050919050565b7f4552433732313a20617070726f766520746f2063616c6c657200000000000000600082015250565b6000614991601983613060565b915061499c8261495b565b602082019050919050565b600060208201905081810360008301526149c081614984565b9050919050565b7f4552433732313a207472616e7366657220746f206e6f6e20455243373231526560008201527f63656976657220696d706c656d656e7465720000000000000000000000000000602082015250565b6000614a23603283613060565b9150614a2e826149c7565b604082019050919050565b60006020820190508181036000830152614a5281614a16565b9050919050565b6000614a6482613107565b9150614a6f83613107565b925082614a7f57614a7e613e15565b5b828204905092915050565b60008190508160005260206000209050919050565b601f821115614ae057614ab181614a8a565b614aba8461421b565b81016020851015614ac9578190505b614add614ad58561421b565b8301826142f8565b50505b505050565b614aee82613793565b67ffffffffffffffff811115614b0757614b06613237565b5b614b118254613a45565b614b1c828285614a9f565b600060209050601f831160018114614b4f5760008415614b3d578287015190505b614b47858261438c565b865550614baf565b601f198416614b5d86614a8a565b60005b82811015614b8557848901518255600182019150602085019450602081019050614b60565b86831015614ba25784890151614b9e601f89168261436e565b8355505b6001600288020188555050505b505050505050565b6000608082019050614bcc600083018761319c565b614bd9602083018661319c565b614be6604083018561359b565b8181036060830152614bf881846137af565b905095945050505050565b600081519050614c1281612fc6565b92915050565b600060208284031215614c2e57614c2d612f90565b5b6000614c3c84828501614c03565b91505092915050565b7f4552433732313a206d696e7420746f20746865207a65726f2061646472657373600082015250565b6000614c7b602083613060565b9150614c8682614c45565b602082019050919050565b60006020820190508181036000830152614caa81614c6e565b9050919050565b7f4552433732313a20746f6b656e20616c7265616479206d696e74656400000000600082015250565b6000614ce7601c83613060565b9150614cf282614cb1565b602082019050919050565b60006020820190508181036000830152614d1681614cda565b905091905056fea26469706673582212205a56159797ad0bfdc7273c7fe4c21af60da44d57660d03e233b09819f5b1d3ca64736f6c63430008110033",
  "immutableReferences": {},
  "source": "// SPDX-License-Identifier: MIT\n\n// MAINNET CONTRACT ADDRESSES\n\n// GL :: 0xecE922B118eEd554Fb9d3318a81FecB8C8D1bD95\n// ICE :: 0x890b24d94075B743a89171E5b8A2d9B9049eBf36\n// FROOT :: 0xb2330f3836799B36F0be49Df1043C62d30253479\n\n// TESTNET CONTRACT ADDRESSES\n\n// GREENLIST :: 0x0f6ee895f93a0525747DdD7c5c177fF65DBD7454\n// ICE :: 0xec09faf4b1c6F198cFF1535800d55123C8C848bE :: ERC20\n// FROOTYCOOLTINGS :: 0x069BF09A8EDb8C1b3AC7f62bA57C601DBaCc6747 :: ERC721\n\npragma solidity ^0.8.10;\n\nimport \"@openzeppelin/contracts/token/ERC20/ERC20.sol\";\nimport \"@openzeppelin/contracts/token/ERC721/ERC721.sol\";\n\ncontract Greenlist {\n    address public admin;\n\n    uint256 public l;\n    uint256 public max;\n    string public message;\n    uint256 public stamp;\n    FrootyCoolTingz public FCT;\n    mapping(address => bool) public isListed;\n    address[1234] public users;\n    modifier notListed(address _adr) {\n        require(isListed[_adr] == false, \"already listed\");\n        _;\n    }\n\n    constructor(uint256 _t) {\n        admin = msg.sender;\n        if (_t == 1) {\n            isListed[msg.sender] = true; // OFF ON TESTNET\n            users[0] = msg.sender;\n            l = 1; // Mainnet\n            max = 1234; // Mainnet\n        }\n        if (_t == 0) {\n            l = 0; // Testnet\n            max = 1; // Testnet\n        }\n        message = \"BE FRESH MY FRUITY FRENZ !\";\n    }\n\n    function setFCT(address _fct) external returns (bool) {\n        FCT = FrootyCoolTingz(_fct);\n        return true;\n    }\n\n    function autoStart() internal returns (bool) {\n        return FCT.changeMS();\n    }\n\n    function getListed() external notListed(msg.sender) returns (bool) {\n        require(l < max, \"no more greenlist tickets left\");\n        isListed[msg.sender] = true;\n        users[l] = (msg.sender);\n        l++;\n        if (l == max) autoStart();\n        return isListed[msg.sender];\n    }\n\n    function makeListing(address _adr) external notListed(_adr) returns (bool) {\n        require(admin == msg.sender, \"you are not admin\");\n        isListed[_adr] = true;\n        users[l] = (_adr);\n        l++;\n        if (l == max) autoStart();\n        return isListed[_adr];\n    }\n\n    function showUsers() external view returns (address[1234] memory) {\n        return users;\n    }\n\n    function setMsg(string memory _msg) external payable returns (bool) {\n        require(msg.value <= 1 * 10**18, \"insufficient balance sent\");\n        require(block.timestamp >= stamp + 60 * 60, \"you need to wait\");\n        message = _msg;\n        stamp = block.timestamp;\n        return true;\n    }\n\n    function setMsgAdmin(string memory _msg) external returns (bool) {\n        require(admin == msg.sender, \"you are not admin\");\n        message = _msg;\n        stamp = block.timestamp;\n        return true;\n    }\n\n    function showMsg() external view returns (string memory) {\n        return message;\n    }\n\n    function withdraw() external returns (uint256) {\n        require(admin == msg.sender, \"you are not admin\");\n        payable(admin).transfer(address(this).balance);\n        return address(this).balance;\n    }\n}\n\ncontract ICE is ERC20 {\n    uint256 public constant digits = 10**18;\n    uint256 public constant price = (1 * digits) / 10000; // Testnet :: 10000 // Mainnet :: 10\n\n    address admin;\n\n    modifier onlyA() {\n        require(msg.sender == admin);\n        _;\n    }\n\n    constructor() ERC20(\"Incredibly Cool Essence\", \"ICE\") {\n        admin = msg.sender;\n    }\n\n    function _domint(uint256 _amnt, address _adr) internal returns (uint256) {\n        _mint(_adr, _amnt);\n        return _amnt;\n    }\n\n    function _doburn(uint256 _amnt, address _adr) internal returns (uint256) {\n        _burn(_adr, _amnt);\n        return _amnt;\n    }\n\n    function swap(uint256 _amnt, address _adr)\n        external\n        payable\n        returns (uint256)\n    {\n        require(_amnt >= 10, \"MINIMUM 10 ICE\");\n        require(msg.value >= price * _amnt, \"INSUFFICIENT FUNDS PROVIDED\");\n        return _domint(_amnt, _adr);\n    }\n\n    function earn(address _adr) external returns (bool) {\n        _domint(1 * 10**18, _adr);\n        return true;\n    }\n}\n\ncontract FrootyCoolTingz is ERC721 {\n    // Public Constants\n    uint256 public price; // PRICE VAL Testnet\n    // uint256 public constant price = 5 * 10**18; // PRICE VAL Mainnet\n    uint256 public constant num = 1; // MAX MINTS / WALLET\n\n    uint256 public max; // MAX TOTAL MINTS\n    uint256 public sloz; // MAX FREE MINTS\n    // */\n    // Public Variables\n    address public owner; // CONTRACT OWNER\n    address iceAdr;\n    uint256 public minted; // TOKENS MINTED 1-5000\n    string public nam; // TOKEN NAME\n    string public sym; // TOKEN SYMBOL\n    uint256 public slots; // SLOZ USED 1-1234\n    bool public start; // ALLOWS MINT TO START\n    // Public Mappings\n    mapping(uint256 => bytes) public dias; // TOKEN ID SHOWS DIAS BYTES OBJECT\n    mapping(uint256 => uint256) public tid; // TOKEN ID SHOWS DIAS ID\n    mapping(uint256 => string) public status;\n    mapping(uint256 => address) public ownedBy;\n    mapping(address => uint256) private minter;\n    ICE public ice;\n    Greenlist public GLC;\n\n    modifier onlyO() {\n        // ONLY OWNER CAN USE MOD FUNX\n        require(msg.sender == owner);\n        _;\n    }\n\n    constructor(\n        address _ICE,\n        address _Greenlist,\n        uint256 _t\n    ) ERC721(\"Frooty Cool Tingz\", \"FROOT\") {\n        // INIT CONTRACT SET PUB VARS\n        minted = 1;\n        slots = 0;\n        owner = msg.sender;\n        nam = \"Frooty Cool Tingz\";\n        sym = \"FROOT\";\n        ice = ICE(_ICE);\n        GLC = Greenlist(_Greenlist);\n        if (_t == 0) {\n            max = 5;\n            sloz = 1;\n            price = 5 * 10**16;\n        }\n        if (_t == 1) {\n            max = 5555;\n            sloz = 1234;\n            price = 500 * 10**16;\n        }\n    }\n\n    function isOwner(address _adr) external view returns (bool) {\n        // SHOWS BOOL OF OWNERSTATUS OF ADDRESS\n        if (_adr == owner) return true;\n        else return false;\n    }\n\n    function mint(\n        uint256 _amnt,\n        uint256[] memory _diasIDs,\n        string[] memory _diasOBJs\n    ) external payable returns (uint256) {\n        // INITIATES THE MINT OF UP TO 7 TOKENS IF ALLOWED\n        require(minted < max - (sloz - slots), \"SOLD OUT\");\n        require(msg.value >= _amnt * price, \"INSUFFICIET FUNDS\");\n        require(start == true, \"MINT IS NOT YET LIVE\");\n        _doMint(_amnt, msg.sender, _diasIDs, _diasOBJs);\n        uint256 o = block.timestamp % 9;\n        for (uint256 i; i <= o; i++) ice.earn(msg.sender);\n        return minted;\n    }\n\n    function greenMint(uint256[] memory _diasIDs, string[] memory _diasOBJs)\n        external\n        returns (uint256)\n    {\n        // INITIATES THE MINT OF UP TO 7 TOKENS IF ALLOWED\n        require(minted < max, \"SOLD OUT\");\n        require(start == true, \"MINT IS NOT YET LIVE\");\n        bool boo = GLC.isListed(msg.sender);\n        require(boo == true, \"YOU ARE NOT GREENLISTED\");\n        require(slots <= sloz, \"ALL SLOTS HAVE BEEN MINTED\");\n        _doMint(1, msg.sender, _diasIDs, _diasOBJs);\n        ice.earn(msg.sender);\n        if (block.timestamp % 9 == 0 || block.timestamp % 9 == 9)\n            ice.earn(msg.sender);\n        slots++;\n        return minted;\n    }\n\n    function setStatus(uint256 _id, string memory _status)\n        external\n        payable\n        returns (bool)\n    {\n        require(ownedBy[_id] == msg.sender, \"YOU ARE NOT THE HOLDER\");\n        require(start == false, \"MINT IS STILL IN PROGRESS\");\n        require(msg.value >= 1 * 10**18);\n        ice.earn(msg.sender);\n        if (block.timestamp % 9 == 0 || block.timestamp % 9 == 9)\n            ice.earn(msg.sender);\n        status[_id] = _status;\n        return true;\n    }\n\n    function changeMintState() external onlyO returns (bool) {\n        return cMS();\n    }\n\n    // ONLY TESTNET\n    /* */\n    function changeMS() external returns (bool) {\n        return cMS();\n    }\n\n    // */\n    function cMS() internal returns (bool) {\n        return start = !start;\n    }\n\n    function mintOne(\n        address _adr,\n        uint256 _diasID,\n        string memory _diasOBJ\n    ) internal returns (uint256) {\n        // INTERNAL // MINTS ONE TOKEN\n        _mint(_adr, minted);\n        tid[minted] = _diasID;\n        dias[minted] = bytes(_diasOBJ);\n        minter[_adr] = minted;\n        minted++;\n        if (minted == max + 1) cMS();\n        return minted;\n    }\n\n    function _doMint(\n        uint256 _amnt,\n        address _adr,\n        uint256[] memory _diasIDs,\n        string[] memory _diasOBJs\n    ) internal returns (uint256) {\n        require(\n            balanceOf(_adr) + _amnt <= num,\n            \"EXCEEDED MAX MINTABLE TOKENS PER WALLET\"\n        );\n        require(minted + _amnt <= max, \"NOT ENOUGH SUPPLY\");\n        // INTERNAL // MINTS UP TO 7 TOKENS IN ONE TX\n        mintOne(_adr, _diasIDs[0], _diasOBJs[0]);\n        if (_amnt >= 2) {\n            mintOne(_adr, _diasIDs[0], _diasOBJs[0]);\n            if (_amnt >= 3) {\n                mintOne(_adr, _diasIDs[0], _diasOBJs[0]);\n                if (_amnt >= 4) {\n                    mintOne(_adr, _diasIDs[0], _diasOBJs[0]);\n                    if (_amnt >= 5) {\n                        mintOne(_adr, _diasIDs[0], _diasOBJs[0]);\n                        if (_amnt >= 6) {\n                            mintOne(_adr, _diasIDs[0], _diasOBJs[0]);\n                            if (_amnt >= 7) {\n                                mintOne(_adr, _diasIDs[0], _diasOBJs[0]);\n                            }\n                        }\n                    }\n                }\n            }\n        }\n        return minted;\n    }\n\n    function holder(uint256 _id) external view returns (address) {\n        // SHOWS OWNER OF TOKEN BY TID\n        return ownerOf(_id);\n    }\n\n    function clearSloz() external returns (bool) {\n        slots = 1234;\n        return true;\n    }\n\n    function flush() external returns (uint256) {\n        // WITHDRAW ALL ETHER FROM CONTRACT\n        payable(owner).transfer(address(this).balance);\n        return address(this).balance;\n    }\n\n    function flushERC20(address _erc) external returns (uint256) {\n        // WITHDRAW ALL COIN FROM CONTRACT\n        ERC20 coin = ERC20(_erc);\n        coin.transferFrom(address(this), owner, coin.balanceOf(address(this)));\n        return coin.balanceOf(address(this));\n    }\n\n    function flushERC721(address _erc, uint256 _id) external returns (uint256) {\n        // WITHDRAW ALL NFT FROM CONTRACT\n        ERC721 coin = ERC721(_erc);\n        coin.transferFrom(address(this), owner, _id);\n        return _id;\n    }\n}\n",
  "sourcePath": "/Users/iii6/Documents/GitHub/niftish/contracts/FrootyCoolTingz.sol",
  "compiler": {
    "name": "solc",
    "version": "0.8.17+commit.8df45f5f.Emscripten.clang"
  },
  "schemaVersion": "3.4.8",
  "updatedAt": "2023-03-17T14:03:22.666Z",
  "networkType": "ethereum",
  "devdoc": {
    "kind": "dev",
    "methods": {
      "approve(address,uint256)": {
        "details": "See {IERC721-approve}."
      },
      "balanceOf(address)": {
        "details": "See {IERC721-balanceOf}."
      },
      "getApproved(uint256)": {
        "details": "See {IERC721-getApproved}."
      },
      "isApprovedForAll(address,address)": {
        "details": "See {IERC721-isApprovedForAll}."
      },
      "name()": {
        "details": "See {IERC721Metadata-name}."
      },
      "ownerOf(uint256)": {
        "details": "See {IERC721-ownerOf}."
      },
      "safeTransferFrom(address,address,uint256)": {
        "details": "See {IERC721-safeTransferFrom}."
      },
      "safeTransferFrom(address,address,uint256,bytes)": {
        "details": "See {IERC721-safeTransferFrom}."
      },
      "setApprovalForAll(address,bool)": {
        "details": "See {IERC721-setApprovalForAll}."
      },
      "supportsInterface(bytes4)": {
        "details": "See {IERC165-supportsInterface}."
      },
      "symbol()": {
        "details": "See {IERC721Metadata-symbol}."
      },
      "tokenURI(uint256)": {
        "details": "See {IERC721Metadata-tokenURI}."
      },
      "transferFrom(address,address,uint256)": {
        "details": "See {IERC721-transferFrom}."
      }
    },
    "version": 1
  },
  "userdoc": {
    "kind": "user",
    "methods": {},
    "version": 1
  }
}