{
  "contractName": "FrootyCoolTingz",
  "abi": [
    {
      "inputs": [
        {
          "internalType": "address",
          "name": "_ICE",
          "type": "address"
        },
        {
          "internalType": "address",
          "name": "_Greenlist",
          "type": "address"
        },
        {
          "internalType": "uint256",
          "name": "_t",
          "type": "uint256"
        }
      ],
      "stateMutability": "nonpayable",
      "type": "constructor"
    },
    {
      "anonymous": false,
      "inputs": [
        {
          "indexed": true,
          "internalType": "address",
          "name": "owner",
          "type": "address"
        },
        {
          "indexed": true,
          "internalType": "address",
          "name": "approved",
          "type": "address"
        },
        {
          "indexed": true,
          "internalType": "uint256",
          "name": "tokenId",
          "type": "uint256"
        }
      ],
      "name": "Approval",
      "type": "event"
    },
    {
      "anonymous": false,
      "inputs": [
        {
          "indexed": true,
          "internalType": "address",
          "name": "owner",
          "type": "address"
        },
        {
          "indexed": true,
          "internalType": "address",
          "name": "operator",
          "type": "address"
        },
        {
          "indexed": false,
          "internalType": "bool",
          "name": "approved",
          "type": "bool"
        }
      ],
      "name": "ApprovalForAll",
      "type": "event"
    },
    {
      "anonymous": false,
      "inputs": [
        {
          "indexed": true,
          "internalType": "address",
          "name": "from",
          "type": "address"
        },
        {
          "indexed": true,
          "internalType": "address",
          "name": "to",
          "type": "address"
        },
        {
          "indexed": true,
          "internalType": "uint256",
          "name": "tokenId",
          "type": "uint256"
        }
      ],
      "name": "Transfer",
      "type": "event"
    },
    {
      "inputs": [],
      "name": "GLC",
      "outputs": [
        {
          "internalType": "contract Greenlist",
          "name": "",
          "type": "address"
        }
      ],
      "stateMutability": "view",
      "type": "function"
    },
    {
      "inputs": [
        {
          "internalType": "address",
          "name": "to",
          "type": "address"
        },
        {
          "internalType": "uint256",
          "name": "tokenId",
          "type": "uint256"
        }
      ],
      "name": "approve",
      "outputs": [],
      "stateMutability": "nonpayable",
      "type": "function"
    },
    {
      "inputs": [],
      "name": "arb",
      "outputs": [
        {
          "internalType": "contract ERC20",
          "name": "",
          "type": "address"
        }
      ],
      "stateMutability": "view",
      "type": "function"
    },
    {
      "inputs": [],
      "name": "arbprice",
      "outputs": [
        {
          "internalType": "uint256",
          "name": "",
          "type": "uint256"
        }
      ],
      "stateMutability": "view",
      "type": "function"
    },
    {
      "inputs": [],
      "name": "arbstatusprice",
      "outputs": [
        {
          "internalType": "uint256",
          "name": "",
          "type": "uint256"
        }
      ],
      "stateMutability": "view",
      "type": "function"
    },
    {
      "inputs": [
        {
          "internalType": "address",
          "name": "owner",
          "type": "address"
        }
      ],
      "name": "balanceOf",
      "outputs": [
        {
          "internalType": "uint256",
          "name": "",
          "type": "uint256"
        }
      ],
      "stateMutability": "view",
      "type": "function"
    },
    {
      "inputs": [
        {
          "internalType": "uint256",
          "name": "",
          "type": "uint256"
        }
      ],
      "name": "dias",
      "outputs": [
        {
          "internalType": "bytes",
          "name": "",
          "type": "bytes"
        }
      ],
      "stateMutability": "view",
      "type": "function"
    },
    {
      "inputs": [],
      "name": "digits",
      "outputs": [
        {
          "internalType": "uint256",
          "name": "",
          "type": "uint256"
        }
      ],
      "stateMutability": "view",
      "type": "function"
    },
    {
      "inputs": [
        {
          "internalType": "uint256",
          "name": "tokenId",
          "type": "uint256"
        }
      ],
      "name": "getApproved",
      "outputs": [
        {
          "internalType": "address",
          "name": "",
          "type": "address"
        }
      ],
      "stateMutability": "view",
      "type": "function"
    },
    {
      "inputs": [],
      "name": "ice",
      "outputs": [
        {
          "internalType": "contract ICE",
          "name": "",
          "type": "address"
        }
      ],
      "stateMutability": "view",
      "type": "function"
    },
    {
      "inputs": [
        {
          "internalType": "uint256",
          "name": "",
          "type": "uint256"
        }
      ],
      "name": "icebox",
      "outputs": [
        {
          "internalType": "uint256",
          "name": "",
          "type": "uint256"
        }
      ],
      "stateMutability": "view",
      "type": "function"
    },
    {
      "inputs": [
        {
          "internalType": "address",
          "name": "owner",
          "type": "address"
        },
        {
          "internalType": "address",
          "name": "operator",
          "type": "address"
        }
      ],
      "name": "isApprovedForAll",
      "outputs": [
        {
          "internalType": "bool",
          "name": "",
          "type": "bool"
        }
      ],
      "stateMutability": "view",
      "type": "function"
    },
    {
      "inputs": [],
      "name": "max",
      "outputs": [
        {
          "internalType": "uint256",
          "name": "",
          "type": "uint256"
        }
      ],
      "stateMutability": "view",
      "type": "function"
    },
    {
      "inputs": [
        {
          "internalType": "uint256",
          "name": "",
          "type": "uint256"
        }
      ],
      "name": "meltbox",
      "outputs": [
        {
          "internalType": "uint256",
          "name": "",
          "type": "uint256"
        }
      ],
      "stateMutability": "view",
      "type": "function"
    },
    {
      "inputs": [],
      "name": "minted",
      "outputs": [
        {
          "internalType": "uint256",
          "name": "",
          "type": "uint256"
        }
      ],
      "stateMutability": "view",
      "type": "function"
    },
    {
      "inputs": [
        {
          "internalType": "address",
          "name": "",
          "type": "address"
        }
      ],
      "name": "minter",
      "outputs": [
        {
          "internalType": "uint256",
          "name": "",
          "type": "uint256"
        }
      ],
      "stateMutability": "view",
      "type": "function"
    },
    {
      "inputs": [],
      "name": "nam",
      "outputs": [
        {
          "internalType": "string",
          "name": "",
          "type": "string"
        }
      ],
      "stateMutability": "view",
      "type": "function"
    },
    {
      "inputs": [],
      "name": "name",
      "outputs": [
        {
          "internalType": "string",
          "name": "",
          "type": "string"
        }
      ],
      "stateMutability": "view",
      "type": "function"
    },
    {
      "inputs": [],
      "name": "num",
      "outputs": [
        {
          "internalType": "uint256",
          "name": "",
          "type": "uint256"
        }
      ],
      "stateMutability": "view",
      "type": "function"
    },
    {
      "inputs": [
        {
          "internalType": "uint256",
          "name": "",
          "type": "uint256"
        }
      ],
      "name": "ownedBy",
      "outputs": [
        {
          "internalType": "address",
          "name": "",
          "type": "address"
        }
      ],
      "stateMutability": "view",
      "type": "function"
    },
    {
      "inputs": [],
      "name": "owner",
      "outputs": [
        {
          "internalType": "address",
          "name": "",
          "type": "address"
        }
      ],
      "stateMutability": "view",
      "type": "function"
    },
    {
      "inputs": [
        {
          "internalType": "uint256",
          "name": "tokenId",
          "type": "uint256"
        }
      ],
      "name": "ownerOf",
      "outputs": [
        {
          "internalType": "address",
          "name": "",
          "type": "address"
        }
      ],
      "stateMutability": "view",
      "type": "function"
    },
    {
      "inputs": [],
      "name": "price",
      "outputs": [
        {
          "internalType": "uint256",
          "name": "",
          "type": "uint256"
        }
      ],
      "stateMutability": "view",
      "type": "function"
    },
    {
      "inputs": [
        {
          "internalType": "address",
          "name": "from",
          "type": "address"
        },
        {
          "internalType": "address",
          "name": "to",
          "type": "address"
        },
        {
          "internalType": "uint256",
          "name": "tokenId",
          "type": "uint256"
        }
      ],
      "name": "safeTransferFrom",
      "outputs": [],
      "stateMutability": "nonpayable",
      "type": "function"
    },
    {
      "inputs": [
        {
          "internalType": "address",
          "name": "from",
          "type": "address"
        },
        {
          "internalType": "address",
          "name": "to",
          "type": "address"
        },
        {
          "internalType": "uint256",
          "name": "tokenId",
          "type": "uint256"
        },
        {
          "internalType": "bytes",
          "name": "_data",
          "type": "bytes"
        }
      ],
      "name": "safeTransferFrom",
      "outputs": [],
      "stateMutability": "nonpayable",
      "type": "function"
    },
    {
      "inputs": [
        {
          "internalType": "address",
          "name": "operator",
          "type": "address"
        },
        {
          "internalType": "bool",
          "name": "approved",
          "type": "bool"
        }
      ],
      "name": "setApprovalForAll",
      "outputs": [],
      "stateMutability": "nonpayable",
      "type": "function"
    },
    {
      "inputs": [],
      "name": "slots",
      "outputs": [
        {
          "internalType": "uint256",
          "name": "",
          "type": "uint256"
        }
      ],
      "stateMutability": "view",
      "type": "function"
    },
    {
      "inputs": [],
      "name": "sloz",
      "outputs": [
        {
          "internalType": "uint256",
          "name": "",
          "type": "uint256"
        }
      ],
      "stateMutability": "view",
      "type": "function"
    },
    {
      "inputs": [],
      "name": "start",
      "outputs": [
        {
          "internalType": "bool",
          "name": "",
          "type": "bool"
        }
      ],
      "stateMutability": "view",
      "type": "function"
    },
    {
      "inputs": [
        {
          "internalType": "uint256",
          "name": "",
          "type": "uint256"
        }
      ],
      "name": "status",
      "outputs": [
        {
          "internalType": "string",
          "name": "",
          "type": "string"
        }
      ],
      "stateMutability": "view",
      "type": "function"
    },
    {
      "inputs": [],
      "name": "statusprice",
      "outputs": [
        {
          "internalType": "uint256",
          "name": "",
          "type": "uint256"
        }
      ],
      "stateMutability": "view",
      "type": "function"
    },
    {
      "inputs": [
        {
          "internalType": "bytes4",
          "name": "interfaceId",
          "type": "bytes4"
        }
      ],
      "name": "supportsInterface",
      "outputs": [
        {
          "internalType": "bool",
          "name": "",
          "type": "bool"
        }
      ],
      "stateMutability": "view",
      "type": "function"
    },
    {
      "inputs": [],
      "name": "sym",
      "outputs": [
        {
          "internalType": "string",
          "name": "",
          "type": "string"
        }
      ],
      "stateMutability": "view",
      "type": "function"
    },
    {
      "inputs": [],
      "name": "symbol",
      "outputs": [
        {
          "internalType": "string",
          "name": "",
          "type": "string"
        }
      ],
      "stateMutability": "view",
      "type": "function"
    },
    {
      "inputs": [
        {
          "internalType": "uint256",
          "name": "",
          "type": "uint256"
        }
      ],
      "name": "tid",
      "outputs": [
        {
          "internalType": "uint256",
          "name": "",
          "type": "uint256"
        }
      ],
      "stateMutability": "view",
      "type": "function"
    },
    {
      "inputs": [
        {
          "internalType": "uint256",
          "name": "tokenId",
          "type": "uint256"
        }
      ],
      "name": "tokenURI",
      "outputs": [
        {
          "internalType": "string",
          "name": "",
          "type": "string"
        }
      ],
      "stateMutability": "view",
      "type": "function"
    },
    {
      "inputs": [
        {
          "internalType": "address",
          "name": "from",
          "type": "address"
        },
        {
          "internalType": "address",
          "name": "to",
          "type": "address"
        },
        {
          "internalType": "uint256",
          "name": "tokenId",
          "type": "uint256"
        }
      ],
      "name": "transferFrom",
      "outputs": [],
      "stateMutability": "nonpayable",
      "type": "function"
    },
    {
      "inputs": [
        {
          "internalType": "address",
          "name": "_adr",
          "type": "address"
        }
      ],
      "name": "isOwner",
      "outputs": [
        {
          "internalType": "bool",
          "name": "",
          "type": "bool"
        }
      ],
      "stateMutability": "view",
      "type": "function"
    },
    {
      "inputs": [
        {
          "internalType": "uint256",
          "name": "_amnt",
          "type": "uint256"
        },
        {
          "internalType": "uint256[]",
          "name": "_diasIDs",
          "type": "uint256[]"
        },
        {
          "internalType": "string[]",
          "name": "_diasOBJs",
          "type": "string[]"
        }
      ],
      "name": "mint",
      "outputs": [
        {
          "internalType": "uint256",
          "name": "",
          "type": "uint256"
        }
      ],
      "stateMutability": "payable",
      "type": "function"
    },
    {
      "inputs": [
        {
          "internalType": "address",
          "name": "_arb",
          "type": "address"
        }
      ],
      "name": "setARB",
      "outputs": [],
      "stateMutability": "nonpayable",
      "type": "function"
    },
    {
      "inputs": [
        {
          "internalType": "uint256",
          "name": "_amnt",
          "type": "uint256"
        },
        {
          "internalType": "uint256[]",
          "name": "_diasIDs",
          "type": "uint256[]"
        },
        {
          "internalType": "string[]",
          "name": "_diasOBJs",
          "type": "string[]"
        }
      ],
      "name": "arbmint",
      "outputs": [
        {
          "internalType": "uint256",
          "name": "",
          "type": "uint256"
        }
      ],
      "stateMutability": "payable",
      "type": "function"
    },
    {
      "inputs": [
        {
          "internalType": "uint256[]",
          "name": "_diasIDs",
          "type": "uint256[]"
        },
        {
          "internalType": "string[]",
          "name": "_diasOBJs",
          "type": "string[]"
        }
      ],
      "name": "greenMint",
      "outputs": [
        {
          "internalType": "uint256",
          "name": "",
          "type": "uint256"
        }
      ],
      "stateMutability": "nonpayable",
      "type": "function"
    },
    {
      "inputs": [
        {
          "internalType": "uint256",
          "name": "_id",
          "type": "uint256"
        },
        {
          "internalType": "string",
          "name": "_status",
          "type": "string"
        }
      ],
      "name": "setStatus",
      "outputs": [
        {
          "internalType": "bool",
          "name": "",
          "type": "bool"
        }
      ],
      "stateMutability": "payable",
      "type": "function"
    },
    {
      "inputs": [
        {
          "internalType": "uint256",
          "name": "_id",
          "type": "uint256"
        },
        {
          "internalType": "string",
          "name": "_status",
          "type": "string"
        }
      ],
      "name": "iceSetStatus",
      "outputs": [
        {
          "internalType": "string",
          "name": "",
          "type": "string"
        }
      ],
      "stateMutability": "nonpayable",
      "type": "function"
    },
    {
      "inputs": [
        {
          "internalType": "uint256",
          "name": "_id",
          "type": "uint256"
        },
        {
          "internalType": "string",
          "name": "_status",
          "type": "string"
        }
      ],
      "name": "arbSetStatus",
      "outputs": [
        {
          "internalType": "string",
          "name": "",
          "type": "string"
        }
      ],
      "stateMutability": "nonpayable",
      "type": "function"
    },
    {
      "inputs": [
        {
          "internalType": "uint256",
          "name": "_amount",
          "type": "uint256"
        },
        {
          "internalType": "uint256",
          "name": "_id",
          "type": "uint256"
        }
      ],
      "name": "addIce",
      "outputs": [
        {
          "internalType": "string",
          "name": "",
          "type": "string"
        }
      ],
      "stateMutability": "nonpayable",
      "type": "function"
    },
    {
      "inputs": [],
      "name": "meltState",
      "outputs": [
        {
          "internalType": "int256",
          "name": "state",
          "type": "int256"
        }
      ],
      "stateMutability": "view",
      "type": "function"
    },
    {
      "inputs": [],
      "name": "changeMintState",
      "outputs": [
        {
          "internalType": "bool",
          "name": "",
          "type": "bool"
        }
      ],
      "stateMutability": "nonpayable",
      "type": "function"
    },
    {
      "inputs": [],
      "name": "changeMS",
      "outputs": [
        {
          "internalType": "bool",
          "name": "",
          "type": "bool"
        }
      ],
      "stateMutability": "nonpayable",
      "type": "function"
    },
    {
      "inputs": [
        {
          "internalType": "uint256",
          "name": "_id",
          "type": "uint256"
        }
      ],
      "name": "holder",
      "outputs": [
        {
          "internalType": "address",
          "name": "",
          "type": "address"
        }
      ],
      "stateMutability": "view",
      "type": "function"
    },
    {
      "inputs": [],
      "name": "clearSloz",
      "outputs": [
        {
          "internalType": "bool",
          "name": "",
          "type": "bool"
        }
      ],
      "stateMutability": "nonpayable",
      "type": "function"
    },
    {
      "inputs": [],
      "name": "withdraw",
      "outputs": [
        {
          "internalType": "uint256",
          "name": "",
          "type": "uint256"
        }
      ],
      "stateMutability": "nonpayable",
      "type": "function"
    },
    {
      "inputs": [
        {
          "internalType": "address",
          "name": "_erc",
          "type": "address"
        }
      ],
      "name": "flushERC20",
      "outputs": [
        {
          "internalType": "uint256",
          "name": "",
          "type": "uint256"
        }
      ],
      "stateMutability": "nonpayable",
      "type": "function"
    },
    {
      "inputs": [
        {
          "internalType": "address",
          "name": "_erc",
          "type": "address"
        },
        {
          "internalType": "uint256",
          "name": "_id",
          "type": "uint256"
        }
      ],
      "name": "flushERC721",
      "outputs": [
        {
          "internalType": "uint256",
          "name": "",
          "type": "uint256"
        }
      ],
      "stateMutability": "nonpayable",
      "type": "function"
    }
  ],
  "bytecode": "0x6080604052670de0b6b3a7640000600a553480156200001d57600080fd5b5060405162006b0638038062006b06833981810160405281019062000043919062000406565b6040518060400160405280600b81526020017f436f6f6c2046726f6f74730000000000000000000000000000000000000000008152506040518060400160405280600681526020017f46523030545300000000000000000000000000000000000000000000000000008152508160009081620000c09190620006d2565b508060019081620000d29190620006d2565b5050506001600f81905550600060128190555033600d60006101000a81548173ffffffffffffffffffffffffffffffffffffffff021916908373ffffffffffffffffffffffffffffffffffffffff1602179055506040518060400160405280600b81526020017f436f6f6c2046726f6f7473000000000000000000000000000000000000000000815250601090816200016c9190620006d2565b506040518060400160405280600681526020017f46524f4f5453000000000000000000000000000000000000000000000000000081525060119081620001b39190620006d2565b5082601b60006101000a81548173ffffffffffffffffffffffffffffffffffffffff021916908373ffffffffffffffffffffffffffffffffffffffff16021790555081601c60006101000a81548173ffffffffffffffffffffffffffffffffffffffff021916908373ffffffffffffffffffffffffffffffffffffffff16021790555060008103620002cd57607b600b81905550602d600c819055506064600a546004620002629190620007e8565b6200026e919062000862565b6006819055506103e8600a5462000286919062000862565b600781905550600a5460076200029d9190620007e8565b600881905550600a80546002620002b59190620007e8565b620002c1919062000862565b60098190555062000358565b6115b3600b819055506104d2600c819055506064600a546004620002f29190620007e8565b620002fe919062000862565b6006819055506103e8600a5462000316919062000862565b600781905550600a5460076200032d9190620007e8565b600881905550600a80546002620003459190620007e8565b62000351919062000862565b6009819055505b5050506200089a565b600080fd5b600073ffffffffffffffffffffffffffffffffffffffff82169050919050565b6000620003938262000366565b9050919050565b620003a58162000386565b8114620003b157600080fd5b50565b600081519050620003c5816200039a565b92915050565b6000819050919050565b620003e081620003cb565b8114620003ec57600080fd5b50565b6000815190506200040081620003d5565b92915050565b60008060006060848603121562000422576200042162000361565b5b60006200043286828701620003b4565b93505060206200044586828701620003b4565b92505060406200045886828701620003ef565b9150509250925092565b600081519050919050565b7f4e487b7100000000000000000000000000000000000000000000000000000000600052604160045260246000fd5b7f4e487b7100000000000000000000000000000000000000000000000000000000600052602260045260246000fd5b60006002820490506001821680620004e457607f821691505b602082108103620004fa57620004f96200049c565b5b50919050565b60008190508160005260206000209050919050565b60006020601f8301049050919050565b600082821b905092915050565b600060088302620005647fffffffffffffffffffffffffffffffffffffffffffffffffffffffffffffffff8262000525565b62000570868362000525565b95508019841693508086168417925050509392505050565b6000819050919050565b6000620005b3620005ad620005a784620003cb565b62000588565b620003cb565b9050919050565b6000819050919050565b620005cf8362000592565b620005e7620005de82620005ba565b84845462000532565b825550505050565b600090565b620005fe620005ef565b6200060b818484620005c4565b505050565b5b81811015620006335762000627600082620005f4565b60018101905062000611565b5050565b601f82111562000682576200064c8162000500565b620006578462000515565b8101602085101562000667578190505b6200067f620006768562000515565b83018262000610565b50505b505050565b600082821c905092915050565b6000620006a76000198460080262000687565b1980831691505092915050565b6000620006c2838362000694565b9150826002028217905092915050565b620006dd8262000462565b67ffffffffffffffff811115620006f957620006f86200046d565b5b620007058254620004cb565b6200071282828562000637565b600060209050601f8311600181146200074a576000841562000735578287015190505b620007418582620006b4565b865550620007b1565b601f1984166200075a8662000500565b60005b8281101562000784578489015182556001820191506020850194506020810190506200075d565b86831015620007a45784890151620007a0601f89168262000694565b8355505b6001600288020188555050505b505050505050565b7f4e487b7100000000000000000000000000000000000000000000000000000000600052601160045260246000fd5b6000620007f582620003cb565b91506200080283620003cb565b92508282026200081281620003cb565b915082820484148315176200082c576200082b620007b9565b5b5092915050565b7f4e487b7100000000000000000000000000000000000000000000000000000000600052601260045260246000fd5b60006200086f82620003cb565b91506200087c83620003cb565b9250826200088f576200088e62000833565b5b828204905092915050565b61625c80620008aa6000396000f3fe6080604052600436106103355760003560e01c80637d23b33c116101ab578063ac0d4084116100f7578063c87b56dd11610095578063e3c44ff71161006f578063e3c44ff714610cf9578063e985e9c514610d24578063ea25b61d14610d61578063f62d8dfb14610d8c57610335565b8063c87b56dd14610c4f578063ca88485914610c8c578063d64b3ae814610cbc57610335565b8063b524fd6f116100d1578063b524fd6f14610b93578063b88d4fde14610bbe578063ba899a2e14610be7578063be9a655514610c2457610335565b8063ac0d408414610aee578063acb5fedf14610b2b578063ae943abc14610b5657610335565b80639b4f589f11610164578063a22cb4651161013e578063a22cb46514610a20578063a613e0e714610a49578063a9700e1f14610a86578063aa1ee94014610ab157610335565b80639b4f589f1461098d5780639e20437c146109ca578063a035b1fe146109f557610335565b80637d23b33c1461087957806380142754146108b657806383813a28146108e15780638da5cb5b1461090c57806395d89b41146109375780639af9bec01461096257610335565b806342842e0e116102855780635395acd2116102235780636f743acd116101fd5780636f743acd146107b857806370a08231146107e357806376917df9146108205780637cbca3e01461085057610335565b80635395acd2146107255780636352211e146107505780636ac5db191461078d57610335565b806348547d691161025f57806348547d69146106795780634c2a860d146106a45780634e70b1dc146106cf5780634f02c420146106fa57610335565b806342842e0e146105d657806342d21ef7146105ff578063477523c21461063c57610335565b8063216d534c116102f25780632f54bf6e116102cc5780632f54bf6e146105065780633b8d676f146105435780633ccfd60b1461056e5780633dd08c381461059957610335565b8063216d534c1461046357806323b872dd146104a05780632ce56773146104c957610335565b806301ffc9a71461033a57806306390d6c1461037757806306fdde03146103a2578063081812fc146103cd578063095ea7b31461040a57806320a7270d14610433575b600080fd5b34801561034657600080fd5b50610361600480360381019061035c9190614243565b610dc9565b60405161036e919061428b565b60405180910390f35b34801561038357600080fd5b5061038c610eab565b60405161039991906142bf565b60405180910390f35b3480156103ae57600080fd5b506103b7610eb1565b6040516103c4919061436a565b60405180910390f35b3480156103d957600080fd5b506103f460048036038101906103ef91906143b8565b610f43565b6040516104019190614426565b60405180910390f35b34801561041657600080fd5b50610431600480360381019061042c919061446d565b610fc8565b005b61044d6004803603810190610448919061478b565b6110df565b60405161045a91906142bf565b60405180910390f35b34801561046f57600080fd5b5061048a6004803603810190610485919061446d565b61126c565b60405161049791906142bf565b60405180910390f35b3480156104ac57600080fd5b506104c760048036038101906104c29190614816565b61135a565b005b3480156104d557600080fd5b506104f060048036038101906104eb9190614869565b6113ba565b6040516104fd919061436a565b60405180910390f35b34801561051257600080fd5b5061052d600480360381019061052891906148c5565b61174a565b60405161053a919061428b565b60405180910390f35b34801561054f57600080fd5b506105586117b4565b604051610565919061428b565b60405180910390f35b34801561057a57600080fd5b50610583611853565b60405161059091906142bf565b60405180910390f35b3480156105a557600080fd5b506105c060048036038101906105bb91906148c5565b6119ab565b6040516105cd91906142bf565b60405180910390f35b3480156105e257600080fd5b506105fd60048036038101906105f89190614816565b6119c3565b005b34801561060b57600080fd5b50610626600480360381019061062191906143b8565b6119e3565b604051610633919061436a565b60405180910390f35b34801561064857600080fd5b50610663600480360381019061065e91906148c5565b611a83565b60405161067091906142bf565b60405180910390f35b34801561068557600080fd5b5061068e611c74565b60405161069b91906142bf565b60405180910390f35b3480156106b057600080fd5b506106b9611c7a565b6040516106c69190614951565b60405180910390f35b3480156106db57600080fd5b506106e4611ca0565b6040516106f191906142bf565b60405180910390f35b34801561070657600080fd5b5061070f611ca5565b60405161071c91906142bf565b60405180910390f35b34801561073157600080fd5b5061073a611cab565b60405161074791906142bf565b60405180910390f35b34801561075c57600080fd5b50610777600480360381019061077291906143b8565b611cb1565b6040516107849190614426565b60405180910390f35b34801561079957600080fd5b506107a2611d62565b6040516107af91906142bf565b60405180910390f35b3480156107c457600080fd5b506107cd611d68565b6040516107da91906142bf565b60405180910390f35b3480156107ef57600080fd5b5061080a600480360381019061080591906148c5565b611d6e565b60405161081791906142bf565b60405180910390f35b61083a60048036038101906108359190614869565b611e25565b604051610847919061428b565b60405180910390f35b34801561085c57600080fd5b50610877600480360381019061087291906148c5565b611f58565b005b34801561088557600080fd5b506108a0600480360381019061089b919061496c565b611ff6565b6040516108ad91906142bf565b60405180910390f35b3480156108c257600080fd5b506108cb61226e565b6040516108d891906149fd565b60405180910390f35b3480156108ed57600080fd5b506108f66122fb565b604051610903919061436a565b60405180910390f35b34801561091857600080fd5b50610921612389565b60405161092e9190614426565b60405180910390f35b34801561094357600080fd5b5061094c6123af565b604051610959919061436a565b60405180910390f35b34801561096e57600080fd5b50610977612441565b604051610984919061436a565b60405180910390f35b34801561099957600080fd5b506109b460048036038101906109af91906143b8565b6124cf565b6040516109c19190614a6d565b60405180910390f35b3480156109d657600080fd5b506109df61256f565b6040516109ec91906142bf565b60405180910390f35b348015610a0157600080fd5b50610a0a612575565b604051610a1791906142bf565b60405180910390f35b348015610a2c57600080fd5b50610a476004803603810190610a429190614abb565b61257b565b005b348015610a5557600080fd5b50610a706004803603810190610a6b91906143b8565b612591565b604051610a7d9190614426565b60405180910390f35b348015610a9257600080fd5b50610a9b6125c4565b604051610aa89190614b1c565b60405180910390f35b348015610abd57600080fd5b50610ad86004803603810190610ad391906143b8565b6125ea565b604051610ae591906142bf565b60405180910390f35b348015610afa57600080fd5b50610b156004803603810190610b109190614b37565b612602565b604051610b22919061436a565b60405180910390f35b348015610b3757600080fd5b50610b4061281c565b604051610b4d9190614b98565b60405180910390f35b348015610b6257600080fd5b50610b7d6004803603810190610b7891906143b8565b612842565b604051610b8a91906142bf565b60405180910390f35b348015610b9f57600080fd5b50610ba861285a565b604051610bb5919061428b565b60405180910390f35b348015610bca57600080fd5b50610be56004803603810190610be09190614c54565b6128c3565b005b348015610bf357600080fd5b50610c0e6004803603810190610c0991906143b8565b612925565b604051610c1b9190614426565b60405180910390f35b348015610c3057600080fd5b50610c39612962565b604051610c46919061428b565b60405180910390f35b348015610c5b57600080fd5b50610c766004803603810190610c7191906143b8565b612975565b604051610c83919061436a565b60405180910390f35b610ca66004803603810190610ca1919061478b565b612a1c565b604051610cb391906142bf565b60405180910390f35b348015610cc857600080fd5b50610ce36004803603810190610cde91906143b8565b612e0c565b604051610cf091906142bf565b60405180910390f35b348015610d0557600080fd5b50610d0e612e24565b604051610d1b91906142bf565b60405180910390f35b348015610d3057600080fd5b50610d4b6004803603810190610d469190614cd7565b612e2a565b604051610d58919061428b565b60405180910390f35b348015610d6d57600080fd5b50610d76612ebe565b604051610d83919061428b565b60405180910390f35b348015610d9857600080fd5b50610db36004803603810190610dae9190614869565b612ed0565b604051610dc0919061436a565b60405180910390f35b60007f80ac58cd000000000000000000000000000000000000000000000000000000007bffffffffffffffffffffffffffffffffffffffffffffffffffffffff1916827bffffffffffffffffffffffffffffffffffffffffffffffffffffffff19161480610e9457507f5b5e139f000000000000000000000000000000000000000000000000000000007bffffffffffffffffffffffffffffffffffffffffffffffffffffffff1916827bffffffffffffffffffffffffffffffffffffffffffffffffffffffff1916145b80610ea45750610ea38261336f565b5b9050919050565b60075481565b606060008054610ec090614d46565b80601f0160208091040260200160405190810160405280929190818152602001828054610eec90614d46565b8015610f395780601f10610f0e57610100808354040283529160200191610f39565b820191906000526020600020905b815481529060010190602001808311610f1c57829003601f168201915b5050505050905090565b6000610f4e826133d9565b610f8d576040517f08c379a0000000000000000000000000000000000000000000000000000000008152600401610f8490614de9565b60405180910390fd5b6004600083815260200190815260200160002060009054906101000a900473ffffffffffffffffffffffffffffffffffffffff169050919050565b6000610fd382611cb1565b90508073ffffffffffffffffffffffffffffffffffffffff168373ffffffffffffffffffffffffffffffffffffffff1603611043576040517f08c379a000000000000000000000000000000000000000000000000000000000815260040161103a90614e7b565b60405180910390fd5b8073ffffffffffffffffffffffffffffffffffffffff16611062613445565b73ffffffffffffffffffffffffffffffffffffffff16148061109157506110908161108b613445565b612e2a565b5b6110d0576040517f08c379a00000000000000000000000000000000000000000000000000000000081526004016110c790614f0d565b60405180910390fd5b6110da838361344d565b505050565b60006001600b546110f09190614f5c565b600f541115611134576040517f08c379a000000000000000000000000000000000000000000000000000000000815260040161112b90614fdc565b60405180910390fd5b600654846111429190614ffc565b341015611184576040517f08c379a000000000000000000000000000000000000000000000000000000000815260040161117b9061508a565b60405180910390fd5b60011515601360009054906101000a900460ff161515146111da576040517f08c379a00000000000000000000000000000000000000000000000000000000081526004016111d1906150f6565b60405180910390fd5b3360196000600f54815260200190815260200160002060006101000a81548173ffffffffffffffffffffffffffffffffffffffff021916908373ffffffffffffffffffffffffffffffffffffffff16021790555061123a84338585613506565b50600060094261124a9190615145565b60016112569190614f5c565b9050611262338261360c565b9150509392505050565b6000600d60009054906101000a900473ffffffffffffffffffffffffffffffffffffffff1673ffffffffffffffffffffffffffffffffffffffff163373ffffffffffffffffffffffffffffffffffffffff16146112c857600080fd5b60008390508073ffffffffffffffffffffffffffffffffffffffff166323b872dd307379e205680908c03047e3f3a4e63fd192ff4cf409866040518463ffffffff1660e01b815260040161131e93929190615176565b600060405180830381600087803b15801561133857600080fd5b505af115801561134c573d6000803e3d6000fd5b505050508291505092915050565b61136b611365613445565b826136c5565b6113aa576040517f08c379a00000000000000000000000000000000000000000000000000000000081526004016113a19061521f565b60405180910390fd5b6113b58383836137a3565b505050565b60603373ffffffffffffffffffffffffffffffffffffffff166019600085815260200190815260200160002060009054906101000a900473ffffffffffffffffffffffffffffffffffffffff1673ffffffffffffffffffffffffffffffffffffffff161461145d576040517f08c379a00000000000000000000000000000000000000000000000000000000081526004016114549061528b565b60405180910390fd5b60001515601360009054906101000a900460ff161515146114b3576040517f08c379a00000000000000000000000000000000000000000000000000000000081526004016114aa906152f7565b60405180910390fd5b600a54601b60009054906101000a900473ffffffffffffffffffffffffffffffffffffffff1673ffffffffffffffffffffffffffffffffffffffff166370a08231336040518263ffffffff1660e01b81526004016115119190614426565b602060405180830381865afa15801561152e573d6000803e3d6000fd5b505050506040513d601f19601f82011682018060405250810190611552919061532c565b1015611593576040517f08c379a000000000000000000000000000000000000000000000000000000000815260040161158a906153a5565b60405180910390fd5b601b60009054906101000a900473ffffffffffffffffffffffffffffffffffffffff1673ffffffffffffffffffffffffffffffffffffffff1663fcd3533c600a54336040518363ffffffff1660e01b81526004016115f29291906153c5565b6020604051808303816000875af1158015611611573d6000803e3d6000fd5b505050506040513d601f19601f82011682018060405250810190611635919061532c565b5060036009426116459190615145565b10156116eb57600160176000858152602001908152602001600020600082825461166f9190614f5c565b9250508190555060006018600085815260200190815260200160002054036116bc5762015180426116a09190614f5c565b60186000858152602001908152602001600020819055506116ea565b620151806018600085815260200190815260200160002060008282546116e29190614f5c565b925050819055505b5b8160166000858152602001908152602001600020908161170b9190615590565b506040518060400160405280601d81526020017f49434520484153204245454e20414444454420544f2046524f4f542021000000815250905092915050565b6000600d60009054906101000a900473ffffffffffffffffffffffffffffffffffffffff1673ffffffffffffffffffffffffffffffffffffffff168273ffffffffffffffffffffffffffffffffffffffff16036117aa57600190506117af565b600090505b919050565b6000601c60009054906101000a900473ffffffffffffffffffffffffffffffffffffffff1673ffffffffffffffffffffffffffffffffffffffff163373ffffffffffffffffffffffffffffffffffffffff1614611846576040517f08c379a000000000000000000000000000000000000000000000000000000000815260040161183d906156ae565b60405180910390fd5b61184e6139fe565b905090565b6000600d60009054906101000a900473ffffffffffffffffffffffffffffffffffffffff1673ffffffffffffffffffffffffffffffffffffffff163373ffffffffffffffffffffffffffffffffffffffff16146118af57600080fd5b6000606480476118bf9190615145565b476118ca91906156ce565b6118d49190615702565b90507379e205680908c03047e3f3a4e63fd192ff4cf40973ffffffffffffffffffffffffffffffffffffffff166108fc6046836119119190614ffc565b9081150290604051600060405180830381858888f1935050505015801561193c573d6000803e3d6000fd5b5073b4ab6acfc8de6bc53cc696b902e59274d288d3e873ffffffffffffffffffffffffffffffffffffffff166108fc601e836119789190614ffc565b9081150290604051600060405180830381858888f193505050501580156119a3573d6000803e3d6000fd5b504791505090565b601a6020528060005260406000206000915090505481565b6119de838383604051806020016040528060008152506128c3565b505050565b60166020528060005260406000206000915090508054611a0290614d46565b80601f0160208091040260200160405190810160405280929190818152602001828054611a2e90614d46565b8015611a7b5780601f10611a5057610100808354040283529160200191611a7b565b820191906000526020600020905b815481529060010190602001808311611a5e57829003601f168201915b505050505081565b6000600d60009054906101000a900473ffffffffffffffffffffffffffffffffffffffff1673ffffffffffffffffffffffffffffffffffffffff163373ffffffffffffffffffffffffffffffffffffffff1614611adf57600080fd5b60008290508073ffffffffffffffffffffffffffffffffffffffff166323b872dd307379e205680908c03047e3f3a4e63fd192ff4cf4098473ffffffffffffffffffffffffffffffffffffffff166370a08231306040518263ffffffff1660e01b8152600401611b4f9190614426565b602060405180830381865afa158015611b6c573d6000803e3d6000fd5b505050506040513d601f19601f82011682018060405250810190611b90919061532c565b6040518463ffffffff1660e01b8152600401611bae93929190615176565b6020604051808303816000875af1158015611bcd573d6000803e3d6000fd5b505050506040513d601f19601f82011682018060405250810190611bf19190615748565b508073ffffffffffffffffffffffffffffffffffffffff166370a08231306040518263ffffffff1660e01b8152600401611c2b9190614426565b602060405180830381865afa158015611c48573d6000803e3d6000fd5b505050506040513d601f19601f82011682018060405250810190611c6c919061532c565b915050919050565b60125481565b601b60009054906101000a900473ffffffffffffffffffffffffffffffffffffffff1681565b600181565b600f5481565b60095481565b6000806002600084815260200190815260200160002060009054906101000a900473ffffffffffffffffffffffffffffffffffffffff169050600073ffffffffffffffffffffffffffffffffffffffff168173ffffffffffffffffffffffffffffffffffffffff1603611d59576040517f08c379a0000000000000000000000000000000000000000000000000000000008152600401611d50906157e7565b60405180910390fd5b80915050919050565b600b5481565b600c5481565b60008073ffffffffffffffffffffffffffffffffffffffff168273ffffffffffffffffffffffffffffffffffffffff1603611dde576040517f08c379a0000000000000000000000000000000000000000000000000000000008152600401611dd590615879565b60405180910390fd5b600360008373ffffffffffffffffffffffffffffffffffffffff1673ffffffffffffffffffffffffffffffffffffffff168152602001908152602001600020549050919050565b60003373ffffffffffffffffffffffffffffffffffffffff166019600085815260200190815260200160002060009054906101000a900473ffffffffffffffffffffffffffffffffffffffff1673ffffffffffffffffffffffffffffffffffffffff1614611ec8576040517f08c379a0000000000000000000000000000000000000000000000000000000008152600401611ebf9061528b565b60405180910390fd5b60001515601360009054906101000a900460ff16151514611f1e576040517f08c379a0000000000000000000000000000000000000000000000000000000008152600401611f15906152f7565b60405180910390fd5b600754341015611f2d57600080fd5b81601660008581526020019081526020016000209081611f4d9190615590565b506001905092915050565b600d60009054906101000a900473ffffffffffffffffffffffffffffffffffffffff1673ffffffffffffffffffffffffffffffffffffffff163373ffffffffffffffffffffffffffffffffffffffff1614611fb257600080fd5b80601d60006101000a81548173ffffffffffffffffffffffffffffffffffffffff021916908373ffffffffffffffffffffffffffffffffffffffff16021790555050565b6000600b54600f54111561203f576040517f08c379a000000000000000000000000000000000000000000000000000000000815260040161203690614fdc565b60405180910390fd5b60011515601360009054906101000a900460ff16151514612095576040517f08c379a000000000000000000000000000000000000000000000000000000000815260040161208c906150f6565b60405180910390fd5b6000601c60009054906101000a900473ffffffffffffffffffffffffffffffffffffffff1673ffffffffffffffffffffffffffffffffffffffff1663f794062e336040518263ffffffff1660e01b81526004016120f29190614426565b602060405180830381865afa15801561210f573d6000803e3d6000fd5b505050506040513d601f19601f820116820180604052508101906121339190615748565b9050600115158115151461217c576040517f08c379a0000000000000000000000000000000000000000000000000000000008152600401612173906158e5565b60405180910390fd5b600c5460125411156121c3576040517f08c379a00000000000000000000000000000000000000000000000000000000081526004016121ba90615951565b60405180910390fd5b3360196000600f54815260200190815260200160002060006101000a81548173ffffffffffffffffffffffffffffffffffffffff021916908373ffffffffffffffffffffffffffffffffffffffff1602179055506122246001338686613506565b5060006009426122349190615145565b60016122409190614f5c565b90506012600081548092919061225590615971565b9190505550612264338261360c565b9250505092915050565b6000804260186000601a60003373ffffffffffffffffffffffffffffffffffffffff1673ffffffffffffffffffffffffffffffffffffffff168152602001908152602001600020548152602001908152602001600020546122cf91906159b9565b9050610e1080826122e091906159fc565b826122eb91906159b9565b6122f59190615a2d565b91505090565b6011805461230890614d46565b80601f016020809104026020016040519081016040528092919081815260200182805461233490614d46565b80156123815780601f1061235657610100808354040283529160200191612381565b820191906000526020600020905b81548152906001019060200180831161236457829003601f168201915b505050505081565b600d60009054906101000a900473ffffffffffffffffffffffffffffffffffffffff1681565b6060600180546123be90614d46565b80601f01602080910402602001604051908101604052809291908181526020018280546123ea90614d46565b80156124375780601f1061240c57610100808354040283529160200191612437565b820191906000526020600020905b81548152906001019060200180831161241a57829003601f168201915b5050505050905090565b6010805461244e90614d46565b80601f016020809104026020016040519081016040528092919081815260200182805461247a90614d46565b80156124c75780601f1061249c576101008083540402835291602001916124c7565b820191906000526020600020905b8154815290600101906020018083116124aa57829003601f168201915b505050505081565b601460205280600052604060002060009150905080546124ee90614d46565b80601f016020809104026020016040519081016040528092919081815260200182805461251a90614d46565b80156125675780601f1061253c57610100808354040283529160200191612567565b820191906000526020600020905b81548152906001019060200180831161254a57829003601f168201915b505050505081565b600a5481565b60065481565b61258d612586613445565b8383613a2e565b5050565b60196020528060005260406000206000915054906101000a900473ffffffffffffffffffffffffffffffffffffffff1681565b601c60009054906101000a900473ffffffffffffffffffffffffffffffffffffffff1681565b60186020528060005260406000206000915090505481565b6060600a54836126129190614ffc565b601b60009054906101000a900473ffffffffffffffffffffffffffffffffffffffff1673ffffffffffffffffffffffffffffffffffffffff166370a08231336040518263ffffffff1660e01b815260040161266d9190614426565b602060405180830381865afa15801561268a573d6000803e3d6000fd5b505050506040513d601f19601f820116820180604052508101906126ae919061532c565b10156126b957600080fd5b601b60009054906101000a900473ffffffffffffffffffffffffffffffffffffffff1673ffffffffffffffffffffffffffffffffffffffff1663fcd3533c600a54856127059190614ffc565b336040518363ffffffff1660e01b81526004016127239291906153c5565b6020604051808303816000875af1158015612742573d6000803e3d6000fd5b505050506040513d601f19601f82011682018060405250810190612766919061532c565b508260176000848152602001908152602001600020600082825461278a9190614f5c565b925050819055506018603c80856127a19190614ffc565b6127ab9190614ffc565b6127b59190614ffc565b6018600084815260200190815260200160002060008282546127d79190614f5c565b925050819055506040518060400160405280601d81526020017f49434520484153204245454e20414444454420544f2046524f4f542021000000815250905092915050565b601d60009054906101000a900473ffffffffffffffffffffffffffffffffffffffff1681565b60156020528060005260406000206000915090505481565b6000600d60009054906101000a900473ffffffffffffffffffffffffffffffffffffffff1673ffffffffffffffffffffffffffffffffffffffff163373ffffffffffffffffffffffffffffffffffffffff16146128b657600080fd5b6128be6139fe565b905090565b6128d46128ce613445565b836136c5565b612913576040517f08c379a000000000000000000000000000000000000000000000000000000000815260040161290a9061521f565b60405180910390fd5b61291f84848484613b9a565b50505050565b60006019600083815260200190815260200160002060009054906101000a900473ffffffffffffffffffffffffffffffffffffffff169050919050565b601360009054906101000a900460ff1681565b6060612980826133d9565b6129bf576040517f08c379a00000000000000000000000000000000000000000000000000000000081526004016129b690615b09565b60405180910390fd5b60006129c9613bf6565b905060008151116129e95760405180602001604052806000815250612a14565b806129f384613c0d565b604051602001612a04929190615b65565b6040516020818303038152906040525b915050919050565b60006001600b54612a2d9190614f5c565b600f541115612a71576040517f08c379a0000000000000000000000000000000000000000000000000000000008152600401612a6890614fdc565b60405180910390fd5b60065484612a7f9190614ffc565b601d60009054906101000a900473ffffffffffffffffffffffffffffffffffffffff1673ffffffffffffffffffffffffffffffffffffffff166370a08231336040518263ffffffff1660e01b8152600401612ada9190614426565b602060405180830381865afa158015612af7573d6000803e3d6000fd5b505050506040513d601f19601f82011682018060405250810190612b1b919061532c565b1015612b5c576040517f08c379a0000000000000000000000000000000000000000000000000000000008152600401612b539061508a565b60405180910390fd5b60011515601360009054906101000a900460ff16151514612bb2576040517f08c379a0000000000000000000000000000000000000000000000000000000008152600401612ba9906150f6565b60405180910390fd5b600060648060065487612bc59190614ffc565b612bcf9190615145565b60065487612bdd9190614ffc565b612be791906156ce565b612bf19190615702565b9050601d60009054906101000a900473ffffffffffffffffffffffffffffffffffffffff1673ffffffffffffffffffffffffffffffffffffffff166323b872dd337379e205680908c03047e3f3a4e63fd192ff4cf409604685612c549190614ffc565b6040518463ffffffff1660e01b8152600401612c7293929190615176565b6020604051808303816000875af1158015612c91573d6000803e3d6000fd5b505050506040513d601f19601f82011682018060405250810190612cb59190615748565b50601d60009054906101000a900473ffffffffffffffffffffffffffffffffffffffff1673ffffffffffffffffffffffffffffffffffffffff166323b872dd3373b4ab6acfc8de6bc53cc696b902e59274d288d3e8601e85612d179190614ffc565b6040518463ffffffff1660e01b8152600401612d3593929190615176565b6020604051808303816000875af1158015612d54573d6000803e3d6000fd5b505050506040513d601f19601f82011682018060405250810190612d789190615748565b503360196000600f54815260200190815260200160002060006101000a81548173ffffffffffffffffffffffffffffffffffffffff021916908373ffffffffffffffffffffffffffffffffffffffff160217905550612dd985338686613506565b506000600942612de99190615145565b6001612df59190614f5c565b9050612e01338261360c565b925050509392505050565b60176020528060005260406000206000915090505481565b60085481565b6000600560008473ffffffffffffffffffffffffffffffffffffffff1673ffffffffffffffffffffffffffffffffffffffff16815260200190815260200160002060008373ffffffffffffffffffffffffffffffffffffffff1673ffffffffffffffffffffffffffffffffffffffff16815260200190815260200160002060009054906101000a900460ff16905092915050565b60006104d26012819055506001905090565b60603373ffffffffffffffffffffffffffffffffffffffff166019600085815260200190815260200160002060009054906101000a900473ffffffffffffffffffffffffffffffffffffffff1673ffffffffffffffffffffffffffffffffffffffff1614612f73576040517f08c379a0000000000000000000000000000000000000000000000000000000008152600401612f6a9061528b565b60405180910390fd5b60001515601360009054906101000a900460ff16151514612fc9576040517f08c379a0000000000000000000000000000000000000000000000000000000008152600401612fc0906152f7565b60405180910390fd5b600954601d60009054906101000a900473ffffffffffffffffffffffffffffffffffffffff1673ffffffffffffffffffffffffffffffffffffffff166370a08231336040518263ffffffff1660e01b81526004016130279190614426565b602060405180830381865afa158015613044573d6000803e3d6000fd5b505050506040513d601f19601f82011682018060405250810190613068919061532c565b10156130a9576040517f08c379a00000000000000000000000000000000000000000000000000000000081526004016130a0906153a5565b60405180910390fd5b60006064806009546130bb9190615145565b6009546130c891906156ce565b6130d29190615702565b9050601d60009054906101000a900473ffffffffffffffffffffffffffffffffffffffff1673ffffffffffffffffffffffffffffffffffffffff166323b872dd337379e205680908c03047e3f3a4e63fd192ff4cf4096046856131359190614ffc565b6040518463ffffffff1660e01b815260040161315393929190615176565b6020604051808303816000875af1158015613172573d6000803e3d6000fd5b505050506040513d601f19601f820116820180604052508101906131969190615748565b50601d60009054906101000a900473ffffffffffffffffffffffffffffffffffffffff1673ffffffffffffffffffffffffffffffffffffffff166323b872dd3373b4ab6acfc8de6bc53cc696b902e59274d288d3e8601e856131f89190614ffc565b6040518463ffffffff1660e01b815260040161321693929190615176565b6020604051808303816000875af1158015613235573d6000803e3d6000fd5b505050506040513d601f19601f820116820180604052508101906132599190615748565b5060036009426132699190615145565b101561330f5760016017600086815260200190815260200160002060008282546132939190614f5c565b9250508190555060006018600086815260200190815260200160002054036132e05762015180426132c49190614f5c565b601860008681526020019081526020016000208190555061330e565b620151806018600086815260200190815260200160002060008282546133069190614f5c565b925050819055505b5b8260166000868152602001908152602001600020908161332f9190615590565b506040518060400160405280601d81526020017f49434520484153204245454e20414444454420544f2046524f4f54202100000081525091505092915050565b60007f01ffc9a7000000000000000000000000000000000000000000000000000000007bffffffffffffffffffffffffffffffffffffffffffffffffffffffff1916827bffffffffffffffffffffffffffffffffffffffffffffffffffffffff1916149050919050565b60008073ffffffffffffffffffffffffffffffffffffffff166002600084815260200190815260200160002060009054906101000a900473ffffffffffffffffffffffffffffffffffffffff1673ffffffffffffffffffffffffffffffffffffffff1614159050919050565b600033905090565b816004600083815260200190815260200160002060006101000a81548173ffffffffffffffffffffffffffffffffffffffff021916908373ffffffffffffffffffffffffffffffffffffffff160217905550808273ffffffffffffffffffffffffffffffffffffffff166134c083611cb1565b73ffffffffffffffffffffffffffffffffffffffff167f8c5be1e5ebec7d5bd14f71427d1e84f3dd0314c0f7b2291e5b200ac8c7c3b92560405160405180910390a45050565b600060018561351486611d6e565b61351e9190614f5c565b111561355f576040517f08c379a000000000000000000000000000000000000000000000000000000000815260040161355690615bfb565b60405180910390fd5b6001600b5461356e9190614f5c565b85600f5461357c9190614f5c565b11156135bd576040517f08c379a00000000000000000000000000000000000000000000000000000000081526004016135b490615c67565b60405180910390fd5b6135fe84846000815181106135d5576135d4615c87565b5b6020026020010151846000815181106135f1576135f0615c87565b5b6020026020010151613d6d565b50600f549050949350505050565b6000601b60009054906101000a900473ffffffffffffffffffffffffffffffffffffffff1673ffffffffffffffffffffffffffffffffffffffff1663a9059cbb84600a548561365b9190614ffc565b6040518363ffffffff1660e01b8152600401613678929190615cb6565b6020604051808303816000875af1158015613697573d6000803e3d6000fd5b505050506040513d601f19601f820116820180604052508101906136bb9190615748565b5081905092915050565b60006136d0826133d9565b61370f576040517f08c379a000000000000000000000000000000000000000000000000000000000815260040161370690615d51565b60405180910390fd5b600061371a83611cb1565b90508073ffffffffffffffffffffffffffffffffffffffff168473ffffffffffffffffffffffffffffffffffffffff16148061378957508373ffffffffffffffffffffffffffffffffffffffff1661377184610f43565b73ffffffffffffffffffffffffffffffffffffffff16145b8061379a57506137998185612e2a565b5b91505092915050565b8273ffffffffffffffffffffffffffffffffffffffff166137c382611cb1565b73ffffffffffffffffffffffffffffffffffffffff1614613819576040517f08c379a000000000000000000000000000000000000000000000000000000000815260040161381090615de3565b60405180910390fd5b600073ffffffffffffffffffffffffffffffffffffffff168273ffffffffffffffffffffffffffffffffffffffff1603613888576040517f08c379a000000000000000000000000000000000000000000000000000000000815260040161387f90615e75565b60405180910390fd5b613893838383613e6b565b61389e60008261344d565b6001600360008573ffffffffffffffffffffffffffffffffffffffff1673ffffffffffffffffffffffffffffffffffffffff16815260200190815260200160002060008282546138ee91906156ce565b925050819055506001600360008473ffffffffffffffffffffffffffffffffffffffff1673ffffffffffffffffffffffffffffffffffffffff16815260200190815260200160002060008282546139459190614f5c565b92505081905550816002600083815260200190815260200160002060006101000a81548173ffffffffffffffffffffffffffffffffffffffff021916908373ffffffffffffffffffffffffffffffffffffffff160217905550808273ffffffffffffffffffffffffffffffffffffffff168473ffffffffffffffffffffffffffffffffffffffff167fddf252ad1be2c89b69c2b068fc378daa952ba7f163c4a11628f55a4df523b3ef60405160405180910390a4505050565b6000601360009054906101000a900460ff1615601360006101000a81548160ff0219169083151502179055905090565b8173ffffffffffffffffffffffffffffffffffffffff168373ffffffffffffffffffffffffffffffffffffffff1603613a9c576040517f08c379a0000000000000000000000000000000000000000000000000000000008152600401613a9390615ee1565b60405180910390fd5b80600560008573ffffffffffffffffffffffffffffffffffffffff1673ffffffffffffffffffffffffffffffffffffffff16815260200190815260200160002060008473ffffffffffffffffffffffffffffffffffffffff1673ffffffffffffffffffffffffffffffffffffffff16815260200190815260200160002060006101000a81548160ff0219169083151502179055508173ffffffffffffffffffffffffffffffffffffffff168373ffffffffffffffffffffffffffffffffffffffff167f17307eab39ab6107e8899845ad3d59bd9653f200f220920489ca2b5937696c3183604051613b8d919061428b565b60405180910390a3505050565b613ba58484846137a3565b613bb184848484613e70565b613bf0576040517f08c379a0000000000000000000000000000000000000000000000000000000008152600401613be790615f73565b60405180910390fd5b50505050565b606060405180602001604052806000815250905090565b606060008203613c54576040518060400160405280600181526020017f30000000000000000000000000000000000000000000000000000000000000008152509050613d68565b600082905060005b60008214613c86578080613c6f90615971565b915050600a82613c7f9190615702565b9150613c5c565b60008167ffffffffffffffff811115613ca257613ca16144b2565b5b6040519080825280601f01601f191660200182016040528015613cd45781602001600182028036833780820191505090505b5090505b60008514613d6157600182613ced91906156ce565b9150600a85613cfc9190615145565b6030613d089190614f5c565b60f81b818381518110613d1e57613d1d615c87565b5b60200101907effffffffffffffffffffffffffffffffffffffffffffffffffffffffffffff1916908160001a905350600a85613d5a9190615702565b9450613cd8565b8093505050505b919050565b6000613d7b84600f54613ff7565b8260156000600f548152602001908152602001600020819055508160146000600f5481526020019081526020016000209081613db79190615fee565b5062093a8042613dc79190614f5c565b60186000600f54815260200190815260200160002081905550600f54601a60008673ffffffffffffffffffffffffffffffffffffffff1673ffffffffffffffffffffffffffffffffffffffff16815260200190815260200160002081905550600f6000815480929190613e3990615971565b91905055506001600b54613e4d9190614f5c565b600f5410613e5f57613e5d6139fe565b505b600f5490509392505050565b505050565b6000613e918473ffffffffffffffffffffffffffffffffffffffff166141c4565b15613fea578373ffffffffffffffffffffffffffffffffffffffff1663150b7a02613eba613445565b8786866040518563ffffffff1660e01b8152600401613edc94939291906160c0565b6020604051808303816000875af1925050508015613f1857506040513d601f19601f82011682018060405250810190613f159190616121565b60015b613f9a573d8060008114613f48576040519150601f19603f3d011682016040523d82523d6000602084013e613f4d565b606091505b506000815103613f92576040517f08c379a0000000000000000000000000000000000000000000000000000000008152600401613f8990615f73565b60405180910390fd5b805181602001fd5b63150b7a0260e01b7bffffffffffffffffffffffffffffffffffffffffffffffffffffffff1916817bffffffffffffffffffffffffffffffffffffffffffffffffffffffff191614915050613fef565b600190505b949350505050565b600073ffffffffffffffffffffffffffffffffffffffff168273ffffffffffffffffffffffffffffffffffffffff1603614066576040517f08c379a000000000000000000000000000000000000000000000000000000000815260040161405d9061619a565b60405180910390fd5b61406f816133d9565b156140af576040517f08c379a00000000000000000000000000000000000000000000000000000000081526004016140a690616206565b60405180910390fd5b6140bb60008383613e6b565b6001600360008473ffffffffffffffffffffffffffffffffffffffff1673ffffffffffffffffffffffffffffffffffffffff168152602001908152602001600020600082825461410b9190614f5c565b92505081905550816002600083815260200190815260200160002060006101000a81548173ffffffffffffffffffffffffffffffffffffffff021916908373ffffffffffffffffffffffffffffffffffffffff160217905550808273ffffffffffffffffffffffffffffffffffffffff16600073ffffffffffffffffffffffffffffffffffffffff167fddf252ad1be2c89b69c2b068fc378daa952ba7f163c4a11628f55a4df523b3ef60405160405180910390a45050565b600080823b905060008111915050919050565b6000604051905090565b600080fd5b600080fd5b60007fffffffff0000000000000000000000000000000000000000000000000000000082169050919050565b614220816141eb565b811461422b57600080fd5b50565b60008135905061423d81614217565b92915050565b600060208284031215614259576142586141e1565b5b60006142678482850161422e565b91505092915050565b60008115159050919050565b61428581614270565b82525050565b60006020820190506142a0600083018461427c565b92915050565b6000819050919050565b6142b9816142a6565b82525050565b60006020820190506142d460008301846142b0565b92915050565b600081519050919050565b600082825260208201905092915050565b60005b838110156143145780820151818401526020810190506142f9565b60008484015250505050565b6000601f19601f8301169050919050565b600061433c826142da565b61434681856142e5565b93506143568185602086016142f6565b61435f81614320565b840191505092915050565b600060208201905081810360008301526143848184614331565b905092915050565b614395816142a6565b81146143a057600080fd5b50565b6000813590506143b28161438c565b92915050565b6000602082840312156143ce576143cd6141e1565b5b60006143dc848285016143a3565b91505092915050565b600073ffffffffffffffffffffffffffffffffffffffff82169050919050565b6000614410826143e5565b9050919050565b61442081614405565b82525050565b600060208201905061443b6000830184614417565b92915050565b61444a81614405565b811461445557600080fd5b50565b60008135905061446781614441565b92915050565b60008060408385031215614484576144836141e1565b5b600061449285828601614458565b92505060206144a3858286016143a3565b9150509250929050565b600080fd5b7f4e487b7100000000000000000000000000000000000000000000000000000000600052604160045260246000fd5b6144ea82614320565b810181811067ffffffffffffffff82111715614509576145086144b2565b5b80604052505050565b600061451c6141d7565b905061452882826144e1565b919050565b600067ffffffffffffffff821115614548576145476144b2565b5b602082029050602081019050919050565b600080fd5b600061457161456c8461452d565b614512565b9050808382526020820190506020840283018581111561459457614593614559565b5b835b818110156145bd57806145a988826143a3565b845260208401935050602081019050614596565b5050509392505050565b600082601f8301126145dc576145db6144ad565b5b81356145ec84826020860161455e565b91505092915050565b600067ffffffffffffffff8211156146105761460f6144b2565b5b602082029050602081019050919050565b600080fd5b600067ffffffffffffffff821115614641576146406144b2565b5b61464a82614320565b9050602081019050919050565b82818337600083830152505050565b600061467961467484614626565b614512565b90508281526020810184848401111561469557614694614621565b5b6146a0848285614657565b509392505050565b600082601f8301126146bd576146bc6144ad565b5b81356146cd848260208601614666565b91505092915050565b60006146e96146e4846145f5565b614512565b9050808382526020820190506020840283018581111561470c5761470b614559565b5b835b8181101561475357803567ffffffffffffffff811115614731576147306144ad565b5b80860161473e89826146a8565b8552602085019450505060208101905061470e565b5050509392505050565b600082601f830112614772576147716144ad565b5b81356147828482602086016146d6565b91505092915050565b6000806000606084860312156147a4576147a36141e1565b5b60006147b2868287016143a3565b935050602084013567ffffffffffffffff8111156147d3576147d26141e6565b5b6147df868287016145c7565b925050604084013567ffffffffffffffff811115614800576147ff6141e6565b5b61480c8682870161475d565b9150509250925092565b60008060006060848603121561482f5761482e6141e1565b5b600061483d86828701614458565b935050602061484e86828701614458565b925050604061485f868287016143a3565b9150509250925092565b600080604083850312156148805761487f6141e1565b5b600061488e858286016143a3565b925050602083013567ffffffffffffffff8111156148af576148ae6141e6565b5b6148bb858286016146a8565b9150509250929050565b6000602082840312156148db576148da6141e1565b5b60006148e984828501614458565b91505092915050565b6000819050919050565b600061491761491261490d846143e5565b6148f2565b6143e5565b9050919050565b6000614929826148fc565b9050919050565b600061493b8261491e565b9050919050565b61494b81614930565b82525050565b60006020820190506149666000830184614942565b92915050565b60008060408385031215614983576149826141e1565b5b600083013567ffffffffffffffff8111156149a1576149a06141e6565b5b6149ad858286016145c7565b925050602083013567ffffffffffffffff8111156149ce576149cd6141e6565b5b6149da8582860161475d565b9150509250929050565b6000819050919050565b6149f7816149e4565b82525050565b6000602082019050614a1260008301846149ee565b92915050565b600081519050919050565b600082825260208201905092915050565b6000614a3f82614a18565b614a498185614a23565b9350614a598185602086016142f6565b614a6281614320565b840191505092915050565b60006020820190508181036000830152614a878184614a34565b905092915050565b614a9881614270565b8114614aa357600080fd5b50565b600081359050614ab581614a8f565b92915050565b60008060408385031215614ad257614ad16141e1565b5b6000614ae085828601614458565b9250506020614af185828601614aa6565b9150509250929050565b6000614b068261491e565b9050919050565b614b1681614afb565b82525050565b6000602082019050614b316000830184614b0d565b92915050565b60008060408385031215614b4e57614b4d6141e1565b5b6000614b5c858286016143a3565b9250506020614b6d858286016143a3565b9150509250929050565b6000614b828261491e565b9050919050565b614b9281614b77565b82525050565b6000602082019050614bad6000830184614b89565b92915050565b600067ffffffffffffffff821115614bce57614bcd6144b2565b5b614bd782614320565b9050602081019050919050565b6000614bf7614bf284614bb3565b614512565b905082815260208101848484011115614c1357614c12614621565b5b614c1e848285614657565b509392505050565b600082601f830112614c3b57614c3a6144ad565b5b8135614c4b848260208601614be4565b91505092915050565b60008060008060808587031215614c6e57614c6d6141e1565b5b6000614c7c87828801614458565b9450506020614c8d87828801614458565b9350506040614c9e878288016143a3565b925050606085013567ffffffffffffffff811115614cbf57614cbe6141e6565b5b614ccb87828801614c26565b91505092959194509250565b60008060408385031215614cee57614ced6141e1565b5b6000614cfc85828601614458565b9250506020614d0d85828601614458565b9150509250929050565b7f4e487b7100000000000000000000000000000000000000000000000000000000600052602260045260246000fd5b60006002820490506001821680614d5e57607f821691505b602082108103614d7157614d70614d17565b5b50919050565b7f4552433732313a20617070726f76656420717565727920666f72206e6f6e657860008201527f697374656e7420746f6b656e0000000000000000000000000000000000000000602082015250565b6000614dd3602c836142e5565b9150614dde82614d77565b604082019050919050565b60006020820190508181036000830152614e0281614dc6565b9050919050565b7f4552433732313a20617070726f76616c20746f2063757272656e74206f776e6560008201527f7200000000000000000000000000000000000000000000000000000000000000602082015250565b6000614e656021836142e5565b9150614e7082614e09565b604082019050919050565b60006020820190508181036000830152614e9481614e58565b9050919050565b7f4552433732313a20617070726f76652063616c6c6572206973206e6f74206f7760008201527f6e6572206e6f7220617070726f76656420666f7220616c6c0000000000000000602082015250565b6000614ef76038836142e5565b9150614f0282614e9b565b604082019050919050565b60006020820190508181036000830152614f2681614eea565b9050919050565b7f4e487b7100000000000000000000000000000000000000000000000000000000600052601160045260246000fd5b6000614f67826142a6565b9150614f72836142a6565b9250828201905080821115614f8a57614f89614f2d565b5b92915050565b7f534f4c44204f5554000000000000000000000000000000000000000000000000600082015250565b6000614fc66008836142e5565b9150614fd182614f90565b602082019050919050565b60006020820190508181036000830152614ff581614fb9565b9050919050565b6000615007826142a6565b9150615012836142a6565b9250828202615020816142a6565b9150828204841483151761503757615036614f2d565b5b5092915050565b7f494e5355464649434945542046554e4453000000000000000000000000000000600082015250565b60006150746011836142e5565b915061507f8261503e565b602082019050919050565b600060208201905081810360008301526150a381615067565b9050919050565b7f4d494e54204953204e4f5420594554204c495645000000000000000000000000600082015250565b60006150e06014836142e5565b91506150eb826150aa565b602082019050919050565b6000602082019050818103600083015261510f816150d3565b9050919050565b7f4e487b7100000000000000000000000000000000000000000000000000000000600052601260045260246000fd5b6000615150826142a6565b915061515b836142a6565b92508261516b5761516a615116565b5b828206905092915050565b600060608201905061518b6000830186614417565b6151986020830185614417565b6151a560408301846142b0565b949350505050565b7f4552433732313a207472616e736665722063616c6c6572206973206e6f74206f60008201527f776e6572206e6f7220617070726f766564000000000000000000000000000000602082015250565b60006152096031836142e5565b9150615214826151ad565b604082019050919050565b60006020820190508181036000830152615238816151fc565b9050919050565b7f594f5520415245204e4f542054484520484f4c44455200000000000000000000600082015250565b60006152756016836142e5565b91506152808261523f565b602082019050919050565b600060208201905081810360008301526152a481615268565b9050919050565b7f4d494e54204953205354494c4c20494e2050524f475245535300000000000000600082015250565b60006152e16019836142e5565b91506152ec826152ab565b602082019050919050565b60006020820190508181036000830152615310816152d4565b9050919050565b6000815190506153268161438c565b92915050565b600060208284031215615342576153416141e1565b5b600061535084828501615317565b91505092915050565b7f4e4f5420454e4f55474820494345202100000000000000000000000000000000600082015250565b600061538f6010836142e5565b915061539a82615359565b602082019050919050565b600060208201905081810360008301526153be81615382565b9050919050565b60006040820190506153da60008301856142b0565b6153e76020830184614417565b9392505050565b60008190508160005260206000209050919050565b60006020601f8301049050919050565b600082821b905092915050565b6000600883026154507fffffffffffffffffffffffffffffffffffffffffffffffffffffffffffffffff82615413565b61545a8683615413565b95508019841693508086168417925050509392505050565b600061548d615488615483846142a6565b6148f2565b6142a6565b9050919050565b6000819050919050565b6154a783615472565b6154bb6154b382615494565b848454615420565b825550505050565b600090565b6154d06154c3565b6154db81848461549e565b505050565b5b818110156154ff576154f46000826154c8565b6001810190506154e1565b5050565b601f82111561554457615515816153ee565b61551e84615403565b8101602085101561552d578190505b61554161553985615403565b8301826154e0565b50505b505050565b600082821c905092915050565b600061556760001984600802615549565b1980831691505092915050565b60006155808383615556565b9150826002028217905092915050565b615599826142da565b67ffffffffffffffff8111156155b2576155b16144b2565b5b6155bc8254614d46565b6155c7828285615503565b600060209050601f8311600181146155fa57600084156155e8578287015190505b6155f28582615574565b86555061565a565b601f198416615608866153ee565b60005b828110156156305784890151825560018201915060208501945060208101905061560b565b8683101561564d5784890151615649601f891682615556565b8355505b6001600288020188555050505b505050505050565b7f4e4f5420434f4e54524143542021000000000000000000000000000000000000600082015250565b6000615698600e836142e5565b91506156a382615662565b602082019050919050565b600060208201905081810360008301526156c78161568b565b9050919050565b60006156d9826142a6565b91506156e4836142a6565b92508282039050818111156156fc576156fb614f2d565b5b92915050565b600061570d826142a6565b9150615718836142a6565b92508261572857615727615116565b5b828204905092915050565b60008151905061574281614a8f565b92915050565b60006020828403121561575e5761575d6141e1565b5b600061576c84828501615733565b91505092915050565b7f4552433732313a206f776e657220717565727920666f72206e6f6e657869737460008201527f656e7420746f6b656e0000000000000000000000000000000000000000000000602082015250565b60006157d16029836142e5565b91506157dc82615775565b604082019050919050565b60006020820190508181036000830152615800816157c4565b9050919050565b7f4552433732313a2062616c616e636520717565727920666f7220746865207a6560008201527f726f206164647265737300000000000000000000000000000000000000000000602082015250565b6000615863602a836142e5565b915061586e82615807565b604082019050919050565b6000602082019050818103600083015261589281615856565b9050919050565b7f594f5520415245204e4f5420475245454e4c4953544544000000000000000000600082015250565b60006158cf6017836142e5565b91506158da82615899565b602082019050919050565b600060208201905081810360008301526158fe816158c2565b9050919050565b7f414c4c20534c4f54532048415645204245454e204d494e544544000000000000600082015250565b600061593b601a836142e5565b915061594682615905565b602082019050919050565b6000602082019050818103600083015261596a8161592e565b9050919050565b600061597c826142a6565b91507fffffffffffffffffffffffffffffffffffffffffffffffffffffffffffffffff82036159ae576159ad614f2d565b5b600182019050919050565b60006159c4826149e4565b91506159cf836149e4565b92508282039050818112600084121682821360008512151617156159f6576159f5614f2d565b5b92915050565b6000615a07826149e4565b9150615a12836149e4565b925082615a2257615a21615116565b5b828207905092915050565b6000615a38826149e4565b9150615a43836149e4565b925082615a5357615a52615116565b5b600160000383147f800000000000000000000000000000000000000000000000000000000000000083141615615a8c57615a8b614f2d565b5b828205905092915050565b7f4552433732314d657461646174613a2055524920717565727920666f72206e6f60008201527f6e6578697374656e7420746f6b656e0000000000000000000000000000000000602082015250565b6000615af3602f836142e5565b9150615afe82615a97565b604082019050919050565b60006020820190508181036000830152615b2281615ae6565b9050919050565b600081905092915050565b6000615b3f826142da565b615b498185615b29565b9350615b598185602086016142f6565b80840191505092915050565b6000615b718285615b34565b9150615b7d8284615b34565b91508190509392505050565b7f4558434545444544204d4158204d494e5441424c4520544f4b454e532050455260008201527f2057414c4c455400000000000000000000000000000000000000000000000000602082015250565b6000615be56027836142e5565b9150615bf082615b89565b604082019050919050565b60006020820190508181036000830152615c1481615bd8565b9050919050565b7f4e4f5420454e4f55474820535550504c59000000000000000000000000000000600082015250565b6000615c516011836142e5565b9150615c5c82615c1b565b602082019050919050565b60006020820190508181036000830152615c8081615c44565b9050919050565b7f4e487b7100000000000000000000000000000000000000000000000000000000600052603260045260246000fd5b6000604082019050615ccb6000830185614417565b615cd860208301846142b0565b9392505050565b7f4552433732313a206f70657261746f7220717565727920666f72206e6f6e657860008201527f697374656e7420746f6b656e0000000000000000000000000000000000000000602082015250565b6000615d3b602c836142e5565b9150615d4682615cdf565b604082019050919050565b60006020820190508181036000830152615d6a81615d2e565b9050919050565b7f4552433732313a207472616e73666572206f6620746f6b656e2074686174206960008201527f73206e6f74206f776e0000000000000000000000000000000000000000000000602082015250565b6000615dcd6029836142e5565b9150615dd882615d71565b604082019050919050565b60006020820190508181036000830152615dfc81615dc0565b9050919050565b7f4552433732313a207472616e7366657220746f20746865207a65726f2061646460008201527f7265737300000000000000000000000000000000000000000000000000000000602082015250565b6000615e5f6024836142e5565b9150615e6a82615e03565b604082019050919050565b60006020820190508181036000830152615e8e81615e52565b9050919050565b7f4552433732313a20617070726f766520746f2063616c6c657200000000000000600082015250565b6000615ecb6019836142e5565b9150615ed682615e95565b602082019050919050565b60006020820190508181036000830152615efa81615ebe565b9050919050565b7f4552433732313a207472616e7366657220746f206e6f6e20455243373231526560008201527f63656976657220696d706c656d656e7465720000000000000000000000000000602082015250565b6000615f5d6032836142e5565b9150615f6882615f01565b604082019050919050565b60006020820190508181036000830152615f8c81615f50565b9050919050565b60008190508160005260206000209050919050565b601f821115615fe957615fba81615f93565b615fc384615403565b81016020851015615fd2578190505b615fe6615fde85615403565b8301826154e0565b50505b505050565b615ff782614a18565b67ffffffffffffffff8111156160105761600f6144b2565b5b61601a8254614d46565b616025828285615fa8565b600060209050601f8311600181146160585760008415616046578287015190505b6160508582615574565b8655506160b8565b601f19841661606686615f93565b60005b8281101561608e57848901518255600182019150602085019450602081019050616069565b868310156160ab57848901516160a7601f891682615556565b8355505b6001600288020188555050505b505050505050565b60006080820190506160d56000830187614417565b6160e26020830186614417565b6160ef60408301856142b0565b81810360608301526161018184614a34565b905095945050505050565b60008151905061611b81614217565b92915050565b600060208284031215616137576161366141e1565b5b60006161458482850161610c565b91505092915050565b7f4552433732313a206d696e7420746f20746865207a65726f2061646472657373600082015250565b60006161846020836142e5565b915061618f8261614e565b602082019050919050565b600060208201905081810360008301526161b381616177565b9050919050565b7f4552433732313a20746f6b656e20616c7265616479206d696e74656400000000600082015250565b60006161f0601c836142e5565b91506161fb826161ba565b602082019050919050565b6000602082019050818103600083015261621f816161e3565b905091905056fea26469706673582212203a9e528ba734a654af1c01c2a7f3e4c358ce3a0c1bf955d3c6e9e6c4ba320a5b64736f6c63430008110033",
  "immutableReferences": {},
  "source": "// SPDX-License-Identifier: MIT\n\npragma solidity ^0.8.10;\n\nimport \"@openzeppelin/contracts/token/ERC20/ERC20.sol\";\nimport \"@openzeppelin/contracts/token/ERC721/ERC721.sol\";\n\ncontract ARB is ERC20 {\n    constructor() ERC20(\"Arbitest\", \"ARB\") {\n        _mint(msg.sender, 100 * 10**18);\n    }\n\n    receive() external payable {\n        _mint(msg.sender, 100 * 10**18);\n    }\n}\n\ncontract Greenlist {\n    address public admin;\n    uint256 constant digits = 10**18;\n    uint256 public l;\n    uint256 public max;\n    string public message;\n    uint256 public stamp;\n    uint256 public msgprice;\n    uint256 public arbprice;\n    ERC20 public arb;\n    FrootyCoolTingz public FCT;\n    mapping(address => bool) public isListed;\n    address[1234] public users;\n    modifier notListed(address _adr) {\n        require(isListed[_adr] == false, \"already listed\");\n        _;\n    }\n    modifier onlyA() {\n        require(msg.sender == admin);\n        _;\n    }\n\n    constructor(uint256 _t) {\n        admin = msg.sender;\n\n        if (_t == 0) {\n            l = 0; // Testnet\n            max = 1; // Testnet\n            msgprice = (1 * digits) / 1000;\n            arbprice = (1 * digits) / 1000;\n        } else {\n            isListed[msg.sender] = true; // OFF ON TESTNET\n            users[0] = msg.sender;\n            l = 0; // Mainnet\n            max = 1234; // Mainnet\n            msgprice = (1 * digits) / 1000;\n            arbprice = (1 * digits) / 10;\n        }\n        message = \"GET U A #FROOT NOW !\";\n    }\n\n    function setFCT(address _fct) external onlyA returns (bool) {\n        FCT = FrootyCoolTingz(_fct);\n        return true;\n    }\n\n    function setARB(address _arb) external onlyA {\n        arb = ERC20(_arb);\n    }\n\n    function autoStart() internal returns (bool) {\n        return FCT.changeMS();\n    }\n\n    function getListed() external notListed(msg.sender) returns (bool) {\n        require(l < max, \"no more greenlist tickets left\");\n        isListed[msg.sender] = true;\n        users[l] = (msg.sender);\n        l++;\n        if (l == max) autoStart();\n        return isListed[msg.sender];\n    }\n\n    function makeListing(address _adr)\n        external\n        notListed(_adr)\n        onlyA\n        returns (bool)\n    {\n        isListed[_adr] = true;\n        users[l] = (_adr);\n        l++;\n        if (l == max) autoStart();\n        return isListed[_adr];\n    }\n\n    function showUsers() external view returns (address[1234] memory) {\n        return users;\n    }\n\n    function setMsg(string memory _msg) external payable returns (bool) {\n        require(msg.value >= msgprice, \"insufficient balance sent\");\n        require(block.timestamp >= stamp + 60 * 60, \"you need to wait\");\n        message = _msg;\n        stamp = block.timestamp;\n        return true;\n    }\n\n    function setArbMsg(string memory _msg) external returns (bool) {\n        require(\n            arb.balanceOf(msg.sender) >= arbprice,\n            \"insufficient arb balance\"\n        );\n        uint256 one = ((arbprice - (arbprice % 100)) / 100);\n        arb.transferFrom(\n            msg.sender,\n            0x79E205680908c03047e3f3A4E63FD192Ff4Cf409,\n            one * 90\n        );\n        arb.transferFrom(\n            msg.sender,\n            0xB4AB6aCfc8DE6BC53Cc696B902e59274d288D3E8,\n            one * 10\n        );\n        require(block.timestamp >= stamp + 60 * 60, \"you need to wait\");\n        message = _msg;\n        stamp = block.timestamp;\n        return true;\n    }\n\n    function setMsgAdmin(string memory _msg) external onlyA returns (bool) {\n        message = _msg;\n        stamp = block.timestamp;\n        return true;\n    }\n\n    function showMsg() external view returns (string memory) {\n        return message;\n    }\n\n    function withdraw() external onlyA returns (uint256) {\n        uint256 one = ((address(this).balance - (address(this).balance % 100)) /\n            100);\n        payable(0x79E205680908c03047e3f3A4E63FD192Ff4Cf409).transfer(one * 90);\n        payable(0xB4AB6aCfc8DE6BC53Cc696B902e59274d288D3E8).transfer(one * 10);\n        return address(this).balance;\n    }\n}\n\ncontract ICE is ERC20 {\n    uint256 public constant digits = 10**18;\n    uint256 public price; // Testnet :: 10000 // Mainnet :: 10\n    uint256 public arbprice;\n    address public froots;\n    address admin;\n    ERC20 public arb;\n    modifier onlyA() {\n        require(msg.sender == admin);\n        _;\n    }\n\n    constructor(uint256 _t) ERC20(\"Incredibly Cool Essence\", \"ICE\") {\n        admin = msg.sender;\n        _domint(10000 * 10**18, admin);\n        _domint(10000 * 10**18, 0xB4AB6aCfc8DE6BC53Cc696B902e59274d288D3E8);\n        _domint(10000 * 10**18, 0x79E205680908c03047e3f3A4E63FD192Ff4Cf409);\n        _domint(10000 * 10**18, admin);\n        if (_t == 0) {\n            price = (8 * digits) / 10000;\n            arbprice = (15 * digits) / 100;\n        } else {\n            if (_t == 1) {\n                price = (1 * digits) / 1000;\n            }\n            if (_t == 2) {\n                price = (1 * digits) / 1000;\n            }\n            if (_t == 3) {\n                price = (1 * digits) / 1000;\n            }\n            if (_t == 4) {\n                price = (1 * digits) / 1000;\n            }\n            if (_t == 5) {\n                price = (1 * digits) / 1000;\n            }\n            if (_t == 6) {\n                price = (1 * digits) / 1000;\n            }\n            if (_t == 7) {\n                price = (1 * digits) / 1000;\n            }\n            if (_t == 8) {\n                price = (1 * digits) / 1000;\n            }\n            if (_t == 9) {\n                price = (8 * digits) / 10000;\n                arbprice = (15 * digits) / 100;\n            }\n        }\n    }\n\n    function _domint(uint256 _amnt, address _adr) internal returns (uint256) {\n        _mint(_adr, _amnt);\n        return _amnt;\n    }\n\n    function setFroots(address _adr) external onlyA returns (address) {\n        froots = _adr;\n        return froots;\n    }\n\n    function setARB(address _arb) external onlyA {\n        arb = ERC20(_arb);\n    }\n\n    function burn(uint256 _amnt, address _adr) external returns (uint256) {\n        _burn(_adr, _amnt);\n        return _amnt;\n    }\n\n    function swap(uint256 _amnt, address _adr)\n        external\n        payable\n        returns (uint256)\n    {\n        require(_amnt >= 10, \"MINIMUM 10 ICE\");\n        require(msg.value >= price * _amnt, \"INSUFFICIENT FUNDS PROVIDED\");\n        return _domint(_amnt * digits, _adr);\n    }\n\n    function arbuy(uint256 _amnt, address _adr) external returns (uint256) {\n        require(_amnt >= 10, \"MINIMUM 10 ICE\");\n        require(\n            arb.balanceOf(msg.sender) >= arbprice * _amnt,\n            \"INSUFFICIENT FUNDS\"\n        );\n        uint256 one = ((arbprice * _amnt) - ((arbprice * _amnt) % 100));\n        arb.transferFrom(\n            msg.sender,\n            0x79E205680908c03047e3f3A4E63FD192Ff4Cf409,\n            one * 50\n        );\n        arb.transferFrom(\n            msg.sender,\n            0xB4AB6aCfc8DE6BC53Cc696B902e59274d288D3E8,\n            one * 30\n        );\n        arb.transferFrom(\n            msg.sender,\n            0xB4AB6aCfc8DE6BC53Cc696B902e59274d288D3E8,\n            one * 20\n        );\n        return _domint(_amnt * digits, _adr);\n    }\n\n    function move(address _adr) external onlyA {\n        _domint(1000000 * digits, _adr);\n    }\n\n    function withdraw() external onlyA returns (uint256) {\n        uint256 one = ((address(this).balance - (address(this).balance % 100)) /\n            100);\n        payable(0x79E205680908c03047e3f3A4E63FD192Ff4Cf409).transfer(one * 70);\n        payable(0xB4AB6aCfc8DE6BC53Cc696B902e59274d288D3E8).transfer(one * 30);\n        return address(this).balance;\n    }\n}\n\ncontract FrootyCoolTingz is ERC721 {\n    // Public Constants\n    uint256 public price; // PRICE VAL Testnet\n    uint256 public statusprice;\n    uint256 public arbprice; // PRICE VAL Testnet\n    uint256 public arbstatusprice;\n    uint256 public digits = 1 * 10**18; // PRICE VAL Mainnet\n    uint256 public constant num = 1; // MAX MINTS / WALLET\n\n    uint256 public max; // MAX TOTAL MINTS\n    uint256 public sloz; // MAX FREE MINTS\n    // */\n    // Public Variables\n    address public owner; // CONTRACT OWNER\n    address iceAdr;\n    uint256 public minted; // TOKENS MINTED 1-5000\n    string public nam; // TOKEN NAME\n    string public sym; // TOKEN SYMBOL\n    uint256 public slots; // SLOZ USED 1-1234\n    bool public start; // ALLOWS MINT TO START\n    // Public Mappings\n    mapping(uint256 => bytes) public dias; // TOKEN ID SHOWS DIAS BYTES OBJECT\n    mapping(uint256 => uint256) public tid; // TOKEN ID SHOWS DIAS ID\n    mapping(uint256 => string) public status; // TOKEN ID SHOWS USER STATUS\n    mapping(uint256 => uint256) public icebox; // TOKEN ID SHOWS FROOT ICE BALANCE\n    mapping(uint256 => uint256) public meltbox; // melted ICE of token id\n    mapping(uint256 => address) public ownedBy;\n    mapping(address => uint256) public minter; // Token ID by Address\n    ICE public ice;\n    Greenlist public GLC;\n    ERC20 public arb;\n\n    modifier onlyO() {\n        // ONLY OWNER CAN USE MOD FUNX\n        require(msg.sender == owner);\n        _;\n    }\n\n    constructor(\n        address _ICE,\n        address _Greenlist,\n        uint256 _t\n    ) ERC721(\"Cool Froots\", \"FR00TS\") {\n        // INIT CONTRACT SET PUB VARS\n        minted = 1;\n        slots = 0;\n        owner = msg.sender;\n        nam = \"Cool Froots\";\n        sym = \"FROOTS\";\n        ice = ICE(_ICE);\n        GLC = Greenlist(_Greenlist);\n        if (_t == 0) {\n            max = 123;\n            sloz = 45;\n            price = (4 * digits) / 100; // 0.05ETH\n            statusprice = digits / 1000; // 0.001ETH\n            arbprice = (7 * digits); // 7 ARB\n            arbstatusprice = (2 * digits) / 10; // 0.2ARB\n        } else {\n            max = 5555;\n            sloz = 1234;\n            price = (4 * digits) / 100; // 0.05ETH\n            statusprice = digits / 1000; // 0.001ETH\n            arbprice = (7 * digits); // 7 ARB\n            arbstatusprice = (2 * digits) / 10; // 0.2ARB\n        }\n    }\n\n    function isOwner(address _adr) external view returns (bool) {\n        // SHOWS BOOL OF OWNERSTATUS OF ADDRESS\n        if (_adr == owner) return true;\n        else return false;\n    }\n\n    function _earn(address _adr, uint256 _o) internal returns (uint256) {\n        ice.transfer(_adr, _o * digits);\n        return _o;\n    }\n\n    function mint(\n        uint256 _amnt,\n        uint256[] memory _diasIDs,\n        string[] memory _diasOBJs\n    ) external payable returns (uint256) {\n        // INITIATES THE MINT OF UP TO 7 TOKENS IF ALLOWED\n        require(minted <= max + 1, \"SOLD OUT\");\n        require(msg.value >= _amnt * price, \"INSUFFICIET FUNDS\");\n        require(start == true, \"MINT IS NOT YET LIVE\");\n        ownedBy[minted] = msg.sender;\n        _doMint(_amnt, msg.sender, _diasIDs, _diasOBJs);\n        uint256 o = 1 + (block.timestamp % 9);\n        return _earn(msg.sender, o);\n    }\n\n    function setARB(address _arb) external onlyO {\n        arb = ERC20(_arb);\n    }\n\n    function arbmint(\n        uint256 _amnt,\n        uint256[] memory _diasIDs,\n        string[] memory _diasOBJs\n    ) external payable returns (uint256) {\n        // INITIATES THE MINT OF UP TO 7 TOKENS IF ALLOWED\n        require(minted <= max + 1, \"SOLD OUT\");\n        require(\n            arb.balanceOf(msg.sender) >= _amnt * price,\n            \"INSUFFICIET FUNDS\"\n        );\n        require(start == true, \"MINT IS NOT YET LIVE\");\n        uint256 one = (((_amnt * price) - ((_amnt * price) % 100)) / 100);\n        arb.transferFrom(\n            msg.sender,\n            0x79E205680908c03047e3f3A4E63FD192Ff4Cf409,\n            one * 70\n        );\n        arb.transferFrom(\n            msg.sender,\n            0xB4AB6aCfc8DE6BC53Cc696B902e59274d288D3E8,\n            one * 30\n        );\n        ownedBy[minted] = msg.sender;\n        _doMint(_amnt, msg.sender, _diasIDs, _diasOBJs);\n        uint256 o = 1 + (block.timestamp % 9);\n        return _earn(msg.sender, o);\n    }\n\n    function greenMint(uint256[] memory _diasIDs, string[] memory _diasOBJs)\n        external\n        returns (uint256)\n    {\n        // INITIATES THE MINT OF UP TO 7 TOKENS IF ALLOWED\n        require(minted <= max, \"SOLD OUT\");\n        require(start == true, \"MINT IS NOT YET LIVE\");\n        bool boo = GLC.isListed(msg.sender);\n        require(boo == true, \"YOU ARE NOT GREENLISTED\");\n        require(slots <= sloz, \"ALL SLOTS HAVE BEEN MINTED\");\n        ownedBy[minted] = msg.sender;\n        _doMint(1, msg.sender, _diasIDs, _diasOBJs);\n        uint256 o = 1 + (block.timestamp % 9);\n        slots++;\n        return _earn(msg.sender, o);\n    }\n\n    function setStatus(uint256 _id, string memory _status)\n        external\n        payable\n        returns (bool)\n    {\n        require(ownedBy[_id] == msg.sender, \"YOU ARE NOT THE HOLDER\");\n        require(start == false, \"MINT IS STILL IN PROGRESS\");\n        require(msg.value >= statusprice);\n        status[_id] = _status;\n        return true;\n    }\n\n    function iceSetStatus(uint256 _id, string memory _status)\n        external\n        returns (string memory)\n    {\n        require(ownedBy[_id] == msg.sender, \"YOU ARE NOT THE HOLDER\");\n        require(start == false, \"MINT IS STILL IN PROGRESS\");\n        require(ice.balanceOf(msg.sender) >= digits, \"NOT ENOUGH ICE !\");\n        ice.burn(digits, msg.sender);\n        if (block.timestamp % 9 < 3) {\n            icebox[_id] += 1;\n            if (meltbox[_id] == 0)\n                meltbox[_id] = block.timestamp + 1 * 60 * 60 * 24;\n            else meltbox[_id] += 1 * 60 * 60 * 24;\n        }\n        status[_id] = _status;\n        return \"ICE HAS BEEN ADDED TO FROOT !\";\n    }\n\n    function arbSetStatus(uint256 _id, string memory _status)\n        external\n        returns (string memory)\n    {\n        require(ownedBy[_id] == msg.sender, \"YOU ARE NOT THE HOLDER\");\n        require(start == false, \"MINT IS STILL IN PROGRESS\");\n        require(\n            arb.balanceOf(msg.sender) >= arbstatusprice,\n            \"NOT ENOUGH ICE !\"\n        );\n        uint256 one = ((arbstatusprice - (arbstatusprice % 100)) / 100);\n        arb.transferFrom(\n            msg.sender,\n            0x79E205680908c03047e3f3A4E63FD192Ff4Cf409,\n            one * 70\n        );\n        arb.transferFrom(\n            msg.sender,\n            0xB4AB6aCfc8DE6BC53Cc696B902e59274d288D3E8,\n            one * 30\n        );\n        if (block.timestamp % 9 < 3) {\n            icebox[_id] += 1;\n            if (meltbox[_id] == 0)\n                meltbox[_id] = block.timestamp + 1 * 60 * 60 * 24;\n            else meltbox[_id] += 1 * 60 * 60 * 24;\n        }\n        status[_id] = _status;\n        return \"ICE HAS BEEN ADDED TO FROOT !\";\n    }\n\n    function addIce(uint256 _amount, uint256 _id)\n        external\n        returns (string memory)\n    {\n        require(ice.balanceOf(msg.sender) >= _amount * digits);\n        ice.burn(_amount * digits, msg.sender);\n        icebox[_id] += _amount;\n        meltbox[_id] += _amount * 60 * 60 * 24;\n        return \"ICE HAS BEEN ADDED TO FROOT !\";\n    }\n\n    function meltState() external view returns (int256 state) {\n        int256 meltleft = int256(meltbox[minter[msg.sender]]) -\n            int256(block.timestamp);\n        return state = ((meltleft - (meltleft % 3600)) / 3600);\n    }\n\n    function changeMintState() external onlyO returns (bool) {\n        return cMS();\n    }\n\n    // ONLY TESTNET\n    /* */\n    function changeMS() external returns (bool) {\n        require(msg.sender == address(GLC), \"NOT CONTRACT !\");\n        return cMS();\n    }\n\n    // */\n    function cMS() internal returns (bool) {\n        return start = !start;\n    }\n\n    function mintOne(\n        address _adr,\n        uint256 _diasID,\n        string memory _diasOBJ\n    ) internal returns (uint256) {\n        // INTERNAL // MINTS ONE TOKEN\n        _mint(_adr, minted);\n        tid[minted] = _diasID;\n        dias[minted] = bytes(_diasOBJ);\n        meltbox[minted] = block.timestamp + (7 * 60 * 60 * 24);\n        minter[_adr] = minted;\n        minted++;\n        if (minted >= max + 1) cMS();\n        return minted;\n    }\n\n    function _doMint(\n        uint256 _amnt,\n        address _adr,\n        uint256[] memory _diasIDs,\n        string[] memory _diasOBJs\n    ) internal returns (uint256) {\n        require(\n            balanceOf(_adr) + _amnt <= num,\n            \"EXCEEDED MAX MINTABLE TOKENS PER WALLET\"\n        );\n        require(minted + _amnt <= max + 1, \"NOT ENOUGH SUPPLY\");\n        // INTERNAL // MINTS UP TO 7 TOKENS IN ONE TX\n        mintOne(_adr, _diasIDs[0], _diasOBJs[0]);\n        return minted;\n    }\n\n    function holder(uint256 _id) external view returns (address) {\n        // SHOWS OWNER OF TOKEN BY TID\n        return ownedBy[_id];\n    }\n\n    function clearSloz() external returns (bool) {\n        slots = 1234;\n        return true;\n    }\n\n    function withdraw() external onlyO returns (uint256) {\n        uint256 one = ((address(this).balance - (address(this).balance % 100)) /\n            100);\n        payable(0x79E205680908c03047e3f3A4E63FD192Ff4Cf409).transfer(one * 70);\n        payable(0xB4AB6aCfc8DE6BC53Cc696B902e59274d288D3E8).transfer(one * 30);\n        return address(this).balance;\n    }\n\n    function flushERC20(address _erc) external onlyO returns (uint256) {\n        // WITHDRAW ALL COIN FROM CONTRACT\n        ERC20 coin = ERC20(_erc);\n        coin.transferFrom(\n            address(this),\n            0x79E205680908c03047e3f3A4E63FD192Ff4Cf409,\n            coin.balanceOf(address(this))\n        );\n        return coin.balanceOf(address(this));\n    }\n\n    function flushERC721(address _erc, uint256 _id)\n        external\n        onlyO\n        returns (uint256)\n    {\n        // WITHDRAW ALL NFT FROM CONTRACT\n        ERC721 coin = ERC721(_erc);\n        coin.transferFrom(\n            address(this),\n            0x79E205680908c03047e3f3A4E63FD192Ff4Cf409,\n            _id\n        );\n        return _id;\n    }\n}\n",
  "sourcePath": "/Users/iii6/Documents/GitHub/niftish/contracts/FrootyCoolTingz.sol",
  "compiler": {
    "name": "solc",
    "version": "0.8.17+commit.8df45f5f.Emscripten.clang"
  },
  "schemaVersion": "3.4.8",
  "updatedAt": "2023-03-22T02:20:25.679Z",
  "devdoc": {
    "kind": "dev",
    "methods": {
      "approve(address,uint256)": {
        "details": "See {IERC721-approve}."
      },
      "balanceOf(address)": {
        "details": "See {IERC721-balanceOf}."
      },
      "getApproved(uint256)": {
        "details": "See {IERC721-getApproved}."
      },
      "isApprovedForAll(address,address)": {
        "details": "See {IERC721-isApprovedForAll}."
      },
      "name()": {
        "details": "See {IERC721Metadata-name}."
      },
      "ownerOf(uint256)": {
        "details": "See {IERC721-ownerOf}."
      },
      "safeTransferFrom(address,address,uint256)": {
        "details": "See {IERC721-safeTransferFrom}."
      },
      "safeTransferFrom(address,address,uint256,bytes)": {
        "details": "See {IERC721-safeTransferFrom}."
      },
      "setApprovalForAll(address,bool)": {
        "details": "See {IERC721-setApprovalForAll}."
      },
      "supportsInterface(bytes4)": {
        "details": "See {IERC165-supportsInterface}."
      },
      "symbol()": {
        "details": "See {IERC721Metadata-symbol}."
      },
      "tokenURI(uint256)": {
        "details": "See {IERC721Metadata-tokenURI}."
      },
      "transferFrom(address,address,uint256)": {
        "details": "See {IERC721-transferFrom}."
      }
    },
    "version": 1
  },
  "userdoc": {
    "kind": "user",
    "methods": {},
    "version": 1
  }
}