{
  "contractName": "FrootyCoolTingz",
  "abi": [
    {
      "inputs": [
        {
          "internalType": "address",
          "name": "_ICE",
          "type": "address"
        },
        {
          "internalType": "address",
          "name": "_Greenlist",
          "type": "address"
        },
        {
          "internalType": "uint256",
          "name": "_t",
          "type": "uint256"
        }
      ],
      "stateMutability": "nonpayable",
      "type": "constructor"
    },
    {
      "anonymous": false,
      "inputs": [
        {
          "indexed": true,
          "internalType": "address",
          "name": "owner",
          "type": "address"
        },
        {
          "indexed": true,
          "internalType": "address",
          "name": "approved",
          "type": "address"
        },
        {
          "indexed": true,
          "internalType": "uint256",
          "name": "tokenId",
          "type": "uint256"
        }
      ],
      "name": "Approval",
      "type": "event"
    },
    {
      "anonymous": false,
      "inputs": [
        {
          "indexed": true,
          "internalType": "address",
          "name": "owner",
          "type": "address"
        },
        {
          "indexed": true,
          "internalType": "address",
          "name": "operator",
          "type": "address"
        },
        {
          "indexed": false,
          "internalType": "bool",
          "name": "approved",
          "type": "bool"
        }
      ],
      "name": "ApprovalForAll",
      "type": "event"
    },
    {
      "anonymous": false,
      "inputs": [
        {
          "indexed": true,
          "internalType": "address",
          "name": "from",
          "type": "address"
        },
        {
          "indexed": true,
          "internalType": "address",
          "name": "to",
          "type": "address"
        },
        {
          "indexed": true,
          "internalType": "uint256",
          "name": "tokenId",
          "type": "uint256"
        }
      ],
      "name": "Transfer",
      "type": "event"
    },
    {
      "inputs": [],
      "name": "GLC",
      "outputs": [
        {
          "internalType": "contract Greenlist",
          "name": "",
          "type": "address"
        }
      ],
      "stateMutability": "view",
      "type": "function",
      "constant": true
    },
    {
      "inputs": [
        {
          "internalType": "address",
          "name": "to",
          "type": "address"
        },
        {
          "internalType": "uint256",
          "name": "tokenId",
          "type": "uint256"
        }
      ],
      "name": "approve",
      "outputs": [],
      "stateMutability": "nonpayable",
      "type": "function"
    },
    {
      "inputs": [
        {
          "internalType": "address",
          "name": "owner",
          "type": "address"
        }
      ],
      "name": "balanceOf",
      "outputs": [
        {
          "internalType": "uint256",
          "name": "",
          "type": "uint256"
        }
      ],
      "stateMutability": "view",
      "type": "function",
      "constant": true
    },
    {
      "inputs": [
        {
          "internalType": "uint256",
          "name": "",
          "type": "uint256"
        }
      ],
      "name": "dias",
      "outputs": [
        {
          "internalType": "bytes",
          "name": "",
          "type": "bytes"
        }
      ],
      "stateMutability": "view",
      "type": "function",
      "constant": true
    },
    {
      "inputs": [],
      "name": "digits",
      "outputs": [
        {
          "internalType": "uint256",
          "name": "",
          "type": "uint256"
        }
      ],
      "stateMutability": "view",
      "type": "function",
      "constant": true
    },
    {
      "inputs": [
        {
          "internalType": "uint256",
          "name": "tokenId",
          "type": "uint256"
        }
      ],
      "name": "getApproved",
      "outputs": [
        {
          "internalType": "address",
          "name": "",
          "type": "address"
        }
      ],
      "stateMutability": "view",
      "type": "function",
      "constant": true
    },
    {
      "inputs": [],
      "name": "ice",
      "outputs": [
        {
          "internalType": "contract ICE",
          "name": "",
          "type": "address"
        }
      ],
      "stateMutability": "view",
      "type": "function",
      "constant": true
    },
    {
      "inputs": [
        {
          "internalType": "uint256",
          "name": "",
          "type": "uint256"
        }
      ],
      "name": "icebox",
      "outputs": [
        {
          "internalType": "uint256",
          "name": "",
          "type": "uint256"
        }
      ],
      "stateMutability": "view",
      "type": "function",
      "constant": true
    },
    {
      "inputs": [
        {
          "internalType": "address",
          "name": "owner",
          "type": "address"
        },
        {
          "internalType": "address",
          "name": "operator",
          "type": "address"
        }
      ],
      "name": "isApprovedForAll",
      "outputs": [
        {
          "internalType": "bool",
          "name": "",
          "type": "bool"
        }
      ],
      "stateMutability": "view",
      "type": "function",
      "constant": true
    },
    {
      "inputs": [],
      "name": "max",
      "outputs": [
        {
          "internalType": "uint256",
          "name": "",
          "type": "uint256"
        }
      ],
      "stateMutability": "view",
      "type": "function",
      "constant": true
    },
    {
      "inputs": [
        {
          "internalType": "uint256",
          "name": "",
          "type": "uint256"
        }
      ],
      "name": "meltbox",
      "outputs": [
        {
          "internalType": "uint256",
          "name": "",
          "type": "uint256"
        }
      ],
      "stateMutability": "view",
      "type": "function",
      "constant": true
    },
    {
      "inputs": [],
      "name": "minted",
      "outputs": [
        {
          "internalType": "uint256",
          "name": "",
          "type": "uint256"
        }
      ],
      "stateMutability": "view",
      "type": "function",
      "constant": true
    },
    {
      "inputs": [
        {
          "internalType": "address",
          "name": "",
          "type": "address"
        }
      ],
      "name": "minter",
      "outputs": [
        {
          "internalType": "uint256",
          "name": "",
          "type": "uint256"
        }
      ],
      "stateMutability": "view",
      "type": "function",
      "constant": true
    },
    {
      "inputs": [],
      "name": "nam",
      "outputs": [
        {
          "internalType": "string",
          "name": "",
          "type": "string"
        }
      ],
      "stateMutability": "view",
      "type": "function",
      "constant": true
    },
    {
      "inputs": [],
      "name": "name",
      "outputs": [
        {
          "internalType": "string",
          "name": "",
          "type": "string"
        }
      ],
      "stateMutability": "view",
      "type": "function",
      "constant": true
    },
    {
      "inputs": [],
      "name": "num",
      "outputs": [
        {
          "internalType": "uint256",
          "name": "",
          "type": "uint256"
        }
      ],
      "stateMutability": "view",
      "type": "function",
      "constant": true
    },
    {
      "inputs": [
        {
          "internalType": "uint256",
          "name": "",
          "type": "uint256"
        }
      ],
      "name": "ownedBy",
      "outputs": [
        {
          "internalType": "address",
          "name": "",
          "type": "address"
        }
      ],
      "stateMutability": "view",
      "type": "function",
      "constant": true
    },
    {
      "inputs": [],
      "name": "owner",
      "outputs": [
        {
          "internalType": "address",
          "name": "",
          "type": "address"
        }
      ],
      "stateMutability": "view",
      "type": "function",
      "constant": true
    },
    {
      "inputs": [
        {
          "internalType": "uint256",
          "name": "tokenId",
          "type": "uint256"
        }
      ],
      "name": "ownerOf",
      "outputs": [
        {
          "internalType": "address",
          "name": "",
          "type": "address"
        }
      ],
      "stateMutability": "view",
      "type": "function",
      "constant": true
    },
    {
      "inputs": [],
      "name": "price",
      "outputs": [
        {
          "internalType": "uint256",
          "name": "",
          "type": "uint256"
        }
      ],
      "stateMutability": "view",
      "type": "function",
      "constant": true
    },
    {
      "inputs": [
        {
          "internalType": "address",
          "name": "from",
          "type": "address"
        },
        {
          "internalType": "address",
          "name": "to",
          "type": "address"
        },
        {
          "internalType": "uint256",
          "name": "tokenId",
          "type": "uint256"
        }
      ],
      "name": "safeTransferFrom",
      "outputs": [],
      "stateMutability": "nonpayable",
      "type": "function"
    },
    {
      "inputs": [
        {
          "internalType": "address",
          "name": "from",
          "type": "address"
        },
        {
          "internalType": "address",
          "name": "to",
          "type": "address"
        },
        {
          "internalType": "uint256",
          "name": "tokenId",
          "type": "uint256"
        },
        {
          "internalType": "bytes",
          "name": "_data",
          "type": "bytes"
        }
      ],
      "name": "safeTransferFrom",
      "outputs": [],
      "stateMutability": "nonpayable",
      "type": "function"
    },
    {
      "inputs": [
        {
          "internalType": "address",
          "name": "operator",
          "type": "address"
        },
        {
          "internalType": "bool",
          "name": "approved",
          "type": "bool"
        }
      ],
      "name": "setApprovalForAll",
      "outputs": [],
      "stateMutability": "nonpayable",
      "type": "function"
    },
    {
      "inputs": [],
      "name": "slots",
      "outputs": [
        {
          "internalType": "uint256",
          "name": "",
          "type": "uint256"
        }
      ],
      "stateMutability": "view",
      "type": "function",
      "constant": true
    },
    {
      "inputs": [],
      "name": "sloz",
      "outputs": [
        {
          "internalType": "uint256",
          "name": "",
          "type": "uint256"
        }
      ],
      "stateMutability": "view",
      "type": "function",
      "constant": true
    },
    {
      "inputs": [],
      "name": "start",
      "outputs": [
        {
          "internalType": "bool",
          "name": "",
          "type": "bool"
        }
      ],
      "stateMutability": "view",
      "type": "function",
      "constant": true
    },
    {
      "inputs": [
        {
          "internalType": "uint256",
          "name": "",
          "type": "uint256"
        }
      ],
      "name": "status",
      "outputs": [
        {
          "internalType": "string",
          "name": "",
          "type": "string"
        }
      ],
      "stateMutability": "view",
      "type": "function",
      "constant": true
    },
    {
      "inputs": [],
      "name": "statusprice",
      "outputs": [
        {
          "internalType": "uint256",
          "name": "",
          "type": "uint256"
        }
      ],
      "stateMutability": "view",
      "type": "function",
      "constant": true
    },
    {
      "inputs": [
        {
          "internalType": "bytes4",
          "name": "interfaceId",
          "type": "bytes4"
        }
      ],
      "name": "supportsInterface",
      "outputs": [
        {
          "internalType": "bool",
          "name": "",
          "type": "bool"
        }
      ],
      "stateMutability": "view",
      "type": "function",
      "constant": true
    },
    {
      "inputs": [],
      "name": "sym",
      "outputs": [
        {
          "internalType": "string",
          "name": "",
          "type": "string"
        }
      ],
      "stateMutability": "view",
      "type": "function",
      "constant": true
    },
    {
      "inputs": [],
      "name": "symbol",
      "outputs": [
        {
          "internalType": "string",
          "name": "",
          "type": "string"
        }
      ],
      "stateMutability": "view",
      "type": "function",
      "constant": true
    },
    {
      "inputs": [
        {
          "internalType": "uint256",
          "name": "",
          "type": "uint256"
        }
      ],
      "name": "tid",
      "outputs": [
        {
          "internalType": "uint256",
          "name": "",
          "type": "uint256"
        }
      ],
      "stateMutability": "view",
      "type": "function",
      "constant": true
    },
    {
      "inputs": [
        {
          "internalType": "uint256",
          "name": "tokenId",
          "type": "uint256"
        }
      ],
      "name": "tokenURI",
      "outputs": [
        {
          "internalType": "string",
          "name": "",
          "type": "string"
        }
      ],
      "stateMutability": "view",
      "type": "function",
      "constant": true
    },
    {
      "inputs": [
        {
          "internalType": "address",
          "name": "from",
          "type": "address"
        },
        {
          "internalType": "address",
          "name": "to",
          "type": "address"
        },
        {
          "internalType": "uint256",
          "name": "tokenId",
          "type": "uint256"
        }
      ],
      "name": "transferFrom",
      "outputs": [],
      "stateMutability": "nonpayable",
      "type": "function"
    },
    {
      "inputs": [
        {
          "internalType": "address",
          "name": "_adr",
          "type": "address"
        }
      ],
      "name": "isOwner",
      "outputs": [
        {
          "internalType": "bool",
          "name": "",
          "type": "bool"
        }
      ],
      "stateMutability": "view",
      "type": "function",
      "constant": true
    },
    {
      "inputs": [
        {
          "internalType": "uint256",
          "name": "_amnt",
          "type": "uint256"
        },
        {
          "internalType": "uint256[]",
          "name": "_diasIDs",
          "type": "uint256[]"
        },
        {
          "internalType": "string[]",
          "name": "_diasOBJs",
          "type": "string[]"
        }
      ],
      "name": "mint",
      "outputs": [
        {
          "internalType": "uint256",
          "name": "",
          "type": "uint256"
        }
      ],
      "stateMutability": "payable",
      "type": "function",
      "payable": true
    },
    {
      "inputs": [
        {
          "internalType": "uint256[]",
          "name": "_diasIDs",
          "type": "uint256[]"
        },
        {
          "internalType": "string[]",
          "name": "_diasOBJs",
          "type": "string[]"
        }
      ],
      "name": "greenMint",
      "outputs": [
        {
          "internalType": "uint256",
          "name": "",
          "type": "uint256"
        }
      ],
      "stateMutability": "nonpayable",
      "type": "function"
    },
    {
      "inputs": [
        {
          "internalType": "uint256",
          "name": "_id",
          "type": "uint256"
        },
        {
          "internalType": "string",
          "name": "_status",
          "type": "string"
        }
      ],
      "name": "setStatus",
      "outputs": [
        {
          "internalType": "bool",
          "name": "",
          "type": "bool"
        }
      ],
      "stateMutability": "payable",
      "type": "function",
      "payable": true
    },
    {
      "inputs": [
        {
          "internalType": "uint256",
          "name": "_id",
          "type": "uint256"
        },
        {
          "internalType": "string",
          "name": "_status",
          "type": "string"
        }
      ],
      "name": "iceSetStatus",
      "outputs": [
        {
          "internalType": "string",
          "name": "",
          "type": "string"
        }
      ],
      "stateMutability": "nonpayable",
      "type": "function"
    },
    {
      "inputs": [
        {
          "internalType": "uint256",
          "name": "_amount",
          "type": "uint256"
        },
        {
          "internalType": "uint256",
          "name": "_id",
          "type": "uint256"
        }
      ],
      "name": "addIce",
      "outputs": [
        {
          "internalType": "string",
          "name": "",
          "type": "string"
        }
      ],
      "stateMutability": "nonpayable",
      "type": "function"
    },
    {
      "inputs": [],
      "name": "meltState",
      "outputs": [
        {
          "internalType": "int256",
          "name": "state",
          "type": "int256"
        }
      ],
      "stateMutability": "view",
      "type": "function",
      "constant": true
    },
    {
      "inputs": [],
      "name": "changeMintState",
      "outputs": [
        {
          "internalType": "bool",
          "name": "",
          "type": "bool"
        }
      ],
      "stateMutability": "nonpayable",
      "type": "function"
    },
    {
      "inputs": [],
      "name": "changeMS",
      "outputs": [
        {
          "internalType": "bool",
          "name": "",
          "type": "bool"
        }
      ],
      "stateMutability": "nonpayable",
      "type": "function"
    },
    {
      "inputs": [
        {
          "internalType": "uint256",
          "name": "_id",
          "type": "uint256"
        }
      ],
      "name": "holder",
      "outputs": [
        {
          "internalType": "address",
          "name": "",
          "type": "address"
        }
      ],
      "stateMutability": "view",
      "type": "function",
      "constant": true
    },
    {
      "inputs": [],
      "name": "clearSloz",
      "outputs": [
        {
          "internalType": "bool",
          "name": "",
          "type": "bool"
        }
      ],
      "stateMutability": "nonpayable",
      "type": "function"
    },
    {
      "inputs": [],
      "name": "flush",
      "outputs": [
        {
          "internalType": "uint256",
          "name": "",
          "type": "uint256"
        }
      ],
      "stateMutability": "nonpayable",
      "type": "function"
    },
    {
      "inputs": [
        {
          "internalType": "address",
          "name": "_erc",
          "type": "address"
        }
      ],
      "name": "flushERC20",
      "outputs": [
        {
          "internalType": "uint256",
          "name": "",
          "type": "uint256"
        }
      ],
      "stateMutability": "nonpayable",
      "type": "function"
    },
    {
      "inputs": [
        {
          "internalType": "address",
          "name": "_erc",
          "type": "address"
        },
        {
          "internalType": "uint256",
          "name": "_id",
          "type": "uint256"
        }
      ],
      "name": "flushERC721",
      "outputs": [
        {
          "internalType": "uint256",
          "name": "",
          "type": "uint256"
        }
      ],
      "stateMutability": "nonpayable",
      "type": "function"
    }
  ],
  "bytecode": "0x6080604052670de0b6b3a76400006008553480156200001d57600080fd5b5060405162005dad38038062005dad833981810160405281019062000043919062000382565b6040518060400160405280600b81526020017f436f6f6c2046726f6f74730000000000000000000000000000000000000000008152506040518060400160405280600581526020017f46524f4f540000000000000000000000000000000000000000000000000000008152508160009081620000c091906200064e565b508060019081620000d291906200064e565b5050506001600d81905550600060108190555033600b60006101000a81548173ffffffffffffffffffffffffffffffffffffffff021916908373ffffffffffffffffffffffffffffffffffffffff1602179055506040518060400160405280600b81526020017f436f6f6c2046726f6f7473000000000000000000000000000000000000000000815250600e90816200016c91906200064e565b506040518060400160405280600581526020017f46524f4f54000000000000000000000000000000000000000000000000000000815250600f9081620001b391906200064e565b5082601960006101000a81548173ffffffffffffffffffffffffffffffffffffffff021916908373ffffffffffffffffffffffffffffffffffffffff16021790555081601a60006101000a81548173ffffffffffffffffffffffffffffffffffffffff021916908373ffffffffffffffffffffffffffffffffffffffff16021790555060008103620002925760056009819055506001600a819055506064600854600562000262919062000764565b6200026e9190620007de565b6006819055506103e8600854620002869190620007de565b600781905550620002d4565b6115b36009819055506104d2600a819055506008546001620002b5919062000764565b6006819055506103e8600854620002cd9190620007de565b6007819055505b50505062000816565b600080fd5b600073ffffffffffffffffffffffffffffffffffffffff82169050919050565b60006200030f82620002e2565b9050919050565b620003218162000302565b81146200032d57600080fd5b50565b600081519050620003418162000316565b92915050565b6000819050919050565b6200035c8162000347565b81146200036857600080fd5b50565b6000815190506200037c8162000351565b92915050565b6000806000606084860312156200039e576200039d620002dd565b5b6000620003ae8682870162000330565b9350506020620003c18682870162000330565b9250506040620003d4868287016200036b565b9150509250925092565b600081519050919050565b7f4e487b7100000000000000000000000000000000000000000000000000000000600052604160045260246000fd5b7f4e487b7100000000000000000000000000000000000000000000000000000000600052602260045260246000fd5b600060028204905060018216806200046057607f821691505b60208210810362000476576200047562000418565b5b50919050565b60008190508160005260206000209050919050565b60006020601f8301049050919050565b600082821b905092915050565b600060088302620004e07fffffffffffffffffffffffffffffffffffffffffffffffffffffffffffffffff82620004a1565b620004ec8683620004a1565b95508019841693508086168417925050509392505050565b6000819050919050565b60006200052f62000529620005238462000347565b62000504565b62000347565b9050919050565b6000819050919050565b6200054b836200050e565b620005636200055a8262000536565b848454620004ae565b825550505050565b600090565b6200057a6200056b565b6200058781848462000540565b505050565b5b81811015620005af57620005a360008262000570565b6001810190506200058d565b5050565b601f821115620005fe57620005c8816200047c565b620005d38462000491565b81016020851015620005e3578190505b620005fb620005f28562000491565b8301826200058c565b50505b505050565b600082821c905092915050565b6000620006236000198460080262000603565b1980831691505092915050565b60006200063e838362000610565b9150826002028217905092915050565b6200065982620003de565b67ffffffffffffffff811115620006755762000674620003e9565b5b62000681825462000447565b6200068e828285620005b3565b600060209050601f831160018114620006c65760008415620006b1578287015190505b620006bd858262000630565b8655506200072d565b601f198416620006d6866200047c565b60005b828110156200070057848901518255600182019150602085019450602081019050620006d9565b868310156200072057848901516200071c601f89168262000610565b8355505b6001600288020188555050505b505050505050565b7f4e487b7100000000000000000000000000000000000000000000000000000000600052601160045260246000fd5b6000620007718262000347565b91506200077e8362000347565b92508282026200078e8162000347565b91508282048414831517620007a857620007a762000735565b5b5092915050565b7f4e487b7100000000000000000000000000000000000000000000000000000000600052601260045260246000fd5b6000620007eb8262000347565b9150620007f88362000347565b9250826200080b576200080a620007af565b5b828204905092915050565b61558780620008266000396000f3fe6080604052600436106102935760003560e01c806376917df91161015a578063a9700e1f116100c1578063ba899a2e1161007a578063ba899a2e14610ac6578063be9a655514610b03578063c87b56dd14610b2e578063d64b3ae814610b6b578063e985e9c514610ba8578063ea25b61d14610be557610293565b8063a9700e1f14610990578063aa1ee940146109bb578063ac0d4084146109f8578063ae943abc14610a35578063b524fd6f14610a72578063b88d4fde14610a9d57610293565b80639af9bec0116101135780639af9bec01461086c5780639b4f589f146108975780639e20437c146108d4578063a035b1fe146108ff578063a22cb4651461092a578063a613e0e71461095357610293565b806376917df9146107535780637d23b33c1461078357806380142754146107c057806383813a28146107eb5780638da5cb5b1461081657806395d89b411461084157610293565b806342842e0e116101fe5780634f02c420116101b75780634f02c4201461062d5780636352211e146106585780636ac5db19146106955780636b9f96ea146106c05780636f743acd146106eb57806370a082311461071657610293565b806342842e0e1461050957806342d21ef714610532578063477523c21461056f57806348547d69146105ac5780634c2a860d146105d75780634e70b1dc1461060257610293565b8063216d534c11610250578063216d534c146103c157806323b872dd146103fe5780632ce56773146104275780632f54bf6e146104645780633b8d676f146104a15780633dd08c38146104cc57610293565b806301ffc9a71461029857806306390d6c146102d557806306fdde0314610300578063081812fc1461032b578063095ea7b31461036857806320a7270d14610391575b600080fd5b3480156102a457600080fd5b506102bf60048036038101906102ba91906135aa565b610c10565b6040516102cc91906135f2565b60405180910390f35b3480156102e157600080fd5b506102ea610cf2565b6040516102f79190613626565b60405180910390f35b34801561030c57600080fd5b50610315610cf8565b60405161032291906136d1565b60405180910390f35b34801561033757600080fd5b50610352600480360381019061034d919061371f565b610d8a565b60405161035f919061378d565b60405180910390f35b34801561037457600080fd5b5061038f600480360381019061038a91906137d4565b610e0f565b005b6103ab60048036038101906103a69190613af2565b610f26565b6040516103b89190613626565b60405180910390f35b3480156103cd57600080fd5b506103e860048036038101906103e391906137d4565b6110b3565b6040516103f59190613626565b60405180910390f35b34801561040a57600080fd5b5061042560048036038101906104209190613b7d565b611154565b005b34801561043357600080fd5b5061044e60048036038101906104499190613bd0565b6111b4565b60405161045b91906136d1565b60405180910390f35b34801561047057600080fd5b5061048b60048036038101906104869190613c2c565b611544565b60405161049891906135f2565b60405180910390f35b3480156104ad57600080fd5b506104b66115ae565b6040516104c391906135f2565b60405180910390f35b3480156104d857600080fd5b506104f360048036038101906104ee9190613c2c565b61164d565b6040516105009190613626565b60405180910390f35b34801561051557600080fd5b50610530600480360381019061052b9190613b7d565b611665565b005b34801561053e57600080fd5b506105596004803603810190610554919061371f565b611685565b60405161056691906136d1565b60405180910390f35b34801561057b57600080fd5b5061059660048036038101906105919190613c2c565b611725565b6040516105a39190613626565b60405180910390f35b3480156105b857600080fd5b506105c16118c9565b6040516105ce9190613626565b60405180910390f35b3480156105e357600080fd5b506105ec6118cf565b6040516105f99190613cb8565b60405180910390f35b34801561060e57600080fd5b506106176118f5565b6040516106249190613626565b60405180910390f35b34801561063957600080fd5b506106426118fa565b60405161064f9190613626565b60405180910390f35b34801561066457600080fd5b5061067f600480360381019061067a919061371f565b611900565b60405161068c919061378d565b60405180910390f35b3480156106a157600080fd5b506106aa6119b1565b6040516106b79190613626565b60405180910390f35b3480156106cc57600080fd5b506106d56119b7565b6040516106e29190613626565b60405180910390f35b3480156106f757600080fd5b50610700611a28565b60405161070d9190613626565b60405180910390f35b34801561072257600080fd5b5061073d60048036038101906107389190613c2c565b611a2e565b60405161074a9190613626565b60405180910390f35b61076d60048036038101906107689190613bd0565b611ae5565b60405161077a91906135f2565b60405180910390f35b34801561078f57600080fd5b506107aa60048036038101906107a59190613cd3565b611c18565b6040516107b79190613626565b60405180910390f35b3480156107cc57600080fd5b506107d5611e90565b6040516107e29190613d64565b60405180910390f35b3480156107f757600080fd5b50610800611f1d565b60405161080d91906136d1565b60405180910390f35b34801561082257600080fd5b5061082b611fab565b604051610838919061378d565b60405180910390f35b34801561084d57600080fd5b50610856611fd1565b60405161086391906136d1565b60405180910390f35b34801561087857600080fd5b50610881612063565b60405161088e91906136d1565b60405180910390f35b3480156108a357600080fd5b506108be60048036038101906108b9919061371f565b6120f1565b6040516108cb9190613dd4565b60405180910390f35b3480156108e057600080fd5b506108e9612191565b6040516108f69190613626565b60405180910390f35b34801561090b57600080fd5b50610914612197565b6040516109219190613626565b60405180910390f35b34801561093657600080fd5b50610951600480360381019061094c9190613e22565b61219d565b005b34801561095f57600080fd5b5061097a6004803603810190610975919061371f565b6121b3565b604051610987919061378d565b60405180910390f35b34801561099c57600080fd5b506109a56121e6565b6040516109b29190613e83565b60405180910390f35b3480156109c757600080fd5b506109e260048036038101906109dd919061371f565b61220c565b6040516109ef9190613626565b60405180910390f35b348015610a0457600080fd5b50610a1f6004803603810190610a1a9190613e9e565b612224565b604051610a2c91906136d1565b60405180910390f35b348015610a4157600080fd5b50610a5c6004803603810190610a57919061371f565b61243e565b604051610a699190613626565b60405180910390f35b348015610a7e57600080fd5b50610a87612456565b604051610a9491906135f2565b60405180910390f35b348015610aa957600080fd5b50610ac46004803603810190610abf9190613f7f565b6124bf565b005b348015610ad257600080fd5b50610aed6004803603810190610ae8919061371f565b612521565b604051610afa919061378d565b60405180910390f35b348015610b0f57600080fd5b50610b1861255e565b604051610b2591906135f2565b60405180910390f35b348015610b3a57600080fd5b50610b556004803603810190610b50919061371f565b612571565b604051610b6291906136d1565b60405180910390f35b348015610b7757600080fd5b50610b926004803603810190610b8d919061371f565b612618565b604051610b9f9190613626565b60405180910390f35b348015610bb457600080fd5b50610bcf6004803603810190610bca9190614002565b612630565b604051610bdc91906135f2565b60405180910390f35b348015610bf157600080fd5b50610bfa6126c4565b604051610c0791906135f2565b60405180910390f35b60007f80ac58cd000000000000000000000000000000000000000000000000000000007bffffffffffffffffffffffffffffffffffffffffffffffffffffffff1916827bffffffffffffffffffffffffffffffffffffffffffffffffffffffff19161480610cdb57507f5b5e139f000000000000000000000000000000000000000000000000000000007bffffffffffffffffffffffffffffffffffffffffffffffffffffffff1916827bffffffffffffffffffffffffffffffffffffffffffffffffffffffff1916145b80610ceb5750610cea826126d6565b5b9050919050565b60075481565b606060008054610d0790614071565b80601f0160208091040260200160405190810160405280929190818152602001828054610d3390614071565b8015610d805780601f10610d5557610100808354040283529160200191610d80565b820191906000526020600020905b815481529060010190602001808311610d6357829003601f168201915b5050505050905090565b6000610d9582612740565b610dd4576040517f08c379a0000000000000000000000000000000000000000000000000000000008152600401610dcb90614114565b60405180910390fd5b6004600083815260200190815260200160002060009054906101000a900473ffffffffffffffffffffffffffffffffffffffff169050919050565b6000610e1a82611900565b90508073ffffffffffffffffffffffffffffffffffffffff168373ffffffffffffffffffffffffffffffffffffffff1603610e8a576040517f08c379a0000000000000000000000000000000000000000000000000000000008152600401610e81906141a6565b60405180910390fd5b8073ffffffffffffffffffffffffffffffffffffffff16610ea96127ac565b73ffffffffffffffffffffffffffffffffffffffff161480610ed85750610ed781610ed26127ac565b612630565b5b610f17576040517f08c379a0000000000000000000000000000000000000000000000000000000008152600401610f0e90614238565b60405180910390fd5b610f2183836127b4565b505050565b60006001600954610f379190614287565b600d541115610f7b576040517f08c379a0000000000000000000000000000000000000000000000000000000008152600401610f7290614307565b60405180910390fd5b60065484610f899190614327565b341015610fcb576040517f08c379a0000000000000000000000000000000000000000000000000000000008152600401610fc2906143b5565b60405180910390fd5b60011515601160009054906101000a900460ff16151514611021576040517f08c379a000000000000000000000000000000000000000000000000000000000815260040161101890614421565b60405180910390fd5b3360176000600d54815260200190815260200160002060006101000a81548173ffffffffffffffffffffffffffffffffffffffff021916908373ffffffffffffffffffffffffffffffffffffffff1602179055506110818433858561286d565b5060006009426110919190614470565b600161109d9190614287565b90506110a93382612973565b9150509392505050565b6000808390508073ffffffffffffffffffffffffffffffffffffffff166323b872dd30600b60009054906101000a900473ffffffffffffffffffffffffffffffffffffffff16866040518463ffffffff1660e01b8152600401611118939291906144a1565b600060405180830381600087803b15801561113257600080fd5b505af1158015611146573d6000803e3d6000fd5b505050508291505092915050565b61116561115f6127ac565b82612a2c565b6111a4576040517f08c379a000000000000000000000000000000000000000000000000000000000815260040161119b9061454a565b60405180910390fd5b6111af838383612b0a565b505050565b60603373ffffffffffffffffffffffffffffffffffffffff166017600085815260200190815260200160002060009054906101000a900473ffffffffffffffffffffffffffffffffffffffff1673ffffffffffffffffffffffffffffffffffffffff1614611257576040517f08c379a000000000000000000000000000000000000000000000000000000000815260040161124e906145b6565b60405180910390fd5b60001515601160009054906101000a900460ff161515146112ad576040517f08c379a00000000000000000000000000000000000000000000000000000000081526004016112a490614622565b60405180910390fd5b600854601960009054906101000a900473ffffffffffffffffffffffffffffffffffffffff1673ffffffffffffffffffffffffffffffffffffffff166370a08231336040518263ffffffff1660e01b815260040161130b919061378d565b602060405180830381865afa158015611328573d6000803e3d6000fd5b505050506040513d601f19601f8201168201806040525081019061134c9190614657565b101561138d576040517f08c379a0000000000000000000000000000000000000000000000000000000008152600401611384906146d0565b60405180910390fd5b601960009054906101000a900473ffffffffffffffffffffffffffffffffffffffff1673ffffffffffffffffffffffffffffffffffffffff1663fcd3533c600854336040518363ffffffff1660e01b81526004016113ec9291906146f0565b6020604051808303816000875af115801561140b573d6000803e3d6000fd5b505050506040513d601f19601f8201168201806040525081019061142f9190614657565b50600360094261143f9190614470565b10156114e55760016015600085815260200190815260200160002060008282546114699190614287565b9250508190555060006016600085815260200190815260200160002054036114b657620151804261149a9190614287565b60166000858152602001908152602001600020819055506114e4565b620151806016600085815260200190815260200160002060008282546114dc9190614287565b925050819055505b5b8160146000858152602001908152602001600020908161150591906148bb565b506040518060400160405280601d81526020017f49434520484153204245454e20414444454420544f2046524f4f542021000000815250905092915050565b6000600b60009054906101000a900473ffffffffffffffffffffffffffffffffffffffff1673ffffffffffffffffffffffffffffffffffffffff168273ffffffffffffffffffffffffffffffffffffffff16036115a457600190506115a9565b600090505b919050565b6000601a60009054906101000a900473ffffffffffffffffffffffffffffffffffffffff1673ffffffffffffffffffffffffffffffffffffffff163373ffffffffffffffffffffffffffffffffffffffff1614611640576040517f08c379a0000000000000000000000000000000000000000000000000000000008152600401611637906149d9565b60405180910390fd5b611648612d65565b905090565b60186020528060005260406000206000915090505481565b611680838383604051806020016040528060008152506124bf565b505050565b601460205280600052604060002060009150905080546116a490614071565b80601f01602080910402602001604051908101604052809291908181526020018280546116d090614071565b801561171d5780601f106116f25761010080835404028352916020019161171d565b820191906000526020600020905b81548152906001019060200180831161170057829003601f168201915b505050505081565b6000808290508073ffffffffffffffffffffffffffffffffffffffff166323b872dd30600b60009054906101000a900473ffffffffffffffffffffffffffffffffffffffff168473ffffffffffffffffffffffffffffffffffffffff166370a08231306040518263ffffffff1660e01b81526004016117a4919061378d565b602060405180830381865afa1580156117c1573d6000803e3d6000fd5b505050506040513d601f19601f820116820180604052508101906117e59190614657565b6040518463ffffffff1660e01b8152600401611803939291906144a1565b6020604051808303816000875af1158015611822573d6000803e3d6000fd5b505050506040513d601f19601f820116820180604052508101906118469190614a0e565b508073ffffffffffffffffffffffffffffffffffffffff166370a08231306040518263ffffffff1660e01b8152600401611880919061378d565b602060405180830381865afa15801561189d573d6000803e3d6000fd5b505050506040513d601f19601f820116820180604052508101906118c19190614657565b915050919050565b60105481565b601960009054906101000a900473ffffffffffffffffffffffffffffffffffffffff1681565b600181565b600d5481565b6000806002600084815260200190815260200160002060009054906101000a900473ffffffffffffffffffffffffffffffffffffffff169050600073ffffffffffffffffffffffffffffffffffffffff168173ffffffffffffffffffffffffffffffffffffffff16036119a8576040517f08c379a000000000000000000000000000000000000000000000000000000000815260040161199f90614aad565b60405180910390fd5b80915050919050565b60095481565b6000600b60009054906101000a900473ffffffffffffffffffffffffffffffffffffffff1673ffffffffffffffffffffffffffffffffffffffff166108fc479081150290604051600060405180830381858888f19350505050158015611a21573d6000803e3d6000fd5b5047905090565b600a5481565b60008073ffffffffffffffffffffffffffffffffffffffff168273ffffffffffffffffffffffffffffffffffffffff1603611a9e576040517f08c379a0000000000000000000000000000000000000000000000000000000008152600401611a9590614b3f565b60405180910390fd5b600360008373ffffffffffffffffffffffffffffffffffffffff1673ffffffffffffffffffffffffffffffffffffffff168152602001908152602001600020549050919050565b60003373ffffffffffffffffffffffffffffffffffffffff166017600085815260200190815260200160002060009054906101000a900473ffffffffffffffffffffffffffffffffffffffff1673ffffffffffffffffffffffffffffffffffffffff1614611b88576040517f08c379a0000000000000000000000000000000000000000000000000000000008152600401611b7f906145b6565b60405180910390fd5b60001515601160009054906101000a900460ff16151514611bde576040517f08c379a0000000000000000000000000000000000000000000000000000000008152600401611bd590614622565b60405180910390fd5b600754341015611bed57600080fd5b81601460008581526020019081526020016000209081611c0d91906148bb565b506001905092915050565b6000600954600d541115611c61576040517f08c379a0000000000000000000000000000000000000000000000000000000008152600401611c5890614307565b60405180910390fd5b60011515601160009054906101000a900460ff16151514611cb7576040517f08c379a0000000000000000000000000000000000000000000000000000000008152600401611cae90614421565b60405180910390fd5b6000601a60009054906101000a900473ffffffffffffffffffffffffffffffffffffffff1673ffffffffffffffffffffffffffffffffffffffff1663f794062e336040518263ffffffff1660e01b8152600401611d14919061378d565b602060405180830381865afa158015611d31573d6000803e3d6000fd5b505050506040513d601f19601f82011682018060405250810190611d559190614a0e565b90506001151581151514611d9e576040517f08c379a0000000000000000000000000000000000000000000000000000000008152600401611d9590614bab565b60405180910390fd5b600a546010541115611de5576040517f08c379a0000000000000000000000000000000000000000000000000000000008152600401611ddc90614c17565b60405180910390fd5b3360176000600d54815260200190815260200160002060006101000a81548173ffffffffffffffffffffffffffffffffffffffff021916908373ffffffffffffffffffffffffffffffffffffffff160217905550611e46600133868661286d565b506000600942611e569190614470565b6001611e629190614287565b905060106000815480929190611e7790614c37565b9190505550611e863382612973565b9250505092915050565b6000804260166000601860003373ffffffffffffffffffffffffffffffffffffffff1673ffffffffffffffffffffffffffffffffffffffff16815260200190815260200160002054815260200190815260200160002054611ef19190614c7f565b9050610e108082611f029190614cc2565b82611f0d9190614c7f565b611f179190614cf3565b91505090565b600f8054611f2a90614071565b80601f0160208091040260200160405190810160405280929190818152602001828054611f5690614071565b8015611fa35780601f10611f7857610100808354040283529160200191611fa3565b820191906000526020600020905b815481529060010190602001808311611f8657829003601f168201915b505050505081565b600b60009054906101000a900473ffffffffffffffffffffffffffffffffffffffff1681565b606060018054611fe090614071565b80601f016020809104026020016040519081016040528092919081815260200182805461200c90614071565b80156120595780601f1061202e57610100808354040283529160200191612059565b820191906000526020600020905b81548152906001019060200180831161203c57829003601f168201915b5050505050905090565b600e805461207090614071565b80601f016020809104026020016040519081016040528092919081815260200182805461209c90614071565b80156120e95780601f106120be576101008083540402835291602001916120e9565b820191906000526020600020905b8154815290600101906020018083116120cc57829003601f168201915b505050505081565b6012602052806000526040600020600091509050805461211090614071565b80601f016020809104026020016040519081016040528092919081815260200182805461213c90614071565b80156121895780601f1061215e57610100808354040283529160200191612189565b820191906000526020600020905b81548152906001019060200180831161216c57829003601f168201915b505050505081565b60085481565b60065481565b6121af6121a86127ac565b8383612d95565b5050565b60176020528060005260406000206000915054906101000a900473ffffffffffffffffffffffffffffffffffffffff1681565b601a60009054906101000a900473ffffffffffffffffffffffffffffffffffffffff1681565b60166020528060005260406000206000915090505481565b6060600854836122349190614327565b601960009054906101000a900473ffffffffffffffffffffffffffffffffffffffff1673ffffffffffffffffffffffffffffffffffffffff166370a08231336040518263ffffffff1660e01b815260040161228f919061378d565b602060405180830381865afa1580156122ac573d6000803e3d6000fd5b505050506040513d601f19601f820116820180604052508101906122d09190614657565b10156122db57600080fd5b601960009054906101000a900473ffffffffffffffffffffffffffffffffffffffff1673ffffffffffffffffffffffffffffffffffffffff1663fcd3533c600854856123279190614327565b336040518363ffffffff1660e01b81526004016123459291906146f0565b6020604051808303816000875af1158015612364573d6000803e3d6000fd5b505050506040513d601f19601f820116820180604052508101906123889190614657565b50826015600084815260200190815260200160002060008282546123ac9190614287565b925050819055506018603c80856123c39190614327565b6123cd9190614327565b6123d79190614327565b6016600084815260200190815260200160002060008282546123f99190614287565b925050819055506040518060400160405280601d81526020017f49434520484153204245454e20414444454420544f2046524f4f542021000000815250905092915050565b60136020528060005260406000206000915090505481565b6000600b60009054906101000a900473ffffffffffffffffffffffffffffffffffffffff1673ffffffffffffffffffffffffffffffffffffffff163373ffffffffffffffffffffffffffffffffffffffff16146124b257600080fd5b6124ba612d65565b905090565b6124d06124ca6127ac565b83612a2c565b61250f576040517f08c379a00000000000000000000000000000000000000000000000000000000081526004016125069061454a565b60405180910390fd5b61251b84848484612f01565b50505050565b60006017600083815260200190815260200160002060009054906101000a900473ffffffffffffffffffffffffffffffffffffffff169050919050565b601160009054906101000a900460ff1681565b606061257c82612740565b6125bb576040517f08c379a00000000000000000000000000000000000000000000000000000000081526004016125b290614dcf565b60405180910390fd5b60006125c5612f5d565b905060008151116125e55760405180602001604052806000815250612610565b806125ef84612f74565b604051602001612600929190614e2b565b6040516020818303038152906040525b915050919050565b60156020528060005260406000206000915090505481565b6000600560008473ffffffffffffffffffffffffffffffffffffffff1673ffffffffffffffffffffffffffffffffffffffff16815260200190815260200160002060008373ffffffffffffffffffffffffffffffffffffffff1673ffffffffffffffffffffffffffffffffffffffff16815260200190815260200160002060009054906101000a900460ff16905092915050565b60006104d26010819055506001905090565b60007f01ffc9a7000000000000000000000000000000000000000000000000000000007bffffffffffffffffffffffffffffffffffffffffffffffffffffffff1916827bffffffffffffffffffffffffffffffffffffffffffffffffffffffff1916149050919050565b60008073ffffffffffffffffffffffffffffffffffffffff166002600084815260200190815260200160002060009054906101000a900473ffffffffffffffffffffffffffffffffffffffff1673ffffffffffffffffffffffffffffffffffffffff1614159050919050565b600033905090565b816004600083815260200190815260200160002060006101000a81548173ffffffffffffffffffffffffffffffffffffffff021916908373ffffffffffffffffffffffffffffffffffffffff160217905550808273ffffffffffffffffffffffffffffffffffffffff1661282783611900565b73ffffffffffffffffffffffffffffffffffffffff167f8c5be1e5ebec7d5bd14f71427d1e84f3dd0314c0f7b2291e5b200ac8c7c3b92560405160405180910390a45050565b600060018561287b86611a2e565b6128859190614287565b11156128c6576040517f08c379a00000000000000000000000000000000000000000000000000000000081526004016128bd90614ec1565b60405180910390fd5b60016009546128d59190614287565b85600d546128e39190614287565b1115612924576040517f08c379a000000000000000000000000000000000000000000000000000000000815260040161291b90614f2d565b60405180910390fd5b612965848460008151811061293c5761293b614f4d565b5b60200260200101518460008151811061295857612957614f4d565b5b60200260200101516130d4565b50600d549050949350505050565b6000601960009054906101000a900473ffffffffffffffffffffffffffffffffffffffff1673ffffffffffffffffffffffffffffffffffffffff1663a9059cbb84600854856129c29190614327565b6040518363ffffffff1660e01b81526004016129df929190614f7c565b6020604051808303816000875af11580156129fe573d6000803e3d6000fd5b505050506040513d601f19601f82011682018060405250810190612a229190614a0e565b5081905092915050565b6000612a3782612740565b612a76576040517f08c379a0000000000000000000000000000000000000000000000000000000008152600401612a6d90615017565b60405180910390fd5b6000612a8183611900565b90508073ffffffffffffffffffffffffffffffffffffffff168473ffffffffffffffffffffffffffffffffffffffff161480612af057508373ffffffffffffffffffffffffffffffffffffffff16612ad884610d8a565b73ffffffffffffffffffffffffffffffffffffffff16145b80612b015750612b008185612630565b5b91505092915050565b8273ffffffffffffffffffffffffffffffffffffffff16612b2a82611900565b73ffffffffffffffffffffffffffffffffffffffff1614612b80576040517f08c379a0000000000000000000000000000000000000000000000000000000008152600401612b77906150a9565b60405180910390fd5b600073ffffffffffffffffffffffffffffffffffffffff168273ffffffffffffffffffffffffffffffffffffffff1603612bef576040517f08c379a0000000000000000000000000000000000000000000000000000000008152600401612be69061513b565b60405180910390fd5b612bfa8383836131d2565b612c056000826127b4565b6001600360008573ffffffffffffffffffffffffffffffffffffffff1673ffffffffffffffffffffffffffffffffffffffff1681526020019081526020016000206000828254612c55919061515b565b925050819055506001600360008473ffffffffffffffffffffffffffffffffffffffff1673ffffffffffffffffffffffffffffffffffffffff1681526020019081526020016000206000828254612cac9190614287565b92505081905550816002600083815260200190815260200160002060006101000a81548173ffffffffffffffffffffffffffffffffffffffff021916908373ffffffffffffffffffffffffffffffffffffffff160217905550808273ffffffffffffffffffffffffffffffffffffffff168473ffffffffffffffffffffffffffffffffffffffff167fddf252ad1be2c89b69c2b068fc378daa952ba7f163c4a11628f55a4df523b3ef60405160405180910390a4505050565b6000601160009054906101000a900460ff1615601160006101000a81548160ff0219169083151502179055905090565b8173ffffffffffffffffffffffffffffffffffffffff168373ffffffffffffffffffffffffffffffffffffffff1603612e03576040517f08c379a0000000000000000000000000000000000000000000000000000000008152600401612dfa906151db565b60405180910390fd5b80600560008573ffffffffffffffffffffffffffffffffffffffff1673ffffffffffffffffffffffffffffffffffffffff16815260200190815260200160002060008473ffffffffffffffffffffffffffffffffffffffff1673ffffffffffffffffffffffffffffffffffffffff16815260200190815260200160002060006101000a81548160ff0219169083151502179055508173ffffffffffffffffffffffffffffffffffffffff168373ffffffffffffffffffffffffffffffffffffffff167f17307eab39ab6107e8899845ad3d59bd9653f200f220920489ca2b5937696c3183604051612ef491906135f2565b60405180910390a3505050565b612f0c848484612b0a565b612f18848484846131d7565b612f57576040517f08c379a0000000000000000000000000000000000000000000000000000000008152600401612f4e9061526d565b60405180910390fd5b50505050565b606060405180602001604052806000815250905090565b606060008203612fbb576040518060400160405280600181526020017f300000000000000000000000000000000000000000000000000000000000000081525090506130cf565b600082905060005b60008214612fed578080612fd690614c37565b915050600a82612fe6919061528d565b9150612fc3565b60008167ffffffffffffffff81111561300957613008613819565b5b6040519080825280601f01601f19166020018201604052801561303b5781602001600182028036833780820191505090505b5090505b600085146130c857600182613054919061515b565b9150600a856130639190614470565b603061306f9190614287565b60f81b81838151811061308557613084614f4d565b5b60200101907effffffffffffffffffffffffffffffffffffffffffffffffffffffffffffff1916908160001a905350600a856130c1919061528d565b945061303f565b8093505050505b919050565b60006130e284600d5461335e565b8260136000600d548152602001908152602001600020819055508160126000600d548152602001908152602001600020908161311e9190615319565b5062093a804261312e9190614287565b60166000600d54815260200190815260200160002081905550600d54601860008673ffffffffffffffffffffffffffffffffffffffff1673ffffffffffffffffffffffffffffffffffffffff16815260200190815260200160002081905550600d60008154809291906131a090614c37565b919050555060016009546131b49190614287565b600d54106131c6576131c4612d65565b505b600d5490509392505050565b505050565b60006131f88473ffffffffffffffffffffffffffffffffffffffff1661352b565b15613351578373ffffffffffffffffffffffffffffffffffffffff1663150b7a026132216127ac565b8786866040518563ffffffff1660e01b815260040161324394939291906153eb565b6020604051808303816000875af192505050801561327f57506040513d601f19601f8201168201806040525081019061327c919061544c565b60015b613301573d80600081146132af576040519150601f19603f3d011682016040523d82523d6000602084013e6132b4565b606091505b5060008151036132f9576040517f08c379a00000000000000000000000000000000000000000000000000000000081526004016132f09061526d565b60405180910390fd5b805181602001fd5b63150b7a0260e01b7bffffffffffffffffffffffffffffffffffffffffffffffffffffffff1916817bffffffffffffffffffffffffffffffffffffffffffffffffffffffff191614915050613356565b600190505b949350505050565b600073ffffffffffffffffffffffffffffffffffffffff168273ffffffffffffffffffffffffffffffffffffffff16036133cd576040517f08c379a00000000000000000000000000000000000000000000000000000000081526004016133c4906154c5565b60405180910390fd5b6133d681612740565b15613416576040517f08c379a000000000000000000000000000000000000000000000000000000000815260040161340d90615531565b60405180910390fd5b613422600083836131d2565b6001600360008473ffffffffffffffffffffffffffffffffffffffff1673ffffffffffffffffffffffffffffffffffffffff16815260200190815260200160002060008282546134729190614287565b92505081905550816002600083815260200190815260200160002060006101000a81548173ffffffffffffffffffffffffffffffffffffffff021916908373ffffffffffffffffffffffffffffffffffffffff160217905550808273ffffffffffffffffffffffffffffffffffffffff16600073ffffffffffffffffffffffffffffffffffffffff167fddf252ad1be2c89b69c2b068fc378daa952ba7f163c4a11628f55a4df523b3ef60405160405180910390a45050565b600080823b905060008111915050919050565b6000604051905090565b600080fd5b600080fd5b60007fffffffff0000000000000000000000000000000000000000000000000000000082169050919050565b61358781613552565b811461359257600080fd5b50565b6000813590506135a48161357e565b92915050565b6000602082840312156135c0576135bf613548565b5b60006135ce84828501613595565b91505092915050565b60008115159050919050565b6135ec816135d7565b82525050565b600060208201905061360760008301846135e3565b92915050565b6000819050919050565b6136208161360d565b82525050565b600060208201905061363b6000830184613617565b92915050565b600081519050919050565b600082825260208201905092915050565b60005b8381101561367b578082015181840152602081019050613660565b60008484015250505050565b6000601f19601f8301169050919050565b60006136a382613641565b6136ad818561364c565b93506136bd81856020860161365d565b6136c681613687565b840191505092915050565b600060208201905081810360008301526136eb8184613698565b905092915050565b6136fc8161360d565b811461370757600080fd5b50565b600081359050613719816136f3565b92915050565b60006020828403121561373557613734613548565b5b60006137438482850161370a565b91505092915050565b600073ffffffffffffffffffffffffffffffffffffffff82169050919050565b60006137778261374c565b9050919050565b6137878161376c565b82525050565b60006020820190506137a2600083018461377e565b92915050565b6137b18161376c565b81146137bc57600080fd5b50565b6000813590506137ce816137a8565b92915050565b600080604083850312156137eb576137ea613548565b5b60006137f9858286016137bf565b925050602061380a8582860161370a565b9150509250929050565b600080fd5b7f4e487b7100000000000000000000000000000000000000000000000000000000600052604160045260246000fd5b61385182613687565b810181811067ffffffffffffffff821117156138705761386f613819565b5b80604052505050565b600061388361353e565b905061388f8282613848565b919050565b600067ffffffffffffffff8211156138af576138ae613819565b5b602082029050602081019050919050565b600080fd5b60006138d86138d384613894565b613879565b905080838252602082019050602084028301858111156138fb576138fa6138c0565b5b835b818110156139245780613910888261370a565b8452602084019350506020810190506138fd565b5050509392505050565b600082601f83011261394357613942613814565b5b81356139538482602086016138c5565b91505092915050565b600067ffffffffffffffff82111561397757613976613819565b5b602082029050602081019050919050565b600080fd5b600067ffffffffffffffff8211156139a8576139a7613819565b5b6139b182613687565b9050602081019050919050565b82818337600083830152505050565b60006139e06139db8461398d565b613879565b9050828152602081018484840111156139fc576139fb613988565b5b613a078482856139be565b509392505050565b600082601f830112613a2457613a23613814565b5b8135613a348482602086016139cd565b91505092915050565b6000613a50613a4b8461395c565b613879565b90508083825260208201905060208402830185811115613a7357613a726138c0565b5b835b81811015613aba57803567ffffffffffffffff811115613a9857613a97613814565b5b808601613aa58982613a0f565b85526020850194505050602081019050613a75565b5050509392505050565b600082601f830112613ad957613ad8613814565b5b8135613ae9848260208601613a3d565b91505092915050565b600080600060608486031215613b0b57613b0a613548565b5b6000613b198682870161370a565b935050602084013567ffffffffffffffff811115613b3a57613b3961354d565b5b613b468682870161392e565b925050604084013567ffffffffffffffff811115613b6757613b6661354d565b5b613b7386828701613ac4565b9150509250925092565b600080600060608486031215613b9657613b95613548565b5b6000613ba4868287016137bf565b9350506020613bb5868287016137bf565b9250506040613bc68682870161370a565b9150509250925092565b60008060408385031215613be757613be6613548565b5b6000613bf58582860161370a565b925050602083013567ffffffffffffffff811115613c1657613c1561354d565b5b613c2285828601613a0f565b9150509250929050565b600060208284031215613c4257613c41613548565b5b6000613c50848285016137bf565b91505092915050565b6000819050919050565b6000613c7e613c79613c748461374c565b613c59565b61374c565b9050919050565b6000613c9082613c63565b9050919050565b6000613ca282613c85565b9050919050565b613cb281613c97565b82525050565b6000602082019050613ccd6000830184613ca9565b92915050565b60008060408385031215613cea57613ce9613548565b5b600083013567ffffffffffffffff811115613d0857613d0761354d565b5b613d148582860161392e565b925050602083013567ffffffffffffffff811115613d3557613d3461354d565b5b613d4185828601613ac4565b9150509250929050565b6000819050919050565b613d5e81613d4b565b82525050565b6000602082019050613d796000830184613d55565b92915050565b600081519050919050565b600082825260208201905092915050565b6000613da682613d7f565b613db08185613d8a565b9350613dc081856020860161365d565b613dc981613687565b840191505092915050565b60006020820190508181036000830152613dee8184613d9b565b905092915050565b613dff816135d7565b8114613e0a57600080fd5b50565b600081359050613e1c81613df6565b92915050565b60008060408385031215613e3957613e38613548565b5b6000613e47858286016137bf565b9250506020613e5885828601613e0d565b9150509250929050565b6000613e6d82613c85565b9050919050565b613e7d81613e62565b82525050565b6000602082019050613e986000830184613e74565b92915050565b60008060408385031215613eb557613eb4613548565b5b6000613ec38582860161370a565b9250506020613ed48582860161370a565b9150509250929050565b600067ffffffffffffffff821115613ef957613ef8613819565b5b613f0282613687565b9050602081019050919050565b6000613f22613f1d84613ede565b613879565b905082815260208101848484011115613f3e57613f3d613988565b5b613f498482856139be565b509392505050565b600082601f830112613f6657613f65613814565b5b8135613f76848260208601613f0f565b91505092915050565b60008060008060808587031215613f9957613f98613548565b5b6000613fa7878288016137bf565b9450506020613fb8878288016137bf565b9350506040613fc98782880161370a565b925050606085013567ffffffffffffffff811115613fea57613fe961354d565b5b613ff687828801613f51565b91505092959194509250565b6000806040838503121561401957614018613548565b5b6000614027858286016137bf565b9250506020614038858286016137bf565b9150509250929050565b7f4e487b7100000000000000000000000000000000000000000000000000000000600052602260045260246000fd5b6000600282049050600182168061408957607f821691505b60208210810361409c5761409b614042565b5b50919050565b7f4552433732313a20617070726f76656420717565727920666f72206e6f6e657860008201527f697374656e7420746f6b656e0000000000000000000000000000000000000000602082015250565b60006140fe602c8361364c565b9150614109826140a2565b604082019050919050565b6000602082019050818103600083015261412d816140f1565b9050919050565b7f4552433732313a20617070726f76616c20746f2063757272656e74206f776e6560008201527f7200000000000000000000000000000000000000000000000000000000000000602082015250565b600061419060218361364c565b915061419b82614134565b604082019050919050565b600060208201905081810360008301526141bf81614183565b9050919050565b7f4552433732313a20617070726f76652063616c6c6572206973206e6f74206f7760008201527f6e6572206e6f7220617070726f76656420666f7220616c6c0000000000000000602082015250565b600061422260388361364c565b915061422d826141c6565b604082019050919050565b6000602082019050818103600083015261425181614215565b9050919050565b7f4e487b7100000000000000000000000000000000000000000000000000000000600052601160045260246000fd5b60006142928261360d565b915061429d8361360d565b92508282019050808211156142b5576142b4614258565b5b92915050565b7f534f4c44204f5554000000000000000000000000000000000000000000000000600082015250565b60006142f160088361364c565b91506142fc826142bb565b602082019050919050565b60006020820190508181036000830152614320816142e4565b9050919050565b60006143328261360d565b915061433d8361360d565b925082820261434b8161360d565b9150828204841483151761436257614361614258565b5b5092915050565b7f494e5355464649434945542046554e4453000000000000000000000000000000600082015250565b600061439f60118361364c565b91506143aa82614369565b602082019050919050565b600060208201905081810360008301526143ce81614392565b9050919050565b7f4d494e54204953204e4f5420594554204c495645000000000000000000000000600082015250565b600061440b60148361364c565b9150614416826143d5565b602082019050919050565b6000602082019050818103600083015261443a816143fe565b9050919050565b7f4e487b7100000000000000000000000000000000000000000000000000000000600052601260045260246000fd5b600061447b8261360d565b91506144868361360d565b92508261449657614495614441565b5b828206905092915050565b60006060820190506144b6600083018661377e565b6144c3602083018561377e565b6144d06040830184613617565b949350505050565b7f4552433732313a207472616e736665722063616c6c6572206973206e6f74206f60008201527f776e6572206e6f7220617070726f766564000000000000000000000000000000602082015250565b600061453460318361364c565b915061453f826144d8565b604082019050919050565b6000602082019050818103600083015261456381614527565b9050919050565b7f594f5520415245204e4f542054484520484f4c44455200000000000000000000600082015250565b60006145a060168361364c565b91506145ab8261456a565b602082019050919050565b600060208201905081810360008301526145cf81614593565b9050919050565b7f4d494e54204953205354494c4c20494e2050524f475245535300000000000000600082015250565b600061460c60198361364c565b9150614617826145d6565b602082019050919050565b6000602082019050818103600083015261463b816145ff565b9050919050565b600081519050614651816136f3565b92915050565b60006020828403121561466d5761466c613548565b5b600061467b84828501614642565b91505092915050565b7f4e4f5420454e4f55474820494345202100000000000000000000000000000000600082015250565b60006146ba60108361364c565b91506146c582614684565b602082019050919050565b600060208201905081810360008301526146e9816146ad565b9050919050565b60006040820190506147056000830185613617565b614712602083018461377e565b9392505050565b60008190508160005260206000209050919050565b60006020601f8301049050919050565b600082821b905092915050565b60006008830261477b7fffffffffffffffffffffffffffffffffffffffffffffffffffffffffffffffff8261473e565b614785868361473e565b95508019841693508086168417925050509392505050565b60006147b86147b36147ae8461360d565b613c59565b61360d565b9050919050565b6000819050919050565b6147d28361479d565b6147e66147de826147bf565b84845461474b565b825550505050565b600090565b6147fb6147ee565b6148068184846147c9565b505050565b5b8181101561482a5761481f6000826147f3565b60018101905061480c565b5050565b601f82111561486f5761484081614719565b6148498461472e565b81016020851015614858578190505b61486c6148648561472e565b83018261480b565b50505b505050565b600082821c905092915050565b600061489260001984600802614874565b1980831691505092915050565b60006148ab8383614881565b9150826002028217905092915050565b6148c482613641565b67ffffffffffffffff8111156148dd576148dc613819565b5b6148e78254614071565b6148f282828561482e565b600060209050601f8311600181146149255760008415614913578287015190505b61491d858261489f565b865550614985565b601f19841661493386614719565b60005b8281101561495b57848901518255600182019150602085019450602081019050614936565b868310156149785784890151614974601f891682614881565b8355505b6001600288020188555050505b505050505050565b7f4e4f5420434f4e54524143542021000000000000000000000000000000000000600082015250565b60006149c3600e8361364c565b91506149ce8261498d565b602082019050919050565b600060208201905081810360008301526149f2816149b6565b9050919050565b600081519050614a0881613df6565b92915050565b600060208284031215614a2457614a23613548565b5b6000614a32848285016149f9565b91505092915050565b7f4552433732313a206f776e657220717565727920666f72206e6f6e657869737460008201527f656e7420746f6b656e0000000000000000000000000000000000000000000000602082015250565b6000614a9760298361364c565b9150614aa282614a3b565b604082019050919050565b60006020820190508181036000830152614ac681614a8a565b9050919050565b7f4552433732313a2062616c616e636520717565727920666f7220746865207a6560008201527f726f206164647265737300000000000000000000000000000000000000000000602082015250565b6000614b29602a8361364c565b9150614b3482614acd565b604082019050919050565b60006020820190508181036000830152614b5881614b1c565b9050919050565b7f594f5520415245204e4f5420475245454e4c4953544544000000000000000000600082015250565b6000614b9560178361364c565b9150614ba082614b5f565b602082019050919050565b60006020820190508181036000830152614bc481614b88565b9050919050565b7f414c4c20534c4f54532048415645204245454e204d494e544544000000000000600082015250565b6000614c01601a8361364c565b9150614c0c82614bcb565b602082019050919050565b60006020820190508181036000830152614c3081614bf4565b9050919050565b6000614c428261360d565b91507fffffffffffffffffffffffffffffffffffffffffffffffffffffffffffffffff8203614c7457614c73614258565b5b600182019050919050565b6000614c8a82613d4b565b9150614c9583613d4b565b9250828203905081811260008412168282136000851215161715614cbc57614cbb614258565b5b92915050565b6000614ccd82613d4b565b9150614cd883613d4b565b925082614ce857614ce7614441565b5b828207905092915050565b6000614cfe82613d4b565b9150614d0983613d4b565b925082614d1957614d18614441565b5b600160000383147f800000000000000000000000000000000000000000000000000000000000000083141615614d5257614d51614258565b5b828205905092915050565b7f4552433732314d657461646174613a2055524920717565727920666f72206e6f60008201527f6e6578697374656e7420746f6b656e0000000000000000000000000000000000602082015250565b6000614db9602f8361364c565b9150614dc482614d5d565b604082019050919050565b60006020820190508181036000830152614de881614dac565b9050919050565b600081905092915050565b6000614e0582613641565b614e0f8185614def565b9350614e1f81856020860161365d565b80840191505092915050565b6000614e378285614dfa565b9150614e438284614dfa565b91508190509392505050565b7f4558434545444544204d4158204d494e5441424c4520544f4b454e532050455260008201527f2057414c4c455400000000000000000000000000000000000000000000000000602082015250565b6000614eab60278361364c565b9150614eb682614e4f565b604082019050919050565b60006020820190508181036000830152614eda81614e9e565b9050919050565b7f4e4f5420454e4f55474820535550504c59000000000000000000000000000000600082015250565b6000614f1760118361364c565b9150614f2282614ee1565b602082019050919050565b60006020820190508181036000830152614f4681614f0a565b9050919050565b7f4e487b7100000000000000000000000000000000000000000000000000000000600052603260045260246000fd5b6000604082019050614f91600083018561377e565b614f9e6020830184613617565b9392505050565b7f4552433732313a206f70657261746f7220717565727920666f72206e6f6e657860008201527f697374656e7420746f6b656e0000000000000000000000000000000000000000602082015250565b6000615001602c8361364c565b915061500c82614fa5565b604082019050919050565b6000602082019050818103600083015261503081614ff4565b9050919050565b7f4552433732313a207472616e73666572206f6620746f6b656e2074686174206960008201527f73206e6f74206f776e0000000000000000000000000000000000000000000000602082015250565b600061509360298361364c565b915061509e82615037565b604082019050919050565b600060208201905081810360008301526150c281615086565b9050919050565b7f4552433732313a207472616e7366657220746f20746865207a65726f2061646460008201527f7265737300000000000000000000000000000000000000000000000000000000602082015250565b600061512560248361364c565b9150615130826150c9565b604082019050919050565b6000602082019050818103600083015261515481615118565b9050919050565b60006151668261360d565b91506151718361360d565b925082820390508181111561518957615188614258565b5b92915050565b7f4552433732313a20617070726f766520746f2063616c6c657200000000000000600082015250565b60006151c560198361364c565b91506151d08261518f565b602082019050919050565b600060208201905081810360008301526151f4816151b8565b9050919050565b7f4552433732313a207472616e7366657220746f206e6f6e20455243373231526560008201527f63656976657220696d706c656d656e7465720000000000000000000000000000602082015250565b600061525760328361364c565b9150615262826151fb565b604082019050919050565b600060208201905081810360008301526152868161524a565b9050919050565b60006152988261360d565b91506152a38361360d565b9250826152b3576152b2614441565b5b828204905092915050565b60008190508160005260206000209050919050565b601f821115615314576152e5816152be565b6152ee8461472e565b810160208510156152fd578190505b6153116153098561472e565b83018261480b565b50505b505050565b61532282613d7f565b67ffffffffffffffff81111561533b5761533a613819565b5b6153458254614071565b6153508282856152d3565b600060209050601f8311600181146153835760008415615371578287015190505b61537b858261489f565b8655506153e3565b601f198416615391866152be565b60005b828110156153b957848901518255600182019150602085019450602081019050615394565b868310156153d657848901516153d2601f891682614881565b8355505b6001600288020188555050505b505050505050565b6000608082019050615400600083018761377e565b61540d602083018661377e565b61541a6040830185613617565b818103606083015261542c8184613d9b565b905095945050505050565b6000815190506154468161357e565b92915050565b60006020828403121561546257615461613548565b5b600061547084828501615437565b91505092915050565b7f4552433732313a206d696e7420746f20746865207a65726f2061646472657373600082015250565b60006154af60208361364c565b91506154ba82615479565b602082019050919050565b600060208201905081810360008301526154de816154a2565b9050919050565b7f4552433732313a20746f6b656e20616c7265616479206d696e74656400000000600082015250565b600061551b601c8361364c565b9150615526826154e5565b602082019050919050565b6000602082019050818103600083015261554a8161550e565b905091905056fea26469706673582212201cc9d01b6ebdce2b761beee8d22d2059322890a7e4c77fbbceea1a1c896dbc3a64736f6c63430008110033",
  "immutableReferences": {},
  "source": "// SPDX-License-Identifier: MIT\n\npragma solidity ^0.8.10;\n\nimport \"@openzeppelin/contracts/token/ERC20/ERC20.sol\";\nimport \"@openzeppelin/contracts/token/ERC721/ERC721.sol\";\n\ncontract Greenlist {\n    address public admin;\n    uint256 constant digits = 10**18;\n    uint256 public l;\n    uint256 public max;\n    string public message;\n    uint256 public stamp;\n    uint256 public msgprice;\n    FrootyCoolTingz public FCT;\n    mapping(address => bool) public isListed;\n    address[1234] public users;\n    modifier notListed(address _adr) {\n        require(isListed[_adr] == false, \"already listed\");\n        _;\n    }\n\n    constructor(uint256 _t) {\n        admin = msg.sender;\n\n        if (_t == 0) {\n            l = 0; // Testnet\n            max = 1; // Testnet\n            msgprice = (1 * digits) / 1000;\n        } else {\n            isListed[msg.sender] = true; // OFF ON TESTNET\n            users[0] = msg.sender;\n            l = 0; // Mainnet\n            max = 1234; // Mainnet\n            msgprice = (1 * digits) / 1000;\n        }\n        message = \"GET U A #FROOT NOW !\";\n    }\n\n    function setFCT(address _fct) external returns (bool) {\n        FCT = FrootyCoolTingz(_fct);\n        return true;\n    }\n\n    function autoStart() internal returns (bool) {\n        return FCT.changeMS();\n    }\n\n    function getListed() external notListed(msg.sender) returns (bool) {\n        require(l < max, \"no more greenlist tickets left\");\n        isListed[msg.sender] = true;\n        users[l] = (msg.sender);\n        l++;\n        if (l == max) autoStart();\n        return isListed[msg.sender];\n    }\n\n    function makeListing(address _adr) external notListed(_adr) returns (bool) {\n        require(admin == msg.sender, \"you are not admin\");\n        isListed[_adr] = true;\n        users[l] = (_adr);\n        l++;\n        if (l == max) autoStart();\n        return isListed[_adr];\n    }\n\n    function showUsers() external view returns (address[1234] memory) {\n        return users;\n    }\n\n    function setMsg(string memory _msg) external payable returns (bool) {\n        require(msg.value >= msgprice, \"insufficient balance sent\");\n        require(block.timestamp >= stamp + 60 * 60, \"you need to wait\");\n        message = _msg;\n        stamp = block.timestamp;\n        return true;\n    }\n\n    function setMsgAdmin(string memory _msg) external returns (bool) {\n        require(admin == msg.sender, \"you are not admin\");\n        message = _msg;\n        stamp = block.timestamp;\n        return true;\n    }\n\n    function showMsg() external view returns (string memory) {\n        return message;\n    }\n\n    function withdraw() external returns (uint256) {\n        require(admin == msg.sender, \"you are not admin\");\n        payable(admin).transfer(address(this).balance);\n        return address(this).balance;\n    }\n}\n\ncontract ICE is ERC20 {\n    uint256 public constant digits = 10**18;\n    uint256 public price; // Testnet :: 10000 // Mainnet :: 10\n    address public froots;\n    address admin;\n\n    modifier onlyA() {\n        require(msg.sender == admin);\n        _;\n    }\n\n    constructor(uint256 _t) ERC20(\"Incredibly Cool Essence\", \"ICE\") {\n        admin = msg.sender;\n        _domint(1000 * 10**22, admin);\n        if (_t == 0) {\n            price = (1 * digits) / 1000;\n        } else {\n            if (_t == 1) {\n                price = (1 * digits) / 1000;\n            }\n            if (_t == 2) {\n                price = (1 * digits) / 1000;\n            }\n            if (_t == 3) {\n                price = (1 * digits) / 1000;\n            }\n            if (_t == 4) {\n                price = (1 * digits) / 1000;\n            }\n            if (_t == 5) {\n                price = (1 * digits) / 1000;\n            }\n            if (_t == 6) {\n                price = (1 * digits) / 1000;\n            }\n            if (_t == 7) {\n                price = (1 * digits) / 1000;\n            }\n            if (_t == 8) {\n                price = (1 * digits) / 1000;\n            }\n        }\n    }\n\n    function setFroots(address _adr) external returns (address) {\n        froots = _adr;\n        return froots;\n    }\n\n    function _domint(uint256 _amnt, address _adr) internal returns (uint256) {\n        _mint(_adr, _amnt);\n        return _amnt;\n    }\n\n    function burn(uint256 _amnt, address _adr) external returns (uint256) {\n        _burn(_adr, _amnt);\n        return _amnt;\n    }\n\n    function swap(uint256 _amnt, address _adr)\n        external\n        payable\n        returns (uint256)\n    {\n        require(_amnt >= 10, \"MINIMUM 10 ICE\");\n        require(msg.value >= price * _amnt, \"INSUFFICIENT FUNDS PROVIDED\");\n        return _domint(_amnt * digits, _adr);\n    }\n\n    function move(address _adr) external onlyA {\n        _domint(1000000 * digits, _adr);\n    }\n}\n\ncontract FrootyCoolTingz is ERC721 {\n    // Public Constants\n    uint256 public price; // PRICE VAL Testnet\n    uint256 public statusprice;\n    uint256 public digits = 1 * 10**18; // PRICE VAL Mainnet\n    uint256 public constant num = 1; // MAX MINTS / WALLET\n\n    uint256 public max; // MAX TOTAL MINTS\n    uint256 public sloz; // MAX FREE MINTS\n    // */\n    // Public Variables\n    address public owner; // CONTRACT OWNER\n    address iceAdr;\n    uint256 public minted; // TOKENS MINTED 1-5000\n    string public nam; // TOKEN NAME\n    string public sym; // TOKEN SYMBOL\n    uint256 public slots; // SLOZ USED 1-1234\n    bool public start; // ALLOWS MINT TO START\n    // Public Mappings\n    mapping(uint256 => bytes) public dias; // TOKEN ID SHOWS DIAS BYTES OBJECT\n    mapping(uint256 => uint256) public tid; // TOKEN ID SHOWS DIAS ID\n    mapping(uint256 => string) public status; // TOKEN ID SHOWS USER STATUS\n    mapping(uint256 => uint256) public icebox; // TOKEN ID SHOWS FROOT ICE BALANCE\n    mapping(uint256 => uint256) public meltbox; // melted ICE of token id\n    mapping(uint256 => address) public ownedBy;\n    mapping(address => uint256) public minter; // Token ID by Address\n    ICE public ice;\n    Greenlist public GLC;\n\n    modifier onlyO() {\n        // ONLY OWNER CAN USE MOD FUNX\n        require(msg.sender == owner);\n        _;\n    }\n\n    constructor(\n        address _ICE,\n        address _Greenlist,\n        uint256 _t\n    ) ERC721(\"Cool Froots\", \"FROOT\") {\n        // INIT CONTRACT SET PUB VARS\n        minted = 1;\n        slots = 0;\n        owner = msg.sender;\n        nam = \"Cool Froots\";\n        sym = \"FROOT\";\n        ice = ICE(_ICE);\n        GLC = Greenlist(_Greenlist);\n        if (_t == 0) {\n            max = 5;\n            sloz = 1;\n            price = (5 * digits) / 100;\n            statusprice = digits / 1000;\n        } else {\n            max = 5555;\n            sloz = 1234;\n            price = 1 * digits;\n            statusprice = digits / 1000;\n        }\n    }\n\n    function isOwner(address _adr) external view returns (bool) {\n        // SHOWS BOOL OF OWNERSTATUS OF ADDRESS\n        if (_adr == owner) return true;\n        else return false;\n    }\n\n    function _earn(address _adr, uint256 _o) internal returns (uint256) {\n        ice.transfer(_adr, _o * digits);\n        return _o;\n    }\n\n    function mint(\n        uint256 _amnt,\n        uint256[] memory _diasIDs,\n        string[] memory _diasOBJs\n    ) external payable returns (uint256) {\n        // INITIATES THE MINT OF UP TO 7 TOKENS IF ALLOWED\n        require(minted <= max + 1, \"SOLD OUT\");\n        require(msg.value >= _amnt * price, \"INSUFFICIET FUNDS\");\n        require(start == true, \"MINT IS NOT YET LIVE\");\n        ownedBy[minted] = msg.sender;\n        _doMint(_amnt, msg.sender, _diasIDs, _diasOBJs);\n        uint256 o = 1 + (block.timestamp % 9);\n        return _earn(msg.sender, o);\n    }\n\n    function greenMint(uint256[] memory _diasIDs, string[] memory _diasOBJs)\n        external\n        returns (uint256)\n    {\n        // INITIATES THE MINT OF UP TO 7 TOKENS IF ALLOWED\n        require(minted <= max, \"SOLD OUT\");\n        require(start == true, \"MINT IS NOT YET LIVE\");\n        bool boo = GLC.isListed(msg.sender);\n        require(boo == true, \"YOU ARE NOT GREENLISTED\");\n        require(slots <= sloz, \"ALL SLOTS HAVE BEEN MINTED\");\n        ownedBy[minted] = msg.sender;\n        _doMint(1, msg.sender, _diasIDs, _diasOBJs);\n        uint256 o = 1 + (block.timestamp % 9);\n        slots++;\n        return _earn(msg.sender, o);\n    }\n\n    function setStatus(uint256 _id, string memory _status)\n        external\n        payable\n        returns (bool)\n    {\n        require(ownedBy[_id] == msg.sender, \"YOU ARE NOT THE HOLDER\");\n        require(start == false, \"MINT IS STILL IN PROGRESS\");\n        require(msg.value >= statusprice);\n        status[_id] = _status;\n        return true;\n    }\n\n    function iceSetStatus(uint256 _id, string memory _status)\n        external\n        returns (string memory)\n    {\n        require(ownedBy[_id] == msg.sender, \"YOU ARE NOT THE HOLDER\");\n        require(start == false, \"MINT IS STILL IN PROGRESS\");\n        require(ice.balanceOf(msg.sender) >= digits, \"NOT ENOUGH ICE !\");\n        ice.burn(digits, msg.sender);\n        if (block.timestamp % 9 < 3) {\n            icebox[_id] += 1;\n            if (meltbox[_id] == 0)\n                meltbox[_id] = block.timestamp + 1 * 60 * 60 * 24;\n            else meltbox[_id] += 1 * 60 * 60 * 24;\n        }\n        status[_id] = _status;\n        return \"ICE HAS BEEN ADDED TO FROOT !\";\n    }\n\n    function addIce(uint256 _amount, uint256 _id)\n        external\n        returns (string memory)\n    {\n        require(ice.balanceOf(msg.sender) >= _amount * digits);\n        ice.burn(_amount * digits, msg.sender);\n        icebox[_id] += _amount;\n        meltbox[_id] += _amount * 60 * 60 * 24;\n        return \"ICE HAS BEEN ADDED TO FROOT !\";\n    }\n\n    function meltState() external view returns (int256 state) {\n        int256 meltleft = int256(meltbox[minter[msg.sender]]) -\n            int256(block.timestamp);\n        return state = ((meltleft - (meltleft % 3600)) / 3600);\n    }\n\n    function changeMintState() external onlyO returns (bool) {\n        return cMS();\n    }\n\n    // ONLY TESTNET\n    /* */\n    function changeMS() external returns (bool) {\n        require(msg.sender == address(GLC), \"NOT CONTRACT !\");\n        return cMS();\n    }\n\n    // */\n    function cMS() internal returns (bool) {\n        return start = !start;\n    }\n\n    function mintOne(\n        address _adr,\n        uint256 _diasID,\n        string memory _diasOBJ\n    ) internal returns (uint256) {\n        // INTERNAL // MINTS ONE TOKEN\n        _mint(_adr, minted);\n        tid[minted] = _diasID;\n        dias[minted] = bytes(_diasOBJ);\n        meltbox[minted] = block.timestamp + (7 * 60 * 60 * 24);\n        minter[_adr] = minted;\n        minted++;\n        if (minted >= max + 1) cMS();\n        return minted;\n    }\n\n    function _doMint(\n        uint256 _amnt,\n        address _adr,\n        uint256[] memory _diasIDs,\n        string[] memory _diasOBJs\n    ) internal returns (uint256) {\n        require(\n            balanceOf(_adr) + _amnt <= num,\n            \"EXCEEDED MAX MINTABLE TOKENS PER WALLET\"\n        );\n        require(minted + _amnt <= max + 1, \"NOT ENOUGH SUPPLY\");\n        // INTERNAL // MINTS UP TO 7 TOKENS IN ONE TX\n        mintOne(_adr, _diasIDs[0], _diasOBJs[0]);\n        return minted;\n    }\n\n    function holder(uint256 _id) external view returns (address) {\n        // SHOWS OWNER OF TOKEN BY TID\n        return ownedBy[_id];\n    }\n\n    function clearSloz() external returns (bool) {\n        slots = 1234;\n        return true;\n    }\n\n    function flush() external returns (uint256) {\n        // WITHDRAW ALL ETHER FROM CONTRACT\n        payable(owner).transfer(address(this).balance);\n        return address(this).balance;\n    }\n\n    function flushERC20(address _erc) external returns (uint256) {\n        // WITHDRAW ALL COIN FROM CONTRACT\n        ERC20 coin = ERC20(_erc);\n        coin.transferFrom(address(this), owner, coin.balanceOf(address(this)));\n        return coin.balanceOf(address(this));\n    }\n\n    function flushERC721(address _erc, uint256 _id) external returns (uint256) {\n        // WITHDRAW ALL NFT FROM CONTRACT\n        ERC721 coin = ERC721(_erc);\n        coin.transferFrom(address(this), owner, _id);\n        return _id;\n    }\n}\n",
  "sourcePath": "/Users/iii6/Documents/GitHub/niftish/contracts/FrootyCoolTingz.sol",
  "compiler": {
    "name": "solc",
    "version": "0.8.17+commit.8df45f5f.Emscripten.clang"
  },
  "schemaVersion": "3.4.8",
  "updatedAt": "2023-03-21T15:19:51.328Z",
  "networkType": "ethereum",
  "devdoc": {
    "kind": "dev",
    "methods": {
      "approve(address,uint256)": {
        "details": "See {IERC721-approve}."
      },
      "balanceOf(address)": {
        "details": "See {IERC721-balanceOf}."
      },
      "getApproved(uint256)": {
        "details": "See {IERC721-getApproved}."
      },
      "isApprovedForAll(address,address)": {
        "details": "See {IERC721-isApprovedForAll}."
      },
      "name()": {
        "details": "See {IERC721Metadata-name}."
      },
      "ownerOf(uint256)": {
        "details": "See {IERC721-ownerOf}."
      },
      "safeTransferFrom(address,address,uint256)": {
        "details": "See {IERC721-safeTransferFrom}."
      },
      "safeTransferFrom(address,address,uint256,bytes)": {
        "details": "See {IERC721-safeTransferFrom}."
      },
      "setApprovalForAll(address,bool)": {
        "details": "See {IERC721-setApprovalForAll}."
      },
      "supportsInterface(bytes4)": {
        "details": "See {IERC165-supportsInterface}."
      },
      "symbol()": {
        "details": "See {IERC721Metadata-symbol}."
      },
      "tokenURI(uint256)": {
        "details": "See {IERC721Metadata-tokenURI}."
      },
      "transferFrom(address,address,uint256)": {
        "details": "See {IERC721-transferFrom}."
      }
    },
    "version": 1
  },
  "userdoc": {
    "kind": "user",
    "methods": {},
    "version": 1
  }
}