{
  "contractName": "FrootyCoolTingz",
  "abi": [
    {
      "inputs": [
        {
          "internalType": "address",
          "name": "_ICE",
          "type": "address"
        },
        {
          "internalType": "address",
          "name": "_Greenlist",
          "type": "address"
        },
        {
          "internalType": "uint256",
          "name": "_t",
          "type": "uint256"
        }
      ],
      "stateMutability": "nonpayable",
      "type": "constructor"
    },
    {
      "anonymous": false,
      "inputs": [
        {
          "indexed": true,
          "internalType": "address",
          "name": "owner",
          "type": "address"
        },
        {
          "indexed": true,
          "internalType": "address",
          "name": "approved",
          "type": "address"
        },
        {
          "indexed": true,
          "internalType": "uint256",
          "name": "tokenId",
          "type": "uint256"
        }
      ],
      "name": "Approval",
      "type": "event"
    },
    {
      "anonymous": false,
      "inputs": [
        {
          "indexed": true,
          "internalType": "address",
          "name": "owner",
          "type": "address"
        },
        {
          "indexed": true,
          "internalType": "address",
          "name": "operator",
          "type": "address"
        },
        {
          "indexed": false,
          "internalType": "bool",
          "name": "approved",
          "type": "bool"
        }
      ],
      "name": "ApprovalForAll",
      "type": "event"
    },
    {
      "anonymous": false,
      "inputs": [
        {
          "indexed": true,
          "internalType": "address",
          "name": "from",
          "type": "address"
        },
        {
          "indexed": true,
          "internalType": "address",
          "name": "to",
          "type": "address"
        },
        {
          "indexed": true,
          "internalType": "uint256",
          "name": "tokenId",
          "type": "uint256"
        }
      ],
      "name": "Transfer",
      "type": "event"
    },
    {
      "inputs": [],
      "name": "GLC",
      "outputs": [
        {
          "internalType": "contract Greenlist",
          "name": "",
          "type": "address"
        }
      ],
      "stateMutability": "view",
      "type": "function",
      "constant": true
    },
    {
      "inputs": [
        {
          "internalType": "address",
          "name": "to",
          "type": "address"
        },
        {
          "internalType": "uint256",
          "name": "tokenId",
          "type": "uint256"
        }
      ],
      "name": "approve",
      "outputs": [],
      "stateMutability": "nonpayable",
      "type": "function"
    },
    {
      "inputs": [
        {
          "internalType": "address",
          "name": "owner",
          "type": "address"
        }
      ],
      "name": "balanceOf",
      "outputs": [
        {
          "internalType": "uint256",
          "name": "",
          "type": "uint256"
        }
      ],
      "stateMutability": "view",
      "type": "function",
      "constant": true
    },
    {
      "inputs": [
        {
          "internalType": "uint256",
          "name": "",
          "type": "uint256"
        }
      ],
      "name": "dias",
      "outputs": [
        {
          "internalType": "bytes",
          "name": "",
          "type": "bytes"
        }
      ],
      "stateMutability": "view",
      "type": "function",
      "constant": true
    },
    {
      "inputs": [],
      "name": "digits",
      "outputs": [
        {
          "internalType": "uint256",
          "name": "",
          "type": "uint256"
        }
      ],
      "stateMutability": "view",
      "type": "function",
      "constant": true
    },
    {
      "inputs": [
        {
          "internalType": "uint256",
          "name": "tokenId",
          "type": "uint256"
        }
      ],
      "name": "getApproved",
      "outputs": [
        {
          "internalType": "address",
          "name": "",
          "type": "address"
        }
      ],
      "stateMutability": "view",
      "type": "function",
      "constant": true
    },
    {
      "inputs": [],
      "name": "ice",
      "outputs": [
        {
          "internalType": "contract ICE",
          "name": "",
          "type": "address"
        }
      ],
      "stateMutability": "view",
      "type": "function",
      "constant": true
    },
    {
      "inputs": [
        {
          "internalType": "uint256",
          "name": "",
          "type": "uint256"
        }
      ],
      "name": "icebox",
      "outputs": [
        {
          "internalType": "uint256",
          "name": "",
          "type": "uint256"
        }
      ],
      "stateMutability": "view",
      "type": "function",
      "constant": true
    },
    {
      "inputs": [
        {
          "internalType": "address",
          "name": "owner",
          "type": "address"
        },
        {
          "internalType": "address",
          "name": "operator",
          "type": "address"
        }
      ],
      "name": "isApprovedForAll",
      "outputs": [
        {
          "internalType": "bool",
          "name": "",
          "type": "bool"
        }
      ],
      "stateMutability": "view",
      "type": "function",
      "constant": true
    },
    {
      "inputs": [],
      "name": "max",
      "outputs": [
        {
          "internalType": "uint256",
          "name": "",
          "type": "uint256"
        }
      ],
      "stateMutability": "view",
      "type": "function",
      "constant": true
    },
    {
      "inputs": [
        {
          "internalType": "uint256",
          "name": "",
          "type": "uint256"
        }
      ],
      "name": "meltbox",
      "outputs": [
        {
          "internalType": "uint256",
          "name": "",
          "type": "uint256"
        }
      ],
      "stateMutability": "view",
      "type": "function",
      "constant": true
    },
    {
      "inputs": [],
      "name": "minted",
      "outputs": [
        {
          "internalType": "uint256",
          "name": "",
          "type": "uint256"
        }
      ],
      "stateMutability": "view",
      "type": "function",
      "constant": true
    },
    {
      "inputs": [
        {
          "internalType": "address",
          "name": "",
          "type": "address"
        }
      ],
      "name": "minter",
      "outputs": [
        {
          "internalType": "uint256",
          "name": "",
          "type": "uint256"
        }
      ],
      "stateMutability": "view",
      "type": "function",
      "constant": true
    },
    {
      "inputs": [],
      "name": "nam",
      "outputs": [
        {
          "internalType": "string",
          "name": "",
          "type": "string"
        }
      ],
      "stateMutability": "view",
      "type": "function",
      "constant": true
    },
    {
      "inputs": [],
      "name": "name",
      "outputs": [
        {
          "internalType": "string",
          "name": "",
          "type": "string"
        }
      ],
      "stateMutability": "view",
      "type": "function",
      "constant": true
    },
    {
      "inputs": [],
      "name": "num",
      "outputs": [
        {
          "internalType": "uint256",
          "name": "",
          "type": "uint256"
        }
      ],
      "stateMutability": "view",
      "type": "function",
      "constant": true
    },
    {
      "inputs": [
        {
          "internalType": "uint256",
          "name": "",
          "type": "uint256"
        }
      ],
      "name": "ownedBy",
      "outputs": [
        {
          "internalType": "address",
          "name": "",
          "type": "address"
        }
      ],
      "stateMutability": "view",
      "type": "function",
      "constant": true
    },
    {
      "inputs": [],
      "name": "owner",
      "outputs": [
        {
          "internalType": "address",
          "name": "",
          "type": "address"
        }
      ],
      "stateMutability": "view",
      "type": "function",
      "constant": true
    },
    {
      "inputs": [
        {
          "internalType": "uint256",
          "name": "tokenId",
          "type": "uint256"
        }
      ],
      "name": "ownerOf",
      "outputs": [
        {
          "internalType": "address",
          "name": "",
          "type": "address"
        }
      ],
      "stateMutability": "view",
      "type": "function",
      "constant": true
    },
    {
      "inputs": [],
      "name": "price",
      "outputs": [
        {
          "internalType": "uint256",
          "name": "",
          "type": "uint256"
        }
      ],
      "stateMutability": "view",
      "type": "function",
      "constant": true
    },
    {
      "inputs": [
        {
          "internalType": "address",
          "name": "from",
          "type": "address"
        },
        {
          "internalType": "address",
          "name": "to",
          "type": "address"
        },
        {
          "internalType": "uint256",
          "name": "tokenId",
          "type": "uint256"
        }
      ],
      "name": "safeTransferFrom",
      "outputs": [],
      "stateMutability": "nonpayable",
      "type": "function"
    },
    {
      "inputs": [
        {
          "internalType": "address",
          "name": "from",
          "type": "address"
        },
        {
          "internalType": "address",
          "name": "to",
          "type": "address"
        },
        {
          "internalType": "uint256",
          "name": "tokenId",
          "type": "uint256"
        },
        {
          "internalType": "bytes",
          "name": "_data",
          "type": "bytes"
        }
      ],
      "name": "safeTransferFrom",
      "outputs": [],
      "stateMutability": "nonpayable",
      "type": "function"
    },
    {
      "inputs": [
        {
          "internalType": "address",
          "name": "operator",
          "type": "address"
        },
        {
          "internalType": "bool",
          "name": "approved",
          "type": "bool"
        }
      ],
      "name": "setApprovalForAll",
      "outputs": [],
      "stateMutability": "nonpayable",
      "type": "function"
    },
    {
      "inputs": [],
      "name": "slots",
      "outputs": [
        {
          "internalType": "uint256",
          "name": "",
          "type": "uint256"
        }
      ],
      "stateMutability": "view",
      "type": "function",
      "constant": true
    },
    {
      "inputs": [],
      "name": "sloz",
      "outputs": [
        {
          "internalType": "uint256",
          "name": "",
          "type": "uint256"
        }
      ],
      "stateMutability": "view",
      "type": "function",
      "constant": true
    },
    {
      "inputs": [],
      "name": "start",
      "outputs": [
        {
          "internalType": "bool",
          "name": "",
          "type": "bool"
        }
      ],
      "stateMutability": "view",
      "type": "function",
      "constant": true
    },
    {
      "inputs": [
        {
          "internalType": "uint256",
          "name": "",
          "type": "uint256"
        }
      ],
      "name": "status",
      "outputs": [
        {
          "internalType": "string",
          "name": "",
          "type": "string"
        }
      ],
      "stateMutability": "view",
      "type": "function",
      "constant": true
    },
    {
      "inputs": [],
      "name": "statusprice",
      "outputs": [
        {
          "internalType": "uint256",
          "name": "",
          "type": "uint256"
        }
      ],
      "stateMutability": "view",
      "type": "function",
      "constant": true
    },
    {
      "inputs": [
        {
          "internalType": "bytes4",
          "name": "interfaceId",
          "type": "bytes4"
        }
      ],
      "name": "supportsInterface",
      "outputs": [
        {
          "internalType": "bool",
          "name": "",
          "type": "bool"
        }
      ],
      "stateMutability": "view",
      "type": "function",
      "constant": true
    },
    {
      "inputs": [],
      "name": "sym",
      "outputs": [
        {
          "internalType": "string",
          "name": "",
          "type": "string"
        }
      ],
      "stateMutability": "view",
      "type": "function",
      "constant": true
    },
    {
      "inputs": [],
      "name": "symbol",
      "outputs": [
        {
          "internalType": "string",
          "name": "",
          "type": "string"
        }
      ],
      "stateMutability": "view",
      "type": "function",
      "constant": true
    },
    {
      "inputs": [
        {
          "internalType": "uint256",
          "name": "",
          "type": "uint256"
        }
      ],
      "name": "tid",
      "outputs": [
        {
          "internalType": "uint256",
          "name": "",
          "type": "uint256"
        }
      ],
      "stateMutability": "view",
      "type": "function",
      "constant": true
    },
    {
      "inputs": [
        {
          "internalType": "uint256",
          "name": "tokenId",
          "type": "uint256"
        }
      ],
      "name": "tokenURI",
      "outputs": [
        {
          "internalType": "string",
          "name": "",
          "type": "string"
        }
      ],
      "stateMutability": "view",
      "type": "function",
      "constant": true
    },
    {
      "inputs": [
        {
          "internalType": "address",
          "name": "from",
          "type": "address"
        },
        {
          "internalType": "address",
          "name": "to",
          "type": "address"
        },
        {
          "internalType": "uint256",
          "name": "tokenId",
          "type": "uint256"
        }
      ],
      "name": "transferFrom",
      "outputs": [],
      "stateMutability": "nonpayable",
      "type": "function"
    },
    {
      "inputs": [
        {
          "internalType": "address",
          "name": "_adr",
          "type": "address"
        }
      ],
      "name": "isOwner",
      "outputs": [
        {
          "internalType": "bool",
          "name": "",
          "type": "bool"
        }
      ],
      "stateMutability": "view",
      "type": "function",
      "constant": true
    },
    {
      "inputs": [
        {
          "internalType": "uint256",
          "name": "_amnt",
          "type": "uint256"
        },
        {
          "internalType": "uint256[]",
          "name": "_diasIDs",
          "type": "uint256[]"
        },
        {
          "internalType": "string[]",
          "name": "_diasOBJs",
          "type": "string[]"
        }
      ],
      "name": "mint",
      "outputs": [
        {
          "internalType": "uint256",
          "name": "",
          "type": "uint256"
        }
      ],
      "stateMutability": "payable",
      "type": "function",
      "payable": true
    },
    {
      "inputs": [
        {
          "internalType": "uint256[]",
          "name": "_diasIDs",
          "type": "uint256[]"
        },
        {
          "internalType": "string[]",
          "name": "_diasOBJs",
          "type": "string[]"
        }
      ],
      "name": "greenMint",
      "outputs": [
        {
          "internalType": "uint256",
          "name": "",
          "type": "uint256"
        }
      ],
      "stateMutability": "nonpayable",
      "type": "function"
    },
    {
      "inputs": [
        {
          "internalType": "uint256",
          "name": "_id",
          "type": "uint256"
        },
        {
          "internalType": "string",
          "name": "_status",
          "type": "string"
        }
      ],
      "name": "setStatus",
      "outputs": [
        {
          "internalType": "bool",
          "name": "",
          "type": "bool"
        }
      ],
      "stateMutability": "payable",
      "type": "function",
      "payable": true
    },
    {
      "inputs": [
        {
          "internalType": "uint256",
          "name": "_amount",
          "type": "uint256"
        },
        {
          "internalType": "uint256",
          "name": "_id",
          "type": "uint256"
        }
      ],
      "name": "addIce",
      "outputs": [
        {
          "internalType": "string",
          "name": "",
          "type": "string"
        }
      ],
      "stateMutability": "nonpayable",
      "type": "function"
    },
    {
      "inputs": [],
      "name": "meltState",
      "outputs": [
        {
          "internalType": "int256",
          "name": "state",
          "type": "int256"
        }
      ],
      "stateMutability": "view",
      "type": "function",
      "constant": true
    },
    {
      "inputs": [],
      "name": "changeMintState",
      "outputs": [
        {
          "internalType": "bool",
          "name": "",
          "type": "bool"
        }
      ],
      "stateMutability": "nonpayable",
      "type": "function"
    },
    {
      "inputs": [],
      "name": "changeMS",
      "outputs": [
        {
          "internalType": "bool",
          "name": "",
          "type": "bool"
        }
      ],
      "stateMutability": "nonpayable",
      "type": "function"
    },
    {
      "inputs": [
        {
          "internalType": "uint256",
          "name": "_id",
          "type": "uint256"
        }
      ],
      "name": "holder",
      "outputs": [
        {
          "internalType": "address",
          "name": "",
          "type": "address"
        }
      ],
      "stateMutability": "view",
      "type": "function",
      "constant": true
    },
    {
      "inputs": [],
      "name": "clearSloz",
      "outputs": [
        {
          "internalType": "bool",
          "name": "",
          "type": "bool"
        }
      ],
      "stateMutability": "nonpayable",
      "type": "function"
    },
    {
      "inputs": [],
      "name": "flush",
      "outputs": [
        {
          "internalType": "uint256",
          "name": "",
          "type": "uint256"
        }
      ],
      "stateMutability": "nonpayable",
      "type": "function"
    },
    {
      "inputs": [
        {
          "internalType": "address",
          "name": "_erc",
          "type": "address"
        }
      ],
      "name": "flushERC20",
      "outputs": [
        {
          "internalType": "uint256",
          "name": "",
          "type": "uint256"
        }
      ],
      "stateMutability": "nonpayable",
      "type": "function"
    },
    {
      "inputs": [
        {
          "internalType": "address",
          "name": "_erc",
          "type": "address"
        },
        {
          "internalType": "uint256",
          "name": "_id",
          "type": "uint256"
        }
      ],
      "name": "flushERC721",
      "outputs": [
        {
          "internalType": "uint256",
          "name": "",
          "type": "uint256"
        }
      ],
      "stateMutability": "nonpayable",
      "type": "function"
    }
  ],
  "bytecode": "0x60806040523480156200001157600080fd5b50604051620059cd380380620059cd833981810160405281019062000037919062000357565b6040518060400160405280600b81526020017f436f6f6c2046726f6f74730000000000000000000000000000000000000000008152506040518060400160405280600581526020017f46524f4f540000000000000000000000000000000000000000000000000000008152508160009081620000b4919062000623565b508060019081620000c6919062000623565b5050506001600c819055506000600f8190555033600a60006101000a81548173ffffffffffffffffffffffffffffffffffffffff021916908373ffffffffffffffffffffffffffffffffffffffff1602179055506040518060400160405280600b81526020017f436f6f6c2046726f6f7473000000000000000000000000000000000000000000815250600d908162000160919062000623565b506040518060400160405280600581526020017f46524f4f54000000000000000000000000000000000000000000000000000000815250600e9081620001a7919062000623565b5082601860006101000a81548173ffffffffffffffffffffffffffffffffffffffff021916908373ffffffffffffffffffffffffffffffffffffffff16021790555081601960006101000a81548173ffffffffffffffffffffffffffffffffffffffff021916908373ffffffffffffffffffffffffffffffffffffffff160217905550600081036200027e576005600881905550600160098190555066b1a2bc2ec50000600681905550612710670de0b6b3a764000060016200026b919062000739565b620002779190620007b3565b6007819055505b60018103620002a9576115b36008819055506104d2600981905550674563918244f400006006819055505b505050620007eb565b600080fd5b600073ffffffffffffffffffffffffffffffffffffffff82169050919050565b6000620002e482620002b7565b9050919050565b620002f681620002d7565b81146200030257600080fd5b50565b6000815190506200031681620002eb565b92915050565b6000819050919050565b62000331816200031c565b81146200033d57600080fd5b50565b600081519050620003518162000326565b92915050565b600080600060608486031215620003735762000372620002b2565b5b6000620003838682870162000305565b9350506020620003968682870162000305565b9250506040620003a98682870162000340565b9150509250925092565b600081519050919050565b7f4e487b7100000000000000000000000000000000000000000000000000000000600052604160045260246000fd5b7f4e487b7100000000000000000000000000000000000000000000000000000000600052602260045260246000fd5b600060028204905060018216806200043557607f821691505b6020821081036200044b576200044a620003ed565b5b50919050565b60008190508160005260206000209050919050565b60006020601f8301049050919050565b600082821b905092915050565b600060088302620004b57fffffffffffffffffffffffffffffffffffffffffffffffffffffffffffffffff8262000476565b620004c1868362000476565b95508019841693508086168417925050509392505050565b6000819050919050565b600062000504620004fe620004f8846200031c565b620004d9565b6200031c565b9050919050565b6000819050919050565b6200052083620004e3565b620005386200052f826200050b565b84845462000483565b825550505050565b600090565b6200054f62000540565b6200055c81848462000515565b505050565b5b8181101562000584576200057860008262000545565b60018101905062000562565b5050565b601f821115620005d3576200059d8162000451565b620005a88462000466565b81016020851015620005b8578190505b620005d0620005c78562000466565b83018262000561565b50505b505050565b600082821c905092915050565b6000620005f860001984600802620005d8565b1980831691505092915050565b6000620006138383620005e5565b9150826002028217905092915050565b6200062e82620003b3565b67ffffffffffffffff8111156200064a5762000649620003be565b5b6200065682546200041c565b6200066382828562000588565b600060209050601f8311600181146200069b576000841562000686578287015190505b62000692858262000605565b86555062000702565b601f198416620006ab8662000451565b60005b82811015620006d557848901518255600182019150602085019450602081019050620006ae565b86831015620006f55784890151620006f1601f891682620005e5565b8355505b6001600288020188555050505b505050505050565b7f4e487b7100000000000000000000000000000000000000000000000000000000600052601160045260246000fd5b600062000746826200031c565b915062000753836200031c565b925082820262000763816200031c565b915082820484148315176200077d576200077c6200070a565b5b5092915050565b7f4e487b7100000000000000000000000000000000000000000000000000000000600052601260045260246000fd5b6000620007c0826200031c565b9150620007cd836200031c565b925082620007e057620007df62000784565b5b828204905092915050565b6151d280620007fb6000396000f3fe6080604052600436106102885760003560e01c806376917df91161015a578063a9700e1f116100c1578063ba899a2e1161007a578063ba899a2e14610a7e578063be9a655514610abb578063c87b56dd14610ae6578063d64b3ae814610b23578063e985e9c514610b60578063ea25b61d14610b9d57610288565b8063a9700e1f14610948578063aa1ee94014610973578063ac0d4084146109b0578063ae943abc146109ed578063b524fd6f14610a2a578063b88d4fde14610a5557610288565b80639af9bec0116101135780639af9bec0146108245780639b4f589f1461084f5780639e20437c1461088c578063a035b1fe146108b7578063a22cb465146108e2578063a613e0e71461090b57610288565b806376917df91461070b5780637d23b33c1461073b578063801427541461077857806383813a28146107a35780638da5cb5b146107ce57806395d89b41146107f957610288565b806342842e0e116101fe5780634f02c420116101b75780634f02c420146105e55780636352211e146106105780636ac5db191461064d5780636b9f96ea146106785780636f743acd146106a357806370a08231146106ce57610288565b806342842e0e146104c157806342d21ef7146104ea578063477523c21461052757806348547d69146105645780634c2a860d1461058f5780634e70b1dc146105ba57610288565b806320a7270d1161025057806320a7270d14610386578063216d534c146103b657806323b872dd146103f35780632f54bf6e1461041c5780633b8d676f146104595780633dd08c381461048457610288565b806301ffc9a71461028d57806306390d6c146102ca57806306fdde03146102f5578063081812fc14610320578063095ea7b31461035d575b600080fd5b34801561029957600080fd5b506102b460048036038101906102af9190613286565b610bc8565b6040516102c191906132ce565b60405180910390f35b3480156102d657600080fd5b506102df610caa565b6040516102ec9190613302565b60405180910390f35b34801561030157600080fd5b5061030a610cb0565b60405161031791906133ad565b60405180910390f35b34801561032c57600080fd5b50610347600480360381019061034291906133fb565b610d42565b6040516103549190613469565b60405180910390f35b34801561036957600080fd5b50610384600480360381019061037f91906134b0565b610dc7565b005b6103a0600480360381019061039b91906137ce565b610ede565b6040516103ad9190613302565b60405180910390f35b3480156103c257600080fd5b506103dd60048036038101906103d891906134b0565b6110f9565b6040516103ea9190613302565b60405180910390f35b3480156103ff57600080fd5b5061041a60048036038101906104159190613859565b61119a565b005b34801561042857600080fd5b50610443600480360381019061043e91906138ac565b6111fa565b60405161045091906132ce565b60405180910390f35b34801561046557600080fd5b5061046e611264565b60405161047b91906132ce565b60405180910390f35b34801561049057600080fd5b506104ab60048036038101906104a691906138ac565b611273565b6040516104b89190613302565b60405180910390f35b3480156104cd57600080fd5b506104e860048036038101906104e39190613859565b61128b565b005b3480156104f657600080fd5b50610511600480360381019061050c91906133fb565b6112ab565b60405161051e91906133ad565b60405180910390f35b34801561053357600080fd5b5061054e600480360381019061054991906138ac565b61134b565b60405161055b9190613302565b60405180910390f35b34801561057057600080fd5b506105796114ef565b6040516105869190613302565b60405180910390f35b34801561059b57600080fd5b506105a46114f5565b6040516105b19190613938565b60405180910390f35b3480156105c657600080fd5b506105cf61151b565b6040516105dc9190613302565b60405180910390f35b3480156105f157600080fd5b506105fa611520565b6040516106079190613302565b60405180910390f35b34801561061c57600080fd5b50610637600480360381019061063291906133fb565b611526565b6040516106449190613469565b60405180910390f35b34801561065957600080fd5b506106626115d7565b60405161066f9190613302565b60405180910390f35b34801561068457600080fd5b5061068d6115dd565b60405161069a9190613302565b60405180910390f35b3480156106af57600080fd5b506106b861164e565b6040516106c59190613302565b60405180910390f35b3480156106da57600080fd5b506106f560048036038101906106f091906138ac565b611654565b6040516107029190613302565b60405180910390f35b61072560048036038101906107209190613953565b61170b565b60405161073291906132ce565b60405180910390f35b34801561074757600080fd5b50610762600480360381019061075d91906139af565b611903565b60405161076f9190613302565b60405180910390f35b34801561078457600080fd5b5061078d611c09565b60405161079a9190613a40565b60405180910390f35b3480156107af57600080fd5b506107b8611c8c565b6040516107c591906133ad565b60405180910390f35b3480156107da57600080fd5b506107e3611d1a565b6040516107f09190613469565b60405180910390f35b34801561080557600080fd5b5061080e611d40565b60405161081b91906133ad565b60405180910390f35b34801561083057600080fd5b50610839611dd2565b60405161084691906133ad565b60405180910390f35b34801561085b57600080fd5b50610876600480360381019061087191906133fb565b611e60565b6040516108839190613ab0565b60405180910390f35b34801561089857600080fd5b506108a1611f00565b6040516108ae9190613302565b60405180910390f35b3480156108c357600080fd5b506108cc611f0c565b6040516108d99190613302565b60405180910390f35b3480156108ee57600080fd5b5061090960048036038101906109049190613afe565b611f12565b005b34801561091757600080fd5b50610932600480360381019061092d91906133fb565b611f28565b60405161093f9190613469565b60405180910390f35b34801561095457600080fd5b5061095d611f5b565b60405161096a9190613b5f565b60405180910390f35b34801561097f57600080fd5b5061099a600480360381019061099591906133fb565b611f81565b6040516109a79190613302565b60405180910390f35b3480156109bc57600080fd5b506109d760048036038101906109d29190613b7a565b611f99565b6040516109e491906133ad565b60405180910390f35b3480156109f957600080fd5b50610a146004803603810190610a0f91906133fb565b612226565b604051610a219190613302565b60405180910390f35b348015610a3657600080fd5b50610a3f61223e565b604051610a4c91906132ce565b60405180910390f35b348015610a6157600080fd5b50610a7c6004803603810190610a779190613c5b565b6122a7565b005b348015610a8a57600080fd5b50610aa56004803603810190610aa091906133fb565b612309565b604051610ab29190613469565b60405180910390f35b348015610ac757600080fd5b50610ad061231b565b604051610add91906132ce565b60405180910390f35b348015610af257600080fd5b50610b0d6004803603810190610b0891906133fb565b61232e565b604051610b1a91906133ad565b60405180910390f35b348015610b2f57600080fd5b50610b4a6004803603810190610b4591906133fb565b6123d5565b604051610b579190613302565b60405180910390f35b348015610b6c57600080fd5b50610b876004803603810190610b829190613cde565b6123ed565b604051610b9491906132ce565b60405180910390f35b348015610ba957600080fd5b50610bb2612481565b604051610bbf91906132ce565b60405180910390f35b60007f80ac58cd000000000000000000000000000000000000000000000000000000007bffffffffffffffffffffffffffffffffffffffffffffffffffffffff1916827bffffffffffffffffffffffffffffffffffffffffffffffffffffffff19161480610c9357507f5b5e139f000000000000000000000000000000000000000000000000000000007bffffffffffffffffffffffffffffffffffffffffffffffffffffffff1916827bffffffffffffffffffffffffffffffffffffffffffffffffffffffff1916145b80610ca35750610ca282612493565b5b9050919050565b60075481565b606060008054610cbf90613d4d565b80601f0160208091040260200160405190810160405280929190818152602001828054610ceb90613d4d565b8015610d385780601f10610d0d57610100808354040283529160200191610d38565b820191906000526020600020905b815481529060010190602001808311610d1b57829003601f168201915b5050505050905090565b6000610d4d826124fd565b610d8c576040517f08c379a0000000000000000000000000000000000000000000000000000000008152600401610d8390613df0565b60405180910390fd5b6004600083815260200190815260200160002060009054906101000a900473ffffffffffffffffffffffffffffffffffffffff169050919050565b6000610dd282611526565b90508073ffffffffffffffffffffffffffffffffffffffff168373ffffffffffffffffffffffffffffffffffffffff1603610e42576040517f08c379a0000000000000000000000000000000000000000000000000000000008152600401610e3990613e82565b60405180910390fd5b8073ffffffffffffffffffffffffffffffffffffffff16610e61612569565b73ffffffffffffffffffffffffffffffffffffffff161480610e905750610e8f81610e8a612569565b6123ed565b5b610ecf576040517f08c379a0000000000000000000000000000000000000000000000000000000008152600401610ec690613f14565b60405180910390fd5b610ed98383612571565b505050565b60006001600854610eef9190613f63565b600c541115610f33576040517f08c379a0000000000000000000000000000000000000000000000000000000008152600401610f2a90613fe3565b60405180910390fd5b60065484610f419190614003565b341015610f83576040517f08c379a0000000000000000000000000000000000000000000000000000000008152600401610f7a90614091565b60405180910390fd5b60011515601060009054906101000a900460ff16151514610fd9576040517f08c379a0000000000000000000000000000000000000000000000000000000008152600401610fd0906140fd565b60405180910390fd5b3360166000600c54815260200190815260200160002060006101000a81548173ffffffffffffffffffffffffffffffffffffffff021916908373ffffffffffffffffffffffffffffffffffffffff1602179055506110398433858561262a565b506000600942611049919061414c565b9050601860009054906101000a900473ffffffffffffffffffffffffffffffffffffffff1673ffffffffffffffffffffffffffffffffffffffff1663b02bf4b933836040518363ffffffff1660e01b81526004016110a892919061417d565b6020604051808303816000875af11580156110c7573d6000803e3d6000fd5b505050506040513d601f19601f820116820180604052508101906110eb91906141bb565b50600c549150509392505050565b6000808390508073ffffffffffffffffffffffffffffffffffffffff166323b872dd30600a60009054906101000a900473ffffffffffffffffffffffffffffffffffffffff16866040518463ffffffff1660e01b815260040161115e939291906141e8565b600060405180830381600087803b15801561117857600080fd5b505af115801561118c573d6000803e3d6000fd5b505050508291505092915050565b6111ab6111a5612569565b82612730565b6111ea576040517f08c379a00000000000000000000000000000000000000000000000000000000081526004016111e190614291565b60405180910390fd5b6111f583838361280e565b505050565b6000600a60009054906101000a900473ffffffffffffffffffffffffffffffffffffffff1673ffffffffffffffffffffffffffffffffffffffff168273ffffffffffffffffffffffffffffffffffffffff160361125a576001905061125f565b600090505b919050565b600061126e612a69565b905090565b60176020528060005260406000206000915090505481565b6112a6838383604051806020016040528060008152506122a7565b505050565b601360205280600052604060002060009150905080546112ca90613d4d565b80601f01602080910402602001604051908101604052809291908181526020018280546112f690613d4d565b80156113435780601f1061131857610100808354040283529160200191611343565b820191906000526020600020905b81548152906001019060200180831161132657829003601f168201915b505050505081565b6000808290508073ffffffffffffffffffffffffffffffffffffffff166323b872dd30600a60009054906101000a900473ffffffffffffffffffffffffffffffffffffffff168473ffffffffffffffffffffffffffffffffffffffff166370a08231306040518263ffffffff1660e01b81526004016113ca9190613469565b602060405180830381865afa1580156113e7573d6000803e3d6000fd5b505050506040513d601f19601f8201168201806040525081019061140b91906142c6565b6040518463ffffffff1660e01b8152600401611429939291906141e8565b6020604051808303816000875af1158015611448573d6000803e3d6000fd5b505050506040513d601f19601f8201168201806040525081019061146c91906141bb565b508073ffffffffffffffffffffffffffffffffffffffff166370a08231306040518263ffffffff1660e01b81526004016114a69190613469565b602060405180830381865afa1580156114c3573d6000803e3d6000fd5b505050506040513d601f19601f820116820180604052508101906114e791906142c6565b915050919050565b600f5481565b601860009054906101000a900473ffffffffffffffffffffffffffffffffffffffff1681565b600181565b600c5481565b6000806002600084815260200190815260200160002060009054906101000a900473ffffffffffffffffffffffffffffffffffffffff169050600073ffffffffffffffffffffffffffffffffffffffff168173ffffffffffffffffffffffffffffffffffffffff16036115ce576040517f08c379a00000000000000000000000000000000000000000000000000000000081526004016115c590614365565b60405180910390fd5b80915050919050565b60085481565b6000600a60009054906101000a900473ffffffffffffffffffffffffffffffffffffffff1673ffffffffffffffffffffffffffffffffffffffff166108fc479081150290604051600060405180830381858888f19350505050158015611647573d6000803e3d6000fd5b5047905090565b60095481565b60008073ffffffffffffffffffffffffffffffffffffffff168273ffffffffffffffffffffffffffffffffffffffff16036116c4576040517f08c379a00000000000000000000000000000000000000000000000000000000081526004016116bb906143f7565b60405180910390fd5b600360008373ffffffffffffffffffffffffffffffffffffffff1673ffffffffffffffffffffffffffffffffffffffff168152602001908152602001600020549050919050565b60003373ffffffffffffffffffffffffffffffffffffffff166016600085815260200190815260200160002060009054906101000a900473ffffffffffffffffffffffffffffffffffffffff1673ffffffffffffffffffffffffffffffffffffffff16146117ae576040517f08c379a00000000000000000000000000000000000000000000000000000000081526004016117a590614463565b60405180910390fd5b60001515601060009054906101000a900460ff16151514611804576040517f08c379a00000000000000000000000000000000000000000000000000000000081526004016117fb906144cf565b60405180910390fd5b670de0b6b3a764000034101561181957600080fd5b6000600942611828919061414c565b9050601860009054906101000a900473ffffffffffffffffffffffffffffffffffffffff1673ffffffffffffffffffffffffffffffffffffffff1663b02bf4b93360028461187691906144ef565b6040518363ffffffff1660e01b815260040161189392919061417d565b6020604051808303816000875af11580156118b2573d6000803e3d6000fd5b505050506040513d601f19601f820116820180604052508101906118d691906141bb565b50826013600086815260200190815260200160002090816118f791906146c2565b50600191505092915050565b6000600854600c54111561194c576040517f08c379a000000000000000000000000000000000000000000000000000000000815260040161194390613fe3565b60405180910390fd5b60011515601060009054906101000a900460ff161515146119a2576040517f08c379a0000000000000000000000000000000000000000000000000000000008152600401611999906140fd565b60405180910390fd5b6000601960009054906101000a900473ffffffffffffffffffffffffffffffffffffffff1673ffffffffffffffffffffffffffffffffffffffff1663f794062e336040518263ffffffff1660e01b81526004016119ff9190613469565b602060405180830381865afa158015611a1c573d6000803e3d6000fd5b505050506040513d601f19601f82011682018060405250810190611a4091906141bb565b90506001151581151514611a89576040517f08c379a0000000000000000000000000000000000000000000000000000000008152600401611a80906147e0565b60405180910390fd5b600954600f541115611ad0576040517f08c379a0000000000000000000000000000000000000000000000000000000008152600401611ac79061484c565b60405180910390fd5b3360166000600c54815260200190815260200160002060006101000a81548173ffffffffffffffffffffffffffffffffffffffff021916908373ffffffffffffffffffffffffffffffffffffffff160217905550611b31600133868661262a565b506000600942611b41919061414c565b9050601860009054906101000a900473ffffffffffffffffffffffffffffffffffffffff1673ffffffffffffffffffffffffffffffffffffffff1663b02bf4b933836040518363ffffffff1660e01b8152600401611ba092919061417d565b6020604051808303816000875af1158015611bbf573d6000803e3d6000fd5b505050506040513d601f19601f82011682018060405250810190611be391906141bb565b50600f6000815480929190611bf79061486c565b9190505550600c549250505092915050565b6000804260156000601760003373ffffffffffffffffffffffffffffffffffffffff1673ffffffffffffffffffffffffffffffffffffffff16815260200190815260200160002054815260200190815260200160002054611c6a91906148b4565b90506018610e1082611c7c91906148f7565b611c869190614961565b91505090565b600e8054611c9990613d4d565b80601f0160208091040260200160405190810160405280929190818152602001828054611cc590613d4d565b8015611d125780601f10611ce757610100808354040283529160200191611d12565b820191906000526020600020905b815481529060010190602001808311611cf557829003601f168201915b505050505081565b600a60009054906101000a900473ffffffffffffffffffffffffffffffffffffffff1681565b606060018054611d4f90613d4d565b80601f0160208091040260200160405190810160405280929190818152602001828054611d7b90613d4d565b8015611dc85780601f10611d9d57610100808354040283529160200191611dc8565b820191906000526020600020905b815481529060010190602001808311611dab57829003601f168201915b5050505050905090565b600d8054611ddf90613d4d565b80601f0160208091040260200160405190810160405280929190818152602001828054611e0b90613d4d565b8015611e585780601f10611e2d57610100808354040283529160200191611e58565b820191906000526020600020905b815481529060010190602001808311611e3b57829003601f168201915b505050505081565b60116020528060005260406000206000915090508054611e7f90613d4d565b80601f0160208091040260200160405190810160405280929190818152602001828054611eab90613d4d565b8015611ef85780601f10611ecd57610100808354040283529160200191611ef8565b820191906000526020600020905b815481529060010190602001808311611edb57829003601f168201915b505050505081565b670de0b6b3a764000081565b60065481565b611f24611f1d612569565b8383612a99565b5050565b60166020528060005260406000206000915054906101000a900473ffffffffffffffffffffffffffffffffffffffff1681565b601960009054906101000a900473ffffffffffffffffffffffffffffffffffffffff1681565b60156020528060005260406000206000915090505481565b6060670de0b6b3a764000083611faf9190614003565b601860009054906101000a900473ffffffffffffffffffffffffffffffffffffffff1673ffffffffffffffffffffffffffffffffffffffff166370a08231336040518263ffffffff1660e01b815260040161200a9190613469565b602060405180830381865afa158015612027573d6000803e3d6000fd5b505050506040513d601f19601f8201168201806040525081019061204b91906142c6565b101561205657600080fd5b601860009054906101000a900473ffffffffffffffffffffffffffffffffffffffff1673ffffffffffffffffffffffffffffffffffffffff1663fcd3533c670de0b6b3a7640000856120a89190614003565b336040518363ffffffff1660e01b81526004016120c69291906149d9565b6020604051808303816000875af11580156120e5573d6000803e3d6000fd5b505050506040513d601f19601f8201168201806040525081019061210991906142c6565b508260146000848152602001908152602001600020600082825461212d9190613f63565b92505081905550600060156000848152602001908152602001600020540361219a576018603c808561215f9190614003565b6121699190614003565b6121739190614003565b4261217e9190613f63565b60156000848152602001908152602001600020819055506121e8565b6018603c80856121aa9190614003565b6121b49190614003565b6121be9190614003565b6015600084815260200190815260200160002060008282546121e09190613f63565b925050819055505b6040518060400160405280601d81526020017f49434520484153204245454e20414444454420544f2046524f4f542021000000815250905092915050565b60126020528060005260406000206000915090505481565b6000600a60009054906101000a900473ffffffffffffffffffffffffffffffffffffffff1673ffffffffffffffffffffffffffffffffffffffff163373ffffffffffffffffffffffffffffffffffffffff161461229a57600080fd5b6122a2612a69565b905090565b6122b86122b2612569565b83612730565b6122f7576040517f08c379a00000000000000000000000000000000000000000000000000000000081526004016122ee90614291565b60405180910390fd5b61230384848484612c05565b50505050565b600061231482611526565b9050919050565b601060009054906101000a900460ff1681565b6060612339826124fd565b612378576040517f08c379a000000000000000000000000000000000000000000000000000000000815260040161236f90614a74565b60405180910390fd5b6000612382612c61565b905060008151116123a257604051806020016040528060008152506123cd565b806123ac84612c78565b6040516020016123bd929190614ad0565b6040516020818303038152906040525b915050919050565b60146020528060005260406000206000915090505481565b6000600560008473ffffffffffffffffffffffffffffffffffffffff1673ffffffffffffffffffffffffffffffffffffffff16815260200190815260200160002060008373ffffffffffffffffffffffffffffffffffffffff1673ffffffffffffffffffffffffffffffffffffffff16815260200190815260200160002060009054906101000a900460ff16905092915050565b60006104d2600f819055506001905090565b60007f01ffc9a7000000000000000000000000000000000000000000000000000000007bffffffffffffffffffffffffffffffffffffffffffffffffffffffff1916827bffffffffffffffffffffffffffffffffffffffffffffffffffffffff1916149050919050565b60008073ffffffffffffffffffffffffffffffffffffffff166002600084815260200190815260200160002060009054906101000a900473ffffffffffffffffffffffffffffffffffffffff1673ffffffffffffffffffffffffffffffffffffffff1614159050919050565b600033905090565b816004600083815260200190815260200160002060006101000a81548173ffffffffffffffffffffffffffffffffffffffff021916908373ffffffffffffffffffffffffffffffffffffffff160217905550808273ffffffffffffffffffffffffffffffffffffffff166125e483611526565b73ffffffffffffffffffffffffffffffffffffffff167f8c5be1e5ebec7d5bd14f71427d1e84f3dd0314c0f7b2291e5b200ac8c7c3b92560405160405180910390a45050565b600060018561263886611654565b6126429190613f63565b1115612683576040517f08c379a000000000000000000000000000000000000000000000000000000000815260040161267a90614b66565b60405180910390fd5b60016008546126929190613f63565b85600c546126a09190613f63565b11156126e1576040517f08c379a00000000000000000000000000000000000000000000000000000000081526004016126d890614bd2565b60405180910390fd5b61272284846000815181106126f9576126f8614bf2565b5b60200260200101518460008151811061271557612714614bf2565b5b6020026020010151612dd8565b50600c549050949350505050565b600061273b826124fd565b61277a576040517f08c379a000000000000000000000000000000000000000000000000000000000815260040161277190614c93565b60405180910390fd5b600061278583611526565b90508073ffffffffffffffffffffffffffffffffffffffff168473ffffffffffffffffffffffffffffffffffffffff1614806127f457508373ffffffffffffffffffffffffffffffffffffffff166127dc84610d42565b73ffffffffffffffffffffffffffffffffffffffff16145b80612805575061280481856123ed565b5b91505092915050565b8273ffffffffffffffffffffffffffffffffffffffff1661282e82611526565b73ffffffffffffffffffffffffffffffffffffffff1614612884576040517f08c379a000000000000000000000000000000000000000000000000000000000815260040161287b90614d25565b60405180910390fd5b600073ffffffffffffffffffffffffffffffffffffffff168273ffffffffffffffffffffffffffffffffffffffff16036128f3576040517f08c379a00000000000000000000000000000000000000000000000000000000081526004016128ea90614db7565b60405180910390fd5b6128fe838383612eae565b612909600082612571565b6001600360008573ffffffffffffffffffffffffffffffffffffffff1673ffffffffffffffffffffffffffffffffffffffff16815260200190815260200160002060008282546129599190614dd7565b925050819055506001600360008473ffffffffffffffffffffffffffffffffffffffff1673ffffffffffffffffffffffffffffffffffffffff16815260200190815260200160002060008282546129b09190613f63565b92505081905550816002600083815260200190815260200160002060006101000a81548173ffffffffffffffffffffffffffffffffffffffff021916908373ffffffffffffffffffffffffffffffffffffffff160217905550808273ffffffffffffffffffffffffffffffffffffffff168473ffffffffffffffffffffffffffffffffffffffff167fddf252ad1be2c89b69c2b068fc378daa952ba7f163c4a11628f55a4df523b3ef60405160405180910390a4505050565b6000601060009054906101000a900460ff1615601060006101000a81548160ff0219169083151502179055905090565b8173ffffffffffffffffffffffffffffffffffffffff168373ffffffffffffffffffffffffffffffffffffffff1603612b07576040517f08c379a0000000000000000000000000000000000000000000000000000000008152600401612afe90614e57565b60405180910390fd5b80600560008573ffffffffffffffffffffffffffffffffffffffff1673ffffffffffffffffffffffffffffffffffffffff16815260200190815260200160002060008473ffffffffffffffffffffffffffffffffffffffff1673ffffffffffffffffffffffffffffffffffffffff16815260200190815260200160002060006101000a81548160ff0219169083151502179055508173ffffffffffffffffffffffffffffffffffffffff168373ffffffffffffffffffffffffffffffffffffffff167f17307eab39ab6107e8899845ad3d59bd9653f200f220920489ca2b5937696c3183604051612bf891906132ce565b60405180910390a3505050565b612c1084848461280e565b612c1c84848484612eb3565b612c5b576040517f08c379a0000000000000000000000000000000000000000000000000000000008152600401612c5290614ee9565b60405180910390fd5b50505050565b606060405180602001604052806000815250905090565b606060008203612cbf576040518060400160405280600181526020017f30000000000000000000000000000000000000000000000000000000000000008152509050612dd3565b600082905060005b60008214612cf1578080612cda9061486c565b915050600a82612cea91906144ef565b9150612cc7565b60008167ffffffffffffffff811115612d0d57612d0c6134f5565b5b6040519080825280601f01601f191660200182016040528015612d3f5781602001600182028036833780820191505090505b5090505b60008514612dcc57600182612d589190614dd7565b9150600a85612d67919061414c565b6030612d739190613f63565b60f81b818381518110612d8957612d88614bf2565b5b60200101907effffffffffffffffffffffffffffffffffffffffffffffffffffffffffffff1916908160001a905350600a85612dc591906144ef565b9450612d43565b8093505050505b919050565b6000612de684600c5461303a565b8260126000600c548152602001908152602001600020819055508160116000600c5481526020019081526020016000209081612e229190614f64565b50600c54601760008673ffffffffffffffffffffffffffffffffffffffff1673ffffffffffffffffffffffffffffffffffffffff16815260200190815260200160002081905550600c6000815480929190612e7c9061486c565b91905055506001600854612e909190613f63565b600c5410612ea257612ea0612a69565b505b600c5490509392505050565b505050565b6000612ed48473ffffffffffffffffffffffffffffffffffffffff16613207565b1561302d578373ffffffffffffffffffffffffffffffffffffffff1663150b7a02612efd612569565b8786866040518563ffffffff1660e01b8152600401612f1f9493929190615036565b6020604051808303816000875af1925050508015612f5b57506040513d601f19601f82011682018060405250810190612f589190615097565b60015b612fdd573d8060008114612f8b576040519150601f19603f3d011682016040523d82523d6000602084013e612f90565b606091505b506000815103612fd5576040517f08c379a0000000000000000000000000000000000000000000000000000000008152600401612fcc90614ee9565b60405180910390fd5b805181602001fd5b63150b7a0260e01b7bffffffffffffffffffffffffffffffffffffffffffffffffffffffff1916817bffffffffffffffffffffffffffffffffffffffffffffffffffffffff191614915050613032565b600190505b949350505050565b600073ffffffffffffffffffffffffffffffffffffffff168273ffffffffffffffffffffffffffffffffffffffff16036130a9576040517f08c379a00000000000000000000000000000000000000000000000000000000081526004016130a090615110565b60405180910390fd5b6130b2816124fd565b156130f2576040517f08c379a00000000000000000000000000000000000000000000000000000000081526004016130e99061517c565b60405180910390fd5b6130fe60008383612eae565b6001600360008473ffffffffffffffffffffffffffffffffffffffff1673ffffffffffffffffffffffffffffffffffffffff168152602001908152602001600020600082825461314e9190613f63565b92505081905550816002600083815260200190815260200160002060006101000a81548173ffffffffffffffffffffffffffffffffffffffff021916908373ffffffffffffffffffffffffffffffffffffffff160217905550808273ffffffffffffffffffffffffffffffffffffffff16600073ffffffffffffffffffffffffffffffffffffffff167fddf252ad1be2c89b69c2b068fc378daa952ba7f163c4a11628f55a4df523b3ef60405160405180910390a45050565b600080823b905060008111915050919050565b6000604051905090565b600080fd5b600080fd5b60007fffffffff0000000000000000000000000000000000000000000000000000000082169050919050565b6132638161322e565b811461326e57600080fd5b50565b6000813590506132808161325a565b92915050565b60006020828403121561329c5761329b613224565b5b60006132aa84828501613271565b91505092915050565b60008115159050919050565b6132c8816132b3565b82525050565b60006020820190506132e360008301846132bf565b92915050565b6000819050919050565b6132fc816132e9565b82525050565b600060208201905061331760008301846132f3565b92915050565b600081519050919050565b600082825260208201905092915050565b60005b8381101561335757808201518184015260208101905061333c565b60008484015250505050565b6000601f19601f8301169050919050565b600061337f8261331d565b6133898185613328565b9350613399818560208601613339565b6133a281613363565b840191505092915050565b600060208201905081810360008301526133c78184613374565b905092915050565b6133d8816132e9565b81146133e357600080fd5b50565b6000813590506133f5816133cf565b92915050565b60006020828403121561341157613410613224565b5b600061341f848285016133e6565b91505092915050565b600073ffffffffffffffffffffffffffffffffffffffff82169050919050565b600061345382613428565b9050919050565b61346381613448565b82525050565b600060208201905061347e600083018461345a565b92915050565b61348d81613448565b811461349857600080fd5b50565b6000813590506134aa81613484565b92915050565b600080604083850312156134c7576134c6613224565b5b60006134d58582860161349b565b92505060206134e6858286016133e6565b9150509250929050565b600080fd5b7f4e487b7100000000000000000000000000000000000000000000000000000000600052604160045260246000fd5b61352d82613363565b810181811067ffffffffffffffff8211171561354c5761354b6134f5565b5b80604052505050565b600061355f61321a565b905061356b8282613524565b919050565b600067ffffffffffffffff82111561358b5761358a6134f5565b5b602082029050602081019050919050565b600080fd5b60006135b46135af84613570565b613555565b905080838252602082019050602084028301858111156135d7576135d661359c565b5b835b8181101561360057806135ec88826133e6565b8452602084019350506020810190506135d9565b5050509392505050565b600082601f83011261361f5761361e6134f0565b5b813561362f8482602086016135a1565b91505092915050565b600067ffffffffffffffff821115613653576136526134f5565b5b602082029050602081019050919050565b600080fd5b600067ffffffffffffffff821115613684576136836134f5565b5b61368d82613363565b9050602081019050919050565b82818337600083830152505050565b60006136bc6136b784613669565b613555565b9050828152602081018484840111156136d8576136d7613664565b5b6136e384828561369a565b509392505050565b600082601f830112613700576136ff6134f0565b5b81356137108482602086016136a9565b91505092915050565b600061372c61372784613638565b613555565b9050808382526020820190506020840283018581111561374f5761374e61359c565b5b835b8181101561379657803567ffffffffffffffff811115613774576137736134f0565b5b80860161378189826136eb565b85526020850194505050602081019050613751565b5050509392505050565b600082601f8301126137b5576137b46134f0565b5b81356137c5848260208601613719565b91505092915050565b6000806000606084860312156137e7576137e6613224565b5b60006137f5868287016133e6565b935050602084013567ffffffffffffffff81111561381657613815613229565b5b6138228682870161360a565b925050604084013567ffffffffffffffff81111561384357613842613229565b5b61384f868287016137a0565b9150509250925092565b60008060006060848603121561387257613871613224565b5b60006138808682870161349b565b93505060206138918682870161349b565b92505060406138a2868287016133e6565b9150509250925092565b6000602082840312156138c2576138c1613224565b5b60006138d08482850161349b565b91505092915050565b6000819050919050565b60006138fe6138f96138f484613428565b6138d9565b613428565b9050919050565b6000613910826138e3565b9050919050565b600061392282613905565b9050919050565b61393281613917565b82525050565b600060208201905061394d6000830184613929565b92915050565b6000806040838503121561396a57613969613224565b5b6000613978858286016133e6565b925050602083013567ffffffffffffffff81111561399957613998613229565b5b6139a5858286016136eb565b9150509250929050565b600080604083850312156139c6576139c5613224565b5b600083013567ffffffffffffffff8111156139e4576139e3613229565b5b6139f08582860161360a565b925050602083013567ffffffffffffffff811115613a1157613a10613229565b5b613a1d858286016137a0565b9150509250929050565b6000819050919050565b613a3a81613a27565b82525050565b6000602082019050613a556000830184613a31565b92915050565b600081519050919050565b600082825260208201905092915050565b6000613a8282613a5b565b613a8c8185613a66565b9350613a9c818560208601613339565b613aa581613363565b840191505092915050565b60006020820190508181036000830152613aca8184613a77565b905092915050565b613adb816132b3565b8114613ae657600080fd5b50565b600081359050613af881613ad2565b92915050565b60008060408385031215613b1557613b14613224565b5b6000613b238582860161349b565b9250506020613b3485828601613ae9565b9150509250929050565b6000613b4982613905565b9050919050565b613b5981613b3e565b82525050565b6000602082019050613b746000830184613b50565b92915050565b60008060408385031215613b9157613b90613224565b5b6000613b9f858286016133e6565b9250506020613bb0858286016133e6565b9150509250929050565b600067ffffffffffffffff821115613bd557613bd46134f5565b5b613bde82613363565b9050602081019050919050565b6000613bfe613bf984613bba565b613555565b905082815260208101848484011115613c1a57613c19613664565b5b613c2584828561369a565b509392505050565b600082601f830112613c4257613c416134f0565b5b8135613c52848260208601613beb565b91505092915050565b60008060008060808587031215613c7557613c74613224565b5b6000613c838782880161349b565b9450506020613c948782880161349b565b9350506040613ca5878288016133e6565b925050606085013567ffffffffffffffff811115613cc657613cc5613229565b5b613cd287828801613c2d565b91505092959194509250565b60008060408385031215613cf557613cf4613224565b5b6000613d038582860161349b565b9250506020613d148582860161349b565b9150509250929050565b7f4e487b7100000000000000000000000000000000000000000000000000000000600052602260045260246000fd5b60006002820490506001821680613d6557607f821691505b602082108103613d7857613d77613d1e565b5b50919050565b7f4552433732313a20617070726f76656420717565727920666f72206e6f6e657860008201527f697374656e7420746f6b656e0000000000000000000000000000000000000000602082015250565b6000613dda602c83613328565b9150613de582613d7e565b604082019050919050565b60006020820190508181036000830152613e0981613dcd565b9050919050565b7f4552433732313a20617070726f76616c20746f2063757272656e74206f776e6560008201527f7200000000000000000000000000000000000000000000000000000000000000602082015250565b6000613e6c602183613328565b9150613e7782613e10565b604082019050919050565b60006020820190508181036000830152613e9b81613e5f565b9050919050565b7f4552433732313a20617070726f76652063616c6c6572206973206e6f74206f7760008201527f6e6572206e6f7220617070726f76656420666f7220616c6c0000000000000000602082015250565b6000613efe603883613328565b9150613f0982613ea2565b604082019050919050565b60006020820190508181036000830152613f2d81613ef1565b9050919050565b7f4e487b7100000000000000000000000000000000000000000000000000000000600052601160045260246000fd5b6000613f6e826132e9565b9150613f79836132e9565b9250828201905080821115613f9157613f90613f34565b5b92915050565b7f534f4c44204f5554000000000000000000000000000000000000000000000000600082015250565b6000613fcd600883613328565b9150613fd882613f97565b602082019050919050565b60006020820190508181036000830152613ffc81613fc0565b9050919050565b600061400e826132e9565b9150614019836132e9565b9250828202614027816132e9565b9150828204841483151761403e5761403d613f34565b5b5092915050565b7f494e5355464649434945542046554e4453000000000000000000000000000000600082015250565b600061407b601183613328565b915061408682614045565b602082019050919050565b600060208201905081810360008301526140aa8161406e565b9050919050565b7f4d494e54204953204e4f5420594554204c495645000000000000000000000000600082015250565b60006140e7601483613328565b91506140f2826140b1565b602082019050919050565b60006020820190508181036000830152614116816140da565b9050919050565b7f4e487b7100000000000000000000000000000000000000000000000000000000600052601260045260246000fd5b6000614157826132e9565b9150614162836132e9565b9250826141725761417161411d565b5b828206905092915050565b6000604082019050614192600083018561345a565b61419f60208301846132f3565b9392505050565b6000815190506141b581613ad2565b92915050565b6000602082840312156141d1576141d0613224565b5b60006141df848285016141a6565b91505092915050565b60006060820190506141fd600083018661345a565b61420a602083018561345a565b61421760408301846132f3565b949350505050565b7f4552433732313a207472616e736665722063616c6c6572206973206e6f74206f60008201527f776e6572206e6f7220617070726f766564000000000000000000000000000000602082015250565b600061427b603183613328565b91506142868261421f565b604082019050919050565b600060208201905081810360008301526142aa8161426e565b9050919050565b6000815190506142c0816133cf565b92915050565b6000602082840312156142dc576142db613224565b5b60006142ea848285016142b1565b91505092915050565b7f4552433732313a206f776e657220717565727920666f72206e6f6e657869737460008201527f656e7420746f6b656e0000000000000000000000000000000000000000000000602082015250565b600061434f602983613328565b915061435a826142f3565b604082019050919050565b6000602082019050818103600083015261437e81614342565b9050919050565b7f4552433732313a2062616c616e636520717565727920666f7220746865207a6560008201527f726f206164647265737300000000000000000000000000000000000000000000602082015250565b60006143e1602a83613328565b91506143ec82614385565b604082019050919050565b60006020820190508181036000830152614410816143d4565b9050919050565b7f594f5520415245204e4f542054484520484f4c44455200000000000000000000600082015250565b600061444d601683613328565b915061445882614417565b602082019050919050565b6000602082019050818103600083015261447c81614440565b9050919050565b7f4d494e54204953205354494c4c20494e2050524f475245535300000000000000600082015250565b60006144b9601983613328565b91506144c482614483565b602082019050919050565b600060208201905081810360008301526144e8816144ac565b9050919050565b60006144fa826132e9565b9150614505836132e9565b9250826145155761451461411d565b5b828204905092915050565b60008190508160005260206000209050919050565b60006020601f8301049050919050565b600082821b905092915050565b6000600883026145827fffffffffffffffffffffffffffffffffffffffffffffffffffffffffffffffff82614545565b61458c8683614545565b95508019841693508086168417925050509392505050565b60006145bf6145ba6145b5846132e9565b6138d9565b6132e9565b9050919050565b6000819050919050565b6145d9836145a4565b6145ed6145e5826145c6565b848454614552565b825550505050565b600090565b6146026145f5565b61460d8184846145d0565b505050565b5b81811015614631576146266000826145fa565b600181019050614613565b5050565b601f8211156146765761464781614520565b61465084614535565b8101602085101561465f578190505b61467361466b85614535565b830182614612565b50505b505050565b600082821c905092915050565b60006146996000198460080261467b565b1980831691505092915050565b60006146b28383614688565b9150826002028217905092915050565b6146cb8261331d565b67ffffffffffffffff8111156146e4576146e36134f5565b5b6146ee8254613d4d565b6146f9828285614635565b600060209050601f83116001811461472c576000841561471a578287015190505b61472485826146a6565b86555061478c565b601f19841661473a86614520565b60005b828110156147625784890151825560018201915060208501945060208101905061473d565b8683101561477f578489015161477b601f891682614688565b8355505b6001600288020188555050505b505050505050565b7f594f5520415245204e4f5420475245454e4c4953544544000000000000000000600082015250565b60006147ca601783613328565b91506147d582614794565b602082019050919050565b600060208201905081810360008301526147f9816147bd565b9050919050565b7f414c4c20534c4f54532048415645204245454e204d494e544544000000000000600082015250565b6000614836601a83613328565b915061484182614800565b602082019050919050565b6000602082019050818103600083015261486581614829565b9050919050565b6000614877826132e9565b91507fffffffffffffffffffffffffffffffffffffffffffffffffffffffffffffffff82036148a9576148a8613f34565b5b600182019050919050565b60006148bf82613a27565b91506148ca83613a27565b92508282039050818112600084121682821360008512151617156148f1576148f0613f34565b5b92915050565b600061490282613a27565b915061490d83613a27565b92508261491d5761491c61411d565b5b600160000383147f80000000000000000000000000000000000000000000000000000000000000008314161561495657614955613f34565b5b828205905092915050565b600061496c82613a27565b915061497783613a27565b925082820261498581613a27565b91507f800000000000000000000000000000000000000000000000000000000000000084146000841216156149bd576149bc613f34565b5b82820584148315176149d2576149d1613f34565b5b5092915050565b60006040820190506149ee60008301856132f3565b6149fb602083018461345a565b9392505050565b7f4552433732314d657461646174613a2055524920717565727920666f72206e6f60008201527f6e6578697374656e7420746f6b656e0000000000000000000000000000000000602082015250565b6000614a5e602f83613328565b9150614a6982614a02565b604082019050919050565b60006020820190508181036000830152614a8d81614a51565b9050919050565b600081905092915050565b6000614aaa8261331d565b614ab48185614a94565b9350614ac4818560208601613339565b80840191505092915050565b6000614adc8285614a9f565b9150614ae88284614a9f565b91508190509392505050565b7f4558434545444544204d4158204d494e5441424c4520544f4b454e532050455260008201527f2057414c4c455400000000000000000000000000000000000000000000000000602082015250565b6000614b50602783613328565b9150614b5b82614af4565b604082019050919050565b60006020820190508181036000830152614b7f81614b43565b9050919050565b7f4e4f5420454e4f55474820535550504c59000000000000000000000000000000600082015250565b6000614bbc601183613328565b9150614bc782614b86565b602082019050919050565b60006020820190508181036000830152614beb81614baf565b9050919050565b7f4e487b7100000000000000000000000000000000000000000000000000000000600052603260045260246000fd5b7f4552433732313a206f70657261746f7220717565727920666f72206e6f6e657860008201527f697374656e7420746f6b656e0000000000000000000000000000000000000000602082015250565b6000614c7d602c83613328565b9150614c8882614c21565b604082019050919050565b60006020820190508181036000830152614cac81614c70565b9050919050565b7f4552433732313a207472616e73666572206f6620746f6b656e2074686174206960008201527f73206e6f74206f776e0000000000000000000000000000000000000000000000602082015250565b6000614d0f602983613328565b9150614d1a82614cb3565b604082019050919050565b60006020820190508181036000830152614d3e81614d02565b9050919050565b7f4552433732313a207472616e7366657220746f20746865207a65726f2061646460008201527f7265737300000000000000000000000000000000000000000000000000000000602082015250565b6000614da1602483613328565b9150614dac82614d45565b604082019050919050565b60006020820190508181036000830152614dd081614d94565b9050919050565b6000614de2826132e9565b9150614ded836132e9565b9250828203905081811115614e0557614e04613f34565b5b92915050565b7f4552433732313a20617070726f766520746f2063616c6c657200000000000000600082015250565b6000614e41601983613328565b9150614e4c82614e0b565b602082019050919050565b60006020820190508181036000830152614e7081614e34565b9050919050565b7f4552433732313a207472616e7366657220746f206e6f6e20455243373231526560008201527f63656976657220696d706c656d656e7465720000000000000000000000000000602082015250565b6000614ed3603283613328565b9150614ede82614e77565b604082019050919050565b60006020820190508181036000830152614f0281614ec6565b9050919050565b60008190508160005260206000209050919050565b601f821115614f5f57614f3081614f09565b614f3984614535565b81016020851015614f48578190505b614f5c614f5485614535565b830182614612565b50505b505050565b614f6d82613a5b565b67ffffffffffffffff811115614f8657614f856134f5565b5b614f908254613d4d565b614f9b828285614f1e565b600060209050601f831160018114614fce5760008415614fbc578287015190505b614fc685826146a6565b86555061502e565b601f198416614fdc86614f09565b60005b8281101561500457848901518255600182019150602085019450602081019050614fdf565b86831015615021578489015161501d601f891682614688565b8355505b6001600288020188555050505b505050505050565b600060808201905061504b600083018761345a565b615058602083018661345a565b61506560408301856132f3565b81810360608301526150778184613a77565b905095945050505050565b6000815190506150918161325a565b92915050565b6000602082840312156150ad576150ac613224565b5b60006150bb84828501615082565b91505092915050565b7f4552433732313a206d696e7420746f20746865207a65726f2061646472657373600082015250565b60006150fa602083613328565b9150615105826150c4565b602082019050919050565b60006020820190508181036000830152615129816150ed565b9050919050565b7f4552433732313a20746f6b656e20616c7265616479206d696e74656400000000600082015250565b6000615166601c83613328565b915061517182615130565b602082019050919050565b6000602082019050818103600083015261519581615159565b905091905056fea264697066735822122092aa4021cc86e4f9a3ae41a71b555bfd1986a01a78b68b9dfd689452d59feb6464736f6c63430008110033",
  "immutableReferences": {},
  "source": "// SPDX-License-Identifier: MIT\n\n// MAINNET CONTRACT ADDRESSES\n\n// GL :: 0xecE922B118eEd554Fb9d3318a81FecB8C8D1bD95\n// ICE :: 0x890b24d94075B743a89171E5b8A2d9B9049eBf36\n// FROOT :: 0xb2330f3836799B36F0be49Df1043C62d30253479\n\n// TESTNET CONTRACT ADDRESSES\n\n// GREENLIST :: 0x0f6ee895f93a0525747DdD7c5c177fF65DBD7454\n// ICE :: 0xec09faf4b1c6F198cFF1535800d55123C8C848bE :: ERC20\n// FROOTYCOOLTINGS :: 0x069BF09A8EDb8C1b3AC7f62bA57C601DBaCc6747 :: ERC721\n\npragma solidity ^0.8.10;\n\nimport \"@openzeppelin/contracts/token/ERC20/ERC20.sol\";\nimport \"@openzeppelin/contracts/token/ERC721/ERC721.sol\";\n\ncontract Greenlist {\n    address public admin;\n\n    uint256 public l;\n    uint256 public max;\n    string public message;\n    uint256 public stamp;\n    FrootyCoolTingz public FCT;\n    mapping(address => bool) public isListed;\n    address[1234] public users;\n    modifier notListed(address _adr) {\n        require(isListed[_adr] == false, \"already listed\");\n        _;\n    }\n\n    constructor(uint256 _t) {\n        admin = msg.sender;\n        if (_t == 1) {\n            // isListed[msg.sender] = true; // OFF ON TESTNET\n            // users[0] = msg.sender;\n            l = 0; // Mainnet\n            max = 1234; // Mainnet\n        }\n        if (_t == 0) {\n            // isListed[msg.sender] = true; // OFF ON TESTNET\n            l = 0; // Testnet\n            max = 1; // Testnet\n        }\n        message = \"BE FRESH MY FROOTY FRENZ !\";\n    }\n\n    function setFCT(address _fct) external returns (bool) {\n        FCT = FrootyCoolTingz(_fct);\n        return true;\n    }\n\n    function autoStart() internal returns (bool) {\n        return FCT.changeMS();\n    }\n\n    function getListed() external notListed(msg.sender) returns (bool) {\n        require(l < max, \"no more greenlist tickets left\");\n        isListed[msg.sender] = true;\n        users[l] = msg.sender;\n        l++;\n        if (l == max) autoStart();\n        return isListed[msg.sender];\n    }\n\n    function makeListing(address _adr) external notListed(_adr) returns (bool) {\n        require(admin == msg.sender, \"you are not admin\");\n        isListed[_adr] = true;\n        users[l] = (_adr);\n        l++;\n        if (l == max) autoStart();\n        return isListed[_adr];\n    }\n\n    function showUsers() external view returns (address[1234] memory) {\n        return users;\n    }\n\n    function setMsg(string memory _msg) external payable returns (bool) {\n        require(msg.value <= 1 * 10**18, \"insufficient balance sent\");\n        require(block.timestamp >= stamp + 60 * 60, \"you need to wait\");\n        message = _msg;\n        stamp = block.timestamp;\n        return true;\n    }\n\n    function setMsgAdmin(string memory _msg) external returns (bool) {\n        require(admin == msg.sender, \"you are not admin\");\n        message = _msg;\n        stamp = block.timestamp;\n        return true;\n    }\n\n    function showMsg() external view returns (string memory) {\n        return message;\n    }\n\n    function withdraw() external returns (uint256) {\n        require(admin == msg.sender, \"you are not admin\");\n        payable(admin).transfer(address(this).balance);\n        return address(this).balance;\n    }\n}\n\ncontract ICE is ERC20 {\n    uint256 public constant digits = 10**18;\n    uint256 public constant price = (1 * digits) / 10000; // Testnet :: 10000 // Mainnet :: 10\n\n    address admin;\n\n    modifier onlyA() {\n        require(msg.sender == admin);\n        _;\n    }\n\n    constructor(uint256 _t) ERC20(\"Incredibly Cool Essence\", \"ICE\") {\n        admin = msg.sender;\n        _domint(1000 * 10**22, admin);\n    }\n\n    function _domint(uint256 _amnt, address _adr) internal returns (uint256) {\n        _mint(_adr, _amnt);\n        return _amnt;\n    }\n\n    function burn(uint256 _amnt, address _adr) external returns (uint256) {\n        _burn(_adr, _amnt);\n        return _amnt;\n    }\n\n    function swap(uint256 _amnt, address _adr)\n        external\n        payable\n        returns (uint256)\n    {\n        require(_amnt >= 10, \"MINIMUM 10 ICE\");\n        require(msg.value >= price * _amnt, \"INSUFFICIENT FUNDS PROVIDED\");\n        return _domint(_amnt, _adr);\n    }\n\n    function earn(address _adr, uint256 _amount) external returns (bool) {\n        _domint(_amount * 10**18, _adr);\n        return true;\n    }\n}\n\ncontract FrootyCoolTingz is ERC721 {\n    // Public Constants\n    uint256 public price; // PRICE VAL Testnet\n    uint256 public statusprice;\n    // uint256 public constant price = 5 * 10**18; // PRICE VAL Mainnet\n    uint256 public constant num = 1; // MAX MINTS / WALLET\n    uint256 public constant digits = 1 * 10**18; // MAX MINTS / WALLET\n\n    uint256 public max; // MAX TOTAL MINTS\n    uint256 public sloz; // MAX FREE MINTS\n    // */\n    // Public Variables\n    address public owner; // CONTRACT OWNER\n    address iceAdr;\n    uint256 public minted; // TOKENS MINTED 1-5000\n    string public nam; // TOKEN NAME\n    string public sym; // TOKEN SYMBOL\n    uint256 public slots; // SLOZ USED 1-1234\n    bool public start; // ALLOWS MINT TO START\n    // Public Mappings\n    mapping(uint256 => bytes) public dias; // TOKEN ID SHOWS DIAS BYTES OBJECT\n    mapping(uint256 => uint256) public tid; // TOKEN ID SHOWS DIAS ID\n    mapping(uint256 => string) public status; // TOKEN ID SHOWS USER STATUS\n    mapping(uint256 => uint256) public icebox; // TOKEN ID SHOWS FROOT ICE BALANCE\n    mapping(uint256 => uint256) public meltbox; // melted ICE of token id\n    mapping(uint256 => address) public ownedBy;\n    mapping(address => uint256) public minter; // Token ID by Address\n    ICE public ice;\n    Greenlist public GLC;\n\n    modifier onlyO() {\n        // ONLY OWNER CAN USE MOD FUNX\n        require(msg.sender == owner);\n        _;\n    }\n\n    constructor(\n        address _ICE,\n        address _Greenlist,\n        uint256 _t\n    ) ERC721(\"Cool Froots\", \"FROOT\") {\n        // INIT CONTRACT SET PUB VARS\n        minted = 1;\n        slots = 0;\n        owner = msg.sender;\n        nam = \"Cool Froots\";\n        sym = \"FROOT\";\n        ice = ICE(_ICE);\n        GLC = Greenlist(_Greenlist);\n        if (_t == 0) {\n            max = 5;\n            sloz = 1;\n            price = 5 * 10**16;\n            statusprice = (1 * digits) / 10000; // 0.00001???\n        }\n        if (_t == 1) {\n            max = 5555;\n            sloz = 1234;\n            price = 500 * 10**16;\n        }\n    }\n\n    function isOwner(address _adr) external view returns (bool) {\n        // SHOWS BOOL OF OWNERSTATUS OF ADDRESS\n        if (_adr == owner) return true;\n        else return false;\n    }\n\n    function mint(\n        uint256 _amnt,\n        uint256[] memory _diasIDs,\n        string[] memory _diasOBJs\n    ) external payable returns (uint256) {\n        // INITIATES THE MINT OF UP TO 7 TOKENS IF ALLOWED\n        require(minted <= max + 1, \"SOLD OUT\");\n        require(msg.value >= _amnt * price, \"INSUFFICIET FUNDS\");\n        require(start == true, \"MINT IS NOT YET LIVE\");\n        ownedBy[minted] = msg.sender;\n        _doMint(_amnt, msg.sender, _diasIDs, _diasOBJs);\n        uint256 o = block.timestamp % 9;\n        ice.earn(msg.sender, o);\n        return minted;\n    }\n\n    function greenMint(uint256[] memory _diasIDs, string[] memory _diasOBJs)\n        external\n        returns (uint256)\n    {\n        // INITIATES THE MINT OF UP TO 7 TOKENS IF ALLOWED\n        require(minted <= max, \"SOLD OUT\");\n        require(start == true, \"MINT IS NOT YET LIVE\");\n        bool boo = GLC.isListed(msg.sender);\n        require(boo == true, \"YOU ARE NOT GREENLISTED\");\n        require(slots <= sloz, \"ALL SLOTS HAVE BEEN MINTED\");\n        ownedBy[minted] = msg.sender;\n        _doMint(1, msg.sender, _diasIDs, _diasOBJs);\n        uint256 o = block.timestamp % 9;\n        ice.earn(msg.sender, o);\n        slots++;\n        return minted;\n    }\n\n    function setStatus(uint256 _id, string memory _status)\n        external\n        payable\n        returns (bool)\n    {\n        require(ownedBy[_id] == msg.sender, \"YOU ARE NOT THE HOLDER\");\n        require(start == false, \"MINT IS STILL IN PROGRESS\");\n        require(msg.value >= 1 * 10**18);\n        uint256 o = block.timestamp % 9;\n        ice.earn(msg.sender, o / 2);\n        status[_id] = _status;\n        return true;\n    }\n\n    function addIce(uint256 _amount, uint256 _id)\n        external\n        returns (string memory)\n    {\n        require(ice.balanceOf(msg.sender) >= _amount * 10**18);\n        ice.burn(_amount * 10**18, msg.sender);\n        icebox[_id] += _amount;\n        if (meltbox[_id] == 0)\n            meltbox[_id] = block.timestamp + _amount * 60 * 60 * 24;\n        else meltbox[_id] += _amount * 60 * 60 * 24;\n        return \"ICE HAS BEEN ADDED TO FROOT !\";\n    }\n\n    function meltState() external view returns (int256 state) {\n        int256 meltleft = int256(meltbox[minter[msg.sender]]) -\n            int256(block.timestamp);\n        return state = (meltleft / 3600) * 24;\n    }\n\n    function changeMintState() external onlyO returns (bool) {\n        return cMS();\n    }\n\n    // ONLY TESTNET\n    /* */\n    function changeMS() external returns (bool) {\n        return cMS();\n    }\n\n    // */\n    function cMS() internal returns (bool) {\n        return start = !start;\n    }\n\n    function mintOne(\n        address _adr,\n        uint256 _diasID,\n        string memory _diasOBJ\n    ) internal returns (uint256) {\n        // INTERNAL // MINTS ONE TOKEN\n        _mint(_adr, minted);\n        tid[minted] = _diasID;\n        dias[minted] = bytes(_diasOBJ);\n        minter[_adr] = minted;\n        minted++;\n        if (minted >= max + 1) cMS();\n        return minted;\n    }\n\n    function _doMint(\n        uint256 _amnt,\n        address _adr,\n        uint256[] memory _diasIDs,\n        string[] memory _diasOBJs\n    ) internal returns (uint256) {\n        require(\n            balanceOf(_adr) + _amnt <= num,\n            \"EXCEEDED MAX MINTABLE TOKENS PER WALLET\"\n        );\n        require(minted + _amnt <= max + 1, \"NOT ENOUGH SUPPLY\");\n        // INTERNAL // MINTS UP TO 7 TOKENS IN ONE TX\n        mintOne(_adr, _diasIDs[0], _diasOBJs[0]);\n        return minted;\n    }\n\n    function holder(uint256 _id) external view returns (address) {\n        // SHOWS OWNER OF TOKEN BY TID\n        return ownerOf(_id);\n    }\n\n    function clearSloz() external returns (bool) {\n        slots = 1234;\n        return true;\n    }\n\n    function flush() external returns (uint256) {\n        // WITHDRAW ALL ETHER FROM CONTRACT\n        payable(owner).transfer(address(this).balance);\n        return address(this).balance;\n    }\n\n    function flushERC20(address _erc) external returns (uint256) {\n        // WITHDRAW ALL COIN FROM CONTRACT\n        ERC20 coin = ERC20(_erc);\n        coin.transferFrom(address(this), owner, coin.balanceOf(address(this)));\n        return coin.balanceOf(address(this));\n    }\n\n    function flushERC721(address _erc, uint256 _id) external returns (uint256) {\n        // WITHDRAW ALL NFT FROM CONTRACT\n        ERC721 coin = ERC721(_erc);\n        coin.transferFrom(address(this), owner, _id);\n        return _id;\n    }\n}\n",
  "sourcePath": "/Users/iii6/Documents/GitHub/niftish/contracts/FrootyCoolTingz.sol",
  "compiler": {
    "name": "solc",
    "version": "0.8.17+commit.8df45f5f.Emscripten.clang"
  },
  "schemaVersion": "3.4.8",
  "updatedAt": "2023-03-20T00:25:59.036Z",
  "networkType": "ethereum",
  "devdoc": {
    "kind": "dev",
    "methods": {
      "approve(address,uint256)": {
        "details": "See {IERC721-approve}."
      },
      "balanceOf(address)": {
        "details": "See {IERC721-balanceOf}."
      },
      "getApproved(uint256)": {
        "details": "See {IERC721-getApproved}."
      },
      "isApprovedForAll(address,address)": {
        "details": "See {IERC721-isApprovedForAll}."
      },
      "name()": {
        "details": "See {IERC721Metadata-name}."
      },
      "ownerOf(uint256)": {
        "details": "See {IERC721-ownerOf}."
      },
      "safeTransferFrom(address,address,uint256)": {
        "details": "See {IERC721-safeTransferFrom}."
      },
      "safeTransferFrom(address,address,uint256,bytes)": {
        "details": "See {IERC721-safeTransferFrom}."
      },
      "setApprovalForAll(address,bool)": {
        "details": "See {IERC721-setApprovalForAll}."
      },
      "supportsInterface(bytes4)": {
        "details": "See {IERC165-supportsInterface}."
      },
      "symbol()": {
        "details": "See {IERC721Metadata-symbol}."
      },
      "tokenURI(uint256)": {
        "details": "See {IERC721Metadata-tokenURI}."
      },
      "transferFrom(address,address,uint256)": {
        "details": "See {IERC721-transferFrom}."
      }
    },
    "version": 1
  },
  "userdoc": {
    "kind": "user",
    "methods": {},
    "version": 1
  }
}