{
  "contractName": "FrootyCoolTingz",
  "abi": [
    {
      "inputs": [
        {
          "internalType": "address",
          "name": "_ICE",
          "type": "address"
        },
        {
          "internalType": "address",
          "name": "_Greenlist",
          "type": "address"
        },
        {
          "internalType": "uint256",
          "name": "_t",
          "type": "uint256"
        }
      ],
      "stateMutability": "nonpayable",
      "type": "constructor"
    },
    {
      "anonymous": false,
      "inputs": [
        {
          "indexed": true,
          "internalType": "address",
          "name": "owner",
          "type": "address"
        },
        {
          "indexed": true,
          "internalType": "address",
          "name": "approved",
          "type": "address"
        },
        {
          "indexed": true,
          "internalType": "uint256",
          "name": "tokenId",
          "type": "uint256"
        }
      ],
      "name": "Approval",
      "type": "event"
    },
    {
      "anonymous": false,
      "inputs": [
        {
          "indexed": true,
          "internalType": "address",
          "name": "owner",
          "type": "address"
        },
        {
          "indexed": true,
          "internalType": "address",
          "name": "operator",
          "type": "address"
        },
        {
          "indexed": false,
          "internalType": "bool",
          "name": "approved",
          "type": "bool"
        }
      ],
      "name": "ApprovalForAll",
      "type": "event"
    },
    {
      "anonymous": false,
      "inputs": [
        {
          "indexed": true,
          "internalType": "address",
          "name": "from",
          "type": "address"
        },
        {
          "indexed": true,
          "internalType": "address",
          "name": "to",
          "type": "address"
        },
        {
          "indexed": true,
          "internalType": "uint256",
          "name": "tokenId",
          "type": "uint256"
        }
      ],
      "name": "Transfer",
      "type": "event"
    },
    {
      "inputs": [],
      "name": "GLC",
      "outputs": [
        {
          "internalType": "contract Greenlist",
          "name": "",
          "type": "address"
        }
      ],
      "stateMutability": "view",
      "type": "function",
      "constant": true
    },
    {
      "inputs": [
        {
          "internalType": "address",
          "name": "to",
          "type": "address"
        },
        {
          "internalType": "uint256",
          "name": "tokenId",
          "type": "uint256"
        }
      ],
      "name": "approve",
      "outputs": [],
      "stateMutability": "nonpayable",
      "type": "function"
    },
    {
      "inputs": [
        {
          "internalType": "address",
          "name": "owner",
          "type": "address"
        }
      ],
      "name": "balanceOf",
      "outputs": [
        {
          "internalType": "uint256",
          "name": "",
          "type": "uint256"
        }
      ],
      "stateMutability": "view",
      "type": "function",
      "constant": true
    },
    {
      "inputs": [
        {
          "internalType": "uint256",
          "name": "",
          "type": "uint256"
        }
      ],
      "name": "dias",
      "outputs": [
        {
          "internalType": "bytes",
          "name": "",
          "type": "bytes"
        }
      ],
      "stateMutability": "view",
      "type": "function",
      "constant": true
    },
    {
      "inputs": [],
      "name": "digits",
      "outputs": [
        {
          "internalType": "uint256",
          "name": "",
          "type": "uint256"
        }
      ],
      "stateMutability": "view",
      "type": "function",
      "constant": true
    },
    {
      "inputs": [
        {
          "internalType": "uint256",
          "name": "tokenId",
          "type": "uint256"
        }
      ],
      "name": "getApproved",
      "outputs": [
        {
          "internalType": "address",
          "name": "",
          "type": "address"
        }
      ],
      "stateMutability": "view",
      "type": "function",
      "constant": true
    },
    {
      "inputs": [],
      "name": "ice",
      "outputs": [
        {
          "internalType": "contract ICE",
          "name": "",
          "type": "address"
        }
      ],
      "stateMutability": "view",
      "type": "function",
      "constant": true
    },
    {
      "inputs": [
        {
          "internalType": "uint256",
          "name": "",
          "type": "uint256"
        }
      ],
      "name": "icebox",
      "outputs": [
        {
          "internalType": "uint256",
          "name": "",
          "type": "uint256"
        }
      ],
      "stateMutability": "view",
      "type": "function",
      "constant": true
    },
    {
      "inputs": [
        {
          "internalType": "address",
          "name": "owner",
          "type": "address"
        },
        {
          "internalType": "address",
          "name": "operator",
          "type": "address"
        }
      ],
      "name": "isApprovedForAll",
      "outputs": [
        {
          "internalType": "bool",
          "name": "",
          "type": "bool"
        }
      ],
      "stateMutability": "view",
      "type": "function",
      "constant": true
    },
    {
      "inputs": [],
      "name": "max",
      "outputs": [
        {
          "internalType": "uint256",
          "name": "",
          "type": "uint256"
        }
      ],
      "stateMutability": "view",
      "type": "function",
      "constant": true
    },
    {
      "inputs": [
        {
          "internalType": "uint256",
          "name": "",
          "type": "uint256"
        }
      ],
      "name": "meltbox",
      "outputs": [
        {
          "internalType": "uint256",
          "name": "",
          "type": "uint256"
        }
      ],
      "stateMutability": "view",
      "type": "function",
      "constant": true
    },
    {
      "inputs": [],
      "name": "minted",
      "outputs": [
        {
          "internalType": "uint256",
          "name": "",
          "type": "uint256"
        }
      ],
      "stateMutability": "view",
      "type": "function",
      "constant": true
    },
    {
      "inputs": [
        {
          "internalType": "address",
          "name": "",
          "type": "address"
        }
      ],
      "name": "minter",
      "outputs": [
        {
          "internalType": "uint256",
          "name": "",
          "type": "uint256"
        }
      ],
      "stateMutability": "view",
      "type": "function",
      "constant": true
    },
    {
      "inputs": [],
      "name": "nam",
      "outputs": [
        {
          "internalType": "string",
          "name": "",
          "type": "string"
        }
      ],
      "stateMutability": "view",
      "type": "function",
      "constant": true
    },
    {
      "inputs": [],
      "name": "name",
      "outputs": [
        {
          "internalType": "string",
          "name": "",
          "type": "string"
        }
      ],
      "stateMutability": "view",
      "type": "function",
      "constant": true
    },
    {
      "inputs": [],
      "name": "num",
      "outputs": [
        {
          "internalType": "uint256",
          "name": "",
          "type": "uint256"
        }
      ],
      "stateMutability": "view",
      "type": "function",
      "constant": true
    },
    {
      "inputs": [
        {
          "internalType": "uint256",
          "name": "",
          "type": "uint256"
        }
      ],
      "name": "ownedBy",
      "outputs": [
        {
          "internalType": "address",
          "name": "",
          "type": "address"
        }
      ],
      "stateMutability": "view",
      "type": "function",
      "constant": true
    },
    {
      "inputs": [],
      "name": "owner",
      "outputs": [
        {
          "internalType": "address",
          "name": "",
          "type": "address"
        }
      ],
      "stateMutability": "view",
      "type": "function",
      "constant": true
    },
    {
      "inputs": [
        {
          "internalType": "uint256",
          "name": "tokenId",
          "type": "uint256"
        }
      ],
      "name": "ownerOf",
      "outputs": [
        {
          "internalType": "address",
          "name": "",
          "type": "address"
        }
      ],
      "stateMutability": "view",
      "type": "function",
      "constant": true
    },
    {
      "inputs": [],
      "name": "price",
      "outputs": [
        {
          "internalType": "uint256",
          "name": "",
          "type": "uint256"
        }
      ],
      "stateMutability": "view",
      "type": "function",
      "constant": true
    },
    {
      "inputs": [
        {
          "internalType": "address",
          "name": "from",
          "type": "address"
        },
        {
          "internalType": "address",
          "name": "to",
          "type": "address"
        },
        {
          "internalType": "uint256",
          "name": "tokenId",
          "type": "uint256"
        }
      ],
      "name": "safeTransferFrom",
      "outputs": [],
      "stateMutability": "nonpayable",
      "type": "function"
    },
    {
      "inputs": [
        {
          "internalType": "address",
          "name": "from",
          "type": "address"
        },
        {
          "internalType": "address",
          "name": "to",
          "type": "address"
        },
        {
          "internalType": "uint256",
          "name": "tokenId",
          "type": "uint256"
        },
        {
          "internalType": "bytes",
          "name": "_data",
          "type": "bytes"
        }
      ],
      "name": "safeTransferFrom",
      "outputs": [],
      "stateMutability": "nonpayable",
      "type": "function"
    },
    {
      "inputs": [
        {
          "internalType": "address",
          "name": "operator",
          "type": "address"
        },
        {
          "internalType": "bool",
          "name": "approved",
          "type": "bool"
        }
      ],
      "name": "setApprovalForAll",
      "outputs": [],
      "stateMutability": "nonpayable",
      "type": "function"
    },
    {
      "inputs": [],
      "name": "slots",
      "outputs": [
        {
          "internalType": "uint256",
          "name": "",
          "type": "uint256"
        }
      ],
      "stateMutability": "view",
      "type": "function",
      "constant": true
    },
    {
      "inputs": [],
      "name": "sloz",
      "outputs": [
        {
          "internalType": "uint256",
          "name": "",
          "type": "uint256"
        }
      ],
      "stateMutability": "view",
      "type": "function",
      "constant": true
    },
    {
      "inputs": [],
      "name": "start",
      "outputs": [
        {
          "internalType": "bool",
          "name": "",
          "type": "bool"
        }
      ],
      "stateMutability": "view",
      "type": "function",
      "constant": true
    },
    {
      "inputs": [
        {
          "internalType": "uint256",
          "name": "",
          "type": "uint256"
        }
      ],
      "name": "status",
      "outputs": [
        {
          "internalType": "string",
          "name": "",
          "type": "string"
        }
      ],
      "stateMutability": "view",
      "type": "function",
      "constant": true
    },
    {
      "inputs": [
        {
          "internalType": "bytes4",
          "name": "interfaceId",
          "type": "bytes4"
        }
      ],
      "name": "supportsInterface",
      "outputs": [
        {
          "internalType": "bool",
          "name": "",
          "type": "bool"
        }
      ],
      "stateMutability": "view",
      "type": "function",
      "constant": true
    },
    {
      "inputs": [],
      "name": "sym",
      "outputs": [
        {
          "internalType": "string",
          "name": "",
          "type": "string"
        }
      ],
      "stateMutability": "view",
      "type": "function",
      "constant": true
    },
    {
      "inputs": [],
      "name": "symbol",
      "outputs": [
        {
          "internalType": "string",
          "name": "",
          "type": "string"
        }
      ],
      "stateMutability": "view",
      "type": "function",
      "constant": true
    },
    {
      "inputs": [
        {
          "internalType": "uint256",
          "name": "",
          "type": "uint256"
        }
      ],
      "name": "tid",
      "outputs": [
        {
          "internalType": "uint256",
          "name": "",
          "type": "uint256"
        }
      ],
      "stateMutability": "view",
      "type": "function",
      "constant": true
    },
    {
      "inputs": [
        {
          "internalType": "uint256",
          "name": "tokenId",
          "type": "uint256"
        }
      ],
      "name": "tokenURI",
      "outputs": [
        {
          "internalType": "string",
          "name": "",
          "type": "string"
        }
      ],
      "stateMutability": "view",
      "type": "function",
      "constant": true
    },
    {
      "inputs": [
        {
          "internalType": "address",
          "name": "from",
          "type": "address"
        },
        {
          "internalType": "address",
          "name": "to",
          "type": "address"
        },
        {
          "internalType": "uint256",
          "name": "tokenId",
          "type": "uint256"
        }
      ],
      "name": "transferFrom",
      "outputs": [],
      "stateMutability": "nonpayable",
      "type": "function"
    },
    {
      "inputs": [
        {
          "internalType": "address",
          "name": "_adr",
          "type": "address"
        }
      ],
      "name": "isOwner",
      "outputs": [
        {
          "internalType": "bool",
          "name": "",
          "type": "bool"
        }
      ],
      "stateMutability": "view",
      "type": "function",
      "constant": true
    },
    {
      "inputs": [
        {
          "internalType": "uint256",
          "name": "_amnt",
          "type": "uint256"
        },
        {
          "internalType": "uint256[]",
          "name": "_diasIDs",
          "type": "uint256[]"
        },
        {
          "internalType": "string[]",
          "name": "_diasOBJs",
          "type": "string[]"
        }
      ],
      "name": "mint",
      "outputs": [
        {
          "internalType": "uint256",
          "name": "",
          "type": "uint256"
        }
      ],
      "stateMutability": "payable",
      "type": "function",
      "payable": true
    },
    {
      "inputs": [
        {
          "internalType": "uint256[]",
          "name": "_diasIDs",
          "type": "uint256[]"
        },
        {
          "internalType": "string[]",
          "name": "_diasOBJs",
          "type": "string[]"
        }
      ],
      "name": "greenMint",
      "outputs": [
        {
          "internalType": "uint256",
          "name": "",
          "type": "uint256"
        }
      ],
      "stateMutability": "nonpayable",
      "type": "function"
    },
    {
      "inputs": [
        {
          "internalType": "uint256",
          "name": "_id",
          "type": "uint256"
        },
        {
          "internalType": "string",
          "name": "_status",
          "type": "string"
        }
      ],
      "name": "setStatus",
      "outputs": [
        {
          "internalType": "bool",
          "name": "",
          "type": "bool"
        }
      ],
      "stateMutability": "payable",
      "type": "function",
      "payable": true
    },
    {
      "inputs": [
        {
          "internalType": "uint256",
          "name": "_amount",
          "type": "uint256"
        },
        {
          "internalType": "uint256",
          "name": "_id",
          "type": "uint256"
        }
      ],
      "name": "addIce",
      "outputs": [
        {
          "internalType": "string",
          "name": "",
          "type": "string"
        }
      ],
      "stateMutability": "nonpayable",
      "type": "function"
    },
    {
      "inputs": [],
      "name": "meltState",
      "outputs": [
        {
          "internalType": "int256",
          "name": "state",
          "type": "int256"
        }
      ],
      "stateMutability": "view",
      "type": "function",
      "constant": true
    },
    {
      "inputs": [],
      "name": "changeMintState",
      "outputs": [
        {
          "internalType": "bool",
          "name": "",
          "type": "bool"
        }
      ],
      "stateMutability": "nonpayable",
      "type": "function"
    },
    {
      "inputs": [],
      "name": "changeMS",
      "outputs": [
        {
          "internalType": "bool",
          "name": "",
          "type": "bool"
        }
      ],
      "stateMutability": "nonpayable",
      "type": "function"
    },
    {
      "inputs": [
        {
          "internalType": "uint256",
          "name": "_id",
          "type": "uint256"
        }
      ],
      "name": "holder",
      "outputs": [
        {
          "internalType": "address",
          "name": "",
          "type": "address"
        }
      ],
      "stateMutability": "view",
      "type": "function",
      "constant": true
    },
    {
      "inputs": [],
      "name": "clearSloz",
      "outputs": [
        {
          "internalType": "bool",
          "name": "",
          "type": "bool"
        }
      ],
      "stateMutability": "nonpayable",
      "type": "function"
    },
    {
      "inputs": [],
      "name": "flush",
      "outputs": [
        {
          "internalType": "uint256",
          "name": "",
          "type": "uint256"
        }
      ],
      "stateMutability": "nonpayable",
      "type": "function"
    },
    {
      "inputs": [
        {
          "internalType": "address",
          "name": "_erc",
          "type": "address"
        }
      ],
      "name": "flushERC20",
      "outputs": [
        {
          "internalType": "uint256",
          "name": "",
          "type": "uint256"
        }
      ],
      "stateMutability": "nonpayable",
      "type": "function"
    },
    {
      "inputs": [
        {
          "internalType": "address",
          "name": "_erc",
          "type": "address"
        },
        {
          "internalType": "uint256",
          "name": "_id",
          "type": "uint256"
        }
      ],
      "name": "flushERC721",
      "outputs": [
        {
          "internalType": "uint256",
          "name": "",
          "type": "uint256"
        }
      ],
      "stateMutability": "nonpayable",
      "type": "function"
    }
  ],
  "bytecode": "0x60806040523480156200001157600080fd5b5060405162005a2838038062005a288339818101604052810190620000379190620003ee565b6040518060400160405280600b81526020017f436f6f6c2046726f6f74730000000000000000000000000000000000000000008152506040518060400160405280600581526020017f46524f4f540000000000000000000000000000000000000000000000000000008152508160009081620000b49190620006ba565b508060019081620000c69190620006ba565b5050506001600b819055506000600e8190555033600960006101000a81548173ffffffffffffffffffffffffffffffffffffffff021916908373ffffffffffffffffffffffffffffffffffffffff1602179055506040518060400160405280600b81526020017f436f6f6c2046726f6f7473000000000000000000000000000000000000000000815250600c9081620001609190620006ba565b506040518060400160405280600581526020017f46524f4f54000000000000000000000000000000000000000000000000000000815250600d9081620001a79190620006ba565b5082601760006101000a81548173ffffffffffffffffffffffffffffffffffffffff021916908373ffffffffffffffffffffffffffffffffffffffff16021790555081601860006101000a81548173ffffffffffffffffffffffffffffffffffffffff021916908373ffffffffffffffffffffffffffffffffffffffff1602179055506000810362000252576005600781905550600160088190555066b1a2bc2ec500006006819055505b600081111562000340576115b36007819055506104d260088190555060018103620002a3576064670de0b6b3a76400006006620002909190620007d0565b6200029c91906200084a565b6006819055505b60028103620002ca57670de0b6b3a7640000603c620002c39190620007d0565b6006819055505b60038103620002f157670de0b6b3a76400006003620002ea9190620007d0565b6006819055505b600481036200031857670de0b6b3a76400006003620003119190620007d0565b6006819055505b600581036200033f57670de0b6b3a7640000603c620003389190620007d0565b6006819055505b5b50505062000882565b600080fd5b600073ffffffffffffffffffffffffffffffffffffffff82169050919050565b60006200037b826200034e565b9050919050565b6200038d816200036e565b81146200039957600080fd5b50565b600081519050620003ad8162000382565b92915050565b6000819050919050565b620003c881620003b3565b8114620003d457600080fd5b50565b600081519050620003e881620003bd565b92915050565b6000806000606084860312156200040a576200040962000349565b5b60006200041a868287016200039c565b93505060206200042d868287016200039c565b92505060406200044086828701620003d7565b9150509250925092565b600081519050919050565b7f4e487b7100000000000000000000000000000000000000000000000000000000600052604160045260246000fd5b7f4e487b7100000000000000000000000000000000000000000000000000000000600052602260045260246000fd5b60006002820490506001821680620004cc57607f821691505b602082108103620004e257620004e162000484565b5b50919050565b60008190508160005260206000209050919050565b60006020601f8301049050919050565b600082821b905092915050565b6000600883026200054c7fffffffffffffffffffffffffffffffffffffffffffffffffffffffffffffffff826200050d565b6200055886836200050d565b95508019841693508086168417925050509392505050565b6000819050919050565b60006200059b620005956200058f84620003b3565b62000570565b620003b3565b9050919050565b6000819050919050565b620005b7836200057a565b620005cf620005c682620005a2565b8484546200051a565b825550505050565b600090565b620005e6620005d7565b620005f3818484620005ac565b505050565b5b818110156200061b576200060f600082620005dc565b600181019050620005f9565b5050565b601f8211156200066a576200063481620004e8565b6200063f84620004fd565b810160208510156200064f578190505b620006676200065e85620004fd565b830182620005f8565b50505b505050565b600082821c905092915050565b60006200068f600019846008026200066f565b1980831691505092915050565b6000620006aa83836200067c565b9150826002028217905092915050565b620006c5826200044a565b67ffffffffffffffff811115620006e157620006e062000455565b5b620006ed8254620004b3565b620006fa8282856200061f565b600060209050601f8311600181146200073257600084156200071d578287015190505b6200072985826200069c565b86555062000799565b601f1984166200074286620004e8565b60005b828110156200076c5784890151825560018201915060208501945060208101905062000745565b868310156200078c578489015162000788601f8916826200067c565b8355505b6001600288020188555050505b505050505050565b7f4e487b7100000000000000000000000000000000000000000000000000000000600052601160045260246000fd5b6000620007dd82620003b3565b9150620007ea83620003b3565b9250828202620007fa81620003b3565b91508282048414831517620008145762000813620007a1565b5b5092915050565b7f4e487b7100000000000000000000000000000000000000000000000000000000600052601260045260246000fd5b60006200085782620003b3565b91506200086483620003b3565b9250826200087757620008766200081b565b5b828204905092915050565b61519680620008926000396000f3fe60806040526004361061027d5760003560e01c80637d23b33c1161014f578063a9700e1f116100c1578063ba899a2e1161007a578063ba899a2e14610a48578063be9a655514610a85578063c87b56dd14610ab0578063d64b3ae814610aed578063e985e9c514610b2a578063ea25b61d14610b675761027d565b8063a9700e1f14610912578063aa1ee9401461093d578063ac0d40841461097a578063ae943abc146109b7578063b524fd6f146109f4578063b88d4fde14610a1f5761027d565b80639af9bec0116101135780639af9bec0146107ee5780639b4f589f146108195780639e20437c14610856578063a035b1fe14610881578063a22cb465146108ac578063a613e0e7146108d55761027d565b80637d23b33c14610705578063801427541461074257806383813a281461076d5780638da5cb5b1461079857806395d89b41146107c35761027d565b806342d21ef7116101f35780636352211e116101ac5780636352211e146105da5780636ac5db19146106175780636b9f96ea146106425780636f743acd1461066d57806370a082311461069857806376917df9146106d55761027d565b806342d21ef7146104b4578063477523c2146104f157806348547d691461052e5780634c2a860d146105595780634e70b1dc146105845780634f02c420146105af5761027d565b8063216d534c11610245578063216d534c1461038057806323b872dd146103bd5780632f54bf6e146103e65780633b8d676f146104235780633dd08c381461044e57806342842e0e1461048b5761027d565b806301ffc9a71461028257806306fdde03146102bf578063081812fc146102ea578063095ea7b31461032757806320a7270d14610350575b600080fd5b34801561028e57600080fd5b506102a960048036038101906102a4919061324a565b610b92565b6040516102b69190613292565b60405180910390f35b3480156102cb57600080fd5b506102d4610c74565b6040516102e1919061333d565b60405180910390f35b3480156102f657600080fd5b50610311600480360381019061030c9190613395565b610d06565b60405161031e9190613403565b60405180910390f35b34801561033357600080fd5b5061034e6004803603810190610349919061344a565b610d8b565b005b61036a60048036038101906103659190613768565b610ea2565b6040516103779190613802565b60405180910390f35b34801561038c57600080fd5b506103a760048036038101906103a2919061344a565b6110bd565b6040516103b49190613802565b60405180910390f35b3480156103c957600080fd5b506103e460048036038101906103df919061381d565b61115e565b005b3480156103f257600080fd5b5061040d60048036038101906104089190613870565b6111be565b60405161041a9190613292565b60405180910390f35b34801561042f57600080fd5b50610438611228565b6040516104459190613292565b60405180910390f35b34801561045a57600080fd5b5061047560048036038101906104709190613870565b611237565b6040516104829190613802565b60405180910390f35b34801561049757600080fd5b506104b260048036038101906104ad919061381d565b61124f565b005b3480156104c057600080fd5b506104db60048036038101906104d69190613395565b61126f565b6040516104e8919061333d565b60405180910390f35b3480156104fd57600080fd5b5061051860048036038101906105139190613870565b61130f565b6040516105259190613802565b60405180910390f35b34801561053a57600080fd5b506105436114b3565b6040516105509190613802565b60405180910390f35b34801561056557600080fd5b5061056e6114b9565b60405161057b91906138fc565b60405180910390f35b34801561059057600080fd5b506105996114df565b6040516105a69190613802565b60405180910390f35b3480156105bb57600080fd5b506105c46114e4565b6040516105d19190613802565b60405180910390f35b3480156105e657600080fd5b5061060160048036038101906105fc9190613395565b6114ea565b60405161060e9190613403565b60405180910390f35b34801561062357600080fd5b5061062c61159b565b6040516106399190613802565b60405180910390f35b34801561064e57600080fd5b506106576115a1565b6040516106649190613802565b60405180910390f35b34801561067957600080fd5b50610682611612565b60405161068f9190613802565b60405180910390f35b3480156106a457600080fd5b506106bf60048036038101906106ba9190613870565b611618565b6040516106cc9190613802565b60405180910390f35b6106ef60048036038101906106ea9190613917565b6116cf565b6040516106fc9190613292565b60405180910390f35b34801561071157600080fd5b5061072c60048036038101906107279190613973565b6118c7565b6040516107399190613802565b60405180910390f35b34801561074e57600080fd5b50610757611bcd565b6040516107649190613a04565b60405180910390f35b34801561077957600080fd5b50610782611c50565b60405161078f919061333d565b60405180910390f35b3480156107a457600080fd5b506107ad611cde565b6040516107ba9190613403565b60405180910390f35b3480156107cf57600080fd5b506107d8611d04565b6040516107e5919061333d565b60405180910390f35b3480156107fa57600080fd5b50610803611d96565b604051610810919061333d565b60405180910390f35b34801561082557600080fd5b50610840600480360381019061083b9190613395565b611e24565b60405161084d9190613a74565b60405180910390f35b34801561086257600080fd5b5061086b611ec4565b6040516108789190613802565b60405180910390f35b34801561088d57600080fd5b50610896611ed0565b6040516108a39190613802565b60405180910390f35b3480156108b857600080fd5b506108d360048036038101906108ce9190613ac2565b611ed6565b005b3480156108e157600080fd5b506108fc60048036038101906108f79190613395565b611eec565b6040516109099190613403565b60405180910390f35b34801561091e57600080fd5b50610927611f1f565b6040516109349190613b23565b60405180910390f35b34801561094957600080fd5b50610964600480360381019061095f9190613395565b611f45565b6040516109719190613802565b60405180910390f35b34801561098657600080fd5b506109a1600480360381019061099c9190613b3e565b611f5d565b6040516109ae919061333d565b60405180910390f35b3480156109c357600080fd5b506109de60048036038101906109d99190613395565b6121ea565b6040516109eb9190613802565b60405180910390f35b348015610a0057600080fd5b50610a09612202565b604051610a169190613292565b60405180910390f35b348015610a2b57600080fd5b50610a466004803603810190610a419190613c1f565b61226b565b005b348015610a5457600080fd5b50610a6f6004803603810190610a6a9190613395565b6122cd565b604051610a7c9190613403565b60405180910390f35b348015610a9157600080fd5b50610a9a6122df565b604051610aa79190613292565b60405180910390f35b348015610abc57600080fd5b50610ad76004803603810190610ad29190613395565b6122f2565b604051610ae4919061333d565b60405180910390f35b348015610af957600080fd5b50610b146004803603810190610b0f9190613395565b612399565b604051610b219190613802565b60405180910390f35b348015610b3657600080fd5b50610b516004803603810190610b4c9190613ca2565b6123b1565b604051610b5e9190613292565b60405180910390f35b348015610b7357600080fd5b50610b7c612445565b604051610b899190613292565b60405180910390f35b60007f80ac58cd000000000000000000000000000000000000000000000000000000007bffffffffffffffffffffffffffffffffffffffffffffffffffffffff1916827bffffffffffffffffffffffffffffffffffffffffffffffffffffffff19161480610c5d57507f5b5e139f000000000000000000000000000000000000000000000000000000007bffffffffffffffffffffffffffffffffffffffffffffffffffffffff1916827bffffffffffffffffffffffffffffffffffffffffffffffffffffffff1916145b80610c6d5750610c6c82612457565b5b9050919050565b606060008054610c8390613d11565b80601f0160208091040260200160405190810160405280929190818152602001828054610caf90613d11565b8015610cfc5780601f10610cd157610100808354040283529160200191610cfc565b820191906000526020600020905b815481529060010190602001808311610cdf57829003601f168201915b5050505050905090565b6000610d11826124c1565b610d50576040517f08c379a0000000000000000000000000000000000000000000000000000000008152600401610d4790613db4565b60405180910390fd5b6004600083815260200190815260200160002060009054906101000a900473ffffffffffffffffffffffffffffffffffffffff169050919050565b6000610d96826114ea565b90508073ffffffffffffffffffffffffffffffffffffffff168373ffffffffffffffffffffffffffffffffffffffff1603610e06576040517f08c379a0000000000000000000000000000000000000000000000000000000008152600401610dfd90613e46565b60405180910390fd5b8073ffffffffffffffffffffffffffffffffffffffff16610e2561252d565b73ffffffffffffffffffffffffffffffffffffffff161480610e545750610e5381610e4e61252d565b6123b1565b5b610e93576040517f08c379a0000000000000000000000000000000000000000000000000000000008152600401610e8a90613ed8565b60405180910390fd5b610e9d8383612535565b505050565b60006001600754610eb39190613f27565b600b541115610ef7576040517f08c379a0000000000000000000000000000000000000000000000000000000008152600401610eee90613fa7565b60405180910390fd5b60065484610f059190613fc7565b341015610f47576040517f08c379a0000000000000000000000000000000000000000000000000000000008152600401610f3e90614055565b60405180910390fd5b60011515600f60009054906101000a900460ff16151514610f9d576040517f08c379a0000000000000000000000000000000000000000000000000000000008152600401610f94906140c1565b60405180910390fd5b3360156000600b54815260200190815260200160002060006101000a81548173ffffffffffffffffffffffffffffffffffffffff021916908373ffffffffffffffffffffffffffffffffffffffff160217905550610ffd843385856125ee565b50600060094261100d9190614110565b9050601760009054906101000a900473ffffffffffffffffffffffffffffffffffffffff1673ffffffffffffffffffffffffffffffffffffffff1663b02bf4b933836040518363ffffffff1660e01b815260040161106c929190614141565b6020604051808303816000875af115801561108b573d6000803e3d6000fd5b505050506040513d601f19601f820116820180604052508101906110af919061417f565b50600b549150509392505050565b6000808390508073ffffffffffffffffffffffffffffffffffffffff166323b872dd30600960009054906101000a900473ffffffffffffffffffffffffffffffffffffffff16866040518463ffffffff1660e01b8152600401611122939291906141ac565b600060405180830381600087803b15801561113c57600080fd5b505af1158015611150573d6000803e3d6000fd5b505050508291505092915050565b61116f61116961252d565b826126f4565b6111ae576040517f08c379a00000000000000000000000000000000000000000000000000000000081526004016111a590614255565b60405180910390fd5b6111b98383836127d2565b505050565b6000600960009054906101000a900473ffffffffffffffffffffffffffffffffffffffff1673ffffffffffffffffffffffffffffffffffffffff168273ffffffffffffffffffffffffffffffffffffffff160361121e5760019050611223565b600090505b919050565b6000611232612a2d565b905090565b60166020528060005260406000206000915090505481565b61126a8383836040518060200160405280600081525061226b565b505050565b6012602052806000526040600020600091509050805461128e90613d11565b80601f01602080910402602001604051908101604052809291908181526020018280546112ba90613d11565b80156113075780601f106112dc57610100808354040283529160200191611307565b820191906000526020600020905b8154815290600101906020018083116112ea57829003601f168201915b505050505081565b6000808290508073ffffffffffffffffffffffffffffffffffffffff166323b872dd30600960009054906101000a900473ffffffffffffffffffffffffffffffffffffffff168473ffffffffffffffffffffffffffffffffffffffff166370a08231306040518263ffffffff1660e01b815260040161138e9190613403565b602060405180830381865afa1580156113ab573d6000803e3d6000fd5b505050506040513d601f19601f820116820180604052508101906113cf919061428a565b6040518463ffffffff1660e01b81526004016113ed939291906141ac565b6020604051808303816000875af115801561140c573d6000803e3d6000fd5b505050506040513d601f19601f82011682018060405250810190611430919061417f565b508073ffffffffffffffffffffffffffffffffffffffff166370a08231306040518263ffffffff1660e01b815260040161146a9190613403565b602060405180830381865afa158015611487573d6000803e3d6000fd5b505050506040513d601f19601f820116820180604052508101906114ab919061428a565b915050919050565b600e5481565b601760009054906101000a900473ffffffffffffffffffffffffffffffffffffffff1681565b600181565b600b5481565b6000806002600084815260200190815260200160002060009054906101000a900473ffffffffffffffffffffffffffffffffffffffff169050600073ffffffffffffffffffffffffffffffffffffffff168173ffffffffffffffffffffffffffffffffffffffff1603611592576040517f08c379a000000000000000000000000000000000000000000000000000000000815260040161158990614329565b60405180910390fd5b80915050919050565b60075481565b6000600960009054906101000a900473ffffffffffffffffffffffffffffffffffffffff1673ffffffffffffffffffffffffffffffffffffffff166108fc479081150290604051600060405180830381858888f1935050505015801561160b573d6000803e3d6000fd5b5047905090565b60085481565b60008073ffffffffffffffffffffffffffffffffffffffff168273ffffffffffffffffffffffffffffffffffffffff1603611688576040517f08c379a000000000000000000000000000000000000000000000000000000000815260040161167f906143bb565b60405180910390fd5b600360008373ffffffffffffffffffffffffffffffffffffffff1673ffffffffffffffffffffffffffffffffffffffff168152602001908152602001600020549050919050565b60003373ffffffffffffffffffffffffffffffffffffffff166015600085815260200190815260200160002060009054906101000a900473ffffffffffffffffffffffffffffffffffffffff1673ffffffffffffffffffffffffffffffffffffffff1614611772576040517f08c379a000000000000000000000000000000000000000000000000000000000815260040161176990614427565b60405180910390fd5b60001515600f60009054906101000a900460ff161515146117c8576040517f08c379a00000000000000000000000000000000000000000000000000000000081526004016117bf90614493565b60405180910390fd5b670de0b6b3a76400003410156117dd57600080fd5b60006009426117ec9190614110565b9050601760009054906101000a900473ffffffffffffffffffffffffffffffffffffffff1673ffffffffffffffffffffffffffffffffffffffff1663b02bf4b93360028461183a91906144b3565b6040518363ffffffff1660e01b8152600401611857929190614141565b6020604051808303816000875af1158015611876573d6000803e3d6000fd5b505050506040513d601f19601f8201168201806040525081019061189a919061417f565b50826012600086815260200190815260200160002090816118bb9190614686565b50600191505092915050565b6000600754600b541115611910576040517f08c379a000000000000000000000000000000000000000000000000000000000815260040161190790613fa7565b60405180910390fd5b60011515600f60009054906101000a900460ff16151514611966576040517f08c379a000000000000000000000000000000000000000000000000000000000815260040161195d906140c1565b60405180910390fd5b6000601860009054906101000a900473ffffffffffffffffffffffffffffffffffffffff1673ffffffffffffffffffffffffffffffffffffffff1663f794062e336040518263ffffffff1660e01b81526004016119c39190613403565b602060405180830381865afa1580156119e0573d6000803e3d6000fd5b505050506040513d601f19601f82011682018060405250810190611a04919061417f565b90506001151581151514611a4d576040517f08c379a0000000000000000000000000000000000000000000000000000000008152600401611a44906147a4565b60405180910390fd5b600854600e541115611a94576040517f08c379a0000000000000000000000000000000000000000000000000000000008152600401611a8b90614810565b60405180910390fd5b3360156000600b54815260200190815260200160002060006101000a81548173ffffffffffffffffffffffffffffffffffffffff021916908373ffffffffffffffffffffffffffffffffffffffff160217905550611af560013386866125ee565b506000600942611b059190614110565b9050601760009054906101000a900473ffffffffffffffffffffffffffffffffffffffff1673ffffffffffffffffffffffffffffffffffffffff1663b02bf4b933836040518363ffffffff1660e01b8152600401611b64929190614141565b6020604051808303816000875af1158015611b83573d6000803e3d6000fd5b505050506040513d601f19601f82011682018060405250810190611ba7919061417f565b50600e6000815480929190611bbb90614830565b9190505550600b549250505092915050565b6000804260146000601660003373ffffffffffffffffffffffffffffffffffffffff1673ffffffffffffffffffffffffffffffffffffffff16815260200190815260200160002054815260200190815260200160002054611c2e9190614878565b90506018610e1082611c4091906148bb565b611c4a9190614925565b91505090565b600d8054611c5d90613d11565b80601f0160208091040260200160405190810160405280929190818152602001828054611c8990613d11565b8015611cd65780601f10611cab57610100808354040283529160200191611cd6565b820191906000526020600020905b815481529060010190602001808311611cb957829003601f168201915b505050505081565b600960009054906101000a900473ffffffffffffffffffffffffffffffffffffffff1681565b606060018054611d1390613d11565b80601f0160208091040260200160405190810160405280929190818152602001828054611d3f90613d11565b8015611d8c5780601f10611d6157610100808354040283529160200191611d8c565b820191906000526020600020905b815481529060010190602001808311611d6f57829003601f168201915b5050505050905090565b600c8054611da390613d11565b80601f0160208091040260200160405190810160405280929190818152602001828054611dcf90613d11565b8015611e1c5780601f10611df157610100808354040283529160200191611e1c565b820191906000526020600020905b815481529060010190602001808311611dff57829003601f168201915b505050505081565b60106020528060005260406000206000915090508054611e4390613d11565b80601f0160208091040260200160405190810160405280929190818152602001828054611e6f90613d11565b8015611ebc5780601f10611e9157610100808354040283529160200191611ebc565b820191906000526020600020905b815481529060010190602001808311611e9f57829003601f168201915b505050505081565b670de0b6b3a764000081565b60065481565b611ee8611ee161252d565b8383612a5d565b5050565b60156020528060005260406000206000915054906101000a900473ffffffffffffffffffffffffffffffffffffffff1681565b601860009054906101000a900473ffffffffffffffffffffffffffffffffffffffff1681565b60146020528060005260406000206000915090505481565b6060670de0b6b3a764000083611f739190613fc7565b601760009054906101000a900473ffffffffffffffffffffffffffffffffffffffff1673ffffffffffffffffffffffffffffffffffffffff166370a08231336040518263ffffffff1660e01b8152600401611fce9190613403565b602060405180830381865afa158015611feb573d6000803e3d6000fd5b505050506040513d601f19601f8201168201806040525081019061200f919061428a565b101561201a57600080fd5b601760009054906101000a900473ffffffffffffffffffffffffffffffffffffffff1673ffffffffffffffffffffffffffffffffffffffff1663fcd3533c670de0b6b3a76400008561206c9190613fc7565b336040518363ffffffff1660e01b815260040161208a92919061499d565b6020604051808303816000875af11580156120a9573d6000803e3d6000fd5b505050506040513d601f19601f820116820180604052508101906120cd919061428a565b50826013600084815260200190815260200160002060008282546120f19190613f27565b92505081905550600060146000848152602001908152602001600020540361215e576018603c80856121239190613fc7565b61212d9190613fc7565b6121379190613fc7565b426121429190613f27565b60146000848152602001908152602001600020819055506121ac565b6018603c808561216e9190613fc7565b6121789190613fc7565b6121829190613fc7565b6014600084815260200190815260200160002060008282546121a49190613f27565b925050819055505b6040518060400160405280601d81526020017f49434520484153204245454e20414444454420544f2046524f4f542021000000815250905092915050565b60116020528060005260406000206000915090505481565b6000600960009054906101000a900473ffffffffffffffffffffffffffffffffffffffff1673ffffffffffffffffffffffffffffffffffffffff163373ffffffffffffffffffffffffffffffffffffffff161461225e57600080fd5b612266612a2d565b905090565b61227c61227661252d565b836126f4565b6122bb576040517f08c379a00000000000000000000000000000000000000000000000000000000081526004016122b290614255565b60405180910390fd5b6122c784848484612bc9565b50505050565b60006122d8826114ea565b9050919050565b600f60009054906101000a900460ff1681565b60606122fd826124c1565b61233c576040517f08c379a000000000000000000000000000000000000000000000000000000000815260040161233390614a38565b60405180910390fd5b6000612346612c25565b905060008151116123665760405180602001604052806000815250612391565b8061237084612c3c565b604051602001612381929190614a94565b6040516020818303038152906040525b915050919050565b60136020528060005260406000206000915090505481565b6000600560008473ffffffffffffffffffffffffffffffffffffffff1673ffffffffffffffffffffffffffffffffffffffff16815260200190815260200160002060008373ffffffffffffffffffffffffffffffffffffffff1673ffffffffffffffffffffffffffffffffffffffff16815260200190815260200160002060009054906101000a900460ff16905092915050565b60006104d2600e819055506001905090565b60007f01ffc9a7000000000000000000000000000000000000000000000000000000007bffffffffffffffffffffffffffffffffffffffffffffffffffffffff1916827bffffffffffffffffffffffffffffffffffffffffffffffffffffffff1916149050919050565b60008073ffffffffffffffffffffffffffffffffffffffff166002600084815260200190815260200160002060009054906101000a900473ffffffffffffffffffffffffffffffffffffffff1673ffffffffffffffffffffffffffffffffffffffff1614159050919050565b600033905090565b816004600083815260200190815260200160002060006101000a81548173ffffffffffffffffffffffffffffffffffffffff021916908373ffffffffffffffffffffffffffffffffffffffff160217905550808273ffffffffffffffffffffffffffffffffffffffff166125a8836114ea565b73ffffffffffffffffffffffffffffffffffffffff167f8c5be1e5ebec7d5bd14f71427d1e84f3dd0314c0f7b2291e5b200ac8c7c3b92560405160405180910390a45050565b60006001856125fc86611618565b6126069190613f27565b1115612647576040517f08c379a000000000000000000000000000000000000000000000000000000000815260040161263e90614b2a565b60405180910390fd5b60016007546126569190613f27565b85600b546126649190613f27565b11156126a5576040517f08c379a000000000000000000000000000000000000000000000000000000000815260040161269c90614b96565b60405180910390fd5b6126e684846000815181106126bd576126bc614bb6565b5b6020026020010151846000815181106126d9576126d8614bb6565b5b6020026020010151612d9c565b50600b549050949350505050565b60006126ff826124c1565b61273e576040517f08c379a000000000000000000000000000000000000000000000000000000000815260040161273590614c57565b60405180910390fd5b6000612749836114ea565b90508073ffffffffffffffffffffffffffffffffffffffff168473ffffffffffffffffffffffffffffffffffffffff1614806127b857508373ffffffffffffffffffffffffffffffffffffffff166127a084610d06565b73ffffffffffffffffffffffffffffffffffffffff16145b806127c957506127c881856123b1565b5b91505092915050565b8273ffffffffffffffffffffffffffffffffffffffff166127f2826114ea565b73ffffffffffffffffffffffffffffffffffffffff1614612848576040517f08c379a000000000000000000000000000000000000000000000000000000000815260040161283f90614ce9565b60405180910390fd5b600073ffffffffffffffffffffffffffffffffffffffff168273ffffffffffffffffffffffffffffffffffffffff16036128b7576040517f08c379a00000000000000000000000000000000000000000000000000000000081526004016128ae90614d7b565b60405180910390fd5b6128c2838383612e72565b6128cd600082612535565b6001600360008573ffffffffffffffffffffffffffffffffffffffff1673ffffffffffffffffffffffffffffffffffffffff168152602001908152602001600020600082825461291d9190614d9b565b925050819055506001600360008473ffffffffffffffffffffffffffffffffffffffff1673ffffffffffffffffffffffffffffffffffffffff16815260200190815260200160002060008282546129749190613f27565b92505081905550816002600083815260200190815260200160002060006101000a81548173ffffffffffffffffffffffffffffffffffffffff021916908373ffffffffffffffffffffffffffffffffffffffff160217905550808273ffffffffffffffffffffffffffffffffffffffff168473ffffffffffffffffffffffffffffffffffffffff167fddf252ad1be2c89b69c2b068fc378daa952ba7f163c4a11628f55a4df523b3ef60405160405180910390a4505050565b6000600f60009054906101000a900460ff1615600f60006101000a81548160ff0219169083151502179055905090565b8173ffffffffffffffffffffffffffffffffffffffff168373ffffffffffffffffffffffffffffffffffffffff1603612acb576040517f08c379a0000000000000000000000000000000000000000000000000000000008152600401612ac290614e1b565b60405180910390fd5b80600560008573ffffffffffffffffffffffffffffffffffffffff1673ffffffffffffffffffffffffffffffffffffffff16815260200190815260200160002060008473ffffffffffffffffffffffffffffffffffffffff1673ffffffffffffffffffffffffffffffffffffffff16815260200190815260200160002060006101000a81548160ff0219169083151502179055508173ffffffffffffffffffffffffffffffffffffffff168373ffffffffffffffffffffffffffffffffffffffff167f17307eab39ab6107e8899845ad3d59bd9653f200f220920489ca2b5937696c3183604051612bbc9190613292565b60405180910390a3505050565b612bd48484846127d2565b612be084848484612e77565b612c1f576040517f08c379a0000000000000000000000000000000000000000000000000000000008152600401612c1690614ead565b60405180910390fd5b50505050565b606060405180602001604052806000815250905090565b606060008203612c83576040518060400160405280600181526020017f30000000000000000000000000000000000000000000000000000000000000008152509050612d97565b600082905060005b60008214612cb5578080612c9e90614830565b915050600a82612cae91906144b3565b9150612c8b565b60008167ffffffffffffffff811115612cd157612cd061348f565b5b6040519080825280601f01601f191660200182016040528015612d035781602001600182028036833780820191505090505b5090505b60008514612d9057600182612d1c9190614d9b565b9150600a85612d2b9190614110565b6030612d379190613f27565b60f81b818381518110612d4d57612d4c614bb6565b5b60200101907effffffffffffffffffffffffffffffffffffffffffffffffffffffffffffff1916908160001a905350600a85612d8991906144b3565b9450612d07565b8093505050505b919050565b6000612daa84600b54612ffe565b8260116000600b548152602001908152602001600020819055508160106000600b5481526020019081526020016000209081612de69190614f28565b50600b54601660008673ffffffffffffffffffffffffffffffffffffffff1673ffffffffffffffffffffffffffffffffffffffff16815260200190815260200160002081905550600b6000815480929190612e4090614830565b91905055506001600754612e549190613f27565b600b5410612e6657612e64612a2d565b505b600b5490509392505050565b505050565b6000612e988473ffffffffffffffffffffffffffffffffffffffff166131cb565b15612ff1578373ffffffffffffffffffffffffffffffffffffffff1663150b7a02612ec161252d565b8786866040518563ffffffff1660e01b8152600401612ee39493929190614ffa565b6020604051808303816000875af1925050508015612f1f57506040513d601f19601f82011682018060405250810190612f1c919061505b565b60015b612fa1573d8060008114612f4f576040519150601f19603f3d011682016040523d82523d6000602084013e612f54565b606091505b506000815103612f99576040517f08c379a0000000000000000000000000000000000000000000000000000000008152600401612f9090614ead565b60405180910390fd5b805181602001fd5b63150b7a0260e01b7bffffffffffffffffffffffffffffffffffffffffffffffffffffffff1916817bffffffffffffffffffffffffffffffffffffffffffffffffffffffff191614915050612ff6565b600190505b949350505050565b600073ffffffffffffffffffffffffffffffffffffffff168273ffffffffffffffffffffffffffffffffffffffff160361306d576040517f08c379a0000000000000000000000000000000000000000000000000000000008152600401613064906150d4565b60405180910390fd5b613076816124c1565b156130b6576040517f08c379a00000000000000000000000000000000000000000000000000000000081526004016130ad90615140565b60405180910390fd5b6130c260008383612e72565b6001600360008473ffffffffffffffffffffffffffffffffffffffff1673ffffffffffffffffffffffffffffffffffffffff16815260200190815260200160002060008282546131129190613f27565b92505081905550816002600083815260200190815260200160002060006101000a81548173ffffffffffffffffffffffffffffffffffffffff021916908373ffffffffffffffffffffffffffffffffffffffff160217905550808273ffffffffffffffffffffffffffffffffffffffff16600073ffffffffffffffffffffffffffffffffffffffff167fddf252ad1be2c89b69c2b068fc378daa952ba7f163c4a11628f55a4df523b3ef60405160405180910390a45050565b600080823b905060008111915050919050565b6000604051905090565b600080fd5b600080fd5b60007fffffffff0000000000000000000000000000000000000000000000000000000082169050919050565b613227816131f2565b811461323257600080fd5b50565b6000813590506132448161321e565b92915050565b6000602082840312156132605761325f6131e8565b5b600061326e84828501613235565b91505092915050565b60008115159050919050565b61328c81613277565b82525050565b60006020820190506132a76000830184613283565b92915050565b600081519050919050565b600082825260208201905092915050565b60005b838110156132e75780820151818401526020810190506132cc565b60008484015250505050565b6000601f19601f8301169050919050565b600061330f826132ad565b61331981856132b8565b93506133298185602086016132c9565b613332816132f3565b840191505092915050565b600060208201905081810360008301526133578184613304565b905092915050565b6000819050919050565b6133728161335f565b811461337d57600080fd5b50565b60008135905061338f81613369565b92915050565b6000602082840312156133ab576133aa6131e8565b5b60006133b984828501613380565b91505092915050565b600073ffffffffffffffffffffffffffffffffffffffff82169050919050565b60006133ed826133c2565b9050919050565b6133fd816133e2565b82525050565b600060208201905061341860008301846133f4565b92915050565b613427816133e2565b811461343257600080fd5b50565b6000813590506134448161341e565b92915050565b60008060408385031215613461576134606131e8565b5b600061346f85828601613435565b925050602061348085828601613380565b9150509250929050565b600080fd5b7f4e487b7100000000000000000000000000000000000000000000000000000000600052604160045260246000fd5b6134c7826132f3565b810181811067ffffffffffffffff821117156134e6576134e561348f565b5b80604052505050565b60006134f96131de565b905061350582826134be565b919050565b600067ffffffffffffffff8211156135255761352461348f565b5b602082029050602081019050919050565b600080fd5b600061354e6135498461350a565b6134ef565b9050808382526020820190506020840283018581111561357157613570613536565b5b835b8181101561359a57806135868882613380565b845260208401935050602081019050613573565b5050509392505050565b600082601f8301126135b9576135b861348a565b5b81356135c984826020860161353b565b91505092915050565b600067ffffffffffffffff8211156135ed576135ec61348f565b5b602082029050602081019050919050565b600080fd5b600067ffffffffffffffff82111561361e5761361d61348f565b5b613627826132f3565b9050602081019050919050565b82818337600083830152505050565b600061365661365184613603565b6134ef565b905082815260208101848484011115613672576136716135fe565b5b61367d848285613634565b509392505050565b600082601f83011261369a5761369961348a565b5b81356136aa848260208601613643565b91505092915050565b60006136c66136c1846135d2565b6134ef565b905080838252602082019050602084028301858111156136e9576136e8613536565b5b835b8181101561373057803567ffffffffffffffff81111561370e5761370d61348a565b5b80860161371b8982613685565b855260208501945050506020810190506136eb565b5050509392505050565b600082601f83011261374f5761374e61348a565b5b813561375f8482602086016136b3565b91505092915050565b600080600060608486031215613781576137806131e8565b5b600061378f86828701613380565b935050602084013567ffffffffffffffff8111156137b0576137af6131ed565b5b6137bc868287016135a4565b925050604084013567ffffffffffffffff8111156137dd576137dc6131ed565b5b6137e98682870161373a565b9150509250925092565b6137fc8161335f565b82525050565b600060208201905061381760008301846137f3565b92915050565b600080600060608486031215613836576138356131e8565b5b600061384486828701613435565b935050602061385586828701613435565b925050604061386686828701613380565b9150509250925092565b600060208284031215613886576138856131e8565b5b600061389484828501613435565b91505092915050565b6000819050919050565b60006138c26138bd6138b8846133c2565b61389d565b6133c2565b9050919050565b60006138d4826138a7565b9050919050565b60006138e6826138c9565b9050919050565b6138f6816138db565b82525050565b600060208201905061391160008301846138ed565b92915050565b6000806040838503121561392e5761392d6131e8565b5b600061393c85828601613380565b925050602083013567ffffffffffffffff81111561395d5761395c6131ed565b5b61396985828601613685565b9150509250929050565b6000806040838503121561398a576139896131e8565b5b600083013567ffffffffffffffff8111156139a8576139a76131ed565b5b6139b4858286016135a4565b925050602083013567ffffffffffffffff8111156139d5576139d46131ed565b5b6139e18582860161373a565b9150509250929050565b6000819050919050565b6139fe816139eb565b82525050565b6000602082019050613a1960008301846139f5565b92915050565b600081519050919050565b600082825260208201905092915050565b6000613a4682613a1f565b613a508185613a2a565b9350613a608185602086016132c9565b613a69816132f3565b840191505092915050565b60006020820190508181036000830152613a8e8184613a3b565b905092915050565b613a9f81613277565b8114613aaa57600080fd5b50565b600081359050613abc81613a96565b92915050565b60008060408385031215613ad957613ad86131e8565b5b6000613ae785828601613435565b9250506020613af885828601613aad565b9150509250929050565b6000613b0d826138c9565b9050919050565b613b1d81613b02565b82525050565b6000602082019050613b386000830184613b14565b92915050565b60008060408385031215613b5557613b546131e8565b5b6000613b6385828601613380565b9250506020613b7485828601613380565b9150509250929050565b600067ffffffffffffffff821115613b9957613b9861348f565b5b613ba2826132f3565b9050602081019050919050565b6000613bc2613bbd84613b7e565b6134ef565b905082815260208101848484011115613bde57613bdd6135fe565b5b613be9848285613634565b509392505050565b600082601f830112613c0657613c0561348a565b5b8135613c16848260208601613baf565b91505092915050565b60008060008060808587031215613c3957613c386131e8565b5b6000613c4787828801613435565b9450506020613c5887828801613435565b9350506040613c6987828801613380565b925050606085013567ffffffffffffffff811115613c8a57613c896131ed565b5b613c9687828801613bf1565b91505092959194509250565b60008060408385031215613cb957613cb86131e8565b5b6000613cc785828601613435565b9250506020613cd885828601613435565b9150509250929050565b7f4e487b7100000000000000000000000000000000000000000000000000000000600052602260045260246000fd5b60006002820490506001821680613d2957607f821691505b602082108103613d3c57613d3b613ce2565b5b50919050565b7f4552433732313a20617070726f76656420717565727920666f72206e6f6e657860008201527f697374656e7420746f6b656e0000000000000000000000000000000000000000602082015250565b6000613d9e602c836132b8565b9150613da982613d42565b604082019050919050565b60006020820190508181036000830152613dcd81613d91565b9050919050565b7f4552433732313a20617070726f76616c20746f2063757272656e74206f776e6560008201527f7200000000000000000000000000000000000000000000000000000000000000602082015250565b6000613e306021836132b8565b9150613e3b82613dd4565b604082019050919050565b60006020820190508181036000830152613e5f81613e23565b9050919050565b7f4552433732313a20617070726f76652063616c6c6572206973206e6f74206f7760008201527f6e6572206e6f7220617070726f76656420666f7220616c6c0000000000000000602082015250565b6000613ec26038836132b8565b9150613ecd82613e66565b604082019050919050565b60006020820190508181036000830152613ef181613eb5565b9050919050565b7f4e487b7100000000000000000000000000000000000000000000000000000000600052601160045260246000fd5b6000613f328261335f565b9150613f3d8361335f565b9250828201905080821115613f5557613f54613ef8565b5b92915050565b7f534f4c44204f5554000000000000000000000000000000000000000000000000600082015250565b6000613f916008836132b8565b9150613f9c82613f5b565b602082019050919050565b60006020820190508181036000830152613fc081613f84565b9050919050565b6000613fd28261335f565b9150613fdd8361335f565b9250828202613feb8161335f565b9150828204841483151761400257614001613ef8565b5b5092915050565b7f494e5355464649434945542046554e4453000000000000000000000000000000600082015250565b600061403f6011836132b8565b915061404a82614009565b602082019050919050565b6000602082019050818103600083015261406e81614032565b9050919050565b7f4d494e54204953204e4f5420594554204c495645000000000000000000000000600082015250565b60006140ab6014836132b8565b91506140b682614075565b602082019050919050565b600060208201905081810360008301526140da8161409e565b9050919050565b7f4e487b7100000000000000000000000000000000000000000000000000000000600052601260045260246000fd5b600061411b8261335f565b91506141268361335f565b925082614136576141356140e1565b5b828206905092915050565b600060408201905061415660008301856133f4565b61416360208301846137f3565b9392505050565b60008151905061417981613a96565b92915050565b600060208284031215614195576141946131e8565b5b60006141a38482850161416a565b91505092915050565b60006060820190506141c160008301866133f4565b6141ce60208301856133f4565b6141db60408301846137f3565b949350505050565b7f4552433732313a207472616e736665722063616c6c6572206973206e6f74206f60008201527f776e6572206e6f7220617070726f766564000000000000000000000000000000602082015250565b600061423f6031836132b8565b915061424a826141e3565b604082019050919050565b6000602082019050818103600083015261426e81614232565b9050919050565b60008151905061428481613369565b92915050565b6000602082840312156142a05761429f6131e8565b5b60006142ae84828501614275565b91505092915050565b7f4552433732313a206f776e657220717565727920666f72206e6f6e657869737460008201527f656e7420746f6b656e0000000000000000000000000000000000000000000000602082015250565b60006143136029836132b8565b915061431e826142b7565b604082019050919050565b6000602082019050818103600083015261434281614306565b9050919050565b7f4552433732313a2062616c616e636520717565727920666f7220746865207a6560008201527f726f206164647265737300000000000000000000000000000000000000000000602082015250565b60006143a5602a836132b8565b91506143b082614349565b604082019050919050565b600060208201905081810360008301526143d481614398565b9050919050565b7f594f5520415245204e4f542054484520484f4c44455200000000000000000000600082015250565b60006144116016836132b8565b915061441c826143db565b602082019050919050565b6000602082019050818103600083015261444081614404565b9050919050565b7f4d494e54204953205354494c4c20494e2050524f475245535300000000000000600082015250565b600061447d6019836132b8565b915061448882614447565b602082019050919050565b600060208201905081810360008301526144ac81614470565b9050919050565b60006144be8261335f565b91506144c98361335f565b9250826144d9576144d86140e1565b5b828204905092915050565b60008190508160005260206000209050919050565b60006020601f8301049050919050565b600082821b905092915050565b6000600883026145467fffffffffffffffffffffffffffffffffffffffffffffffffffffffffffffffff82614509565b6145508683614509565b95508019841693508086168417925050509392505050565b600061458361457e6145798461335f565b61389d565b61335f565b9050919050565b6000819050919050565b61459d83614568565b6145b16145a98261458a565b848454614516565b825550505050565b600090565b6145c66145b9565b6145d1818484614594565b505050565b5b818110156145f5576145ea6000826145be565b6001810190506145d7565b5050565b601f82111561463a5761460b816144e4565b614614846144f9565b81016020851015614623578190505b61463761462f856144f9565b8301826145d6565b50505b505050565b600082821c905092915050565b600061465d6000198460080261463f565b1980831691505092915050565b6000614676838361464c565b9150826002028217905092915050565b61468f826132ad565b67ffffffffffffffff8111156146a8576146a761348f565b5b6146b28254613d11565b6146bd8282856145f9565b600060209050601f8311600181146146f057600084156146de578287015190505b6146e8858261466a565b865550614750565b601f1984166146fe866144e4565b60005b8281101561472657848901518255600182019150602085019450602081019050614701565b86831015614743578489015161473f601f89168261464c565b8355505b6001600288020188555050505b505050505050565b7f594f5520415245204e4f5420475245454e4c4953544544000000000000000000600082015250565b600061478e6017836132b8565b915061479982614758565b602082019050919050565b600060208201905081810360008301526147bd81614781565b9050919050565b7f414c4c20534c4f54532048415645204245454e204d494e544544000000000000600082015250565b60006147fa601a836132b8565b9150614805826147c4565b602082019050919050565b60006020820190508181036000830152614829816147ed565b9050919050565b600061483b8261335f565b91507fffffffffffffffffffffffffffffffffffffffffffffffffffffffffffffffff820361486d5761486c613ef8565b5b600182019050919050565b6000614883826139eb565b915061488e836139eb565b92508282039050818112600084121682821360008512151617156148b5576148b4613ef8565b5b92915050565b60006148c6826139eb565b91506148d1836139eb565b9250826148e1576148e06140e1565b5b600160000383147f80000000000000000000000000000000000000000000000000000000000000008314161561491a57614919613ef8565b5b828205905092915050565b6000614930826139eb565b915061493b836139eb565b9250828202614949816139eb565b91507f8000000000000000000000000000000000000000000000000000000000000000841460008412161561498157614980613ef8565b5b828205841483151761499657614995613ef8565b5b5092915050565b60006040820190506149b260008301856137f3565b6149bf60208301846133f4565b9392505050565b7f4552433732314d657461646174613a2055524920717565727920666f72206e6f60008201527f6e6578697374656e7420746f6b656e0000000000000000000000000000000000602082015250565b6000614a22602f836132b8565b9150614a2d826149c6565b604082019050919050565b60006020820190508181036000830152614a5181614a15565b9050919050565b600081905092915050565b6000614a6e826132ad565b614a788185614a58565b9350614a888185602086016132c9565b80840191505092915050565b6000614aa08285614a63565b9150614aac8284614a63565b91508190509392505050565b7f4558434545444544204d4158204d494e5441424c4520544f4b454e532050455260008201527f2057414c4c455400000000000000000000000000000000000000000000000000602082015250565b6000614b146027836132b8565b9150614b1f82614ab8565b604082019050919050565b60006020820190508181036000830152614b4381614b07565b9050919050565b7f4e4f5420454e4f55474820535550504c59000000000000000000000000000000600082015250565b6000614b806011836132b8565b9150614b8b82614b4a565b602082019050919050565b60006020820190508181036000830152614baf81614b73565b9050919050565b7f4e487b7100000000000000000000000000000000000000000000000000000000600052603260045260246000fd5b7f4552433732313a206f70657261746f7220717565727920666f72206e6f6e657860008201527f697374656e7420746f6b656e0000000000000000000000000000000000000000602082015250565b6000614c41602c836132b8565b9150614c4c82614be5565b604082019050919050565b60006020820190508181036000830152614c7081614c34565b9050919050565b7f4552433732313a207472616e73666572206f6620746f6b656e2074686174206960008201527f73206e6f74206f776e0000000000000000000000000000000000000000000000602082015250565b6000614cd36029836132b8565b9150614cde82614c77565b604082019050919050565b60006020820190508181036000830152614d0281614cc6565b9050919050565b7f4552433732313a207472616e7366657220746f20746865207a65726f2061646460008201527f7265737300000000000000000000000000000000000000000000000000000000602082015250565b6000614d656024836132b8565b9150614d7082614d09565b604082019050919050565b60006020820190508181036000830152614d9481614d58565b9050919050565b6000614da68261335f565b9150614db18361335f565b9250828203905081811115614dc957614dc8613ef8565b5b92915050565b7f4552433732313a20617070726f766520746f2063616c6c657200000000000000600082015250565b6000614e056019836132b8565b9150614e1082614dcf565b602082019050919050565b60006020820190508181036000830152614e3481614df8565b9050919050565b7f4552433732313a207472616e7366657220746f206e6f6e20455243373231526560008201527f63656976657220696d706c656d656e7465720000000000000000000000000000602082015250565b6000614e976032836132b8565b9150614ea282614e3b565b604082019050919050565b60006020820190508181036000830152614ec681614e8a565b9050919050565b60008190508160005260206000209050919050565b601f821115614f2357614ef481614ecd565b614efd846144f9565b81016020851015614f0c578190505b614f20614f18856144f9565b8301826145d6565b50505b505050565b614f3182613a1f565b67ffffffffffffffff811115614f4a57614f4961348f565b5b614f548254613d11565b614f5f828285614ee2565b600060209050601f831160018114614f925760008415614f80578287015190505b614f8a858261466a565b865550614ff2565b601f198416614fa086614ecd565b60005b82811015614fc857848901518255600182019150602085019450602081019050614fa3565b86831015614fe55784890151614fe1601f89168261464c565b8355505b6001600288020188555050505b505050505050565b600060808201905061500f60008301876133f4565b61501c60208301866133f4565b61502960408301856137f3565b818103606083015261503b8184613a3b565b905095945050505050565b6000815190506150558161321e565b92915050565b600060208284031215615071576150706131e8565b5b600061507f84828501615046565b91505092915050565b7f4552433732313a206d696e7420746f20746865207a65726f2061646472657373600082015250565b60006150be6020836132b8565b91506150c982615088565b602082019050919050565b600060208201905081810360008301526150ed816150b1565b9050919050565b7f4552433732313a20746f6b656e20616c7265616479206d696e74656400000000600082015250565b600061512a601c836132b8565b9150615135826150f4565b602082019050919050565b600060208201905081810360008301526151598161511d565b905091905056fea264697066735822122065099f8c6fc62a87d9c8baa56068b5b44d16efd20e9442bf503263f4c220bd2964736f6c63430008110033",
  "immutableReferences": {},
  "source": "// SPDX-License-Identifier: MIT\n\n// MAINNET CONTRACT ADDRESSES\n\n// GL :: 0xecE922B118eEd554Fb9d3318a81FecB8C8D1bD95\n// ICE :: 0x890b24d94075B743a89171E5b8A2d9B9049eBf36\n// FROOT :: 0xb2330f3836799B36F0be49Df1043C62d30253479\n\n// TESTNET CONTRACT ADDRESSES\n\n// GREENLIST :: 0x0f6ee895f93a0525747DdD7c5c177fF65DBD7454\n// ICE :: 0xec09faf4b1c6F198cFF1535800d55123C8C848bE :: ERC20\n// FROOTYCOOLTINGS :: 0x069BF09A8EDb8C1b3AC7f62bA57C601DBaCc6747 :: ERC721\n\npragma solidity ^0.8.10;\n\nimport \"@openzeppelin/contracts/token/ERC20/ERC20.sol\";\nimport \"@openzeppelin/contracts/token/ERC721/ERC721.sol\";\n\ncontract Greenlist {\n    address public admin;\n\n    uint256 public l;\n    uint256 public max;\n    string public message;\n    uint256 public stamp;\n    FrootyCoolTingz public FCT;\n    mapping(address => bool) public isListed;\n    address[1234] public users;\n    modifier notListed(address _adr) {\n        require(isListed[_adr] == false, \"already listed\");\n        _;\n    }\n\n    constructor(uint256 _t) {\n        admin = msg.sender;\n        if (_t == 1) {\n            isListed[msg.sender] = true; // OFF ON TESTNET\n            users[0] = msg.sender;\n            l = 1; // Mainnet\n            max = 1234; // Mainnet\n        }\n        if (_t == 0) {\n            l = 0; // Testnet\n            max = 1; // Testnet\n        }\n        message = \"BE FRESH MY FROOTY FRENZ !\";\n    }\n\n    function setFCT(address _fct) external returns (bool) {\n        FCT = FrootyCoolTingz(_fct);\n        return true;\n    }\n\n    function autoStart() internal returns (bool) {\n        return FCT.changeMS();\n    }\n\n    function getListed() external notListed(msg.sender) returns (bool) {\n        require(l < max, \"no more greenlist tickets left\");\n        isListed[msg.sender] = true;\n        users[l] = (msg.sender);\n        l++;\n        if (l == max) autoStart();\n        return isListed[msg.sender];\n    }\n\n    function makeListing(address _adr) external notListed(_adr) returns (bool) {\n        require(admin == msg.sender, \"you are not admin\");\n        isListed[_adr] = true;\n        users[l] = (_adr);\n        l++;\n        if (l == max) autoStart();\n        return isListed[_adr];\n    }\n\n    function showUsers() external view returns (address[1234] memory) {\n        return users;\n    }\n\n    function setMsg(string memory _msg) external payable returns (bool) {\n        require(msg.value <= 1 * 10**18, \"insufficient balance sent\");\n        require(block.timestamp >= stamp + 60 * 60, \"you need to wait\");\n        message = _msg;\n        stamp = block.timestamp;\n        return true;\n    }\n\n    function setMsgAdmin(string memory _msg) external returns (bool) {\n        require(admin == msg.sender, \"you are not admin\");\n        message = _msg;\n        stamp = block.timestamp;\n        return true;\n    }\n\n    function showMsg() external view returns (string memory) {\n        return message;\n    }\n\n    function withdraw() external returns (uint256) {\n        require(admin == msg.sender, \"you are not admin\");\n        payable(admin).transfer(address(this).balance);\n        return address(this).balance;\n    }\n}\n\ncontract ICE is ERC20 {\n    uint256 public constant digits = 10**18;\n    uint256 public price; // Testnet :: 10000 // Mainnet :: 10\n\n    address admin;\n\n    modifier onlyA() {\n        require(msg.sender == admin);\n        _;\n    }\n\n    constructor(uint256 _t) ERC20(\"Incredibly Cool Essence\", \"ICE\") {\n        admin = msg.sender;\n        if (_t == 0) {\n            price = (1 * digits) / 10000;\n        } else {\n            // ETH\n            if (_t == 1) {\n                price = (3 * digits) / 10000; // 0.0003ETH\n            }\n            // MATIC\n            if (_t == 2) {\n                price = (6 * digits) / 10; // 0.6MTC\n            }\n            // FIL\n            if (_t == 3) {\n                price = (3 * digits) / 100; // 0.03FIL\n            }\n            // AVAX\n            if (_t == 4) {\n                price = (3 * digits) / 100; // 0.03AVX\n            }\n            // CELO\n            if (_t == 5) {\n                price = (6 * digits) / 10; // 0.6CLO\n            }\n        }\n        _domint(1000 * 10**22, admin);\n    }\n\n    function _domint(uint256 _amnt, address _adr) internal returns (uint256) {\n        _mint(_adr, _amnt);\n        return _amnt;\n    }\n\n    function burn(uint256 _amnt, address _adr) external returns (uint256) {\n        _burn(_adr, _amnt);\n        return _amnt;\n    }\n\n    function swap(uint256 _amnt, address _adr)\n        external\n        payable\n        returns (uint256)\n    {\n        require(_amnt >= 10, \"MINIMUM 10 ICE\");\n        require(msg.value >= price * _amnt, \"INSUFFICIENT FUNDS PROVIDED\");\n        if (_amnt > 99) {\n            _amnt = _amnt + 5;\n        }\n        if (_amnt > 999) {\n            _amnt = _amnt + 60;\n        }\n        if (_amnt > 9999) {\n            _amnt = _amnt + 700;\n        }\n        if (_amnt > 99999) {\n            _amnt = _amnt + 8000;\n        }\n        if (_amnt > 999999) {\n            _amnt = _amnt + 90000;\n        }\n        if (_amnt > 999999) {\n            _amnt = _amnt + (_amnt / 10);\n        }\n        return _domint(_amnt, _adr);\n    }\n\n    function earn(address _adr, uint256 _amount) external returns (bool) {\n        _domint(_amount * 10**18, _adr);\n        return true;\n    }\n}\n\ncontract FrootyCoolTingz is ERC721 {\n    // Public Constants\n    uint256 public price; // PRICE VAL Testnet\n    uint256 public constant digits = 1 * 10**18; // PRICE VAL Mainnet\n    uint256 public constant num = 1; // MAX MINTS / WALLET\n\n    uint256 public max; // MAX TOTAL MINTS\n    uint256 public sloz; // MAX FREE MINTS\n    // */\n    // Public Variables\n    address public owner; // CONTRACT OWNER\n    address iceAdr;\n    uint256 public minted; // TOKENS MINTED 1-5000\n    string public nam; // TOKEN NAME\n    string public sym; // TOKEN SYMBOL\n    uint256 public slots; // SLOZ USED 1-1234\n    bool public start; // ALLOWS MINT TO START\n    // Public Mappings\n    mapping(uint256 => bytes) public dias; // TOKEN ID SHOWS DIAS BYTES OBJECT\n    mapping(uint256 => uint256) public tid; // TOKEN ID SHOWS DIAS ID\n    mapping(uint256 => string) public status; // TOKEN ID SHOWS USER STATUS\n    mapping(uint256 => uint256) public icebox; // TOKEN ID SHOWS FROOT ICE BALANCE\n    mapping(uint256 => uint256) public meltbox; // melted ICE of token id\n    mapping(uint256 => address) public ownedBy;\n    mapping(address => uint256) public minter; // Token ID by Address\n    ICE public ice;\n    Greenlist public GLC;\n\n    modifier onlyO() {\n        // ONLY OWNER CAN USE MOD FUNX\n        require(msg.sender == owner);\n        _;\n    }\n\n    constructor(\n        address _ICE,\n        address _Greenlist,\n        uint256 _t\n    ) ERC721(\"Cool Froots\", \"FROOT\") {\n        // INIT CONTRACT SET PUB VARS\n        minted = 1;\n        slots = 0;\n        owner = msg.sender;\n        nam = \"Cool Froots\";\n        sym = \"FROOT\";\n        ice = ICE(_ICE);\n        GLC = Greenlist(_Greenlist);\n        if (_t == 0) {\n            max = 5;\n            sloz = 1;\n            price = 5 * 10**16;\n        }\n        if (_t > 0) {\n            max = 5555;\n            sloz = 1234;\n            // ETH\n            if (_t == 1) {\n                price = (6 * digits) / 100; // 0.03ETH\n            }\n            // MATIC\n            if (_t == 2) {\n                price = (60 * digits); // 60MTC\n            }\n            // FIL\n            if (_t == 3) {\n                price = (3 * digits); // 3FIL\n            }\n            // AVAX\n            if (_t == 4) {\n                price = (3 * digits); // 3AVX\n            }\n            // CELO\n            if (_t == 5) {\n                price = (60 * digits); // 60CLO\n            }\n        }\n    }\n\n    function isOwner(address _adr) external view returns (bool) {\n        // SHOWS BOOL OF OWNERSTATUS OF ADDRESS\n        if (_adr == owner) return true;\n        else return false;\n    }\n\n    function mint(\n        uint256 _amnt,\n        uint256[] memory _diasIDs,\n        string[] memory _diasOBJs\n    ) external payable returns (uint256) {\n        // INITIATES THE MINT OF UP TO 7 TOKENS IF ALLOWED\n        require(minted <= max + 1, \"SOLD OUT\");\n        require(msg.value >= _amnt * price, \"INSUFFICIET FUNDS\");\n        require(start == true, \"MINT IS NOT YET LIVE\");\n        ownedBy[minted] = msg.sender;\n        _doMint(_amnt, msg.sender, _diasIDs, _diasOBJs);\n        uint256 o = block.timestamp % 9;\n        ice.earn(msg.sender, o);\n        return minted;\n    }\n\n    function greenMint(uint256[] memory _diasIDs, string[] memory _diasOBJs)\n        external\n        returns (uint256)\n    {\n        // INITIATES THE MINT OF UP TO 7 TOKENS IF ALLOWED\n        require(minted <= max, \"SOLD OUT\");\n        require(start == true, \"MINT IS NOT YET LIVE\");\n        bool boo = GLC.isListed(msg.sender);\n        require(boo == true, \"YOU ARE NOT GREENLISTED\");\n        require(slots <= sloz, \"ALL SLOTS HAVE BEEN MINTED\");\n        ownedBy[minted] = msg.sender;\n        _doMint(1, msg.sender, _diasIDs, _diasOBJs);\n        uint256 o = block.timestamp % 9;\n        ice.earn(msg.sender, o);\n        slots++;\n        return minted;\n    }\n\n    function setStatus(uint256 _id, string memory _status)\n        external\n        payable\n        returns (bool)\n    {\n        require(ownedBy[_id] == msg.sender, \"YOU ARE NOT THE HOLDER\");\n        require(start == false, \"MINT IS STILL IN PROGRESS\");\n        require(msg.value >= 1 * 10**18);\n        uint256 o = block.timestamp % 9;\n        ice.earn(msg.sender, o / 2);\n        status[_id] = _status;\n        return true;\n    }\n\n    function addIce(uint256 _amount, uint256 _id)\n        external\n        returns (string memory)\n    {\n        require(ice.balanceOf(msg.sender) >= _amount * 10**18);\n        ice.burn(_amount * 10**18, msg.sender);\n        icebox[_id] += _amount;\n        if (meltbox[_id] == 0)\n            meltbox[_id] = block.timestamp + _amount * 60 * 60 * 24;\n        else meltbox[_id] += _amount * 60 * 60 * 24;\n        return \"ICE HAS BEEN ADDED TO FROOT !\";\n    }\n\n    function meltState() external view returns (int256 state) {\n        int256 meltleft = int256(meltbox[minter[msg.sender]]) -\n            int256(block.timestamp);\n        return state = (meltleft / 3600) * 24;\n    }\n\n    function changeMintState() external onlyO returns (bool) {\n        return cMS();\n    }\n\n    // ONLY TESTNET\n    /* */\n    function changeMS() external returns (bool) {\n        return cMS();\n    }\n\n    // */\n    function cMS() internal returns (bool) {\n        return start = !start;\n    }\n\n    function mintOne(\n        address _adr,\n        uint256 _diasID,\n        string memory _diasOBJ\n    ) internal returns (uint256) {\n        // INTERNAL // MINTS ONE TOKEN\n        _mint(_adr, minted);\n        tid[minted] = _diasID;\n        dias[minted] = bytes(_diasOBJ);\n        minter[_adr] = minted;\n        minted++;\n        if (minted >= max + 1) cMS();\n        return minted;\n    }\n\n    function _doMint(\n        uint256 _amnt,\n        address _adr,\n        uint256[] memory _diasIDs,\n        string[] memory _diasOBJs\n    ) internal returns (uint256) {\n        require(\n            balanceOf(_adr) + _amnt <= num,\n            \"EXCEEDED MAX MINTABLE TOKENS PER WALLET\"\n        );\n        require(minted + _amnt <= max + 1, \"NOT ENOUGH SUPPLY\");\n        // INTERNAL // MINTS UP TO 7 TOKENS IN ONE TX\n        mintOne(_adr, _diasIDs[0], _diasOBJs[0]);\n        return minted;\n    }\n\n    function holder(uint256 _id) external view returns (address) {\n        // SHOWS OWNER OF TOKEN BY TID\n        return ownerOf(_id);\n    }\n\n    function clearSloz() external returns (bool) {\n        slots = 1234;\n        return true;\n    }\n\n    function flush() external returns (uint256) {\n        // WITHDRAW ALL ETHER FROM CONTRACT\n        payable(owner).transfer(address(this).balance);\n        return address(this).balance;\n    }\n\n    function flushERC20(address _erc) external returns (uint256) {\n        // WITHDRAW ALL COIN FROM CONTRACT\n        ERC20 coin = ERC20(_erc);\n        coin.transferFrom(address(this), owner, coin.balanceOf(address(this)));\n        return coin.balanceOf(address(this));\n    }\n\n    function flushERC721(address _erc, uint256 _id) external returns (uint256) {\n        // WITHDRAW ALL NFT FROM CONTRACT\n        ERC721 coin = ERC721(_erc);\n        coin.transferFrom(address(this), owner, _id);\n        return _id;\n    }\n}\n",
  "sourcePath": "/Users/iii6/Documents/GitHub/niftish/contracts/FrootyCoolTingz.sol",
  "compiler": {
    "name": "solc",
    "version": "0.8.17+commit.8df45f5f.Emscripten.clang"
  },
  "schemaVersion": "3.4.8",
  "updatedAt": "2023-03-19T14:06:41.457Z",
  "networkType": "ethereum",
  "devdoc": {
    "kind": "dev",
    "methods": {
      "approve(address,uint256)": {
        "details": "See {IERC721-approve}."
      },
      "balanceOf(address)": {
        "details": "See {IERC721-balanceOf}."
      },
      "getApproved(uint256)": {
        "details": "See {IERC721-getApproved}."
      },
      "isApprovedForAll(address,address)": {
        "details": "See {IERC721-isApprovedForAll}."
      },
      "name()": {
        "details": "See {IERC721Metadata-name}."
      },
      "ownerOf(uint256)": {
        "details": "See {IERC721-ownerOf}."
      },
      "safeTransferFrom(address,address,uint256)": {
        "details": "See {IERC721-safeTransferFrom}."
      },
      "safeTransferFrom(address,address,uint256,bytes)": {
        "details": "See {IERC721-safeTransferFrom}."
      },
      "setApprovalForAll(address,bool)": {
        "details": "See {IERC721-setApprovalForAll}."
      },
      "supportsInterface(bytes4)": {
        "details": "See {IERC165-supportsInterface}."
      },
      "symbol()": {
        "details": "See {IERC721Metadata-symbol}."
      },
      "tokenURI(uint256)": {
        "details": "See {IERC721Metadata-tokenURI}."
      },
      "transferFrom(address,address,uint256)": {
        "details": "See {IERC721-transferFrom}."
      }
    },
    "version": 1
  },
  "userdoc": {
    "kind": "user",
    "methods": {},
    "version": 1
  }
}