{
  "contractName": "FrootyCoolTingz",
  "abi": [
    {
      "inputs": [
        {
          "internalType": "address",
          "name": "_ICE",
          "type": "address"
        },
        {
          "internalType": "address",
          "name": "_Greenlist",
          "type": "address"
        }
      ],
      "stateMutability": "nonpayable",
      "type": "constructor"
    },
    {
      "anonymous": false,
      "inputs": [
        {
          "indexed": true,
          "internalType": "address",
          "name": "owner",
          "type": "address"
        },
        {
          "indexed": true,
          "internalType": "address",
          "name": "approved",
          "type": "address"
        },
        {
          "indexed": true,
          "internalType": "uint256",
          "name": "tokenId",
          "type": "uint256"
        }
      ],
      "name": "Approval",
      "type": "event"
    },
    {
      "anonymous": false,
      "inputs": [
        {
          "indexed": true,
          "internalType": "address",
          "name": "owner",
          "type": "address"
        },
        {
          "indexed": true,
          "internalType": "address",
          "name": "operator",
          "type": "address"
        },
        {
          "indexed": false,
          "internalType": "bool",
          "name": "approved",
          "type": "bool"
        }
      ],
      "name": "ApprovalForAll",
      "type": "event"
    },
    {
      "anonymous": false,
      "inputs": [
        {
          "indexed": true,
          "internalType": "address",
          "name": "from",
          "type": "address"
        },
        {
          "indexed": true,
          "internalType": "address",
          "name": "to",
          "type": "address"
        },
        {
          "indexed": true,
          "internalType": "uint256",
          "name": "tokenId",
          "type": "uint256"
        }
      ],
      "name": "Transfer",
      "type": "event"
    },
    {
      "inputs": [],
      "name": "GLC",
      "outputs": [
        {
          "internalType": "contract Greenlist",
          "name": "",
          "type": "address"
        }
      ],
      "stateMutability": "view",
      "type": "function",
      "constant": true
    },
    {
      "inputs": [
        {
          "internalType": "address",
          "name": "to",
          "type": "address"
        },
        {
          "internalType": "uint256",
          "name": "tokenId",
          "type": "uint256"
        }
      ],
      "name": "approve",
      "outputs": [],
      "stateMutability": "nonpayable",
      "type": "function"
    },
    {
      "inputs": [
        {
          "internalType": "address",
          "name": "owner",
          "type": "address"
        }
      ],
      "name": "balanceOf",
      "outputs": [
        {
          "internalType": "uint256",
          "name": "",
          "type": "uint256"
        }
      ],
      "stateMutability": "view",
      "type": "function",
      "constant": true
    },
    {
      "inputs": [
        {
          "internalType": "uint256",
          "name": "",
          "type": "uint256"
        }
      ],
      "name": "dias",
      "outputs": [
        {
          "internalType": "bytes",
          "name": "",
          "type": "bytes"
        }
      ],
      "stateMutability": "view",
      "type": "function",
      "constant": true
    },
    {
      "inputs": [
        {
          "internalType": "uint256",
          "name": "tokenId",
          "type": "uint256"
        }
      ],
      "name": "getApproved",
      "outputs": [
        {
          "internalType": "address",
          "name": "",
          "type": "address"
        }
      ],
      "stateMutability": "view",
      "type": "function",
      "constant": true
    },
    {
      "inputs": [],
      "name": "ice",
      "outputs": [
        {
          "internalType": "contract ICE",
          "name": "",
          "type": "address"
        }
      ],
      "stateMutability": "view",
      "type": "function",
      "constant": true
    },
    {
      "inputs": [
        {
          "internalType": "address",
          "name": "owner",
          "type": "address"
        },
        {
          "internalType": "address",
          "name": "operator",
          "type": "address"
        }
      ],
      "name": "isApprovedForAll",
      "outputs": [
        {
          "internalType": "bool",
          "name": "",
          "type": "bool"
        }
      ],
      "stateMutability": "view",
      "type": "function",
      "constant": true
    },
    {
      "inputs": [],
      "name": "max",
      "outputs": [
        {
          "internalType": "uint256",
          "name": "",
          "type": "uint256"
        }
      ],
      "stateMutability": "view",
      "type": "function",
      "constant": true
    },
    {
      "inputs": [],
      "name": "minted",
      "outputs": [
        {
          "internalType": "uint256",
          "name": "",
          "type": "uint256"
        }
      ],
      "stateMutability": "view",
      "type": "function",
      "constant": true
    },
    {
      "inputs": [],
      "name": "nam",
      "outputs": [
        {
          "internalType": "string",
          "name": "",
          "type": "string"
        }
      ],
      "stateMutability": "view",
      "type": "function",
      "constant": true
    },
    {
      "inputs": [],
      "name": "name",
      "outputs": [
        {
          "internalType": "string",
          "name": "",
          "type": "string"
        }
      ],
      "stateMutability": "view",
      "type": "function",
      "constant": true
    },
    {
      "inputs": [],
      "name": "num",
      "outputs": [
        {
          "internalType": "uint256",
          "name": "",
          "type": "uint256"
        }
      ],
      "stateMutability": "view",
      "type": "function",
      "constant": true
    },
    {
      "inputs": [
        {
          "internalType": "uint256",
          "name": "",
          "type": "uint256"
        }
      ],
      "name": "ownedBy",
      "outputs": [
        {
          "internalType": "address",
          "name": "",
          "type": "address"
        }
      ],
      "stateMutability": "view",
      "type": "function",
      "constant": true
    },
    {
      "inputs": [],
      "name": "owner",
      "outputs": [
        {
          "internalType": "address",
          "name": "",
          "type": "address"
        }
      ],
      "stateMutability": "view",
      "type": "function",
      "constant": true
    },
    {
      "inputs": [
        {
          "internalType": "uint256",
          "name": "tokenId",
          "type": "uint256"
        }
      ],
      "name": "ownerOf",
      "outputs": [
        {
          "internalType": "address",
          "name": "",
          "type": "address"
        }
      ],
      "stateMutability": "view",
      "type": "function",
      "constant": true
    },
    {
      "inputs": [],
      "name": "price",
      "outputs": [
        {
          "internalType": "uint256",
          "name": "",
          "type": "uint256"
        }
      ],
      "stateMutability": "view",
      "type": "function",
      "constant": true
    },
    {
      "inputs": [
        {
          "internalType": "address",
          "name": "from",
          "type": "address"
        },
        {
          "internalType": "address",
          "name": "to",
          "type": "address"
        },
        {
          "internalType": "uint256",
          "name": "tokenId",
          "type": "uint256"
        }
      ],
      "name": "safeTransferFrom",
      "outputs": [],
      "stateMutability": "nonpayable",
      "type": "function"
    },
    {
      "inputs": [
        {
          "internalType": "address",
          "name": "from",
          "type": "address"
        },
        {
          "internalType": "address",
          "name": "to",
          "type": "address"
        },
        {
          "internalType": "uint256",
          "name": "tokenId",
          "type": "uint256"
        },
        {
          "internalType": "bytes",
          "name": "_data",
          "type": "bytes"
        }
      ],
      "name": "safeTransferFrom",
      "outputs": [],
      "stateMutability": "nonpayable",
      "type": "function"
    },
    {
      "inputs": [
        {
          "internalType": "address",
          "name": "operator",
          "type": "address"
        },
        {
          "internalType": "bool",
          "name": "approved",
          "type": "bool"
        }
      ],
      "name": "setApprovalForAll",
      "outputs": [],
      "stateMutability": "nonpayable",
      "type": "function"
    },
    {
      "inputs": [],
      "name": "slots",
      "outputs": [
        {
          "internalType": "uint256",
          "name": "",
          "type": "uint256"
        }
      ],
      "stateMutability": "view",
      "type": "function",
      "constant": true
    },
    {
      "inputs": [],
      "name": "sloz",
      "outputs": [
        {
          "internalType": "uint256",
          "name": "",
          "type": "uint256"
        }
      ],
      "stateMutability": "view",
      "type": "function",
      "constant": true
    },
    {
      "inputs": [],
      "name": "start",
      "outputs": [
        {
          "internalType": "bool",
          "name": "",
          "type": "bool"
        }
      ],
      "stateMutability": "view",
      "type": "function",
      "constant": true
    },
    {
      "inputs": [
        {
          "internalType": "uint256",
          "name": "",
          "type": "uint256"
        }
      ],
      "name": "status",
      "outputs": [
        {
          "internalType": "string",
          "name": "",
          "type": "string"
        }
      ],
      "stateMutability": "view",
      "type": "function",
      "constant": true
    },
    {
      "inputs": [
        {
          "internalType": "bytes4",
          "name": "interfaceId",
          "type": "bytes4"
        }
      ],
      "name": "supportsInterface",
      "outputs": [
        {
          "internalType": "bool",
          "name": "",
          "type": "bool"
        }
      ],
      "stateMutability": "view",
      "type": "function",
      "constant": true
    },
    {
      "inputs": [],
      "name": "sym",
      "outputs": [
        {
          "internalType": "string",
          "name": "",
          "type": "string"
        }
      ],
      "stateMutability": "view",
      "type": "function",
      "constant": true
    },
    {
      "inputs": [],
      "name": "symbol",
      "outputs": [
        {
          "internalType": "string",
          "name": "",
          "type": "string"
        }
      ],
      "stateMutability": "view",
      "type": "function",
      "constant": true
    },
    {
      "inputs": [
        {
          "internalType": "uint256",
          "name": "",
          "type": "uint256"
        }
      ],
      "name": "tid",
      "outputs": [
        {
          "internalType": "uint256",
          "name": "",
          "type": "uint256"
        }
      ],
      "stateMutability": "view",
      "type": "function",
      "constant": true
    },
    {
      "inputs": [
        {
          "internalType": "uint256",
          "name": "tokenId",
          "type": "uint256"
        }
      ],
      "name": "tokenURI",
      "outputs": [
        {
          "internalType": "string",
          "name": "",
          "type": "string"
        }
      ],
      "stateMutability": "view",
      "type": "function",
      "constant": true
    },
    {
      "inputs": [
        {
          "internalType": "address",
          "name": "from",
          "type": "address"
        },
        {
          "internalType": "address",
          "name": "to",
          "type": "address"
        },
        {
          "internalType": "uint256",
          "name": "tokenId",
          "type": "uint256"
        }
      ],
      "name": "transferFrom",
      "outputs": [],
      "stateMutability": "nonpayable",
      "type": "function"
    },
    {
      "inputs": [
        {
          "internalType": "address",
          "name": "_adr",
          "type": "address"
        }
      ],
      "name": "isOwner",
      "outputs": [
        {
          "internalType": "bool",
          "name": "",
          "type": "bool"
        }
      ],
      "stateMutability": "view",
      "type": "function",
      "constant": true
    },
    {
      "inputs": [
        {
          "internalType": "uint256",
          "name": "_amnt",
          "type": "uint256"
        },
        {
          "internalType": "uint256[]",
          "name": "_diasIDs",
          "type": "uint256[]"
        },
        {
          "internalType": "string[]",
          "name": "_diasOBJs",
          "type": "string[]"
        }
      ],
      "name": "mint",
      "outputs": [
        {
          "internalType": "uint256",
          "name": "",
          "type": "uint256"
        }
      ],
      "stateMutability": "payable",
      "type": "function",
      "payable": true
    },
    {
      "inputs": [
        {
          "internalType": "uint256[]",
          "name": "_diasIDs",
          "type": "uint256[]"
        },
        {
          "internalType": "string[]",
          "name": "_diasOBJs",
          "type": "string[]"
        }
      ],
      "name": "greenMint",
      "outputs": [
        {
          "internalType": "uint256",
          "name": "",
          "type": "uint256"
        }
      ],
      "stateMutability": "nonpayable",
      "type": "function"
    },
    {
      "inputs": [
        {
          "internalType": "uint256",
          "name": "_id",
          "type": "uint256"
        },
        {
          "internalType": "string",
          "name": "_status",
          "type": "string"
        }
      ],
      "name": "setStatus",
      "outputs": [
        {
          "internalType": "bool",
          "name": "",
          "type": "bool"
        }
      ],
      "stateMutability": "payable",
      "type": "function",
      "payable": true
    },
    {
      "inputs": [],
      "name": "changeMintState",
      "outputs": [
        {
          "internalType": "bool",
          "name": "",
          "type": "bool"
        }
      ],
      "stateMutability": "nonpayable",
      "type": "function"
    },
    {
      "inputs": [],
      "name": "changeMS",
      "outputs": [
        {
          "internalType": "bool",
          "name": "",
          "type": "bool"
        }
      ],
      "stateMutability": "nonpayable",
      "type": "function"
    },
    {
      "inputs": [
        {
          "internalType": "uint256",
          "name": "_id",
          "type": "uint256"
        }
      ],
      "name": "holder",
      "outputs": [
        {
          "internalType": "address",
          "name": "",
          "type": "address"
        }
      ],
      "stateMutability": "view",
      "type": "function",
      "constant": true
    },
    {
      "inputs": [],
      "name": "clearSloz",
      "outputs": [
        {
          "internalType": "bool",
          "name": "",
          "type": "bool"
        }
      ],
      "stateMutability": "nonpayable",
      "type": "function"
    },
    {
      "inputs": [],
      "name": "flush",
      "outputs": [
        {
          "internalType": "uint256",
          "name": "",
          "type": "uint256"
        }
      ],
      "stateMutability": "nonpayable",
      "type": "function"
    },
    {
      "inputs": [
        {
          "internalType": "address",
          "name": "_erc",
          "type": "address"
        }
      ],
      "name": "flushERC20",
      "outputs": [
        {
          "internalType": "uint256",
          "name": "",
          "type": "uint256"
        }
      ],
      "stateMutability": "nonpayable",
      "type": "function"
    },
    {
      "inputs": [
        {
          "internalType": "address",
          "name": "_erc",
          "type": "address"
        },
        {
          "internalType": "uint256",
          "name": "_id",
          "type": "uint256"
        }
      ],
      "name": "flushERC721",
      "outputs": [
        {
          "internalType": "uint256",
          "name": "",
          "type": "uint256"
        }
      ],
      "stateMutability": "nonpayable",
      "type": "function"
    }
  ],
  "bytecode": "0x60806040523480156200001157600080fd5b50604051620053dc380380620053dc83398181016040528101906200003791906200029c565b6040518060400160405280601181526020017f46726f6f747920436f6f6c2054696e677a0000000000000000000000000000008152506040518060400160405280600581526020017f46524f4f540000000000000000000000000000000000000000000000000000008152508160009081620000b491906200055d565b508060019081620000c691906200055d565b50505060016008819055506001600b8190555033600660006101000a81548173ffffffffffffffffffffffffffffffffffffffff021916908373ffffffffffffffffffffffffffffffffffffffff1602179055506040518060400160405280601181526020017f46726f6f747920436f6f6c2054696e677a000000000000000000000000000000815250600990816200016091906200055d565b506040518060400160405280600581526020017f46524f4f54000000000000000000000000000000000000000000000000000000815250600a9081620001a791906200055d565b5081601260006101000a81548173ffffffffffffffffffffffffffffffffffffffff021916908373ffffffffffffffffffffffffffffffffffffffff16021790555080601360006101000a81548173ffffffffffffffffffffffffffffffffffffffff021916908373ffffffffffffffffffffffffffffffffffffffff160217905550505062000644565b600080fd5b600073ffffffffffffffffffffffffffffffffffffffff82169050919050565b6000620002648262000237565b9050919050565b620002768162000257565b81146200028257600080fd5b50565b60008151905062000296816200026b565b92915050565b60008060408385031215620002b657620002b562000232565b5b6000620002c68582860162000285565b9250506020620002d98582860162000285565b9150509250929050565b600081519050919050565b7f4e487b7100000000000000000000000000000000000000000000000000000000600052604160045260246000fd5b7f4e487b7100000000000000000000000000000000000000000000000000000000600052602260045260246000fd5b600060028204905060018216806200036557607f821691505b6020821081036200037b576200037a6200031d565b5b50919050565b60008190508160005260206000209050919050565b60006020601f8301049050919050565b600082821b905092915050565b600060088302620003e57fffffffffffffffffffffffffffffffffffffffffffffffffffffffffffffffff82620003a6565b620003f18683620003a6565b95508019841693508086168417925050509392505050565b6000819050919050565b6000819050919050565b60006200043e62000438620004328462000409565b62000413565b62000409565b9050919050565b6000819050919050565b6200045a836200041d565b62000472620004698262000445565b848454620003b3565b825550505050565b600090565b620004896200047a565b620004968184846200044f565b505050565b5b81811015620004be57620004b26000826200047f565b6001810190506200049c565b5050565b601f8211156200050d57620004d78162000381565b620004e28462000396565b81016020851015620004f2578190505b6200050a620005018562000396565b8301826200049b565b50505b505050565b600082821c905092915050565b6000620005326000198460080262000512565b1980831691505092915050565b60006200054d83836200051f565b9150826002028217905092915050565b6200056882620002e3565b67ffffffffffffffff811115620005845762000583620002ee565b5b6200059082546200034c565b6200059d828285620004c2565b600060209050601f831160018114620005d55760008415620005c0578287015190505b620005cc85826200053f565b8655506200063c565b601f198416620005e58662000381565b60005b828110156200060f57848901518255600182019150602085019450602081019050620005e8565b868310156200062f57848901516200062b601f8916826200051f565b8355505b6001600288020188555050505b505050505050565b614d8880620006546000396000f3fe60806040526004361061023b5760003560e01c806370a082311161012e578063a613e0e7116100ab578063ba899a2e1161006f578063ba899a2e146108f9578063be9a655514610936578063c87b56dd14610961578063e985e9c51461099e578063ea25b61d146109db5761023b565b8063a613e0e714610800578063a9700e1f1461083d578063ae943abc14610868578063b524fd6f146108a5578063b88d4fde146108d05761023b565b806395d89b41116100f257806395d89b41146107195780639af9bec0146107445780639b4f589f1461076f578063a035b1fe146107ac578063a22cb465146107d75761023b565b806370a082311461061957806376917df9146106565780637d23b33c1461068657806383813a28146106c35780638da5cb5b146106ee5761023b565b806342d21ef7116101bc5780634f02c420116101805780634f02c420146105305780636352211e1461055b5780636ac5db19146105985780636b9f96ea146105c35780636f743acd146105ee5761023b565b806342d21ef714610435578063477523c21461047257806348547d69146104af5780634c2a860d146104da5780634e70b1dc146105055761023b565b8063216d534c11610203578063216d534c1461033e57806323b872dd1461037b5780632f54bf6e146103a45780633b8d676f146103e157806342842e0e1461040c5761023b565b806301ffc9a71461024057806306fdde031461027d578063081812fc146102a8578063095ea7b3146102e557806320a7270d1461030e575b600080fd5b34801561024c57600080fd5b5061026760048036038101906102629190613035565b610a06565b604051610274919061307d565b60405180910390f35b34801561028957600080fd5b50610292610ae8565b60405161029f9190613128565b60405180910390f35b3480156102b457600080fd5b506102cf60048036038101906102ca9190613180565b610b7a565b6040516102dc91906131ee565b60405180910390f35b3480156102f157600080fd5b5061030c60048036038101906103079190613235565b610bff565b005b61032860048036038101906103239190613553565b610d16565b60405161033591906135ed565b60405180910390f35b34801561034a57600080fd5b5061036560048036038101906103609190613235565b610f09565b60405161037291906135ed565b60405180910390f35b34801561038757600080fd5b506103a2600480360381019061039d9190613608565b610faa565b005b3480156103b057600080fd5b506103cb60048036038101906103c6919061365b565b61100a565b6040516103d8919061307d565b60405180910390f35b3480156103ed57600080fd5b506103f6611074565b604051610403919061307d565b60405180910390f35b34801561041857600080fd5b50610433600480360381019061042e9190613608565b6110a4565b005b34801561044157600080fd5b5061045c60048036038101906104579190613180565b6110c4565b6040516104699190613128565b60405180910390f35b34801561047e57600080fd5b506104996004803603810190610494919061365b565b611164565b6040516104a691906135ed565b60405180910390f35b3480156104bb57600080fd5b506104c4611308565b6040516104d191906135ed565b60405180910390f35b3480156104e657600080fd5b506104ef61130e565b6040516104fc91906136e7565b60405180910390f35b34801561051157600080fd5b5061051a611334565b60405161052791906135ed565b60405180910390f35b34801561053c57600080fd5b50610545611339565b60405161055291906135ed565b60405180910390f35b34801561056757600080fd5b50610582600480360381019061057d9190613180565b61133f565b60405161058f91906131ee565b60405180910390f35b3480156105a457600080fd5b506105ad6113f0565b6040516105ba91906135ed565b60405180910390f35b3480156105cf57600080fd5b506105d86113f5565b6040516105e591906135ed565b60405180910390f35b3480156105fa57600080fd5b50610603611466565b60405161061091906135ed565b60405180910390f35b34801561062557600080fd5b50610640600480360381019061063b919061365b565b61146b565b60405161064d91906135ed565b60405180910390f35b610670600480360381019061066b9190613702565b611522565b60405161067d919061307d565b60405180910390f35b34801561069257600080fd5b506106ad60048036038101906106a8919061375e565b6117c5565b6040516106ba91906135ed565b60405180910390f35b3480156106cf57600080fd5b506106d8611b2a565b6040516106e59190613128565b60405180910390f35b3480156106fa57600080fd5b50610703611bb8565b60405161071091906131ee565b60405180910390f35b34801561072557600080fd5b5061072e611bde565b60405161073b9190613128565b60405180910390f35b34801561075057600080fd5b50610759611c70565b6040516107669190613128565b60405180910390f35b34801561077b57600080fd5b5061079660048036038101906107919190613180565b611cfe565b6040516107a3919061382b565b60405180910390f35b3480156107b857600080fd5b506107c1611d9e565b6040516107ce91906135ed565b60405180910390f35b3480156107e357600080fd5b506107fe60048036038101906107f99190613879565b611da9565b005b34801561080c57600080fd5b5061082760048036038101906108229190613180565b611dbf565b60405161083491906131ee565b60405180910390f35b34801561084957600080fd5b50610852611df2565b60405161085f91906138da565b60405180910390f35b34801561087457600080fd5b5061088f600480360381019061088a9190613180565b611e18565b60405161089c91906135ed565b60405180910390f35b3480156108b157600080fd5b506108ba611e30565b6040516108c7919061307d565b60405180910390f35b3480156108dc57600080fd5b506108f760048036038101906108f29190613996565b611eba565b005b34801561090557600080fd5b50610920600480360381019061091b9190613180565b611f1c565b60405161092d91906131ee565b60405180910390f35b34801561094257600080fd5b5061094b611f2e565b604051610958919061307d565b60405180910390f35b34801561096d57600080fd5b5061098860048036038101906109839190613180565b611f41565b6040516109959190613128565b60405180910390f35b3480156109aa57600080fd5b506109c560048036038101906109c09190613a19565b611fe8565b6040516109d2919061307d565b60405180910390f35b3480156109e757600080fd5b506109f061207c565b6040516109fd919061307d565b60405180910390f35b60007f80ac58cd000000000000000000000000000000000000000000000000000000007bffffffffffffffffffffffffffffffffffffffffffffffffffffffff1916827bffffffffffffffffffffffffffffffffffffffffffffffffffffffff19161480610ad157507f5b5e139f000000000000000000000000000000000000000000000000000000007bffffffffffffffffffffffffffffffffffffffffffffffffffffffff1916827bffffffffffffffffffffffffffffffffffffffffffffffffffffffff1916145b80610ae15750610ae08261208e565b5b9050919050565b606060008054610af790613a88565b80601f0160208091040260200160405190810160405280929190818152602001828054610b2390613a88565b8015610b705780601f10610b4557610100808354040283529160200191610b70565b820191906000526020600020905b815481529060010190602001808311610b5357829003601f168201915b5050505050905090565b6000610b85826120f8565b610bc4576040517f08c379a0000000000000000000000000000000000000000000000000000000008152600401610bbb90613b2b565b60405180910390fd5b6004600083815260200190815260200160002060009054906101000a900473ffffffffffffffffffffffffffffffffffffffff169050919050565b6000610c0a8261133f565b90508073ffffffffffffffffffffffffffffffffffffffff168373ffffffffffffffffffffffffffffffffffffffff1603610c7a576040517f08c379a0000000000000000000000000000000000000000000000000000000008152600401610c7190613bbd565b60405180910390fd5b8073ffffffffffffffffffffffffffffffffffffffff16610c99612164565b73ffffffffffffffffffffffffffffffffffffffff161480610cc85750610cc781610cc2612164565b611fe8565b5b610d07576040517f08c379a0000000000000000000000000000000000000000000000000000000008152600401610cfe90613c4f565b60405180910390fd5b610d11838361216c565b505050565b6000600b546001610d279190613c9e565b6005610d339190613c9e565b60085410610d76576040517f08c379a0000000000000000000000000000000000000000000000000000000008152600401610d6d90613d1e565b60405180910390fd5b6601c6bf5263400084610d899190613d3e565b341015610dcb576040517f08c379a0000000000000000000000000000000000000000000000000000000008152600401610dc290613de4565b60405180910390fd5b60011515600c60009054906101000a900460ff16151514610e21576040517f08c379a0000000000000000000000000000000000000000000000000000000008152600401610e1890613e50565b60405180910390fd5b610e2d84338585612225565b506000600942610e3d9190613e9f565b905060005b818111610efb57601260009054906101000a900473ffffffffffffffffffffffffffffffffffffffff1673ffffffffffffffffffffffffffffffffffffffff1663fdb5fefc336040518263ffffffff1660e01b8152600401610ea491906131ee565b6020604051808303816000875af1158015610ec3573d6000803e3d6000fd5b505050506040513d601f19601f82011682018060405250810190610ee79190613ee5565b508080610ef390613f12565b915050610e42565b506008549150509392505050565b6000808390508073ffffffffffffffffffffffffffffffffffffffff166323b872dd30600660009054906101000a900473ffffffffffffffffffffffffffffffffffffffff16866040518463ffffffff1660e01b8152600401610f6e93929190613f5a565b600060405180830381600087803b158015610f8857600080fd5b505af1158015610f9c573d6000803e3d6000fd5b505050508291505092915050565b610fbb610fb5612164565b826124e0565b610ffa576040517f08c379a0000000000000000000000000000000000000000000000000000000008152600401610ff190614003565b60405180910390fd5b6110058383836125be565b505050565b6000600660009054906101000a900473ffffffffffffffffffffffffffffffffffffffff1673ffffffffffffffffffffffffffffffffffffffff168273ffffffffffffffffffffffffffffffffffffffff160361106a576001905061106f565b600090505b919050565b6000600c60009054906101000a900460ff1615600c60006101000a81548160ff0219169083151502179055905090565b6110bf83838360405180602001604052806000815250611eba565b505050565b600f60205280600052604060002060009150905080546110e390613a88565b80601f016020809104026020016040519081016040528092919081815260200182805461110f90613a88565b801561115c5780601f106111315761010080835404028352916020019161115c565b820191906000526020600020905b81548152906001019060200180831161113f57829003601f168201915b505050505081565b6000808290508073ffffffffffffffffffffffffffffffffffffffff166323b872dd30600660009054906101000a900473ffffffffffffffffffffffffffffffffffffffff168473ffffffffffffffffffffffffffffffffffffffff166370a08231306040518263ffffffff1660e01b81526004016111e391906131ee565b602060405180830381865afa158015611200573d6000803e3d6000fd5b505050506040513d601f19601f820116820180604052508101906112249190614038565b6040518463ffffffff1660e01b815260040161124293929190613f5a565b6020604051808303816000875af1158015611261573d6000803e3d6000fd5b505050506040513d601f19601f820116820180604052508101906112859190613ee5565b508073ffffffffffffffffffffffffffffffffffffffff166370a08231306040518263ffffffff1660e01b81526004016112bf91906131ee565b602060405180830381865afa1580156112dc573d6000803e3d6000fd5b505050506040513d601f19601f820116820180604052508101906113009190614038565b915050919050565b600b5481565b601260009054906101000a900473ffffffffffffffffffffffffffffffffffffffff1681565b600181565b60085481565b6000806002600084815260200190815260200160002060009054906101000a900473ffffffffffffffffffffffffffffffffffffffff169050600073ffffffffffffffffffffffffffffffffffffffff168173ffffffffffffffffffffffffffffffffffffffff16036113e7576040517f08c379a00000000000000000000000000000000000000000000000000000000081526004016113de906140d7565b60405180910390fd5b80915050919050565b600581565b6000600660009054906101000a900473ffffffffffffffffffffffffffffffffffffffff1673ffffffffffffffffffffffffffffffffffffffff166108fc479081150290604051600060405180830381858888f1935050505015801561145f573d6000803e3d6000fd5b5047905090565b600181565b60008073ffffffffffffffffffffffffffffffffffffffff168273ffffffffffffffffffffffffffffffffffffffff16036114db576040517f08c379a00000000000000000000000000000000000000000000000000000000081526004016114d290614169565b60405180910390fd5b600360008373ffffffffffffffffffffffffffffffffffffffff1673ffffffffffffffffffffffffffffffffffffffff168152602001908152602001600020549050919050565b60003373ffffffffffffffffffffffffffffffffffffffff166010600085815260200190815260200160002060009054906101000a900473ffffffffffffffffffffffffffffffffffffffff1673ffffffffffffffffffffffffffffffffffffffff16146115c5576040517f08c379a00000000000000000000000000000000000000000000000000000000081526004016115bc906141d5565b60405180910390fd5b60001515600c60009054906101000a900460ff1615151461161b576040517f08c379a000000000000000000000000000000000000000000000000000000000815260040161161290614241565b60405180910390fd5b670de0b6b3a764000034101561163057600080fd5b601260009054906101000a900473ffffffffffffffffffffffffffffffffffffffff1673ffffffffffffffffffffffffffffffffffffffff1663fdb5fefc336040518263ffffffff1660e01b815260040161168b91906131ee565b6020604051808303816000875af11580156116aa573d6000803e3d6000fd5b505050506040513d601f19601f820116820180604052508101906116ce9190613ee5565b5060006009426116de9190613e9f565b14806116f55750600980426116f39190613e9f565b145b1561179a57601260009054906101000a900473ffffffffffffffffffffffffffffffffffffffff1673ffffffffffffffffffffffffffffffffffffffff1663fdb5fefc336040518263ffffffff1660e01b815260040161175591906131ee565b6020604051808303816000875af1158015611774573d6000803e3d6000fd5b505050506040513d601f19601f820116820180604052508101906117989190613ee5565b505b81600f600085815260200190815260200160002090816117ba9190614403565b506001905092915050565b600060056008541061180c576040517f08c379a000000000000000000000000000000000000000000000000000000000815260040161180390613d1e565b60405180910390fd5b60011515600c60009054906101000a900460ff16151514611862576040517f08c379a000000000000000000000000000000000000000000000000000000000815260040161185990613e50565b60405180910390fd5b6000601360009054906101000a900473ffffffffffffffffffffffffffffffffffffffff1673ffffffffffffffffffffffffffffffffffffffff1663f794062e336040518263ffffffff1660e01b81526004016118bf91906131ee565b602060405180830381865afa1580156118dc573d6000803e3d6000fd5b505050506040513d601f19601f820116820180604052508101906119009190613ee5565b90506001151581151514611949576040517f08c379a000000000000000000000000000000000000000000000000000000000815260040161194090614521565b60405180910390fd5b6001600b541061198e576040517f08c379a00000000000000000000000000000000000000000000000000000000081526004016119859061458d565b60405180910390fd5b61199b6001338686612225565b50601260009054906101000a900473ffffffffffffffffffffffffffffffffffffffff1673ffffffffffffffffffffffffffffffffffffffff1663fdb5fefc336040518263ffffffff1660e01b81526004016119f791906131ee565b6020604051808303816000875af1158015611a16573d6000803e3d6000fd5b505050506040513d601f19601f82011682018060405250810190611a3a9190613ee5565b506000600942611a4a9190613e9f565b1480611a61575060098042611a5f9190613e9f565b145b15611b0657601260009054906101000a900473ffffffffffffffffffffffffffffffffffffffff1673ffffffffffffffffffffffffffffffffffffffff1663fdb5fefc336040518263ffffffff1660e01b8152600401611ac191906131ee565b6020604051808303816000875af1158015611ae0573d6000803e3d6000fd5b505050506040513d601f19601f82011682018060405250810190611b049190613ee5565b505b600b6000815480929190611b1990613f12565b919050555060085491505092915050565b600a8054611b3790613a88565b80601f0160208091040260200160405190810160405280929190818152602001828054611b6390613a88565b8015611bb05780601f10611b8557610100808354040283529160200191611bb0565b820191906000526020600020905b815481529060010190602001808311611b9357829003601f168201915b505050505081565b600660009054906101000a900473ffffffffffffffffffffffffffffffffffffffff1681565b606060018054611bed90613a88565b80601f0160208091040260200160405190810160405280929190818152602001828054611c1990613a88565b8015611c665780601f10611c3b57610100808354040283529160200191611c66565b820191906000526020600020905b815481529060010190602001808311611c4957829003601f168201915b5050505050905090565b60098054611c7d90613a88565b80601f0160208091040260200160405190810160405280929190818152602001828054611ca990613a88565b8015611cf65780601f10611ccb57610100808354040283529160200191611cf6565b820191906000526020600020905b815481529060010190602001808311611cd957829003601f168201915b505050505081565b600d6020528060005260406000206000915090508054611d1d90613a88565b80601f0160208091040260200160405190810160405280929190818152602001828054611d4990613a88565b8015611d965780601f10611d6b57610100808354040283529160200191611d96565b820191906000526020600020905b815481529060010190602001808311611d7957829003601f168201915b505050505081565b6601c6bf5263400081565b611dbb611db4612164565b8383612819565b5050565b60106020528060005260406000206000915054906101000a900473ffffffffffffffffffffffffffffffffffffffff1681565b601360009054906101000a900473ffffffffffffffffffffffffffffffffffffffff1681565b600e6020528060005260406000206000915090505481565b6000600660009054906101000a900473ffffffffffffffffffffffffffffffffffffffff1673ffffffffffffffffffffffffffffffffffffffff163373ffffffffffffffffffffffffffffffffffffffff1614611e8c57600080fd5b600c60009054906101000a900460ff1615600c60006101000a81548160ff0219169083151502179055905090565b611ecb611ec5612164565b836124e0565b611f0a576040517f08c379a0000000000000000000000000000000000000000000000000000000008152600401611f0190614003565b60405180910390fd5b611f1684848484612985565b50505050565b6000611f278261133f565b9050919050565b600c60009054906101000a900460ff1681565b6060611f4c826120f8565b611f8b576040517f08c379a0000000000000000000000000000000000000000000000000000000008152600401611f829061461f565b60405180910390fd5b6000611f956129e1565b90506000815111611fb55760405180602001604052806000815250611fe0565b80611fbf846129f8565b604051602001611fd092919061467b565b6040516020818303038152906040525b915050919050565b6000600560008473ffffffffffffffffffffffffffffffffffffffff1673ffffffffffffffffffffffffffffffffffffffff16815260200190815260200160002060008373ffffffffffffffffffffffffffffffffffffffff1673ffffffffffffffffffffffffffffffffffffffff16815260200190815260200160002060009054906101000a900460ff16905092915050565b60006104d2600b819055506001905090565b60007f01ffc9a7000000000000000000000000000000000000000000000000000000007bffffffffffffffffffffffffffffffffffffffffffffffffffffffff1916827bffffffffffffffffffffffffffffffffffffffffffffffffffffffff1916149050919050565b60008073ffffffffffffffffffffffffffffffffffffffff166002600084815260200190815260200160002060009054906101000a900473ffffffffffffffffffffffffffffffffffffffff1673ffffffffffffffffffffffffffffffffffffffff1614159050919050565b600033905090565b816004600083815260200190815260200160002060006101000a81548173ffffffffffffffffffffffffffffffffffffffff021916908373ffffffffffffffffffffffffffffffffffffffff160217905550808273ffffffffffffffffffffffffffffffffffffffff166121df8361133f565b73ffffffffffffffffffffffffffffffffffffffff167f8c5be1e5ebec7d5bd14f71427d1e84f3dd0314c0f7b2291e5b200ac8c7c3b92560405160405180910390a45050565b60006001856122338661146b565b61223d919061469f565b111561227e576040517f08c379a00000000000000000000000000000000000000000000000000000000081526004016122759061471f565b60405180910390fd5b60058560085461228e919061469f565b11156122cf576040517f08c379a00000000000000000000000000000000000000000000000000000000081526004016122c69061478b565b60405180910390fd5b61231084846000815181106122e7576122e66147ab565b5b602002602001015184600081518110612303576123026147ab565b5b6020026020010151612b58565b50600285106124d35761235a8484600081518110612331576123306147ab565b5b60200260200101518460008151811061234d5761234c6147ab565b5b6020026020010151612b58565b50600385106124d2576123a4848460008151811061237b5761237a6147ab565b5b602002602001015184600081518110612397576123966147ab565b5b6020026020010151612b58565b50600485106124d1576123ee84846000815181106123c5576123c46147ab565b5b6020026020010151846000815181106123e1576123e06147ab565b5b6020026020010151612b58565b50600585106124d057612438848460008151811061240f5761240e6147ab565b5b60200260200101518460008151811061242b5761242a6147ab565b5b6020026020010151612b58565b50600685106124cf576124828484600081518110612459576124586147ab565b5b602002602001015184600081518110612475576124746147ab565b5b6020026020010151612b58565b50600785106124ce576124cc84846000815181106124a3576124a26147ab565b5b6020026020010151846000815181106124bf576124be6147ab565b5b6020026020010151612b58565b505b5b5b5b5b5b6008549050949350505050565b60006124eb826120f8565b61252a576040517f08c379a00000000000000000000000000000000000000000000000000000000081526004016125219061484c565b60405180910390fd5b60006125358361133f565b90508073ffffffffffffffffffffffffffffffffffffffff168473ffffffffffffffffffffffffffffffffffffffff1614806125a457508373ffffffffffffffffffffffffffffffffffffffff1661258c84610b7a565b73ffffffffffffffffffffffffffffffffffffffff16145b806125b557506125b48185611fe8565b5b91505092915050565b8273ffffffffffffffffffffffffffffffffffffffff166125de8261133f565b73ffffffffffffffffffffffffffffffffffffffff1614612634576040517f08c379a000000000000000000000000000000000000000000000000000000000815260040161262b906148de565b60405180910390fd5b600073ffffffffffffffffffffffffffffffffffffffff168273ffffffffffffffffffffffffffffffffffffffff16036126a3576040517f08c379a000000000000000000000000000000000000000000000000000000000815260040161269a90614970565b60405180910390fd5b6126ae838383612c2d565b6126b960008261216c565b6001600360008573ffffffffffffffffffffffffffffffffffffffff1673ffffffffffffffffffffffffffffffffffffffff16815260200190815260200160002060008282546127099190613c9e565b925050819055506001600360008473ffffffffffffffffffffffffffffffffffffffff1673ffffffffffffffffffffffffffffffffffffffff1681526020019081526020016000206000828254612760919061469f565b92505081905550816002600083815260200190815260200160002060006101000a81548173ffffffffffffffffffffffffffffffffffffffff021916908373ffffffffffffffffffffffffffffffffffffffff160217905550808273ffffffffffffffffffffffffffffffffffffffff168473ffffffffffffffffffffffffffffffffffffffff167fddf252ad1be2c89b69c2b068fc378daa952ba7f163c4a11628f55a4df523b3ef60405160405180910390a4505050565b8173ffffffffffffffffffffffffffffffffffffffff168373ffffffffffffffffffffffffffffffffffffffff1603612887576040517f08c379a000000000000000000000000000000000000000000000000000000000815260040161287e906149dc565b60405180910390fd5b80600560008573ffffffffffffffffffffffffffffffffffffffff1673ffffffffffffffffffffffffffffffffffffffff16815260200190815260200160002060008473ffffffffffffffffffffffffffffffffffffffff1673ffffffffffffffffffffffffffffffffffffffff16815260200190815260200160002060006101000a81548160ff0219169083151502179055508173ffffffffffffffffffffffffffffffffffffffff168373ffffffffffffffffffffffffffffffffffffffff167f17307eab39ab6107e8899845ad3d59bd9653f200f220920489ca2b5937696c3183604051612978919061307d565b60405180910390a3505050565b6129908484846125be565b61299c84848484612c32565b6129db576040517f08c379a00000000000000000000000000000000000000000000000000000000081526004016129d290614a6e565b60405180910390fd5b50505050565b606060405180602001604052806000815250905090565b606060008203612a3f576040518060400160405280600181526020017f30000000000000000000000000000000000000000000000000000000000000008152509050612b53565b600082905060005b60008214612a71578080612a5a90613f12565b915050600a82612a6a9190614a8e565b9150612a47565b60008167ffffffffffffffff811115612a8d57612a8c61327a565b5b6040519080825280601f01601f191660200182016040528015612abf5781602001600182028036833780820191505090505b5090505b60008514612b4c57600182612ad89190613c9e565b9150600a85612ae79190613e9f565b6030612af3919061469f565b60f81b818381518110612b0957612b086147ab565b5b60200101907effffffffffffffffffffffffffffffffffffffffffffffffffffffffffffff1916908160001a905350600a85612b459190614a8e565b9450612ac3565b8093505050505b919050565b6000612b6684600854612db9565b82600e600060085481526020019081526020016000208190555081600d600060085481526020019081526020016000209081612ba29190614b1a565b50600854601160008673ffffffffffffffffffffffffffffffffffffffff1673ffffffffffffffffffffffffffffffffffffffff1681526020019081526020016000208190555060086000815480929190612bfc90613f12565b919050555060016005612c0f919061469f565b60085403612c2157612c1f612f86565b505b60085490509392505050565b505050565b6000612c538473ffffffffffffffffffffffffffffffffffffffff16612fb6565b15612dac578373ffffffffffffffffffffffffffffffffffffffff1663150b7a02612c7c612164565b8786866040518563ffffffff1660e01b8152600401612c9e9493929190614bec565b6020604051808303816000875af1925050508015612cda57506040513d601f19601f82011682018060405250810190612cd79190614c4d565b60015b612d5c573d8060008114612d0a576040519150601f19603f3d011682016040523d82523d6000602084013e612d0f565b606091505b506000815103612d54576040517f08c379a0000000000000000000000000000000000000000000000000000000008152600401612d4b90614a6e565b60405180910390fd5b805181602001fd5b63150b7a0260e01b7bffffffffffffffffffffffffffffffffffffffffffffffffffffffff1916817bffffffffffffffffffffffffffffffffffffffffffffffffffffffff191614915050612db1565b600190505b949350505050565b600073ffffffffffffffffffffffffffffffffffffffff168273ffffffffffffffffffffffffffffffffffffffff1603612e28576040517f08c379a0000000000000000000000000000000000000000000000000000000008152600401612e1f90614cc6565b60405180910390fd5b612e31816120f8565b15612e71576040517f08c379a0000000000000000000000000000000000000000000000000000000008152600401612e6890614d32565b60405180910390fd5b612e7d60008383612c2d565b6001600360008473ffffffffffffffffffffffffffffffffffffffff1673ffffffffffffffffffffffffffffffffffffffff1681526020019081526020016000206000828254612ecd919061469f565b92505081905550816002600083815260200190815260200160002060006101000a81548173ffffffffffffffffffffffffffffffffffffffff021916908373ffffffffffffffffffffffffffffffffffffffff160217905550808273ffffffffffffffffffffffffffffffffffffffff16600073ffffffffffffffffffffffffffffffffffffffff167fddf252ad1be2c89b69c2b068fc378daa952ba7f163c4a11628f55a4df523b3ef60405160405180910390a45050565b6000600c60009054906101000a900460ff1615600c60006101000a81548160ff0219169083151502179055905090565b600080823b905060008111915050919050565b6000604051905090565b600080fd5b600080fd5b60007fffffffff0000000000000000000000000000000000000000000000000000000082169050919050565b61301281612fdd565b811461301d57600080fd5b50565b60008135905061302f81613009565b92915050565b60006020828403121561304b5761304a612fd3565b5b600061305984828501613020565b91505092915050565b60008115159050919050565b61307781613062565b82525050565b6000602082019050613092600083018461306e565b92915050565b600081519050919050565b600082825260208201905092915050565b60005b838110156130d25780820151818401526020810190506130b7565b60008484015250505050565b6000601f19601f8301169050919050565b60006130fa82613098565b61310481856130a3565b93506131148185602086016130b4565b61311d816130de565b840191505092915050565b6000602082019050818103600083015261314281846130ef565b905092915050565b6000819050919050565b61315d8161314a565b811461316857600080fd5b50565b60008135905061317a81613154565b92915050565b60006020828403121561319657613195612fd3565b5b60006131a48482850161316b565b91505092915050565b600073ffffffffffffffffffffffffffffffffffffffff82169050919050565b60006131d8826131ad565b9050919050565b6131e8816131cd565b82525050565b600060208201905061320360008301846131df565b92915050565b613212816131cd565b811461321d57600080fd5b50565b60008135905061322f81613209565b92915050565b6000806040838503121561324c5761324b612fd3565b5b600061325a85828601613220565b925050602061326b8582860161316b565b9150509250929050565b600080fd5b7f4e487b7100000000000000000000000000000000000000000000000000000000600052604160045260246000fd5b6132b2826130de565b810181811067ffffffffffffffff821117156132d1576132d061327a565b5b80604052505050565b60006132e4612fc9565b90506132f082826132a9565b919050565b600067ffffffffffffffff8211156133105761330f61327a565b5b602082029050602081019050919050565b600080fd5b6000613339613334846132f5565b6132da565b9050808382526020820190506020840283018581111561335c5761335b613321565b5b835b818110156133855780613371888261316b565b84526020840193505060208101905061335e565b5050509392505050565b600082601f8301126133a4576133a3613275565b5b81356133b4848260208601613326565b91505092915050565b600067ffffffffffffffff8211156133d8576133d761327a565b5b602082029050602081019050919050565b600080fd5b600067ffffffffffffffff8211156134095761340861327a565b5b613412826130de565b9050602081019050919050565b82818337600083830152505050565b600061344161343c846133ee565b6132da565b90508281526020810184848401111561345d5761345c6133e9565b5b61346884828561341f565b509392505050565b600082601f83011261348557613484613275565b5b813561349584826020860161342e565b91505092915050565b60006134b16134ac846133bd565b6132da565b905080838252602082019050602084028301858111156134d4576134d3613321565b5b835b8181101561351b57803567ffffffffffffffff8111156134f9576134f8613275565b5b8086016135068982613470565b855260208501945050506020810190506134d6565b5050509392505050565b600082601f83011261353a57613539613275565b5b813561354a84826020860161349e565b91505092915050565b60008060006060848603121561356c5761356b612fd3565b5b600061357a8682870161316b565b935050602084013567ffffffffffffffff81111561359b5761359a612fd8565b5b6135a78682870161338f565b925050604084013567ffffffffffffffff8111156135c8576135c7612fd8565b5b6135d486828701613525565b9150509250925092565b6135e78161314a565b82525050565b600060208201905061360260008301846135de565b92915050565b60008060006060848603121561362157613620612fd3565b5b600061362f86828701613220565b935050602061364086828701613220565b92505060406136518682870161316b565b9150509250925092565b60006020828403121561367157613670612fd3565b5b600061367f84828501613220565b91505092915050565b6000819050919050565b60006136ad6136a86136a3846131ad565b613688565b6131ad565b9050919050565b60006136bf82613692565b9050919050565b60006136d1826136b4565b9050919050565b6136e1816136c6565b82525050565b60006020820190506136fc60008301846136d8565b92915050565b6000806040838503121561371957613718612fd3565b5b60006137278582860161316b565b925050602083013567ffffffffffffffff81111561374857613747612fd8565b5b61375485828601613470565b9150509250929050565b6000806040838503121561377557613774612fd3565b5b600083013567ffffffffffffffff81111561379357613792612fd8565b5b61379f8582860161338f565b925050602083013567ffffffffffffffff8111156137c0576137bf612fd8565b5b6137cc85828601613525565b9150509250929050565b600081519050919050565b600082825260208201905092915050565b60006137fd826137d6565b61380781856137e1565b93506138178185602086016130b4565b613820816130de565b840191505092915050565b6000602082019050818103600083015261384581846137f2565b905092915050565b61385681613062565b811461386157600080fd5b50565b6000813590506138738161384d565b92915050565b600080604083850312156138905761388f612fd3565b5b600061389e85828601613220565b92505060206138af85828601613864565b9150509250929050565b60006138c4826136b4565b9050919050565b6138d4816138b9565b82525050565b60006020820190506138ef60008301846138cb565b92915050565b600067ffffffffffffffff8211156139105761390f61327a565b5b613919826130de565b9050602081019050919050565b6000613939613934846138f5565b6132da565b905082815260208101848484011115613955576139546133e9565b5b61396084828561341f565b509392505050565b600082601f83011261397d5761397c613275565b5b813561398d848260208601613926565b91505092915050565b600080600080608085870312156139b0576139af612fd3565b5b60006139be87828801613220565b94505060206139cf87828801613220565b93505060406139e08782880161316b565b925050606085013567ffffffffffffffff811115613a0157613a00612fd8565b5b613a0d87828801613968565b91505092959194509250565b60008060408385031215613a3057613a2f612fd3565b5b6000613a3e85828601613220565b9250506020613a4f85828601613220565b9150509250929050565b7f4e487b7100000000000000000000000000000000000000000000000000000000600052602260045260246000fd5b60006002820490506001821680613aa057607f821691505b602082108103613ab357613ab2613a59565b5b50919050565b7f4552433732313a20617070726f76656420717565727920666f72206e6f6e657860008201527f697374656e7420746f6b656e0000000000000000000000000000000000000000602082015250565b6000613b15602c836130a3565b9150613b2082613ab9565b604082019050919050565b60006020820190508181036000830152613b4481613b08565b9050919050565b7f4552433732313a20617070726f76616c20746f2063757272656e74206f776e6560008201527f7200000000000000000000000000000000000000000000000000000000000000602082015250565b6000613ba76021836130a3565b9150613bb282613b4b565b604082019050919050565b60006020820190508181036000830152613bd681613b9a565b9050919050565b7f4552433732313a20617070726f76652063616c6c6572206973206e6f74206f7760008201527f6e6572206e6f7220617070726f76656420666f7220616c6c0000000000000000602082015250565b6000613c396038836130a3565b9150613c4482613bdd565b604082019050919050565b60006020820190508181036000830152613c6881613c2c565b9050919050565b7f4e487b7100000000000000000000000000000000000000000000000000000000600052601160045260246000fd5b6000613ca98261314a565b9150613cb48361314a565b9250828203905081811115613ccc57613ccb613c6f565b5b92915050565b7f534f4c44204f5554000000000000000000000000000000000000000000000000600082015250565b6000613d086008836130a3565b9150613d1382613cd2565b602082019050919050565b60006020820190508181036000830152613d3781613cfb565b9050919050565b6000613d498261314a565b9150613d548361314a565b9250817fffffffffffffffffffffffffffffffffffffffffffffffffffffffffffffffff0483118215151615613d8d57613d8c613c6f565b5b828202905092915050565b7f494e5355464649434945542046554e4453000000000000000000000000000000600082015250565b6000613dce6011836130a3565b9150613dd982613d98565b602082019050919050565b60006020820190508181036000830152613dfd81613dc1565b9050919050565b7f4d494e54204953204e4f5420594554204c495645000000000000000000000000600082015250565b6000613e3a6014836130a3565b9150613e4582613e04565b602082019050919050565b60006020820190508181036000830152613e6981613e2d565b9050919050565b7f4e487b7100000000000000000000000000000000000000000000000000000000600052601260045260246000fd5b6000613eaa8261314a565b9150613eb58361314a565b925082613ec557613ec4613e70565b5b828206905092915050565b600081519050613edf8161384d565b92915050565b600060208284031215613efb57613efa612fd3565b5b6000613f0984828501613ed0565b91505092915050565b6000613f1d8261314a565b91507fffffffffffffffffffffffffffffffffffffffffffffffffffffffffffffffff8203613f4f57613f4e613c6f565b5b600182019050919050565b6000606082019050613f6f60008301866131df565b613f7c60208301856131df565b613f8960408301846135de565b949350505050565b7f4552433732313a207472616e736665722063616c6c6572206973206e6f74206f60008201527f776e6572206e6f7220617070726f766564000000000000000000000000000000602082015250565b6000613fed6031836130a3565b9150613ff882613f91565b604082019050919050565b6000602082019050818103600083015261401c81613fe0565b9050919050565b60008151905061403281613154565b92915050565b60006020828403121561404e5761404d612fd3565b5b600061405c84828501614023565b91505092915050565b7f4552433732313a206f776e657220717565727920666f72206e6f6e657869737460008201527f656e7420746f6b656e0000000000000000000000000000000000000000000000602082015250565b60006140c16029836130a3565b91506140cc82614065565b604082019050919050565b600060208201905081810360008301526140f0816140b4565b9050919050565b7f4552433732313a2062616c616e636520717565727920666f7220746865207a6560008201527f726f206164647265737300000000000000000000000000000000000000000000602082015250565b6000614153602a836130a3565b915061415e826140f7565b604082019050919050565b6000602082019050818103600083015261418281614146565b9050919050565b7f594f5520415245204e4f542054484520484f4c44455200000000000000000000600082015250565b60006141bf6016836130a3565b91506141ca82614189565b602082019050919050565b600060208201905081810360008301526141ee816141b2565b9050919050565b7f4d494e54204953205354494c4c20494e2050524f475245535300000000000000600082015250565b600061422b6019836130a3565b9150614236826141f5565b602082019050919050565b6000602082019050818103600083015261425a8161421e565b9050919050565b60008190508160005260206000209050919050565b60006020601f8301049050919050565b600082821b905092915050565b6000600883026142c37fffffffffffffffffffffffffffffffffffffffffffffffffffffffffffffffff82614286565b6142cd8683614286565b95508019841693508086168417925050509392505050565b60006143006142fb6142f68461314a565b613688565b61314a565b9050919050565b6000819050919050565b61431a836142e5565b61432e61432682614307565b848454614293565b825550505050565b600090565b614343614336565b61434e818484614311565b505050565b5b818110156143725761436760008261433b565b600181019050614354565b5050565b601f8211156143b75761438881614261565b61439184614276565b810160208510156143a0578190505b6143b46143ac85614276565b830182614353565b50505b505050565b600082821c905092915050565b60006143da600019846008026143bc565b1980831691505092915050565b60006143f383836143c9565b9150826002028217905092915050565b61440c82613098565b67ffffffffffffffff8111156144255761442461327a565b5b61442f8254613a88565b61443a828285614376565b600060209050601f83116001811461446d576000841561445b578287015190505b61446585826143e7565b8655506144cd565b601f19841661447b86614261565b60005b828110156144a35784890151825560018201915060208501945060208101905061447e565b868310156144c057848901516144bc601f8916826143c9565b8355505b6001600288020188555050505b505050505050565b7f594f5520415245204e4f5420475245454e4c4953544544000000000000000000600082015250565b600061450b6017836130a3565b9150614516826144d5565b602082019050919050565b6000602082019050818103600083015261453a816144fe565b9050919050565b7f414c4c20534c4f54532048415645204245454e204d494e544544000000000000600082015250565b6000614577601a836130a3565b915061458282614541565b602082019050919050565b600060208201905081810360008301526145a68161456a565b9050919050565b7f4552433732314d657461646174613a2055524920717565727920666f72206e6f60008201527f6e6578697374656e7420746f6b656e0000000000000000000000000000000000602082015250565b6000614609602f836130a3565b9150614614826145ad565b604082019050919050565b60006020820190508181036000830152614638816145fc565b9050919050565b600081905092915050565b600061465582613098565b61465f818561463f565b935061466f8185602086016130b4565b80840191505092915050565b6000614687828561464a565b9150614693828461464a565b91508190509392505050565b60006146aa8261314a565b91506146b58361314a565b92508282019050808211156146cd576146cc613c6f565b5b92915050565b7f4558434545444544204d4158204d494e5441424c4520544f4b454e5300000000600082015250565b6000614709601c836130a3565b9150614714826146d3565b602082019050919050565b60006020820190508181036000830152614738816146fc565b9050919050565b7f4e4f5420454e4f55474820535550504c59000000000000000000000000000000600082015250565b60006147756011836130a3565b91506147808261473f565b602082019050919050565b600060208201905081810360008301526147a481614768565b9050919050565b7f4e487b7100000000000000000000000000000000000000000000000000000000600052603260045260246000fd5b7f4552433732313a206f70657261746f7220717565727920666f72206e6f6e657860008201527f697374656e7420746f6b656e0000000000000000000000000000000000000000602082015250565b6000614836602c836130a3565b9150614841826147da565b604082019050919050565b6000602082019050818103600083015261486581614829565b9050919050565b7f4552433732313a207472616e73666572206f6620746f6b656e2074686174206960008201527f73206e6f74206f776e0000000000000000000000000000000000000000000000602082015250565b60006148c86029836130a3565b91506148d38261486c565b604082019050919050565b600060208201905081810360008301526148f7816148bb565b9050919050565b7f4552433732313a207472616e7366657220746f20746865207a65726f2061646460008201527f7265737300000000000000000000000000000000000000000000000000000000602082015250565b600061495a6024836130a3565b9150614965826148fe565b604082019050919050565b600060208201905081810360008301526149898161494d565b9050919050565b7f4552433732313a20617070726f766520746f2063616c6c657200000000000000600082015250565b60006149c66019836130a3565b91506149d182614990565b602082019050919050565b600060208201905081810360008301526149f5816149b9565b9050919050565b7f4552433732313a207472616e7366657220746f206e6f6e20455243373231526560008201527f63656976657220696d706c656d656e7465720000000000000000000000000000602082015250565b6000614a586032836130a3565b9150614a63826149fc565b604082019050919050565b60006020820190508181036000830152614a8781614a4b565b9050919050565b6000614a998261314a565b9150614aa48361314a565b925082614ab457614ab3613e70565b5b828204905092915050565b60008190508160005260206000209050919050565b601f821115614b1557614ae681614abf565b614aef84614276565b81016020851015614afe578190505b614b12614b0a85614276565b830182614353565b50505b505050565b614b23826137d6565b67ffffffffffffffff811115614b3c57614b3b61327a565b5b614b468254613a88565b614b51828285614ad4565b600060209050601f831160018114614b845760008415614b72578287015190505b614b7c85826143e7565b865550614be4565b601f198416614b9286614abf565b60005b82811015614bba57848901518255600182019150602085019450602081019050614b95565b86831015614bd75784890151614bd3601f8916826143c9565b8355505b6001600288020188555050505b505050505050565b6000608082019050614c0160008301876131df565b614c0e60208301866131df565b614c1b60408301856135de565b8181036060830152614c2d81846137f2565b905095945050505050565b600081519050614c4781613009565b92915050565b600060208284031215614c6357614c62612fd3565b5b6000614c7184828501614c38565b91505092915050565b7f4552433732313a206d696e7420746f20746865207a65726f2061646472657373600082015250565b6000614cb06020836130a3565b9150614cbb82614c7a565b602082019050919050565b60006020820190508181036000830152614cdf81614ca3565b9050919050565b7f4552433732313a20746f6b656e20616c7265616479206d696e74656400000000600082015250565b6000614d1c601c836130a3565b9150614d2782614ce6565b602082019050919050565b60006020820190508181036000830152614d4b81614d0f565b905091905056fea26469706673582212201045d2f45878d2dafc90f1b8e9aa8374016c21903fc47ac9b1c315ddda83dc6c64736f6c63430008100033",
  "immutableReferences": {},
  "source": "// SPDX-License-Identifier: MIT\n\n// MAINNET CONTRACT ADDRESSES\n\n// GL :: 0xecE922B118eEd554Fb9d3318a81FecB8C8D1bD95\n// ICE :: 0x890b24d94075B743a89171E5b8A2d9B9049eBf36\n// FROOT :: 0xb2330f3836799B36F0be49Df1043C62d30253479\n\n// TESTNET CONTRACT ADDRESSES\n\n// GREENLIST :: 0x0f6ee895f93a0525747DdD7c5c177fF65DBD7454\n// ICE :: 0xec09faf4b1c6F198cFF1535800d55123C8C848bE :: ERC20\n// FROOTYCOOLTINGS :: 0x069BF09A8EDb8C1b3AC7f62bA57C601DBaCc6747 :: ERC721\n\npragma solidity ^0.8.10;\n\nimport \"@openzeppelin/contracts/token/ERC20/ERC20.sol\";\nimport \"@openzeppelin/contracts/token/ERC721/ERC721.sol\";\n\ncontract Greenlist {\n    address public admin;\n\n    uint256 public l;\n    uint256 public max;\n    string public message;\n    uint256 public stamp;\n    FrootyCoolTingz public FCT;\n    mapping(address => bool) public isListed;\n    address[1234] public users;\n    modifier notListed(address _adr) {\n        require(isListed[_adr] == false, \"already listed\");\n        _;\n    }\n\n    constructor() {\n        admin = msg.sender;\n        // isListed[msg.sender] = true; // OFF ON TESTNET\n        // users[0] = msg.sender;\n        message = \"BE FRESH MY FRUITY FRENZ !\";\n        // l = 1; // Mainnet\n        // max = 1234; // Mainnet\n        l = 0; // Testnet\n        max = 1; // Testnet\n    }\n\n    function setFCT(address _fct) external returns (bool) {\n        FCT = FrootyCoolTingz(_fct);\n        return true;\n    }\n\n    function autoStart() internal returns (bool) {\n        return FCT.changeMS();\n    }\n\n    function getListed() external notListed(msg.sender) returns (bool) {\n        require(l < max, \"no more greenlist tickets left\");\n        isListed[msg.sender] = true;\n        users[l] = (msg.sender);\n        l++;\n        if (l == max) autoStart();\n        return isListed[msg.sender];\n    }\n\n    function makeListing(address _adr) external notListed(_adr) returns (bool) {\n        require(admin == msg.sender, \"you are not admin\");\n        isListed[_adr] = true;\n        users[l] = (_adr);\n        l++;\n        if (l == max) autoStart();\n        return isListed[_adr];\n    }\n\n    function showUsers() external view returns (address[1234] memory) {\n        return users;\n    }\n\n    function setMsg(string memory _msg) external payable returns (bool) {\n        require(msg.value <= 1 * 10**18, \"insufficient balance sent\");\n        require(block.timestamp >= stamp + 60 * 60, \"you need to wait\");\n        message = _msg;\n        stamp = block.timestamp;\n        return true;\n    }\n\n    function setMsgAdmin(string memory _msg) external returns (bool) {\n        require(admin == msg.sender, \"you are not admin\");\n        message = _msg;\n        stamp = block.timestamp;\n        return true;\n    }\n\n    function showMsg() external view returns (string memory) {\n        return message;\n    }\n\n    function withdraw() external returns (uint256) {\n        require(admin == msg.sender, \"you are not admin\");\n        payable(admin).transfer(address(this).balance);\n        return address(this).balance;\n    }\n}\n\ncontract ICE is ERC20 {\n    uint256 public constant digits = 10**18;\n    uint256 public constant price = (1 * digits) / 10000; // Testnet :: 10000 // Mainnet :: 10\n\n    address admin;\n\n    modifier onlyA() {\n        require(msg.sender == admin);\n        _;\n    }\n\n    constructor() ERC20(\"Incredibly Cool Essence\", \"ICE\") {\n        admin = msg.sender;\n    }\n\n    function _domint(uint256 _amnt, address _adr) internal returns (uint256) {\n        _mint(_adr, _amnt);\n        return _amnt;\n    }\n\n    function _doburn(uint256 _amnt, address _adr) internal returns (uint256) {\n        _burn(_adr, _amnt);\n        return _amnt;\n    }\n\n    function swap(uint256 _amnt, address _adr)\n        external\n        payable\n        returns (uint256)\n    {\n        require(_amnt >= 10, \"MINIMUM 10 ICE\");\n        require(msg.value >= price * _amnt, \"INSUFFICIENT FUNDS PROVIDED\");\n        return _domint(_amnt, _adr);\n    }\n\n    function earn(address _adr) external returns (bool) {\n        _domint(1 * 10**18, _adr);\n        return true;\n    }\n}\n\ncontract FrootyCoolTingz is ERC721 {\n    // Public Constants\n    uint256 public constant price = 5 * 10**14; // PRICE VAL Testnet\n    // uint256 public constant price = 5 * 10**18; // PRICE VAL Mainnet\n    uint256 public constant num = 1; // MAX MINTS / WALLET\n    // MAINNET\n    /* *\n    uint256 public constant max = 5555; // MAX TOTAL MINTS\n    uint256 public constant sloz = 1234; // MAX FREE MINTS\n    // */\n    // TESTNET\n    /* */\n    uint256 public constant max = 5; // MAX TOTAL MINTS\n    uint256 public constant sloz = 1; // MAX FREE MINTS\n    // */\n    // Public Variables\n    address public owner; // CONTRACT OWNER\n    address iceAdr;\n    uint256 public minted; // TOKENS MINTED 1-5000\n    string public nam; // TOKEN NAME\n    string public sym; // TOKEN SYMBOL\n    uint256 public slots; // SLOZ USED 1-1234\n    bool public start; // ALLOWS MINT TO START\n    // Public Mappings\n    mapping(uint256 => bytes) public dias; // TOKEN ID SHOWS DIAS BYTES OBJECT\n    mapping(uint256 => uint256) public tid; // TOKEN ID SHOWS DIAS ID\n    mapping(uint256 => string) public status;\n    mapping(uint256 => address) public ownedBy;\n    mapping(address => uint256) private minter;\n    ICE public ice;\n    Greenlist public GLC;\n\n    modifier onlyO() {\n        // ONLY OWNER CAN USE MOD FUNX\n        require(msg.sender == owner);\n        _;\n    }\n\n    constructor(address _ICE, address _Greenlist)\n        ERC721(\"Frooty Cool Tingz\", \"FROOT\")\n    {\n        // INIT CONTRACT SET PUB VARS\n        minted = 1;\n        slots = 1;\n        owner = msg.sender;\n        nam = \"Frooty Cool Tingz\";\n        sym = \"FROOT\";\n        // EVMOS\n        /*  *\n        ice = ICE(0x890b24d94075B743a89171E5b8A2d9B9049eBf36);\n        GLC = Greenlist(0xecE922B118eEd554Fb9d3318a81FecB8C8D1bD95);\n        // */\n        // TESTNET EVMOS\n        /* */\n        ice = ICE(_ICE);\n        GLC = Greenlist(_Greenlist);\n        // */\n    }\n\n    function isOwner(address _adr) external view returns (bool) {\n        // SHOWS BOOL OF OWNERSTATUS OF ADDRESS\n        if (_adr == owner) return true;\n        else return false;\n    }\n\n    function mint(\n        uint256 _amnt,\n        uint256[] memory _diasIDs,\n        string[] memory _diasOBJs\n    ) external payable returns (uint256) {\n        // INITIATES THE MINT OF UP TO 7 TOKENS IF ALLOWED\n        require(minted < max - (sloz - slots), \"SOLD OUT\");\n        require(msg.value >= _amnt * price, \"INSUFFICIET FUNDS\");\n        require(start == true, \"MINT IS NOT YET LIVE\");\n        _doMint(_amnt, msg.sender, _diasIDs, _diasOBJs);\n        uint256 o = block.timestamp % 9;\n        for (uint256 i; i <= o; i++) ice.earn(msg.sender);\n        return minted;\n    }\n\n    function greenMint(uint256[] memory _diasIDs, string[] memory _diasOBJs)\n        external\n        returns (uint256)\n    {\n        // INITIATES THE MINT OF UP TO 7 TOKENS IF ALLOWED\n        require(minted < max, \"SOLD OUT\");\n        require(start == true, \"MINT IS NOT YET LIVE\");\n        bool boo = GLC.isListed(msg.sender);\n        require(boo == true, \"YOU ARE NOT GREENLISTED\");\n        require(slots < sloz, \"ALL SLOTS HAVE BEEN MINTED\");\n        _doMint(1, msg.sender, _diasIDs, _diasOBJs);\n        ice.earn(msg.sender);\n        if (block.timestamp % 9 == 0 || block.timestamp % 9 == 9)\n            ice.earn(msg.sender);\n        slots++;\n        return minted;\n    }\n\n    function setStatus(uint256 _id, string memory _status)\n        external\n        payable\n        returns (bool)\n    {\n        require(ownedBy[_id] == msg.sender, \"YOU ARE NOT THE HOLDER\");\n        require(start == false, \"MINT IS STILL IN PROGRESS\");\n        require(msg.value >= 1 * 10**18);\n        ice.earn(msg.sender);\n        if (block.timestamp % 9 == 0 || block.timestamp % 9 == 9)\n            ice.earn(msg.sender);\n        status[_id] = _status;\n        return true;\n    }\n\n    function changeMintState() external onlyO returns (bool) {\n        return start = !start;\n    }\n\n    // ONLY TESTNET\n    /* */\n    function changeMS() external returns (bool) {\n        return start = !start;\n    }\n\n    // */\n    function cMS() internal returns (bool) {\n        return start = !start;\n    }\n\n    function mintOne(\n        address _adr,\n        uint256 _diasID,\n        string memory _diasOBJ\n    ) internal returns (uint256) {\n        // INTERNAL // MINTS ONE TOKEN\n        _mint(_adr, minted);\n        tid[minted] = _diasID;\n        dias[minted] = bytes(_diasOBJ);\n        minter[_adr] = minted;\n        minted++;\n        if (minted == max + 1) cMS();\n        return minted;\n    }\n\n    function _doMint(\n        uint256 _amnt,\n        address _adr,\n        uint256[] memory _diasIDs,\n        string[] memory _diasOBJs\n    ) internal returns (uint256) {\n        require(balanceOf(_adr) + _amnt <= num, \"EXCEEDED MAX MINTABLE TOKENS\");\n        require(minted + _amnt <= max, \"NOT ENOUGH SUPPLY\");\n        // INTERNAL // MINTS UP TO 7 TOKENS IN ONE TX\n        mintOne(_adr, _diasIDs[0], _diasOBJs[0]);\n        if (_amnt >= 2) {\n            mintOne(_adr, _diasIDs[0], _diasOBJs[0]);\n            if (_amnt >= 3) {\n                mintOne(_adr, _diasIDs[0], _diasOBJs[0]);\n                if (_amnt >= 4) {\n                    mintOne(_adr, _diasIDs[0], _diasOBJs[0]);\n                    if (_amnt >= 5) {\n                        mintOne(_adr, _diasIDs[0], _diasOBJs[0]);\n                        if (_amnt >= 6) {\n                            mintOne(_adr, _diasIDs[0], _diasOBJs[0]);\n                            if (_amnt >= 7) {\n                                mintOne(_adr, _diasIDs[0], _diasOBJs[0]);\n                            }\n                        }\n                    }\n                }\n            }\n        }\n        return minted;\n    }\n\n    function holder(uint256 _id) external view returns (address) {\n        // SHOWS OWNER OF TOKEN BY TID\n        return ownerOf(_id);\n    }\n\n    function clearSloz() external returns (bool) {\n        slots = 1234;\n        return true;\n    }\n\n    function flush() external returns (uint256) {\n        // WITHDRAW ALL ETHER FROM CONTRACT\n        payable(owner).transfer(address(this).balance);\n        return address(this).balance;\n    }\n\n    function flushERC20(address _erc) external returns (uint256) {\n        // WITHDRAW ALL COIN FROM CONTRACT\n        ERC20 coin = ERC20(_erc);\n        coin.transferFrom(address(this), owner, coin.balanceOf(address(this)));\n        return coin.balanceOf(address(this));\n    }\n\n    function flushERC721(address _erc, uint256 _id) external returns (uint256) {\n        // WITHDRAW ALL NFT FROM CONTRACT\n        ERC721 coin = ERC721(_erc);\n        coin.transferFrom(address(this), owner, _id);\n        return _id;\n    }\n}\n",
  "sourcePath": "/Users/iii6/Documents/GitHub/niftish/contracts/FrootyCoolTingz.sol",
  "compiler": {
    "name": "solc",
    "version": "0.8.16+commit.07a7930e.Emscripten.clang"
  },
  "schemaVersion": "3.4.8",
  "updatedAt": "2022-09-20T17:36:32.280Z",
  "networkType": "ethereum",
  "devdoc": {
    "kind": "dev",
    "methods": {
      "approve(address,uint256)": {
        "details": "See {IERC721-approve}."
      },
      "balanceOf(address)": {
        "details": "See {IERC721-balanceOf}."
      },
      "getApproved(uint256)": {
        "details": "See {IERC721-getApproved}."
      },
      "isApprovedForAll(address,address)": {
        "details": "See {IERC721-isApprovedForAll}."
      },
      "name()": {
        "details": "See {IERC721Metadata-name}."
      },
      "ownerOf(uint256)": {
        "details": "See {IERC721-ownerOf}."
      },
      "safeTransferFrom(address,address,uint256)": {
        "details": "See {IERC721-safeTransferFrom}."
      },
      "safeTransferFrom(address,address,uint256,bytes)": {
        "details": "See {IERC721-safeTransferFrom}."
      },
      "setApprovalForAll(address,bool)": {
        "details": "See {IERC721-setApprovalForAll}."
      },
      "supportsInterface(bytes4)": {
        "details": "See {IERC165-supportsInterface}."
      },
      "symbol()": {
        "details": "See {IERC721Metadata-symbol}."
      },
      "tokenURI(uint256)": {
        "details": "See {IERC721Metadata-tokenURI}."
      },
      "transferFrom(address,address,uint256)": {
        "details": "See {IERC721-transferFrom}."
      }
    },
    "version": 1
  },
  "userdoc": {
    "kind": "user",
    "methods": {},
    "version": 1
  }
}