{
  "contractName": "FrootyCoolTingz",
  "abi": [
    {
      "inputs": [
        {
          "internalType": "address",
          "name": "_ICE",
          "type": "address"
        }
      ],
      "stateMutability": "nonpayable",
      "type": "constructor"
    },
    {
      "anonymous": false,
      "inputs": [
        {
          "indexed": true,
          "internalType": "address",
          "name": "owner",
          "type": "address"
        },
        {
          "indexed": true,
          "internalType": "address",
          "name": "approved",
          "type": "address"
        },
        {
          "indexed": true,
          "internalType": "uint256",
          "name": "tokenId",
          "type": "uint256"
        }
      ],
      "name": "Approval",
      "type": "event"
    },
    {
      "anonymous": false,
      "inputs": [
        {
          "indexed": true,
          "internalType": "address",
          "name": "owner",
          "type": "address"
        },
        {
          "indexed": true,
          "internalType": "address",
          "name": "operator",
          "type": "address"
        },
        {
          "indexed": false,
          "internalType": "bool",
          "name": "approved",
          "type": "bool"
        }
      ],
      "name": "ApprovalForAll",
      "type": "event"
    },
    {
      "anonymous": false,
      "inputs": [
        {
          "indexed": true,
          "internalType": "address",
          "name": "from",
          "type": "address"
        },
        {
          "indexed": true,
          "internalType": "address",
          "name": "to",
          "type": "address"
        },
        {
          "indexed": true,
          "internalType": "uint256",
          "name": "tokenId",
          "type": "uint256"
        }
      ],
      "name": "Transfer",
      "type": "event"
    },
    {
      "inputs": [
        {
          "internalType": "address",
          "name": "",
          "type": "address"
        }
      ],
      "name": "GL",
      "outputs": [
        {
          "internalType": "bool",
          "name": "",
          "type": "bool"
        }
      ],
      "stateMutability": "view",
      "type": "function"
    },
    {
      "inputs": [
        {
          "internalType": "address",
          "name": "to",
          "type": "address"
        },
        {
          "internalType": "uint256",
          "name": "tokenId",
          "type": "uint256"
        }
      ],
      "name": "approve",
      "outputs": [],
      "stateMutability": "nonpayable",
      "type": "function"
    },
    {
      "inputs": [
        {
          "internalType": "address",
          "name": "owner",
          "type": "address"
        }
      ],
      "name": "balanceOf",
      "outputs": [
        {
          "internalType": "uint256",
          "name": "",
          "type": "uint256"
        }
      ],
      "stateMutability": "view",
      "type": "function"
    },
    {
      "inputs": [
        {
          "internalType": "uint256",
          "name": "",
          "type": "uint256"
        }
      ],
      "name": "dias",
      "outputs": [
        {
          "internalType": "bytes",
          "name": "",
          "type": "bytes"
        }
      ],
      "stateMutability": "view",
      "type": "function"
    },
    {
      "inputs": [
        {
          "internalType": "uint256",
          "name": "tokenId",
          "type": "uint256"
        }
      ],
      "name": "getApproved",
      "outputs": [
        {
          "internalType": "address",
          "name": "",
          "type": "address"
        }
      ],
      "stateMutability": "view",
      "type": "function"
    },
    {
      "inputs": [
        {
          "internalType": "address",
          "name": "owner",
          "type": "address"
        },
        {
          "internalType": "address",
          "name": "operator",
          "type": "address"
        }
      ],
      "name": "isApprovedForAll",
      "outputs": [
        {
          "internalType": "bool",
          "name": "",
          "type": "bool"
        }
      ],
      "stateMutability": "view",
      "type": "function"
    },
    {
      "inputs": [],
      "name": "max",
      "outputs": [
        {
          "internalType": "uint256",
          "name": "",
          "type": "uint256"
        }
      ],
      "stateMutability": "view",
      "type": "function"
    },
    {
      "inputs": [],
      "name": "minted",
      "outputs": [
        {
          "internalType": "uint256",
          "name": "",
          "type": "uint256"
        }
      ],
      "stateMutability": "view",
      "type": "function"
    },
    {
      "inputs": [],
      "name": "nam",
      "outputs": [
        {
          "internalType": "string",
          "name": "",
          "type": "string"
        }
      ],
      "stateMutability": "view",
      "type": "function"
    },
    {
      "inputs": [],
      "name": "name",
      "outputs": [
        {
          "internalType": "string",
          "name": "",
          "type": "string"
        }
      ],
      "stateMutability": "view",
      "type": "function"
    },
    {
      "inputs": [],
      "name": "num",
      "outputs": [
        {
          "internalType": "uint256",
          "name": "",
          "type": "uint256"
        }
      ],
      "stateMutability": "view",
      "type": "function"
    },
    {
      "inputs": [
        {
          "internalType": "uint256",
          "name": "",
          "type": "uint256"
        }
      ],
      "name": "ownedBy",
      "outputs": [
        {
          "internalType": "address",
          "name": "",
          "type": "address"
        }
      ],
      "stateMutability": "view",
      "type": "function"
    },
    {
      "inputs": [],
      "name": "owner",
      "outputs": [
        {
          "internalType": "address",
          "name": "",
          "type": "address"
        }
      ],
      "stateMutability": "view",
      "type": "function"
    },
    {
      "inputs": [
        {
          "internalType": "uint256",
          "name": "tokenId",
          "type": "uint256"
        }
      ],
      "name": "ownerOf",
      "outputs": [
        {
          "internalType": "address",
          "name": "",
          "type": "address"
        }
      ],
      "stateMutability": "view",
      "type": "function"
    },
    {
      "inputs": [],
      "name": "price",
      "outputs": [
        {
          "internalType": "uint256",
          "name": "",
          "type": "uint256"
        }
      ],
      "stateMutability": "view",
      "type": "function"
    },
    {
      "inputs": [
        {
          "internalType": "address",
          "name": "from",
          "type": "address"
        },
        {
          "internalType": "address",
          "name": "to",
          "type": "address"
        },
        {
          "internalType": "uint256",
          "name": "tokenId",
          "type": "uint256"
        }
      ],
      "name": "safeTransferFrom",
      "outputs": [],
      "stateMutability": "nonpayable",
      "type": "function"
    },
    {
      "inputs": [
        {
          "internalType": "address",
          "name": "from",
          "type": "address"
        },
        {
          "internalType": "address",
          "name": "to",
          "type": "address"
        },
        {
          "internalType": "uint256",
          "name": "tokenId",
          "type": "uint256"
        },
        {
          "internalType": "bytes",
          "name": "_data",
          "type": "bytes"
        }
      ],
      "name": "safeTransferFrom",
      "outputs": [],
      "stateMutability": "nonpayable",
      "type": "function"
    },
    {
      "inputs": [
        {
          "internalType": "address",
          "name": "operator",
          "type": "address"
        },
        {
          "internalType": "bool",
          "name": "approved",
          "type": "bool"
        }
      ],
      "name": "setApprovalForAll",
      "outputs": [],
      "stateMutability": "nonpayable",
      "type": "function"
    },
    {
      "inputs": [],
      "name": "slots",
      "outputs": [
        {
          "internalType": "uint256",
          "name": "",
          "type": "uint256"
        }
      ],
      "stateMutability": "view",
      "type": "function"
    },
    {
      "inputs": [],
      "name": "sloz",
      "outputs": [
        {
          "internalType": "uint256",
          "name": "",
          "type": "uint256"
        }
      ],
      "stateMutability": "view",
      "type": "function"
    },
    {
      "inputs": [],
      "name": "start",
      "outputs": [
        {
          "internalType": "bool",
          "name": "",
          "type": "bool"
        }
      ],
      "stateMutability": "view",
      "type": "function"
    },
    {
      "inputs": [
        {
          "internalType": "uint256",
          "name": "",
          "type": "uint256"
        }
      ],
      "name": "status",
      "outputs": [
        {
          "internalType": "string",
          "name": "",
          "type": "string"
        }
      ],
      "stateMutability": "view",
      "type": "function"
    },
    {
      "inputs": [
        {
          "internalType": "bytes4",
          "name": "interfaceId",
          "type": "bytes4"
        }
      ],
      "name": "supportsInterface",
      "outputs": [
        {
          "internalType": "bool",
          "name": "",
          "type": "bool"
        }
      ],
      "stateMutability": "view",
      "type": "function"
    },
    {
      "inputs": [],
      "name": "sym",
      "outputs": [
        {
          "internalType": "string",
          "name": "",
          "type": "string"
        }
      ],
      "stateMutability": "view",
      "type": "function"
    },
    {
      "inputs": [],
      "name": "symbol",
      "outputs": [
        {
          "internalType": "string",
          "name": "",
          "type": "string"
        }
      ],
      "stateMutability": "view",
      "type": "function"
    },
    {
      "inputs": [
        {
          "internalType": "uint256",
          "name": "",
          "type": "uint256"
        }
      ],
      "name": "tid",
      "outputs": [
        {
          "internalType": "uint256",
          "name": "",
          "type": "uint256"
        }
      ],
      "stateMutability": "view",
      "type": "function"
    },
    {
      "inputs": [
        {
          "internalType": "uint256",
          "name": "tokenId",
          "type": "uint256"
        }
      ],
      "name": "tokenURI",
      "outputs": [
        {
          "internalType": "string",
          "name": "",
          "type": "string"
        }
      ],
      "stateMutability": "view",
      "type": "function"
    },
    {
      "inputs": [
        {
          "internalType": "address",
          "name": "from",
          "type": "address"
        },
        {
          "internalType": "address",
          "name": "to",
          "type": "address"
        },
        {
          "internalType": "uint256",
          "name": "tokenId",
          "type": "uint256"
        }
      ],
      "name": "transferFrom",
      "outputs": [],
      "stateMutability": "nonpayable",
      "type": "function"
    },
    {
      "inputs": [
        {
          "internalType": "address",
          "name": "_adr",
          "type": "address"
        }
      ],
      "name": "isOwner",
      "outputs": [
        {
          "internalType": "bool",
          "name": "",
          "type": "bool"
        }
      ],
      "stateMutability": "view",
      "type": "function"
    },
    {
      "inputs": [
        {
          "internalType": "uint256",
          "name": "_amnt",
          "type": "uint256"
        },
        {
          "internalType": "uint256[]",
          "name": "_diasIDs",
          "type": "uint256[]"
        },
        {
          "internalType": "string[]",
          "name": "_diasOBJs",
          "type": "string[]"
        }
      ],
      "name": "mint",
      "outputs": [
        {
          "internalType": "uint256",
          "name": "",
          "type": "uint256"
        }
      ],
      "stateMutability": "payable",
      "type": "function"
    },
    {
      "inputs": [
        {
          "internalType": "uint256[]",
          "name": "_diasIDs",
          "type": "uint256[]"
        },
        {
          "internalType": "string[]",
          "name": "_diasOBJs",
          "type": "string[]"
        }
      ],
      "name": "greenMint",
      "outputs": [
        {
          "internalType": "uint256",
          "name": "",
          "type": "uint256"
        }
      ],
      "stateMutability": "nonpayable",
      "type": "function"
    },
    {
      "inputs": [
        {
          "internalType": "uint256",
          "name": "_id",
          "type": "uint256"
        },
        {
          "internalType": "string",
          "name": "_status",
          "type": "string"
        }
      ],
      "name": "setStatus",
      "outputs": [
        {
          "internalType": "bool",
          "name": "",
          "type": "bool"
        }
      ],
      "stateMutability": "payable",
      "type": "function"
    },
    {
      "inputs": [],
      "name": "changeMintState",
      "outputs": [
        {
          "internalType": "bool",
          "name": "",
          "type": "bool"
        }
      ],
      "stateMutability": "nonpayable",
      "type": "function"
    },
    {
      "inputs": [
        {
          "internalType": "uint256",
          "name": "_id",
          "type": "uint256"
        }
      ],
      "name": "holder",
      "outputs": [
        {
          "internalType": "address",
          "name": "",
          "type": "address"
        }
      ],
      "stateMutability": "view",
      "type": "function"
    },
    {
      "inputs": [],
      "name": "flush",
      "outputs": [
        {
          "internalType": "uint256",
          "name": "",
          "type": "uint256"
        }
      ],
      "stateMutability": "nonpayable",
      "type": "function"
    },
    {
      "inputs": [
        {
          "internalType": "address",
          "name": "_erc",
          "type": "address"
        }
      ],
      "name": "flushERC20",
      "outputs": [
        {
          "internalType": "uint256",
          "name": "",
          "type": "uint256"
        }
      ],
      "stateMutability": "nonpayable",
      "type": "function"
    },
    {
      "inputs": [
        {
          "internalType": "address",
          "name": "_erc",
          "type": "address"
        },
        {
          "internalType": "uint256",
          "name": "_id",
          "type": "uint256"
        }
      ],
      "name": "flushERC721",
      "outputs": [
        {
          "internalType": "uint256",
          "name": "",
          "type": "uint256"
        }
      ],
      "stateMutability": "nonpayable",
      "type": "function"
    }
  ],
  "bytecode": "0x60806040523480156200001157600080fd5b5060405162004e7f38038062004e7f83398181016040528101906200003791906200025a565b6040518060400160405280601181526020017f46726f6f747920436f6f6c2054696e677a0000000000000000000000000000008152506040518060400160405280600381526020017f46464600000000000000000000000000000000000000000000000000000000008152508160009081620000b4919062000506565b508060019081620000c6919062000506565b50505060016008819055506001600b8190555033600660006101000a81548173ffffffffffffffffffffffffffffffffffffffff021916908373ffffffffffffffffffffffffffffffffffffffff1602179055506040518060400160405280601181526020017f46726f6f747920436f6f6c2054696e677a0000000000000000000000000000008152506009908162000160919062000506565b506040518060400160405280600581526020017f46524f4f54000000000000000000000000000000000000000000000000000000815250600a9081620001a7919062000506565b5080600760006101000a81548173ffffffffffffffffffffffffffffffffffffffff021916908373ffffffffffffffffffffffffffffffffffffffff16021790555050620005ed565b600080fd5b600073ffffffffffffffffffffffffffffffffffffffff82169050919050565b60006200022282620001f5565b9050919050565b620002348162000215565b81146200024057600080fd5b50565b600081519050620002548162000229565b92915050565b600060208284031215620002735762000272620001f0565b5b6000620002838482850162000243565b91505092915050565b600081519050919050565b7f4e487b7100000000000000000000000000000000000000000000000000000000600052604160045260246000fd5b7f4e487b7100000000000000000000000000000000000000000000000000000000600052602260045260246000fd5b600060028204905060018216806200030e57607f821691505b602082108103620003245762000323620002c6565b5b50919050565b60008190508160005260206000209050919050565b60006020601f8301049050919050565b600082821b905092915050565b6000600883026200038e7fffffffffffffffffffffffffffffffffffffffffffffffffffffffffffffffff826200034f565b6200039a86836200034f565b95508019841693508086168417925050509392505050565b6000819050919050565b6000819050919050565b6000620003e7620003e1620003db84620003b2565b620003bc565b620003b2565b9050919050565b6000819050919050565b6200040383620003c6565b6200041b6200041282620003ee565b8484546200035c565b825550505050565b600090565b6200043262000423565b6200043f818484620003f8565b505050565b5b8181101562000467576200045b60008262000428565b60018101905062000445565b5050565b601f821115620004b65762000480816200032a565b6200048b846200033f565b810160208510156200049b578190505b620004b3620004aa856200033f565b83018262000444565b50505b505050565b600082821c905092915050565b6000620004db60001984600802620004bb565b1980831691505092915050565b6000620004f68383620004c8565b9150826002028217905092915050565b62000511826200028c565b67ffffffffffffffff8111156200052d576200052c62000297565b5b620005398254620002f5565b620005468282856200046b565b600060209050601f8311600181146200057e576000841562000569578287015190505b620005758582620004e8565b865550620005e5565b601f1984166200058e866200032a565b60005b82811015620005b85784890151825560018201915060208501945060208101905062000591565b86831015620005d85784890151620005d4601f891682620004c8565b8355505b6001600288020188555050505b505050505050565b61488280620005fd6000396000f3fe60806040526004361061021a5760003560e01c806370a0823111610123578063a22cb465116100ab578063b8fc28cc1161006f578063b8fc28cc14610857578063ba899a2e14610894578063be9a6555146108d1578063c87b56dd146108fc578063e985e9c5146109395761021a565b8063a22cb46514610760578063a613e0e714610789578063ae943abc146107c6578063b524fd6f14610803578063b88d4fde1461082e5761021a565b80638da5cb5b116100f25780638da5cb5b1461067757806395d89b41146106a25780639af9bec0146106cd5780639b4f589f146106f8578063a035b1fe146107355761021a565b806370a08231146105a257806376917df9146105df5780637d23b33c1461060f57806383813a281461064c5761021a565b806342d21ef7116101a65780634f02c420116101755780634f02c420146104b95780636352211e146104e45780636ac5db19146105215780636b9f96ea1461054c5780636f743acd146105775761021a565b806342d21ef7146103e9578063477523c21461042657806348547d69146104635780634e70b1dc1461048e5761021a565b806320a7270d116101ed57806320a7270d146102ed578063216d534c1461031d57806323b872dd1461035a5780632f54bf6e1461038357806342842e0e146103c05761021a565b806301ffc9a71461021f57806306fdde031461025c578063081812fc14610287578063095ea7b3146102c4575b600080fd5b34801561022b57600080fd5b5061024660048036038101906102419190612bdb565b610976565b6040516102539190612c23565b60405180910390f35b34801561026857600080fd5b50610271610a58565b60405161027e9190612cce565b60405180910390f35b34801561029357600080fd5b506102ae60048036038101906102a99190612d26565b610aea565b6040516102bb9190612d94565b60405180910390f35b3480156102d057600080fd5b506102eb60048036038101906102e69190612ddb565b610b6f565b005b610307600480360381019061030291906130f9565b610c86565b6040516103149190613193565b60405180910390f35b34801561032957600080fd5b50610344600480360381019061033f9190612ddb565b610d93565b6040516103519190613193565b60405180910390f35b34801561036657600080fd5b50610381600480360381019061037c91906131ae565b610e34565b005b34801561038f57600080fd5b506103aa60048036038101906103a59190613201565b610e94565b6040516103b79190612c23565b60405180910390f35b3480156103cc57600080fd5b506103e760048036038101906103e291906131ae565b610efe565b005b3480156103f557600080fd5b50610410600480360381019061040b9190612d26565b610f1e565b60405161041d9190612cce565b60405180910390f35b34801561043257600080fd5b5061044d60048036038101906104489190613201565b610fbe565b60405161045a9190613193565b60405180910390f35b34801561046f57600080fd5b50610478611162565b6040516104859190613193565b60405180910390f35b34801561049a57600080fd5b506104a3611168565b6040516104b09190613193565b60405180910390f35b3480156104c557600080fd5b506104ce61116d565b6040516104db9190613193565b60405180910390f35b3480156104f057600080fd5b5061050b60048036038101906105069190612d26565b611173565b6040516105189190612d94565b60405180910390f35b34801561052d57600080fd5b50610536611224565b6040516105439190613193565b60405180910390f35b34801561055857600080fd5b5061056161122a565b60405161056e9190613193565b60405180910390f35b34801561058357600080fd5b5061058c61129b565b6040516105999190613193565b60405180910390f35b3480156105ae57600080fd5b506105c960048036038101906105c49190613201565b6112a1565b6040516105d69190613193565b60405180910390f35b6105f960048036038101906105f4919061322e565b611358565b6040516106069190612c23565b60405180910390f35b34801561061b57600080fd5b506106366004803603810190610631919061328a565b611536565b6040516106439190613193565b60405180910390f35b34801561065857600080fd5b50610661611736565b60405161066e9190612cce565b60405180910390f35b34801561068357600080fd5b5061068c6117c4565b6040516106999190612d94565b60405180910390f35b3480156106ae57600080fd5b506106b76117ea565b6040516106c49190612cce565b60405180910390f35b3480156106d957600080fd5b506106e261187c565b6040516106ef9190612cce565b60405180910390f35b34801561070457600080fd5b5061071f600480360381019061071a9190612d26565b61190a565b60405161072c9190613357565b60405180910390f35b34801561074157600080fd5b5061074a6119aa565b6040516107579190613193565b60405180910390f35b34801561076c57600080fd5b50610787600480360381019061078291906133a5565b6119b6565b005b34801561079557600080fd5b506107b060048036038101906107ab9190612d26565b6119cc565b6040516107bd9190612d94565b60405180910390f35b3480156107d257600080fd5b506107ed60048036038101906107e89190612d26565b6119ff565b6040516107fa9190613193565b60405180910390f35b34801561080f57600080fd5b50610818611a17565b6040516108259190612c23565b60405180910390f35b34801561083a57600080fd5b5061085560048036038101906108509190613486565b611aa1565b005b34801561086357600080fd5b5061087e60048036038101906108799190613201565b611b03565b60405161088b9190612c23565b60405180910390f35b3480156108a057600080fd5b506108bb60048036038101906108b69190612d26565b611b23565b6040516108c89190612d94565b60405180910390f35b3480156108dd57600080fd5b506108e6611b35565b6040516108f39190612c23565b60405180910390f35b34801561090857600080fd5b50610923600480360381019061091e9190612d26565b611b48565b6040516109309190612cce565b60405180910390f35b34801561094557600080fd5b50610960600480360381019061095b9190613509565b611bef565b60405161096d9190612c23565b60405180910390f35b60007f80ac58cd000000000000000000000000000000000000000000000000000000007bffffffffffffffffffffffffffffffffffffffffffffffffffffffff1916827bffffffffffffffffffffffffffffffffffffffffffffffffffffffff19161480610a4157507f5b5e139f000000000000000000000000000000000000000000000000000000007bffffffffffffffffffffffffffffffffffffffffffffffffffffffff1916827bffffffffffffffffffffffffffffffffffffffffffffffffffffffff1916145b80610a515750610a5082611c83565b5b9050919050565b606060008054610a6790613578565b80601f0160208091040260200160405190810160405280929190818152602001828054610a9390613578565b8015610ae05780601f10610ab557610100808354040283529160200191610ae0565b820191906000526020600020905b815481529060010190602001808311610ac357829003601f168201915b5050505050905090565b6000610af582611ced565b610b34576040517f08c379a0000000000000000000000000000000000000000000000000000000008152600401610b2b9061361b565b60405180910390fd5b6004600083815260200190815260200160002060009054906101000a900473ffffffffffffffffffffffffffffffffffffffff169050919050565b6000610b7a82611173565b90508073ffffffffffffffffffffffffffffffffffffffff168373ffffffffffffffffffffffffffffffffffffffff1603610bea576040517f08c379a0000000000000000000000000000000000000000000000000000000008152600401610be1906136ad565b60405180910390fd5b8073ffffffffffffffffffffffffffffffffffffffff16610c09611d59565b73ffffffffffffffffffffffffffffffffffffffff161480610c385750610c3781610c32611d59565b611bef565b5b610c77576040517f08c379a0000000000000000000000000000000000000000000000000000000008152600401610c6e9061373f565b60405180910390fd5b610c818383611d61565b505050565b600061138860085410610cce576040517f08c379a0000000000000000000000000000000000000000000000000000000008152600401610cc5906137ab565b60405180910390fd5b674563918244f4000084610ce291906137fa565b341015610d24576040517f08c379a0000000000000000000000000000000000000000000000000000000008152600401610d1b906138a0565b60405180910390fd5b60011515600c60009054906101000a900460ff16151514610d7a576040517f08c379a0000000000000000000000000000000000000000000000000000000008152600401610d719061390c565b60405180910390fd5b610d8684338585611e1a565b5060085490509392505050565b6000808390508073ffffffffffffffffffffffffffffffffffffffff166323b872dd30600660009054906101000a900473ffffffffffffffffffffffffffffffffffffffff16866040518463ffffffff1660e01b8152600401610df89392919061392c565b600060405180830381600087803b158015610e1257600080fd5b505af1158015610e26573d6000803e3d6000fd5b505050508291505092915050565b610e45610e3f611d59565b826120d6565b610e84576040517f08c379a0000000000000000000000000000000000000000000000000000000008152600401610e7b906139d5565b60405180910390fd5b610e8f8383836121b4565b505050565b6000600660009054906101000a900473ffffffffffffffffffffffffffffffffffffffff1673ffffffffffffffffffffffffffffffffffffffff168273ffffffffffffffffffffffffffffffffffffffff1603610ef45760019050610ef9565b600090505b919050565b610f1983838360405180602001604052806000815250611aa1565b505050565b60106020528060005260406000206000915090508054610f3d90613578565b80601f0160208091040260200160405190810160405280929190818152602001828054610f6990613578565b8015610fb65780601f10610f8b57610100808354040283529160200191610fb6565b820191906000526020600020905b815481529060010190602001808311610f9957829003601f168201915b505050505081565b6000808290508073ffffffffffffffffffffffffffffffffffffffff166323b872dd30600660009054906101000a900473ffffffffffffffffffffffffffffffffffffffff168473ffffffffffffffffffffffffffffffffffffffff166370a08231306040518263ffffffff1660e01b815260040161103d9190612d94565b602060405180830381865afa15801561105a573d6000803e3d6000fd5b505050506040513d601f19601f8201168201806040525081019061107e9190613a0a565b6040518463ffffffff1660e01b815260040161109c9392919061392c565b6020604051808303816000875af11580156110bb573d6000803e3d6000fd5b505050506040513d601f19601f820116820180604052508101906110df9190613a4c565b508073ffffffffffffffffffffffffffffffffffffffff166370a08231306040518263ffffffff1660e01b81526004016111199190612d94565b602060405180830381865afa158015611136573d6000803e3d6000fd5b505050506040513d601f19601f8201168201806040525081019061115a9190613a0a565b915050919050565b600b5481565b600181565b60085481565b6000806002600084815260200190815260200160002060009054906101000a900473ffffffffffffffffffffffffffffffffffffffff169050600073ffffffffffffffffffffffffffffffffffffffff168173ffffffffffffffffffffffffffffffffffffffff160361121b576040517f08c379a000000000000000000000000000000000000000000000000000000000815260040161121290613aeb565b60405180910390fd5b80915050919050565b61138881565b6000600660009054906101000a900473ffffffffffffffffffffffffffffffffffffffff1673ffffffffffffffffffffffffffffffffffffffff166108fc479081150290604051600060405180830381858888f19350505050158015611294573d6000803e3d6000fd5b5047905090565b6104d281565b60008073ffffffffffffffffffffffffffffffffffffffff168273ffffffffffffffffffffffffffffffffffffffff1603611311576040517f08c379a000000000000000000000000000000000000000000000000000000000815260040161130890613b7d565b60405180910390fd5b600360008373ffffffffffffffffffffffffffffffffffffffff1673ffffffffffffffffffffffffffffffffffffffff168152602001908152602001600020549050919050565b60003373ffffffffffffffffffffffffffffffffffffffff166011600085815260200190815260200160002060009054906101000a900473ffffffffffffffffffffffffffffffffffffffff1673ffffffffffffffffffffffffffffffffffffffff16146113fb576040517f08c379a00000000000000000000000000000000000000000000000000000000081526004016113f290613be9565b60405180910390fd5b60001515600c60009054906101000a900460ff16151514611451576040517f08c379a000000000000000000000000000000000000000000000000000000000815260040161144890613c55565b60405180910390fd5b670de0b6b3a764000034101561146657600080fd5b6000600760009054906101000a900473ffffffffffffffffffffffffffffffffffffffff1690508073ffffffffffffffffffffffffffffffffffffffff1663fdb5fefc336040518263ffffffff1660e01b81526004016114c69190612d94565b6020604051808303816000875af11580156114e5573d6000803e3d6000fd5b505050506040513d601f19601f820116820180604052508101906115099190613a4c565b508260106000868152602001908152602001600020908161152a9190613e21565b50600191505092915050565b60006113886008541061157e576040517f08c379a0000000000000000000000000000000000000000000000000000000008152600401611575906137ab565b60405180910390fd5b60011515600c60009054906101000a900460ff161515146115d4576040517f08c379a00000000000000000000000000000000000000000000000000000000081526004016115cb9061390c565b60405180910390fd5b60011515600d60003373ffffffffffffffffffffffffffffffffffffffff1673ffffffffffffffffffffffffffffffffffffffff16815260200190815260200160002060009054906101000a900460ff16151514611667576040517f08c379a000000000000000000000000000000000000000000000000000000000815260040161165e90613f3f565b60405180910390fd5b6104d2600b54106116ad576040517f08c379a00000000000000000000000000000000000000000000000000000000081526004016116a490613fab565b60405180910390fd5b6116ba6001338585611e1a565b506000600d60003373ffffffffffffffffffffffffffffffffffffffff1673ffffffffffffffffffffffffffffffffffffffff16815260200190815260200160002060006101000a81548160ff021916908315150217905550600b600081548092919061172690613fcb565b9190505550600854905092915050565b600a805461174390613578565b80601f016020809104026020016040519081016040528092919081815260200182805461176f90613578565b80156117bc5780601f10611791576101008083540402835291602001916117bc565b820191906000526020600020905b81548152906001019060200180831161179f57829003601f168201915b505050505081565b600660009054906101000a900473ffffffffffffffffffffffffffffffffffffffff1681565b6060600180546117f990613578565b80601f016020809104026020016040519081016040528092919081815260200182805461182590613578565b80156118725780601f1061184757610100808354040283529160200191611872565b820191906000526020600020905b81548152906001019060200180831161185557829003601f168201915b5050505050905090565b6009805461188990613578565b80601f01602080910402602001604051908101604052809291908181526020018280546118b590613578565b80156119025780601f106118d757610100808354040283529160200191611902565b820191906000526020600020905b8154815290600101906020018083116118e557829003601f168201915b505050505081565b600e602052806000526040600020600091509050805461192990613578565b80601f016020809104026020016040519081016040528092919081815260200182805461195590613578565b80156119a25780601f10611977576101008083540402835291602001916119a2565b820191906000526020600020905b81548152906001019060200180831161198557829003601f168201915b505050505081565b674563918244f4000081565b6119c86119c1611d59565b838361240f565b5050565b60116020528060005260406000206000915054906101000a900473ffffffffffffffffffffffffffffffffffffffff1681565b600f6020528060005260406000206000915090505481565b6000600660009054906101000a900473ffffffffffffffffffffffffffffffffffffffff1673ffffffffffffffffffffffffffffffffffffffff163373ffffffffffffffffffffffffffffffffffffffff1614611a7357600080fd5b600c60009054906101000a900460ff1615600c60006101000a81548160ff0219169083151502179055905090565b611ab2611aac611d59565b836120d6565b611af1576040517f08c379a0000000000000000000000000000000000000000000000000000000008152600401611ae8906139d5565b60405180910390fd5b611afd8484848461257b565b50505050565b600d6020528060005260406000206000915054906101000a900460ff1681565b6000611b2e82611173565b9050919050565b600c60009054906101000a900460ff1681565b6060611b5382611ced565b611b92576040517f08c379a0000000000000000000000000000000000000000000000000000000008152600401611b8990614085565b60405180910390fd5b6000611b9c6125d7565b90506000815111611bbc5760405180602001604052806000815250611be7565b80611bc6846125ee565b604051602001611bd79291906140e1565b6040516020818303038152906040525b915050919050565b6000600560008473ffffffffffffffffffffffffffffffffffffffff1673ffffffffffffffffffffffffffffffffffffffff16815260200190815260200160002060008373ffffffffffffffffffffffffffffffffffffffff1673ffffffffffffffffffffffffffffffffffffffff16815260200190815260200160002060009054906101000a900460ff16905092915050565b60007f01ffc9a7000000000000000000000000000000000000000000000000000000007bffffffffffffffffffffffffffffffffffffffffffffffffffffffff1916827bffffffffffffffffffffffffffffffffffffffffffffffffffffffff1916149050919050565b60008073ffffffffffffffffffffffffffffffffffffffff166002600084815260200190815260200160002060009054906101000a900473ffffffffffffffffffffffffffffffffffffffff1673ffffffffffffffffffffffffffffffffffffffff1614159050919050565b600033905090565b816004600083815260200190815260200160002060006101000a81548173ffffffffffffffffffffffffffffffffffffffff021916908373ffffffffffffffffffffffffffffffffffffffff160217905550808273ffffffffffffffffffffffffffffffffffffffff16611dd483611173565b73ffffffffffffffffffffffffffffffffffffffff167f8c5be1e5ebec7d5bd14f71427d1e84f3dd0314c0f7b2291e5b200ac8c7c3b92560405160405180910390a45050565b6000600185611e28866112a1565b611e329190614105565b1115611e73576040517f08c379a0000000000000000000000000000000000000000000000000000000008152600401611e6a90614185565b60405180910390fd5b61138885600854611e849190614105565b1115611ec5576040517f08c379a0000000000000000000000000000000000000000000000000000000008152600401611ebc906141f1565b60405180910390fd5b611f068484600081518110611edd57611edc614211565b5b602002602001015184600081518110611ef957611ef8614211565b5b602002602001015161274e565b50600285106120c957611f508484600081518110611f2757611f26614211565b5b602002602001015184600081518110611f4357611f42614211565b5b602002602001015161274e565b50600385106120c857611f9a8484600081518110611f7157611f70614211565b5b602002602001015184600081518110611f8d57611f8c614211565b5b602002602001015161274e565b50600485106120c757611fe48484600081518110611fbb57611fba614211565b5b602002602001015184600081518110611fd757611fd6614211565b5b602002602001015161274e565b50600585106120c65761202e848460008151811061200557612004614211565b5b60200260200101518460008151811061202157612020614211565b5b602002602001015161274e565b50600685106120c557612078848460008151811061204f5761204e614211565b5b60200260200101518460008151811061206b5761206a614211565b5b602002602001015161274e565b50600785106120c4576120c2848460008151811061209957612098614211565b5b6020026020010151846000815181106120b5576120b4614211565b5b602002602001015161274e565b505b5b5b5b5b5b6008549050949350505050565b60006120e182611ced565b612120576040517f08c379a0000000000000000000000000000000000000000000000000000000008152600401612117906142b2565b60405180910390fd5b600061212b83611173565b90508073ffffffffffffffffffffffffffffffffffffffff168473ffffffffffffffffffffffffffffffffffffffff16148061219a57508373ffffffffffffffffffffffffffffffffffffffff1661218284610aea565b73ffffffffffffffffffffffffffffffffffffffff16145b806121ab57506121aa8185611bef565b5b91505092915050565b8273ffffffffffffffffffffffffffffffffffffffff166121d482611173565b73ffffffffffffffffffffffffffffffffffffffff161461222a576040517f08c379a000000000000000000000000000000000000000000000000000000000815260040161222190614344565b60405180910390fd5b600073ffffffffffffffffffffffffffffffffffffffff168273ffffffffffffffffffffffffffffffffffffffff1603612299576040517f08c379a0000000000000000000000000000000000000000000000000000000008152600401612290906143d6565b60405180910390fd5b6122a4838383612803565b6122af600082611d61565b6001600360008573ffffffffffffffffffffffffffffffffffffffff1673ffffffffffffffffffffffffffffffffffffffff16815260200190815260200160002060008282546122ff91906143f6565b925050819055506001600360008473ffffffffffffffffffffffffffffffffffffffff1673ffffffffffffffffffffffffffffffffffffffff16815260200190815260200160002060008282546123569190614105565b92505081905550816002600083815260200190815260200160002060006101000a81548173ffffffffffffffffffffffffffffffffffffffff021916908373ffffffffffffffffffffffffffffffffffffffff160217905550808273ffffffffffffffffffffffffffffffffffffffff168473ffffffffffffffffffffffffffffffffffffffff167fddf252ad1be2c89b69c2b068fc378daa952ba7f163c4a11628f55a4df523b3ef60405160405180910390a4505050565b8173ffffffffffffffffffffffffffffffffffffffff168373ffffffffffffffffffffffffffffffffffffffff160361247d576040517f08c379a000000000000000000000000000000000000000000000000000000000815260040161247490614476565b60405180910390fd5b80600560008573ffffffffffffffffffffffffffffffffffffffff1673ffffffffffffffffffffffffffffffffffffffff16815260200190815260200160002060008473ffffffffffffffffffffffffffffffffffffffff1673ffffffffffffffffffffffffffffffffffffffff16815260200190815260200160002060006101000a81548160ff0219169083151502179055508173ffffffffffffffffffffffffffffffffffffffff168373ffffffffffffffffffffffffffffffffffffffff167f17307eab39ab6107e8899845ad3d59bd9653f200f220920489ca2b5937696c318360405161256e9190612c23565b60405180910390a3505050565b6125868484846121b4565b61259284848484612808565b6125d1576040517f08c379a00000000000000000000000000000000000000000000000000000000081526004016125c890614508565b60405180910390fd5b50505050565b606060405180602001604052806000815250905090565b606060008203612635576040518060400160405280600181526020017f30000000000000000000000000000000000000000000000000000000000000008152509050612749565b600082905060005b6000821461266757808061265090613fcb565b915050600a826126609190614557565b915061263d565b60008167ffffffffffffffff81111561268357612682612e20565b5b6040519080825280601f01601f1916602001820160405280156126b55781602001600182028036833780820191505090505b5090505b60008514612742576001826126ce91906143f6565b9150600a856126dd9190614588565b60306126e99190614105565b60f81b8183815181106126ff576126fe614211565b5b60200101907effffffffffffffffffffffffffffffffffffffffffffffffffffffffffffff1916908160001a905350600a8561273b9190614557565b94506126b9565b8093505050505b919050565b600061275c8460085461298f565b82600f600060085481526020019081526020016000208190555081600e6000600854815260200190815260200160002090816127989190614614565b50600854601260008673ffffffffffffffffffffffffffffffffffffffff1673ffffffffffffffffffffffffffffffffffffffff16815260200190815260200160002081905550600860008154809291906127f290613fcb565b919050555060085490509392505050565b505050565b60006128298473ffffffffffffffffffffffffffffffffffffffff16612b5c565b15612982578373ffffffffffffffffffffffffffffffffffffffff1663150b7a02612852611d59565b8786866040518563ffffffff1660e01b815260040161287494939291906146e6565b6020604051808303816000875af19250505080156128b057506040513d601f19601f820116820180604052508101906128ad9190614747565b60015b612932573d80600081146128e0576040519150601f19603f3d011682016040523d82523d6000602084013e6128e5565b606091505b50600081510361292a576040517f08c379a000000000000000000000000000000000000000000000000000000000815260040161292190614508565b60405180910390fd5b805181602001fd5b63150b7a0260e01b7bffffffffffffffffffffffffffffffffffffffffffffffffffffffff1916817bffffffffffffffffffffffffffffffffffffffffffffffffffffffff191614915050612987565b600190505b949350505050565b600073ffffffffffffffffffffffffffffffffffffffff168273ffffffffffffffffffffffffffffffffffffffff16036129fe576040517f08c379a00000000000000000000000000000000000000000000000000000000081526004016129f5906147c0565b60405180910390fd5b612a0781611ced565b15612a47576040517f08c379a0000000000000000000000000000000000000000000000000000000008152600401612a3e9061482c565b60405180910390fd5b612a5360008383612803565b6001600360008473ffffffffffffffffffffffffffffffffffffffff1673ffffffffffffffffffffffffffffffffffffffff1681526020019081526020016000206000828254612aa39190614105565b92505081905550816002600083815260200190815260200160002060006101000a81548173ffffffffffffffffffffffffffffffffffffffff021916908373ffffffffffffffffffffffffffffffffffffffff160217905550808273ffffffffffffffffffffffffffffffffffffffff16600073ffffffffffffffffffffffffffffffffffffffff167fddf252ad1be2c89b69c2b068fc378daa952ba7f163c4a11628f55a4df523b3ef60405160405180910390a45050565b600080823b905060008111915050919050565b6000604051905090565b600080fd5b600080fd5b60007fffffffff0000000000000000000000000000000000000000000000000000000082169050919050565b612bb881612b83565b8114612bc357600080fd5b50565b600081359050612bd581612baf565b92915050565b600060208284031215612bf157612bf0612b79565b5b6000612bff84828501612bc6565b91505092915050565b60008115159050919050565b612c1d81612c08565b82525050565b6000602082019050612c386000830184612c14565b92915050565b600081519050919050565b600082825260208201905092915050565b60005b83811015612c78578082015181840152602081019050612c5d565b60008484015250505050565b6000601f19601f8301169050919050565b6000612ca082612c3e565b612caa8185612c49565b9350612cba818560208601612c5a565b612cc381612c84565b840191505092915050565b60006020820190508181036000830152612ce88184612c95565b905092915050565b6000819050919050565b612d0381612cf0565b8114612d0e57600080fd5b50565b600081359050612d2081612cfa565b92915050565b600060208284031215612d3c57612d3b612b79565b5b6000612d4a84828501612d11565b91505092915050565b600073ffffffffffffffffffffffffffffffffffffffff82169050919050565b6000612d7e82612d53565b9050919050565b612d8e81612d73565b82525050565b6000602082019050612da96000830184612d85565b92915050565b612db881612d73565b8114612dc357600080fd5b50565b600081359050612dd581612daf565b92915050565b60008060408385031215612df257612df1612b79565b5b6000612e0085828601612dc6565b9250506020612e1185828601612d11565b9150509250929050565b600080fd5b7f4e487b7100000000000000000000000000000000000000000000000000000000600052604160045260246000fd5b612e5882612c84565b810181811067ffffffffffffffff82111715612e7757612e76612e20565b5b80604052505050565b6000612e8a612b6f565b9050612e968282612e4f565b919050565b600067ffffffffffffffff821115612eb657612eb5612e20565b5b602082029050602081019050919050565b600080fd5b6000612edf612eda84612e9b565b612e80565b90508083825260208201905060208402830185811115612f0257612f01612ec7565b5b835b81811015612f2b5780612f178882612d11565b845260208401935050602081019050612f04565b5050509392505050565b600082601f830112612f4a57612f49612e1b565b5b8135612f5a848260208601612ecc565b91505092915050565b600067ffffffffffffffff821115612f7e57612f7d612e20565b5b602082029050602081019050919050565b600080fd5b600067ffffffffffffffff821115612faf57612fae612e20565b5b612fb882612c84565b9050602081019050919050565b82818337600083830152505050565b6000612fe7612fe284612f94565b612e80565b90508281526020810184848401111561300357613002612f8f565b5b61300e848285612fc5565b509392505050565b600082601f83011261302b5761302a612e1b565b5b813561303b848260208601612fd4565b91505092915050565b600061305761305284612f63565b612e80565b9050808382526020820190506020840283018581111561307a57613079612ec7565b5b835b818110156130c157803567ffffffffffffffff81111561309f5761309e612e1b565b5b8086016130ac8982613016565b8552602085019450505060208101905061307c565b5050509392505050565b600082601f8301126130e0576130df612e1b565b5b81356130f0848260208601613044565b91505092915050565b60008060006060848603121561311257613111612b79565b5b600061312086828701612d11565b935050602084013567ffffffffffffffff81111561314157613140612b7e565b5b61314d86828701612f35565b925050604084013567ffffffffffffffff81111561316e5761316d612b7e565b5b61317a868287016130cb565b9150509250925092565b61318d81612cf0565b82525050565b60006020820190506131a86000830184613184565b92915050565b6000806000606084860312156131c7576131c6612b79565b5b60006131d586828701612dc6565b93505060206131e686828701612dc6565b92505060406131f786828701612d11565b9150509250925092565b60006020828403121561321757613216612b79565b5b600061322584828501612dc6565b91505092915050565b6000806040838503121561324557613244612b79565b5b600061325385828601612d11565b925050602083013567ffffffffffffffff81111561327457613273612b7e565b5b61328085828601613016565b9150509250929050565b600080604083850312156132a1576132a0612b79565b5b600083013567ffffffffffffffff8111156132bf576132be612b7e565b5b6132cb85828601612f35565b925050602083013567ffffffffffffffff8111156132ec576132eb612b7e565b5b6132f8858286016130cb565b9150509250929050565b600081519050919050565b600082825260208201905092915050565b600061332982613302565b613333818561330d565b9350613343818560208601612c5a565b61334c81612c84565b840191505092915050565b60006020820190508181036000830152613371818461331e565b905092915050565b61338281612c08565b811461338d57600080fd5b50565b60008135905061339f81613379565b92915050565b600080604083850312156133bc576133bb612b79565b5b60006133ca85828601612dc6565b92505060206133db85828601613390565b9150509250929050565b600067ffffffffffffffff821115613400576133ff612e20565b5b61340982612c84565b9050602081019050919050565b6000613429613424846133e5565b612e80565b90508281526020810184848401111561344557613444612f8f565b5b613450848285612fc5565b509392505050565b600082601f83011261346d5761346c612e1b565b5b813561347d848260208601613416565b91505092915050565b600080600080608085870312156134a05761349f612b79565b5b60006134ae87828801612dc6565b94505060206134bf87828801612dc6565b93505060406134d087828801612d11565b925050606085013567ffffffffffffffff8111156134f1576134f0612b7e565b5b6134fd87828801613458565b91505092959194509250565b600080604083850312156135205761351f612b79565b5b600061352e85828601612dc6565b925050602061353f85828601612dc6565b9150509250929050565b7f4e487b7100000000000000000000000000000000000000000000000000000000600052602260045260246000fd5b6000600282049050600182168061359057607f821691505b6020821081036135a3576135a2613549565b5b50919050565b7f4552433732313a20617070726f76656420717565727920666f72206e6f6e657860008201527f697374656e7420746f6b656e0000000000000000000000000000000000000000602082015250565b6000613605602c83612c49565b9150613610826135a9565b604082019050919050565b60006020820190508181036000830152613634816135f8565b9050919050565b7f4552433732313a20617070726f76616c20746f2063757272656e74206f776e6560008201527f7200000000000000000000000000000000000000000000000000000000000000602082015250565b6000613697602183612c49565b91506136a28261363b565b604082019050919050565b600060208201905081810360008301526136c68161368a565b9050919050565b7f4552433732313a20617070726f76652063616c6c6572206973206e6f74206f7760008201527f6e6572206e6f7220617070726f76656420666f7220616c6c0000000000000000602082015250565b6000613729603883612c49565b9150613734826136cd565b604082019050919050565b600060208201905081810360008301526137588161371c565b9050919050565b7f534f4c44204f5554000000000000000000000000000000000000000000000000600082015250565b6000613795600883612c49565b91506137a08261375f565b602082019050919050565b600060208201905081810360008301526137c481613788565b9050919050565b7f4e487b7100000000000000000000000000000000000000000000000000000000600052601160045260246000fd5b600061380582612cf0565b915061381083612cf0565b9250817fffffffffffffffffffffffffffffffffffffffffffffffffffffffffffffffff0483118215151615613849576138486137cb565b5b828202905092915050565b7f494e5355464649434945542046554e4453000000000000000000000000000000600082015250565b600061388a601183612c49565b915061389582613854565b602082019050919050565b600060208201905081810360008301526138b98161387d565b9050919050565b7f4d494e54204953204e4f5420594554204c495645000000000000000000000000600082015250565b60006138f6601483612c49565b9150613901826138c0565b602082019050919050565b60006020820190508181036000830152613925816138e9565b9050919050565b60006060820190506139416000830186612d85565b61394e6020830185612d85565b61395b6040830184613184565b949350505050565b7f4552433732313a207472616e736665722063616c6c6572206973206e6f74206f60008201527f776e6572206e6f7220617070726f766564000000000000000000000000000000602082015250565b60006139bf603183612c49565b91506139ca82613963565b604082019050919050565b600060208201905081810360008301526139ee816139b2565b9050919050565b600081519050613a0481612cfa565b92915050565b600060208284031215613a2057613a1f612b79565b5b6000613a2e848285016139f5565b91505092915050565b600081519050613a4681613379565b92915050565b600060208284031215613a6257613a61612b79565b5b6000613a7084828501613a37565b91505092915050565b7f4552433732313a206f776e657220717565727920666f72206e6f6e657869737460008201527f656e7420746f6b656e0000000000000000000000000000000000000000000000602082015250565b6000613ad5602983612c49565b9150613ae082613a79565b604082019050919050565b60006020820190508181036000830152613b0481613ac8565b9050919050565b7f4552433732313a2062616c616e636520717565727920666f7220746865207a6560008201527f726f206164647265737300000000000000000000000000000000000000000000602082015250565b6000613b67602a83612c49565b9150613b7282613b0b565b604082019050919050565b60006020820190508181036000830152613b9681613b5a565b9050919050565b7f594f5520415245204e4f542054484520484f4c44455200000000000000000000600082015250565b6000613bd3601683612c49565b9150613bde82613b9d565b602082019050919050565b60006020820190508181036000830152613c0281613bc6565b9050919050565b7f4d494e54204953205354494c4c20494e2050524f475245535300000000000000600082015250565b6000613c3f601983612c49565b9150613c4a82613c09565b602082019050919050565b60006020820190508181036000830152613c6e81613c32565b9050919050565b60008190508160005260206000209050919050565b60006020601f8301049050919050565b600082821b905092915050565b600060088302613cd77fffffffffffffffffffffffffffffffffffffffffffffffffffffffffffffffff82613c9a565b613ce18683613c9a565b95508019841693508086168417925050509392505050565b6000819050919050565b6000613d1e613d19613d1484612cf0565b613cf9565b612cf0565b9050919050565b6000819050919050565b613d3883613d03565b613d4c613d4482613d25565b848454613ca7565b825550505050565b600090565b613d61613d54565b613d6c818484613d2f565b505050565b5b81811015613d9057613d85600082613d59565b600181019050613d72565b5050565b601f821115613dd557613da681613c75565b613daf84613c8a565b81016020851015613dbe578190505b613dd2613dca85613c8a565b830182613d71565b50505b505050565b600082821c905092915050565b6000613df860001984600802613dda565b1980831691505092915050565b6000613e118383613de7565b9150826002028217905092915050565b613e2a82612c3e565b67ffffffffffffffff811115613e4357613e42612e20565b5b613e4d8254613578565b613e58828285613d94565b600060209050601f831160018114613e8b5760008415613e79578287015190505b613e838582613e05565b865550613eeb565b601f198416613e9986613c75565b60005b82811015613ec157848901518255600182019150602085019450602081019050613e9c565b86831015613ede5784890151613eda601f891682613de7565b8355505b6001600288020188555050505b505050505050565b7f594f5520415245204e4f5420475245454e4c4953544544000000000000000000600082015250565b6000613f29601783612c49565b9150613f3482613ef3565b602082019050919050565b60006020820190508181036000830152613f5881613f1c565b9050919050565b7f414c4c20534c4f54532048415645204245454e204d494e544544000000000000600082015250565b6000613f95601a83612c49565b9150613fa082613f5f565b602082019050919050565b60006020820190508181036000830152613fc481613f88565b9050919050565b6000613fd682612cf0565b91507fffffffffffffffffffffffffffffffffffffffffffffffffffffffffffffffff8203614008576140076137cb565b5b600182019050919050565b7f4552433732314d657461646174613a2055524920717565727920666f72206e6f60008201527f6e6578697374656e7420746f6b656e0000000000000000000000000000000000602082015250565b600061406f602f83612c49565b915061407a82614013565b604082019050919050565b6000602082019050818103600083015261409e81614062565b9050919050565b600081905092915050565b60006140bb82612c3e565b6140c581856140a5565b93506140d5818560208601612c5a565b80840191505092915050565b60006140ed82856140b0565b91506140f982846140b0565b91508190509392505050565b600061411082612cf0565b915061411b83612cf0565b9250828201905080821115614133576141326137cb565b5b92915050565b7f4558434545444544204d4158204d494e5441424c4520544f4b454e5300000000600082015250565b600061416f601c83612c49565b915061417a82614139565b602082019050919050565b6000602082019050818103600083015261419e81614162565b9050919050565b7f4e4f5420454e4f55474820535550504c59000000000000000000000000000000600082015250565b60006141db601183612c49565b91506141e6826141a5565b602082019050919050565b6000602082019050818103600083015261420a816141ce565b9050919050565b7f4e487b7100000000000000000000000000000000000000000000000000000000600052603260045260246000fd5b7f4552433732313a206f70657261746f7220717565727920666f72206e6f6e657860008201527f697374656e7420746f6b656e0000000000000000000000000000000000000000602082015250565b600061429c602c83612c49565b91506142a782614240565b604082019050919050565b600060208201905081810360008301526142cb8161428f565b9050919050565b7f4552433732313a207472616e73666572206f6620746f6b656e2074686174206960008201527f73206e6f74206f776e0000000000000000000000000000000000000000000000602082015250565b600061432e602983612c49565b9150614339826142d2565b604082019050919050565b6000602082019050818103600083015261435d81614321565b9050919050565b7f4552433732313a207472616e7366657220746f20746865207a65726f2061646460008201527f7265737300000000000000000000000000000000000000000000000000000000602082015250565b60006143c0602483612c49565b91506143cb82614364565b604082019050919050565b600060208201905081810360008301526143ef816143b3565b9050919050565b600061440182612cf0565b915061440c83612cf0565b9250828203905081811115614424576144236137cb565b5b92915050565b7f4552433732313a20617070726f766520746f2063616c6c657200000000000000600082015250565b6000614460601983612c49565b915061446b8261442a565b602082019050919050565b6000602082019050818103600083015261448f81614453565b9050919050565b7f4552433732313a207472616e7366657220746f206e6f6e20455243373231526560008201527f63656976657220696d706c656d656e7465720000000000000000000000000000602082015250565b60006144f2603283612c49565b91506144fd82614496565b604082019050919050565b60006020820190508181036000830152614521816144e5565b9050919050565b7f4e487b7100000000000000000000000000000000000000000000000000000000600052601260045260246000fd5b600061456282612cf0565b915061456d83612cf0565b92508261457d5761457c614528565b5b828204905092915050565b600061459382612cf0565b915061459e83612cf0565b9250826145ae576145ad614528565b5b828206905092915050565b60008190508160005260206000209050919050565b601f82111561460f576145e0816145b9565b6145e984613c8a565b810160208510156145f8578190505b61460c61460485613c8a565b830182613d71565b50505b505050565b61461d82613302565b67ffffffffffffffff81111561463657614635612e20565b5b6146408254613578565b61464b8282856145ce565b600060209050601f83116001811461467e576000841561466c578287015190505b6146768582613e05565b8655506146de565b601f19841661468c866145b9565b60005b828110156146b45784890151825560018201915060208501945060208101905061468f565b868310156146d157848901516146cd601f891682613de7565b8355505b6001600288020188555050505b505050505050565b60006080820190506146fb6000830187612d85565b6147086020830186612d85565b6147156040830185613184565b8181036060830152614727818461331e565b905095945050505050565b60008151905061474181612baf565b92915050565b60006020828403121561475d5761475c612b79565b5b600061476b84828501614732565b91505092915050565b7f4552433732313a206d696e7420746f20746865207a65726f2061646472657373600082015250565b60006147aa602083612c49565b91506147b582614774565b602082019050919050565b600060208201905081810360008301526147d98161479d565b9050919050565b7f4552433732313a20746f6b656e20616c7265616479206d696e74656400000000600082015250565b6000614816601c83612c49565b9150614821826147e0565b602082019050919050565b6000602082019050818103600083015261484581614809565b905091905056fea2646970667358221220e25dc858ff7f38a175d7a447def88a7e6ab296b30c3045c6f89967d419a6c5d364736f6c63430008100033",
  "immutableReferences": {},
  "source": "// SPDX-License-Identifier: MIT\npragma solidity ^0.8.10;\n\nimport \"@openzeppelin/contracts/token/ERC20/ERC20.sol\";\nimport \"@openzeppelin/contracts/token/ERC721/ERC721.sol\";\nimport \"./ICE.sol\";\n\ncontract FrootyCoolTingz is ERC721 {\n    // Public Constants\n    uint256 public constant price = 5 * 10**18; // PRICE VAL\n    uint256 public constant num = 1; // MAX MINTS / WALLET\n    uint256 public constant max = 5000; // MAX TOTAL MINTS\n    uint256 public constant sloz = 1234; // MAX FREE MINTS\n    // Public Variables\n    address public owner; // CONTRACT OWNER\n    address iceAdr;\n    uint256 public minted; // TOKENS MINTED 1-5000\n    string public nam; // TOKEN NAME\n    string public sym; // TOKEN SYMBOL\n    uint256 public slots; // SLOZ USED 1-1234\n    bool public start; // ALLOWS MINT TO START\n    // Public Mappings\n    mapping(address => bool) public GL; // IS USER GREENLISTED\n    mapping(uint256 => bytes) public dias; // TOKEN ID SHOWS DIAS BYTES OBJECT\n    mapping(uint256 => uint256) public tid; // TOKEN ID SHOWS DIAS ID\n    mapping(uint256 => string) public status;\n    mapping(uint256 => address) public ownedBy;\n    mapping(address => uint256) private minter;\n\n    modifier onlyO() {\n        // ONLY OWNER CAN USE MOD FUNX\n        require(msg.sender == owner);\n        _;\n    }\n\n    constructor(address _ICE) ERC721(\"Frooty Cool Tingz\", \"FFF\") {\n        // INIT CONTRACT SET PUB VARS\n        minted = 1;\n        slots = 1;\n        owner = msg.sender;\n        nam = \"Frooty Cool Tingz\";\n        sym = \"FROOT\";\n        iceAdr = _ICE;\n    }\n\n    function isOwner(address _adr) external view returns (bool) {\n        // SHOWS BOOL OF OWNERSTATUS OF ADDRESS\n        if (_adr == owner) return true;\n        else return false;\n    }\n\n    function mint(\n        uint256 _amnt,\n        uint256[] memory _diasIDs,\n        string[] memory _diasOBJs\n    ) external payable returns (uint256) {\n        // INITIATES THE MINT OF UP TO 7 TOKENS IF ALLOWED\n        require(minted < max, \"SOLD OUT\");\n        require(msg.value >= _amnt * price, \"INSUFFICIET FUNDS\");\n        require(start == true, \"MINT IS NOT YET LIVE\");\n        _doMint(_amnt, msg.sender, _diasIDs, _diasOBJs);\n        return minted;\n    }\n\n    function greenMint(uint256[] memory _diasIDs, string[] memory _diasOBJs)\n        external\n        returns (uint256)\n    {\n        // INITIATES THE MINT OF UP TO 7 TOKENS IF ALLOWED\n        require(minted < max, \"SOLD OUT\");\n        require(start == true, \"MINT IS NOT YET LIVE\");\n        require(GL[msg.sender] == true, \"YOU ARE NOT GREENLISTED\");\n        require(slots < sloz, \"ALL SLOTS HAVE BEEN MINTED\");\n        _doMint(1, msg.sender, _diasIDs, _diasOBJs);\n        GL[msg.sender] = false;\n        slots++;\n        return minted;\n    }\n\n    function setStatus(uint256 _id, string memory _status)\n        external\n        payable\n        returns (bool)\n    {\n        require(ownedBy[_id] == msg.sender, \"YOU ARE NOT THE HOLDER\");\n        require(start == false, \"MINT IS STILL IN PROGRESS\");\n        require(msg.value >= 1 * 10**18);\n        ICE ice = ICE(iceAdr);\n        ice.earn(msg.sender);\n        status[_id] = _status;\n        return true;\n    }\n\n    function changeMintState() external onlyO returns (bool) {\n        return start = !start;\n    }\n\n    function mintOne(\n        address _adr,\n        uint256 _diasID,\n        string memory _diasOBJ\n    ) internal returns (uint256) {\n        // INTERNAL // MINTS ONE TOKEN\n        _mint(_adr, minted);\n        tid[minted] = _diasID;\n        dias[minted] = bytes(_diasOBJ);\n        minter[_adr] = minted;\n        minted++;\n        return minted;\n    }\n\n    function _doMint(\n        uint256 _amnt,\n        address _adr,\n        uint256[] memory _diasIDs,\n        string[] memory _diasOBJs\n    ) internal returns (uint256) {\n        require(balanceOf(_adr) + _amnt <= num, \"EXCEEDED MAX MINTABLE TOKENS\");\n        require(minted + _amnt <= max, \"NOT ENOUGH SUPPLY\");\n        // INTERNAL // MINTS UP TO 7 TOKENS IN ONE TX\n        mintOne(_adr, _diasIDs[0], _diasOBJs[0]);\n        if (_amnt >= 2) {\n            mintOne(_adr, _diasIDs[0], _diasOBJs[0]);\n            if (_amnt >= 3) {\n                mintOne(_adr, _diasIDs[0], _diasOBJs[0]);\n                if (_amnt >= 4) {\n                    mintOne(_adr, _diasIDs[0], _diasOBJs[0]);\n                    if (_amnt >= 5) {\n                        mintOne(_adr, _diasIDs[0], _diasOBJs[0]);\n                        if (_amnt >= 6) {\n                            mintOne(_adr, _diasIDs[0], _diasOBJs[0]);\n                            if (_amnt >= 7) {\n                                mintOne(_adr, _diasIDs[0], _diasOBJs[0]);\n                            }\n                        }\n                    }\n                }\n            }\n        }\n        return minted;\n    }\n\n    function holder(uint256 _id) external view returns (address) {\n        // SHOWS OWNER OF TOKEN BY TID\n        return ownerOf(_id);\n    }\n\n    function flush() external returns (uint256) {\n        // WITHDRAW ALL ETHER FROM CONTRACT\n        payable(owner).transfer(address(this).balance);\n        return address(this).balance;\n    }\n\n    function flushERC20(address _erc) external returns (uint256) {\n        // WITHDRAW ALL COIN FROM CONTRACT\n        ERC20 coin = ERC20(_erc);\n        coin.transferFrom(address(this), owner, coin.balanceOf(address(this)));\n        return coin.balanceOf(address(this));\n    }\n\n    function flushERC721(address _erc, uint256 _id) external returns (uint256) {\n        // WITHDRAW ALL NFT FROM CONTRACT\n        ERC721 coin = ERC721(_erc);\n        coin.transferFrom(address(this), owner, _id);\n        return _id;\n    }\n}\n",
  "sourcePath": "/Users/iii6/Documents/GitHub/niftish/contracts/FrootyCoolTingz.sol",
  "compiler": {
    "name": "solc",
    "version": "0.8.16+commit.07a7930e.Emscripten.clang"
  },
  "schemaVersion": "3.4.8",
  "updatedAt": "2022-09-19T16:11:59.481Z",
  "devdoc": {
    "kind": "dev",
    "methods": {
      "approve(address,uint256)": {
        "details": "See {IERC721-approve}."
      },
      "balanceOf(address)": {
        "details": "See {IERC721-balanceOf}."
      },
      "getApproved(uint256)": {
        "details": "See {IERC721-getApproved}."
      },
      "isApprovedForAll(address,address)": {
        "details": "See {IERC721-isApprovedForAll}."
      },
      "name()": {
        "details": "See {IERC721Metadata-name}."
      },
      "ownerOf(uint256)": {
        "details": "See {IERC721-ownerOf}."
      },
      "safeTransferFrom(address,address,uint256)": {
        "details": "See {IERC721-safeTransferFrom}."
      },
      "safeTransferFrom(address,address,uint256,bytes)": {
        "details": "See {IERC721-safeTransferFrom}."
      },
      "setApprovalForAll(address,bool)": {
        "details": "See {IERC721-setApprovalForAll}."
      },
      "supportsInterface(bytes4)": {
        "details": "See {IERC165-supportsInterface}."
      },
      "symbol()": {
        "details": "See {IERC721Metadata-symbol}."
      },
      "tokenURI(uint256)": {
        "details": "See {IERC721Metadata-tokenURI}."
      },
      "transferFrom(address,address,uint256)": {
        "details": "See {IERC721-transferFrom}."
      }
    },
    "version": 1
  },
  "userdoc": {
    "kind": "user",
    "methods": {},
    "version": 1
  }
}