{
  "contractName": "FrootsUpdate",
  "abi": [
    {
      "inputs": [
        {
          "internalType": "address",
          "name": "_froots",
          "type": "address"
        }
      ],
      "stateMutability": "nonpayable",
      "type": "constructor"
    },
    {
      "inputs": [
        {
          "internalType": "uint256",
          "name": "id",
          "type": "uint256"
        }
      ],
      "name": "NoChange",
      "type": "error"
    },
    {
      "inputs": [
        {
          "internalType": "address",
          "name": "user",
          "type": "address"
        }
      ],
      "name": "NotOwner",
      "type": "error"
    },
    {
      "inputs": [
        {
          "internalType": "uint256",
          "name": "time",
          "type": "uint256"
        }
      ],
      "name": "NotYet",
      "type": "error"
    },
    {
      "inputs": [],
      "name": "OnlySimulatedBackend",
      "type": "error"
    },
    {
      "anonymous": false,
      "inputs": [
        {
          "indexed": false,
          "internalType": "uint256",
          "name": "l",
          "type": "uint256"
        },
        {
          "indexed": false,
          "internalType": "uint256",
          "name": "t",
          "type": "uint256"
        },
        {
          "indexed": false,
          "internalType": "address",
          "name": "from",
          "type": "address"
        },
        {
          "indexed": false,
          "internalType": "address",
          "name": "to",
          "type": "address"
        },
        {
          "indexed": false,
          "internalType": "bytes",
          "name": "context",
          "type": "bytes"
        }
      ],
      "name": "Log",
      "type": "event"
    },
    {
      "inputs": [
        {
          "internalType": "uint256",
          "name": "",
          "type": "uint256"
        }
      ],
      "name": "count",
      "outputs": [
        {
          "internalType": "address",
          "name": "",
          "type": "address"
        }
      ],
      "stateMutability": "view",
      "type": "function",
      "constant": true
    },
    {
      "inputs": [],
      "name": "froots",
      "outputs": [
        {
          "internalType": "contract COOLFROOT",
          "name": "",
          "type": "address"
        }
      ],
      "stateMutability": "view",
      "type": "function",
      "constant": true
    },
    {
      "inputs": [],
      "name": "interval",
      "outputs": [
        {
          "internalType": "uint256",
          "name": "",
          "type": "uint256"
        }
      ],
      "stateMutability": "view",
      "type": "function",
      "constant": true
    },
    {
      "inputs": [],
      "name": "lastTimeStamp",
      "outputs": [
        {
          "internalType": "uint256",
          "name": "",
          "type": "uint256"
        }
      ],
      "stateMutability": "view",
      "type": "function",
      "constant": true
    },
    {
      "inputs": [],
      "name": "giveTime",
      "outputs": [
        {
          "internalType": "uint256",
          "name": "",
          "type": "uint256"
        }
      ],
      "stateMutability": "view",
      "type": "function",
      "constant": true
    },
    {
      "inputs": [
        {
          "internalType": "bytes",
          "name": "",
          "type": "bytes"
        }
      ],
      "name": "checkUpkeep",
      "outputs": [
        {
          "internalType": "bool",
          "name": "upkeepNeeded",
          "type": "bool"
        },
        {
          "internalType": "bytes",
          "name": "",
          "type": "bytes"
        }
      ],
      "stateMutability": "view",
      "type": "function",
      "constant": true
    },
    {
      "inputs": [
        {
          "internalType": "bytes",
          "name": "",
          "type": "bytes"
        }
      ],
      "name": "performUpkeep",
      "outputs": [],
      "stateMutability": "nonpayable",
      "type": "function"
    },
    {
      "inputs": [
        {
          "internalType": "uint256",
          "name": "_budget",
          "type": "uint256"
        },
        {
          "internalType": "uint256",
          "name": "_interval",
          "type": "uint256"
        }
      ],
      "name": "setUpKeep",
      "outputs": [
        {
          "components": [
            {
              "internalType": "address",
              "name": "owner",
              "type": "address"
            },
            {
              "internalType": "uint256",
              "name": "tokenId",
              "type": "uint256"
            },
            {
              "internalType": "uint256",
              "name": "diasID",
              "type": "uint256"
            },
            {
              "internalType": "string",
              "name": "status",
              "type": "string"
            },
            {
              "internalType": "uint256",
              "name": "time",
              "type": "uint256"
            },
            {
              "internalType": "uint256",
              "name": "budget",
              "type": "uint256"
            },
            {
              "internalType": "uint256",
              "name": "interval",
              "type": "uint256"
            }
          ],
          "internalType": "struct FrootsUpdate.State",
          "name": "",
          "type": "tuple"
        }
      ],
      "stateMutability": "nonpayable",
      "type": "function"
    },
    {
      "inputs": [
        {
          "internalType": "address",
          "name": "_adr",
          "type": "address"
        },
        {
          "internalType": "uint256",
          "name": "_state",
          "type": "uint256"
        }
      ],
      "name": "getStateCount",
      "outputs": [
        {
          "components": [
            {
              "internalType": "address",
              "name": "owner",
              "type": "address"
            },
            {
              "internalType": "uint256",
              "name": "tokenId",
              "type": "uint256"
            },
            {
              "internalType": "uint256",
              "name": "diasID",
              "type": "uint256"
            },
            {
              "internalType": "string",
              "name": "status",
              "type": "string"
            },
            {
              "internalType": "uint256",
              "name": "time",
              "type": "uint256"
            },
            {
              "internalType": "uint256",
              "name": "budget",
              "type": "uint256"
            },
            {
              "internalType": "uint256",
              "name": "interval",
              "type": "uint256"
            }
          ],
          "internalType": "struct FrootsUpdate.State",
          "name": "",
          "type": "tuple"
        }
      ],
      "stateMutability": "view",
      "type": "function",
      "constant": true
    }
  ],
  "bytecode": "0x60a06040523480156200001157600080fd5b50604051620022ac380380620022ac83398181016040528101906200003791906200018a565b7f7b001adb10e22da636d3692d80f262ec9fa831a5d482e767d910cc3c7650f8436000544233306040518060400160405280600f81526020017f6465706c6f7920636f6e74726163740000000000000000000000000000000000815250604051620000a795949392919062000282565b60405180910390a1600080815480929190620000c39062000315565b919050555080600460006101000a81548173ffffffffffffffffffffffffffffffffffffffff021916908373ffffffffffffffffffffffffffffffffffffffff160217905550603c60808181525050426006819055505062000362565b600080fd5b600073ffffffffffffffffffffffffffffffffffffffff82169050919050565b6000620001528262000125565b9050919050565b620001648162000145565b81146200017057600080fd5b50565b600081519050620001848162000159565b92915050565b600060208284031215620001a357620001a262000120565b5b6000620001b38482850162000173565b91505092915050565b6000819050919050565b620001d181620001bc565b82525050565b620001e28162000145565b82525050565b600081519050919050565b600082825260208201905092915050565b60005b838110156200022457808201518184015260208101905062000207565b60008484015250505050565b6000601f19601f8301169050919050565b60006200024e82620001e8565b6200025a8185620001f3565b93506200026c81856020860162000204565b620002778162000230565b840191505092915050565b600060a082019050620002996000830188620001c6565b620002a86020830187620001c6565b620002b76040830186620001d7565b620002c66060830185620001d7565b8181036080830152620002da818462000241565b90509695505050505050565b7f4e487b7100000000000000000000000000000000000000000000000000000000600052601160045260246000fd5b60006200032282620001bc565b91507fffffffffffffffffffffffffffffffffffffffffffffffffffffffffffffffff8203620003575762000356620002e6565b5b600182019050919050565b608051611f1962000393600039600081816103ad0152818161093b0152818161099a0152610cce0152611f196000f3fe608060405234801561001057600080fd5b50600436106100935760003560e01c8063529529c111610066578063529529c1146101325780636e04ff0d1461016257806375ff10fd14610193578063947a36fb146101b1578063db79429e146101cf57610093565b80631dca00d7146100985780633b3546c8146100c85780633f3b3b27146100f85780634585e33b14610116575b600080fd5b6100b260048036038101906100ad9190611399565b6101ed565b6040516100bf9190611523565b60405180910390f35b6100e260048036038101906100dd9190611545565b610372565b6040516100ef9190611581565b60405180910390f35b6101006103a5565b60405161010d91906115ab565b60405180910390f35b610130600480360381019061012b919061162b565b6103ab565b005b61014c60048036038101906101479190611678565b610481565b6040516101599190611523565b60405180910390f35b61017c6004803603810190610177919061162b565b610935565b60405161018a929190611728565b60405180910390f35b61019b610972565b6040516101a891906117b7565b60405180910390f35b6101b9610998565b6040516101c691906115ab565b60405180910390f35b6101d76109bc565b6040516101e491906115ab565b60405180910390f35b6101f561129e565b600360008473ffffffffffffffffffffffffffffffffffffffff1673ffffffffffffffffffffffffffffffffffffffff16815260200190815260200160002060008381526020019081526020016000206040518060e00160405290816000820160009054906101000a900473ffffffffffffffffffffffffffffffffffffffff1673ffffffffffffffffffffffffffffffffffffffff1673ffffffffffffffffffffffffffffffffffffffff16815260200160018201548152602001600282015481526020016003820180546102ca90611801565b80601f01602080910402602001604051908101604052809291908181526020018280546102f690611801565b80156103435780601f1061031857610100808354040283529160200191610343565b820191906000526020600020905b81548152906001019060200180831161032657829003601f168201915b505050505081526020016004820154815260200160058201548152602001600682015481525050905092915050565b60016020528060005260406000206000915054906101000a900473ffffffffffffffffffffffffffffffffffffffff1681565b60065481565b7f0000000000000000000000000000000000000000000000000000000000000000600654426103da9190611861565b111561047d57426006819055506103ef6109cb565b7f7b001adb10e22da636d3692d80f262ec9fa831a5d482e767d910cc3c7650f8436000544233306040518060400160405280601081526020017f706572666f726d6564207570646174650000000000000000000000000000000081525060405161045d959493929190611895565b60405180910390a1600080815480929190610477906118ef565b91905055505b5050565b61048961129e565b6000600460009054906101000a900473ffffffffffffffffffffffffffffffffffffffff1673ffffffffffffffffffffffffffffffffffffffff16633dd08c38336040518263ffffffff1660e01b81526004016104e69190611581565b602060405180830381865afa158015610503573d6000803e3d6000fd5b505050506040513d601f19601f82011682018060405250810190610527919061194c565b90506000811161056e57336040517f245aecd30000000000000000000000000000000000000000000000000000000081526004016105659190611581565b60405180910390fd5b6000600460009054906101000a900473ffffffffffffffffffffffffffffffffffffffff1673ffffffffffffffffffffffffffffffffffffffff1663ae943abc836040518263ffffffff1660e01b81526004016105cb91906115ab565b602060405180830381865afa1580156105e8573d6000803e3d6000fd5b505050506040513d601f19601f8201168201806040525081019061060c919061194c565b90506000600460009054906101000a900473ffffffffffffffffffffffffffffffffffffffff1673ffffffffffffffffffffffffffffffffffffffff166342d21ef7846040518263ffffffff1660e01b815260040161066b91906115ab565b600060405180830381865afa158015610688573d6000803e3d6000fd5b505050506040513d6000823e3d601f19601f820116820180604052508101906106b19190611a9a565b905060006040518060e001604052803373ffffffffffffffffffffffffffffffffffffffff1681526020018581526020018481526020018381526020014281526020018881526020018781525090503360016000600554815260200190815260200160002060006101000a81548173ffffffffffffffffffffffffffffffffffffffff021916908373ffffffffffffffffffffffffffffffffffffffff1602179055506000600260003373ffffffffffffffffffffffffffffffffffffffff1673ffffffffffffffffffffffffffffffffffffffff1681526020019081526020016000208190555080600360003373ffffffffffffffffffffffffffffffffffffffff1673ffffffffffffffffffffffffffffffffffffffff1681526020019081526020016000206000600260003373ffffffffffffffffffffffffffffffffffffffff1673ffffffffffffffffffffffffffffffffffffffff16815260200190815260200160002054815260200190815260200160002060008201518160000160006101000a81548173ffffffffffffffffffffffffffffffffffffffff021916908373ffffffffffffffffffffffffffffffffffffffff160217905550602082015181600101556040820151816002015560608201518160030190816108999190611c85565b506080820151816004015560a0820151816005015560c08201518160060155905050600260003373ffffffffffffffffffffffffffffffffffffffff1673ffffffffffffffffffffffffffffffffffffffff168152602001908152602001600020600081548092919061090b906118ef565b919050555060056000815480929190610923906118ef565b91905055508094505050505092915050565b600060607f0000000000000000000000000000000000000000000000000000000000000000600654426109689190611861565b1191509250929050565b600460009054906101000a900473ffffffffffffffffffffffffffffffffffffffff1681565b7f000000000000000000000000000000000000000000000000000000000000000081565b60006109c6611296565b905090565b60005b60055481116112935760006002600060016000600554815260200190815260200160002060009054906101000a900473ffffffffffffffffffffffffffffffffffffffff1673ffffffffffffffffffffffffffffffffffffffff1673ffffffffffffffffffffffffffffffffffffffff1681526020019081526020016000205490506000600460009054906101000a900473ffffffffffffffffffffffffffffffffffffffff1673ffffffffffffffffffffffffffffffffffffffff16633dd08c38336040518263ffffffff1660e01b8152600401610aad9190611581565b602060405180830381865afa158015610aca573d6000803e3d6000fd5b505050506040513d601f19601f82011682018060405250810190610aee919061194c565b90506000600460009054906101000a900473ffffffffffffffffffffffffffffffffffffffff1673ffffffffffffffffffffffffffffffffffffffff1663ae943abc836040518263ffffffff1660e01b8152600401610b4d91906115ab565b602060405180830381865afa158015610b6a573d6000803e3d6000fd5b505050506040513d601f19601f82011682018060405250810190610b8e919061194c565b90506000600460009054906101000a900473ffffffffffffffffffffffffffffffffffffffff1673ffffffffffffffffffffffffffffffffffffffff166342d21ef7846040518263ffffffff1660e01b8152600401610bed91906115ab565b600060405180830381865afa158015610c0a573d6000803e3d6000fd5b505050506040513d6000823e3d601f19601f82011682018060405250810190610c339190611a9a565b905060006003600060016000600554815260200190815260200160002060009054906101000a900473ffffffffffffffffffffffffffffffffffffffff1673ffffffffffffffffffffffffffffffffffffffff1673ffffffffffffffffffffffffffffffffffffffff1681526020019081526020016000206000600187610cba9190611861565b8152602001908152602001600020600601547f0000000000000000000000000000000000000000000000000000000000000000610cf79190611d57565b905060006003600060016000600554815260200190815260200160002060009054906101000a900473ffffffffffffffffffffffffffffffffffffffff1673ffffffffffffffffffffffffffffffffffffffff1673ffffffffffffffffffffffffffffffffffffffff1681526020019081526020016000206000600188610d7e9190611861565b81526020019081526020016000206004015490506003600060016000600554815260200190815260200160002060009054906101000a900473ffffffffffffffffffffffffffffffffffffffff1673ffffffffffffffffffffffffffffffffffffffff1673ffffffffffffffffffffffffffffffffffffffff1681526020019081526020016000206000600188610e159190611861565b8152602001908152602001600020600301604051602001610e369190611e27565b6040516020818303038152906040528051906020012083604051602001610e5d9190611e6f565b604051602081830303815290604052805190602001200361123d57428282610e859190611e86565b106111f05760006040518060e0016040528060016000600554815260200190815260200160002060009054906101000a900473ffffffffffffffffffffffffffffffffffffffff1673ffffffffffffffffffffffffffffffffffffffff1681526020018781526020018681526020018581526020014281526020016003600060016000600554815260200190815260200160002060009054906101000a900473ffffffffffffffffffffffffffffffffffffffff1673ffffffffffffffffffffffffffffffffffffffff1673ffffffffffffffffffffffffffffffffffffffff168152602001908152602001600020600060018b610f839190611861565b81526020019081526020016000206005016000815480929190610fa590611eba565b9190505581526020016003600060016000600554815260200190815260200160002060009054906101000a900473ffffffffffffffffffffffffffffffffffffffff1673ffffffffffffffffffffffffffffffffffffffff1673ffffffffffffffffffffffffffffffffffffffff168152602001908152602001600020600060018b6110319190611861565b8152602001908152602001600020600601548152509050806003600060016000600554815260200190815260200160002060009054906101000a900473ffffffffffffffffffffffffffffffffffffffff1673ffffffffffffffffffffffffffffffffffffffff1673ffffffffffffffffffffffffffffffffffffffff168152602001908152602001600020600089815260200190815260200160002060008201518160000160006101000a81548173ffffffffffffffffffffffffffffffffffffffff021916908373ffffffffffffffffffffffffffffffffffffffff1602179055506020820151816001015560408201518160020155606082015181600301908161113e9190611c85565b506080820151816004015560a0820151816005015560c082015181600601559050506002600060016000600554815260200190815260200160002060009054906101000a900473ffffffffffffffffffffffffffffffffffffffff1673ffffffffffffffffffffffffffffffffffffffff1673ffffffffffffffffffffffffffffffffffffffff16815260200190815260200160002060008154809291906111e5906118ef565b919050555050611238565b81816111fc9190611e86565b6040517fe465623600000000000000000000000000000000000000000000000000000000815260040161122f91906115ab565b60405180910390fd5b61127a565b836040517fb305b7e600000000000000000000000000000000000000000000000000000000815260040161127191906115ab565b60405180910390fd5b505050505050808061128b906118ef565b9150506109ce565b50565b600042905090565b6040518060e00160405280600073ffffffffffffffffffffffffffffffffffffffff1681526020016000815260200160008152602001606081526020016000815260200160008152602001600081525090565b6000604051905090565b600080fd5b600080fd5b600073ffffffffffffffffffffffffffffffffffffffff82169050919050565b600061133082611305565b9050919050565b61134081611325565b811461134b57600080fd5b50565b60008135905061135d81611337565b92915050565b6000819050919050565b61137681611363565b811461138157600080fd5b50565b6000813590506113938161136d565b92915050565b600080604083850312156113b0576113af6112fb565b5b60006113be8582860161134e565b92505060206113cf85828601611384565b9150509250929050565b6113e281611325565b82525050565b6113f181611363565b82525050565b600081519050919050565b600082825260208201905092915050565b60005b83811015611431578082015181840152602081019050611416565b60008484015250505050565b6000601f19601f8301169050919050565b6000611459826113f7565b6114638185611402565b9350611473818560208601611413565b61147c8161143d565b840191505092915050565b600060e08301600083015161149f60008601826113d9565b5060208301516114b260208601826113e8565b5060408301516114c560408601826113e8565b50606083015184820360608601526114dd828261144e565b91505060808301516114f260808601826113e8565b5060a083015161150560a08601826113e8565b5060c083015161151860c08601826113e8565b508091505092915050565b6000602082019050818103600083015261153d8184611487565b905092915050565b60006020828403121561155b5761155a6112fb565b5b600061156984828501611384565b91505092915050565b61157b81611325565b82525050565b60006020820190506115966000830184611572565b92915050565b6115a581611363565b82525050565b60006020820190506115c0600083018461159c565b92915050565b600080fd5b600080fd5b600080fd5b60008083601f8401126115eb576115ea6115c6565b5b8235905067ffffffffffffffff811115611608576116076115cb565b5b602083019150836001820283011115611624576116236115d0565b5b9250929050565b60008060208385031215611642576116416112fb565b5b600083013567ffffffffffffffff8111156116605761165f611300565b5b61166c858286016115d5565b92509250509250929050565b6000806040838503121561168f5761168e6112fb565b5b600061169d85828601611384565b92505060206116ae85828601611384565b9150509250929050565b60008115159050919050565b6116cd816116b8565b82525050565b600081519050919050565b600082825260208201905092915050565b60006116fa826116d3565b61170481856116de565b9350611714818560208601611413565b61171d8161143d565b840191505092915050565b600060408201905061173d60008301856116c4565b818103602083015261174f81846116ef565b90509392505050565b6000819050919050565b600061177d61177861177384611305565b611758565b611305565b9050919050565b600061178f82611762565b9050919050565b60006117a182611784565b9050919050565b6117b181611796565b82525050565b60006020820190506117cc60008301846117a8565b92915050565b7f4e487b7100000000000000000000000000000000000000000000000000000000600052602260045260246000fd5b6000600282049050600182168061181957607f821691505b60208210810361182c5761182b6117d2565b5b50919050565b7f4e487b7100000000000000000000000000000000000000000000000000000000600052601160045260246000fd5b600061186c82611363565b915061187783611363565b925082820390508181111561188f5761188e611832565b5b92915050565b600060a0820190506118aa600083018861159c565b6118b7602083018761159c565b6118c46040830186611572565b6118d16060830185611572565b81810360808301526118e381846116ef565b90509695505050505050565b60006118fa82611363565b91507fffffffffffffffffffffffffffffffffffffffffffffffffffffffffffffffff820361192c5761192b611832565b5b600182019050919050565b6000815190506119468161136d565b92915050565b600060208284031215611962576119616112fb565b5b600061197084828501611937565b91505092915050565b600080fd5b7f4e487b7100000000000000000000000000000000000000000000000000000000600052604160045260246000fd5b6119b68261143d565b810181811067ffffffffffffffff821117156119d5576119d461197e565b5b80604052505050565b60006119e86112f1565b90506119f482826119ad565b919050565b600067ffffffffffffffff821115611a1457611a1361197e565b5b611a1d8261143d565b9050602081019050919050565b6000611a3d611a38846119f9565b6119de565b905082815260208101848484011115611a5957611a58611979565b5b611a64848285611413565b509392505050565b600082601f830112611a8157611a806115c6565b5b8151611a91848260208601611a2a565b91505092915050565b600060208284031215611ab057611aaf6112fb565b5b600082015167ffffffffffffffff811115611ace57611acd611300565b5b611ada84828501611a6c565b91505092915050565b60008190508160005260206000209050919050565b60006020601f8301049050919050565b600082821b905092915050565b600060088302611b457fffffffffffffffffffffffffffffffffffffffffffffffffffffffffffffffff82611b08565b611b4f8683611b08565b95508019841693508086168417925050509392505050565b6000611b82611b7d611b7884611363565b611758565b611363565b9050919050565b6000819050919050565b611b9c83611b67565b611bb0611ba882611b89565b848454611b15565b825550505050565b600090565b611bc5611bb8565b611bd0818484611b93565b505050565b5b81811015611bf457611be9600082611bbd565b600181019050611bd6565b5050565b601f821115611c3957611c0a81611ae3565b611c1384611af8565b81016020851015611c22578190505b611c36611c2e85611af8565b830182611bd5565b50505b505050565b600082821c905092915050565b6000611c5c60001984600802611c3e565b1980831691505092915050565b6000611c758383611c4b565b9150826002028217905092915050565b611c8e826113f7565b67ffffffffffffffff811115611ca757611ca661197e565b5b611cb18254611801565b611cbc828285611bf8565b600060209050601f831160018114611cef5760008415611cdd578287015190505b611ce78582611c69565b865550611d4f565b601f198416611cfd86611ae3565b60005b82811015611d2557848901518255600182019150602085019450602081019050611d00565b86831015611d425784890151611d3e601f891682611c4b565b8355505b6001600288020188555050505b505050505050565b6000611d6282611363565b9150611d6d83611363565b9250828202611d7b81611363565b91508282048414831517611d9257611d91611832565b5b5092915050565b600081905092915050565b60008154611db181611801565b611dbb8186611d99565b94506001821660008114611dd65760018114611deb57611e1e565b60ff1983168652811515820286019350611e1e565b611df485611ae3565b60005b83811015611e1657815481890152600182019150602081019050611df7565b838801955050505b50505092915050565b6000611e338284611da4565b915081905092915050565b6000611e49826113f7565b611e538185611d99565b9350611e63818560208601611413565b80840191505092915050565b6000611e7b8284611e3e565b915081905092915050565b6000611e9182611363565b9150611e9c83611363565b9250828201905080821115611eb457611eb3611832565b5b92915050565b6000611ec582611363565b915060008203611ed857611ed7611832565b5b60018203905091905056fea2646970667358221220560e0e58cfaafd540bc2967985b8e7d161730e984bf199a93450655714aedc2664736f6c63430008110033",
  "immutableReferences": {
    "3370": [
      {
        "length": 32,
        "start": 941
      },
      {
        "length": 32,
        "start": 2363
      },
      {
        "length": 32,
        "start": 2458
      },
      {
        "length": 32,
        "start": 3278
      }
    ]
  },
  "source": "// SPDX-License-Identifier: MIT\npragma solidity >=0.7.0 <0.9.0;\n\nimport \"@chainlink/contracts/src/v0.8/automation/AutomationCompatible.sol\";\nimport {COOLFROOT} from \"./FrootyCoolTingz.sol\";\n\nerror NotOwner(address user);\nerror NoChange(uint256 id);\nerror NotYet(uint256 time);\n\ncontract FrootsUpdate is AutomationCompatible {\n    event Log(uint256 l, uint256 t, address from, address to, bytes context);\n    uint256 l;\n    mapping(uint256 => address) public count;\n    mapping(address => uint256) private statecount;\n    mapping(address => mapping(uint256 => State)) private statelist;\n    COOLFROOT public froots;\n    uint256 u;\n    uint256 public immutable interval;\n    uint256 public lastTimeStamp;\n    struct State {\n        address owner;\n        uint256 tokenId;\n        uint256 diasID;\n        string status;\n        uint256 time;\n        uint256 budget;\n        uint256 interval;\n    }\n\n    constructor(address _froots) {\n        emit Log(\n            l,\n            block.timestamp,\n            msg.sender,\n            address(this),\n            bytes(\"deploy contract\")\n        );\n        l++;\n        froots = COOLFROOT(_froots);\n        interval = 60;\n        lastTimeStamp = block.timestamp;\n    }\n\n    function giveTime() external view returns (uint256) {\n        return _giveTime();\n    }\n\n    function _giveTime() internal view returns (uint256) {\n        return block.timestamp;\n    }\n\n    function checkUpkeep(\n        bytes calldata /* checkData */\n    )\n        external\n        view\n        override\n        returns (\n            bool upkeepNeeded,\n            bytes memory /* performData */\n        )\n    {\n        upkeepNeeded = (block.timestamp - lastTimeStamp) > interval;\n        // We don't use the checkData in this example. The checkData is defined when the Upkeep was registered.\n    }\n\n    function performUpkeep(\n        bytes calldata /* performData */\n    ) external override {\n        //We highly recommend revalidating the upkeep in the performUpkeep function\n        if ((block.timestamp - lastTimeStamp) > interval) {\n            lastTimeStamp = block.timestamp;\n            // action here\n            _doUpkeep();\n            emit Log(\n                l,\n                block.timestamp,\n                msg.sender,\n                address(this),\n                bytes(\"performed update\")\n            );\n            l++;\n        }\n        // We don't use the performData in this example. The performData is generated by the Automation Node's call to your checkUpkeep function\n    }\n\n    function setUpKeep(uint256 _budget, uint256 _interval)\n        external\n        returns (State memory)\n    {\n        uint256 tokenID = froots.minter(msg.sender);\n        if (tokenID <= 0) revert NotOwner(msg.sender);\n        uint256 diasID = froots.tid(tokenID);\n        string memory statusNow = froots.status(tokenID);\n        State memory state = State(\n            msg.sender,\n            tokenID,\n            diasID,\n            statusNow,\n            block.timestamp,\n            _budget,\n            _interval\n        );\n        count[u] = msg.sender;\n        statecount[msg.sender] = 0;\n        statelist[msg.sender][statecount[msg.sender]] = state;\n        statecount[msg.sender]++;\n        u++;\n        return state;\n    }\n\n    function _doUpkeep() internal {\n        for (uint256 i; i <= u; i++) {\n            // each user\n            uint256 c = statecount[count[u]];\n            uint256 tokenID = froots.minter(msg.sender);\n            uint256 diasID = froots.tid(tokenID);\n            string memory statusNow = froots.status(tokenID);\n            uint256 unterval = interval * statelist[count[u]][c - 1].interval;\n            uint256 laststamp = statelist[count[u]][c - 1].time;\n            if (\n                keccak256(abi.encodePacked(statusNow)) ==\n                keccak256(abi.encodePacked(statelist[count[u]][c - 1].status))\n            ) {\n                if (laststamp + unterval >= block.timestamp) {\n                    State memory state = State(\n                        count[u],\n                        tokenID,\n                        diasID,\n                        statusNow,\n                        block.timestamp,\n                        statelist[count[u]][c - 1].budget--,\n                        statelist[count[u]][c - 1].interval\n                    );\n                    statelist[count[u]][c] = state;\n                    statecount[count[u]]++;\n                } else revert NotYet(laststamp + unterval);\n            } else revert NoChange(diasID);\n        }\n    }\n\n    function getStateCount(address _adr, uint256 _state)\n        external\n        view\n        returns (State memory)\n    {\n        return statelist[_adr][_state];\n    }\n}\n\n\ncontract Counter is AutomationCompatibleInterface {\n    /**\n     * Public counter variable\n     */\n    uint public counter;\n\n    /**\n     * Use an interval in seconds and a timestamp to slow execution of Upkeep\n     */\n    uint public immutable interval;\n    uint public lastTimeStamp;\n\n    constructor(uint updateInterval) {\n        interval = updateInterval;\n        lastTimeStamp = block.timestamp;\n\n        counter = 0;\n    }\n\n    function checkUpkeep(\n        bytes calldata /* checkData */\n    )\n        external\n        view\n        override\n        returns (bool upkeepNeeded, bytes memory /* performData */)\n    {\n        upkeepNeeded = (block.timestamp - lastTimeStamp) > interval;\n        // We don't use the checkData in this example. The checkData is defined when the Upkeep was registered.\n    }\n\n    function performUpkeep(bytes calldata /* performData */) external override {\n        //We highly recommend revalidating the upkeep in the performUpkeep function\n        if ((block.timestamp - lastTimeStamp) > interval) {\n            lastTimeStamp = block.timestamp;\n            counter = counter + 1;\n        }\n        // We don't use the performData in this example. The performData is generated by the Automation Node's call to your checkUpkeep function\n    }\n}\n\n",
  "sourcePath": "/Users/iii6/Documents/GitHub/niftish/contracts/FrootsUpdates.sol",
  "compiler": {
    "name": "solc",
    "version": "0.8.17+commit.8df45f5f.Emscripten.clang"
  },
  "schemaVersion": "3.4.8",
  "updatedAt": "2023-03-28T19:49:14.051Z",
  "networkType": "ethereum",
  "devdoc": {
    "kind": "dev",
    "methods": {},
    "version": 1
  },
  "userdoc": {
    "kind": "user",
    "methods": {},
    "version": 1
  }
}