{
  "contractName": "Greenlist",
  "abi": [
    {
      "inputs": [],
      "stateMutability": "nonpayable",
      "type": "constructor"
    },
    {
      "inputs": [
        {
          "internalType": "address",
          "name": "",
          "type": "address"
        }
      ],
      "name": "isListed",
      "outputs": [
        {
          "internalType": "bool",
          "name": "",
          "type": "bool"
        }
      ],
      "stateMutability": "view",
      "type": "function"
    },
    {
      "inputs": [
        {
          "internalType": "uint256",
          "name": "",
          "type": "uint256"
        }
      ],
      "name": "users",
      "outputs": [
        {
          "internalType": "address",
          "name": "",
          "type": "address"
        }
      ],
      "stateMutability": "view",
      "type": "function"
    },
    {
      "inputs": [],
      "name": "getListed",
      "outputs": [
        {
          "internalType": "bool",
          "name": "",
          "type": "bool"
        }
      ],
      "stateMutability": "nonpayable",
      "type": "function"
    },
    {
      "inputs": [],
      "name": "showUsers",
      "outputs": [
        {
          "internalType": "address[250]",
          "name": "",
          "type": "address[250]"
        }
      ],
      "stateMutability": "view",
      "type": "function"
    },
    {
      "inputs": [
        {
          "internalType": "string",
          "name": "_msg",
          "type": "string"
        }
      ],
      "name": "setMsg",
      "outputs": [
        {
          "internalType": "bool",
          "name": "",
          "type": "bool"
        }
      ],
      "stateMutability": "payable",
      "type": "function"
    },
    {
      "inputs": [],
      "name": "withdraw",
      "outputs": [
        {
          "internalType": "uint256",
          "name": "",
          "type": "uint256"
        }
      ],
      "stateMutability": "nonpayable",
      "type": "function"
    }
  ],
  "bytecode": "0x60806040523480156200001157600080fd5b50336000806101000a81548173ffffffffffffffffffffffffffffffffffffffff021916908373ffffffffffffffffffffffffffffffffffffffff160217905550336006600060fa81106200006b576200006a62000106565b5b0160006101000a81548173ffffffffffffffffffffffffffffffffffffffff021916908373ffffffffffffffffffffffffffffffffffffffff1602179055506040518060400160405280601a81526020017f4245204652455348204d5920465255495459204652454e5a202100000000000081525060039081620000f09190620003af565b506001808190555060fa60028190555062000496565b7f4e487b7100000000000000000000000000000000000000000000000000000000600052603260045260246000fd5b600081519050919050565b7f4e487b7100000000000000000000000000000000000000000000000000000000600052604160045260246000fd5b7f4e487b7100000000000000000000000000000000000000000000000000000000600052602260045260246000fd5b60006002820490506001821680620001b757607f821691505b602082108103620001cd57620001cc6200016f565b5b50919050565b60008190508160005260206000209050919050565b60006020601f8301049050919050565b600082821b905092915050565b600060088302620002377fffffffffffffffffffffffffffffffffffffffffffffffffffffffffffffffff82620001f8565b620002438683620001f8565b95508019841693508086168417925050509392505050565b6000819050919050565b6000819050919050565b6000620002906200028a62000284846200025b565b62000265565b6200025b565b9050919050565b6000819050919050565b620002ac836200026f565b620002c4620002bb8262000297565b84845462000205565b825550505050565b600090565b620002db620002cc565b620002e8818484620002a1565b505050565b5b81811015620003105762000304600082620002d1565b600181019050620002ee565b5050565b601f8211156200035f576200032981620001d3565b6200033484620001e8565b8101602085101562000344578190505b6200035c6200035385620001e8565b830182620002ed565b50505b505050565b600082821c905092915050565b6000620003846000198460080262000364565b1980831691505092915050565b60006200039f838362000371565b9150826002028217905092915050565b620003ba8262000135565b67ffffffffffffffff811115620003d657620003d562000140565b5b620003e282546200019e565b620003ef82828562000314565b600060209050601f83116001811462000427576000841562000412578287015190505b6200041e858262000391565b8655506200048e565b601f1984166200043786620001d3565b60005b8281101562000461578489015182556001820191506020850194506020810190506200043a565b868310156200048157848901516200047d601f89168262000371565b8355505b6001600288020188555050505b505050505050565b61103580620004a66000396000f3fe6080604052600436106100555760003560e01c8063329dd3641461005a578063365b98b2146100855780633ccfd60b146100c257806377b3cc9a146100ed578063c4784fd414610118578063f794062e14610148575b600080fd5b34801561006657600080fd5b5061006f610185565b60405161007c919061070a565b60405180910390f35b34801561009157600080fd5b506100ac60048036038101906100a79190610770565b610206565b6040516100b991906107ac565b60405180910390f35b3480156100ce57600080fd5b506100d761023c565b6040516100e491906107d6565b60405180910390f35b3480156100f957600080fd5b50610102610339565b60405161010f919061080c565b60405180910390f35b610132600480360381019061012d919061096d565b61052b565b60405161013f919061080c565b60405180910390f35b34801561015457600080fd5b5061016f600480360381019061016a91906109e2565b6105ea565b60405161017c919061080c565b60405180910390f35b61018d61060a565b600660fa80602002604051908101604052809291908260fa80156101fc576020028201915b8160009054906101000a900473ffffffffffffffffffffffffffffffffffffffff1673ffffffffffffffffffffffffffffffffffffffff16815260200190600101908083116101b2575b5050505050905090565b60068160fa811061021657600080fd5b016000915054906101000a900473ffffffffffffffffffffffffffffffffffffffff1681565b60003373ffffffffffffffffffffffffffffffffffffffff1660008054906101000a900473ffffffffffffffffffffffffffffffffffffffff1673ffffffffffffffffffffffffffffffffffffffff16146102cc576040517f08c379a00000000000000000000000000000000000000000000000000000000081526004016102c390610a6c565b60405180910390fd5b60008054906101000a900473ffffffffffffffffffffffffffffffffffffffff1673ffffffffffffffffffffffffffffffffffffffff166108fc479081150290604051600060405180830381858888f19350505050158015610332573d6000803e3d6000fd5b5047905090565b6000801515600560003373ffffffffffffffffffffffffffffffffffffffff1673ffffffffffffffffffffffffffffffffffffffff16815260200190815260200160002060009054906101000a900460ff161515146103cd576040517f08c379a00000000000000000000000000000000000000000000000000000000081526004016103c490610ad8565b60405180910390fd5b60025460015410610413576040517f08c379a000000000000000000000000000000000000000000000000000000000815260040161040a90610b44565b60405180910390fd5b6001600560003373ffffffffffffffffffffffffffffffffffffffff1673ffffffffffffffffffffffffffffffffffffffff16815260200190815260200160002060006101000a81548160ff02191690831515021790555033600660015460fa811061048257610481610b64565b5b0160006101000a81548173ffffffffffffffffffffffffffffffffffffffff021916908373ffffffffffffffffffffffffffffffffffffffff160217905550600160008154809291906104d490610bc2565b9190505550600560003373ffffffffffffffffffffffffffffffffffffffff1673ffffffffffffffffffffffffffffffffffffffff16815260200190815260200160002060009054906101000a900460ff16905090565b6000670de0b6b3a7640000341115610578576040517f08c379a000000000000000000000000000000000000000000000000000000000815260040161056f90610c56565b60405180910390fd5b610e106004546105889190610c76565b4210156105ca576040517f08c379a00000000000000000000000000000000000000000000000000000000081526004016105c190610cf6565b60405180910390fd5b81600390816105d99190610f2d565b504260048190555060019050919050565b60056020528060005260406000206000915054906101000a900460ff1681565b60405180611f40016040528060fa90602082028036833780820191505090505090565b600060fa9050919050565b600081905092915050565b6000819050919050565b600073ffffffffffffffffffffffffffffffffffffffff82169050919050565b60006106788261064d565b9050919050565b6106888161066d565b82525050565b600061069a838361067f565b60208301905092915050565b6000602082019050919050565b6106bc8161062d565b6106c68184610638565b92506106d182610643565b8060005b838110156107025781516106e9878261068e565b96506106f4836106a6565b9250506001810190506106d5565b505050505050565b6000611f408201905061072060008301846106b3565b92915050565b6000604051905090565b600080fd5b600080fd5b6000819050919050565b61074d8161073a565b811461075857600080fd5b50565b60008135905061076a81610744565b92915050565b60006020828403121561078657610785610730565b5b60006107948482850161075b565b91505092915050565b6107a68161066d565b82525050565b60006020820190506107c1600083018461079d565b92915050565b6107d08161073a565b82525050565b60006020820190506107eb60008301846107c7565b92915050565b60008115159050919050565b610806816107f1565b82525050565b600060208201905061082160008301846107fd565b92915050565b600080fd5b600080fd5b6000601f19601f8301169050919050565b7f4e487b7100000000000000000000000000000000000000000000000000000000600052604160045260246000fd5b61087a82610831565b810181811067ffffffffffffffff8211171561089957610898610842565b5b80604052505050565b60006108ac610726565b90506108b88282610871565b919050565b600067ffffffffffffffff8211156108d8576108d7610842565b5b6108e182610831565b9050602081019050919050565b82818337600083830152505050565b600061091061090b846108bd565b6108a2565b90508281526020810184848401111561092c5761092b61082c565b5b6109378482856108ee565b509392505050565b600082601f83011261095457610953610827565b5b81356109648482602086016108fd565b91505092915050565b60006020828403121561098357610982610730565b5b600082013567ffffffffffffffff8111156109a1576109a0610735565b5b6109ad8482850161093f565b91505092915050565b6109bf8161066d565b81146109ca57600080fd5b50565b6000813590506109dc816109b6565b92915050565b6000602082840312156109f8576109f7610730565b5b6000610a06848285016109cd565b91505092915050565b600082825260208201905092915050565b7f796f7520617265206e6f742061646d696e000000000000000000000000000000600082015250565b6000610a56601183610a0f565b9150610a6182610a20565b602082019050919050565b60006020820190508181036000830152610a8581610a49565b9050919050565b7f616c7265616479206c6973746564000000000000000000000000000000000000600082015250565b6000610ac2600e83610a0f565b9150610acd82610a8c565b602082019050919050565b60006020820190508181036000830152610af181610ab5565b9050919050565b7f6e6f206d6f726520677265656e6c697374207469636b657473206c6566740000600082015250565b6000610b2e601e83610a0f565b9150610b3982610af8565b602082019050919050565b60006020820190508181036000830152610b5d81610b21565b9050919050565b7f4e487b7100000000000000000000000000000000000000000000000000000000600052603260045260246000fd5b7f4e487b7100000000000000000000000000000000000000000000000000000000600052601160045260246000fd5b6000610bcd8261073a565b91507fffffffffffffffffffffffffffffffffffffffffffffffffffffffffffffffff8203610bff57610bfe610b93565b5b600182019050919050565b7f696e73756666696369656e742062616c616e63652073656e7400000000000000600082015250565b6000610c40601983610a0f565b9150610c4b82610c0a565b602082019050919050565b60006020820190508181036000830152610c6f81610c33565b9050919050565b6000610c818261073a565b9150610c8c8361073a565b9250828201905080821115610ca457610ca3610b93565b5b92915050565b7f796f75206e65656420746f207761697400000000000000000000000000000000600082015250565b6000610ce0601083610a0f565b9150610ceb82610caa565b602082019050919050565b60006020820190508181036000830152610d0f81610cd3565b9050919050565b600081519050919050565b7f4e487b7100000000000000000000000000000000000000000000000000000000600052602260045260246000fd5b60006002820490506001821680610d6857607f821691505b602082108103610d7b57610d7a610d21565b5b50919050565b60008190508160005260206000209050919050565b60006020601f8301049050919050565b600082821b905092915050565b600060088302610de37fffffffffffffffffffffffffffffffffffffffffffffffffffffffffffffffff82610da6565b610ded8683610da6565b95508019841693508086168417925050509392505050565b6000819050919050565b6000610e2a610e25610e208461073a565b610e05565b61073a565b9050919050565b6000819050919050565b610e4483610e0f565b610e58610e5082610e31565b848454610db3565b825550505050565b600090565b610e6d610e60565b610e78818484610e3b565b505050565b5b81811015610e9c57610e91600082610e65565b600181019050610e7e565b5050565b601f821115610ee157610eb281610d81565b610ebb84610d96565b81016020851015610eca578190505b610ede610ed685610d96565b830182610e7d565b50505b505050565b600082821c905092915050565b6000610f0460001984600802610ee6565b1980831691505092915050565b6000610f1d8383610ef3565b9150826002028217905092915050565b610f3682610d16565b67ffffffffffffffff811115610f4f57610f4e610842565b5b610f598254610d50565b610f64828285610ea0565b600060209050601f831160018114610f975760008415610f85578287015190505b610f8f8582610f11565b865550610ff7565b601f198416610fa586610d81565b60005b82811015610fcd57848901518255600182019150602085019450602081019050610fa8565b86831015610fea5784890151610fe6601f891682610ef3565b8355505b6001600288020188555050505b50505050505056fea264697066735822122053b656afdd15479e225a437b612cb69aafba0d9b977004916ea0237e84803a5f64736f6c63430008100033",
  "immutableReferences": {},
  "source": "// SPDX-License-Identifier: MIT\npragma solidity ^0.8.10;\n\ncontract Greenlist {\n    address admin;\n\n    uint256 l;\n    uint256 max;\n    string message;\n    uint256 stamp;\n\n    mapping(address => bool) public isListed;\n    address[250] public users;\n    modifier notListed() {\n        require(isListed[msg.sender] == false, \"already listed\");\n        _;\n    }\n\n    constructor() {\n        admin = msg.sender;\n        users[0] = msg.sender;\n        message = \"BE FRESH MY FRUITY FRENZ !\";\n        l = 1;\n        max = 250;\n    }\n\n    function getListed() external notListed returns (bool) {\n        require(l < max, \"no more greenlist tickets left\");\n        isListed[msg.sender] = true;\n        users[l] = (msg.sender);\n        l++;\n        return isListed[msg.sender];\n    }\n\n    function showUsers() external view returns (address[250] memory) {\n        return users;\n    }\n\n    function setMsg(string memory _msg) external payable returns (bool) {\n        require(msg.value <= 1 * 10**18, \"insufficient balance sent\");\n        require(block.timestamp >= stamp + 60 * 60, \"you need to wait\");\n        message = _msg;\n        stamp = block.timestamp;\n        return true;\n    }\n\n    function withdraw() external returns (uint256) {\n        require(admin == msg.sender, \"you are not admin\");\n        payable(admin).transfer(address(this).balance);\n        return address(this).balance;\n    }\n}\n",
  "sourcePath": "/Users/iii6/Documents/GitHub/niftish/contracts/Greenlist.sol",
  "compiler": {
    "name": "solc",
    "version": "0.8.16+commit.07a7930e.Emscripten.clang"
  },
  "schemaVersion": "3.4.8",
  "updatedAt": "2022-09-15T17:00:13.835Z",
  "devdoc": {
    "kind": "dev",
    "methods": {},
    "version": 1
  },
  "userdoc": {
    "kind": "user",
    "methods": {},
    "version": 1
  }
}