{
  "contractName": "Greenlist",
  "abi": [
    {
      "inputs": [
        {
          "internalType": "uint256",
          "name": "_t",
          "type": "uint256"
        }
      ],
      "stateMutability": "nonpayable",
      "type": "constructor"
    },
    {
      "inputs": [
        {
          "internalType": "address",
          "name": "user",
          "type": "address"
        }
      ],
      "name": "Done",
      "type": "error"
    },
    {
      "inputs": [],
      "name": "FCT",
      "outputs": [
        {
          "internalType": "contract COOLFROOT",
          "name": "",
          "type": "address"
        }
      ],
      "stateMutability": "view",
      "type": "function"
    },
    {
      "inputs": [],
      "name": "admin",
      "outputs": [
        {
          "internalType": "address",
          "name": "",
          "type": "address"
        }
      ],
      "stateMutability": "view",
      "type": "function"
    },
    {
      "inputs": [],
      "name": "arb",
      "outputs": [
        {
          "internalType": "contract ERC20",
          "name": "",
          "type": "address"
        }
      ],
      "stateMutability": "view",
      "type": "function"
    },
    {
      "inputs": [],
      "name": "arbprice",
      "outputs": [
        {
          "internalType": "uint256",
          "name": "",
          "type": "uint256"
        }
      ],
      "stateMutability": "view",
      "type": "function"
    },
    {
      "inputs": [
        {
          "internalType": "address",
          "name": "",
          "type": "address"
        }
      ],
      "name": "isListed",
      "outputs": [
        {
          "internalType": "bool",
          "name": "",
          "type": "bool"
        }
      ],
      "stateMutability": "view",
      "type": "function"
    },
    {
      "inputs": [],
      "name": "l",
      "outputs": [
        {
          "internalType": "uint256",
          "name": "",
          "type": "uint256"
        }
      ],
      "stateMutability": "view",
      "type": "function"
    },
    {
      "inputs": [
        {
          "internalType": "address",
          "name": "",
          "type": "address"
        }
      ],
      "name": "liked",
      "outputs": [
        {
          "internalType": "uint256",
          "name": "",
          "type": "uint256"
        }
      ],
      "stateMutability": "view",
      "type": "function"
    },
    {
      "inputs": [],
      "name": "likes",
      "outputs": [
        {
          "internalType": "uint256",
          "name": "",
          "type": "uint256"
        }
      ],
      "stateMutability": "view",
      "type": "function"
    },
    {
      "inputs": [],
      "name": "max",
      "outputs": [
        {
          "internalType": "uint256",
          "name": "",
          "type": "uint256"
        }
      ],
      "stateMutability": "view",
      "type": "function"
    },
    {
      "inputs": [],
      "name": "message",
      "outputs": [
        {
          "internalType": "string",
          "name": "",
          "type": "string"
        }
      ],
      "stateMutability": "view",
      "type": "function"
    },
    {
      "inputs": [],
      "name": "msgprice",
      "outputs": [
        {
          "internalType": "uint256",
          "name": "",
          "type": "uint256"
        }
      ],
      "stateMutability": "view",
      "type": "function"
    },
    {
      "inputs": [],
      "name": "shares",
      "outputs": [
        {
          "internalType": "uint256",
          "name": "",
          "type": "uint256"
        }
      ],
      "stateMutability": "view",
      "type": "function"
    },
    {
      "inputs": [],
      "name": "stamp",
      "outputs": [
        {
          "internalType": "uint256",
          "name": "",
          "type": "uint256"
        }
      ],
      "stateMutability": "view",
      "type": "function"
    },
    {
      "inputs": [
        {
          "internalType": "uint256",
          "name": "",
          "type": "uint256"
        }
      ],
      "name": "states",
      "outputs": [
        {
          "internalType": "uint256",
          "name": "id",
          "type": "uint256"
        },
        {
          "internalType": "string",
          "name": "message",
          "type": "string"
        },
        {
          "internalType": "string",
          "name": "url",
          "type": "string"
        },
        {
          "internalType": "uint256",
          "name": "likes",
          "type": "uint256"
        },
        {
          "internalType": "uint256",
          "name": "shares",
          "type": "uint256"
        },
        {
          "internalType": "uint256",
          "name": "stamp",
          "type": "uint256"
        }
      ],
      "stateMutability": "view",
      "type": "function"
    },
    {
      "inputs": [],
      "name": "url",
      "outputs": [
        {
          "internalType": "string",
          "name": "",
          "type": "string"
        }
      ],
      "stateMutability": "view",
      "type": "function"
    },
    {
      "inputs": [
        {
          "internalType": "uint256",
          "name": "",
          "type": "uint256"
        }
      ],
      "name": "users",
      "outputs": [
        {
          "internalType": "address",
          "name": "",
          "type": "address"
        }
      ],
      "stateMutability": "view",
      "type": "function"
    },
    {
      "inputs": [
        {
          "internalType": "address",
          "name": "_fct",
          "type": "address"
        }
      ],
      "name": "setFCT",
      "outputs": [
        {
          "internalType": "bool",
          "name": "",
          "type": "bool"
        }
      ],
      "stateMutability": "nonpayable",
      "type": "function"
    },
    {
      "inputs": [],
      "name": "getListed",
      "outputs": [
        {
          "internalType": "bool",
          "name": "",
          "type": "bool"
        }
      ],
      "stateMutability": "nonpayable",
      "type": "function"
    },
    {
      "inputs": [
        {
          "internalType": "address",
          "name": "_adr",
          "type": "address"
        }
      ],
      "name": "makeListing",
      "outputs": [
        {
          "internalType": "bool",
          "name": "",
          "type": "bool"
        }
      ],
      "stateMutability": "nonpayable",
      "type": "function"
    },
    {
      "inputs": [],
      "name": "giveLike",
      "outputs": [
        {
          "internalType": "uint256",
          "name": "",
          "type": "uint256"
        }
      ],
      "stateMutability": "nonpayable",
      "type": "function"
    },
    {
      "inputs": [],
      "name": "showUsers",
      "outputs": [
        {
          "internalType": "address[1235]",
          "name": "",
          "type": "address[1235]"
        }
      ],
      "stateMutability": "view",
      "type": "function"
    },
    {
      "inputs": [
        {
          "internalType": "string",
          "name": "_msg",
          "type": "string"
        },
        {
          "internalType": "string",
          "name": "_url",
          "type": "string"
        }
      ],
      "name": "setMsg",
      "outputs": [
        {
          "internalType": "bool",
          "name": "",
          "type": "bool"
        }
      ],
      "stateMutability": "payable",
      "type": "function"
    },
    {
      "inputs": [],
      "name": "saveState",
      "outputs": [],
      "stateMutability": "nonpayable",
      "type": "function"
    },
    {
      "inputs": [],
      "name": "getShareData",
      "outputs": [],
      "stateMutability": "nonpayable",
      "type": "function"
    },
    {
      "inputs": [
        {
          "internalType": "string",
          "name": "_msg",
          "type": "string"
        },
        {
          "internalType": "string",
          "name": "_url",
          "type": "string"
        }
      ],
      "name": "setArbMsg",
      "outputs": [
        {
          "internalType": "bool",
          "name": "",
          "type": "bool"
        }
      ],
      "stateMutability": "nonpayable",
      "type": "function"
    },
    {
      "inputs": [
        {
          "internalType": "string",
          "name": "_msg",
          "type": "string"
        },
        {
          "internalType": "string",
          "name": "_url",
          "type": "string"
        }
      ],
      "name": "setMsgAdmin",
      "outputs": [
        {
          "internalType": "bool",
          "name": "",
          "type": "bool"
        }
      ],
      "stateMutability": "nonpayable",
      "type": "function"
    },
    {
      "inputs": [],
      "name": "showMsg",
      "outputs": [
        {
          "internalType": "string",
          "name": "",
          "type": "string"
        }
      ],
      "stateMutability": "view",
      "type": "function"
    },
    {
      "inputs": [],
      "name": "withdraw",
      "outputs": [
        {
          "internalType": "uint256",
          "name": "",
          "type": "uint256"
        }
      ],
      "stateMutability": "nonpayable",
      "type": "function"
    }
  ],
  "bytecode": "0x60806040526040518060400160405280601681526020017f68747470733a2f2f636f6f6c66726f6f74732e78797a00000000000000000000815250600990816200004a9190620005c7565b503480156200005857600080fd5b50604051620034ae380380620034ae83398181016040528101906200007e9190620006e4565b336000806101000a81548173ffffffffffffffffffffffffffffffffffffffff021916908373ffffffffffffffffffffffffffffffffffffffff160217905550600081036200018857600060018190555060028081905550612710670de0b6b3a7640000601e620000f0919062000745565b620000fc9190620007bf565b600b81905550600a670de0b6b3a764000060286200011b919062000745565b620001279190620007bf565b600c81905550733f42dd736c736f931dc23d4358dd92c65687019a600d60006101000a81548173ffffffffffffffffffffffffffffffffffffffff021916908373ffffffffffffffffffffffffffffffffffffffff160217905550620002f7565b6001600f60003373ffffffffffffffffffffffffffffffffffffffff1673ffffffffffffffffffffffffffffffffffffffff16815260200190815260200160002060006101000a81548160ff02191690831515021790555033601060006104d38110620001fa57620001f9620007f7565b5b0160006101000a81548173ffffffffffffffffffffffffffffffffffffffff021916908373ffffffffffffffffffffffffffffffffffffffff16021790555060006001819055506104d2600281905550612710670de0b6b3a7640000601e62000264919062000745565b620002709190620007bf565b600b81905550600a670de0b6b3a764000060286200028f919062000745565b6200029b9190620007bf565b600c8190555073912ce59144191c1204e64559fe8253a0e49e6548600d60006101000a81548173ffffffffffffffffffffffffffffffffffffffff021916908373ffffffffffffffffffffffffffffffffffffffff1602179055505b6040518060400160405280601181526020017f474554202346524f4f5453204e4f572021000000000000000000000000000000815250600390816200033d9190620005c7565b5060016004819055505062000826565b600081519050919050565b7f4e487b7100000000000000000000000000000000000000000000000000000000600052604160045260246000fd5b7f4e487b7100000000000000000000000000000000000000000000000000000000600052602260045260246000fd5b60006002820490506001821680620003cf57607f821691505b602082108103620003e557620003e462000387565b5b50919050565b60008190508160005260206000209050919050565b60006020601f8301049050919050565b600082821b905092915050565b6000600883026200044f7fffffffffffffffffffffffffffffffffffffffffffffffffffffffffffffffff8262000410565b6200045b868362000410565b95508019841693508086168417925050509392505050565b6000819050919050565b6000819050919050565b6000620004a8620004a26200049c8462000473565b6200047d565b62000473565b9050919050565b6000819050919050565b620004c48362000487565b620004dc620004d382620004af565b8484546200041d565b825550505050565b600090565b620004f3620004e4565b62000500818484620004b9565b505050565b5b8181101562000528576200051c600082620004e9565b60018101905062000506565b5050565b601f82111562000577576200054181620003eb565b6200054c8462000400565b810160208510156200055c578190505b620005746200056b8562000400565b83018262000505565b50505b505050565b600082821c905092915050565b60006200059c600019846008026200057c565b1980831691505092915050565b6000620005b7838362000589565b9150826002028217905092915050565b620005d2826200034d565b67ffffffffffffffff811115620005ee57620005ed62000358565b5b620005fa8254620003b6565b620006078282856200052c565b600060209050601f8311600181146200063f57600084156200062a578287015190505b620006368582620005a9565b865550620006a6565b601f1984166200064f86620003eb565b60005b82811015620006795784890151825560018201915060208501945060208101905062000652565b8683101562000699578489015162000695601f89168262000589565b8355505b6001600288020188555050505b505050505050565b600080fd5b620006be8162000473565b8114620006ca57600080fd5b50565b600081519050620006de81620006b3565b92915050565b600060208284031215620006fd57620006fc620006ae565b5b60006200070d84828501620006cd565b91505092915050565b7f4e487b7100000000000000000000000000000000000000000000000000000000600052601160045260246000fd5b6000620007528262000473565b91506200075f8362000473565b92508282026200076f8162000473565b9150828204841483151762000789576200078862000716565b5b5092915050565b7f4e487b7100000000000000000000000000000000000000000000000000000000600052601260045260246000fd5b6000620007cc8262000473565b9150620007d98362000473565b925082620007ec57620007eb62000790565b5b828204905092915050565b7f4e487b7100000000000000000000000000000000000000000000000000000000600052603260045260246000fd5b612c7880620008366000396000f3fe6080604052600436106101b75760003560e01c806377b3cc9a116100ec578063d1dc9bd81161008a578063e3c44ff711610064578063e3c44ff714610624578063ece866b91461064f578063f794062e1461067a578063f851a440146106b7576101b7565b8063d1dc9bd814610591578063e04494fc146105bc578063e21f37ce146105f9576101b7565b8063a42ca24e116100c6578063a42ca24e146104d3578063acb5fedf146104fe578063c85e07b914610529578063cc87ec5f14610554576101b7565b806377b3cc9a1461044057806385dbc0c51461046b578063948e7ada14610496576101b7565b80633ccfd60b11610159578063657d531011610133578063657d5310146103a357806367f6ea68146103ce5780636ac5db19146103fe5780636d34419a14610429576101b7565b80633ccfd60b1461033657806355e26af3146103615780635600f04f14610378576101b7565b80632a0c74d4116101955780632a0c74d414610266578063329dd36414610291578063359e0bd1146102bc578063365b98b2146102f9576101b7565b8063017a9105146101bc57806303314efa146101fe5780630fbee76614610229575b600080fd5b3480156101c857600080fd5b506101e360048036038101906101de9190611f11565b6106e2565b6040516101f596959493929190611fdd565b60405180910390f35b34801561020a57600080fd5b5061021361082e565b604051610220919061204c565b60405180910390f35b34801561023557600080fd5b50610250600480360381019061024b919061219c565b610834565b60405161025d919061222f565b60405180910390f35b34801561027257600080fd5b5061027b610f1a565b604051610288919061224a565b60405180910390f35b34801561029d57600080fd5b506102a6610fac565b6040516102b3919061234a565b60405180910390f35b3480156102c857600080fd5b506102e360048036038101906102de9190612392565b61102f565b6040516102f0919061222f565b60405180910390f35b34801561030557600080fd5b50610320600480360381019061031b9190611f11565b6110d4565b60405161032d91906123ce565b60405180910390f35b34801561034257600080fd5b5061034b61110b565b604051610358919061204c565b60405180910390f35b34801561036d57600080fd5b50610376611465565b005b34801561038457600080fd5b5061038d611630565b60405161039a919061224a565b60405180910390f35b3480156103af57600080fd5b506103b86116be565b6040516103c5919061204c565b60405180910390f35b6103e860048036038101906103e3919061219c565b6117a6565b6040516103f5919061222f565b60405180910390f35b34801561040a57600080fd5b50610413611870565b604051610420919061204c565b60405180910390f35b34801561043557600080fd5b5061043e611876565b005b34801561044c57600080fd5b50610455611878565b604051610462919061222f565b60405180910390f35b34801561047757600080fd5b50610480611963565b60405161048d9190612448565b60405180910390f35b3480156104a257600080fd5b506104bd60048036038101906104b89190612392565b611989565b6040516104ca919061204c565b60405180910390f35b3480156104df57600080fd5b506104e86119a1565b6040516104f5919061204c565b60405180910390f35b34801561050a57600080fd5b506105136119a7565b6040516105209190612484565b60405180910390f35b34801561053557600080fd5b5061053e6119cd565b60405161054b919061204c565b60405180910390f35b34801561056057600080fd5b5061057b60048036038101906105769190612392565b6119d3565b604051610588919061222f565b60405180910390f35b34801561059d57600080fd5b506105a6611ad2565b6040516105b3919061204c565b60405180910390f35b3480156105c857600080fd5b506105e360048036038101906105de919061219c565b611ad8565b6040516105f0919061222f565b60405180910390f35b34801561060557600080fd5b5061060e611b64565b60405161061b919061224a565b60405180910390f35b34801561063057600080fd5b50610639611bf2565b604051610646919061204c565b60405180910390f35b34801561065b57600080fd5b50610664611bf8565b604051610671919061204c565b60405180910390f35b34801561068657600080fd5b506106a1600480360381019061069c9190612392565b611bfe565b6040516106ae919061222f565b60405180910390f35b3480156106c357600080fd5b506106cc611c1e565b6040516106d991906123ce565b60405180910390f35b600760205280600052604060002060009150905080600001549080600101805461070b906124ce565b80601f0160208091040260200160405190810160405280929190818152602001828054610737906124ce565b80156107845780601f1061075957610100808354040283529160200191610784565b820191906000526020600020905b81548152906001019060200180831161076757829003601f168201915b505050505090806002018054610799906124ce565b80601f01602080910402602001604051908101604052809291908181526020018280546107c5906124ce565b80156108125780601f106107e757610100808354040283529160200191610812565b820191906000526020600020905b8154815290600101906020018083116107f557829003601f168201915b5050505050908060030154908060040154908060050154905086565b60055481565b6000600c54600d60009054906101000a900473ffffffffffffffffffffffffffffffffffffffff1673ffffffffffffffffffffffffffffffffffffffff166370a08231336040518263ffffffff1660e01b815260040161089491906123ce565b602060405180830381865afa1580156108b1573d6000803e3d6000fd5b505050506040513d601f19601f820116820180604052508101906108d59190612514565b1015610916576040517f08c379a000000000000000000000000000000000000000000000000000000000815260040161090d9061258d565b60405180910390fd5b610e10600a5461092691906125dc565b421015610968576040517f08c379a000000000000000000000000000000000000000000000000000000000815260040161095f9061265c565b60405180910390fd5b6000606480600c5461097a91906126ab565b600c5461098791906126dc565b6109919190612710565b9050600d60009054906101000a900473ffffffffffffffffffffffffffffffffffffffff1673ffffffffffffffffffffffffffffffffffffffff166323b872dd337379e205680908c03047e3f3a4e63fd192ff4cf409601e856109f49190612741565b6040518463ffffffff1660e01b8152600401610a1293929190612783565b6020604051808303816000875af1158015610a31573d6000803e3d6000fd5b505050506040513d601f19601f82011682018060405250810190610a5591906127e6565b50600d60009054906101000a900473ffffffffffffffffffffffffffffffffffffffff1673ffffffffffffffffffffffffffffffffffffffff166323b872dd3373b4ab6acfc8de6bc53cc696b902e59274d288d3e8601e85610ab79190612741565b6040518463ffffffff1660e01b8152600401610ad593929190612783565b6020604051808303816000875af1158015610af4573d6000803e3d6000fd5b505050506040513d601f19601f82011682018060405250810190610b1891906127e6565b50600d60009054906101000a900473ffffffffffffffffffffffffffffffffffffffff1673ffffffffffffffffffffffffffffffffffffffff166323b872dd3373b4ab6acfc8de6bc53cc696b902e59274d288d3e8600a85610b7a9190612741565b6040518463ffffffff1660e01b8152600401610b9893929190612783565b6020604051808303816000875af1158015610bb7573d6000803e3d6000fd5b505050506040513d601f19601f82011682018060405250810190610bdb91906127e6565b50600d60009054906101000a900473ffffffffffffffffffffffffffffffffffffffff1673ffffffffffffffffffffffffffffffffffffffff166323b872dd3373b4ab6acfc8de6bc53cc696b902e59274d288d3e8600a85610c3d9190612741565b6040518463ffffffff1660e01b8152600401610c5b93929190612783565b6020604051808303816000875af1158015610c7a573d6000803e3d6000fd5b505050506040513d601f19601f82011682018060405250810190610c9e91906127e6565b50600d60009054906101000a900473ffffffffffffffffffffffffffffffffffffffff1673ffffffffffffffffffffffffffffffffffffffff166323b872dd337379e205680908c03047e3f3a4e63fd192ff4cf409600a85610d009190612741565b6040518463ffffffff1660e01b8152600401610d1e93929190612783565b6020604051808303816000875af1158015610d3d573d6000803e3d6000fd5b505050506040513d601f19601f82011682018060405250810190610d6191906127e6565b50600d60009054906101000a900473ffffffffffffffffffffffffffffffffffffffff1673ffffffffffffffffffffffffffffffffffffffff166323b872dd337379e205680908c03047e3f3a4e63fd192ff4cf409600585610dc39190612741565b6040518463ffffffff1660e01b8152600401610de193929190612783565b6020604051808303816000875af1158015610e00573d6000803e3d6000fd5b505050506040513d601f19601f82011682018060405250810190610e2491906127e6565b50600d60009054906101000a900473ffffffffffffffffffffffffffffffffffffffff1673ffffffffffffffffffffffffffffffffffffffff166323b872dd337379e205680908c03047e3f3a4e63fd192ff4cf409600585610e869190612741565b6040518463ffffffff1660e01b8152600401610ea493929190612783565b6020604051808303816000875af1158015610ec3573d6000803e3d6000fd5b505050506040513d601f19601f82011682018060405250810190610ee791906127e6565b508360039081610ef791906129b5565b508260099081610f0791906129b5565b5042600a81905550600191505092915050565b606060038054610f29906124ce565b80601f0160208091040260200160405190810160405280929190818152602001828054610f55906124ce565b8015610fa25780601f10610f7757610100808354040283529160200191610fa2565b820191906000526020600020905b815481529060010190602001808311610f8557829003601f168201915b5050505050905090565b610fb4611ea3565b60106104d38060200260405190810160405280929190826104d38015611025576020028201915b8160009054906101000a900473ffffffffffffffffffffffffffffffffffffffff1673ffffffffffffffffffffffffffffffffffffffff1681526020019060010190808311610fdb575b5050505050905090565b60008060009054906101000a900473ffffffffffffffffffffffffffffffffffffffff1673ffffffffffffffffffffffffffffffffffffffff163373ffffffffffffffffffffffffffffffffffffffff161461108a57600080fd5b81600e60006101000a81548173ffffffffffffffffffffffffffffffffffffffff021916908373ffffffffffffffffffffffffffffffffffffffff16021790555060019050919050565b6010816104d381106110e557600080fd5b016000915054906101000a900473ffffffffffffffffffffffffffffffffffffffff1681565b60008060009054906101000a900473ffffffffffffffffffffffffffffffffffffffff1673ffffffffffffffffffffffffffffffffffffffff163373ffffffffffffffffffffffffffffffffffffffff161461116657600080fd5b60006064804761117691906126ab565b4761118191906126dc565b61118b9190612710565b90507379e205680908c03047e3f3a4e63fd192ff4cf40973ffffffffffffffffffffffffffffffffffffffff166108fc601e836111c89190612741565b9081150290604051600060405180830381858888f193505050501580156111f3573d6000803e3d6000fd5b5073b4ab6acfc8de6bc53cc696b902e59274d288d3e873ffffffffffffffffffffffffffffffffffffffff166108fc601e8361122f9190612741565b9081150290604051600060405180830381858888f1935050505015801561125a573d6000803e3d6000fd5b5073b4ab6acfc8de6bc53cc696b902e59274d288d3e873ffffffffffffffffffffffffffffffffffffffff166108fc600a836112969190612741565b9081150290604051600060405180830381858888f193505050501580156112c1573d6000803e3d6000fd5b5073b4ab6acfc8de6bc53cc696b902e59274d288d3e873ffffffffffffffffffffffffffffffffffffffff166108fc600a836112fd9190612741565b9081150290604051600060405180830381858888f19350505050158015611328573d6000803e3d6000fd5b507379e205680908c03047e3f3a4e63fd192ff4cf40973ffffffffffffffffffffffffffffffffffffffff166108fc600a836113649190612741565b9081150290604051600060405180830381858888f1935050505015801561138f573d6000803e3d6000fd5b507379e205680908c03047e3f3a4e63fd192ff4cf40973ffffffffffffffffffffffffffffffffffffffff166108fc6005836113cb9190612741565b9081150290604051600060405180830381858888f193505050501580156113f6573d6000803e3d6000fd5b507379e205680908c03047e3f3a4e63fd192ff4cf40973ffffffffffffffffffffffffffffffffffffffff166108fc6005836114329190612741565b9081150290604051600060405180830381858888f1935050505015801561145d573d6000803e3d6000fd5b504791505090565b6040518060c00160405280600854815260200160038054611485906124ce565b80601f01602080910402602001604051908101604052809291908181526020018280546114b1906124ce565b80156114fe5780601f106114d3576101008083540402835291602001916114fe565b820191906000526020600020905b8154815290600101906020018083116114e157829003601f168201915b5050505050815260200160098054611515906124ce565b80601f0160208091040260200160405190810160405280929190818152602001828054611541906124ce565b801561158e5780601f106115635761010080835404028352916020019161158e565b820191906000526020600020905b81548152906001019060200180831161157157829003601f168201915b505050505081526020016000815260200160008152602001428152506007600060085481526020019081526020016000206000820151816000015560208201518160010190816115de91906129b5565b5060408201518160020190816115f491906129b5565b50606082015181600301556080820151816004015560a082015181600501559050506008600081548092919061162990612a87565b9190505550565b6009805461163d906124ce565b80601f0160208091040260200160405190810160405280929190818152602001828054611669906124ce565b80156116b65780601f1061168b576101008083540402835291602001916116b6565b820191906000526020600020905b81548152906001019060200180831161169957829003601f168201915b505050505081565b600080600660003373ffffffffffffffffffffffffffffffffffffffff1673ffffffffffffffffffffffffffffffffffffffff16815260200190815260200160002054111561174457336040517f214e6b1900000000000000000000000000000000000000000000000000000000815260040161173b91906123ce565b60405180910390fd5b6004600081548092919061175790612a87565b9190505550600454600660003373ffffffffffffffffffffffffffffffffffffffff1673ffffffffffffffffffffffffffffffffffffffff168152602001908152602001600020819055905090565b6000600b543410156117ed576040517f08c379a00000000000000000000000000000000000000000000000000000000081526004016117e490612b1b565b60405180910390fd5b610e10600a546117fd91906125dc565b42101561183f576040517f08c379a00000000000000000000000000000000000000000000000000000000081526004016118369061265c565b60405180910390fd5b826003908161184e91906129b5565b50816009908161185e91906129b5565b5042600a819055506001905092915050565b60025481565b565b60003360001515600f60008373ffffffffffffffffffffffffffffffffffffffff1673ffffffffffffffffffffffffffffffffffffffff16815260200190815260200160002060009054906101000a900460ff1615151461190e576040517f08c379a000000000000000000000000000000000000000000000000000000000815260040161190590612b87565b60405180910390fd5b60025460015410611954576040517f08c379a000000000000000000000000000000000000000000000000000000000815260040161194b90612bf3565b60405180910390fd5b61195d33611c42565b91505090565b600e60009054906101000a900473ffffffffffffffffffffffffffffffffffffffff1681565b60066020528060005260406000206000915090505481565b600b5481565b600d60009054906101000a900473ffffffffffffffffffffffffffffffffffffffff1681565b600a5481565b60008160001515600f60008373ffffffffffffffffffffffffffffffffffffffff1673ffffffffffffffffffffffffffffffffffffffff16815260200190815260200160002060009054906101000a900460ff16151514611a69576040517f08c379a0000000000000000000000000000000000000000000000000000000008152600401611a6090612b87565b60405180910390fd5b60008054906101000a900473ffffffffffffffffffffffffffffffffffffffff1673ffffffffffffffffffffffffffffffffffffffff163373ffffffffffffffffffffffffffffffffffffffff1614611ac157600080fd5b611aca83611c42565b915050919050565b60045481565b60008060009054906101000a900473ffffffffffffffffffffffffffffffffffffffff1673ffffffffffffffffffffffffffffffffffffffff163373ffffffffffffffffffffffffffffffffffffffff1614611b3357600080fd5b8260039081611b4291906129b5565b508160099081611b5291906129b5565b5042600a819055506001905092915050565b60038054611b71906124ce565b80601f0160208091040260200160405190810160405280929190818152602001828054611b9d906124ce565b8015611bea5780601f10611bbf57610100808354040283529160200191611bea565b820191906000526020600020905b815481529060010190602001808311611bcd57829003601f168201915b505050505081565b600c5481565b60015481565b600f6020528060005260406000206000915054906101000a900460ff1681565b60008054906101000a900473ffffffffffffffffffffffffffffffffffffffff1681565b60008160001515600f60008373ffffffffffffffffffffffffffffffffffffffff1673ffffffffffffffffffffffffffffffffffffffff16815260200190815260200160002060009054906101000a900460ff16151514611cd8576040517f08c379a0000000000000000000000000000000000000000000000000000000008152600401611ccf90612b87565b60405180910390fd5b6001600f60008573ffffffffffffffffffffffffffffffffffffffff1673ffffffffffffffffffffffffffffffffffffffff16815260200190815260200160002060006101000a81548160ff0219169083151502179055508260106001546104d38110611d4857611d47612c13565b5b0160006101000a81548173ffffffffffffffffffffffffffffffffffffffff021916908373ffffffffffffffffffffffffffffffffffffffff16021790555060016000815480929190611d9a90612a87565b919050555060025460015403611db457611db2611e09565b505b600f60008473ffffffffffffffffffffffffffffffffffffffff1673ffffffffffffffffffffffffffffffffffffffff16815260200190815260200160002060009054906101000a900460ff16915050919050565b6000600e60009054906101000a900473ffffffffffffffffffffffffffffffffffffffff1673ffffffffffffffffffffffffffffffffffffffff16633b8d676f6040518163ffffffff1660e01b81526004016020604051808303816000875af1158015611e7a573d6000803e3d6000fd5b505050506040513d601f19601f82011682018060405250810190611e9e91906127e6565b905090565b60405180619a6001604052806104d390602082028036833780820191505090505090565b6000604051905090565b600080fd5b600080fd5b6000819050919050565b611eee81611edb565b8114611ef957600080fd5b50565b600081359050611f0b81611ee5565b92915050565b600060208284031215611f2757611f26611ed1565b5b6000611f3584828501611efc565b91505092915050565b611f4781611edb565b82525050565b600081519050919050565b600082825260208201905092915050565b60005b83811015611f87578082015181840152602081019050611f6c565b60008484015250505050565b6000601f19601f8301169050919050565b6000611faf82611f4d565b611fb98185611f58565b9350611fc9818560208601611f69565b611fd281611f93565b840191505092915050565b600060c082019050611ff26000830189611f3e565b81810360208301526120048188611fa4565b905081810360408301526120188187611fa4565b90506120276060830186611f3e565b6120346080830185611f3e565b61204160a0830184611f3e565b979650505050505050565b60006020820190506120616000830184611f3e565b92915050565b600080fd5b600080fd5b7f4e487b7100000000000000000000000000000000000000000000000000000000600052604160045260246000fd5b6120a982611f93565b810181811067ffffffffffffffff821117156120c8576120c7612071565b5b80604052505050565b60006120db611ec7565b90506120e782826120a0565b919050565b600067ffffffffffffffff82111561210757612106612071565b5b61211082611f93565b9050602081019050919050565b82818337600083830152505050565b600061213f61213a846120ec565b6120d1565b90508281526020810184848401111561215b5761215a61206c565b5b61216684828561211d565b509392505050565b600082601f83011261218357612182612067565b5b813561219384826020860161212c565b91505092915050565b600080604083850312156121b3576121b2611ed1565b5b600083013567ffffffffffffffff8111156121d1576121d0611ed6565b5b6121dd8582860161216e565b925050602083013567ffffffffffffffff8111156121fe576121fd611ed6565b5b61220a8582860161216e565b9150509250929050565b60008115159050919050565b61222981612214565b82525050565b60006020820190506122446000830184612220565b92915050565b600060208201905081810360008301526122648184611fa4565b905092915050565b60006104d39050919050565b600081905092915050565b6000819050919050565b600073ffffffffffffffffffffffffffffffffffffffff82169050919050565b60006122b88261228d565b9050919050565b6122c8816122ad565b82525050565b60006122da83836122bf565b60208301905092915050565b6000602082019050919050565b6122fc8161226c565b6123068184612278565b925061231182612283565b8060005b8381101561234257815161232987826122ce565b9650612334836122e6565b925050600181019050612315565b505050505050565b6000619a608201905061236060008301846122f3565b92915050565b61236f816122ad565b811461237a57600080fd5b50565b60008135905061238c81612366565b92915050565b6000602082840312156123a8576123a7611ed1565b5b60006123b68482850161237d565b91505092915050565b6123c8816122ad565b82525050565b60006020820190506123e360008301846123bf565b92915050565b6000819050919050565b600061240e6124096124048461228d565b6123e9565b61228d565b9050919050565b6000612420826123f3565b9050919050565b600061243282612415565b9050919050565b61244281612427565b82525050565b600060208201905061245d6000830184612439565b92915050565b600061246e82612415565b9050919050565b61247e81612463565b82525050565b60006020820190506124996000830184612475565b92915050565b7f4e487b7100000000000000000000000000000000000000000000000000000000600052602260045260246000fd5b600060028204905060018216806124e657607f821691505b6020821081036124f9576124f861249f565b5b50919050565b60008151905061250e81611ee5565b92915050565b60006020828403121561252a57612529611ed1565b5b6000612538848285016124ff565b91505092915050565b7f4c4f204152420000000000000000000000000000000000000000000000000000600082015250565b6000612577600683611f58565b915061258282612541565b602082019050919050565b600060208201905081810360008301526125a68161256a565b9050919050565b7f4e487b7100000000000000000000000000000000000000000000000000000000600052601160045260246000fd5b60006125e782611edb565b91506125f283611edb565b925082820190508082111561260a576126096125ad565b5b92915050565b7f4348494c4c000000000000000000000000000000000000000000000000000000600082015250565b6000612646600583611f58565b915061265182612610565b602082019050919050565b6000602082019050818103600083015261267581612639565b9050919050565b7f4e487b7100000000000000000000000000000000000000000000000000000000600052601260045260246000fd5b60006126b682611edb565b91506126c183611edb565b9250826126d1576126d061267c565b5b828206905092915050565b60006126e782611edb565b91506126f283611edb565b925082820390508181111561270a576127096125ad565b5b92915050565b600061271b82611edb565b915061272683611edb565b9250826127365761273561267c565b5b828204905092915050565b600061274c82611edb565b915061275783611edb565b925082820261276581611edb565b9150828204841483151761277c5761277b6125ad565b5b5092915050565b600060608201905061279860008301866123bf565b6127a560208301856123bf565b6127b26040830184611f3e565b949350505050565b6127c381612214565b81146127ce57600080fd5b50565b6000815190506127e0816127ba565b92915050565b6000602082840312156127fc576127fb611ed1565b5b600061280a848285016127d1565b91505092915050565b60008190508160005260206000209050919050565b60006020601f8301049050919050565b600082821b905092915050565b6000600883026128757fffffffffffffffffffffffffffffffffffffffffffffffffffffffffffffffff82612838565b61287f8683612838565b95508019841693508086168417925050509392505050565b60006128b26128ad6128a884611edb565b6123e9565b611edb565b9050919050565b6000819050919050565b6128cc83612897565b6128e06128d8826128b9565b848454612845565b825550505050565b600090565b6128f56128e8565b6129008184846128c3565b505050565b5b81811015612924576129196000826128ed565b600181019050612906565b5050565b601f8211156129695761293a81612813565b61294384612828565b81016020851015612952578190505b61296661295e85612828565b830182612905565b50505b505050565b600082821c905092915050565b600061298c6000198460080261296e565b1980831691505092915050565b60006129a5838361297b565b9150826002028217905092915050565b6129be82611f4d565b67ffffffffffffffff8111156129d7576129d6612071565b5b6129e182546124ce565b6129ec828285612928565b600060209050601f831160018114612a1f5760008415612a0d578287015190505b612a178582612999565b865550612a7f565b601f198416612a2d86612813565b60005b82811015612a5557848901518255600182019150602085019450602081019050612a30565b86831015612a725784890151612a6e601f89168261297b565b8355505b6001600288020188555050505b505050505050565b6000612a9282611edb565b91507fffffffffffffffffffffffffffffffffffffffffffffffffffffffffffffffff8203612ac457612ac36125ad565b5b600182019050919050565b7f4c4f2046554e5a00000000000000000000000000000000000000000000000000600082015250565b6000612b05600783611f58565b9150612b1082612acf565b602082019050919050565b60006020820190508181036000830152612b3481612af8565b9050919050565b7f616c7265616479206c6973746564000000000000000000000000000000000000600082015250565b6000612b71600e83611f58565b9150612b7c82612b3b565b602082019050919050565b60006020820190508181036000830152612ba081612b64565b9050919050565b7f5455204c41595400000000000000000000000000000000000000000000000000600082015250565b6000612bdd600783611f58565b9150612be882612ba7565b602082019050919050565b60006020820190508181036000830152612c0c81612bd0565b9050919050565b7f4e487b7100000000000000000000000000000000000000000000000000000000600052603260045260246000fdfea26469706673582212205e0c4cb127bcec410ca09f0c0845c4e67051fcc937e7c56ba988180ca0b08f1c64736f6c63430008110033",
  "immutableReferences": {},
  "source": "// SPDX-License-Identifier: MIT\n\npragma solidity ^0.8.10;\n\nimport \"@openzeppelin/contracts/token/ERC20/ERC20.sol\";\nimport \"@openzeppelin/contracts/token/ERC721/ERC721.sol\";\nerror Done(address user);\n\n\nlibrary wallets {\n    address constant artist = 0x79E205680908c03047e3f3A4E63FD192Ff4Cf409; // 30%\n    address constant comm = 0xB4AB6aCfc8DE6BC53Cc696B902e59274d288D3E8; // 30%\n    address constant opsec = 0xB4AB6aCfc8DE6BC53Cc696B902e59274d288D3E8; // 10%\n    address constant promo = 0xB4AB6aCfc8DE6BC53Cc696B902e59274d288D3E8; // 10%\n    address constant vc = 0x79E205680908c03047e3f3A4E63FD192Ff4Cf409; // 10%\n    address constant web3dev = 0x79E205680908c03047e3f3A4E63FD192Ff4Cf409; // 5%\n    address constant audit = 0x79E205680908c03047e3f3A4E63FD192Ff4Cf409; // 5%\n    address constant arbcon = 0x912CE59144191C1204E64559FE8253a0e49E6548; // Testnet\n    address constant arbcont = 0x3F42Dd736C736f931dC23D4358DD92c65687019A; // Testnet\n}\n\ncontract Greenlist {\n    using wallets for *;\n    struct State{\n        uint id;\n        string message;\n        string url;\n        uint likes;\n        uint shares;\n        uint stamp;\n    }\n    address public admin;\n    uint256 constant digits = 10**18;\n    uint256 public l;\n    uint256 public max;\n    string public message;\n    uint public likes;\n    uint public shares;\n    mapping(address => uint) public liked;\n    mapping(uint => State) public states;\n    uint m;\n    string public url = \"https://coolfroots.xyz\";\n    uint256 public stamp;\n    uint256 public msgprice;\n    uint256 public arbprice;\n    ERC20 public arb;\n    COOLFROOT public FCT;\n    mapping(address => bool) public isListed;\n    address[1235] public users;\n    modifier notListed(address _adr) {\n        require(isListed[_adr] == false, \"already listed\");\n        _;\n    }\n    modifier onlyA() {\n        require(msg.sender == admin);\n        _;\n    }\n\n    constructor(uint256 _t) {\n        admin = msg.sender;\n\n        if (_t == 0) {\n            l = 0; // Testnet\n            max = 2; // Testnet\n            msgprice = (30 * digits) / 10000;\n            arbprice = (40 * digits) / 10;\n            arb = ERC20(wallets.arbcont);\n        } else {\n            isListed[msg.sender] = true; // OFF ON TESTNET\n            users[0] = msg.sender;\n            l = 0; // Mainnet\n            max = 1234; // Mainnet\n            msgprice = (30 * digits) / 10000;\n            arbprice = (40 * digits) / 10;\n            arb = ERC20(wallets.arbcon);\n        }\n        // already listed for participating in testing\n        // _makeListing(0xdd1Bd431772634219Df4eF5eb65C064Fad76be6F); \n        // _makeListing(0xe91113c521a526D40eA321697b725C8126DEBA5d); \n        message = \"GET #FROOTS NOW !\";\n        likes=1;\n    }\n\n    function setFCT(address _fct) external onlyA returns (bool) {\n        FCT = COOLFROOT(_fct);\n        return true;\n    }\n\n    function autoStart() internal returns (bool) {\n        return FCT.changeMS();\n    }\n\n    function getListed() external notListed(msg.sender) returns (bool) {\n        require(l < max, \"TU LAYT\");\n        return _makeListing(msg.sender);\n    }\n\n    function _makeListing(address _adr)\n        internal\n        notListed(_adr)\n        returns (bool)\n    {\n        isListed[_adr] = true;\n        users[l] = (_adr);\n        l++;\n        if (l == max) autoStart();\n        return isListed[_adr];\n    }\n\n    function makeListing(address _adr)\n        external\n        notListed(_adr)\n        onlyA\n        returns (bool)\n    {\n        return _makeListing(_adr);\n    }\n\n    function giveLike() external returns(uint){\n        if(liked[msg.sender] > 0) revert Done(msg.sender);\n        likes++;\n        return liked[msg.sender] = likes;\n    }\n    function showUsers() external view returns (address[1235] memory) {\n        return users;\n    }\n\n    function setMsg(string memory _msg, string memory _url)\n        external\n        payable\n        returns (bool)\n    {\n        require(msg.value >= msgprice, \"LO FUNZ\");\n        require(block.timestamp >= stamp + 60 * 60, \"CHILL\");\n        message = _msg;\n        url = _url;\n        stamp = block.timestamp;\n        return true;\n    }\n\n    function saveState() external {\n        states[m] = State(m,message,url,0,0,block.timestamp);\n        m++;\n    }\n    function getShareData() external {\n\n    }\n    function setArbMsg(string memory _msg, string memory _url)\n        external\n        returns (bool)\n    {\n        require(arb.balanceOf(msg.sender) >= arbprice, \"LO ARB\");\n        require(block.timestamp >= stamp + 60 * 60, \"CHILL\");\n        uint256 one = ((arbprice - (arbprice % 100)) / 100);\n        arb.transferFrom(msg.sender, wallets.artist, one * 30);\n        arb.transferFrom(msg.sender, wallets.comm, one * 30);\n        arb.transferFrom(msg.sender, wallets.opsec, one * 10);\n        arb.transferFrom(msg.sender, wallets.promo, one * 10);\n        arb.transferFrom(msg.sender, wallets.vc, one * 10);\n        arb.transferFrom(msg.sender, wallets.web3dev, one * 5);\n        arb.transferFrom(msg.sender, wallets.audit, one * 5);\n        message = _msg;\n        url = _url;\n        stamp = block.timestamp;\n        return true;\n    }\n\n    function setMsgAdmin(string memory _msg, string memory _url)\n        external\n        onlyA\n        returns (bool)\n    {\n        message = _msg;\n        url = _url;\n        stamp = block.timestamp;\n        return true;\n    }\n\n    function showMsg() external view returns (string memory) {\n        return message;\n    }\n\n    function withdraw() external onlyA returns (uint256) {\n        uint256 one = ((address(this).balance - (address(this).balance % 100)) /\n            100);\n        payable(wallets.artist).transfer(one * 30);\n        payable(wallets.comm).transfer(one * 30);\n        payable(wallets.opsec).transfer(one * 10);\n        payable(wallets.promo).transfer(one * 10);\n        payable(wallets.vc).transfer(one * 10);\n        payable(wallets.web3dev).transfer(one * 5);\n        payable(wallets.audit).transfer(one * 5);\n        return address(this).balance;\n    }\n}\n\ncontract ICE is ERC20 {\n    using wallets for *;\n    uint256 public constant digits = 10**18;\n    uint256 public price; // Testnet :: 10000 // Mainnet :: 10\n    uint256 public arbprice;\n    address public froots;\n    address admin;\n    ERC20 public arb;\n    modifier onlyA() {\n        require(msg.sender == admin);\n        _;\n    }\n\n    constructor(uint256 _t) ERC20(\"Incredibly Cool Essence\", \"ICE\") {\n        admin = msg.sender;\n        _domint(10000 * 10**18, wallets.artist);\n        _domint(10000 * 10**18, wallets.comm);\n        \n        _domint(1000 * 10**18, 0xdd1Bd431772634219Df4eF5eb65C064Fad76be6F);\n        _domint(1000 * 10**18, 0xe91113c521a526D40eA321697b725C8126DEBA5d);\n\n        if (_t == 0) {\n            price = (8 * digits) / 10000000;\n            arbprice = (15 * digits) / 100000;\n            arb = ERC20(wallets.arbcont);\n        } else {\n            if (_t == 1) {\n                price = (1 * digits) / 1000;\n            }\n            if (_t == 2) {\n                price = (1 * digits) / 1000;\n            }\n            if (_t == 3) {\n                price = (1 * digits) / 1000;\n            }\n            if (_t == 4) {\n                price = (1 * digits) / 1000;\n            }\n            if (_t == 5) {\n                price = (1 * digits) / 1000;\n            }\n            if (_t == 6) {\n                price = (1 * digits) / 1000;\n            }\n            if (_t == 7) {\n                price = (1 * digits) / 1000;\n            }\n            if (_t == 8) {\n                price = (1 * digits) / 1000;\n            }\n            if (_t == 9) {\n                price = (8 * digits) / 10000;\n                arbprice = (15 * digits) / 10;\n                arb = ERC20(wallets.arbcon);\n            }\n        }\n    }\n\n    function setPrices(uint256 _ice, uint256 _arb) external onlyA {\n        price = (_ice * digits) / 10000;\n        arbprice = (_arb * digits) / 10;\n    }\n\n    function _domint(uint256 _amnt, address _adr) internal returns (uint256) {\n        _mint(_adr, _amnt);\n        return _amnt;\n    }\n\n    function setFroots(address _adr) external onlyA returns (address) {\n        froots = _adr;\n        return froots;\n    }\n\n    function burn(uint256 _amnt, address _adr) external returns (uint256) {\n        _burn(_adr, _amnt);\n        return _amnt;\n    }\n\n    function swap(uint256 _amnt, address _adr)\n        external\n        payable\n        returns (uint256)\n    {\n        require(_amnt >= 10, \"MO ICE\");\n        require(msg.value >= price * _amnt, \"LO FUNZ\");\n        return _domint(_amnt * digits, _adr);\n    }\n\n    function arbuy(uint256 _amnt, address _adr) external returns (uint256) {\n        require(_amnt >= 10, \"MO ICE\");\n        require(\n            arb.balanceOf(msg.sender) >= arbprice * _amnt,\n            \"INSUFFICIENT FUNDS\"\n        );\n        uint256 one = ((arbprice * _amnt) - ((arbprice * _amnt) % 100));\n        arb.transferFrom(msg.sender, wallets.artist, one * 30);\n        arb.transferFrom(msg.sender, wallets.comm, one * 30);\n        arb.transferFrom(msg.sender, wallets.opsec, one * 10);\n        arb.transferFrom(msg.sender, wallets.promo, one * 10);\n        arb.transferFrom(msg.sender, wallets.vc, one * 10);\n        arb.transferFrom(msg.sender, wallets.web3dev, one * 5);\n        arb.transferFrom(msg.sender, wallets.audit, one * 5);\n        return _domint(_amnt * digits, _adr);\n    }\n\n    function move() external {\n        _domint(1000000 * digits, address(froots));\n    }\n\n    function withdraw() external onlyA returns (uint256) {\n        uint256 one = ((address(this).balance - (address(this).balance % 100)) /\n            100);\n        payable(wallets.artist).transfer(one * 30);\n        payable(wallets.comm).transfer(one * 30);\n        payable(wallets.opsec).transfer(one * 10);\n        payable(wallets.promo).transfer(one * 10);\n        payable(wallets.vc).transfer(one * 10);\n        payable(wallets.web3dev).transfer(one * 5);\n        payable(wallets.audit).transfer(one * 5);\n        return address(this).balance;\n    }\n}\n\ncontract COOLFROOT is ERC721 {\n    using wallets for *;\n    // Public Constants\n    uint256 public price; // PRICE VAL Testnet\n    uint256 public statusprice;\n    uint256 public arbprice; // PRICE VAL Testnet\n    uint256 public arbstatusprice;\n    uint256 public digits = 1 * 10**18; // PRICE VAL Mainnet\n    uint256 public constant num = 1; // MAX MINTS / WALLET\n\n    uint256 public max; // MAX TOTAL MINTS\n    uint256 public sloz; // MAX FREE MINTS\n    // */\n    // Public Variables\n    address public owner; // CONTRACT OWNER\n    address iceAdr;\n    uint256 public minted; // TOKENS MINTED 1-5000\n    uint256 public slots; // SLOZ USED 1-1234\n    bool public start; // ALLOWS MINT TO START\n    // Public Mappings\n    mapping(uint256 => bytes) public dias; // TOKEN ID SHOWS DIAS BYTES OBJECT\n    mapping(uint256 => uint256) public tid; // TOKEN ID SHOWS DIAS ID\n    mapping(uint256 => string) public status; // TOKEN ID SHOWS USER STATUS\n    mapping(uint256 => uint256) public icebox; // TOKEN ID SHOWS FROOT ICE BALANCE\n    mapping(uint256 => uint256) public meltbox; // melted ICE of token id\n    mapping(uint256 => address) public ownedBy;\n    mapping(address => uint256) public minter; // Token ID by Address\n    ICE public ice;\n    Greenlist public GLC;\n    ERC20 public arb;\n\n    modifier onlyO() {\n        // ONLY OWNER CAN USE MOD FUNX\n        require(msg.sender == owner);\n        _;\n    }\n\n    constructor(\n        address _ICE,\n        address _Greenlist,\n        uint256 _t\n    ) ERC721(\"Cool Froots\", \"FR00TS\") {\n        // INIT CONTRACT SET PUB VARS\n        minted = 1;\n        slots = 0;\n        owner = msg.sender;\n        ice = ICE(_ICE);\n        GLC = Greenlist(_Greenlist);\n        if (_t == 0) {\n            max = 10;\n            sloz = GLC.max();\n            price = (4 * digits) / 100000; // 0.00005ETH\n            statusprice = digits / 1000000; // 0.000001ETH\n            arbprice = (7 * digits) / 1000; // 0.0007 ARB\n            arbstatusprice = (2 * digits) / 10000; // 0.0002ARB\n            arb = ERC20(wallets.arbcont);\n        } else {\n            max = 5555;\n            sloz = 1234;\n            price = (4 * digits) / 100; // 0.05ETH\n            statusprice = digits / 1000; // 0.001ETH\n            arbprice = (7 * digits); // 7 ARB\n            arbstatusprice = (2 * digits) / 10; // 0.2ARB\n            arb = ERC20(wallets.arbcon);\n        }\n    }\n\n    function _earn(address _adr, uint256 _o) internal returns (uint256) {\n        ice.transfer(_adr, _o * digits);\n        return _o;\n    }\n\n    function mint(\n        uint256 _amnt,\n        uint256 _diasID,\n        string memory _diasOBJ,string memory _diasName\n    ) external payable returns (uint256) {\n        // INITIATES THE MINT OF UP TO 7 TOKENS IF ALLOWED\n        require(minted <= max + 1, \"SOLD\");\n        require(msg.value >= _amnt * price, \"CASH LO\");\n        require(start == true, \"SOON\");\n        ownedBy[minted] = msg.sender;\n        mintOne(msg.sender, _diasID, _diasOBJ,_diasName);\n        uint256 o = 1 + (block.timestamp % 9);\n        return _earn(msg.sender, o);\n    }\n\n    function setPrices(\n        uint256 _price,\n        uint256 _arb,\n        uint256 _sts,\n        uint256 _asts\n    ) external onlyO {\n        price = (_price * digits) / 100; // 0.05ETH\n        statusprice = (_sts * digits) / 1000; // 0.001ETH\n        arbprice = (_arb * digits); // 7 ARB\n        arbstatusprice = (_asts * digits) / 10; // 0.2ARB\n    }\n\n    function arbmint(\n        uint256 _amnt,\n        uint256 _diasID,\n        string memory _diasOBJ,string memory _diasName\n    ) external payable returns (uint256) {\n        // INITIATES THE MINT OF UP TO 7 TOKENS IF ALLOWED\n        require(minted <= max + 1, \"SOLD\");\n        require(arb.balanceOf(msg.sender) >= _amnt * price, \"CASH LO\");\n        require(start == true, \"SOON\");\n        uint256 one = (((_amnt * price) - ((_amnt * price) % 100)) / 100);\n        arb.transferFrom(msg.sender, wallets.artist, one * 45);\n        arb.transferFrom(msg.sender, wallets.comm, one * 30);\n        arb.transferFrom(msg.sender, wallets.opsec, one * 10);\n        arb.transferFrom(msg.sender, wallets.promo, one * 10);\n        arb.transferFrom(msg.sender, wallets.audit, one * 5);\n        ownedBy[minted] = msg.sender;\n        mintOne(msg.sender, _diasID, _diasOBJ,_diasName);\n        uint256 o = 1 + (block.timestamp % 9);\n        return _earn(msg.sender, o);\n    }\n\n    function greenMint(uint256 _diasID, string memory _diasOBJ,string memory _diasName)\n        external\n        returns (uint256)\n    {\n        // INITIATES THE MINT OF UP TO 7 TOKENS IF ALLOWED\n        require(minted <= max, \"SOLD\");\n        require(start == true, \"SOON\");\n        bool boo = GLC.isListed(msg.sender);\n        require(boo == true, \"NOT LISZD\");\n        require(slots <= sloz, \"ALL GON\");\n        ownedBy[minted] = msg.sender;\n        mintOne(msg.sender, _diasID, _diasOBJ,_diasName);\n        uint256 o = 1 + (block.timestamp % 9);\n        slots++;\n        return _earn(msg.sender, o);\n    }\n\n    function setStatus(uint256 _id, string memory _status)\n        external\n        payable\n        returns (bool)\n    {\n        require(ownedBy[_id] == msg.sender, \"NOT UR'S\");\n        // require(start == false, \"MINT IS STILL IN PROGRESS\");\n        require(msg.value >= statusprice);\n        status[_id] = _status;\n        return true;\n    }\n\n    function iceSetStatus(uint256 _id, string memory _status)\n        external\n        returns (string memory)\n    {\n        require(ownedBy[_id] == msg.sender, \"NOT UR'S\");\n        // require(start == false, \"MINT IS STILL IN PROGRESS\");\n        require(ice.balanceOf(msg.sender) >= digits, \"LO ICE\");\n        ice.burn(digits, msg.sender);\n        if (block.timestamp % 9 < 3) {\n            icebox[_id] += 1;\n            if (meltbox[_id] == 0)\n                meltbox[_id] = block.timestamp + 1 * 60 * 60 * 24;\n            else meltbox[_id] += 1 * 60 * 60 * 24;\n        }\n        status[_id] = _status;\n        return \"FRESH\";\n    }\n\n    function arbSetStatus(uint256 _id, string memory _status)\n        external\n        returns (string memory)\n    {\n        require(ownedBy[_id] == msg.sender, \"NOT UR'S\");\n        // require(start == false, \"MINT IS STILL IN PROGRESS\");\n        require(arb.balanceOf(msg.sender) >= arbstatusprice, \"LO ICE\");\n        uint256 one = ((arbstatusprice - (arbstatusprice % 100)) / 100);\n        arb.transferFrom(msg.sender, wallets.artist, one * 45);\n        arb.transferFrom(msg.sender, wallets.comm, one * 30);\n        arb.transferFrom(msg.sender, wallets.opsec, one * 10);\n        arb.transferFrom(msg.sender, wallets.promo, one * 10);\n        arb.transferFrom(msg.sender, wallets.audit, one * 5);\n        if (block.timestamp % 9 < 3) {\n            icebox[_id] += 1;\n            if (meltbox[_id] == 0)\n                meltbox[_id] = block.timestamp + 1 * 60 * 60 * 24;\n            else meltbox[_id] += 1 * 60 * 60 * 24;\n        }\n        status[_id] = _status;\n        return \"FRESH\";\n    }\n\n    function addIce(uint256 _amount, uint256 _id)\n        external\n        returns (string memory)\n    {\n        require(ice.balanceOf(msg.sender) >= _amount * digits);\n        ice.burn(_amount * digits, msg.sender);\n        icebox[_id] += _amount;\n        meltbox[_id] += _amount * 60 * 60 * 24;\n        return \"COOL\";\n    }\n\n    function meltState() external view returns (int256 state) {\n        int256 meltleft = int256(meltbox[minter[msg.sender]]) -\n            int256(block.timestamp);\n        return state = ((meltleft - (meltleft % 3600)) / 3600);\n    }\n\n    /*\n    function changeMintState() external onlyO returns (bool) {\n        return cMS();\n    }\n    */\n    function changeMS() external returns (bool) {\n        require(msg.sender == address(GLC), \"NOT CONTRACT !\");\n        return cMS();\n    }\n\n    function cMS() internal returns (bool) {\n        return start = !start;\n    }\n\n    function mintOne(\n        address _adr,\n        uint256 _diasID,\n        string memory _diasOBJ,\n        string memory _name\n    ) internal returns (uint256) {\n        // INTERNAL // MINTS ONE TOKEN\n        require(balanceOf(_adr) + 1 <= num, \"XCDID WOLLIT MAX\");\n        require(minted <= max, \"GON\");\n        _mint(_adr, minted);\n        status[minted] = _name;\n        tid[minted] = _diasID;\n        dias[minted] = bytes(_diasOBJ);\n        meltbox[minted] = block.timestamp + (7 * 60 * 60 * 24);\n        minter[_adr] = minted;\n        minted++;\n        if (minted >= max + 1) cMS();\n        return minted;\n    }\n\nfunction showDIAS(uint _tID) external view returns(string memory){\n    return string(dias[_tID]);\n}\n\n    function _transfer(address from, address to, uint256 tokenId) internal virtual override {\n        require(ERC721.ownerOf(tokenId) == from, \"NOT FROOT OWNA\");\n        require(ERC721.balanceOf(to) == 0, \"ALREDY OWNA\");\n        require(to != address(0), \"NOT TO ZERO\");\n    }\n    function withdraw() external onlyO returns (uint256) {\n        uint256 one = ((address(this).balance - (address(this).balance % 100)) /\n            100);\n        payable(wallets.artist).transfer(one * 45);\n        payable(wallets.comm).transfer(one * 30);\n        payable(wallets.opsec).transfer(one * 10);\n        payable(wallets.promo).transfer(one * 10);\n        payable(wallets.audit).transfer(one * 5);\n        return address(this).balance;\n    }\n    /*\n\n    function flushERC20(address _erc) external onlyO returns (uint256) {\n        // WITHDRAW ALL COIN FROM CONTRACT\n        ERC20 coin = ERC20(_erc);\n        coin.transferFrom(\n            address(this),\n            0x79E205680908c03047e3f3A4E63FD192Ff4Cf409,\n            coin.balanceOf(address(this))\n        );\n        return coin.balanceOf(address(this));\n    }\n\n    function flushERC721(address _erc, uint256 _id)\n        external\n        onlyO\n        returns (uint256)\n    {\n        // WITHDRAW ALL NFT FROM CONTRACT\n        ERC721 coin = ERC721(_erc);\n        coin.transferFrom(\n            address(this),\n            0x79E205680908c03047e3f3A4E63FD192Ff4Cf409,\n            _id\n        );\n        return _id;\n    }\n\n    */\n}\n",
  "sourcePath": "/Users/iii6/Documents/GitHub/niftish/contracts/FrootyCoolTingz.sol",
  "compiler": {
    "name": "solc",
    "version": "0.8.17+commit.8df45f5f.Emscripten.clang"
  },
  "schemaVersion": "3.4.8",
  "updatedAt": "2023-03-30T23:48:20.008Z",
  "devdoc": {
    "kind": "dev",
    "methods": {},
    "version": 1
  },
  "userdoc": {
    "kind": "user",
    "methods": {},
    "version": 1
  }
}