{
  "contractName": "Greenlist",
  "abi": [
    {
      "inputs": [
        {
          "internalType": "uint256",
          "name": "_t",
          "type": "uint256"
        }
      ],
      "stateMutability": "nonpayable",
      "type": "constructor"
    },
    {
      "inputs": [],
      "name": "FCT",
      "outputs": [
        {
          "internalType": "contract FrootyCoolTingz",
          "name": "",
          "type": "address"
        }
      ],
      "stateMutability": "view",
      "type": "function",
      "constant": true
    },
    {
      "inputs": [],
      "name": "admin",
      "outputs": [
        {
          "internalType": "address",
          "name": "",
          "type": "address"
        }
      ],
      "stateMutability": "view",
      "type": "function",
      "constant": true
    },
    {
      "inputs": [],
      "name": "digits",
      "outputs": [
        {
          "internalType": "uint256",
          "name": "",
          "type": "uint256"
        }
      ],
      "stateMutability": "view",
      "type": "function",
      "constant": true
    },
    {
      "inputs": [
        {
          "internalType": "address",
          "name": "",
          "type": "address"
        }
      ],
      "name": "isListed",
      "outputs": [
        {
          "internalType": "bool",
          "name": "",
          "type": "bool"
        }
      ],
      "stateMutability": "view",
      "type": "function",
      "constant": true
    },
    {
      "inputs": [],
      "name": "l",
      "outputs": [
        {
          "internalType": "uint256",
          "name": "",
          "type": "uint256"
        }
      ],
      "stateMutability": "view",
      "type": "function",
      "constant": true
    },
    {
      "inputs": [],
      "name": "max",
      "outputs": [
        {
          "internalType": "uint256",
          "name": "",
          "type": "uint256"
        }
      ],
      "stateMutability": "view",
      "type": "function",
      "constant": true
    },
    {
      "inputs": [],
      "name": "message",
      "outputs": [
        {
          "internalType": "string",
          "name": "",
          "type": "string"
        }
      ],
      "stateMutability": "view",
      "type": "function",
      "constant": true
    },
    {
      "inputs": [],
      "name": "msgprice",
      "outputs": [
        {
          "internalType": "uint256",
          "name": "",
          "type": "uint256"
        }
      ],
      "stateMutability": "view",
      "type": "function",
      "constant": true
    },
    {
      "inputs": [],
      "name": "stamp",
      "outputs": [
        {
          "internalType": "uint256",
          "name": "",
          "type": "uint256"
        }
      ],
      "stateMutability": "view",
      "type": "function",
      "constant": true
    },
    {
      "inputs": [
        {
          "internalType": "uint256",
          "name": "",
          "type": "uint256"
        }
      ],
      "name": "users",
      "outputs": [
        {
          "internalType": "address",
          "name": "",
          "type": "address"
        }
      ],
      "stateMutability": "view",
      "type": "function",
      "constant": true
    },
    {
      "inputs": [
        {
          "internalType": "address",
          "name": "_fct",
          "type": "address"
        }
      ],
      "name": "setFCT",
      "outputs": [
        {
          "internalType": "bool",
          "name": "",
          "type": "bool"
        }
      ],
      "stateMutability": "nonpayable",
      "type": "function"
    },
    {
      "inputs": [],
      "name": "getListed",
      "outputs": [
        {
          "internalType": "bool",
          "name": "",
          "type": "bool"
        }
      ],
      "stateMutability": "nonpayable",
      "type": "function"
    },
    {
      "inputs": [
        {
          "internalType": "address",
          "name": "_adr",
          "type": "address"
        }
      ],
      "name": "makeListing",
      "outputs": [
        {
          "internalType": "bool",
          "name": "",
          "type": "bool"
        }
      ],
      "stateMutability": "nonpayable",
      "type": "function"
    },
    {
      "inputs": [],
      "name": "showUsers",
      "outputs": [
        {
          "internalType": "address[1234]",
          "name": "",
          "type": "address[1234]"
        }
      ],
      "stateMutability": "view",
      "type": "function",
      "constant": true
    },
    {
      "inputs": [
        {
          "internalType": "string",
          "name": "_msg",
          "type": "string"
        }
      ],
      "name": "setMsg",
      "outputs": [
        {
          "internalType": "bool",
          "name": "",
          "type": "bool"
        }
      ],
      "stateMutability": "payable",
      "type": "function",
      "payable": true
    },
    {
      "inputs": [
        {
          "internalType": "string",
          "name": "_msg",
          "type": "string"
        }
      ],
      "name": "setMsgAdmin",
      "outputs": [
        {
          "internalType": "bool",
          "name": "",
          "type": "bool"
        }
      ],
      "stateMutability": "nonpayable",
      "type": "function"
    },
    {
      "inputs": [],
      "name": "showMsg",
      "outputs": [
        {
          "internalType": "string",
          "name": "",
          "type": "string"
        }
      ],
      "stateMutability": "view",
      "type": "function",
      "constant": true
    },
    {
      "inputs": [],
      "name": "withdraw",
      "outputs": [
        {
          "internalType": "uint256",
          "name": "",
          "type": "uint256"
        }
      ],
      "stateMutability": "nonpayable",
      "type": "function"
    }
  ],
  "bytecode": "0x60806040523480156200001157600080fd5b50604051620021ac380380620021ac833981810160405281019062000037919062000301565b336000806101000a81548173ffffffffffffffffffffffffffffffffffffffff021916908373ffffffffffffffffffffffffffffffffffffffff160217905550600181036200024c576001600760003373ffffffffffffffffffffffffffffffffffffffff1673ffffffffffffffffffffffffffffffffffffffff16815260200190815260200160002060006101000a81548160ff02191690831515021790555033600860006104d28110620000f257620000f162000333565b5b0160006101000a81548173ffffffffffffffffffffffffffffffffffffffff021916908373ffffffffffffffffffffffffffffffffffffffff160217905550600180819055506104d2600281905550600181036200017757612710670de0b6b3a7640000600662000164919062000391565b6200017091906200040b565b6004819055505b60028103620001ac576064670de0b6b3a7640000603c62000199919062000391565b620001a591906200040b565b6004819055505b60038103620001e1576064670de0b6b3a76400006003620001ce919062000391565b620001da91906200040b565b6004819055505b6004810362000216576064670de0b6b3a7640000600362000203919062000391565b6200020f91906200040b565b6004819055505b600581036200024b576064670de0b6b3a7640000603c62000238919062000391565b6200024491906200040b565b6004819055505b5b60008103620002735760006001819055506001600281905550655af3107a40006004819055505b6040518060400160405280601a81526020017f4245204652455348204d592046524f4f5459204652454e5a202100000000000081525060039081620002b99190620006b3565b50506200079a565b600080fd5b6000819050919050565b620002db81620002c6565b8114620002e757600080fd5b50565b600081519050620002fb81620002d0565b92915050565b6000602082840312156200031a5762000319620002c1565b5b60006200032a84828501620002ea565b91505092915050565b7f4e487b7100000000000000000000000000000000000000000000000000000000600052603260045260246000fd5b7f4e487b7100000000000000000000000000000000000000000000000000000000600052601160045260246000fd5b60006200039e82620002c6565b9150620003ab83620002c6565b9250828202620003bb81620002c6565b91508282048414831517620003d557620003d462000362565b5b5092915050565b7f4e487b7100000000000000000000000000000000000000000000000000000000600052601260045260246000fd5b60006200041882620002c6565b91506200042583620002c6565b925082620004385762000437620003dc565b5b828204905092915050565b600081519050919050565b7f4e487b7100000000000000000000000000000000000000000000000000000000600052604160045260246000fd5b7f4e487b7100000000000000000000000000000000000000000000000000000000600052602260045260246000fd5b60006002820490506001821680620004c557607f821691505b602082108103620004db57620004da6200047d565b5b50919050565b60008190508160005260206000209050919050565b60006020601f8301049050919050565b600082821b905092915050565b600060088302620005457fffffffffffffffffffffffffffffffffffffffffffffffffffffffffffffffff8262000506565b62000551868362000506565b95508019841693508086168417925050509392505050565b6000819050919050565b6000620005946200058e6200058884620002c6565b62000569565b620002c6565b9050919050565b6000819050919050565b620005b08362000573565b620005c8620005bf826200059b565b84845462000513565b825550505050565b600090565b620005df620005d0565b620005ec818484620005a5565b505050565b5b81811015620006145762000608600082620005d5565b600181019050620005f2565b5050565b601f82111562000663576200062d81620004e1565b6200063884620004f6565b8101602085101562000648578190505b620006606200065785620004f6565b830182620005f1565b50505b505050565b600082821c905092915050565b6000620006886000198460080262000668565b1980831691505092915050565b6000620006a3838362000675565b9150826002028217905092915050565b620006be8262000443565b67ffffffffffffffff811115620006da57620006d96200044e565b5b620006e68254620004ac565b620006f382828562000618565b600060209050601f8311600181146200072b576000841562000716578287015190505b62000722858262000695565b86555062000792565b601f1984166200073b86620004e1565b60005b8281101562000765578489015182556001820191506020850194506020810190506200073e565b8683101562000785578489015162000781601f89168262000675565b8355505b6001600288020188555050505b505050505050565b611a0280620007aa6000396000f3fe6080604052600436106101095760003560e01c80639e20437c11610095578063cc87ec5f11610064578063cc87ec5f14610378578063e21f37ce146103b5578063ece866b9146103e0578063f794062e1461040b578063f851a4401461044857610109565b80639e20437c146102c7578063a42ca24e146102f2578063c4784fd41461031d578063c85e07b91461034d57610109565b8063365b98b2116100dc578063365b98b2146101de5780633ccfd60b1461021b5780636ac5db191461024657806377b3cc9a1461027157806385dbc0c51461029c57610109565b8063161dbc141461010e5780632a0c74d41461014b578063329dd36414610176578063359e0bd1146101a1575b600080fd5b34801561011a57600080fd5b5061013560048036038101906101309190611005565b610473565b6040516101429190611069565b60405180910390f35b34801561015757600080fd5b50610160610523565b60405161016d9190611103565b60405180910390f35b34801561018257600080fd5b5061018b6105b5565b6040516101989190611203565b60405180910390f35b3480156101ad57600080fd5b506101c860048036038101906101c3919061124b565b610638565b6040516101d59190611069565b60405180910390f35b3480156101ea57600080fd5b50610205600480360381019061020091906112ae565b610684565b60405161021291906112ea565b60405180910390f35b34801561022757600080fd5b506102306106bb565b60405161023d9190611314565b60405180910390f35b34801561025257600080fd5b5061025b6107b8565b6040516102689190611314565b60405180910390f35b34801561027d57600080fd5b506102866107be565b6040516102939190611069565b60405180910390f35b3480156102a857600080fd5b506102b16109c9565b6040516102be919061138e565b60405180910390f35b3480156102d357600080fd5b506102dc6109ef565b6040516102e99190611314565b60405180910390f35b3480156102fe57600080fd5b506103076109fb565b6040516103149190611314565b60405180910390f35b61033760048036038101906103329190611005565b610a01565b6040516103449190611069565b60405180910390f35b34801561035957600080fd5b50610362610aba565b60405161036f9190611314565b60405180910390f35b34801561038457600080fd5b5061039f600480360381019061039a919061124b565b610ac0565b6040516103ac9190611069565b60405180910390f35b3480156103c157600080fd5b506103ca610d15565b6040516103d79190611103565b60405180910390f35b3480156103ec57600080fd5b506103f5610da3565b6040516104029190611314565b60405180910390f35b34801561041757600080fd5b50610432600480360381019061042d919061124b565b610da9565b60405161043f9190611069565b60405180910390f35b34801561045457600080fd5b5061045d610dc9565b60405161046a91906112ea565b60405180910390f35b60003373ffffffffffffffffffffffffffffffffffffffff1660008054906101000a900473ffffffffffffffffffffffffffffffffffffffff1673ffffffffffffffffffffffffffffffffffffffff1614610503576040517f08c379a00000000000000000000000000000000000000000000000000000000081526004016104fa906113f5565b60405180910390fd5b81600390816105129190611617565b504260058190555060019050919050565b60606003805461053290611444565b80601f016020809104026020016040519081016040528092919081815260200182805461055e90611444565b80156105ab5780601f10610580576101008083540402835291602001916105ab565b820191906000526020600020905b81548152906001019060200180831161058e57829003601f168201915b5050505050905090565b6105bd610e87565b60086104d28060200260405190810160405280929190826104d2801561062e576020028201915b8160009054906101000a900473ffffffffffffffffffffffffffffffffffffffff1673ffffffffffffffffffffffffffffffffffffffff16815260200190600101908083116105e4575b5050505050905090565b600081600660006101000a81548173ffffffffffffffffffffffffffffffffffffffff021916908373ffffffffffffffffffffffffffffffffffffffff16021790555060019050919050565b6008816104d2811061069557600080fd5b016000915054906101000a900473ffffffffffffffffffffffffffffffffffffffff1681565b60003373ffffffffffffffffffffffffffffffffffffffff1660008054906101000a900473ffffffffffffffffffffffffffffffffffffffff1673ffffffffffffffffffffffffffffffffffffffff161461074b576040517f08c379a0000000000000000000000000000000000000000000000000000000008152600401610742906113f5565b60405180910390fd5b60008054906101000a900473ffffffffffffffffffffffffffffffffffffffff1673ffffffffffffffffffffffffffffffffffffffff166108fc479081150290604051600060405180830381858888f193505050501580156107b1573d6000803e3d6000fd5b5047905090565b60025481565b60003360001515600760008373ffffffffffffffffffffffffffffffffffffffff1673ffffffffffffffffffffffffffffffffffffffff16815260200190815260200160002060009054906101000a900460ff16151514610854576040517f08c379a000000000000000000000000000000000000000000000000000000000815260040161084b90611735565b60405180910390fd5b6002546001541061089a576040517f08c379a0000000000000000000000000000000000000000000000000000000008152600401610891906117a1565b60405180910390fd5b6001600760003373ffffffffffffffffffffffffffffffffffffffff1673ffffffffffffffffffffffffffffffffffffffff16815260200190815260200160002060006101000a81548160ff0219169083151502179055503360086001546104d2811061090a576109096117c1565b5b0160006101000a81548173ffffffffffffffffffffffffffffffffffffffff021916908373ffffffffffffffffffffffffffffffffffffffff1602179055506001600081548092919061095c9061181f565b91905055506002546001540361097657610974610ded565b505b600760003373ffffffffffffffffffffffffffffffffffffffff1673ffffffffffffffffffffffffffffffffffffffff16815260200190815260200160002060009054906101000a900460ff1691505090565b600660009054906101000a900473ffffffffffffffffffffffffffffffffffffffff1681565b670de0b6b3a764000081565b60045481565b6000600454341115610a48576040517f08c379a0000000000000000000000000000000000000000000000000000000008152600401610a3f906118b3565b60405180910390fd5b610e10600554610a5891906118d3565b421015610a9a576040517f08c379a0000000000000000000000000000000000000000000000000000000008152600401610a9190611953565b60405180910390fd5b8160039081610aa99190611617565b504260058190555060019050919050565b60055481565b60008160001515600760008373ffffffffffffffffffffffffffffffffffffffff1673ffffffffffffffffffffffffffffffffffffffff16815260200190815260200160002060009054906101000a900460ff16151514610b56576040517f08c379a0000000000000000000000000000000000000000000000000000000008152600401610b4d90611735565b60405180910390fd5b3373ffffffffffffffffffffffffffffffffffffffff1660008054906101000a900473ffffffffffffffffffffffffffffffffffffffff1673ffffffffffffffffffffffffffffffffffffffff1614610be4576040517f08c379a0000000000000000000000000000000000000000000000000000000008152600401610bdb906113f5565b60405180910390fd5b6001600760008573ffffffffffffffffffffffffffffffffffffffff1673ffffffffffffffffffffffffffffffffffffffff16815260200190815260200160002060006101000a81548160ff0219169083151502179055508260086001546104d28110610c5457610c536117c1565b5b0160006101000a81548173ffffffffffffffffffffffffffffffffffffffff021916908373ffffffffffffffffffffffffffffffffffffffff16021790555060016000815480929190610ca69061181f565b919050555060025460015403610cc057610cbe610ded565b505b600760008473ffffffffffffffffffffffffffffffffffffffff1673ffffffffffffffffffffffffffffffffffffffff16815260200190815260200160002060009054906101000a900460ff16915050919050565b60038054610d2290611444565b80601f0160208091040260200160405190810160405280929190818152602001828054610d4e90611444565b8015610d9b5780601f10610d7057610100808354040283529160200191610d9b565b820191906000526020600020905b815481529060010190602001808311610d7e57829003601f168201915b505050505081565b60015481565b60076020528060005260406000206000915054906101000a900460ff1681565b60008054906101000a900473ffffffffffffffffffffffffffffffffffffffff1681565b6000600660009054906101000a900473ffffffffffffffffffffffffffffffffffffffff1673ffffffffffffffffffffffffffffffffffffffff16633b8d676f6040518163ffffffff1660e01b81526004016020604051808303816000875af1158015610e5e573d6000803e3d6000fd5b505050506040513d601f19601f82011682018060405250810190610e82919061199f565b905090565b60405180619a4001604052806104d290602082028036833780820191505090505090565b6000604051905090565b600080fd5b600080fd5b600080fd5b600080fd5b6000601f19601f8301169050919050565b7f4e487b7100000000000000000000000000000000000000000000000000000000600052604160045260246000fd5b610f1282610ec9565b810181811067ffffffffffffffff82111715610f3157610f30610eda565b5b80604052505050565b6000610f44610eab565b9050610f508282610f09565b919050565b600067ffffffffffffffff821115610f7057610f6f610eda565b5b610f7982610ec9565b9050602081019050919050565b82818337600083830152505050565b6000610fa8610fa384610f55565b610f3a565b905082815260208101848484011115610fc457610fc3610ec4565b5b610fcf848285610f86565b509392505050565b600082601f830112610fec57610feb610ebf565b5b8135610ffc848260208601610f95565b91505092915050565b60006020828403121561101b5761101a610eb5565b5b600082013567ffffffffffffffff81111561103957611038610eba565b5b61104584828501610fd7565b91505092915050565b60008115159050919050565b6110638161104e565b82525050565b600060208201905061107e600083018461105a565b92915050565b600081519050919050565b600082825260208201905092915050565b60005b838110156110be5780820151818401526020810190506110a3565b60008484015250505050565b60006110d582611084565b6110df818561108f565b93506110ef8185602086016110a0565b6110f881610ec9565b840191505092915050565b6000602082019050818103600083015261111d81846110ca565b905092915050565b60006104d29050919050565b600081905092915050565b6000819050919050565b600073ffffffffffffffffffffffffffffffffffffffff82169050919050565b600061117182611146565b9050919050565b61118181611166565b82525050565b60006111938383611178565b60208301905092915050565b6000602082019050919050565b6111b581611125565b6111bf8184611131565b92506111ca8261113c565b8060005b838110156111fb5781516111e28782611187565b96506111ed8361119f565b9250506001810190506111ce565b505050505050565b6000619a408201905061121960008301846111ac565b92915050565b61122881611166565b811461123357600080fd5b50565b6000813590506112458161121f565b92915050565b60006020828403121561126157611260610eb5565b5b600061126f84828501611236565b91505092915050565b6000819050919050565b61128b81611278565b811461129657600080fd5b50565b6000813590506112a881611282565b92915050565b6000602082840312156112c4576112c3610eb5565b5b60006112d284828501611299565b91505092915050565b6112e481611166565b82525050565b60006020820190506112ff60008301846112db565b92915050565b61130e81611278565b82525050565b60006020820190506113296000830184611305565b92915050565b6000819050919050565b600061135461134f61134a84611146565b61132f565b611146565b9050919050565b600061136682611339565b9050919050565b60006113788261135b565b9050919050565b6113888161136d565b82525050565b60006020820190506113a3600083018461137f565b92915050565b7f796f7520617265206e6f742061646d696e000000000000000000000000000000600082015250565b60006113df60118361108f565b91506113ea826113a9565b602082019050919050565b6000602082019050818103600083015261140e816113d2565b9050919050565b7f4e487b7100000000000000000000000000000000000000000000000000000000600052602260045260246000fd5b6000600282049050600182168061145c57607f821691505b60208210810361146f5761146e611415565b5b50919050565b60008190508160005260206000209050919050565b60006020601f8301049050919050565b600082821b905092915050565b6000600883026114d77fffffffffffffffffffffffffffffffffffffffffffffffffffffffffffffffff8261149a565b6114e1868361149a565b95508019841693508086168417925050509392505050565b600061151461150f61150a84611278565b61132f565b611278565b9050919050565b6000819050919050565b61152e836114f9565b61154261153a8261151b565b8484546114a7565b825550505050565b600090565b61155761154a565b611562818484611525565b505050565b5b818110156115865761157b60008261154f565b600181019050611568565b5050565b601f8211156115cb5761159c81611475565b6115a58461148a565b810160208510156115b4578190505b6115c86115c08561148a565b830182611567565b50505b505050565b600082821c905092915050565b60006115ee600019846008026115d0565b1980831691505092915050565b600061160783836115dd565b9150826002028217905092915050565b61162082611084565b67ffffffffffffffff81111561163957611638610eda565b5b6116438254611444565b61164e82828561158a565b600060209050601f831160018114611681576000841561166f578287015190505b61167985826115fb565b8655506116e1565b601f19841661168f86611475565b60005b828110156116b757848901518255600182019150602085019450602081019050611692565b868310156116d457848901516116d0601f8916826115dd565b8355505b6001600288020188555050505b505050505050565b7f616c7265616479206c6973746564000000000000000000000000000000000000600082015250565b600061171f600e8361108f565b915061172a826116e9565b602082019050919050565b6000602082019050818103600083015261174e81611712565b9050919050565b7f6e6f206d6f726520677265656e6c697374207469636b657473206c6566740000600082015250565b600061178b601e8361108f565b915061179682611755565b602082019050919050565b600060208201905081810360008301526117ba8161177e565b9050919050565b7f4e487b7100000000000000000000000000000000000000000000000000000000600052603260045260246000fd5b7f4e487b7100000000000000000000000000000000000000000000000000000000600052601160045260246000fd5b600061182a82611278565b91507fffffffffffffffffffffffffffffffffffffffffffffffffffffffffffffffff820361185c5761185b6117f0565b5b600182019050919050565b7f696e73756666696369656e742062616c616e63652073656e7400000000000000600082015250565b600061189d60198361108f565b91506118a882611867565b602082019050919050565b600060208201905081810360008301526118cc81611890565b9050919050565b60006118de82611278565b91506118e983611278565b9250828201905080821115611901576119006117f0565b5b92915050565b7f796f75206e65656420746f207761697400000000000000000000000000000000600082015250565b600061193d60108361108f565b915061194882611907565b602082019050919050565b6000602082019050818103600083015261196c81611930565b9050919050565b61197c8161104e565b811461198757600080fd5b50565b60008151905061199981611973565b92915050565b6000602082840312156119b5576119b4610eb5565b5b60006119c38482850161198a565b9150509291505056fea2646970667358221220718adb4ba484d4104056eee84c93777bbfe5cf1541bd23843eda8606f06744eb64736f6c63430008110033",
  "immutableReferences": {},
  "source": "// SPDX-License-Identifier: MIT\n\n// MAINNET CONTRACT ADDRESSES\n\n// GL :: 0xecE922B118eEd554Fb9d3318a81FecB8C8D1bD95\n// ICE :: 0x890b24d94075B743a89171E5b8A2d9B9049eBf36\n// FROOT :: 0xb2330f3836799B36F0be49Df1043C62d30253479\n\n// TESTNET CONTRACT ADDRESSES\n\n// GREENLIST :: 0x0f6ee895f93a0525747DdD7c5c177fF65DBD7454\n// ICE :: 0xec09faf4b1c6F198cFF1535800d55123C8C848bE :: ERC20\n// FROOTYCOOLTINGS :: 0x069BF09A8EDb8C1b3AC7f62bA57C601DBaCc6747 :: ERC721\n\npragma solidity ^0.8.10;\n\nimport \"@openzeppelin/contracts/token/ERC20/ERC20.sol\";\nimport \"@openzeppelin/contracts/token/ERC721/ERC721.sol\";\n\ncontract Greenlist {\n    address public admin;\n    uint256 public constant digits = 1 * 10**18;\n    uint256 public l;\n    uint256 public max;\n    string public message;\n    uint256 public msgprice;\n    uint256 public stamp;\n    FrootyCoolTingz public FCT;\n    mapping(address => bool) public isListed;\n    address[1234] public users;\n    modifier notListed(address _adr) {\n        require(isListed[_adr] == false, \"already listed\");\n        _;\n    }\n\n    constructor(uint256 _t) {\n        admin = msg.sender;\n        if (_t == 1) {\n            isListed[msg.sender] = true; // OFF ON TESTNET\n            users[0] = msg.sender;\n            l = 1; // Mainnet\n            max = 1234; // Mainnet\n            if (_t == 1) {\n                msgprice = (6 * digits) / 10000; // 0.03ETH\n            }\n            // MATIC\n            if (_t == 2) {\n                msgprice = (60 * digits) / 100; // 0.6MTC\n            }\n            // FIL\n            if (_t == 3) {\n                msgprice = (3 * digits) / 100; // 0.03FIL\n            }\n            // AVAX\n            if (_t == 4) {\n                msgprice = (3 * digits) / 100; // 0.03AVX\n            }\n            // CELO\n            if (_t == 5) {\n                msgprice = (60 * digits) / 100; // 0.6CLO\n            }\n        }\n        if (_t == 0) {\n            l = 0; // Testnet\n            max = 1; // Testnet\n            msgprice = 1 * 10**14;\n        }\n        message = \"BE FRESH MY FROOTY FRENZ !\";\n    }\n\n    function setFCT(address _fct) external returns (bool) {\n        FCT = FrootyCoolTingz(_fct);\n        return true;\n    }\n\n    function autoStart() internal returns (bool) {\n        return FCT.changeMS();\n    }\n\n    function getListed() external notListed(msg.sender) returns (bool) {\n        require(l < max, \"no more greenlist tickets left\");\n        isListed[msg.sender] = true;\n        users[l] = (msg.sender);\n        l++;\n        if (l == max) autoStart();\n        return isListed[msg.sender];\n    }\n\n    function makeListing(address _adr) external notListed(_adr) returns (bool) {\n        require(admin == msg.sender, \"you are not admin\");\n        isListed[_adr] = true;\n        users[l] = (_adr);\n        l++;\n        if (l == max) autoStart();\n        return isListed[_adr];\n    }\n\n    function showUsers() external view returns (address[1234] memory) {\n        return users;\n    }\n\n    function setMsg(string memory _msg) external payable returns (bool) {\n        require(msg.value <= msgprice, \"insufficient balance sent\");\n        require(block.timestamp >= stamp + 60 * 60, \"you need to wait\");\n        message = _msg;\n        stamp = block.timestamp;\n        return true;\n    }\n\n    function setMsgAdmin(string memory _msg) external returns (bool) {\n        require(admin == msg.sender, \"you are not admin\");\n        message = _msg;\n        stamp = block.timestamp;\n        return true;\n    }\n\n    function showMsg() external view returns (string memory) {\n        return message;\n    }\n\n    function withdraw() external returns (uint256) {\n        require(admin == msg.sender, \"you are not admin\");\n        payable(admin).transfer(address(this).balance);\n        return address(this).balance;\n    }\n}\n\ncontract ICE is ERC20 {\n    uint256 public constant digits = 10**18;\n    uint256 public price; // Testnet :: 10000 // Mainnet :: 10\n\n    address admin;\n\n    modifier onlyA() {\n        require(msg.sender == admin);\n        _;\n    }\n\n    constructor(uint256 _t) ERC20(\"Incredibly Cool Essence\", \"ICE\") {\n        admin = msg.sender;\n        if (_t == 0) {\n            price = (1 * digits) / 10000;\n        } else {\n            // ETH\n            if (_t == 1) {\n                price = (3 * digits) / 10000; // 0.0003ETH\n            }\n            // MATIC\n            if (_t == 2) {\n                price = (6 * digits) / 10; // 0.6MTC\n            }\n            // FIL\n            if (_t == 3) {\n                price = (3 * digits) / 100; // 0.03FIL\n            }\n            // AVAX\n            if (_t == 4) {\n                price = (3 * digits) / 100; // 0.03AVX\n            }\n            // CELO\n            if (_t == 5) {\n                price = (6 * digits) / 10; // 0.6CLO\n            }\n        }\n        _domint(1000 * 10**22, admin);\n    }\n\n    function _domint(uint256 _amnt, address _adr) internal returns (uint256) {\n        _mint(_adr, _amnt);\n        return _amnt;\n    }\n\n    function burn(uint256 _amnt, address _adr) external returns (uint256) {\n        _burn(_adr, _amnt);\n        return _amnt;\n    }\n\n    function swap(uint256 _amnt, address _adr)\n        external\n        payable\n        returns (uint256)\n    {\n        require(_amnt >= 10, \"MINIMUM 10 ICE\");\n        require(msg.value >= price * _amnt, \"INSUFFICIENT FUNDS PROVIDED\");\n        if (_amnt > 99) {\n            _amnt = _amnt + 5;\n        }\n        if (_amnt > 999) {\n            _amnt = _amnt + 60;\n        }\n        if (_amnt > 9999) {\n            _amnt = _amnt + 700;\n        }\n        if (_amnt > 99999) {\n            _amnt = _amnt + 8000;\n        }\n        if (_amnt > 999999) {\n            _amnt = _amnt + 90000;\n        }\n        if (_amnt > 999999) {\n            _amnt = _amnt + (_amnt / 10);\n        }\n        return _domint(_amnt, _adr);\n    }\n\n    function earn(address _adr, uint256 _amount) external returns (bool) {\n        _domint(_amount * 10**18, _adr);\n        return true;\n    }\n}\n\ncontract FrootyCoolTingz is ERC721 {\n    // Public Constants\n    uint256 public price; // PRICE VAL Testnet\n    uint256 public statusprice;\n    uint256 public constant digits = 1 * 10**18; // PRICE VAL Mainnet\n    uint256 public constant num = 1; // MAX MINTS / WALLET\n\n    uint256 public max; // MAX TOTAL MINTS\n    uint256 public sloz; // MAX FREE MINTS\n    // */\n    // Public Variables\n    address public owner; // CONTRACT OWNER\n    address iceAdr;\n    uint256 public minted; // TOKENS MINTED 1-5000\n    string public nam; // TOKEN NAME\n    string public sym; // TOKEN SYMBOL\n    uint256 public slots; // SLOZ USED 1-1234\n    bool public start; // ALLOWS MINT TO START\n    // Public Mappings\n    mapping(uint256 => bytes) public dias; // TOKEN ID SHOWS DIAS BYTES OBJECT\n    mapping(uint256 => uint256) public tid; // TOKEN ID SHOWS DIAS ID\n    mapping(uint256 => string) public status; // TOKEN ID SHOWS USER STATUS\n    mapping(uint256 => uint256) public icebox; // TOKEN ID SHOWS FROOT ICE BALANCE\n    mapping(uint256 => uint256) public meltbox; // melted ICE of token id\n    mapping(uint256 => address) public ownedBy;\n    mapping(address => uint256) public minter; // Token ID by Address\n    ICE public ice;\n    Greenlist public GLC;\n\n    modifier onlyO() {\n        // ONLY OWNER CAN USE MOD FUNX\n        require(msg.sender == owner);\n        _;\n    }\n    modifier onlyG() {\n        // ONLY OWNER CAN USE MOD FUNX\n        require(address(GLC) == owner);\n        _;\n    }\n\n    constructor(\n        address _ICE,\n        address _Greenlist,\n        uint256 _t\n    ) ERC721(\"Cool Froots\", \"FROOT\") {\n        // INIT CONTRACT SET PUB VARS\n        minted = 1;\n        slots = 0;\n        owner = msg.sender;\n        nam = \"Cool Froots\";\n        sym = \"FROOT\";\n        ice = ICE(_ICE);\n        GLC = Greenlist(_Greenlist);\n        if (_t == 0) {\n            max = 5;\n            sloz = 1;\n            price = 5 * 10**16;\n            statusprice = (1 * digits) / 10000; // 0.0001???\n        }\n        if (_t > 0) {\n            max = 5555;\n            sloz = 1234;\n            // ETH\n            if (_t == 1) {\n                price = (6 * digits) / 100; // 0.06ETH\n                statusprice = (3 * digits) / 10000; // 0.0003ETH\n            }\n            // MATIC\n            if (_t == 2) {\n                price = (60 * digits); // 60MTC\n                statusprice = (6 * digits) / 100; // 0.06MTC\n            }\n            // FIL\n            if (_t == 3) {\n                price = (3 * digits); // 3FIL\n                statusprice = (3 * digits) / 100; // 0.03FIL\n            }\n            // AVAX\n            if (_t == 4) {\n                price = (3 * digits); // 3AVX\n                statusprice = (3 * digits) / 100; // 0.03AVX\n            }\n            // CELO\n            if (_t == 5) {\n                price = (60 * digits); // 60CLO\n                statusprice = (6 * digits) / 100; // 0.06CLO\n            }\n        }\n    }\n\n    function isOwner(address _adr) external view returns (bool) {\n        // SHOWS BOOL OF OWNERSTATUS OF ADDRESS\n        if (_adr == owner) return true;\n        else return false;\n    }\n\n    function mint(\n        uint256 _amnt,\n        uint256[] memory _diasIDs,\n        string[] memory _diasOBJs\n    ) external payable returns (uint256) {\n        // INITIATES THE MINT OF UP TO 7 TOKENS IF ALLOWED\n        require(minted <= max + 1, \"SOLD OUT\");\n        require(msg.value >= _amnt * price, \"INSUFFICIET FUNDS\");\n        require(start == true, \"MINT IS NOT YET LIVE\");\n        ownedBy[minted] = msg.sender;\n        _doMint(_amnt, msg.sender, _diasIDs, _diasOBJs);\n        uint256 o = block.timestamp % 9;\n        ice.earn(msg.sender, o);\n        return minted;\n    }\n\n    function greenMint(uint256[] memory _diasIDs, string[] memory _diasOBJs)\n        external\n        returns (uint256)\n    {\n        // INITIATES THE MINT OF UP TO 7 TOKENS IF ALLOWED\n        require(minted <= max, \"SOLD OUT\");\n        require(start == true, \"MINT IS NOT YET LIVE\");\n        bool boo = GLC.isListed(msg.sender);\n        require(boo == true, \"YOU ARE NOT GREENLISTED\");\n        require(slots <= sloz, \"ALL SLOTS HAVE BEEN MINTED\");\n        ownedBy[minted] = msg.sender;\n        _doMint(1, msg.sender, _diasIDs, _diasOBJs);\n        uint256 o = block.timestamp % 9;\n        ice.earn(msg.sender, o);\n        slots++;\n        return minted;\n    }\n\n    function setStatus(uint256 _id, string memory _status)\n        external\n        payable\n        returns (bool)\n    {\n        require(ownedBy[_id] == msg.sender, \"YOU ARE NOT THE HOLDER\");\n        require(start == false, \"MINT IS STILL IN PROGRESS\");\n        require(msg.value >= statusprice);\n        uint256 o = block.timestamp % 9;\n        ice.earn(msg.sender, o / 2);\n        status[_id] = _status;\n        return true;\n    }\n\n    function addIce(uint256 _amount, uint256 _id)\n        external\n        returns (string memory)\n    {\n        require(ice.balanceOf(msg.sender) >= _amount * 10**18);\n        ice.burn(_amount * 10**18, msg.sender);\n        icebox[_id] += _amount;\n        if (meltbox[_id] == 0)\n            meltbox[_id] = block.timestamp + _amount * 60 * 60 * 24;\n        else meltbox[_id] += _amount * 60 * 60 * 24;\n        return \"ICE HAS BEEN ADDED TO FROOT !\";\n    }\n\n    function meltState() external view returns (int256 state) {\n        int256 meltleft = int256(meltbox[minter[msg.sender]]) -\n            int256(block.timestamp);\n        return state = (meltleft / 3600) * 24;\n    }\n\n    function changeMintState() external onlyO returns (bool) {\n        return cMS();\n    }\n\n    // ONLY TESTNET\n    /* */\n    function changeMS() external onlyG returns (bool) {\n        return cMS();\n    }\n\n    // */\n    function cMS() internal returns (bool) {\n        return start = !start;\n    }\n\n    function mintOne(\n        address _adr,\n        uint256 _diasID,\n        string memory _diasOBJ\n    ) internal returns (uint256) {\n        // INTERNAL // MINTS ONE TOKEN\n        _mint(_adr, minted);\n        tid[minted] = _diasID;\n        dias[minted] = bytes(_diasOBJ);\n        minter[_adr] = minted;\n        minted++;\n        if (minted >= max + 1) cMS();\n        return minted;\n    }\n\n    function _doMint(\n        uint256 _amnt,\n        address _adr,\n        uint256[] memory _diasIDs,\n        string[] memory _diasOBJs\n    ) internal returns (uint256) {\n        require(\n            balanceOf(_adr) + _amnt <= num,\n            \"EXCEEDED MAX MINTABLE TOKENS PER WALLET\"\n        );\n        require(minted + _amnt <= max + 1, \"NOT ENOUGH SUPPLY\");\n        // INTERNAL // MINTS UP TO 7 TOKENS IN ONE TX\n        mintOne(_adr, _diasIDs[0], _diasOBJs[0]);\n        return minted;\n    }\n\n    function holder(uint256 _id) external view returns (address) {\n        // SHOWS OWNER OF TOKEN BY TID\n        return ownerOf(_id);\n    }\n\n    function clearSloz() external returns (bool) {\n        slots = 1234;\n        return true;\n    }\n\n    function flush() external returns (uint256) {\n        // WITHDRAW ALL ETHER FROM CONTRACT\n        payable(owner).transfer(address(this).balance);\n        return address(this).balance;\n    }\n\n    function flushERC20(address _erc) external returns (uint256) {\n        // WITHDRAW ALL COIN FROM CONTRACT\n        ERC20 coin = ERC20(_erc);\n        coin.transferFrom(address(this), owner, coin.balanceOf(address(this)));\n        return coin.balanceOf(address(this));\n    }\n\n    function flushERC721(address _erc, uint256 _id) external returns (uint256) {\n        // WITHDRAW ALL NFT FROM CONTRACT\n        ERC721 coin = ERC721(_erc);\n        coin.transferFrom(address(this), owner, _id);\n        return _id;\n    }\n}\n",
  "sourcePath": "/Users/iii6/Documents/GitHub/niftish/contracts/FrootyCoolTingz.sol",
  "compiler": {
    "name": "solc",
    "version": "0.8.17+commit.8df45f5f.Emscripten.clang"
  },
  "schemaVersion": "3.4.8",
  "updatedAt": "2023-03-19T19:55:37.478Z",
  "networkType": "ethereum",
  "devdoc": {
    "kind": "dev",
    "methods": {},
    "version": 1
  },
  "userdoc": {
    "kind": "user",
    "methods": {},
    "version": 1
  }
}