{
  "contractName": "Greenlist",
  "abi": [
    {
      "inputs": [],
      "stateMutability": "nonpayable",
      "type": "constructor"
    },
    {
      "inputs": [],
      "name": "admin",
      "outputs": [
        {
          "internalType": "address",
          "name": "",
          "type": "address"
        }
      ],
      "stateMutability": "view",
      "type": "function"
    },
    {
      "inputs": [
        {
          "internalType": "address",
          "name": "",
          "type": "address"
        }
      ],
      "name": "isListed",
      "outputs": [
        {
          "internalType": "bool",
          "name": "",
          "type": "bool"
        }
      ],
      "stateMutability": "view",
      "type": "function"
    },
    {
      "inputs": [],
      "name": "message",
      "outputs": [
        {
          "internalType": "string",
          "name": "",
          "type": "string"
        }
      ],
      "stateMutability": "view",
      "type": "function"
    },
    {
      "inputs": [],
      "name": "stamp",
      "outputs": [
        {
          "internalType": "uint256",
          "name": "",
          "type": "uint256"
        }
      ],
      "stateMutability": "view",
      "type": "function"
    },
    {
      "inputs": [
        {
          "internalType": "uint256",
          "name": "",
          "type": "uint256"
        }
      ],
      "name": "users",
      "outputs": [
        {
          "internalType": "address",
          "name": "",
          "type": "address"
        }
      ],
      "stateMutability": "view",
      "type": "function"
    },
    {
      "inputs": [],
      "name": "getListed",
      "outputs": [
        {
          "internalType": "bool",
          "name": "",
          "type": "bool"
        }
      ],
      "stateMutability": "nonpayable",
      "type": "function"
    },
    {
      "inputs": [
        {
          "internalType": "address",
          "name": "_adr",
          "type": "address"
        }
      ],
      "name": "makeListing",
      "outputs": [
        {
          "internalType": "bool",
          "name": "",
          "type": "bool"
        }
      ],
      "stateMutability": "nonpayable",
      "type": "function"
    },
    {
      "inputs": [],
      "name": "showUsers",
      "outputs": [
        {
          "internalType": "address[1234]",
          "name": "",
          "type": "address[1234]"
        }
      ],
      "stateMutability": "view",
      "type": "function"
    },
    {
      "inputs": [
        {
          "internalType": "string",
          "name": "_msg",
          "type": "string"
        }
      ],
      "name": "setMsg",
      "outputs": [
        {
          "internalType": "bool",
          "name": "",
          "type": "bool"
        }
      ],
      "stateMutability": "payable",
      "type": "function"
    },
    {
      "inputs": [
        {
          "internalType": "string",
          "name": "_msg",
          "type": "string"
        }
      ],
      "name": "setMsgAdmin",
      "outputs": [
        {
          "internalType": "bool",
          "name": "",
          "type": "bool"
        }
      ],
      "stateMutability": "nonpayable",
      "type": "function"
    },
    {
      "inputs": [],
      "name": "showMsg",
      "outputs": [
        {
          "internalType": "string",
          "name": "",
          "type": "string"
        }
      ],
      "stateMutability": "view",
      "type": "function"
    },
    {
      "inputs": [],
      "name": "withdraw",
      "outputs": [
        {
          "internalType": "uint256",
          "name": "",
          "type": "uint256"
        }
      ],
      "stateMutability": "nonpayable",
      "type": "function"
    }
  ],
  "bytecode": "0x60806040523480156200001157600080fd5b50336000806101000a81548173ffffffffffffffffffffffffffffffffffffffff021916908373ffffffffffffffffffffffffffffffffffffffff1602179055506001600560003373ffffffffffffffffffffffffffffffffffffffff1673ffffffffffffffffffffffffffffffffffffffff16815260200190815260200160002060006101000a81548160ff02191690831515021790555033600660006104d28110620000c457620000c362000160565b5b0160006101000a81548173ffffffffffffffffffffffffffffffffffffffff021916908373ffffffffffffffffffffffffffffffffffffffff1602179055506040518060400160405280601a81526020017f4245204652455348204d5920465255495459204652454e5a20210000000000008152506003908162000149919062000409565b50600180819055506104d2600281905550620004f0565b7f4e487b7100000000000000000000000000000000000000000000000000000000600052603260045260246000fd5b600081519050919050565b7f4e487b7100000000000000000000000000000000000000000000000000000000600052604160045260246000fd5b7f4e487b7100000000000000000000000000000000000000000000000000000000600052602260045260246000fd5b600060028204905060018216806200021157607f821691505b602082108103620002275762000226620001c9565b5b50919050565b60008190508160005260206000209050919050565b60006020601f8301049050919050565b600082821b905092915050565b600060088302620002917fffffffffffffffffffffffffffffffffffffffffffffffffffffffffffffffff8262000252565b6200029d868362000252565b95508019841693508086168417925050509392505050565b6000819050919050565b6000819050919050565b6000620002ea620002e4620002de84620002b5565b620002bf565b620002b5565b9050919050565b6000819050919050565b6200030683620002c9565b6200031e6200031582620002f1565b8484546200025f565b825550505050565b600090565b6200033562000326565b62000342818484620002fb565b505050565b5b818110156200036a576200035e6000826200032b565b60018101905062000348565b5050565b601f821115620003b95762000383816200022d565b6200038e8462000242565b810160208510156200039e578190505b620003b6620003ad8562000242565b83018262000347565b50505b505050565b600082821c905092915050565b6000620003de60001984600802620003be565b1980831691505092915050565b6000620003f98383620003cb565b9150826002028217905092915050565b62000414826200018f565b67ffffffffffffffff81111562000430576200042f6200019a565b5b6200043c8254620001f8565b620004498282856200036e565b600060209050601f8311600181146200048157600084156200046c578287015190505b620004788582620003eb565b865550620004e8565b601f19841662000491866200022d565b60005b82811015620004bb5784890151825560018201915060208501945060208101905062000494565b86831015620004db5784890151620004d7601f891682620003cb565b8355505b6001600288020188555050505b505050505050565b61167580620005006000396000f3fe6080604052600436106100a75760003560e01c8063c4784fd411610064578063c4784fd4146101d2578063c85e07b914610202578063cc87ec5f1461022d578063e21f37ce1461026a578063f794062e14610295578063f851a440146102d2576100a7565b8063161dbc14146100ac5780632a0c74d4146100e9578063329dd36414610114578063365b98b21461013f5780633ccfd60b1461017c57806377b3cc9a146101a7575b600080fd5b3480156100b857600080fd5b506100d360048036038101906100ce9190610d41565b6102fd565b6040516100e09190610da5565b60405180910390f35b3480156100f557600080fd5b506100fe6103ad565b60405161010b9190610e3f565b60405180910390f35b34801561012057600080fd5b5061012961043f565b6040516101369190610f3f565b60405180910390f35b34801561014b57600080fd5b5061016660048036038101906101619190610f91565b6104c2565b6040516101739190610fcd565b60405180910390f35b34801561018857600080fd5b506101916104f9565b60405161019e9190610ff7565b60405180910390f35b3480156101b357600080fd5b506101bc6105f6565b6040516101c99190610da5565b60405180910390f35b6101ec60048036038101906101e79190610d41565b6107ec565b6040516101f99190610da5565b60405180910390f35b34801561020e57600080fd5b506102176108ab565b6040516102249190610ff7565b60405180910390f35b34801561023957600080fd5b50610254600480360381019061024f919061103e565b6108b1565b6040516102619190610da5565b60405180910390f35b34801561027657600080fd5b5061027f610af1565b60405161028c9190610e3f565b60405180910390f35b3480156102a157600080fd5b506102bc60048036038101906102b7919061103e565b610b7f565b6040516102c99190610da5565b60405180910390f35b3480156102de57600080fd5b506102e7610b9f565b6040516102f49190610fcd565b60405180910390f35b60003373ffffffffffffffffffffffffffffffffffffffff1660008054906101000a900473ffffffffffffffffffffffffffffffffffffffff1673ffffffffffffffffffffffffffffffffffffffff161461038d576040517f08c379a0000000000000000000000000000000000000000000000000000000008152600401610384906110b7565b60405180910390fd5b816003908161039c91906112e3565b504260048190555060019050919050565b6060600380546103bc90611106565b80601f01602080910402602001604051908101604052809291908181526020018280546103e890611106565b80156104355780601f1061040a57610100808354040283529160200191610435565b820191906000526020600020905b81548152906001019060200180831161041857829003601f168201915b5050505050905090565b610447610bc3565b60066104d28060200260405190810160405280929190826104d280156104b8576020028201915b8160009054906101000a900473ffffffffffffffffffffffffffffffffffffffff1673ffffffffffffffffffffffffffffffffffffffff168152602001906001019080831161046e575b5050505050905090565b6006816104d281106104d357600080fd5b016000915054906101000a900473ffffffffffffffffffffffffffffffffffffffff1681565b60003373ffffffffffffffffffffffffffffffffffffffff1660008054906101000a900473ffffffffffffffffffffffffffffffffffffffff1673ffffffffffffffffffffffffffffffffffffffff1614610589576040517f08c379a0000000000000000000000000000000000000000000000000000000008152600401610580906110b7565b60405180910390fd5b60008054906101000a900473ffffffffffffffffffffffffffffffffffffffff1673ffffffffffffffffffffffffffffffffffffffff166108fc479081150290604051600060405180830381858888f193505050501580156105ef573d6000803e3d6000fd5b5047905090565b60003360001515600560008373ffffffffffffffffffffffffffffffffffffffff1673ffffffffffffffffffffffffffffffffffffffff16815260200190815260200160002060009054906101000a900460ff1615151461068c576040517f08c379a000000000000000000000000000000000000000000000000000000000815260040161068390611401565b60405180910390fd5b600254600154106106d2576040517f08c379a00000000000000000000000000000000000000000000000000000000081526004016106c99061146d565b60405180910390fd5b6001600560003373ffffffffffffffffffffffffffffffffffffffff1673ffffffffffffffffffffffffffffffffffffffff16815260200190815260200160002060006101000a81548160ff0219169083151502179055503360066001546104d281106107425761074161148d565b5b0160006101000a81548173ffffffffffffffffffffffffffffffffffffffff021916908373ffffffffffffffffffffffffffffffffffffffff16021790555060016000815480929190610794906114eb565b9190505550600560003373ffffffffffffffffffffffffffffffffffffffff1673ffffffffffffffffffffffffffffffffffffffff16815260200190815260200160002060009054906101000a900460ff1691505090565b6000670de0b6b3a7640000341115610839576040517f08c379a00000000000000000000000000000000000000000000000000000000081526004016108309061157f565b60405180910390fd5b610e10600454610849919061159f565b42101561088b576040517f08c379a00000000000000000000000000000000000000000000000000000000081526004016108829061161f565b60405180910390fd5b816003908161089a91906112e3565b504260048190555060019050919050565b60045481565b60008160001515600560008373ffffffffffffffffffffffffffffffffffffffff1673ffffffffffffffffffffffffffffffffffffffff16815260200190815260200160002060009054906101000a900460ff16151514610947576040517f08c379a000000000000000000000000000000000000000000000000000000000815260040161093e90611401565b60405180910390fd5b3373ffffffffffffffffffffffffffffffffffffffff1660008054906101000a900473ffffffffffffffffffffffffffffffffffffffff1673ffffffffffffffffffffffffffffffffffffffff16146109d5576040517f08c379a00000000000000000000000000000000000000000000000000000000081526004016109cc906110b7565b60405180910390fd5b6001600560008573ffffffffffffffffffffffffffffffffffffffff1673ffffffffffffffffffffffffffffffffffffffff16815260200190815260200160002060006101000a81548160ff0219169083151502179055508260066001546104d28110610a4557610a4461148d565b5b0160006101000a81548173ffffffffffffffffffffffffffffffffffffffff021916908373ffffffffffffffffffffffffffffffffffffffff16021790555060016000815480929190610a97906114eb565b9190505550600560008473ffffffffffffffffffffffffffffffffffffffff1673ffffffffffffffffffffffffffffffffffffffff16815260200190815260200160002060009054906101000a900460ff16915050919050565b60038054610afe90611106565b80601f0160208091040260200160405190810160405280929190818152602001828054610b2a90611106565b8015610b775780601f10610b4c57610100808354040283529160200191610b77565b820191906000526020600020905b815481529060010190602001808311610b5a57829003601f168201915b505050505081565b60056020528060005260406000206000915054906101000a900460ff1681565b60008054906101000a900473ffffffffffffffffffffffffffffffffffffffff1681565b60405180619a4001604052806104d290602082028036833780820191505090505090565b6000604051905090565b600080fd5b600080fd5b600080fd5b600080fd5b6000601f19601f8301169050919050565b7f4e487b7100000000000000000000000000000000000000000000000000000000600052604160045260246000fd5b610c4e82610c05565b810181811067ffffffffffffffff82111715610c6d57610c6c610c16565b5b80604052505050565b6000610c80610be7565b9050610c8c8282610c45565b919050565b600067ffffffffffffffff821115610cac57610cab610c16565b5b610cb582610c05565b9050602081019050919050565b82818337600083830152505050565b6000610ce4610cdf84610c91565b610c76565b905082815260208101848484011115610d0057610cff610c00565b5b610d0b848285610cc2565b509392505050565b600082601f830112610d2857610d27610bfb565b5b8135610d38848260208601610cd1565b91505092915050565b600060208284031215610d5757610d56610bf1565b5b600082013567ffffffffffffffff811115610d7557610d74610bf6565b5b610d8184828501610d13565b91505092915050565b60008115159050919050565b610d9f81610d8a565b82525050565b6000602082019050610dba6000830184610d96565b92915050565b600081519050919050565b600082825260208201905092915050565b60005b83811015610dfa578082015181840152602081019050610ddf565b60008484015250505050565b6000610e1182610dc0565b610e1b8185610dcb565b9350610e2b818560208601610ddc565b610e3481610c05565b840191505092915050565b60006020820190508181036000830152610e598184610e06565b905092915050565b60006104d29050919050565b600081905092915050565b6000819050919050565b600073ffffffffffffffffffffffffffffffffffffffff82169050919050565b6000610ead82610e82565b9050919050565b610ebd81610ea2565b82525050565b6000610ecf8383610eb4565b60208301905092915050565b6000602082019050919050565b610ef181610e61565b610efb8184610e6d565b9250610f0682610e78565b8060005b83811015610f37578151610f1e8782610ec3565b9650610f2983610edb565b925050600181019050610f0a565b505050505050565b6000619a4082019050610f556000830184610ee8565b92915050565b6000819050919050565b610f6e81610f5b565b8114610f7957600080fd5b50565b600081359050610f8b81610f65565b92915050565b600060208284031215610fa757610fa6610bf1565b5b6000610fb584828501610f7c565b91505092915050565b610fc781610ea2565b82525050565b6000602082019050610fe26000830184610fbe565b92915050565b610ff181610f5b565b82525050565b600060208201905061100c6000830184610fe8565b92915050565b61101b81610ea2565b811461102657600080fd5b50565b60008135905061103881611012565b92915050565b60006020828403121561105457611053610bf1565b5b600061106284828501611029565b91505092915050565b7f796f7520617265206e6f742061646d696e000000000000000000000000000000600082015250565b60006110a1601183610dcb565b91506110ac8261106b565b602082019050919050565b600060208201905081810360008301526110d081611094565b9050919050565b7f4e487b7100000000000000000000000000000000000000000000000000000000600052602260045260246000fd5b6000600282049050600182168061111e57607f821691505b602082108103611131576111306110d7565b5b50919050565b60008190508160005260206000209050919050565b60006020601f8301049050919050565b600082821b905092915050565b6000600883026111997fffffffffffffffffffffffffffffffffffffffffffffffffffffffffffffffff8261115c565b6111a3868361115c565b95508019841693508086168417925050509392505050565b6000819050919050565b60006111e06111db6111d684610f5b565b6111bb565b610f5b565b9050919050565b6000819050919050565b6111fa836111c5565b61120e611206826111e7565b848454611169565b825550505050565b600090565b611223611216565b61122e8184846111f1565b505050565b5b818110156112525761124760008261121b565b600181019050611234565b5050565b601f8211156112975761126881611137565b6112718461114c565b81016020851015611280578190505b61129461128c8561114c565b830182611233565b50505b505050565b600082821c905092915050565b60006112ba6000198460080261129c565b1980831691505092915050565b60006112d383836112a9565b9150826002028217905092915050565b6112ec82610dc0565b67ffffffffffffffff81111561130557611304610c16565b5b61130f8254611106565b61131a828285611256565b600060209050601f83116001811461134d576000841561133b578287015190505b61134585826112c7565b8655506113ad565b601f19841661135b86611137565b60005b828110156113835784890151825560018201915060208501945060208101905061135e565b868310156113a0578489015161139c601f8916826112a9565b8355505b6001600288020188555050505b505050505050565b7f616c7265616479206c6973746564000000000000000000000000000000000000600082015250565b60006113eb600e83610dcb565b91506113f6826113b5565b602082019050919050565b6000602082019050818103600083015261141a816113de565b9050919050565b7f6e6f206d6f726520677265656e6c697374207469636b657473206c6566740000600082015250565b6000611457601e83610dcb565b915061146282611421565b602082019050919050565b600060208201905081810360008301526114868161144a565b9050919050565b7f4e487b7100000000000000000000000000000000000000000000000000000000600052603260045260246000fd5b7f4e487b7100000000000000000000000000000000000000000000000000000000600052601160045260246000fd5b60006114f682610f5b565b91507fffffffffffffffffffffffffffffffffffffffffffffffffffffffffffffffff8203611528576115276114bc565b5b600182019050919050565b7f696e73756666696369656e742062616c616e63652073656e7400000000000000600082015250565b6000611569601983610dcb565b915061157482611533565b602082019050919050565b600060208201905081810360008301526115988161155c565b9050919050565b60006115aa82610f5b565b91506115b583610f5b565b92508282019050808211156115cd576115cc6114bc565b5b92915050565b7f796f75206e65656420746f207761697400000000000000000000000000000000600082015250565b6000611609601083610dcb565b9150611614826115d3565b602082019050919050565b60006020820190508181036000830152611638816115fc565b905091905056fea2646970667358221220f3e404ada3a6575e00440d0abb9a4773b3035ef1f4bcfa6801ab669b6dda66b664736f6c63430008100033",
  "immutableReferences": {},
  "source": "// SPDX-License-Identifier: MIT\npragma solidity ^0.8.10;\n\ncontract Greenlist {\n    address public admin;\n\n    uint256 l;\n    uint256 max;\n    string public message;\n    uint256 public stamp;\n\n    mapping(address => bool) public isListed;\n    address[1234] public users;\n    modifier notListed(address _adr) {\n        require(isListed[_adr] == false, \"already listed\");\n        _;\n    }\n\n    constructor() {\n        admin = msg.sender;\n        isListed[msg.sender] = true;\n        users[0] = msg.sender;\n        message = \"BE FRESH MY FRUITY FRENZ !\";\n        l = 1;\n        max = 1234;\n    }\n\n    function getListed() external notListed(msg.sender) returns (bool) {\n        require(l < max, \"no more greenlist tickets left\");\n        isListed[msg.sender] = true;\n        users[l] = (msg.sender);\n        l++;\n        return isListed[msg.sender];\n    }\n\n    function makeListing(address _adr) external notListed(_adr) returns (bool) {\n        require(admin == msg.sender, \"you are not admin\");\n        isListed[_adr] = true;\n        users[l] = (_adr);\n        l++;\n        return isListed[_adr];\n    }\n\n    function showUsers() external view returns (address[1234] memory) {\n        return users;\n    }\n\n    function setMsg(string memory _msg) external payable returns (bool) {\n        require(msg.value <= 1 * 10**18, \"insufficient balance sent\");\n        require(block.timestamp >= stamp + 60 * 60, \"you need to wait\");\n        message = _msg;\n        stamp = block.timestamp;\n        return true;\n    }\n\n    function setMsgAdmin(string memory _msg) external returns (bool) {\n        require(admin == msg.sender, \"you are not admin\");\n        message = _msg;\n        stamp = block.timestamp;\n        return true;\n    }\n\n    function showMsg() external view returns (string memory) {\n        return message;\n    }\n\n    function withdraw() external returns (uint256) {\n        require(admin == msg.sender, \"you are not admin\");\n        payable(admin).transfer(address(this).balance);\n        return address(this).balance;\n    }\n}\n",
  "sourcePath": "/Users/iii6/Documents/GitHub/niftish/contracts/Greenlist.sol",
  "compiler": {
    "name": "solc",
    "version": "0.8.16+commit.07a7930e.Emscripten.clang"
  },
  "schemaVersion": "3.4.8",
  "updatedAt": "2022-09-17T00:03:17.953Z",
  "devdoc": {
    "kind": "dev",
    "methods": {},
    "version": 1
  },
  "userdoc": {
    "kind": "user",
    "methods": {},
    "version": 1
  }
}