{
  "contractName": "Greenlist",
  "abi": [
    {
      "inputs": [
        {
          "internalType": "uint256",
          "name": "_t",
          "type": "uint256"
        }
      ],
      "stateMutability": "nonpayable",
      "type": "constructor"
    },
    {
      "inputs": [],
      "name": "FCT",
      "outputs": [
        {
          "internalType": "contract COOLFROOT",
          "name": "",
          "type": "address"
        }
      ],
      "stateMutability": "view",
      "type": "function",
      "constant": true
    },
    {
      "inputs": [],
      "name": "admin",
      "outputs": [
        {
          "internalType": "address",
          "name": "",
          "type": "address"
        }
      ],
      "stateMutability": "view",
      "type": "function",
      "constant": true
    },
    {
      "inputs": [],
      "name": "arb",
      "outputs": [
        {
          "internalType": "contract ERC20",
          "name": "",
          "type": "address"
        }
      ],
      "stateMutability": "view",
      "type": "function",
      "constant": true
    },
    {
      "inputs": [],
      "name": "arbprice",
      "outputs": [
        {
          "internalType": "uint256",
          "name": "",
          "type": "uint256"
        }
      ],
      "stateMutability": "view",
      "type": "function",
      "constant": true
    },
    {
      "inputs": [
        {
          "internalType": "address",
          "name": "",
          "type": "address"
        }
      ],
      "name": "isListed",
      "outputs": [
        {
          "internalType": "bool",
          "name": "",
          "type": "bool"
        }
      ],
      "stateMutability": "view",
      "type": "function",
      "constant": true
    },
    {
      "inputs": [],
      "name": "l",
      "outputs": [
        {
          "internalType": "uint256",
          "name": "",
          "type": "uint256"
        }
      ],
      "stateMutability": "view",
      "type": "function",
      "constant": true
    },
    {
      "inputs": [],
      "name": "max",
      "outputs": [
        {
          "internalType": "uint256",
          "name": "",
          "type": "uint256"
        }
      ],
      "stateMutability": "view",
      "type": "function",
      "constant": true
    },
    {
      "inputs": [],
      "name": "message",
      "outputs": [
        {
          "internalType": "string",
          "name": "",
          "type": "string"
        }
      ],
      "stateMutability": "view",
      "type": "function",
      "constant": true
    },
    {
      "inputs": [],
      "name": "msgprice",
      "outputs": [
        {
          "internalType": "uint256",
          "name": "",
          "type": "uint256"
        }
      ],
      "stateMutability": "view",
      "type": "function",
      "constant": true
    },
    {
      "inputs": [],
      "name": "stamp",
      "outputs": [
        {
          "internalType": "uint256",
          "name": "",
          "type": "uint256"
        }
      ],
      "stateMutability": "view",
      "type": "function",
      "constant": true
    },
    {
      "inputs": [],
      "name": "url",
      "outputs": [
        {
          "internalType": "string",
          "name": "",
          "type": "string"
        }
      ],
      "stateMutability": "view",
      "type": "function",
      "constant": true
    },
    {
      "inputs": [
        {
          "internalType": "uint256",
          "name": "",
          "type": "uint256"
        }
      ],
      "name": "users",
      "outputs": [
        {
          "internalType": "address",
          "name": "",
          "type": "address"
        }
      ],
      "stateMutability": "view",
      "type": "function",
      "constant": true
    },
    {
      "inputs": [
        {
          "internalType": "address",
          "name": "_fct",
          "type": "address"
        }
      ],
      "name": "setFCT",
      "outputs": [
        {
          "internalType": "bool",
          "name": "",
          "type": "bool"
        }
      ],
      "stateMutability": "nonpayable",
      "type": "function"
    },
    {
      "inputs": [],
      "name": "getListed",
      "outputs": [
        {
          "internalType": "bool",
          "name": "",
          "type": "bool"
        }
      ],
      "stateMutability": "nonpayable",
      "type": "function"
    },
    {
      "inputs": [
        {
          "internalType": "address",
          "name": "_adr",
          "type": "address"
        }
      ],
      "name": "makeListing",
      "outputs": [
        {
          "internalType": "bool",
          "name": "",
          "type": "bool"
        }
      ],
      "stateMutability": "nonpayable",
      "type": "function"
    },
    {
      "inputs": [],
      "name": "showUsers",
      "outputs": [
        {
          "internalType": "address[1234]",
          "name": "",
          "type": "address[1234]"
        }
      ],
      "stateMutability": "view",
      "type": "function",
      "constant": true
    },
    {
      "inputs": [
        {
          "internalType": "string",
          "name": "_msg",
          "type": "string"
        },
        {
          "internalType": "string",
          "name": "_url",
          "type": "string"
        }
      ],
      "name": "setMsg",
      "outputs": [
        {
          "internalType": "bool",
          "name": "",
          "type": "bool"
        }
      ],
      "stateMutability": "payable",
      "type": "function",
      "payable": true
    },
    {
      "inputs": [
        {
          "internalType": "string",
          "name": "_msg",
          "type": "string"
        },
        {
          "internalType": "string",
          "name": "_url",
          "type": "string"
        }
      ],
      "name": "setArbMsg",
      "outputs": [
        {
          "internalType": "bool",
          "name": "",
          "type": "bool"
        }
      ],
      "stateMutability": "nonpayable",
      "type": "function"
    },
    {
      "inputs": [
        {
          "internalType": "string",
          "name": "_msg",
          "type": "string"
        },
        {
          "internalType": "string",
          "name": "_url",
          "type": "string"
        }
      ],
      "name": "setMsgAdmin",
      "outputs": [
        {
          "internalType": "bool",
          "name": "",
          "type": "bool"
        }
      ],
      "stateMutability": "nonpayable",
      "type": "function"
    },
    {
      "inputs": [],
      "name": "showMsg",
      "outputs": [
        {
          "internalType": "string",
          "name": "",
          "type": "string"
        }
      ],
      "stateMutability": "view",
      "type": "function",
      "constant": true
    },
    {
      "inputs": [],
      "name": "withdraw",
      "outputs": [
        {
          "internalType": "uint256",
          "name": "",
          "type": "uint256"
        }
      ],
      "stateMutability": "nonpayable",
      "type": "function"
    }
  ],
  "bytecode": "0x60806040526040518060400160405280601681526020017f68747470733a2f2f636f6f6c66726f6f74732e78797a00000000000000000000815250600490816200004a9190620008b3565b503480156200005857600080fd5b50604051620032e2380380620032e283398181016040528101906200007e9190620009d0565b336000806101000a81548173ffffffffffffffffffffffffffffffffffffffff021916908373ffffffffffffffffffffffffffffffffffffffff160217905550600081036200018857600060018190555060028081905550612710670de0b6b3a7640000601e620000f0919062000a31565b620000fc919062000aab565b600681905550600a670de0b6b3a764000060286200011b919062000a31565b62000127919062000aab565b600781905550733f42dd736c736f931dc23d4358dd92c65687019a600860006101000a81548173ffffffffffffffffffffffffffffffffffffffff021916908373ffffffffffffffffffffffffffffffffffffffff160217905550620002f7565b6001600a60003373ffffffffffffffffffffffffffffffffffffffff1673ffffffffffffffffffffffffffffffffffffffff16815260200190815260200160002060006101000a81548160ff02191690831515021790555033600b60006104d28110620001fa57620001f962000ae3565b5b0160006101000a81548173ffffffffffffffffffffffffffffffffffffffff021916908373ffffffffffffffffffffffffffffffffffffffff16021790555060006001819055506104d2600281905550612710670de0b6b3a7640000601e62000264919062000a31565b62000270919062000aab565b600681905550600a670de0b6b3a764000060286200028f919062000a31565b6200029b919062000aab565b60078190555073912ce59144191c1204e64559fe8253a0e49e6548600860006101000a81548173ffffffffffffffffffffffffffffffffffffffff021916908373ffffffffffffffffffffffffffffffffffffffff1602179055505b6200031c73dd1bd431772634219df4ef5eb65c064fad76be6f6200036b60201b60201c565b506040518060400160405280601181526020017f474554202346524f4f5453204e4f57202100000000000000000000000000000081525060039081620003639190620008b3565b505062000c51565b60008160001515600a60008373ffffffffffffffffffffffffffffffffffffffff1673ffffffffffffffffffffffffffffffffffffffff16815260200190815260200160002060009054906101000a900460ff1615151462000404576040517f08c379a0000000000000000000000000000000000000000000000000000000008152600401620003fb9062000b73565b60405180910390fd5b60008054906101000a900473ffffffffffffffffffffffffffffffffffffffff1673ffffffffffffffffffffffffffffffffffffffff163373ffffffffffffffffffffffffffffffffffffffff16146200045d57600080fd5b6001600a60008573ffffffffffffffffffffffffffffffffffffffff1673ffffffffffffffffffffffffffffffffffffffff16815260200190815260200160002060006101000a81548160ff02191690831515021790555082600b6001546104d28110620004d057620004cf62000ae3565b5b0160006101000a81548173ffffffffffffffffffffffffffffffffffffffff021916908373ffffffffffffffffffffffffffffffffffffffff16021790555060016000815480929190620005249062000b95565b9190505550600254600154036200054757620005456200059c60201b60201c565b505b600a60008473ffffffffffffffffffffffffffffffffffffffff1673ffffffffffffffffffffffffffffffffffffffff16815260200190815260200160002060009054906101000a900460ff16915050919050565b6000600960009054906101000a900473ffffffffffffffffffffffffffffffffffffffff1673ffffffffffffffffffffffffffffffffffffffff16633b8d676f6040518163ffffffff1660e01b81526004016020604051808303816000875af11580156200060e573d6000803e3d6000fd5b505050506040513d601f19601f8201168201806040525081019062000634919062000c1f565b905090565b600081519050919050565b7f4e487b7100000000000000000000000000000000000000000000000000000000600052604160045260246000fd5b7f4e487b7100000000000000000000000000000000000000000000000000000000600052602260045260246000fd5b60006002820490506001821680620006bb57607f821691505b602082108103620006d157620006d062000673565b5b50919050565b60008190508160005260206000209050919050565b60006020601f8301049050919050565b600082821b905092915050565b6000600883026200073b7fffffffffffffffffffffffffffffffffffffffffffffffffffffffffffffffff82620006fc565b620007478683620006fc565b95508019841693508086168417925050509392505050565b6000819050919050565b6000819050919050565b6000620007946200078e62000788846200075f565b62000769565b6200075f565b9050919050565b6000819050919050565b620007b08362000773565b620007c8620007bf826200079b565b84845462000709565b825550505050565b600090565b620007df620007d0565b620007ec818484620007a5565b505050565b5b81811015620008145762000808600082620007d5565b600181019050620007f2565b5050565b601f82111562000863576200082d81620006d7565b6200083884620006ec565b8101602085101562000848578190505b620008606200085785620006ec565b830182620007f1565b50505b505050565b600082821c905092915050565b6000620008886000198460080262000868565b1980831691505092915050565b6000620008a3838362000875565b9150826002028217905092915050565b620008be8262000639565b67ffffffffffffffff811115620008da57620008d962000644565b5b620008e68254620006a2565b620008f382828562000818565b600060209050601f8311600181146200092b576000841562000916578287015190505b62000922858262000895565b86555062000992565b601f1984166200093b86620006d7565b60005b8281101562000965578489015182556001820191506020850194506020810190506200093e565b8683101562000985578489015162000981601f89168262000875565b8355505b6001600288020188555050505b505050505050565b600080fd5b620009aa816200075f565b8114620009b657600080fd5b50565b600081519050620009ca816200099f565b92915050565b600060208284031215620009e957620009e86200099a565b5b6000620009f984828501620009b9565b91505092915050565b7f4e487b7100000000000000000000000000000000000000000000000000000000600052601160045260246000fd5b600062000a3e826200075f565b915062000a4b836200075f565b925082820262000a5b816200075f565b9150828204841483151762000a755762000a7462000a02565b5b5092915050565b7f4e487b7100000000000000000000000000000000000000000000000000000000600052601260045260246000fd5b600062000ab8826200075f565b915062000ac5836200075f565b92508262000ad85762000ad762000a7c565b5b828204905092915050565b7f4e487b7100000000000000000000000000000000000000000000000000000000600052603260045260246000fd5b600082825260208201905092915050565b7f616c7265616479206c6973746564000000000000000000000000000000000000600082015250565b600062000b5b600e8362000b12565b915062000b688262000b23565b602082019050919050565b6000602082019050818103600083015262000b8e8162000b4c565b9050919050565b600062000ba2826200075f565b91507fffffffffffffffffffffffffffffffffffffffffffffffffffffffffffffffff820362000bd75762000bd662000a02565b5b600182019050919050565b60008115159050919050565b62000bf98162000be2565b811462000c0557600080fd5b50565b60008151905062000c198162000bee565b92915050565b60006020828403121562000c385762000c376200099a565b5b600062000c488482850162000c08565b91505092915050565b6126818062000c616000396000f3fe60806040526004361061012a5760003560e01c806385dbc0c5116100ab578063e04494fc1161006f578063e04494fc14610401578063e21f37ce1461043e578063e3c44ff714610469578063ece866b914610494578063f794062e146104bf578063f851a440146104fc5761012a565b806385dbc0c514610318578063a42ca24e14610343578063acb5fedf1461036e578063c85e07b914610399578063cc87ec5f146103c45761012a565b80633ccfd60b116100f25780633ccfd60b1461023c5780635600f04f1461026757806367f6ea68146102925780636ac5db19146102c257806377b3cc9a146102ed5761012a565b80630fbee7661461012f5780632a0c74d41461016c578063329dd36414610197578063359e0bd1146101c2578063365b98b2146101ff575b600080fd5b34801561013b57600080fd5b5061015660048036038101906101519190611a99565b610527565b6040516101639190611b2c565b60405180910390f35b34801561017857600080fd5b50610181610c0d565b60405161018e9190611bc6565b60405180910390f35b3480156101a357600080fd5b506101ac610c9f565b6040516101b99190611cc6565b60405180910390f35b3480156101ce57600080fd5b506101e960048036038101906101e49190611d0e565b610d22565b6040516101f69190611b2c565b60405180910390f35b34801561020b57600080fd5b5061022660048036038101906102219190611d71565b610dc7565b6040516102339190611dad565b60405180910390f35b34801561024857600080fd5b50610251610dfe565b60405161025e9190611dd7565b60405180910390f35b34801561027357600080fd5b5061027c611158565b6040516102899190611bc6565b60405180910390f35b6102ac60048036038101906102a79190611a99565b6111e6565b6040516102b99190611b2c565b60405180910390f35b3480156102ce57600080fd5b506102d76112b0565b6040516102e49190611dd7565b60405180910390f35b3480156102f957600080fd5b506103026112b6565b60405161030f9190611b2c565b60405180910390f35b34801561032457600080fd5b5061032d6113a1565b60405161033a9190611e51565b60405180910390f35b34801561034f57600080fd5b506103586113c7565b6040516103659190611dd7565b60405180910390f35b34801561037a57600080fd5b506103836113cd565b6040516103909190611e8d565b60405180910390f35b3480156103a557600080fd5b506103ae6113f3565b6040516103bb9190611dd7565b60405180910390f35b3480156103d057600080fd5b506103eb60048036038101906103e69190611d0e565b6113f9565b6040516103f89190611b2c565b60405180910390f35b34801561040d57600080fd5b5061042860048036038101906104239190611a99565b6114f8565b6040516104359190611b2c565b60405180910390f35b34801561044a57600080fd5b50610453611584565b6040516104609190611bc6565b60405180910390f35b34801561047557600080fd5b5061047e611612565b60405161048b9190611dd7565b60405180910390f35b3480156104a057600080fd5b506104a9611618565b6040516104b69190611dd7565b60405180910390f35b3480156104cb57600080fd5b506104e660048036038101906104e19190611d0e565b61161e565b6040516104f39190611b2c565b60405180910390f35b34801561050857600080fd5b5061051161163e565b60405161051e9190611dad565b60405180910390f35b6000600754600860009054906101000a900473ffffffffffffffffffffffffffffffffffffffff1673ffffffffffffffffffffffffffffffffffffffff166370a08231336040518263ffffffff1660e01b81526004016105879190611dad565b602060405180830381865afa1580156105a4573d6000803e3d6000fd5b505050506040513d601f19601f820116820180604052508101906105c89190611ebd565b1015610609576040517f08c379a000000000000000000000000000000000000000000000000000000000815260040161060090611f36565b60405180910390fd5b610e106005546106199190611f85565b42101561065b576040517f08c379a000000000000000000000000000000000000000000000000000000000815260040161065290612005565b60405180910390fd5b600060648060075461066d9190612054565b60075461067a9190612085565b61068491906120b9565b9050600860009054906101000a900473ffffffffffffffffffffffffffffffffffffffff1673ffffffffffffffffffffffffffffffffffffffff166323b872dd337379e205680908c03047e3f3a4e63fd192ff4cf409601e856106e791906120ea565b6040518463ffffffff1660e01b81526004016107059392919061212c565b6020604051808303816000875af1158015610724573d6000803e3d6000fd5b505050506040513d601f19601f82011682018060405250810190610748919061218f565b50600860009054906101000a900473ffffffffffffffffffffffffffffffffffffffff1673ffffffffffffffffffffffffffffffffffffffff166323b872dd3373b4ab6acfc8de6bc53cc696b902e59274d288d3e8601e856107aa91906120ea565b6040518463ffffffff1660e01b81526004016107c89392919061212c565b6020604051808303816000875af11580156107e7573d6000803e3d6000fd5b505050506040513d601f19601f8201168201806040525081019061080b919061218f565b50600860009054906101000a900473ffffffffffffffffffffffffffffffffffffffff1673ffffffffffffffffffffffffffffffffffffffff166323b872dd3373b4ab6acfc8de6bc53cc696b902e59274d288d3e8600a8561086d91906120ea565b6040518463ffffffff1660e01b815260040161088b9392919061212c565b6020604051808303816000875af11580156108aa573d6000803e3d6000fd5b505050506040513d601f19601f820116820180604052508101906108ce919061218f565b50600860009054906101000a900473ffffffffffffffffffffffffffffffffffffffff1673ffffffffffffffffffffffffffffffffffffffff166323b872dd3373b4ab6acfc8de6bc53cc696b902e59274d288d3e8600a8561093091906120ea565b6040518463ffffffff1660e01b815260040161094e9392919061212c565b6020604051808303816000875af115801561096d573d6000803e3d6000fd5b505050506040513d601f19601f82011682018060405250810190610991919061218f565b50600860009054906101000a900473ffffffffffffffffffffffffffffffffffffffff1673ffffffffffffffffffffffffffffffffffffffff166323b872dd337379e205680908c03047e3f3a4e63fd192ff4cf409600a856109f391906120ea565b6040518463ffffffff1660e01b8152600401610a119392919061212c565b6020604051808303816000875af1158015610a30573d6000803e3d6000fd5b505050506040513d601f19601f82011682018060405250810190610a54919061218f565b50600860009054906101000a900473ffffffffffffffffffffffffffffffffffffffff1673ffffffffffffffffffffffffffffffffffffffff166323b872dd337379e205680908c03047e3f3a4e63fd192ff4cf409600585610ab691906120ea565b6040518463ffffffff1660e01b8152600401610ad49392919061212c565b6020604051808303816000875af1158015610af3573d6000803e3d6000fd5b505050506040513d601f19601f82011682018060405250810190610b17919061218f565b50600860009054906101000a900473ffffffffffffffffffffffffffffffffffffffff1673ffffffffffffffffffffffffffffffffffffffff166323b872dd337379e205680908c03047e3f3a4e63fd192ff4cf409600585610b7991906120ea565b6040518463ffffffff1660e01b8152600401610b979392919061212c565b6020604051808303816000875af1158015610bb6573d6000803e3d6000fd5b505050506040513d601f19601f82011682018060405250810190610bda919061218f565b508360039081610bea91906123be565b508260049081610bfa91906123be565b5042600581905550600191505092915050565b606060038054610c1c906121eb565b80601f0160208091040260200160405190810160405280929190818152602001828054610c48906121eb565b8015610c955780601f10610c6a57610100808354040283529160200191610c95565b820191906000526020600020905b815481529060010190602001808311610c7857829003601f168201915b5050505050905090565b610ca761191b565b600b6104d28060200260405190810160405280929190826104d28015610d18576020028201915b8160009054906101000a900473ffffffffffffffffffffffffffffffffffffffff1673ffffffffffffffffffffffffffffffffffffffff1681526020019060010190808311610cce575b5050505050905090565b60008060009054906101000a900473ffffffffffffffffffffffffffffffffffffffff1673ffffffffffffffffffffffffffffffffffffffff163373ffffffffffffffffffffffffffffffffffffffff1614610d7d57600080fd5b81600960006101000a81548173ffffffffffffffffffffffffffffffffffffffff021916908373ffffffffffffffffffffffffffffffffffffffff16021790555060019050919050565b600b816104d28110610dd857600080fd5b016000915054906101000a900473ffffffffffffffffffffffffffffffffffffffff1681565b60008060009054906101000a900473ffffffffffffffffffffffffffffffffffffffff1673ffffffffffffffffffffffffffffffffffffffff163373ffffffffffffffffffffffffffffffffffffffff1614610e5957600080fd5b600060648047610e699190612054565b47610e749190612085565b610e7e91906120b9565b90507379e205680908c03047e3f3a4e63fd192ff4cf40973ffffffffffffffffffffffffffffffffffffffff166108fc601e83610ebb91906120ea565b9081150290604051600060405180830381858888f19350505050158015610ee6573d6000803e3d6000fd5b5073b4ab6acfc8de6bc53cc696b902e59274d288d3e873ffffffffffffffffffffffffffffffffffffffff166108fc601e83610f2291906120ea565b9081150290604051600060405180830381858888f19350505050158015610f4d573d6000803e3d6000fd5b5073b4ab6acfc8de6bc53cc696b902e59274d288d3e873ffffffffffffffffffffffffffffffffffffffff166108fc600a83610f8991906120ea565b9081150290604051600060405180830381858888f19350505050158015610fb4573d6000803e3d6000fd5b5073b4ab6acfc8de6bc53cc696b902e59274d288d3e873ffffffffffffffffffffffffffffffffffffffff166108fc600a83610ff091906120ea565b9081150290604051600060405180830381858888f1935050505015801561101b573d6000803e3d6000fd5b507379e205680908c03047e3f3a4e63fd192ff4cf40973ffffffffffffffffffffffffffffffffffffffff166108fc600a8361105791906120ea565b9081150290604051600060405180830381858888f19350505050158015611082573d6000803e3d6000fd5b507379e205680908c03047e3f3a4e63fd192ff4cf40973ffffffffffffffffffffffffffffffffffffffff166108fc6005836110be91906120ea565b9081150290604051600060405180830381858888f193505050501580156110e9573d6000803e3d6000fd5b507379e205680908c03047e3f3a4e63fd192ff4cf40973ffffffffffffffffffffffffffffffffffffffff166108fc60058361112591906120ea565b9081150290604051600060405180830381858888f19350505050158015611150573d6000803e3d6000fd5b504791505090565b60048054611165906121eb565b80601f0160208091040260200160405190810160405280929190818152602001828054611191906121eb565b80156111de5780601f106111b3576101008083540402835291602001916111de565b820191906000526020600020905b8154815290600101906020018083116111c157829003601f168201915b505050505081565b600060065434101561122d576040517f08c379a0000000000000000000000000000000000000000000000000000000008152600401611224906124dc565b60405180910390fd5b610e1060055461123d9190611f85565b42101561127f576040517f08c379a000000000000000000000000000000000000000000000000000000000815260040161127690612005565b60405180910390fd5b826003908161128e91906123be565b50816004908161129e91906123be565b50426005819055506001905092915050565b60025481565b60003360001515600a60008373ffffffffffffffffffffffffffffffffffffffff1673ffffffffffffffffffffffffffffffffffffffff16815260200190815260200160002060009054906101000a900460ff1615151461134c576040517f08c379a000000000000000000000000000000000000000000000000000000000815260040161134390612548565b60405180910390fd5b60025460015410611392576040517f08c379a0000000000000000000000000000000000000000000000000000000008152600401611389906125b4565b60405180910390fd5b61139b33611662565b91505090565b600960009054906101000a900473ffffffffffffffffffffffffffffffffffffffff1681565b60065481565b600860009054906101000a900473ffffffffffffffffffffffffffffffffffffffff1681565b60055481565b60008160001515600a60008373ffffffffffffffffffffffffffffffffffffffff1673ffffffffffffffffffffffffffffffffffffffff16815260200190815260200160002060009054906101000a900460ff1615151461148f576040517f08c379a000000000000000000000000000000000000000000000000000000000815260040161148690612548565b60405180910390fd5b60008054906101000a900473ffffffffffffffffffffffffffffffffffffffff1673ffffffffffffffffffffffffffffffffffffffff163373ffffffffffffffffffffffffffffffffffffffff16146114e757600080fd5b6114f083611662565b915050919050565b60008060009054906101000a900473ffffffffffffffffffffffffffffffffffffffff1673ffffffffffffffffffffffffffffffffffffffff163373ffffffffffffffffffffffffffffffffffffffff161461155357600080fd5b826003908161156291906123be565b50816004908161157291906123be565b50426005819055506001905092915050565b60038054611591906121eb565b80601f01602080910402602001604051908101604052809291908181526020018280546115bd906121eb565b801561160a5780601f106115df5761010080835404028352916020019161160a565b820191906000526020600020905b8154815290600101906020018083116115ed57829003601f168201915b505050505081565b60075481565b60015481565b600a6020528060005260406000206000915054906101000a900460ff1681565b60008054906101000a900473ffffffffffffffffffffffffffffffffffffffff1681565b60008160001515600a60008373ffffffffffffffffffffffffffffffffffffffff1673ffffffffffffffffffffffffffffffffffffffff16815260200190815260200160002060009054906101000a900460ff161515146116f8576040517f08c379a00000000000000000000000000000000000000000000000000000000081526004016116ef90612548565b60405180910390fd5b60008054906101000a900473ffffffffffffffffffffffffffffffffffffffff1673ffffffffffffffffffffffffffffffffffffffff163373ffffffffffffffffffffffffffffffffffffffff161461175057600080fd5b6001600a60008573ffffffffffffffffffffffffffffffffffffffff1673ffffffffffffffffffffffffffffffffffffffff16815260200190815260200160002060006101000a81548160ff02191690831515021790555082600b6001546104d281106117c0576117bf6125d4565b5b0160006101000a81548173ffffffffffffffffffffffffffffffffffffffff021916908373ffffffffffffffffffffffffffffffffffffffff1602179055506001600081548092919061181290612603565b91905055506002546001540361182c5761182a611881565b505b600a60008473ffffffffffffffffffffffffffffffffffffffff1673ffffffffffffffffffffffffffffffffffffffff16815260200190815260200160002060009054906101000a900460ff16915050919050565b6000600960009054906101000a900473ffffffffffffffffffffffffffffffffffffffff1673ffffffffffffffffffffffffffffffffffffffff16633b8d676f6040518163ffffffff1660e01b81526004016020604051808303816000875af11580156118f2573d6000803e3d6000fd5b505050506040513d601f19601f82011682018060405250810190611916919061218f565b905090565b60405180619a4001604052806104d290602082028036833780820191505090505090565b6000604051905090565b600080fd5b600080fd5b600080fd5b600080fd5b6000601f19601f8301169050919050565b7f4e487b7100000000000000000000000000000000000000000000000000000000600052604160045260246000fd5b6119a68261195d565b810181811067ffffffffffffffff821117156119c5576119c461196e565b5b80604052505050565b60006119d861193f565b90506119e4828261199d565b919050565b600067ffffffffffffffff821115611a0457611a0361196e565b5b611a0d8261195d565b9050602081019050919050565b82818337600083830152505050565b6000611a3c611a37846119e9565b6119ce565b905082815260208101848484011115611a5857611a57611958565b5b611a63848285611a1a565b509392505050565b600082601f830112611a8057611a7f611953565b5b8135611a90848260208601611a29565b91505092915050565b60008060408385031215611ab057611aaf611949565b5b600083013567ffffffffffffffff811115611ace57611acd61194e565b5b611ada85828601611a6b565b925050602083013567ffffffffffffffff811115611afb57611afa61194e565b5b611b0785828601611a6b565b9150509250929050565b60008115159050919050565b611b2681611b11565b82525050565b6000602082019050611b416000830184611b1d565b92915050565b600081519050919050565b600082825260208201905092915050565b60005b83811015611b81578082015181840152602081019050611b66565b60008484015250505050565b6000611b9882611b47565b611ba28185611b52565b9350611bb2818560208601611b63565b611bbb8161195d565b840191505092915050565b60006020820190508181036000830152611be08184611b8d565b905092915050565b60006104d29050919050565b600081905092915050565b6000819050919050565b600073ffffffffffffffffffffffffffffffffffffffff82169050919050565b6000611c3482611c09565b9050919050565b611c4481611c29565b82525050565b6000611c568383611c3b565b60208301905092915050565b6000602082019050919050565b611c7881611be8565b611c828184611bf4565b9250611c8d82611bff565b8060005b83811015611cbe578151611ca58782611c4a565b9650611cb083611c62565b925050600181019050611c91565b505050505050565b6000619a4082019050611cdc6000830184611c6f565b92915050565b611ceb81611c29565b8114611cf657600080fd5b50565b600081359050611d0881611ce2565b92915050565b600060208284031215611d2457611d23611949565b5b6000611d3284828501611cf9565b91505092915050565b6000819050919050565b611d4e81611d3b565b8114611d5957600080fd5b50565b600081359050611d6b81611d45565b92915050565b600060208284031215611d8757611d86611949565b5b6000611d9584828501611d5c565b91505092915050565b611da781611c29565b82525050565b6000602082019050611dc26000830184611d9e565b92915050565b611dd181611d3b565b82525050565b6000602082019050611dec6000830184611dc8565b92915050565b6000819050919050565b6000611e17611e12611e0d84611c09565b611df2565b611c09565b9050919050565b6000611e2982611dfc565b9050919050565b6000611e3b82611e1e565b9050919050565b611e4b81611e30565b82525050565b6000602082019050611e666000830184611e42565b92915050565b6000611e7782611e1e565b9050919050565b611e8781611e6c565b82525050565b6000602082019050611ea26000830184611e7e565b92915050565b600081519050611eb781611d45565b92915050565b600060208284031215611ed357611ed2611949565b5b6000611ee184828501611ea8565b91505092915050565b7f4c4f204152420000000000000000000000000000000000000000000000000000600082015250565b6000611f20600683611b52565b9150611f2b82611eea565b602082019050919050565b60006020820190508181036000830152611f4f81611f13565b9050919050565b7f4e487b7100000000000000000000000000000000000000000000000000000000600052601160045260246000fd5b6000611f9082611d3b565b9150611f9b83611d3b565b9250828201905080821115611fb357611fb2611f56565b5b92915050565b7f4348494c4c000000000000000000000000000000000000000000000000000000600082015250565b6000611fef600583611b52565b9150611ffa82611fb9565b602082019050919050565b6000602082019050818103600083015261201e81611fe2565b9050919050565b7f4e487b7100000000000000000000000000000000000000000000000000000000600052601260045260246000fd5b600061205f82611d3b565b915061206a83611d3b565b92508261207a57612079612025565b5b828206905092915050565b600061209082611d3b565b915061209b83611d3b565b92508282039050818111156120b3576120b2611f56565b5b92915050565b60006120c482611d3b565b91506120cf83611d3b565b9250826120df576120de612025565b5b828204905092915050565b60006120f582611d3b565b915061210083611d3b565b925082820261210e81611d3b565b9150828204841483151761212557612124611f56565b5b5092915050565b60006060820190506121416000830186611d9e565b61214e6020830185611d9e565b61215b6040830184611dc8565b949350505050565b61216c81611b11565b811461217757600080fd5b50565b60008151905061218981612163565b92915050565b6000602082840312156121a5576121a4611949565b5b60006121b38482850161217a565b91505092915050565b7f4e487b7100000000000000000000000000000000000000000000000000000000600052602260045260246000fd5b6000600282049050600182168061220357607f821691505b602082108103612216576122156121bc565b5b50919050565b60008190508160005260206000209050919050565b60006020601f8301049050919050565b600082821b905092915050565b60006008830261227e7fffffffffffffffffffffffffffffffffffffffffffffffffffffffffffffffff82612241565b6122888683612241565b95508019841693508086168417925050509392505050565b60006122bb6122b66122b184611d3b565b611df2565b611d3b565b9050919050565b6000819050919050565b6122d5836122a0565b6122e96122e1826122c2565b84845461224e565b825550505050565b600090565b6122fe6122f1565b6123098184846122cc565b505050565b5b8181101561232d576123226000826122f6565b60018101905061230f565b5050565b601f821115612372576123438161221c565b61234c84612231565b8101602085101561235b578190505b61236f61236785612231565b83018261230e565b50505b505050565b600082821c905092915050565b600061239560001984600802612377565b1980831691505092915050565b60006123ae8383612384565b9150826002028217905092915050565b6123c782611b47565b67ffffffffffffffff8111156123e0576123df61196e565b5b6123ea82546121eb565b6123f5828285612331565b600060209050601f8311600181146124285760008415612416578287015190505b61242085826123a2565b865550612488565b601f1984166124368661221c565b60005b8281101561245e57848901518255600182019150602085019450602081019050612439565b8683101561247b5784890151612477601f891682612384565b8355505b6001600288020188555050505b505050505050565b7f4c4f2046554e5a00000000000000000000000000000000000000000000000000600082015250565b60006124c6600783611b52565b91506124d182612490565b602082019050919050565b600060208201905081810360008301526124f5816124b9565b9050919050565b7f616c7265616479206c6973746564000000000000000000000000000000000000600082015250565b6000612532600e83611b52565b915061253d826124fc565b602082019050919050565b6000602082019050818103600083015261256181612525565b9050919050565b7f5455204c41595400000000000000000000000000000000000000000000000000600082015250565b600061259e600783611b52565b91506125a982612568565b602082019050919050565b600060208201905081810360008301526125cd81612591565b9050919050565b7f4e487b7100000000000000000000000000000000000000000000000000000000600052603260045260246000fd5b600061260e82611d3b565b91507fffffffffffffffffffffffffffffffffffffffffffffffffffffffffffffffff82036126405761263f611f56565b5b60018201905091905056fea2646970667358221220876a56fdb5137ff906103203eb36b8d81bf733157db87316fb56b0ec9b66d9e064736f6c63430008110033",
  "immutableReferences": {},
  "source": "// SPDX-License-Identifier: MIT\n\npragma solidity ^0.8.10;\n\nimport \"@openzeppelin/contracts/token/ERC20/ERC20.sol\";\nimport \"@openzeppelin/contracts/token/ERC721/ERC721.sol\";\n\nlibrary wallets {\n    address constant artist = 0x79E205680908c03047e3f3A4E63FD192Ff4Cf409; // 30%\n    address constant comm = 0xB4AB6aCfc8DE6BC53Cc696B902e59274d288D3E8; // 30%\n    address constant opsec = 0xB4AB6aCfc8DE6BC53Cc696B902e59274d288D3E8; // 10%\n    address constant promo = 0xB4AB6aCfc8DE6BC53Cc696B902e59274d288D3E8; // 10%\n    address constant vc = 0x79E205680908c03047e3f3A4E63FD192Ff4Cf409; // 10%\n    address constant web3dev = 0x79E205680908c03047e3f3A4E63FD192Ff4Cf409; // 5%\n    address constant audit = 0x79E205680908c03047e3f3A4E63FD192Ff4Cf409; // 5%\n    address constant arbcon = 0x912CE59144191C1204E64559FE8253a0e49E6548; // Testnet\n    address constant arbcont = 0x3F42Dd736C736f931dC23D4358DD92c65687019A; // Testnet\n}\n\ncontract Greenlist {\n    using wallets for *;\n    address public admin;\n    uint256 constant digits = 10**18;\n    uint256 public l;\n    uint256 public max;\n    string public message;\n    string public url = \"https://coolfroots.xyz\";\n    uint256 public stamp;\n    uint256 public msgprice;\n    uint256 public arbprice;\n    ERC20 public arb;\n    COOLFROOT public FCT;\n    mapping(address => bool) public isListed;\n    address[1234] public users;\n    modifier notListed(address _adr) {\n        require(isListed[_adr] == false, \"already listed\");\n        _;\n    }\n    modifier onlyA() {\n        require(msg.sender == admin);\n        _;\n    }\n\n    constructor(uint256 _t) {\n        admin = msg.sender;\n\n        if (_t == 0) {\n            l = 0; // Testnet\n            max = 2; // Testnet\n            msgprice = (30 * digits) / 10000;\n            arbprice = (40 * digits) / 10;\n            arb = ERC20(wallets.arbcont);\n        } else {\n            isListed[msg.sender] = true; // OFF ON TESTNET\n            users[0] = msg.sender;\n            l = 0; // Mainnet\n            max = 1234; // Mainnet\n            msgprice = (30 * digits) / 10000;\n            arbprice = (40 * digits) / 10;\n            arb = ERC20(wallets.arbcon);\n        }\n        // already listed\n        _makeListing(0xdd1Bd431772634219Df4eF5eb65C064Fad76be6F);\n        message = \"GET #FROOTS NOW !\";\n    }\n\n    function setFCT(address _fct) external onlyA returns (bool) {\n        FCT = COOLFROOT(_fct);\n        return true;\n    }\n\n    function autoStart() internal returns (bool) {\n        return FCT.changeMS();\n    }\n\n    function getListed() external notListed(msg.sender) returns (bool) {\n        require(l < max, \"TU LAYT\");\n        return _makeListing(msg.sender);\n    }\n\n    function _makeListing(address _adr)\n        internal\n        notListed(_adr)\n        onlyA\n        returns (bool)\n    {\n        isListed[_adr] = true;\n        users[l] = (_adr);\n        l++;\n        if (l == max) autoStart();\n        return isListed[_adr];\n    }\n\n    function makeListing(address _adr)\n        external\n        notListed(_adr)\n        onlyA\n        returns (bool)\n    {\n        return _makeListing(_adr);\n    }\n\n    function showUsers() external view returns (address[1234] memory) {\n        return users;\n    }\n\n    function setMsg(string memory _msg, string memory _url)\n        external\n        payable\n        returns (bool)\n    {\n        require(msg.value >= msgprice, \"LO FUNZ\");\n        require(block.timestamp >= stamp + 60 * 60, \"CHILL\");\n        message = _msg;\n        url = _url;\n        stamp = block.timestamp;\n        return true;\n    }\n\n    function setArbMsg(string memory _msg, string memory _url)\n        external\n        returns (bool)\n    {\n        require(arb.balanceOf(msg.sender) >= arbprice, \"LO ARB\");\n        require(block.timestamp >= stamp + 60 * 60, \"CHILL\");\n        uint256 one = ((arbprice - (arbprice % 100)) / 100);\n        arb.transferFrom(msg.sender, wallets.artist, one * 30);\n        arb.transferFrom(msg.sender, wallets.comm, one * 30);\n        arb.transferFrom(msg.sender, wallets.opsec, one * 10);\n        arb.transferFrom(msg.sender, wallets.promo, one * 10);\n        arb.transferFrom(msg.sender, wallets.vc, one * 10);\n        arb.transferFrom(msg.sender, wallets.web3dev, one * 5);\n        arb.transferFrom(msg.sender, wallets.audit, one * 5);\n        message = _msg;\n        url = _url;\n        stamp = block.timestamp;\n        return true;\n    }\n\n    function setMsgAdmin(string memory _msg, string memory _url)\n        external\n        onlyA\n        returns (bool)\n    {\n        message = _msg;\n        url = _url;\n        stamp = block.timestamp;\n        return true;\n    }\n\n    function showMsg() external view returns (string memory) {\n        return message;\n    }\n\n    function withdraw() external onlyA returns (uint256) {\n        uint256 one = ((address(this).balance - (address(this).balance % 100)) /\n            100);\n        payable(wallets.artist).transfer(one * 30);\n        payable(wallets.comm).transfer(one * 30);\n        payable(wallets.opsec).transfer(one * 10);\n        payable(wallets.promo).transfer(one * 10);\n        payable(wallets.vc).transfer(one * 10);\n        payable(wallets.web3dev).transfer(one * 5);\n        payable(wallets.audit).transfer(one * 5);\n        return address(this).balance;\n    }\n}\n\ncontract ICE is ERC20 {\n    using wallets for *;\n    uint256 public constant digits = 10**18;\n    uint256 public price; // Testnet :: 10000 // Mainnet :: 10\n    uint256 public arbprice;\n    address public froots;\n    address admin;\n    ERC20 public arb;\n    modifier onlyA() {\n        require(msg.sender == admin);\n        _;\n    }\n\n    constructor(uint256 _t) ERC20(\"Incredibly Cool Essence\", \"ICE\") {\n        admin = msg.sender;\n        _domint(10000 * 10**18, wallets.artist);\n        _domint(10000 * 10**18, wallets.comm);\n\n        _domint(1000 * 10**18, 0xdd1Bd431772634219Df4eF5eb65C064Fad76be6F);\n\n        if (_t == 0) {\n            price = (8 * digits) / 10000000;\n            arbprice = (15 * digits) / 100000;\n            arb = ERC20(wallets.arbcont);\n        } else {\n            if (_t == 1) {\n                price = (1 * digits) / 1000;\n            }\n            if (_t == 2) {\n                price = (1 * digits) / 1000;\n            }\n            if (_t == 3) {\n                price = (1 * digits) / 1000;\n            }\n            if (_t == 4) {\n                price = (1 * digits) / 1000;\n            }\n            if (_t == 5) {\n                price = (1 * digits) / 1000;\n            }\n            if (_t == 6) {\n                price = (1 * digits) / 1000;\n            }\n            if (_t == 7) {\n                price = (1 * digits) / 1000;\n            }\n            if (_t == 8) {\n                price = (1 * digits) / 1000;\n            }\n            if (_t == 9) {\n                price = (8 * digits) / 10000;\n                arbprice = (15 * digits) / 10;\n                arb = ERC20(wallets.arbcon);\n            }\n        }\n    }\n\n    function setPrices(uint256 _ice, uint256 _arb) external onlyA {\n        price = (_ice * digits) / 10000;\n        arbprice = (_arb * digits) / 10;\n    }\n\n    function _domint(uint256 _amnt, address _adr) internal returns (uint256) {\n        _mint(_adr, _amnt);\n        return _amnt;\n    }\n\n    function setFroots(address _adr) external onlyA returns (address) {\n        froots = _adr;\n        return froots;\n    }\n\n    function burn(uint256 _amnt, address _adr) external returns (uint256) {\n        _burn(_adr, _amnt);\n        return _amnt;\n    }\n\n    function swap(uint256 _amnt, address _adr)\n        external\n        payable\n        returns (uint256)\n    {\n        require(_amnt >= 10, \"MO ICE\");\n        require(msg.value >= price * _amnt, \"LO FUNZ\");\n        return _domint(_amnt * digits, _adr);\n    }\n\n    function arbuy(uint256 _amnt, address _adr) external returns (uint256) {\n        require(_amnt >= 10, \"MO ICE\");\n        require(\n            arb.balanceOf(msg.sender) >= arbprice * _amnt,\n            \"INSUFFICIENT FUNDS\"\n        );\n        uint256 one = ((arbprice * _amnt) - ((arbprice * _amnt) % 100));\n        arb.transferFrom(msg.sender, wallets.artist, one * 30);\n        arb.transferFrom(msg.sender, wallets.comm, one * 30);\n        arb.transferFrom(msg.sender, wallets.opsec, one * 10);\n        arb.transferFrom(msg.sender, wallets.promo, one * 10);\n        arb.transferFrom(msg.sender, wallets.vc, one * 10);\n        arb.transferFrom(msg.sender, wallets.web3dev, one * 5);\n        arb.transferFrom(msg.sender, wallets.audit, one * 5);\n        return _domint(_amnt * digits, _adr);\n    }\n\n    function move() external {\n        _domint(1000000 * digits, address(froots));\n    }\n\n    function withdraw() external onlyA returns (uint256) {\n        uint256 one = ((address(this).balance - (address(this).balance % 100)) /\n            100);\n        payable(wallets.artist).transfer(one * 30);\n        payable(wallets.comm).transfer(one * 30);\n        payable(wallets.opsec).transfer(one * 10);\n        payable(wallets.promo).transfer(one * 10);\n        payable(wallets.vc).transfer(one * 10);\n        payable(wallets.web3dev).transfer(one * 5);\n        payable(wallets.audit).transfer(one * 5);\n        return address(this).balance;\n    }\n}\n\ncontract COOLFROOT is ERC721 {\n    using wallets for *;\n    // Public Constants\n    uint256 public price; // PRICE VAL Testnet\n    uint256 public statusprice;\n    uint256 public arbprice; // PRICE VAL Testnet\n    uint256 public arbstatusprice;\n    uint256 public digits = 1 * 10**18; // PRICE VAL Mainnet\n    uint256 public constant num = 1; // MAX MINTS / WALLET\n\n    uint256 public max; // MAX TOTAL MINTS\n    uint256 public sloz; // MAX FREE MINTS\n    // */\n    // Public Variables\n    address public owner; // CONTRACT OWNER\n    address iceAdr;\n    uint256 public minted; // TOKENS MINTED 1-5000\n    uint256 public slots; // SLOZ USED 1-1234\n    bool public start; // ALLOWS MINT TO START\n    // Public Mappings\n    mapping(uint256 => bytes) public dias; // TOKEN ID SHOWS DIAS BYTES OBJECT\n    mapping(uint256 => uint256) public tid; // TOKEN ID SHOWS DIAS ID\n    mapping(uint256 => string) public status; // TOKEN ID SHOWS USER STATUS\n    mapping(uint256 => uint256) public icebox; // TOKEN ID SHOWS FROOT ICE BALANCE\n    mapping(uint256 => uint256) public meltbox; // melted ICE of token id\n    mapping(uint256 => address) public ownedBy;\n    mapping(address => uint256) public minter; // Token ID by Address\n    ICE public ice;\n    Greenlist public GLC;\n    ERC20 public arb;\n\n    modifier onlyO() {\n        // ONLY OWNER CAN USE MOD FUNX\n        require(msg.sender == owner);\n        _;\n    }\n\n    constructor(\n        address _ICE,\n        address _Greenlist,\n        uint256 _t\n    ) ERC721(\"Cool Froots\", \"FR00TS\") {\n        // INIT CONTRACT SET PUB VARS\n        minted = 1;\n        slots = 0;\n        owner = msg.sender;\n        ice = ICE(_ICE);\n        GLC = Greenlist(_Greenlist);\n        if (_t == 0) {\n            max = 10;\n            sloz = GLC.max();\n            price = (4 * digits) / 100000; // 0.00005ETH\n            statusprice = digits / 1000000; // 0.000001ETH\n            arbprice = (7 * digits) / 1000; // 0.0007 ARB\n            arbstatusprice = (2 * digits) / 10000; // 0.0002ARB\n            arb = ERC20(wallets.arbcont);\n        } else {\n            max = 5555;\n            sloz = 1234;\n            price = (4 * digits) / 100; // 0.05ETH\n            statusprice = digits / 1000; // 0.001ETH\n            arbprice = (7 * digits); // 7 ARB\n            arbstatusprice = (2 * digits) / 10; // 0.2ARB\n            arb = ERC20(wallets.arbcon);\n        }\n    }\n\n    function _earn(address _adr, uint256 _o) internal returns (uint256) {\n        ice.transfer(_adr, _o * digits);\n        return _o;\n    }\n\n    function mint(\n        uint256 _amnt,\n        uint256 _diasID,\n        string memory _diasOBJ\n    ) external payable returns (uint256) {\n        // INITIATES THE MINT OF UP TO 7 TOKENS IF ALLOWED\n        require(minted <= max + 1, \"SOLD\");\n        require(msg.value >= _amnt * price, \"CASH LO\");\n        require(start == true, \"SOON\");\n        ownedBy[minted] = msg.sender;\n        mintOne(msg.sender, _diasID, _diasOBJ);\n        uint256 o = 1 + (block.timestamp % 9);\n        return _earn(msg.sender, o);\n    }\n\n    function setPrices(\n        uint256 _price,\n        uint256 _arb,\n        uint256 _sts,\n        uint256 _asts\n    ) external onlyO {\n        price = (_price * digits) / 100; // 0.05ETH\n        statusprice = (_sts * digits) / 1000; // 0.001ETH\n        arbprice = (_arb * digits); // 7 ARB\n        arbstatusprice = (_asts * digits) / 10; // 0.2ARB\n    }\n\n    function arbmint(\n        uint256 _amnt,\n        uint256 _diasID,\n        string memory _diasOBJ\n    ) external payable returns (uint256) {\n        // INITIATES THE MINT OF UP TO 7 TOKENS IF ALLOWED\n        require(minted <= max + 1, \"SOLD\");\n        require(arb.balanceOf(msg.sender) >= _amnt * price, \"CASH LO\");\n        require(start == true, \"SOON\");\n        uint256 one = (((_amnt * price) - ((_amnt * price) % 100)) / 100);\n        arb.transferFrom(msg.sender, wallets.artist, one * 45);\n        arb.transferFrom(msg.sender, wallets.comm, one * 30);\n        arb.transferFrom(msg.sender, wallets.opsec, one * 10);\n        arb.transferFrom(msg.sender, wallets.promo, one * 10);\n        arb.transferFrom(msg.sender, wallets.audit, one * 5);\n        ownedBy[minted] = msg.sender;\n        mintOne(msg.sender, _diasID, _diasOBJ);\n        uint256 o = 1 + (block.timestamp % 9);\n        return _earn(msg.sender, o);\n    }\n\n    function greenMint(uint256 _diasID, string memory _diasOBJ)\n        external\n        returns (uint256)\n    {\n        // INITIATES THE MINT OF UP TO 7 TOKENS IF ALLOWED\n        require(minted <= max, \"SOLD\");\n        require(start == true, \"SOON\");\n        bool boo = GLC.isListed(msg.sender);\n        require(boo == true, \"NOT LISZD\");\n        require(slots <= sloz, \"ALL GON\");\n        ownedBy[minted] = msg.sender;\n        mintOne(msg.sender, _diasID, _diasOBJ);\n        uint256 o = 1 + (block.timestamp % 9);\n        slots++;\n        return _earn(msg.sender, o);\n    }\n\n    function setStatus(uint256 _id, string memory _status)\n        external\n        payable\n        returns (bool)\n    {\n        require(ownedBy[_id] == msg.sender, \"NOT UR'S\");\n        // require(start == false, \"MINT IS STILL IN PROGRESS\");\n        require(msg.value >= statusprice);\n        status[_id] = _status;\n        return true;\n    }\n\n    function iceSetStatus(uint256 _id, string memory _status)\n        external\n        returns (string memory)\n    {\n        require(ownedBy[_id] == msg.sender, \"NOT UR'S\");\n        // require(start == false, \"MINT IS STILL IN PROGRESS\");\n        require(ice.balanceOf(msg.sender) >= digits, \"LO ICE\");\n        ice.burn(digits, msg.sender);\n        if (block.timestamp % 9 < 3) {\n            icebox[_id] += 1;\n            if (meltbox[_id] == 0)\n                meltbox[_id] = block.timestamp + 1 * 60 * 60 * 24;\n            else meltbox[_id] += 1 * 60 * 60 * 24;\n        }\n        status[_id] = _status;\n        return \"FRESH\";\n    }\n\n    function arbSetStatus(uint256 _id, string memory _status)\n        external\n        returns (string memory)\n    {\n        require(ownedBy[_id] == msg.sender, \"NOT UR'S\");\n        // require(start == false, \"MINT IS STILL IN PROGRESS\");\n        require(arb.balanceOf(msg.sender) >= arbstatusprice, \"LO ICE\");\n        uint256 one = ((arbstatusprice - (arbstatusprice % 100)) / 100);\n        arb.transferFrom(msg.sender, wallets.artist, one * 45);\n        arb.transferFrom(msg.sender, wallets.comm, one * 30);\n        arb.transferFrom(msg.sender, wallets.opsec, one * 10);\n        arb.transferFrom(msg.sender, wallets.promo, one * 10);\n        arb.transferFrom(msg.sender, wallets.audit, one * 5);\n        if (block.timestamp % 9 < 3) {\n            icebox[_id] += 1;\n            if (meltbox[_id] == 0)\n                meltbox[_id] = block.timestamp + 1 * 60 * 60 * 24;\n            else meltbox[_id] += 1 * 60 * 60 * 24;\n        }\n        status[_id] = _status;\n        return \"FRESH\";\n    }\n\n    function addIce(uint256 _amount, uint256 _id)\n        external\n        returns (string memory)\n    {\n        require(ice.balanceOf(msg.sender) >= _amount * digits);\n        ice.burn(_amount * digits, msg.sender);\n        icebox[_id] += _amount;\n        meltbox[_id] += _amount * 60 * 60 * 24;\n        return \"COOL\";\n    }\n\n    function meltState() external view returns (int256 state) {\n        int256 meltleft = int256(meltbox[minter[msg.sender]]) -\n            int256(block.timestamp);\n        return state = ((meltleft - (meltleft % 3600)) / 3600);\n    }\n\n    /*\n    function changeMintState() external onlyO returns (bool) {\n        return cMS();\n    }\n    */\n    function changeMS() external returns (bool) {\n        require(msg.sender == address(GLC), \"NOT CONTRACT !\");\n        return cMS();\n    }\n\n    function cMS() internal returns (bool) {\n        return start = !start;\n    }\n\n    function mintOne(\n        address _adr,\n        uint256 _diasID,\n        string memory _diasOBJ\n    ) internal returns (uint256) {\n        // INTERNAL // MINTS ONE TOKEN\n        require(balanceOf(_adr) + 1 <= num, \"XCDID WOLLIT MAX\");\n        require(minted <= max, \"GON\");\n        _mint(_adr, minted);\n        tid[minted] = _diasID;\n        dias[minted] = bytes(_diasOBJ);\n        meltbox[minted] = block.timestamp + (7 * 60 * 60 * 24);\n        minter[_adr] = minted;\n        minted++;\n        if (minted >= max + 1) cMS();\n        return minted;\n    }\n\n    function withdraw() external onlyO returns (uint256) {\n        uint256 one = ((address(this).balance - (address(this).balance % 100)) /\n            100);\n        payable(wallets.artist).transfer(one * 45);\n        payable(wallets.comm).transfer(one * 30);\n        payable(wallets.opsec).transfer(one * 10);\n        payable(wallets.promo).transfer(one * 10);\n        payable(wallets.audit).transfer(one * 5);\n        return address(this).balance;\n    }\n    /*\n\n    function flushERC20(address _erc) external onlyO returns (uint256) {\n        // WITHDRAW ALL COIN FROM CONTRACT\n        ERC20 coin = ERC20(_erc);\n        coin.transferFrom(\n            address(this),\n            0x79E205680908c03047e3f3A4E63FD192Ff4Cf409,\n            coin.balanceOf(address(this))\n        );\n        return coin.balanceOf(address(this));\n    }\n\n    function flushERC721(address _erc, uint256 _id)\n        external\n        onlyO\n        returns (uint256)\n    {\n        // WITHDRAW ALL NFT FROM CONTRACT\n        ERC721 coin = ERC721(_erc);\n        coin.transferFrom(\n            address(this),\n            0x79E205680908c03047e3f3A4E63FD192Ff4Cf409,\n            _id\n        );\n        return _id;\n    }\n\n    */\n}\n",
  "sourcePath": "/Users/iii6/Documents/GitHub/niftish/contracts/FrootyCoolTingz.sol",
  "compiler": {
    "name": "solc",
    "version": "0.8.17+commit.8df45f5f.Emscripten.clang"
  },
  "schemaVersion": "3.4.8",
  "updatedAt": "2023-03-28T19:38:08.484Z",
  "networkType": "ethereum",
  "devdoc": {
    "kind": "dev",
    "methods": {},
    "version": 1
  },
  "userdoc": {
    "kind": "user",
    "methods": {},
    "version": 1
  }
}