{
  "contractName": "GreenUpdate",
  "abi": [
    {
      "inputs": [
        {
          "internalType": "address",
          "name": "_gl",
          "type": "address"
        }
      ],
      "stateMutability": "nonpayable",
      "type": "constructor"
    },
    {
      "inputs": [],
      "name": "counter",
      "outputs": [
        {
          "internalType": "uint256",
          "name": "",
          "type": "uint256"
        }
      ],
      "stateMutability": "view",
      "type": "function"
    },
    {
      "inputs": [],
      "name": "gl",
      "outputs": [
        {
          "internalType": "contract Greenlist",
          "name": "",
          "type": "address"
        }
      ],
      "stateMutability": "view",
      "type": "function"
    },
    {
      "inputs": [],
      "name": "interval",
      "outputs": [
        {
          "internalType": "uint256",
          "name": "",
          "type": "uint256"
        }
      ],
      "stateMutability": "view",
      "type": "function"
    },
    {
      "inputs": [],
      "name": "lastTimeStamp",
      "outputs": [
        {
          "internalType": "uint256",
          "name": "",
          "type": "uint256"
        }
      ],
      "stateMutability": "view",
      "type": "function"
    },
    {
      "inputs": [
        {
          "internalType": "bytes",
          "name": "checkData",
          "type": "bytes"
        }
      ],
      "name": "checkUpkeep",
      "outputs": [
        {
          "internalType": "bool",
          "name": "upkeepNeeded",
          "type": "bool"
        },
        {
          "internalType": "bytes",
          "name": "performData",
          "type": "bytes"
        }
      ],
      "stateMutability": "view",
      "type": "function"
    },
    {
      "inputs": [
        {
          "internalType": "bytes",
          "name": "",
          "type": "bytes"
        }
      ],
      "name": "performUpkeep",
      "outputs": [],
      "stateMutability": "nonpayable",
      "type": "function"
    }
  ],
  "bytecode": "0x60a060405234801561001057600080fd5b50604051610f27380380610f27833981810160405281019061003291906100f4565b61012c60808181525050426003819055506000808190555080600260006101000a81548173ffffffffffffffffffffffffffffffffffffffff021916908373ffffffffffffffffffffffffffffffffffffffff16021790555050610121565b600080fd5b600073ffffffffffffffffffffffffffffffffffffffff82169050919050565b60006100c182610096565b9050919050565b6100d1816100b6565b81146100dc57600080fd5b50565b6000815190506100ee816100c8565b92915050565b60006020828403121561010a57610109610091565b5b6000610118848285016100df565b91505092915050565b608051610ddd61014a600039600081816101ce0152818161044901526105230152610ddd6000f3fe608060405234801561001057600080fd5b50600436106100625760003560e01c80633f3b3b27146100675780634585e33b1461008557806361bc221a146100a15780636e04ff0d146100bf578063947a36fb146100f0578063a77a39491461010e575b600080fd5b61006f61012c565b60405161007c9190610584565b60405180910390f35b61009f600480360381019061009a9190610618565b610132565b005b6100a96103a3565b6040516100b69190610584565b60405180910390f35b6100d960048036038101906100d49190610618565b6103a9565b6040516100e7929190610710565b60405180910390f35b6100f8610521565b6040516101059190610584565b60405180910390f35b610116610545565b60405161012391906107bf565b60405180910390f35b60035481565b6000600260009054906101000a900473ffffffffffffffffffffffffffffffffffffffff1673ffffffffffffffffffffffffffffffffffffffff1663e21f37ce6040518163ffffffff1660e01b8152600401600060405180830381865afa1580156101a1573d6000803e3d6000fd5b505050506040513d6000823e3d601f19601f820116820180604052508101906101ca91906108fb565b90507f0000000000000000000000000000000000000000000000000000000000000000600354426101fb9190610973565b11801561025557508060405160200161021491906109ee565b60405160208183030381529060405280519060200120600160405160200161023c9190610afd565b6040516020818303038152906040528051906020012014155b1561039e574260038190555060016000546102709190610b14565b600081905550600260009054906101000a900473ffffffffffffffffffffffffffffffffffffffff1673ffffffffffffffffffffffffffffffffffffffff166355e26af36040518163ffffffff1660e01b8152600401600060405180830381600087803b1580156102e057600080fd5b505af11580156102f4573d6000803e3d6000fd5b50505050600260009054906101000a900473ffffffffffffffffffffffffffffffffffffffff1673ffffffffffffffffffffffffffffffffffffffff1663e21f37ce6040518163ffffffff1660e01b8152600401600060405180830381865afa158015610365573d6000803e3d6000fd5b505050506040513d6000823e3d601f19601f8201168201806040525081019061038e91906108fb565b6001908161039c9190610cd5565b505b505050565b60005481565b600060606000600260009054906101000a900473ffffffffffffffffffffffffffffffffffffffff1673ffffffffffffffffffffffffffffffffffffffff1663e21f37ce6040518163ffffffff1660e01b8152600401600060405180830381865afa15801561041c573d6000803e3d6000fd5b505050506040513d6000823e3d601f19601f8201168201806040525081019061044591906108fb565b90507f0000000000000000000000000000000000000000000000000000000000000000600354426104769190610973565b1180156104d057508060405160200161048f91906109ee565b6040516020818303038152906040528051906020012060016040516020016104b79190610afd565b6040516020818303038152906040528051906020012014155b925084848080601f016020809104026020016040519081016040528093929190818152602001838380828437600081840152601f19601f820116905080830192505050505050509150509250929050565b7f000000000000000000000000000000000000000000000000000000000000000081565b600260009054906101000a900473ffffffffffffffffffffffffffffffffffffffff1681565b6000819050919050565b61057e8161056b565b82525050565b60006020820190506105996000830184610575565b92915050565b6000604051905090565b600080fd5b600080fd5b600080fd5b600080fd5b600080fd5b60008083601f8401126105d8576105d76105b3565b5b8235905067ffffffffffffffff8111156105f5576105f46105b8565b5b602083019150836001820283011115610611576106106105bd565b5b9250929050565b6000806020838503121561062f5761062e6105a9565b5b600083013567ffffffffffffffff81111561064d5761064c6105ae565b5b610659858286016105c2565b92509250509250929050565b60008115159050919050565b61067a81610665565b82525050565b600081519050919050565b600082825260208201905092915050565b60005b838110156106ba57808201518184015260208101905061069f565b60008484015250505050565b6000601f19601f8301169050919050565b60006106e282610680565b6106ec818561068b565b93506106fc81856020860161069c565b610705816106c6565b840191505092915050565b60006040820190506107256000830185610671565b818103602083015261073781846106d7565b90509392505050565b600073ffffffffffffffffffffffffffffffffffffffff82169050919050565b6000819050919050565b600061078561078061077b84610740565b610760565b610740565b9050919050565b60006107978261076a565b9050919050565b60006107a98261078c565b9050919050565b6107b98161079e565b82525050565b60006020820190506107d460008301846107b0565b92915050565b600080fd5b7f4e487b7100000000000000000000000000000000000000000000000000000000600052604160045260246000fd5b610817826106c6565b810181811067ffffffffffffffff82111715610836576108356107df565b5b80604052505050565b600061084961059f565b9050610855828261080e565b919050565b600067ffffffffffffffff821115610875576108746107df565b5b61087e826106c6565b9050602081019050919050565b600061089e6108998461085a565b61083f565b9050828152602081018484840111156108ba576108b96107da565b5b6108c584828561069c565b509392505050565b600082601f8301126108e2576108e16105b3565b5b81516108f284826020860161088b565b91505092915050565b600060208284031215610911576109106105a9565b5b600082015167ffffffffffffffff81111561092f5761092e6105ae565b5b61093b848285016108cd565b91505092915050565b7f4e487b7100000000000000000000000000000000000000000000000000000000600052601160045260246000fd5b600061097e8261056b565b91506109898361056b565b92508282039050818111156109a1576109a0610944565b5b92915050565b600081519050919050565b600081905092915050565b60006109c8826109a7565b6109d281856109b2565b93506109e281856020860161069c565b80840191505092915050565b60006109fa82846109bd565b915081905092915050565b7f4e487b7100000000000000000000000000000000000000000000000000000000600052602260045260246000fd5b60006002820490506001821680610a4c57607f821691505b602082108103610a5f57610a5e610a05565b5b50919050565b60008190508160005260206000209050919050565b60008154610a8781610a34565b610a9181866109b2565b94506001821660008114610aac5760018114610ac157610af4565b60ff1983168652811515820286019350610af4565b610aca85610a65565b60005b83811015610aec57815481890152600182019150602081019050610acd565b838801955050505b50505092915050565b6000610b098284610a7a565b915081905092915050565b6000610b1f8261056b565b9150610b2a8361056b565b9250828201905080821115610b4257610b41610944565b5b92915050565b60006020601f8301049050919050565b600082821b905092915050565b600060088302610b957fffffffffffffffffffffffffffffffffffffffffffffffffffffffffffffffff82610b58565b610b9f8683610b58565b95508019841693508086168417925050509392505050565b6000610bd2610bcd610bc88461056b565b610760565b61056b565b9050919050565b6000819050919050565b610bec83610bb7565b610c00610bf882610bd9565b848454610b65565b825550505050565b600090565b610c15610c08565b610c20818484610be3565b505050565b5b81811015610c4457610c39600082610c0d565b600181019050610c26565b5050565b601f821115610c8957610c5a81610a65565b610c6384610b48565b81016020851015610c72578190505b610c86610c7e85610b48565b830182610c25565b50505b505050565b600082821c905092915050565b6000610cac60001984600802610c8e565b1980831691505092915050565b6000610cc58383610c9b565b9150826002028217905092915050565b610cde826109a7565b67ffffffffffffffff811115610cf757610cf66107df565b5b610d018254610a34565b610d0c828285610c48565b600060209050601f831160018114610d3f5760008415610d2d578287015190505b610d378582610cb9565b865550610d9f565b601f198416610d4d86610a65565b60005b82811015610d7557848901518255600182019150602085019450602081019050610d50565b86831015610d925784890151610d8e601f891682610c9b565b8355505b6001600288020188555050505b50505050505056fea2646970667358221220433a99cf0862e6522de1bafcac074829ea49d9f39a5c9f6d64d3bf6dc44d94e564736f6c63430008110033",
  "immutableReferences": {
    "3702": [
      {
        "length": 32,
        "start": 462
      },
      {
        "length": 32,
        "start": 1097
      },
      {
        "length": 32,
        "start": 1315
      }
    ]
  },
  "source": "// SPDX-License-Identifier: MIT\npragma solidity >=0.7.0 <0.9.0;\n\nimport \"@chainlink/contracts/src/v0.8/AutomationCompatible.sol\";\nimport {COOLFROOT, Greenlist} from \"./FrootyCoolTingz.sol\";\n\nerror NotOwner(address user);\nerror NoChange(uint256 id);\nerror NotYet(uint256 time);\n\ncontract FrootsUpdate is AutomationCompatible {\n    uint256 l;\n\n    mapping(uint256 => address) public count;\n    mapping(address => uint256) private statecount;\n    mapping(address => mapping(uint256 => State)) private statelist;\n    COOLFROOT public froots;\n    uint256 u;\n\n    uint256 public immutable interval;\n    uint256 public lastTimeStamp;\n\n    struct State {\n        address owner;\n        uint256 tokenId;\n        uint256 diasID;\n        string status;\n        uint256 likes;\n        uint256 time;\n        uint256 budget;\n        uint256 interval;\n    }\n\n    constructor(address _froots) {\n        l=0;\n        froots = COOLFROOT(_froots);\n        interval = 60;\n        lastTimeStamp = block.timestamp;\n    }\n\n    function checkUpkeep(\n        bytes calldata checkData\n    )\n        external\n        view\n        override\n        returns (\n            bool upkeepNeeded  ,\n             bytes memory  performData \n        )\n    {\n        upkeepNeeded = (block.timestamp - lastTimeStamp) > interval;\n        // We don't use the checkData in this example. The checkData is defined when the Upkeep was registered.\n        performData = checkData;\n    }\n\n    function performUpkeep(\n        bytes calldata /* performData */\n    ) external override {\n        //We highly recommend revalidating the upkeep in the performUpkeep function\n        if ((block.timestamp - lastTimeStamp) > interval) {\n            lastTimeStamp = block.timestamp;\n            // action here\n            _doUpkeep();\n        }\n        // We don't use the performData in this example. The performData is generated by the Automation Node's call to your checkUpkeep function\n    }\n\n    function setUpKeep(uint256 _budget, uint256 _interval)\n        external\n        returns (State memory)\n    {\n        uint256 tokenID = froots.minter(msg.sender);\n        if (tokenID <= 0) revert NotOwner(msg.sender);\n        uint256 diasID = froots.tid(tokenID);\n        string memory statusNow = froots.status(tokenID);\n        State memory state = State(\n            msg.sender,\n            tokenID,\n            diasID,\n            statusNow,\n            0,\n            block.timestamp,\n            _budget,\n            _interval\n        );\n        count[u] = msg.sender;\n        statecount[msg.sender] = 0;\n        statelist[msg.sender][statecount[msg.sender]] = state;\n        statecount[msg.sender]++;\n        u++;\n        \n        return state;\n    }\n    function _doUpkeep() internal {\n        for (uint256 i=0; i <= u; i++) {\n            // each user\n            address user = count[u];\n            uint256 c = statecount[user];\n            uint256 tokenID = froots.minter(user);\n            uint256 diasID = froots.tid(tokenID);\n            string memory statusNow = froots.status(tokenID);\n            uint256 unterval = interval * statelist[user][c - 1].interval;\n            uint256 laststamp = statelist[user][c - 1].time;\n            if (\n                keccak256(abi.encodePacked(statusNow)) !=\n                keccak256(abi.encodePacked(statelist[count[u]][c - 1].status))\n            ) {\n            if (laststamp + unterval <= block.timestamp) {\n                    \n                    State memory state = State(\n                        count[u],\n                        tokenID,\n                        diasID,\n                        statusNow,\n                        0,\n                        block.timestamp,\n                        statelist[count[u]][c - 1].budget--,\n                        statelist[count[u]][c - 1].interval\n                    );\n                    statelist[count[u]][c] = state;\n                    statecount[count[u]]++;\n                \n                } else revert NotYet(laststamp + unterval);\n            } else revert NoChange(diasID); \n                \n        }\n        l++; \n    }\n    function doUpdate() external {\n        _doUpkeep();\n    }\n    function getStateCount(address _adr, uint256 _state)\n        external\n        view\n        returns (State memory)\n    {\n        return statelist[_adr][_state];\n    }\n}\n\n\ncontract GreenUpdate is AutomationCompatibleInterface {\n\n    uint public counter;\n    string message;\n    Greenlist public gl;\n    uint public immutable interval;\n    uint public lastTimeStamp;\n\n    constructor(address _gl) {\n        interval = 60 * 5;\n        lastTimeStamp = block.timestamp;\n        counter = 0;\n        gl = Greenlist(_gl);\n        // \n    }\n\n    function checkUpkeep(\n        bytes calldata checkData\n    )\n        external\n        view\n        override\n        returns (bool upkeepNeeded, bytes memory performData)\n    {\n        string memory nu = gl.message();\n        upkeepNeeded = (block.timestamp - lastTimeStamp) > interval && keccak256(abi.encodePacked(message)) != keccak256(abi.encodePacked(nu));\n        // We don't use the checkData in this example. The checkData is defined when the Upkeep was registered.\n        performData = checkData;\n    }\n\n    function performUpkeep(bytes calldata /* performData */) external override {\n        //We highly recommend revalidating the upkeep in the performUpkeep function\n        string memory nu = gl.message();\n        if ((block.timestamp - lastTimeStamp) > interval && keccak256(abi.encodePacked(message)) != keccak256(abi.encodePacked(nu)) ) {\n            lastTimeStamp = block.timestamp;\n            counter = counter + 1;\n            gl.saveState();\n            message = gl.message();\n        }\n        // We don't use the performData in this example. The performData is generated by the Automation Node's call to your checkUpkeep function\n    }\n}\n\n\n\n",
  "sourcePath": "/Users/iii6/Documents/GitHub/niftish/contracts/FrootsUpdates.sol",
  "compiler": {
    "name": "solc",
    "version": "0.8.17+commit.8df45f5f.Emscripten.clang"
  },
  "schemaVersion": "3.4.8",
  "updatedAt": "2023-03-30T23:48:19.688Z",
  "devdoc": {
    "kind": "dev",
    "methods": {
      "checkUpkeep(bytes)": {
        "details": "To ensure that it is never called, you may want to add the cannotExecute modifier from KeeperBase to your implementation of this method.",
        "params": {
          "checkData": "specified in the upkeep registration so it is always the same for a registered upkeep. This can easily be broken down into specific arguments using `abi.decode`, so multiple upkeeps can be registered on the same contract and easily differentiated by the contract."
        },
        "returns": {
          "performData": "bytes that the keeper should call performUpkeep with, if upkeep is needed. If you would like to encode data to decode later, try `abi.encode`.",
          "upkeepNeeded": "boolean to indicate whether the keeper should call performUpkeep or not."
        }
      }
    },
    "version": 1
  },
  "userdoc": {
    "kind": "user",
    "methods": {
      "checkUpkeep(bytes)": {
        "notice": "method that is simulated by the keepers to see if any work actually needs to be performed. This method does does not actually need to be executable, and since it is only ever simulated it can consume lots of gas."
      }
    },
    "version": 1
  }
}