{
  "contractName": "Greenlist",
  "abi": [
    {
      "inputs": [
        {
          "internalType": "uint256",
          "name": "_t",
          "type": "uint256"
        }
      ],
      "stateMutability": "nonpayable",
      "type": "constructor"
    },
    {
      "inputs": [],
      "name": "FCT",
      "outputs": [
        {
          "internalType": "contract COOLFROOT",
          "name": "",
          "type": "address"
        }
      ],
      "stateMutability": "view",
      "type": "function",
      "constant": true
    },
    {
      "inputs": [],
      "name": "admin",
      "outputs": [
        {
          "internalType": "address",
          "name": "",
          "type": "address"
        }
      ],
      "stateMutability": "view",
      "type": "function",
      "constant": true
    },
    {
      "inputs": [],
      "name": "arb",
      "outputs": [
        {
          "internalType": "contract ERC20",
          "name": "",
          "type": "address"
        }
      ],
      "stateMutability": "view",
      "type": "function",
      "constant": true
    },
    {
      "inputs": [],
      "name": "arbprice",
      "outputs": [
        {
          "internalType": "uint256",
          "name": "",
          "type": "uint256"
        }
      ],
      "stateMutability": "view",
      "type": "function",
      "constant": true
    },
    {
      "inputs": [
        {
          "internalType": "address",
          "name": "",
          "type": "address"
        }
      ],
      "name": "isListed",
      "outputs": [
        {
          "internalType": "bool",
          "name": "",
          "type": "bool"
        }
      ],
      "stateMutability": "view",
      "type": "function",
      "constant": true
    },
    {
      "inputs": [],
      "name": "l",
      "outputs": [
        {
          "internalType": "uint256",
          "name": "",
          "type": "uint256"
        }
      ],
      "stateMutability": "view",
      "type": "function",
      "constant": true
    },
    {
      "inputs": [],
      "name": "max",
      "outputs": [
        {
          "internalType": "uint256",
          "name": "",
          "type": "uint256"
        }
      ],
      "stateMutability": "view",
      "type": "function",
      "constant": true
    },
    {
      "inputs": [],
      "name": "message",
      "outputs": [
        {
          "internalType": "string",
          "name": "",
          "type": "string"
        }
      ],
      "stateMutability": "view",
      "type": "function",
      "constant": true
    },
    {
      "inputs": [],
      "name": "msgprice",
      "outputs": [
        {
          "internalType": "uint256",
          "name": "",
          "type": "uint256"
        }
      ],
      "stateMutability": "view",
      "type": "function",
      "constant": true
    },
    {
      "inputs": [],
      "name": "stamp",
      "outputs": [
        {
          "internalType": "uint256",
          "name": "",
          "type": "uint256"
        }
      ],
      "stateMutability": "view",
      "type": "function",
      "constant": true
    },
    {
      "inputs": [
        {
          "internalType": "uint256",
          "name": "",
          "type": "uint256"
        }
      ],
      "name": "users",
      "outputs": [
        {
          "internalType": "address",
          "name": "",
          "type": "address"
        }
      ],
      "stateMutability": "view",
      "type": "function",
      "constant": true
    },
    {
      "inputs": [
        {
          "internalType": "address",
          "name": "_fct",
          "type": "address"
        }
      ],
      "name": "setFCT",
      "outputs": [
        {
          "internalType": "bool",
          "name": "",
          "type": "bool"
        }
      ],
      "stateMutability": "nonpayable",
      "type": "function"
    },
    {
      "inputs": [
        {
          "internalType": "address",
          "name": "_arb",
          "type": "address"
        }
      ],
      "name": "setARB",
      "outputs": [],
      "stateMutability": "nonpayable",
      "type": "function"
    },
    {
      "inputs": [],
      "name": "getListed",
      "outputs": [
        {
          "internalType": "bool",
          "name": "",
          "type": "bool"
        }
      ],
      "stateMutability": "nonpayable",
      "type": "function"
    },
    {
      "inputs": [
        {
          "internalType": "address",
          "name": "_adr",
          "type": "address"
        }
      ],
      "name": "makeListing",
      "outputs": [
        {
          "internalType": "bool",
          "name": "",
          "type": "bool"
        }
      ],
      "stateMutability": "nonpayable",
      "type": "function"
    },
    {
      "inputs": [],
      "name": "showUsers",
      "outputs": [
        {
          "internalType": "address[1234]",
          "name": "",
          "type": "address[1234]"
        }
      ],
      "stateMutability": "view",
      "type": "function",
      "constant": true
    },
    {
      "inputs": [
        {
          "internalType": "string",
          "name": "_msg",
          "type": "string"
        }
      ],
      "name": "setMsg",
      "outputs": [
        {
          "internalType": "bool",
          "name": "",
          "type": "bool"
        }
      ],
      "stateMutability": "payable",
      "type": "function",
      "payable": true
    },
    {
      "inputs": [
        {
          "internalType": "string",
          "name": "_msg",
          "type": "string"
        }
      ],
      "name": "setArbMsg",
      "outputs": [
        {
          "internalType": "bool",
          "name": "",
          "type": "bool"
        }
      ],
      "stateMutability": "nonpayable",
      "type": "function"
    },
    {
      "inputs": [
        {
          "internalType": "string",
          "name": "_msg",
          "type": "string"
        }
      ],
      "name": "setMsgAdmin",
      "outputs": [
        {
          "internalType": "bool",
          "name": "",
          "type": "bool"
        }
      ],
      "stateMutability": "nonpayable",
      "type": "function"
    },
    {
      "inputs": [],
      "name": "showMsg",
      "outputs": [
        {
          "internalType": "string",
          "name": "",
          "type": "string"
        }
      ],
      "stateMutability": "view",
      "type": "function",
      "constant": true
    },
    {
      "inputs": [],
      "name": "withdraw",
      "outputs": [
        {
          "internalType": "uint256",
          "name": "",
          "type": "uint256"
        }
      ],
      "stateMutability": "nonpayable",
      "type": "function"
    }
  ],
  "bytecode": "0x60806040523480156200001157600080fd5b5060405162002cec38038062002cec83398181016040528101906200003791906200058b565b336000806101000a81548173ffffffffffffffffffffffffffffffffffffffff021916908373ffffffffffffffffffffffffffffffffffffffff16021790555060008103620000ef5760006001819055506005600281905550620f4240670de0b6b3a76400006004620000ab9190620005ec565b620000b7919062000666565b600581905550612710670de0b6b3a76400006008620000d79190620005ec565b620000e3919062000666565b60068190555062000209565b6001600960003373ffffffffffffffffffffffffffffffffffffffff1673ffffffffffffffffffffffffffffffffffffffff16815260200190815260200160002060006101000a81548160ff02191690831515021790555033600a60006104d281106200016157620001606200069e565b5b0160006101000a81548173ffffffffffffffffffffffffffffffffffffffff021916908373ffffffffffffffffffffffffffffffffffffffff16021790555060006001819055506104d26002819055506103e8670de0b6b3a76400006004620001cb9190620005ec565b620001d7919062000666565b600581905550600a670de0b6b3a76400006008620001f69190620005ec565b62000202919062000666565b6006819055505b6200022e73dd1bd431772634219df4ef5eb65c064fad76be6f6200027d60201b60201c565b506040518060400160405280601681526020017f47455420552053554d202346524f4f54204e4f57202100000000000000000000815250600390816200027591906200093d565b505062000b63565b60008160001515600960008373ffffffffffffffffffffffffffffffffffffffff1673ffffffffffffffffffffffffffffffffffffffff16815260200190815260200160002060009054906101000a900460ff1615151462000316576040517f08c379a00000000000000000000000000000000000000000000000000000000081526004016200030d9062000a85565b60405180910390fd5b60008054906101000a900473ffffffffffffffffffffffffffffffffffffffff1673ffffffffffffffffffffffffffffffffffffffff163373ffffffffffffffffffffffffffffffffffffffff16146200036f57600080fd5b6001600960008573ffffffffffffffffffffffffffffffffffffffff1673ffffffffffffffffffffffffffffffffffffffff16815260200190815260200160002060006101000a81548160ff02191690831515021790555082600a6001546104d28110620003e257620003e16200069e565b5b0160006101000a81548173ffffffffffffffffffffffffffffffffffffffff021916908373ffffffffffffffffffffffffffffffffffffffff16021790555060016000815480929190620004369062000aa7565b919050555060025460015403620004595762000457620004ae60201b60201c565b505b600960008473ffffffffffffffffffffffffffffffffffffffff1673ffffffffffffffffffffffffffffffffffffffff16815260200190815260200160002060009054906101000a900460ff16915050919050565b6000600860009054906101000a900473ffffffffffffffffffffffffffffffffffffffff1673ffffffffffffffffffffffffffffffffffffffff16633b8d676f6040518163ffffffff1660e01b81526004016020604051808303816000875af115801562000520573d6000803e3d6000fd5b505050506040513d601f19601f8201168201806040525081019062000546919062000b31565b905090565b600080fd5b6000819050919050565b620005658162000550565b81146200057157600080fd5b50565b60008151905062000585816200055a565b92915050565b600060208284031215620005a457620005a36200054b565b5b6000620005b48482850162000574565b91505092915050565b7f4e487b7100000000000000000000000000000000000000000000000000000000600052601160045260246000fd5b6000620005f98262000550565b9150620006068362000550565b9250828202620006168162000550565b9150828204841483151762000630576200062f620005bd565b5b5092915050565b7f4e487b7100000000000000000000000000000000000000000000000000000000600052601260045260246000fd5b6000620006738262000550565b9150620006808362000550565b92508262000693576200069262000637565b5b828204905092915050565b7f4e487b7100000000000000000000000000000000000000000000000000000000600052603260045260246000fd5b600081519050919050565b7f4e487b7100000000000000000000000000000000000000000000000000000000600052604160045260246000fd5b7f4e487b7100000000000000000000000000000000000000000000000000000000600052602260045260246000fd5b600060028204905060018216806200074f57607f821691505b60208210810362000765576200076462000707565b5b50919050565b60008190508160005260206000209050919050565b60006020601f8301049050919050565b600082821b905092915050565b600060088302620007cf7fffffffffffffffffffffffffffffffffffffffffffffffffffffffffffffffff8262000790565b620007db868362000790565b95508019841693508086168417925050509392505050565b6000819050919050565b60006200081e62000818620008128462000550565b620007f3565b62000550565b9050919050565b6000819050919050565b6200083a83620007fd565b62000852620008498262000825565b8484546200079d565b825550505050565b600090565b620008696200085a565b620008768184846200082f565b505050565b5b818110156200089e57620008926000826200085f565b6001810190506200087c565b5050565b601f821115620008ed57620008b7816200076b565b620008c28462000780565b81016020851015620008d2578190505b620008ea620008e18562000780565b8301826200087b565b50505b505050565b600082821c905092915050565b60006200091260001984600802620008f2565b1980831691505092915050565b60006200092d8383620008ff565b9150826002028217905092915050565b6200094882620006cd565b67ffffffffffffffff811115620009645762000963620006d8565b5b62000970825462000736565b6200097d828285620008a2565b600060209050601f831160018114620009b55760008415620009a0578287015190505b620009ac85826200091f565b86555062000a1c565b601f198416620009c5866200076b565b60005b82811015620009ef57848901518255600182019150602085019450602081019050620009c8565b8683101562000a0f578489015162000a0b601f891682620008ff565b8355505b6001600288020188555050505b505050505050565b600082825260208201905092915050565b7f616c7265616479206c6973746564000000000000000000000000000000000000600082015250565b600062000a6d600e8362000a24565b915062000a7a8262000a35565b602082019050919050565b6000602082019050818103600083015262000aa08162000a5e565b9050919050565b600062000ab48262000550565b91507fffffffffffffffffffffffffffffffffffffffffffffffffffffffffffffffff820362000ae95762000ae8620005bd565b5b600182019050919050565b60008115159050919050565b62000b0b8162000af4565b811462000b1757600080fd5b50565b60008151905062000b2b8162000b00565b92915050565b60006020828403121562000b4a5762000b496200054b565b5b600062000b5a8482850162000b1a565b91505092915050565b6121798062000b736000396000f3fe60806040526004361061012a5760003560e01c806385dbc0c5116100ab578063cc87ec5f1161006f578063cc87ec5f146103ff578063e21f37ce1461043c578063e3c44ff714610467578063ece866b914610492578063f794062e146104bd578063f851a440146104fa5761012a565b806385dbc0c514610323578063a42ca24e1461034e578063acb5fedf14610379578063c4784fd4146103a4578063c85e07b9146103d45761012a565b8063365b98b2116100f2578063365b98b21461023c5780633ccfd60b146102795780636ac5db19146102a457806377b3cc9a146102cf5780637cbca3e0146102fa5761012a565b8063161dbc141461012f578063161dd1381461016c5780632a0c74d4146101a9578063329dd364146101d4578063359e0bd1146101ff575b600080fd5b34801561013b57600080fd5b50610156600480360381019061015191906115c0565b610525565b6040516101639190611624565b60405180910390f35b34801561017857600080fd5b50610193600480360381019061018e91906115c0565b6105a0565b6040516101a09190611624565b60405180910390f35b3480156101b557600080fd5b506101be6108a6565b6040516101cb91906116be565b60405180910390f35b3480156101e057600080fd5b506101e9610938565b6040516101f691906117be565b60405180910390f35b34801561020b57600080fd5b5061022660048036038101906102219190611806565b6109bb565b6040516102339190611624565b60405180910390f35b34801561024857600080fd5b50610263600480360381019061025e9190611869565b610a60565b60405161027091906118a5565b60405180910390f35b34801561028557600080fd5b5061028e610a97565b60405161029b91906118cf565b60405180910390f35b3480156102b057600080fd5b506102b9610bee565b6040516102c691906118cf565b60405180910390f35b3480156102db57600080fd5b506102e4610bf4565b6040516102f19190611624565b60405180910390f35b34801561030657600080fd5b50610321600480360381019061031c9190611806565b610dff565b005b34801561032f57600080fd5b50610338610e9b565b6040516103459190611949565b60405180910390f35b34801561035a57600080fd5b50610363610ec1565b60405161037091906118cf565b60405180910390f35b34801561038557600080fd5b5061038e610ec7565b60405161039b9190611985565b60405180910390f35b6103be60048036038101906103b991906115c0565b610eed565b6040516103cb9190611624565b60405180910390f35b3480156103e057600080fd5b506103e9610fa6565b6040516103f691906118cf565b60405180910390f35b34801561040b57600080fd5b5061042660048036038101906104219190611806565b610fac565b6040516104339190611624565b60405180910390f35b34801561044857600080fd5b506104516110ab565b60405161045e91906116be565b60405180910390f35b34801561047357600080fd5b5061047c611139565b60405161048991906118cf565b60405180910390f35b34801561049e57600080fd5b506104a761113f565b6040516104b491906118cf565b60405180910390f35b3480156104c957600080fd5b506104e460048036038101906104df9190611806565b611145565b6040516104f19190611624565b60405180910390f35b34801561050657600080fd5b5061050f611165565b60405161051c91906118a5565b60405180910390f35b60008060009054906101000a900473ffffffffffffffffffffffffffffffffffffffff1673ffffffffffffffffffffffffffffffffffffffff163373ffffffffffffffffffffffffffffffffffffffff161461058057600080fd5b816003908161058f9190611ba2565b504260048190555060019050919050565b6000600654600760009054906101000a900473ffffffffffffffffffffffffffffffffffffffff1673ffffffffffffffffffffffffffffffffffffffff166370a08231336040518263ffffffff1660e01b815260040161060091906118a5565b602060405180830381865afa15801561061d573d6000803e3d6000fd5b505050506040513d601f19601f820116820180604052508101906106419190611c89565b1015610682576040517f08c379a000000000000000000000000000000000000000000000000000000000815260040161067990611d02565b60405180910390fd5b60006064806006546106949190611d51565b6006546106a19190611db1565b6106ab9190611de5565b9050600760009054906101000a900473ffffffffffffffffffffffffffffffffffffffff1673ffffffffffffffffffffffffffffffffffffffff166323b872dd337379e205680908c03047e3f3a4e63fd192ff4cf409605a8561070e9190611e16565b6040518463ffffffff1660e01b815260040161072c93929190611e58565b6020604051808303816000875af115801561074b573d6000803e3d6000fd5b505050506040513d601f19601f8201168201806040525081019061076f9190611ebb565b50600760009054906101000a900473ffffffffffffffffffffffffffffffffffffffff1673ffffffffffffffffffffffffffffffffffffffff166323b872dd3373b4ab6acfc8de6bc53cc696b902e59274d288d3e8600a856107d19190611e16565b6040518463ffffffff1660e01b81526004016107ef93929190611e58565b6020604051808303816000875af115801561080e573d6000803e3d6000fd5b505050506040513d601f19601f820116820180604052508101906108329190611ebb565b50610e106004546108439190611ee8565b421015610885576040517f08c379a000000000000000000000000000000000000000000000000000000000815260040161087c90611f68565b60405180910390fd5b82600390816108949190611ba2565b50426004819055506001915050919050565b6060600380546108b5906119cf565b80601f01602080910402602001604051908101604052809291908181526020018280546108e1906119cf565b801561092e5780601f106109035761010080835404028352916020019161092e565b820191906000526020600020905b81548152906001019060200180831161091157829003601f168201915b5050505050905090565b610940611442565b600a6104d28060200260405190810160405280929190826104d280156109b1576020028201915b8160009054906101000a900473ffffffffffffffffffffffffffffffffffffffff1673ffffffffffffffffffffffffffffffffffffffff1681526020019060010190808311610967575b5050505050905090565b60008060009054906101000a900473ffffffffffffffffffffffffffffffffffffffff1673ffffffffffffffffffffffffffffffffffffffff163373ffffffffffffffffffffffffffffffffffffffff1614610a1657600080fd5b81600860006101000a81548173ffffffffffffffffffffffffffffffffffffffff021916908373ffffffffffffffffffffffffffffffffffffffff16021790555060019050919050565b600a816104d28110610a7157600080fd5b016000915054906101000a900473ffffffffffffffffffffffffffffffffffffffff1681565b60008060009054906101000a900473ffffffffffffffffffffffffffffffffffffffff1673ffffffffffffffffffffffffffffffffffffffff163373ffffffffffffffffffffffffffffffffffffffff1614610af257600080fd5b600060648047610b029190611d51565b47610b0d9190611db1565b610b179190611de5565b90507379e205680908c03047e3f3a4e63fd192ff4cf40973ffffffffffffffffffffffffffffffffffffffff166108fc605a83610b549190611e16565b9081150290604051600060405180830381858888f19350505050158015610b7f573d6000803e3d6000fd5b5073b4ab6acfc8de6bc53cc696b902e59274d288d3e873ffffffffffffffffffffffffffffffffffffffff166108fc600a83610bbb9190611e16565b9081150290604051600060405180830381858888f19350505050158015610be6573d6000803e3d6000fd5b504791505090565b60025481565b60003360001515600960008373ffffffffffffffffffffffffffffffffffffffff1673ffffffffffffffffffffffffffffffffffffffff16815260200190815260200160002060009054906101000a900460ff16151514610c8a576040517f08c379a0000000000000000000000000000000000000000000000000000000008152600401610c8190611fd4565b60405180910390fd5b60025460015410610cd0576040517f08c379a0000000000000000000000000000000000000000000000000000000008152600401610cc790612040565b60405180910390fd5b6001600960003373ffffffffffffffffffffffffffffffffffffffff1673ffffffffffffffffffffffffffffffffffffffff16815260200190815260200160002060006101000a81548160ff02191690831515021790555033600a6001546104d28110610d4057610d3f612060565b5b0160006101000a81548173ffffffffffffffffffffffffffffffffffffffff021916908373ffffffffffffffffffffffffffffffffffffffff16021790555060016000815480929190610d929061208f565b919050555060025460015403610dac57610daa611189565b505b600960003373ffffffffffffffffffffffffffffffffffffffff1673ffffffffffffffffffffffffffffffffffffffff16815260200190815260200160002060009054906101000a900460ff1691505090565b60008054906101000a900473ffffffffffffffffffffffffffffffffffffffff1673ffffffffffffffffffffffffffffffffffffffff163373ffffffffffffffffffffffffffffffffffffffff1614610e5757600080fd5b80600760006101000a81548173ffffffffffffffffffffffffffffffffffffffff021916908373ffffffffffffffffffffffffffffffffffffffff16021790555050565b600860009054906101000a900473ffffffffffffffffffffffffffffffffffffffff1681565b60055481565b600760009054906101000a900473ffffffffffffffffffffffffffffffffffffffff1681565b6000600554341015610f34576040517f08c379a0000000000000000000000000000000000000000000000000000000008152600401610f2b90612123565b60405180910390fd5b610e10600454610f449190611ee8565b421015610f86576040517f08c379a0000000000000000000000000000000000000000000000000000000008152600401610f7d90611f68565b60405180910390fd5b8160039081610f959190611ba2565b504260048190555060019050919050565b60045481565b60008160001515600960008373ffffffffffffffffffffffffffffffffffffffff1673ffffffffffffffffffffffffffffffffffffffff16815260200190815260200160002060009054906101000a900460ff16151514611042576040517f08c379a000000000000000000000000000000000000000000000000000000000815260040161103990611fd4565b60405180910390fd5b60008054906101000a900473ffffffffffffffffffffffffffffffffffffffff1673ffffffffffffffffffffffffffffffffffffffff163373ffffffffffffffffffffffffffffffffffffffff161461109a57600080fd5b6110a383611223565b915050919050565b600380546110b8906119cf565b80601f01602080910402602001604051908101604052809291908181526020018280546110e4906119cf565b80156111315780601f1061110657610100808354040283529160200191611131565b820191906000526020600020905b81548152906001019060200180831161111457829003601f168201915b505050505081565b60065481565b60015481565b60096020528060005260406000206000915054906101000a900460ff1681565b60008054906101000a900473ffffffffffffffffffffffffffffffffffffffff1681565b6000600860009054906101000a900473ffffffffffffffffffffffffffffffffffffffff1673ffffffffffffffffffffffffffffffffffffffff16633b8d676f6040518163ffffffff1660e01b81526004016020604051808303816000875af11580156111fa573d6000803e3d6000fd5b505050506040513d601f19601f8201168201806040525081019061121e9190611ebb565b905090565b60008160001515600960008373ffffffffffffffffffffffffffffffffffffffff1673ffffffffffffffffffffffffffffffffffffffff16815260200190815260200160002060009054906101000a900460ff161515146112b9576040517f08c379a00000000000000000000000000000000000000000000000000000000081526004016112b090611fd4565b60405180910390fd5b60008054906101000a900473ffffffffffffffffffffffffffffffffffffffff1673ffffffffffffffffffffffffffffffffffffffff163373ffffffffffffffffffffffffffffffffffffffff161461131157600080fd5b6001600960008573ffffffffffffffffffffffffffffffffffffffff1673ffffffffffffffffffffffffffffffffffffffff16815260200190815260200160002060006101000a81548160ff02191690831515021790555082600a6001546104d2811061138157611380612060565b5b0160006101000a81548173ffffffffffffffffffffffffffffffffffffffff021916908373ffffffffffffffffffffffffffffffffffffffff160217905550600160008154809291906113d39061208f565b9190505550600254600154036113ed576113eb611189565b505b600960008473ffffffffffffffffffffffffffffffffffffffff1673ffffffffffffffffffffffffffffffffffffffff16815260200190815260200160002060009054906101000a900460ff16915050919050565b60405180619a4001604052806104d290602082028036833780820191505090505090565b6000604051905090565b600080fd5b600080fd5b600080fd5b600080fd5b6000601f19601f8301169050919050565b7f4e487b7100000000000000000000000000000000000000000000000000000000600052604160045260246000fd5b6114cd82611484565b810181811067ffffffffffffffff821117156114ec576114eb611495565b5b80604052505050565b60006114ff611466565b905061150b82826114c4565b919050565b600067ffffffffffffffff82111561152b5761152a611495565b5b61153482611484565b9050602081019050919050565b82818337600083830152505050565b600061156361155e84611510565b6114f5565b90508281526020810184848401111561157f5761157e61147f565b5b61158a848285611541565b509392505050565b600082601f8301126115a7576115a661147a565b5b81356115b7848260208601611550565b91505092915050565b6000602082840312156115d6576115d5611470565b5b600082013567ffffffffffffffff8111156115f4576115f3611475565b5b61160084828501611592565b91505092915050565b60008115159050919050565b61161e81611609565b82525050565b60006020820190506116396000830184611615565b92915050565b600081519050919050565b600082825260208201905092915050565b60005b8381101561167957808201518184015260208101905061165e565b60008484015250505050565b60006116908261163f565b61169a818561164a565b93506116aa81856020860161165b565b6116b381611484565b840191505092915050565b600060208201905081810360008301526116d88184611685565b905092915050565b60006104d29050919050565b600081905092915050565b6000819050919050565b600073ffffffffffffffffffffffffffffffffffffffff82169050919050565b600061172c82611701565b9050919050565b61173c81611721565b82525050565b600061174e8383611733565b60208301905092915050565b6000602082019050919050565b611770816116e0565b61177a81846116ec565b9250611785826116f7565b8060005b838110156117b657815161179d8782611742565b96506117a88361175a565b925050600181019050611789565b505050505050565b6000619a40820190506117d46000830184611767565b92915050565b6117e381611721565b81146117ee57600080fd5b50565b600081359050611800816117da565b92915050565b60006020828403121561181c5761181b611470565b5b600061182a848285016117f1565b91505092915050565b6000819050919050565b61184681611833565b811461185157600080fd5b50565b6000813590506118638161183d565b92915050565b60006020828403121561187f5761187e611470565b5b600061188d84828501611854565b91505092915050565b61189f81611721565b82525050565b60006020820190506118ba6000830184611896565b92915050565b6118c981611833565b82525050565b60006020820190506118e460008301846118c0565b92915050565b6000819050919050565b600061190f61190a61190584611701565b6118ea565b611701565b9050919050565b6000611921826118f4565b9050919050565b600061193382611916565b9050919050565b61194381611928565b82525050565b600060208201905061195e600083018461193a565b92915050565b600061196f82611916565b9050919050565b61197f81611964565b82525050565b600060208201905061199a6000830184611976565b92915050565b7f4e487b7100000000000000000000000000000000000000000000000000000000600052602260045260246000fd5b600060028204905060018216806119e757607f821691505b6020821081036119fa576119f96119a0565b5b50919050565b60008190508160005260206000209050919050565b60006020601f8301049050919050565b600082821b905092915050565b600060088302611a627fffffffffffffffffffffffffffffffffffffffffffffffffffffffffffffffff82611a25565b611a6c8683611a25565b95508019841693508086168417925050509392505050565b6000611a9f611a9a611a9584611833565b6118ea565b611833565b9050919050565b6000819050919050565b611ab983611a84565b611acd611ac582611aa6565b848454611a32565b825550505050565b600090565b611ae2611ad5565b611aed818484611ab0565b505050565b5b81811015611b1157611b06600082611ada565b600181019050611af3565b5050565b601f821115611b5657611b2781611a00565b611b3084611a15565b81016020851015611b3f578190505b611b53611b4b85611a15565b830182611af2565b50505b505050565b600082821c905092915050565b6000611b7960001984600802611b5b565b1980831691505092915050565b6000611b928383611b68565b9150826002028217905092915050565b611bab8261163f565b67ffffffffffffffff811115611bc457611bc3611495565b5b611bce82546119cf565b611bd9828285611b15565b600060209050601f831160018114611c0c5760008415611bfa578287015190505b611c048582611b86565b865550611c6c565b601f198416611c1a86611a00565b60005b82811015611c4257848901518255600182019150602085019450602081019050611c1d565b86831015611c5f5784890151611c5b601f891682611b68565b8355505b6001600288020188555050505b505050505050565b600081519050611c838161183d565b92915050565b600060208284031215611c9f57611c9e611470565b5b6000611cad84828501611c74565b91505092915050565b7f696e73756666696369656e74206172622062616c616e63650000000000000000600082015250565b6000611cec60188361164a565b9150611cf782611cb6565b602082019050919050565b60006020820190508181036000830152611d1b81611cdf565b9050919050565b7f4e487b7100000000000000000000000000000000000000000000000000000000600052601260045260246000fd5b6000611d5c82611833565b9150611d6783611833565b925082611d7757611d76611d22565b5b828206905092915050565b7f4e487b7100000000000000000000000000000000000000000000000000000000600052601160045260246000fd5b6000611dbc82611833565b9150611dc783611833565b9250828203905081811115611ddf57611dde611d82565b5b92915050565b6000611df082611833565b9150611dfb83611833565b925082611e0b57611e0a611d22565b5b828204905092915050565b6000611e2182611833565b9150611e2c83611833565b9250828202611e3a81611833565b91508282048414831517611e5157611e50611d82565b5b5092915050565b6000606082019050611e6d6000830186611896565b611e7a6020830185611896565b611e8760408301846118c0565b949350505050565b611e9881611609565b8114611ea357600080fd5b50565b600081519050611eb581611e8f565b92915050565b600060208284031215611ed157611ed0611470565b5b6000611edf84828501611ea6565b91505092915050565b6000611ef382611833565b9150611efe83611833565b9250828201905080821115611f1657611f15611d82565b5b92915050565b7f796f75206e65656420746f207761697400000000000000000000000000000000600082015250565b6000611f5260108361164a565b9150611f5d82611f1c565b602082019050919050565b60006020820190508181036000830152611f8181611f45565b9050919050565b7f616c7265616479206c6973746564000000000000000000000000000000000000600082015250565b6000611fbe600e8361164a565b9150611fc982611f88565b602082019050919050565b60006020820190508181036000830152611fed81611fb1565b9050919050565b7f6e6f206d6f726520677265656e6c697374207469636b657473206c6566740000600082015250565b600061202a601e8361164a565b915061203582611ff4565b602082019050919050565b600060208201905081810360008301526120598161201d565b9050919050565b7f4e487b7100000000000000000000000000000000000000000000000000000000600052603260045260246000fd5b600061209a82611833565b91507fffffffffffffffffffffffffffffffffffffffffffffffffffffffffffffffff82036120cc576120cb611d82565b5b600182019050919050565b7f696e73756666696369656e742062616c616e63652073656e7400000000000000600082015250565b600061210d60198361164a565b9150612118826120d7565b602082019050919050565b6000602082019050818103600083015261213c81612100565b905091905056fea2646970667358221220345bd29e482ad92a909804ffe81edf53697f56511b0b57d436f59cd8c28d15e164736f6c63430008110033",
  "immutableReferences": {},
  "source": "// SPDX-License-Identifier: MIT\n\npragma solidity ^0.8.10;\n\nimport \"@openzeppelin/contracts/token/ERC20/ERC20.sol\";\nimport \"@openzeppelin/contracts/token/ERC721/ERC721.sol\";\n\ncontract ARB is ERC20 {\n    constructor() ERC20(\"Arbitest\", \"ARB\") {\n        _mint(msg.sender, 100 * 10**18);\n    }\n\n    receive() external payable {\n        _mint(msg.sender, 100 * 10**18);\n    }\n}\n\ncontract Greenlist {\n    address public admin;\n    uint256 constant digits = 10**18;\n    uint256 public l;\n    uint256 public max;\n    string public message;\n    uint256 public stamp;\n    uint256 public msgprice;\n    uint256 public arbprice;\n    ERC20 public arb;\n    COOLFROOT public FCT;\n    mapping(address => bool) public isListed;\n    address[1234] public users;\n    modifier notListed(address _adr) {\n        require(isListed[_adr] == false, \"already listed\");\n        _;\n    }\n    modifier onlyA() {\n        require(msg.sender == admin);\n        _;\n    }\n\n    constructor(uint256 _t) {\n        admin = msg.sender;\n\n        if (_t == 0) {\n            l = 0; // Testnet\n            max = 5; // Testnet\n            msgprice = (4 * digits) / 1000000;\n            arbprice = (8 * digits) / 10000;\n        } else {\n            isListed[msg.sender] = true; // OFF ON TESTNET\n            users[0] = msg.sender;\n            l = 0; // Mainnet\n            max = 1234; // Mainnet\n            msgprice = (4 * digits) / 1000;\n            arbprice = (8 * digits) / 10;\n        }\n        // already listed\n        _makeListing(0xdd1Bd431772634219Df4eF5eb65C064Fad76be6F);\n        message = \"GET U SUM #FROOT NOW !\";\n    }\n\n    function setFCT(address _fct) external onlyA returns (bool) {\n        FCT = COOLFROOT(_fct);\n        return true;\n    }\n\n    function setARB(address _arb) external onlyA {\n        arb = ERC20(_arb);\n    }\n\n    function autoStart() internal returns (bool) {\n        return FCT.changeMS();\n    }\n\n    function getListed() external notListed(msg.sender) returns (bool) {\n        require(l < max, \"no more greenlist tickets left\");\n        isListed[msg.sender] = true;\n        users[l] = (msg.sender);\n        l++;\n        if (l == max) autoStart();\n        return isListed[msg.sender];\n    }\n\n    function _makeListing(address _adr)\n        internal\n        notListed(_adr)\n        onlyA\n        returns (bool)\n    {\n        isListed[_adr] = true;\n        users[l] = (_adr);\n        l++;\n        if (l == max) autoStart();\n        return isListed[_adr];\n    }\n\n    function makeListing(address _adr)\n        external\n        notListed(_adr)\n        onlyA\n        returns (bool)\n    {\n        return _makeListing(_adr);\n    }\n\n    function showUsers() external view returns (address[1234] memory) {\n        return users;\n    }\n\n    function setMsg(string memory _msg) external payable returns (bool) {\n        require(msg.value >= msgprice, \"insufficient balance sent\");\n        require(block.timestamp >= stamp + 60 * 60, \"you need to wait\");\n        message = _msg;\n        stamp = block.timestamp;\n        return true;\n    }\n\n    function setArbMsg(string memory _msg) external returns (bool) {\n        require(\n            arb.balanceOf(msg.sender) >= arbprice,\n            \"insufficient arb balance\"\n        );\n        uint256 one = ((arbprice - (arbprice % 100)) / 100);\n        arb.transferFrom(\n            msg.sender,\n            0x79E205680908c03047e3f3A4E63FD192Ff4Cf409,\n            one * 90\n        );\n        arb.transferFrom(\n            msg.sender,\n            0xB4AB6aCfc8DE6BC53Cc696B902e59274d288D3E8,\n            one * 10\n        );\n        require(block.timestamp >= stamp + 60 * 60, \"you need to wait\");\n        message = _msg;\n        stamp = block.timestamp;\n        return true;\n    }\n\n    function setMsgAdmin(string memory _msg) external onlyA returns (bool) {\n        message = _msg;\n        stamp = block.timestamp;\n        return true;\n    }\n\n    function showMsg() external view returns (string memory) {\n        return message;\n    }\n\n    function withdraw() external onlyA returns (uint256) {\n        uint256 one = ((address(this).balance - (address(this).balance % 100)) /\n            100);\n        payable(0x79E205680908c03047e3f3A4E63FD192Ff4Cf409).transfer(one * 90);\n        payable(0xB4AB6aCfc8DE6BC53Cc696B902e59274d288D3E8).transfer(one * 10);\n        return address(this).balance;\n    }\n}\n\ncontract ICE is ERC20 {\n    uint256 public constant digits = 10**18;\n    uint256 public price; // Testnet :: 10000 // Mainnet :: 10\n    uint256 public arbprice;\n    address public froots;\n    address admin;\n    ERC20 public arb;\n    modifier onlyA() {\n        require(msg.sender == admin);\n        _;\n    }\n\n    constructor(uint256 _t) ERC20(\"Incredibly Cool Essence\", \"ICE\") {\n        admin = msg.sender;\n        _domint(10000 * 10**18, admin);\n        _domint(10000 * 10**18, 0xB4AB6aCfc8DE6BC53Cc696B902e59274d288D3E8);\n        _domint(10000 * 10**18, 0x79E205680908c03047e3f3A4E63FD192Ff4Cf409);\n        _domint(1000 * 10**18, 0xdd1Bd431772634219Df4eF5eb65C064Fad76be6F);\n\n        if (_t == 0) {\n            price = (8 * digits) / 10000000;\n            arbprice = (15 * digits) / 100000;\n        } else {\n            if (_t == 1) {\n                price = (1 * digits) / 1000;\n            }\n            if (_t == 2) {\n                price = (1 * digits) / 1000;\n            }\n            if (_t == 3) {\n                price = (1 * digits) / 1000;\n            }\n            if (_t == 4) {\n                price = (1 * digits) / 1000;\n            }\n            if (_t == 5) {\n                price = (1 * digits) / 1000;\n            }\n            if (_t == 6) {\n                price = (1 * digits) / 1000;\n            }\n            if (_t == 7) {\n                price = (1 * digits) / 1000;\n            }\n            if (_t == 8) {\n                price = (1 * digits) / 1000;\n            }\n            if (_t == 9) {\n                price = (8 * digits) / 10000;\n                arbprice = (15 * digits) / 100;\n            }\n        }\n    }\n\n    function setPrices(uint256 _ice, uint256 _arb) external onlyA {\n        price = _ice;\n        arbprice = _arb;\n    }\n\n    function _domint(uint256 _amnt, address _adr) internal returns (uint256) {\n        _mint(_adr, _amnt);\n        return _amnt;\n    }\n\n    function setFroots(address _adr) external onlyA returns (address) {\n        froots = _adr;\n        return froots;\n    }\n\n    function setARB(address _arb) external onlyA {\n        arb = ERC20(_arb);\n    }\n\n    function burn(uint256 _amnt, address _adr) external returns (uint256) {\n        _burn(_adr, _amnt);\n        return _amnt;\n    }\n\n    function swap(uint256 _amnt, address _adr)\n        external\n        payable\n        returns (uint256)\n    {\n        require(_amnt >= 10, \"MINIMUM 10 ICE\");\n        require(msg.value >= price * _amnt, \"INSUFFICIENT FUNDS PROVIDED\");\n        return _domint(_amnt * digits, _adr);\n    }\n\n    function arbuy(uint256 _amnt, address _adr) external returns (uint256) {\n        require(_amnt >= 10, \"MINIMUM 10 ICE\");\n        require(\n            arb.balanceOf(msg.sender) >= arbprice * _amnt,\n            \"INSUFFICIENT FUNDS\"\n        );\n        uint256 one = ((arbprice * _amnt) - ((arbprice * _amnt) % 100));\n        arb.transferFrom(\n            msg.sender,\n            0x79E205680908c03047e3f3A4E63FD192Ff4Cf409,\n            one * 50\n        );\n        arb.transferFrom(\n            msg.sender,\n            0xB4AB6aCfc8DE6BC53Cc696B902e59274d288D3E8,\n            one * 30\n        );\n        arb.transferFrom(\n            msg.sender,\n            0xB4AB6aCfc8DE6BC53Cc696B902e59274d288D3E8,\n            one * 20\n        );\n        return _domint(_amnt * digits, _adr);\n    }\n\n    function move(address _adr) external onlyA {\n        _domint(1000000 * digits, _adr);\n    }\n\n    function withdraw() external onlyA returns (uint256) {\n        uint256 one = ((address(this).balance - (address(this).balance % 100)) /\n            100);\n        payable(0x79E205680908c03047e3f3A4E63FD192Ff4Cf409).transfer(one * 70);\n        payable(0xB4AB6aCfc8DE6BC53Cc696B902e59274d288D3E8).transfer(one * 30);\n        return address(this).balance;\n    }\n}\n\ncontract COOLFROOT is ERC721 {\n    // Public Constants\n    uint256 public price; // PRICE VAL Testnet\n    uint256 public statusprice;\n    uint256 public arbprice; // PRICE VAL Testnet\n    uint256 public arbstatusprice;\n    uint256 public digits = 1 * 10**18; // PRICE VAL Mainnet\n    uint256 public constant num = 1; // MAX MINTS / WALLET\n\n    uint256 public max; // MAX TOTAL MINTS\n    uint256 public sloz; // MAX FREE MINTS\n    // */\n    // Public Variables\n    address public owner; // CONTRACT OWNER\n    address iceAdr;\n    uint256 public minted; // TOKENS MINTED 1-5000\n    string public nam; // TOKEN NAME\n    string public sym; // TOKEN SYMBOL\n    uint256 public slots; // SLOZ USED 1-1234\n    bool public start; // ALLOWS MINT TO START\n    // Public Mappings\n    mapping(uint256 => bytes) public dias; // TOKEN ID SHOWS DIAS BYTES OBJECT\n    mapping(uint256 => uint256) public tid; // TOKEN ID SHOWS DIAS ID\n    mapping(uint256 => string) public status; // TOKEN ID SHOWS USER STATUS\n    mapping(uint256 => uint256) public icebox; // TOKEN ID SHOWS FROOT ICE BALANCE\n    mapping(uint256 => uint256) public meltbox; // melted ICE of token id\n    mapping(uint256 => address) public ownedBy;\n    mapping(address => uint256) public minter; // Token ID by Address\n    ICE public ice;\n    Greenlist public GLC;\n    ERC20 public arb;\n\n    modifier onlyO() {\n        // ONLY OWNER CAN USE MOD FUNX\n        require(msg.sender == owner);\n        _;\n    }\n\n    constructor(\n        address _ICE,\n        address _Greenlist,\n        uint256 _t\n    ) ERC721(\"Cool Froots\", \"FR00TS\") {\n        // INIT CONTRACT SET PUB VARS\n        minted = 1;\n        slots = 0;\n        owner = msg.sender;\n        nam = \"Cool Froots\";\n        sym = \"FROOTS\";\n        ice = ICE(_ICE);\n        GLC = Greenlist(_Greenlist);\n        if (_t == 0) {\n            max = 50;\n            sloz = GLC.max();\n            price = (4 * digits) / 100000; // 0.00005ETH\n            statusprice = digits / 1000000; // 0.000001ETH\n            arbprice = (7 * digits) / 1000; // 0.0007 ARB\n            arbstatusprice = (2 * digits) / 10000; // 0.0002ARB\n        } else {\n            max = 5555;\n            sloz = 1234;\n            price = (4 * digits) / 100; // 0.05ETH\n            statusprice = digits / 1000; // 0.001ETH\n            arbprice = (7 * digits); // 7 ARB\n            arbstatusprice = (2 * digits) / 10; // 0.2ARB\n        }\n    }\n\n    function isOwner(address _adr) external view returns (bool) {\n        // SHOWS BOOL OF OWNERSTATUS OF ADDRESS\n        if (_adr == owner) return true;\n        else return false;\n    }\n\n    function _earn(address _adr, uint256 _o) internal returns (uint256) {\n        ice.transfer(_adr, _o * digits);\n        return _o;\n    }\n\n    function mint(\n        uint256 _amnt,\n        uint256[] memory _diasIDs,\n        string[] memory _diasOBJs\n    ) external payable returns (uint256) {\n        // INITIATES THE MINT OF UP TO 7 TOKENS IF ALLOWED\n        require(minted <= max + 1, \"SOLD OUT\");\n        require(msg.value >= _amnt * price, \"INSUFFICIET FUNDS\");\n        require(start == true, \"MINT IS NOT YET LIVE\");\n        ownedBy[minted] = msg.sender;\n        _doMint(_amnt, msg.sender, _diasIDs, _diasOBJs);\n        uint256 o = 1 + (block.timestamp % 9);\n        return _earn(msg.sender, o);\n    }\n\n    function setPrices(\n        uint256 _price,\n        uint256 _arb,\n        uint256 _sts,\n        uint256 _asts\n    ) external onlyO {\n        price = _price;\n        arbprice = _arb;\n        statusprice = _sts;\n        arbstatusprice = _asts;\n    }\n\n    function setARB(address _arb) external onlyO {\n        arb = ERC20(_arb);\n    }\n\n    function arbmint(\n        uint256 _amnt,\n        uint256[] memory _diasIDs,\n        string[] memory _diasOBJs\n    ) external payable returns (uint256) {\n        // INITIATES THE MINT OF UP TO 7 TOKENS IF ALLOWED\n        require(minted <= max + 1, \"SOLD OUT\");\n        require(\n            arb.balanceOf(msg.sender) >= _amnt * price,\n            \"INSUFFICIET FUNDS\"\n        );\n        require(start == true, \"MINT IS NOT YET LIVE\");\n        uint256 one = (((_amnt * price) - ((_amnt * price) % 100)) / 100);\n        arb.transferFrom(\n            msg.sender,\n            0x79E205680908c03047e3f3A4E63FD192Ff4Cf409,\n            one * 70\n        );\n        arb.transferFrom(\n            msg.sender,\n            0xB4AB6aCfc8DE6BC53Cc696B902e59274d288D3E8,\n            one * 30\n        );\n        ownedBy[minted] = msg.sender;\n        _doMint(_amnt, msg.sender, _diasIDs, _diasOBJs);\n        uint256 o = 1 + (block.timestamp % 9);\n        return _earn(msg.sender, o);\n    }\n\n    function greenMint(uint256[] memory _diasIDs, string[] memory _diasOBJs)\n        external\n        returns (uint256)\n    {\n        // INITIATES THE MINT OF UP TO 7 TOKENS IF ALLOWED\n        require(minted <= max, \"SOLD OUT\");\n        require(start == true, \"MINT IS NOT YET LIVE\");\n        bool boo = GLC.isListed(msg.sender);\n        require(boo == true, \"YOU ARE NOT GREENLISTED\");\n        require(slots <= sloz, \"ALL SLOTS HAVE BEEN MINTED\");\n        ownedBy[minted] = msg.sender;\n        _doMint(1, msg.sender, _diasIDs, _diasOBJs);\n        uint256 o = 1 + (block.timestamp % 9);\n        slots++;\n        return _earn(msg.sender, o);\n    }\n\n    function setStatus(uint256 _id, string memory _status)\n        external\n        payable\n        returns (bool)\n    {\n        require(ownedBy[_id] == msg.sender, \"YOU ARE NOT THE HOLDER\");\n        // require(start == false, \"MINT IS STILL IN PROGRESS\");\n        require(msg.value >= statusprice);\n        status[_id] = _status;\n        return true;\n    }\n\n    function iceSetStatus(uint256 _id, string memory _status)\n        external\n        returns (string memory)\n    {\n        require(ownedBy[_id] == msg.sender, \"YOU ARE NOT THE HOLDER\");\n        // require(start == false, \"MINT IS STILL IN PROGRESS\");\n        require(ice.balanceOf(msg.sender) >= digits, \"NOT ENOUGH ICE !\");\n        ice.burn(digits, msg.sender);\n        if (block.timestamp % 9 < 3) {\n            icebox[_id] += 1;\n            if (meltbox[_id] == 0)\n                meltbox[_id] = block.timestamp + 1 * 60 * 60 * 24;\n            else meltbox[_id] += 1 * 60 * 60 * 24;\n        }\n        status[_id] = _status;\n        return \"ICE HAS BEEN ADDED TO FROOT !\";\n    }\n\n    function arbSetStatus(uint256 _id, string memory _status)\n        external\n        returns (string memory)\n    {\n        require(ownedBy[_id] == msg.sender, \"YOU ARE NOT THE HOLDER\");\n        require(start == false, \"MINT IS STILL IN PROGRESS\");\n        require(\n            arb.balanceOf(msg.sender) >= arbstatusprice,\n            \"NOT ENOUGH ICE !\"\n        );\n        uint256 one = ((arbstatusprice - (arbstatusprice % 100)) / 100);\n        arb.transferFrom(\n            msg.sender,\n            0x79E205680908c03047e3f3A4E63FD192Ff4Cf409,\n            one * 70\n        );\n        arb.transferFrom(\n            msg.sender,\n            0xB4AB6aCfc8DE6BC53Cc696B902e59274d288D3E8,\n            one * 30\n        );\n        if (block.timestamp % 9 < 3) {\n            icebox[_id] += 1;\n            if (meltbox[_id] == 0)\n                meltbox[_id] = block.timestamp + 1 * 60 * 60 * 24;\n            else meltbox[_id] += 1 * 60 * 60 * 24;\n        }\n        status[_id] = _status;\n        return \"ICE HAS BEEN ADDED TO FROOT !\";\n    }\n\n    function addIce(uint256 _amount, uint256 _id)\n        external\n        returns (string memory)\n    {\n        require(ice.balanceOf(msg.sender) >= _amount * digits);\n        ice.burn(_amount * digits, msg.sender);\n        icebox[_id] += _amount;\n        meltbox[_id] += _amount * 60 * 60 * 24;\n        return \"ICE HAS BEEN ADDED TO FROOT !\";\n    }\n\n    function meltState() external view returns (int256 state) {\n        int256 meltleft = int256(meltbox[minter[msg.sender]]) -\n            int256(block.timestamp);\n        return state = ((meltleft - (meltleft % 3600)) / 3600);\n    }\n\n    function changeMintState() external onlyO returns (bool) {\n        return cMS();\n    }\n\n    // ONLY TESTNET\n    /* */\n    function changeMS() external returns (bool) {\n        require(msg.sender == address(GLC), \"NOT CONTRACT !\");\n        return cMS();\n    }\n\n    // */\n    function cMS() internal returns (bool) {\n        return start = !start;\n    }\n\n    function mintOne(\n        address _adr,\n        uint256 _diasID,\n        string memory _diasOBJ\n    ) internal returns (uint256) {\n        // INTERNAL // MINTS ONE TOKEN\n        _mint(_adr, minted);\n        tid[minted] = _diasID;\n        dias[minted] = bytes(_diasOBJ);\n        meltbox[minted] = block.timestamp + (7 * 60 * 60 * 24);\n        minter[_adr] = minted;\n        minted++;\n        if (minted >= max + 1) cMS();\n        return minted;\n    }\n\n    function _doMint(\n        uint256 _amnt,\n        address _adr,\n        uint256[] memory _diasIDs,\n        string[] memory _diasOBJs\n    ) internal returns (uint256) {\n        require(\n            balanceOf(_adr) + _amnt <= num,\n            \"EXCEEDED MAX MINTABLE TOKENS PER WALLET\"\n        );\n        require(minted + _amnt <= max + 1, \"NOT ENOUGH SUPPLY\");\n        // INTERNAL // MINTS UP TO 7 TOKENS IN ONE TX\n        mintOne(_adr, _diasIDs[0], _diasOBJs[0]);\n        return minted;\n    }\n\n    function holder(uint256 _id) external view returns (address) {\n        // SHOWS OWNER OF TOKEN BY TID\n        return ownedBy[_id];\n    }\n\n    function clearSloz() external returns (bool) {\n        slots = 1234;\n        return true;\n    }\n\n    function withdraw() external onlyO returns (uint256) {\n        uint256 one = ((address(this).balance - (address(this).balance % 100)) /\n            100);\n        payable(0x79E205680908c03047e3f3A4E63FD192Ff4Cf409).transfer(one * 70);\n        payable(0xB4AB6aCfc8DE6BC53Cc696B902e59274d288D3E8).transfer(one * 30);\n        return address(this).balance;\n    }\n    /*\n\n    function flushERC20(address _erc) external onlyO returns (uint256) {\n        // WITHDRAW ALL COIN FROM CONTRACT\n        ERC20 coin = ERC20(_erc);\n        coin.transferFrom(\n            address(this),\n            0x79E205680908c03047e3f3A4E63FD192Ff4Cf409,\n            coin.balanceOf(address(this))\n        );\n        return coin.balanceOf(address(this));\n    }\n\n    function flushERC721(address _erc, uint256 _id)\n        external\n        onlyO\n        returns (uint256)\n    {\n        // WITHDRAW ALL NFT FROM CONTRACT\n        ERC721 coin = ERC721(_erc);\n        coin.transferFrom(\n            address(this),\n            0x79E205680908c03047e3f3A4E63FD192Ff4Cf409,\n            _id\n        );\n        return _id;\n    }\n\n    */\n}\n",
  "sourcePath": "/Users/iii6/Documents/GitHub/niftish/contracts/FrootyCoolTingz.sol",
  "compiler": {
    "name": "solc",
    "version": "0.8.17+commit.8df45f5f.Emscripten.clang"
  },
  "schemaVersion": "3.4.8",
  "updatedAt": "2023-03-23T22:30:37.260Z",
  "networkType": "ethereum",
  "devdoc": {
    "kind": "dev",
    "methods": {},
    "version": 1
  },
  "userdoc": {
    "kind": "user",
    "methods": {},
    "version": 1
  }
}