{
  "contractName": "Greenlist",
  "abi": [
    {
      "inputs": [
        {
          "internalType": "uint256",
          "name": "_t",
          "type": "uint256"
        }
      ],
      "stateMutability": "nonpayable",
      "type": "constructor"
    },
    {
      "inputs": [],
      "name": "FCT",
      "outputs": [
        {
          "internalType": "contract FrootyCoolTingz",
          "name": "",
          "type": "address"
        }
      ],
      "stateMutability": "view",
      "type": "function",
      "constant": true
    },
    {
      "inputs": [],
      "name": "admin",
      "outputs": [
        {
          "internalType": "address",
          "name": "",
          "type": "address"
        }
      ],
      "stateMutability": "view",
      "type": "function",
      "constant": true
    },
    {
      "inputs": [
        {
          "internalType": "address",
          "name": "",
          "type": "address"
        }
      ],
      "name": "isListed",
      "outputs": [
        {
          "internalType": "bool",
          "name": "",
          "type": "bool"
        }
      ],
      "stateMutability": "view",
      "type": "function",
      "constant": true
    },
    {
      "inputs": [],
      "name": "l",
      "outputs": [
        {
          "internalType": "uint256",
          "name": "",
          "type": "uint256"
        }
      ],
      "stateMutability": "view",
      "type": "function",
      "constant": true
    },
    {
      "inputs": [],
      "name": "max",
      "outputs": [
        {
          "internalType": "uint256",
          "name": "",
          "type": "uint256"
        }
      ],
      "stateMutability": "view",
      "type": "function",
      "constant": true
    },
    {
      "inputs": [],
      "name": "message",
      "outputs": [
        {
          "internalType": "string",
          "name": "",
          "type": "string"
        }
      ],
      "stateMutability": "view",
      "type": "function",
      "constant": true
    },
    {
      "inputs": [],
      "name": "price",
      "outputs": [
        {
          "internalType": "uint256",
          "name": "",
          "type": "uint256"
        }
      ],
      "stateMutability": "view",
      "type": "function",
      "constant": true
    },
    {
      "inputs": [],
      "name": "stamp",
      "outputs": [
        {
          "internalType": "uint256",
          "name": "",
          "type": "uint256"
        }
      ],
      "stateMutability": "view",
      "type": "function",
      "constant": true
    },
    {
      "inputs": [
        {
          "internalType": "uint256",
          "name": "",
          "type": "uint256"
        }
      ],
      "name": "users",
      "outputs": [
        {
          "internalType": "address",
          "name": "",
          "type": "address"
        }
      ],
      "stateMutability": "view",
      "type": "function",
      "constant": true
    },
    {
      "inputs": [
        {
          "internalType": "address",
          "name": "_fct",
          "type": "address"
        }
      ],
      "name": "setFCT",
      "outputs": [
        {
          "internalType": "bool",
          "name": "",
          "type": "bool"
        }
      ],
      "stateMutability": "nonpayable",
      "type": "function"
    },
    {
      "inputs": [],
      "name": "getListed",
      "outputs": [
        {
          "internalType": "bool",
          "name": "",
          "type": "bool"
        }
      ],
      "stateMutability": "nonpayable",
      "type": "function"
    },
    {
      "inputs": [
        {
          "internalType": "address",
          "name": "_adr",
          "type": "address"
        }
      ],
      "name": "makeListing",
      "outputs": [
        {
          "internalType": "bool",
          "name": "",
          "type": "bool"
        }
      ],
      "stateMutability": "nonpayable",
      "type": "function"
    },
    {
      "inputs": [],
      "name": "showUsers",
      "outputs": [
        {
          "internalType": "address[1234]",
          "name": "",
          "type": "address[1234]"
        }
      ],
      "stateMutability": "view",
      "type": "function",
      "constant": true
    },
    {
      "inputs": [
        {
          "internalType": "string",
          "name": "_msg",
          "type": "string"
        }
      ],
      "name": "setMsg",
      "outputs": [
        {
          "internalType": "bool",
          "name": "",
          "type": "bool"
        }
      ],
      "stateMutability": "payable",
      "type": "function",
      "payable": true
    },
    {
      "inputs": [
        {
          "internalType": "string",
          "name": "_msg",
          "type": "string"
        }
      ],
      "name": "setMsgAdmin",
      "outputs": [
        {
          "internalType": "bool",
          "name": "",
          "type": "bool"
        }
      ],
      "stateMutability": "nonpayable",
      "type": "function"
    },
    {
      "inputs": [],
      "name": "showMsg",
      "outputs": [
        {
          "internalType": "string",
          "name": "",
          "type": "string"
        }
      ],
      "stateMutability": "view",
      "type": "function",
      "constant": true
    },
    {
      "inputs": [],
      "name": "withdraw",
      "outputs": [
        {
          "internalType": "uint256",
          "name": "",
          "type": "uint256"
        }
      ],
      "stateMutability": "nonpayable",
      "type": "function"
    }
  ],
  "bytecode": "0x60806040523480156200001157600080fd5b5060405162001f8f38038062001f8f833981810160405281019062000037919062000207565b336000806101000a81548173ffffffffffffffffffffffffffffffffffffffff021916908373ffffffffffffffffffffffffffffffffffffffff1602179055506001810362000151576001600760003373ffffffffffffffffffffffffffffffffffffffff1673ffffffffffffffffffffffffffffffffffffffff16815260200190815260200160002060006101000a81548160ff02191690831515021790555033600860006104d28110620000f257620000f162000239565b5b0160006101000a81548173ffffffffffffffffffffffffffffffffffffffff021916908373ffffffffffffffffffffffffffffffffffffffff16021790555060006001819055506104d260028190555066038d7ea4c680006005819055505b6000810362000179576000600181905550600160028190555066038d7ea4c680006005819055505b6040518060400160405280601a81526020017f4245204652455348204d592046524f4f5459204652454e5a202100000000000081525060039081620001bf9190620004d8565b5050620005bf565b600080fd5b6000819050919050565b620001e181620001cc565b8114620001ed57600080fd5b50565b6000815190506200020181620001d6565b92915050565b60006020828403121562000220576200021f620001c7565b5b60006200023084828501620001f0565b91505092915050565b7f4e487b7100000000000000000000000000000000000000000000000000000000600052603260045260246000fd5b600081519050919050565b7f4e487b7100000000000000000000000000000000000000000000000000000000600052604160045260246000fd5b7f4e487b7100000000000000000000000000000000000000000000000000000000600052602260045260246000fd5b60006002820490506001821680620002ea57607f821691505b6020821081036200030057620002ff620002a2565b5b50919050565b60008190508160005260206000209050919050565b60006020601f8301049050919050565b600082821b905092915050565b6000600883026200036a7fffffffffffffffffffffffffffffffffffffffffffffffffffffffffffffffff826200032b565b6200037686836200032b565b95508019841693508086168417925050509392505050565b6000819050919050565b6000620003b9620003b3620003ad84620001cc565b6200038e565b620001cc565b9050919050565b6000819050919050565b620003d58362000398565b620003ed620003e482620003c0565b84845462000338565b825550505050565b600090565b62000404620003f5565b62000411818484620003ca565b505050565b5b8181101562000439576200042d600082620003fa565b60018101905062000417565b5050565b601f8211156200048857620004528162000306565b6200045d846200031b565b810160208510156200046d578190505b620004856200047c856200031b565b83018262000416565b50505b505050565b600082821c905092915050565b6000620004ad600019846008026200048d565b1980831691505092915050565b6000620004c883836200049a565b9150826002028217905092915050565b620004e38262000268565b67ffffffffffffffff811115620004ff57620004fe62000273565b5b6200050b8254620002d1565b620005188282856200043d565b600060209050601f8311600181146200055057600084156200053b578287015190505b620005478582620004ba565b865550620005b7565b601f198416620005608662000306565b60005b828110156200058a5784890151825560018201915060208501945060208101905062000563565b86831015620005aa5784890151620005a6601f8916826200049a565b8355505b6001600288020188555050505b505050505050565b6119c080620005cf6000396000f3fe6080604052600436106100fe5760003560e01c806385dbc0c511610095578063cc87ec5f11610064578063cc87ec5f14610342578063e21f37ce1461037f578063ece866b9146103aa578063f794062e146103d5578063f851a44014610412576100fe565b806385dbc0c514610291578063a035b1fe146102bc578063c4784fd4146102e7578063c85e07b914610317576100fe565b8063365b98b2116100d1578063365b98b2146101d35780633ccfd60b146102105780636ac5db191461023b57806377b3cc9a14610266576100fe565b8063161dbc14146101035780632a0c74d414610140578063329dd3641461016b578063359e0bd114610196575b600080fd5b34801561010f57600080fd5b5061012a60048036038101906101259190610fc3565b61043d565b6040516101379190611027565b60405180910390f35b34801561014c57600080fd5b506101556104ed565b60405161016291906110c1565b60405180910390f35b34801561017757600080fd5b5061018061057f565b60405161018d91906111c1565b60405180910390f35b3480156101a257600080fd5b506101bd60048036038101906101b89190611209565b610602565b6040516101ca9190611027565b60405180910390f35b3480156101df57600080fd5b506101fa60048036038101906101f5919061126c565b61064e565b60405161020791906112a8565b60405180910390f35b34801561021c57600080fd5b50610225610685565b60405161023291906112d2565b60405180910390f35b34801561024757600080fd5b50610250610782565b60405161025d91906112d2565b60405180910390f35b34801561027257600080fd5b5061027b610788565b6040516102889190611027565b60405180910390f35b34801561029d57600080fd5b506102a6610993565b6040516102b3919061134c565b60405180910390f35b3480156102c857600080fd5b506102d16109b9565b6040516102de91906112d2565b60405180910390f35b61030160048036038101906102fc9190610fc3565b6109bf565b60405161030e9190611027565b60405180910390f35b34801561032357600080fd5b5061032c610a78565b60405161033991906112d2565b60405180910390f35b34801561034e57600080fd5b5061036960048036038101906103649190611209565b610a7e565b6040516103769190611027565b60405180910390f35b34801561038b57600080fd5b50610394610cd3565b6040516103a191906110c1565b60405180910390f35b3480156103b657600080fd5b506103bf610d61565b6040516103cc91906112d2565b60405180910390f35b3480156103e157600080fd5b506103fc60048036038101906103f79190611209565b610d67565b6040516104099190611027565b60405180910390f35b34801561041e57600080fd5b50610427610d87565b60405161043491906112a8565b60405180910390f35b60003373ffffffffffffffffffffffffffffffffffffffff1660008054906101000a900473ffffffffffffffffffffffffffffffffffffffff1673ffffffffffffffffffffffffffffffffffffffff16146104cd576040517f08c379a00000000000000000000000000000000000000000000000000000000081526004016104c4906113b3565b60405180910390fd5b81600390816104dc91906115d5565b504260048190555060019050919050565b6060600380546104fc90611402565b80601f016020809104026020016040519081016040528092919081815260200182805461052890611402565b80156105755780601f1061054a57610100808354040283529160200191610575565b820191906000526020600020905b81548152906001019060200180831161055857829003601f168201915b5050505050905090565b610587610e45565b60086104d28060200260405190810160405280929190826104d280156105f8576020028201915b8160009054906101000a900473ffffffffffffffffffffffffffffffffffffffff1673ffffffffffffffffffffffffffffffffffffffff16815260200190600101908083116105ae575b5050505050905090565b600081600660006101000a81548173ffffffffffffffffffffffffffffffffffffffff021916908373ffffffffffffffffffffffffffffffffffffffff16021790555060019050919050565b6008816104d2811061065f57600080fd5b016000915054906101000a900473ffffffffffffffffffffffffffffffffffffffff1681565b60003373ffffffffffffffffffffffffffffffffffffffff1660008054906101000a900473ffffffffffffffffffffffffffffffffffffffff1673ffffffffffffffffffffffffffffffffffffffff1614610715576040517f08c379a000000000000000000000000000000000000000000000000000000000815260040161070c906113b3565b60405180910390fd5b60008054906101000a900473ffffffffffffffffffffffffffffffffffffffff1673ffffffffffffffffffffffffffffffffffffffff166108fc479081150290604051600060405180830381858888f1935050505015801561077b573d6000803e3d6000fd5b5047905090565b60025481565b60003360001515600760008373ffffffffffffffffffffffffffffffffffffffff1673ffffffffffffffffffffffffffffffffffffffff16815260200190815260200160002060009054906101000a900460ff1615151461081e576040517f08c379a0000000000000000000000000000000000000000000000000000000008152600401610815906116f3565b60405180910390fd5b60025460015410610864576040517f08c379a000000000000000000000000000000000000000000000000000000000815260040161085b9061175f565b60405180910390fd5b6001600760003373ffffffffffffffffffffffffffffffffffffffff1673ffffffffffffffffffffffffffffffffffffffff16815260200190815260200160002060006101000a81548160ff0219169083151502179055503360086001546104d281106108d4576108d361177f565b5b0160006101000a81548173ffffffffffffffffffffffffffffffffffffffff021916908373ffffffffffffffffffffffffffffffffffffffff16021790555060016000815480929190610926906117dd565b9190505550600254600154036109405761093e610dab565b505b600760003373ffffffffffffffffffffffffffffffffffffffff1673ffffffffffffffffffffffffffffffffffffffff16815260200190815260200160002060009054906101000a900460ff1691505090565b600660009054906101000a900473ffffffffffffffffffffffffffffffffffffffff1681565b60055481565b6000600554341015610a06576040517f08c379a00000000000000000000000000000000000000000000000000000000081526004016109fd90611871565b60405180910390fd5b610e10600454610a169190611891565b421015610a58576040517f08c379a0000000000000000000000000000000000000000000000000000000008152600401610a4f90611911565b60405180910390fd5b8160039081610a6791906115d5565b504260048190555060019050919050565b60045481565b60008160001515600760008373ffffffffffffffffffffffffffffffffffffffff1673ffffffffffffffffffffffffffffffffffffffff16815260200190815260200160002060009054906101000a900460ff16151514610b14576040517f08c379a0000000000000000000000000000000000000000000000000000000008152600401610b0b906116f3565b60405180910390fd5b3373ffffffffffffffffffffffffffffffffffffffff1660008054906101000a900473ffffffffffffffffffffffffffffffffffffffff1673ffffffffffffffffffffffffffffffffffffffff1614610ba2576040517f08c379a0000000000000000000000000000000000000000000000000000000008152600401610b99906113b3565b60405180910390fd5b6001600760008573ffffffffffffffffffffffffffffffffffffffff1673ffffffffffffffffffffffffffffffffffffffff16815260200190815260200160002060006101000a81548160ff0219169083151502179055508260086001546104d28110610c1257610c1161177f565b5b0160006101000a81548173ffffffffffffffffffffffffffffffffffffffff021916908373ffffffffffffffffffffffffffffffffffffffff16021790555060016000815480929190610c64906117dd565b919050555060025460015403610c7e57610c7c610dab565b505b600760008473ffffffffffffffffffffffffffffffffffffffff1673ffffffffffffffffffffffffffffffffffffffff16815260200190815260200160002060009054906101000a900460ff16915050919050565b60038054610ce090611402565b80601f0160208091040260200160405190810160405280929190818152602001828054610d0c90611402565b8015610d595780601f10610d2e57610100808354040283529160200191610d59565b820191906000526020600020905b815481529060010190602001808311610d3c57829003601f168201915b505050505081565b60015481565b60076020528060005260406000206000915054906101000a900460ff1681565b60008054906101000a900473ffffffffffffffffffffffffffffffffffffffff1681565b6000600660009054906101000a900473ffffffffffffffffffffffffffffffffffffffff1673ffffffffffffffffffffffffffffffffffffffff16633b8d676f6040518163ffffffff1660e01b81526004016020604051808303816000875af1158015610e1c573d6000803e3d6000fd5b505050506040513d601f19601f82011682018060405250810190610e40919061195d565b905090565b60405180619a4001604052806104d290602082028036833780820191505090505090565b6000604051905090565b600080fd5b600080fd5b600080fd5b600080fd5b6000601f19601f8301169050919050565b7f4e487b7100000000000000000000000000000000000000000000000000000000600052604160045260246000fd5b610ed082610e87565b810181811067ffffffffffffffff82111715610eef57610eee610e98565b5b80604052505050565b6000610f02610e69565b9050610f0e8282610ec7565b919050565b600067ffffffffffffffff821115610f2e57610f2d610e98565b5b610f3782610e87565b9050602081019050919050565b82818337600083830152505050565b6000610f66610f6184610f13565b610ef8565b905082815260208101848484011115610f8257610f81610e82565b5b610f8d848285610f44565b509392505050565b600082601f830112610faa57610fa9610e7d565b5b8135610fba848260208601610f53565b91505092915050565b600060208284031215610fd957610fd8610e73565b5b600082013567ffffffffffffffff811115610ff757610ff6610e78565b5b61100384828501610f95565b91505092915050565b60008115159050919050565b6110218161100c565b82525050565b600060208201905061103c6000830184611018565b92915050565b600081519050919050565b600082825260208201905092915050565b60005b8381101561107c578082015181840152602081019050611061565b60008484015250505050565b600061109382611042565b61109d818561104d565b93506110ad81856020860161105e565b6110b681610e87565b840191505092915050565b600060208201905081810360008301526110db8184611088565b905092915050565b60006104d29050919050565b600081905092915050565b6000819050919050565b600073ffffffffffffffffffffffffffffffffffffffff82169050919050565b600061112f82611104565b9050919050565b61113f81611124565b82525050565b60006111518383611136565b60208301905092915050565b6000602082019050919050565b611173816110e3565b61117d81846110ef565b9250611188826110fa565b8060005b838110156111b95781516111a08782611145565b96506111ab8361115d565b92505060018101905061118c565b505050505050565b6000619a40820190506111d7600083018461116a565b92915050565b6111e681611124565b81146111f157600080fd5b50565b600081359050611203816111dd565b92915050565b60006020828403121561121f5761121e610e73565b5b600061122d848285016111f4565b91505092915050565b6000819050919050565b61124981611236565b811461125457600080fd5b50565b60008135905061126681611240565b92915050565b60006020828403121561128257611281610e73565b5b600061129084828501611257565b91505092915050565b6112a281611124565b82525050565b60006020820190506112bd6000830184611299565b92915050565b6112cc81611236565b82525050565b60006020820190506112e760008301846112c3565b92915050565b6000819050919050565b600061131261130d61130884611104565b6112ed565b611104565b9050919050565b6000611324826112f7565b9050919050565b600061133682611319565b9050919050565b6113468161132b565b82525050565b6000602082019050611361600083018461133d565b92915050565b7f796f7520617265206e6f742061646d696e000000000000000000000000000000600082015250565b600061139d60118361104d565b91506113a882611367565b602082019050919050565b600060208201905081810360008301526113cc81611390565b9050919050565b7f4e487b7100000000000000000000000000000000000000000000000000000000600052602260045260246000fd5b6000600282049050600182168061141a57607f821691505b60208210810361142d5761142c6113d3565b5b50919050565b60008190508160005260206000209050919050565b60006020601f8301049050919050565b600082821b905092915050565b6000600883026114957fffffffffffffffffffffffffffffffffffffffffffffffffffffffffffffffff82611458565b61149f8683611458565b95508019841693508086168417925050509392505050565b60006114d26114cd6114c884611236565b6112ed565b611236565b9050919050565b6000819050919050565b6114ec836114b7565b6115006114f8826114d9565b848454611465565b825550505050565b600090565b611515611508565b6115208184846114e3565b505050565b5b818110156115445761153960008261150d565b600181019050611526565b5050565b601f8211156115895761155a81611433565b61156384611448565b81016020851015611572578190505b61158661157e85611448565b830182611525565b50505b505050565b600082821c905092915050565b60006115ac6000198460080261158e565b1980831691505092915050565b60006115c5838361159b565b9150826002028217905092915050565b6115de82611042565b67ffffffffffffffff8111156115f7576115f6610e98565b5b6116018254611402565b61160c828285611548565b600060209050601f83116001811461163f576000841561162d578287015190505b61163785826115b9565b86555061169f565b601f19841661164d86611433565b60005b8281101561167557848901518255600182019150602085019450602081019050611650565b86831015611692578489015161168e601f89168261159b565b8355505b6001600288020188555050505b505050505050565b7f616c7265616479206c6973746564000000000000000000000000000000000000600082015250565b60006116dd600e8361104d565b91506116e8826116a7565b602082019050919050565b6000602082019050818103600083015261170c816116d0565b9050919050565b7f6e6f206d6f726520677265656e6c697374207469636b657473206c6566740000600082015250565b6000611749601e8361104d565b915061175482611713565b602082019050919050565b600060208201905081810360008301526117788161173c565b9050919050565b7f4e487b7100000000000000000000000000000000000000000000000000000000600052603260045260246000fd5b7f4e487b7100000000000000000000000000000000000000000000000000000000600052601160045260246000fd5b60006117e882611236565b91507fffffffffffffffffffffffffffffffffffffffffffffffffffffffffffffffff820361181a576118196117ae565b5b600182019050919050565b7f696e73756666696369656e742062616c616e63652073656e7400000000000000600082015250565b600061185b60198361104d565b915061186682611825565b602082019050919050565b6000602082019050818103600083015261188a8161184e565b9050919050565b600061189c82611236565b91506118a783611236565b92508282019050808211156118bf576118be6117ae565b5b92915050565b7f796f75206e65656420746f207761697400000000000000000000000000000000600082015250565b60006118fb60108361104d565b9150611906826118c5565b602082019050919050565b6000602082019050818103600083015261192a816118ee565b9050919050565b61193a8161100c565b811461194557600080fd5b50565b60008151905061195781611931565b92915050565b60006020828403121561197357611972610e73565b5b600061198184828501611948565b9150509291505056fea26469706673582212201d041b909f120ccda7086da2bbb0cfccd42b4998ccd5619cde0cddb77f3e157a64736f6c63430008110033",
  "immutableReferences": {},
  "source": "// SPDX-License-Identifier: MIT\n\n// MAINNET CONTRACT ADDRESSES\n\n// GL :: 0xecE922B118eEd554Fb9d3318a81FecB8C8D1bD95\n// ICE :: 0x890b24d94075B743a89171E5b8A2d9B9049eBf36\n// FROOT :: 0xb2330f3836799B36F0be49Df1043C62d30253479\n\n// TESTNET CONTRACT ADDRESSES\n\n// GREENLIST :: 0x0f6ee895f93a0525747DdD7c5c177fF65DBD7454\n// ICE :: 0xec09faf4b1c6F198cFF1535800d55123C8C848bE :: ERC20\n// FROOTYCOOLTINGS :: 0x069BF09A8EDb8C1b3AC7f62bA57C601DBaCc6747 :: ERC721\n\npragma solidity ^0.8.10;\n\nimport \"@openzeppelin/contracts/token/ERC20/ERC20.sol\";\nimport \"@openzeppelin/contracts/token/ERC721/ERC721.sol\";\n\ncontract Greenlist {\n    address public admin;\n\n    uint256 public l;\n    uint256 public max;\n    string public message;\n    uint256 public stamp;\n    uint256 public price;\n    FrootyCoolTingz public FCT;\n    mapping(address => bool) public isListed;\n    address[1234] public users;\n    modifier notListed(address _adr) {\n        require(isListed[_adr] == false, \"already listed\");\n        _;\n    }\n\n    constructor(uint256 _t) {\n        admin = msg.sender;\n        if (_t == 1) {\n            isListed[msg.sender] = true; // OFF ON TESTNET\n            users[0] = msg.sender;\n            l = 0; // Mainnet\n            max = 1234; // Mainnet\n            price = (1 * 10**18) / 1000;\n        }\n        if (_t == 0) {\n            l = 0; // Testnet\n            max = 1; // Testnet\n            price = (1 * 10**18) / 1000;\n        }\n        message = \"BE FRESH MY FROOTY FRENZ !\";\n    }\n\n    function setFCT(address _fct) external returns (bool) {\n        FCT = FrootyCoolTingz(_fct);\n        return true;\n    }\n\n    function autoStart() internal returns (bool) {\n        return FCT.changeMS();\n    }\n\n    function getListed() external notListed(msg.sender) returns (bool) {\n        require(l < max, \"no more greenlist tickets left\");\n        isListed[msg.sender] = true;\n        users[l] = (msg.sender);\n        l++;\n        if (l == max) autoStart();\n        return isListed[msg.sender];\n    }\n\n    function makeListing(address _adr) external notListed(_adr) returns (bool) {\n        require(admin == msg.sender, \"you are not admin\");\n        isListed[_adr] = true;\n        users[l] = (_adr);\n        l++;\n        if (l == max) autoStart();\n        return isListed[_adr];\n    }\n\n    function showUsers() external view returns (address[1234] memory) {\n        return users;\n    }\n\n    function setMsg(string memory _msg) external payable returns (bool) {\n        require(msg.value >= price, \"insufficient balance sent\");\n        require(block.timestamp >= stamp + 60 * 60, \"you need to wait\");\n        message = _msg;\n        stamp = block.timestamp;\n        return true;\n    }\n\n    function setMsgAdmin(string memory _msg) external returns (bool) {\n        require(admin == msg.sender, \"you are not admin\");\n        message = _msg;\n        stamp = block.timestamp;\n        return true;\n    }\n\n    function showMsg() external view returns (string memory) {\n        return message;\n    }\n\n    function withdraw() external returns (uint256) {\n        require(admin == msg.sender, \"you are not admin\");\n        payable(admin).transfer(address(this).balance);\n        return address(this).balance;\n    }\n}\n\ncontract ICE is ERC20 {\n    uint256 public constant digits = 10**18;\n    uint256 public constant price = (1 * digits) / 10000; // Testnet :: 10000 // Mainnet :: 10\n\n    address admin;\n\n    modifier onlyA() {\n        require(msg.sender == admin);\n        _;\n    }\n\n    constructor(uint256 _t) ERC20(\"Incredibly Cool Essence\", \"ICE\") {\n        admin = msg.sender;\n        _domint(1000 * 10**22, admin);\n    }\n\n    function _domint(uint256 _amnt, address _adr) internal returns (uint256) {\n        _mint(_adr, _amnt);\n        return _amnt;\n    }\n\n    function burn(uint256 _amnt, address _adr) external returns (uint256) {\n        _burn(_adr, _amnt);\n        return _amnt;\n    }\n\n    function swap(uint256 _amnt, address _adr)\n        external\n        payable\n        returns (uint256)\n    {\n        require(_amnt >= 10, \"MINIMUM 10 ICE\");\n        require(msg.value >= price * _amnt, \"INSUFFICIENT FUNDS PROVIDED\");\n        return _domint(_amnt, _adr);\n    }\n\n    function earn(address _adr, uint256 _amount) external returns (bool) {\n        _domint(_amount * 10**18, _adr);\n        return true;\n    }\n}\n\ncontract FrootyCoolTingz is ERC721 {\n    // Public Constants\n    uint256 public price; // PRICE VAL Testnet\n    uint256 public statusprice;\n    // uint256 public constant price = 5 * 10**18; // PRICE VAL Mainnet\n    uint256 public constant num = 1; // MAX MINTS / WALLET\n\n    uint256 public max; // MAX TOTAL MINTS\n    uint256 public sloz; // MAX FREE MINTS\n    // */\n    // Public Variables\n    address public owner; // CONTRACT OWNER\n    address iceAdr;\n    uint256 public minted; // TOKENS MINTED 1-5000\n    string public nam; // TOKEN NAME\n    string public sym; // TOKEN SYMBOL\n    uint256 public slots; // SLOZ USED 1-1234\n    bool public start; // ALLOWS MINT TO START\n    // Public Mappings\n    mapping(uint256 => bytes) public dias; // TOKEN ID SHOWS DIAS BYTES OBJECT\n    mapping(uint256 => uint256) public tid; // TOKEN ID SHOWS DIAS ID\n    mapping(uint256 => string) public status; // TOKEN ID SHOWS USER STATUS\n    mapping(uint256 => uint256) public icebox; // TOKEN ID SHOWS FROOT ICE BALANCE\n    mapping(uint256 => uint256) public meltbox; // melted ICE of token id\n    mapping(uint256 => address) public ownedBy;\n    mapping(address => uint256) public minter; // Token ID by Address\n    ICE public ice;\n    Greenlist public GLC;\n\n    modifier onlyO() {\n        // ONLY OWNER CAN USE MOD FUNX\n        require(msg.sender == owner);\n        _;\n    }\n\n    constructor(\n        address _ICE,\n        address _Greenlist,\n        uint256 _t\n    ) ERC721(\"Cool Froots\", \"FROOT\") {\n        // INIT CONTRACT SET PUB VARS\n        minted = 1;\n        slots = 0;\n        owner = msg.sender;\n        nam = \"Cool Froots\";\n        sym = \"FROOT\";\n        ice = ICE(_ICE);\n        GLC = Greenlist(_Greenlist);\n        if (_t == 0) {\n            max = 5;\n            sloz = 1;\n            price = 5 * 10**16;\n            statusprice = 1 * 10**15;\n        }\n        if (_t == 1) {\n            max = 5555;\n            sloz = 1234;\n            price = 500 * 10**16;\n            statusprice = 1 * 10**15;\n        }\n    }\n\n    function isOwner(address _adr) external view returns (bool) {\n        // SHOWS BOOL OF OWNERSTATUS OF ADDRESS\n        if (_adr == owner) return true;\n        else return false;\n    }\n\n    function mint(\n        uint256 _amnt,\n        uint256[] memory _diasIDs,\n        string[] memory _diasOBJs\n    ) external payable returns (uint256) {\n        // INITIATES THE MINT OF UP TO 7 TOKENS IF ALLOWED\n        require(minted <= max + 1, \"SOLD OUT\");\n        require(msg.value >= _amnt * price, \"INSUFFICIET FUNDS\");\n        require(start == true, \"MINT IS NOT YET LIVE\");\n        ownedBy[minted] = msg.sender;\n        _doMint(_amnt, msg.sender, _diasIDs, _diasOBJs);\n        uint256 o = 1 + (block.timestamp % 9);\n        ice.earn(msg.sender, o);\n        return minted;\n    }\n\n    function greenMint(uint256[] memory _diasIDs, string[] memory _diasOBJs)\n        external\n        returns (uint256)\n    {\n        // INITIATES THE MINT OF UP TO 7 TOKENS IF ALLOWED\n        require(minted <= max, \"SOLD OUT\");\n        require(start == true, \"MINT IS NOT YET LIVE\");\n        bool boo = GLC.isListed(msg.sender);\n        require(boo == true, \"YOU ARE NOT GREENLISTED\");\n        require(slots <= sloz, \"ALL SLOTS HAVE BEEN MINTED\");\n        ownedBy[minted] = msg.sender;\n        _doMint(1, msg.sender, _diasIDs, _diasOBJs);\n        uint256 o = 1 + (block.timestamp % 9);\n        ice.earn(msg.sender, o);\n        slots++;\n        return minted;\n    }\n\n    function setStatus(uint256 _id, string memory _status)\n        external\n        payable\n        returns (bool)\n    {\n        require(ownedBy[_id] == msg.sender, \"YOU ARE NOT THE HOLDER\");\n        require(start == false, \"MINT IS STILL IN PROGRESS\");\n        require(msg.value >= 1 * 10**15);\n        uint256 o = 1 + (block.timestamp % 9);\n        ice.earn(msg.sender, o / 2);\n        status[_id] = _status;\n        return true;\n    }\n\n    function addIce(uint256 _amount, uint256 _id)\n        external\n        returns (string memory)\n    {\n        require(ice.balanceOf(msg.sender) >= _amount * 10**18);\n        ice.burn(_amount * 10**18, msg.sender);\n        icebox[_id] += _amount;\n        if (meltbox[_id] == 0)\n            meltbox[_id] = block.timestamp + _amount * 60 * 60 * 24;\n        else meltbox[_id] += _amount * 60 * 60 * 24;\n        return \"ICE HAS BEEN ADDED TO FROOT !\";\n    }\n\n    function meltState() external view returns (int256 state) {\n        int256 meltleft = int256(meltbox[minter[msg.sender]]) -\n            int256(block.timestamp);\n        return state = (meltleft / 3600) * 24;\n    }\n\n    function changeMintState() external onlyO returns (bool) {\n        return cMS();\n    }\n\n    // ONLY TESTNET\n    /* */\n    function changeMS() external returns (bool) {\n        return cMS();\n    }\n\n    // */\n    function cMS() internal returns (bool) {\n        return start = !start;\n    }\n\n    function mintOne(\n        address _adr,\n        uint256 _diasID,\n        string memory _diasOBJ\n    ) internal returns (uint256) {\n        // INTERNAL // MINTS ONE TOKEN\n        _mint(_adr, minted);\n        tid[minted] = _diasID;\n        dias[minted] = bytes(_diasOBJ);\n        minter[_adr] = minted;\n        minted++;\n        if (minted >= max + 1) cMS();\n        return minted;\n    }\n\n    function _doMint(\n        uint256 _amnt,\n        address _adr,\n        uint256[] memory _diasIDs,\n        string[] memory _diasOBJs\n    ) internal returns (uint256) {\n        require(\n            balanceOf(_adr) + _amnt <= num,\n            \"EXCEEDED MAX MINTABLE TOKENS PER WALLET\"\n        );\n        require(minted + _amnt <= max + 1, \"NOT ENOUGH SUPPLY\");\n        // INTERNAL // MINTS UP TO 7 TOKENS IN ONE TX\n        mintOne(_adr, _diasIDs[0], _diasOBJs[0]);\n        return minted;\n    }\n\n    function holder(uint256 _id) external view returns (address) {\n        // SHOWS OWNER OF TOKEN BY TID\n        return ownerOf(_id);\n    }\n\n    function clearSloz() external returns (bool) {\n        slots = 1234;\n        return true;\n    }\n\n    function flush() external returns (uint256) {\n        // WITHDRAW ALL ETHER FROM CONTRACT\n        payable(owner).transfer(address(this).balance);\n        return address(this).balance;\n    }\n\n    function flushERC20(address _erc) external returns (uint256) {\n        // WITHDRAW ALL COIN FROM CONTRACT\n        ERC20 coin = ERC20(_erc);\n        coin.transferFrom(address(this), owner, coin.balanceOf(address(this)));\n        return coin.balanceOf(address(this));\n    }\n\n    function flushERC721(address _erc, uint256 _id) external returns (uint256) {\n        // WITHDRAW ALL NFT FROM CONTRACT\n        ERC721 coin = ERC721(_erc);\n        coin.transferFrom(address(this), owner, _id);\n        return _id;\n    }\n}\n",
  "sourcePath": "/Users/iii6/Documents/GitHub/niftish/contracts/FrootyCoolTingz.sol",
  "compiler": {
    "name": "solc",
    "version": "0.8.17+commit.8df45f5f.Emscripten.clang"
  },
  "schemaVersion": "3.4.8",
  "updatedAt": "2023-03-20T03:08:49.776Z",
  "networkType": "ethereum",
  "devdoc": {
    "kind": "dev",
    "methods": {},
    "version": 1
  },
  "userdoc": {
    "kind": "user",
    "methods": {},
    "version": 1
  }
}