{
  "contractName": "Greenlist",
  "abi": [
    {
      "inputs": [],
      "stateMutability": "nonpayable",
      "type": "constructor"
    },
    {
      "inputs": [
        {
          "internalType": "address",
          "name": "",
          "type": "address"
        }
      ],
      "name": "isListed",
      "outputs": [
        {
          "internalType": "bool",
          "name": "",
          "type": "bool"
        }
      ],
      "stateMutability": "view",
      "type": "function"
    },
    {
      "inputs": [
        {
          "internalType": "uint256",
          "name": "",
          "type": "uint256"
        }
      ],
      "name": "users",
      "outputs": [
        {
          "internalType": "address",
          "name": "",
          "type": "address"
        }
      ],
      "stateMutability": "view",
      "type": "function"
    },
    {
      "inputs": [],
      "name": "getListed",
      "outputs": [
        {
          "internalType": "bool",
          "name": "",
          "type": "bool"
        }
      ],
      "stateMutability": "nonpayable",
      "type": "function"
    },
    {
      "inputs": [],
      "name": "showUsers",
      "outputs": [
        {
          "internalType": "address[250]",
          "name": "",
          "type": "address[250]"
        }
      ],
      "stateMutability": "view",
      "type": "function"
    },
    {
      "inputs": [
        {
          "internalType": "string",
          "name": "_msg",
          "type": "string"
        }
      ],
      "name": "setMsg",
      "outputs": [
        {
          "internalType": "bool",
          "name": "",
          "type": "bool"
        }
      ],
      "stateMutability": "payable",
      "type": "function"
    },
    {
      "inputs": [],
      "name": "showMsg",
      "outputs": [
        {
          "internalType": "string",
          "name": "",
          "type": "string"
        }
      ],
      "stateMutability": "view",
      "type": "function"
    },
    {
      "inputs": [],
      "name": "withdraw",
      "outputs": [
        {
          "internalType": "uint256",
          "name": "",
          "type": "uint256"
        }
      ],
      "stateMutability": "nonpayable",
      "type": "function"
    }
  ],
  "bytecode": "0x60806040523480156200001157600080fd5b50336000806101000a81548173ffffffffffffffffffffffffffffffffffffffff021916908373ffffffffffffffffffffffffffffffffffffffff160217905550336006600060fa81106200006b576200006a62000106565b5b0160006101000a81548173ffffffffffffffffffffffffffffffffffffffff021916908373ffffffffffffffffffffffffffffffffffffffff1602179055506040518060400160405280601a81526020017f4245204652455348204d5920465255495459204652454e5a202100000000000081525060039081620000f09190620003af565b506001808190555060fa60028190555062000496565b7f4e487b7100000000000000000000000000000000000000000000000000000000600052603260045260246000fd5b600081519050919050565b7f4e487b7100000000000000000000000000000000000000000000000000000000600052604160045260246000fd5b7f4e487b7100000000000000000000000000000000000000000000000000000000600052602260045260246000fd5b60006002820490506001821680620001b757607f821691505b602082108103620001cd57620001cc6200016f565b5b50919050565b60008190508160005260206000209050919050565b60006020601f8301049050919050565b600082821b905092915050565b600060088302620002377fffffffffffffffffffffffffffffffffffffffffffffffffffffffffffffffff82620001f8565b620002438683620001f8565b95508019841693508086168417925050509392505050565b6000819050919050565b6000819050919050565b6000620002906200028a62000284846200025b565b62000265565b6200025b565b9050919050565b6000819050919050565b620002ac836200026f565b620002c4620002bb8262000297565b84845462000205565b825550505050565b600090565b620002db620002cc565b620002e8818484620002a1565b505050565b5b81811015620003105762000304600082620002d1565b600181019050620002ee565b5050565b601f8211156200035f576200032981620001d3565b6200033484620001e8565b8101602085101562000344578190505b6200035c6200035385620001e8565b830182620002ed565b50505b505050565b600082821c905092915050565b6000620003846000198460080262000364565b1980831691505092915050565b60006200039f838362000371565b9150826002028217905092915050565b620003ba8262000135565b67ffffffffffffffff811115620003d657620003d562000140565b5b620003e282546200019e565b620003ef82828562000314565b600060209050601f83116001811462000427576000841562000412578287015190505b6200041e858262000391565b8655506200048e565b601f1984166200043786620001d3565b60005b8281101562000461578489015182556001820191506020850194506020810190506200043a565b868310156200048157848901516200047d601f89168262000371565b8355505b6001600288020188555050505b505050505050565b61119280620004a66000396000f3fe6080604052600436106100705760003560e01c80633ccfd60b1161004e5780633ccfd60b1461010857806377b3cc9a14610133578063c4784fd41461015e578063f794062e1461018e57610070565b80632a0c74d414610075578063329dd364146100a0578063365b98b2146100cb575b600080fd5b34801561008157600080fd5b5061008a6101cb565b6040516100979190610795565b60405180910390f35b3480156100ac57600080fd5b506100b561025d565b6040516100c29190610894565b60405180910390f35b3480156100d757600080fd5b506100f260048036038101906100ed91906108fa565b6102de565b6040516100ff9190610936565b60405180910390f35b34801561011457600080fd5b5061011d610314565b60405161012a9190610960565b60405180910390f35b34801561013f57600080fd5b50610148610411565b6040516101559190610996565b60405180910390f35b61017860048036038101906101739190610ae6565b610603565b6040516101859190610996565b60405180910390f35b34801561019a57600080fd5b506101b560048036038101906101b09190610b5b565b6106c2565b6040516101c29190610996565b60405180910390f35b6060600380546101da90610bb7565b80601f016020809104026020016040519081016040528092919081815260200182805461020690610bb7565b80156102535780601f1061022857610100808354040283529160200191610253565b820191906000526020600020905b81548152906001019060200180831161023657829003601f168201915b5050505050905090565b6102656106e2565b600660fa80602002604051908101604052809291908260fa80156102d4576020028201915b8160009054906101000a900473ffffffffffffffffffffffffffffffffffffffff1673ffffffffffffffffffffffffffffffffffffffff168152602001906001019080831161028a575b5050505050905090565b60068160fa81106102ee57600080fd5b016000915054906101000a900473ffffffffffffffffffffffffffffffffffffffff1681565b60003373ffffffffffffffffffffffffffffffffffffffff1660008054906101000a900473ffffffffffffffffffffffffffffffffffffffff1673ffffffffffffffffffffffffffffffffffffffff16146103a4576040517f08c379a000000000000000000000000000000000000000000000000000000000815260040161039b90610c34565b60405180910390fd5b60008054906101000a900473ffffffffffffffffffffffffffffffffffffffff1673ffffffffffffffffffffffffffffffffffffffff166108fc479081150290604051600060405180830381858888f1935050505015801561040a573d6000803e3d6000fd5b5047905090565b6000801515600560003373ffffffffffffffffffffffffffffffffffffffff1673ffffffffffffffffffffffffffffffffffffffff16815260200190815260200160002060009054906101000a900460ff161515146104a5576040517f08c379a000000000000000000000000000000000000000000000000000000000815260040161049c90610ca0565b60405180910390fd5b600254600154106104eb576040517f08c379a00000000000000000000000000000000000000000000000000000000081526004016104e290610d0c565b60405180910390fd5b6001600560003373ffffffffffffffffffffffffffffffffffffffff1673ffffffffffffffffffffffffffffffffffffffff16815260200190815260200160002060006101000a81548160ff02191690831515021790555033600660015460fa811061055a57610559610d2c565b5b0160006101000a81548173ffffffffffffffffffffffffffffffffffffffff021916908373ffffffffffffffffffffffffffffffffffffffff160217905550600160008154809291906105ac90610d8a565b9190505550600560003373ffffffffffffffffffffffffffffffffffffffff1673ffffffffffffffffffffffffffffffffffffffff16815260200190815260200160002060009054906101000a900460ff16905090565b6000670de0b6b3a7640000341115610650576040517f08c379a000000000000000000000000000000000000000000000000000000000815260040161064790610e1e565b60405180910390fd5b610e106004546106609190610e3e565b4210156106a2576040517f08c379a000000000000000000000000000000000000000000000000000000000815260040161069990610ebe565b60405180910390fd5b81600390816106b1919061108a565b504260048190555060019050919050565b60056020528060005260406000206000915054906101000a900460ff1681565b60405180611f40016040528060fa90602082028036833780820191505090505090565b600081519050919050565b600082825260208201905092915050565b60005b8381101561073f578082015181840152602081019050610724565b60008484015250505050565b6000601f19601f8301169050919050565b600061076782610705565b6107718185610710565b9350610781818560208601610721565b61078a8161074b565b840191505092915050565b600060208201905081810360008301526107af818461075c565b905092915050565b600060fa9050919050565b600081905092915050565b6000819050919050565b600073ffffffffffffffffffffffffffffffffffffffff82169050919050565b6000610802826107d7565b9050919050565b610812816107f7565b82525050565b60006108248383610809565b60208301905092915050565b6000602082019050919050565b610846816107b7565b61085081846107c2565b925061085b826107cd565b8060005b8381101561088c5781516108738782610818565b965061087e83610830565b92505060018101905061085f565b505050505050565b6000611f40820190506108aa600083018461083d565b92915050565b6000604051905090565b600080fd5b600080fd5b6000819050919050565b6108d7816108c4565b81146108e257600080fd5b50565b6000813590506108f4816108ce565b92915050565b6000602082840312156109105761090f6108ba565b5b600061091e848285016108e5565b91505092915050565b610930816107f7565b82525050565b600060208201905061094b6000830184610927565b92915050565b61095a816108c4565b82525050565b60006020820190506109756000830184610951565b92915050565b60008115159050919050565b6109908161097b565b82525050565b60006020820190506109ab6000830184610987565b92915050565b600080fd5b600080fd5b7f4e487b7100000000000000000000000000000000000000000000000000000000600052604160045260246000fd5b6109f38261074b565b810181811067ffffffffffffffff82111715610a1257610a116109bb565b5b80604052505050565b6000610a256108b0565b9050610a3182826109ea565b919050565b600067ffffffffffffffff821115610a5157610a506109bb565b5b610a5a8261074b565b9050602081019050919050565b82818337600083830152505050565b6000610a89610a8484610a36565b610a1b565b905082815260208101848484011115610aa557610aa46109b6565b5b610ab0848285610a67565b509392505050565b600082601f830112610acd57610acc6109b1565b5b8135610add848260208601610a76565b91505092915050565b600060208284031215610afc57610afb6108ba565b5b600082013567ffffffffffffffff811115610b1a57610b196108bf565b5b610b2684828501610ab8565b91505092915050565b610b38816107f7565b8114610b4357600080fd5b50565b600081359050610b5581610b2f565b92915050565b600060208284031215610b7157610b706108ba565b5b6000610b7f84828501610b46565b91505092915050565b7f4e487b7100000000000000000000000000000000000000000000000000000000600052602260045260246000fd5b60006002820490506001821680610bcf57607f821691505b602082108103610be257610be1610b88565b5b50919050565b7f796f7520617265206e6f742061646d696e000000000000000000000000000000600082015250565b6000610c1e601183610710565b9150610c2982610be8565b602082019050919050565b60006020820190508181036000830152610c4d81610c11565b9050919050565b7f616c7265616479206c6973746564000000000000000000000000000000000000600082015250565b6000610c8a600e83610710565b9150610c9582610c54565b602082019050919050565b60006020820190508181036000830152610cb981610c7d565b9050919050565b7f6e6f206d6f726520677265656e6c697374207469636b657473206c6566740000600082015250565b6000610cf6601e83610710565b9150610d0182610cc0565b602082019050919050565b60006020820190508181036000830152610d2581610ce9565b9050919050565b7f4e487b7100000000000000000000000000000000000000000000000000000000600052603260045260246000fd5b7f4e487b7100000000000000000000000000000000000000000000000000000000600052601160045260246000fd5b6000610d95826108c4565b91507fffffffffffffffffffffffffffffffffffffffffffffffffffffffffffffffff8203610dc757610dc6610d5b565b5b600182019050919050565b7f696e73756666696369656e742062616c616e63652073656e7400000000000000600082015250565b6000610e08601983610710565b9150610e1382610dd2565b602082019050919050565b60006020820190508181036000830152610e3781610dfb565b9050919050565b6000610e49826108c4565b9150610e54836108c4565b9250828201905080821115610e6c57610e6b610d5b565b5b92915050565b7f796f75206e65656420746f207761697400000000000000000000000000000000600082015250565b6000610ea8601083610710565b9150610eb382610e72565b602082019050919050565b60006020820190508181036000830152610ed781610e9b565b9050919050565b60008190508160005260206000209050919050565b60006020601f8301049050919050565b600082821b905092915050565b600060088302610f407fffffffffffffffffffffffffffffffffffffffffffffffffffffffffffffffff82610f03565b610f4a8683610f03565b95508019841693508086168417925050509392505050565b6000819050919050565b6000610f87610f82610f7d846108c4565b610f62565b6108c4565b9050919050565b6000819050919050565b610fa183610f6c565b610fb5610fad82610f8e565b848454610f10565b825550505050565b600090565b610fca610fbd565b610fd5818484610f98565b505050565b5b81811015610ff957610fee600082610fc2565b600181019050610fdb565b5050565b601f82111561103e5761100f81610ede565b61101884610ef3565b81016020851015611027578190505b61103b61103385610ef3565b830182610fda565b50505b505050565b600082821c905092915050565b600061106160001984600802611043565b1980831691505092915050565b600061107a8383611050565b9150826002028217905092915050565b61109382610705565b67ffffffffffffffff8111156110ac576110ab6109bb565b5b6110b68254610bb7565b6110c1828285610ffd565b600060209050601f8311600181146110f457600084156110e2578287015190505b6110ec858261106e565b865550611154565b601f19841661110286610ede565b60005b8281101561112a57848901518255600182019150602085019450602081019050611105565b868310156111475784890151611143601f891682611050565b8355505b6001600288020188555050505b50505050505056fea26469706673582212200385d06ed98a77f59cd6e9e46f00f3a05e86979a54d1b28d0bb60b2efcdf465664736f6c63430008100033",
  "immutableReferences": {},
  "source": "// SPDX-License-Identifier: MIT\npragma solidity ^0.8.10;\n\ncontract Greenlist {\n    address admin;\n\n    uint256 l;\n    uint256 max;\n    string message;\n    uint256 stamp;\n\n    mapping(address => bool) public isListed;\n    address[250] public users;\n    modifier notListed() {\n        require(isListed[msg.sender] == false, \"already listed\");\n        _;\n    }\n\n    constructor() {\n        admin = msg.sender;\n        users[0] = msg.sender;\n        message = \"BE FRESH MY FRUITY FRENZ !\";\n        l = 1;\n        max = 250;\n    }\n\n    function getListed() external notListed returns (bool) {\n        require(l < max, \"no more greenlist tickets left\");\n        isListed[msg.sender] = true;\n        users[l] = (msg.sender);\n        l++;\n        return isListed[msg.sender];\n    }\n\n    function showUsers() external view returns (address[250] memory) {\n        return users;\n    }\n\n    function setMsg(string memory _msg) external payable returns (bool) {\n        require(msg.value <= 1 * 10**18, \"insufficient balance sent\");\n        require(block.timestamp >= stamp + 60 * 60, \"you need to wait\");\n        message = _msg;\n        stamp = block.timestamp;\n        return true;\n    }\n\n    function showMsg() external view returns (string memory) {\n        return message;\n    }\n\n    function withdraw() external returns (uint256) {\n        require(admin == msg.sender, \"you are not admin\");\n        payable(admin).transfer(address(this).balance);\n        return address(this).balance;\n    }\n}\n",
  "sourcePath": "/Users/iii6/Documents/GitHub/niftish/contracts/Greenlist.sol",
  "compiler": {
    "name": "solc",
    "version": "0.8.16+commit.07a7930e.Emscripten.clang"
  },
  "schemaVersion": "3.4.8",
  "updatedAt": "2022-09-15T18:45:17.330Z",
  "devdoc": {
    "kind": "dev",
    "methods": {},
    "version": 1
  },
  "userdoc": {
    "kind": "user",
    "methods": {},
    "version": 1
  }
}