{
  "contractName": "Greenlist",
  "abi": [
    {
      "inputs": [
        {
          "internalType": "uint256",
          "name": "_t",
          "type": "uint256"
        }
      ],
      "stateMutability": "nonpayable",
      "type": "constructor"
    },
    {
      "inputs": [],
      "name": "FCT",
      "outputs": [
        {
          "internalType": "contract COOLFROOT",
          "name": "",
          "type": "address"
        }
      ],
      "stateMutability": "view",
      "type": "function"
    },
    {
      "inputs": [],
      "name": "admin",
      "outputs": [
        {
          "internalType": "address",
          "name": "",
          "type": "address"
        }
      ],
      "stateMutability": "view",
      "type": "function"
    },
    {
      "inputs": [],
      "name": "arb",
      "outputs": [
        {
          "internalType": "contract ERC20",
          "name": "",
          "type": "address"
        }
      ],
      "stateMutability": "view",
      "type": "function"
    },
    {
      "inputs": [],
      "name": "arbprice",
      "outputs": [
        {
          "internalType": "uint256",
          "name": "",
          "type": "uint256"
        }
      ],
      "stateMutability": "view",
      "type": "function"
    },
    {
      "inputs": [
        {
          "internalType": "address",
          "name": "",
          "type": "address"
        }
      ],
      "name": "isListed",
      "outputs": [
        {
          "internalType": "bool",
          "name": "",
          "type": "bool"
        }
      ],
      "stateMutability": "view",
      "type": "function"
    },
    {
      "inputs": [],
      "name": "l",
      "outputs": [
        {
          "internalType": "uint256",
          "name": "",
          "type": "uint256"
        }
      ],
      "stateMutability": "view",
      "type": "function"
    },
    {
      "inputs": [],
      "name": "max",
      "outputs": [
        {
          "internalType": "uint256",
          "name": "",
          "type": "uint256"
        }
      ],
      "stateMutability": "view",
      "type": "function"
    },
    {
      "inputs": [],
      "name": "message",
      "outputs": [
        {
          "internalType": "string",
          "name": "",
          "type": "string"
        }
      ],
      "stateMutability": "view",
      "type": "function"
    },
    {
      "inputs": [],
      "name": "msgprice",
      "outputs": [
        {
          "internalType": "uint256",
          "name": "",
          "type": "uint256"
        }
      ],
      "stateMutability": "view",
      "type": "function"
    },
    {
      "inputs": [],
      "name": "stamp",
      "outputs": [
        {
          "internalType": "uint256",
          "name": "",
          "type": "uint256"
        }
      ],
      "stateMutability": "view",
      "type": "function"
    },
    {
      "inputs": [
        {
          "internalType": "uint256",
          "name": "",
          "type": "uint256"
        }
      ],
      "name": "users",
      "outputs": [
        {
          "internalType": "address",
          "name": "",
          "type": "address"
        }
      ],
      "stateMutability": "view",
      "type": "function"
    },
    {
      "inputs": [
        {
          "internalType": "address",
          "name": "_fct",
          "type": "address"
        }
      ],
      "name": "setFCT",
      "outputs": [
        {
          "internalType": "bool",
          "name": "",
          "type": "bool"
        }
      ],
      "stateMutability": "nonpayable",
      "type": "function"
    },
    {
      "inputs": [
        {
          "internalType": "address",
          "name": "_arb",
          "type": "address"
        }
      ],
      "name": "setARB",
      "outputs": [],
      "stateMutability": "nonpayable",
      "type": "function"
    },
    {
      "inputs": [],
      "name": "getListed",
      "outputs": [
        {
          "internalType": "bool",
          "name": "",
          "type": "bool"
        }
      ],
      "stateMutability": "nonpayable",
      "type": "function"
    },
    {
      "inputs": [
        {
          "internalType": "address",
          "name": "_adr",
          "type": "address"
        }
      ],
      "name": "makeListing",
      "outputs": [
        {
          "internalType": "bool",
          "name": "",
          "type": "bool"
        }
      ],
      "stateMutability": "nonpayable",
      "type": "function"
    },
    {
      "inputs": [],
      "name": "showUsers",
      "outputs": [
        {
          "internalType": "address[1234]",
          "name": "",
          "type": "address[1234]"
        }
      ],
      "stateMutability": "view",
      "type": "function"
    },
    {
      "inputs": [
        {
          "internalType": "string",
          "name": "_msg",
          "type": "string"
        }
      ],
      "name": "setMsg",
      "outputs": [
        {
          "internalType": "bool",
          "name": "",
          "type": "bool"
        }
      ],
      "stateMutability": "payable",
      "type": "function"
    },
    {
      "inputs": [
        {
          "internalType": "string",
          "name": "_msg",
          "type": "string"
        }
      ],
      "name": "setArbMsg",
      "outputs": [
        {
          "internalType": "bool",
          "name": "",
          "type": "bool"
        }
      ],
      "stateMutability": "nonpayable",
      "type": "function"
    },
    {
      "inputs": [
        {
          "internalType": "string",
          "name": "_msg",
          "type": "string"
        }
      ],
      "name": "setMsgAdmin",
      "outputs": [
        {
          "internalType": "bool",
          "name": "",
          "type": "bool"
        }
      ],
      "stateMutability": "nonpayable",
      "type": "function"
    },
    {
      "inputs": [],
      "name": "showMsg",
      "outputs": [
        {
          "internalType": "string",
          "name": "",
          "type": "string"
        }
      ],
      "stateMutability": "view",
      "type": "function"
    },
    {
      "inputs": [],
      "name": "withdraw",
      "outputs": [
        {
          "internalType": "uint256",
          "name": "",
          "type": "uint256"
        }
      ],
      "stateMutability": "nonpayable",
      "type": "function"
    }
  ],
  "bytecode": "0x60806040523480156200001157600080fd5b50604051620027b9380380620027b9833981810160405281019062000037919062000296565b336000806101000a81548173ffffffffffffffffffffffffffffffffffffffff021916908373ffffffffffffffffffffffffffffffffffffffff16021790555060008103620000ee57600060018190555060016002819055506103e8670de0b6b3a76400006001620000aa9190620002f7565b620000b6919062000371565b6005819055506103e8670de0b6b3a76400006001620000d69190620002f7565b620000e2919062000371565b60068190555062000208565b6001600960003373ffffffffffffffffffffffffffffffffffffffff1673ffffffffffffffffffffffffffffffffffffffff16815260200190815260200160002060006101000a81548160ff02191690831515021790555033600a60006104d2811062000160576200015f620003a9565b5b0160006101000a81548173ffffffffffffffffffffffffffffffffffffffff021916908373ffffffffffffffffffffffffffffffffffffffff16021790555060006001819055506104d26002819055506103e8670de0b6b3a76400006001620001ca9190620002f7565b620001d6919062000371565b600581905550600a670de0b6b3a76400006001620001f59190620002f7565b62000201919062000371565b6006819055505b6040518060400160405280601481526020017f47455420552041202346524f4f54204e4f572021000000000000000000000000815250600390816200024e919062000648565b50506200072f565b600080fd5b6000819050919050565b62000270816200025b565b81146200027c57600080fd5b50565b600081519050620002908162000265565b92915050565b600060208284031215620002af57620002ae62000256565b5b6000620002bf848285016200027f565b91505092915050565b7f4e487b7100000000000000000000000000000000000000000000000000000000600052601160045260246000fd5b600062000304826200025b565b915062000311836200025b565b925082820262000321816200025b565b915082820484148315176200033b576200033a620002c8565b5b5092915050565b7f4e487b7100000000000000000000000000000000000000000000000000000000600052601260045260246000fd5b60006200037e826200025b565b91506200038b836200025b565b9250826200039e576200039d62000342565b5b828204905092915050565b7f4e487b7100000000000000000000000000000000000000000000000000000000600052603260045260246000fd5b600081519050919050565b7f4e487b7100000000000000000000000000000000000000000000000000000000600052604160045260246000fd5b7f4e487b7100000000000000000000000000000000000000000000000000000000600052602260045260246000fd5b600060028204905060018216806200045a57607f821691505b60208210810362000470576200046f62000412565b5b50919050565b60008190508160005260206000209050919050565b60006020601f8301049050919050565b600082821b905092915050565b600060088302620004da7fffffffffffffffffffffffffffffffffffffffffffffffffffffffffffffffff826200049b565b620004e686836200049b565b95508019841693508086168417925050509392505050565b6000819050919050565b600062000529620005236200051d846200025b565b620004fe565b6200025b565b9050919050565b6000819050919050565b620005458362000508565b6200055d620005548262000530565b848454620004a8565b825550505050565b600090565b6200057462000565565b620005818184846200053a565b505050565b5b81811015620005a9576200059d6000826200056a565b60018101905062000587565b5050565b601f821115620005f857620005c28162000476565b620005cd846200048b565b81016020851015620005dd578190505b620005f5620005ec856200048b565b83018262000586565b50505b505050565b600082821c905092915050565b60006200061d60001984600802620005fd565b1980831691505092915050565b60006200063883836200060a565b9150826002028217905092915050565b6200065382620003d8565b67ffffffffffffffff8111156200066f576200066e620003e3565b5b6200067b825462000441565b62000688828285620005ad565b600060209050601f831160018114620006c05760008415620006ab578287015190505b620006b785826200062a565b86555062000727565b601f198416620006d08662000476565b60005b82811015620006fa57848901518255600182019150602085019450602081019050620006d3565b868310156200071a578489015162000716601f8916826200060a565b8355505b6001600288020188555050505b505050505050565b61207a806200073f6000396000f3fe60806040526004361061012a5760003560e01c806385dbc0c5116100ab578063cc87ec5f1161006f578063cc87ec5f146103ff578063e21f37ce1461043c578063e3c44ff714610467578063ece866b914610492578063f794062e146104bd578063f851a440146104fa5761012a565b806385dbc0c514610323578063a42ca24e1461034e578063acb5fedf14610379578063c4784fd4146103a4578063c85e07b9146103d45761012a565b8063365b98b2116100f2578063365b98b21461023c5780633ccfd60b146102795780636ac5db19146102a457806377b3cc9a146102cf5780637cbca3e0146102fa5761012a565b8063161dbc141461012f578063161dd1381461016c5780632a0c74d4146101a9578063329dd364146101d4578063359e0bd1146101ff575b600080fd5b34801561013b57600080fd5b50610156600480360381019061015191906114c1565b610525565b6040516101639190611525565b60405180910390f35b34801561017857600080fd5b50610193600480360381019061018e91906114c1565b6105a0565b6040516101a09190611525565b60405180910390f35b3480156101b557600080fd5b506101be6108a6565b6040516101cb91906115bf565b60405180910390f35b3480156101e057600080fd5b506101e9610938565b6040516101f691906116bf565b60405180910390f35b34801561020b57600080fd5b5061022660048036038101906102219190611707565b6109bb565b6040516102339190611525565b60405180910390f35b34801561024857600080fd5b50610263600480360381019061025e919061176a565b610a60565b60405161027091906117a6565b60405180910390f35b34801561028557600080fd5b5061028e610a97565b60405161029b91906117d0565b60405180910390f35b3480156102b057600080fd5b506102b9610bee565b6040516102c691906117d0565b60405180910390f35b3480156102db57600080fd5b506102e4610bf4565b6040516102f19190611525565b60405180910390f35b34801561030657600080fd5b50610321600480360381019061031c9190611707565b610dff565b005b34801561032f57600080fd5b50610338610e9b565b604051610345919061184a565b60405180910390f35b34801561035a57600080fd5b50610363610ec1565b60405161037091906117d0565b60405180910390f35b34801561038557600080fd5b5061038e610ec7565b60405161039b9190611886565b60405180910390f35b6103be60048036038101906103b991906114c1565b610eed565b6040516103cb9190611525565b60405180910390f35b3480156103e057600080fd5b506103e9610fa6565b6040516103f691906117d0565b60405180910390f35b34801561040b57600080fd5b5061042660048036038101906104219190611707565b610fac565b6040516104339190611525565b60405180910390f35b34801561044857600080fd5b506104516111cb565b60405161045e91906115bf565b60405180910390f35b34801561047357600080fd5b5061047c611259565b60405161048991906117d0565b60405180910390f35b34801561049e57600080fd5b506104a761125f565b6040516104b491906117d0565b60405180910390f35b3480156104c957600080fd5b506104e460048036038101906104df9190611707565b611265565b6040516104f19190611525565b60405180910390f35b34801561050657600080fd5b5061050f611285565b60405161051c91906117a6565b60405180910390f35b60008060009054906101000a900473ffffffffffffffffffffffffffffffffffffffff1673ffffffffffffffffffffffffffffffffffffffff163373ffffffffffffffffffffffffffffffffffffffff161461058057600080fd5b816003908161058f9190611aa3565b504260048190555060019050919050565b6000600654600760009054906101000a900473ffffffffffffffffffffffffffffffffffffffff1673ffffffffffffffffffffffffffffffffffffffff166370a08231336040518263ffffffff1660e01b815260040161060091906117a6565b602060405180830381865afa15801561061d573d6000803e3d6000fd5b505050506040513d601f19601f820116820180604052508101906106419190611b8a565b1015610682576040517f08c379a000000000000000000000000000000000000000000000000000000000815260040161067990611c03565b60405180910390fd5b60006064806006546106949190611c52565b6006546106a19190611cb2565b6106ab9190611ce6565b9050600760009054906101000a900473ffffffffffffffffffffffffffffffffffffffff1673ffffffffffffffffffffffffffffffffffffffff166323b872dd337379e205680908c03047e3f3a4e63fd192ff4cf409605a8561070e9190611d17565b6040518463ffffffff1660e01b815260040161072c93929190611d59565b6020604051808303816000875af115801561074b573d6000803e3d6000fd5b505050506040513d601f19601f8201168201806040525081019061076f9190611dbc565b50600760009054906101000a900473ffffffffffffffffffffffffffffffffffffffff1673ffffffffffffffffffffffffffffffffffffffff166323b872dd3373b4ab6acfc8de6bc53cc696b902e59274d288d3e8600a856107d19190611d17565b6040518463ffffffff1660e01b81526004016107ef93929190611d59565b6020604051808303816000875af115801561080e573d6000803e3d6000fd5b505050506040513d601f19601f820116820180604052508101906108329190611dbc565b50610e106004546108439190611de9565b421015610885576040517f08c379a000000000000000000000000000000000000000000000000000000000815260040161087c90611e69565b60405180910390fd5b82600390816108949190611aa3565b50426004819055506001915050919050565b6060600380546108b5906118d0565b80601f01602080910402602001604051908101604052809291908181526020018280546108e1906118d0565b801561092e5780601f106109035761010080835404028352916020019161092e565b820191906000526020600020905b81548152906001019060200180831161091157829003601f168201915b5050505050905090565b610940611343565b600a6104d28060200260405190810160405280929190826104d280156109b1576020028201915b8160009054906101000a900473ffffffffffffffffffffffffffffffffffffffff1673ffffffffffffffffffffffffffffffffffffffff1681526020019060010190808311610967575b5050505050905090565b60008060009054906101000a900473ffffffffffffffffffffffffffffffffffffffff1673ffffffffffffffffffffffffffffffffffffffff163373ffffffffffffffffffffffffffffffffffffffff1614610a1657600080fd5b81600860006101000a81548173ffffffffffffffffffffffffffffffffffffffff021916908373ffffffffffffffffffffffffffffffffffffffff16021790555060019050919050565b600a816104d28110610a7157600080fd5b016000915054906101000a900473ffffffffffffffffffffffffffffffffffffffff1681565b60008060009054906101000a900473ffffffffffffffffffffffffffffffffffffffff1673ffffffffffffffffffffffffffffffffffffffff163373ffffffffffffffffffffffffffffffffffffffff1614610af257600080fd5b600060648047610b029190611c52565b47610b0d9190611cb2565b610b179190611ce6565b90507379e205680908c03047e3f3a4e63fd192ff4cf40973ffffffffffffffffffffffffffffffffffffffff166108fc605a83610b549190611d17565b9081150290604051600060405180830381858888f19350505050158015610b7f573d6000803e3d6000fd5b5073b4ab6acfc8de6bc53cc696b902e59274d288d3e873ffffffffffffffffffffffffffffffffffffffff166108fc600a83610bbb9190611d17565b9081150290604051600060405180830381858888f19350505050158015610be6573d6000803e3d6000fd5b504791505090565b60025481565b60003360001515600960008373ffffffffffffffffffffffffffffffffffffffff1673ffffffffffffffffffffffffffffffffffffffff16815260200190815260200160002060009054906101000a900460ff16151514610c8a576040517f08c379a0000000000000000000000000000000000000000000000000000000008152600401610c8190611ed5565b60405180910390fd5b60025460015410610cd0576040517f08c379a0000000000000000000000000000000000000000000000000000000008152600401610cc790611f41565b60405180910390fd5b6001600960003373ffffffffffffffffffffffffffffffffffffffff1673ffffffffffffffffffffffffffffffffffffffff16815260200190815260200160002060006101000a81548160ff02191690831515021790555033600a6001546104d28110610d4057610d3f611f61565b5b0160006101000a81548173ffffffffffffffffffffffffffffffffffffffff021916908373ffffffffffffffffffffffffffffffffffffffff16021790555060016000815480929190610d9290611f90565b919050555060025460015403610dac57610daa6112a9565b505b600960003373ffffffffffffffffffffffffffffffffffffffff1673ffffffffffffffffffffffffffffffffffffffff16815260200190815260200160002060009054906101000a900460ff1691505090565b60008054906101000a900473ffffffffffffffffffffffffffffffffffffffff1673ffffffffffffffffffffffffffffffffffffffff163373ffffffffffffffffffffffffffffffffffffffff1614610e5757600080fd5b80600760006101000a81548173ffffffffffffffffffffffffffffffffffffffff021916908373ffffffffffffffffffffffffffffffffffffffff16021790555050565b600860009054906101000a900473ffffffffffffffffffffffffffffffffffffffff1681565b60055481565b600760009054906101000a900473ffffffffffffffffffffffffffffffffffffffff1681565b6000600554341015610f34576040517f08c379a0000000000000000000000000000000000000000000000000000000008152600401610f2b90612024565b60405180910390fd5b610e10600454610f449190611de9565b421015610f86576040517f08c379a0000000000000000000000000000000000000000000000000000000008152600401610f7d90611e69565b60405180910390fd5b8160039081610f959190611aa3565b504260048190555060019050919050565b60045481565b60008160001515600960008373ffffffffffffffffffffffffffffffffffffffff1673ffffffffffffffffffffffffffffffffffffffff16815260200190815260200160002060009054906101000a900460ff16151514611042576040517f08c379a000000000000000000000000000000000000000000000000000000000815260040161103990611ed5565b60405180910390fd5b60008054906101000a900473ffffffffffffffffffffffffffffffffffffffff1673ffffffffffffffffffffffffffffffffffffffff163373ffffffffffffffffffffffffffffffffffffffff161461109a57600080fd5b6001600960008573ffffffffffffffffffffffffffffffffffffffff1673ffffffffffffffffffffffffffffffffffffffff16815260200190815260200160002060006101000a81548160ff02191690831515021790555082600a6001546104d2811061110a57611109611f61565b5b0160006101000a81548173ffffffffffffffffffffffffffffffffffffffff021916908373ffffffffffffffffffffffffffffffffffffffff1602179055506001600081548092919061115c90611f90565b919050555060025460015403611176576111746112a9565b505b600960008473ffffffffffffffffffffffffffffffffffffffff1673ffffffffffffffffffffffffffffffffffffffff16815260200190815260200160002060009054906101000a900460ff16915050919050565b600380546111d8906118d0565b80601f0160208091040260200160405190810160405280929190818152602001828054611204906118d0565b80156112515780601f1061122657610100808354040283529160200191611251565b820191906000526020600020905b81548152906001019060200180831161123457829003601f168201915b505050505081565b60065481565b60015481565b60096020528060005260406000206000915054906101000a900460ff1681565b60008054906101000a900473ffffffffffffffffffffffffffffffffffffffff1681565b6000600860009054906101000a900473ffffffffffffffffffffffffffffffffffffffff1673ffffffffffffffffffffffffffffffffffffffff16633b8d676f6040518163ffffffff1660e01b81526004016020604051808303816000875af115801561131a573d6000803e3d6000fd5b505050506040513d601f19601f8201168201806040525081019061133e9190611dbc565b905090565b60405180619a4001604052806104d290602082028036833780820191505090505090565b6000604051905090565b600080fd5b600080fd5b600080fd5b600080fd5b6000601f19601f8301169050919050565b7f4e487b7100000000000000000000000000000000000000000000000000000000600052604160045260246000fd5b6113ce82611385565b810181811067ffffffffffffffff821117156113ed576113ec611396565b5b80604052505050565b6000611400611367565b905061140c82826113c5565b919050565b600067ffffffffffffffff82111561142c5761142b611396565b5b61143582611385565b9050602081019050919050565b82818337600083830152505050565b600061146461145f84611411565b6113f6565b9050828152602081018484840111156114805761147f611380565b5b61148b848285611442565b509392505050565b600082601f8301126114a8576114a761137b565b5b81356114b8848260208601611451565b91505092915050565b6000602082840312156114d7576114d6611371565b5b600082013567ffffffffffffffff8111156114f5576114f4611376565b5b61150184828501611493565b91505092915050565b60008115159050919050565b61151f8161150a565b82525050565b600060208201905061153a6000830184611516565b92915050565b600081519050919050565b600082825260208201905092915050565b60005b8381101561157a57808201518184015260208101905061155f565b60008484015250505050565b600061159182611540565b61159b818561154b565b93506115ab81856020860161155c565b6115b481611385565b840191505092915050565b600060208201905081810360008301526115d98184611586565b905092915050565b60006104d29050919050565b600081905092915050565b6000819050919050565b600073ffffffffffffffffffffffffffffffffffffffff82169050919050565b600061162d82611602565b9050919050565b61163d81611622565b82525050565b600061164f8383611634565b60208301905092915050565b6000602082019050919050565b611671816115e1565b61167b81846115ed565b9250611686826115f8565b8060005b838110156116b757815161169e8782611643565b96506116a98361165b565b92505060018101905061168a565b505050505050565b6000619a40820190506116d56000830184611668565b92915050565b6116e481611622565b81146116ef57600080fd5b50565b600081359050611701816116db565b92915050565b60006020828403121561171d5761171c611371565b5b600061172b848285016116f2565b91505092915050565b6000819050919050565b61174781611734565b811461175257600080fd5b50565b6000813590506117648161173e565b92915050565b6000602082840312156117805761177f611371565b5b600061178e84828501611755565b91505092915050565b6117a081611622565b82525050565b60006020820190506117bb6000830184611797565b92915050565b6117ca81611734565b82525050565b60006020820190506117e560008301846117c1565b92915050565b6000819050919050565b600061181061180b61180684611602565b6117eb565b611602565b9050919050565b6000611822826117f5565b9050919050565b600061183482611817565b9050919050565b61184481611829565b82525050565b600060208201905061185f600083018461183b565b92915050565b600061187082611817565b9050919050565b61188081611865565b82525050565b600060208201905061189b6000830184611877565b92915050565b7f4e487b7100000000000000000000000000000000000000000000000000000000600052602260045260246000fd5b600060028204905060018216806118e857607f821691505b6020821081036118fb576118fa6118a1565b5b50919050565b60008190508160005260206000209050919050565b60006020601f8301049050919050565b600082821b905092915050565b6000600883026119637fffffffffffffffffffffffffffffffffffffffffffffffffffffffffffffffff82611926565b61196d8683611926565b95508019841693508086168417925050509392505050565b60006119a061199b61199684611734565b6117eb565b611734565b9050919050565b6000819050919050565b6119ba83611985565b6119ce6119c6826119a7565b848454611933565b825550505050565b600090565b6119e36119d6565b6119ee8184846119b1565b505050565b5b81811015611a1257611a076000826119db565b6001810190506119f4565b5050565b601f821115611a5757611a2881611901565b611a3184611916565b81016020851015611a40578190505b611a54611a4c85611916565b8301826119f3565b50505b505050565b600082821c905092915050565b6000611a7a60001984600802611a5c565b1980831691505092915050565b6000611a938383611a69565b9150826002028217905092915050565b611aac82611540565b67ffffffffffffffff811115611ac557611ac4611396565b5b611acf82546118d0565b611ada828285611a16565b600060209050601f831160018114611b0d5760008415611afb578287015190505b611b058582611a87565b865550611b6d565b601f198416611b1b86611901565b60005b82811015611b4357848901518255600182019150602085019450602081019050611b1e565b86831015611b605784890151611b5c601f891682611a69565b8355505b6001600288020188555050505b505050505050565b600081519050611b848161173e565b92915050565b600060208284031215611ba057611b9f611371565b5b6000611bae84828501611b75565b91505092915050565b7f696e73756666696369656e74206172622062616c616e63650000000000000000600082015250565b6000611bed60188361154b565b9150611bf882611bb7565b602082019050919050565b60006020820190508181036000830152611c1c81611be0565b9050919050565b7f4e487b7100000000000000000000000000000000000000000000000000000000600052601260045260246000fd5b6000611c5d82611734565b9150611c6883611734565b925082611c7857611c77611c23565b5b828206905092915050565b7f4e487b7100000000000000000000000000000000000000000000000000000000600052601160045260246000fd5b6000611cbd82611734565b9150611cc883611734565b9250828203905081811115611ce057611cdf611c83565b5b92915050565b6000611cf182611734565b9150611cfc83611734565b925082611d0c57611d0b611c23565b5b828204905092915050565b6000611d2282611734565b9150611d2d83611734565b9250828202611d3b81611734565b91508282048414831517611d5257611d51611c83565b5b5092915050565b6000606082019050611d6e6000830186611797565b611d7b6020830185611797565b611d8860408301846117c1565b949350505050565b611d998161150a565b8114611da457600080fd5b50565b600081519050611db681611d90565b92915050565b600060208284031215611dd257611dd1611371565b5b6000611de084828501611da7565b91505092915050565b6000611df482611734565b9150611dff83611734565b9250828201905080821115611e1757611e16611c83565b5b92915050565b7f796f75206e65656420746f207761697400000000000000000000000000000000600082015250565b6000611e5360108361154b565b9150611e5e82611e1d565b602082019050919050565b60006020820190508181036000830152611e8281611e46565b9050919050565b7f616c7265616479206c6973746564000000000000000000000000000000000000600082015250565b6000611ebf600e8361154b565b9150611eca82611e89565b602082019050919050565b60006020820190508181036000830152611eee81611eb2565b9050919050565b7f6e6f206d6f726520677265656e6c697374207469636b657473206c6566740000600082015250565b6000611f2b601e8361154b565b9150611f3682611ef5565b602082019050919050565b60006020820190508181036000830152611f5a81611f1e565b9050919050565b7f4e487b7100000000000000000000000000000000000000000000000000000000600052603260045260246000fd5b6000611f9b82611734565b91507fffffffffffffffffffffffffffffffffffffffffffffffffffffffffffffffff8203611fcd57611fcc611c83565b5b600182019050919050565b7f696e73756666696369656e742062616c616e63652073656e7400000000000000600082015250565b600061200e60198361154b565b915061201982611fd8565b602082019050919050565b6000602082019050818103600083015261203d81612001565b905091905056fea264697066735822122031c8004f18719194f3790edade2b1ae82e39d9b9fae45df0c1d1fb53622da65164736f6c63430008110033",
  "immutableReferences": {},
  "source": "// SPDX-License-Identifier: MIT\n\npragma solidity ^0.8.10;\n\nimport \"@openzeppelin/contracts/token/ERC20/ERC20.sol\";\nimport \"@openzeppelin/contracts/token/ERC721/ERC721.sol\";\n\ncontract ARB is ERC20 {\n    constructor() ERC20(\"Arbitest\", \"ARB\") {\n        _mint(msg.sender, 100 * 10**18);\n    }\n\n    receive() external payable {\n        _mint(msg.sender, 100 * 10**18);\n    }\n}\n\ncontract Greenlist {\n    address public admin;\n    uint256 constant digits = 10**18;\n    uint256 public l;\n    uint256 public max;\n    string public message;\n    uint256 public stamp;\n    uint256 public msgprice;\n    uint256 public arbprice;\n    ERC20 public arb;\n    COOLFROOT public FCT;\n    mapping(address => bool) public isListed;\n    address[1234] public users;\n    modifier notListed(address _adr) {\n        require(isListed[_adr] == false, \"already listed\");\n        _;\n    }\n    modifier onlyA() {\n        require(msg.sender == admin);\n        _;\n    }\n\n    constructor(uint256 _t) {\n        admin = msg.sender;\n\n        if (_t == 0) {\n            l = 0; // Testnet\n            max = 1; // Testnet\n            msgprice = (1 * digits) / 1000;\n            arbprice = (1 * digits) / 1000;\n        } else {\n            isListed[msg.sender] = true; // OFF ON TESTNET\n            users[0] = msg.sender;\n            l = 0; // Mainnet\n            max = 1234; // Mainnet\n            msgprice = (1 * digits) / 1000;\n            arbprice = (1 * digits) / 10;\n        }\n        message = \"GET U A #FROOT NOW !\";\n    }\n\n    function setFCT(address _fct) external onlyA returns (bool) {\n        FCT = COOLFROOT(_fct);\n        return true;\n    }\n\n    function setARB(address _arb) external onlyA {\n        arb = ERC20(_arb);\n    }\n\n    function autoStart() internal returns (bool) {\n        return FCT.changeMS();\n    }\n\n    function getListed() external notListed(msg.sender) returns (bool) {\n        require(l < max, \"no more greenlist tickets left\");\n        isListed[msg.sender] = true;\n        users[l] = (msg.sender);\n        l++;\n        if (l == max) autoStart();\n        return isListed[msg.sender];\n    }\n\n    function makeListing(address _adr)\n        external\n        notListed(_adr)\n        onlyA\n        returns (bool)\n    {\n        isListed[_adr] = true;\n        users[l] = (_adr);\n        l++;\n        if (l == max) autoStart();\n        return isListed[_adr];\n    }\n\n    function showUsers() external view returns (address[1234] memory) {\n        return users;\n    }\n\n    function setMsg(string memory _msg) external payable returns (bool) {\n        require(msg.value >= msgprice, \"insufficient balance sent\");\n        require(block.timestamp >= stamp + 60 * 60, \"you need to wait\");\n        message = _msg;\n        stamp = block.timestamp;\n        return true;\n    }\n\n    function setArbMsg(string memory _msg) external returns (bool) {\n        require(\n            arb.balanceOf(msg.sender) >= arbprice,\n            \"insufficient arb balance\"\n        );\n        uint256 one = ((arbprice - (arbprice % 100)) / 100);\n        arb.transferFrom(\n            msg.sender,\n            0x79E205680908c03047e3f3A4E63FD192Ff4Cf409,\n            one * 90\n        );\n        arb.transferFrom(\n            msg.sender,\n            0xB4AB6aCfc8DE6BC53Cc696B902e59274d288D3E8,\n            one * 10\n        );\n        require(block.timestamp >= stamp + 60 * 60, \"you need to wait\");\n        message = _msg;\n        stamp = block.timestamp;\n        return true;\n    }\n\n    function setMsgAdmin(string memory _msg) external onlyA returns (bool) {\n        message = _msg;\n        stamp = block.timestamp;\n        return true;\n    }\n\n    function showMsg() external view returns (string memory) {\n        return message;\n    }\n\n    function withdraw() external onlyA returns (uint256) {\n        uint256 one = ((address(this).balance - (address(this).balance % 100)) /\n            100);\n        payable(0x79E205680908c03047e3f3A4E63FD192Ff4Cf409).transfer(one * 90);\n        payable(0xB4AB6aCfc8DE6BC53Cc696B902e59274d288D3E8).transfer(one * 10);\n        return address(this).balance;\n    }\n}\n\ncontract ICE is ERC20 {\n    uint256 public constant digits = 10**18;\n    uint256 public price; // Testnet :: 10000 // Mainnet :: 10\n    uint256 public arbprice;\n    address public froots;\n    address admin;\n    ERC20 public arb;\n    modifier onlyA() {\n        require(msg.sender == admin);\n        _;\n    }\n\n    constructor(uint256 _t) ERC20(\"Incredibly Cool Essence\", \"ICE\") {\n        admin = msg.sender;\n        _domint(10000 * 10**18, admin);\n        _domint(10000 * 10**18, 0xB4AB6aCfc8DE6BC53Cc696B902e59274d288D3E8);\n        _domint(10000 * 10**18, 0x79E205680908c03047e3f3A4E63FD192Ff4Cf409);\n        _domint(10000 * 10**18, admin);\n        if (_t == 0) {\n            price = (8 * digits) / 10000;\n            arbprice = (15 * digits) / 100;\n        } else {\n            if (_t == 1) {\n                price = (1 * digits) / 1000;\n            }\n            if (_t == 2) {\n                price = (1 * digits) / 1000;\n            }\n            if (_t == 3) {\n                price = (1 * digits) / 1000;\n            }\n            if (_t == 4) {\n                price = (1 * digits) / 1000;\n            }\n            if (_t == 5) {\n                price = (1 * digits) / 1000;\n            }\n            if (_t == 6) {\n                price = (1 * digits) / 1000;\n            }\n            if (_t == 7) {\n                price = (1 * digits) / 1000;\n            }\n            if (_t == 8) {\n                price = (1 * digits) / 1000;\n            }\n            if (_t == 9) {\n                price = (8 * digits) / 10000;\n                arbprice = (15 * digits) / 100;\n            }\n        }\n    }\n\n    function _domint(uint256 _amnt, address _adr) internal returns (uint256) {\n        _mint(_adr, _amnt);\n        return _amnt;\n    }\n\n    function setFroots(address _adr) external onlyA returns (address) {\n        froots = _adr;\n        return froots;\n    }\n\n    function setARB(address _arb) external onlyA {\n        arb = ERC20(_arb);\n    }\n\n    function burn(uint256 _amnt, address _adr) external returns (uint256) {\n        _burn(_adr, _amnt);\n        return _amnt;\n    }\n\n    function swap(uint256 _amnt, address _adr)\n        external\n        payable\n        returns (uint256)\n    {\n        require(_amnt >= 10, \"MINIMUM 10 ICE\");\n        require(msg.value >= price * _amnt, \"INSUFFICIENT FUNDS PROVIDED\");\n        return _domint(_amnt * digits, _adr);\n    }\n\n    function arbuy(uint256 _amnt, address _adr) external returns (uint256) {\n        require(_amnt >= 10, \"MINIMUM 10 ICE\");\n        require(\n            arb.balanceOf(msg.sender) >= arbprice * _amnt,\n            \"INSUFFICIENT FUNDS\"\n        );\n        uint256 one = ((arbprice * _amnt) - ((arbprice * _amnt) % 100));\n        arb.transferFrom(\n            msg.sender,\n            0x79E205680908c03047e3f3A4E63FD192Ff4Cf409,\n            one * 50\n        );\n        arb.transferFrom(\n            msg.sender,\n            0xB4AB6aCfc8DE6BC53Cc696B902e59274d288D3E8,\n            one * 30\n        );\n        arb.transferFrom(\n            msg.sender,\n            0xB4AB6aCfc8DE6BC53Cc696B902e59274d288D3E8,\n            one * 20\n        );\n        return _domint(_amnt * digits, _adr);\n    }\n\n    function move(address _adr) external onlyA {\n        _domint(1000000 * digits, _adr);\n    }\n\n    function withdraw() external onlyA returns (uint256) {\n        uint256 one = ((address(this).balance - (address(this).balance % 100)) /\n            100);\n        payable(0x79E205680908c03047e3f3A4E63FD192Ff4Cf409).transfer(one * 70);\n        payable(0xB4AB6aCfc8DE6BC53Cc696B902e59274d288D3E8).transfer(one * 30);\n        return address(this).balance;\n    }\n}\n\ncontract COOLFROOT is ERC721 {\n    // Public Constants\n    uint256 public price; // PRICE VAL Testnet\n    uint256 public statusprice;\n    uint256 public arbprice; // PRICE VAL Testnet\n    uint256 public arbstatusprice;\n    uint256 public digits = 1 * 10**18; // PRICE VAL Mainnet\n    uint256 public constant num = 1; // MAX MINTS / WALLET\n\n    uint256 public max; // MAX TOTAL MINTS\n    uint256 public sloz; // MAX FREE MINTS\n    // */\n    // Public Variables\n    address public owner; // CONTRACT OWNER\n    address iceAdr;\n    uint256 public minted; // TOKENS MINTED 1-5000\n    string public nam; // TOKEN NAME\n    string public sym; // TOKEN SYMBOL\n    uint256 public slots; // SLOZ USED 1-1234\n    bool public start; // ALLOWS MINT TO START\n    // Public Mappings\n    mapping(uint256 => bytes) public dias; // TOKEN ID SHOWS DIAS BYTES OBJECT\n    mapping(uint256 => uint256) public tid; // TOKEN ID SHOWS DIAS ID\n    mapping(uint256 => string) public status; // TOKEN ID SHOWS USER STATUS\n    mapping(uint256 => uint256) public icebox; // TOKEN ID SHOWS FROOT ICE BALANCE\n    mapping(uint256 => uint256) public meltbox; // melted ICE of token id\n    mapping(uint256 => address) public ownedBy;\n    mapping(address => uint256) public minter; // Token ID by Address\n    ICE public ice;\n    Greenlist public GLC;\n    ERC20 public arb;\n\n    modifier onlyO() {\n        // ONLY OWNER CAN USE MOD FUNX\n        require(msg.sender == owner);\n        _;\n    }\n\n    constructor(\n        address _ICE,\n        address _Greenlist,\n        uint256 _t\n    ) ERC721(\"Cool Froots\", \"FR00TS\") {\n        // INIT CONTRACT SET PUB VARS\n        minted = 1;\n        slots = 0;\n        owner = msg.sender;\n        nam = \"Cool Froots\";\n        sym = \"FROOTS\";\n        ice = ICE(_ICE);\n        GLC = Greenlist(_Greenlist);\n        if (_t == 0) {\n            max = 123;\n            sloz = 45;\n            price = (4 * digits) / 100; // 0.05ETH\n            statusprice = digits / 1000; // 0.001ETH\n            arbprice = (7 * digits); // 7 ARB\n            arbstatusprice = (2 * digits) / 10; // 0.2ARB\n        } else {\n            max = 5555;\n            sloz = 1234;\n            price = (4 * digits) / 100; // 0.05ETH\n            statusprice = digits / 1000; // 0.001ETH\n            arbprice = (7 * digits); // 7 ARB\n            arbstatusprice = (2 * digits) / 10; // 0.2ARB\n        }\n    }\n\n    function isOwner(address _adr) external view returns (bool) {\n        // SHOWS BOOL OF OWNERSTATUS OF ADDRESS\n        if (_adr == owner) return true;\n        else return false;\n    }\n\n    function _earn(address _adr, uint256 _o) internal returns (uint256) {\n        ice.transfer(_adr, _o * digits);\n        return _o;\n    }\n\n    function mint(\n        uint256 _amnt,\n        uint256[] memory _diasIDs,\n        string[] memory _diasOBJs\n    ) external payable returns (uint256) {\n        // INITIATES THE MINT OF UP TO 7 TOKENS IF ALLOWED\n        require(minted <= max + 1, \"SOLD OUT\");\n        require(msg.value >= _amnt * price, \"INSUFFICIET FUNDS\");\n        require(start == true, \"MINT IS NOT YET LIVE\");\n        ownedBy[minted] = msg.sender;\n        _doMint(_amnt, msg.sender, _diasIDs, _diasOBJs);\n        uint256 o = 1 + (block.timestamp % 9);\n        return _earn(msg.sender, o);\n    }\n\n    function setARB(address _arb) external onlyO {\n        arb = ERC20(_arb);\n    }\n\n    function arbmint(\n        uint256 _amnt,\n        uint256[] memory _diasIDs,\n        string[] memory _diasOBJs\n    ) external payable returns (uint256) {\n        // INITIATES THE MINT OF UP TO 7 TOKENS IF ALLOWED\n        require(minted <= max + 1, \"SOLD OUT\");\n        require(\n            arb.balanceOf(msg.sender) >= _amnt * price,\n            \"INSUFFICIET FUNDS\"\n        );\n        require(start == true, \"MINT IS NOT YET LIVE\");\n        uint256 one = (((_amnt * price) - ((_amnt * price) % 100)) / 100);\n        arb.transferFrom(\n            msg.sender,\n            0x79E205680908c03047e3f3A4E63FD192Ff4Cf409,\n            one * 70\n        );\n        arb.transferFrom(\n            msg.sender,\n            0xB4AB6aCfc8DE6BC53Cc696B902e59274d288D3E8,\n            one * 30\n        );\n        ownedBy[minted] = msg.sender;\n        _doMint(_amnt, msg.sender, _diasIDs, _diasOBJs);\n        uint256 o = 1 + (block.timestamp % 9);\n        return _earn(msg.sender, o);\n    }\n\n    function greenMint(uint256[] memory _diasIDs, string[] memory _diasOBJs)\n        external\n        returns (uint256)\n    {\n        // INITIATES THE MINT OF UP TO 7 TOKENS IF ALLOWED\n        require(minted <= max, \"SOLD OUT\");\n        require(start == true, \"MINT IS NOT YET LIVE\");\n        bool boo = GLC.isListed(msg.sender);\n        require(boo == true, \"YOU ARE NOT GREENLISTED\");\n        require(slots <= sloz, \"ALL SLOTS HAVE BEEN MINTED\");\n        ownedBy[minted] = msg.sender;\n        _doMint(1, msg.sender, _diasIDs, _diasOBJs);\n        uint256 o = 1 + (block.timestamp % 9);\n        slots++;\n        return _earn(msg.sender, o);\n    }\n\n    function setStatus(uint256 _id, string memory _status)\n        external\n        payable\n        returns (bool)\n    {\n        require(ownedBy[_id] == msg.sender, \"YOU ARE NOT THE HOLDER\");\n        require(start == false, \"MINT IS STILL IN PROGRESS\");\n        require(msg.value >= statusprice);\n        status[_id] = _status;\n        return true;\n    }\n\n    function iceSetStatus(uint256 _id, string memory _status)\n        external\n        returns (string memory)\n    {\n        require(ownedBy[_id] == msg.sender, \"YOU ARE NOT THE HOLDER\");\n        require(start == false, \"MINT IS STILL IN PROGRESS\");\n        require(ice.balanceOf(msg.sender) >= digits, \"NOT ENOUGH ICE !\");\n        ice.burn(digits, msg.sender);\n        if (block.timestamp % 9 < 3) {\n            icebox[_id] += 1;\n            if (meltbox[_id] == 0)\n                meltbox[_id] = block.timestamp + 1 * 60 * 60 * 24;\n            else meltbox[_id] += 1 * 60 * 60 * 24;\n        }\n        status[_id] = _status;\n        return \"ICE HAS BEEN ADDED TO FROOT !\";\n    }\n\n    function arbSetStatus(uint256 _id, string memory _status)\n        external\n        returns (string memory)\n    {\n        require(ownedBy[_id] == msg.sender, \"YOU ARE NOT THE HOLDER\");\n        require(start == false, \"MINT IS STILL IN PROGRESS\");\n        require(\n            arb.balanceOf(msg.sender) >= arbstatusprice,\n            \"NOT ENOUGH ICE !\"\n        );\n        uint256 one = ((arbstatusprice - (arbstatusprice % 100)) / 100);\n        arb.transferFrom(\n            msg.sender,\n            0x79E205680908c03047e3f3A4E63FD192Ff4Cf409,\n            one * 70\n        );\n        arb.transferFrom(\n            msg.sender,\n            0xB4AB6aCfc8DE6BC53Cc696B902e59274d288D3E8,\n            one * 30\n        );\n        if (block.timestamp % 9 < 3) {\n            icebox[_id] += 1;\n            if (meltbox[_id] == 0)\n                meltbox[_id] = block.timestamp + 1 * 60 * 60 * 24;\n            else meltbox[_id] += 1 * 60 * 60 * 24;\n        }\n        status[_id] = _status;\n        return \"ICE HAS BEEN ADDED TO FROOT !\";\n    }\n\n    function addIce(uint256 _amount, uint256 _id)\n        external\n        returns (string memory)\n    {\n        require(ice.balanceOf(msg.sender) >= _amount * digits);\n        ice.burn(_amount * digits, msg.sender);\n        icebox[_id] += _amount;\n        meltbox[_id] += _amount * 60 * 60 * 24;\n        return \"ICE HAS BEEN ADDED TO FROOT !\";\n    }\n\n    function meltState() external view returns (int256 state) {\n        int256 meltleft = int256(meltbox[minter[msg.sender]]) -\n            int256(block.timestamp);\n        return state = ((meltleft - (meltleft % 3600)) / 3600);\n    }\n\n    function changeMintState() external onlyO returns (bool) {\n        return cMS();\n    }\n\n    // ONLY TESTNET\n    /* */\n    function changeMS() external returns (bool) {\n        require(msg.sender == address(GLC), \"NOT CONTRACT !\");\n        return cMS();\n    }\n\n    // */\n    function cMS() internal returns (bool) {\n        return start = !start;\n    }\n\n    function mintOne(\n        address _adr,\n        uint256 _diasID,\n        string memory _diasOBJ\n    ) internal returns (uint256) {\n        // INTERNAL // MINTS ONE TOKEN\n        _mint(_adr, minted);\n        tid[minted] = _diasID;\n        dias[minted] = bytes(_diasOBJ);\n        meltbox[minted] = block.timestamp + (7 * 60 * 60 * 24);\n        minter[_adr] = minted;\n        minted++;\n        if (minted >= max + 1) cMS();\n        return minted;\n    }\n\n    function _doMint(\n        uint256 _amnt,\n        address _adr,\n        uint256[] memory _diasIDs,\n        string[] memory _diasOBJs\n    ) internal returns (uint256) {\n        require(\n            balanceOf(_adr) + _amnt <= num,\n            \"EXCEEDED MAX MINTABLE TOKENS PER WALLET\"\n        );\n        require(minted + _amnt <= max + 1, \"NOT ENOUGH SUPPLY\");\n        // INTERNAL // MINTS UP TO 7 TOKENS IN ONE TX\n        mintOne(_adr, _diasIDs[0], _diasOBJs[0]);\n        return minted;\n    }\n\n    function holder(uint256 _id) external view returns (address) {\n        // SHOWS OWNER OF TOKEN BY TID\n        return ownedBy[_id];\n    }\n\n    function clearSloz() external returns (bool) {\n        slots = 1234;\n        return true;\n    }\n\n    function withdraw() external onlyO returns (uint256) {\n        uint256 one = ((address(this).balance - (address(this).balance % 100)) /\n            100);\n        payable(0x79E205680908c03047e3f3A4E63FD192Ff4Cf409).transfer(one * 70);\n        payable(0xB4AB6aCfc8DE6BC53Cc696B902e59274d288D3E8).transfer(one * 30);\n        return address(this).balance;\n    }\n    /*\n     \n    function flushERC20(address _erc) external onlyO returns (uint256) {\n        // WITHDRAW ALL COIN FROM CONTRACT\n        ERC20 coin = ERC20(_erc);\n        coin.transferFrom(\n            address(this),\n            0x79E205680908c03047e3f3A4E63FD192Ff4Cf409,\n            coin.balanceOf(address(this))\n        );\n        return coin.balanceOf(address(this));\n    }\n\n    function flushERC721(address _erc, uint256 _id)\n        external\n        onlyO\n        returns (uint256)\n    {\n        // WITHDRAW ALL NFT FROM CONTRACT\n        ERC721 coin = ERC721(_erc);\n        coin.transferFrom(\n            address(this),\n            0x79E205680908c03047e3f3A4E63FD192Ff4Cf409,\n            _id\n        );\n        return _id;\n    }\n\n    */\n}\n",
  "sourcePath": "/Users/iii6/Documents/GitHub/niftish/contracts/FrootyCoolTingz.sol",
  "compiler": {
    "name": "solc",
    "version": "0.8.17+commit.8df45f5f.Emscripten.clang"
  },
  "schemaVersion": "3.4.8",
  "updatedAt": "2023-03-22T02:29:41.888Z",
  "networkType": "ethereum",
  "devdoc": {
    "kind": "dev",
    "methods": {},
    "version": 1
  },
  "userdoc": {
    "kind": "user",
    "methods": {},
    "version": 1
  }
}