{
  "contractName": "ICE",
  "abi": [
    {
      "inputs": [
        {
          "internalType": "uint256",
          "name": "_t",
          "type": "uint256"
        }
      ],
      "stateMutability": "nonpayable",
      "type": "constructor"
    },
    {
      "anonymous": false,
      "inputs": [
        {
          "indexed": true,
          "internalType": "address",
          "name": "owner",
          "type": "address"
        },
        {
          "indexed": true,
          "internalType": "address",
          "name": "spender",
          "type": "address"
        },
        {
          "indexed": false,
          "internalType": "uint256",
          "name": "value",
          "type": "uint256"
        }
      ],
      "name": "Approval",
      "type": "event"
    },
    {
      "anonymous": false,
      "inputs": [
        {
          "indexed": true,
          "internalType": "address",
          "name": "from",
          "type": "address"
        },
        {
          "indexed": true,
          "internalType": "address",
          "name": "to",
          "type": "address"
        },
        {
          "indexed": false,
          "internalType": "uint256",
          "name": "value",
          "type": "uint256"
        }
      ],
      "name": "Transfer",
      "type": "event"
    },
    {
      "inputs": [
        {
          "internalType": "address",
          "name": "owner",
          "type": "address"
        },
        {
          "internalType": "address",
          "name": "spender",
          "type": "address"
        }
      ],
      "name": "allowance",
      "outputs": [
        {
          "internalType": "uint256",
          "name": "",
          "type": "uint256"
        }
      ],
      "stateMutability": "view",
      "type": "function"
    },
    {
      "inputs": [
        {
          "internalType": "address",
          "name": "spender",
          "type": "address"
        },
        {
          "internalType": "uint256",
          "name": "amount",
          "type": "uint256"
        }
      ],
      "name": "approve",
      "outputs": [
        {
          "internalType": "bool",
          "name": "",
          "type": "bool"
        }
      ],
      "stateMutability": "nonpayable",
      "type": "function"
    },
    {
      "inputs": [
        {
          "internalType": "address",
          "name": "account",
          "type": "address"
        }
      ],
      "name": "balanceOf",
      "outputs": [
        {
          "internalType": "uint256",
          "name": "",
          "type": "uint256"
        }
      ],
      "stateMutability": "view",
      "type": "function"
    },
    {
      "inputs": [],
      "name": "decimals",
      "outputs": [
        {
          "internalType": "uint8",
          "name": "",
          "type": "uint8"
        }
      ],
      "stateMutability": "view",
      "type": "function"
    },
    {
      "inputs": [
        {
          "internalType": "address",
          "name": "spender",
          "type": "address"
        },
        {
          "internalType": "uint256",
          "name": "subtractedValue",
          "type": "uint256"
        }
      ],
      "name": "decreaseAllowance",
      "outputs": [
        {
          "internalType": "bool",
          "name": "",
          "type": "bool"
        }
      ],
      "stateMutability": "nonpayable",
      "type": "function"
    },
    {
      "inputs": [],
      "name": "digits",
      "outputs": [
        {
          "internalType": "uint256",
          "name": "",
          "type": "uint256"
        }
      ],
      "stateMutability": "view",
      "type": "function"
    },
    {
      "inputs": [],
      "name": "froots",
      "outputs": [
        {
          "internalType": "address",
          "name": "",
          "type": "address"
        }
      ],
      "stateMutability": "view",
      "type": "function"
    },
    {
      "inputs": [
        {
          "internalType": "address",
          "name": "spender",
          "type": "address"
        },
        {
          "internalType": "uint256",
          "name": "addedValue",
          "type": "uint256"
        }
      ],
      "name": "increaseAllowance",
      "outputs": [
        {
          "internalType": "bool",
          "name": "",
          "type": "bool"
        }
      ],
      "stateMutability": "nonpayable",
      "type": "function"
    },
    {
      "inputs": [],
      "name": "name",
      "outputs": [
        {
          "internalType": "string",
          "name": "",
          "type": "string"
        }
      ],
      "stateMutability": "view",
      "type": "function"
    },
    {
      "inputs": [],
      "name": "price",
      "outputs": [
        {
          "internalType": "uint256",
          "name": "",
          "type": "uint256"
        }
      ],
      "stateMutability": "view",
      "type": "function"
    },
    {
      "inputs": [],
      "name": "symbol",
      "outputs": [
        {
          "internalType": "string",
          "name": "",
          "type": "string"
        }
      ],
      "stateMutability": "view",
      "type": "function"
    },
    {
      "inputs": [],
      "name": "totalSupply",
      "outputs": [
        {
          "internalType": "uint256",
          "name": "",
          "type": "uint256"
        }
      ],
      "stateMutability": "view",
      "type": "function"
    },
    {
      "inputs": [
        {
          "internalType": "address",
          "name": "to",
          "type": "address"
        },
        {
          "internalType": "uint256",
          "name": "amount",
          "type": "uint256"
        }
      ],
      "name": "transfer",
      "outputs": [
        {
          "internalType": "bool",
          "name": "",
          "type": "bool"
        }
      ],
      "stateMutability": "nonpayable",
      "type": "function"
    },
    {
      "inputs": [
        {
          "internalType": "address",
          "name": "from",
          "type": "address"
        },
        {
          "internalType": "address",
          "name": "to",
          "type": "address"
        },
        {
          "internalType": "uint256",
          "name": "amount",
          "type": "uint256"
        }
      ],
      "name": "transferFrom",
      "outputs": [
        {
          "internalType": "bool",
          "name": "",
          "type": "bool"
        }
      ],
      "stateMutability": "nonpayable",
      "type": "function"
    },
    {
      "inputs": [
        {
          "internalType": "uint256",
          "name": "_ice",
          "type": "uint256"
        }
      ],
      "name": "setPrices",
      "outputs": [],
      "stateMutability": "nonpayable",
      "type": "function"
    },
    {
      "inputs": [
        {
          "internalType": "address",
          "name": "_adr",
          "type": "address"
        }
      ],
      "name": "setFroots",
      "outputs": [
        {
          "internalType": "address",
          "name": "",
          "type": "address"
        }
      ],
      "stateMutability": "nonpayable",
      "type": "function"
    },
    {
      "inputs": [
        {
          "internalType": "uint256",
          "name": "_amnt",
          "type": "uint256"
        },
        {
          "internalType": "address",
          "name": "_adr",
          "type": "address"
        }
      ],
      "name": "burn",
      "outputs": [
        {
          "internalType": "uint256",
          "name": "",
          "type": "uint256"
        }
      ],
      "stateMutability": "nonpayable",
      "type": "function"
    },
    {
      "inputs": [
        {
          "internalType": "uint256",
          "name": "_amnt",
          "type": "uint256"
        },
        {
          "internalType": "address",
          "name": "_adr",
          "type": "address"
        }
      ],
      "name": "swap",
      "outputs": [
        {
          "internalType": "uint256",
          "name": "",
          "type": "uint256"
        }
      ],
      "stateMutability": "payable",
      "type": "function"
    },
    {
      "inputs": [],
      "name": "move",
      "outputs": [],
      "stateMutability": "nonpayable",
      "type": "function"
    },
    {
      "inputs": [],
      "name": "withdraw",
      "outputs": [
        {
          "internalType": "uint256",
          "name": "",
          "type": "uint256"
        }
      ],
      "stateMutability": "nonpayable",
      "type": "function"
    }
  ],
  "bytecode": "0x60806040523480156200001157600080fd5b506040516200286f3803806200286f8339818101604052810190620000379190620001fa565b6040518060400160405280601781526020017f496e6372656469626c7920436f6f6c20457373656e63650000000000000000008152506040518060400160405280600381526020017f49434500000000000000000000000000000000000000000000000000000000008152508160039081620000b491906200049c565b508060049081620000c691906200049c565b50505033600760006101000a81548173ffffffffffffffffffffffffffffffffffffffff021916908373ffffffffffffffffffffffffffffffffffffffff16021790555060008103620001465762989680670de0b6b3a764000060086200012e9190620005b2565b6200013a91906200062c565b600581905550620001b3565b600181036200017c576103e8670de0b6b3a76400006001620001699190620005b2565b6200017591906200062c565b6005819055505b60028103620001b2576103e8670de0b6b3a764000060016200019f9190620005b2565b620001ab91906200062c565b6005819055505b5b5062000664565b600080fd5b6000819050919050565b620001d481620001bf565b8114620001e057600080fd5b50565b600081519050620001f481620001c9565b92915050565b600060208284031215620002135762000212620001ba565b5b60006200022384828501620001e3565b91505092915050565b600081519050919050565b7f4e487b7100000000000000000000000000000000000000000000000000000000600052604160045260246000fd5b7f4e487b7100000000000000000000000000000000000000000000000000000000600052602260045260246000fd5b60006002820490506001821680620002ae57607f821691505b602082108103620002c457620002c362000266565b5b50919050565b60008190508160005260206000209050919050565b60006020601f8301049050919050565b600082821b905092915050565b6000600883026200032e7fffffffffffffffffffffffffffffffffffffffffffffffffffffffffffffffff82620002ef565b6200033a8683620002ef565b95508019841693508086168417925050509392505050565b6000819050919050565b60006200037d620003776200037184620001bf565b62000352565b620001bf565b9050919050565b6000819050919050565b62000399836200035c565b620003b1620003a88262000384565b848454620002fc565b825550505050565b600090565b620003c8620003b9565b620003d58184846200038e565b505050565b5b81811015620003fd57620003f1600082620003be565b600181019050620003db565b5050565b601f8211156200044c576200041681620002ca565b6200042184620002df565b8101602085101562000431578190505b620004496200044085620002df565b830182620003da565b50505b505050565b600082821c905092915050565b6000620004716000198460080262000451565b1980831691505092915050565b60006200048c83836200045e565b9150826002028217905092915050565b620004a7826200022c565b67ffffffffffffffff811115620004c357620004c262000237565b5b620004cf825462000295565b620004dc82828562000401565b600060209050601f831160018114620005145760008415620004ff578287015190505b6200050b85826200047e565b8655506200057b565b601f1984166200052486620002ca565b60005b828110156200054e5784890151825560018201915060208501945060208101905062000527565b868310156200056e57848901516200056a601f8916826200045e565b8355505b6001600288020188555050505b505050505050565b7f4e487b7100000000000000000000000000000000000000000000000000000000600052601160045260246000fd5b6000620005bf82620001bf565b9150620005cc83620001bf565b9250828202620005dc81620001bf565b91508282048414831517620005f657620005f562000583565b5b5092915050565b7f4e487b7100000000000000000000000000000000000000000000000000000000600052601260045260246000fd5b60006200063982620001bf565b91506200064683620001bf565b925082620006595762000658620005fd565b5b828204905092915050565b6121fb80620006746000396000f3fe60806040526004361061011f5760003560e01c806395d89b41116100a0578063a457c2d711610064578063a457c2d7146103ed578063a9059cbb1461042a578063d3986f0814610467578063dd62ed3e14610497578063fcd3533c146104d45761011f565b806395d89b41146103065780639e20437c14610331578063a035b1fe1461035c578063a3201daa14610387578063a4490600146103b05761011f565b806339509351116100e7578063395093511461021f5780633ccfd60b1461025c5780633ec48a2e1461028757806370a082311461029e57806375ff10fd146102db5761011f565b806306fdde0314610124578063095ea7b31461014f57806318160ddd1461018c57806323b872dd146101b7578063313ce567146101f4575b600080fd5b34801561013057600080fd5b50610139610511565b60405161014691906116d2565b60405180910390f35b34801561015b57600080fd5b506101766004803603810190610171919061178d565b6105a3565b60405161018391906117e8565b60405180910390f35b34801561019857600080fd5b506101a16105c6565b6040516101ae9190611812565b60405180910390f35b3480156101c357600080fd5b506101de60048036038101906101d9919061182d565b6105d0565b6040516101eb91906117e8565b60405180910390f35b34801561020057600080fd5b506102096105ff565b604051610216919061189c565b60405180910390f35b34801561022b57600080fd5b506102466004803603810190610241919061178d565b610608565b60405161025391906117e8565b60405180910390f35b34801561026857600080fd5b5061027161063f565b60405161027e9190611812565b60405180910390f35b34801561029357600080fd5b5061029c61099a565b005b3480156102aa57600080fd5b506102c560048036038101906102c091906118b7565b6109df565b6040516102d29190611812565b60405180910390f35b3480156102e757600080fd5b506102f0610a27565b6040516102fd91906118f3565b60405180910390f35b34801561031257600080fd5b5061031b610a4d565b60405161032891906116d2565b60405180910390f35b34801561033d57600080fd5b50610346610adf565b6040516103539190611812565b60405180910390f35b34801561036857600080fd5b50610371610aeb565b60405161037e9190611812565b60405180910390f35b34801561039357600080fd5b506103ae60048036038101906103a9919061190e565b610af1565b005b3480156103bc57600080fd5b506103d760048036038101906103d291906118b7565b610b75565b6040516103e491906118f3565b60405180910390f35b3480156103f957600080fd5b50610414600480360381019061040f919061178d565b610c3c565b60405161042191906117e8565b60405180910390f35b34801561043657600080fd5b50610451600480360381019061044c919061178d565b610cb3565b60405161045e91906117e8565b60405180910390f35b610481600480360381019061047c919061193b565b610cd6565b60405161048e9190611812565b60405180910390f35b3480156104a357600080fd5b506104be60048036038101906104b9919061197b565b610d91565b6040516104cb9190611812565b60405180910390f35b3480156104e057600080fd5b506104fb60048036038101906104f6919061193b565b610e18565b6040516105089190611812565b60405180910390f35b606060038054610520906119ea565b80601f016020809104026020016040519081016040528092919081815260200182805461054c906119ea565b80156105995780601f1061056e57610100808354040283529160200191610599565b820191906000526020600020905b81548152906001019060200180831161057c57829003601f168201915b5050505050905090565b6000806105ae610e2d565b90506105bb818585610e35565b600191505092915050565b6000600254905090565b6000806105db610e2d565b90506105e8858285610ffe565b6105f385858561108a565b60019150509392505050565b60006012905090565b600080610613610e2d565b90506106348185856106258589610d91565b61062f9190611a4a565b610e35565b600191505092915050565b6000600760009054906101000a900473ffffffffffffffffffffffffffffffffffffffff1673ffffffffffffffffffffffffffffffffffffffff163373ffffffffffffffffffffffffffffffffffffffff161461069b57600080fd5b6000606480476106ab9190611aad565b476106b69190611ade565b6106c09190611b12565b90507379e205680908c03047e3f3a4e63fd192ff4cf40973ffffffffffffffffffffffffffffffffffffffff166108fc601e836106fd9190611b43565b9081150290604051600060405180830381858888f19350505050158015610728573d6000803e3d6000fd5b5073b4ab6acfc8de6bc53cc696b902e59274d288d3e873ffffffffffffffffffffffffffffffffffffffff166108fc601e836107649190611b43565b9081150290604051600060405180830381858888f1935050505015801561078f573d6000803e3d6000fd5b5073b4ab6acfc8de6bc53cc696b902e59274d288d3e873ffffffffffffffffffffffffffffffffffffffff166108fc600a836107cb9190611b43565b9081150290604051600060405180830381858888f193505050501580156107f6573d6000803e3d6000fd5b5073b4ab6acfc8de6bc53cc696b902e59274d288d3e873ffffffffffffffffffffffffffffffffffffffff166108fc600a836108329190611b43565b9081150290604051600060405180830381858888f1935050505015801561085d573d6000803e3d6000fd5b507379e205680908c03047e3f3a4e63fd192ff4cf40973ffffffffffffffffffffffffffffffffffffffff166108fc600a836108999190611b43565b9081150290604051600060405180830381858888f193505050501580156108c4573d6000803e3d6000fd5b507379e205680908c03047e3f3a4e63fd192ff4cf40973ffffffffffffffffffffffffffffffffffffffff166108fc6005836109009190611b43565b9081150290604051600060405180830381858888f1935050505015801561092b573d6000803e3d6000fd5b507379e205680908c03047e3f3a4e63fd192ff4cf40973ffffffffffffffffffffffffffffffffffffffff166108fc6005836109679190611b43565b9081150290604051600060405180830381858888f19350505050158015610992573d6000803e3d6000fd5b504791505090565b6109dc670de0b6b3a7640000620f42406109b49190611b43565b600660009054906101000a900473ffffffffffffffffffffffffffffffffffffffff16611300565b50565b60008060008373ffffffffffffffffffffffffffffffffffffffff1673ffffffffffffffffffffffffffffffffffffffff168152602001908152602001600020549050919050565b600660009054906101000a900473ffffffffffffffffffffffffffffffffffffffff1681565b606060048054610a5c906119ea565b80601f0160208091040260200160405190810160405280929190818152602001828054610a88906119ea565b8015610ad55780601f10610aaa57610100808354040283529160200191610ad5565b820191906000526020600020905b815481529060010190602001808311610ab857829003601f168201915b5050505050905090565b670de0b6b3a764000081565b60055481565b600760009054906101000a900473ffffffffffffffffffffffffffffffffffffffff1673ffffffffffffffffffffffffffffffffffffffff163373ffffffffffffffffffffffffffffffffffffffff1614610b4b57600080fd5b612710670de0b6b3a764000082610b629190611b43565b610b6c9190611b12565b60058190555050565b6000600760009054906101000a900473ffffffffffffffffffffffffffffffffffffffff1673ffffffffffffffffffffffffffffffffffffffff163373ffffffffffffffffffffffffffffffffffffffff1614610bd157600080fd5b81600660006101000a81548173ffffffffffffffffffffffffffffffffffffffff021916908373ffffffffffffffffffffffffffffffffffffffff160217905550600660009054906101000a900473ffffffffffffffffffffffffffffffffffffffff169050919050565b600080610c47610e2d565b90506000610c558286610d91565b905083811015610c9a576040517f08c379a0000000000000000000000000000000000000000000000000000000008152600401610c9190611bf7565b60405180910390fd5b610ca78286868403610e35565b60019250505092915050565b600080610cbe610e2d565b9050610ccb81858561108a565b600191505092915050565b6000600a831015610d1c576040517f08c379a0000000000000000000000000000000000000000000000000000000008152600401610d1390611c63565b60405180910390fd5b82600554610d2a9190611b43565b341015610d6c576040517f08c379a0000000000000000000000000000000000000000000000000000000008152600401610d6390611ccf565b60405180910390fd5b610d89670de0b6b3a764000084610d839190611b43565b83611300565b905092915050565b6000600160008473ffffffffffffffffffffffffffffffffffffffff1673ffffffffffffffffffffffffffffffffffffffff16815260200190815260200160002060008373ffffffffffffffffffffffffffffffffffffffff1673ffffffffffffffffffffffffffffffffffffffff16815260200190815260200160002054905092915050565b6000610e248284611315565b82905092915050565b600033905090565b600073ffffffffffffffffffffffffffffffffffffffff168373ffffffffffffffffffffffffffffffffffffffff1603610ea4576040517f08c379a0000000000000000000000000000000000000000000000000000000008152600401610e9b90611d61565b60405180910390fd5b600073ffffffffffffffffffffffffffffffffffffffff168273ffffffffffffffffffffffffffffffffffffffff1603610f13576040517f08c379a0000000000000000000000000000000000000000000000000000000008152600401610f0a90611df3565b60405180910390fd5b80600160008573ffffffffffffffffffffffffffffffffffffffff1673ffffffffffffffffffffffffffffffffffffffff16815260200190815260200160002060008473ffffffffffffffffffffffffffffffffffffffff1673ffffffffffffffffffffffffffffffffffffffff168152602001908152602001600020819055508173ffffffffffffffffffffffffffffffffffffffff168373ffffffffffffffffffffffffffffffffffffffff167f8c5be1e5ebec7d5bd14f71427d1e84f3dd0314c0f7b2291e5b200ac8c7c3b92583604051610ff19190611812565b60405180910390a3505050565b600061100a8484610d91565b90507fffffffffffffffffffffffffffffffffffffffffffffffffffffffffffffffff81146110845781811015611076576040517f08c379a000000000000000000000000000000000000000000000000000000000815260040161106d90611e5f565b60405180910390fd5b6110838484848403610e35565b5b50505050565b600073ffffffffffffffffffffffffffffffffffffffff168373ffffffffffffffffffffffffffffffffffffffff16036110f9576040517f08c379a00000000000000000000000000000000000000000000000000000000081526004016110f090611ef1565b60405180910390fd5b600073ffffffffffffffffffffffffffffffffffffffff168273ffffffffffffffffffffffffffffffffffffffff1603611168576040517f08c379a000000000000000000000000000000000000000000000000000000000815260040161115f90611f83565b60405180910390fd5b6111738383836114e2565b60008060008573ffffffffffffffffffffffffffffffffffffffff1673ffffffffffffffffffffffffffffffffffffffff168152602001908152602001600020549050818110156111f9576040517f08c379a00000000000000000000000000000000000000000000000000000000081526004016111f090612015565b60405180910390fd5b8181036000808673ffffffffffffffffffffffffffffffffffffffff1673ffffffffffffffffffffffffffffffffffffffff16815260200190815260200160002081905550816000808573ffffffffffffffffffffffffffffffffffffffff1673ffffffffffffffffffffffffffffffffffffffff168152602001908152602001600020600082825401925050819055508273ffffffffffffffffffffffffffffffffffffffff168473ffffffffffffffffffffffffffffffffffffffff167fddf252ad1be2c89b69c2b068fc378daa952ba7f163c4a11628f55a4df523b3ef846040516112e79190611812565b60405180910390a36112fa8484846114e7565b50505050565b600061130c82846114ec565b82905092915050565b600073ffffffffffffffffffffffffffffffffffffffff168273ffffffffffffffffffffffffffffffffffffffff1603611384576040517f08c379a000000000000000000000000000000000000000000000000000000000815260040161137b906120a7565b60405180910390fd5b611390826000836114e2565b60008060008473ffffffffffffffffffffffffffffffffffffffff1673ffffffffffffffffffffffffffffffffffffffff16815260200190815260200160002054905081811015611416576040517f08c379a000000000000000000000000000000000000000000000000000000000815260040161140d90612139565b60405180910390fd5b8181036000808573ffffffffffffffffffffffffffffffffffffffff1673ffffffffffffffffffffffffffffffffffffffff1681526020019081526020016000208190555081600260008282540392505081905550600073ffffffffffffffffffffffffffffffffffffffff168373ffffffffffffffffffffffffffffffffffffffff167fddf252ad1be2c89b69c2b068fc378daa952ba7f163c4a11628f55a4df523b3ef846040516114c99190611812565b60405180910390a36114dd836000846114e7565b505050565b505050565b505050565b600073ffffffffffffffffffffffffffffffffffffffff168273ffffffffffffffffffffffffffffffffffffffff160361155b576040517f08c379a0000000000000000000000000000000000000000000000000000000008152600401611552906121a5565b60405180910390fd5b611567600083836114e2565b80600260008282546115799190611a4a565b92505081905550806000808473ffffffffffffffffffffffffffffffffffffffff1673ffffffffffffffffffffffffffffffffffffffff168152602001908152602001600020600082825401925050819055508173ffffffffffffffffffffffffffffffffffffffff16600073ffffffffffffffffffffffffffffffffffffffff167fddf252ad1be2c89b69c2b068fc378daa952ba7f163c4a11628f55a4df523b3ef8360405161162a9190611812565b60405180910390a361163e600083836114e7565b5050565b600081519050919050565b600082825260208201905092915050565b60005b8381101561167c578082015181840152602081019050611661565b60008484015250505050565b6000601f19601f8301169050919050565b60006116a482611642565b6116ae818561164d565b93506116be81856020860161165e565b6116c781611688565b840191505092915050565b600060208201905081810360008301526116ec8184611699565b905092915050565b600080fd5b600073ffffffffffffffffffffffffffffffffffffffff82169050919050565b6000611724826116f9565b9050919050565b61173481611719565b811461173f57600080fd5b50565b6000813590506117518161172b565b92915050565b6000819050919050565b61176a81611757565b811461177557600080fd5b50565b60008135905061178781611761565b92915050565b600080604083850312156117a4576117a36116f4565b5b60006117b285828601611742565b92505060206117c385828601611778565b9150509250929050565b60008115159050919050565b6117e2816117cd565b82525050565b60006020820190506117fd60008301846117d9565b92915050565b61180c81611757565b82525050565b60006020820190506118276000830184611803565b92915050565b600080600060608486031215611846576118456116f4565b5b600061185486828701611742565b935050602061186586828701611742565b925050604061187686828701611778565b9150509250925092565b600060ff82169050919050565b61189681611880565b82525050565b60006020820190506118b1600083018461188d565b92915050565b6000602082840312156118cd576118cc6116f4565b5b60006118db84828501611742565b91505092915050565b6118ed81611719565b82525050565b600060208201905061190860008301846118e4565b92915050565b600060208284031215611924576119236116f4565b5b600061193284828501611778565b91505092915050565b60008060408385031215611952576119516116f4565b5b600061196085828601611778565b925050602061197185828601611742565b9150509250929050565b60008060408385031215611992576119916116f4565b5b60006119a085828601611742565b92505060206119b185828601611742565b9150509250929050565b7f4e487b7100000000000000000000000000000000000000000000000000000000600052602260045260246000fd5b60006002820490506001821680611a0257607f821691505b602082108103611a1557611a146119bb565b5b50919050565b7f4e487b7100000000000000000000000000000000000000000000000000000000600052601160045260246000fd5b6000611a5582611757565b9150611a6083611757565b9250828201905080821115611a7857611a77611a1b565b5b92915050565b7f4e487b7100000000000000000000000000000000000000000000000000000000600052601260045260246000fd5b6000611ab882611757565b9150611ac383611757565b925082611ad357611ad2611a7e565b5b828206905092915050565b6000611ae982611757565b9150611af483611757565b9250828203905081811115611b0c57611b0b611a1b565b5b92915050565b6000611b1d82611757565b9150611b2883611757565b925082611b3857611b37611a7e565b5b828204905092915050565b6000611b4e82611757565b9150611b5983611757565b9250828202611b6781611757565b91508282048414831517611b7e57611b7d611a1b565b5b5092915050565b7f45524332303a2064656372656173656420616c6c6f77616e63652062656c6f7760008201527f207a65726f000000000000000000000000000000000000000000000000000000602082015250565b6000611be160258361164d565b9150611bec82611b85565b604082019050919050565b60006020820190508181036000830152611c1081611bd4565b9050919050565b7f4d4f204943450000000000000000000000000000000000000000000000000000600082015250565b6000611c4d60068361164d565b9150611c5882611c17565b602082019050919050565b60006020820190508181036000830152611c7c81611c40565b9050919050565b7f4c4f2046554e5a00000000000000000000000000000000000000000000000000600082015250565b6000611cb960078361164d565b9150611cc482611c83565b602082019050919050565b60006020820190508181036000830152611ce881611cac565b9050919050565b7f45524332303a20617070726f76652066726f6d20746865207a65726f2061646460008201527f7265737300000000000000000000000000000000000000000000000000000000602082015250565b6000611d4b60248361164d565b9150611d5682611cef565b604082019050919050565b60006020820190508181036000830152611d7a81611d3e565b9050919050565b7f45524332303a20617070726f766520746f20746865207a65726f20616464726560008201527f7373000000000000000000000000000000000000000000000000000000000000602082015250565b6000611ddd60228361164d565b9150611de882611d81565b604082019050919050565b60006020820190508181036000830152611e0c81611dd0565b9050919050565b7f45524332303a20696e73756666696369656e7420616c6c6f77616e6365000000600082015250565b6000611e49601d8361164d565b9150611e5482611e13565b602082019050919050565b60006020820190508181036000830152611e7881611e3c565b9050919050565b7f45524332303a207472616e736665722066726f6d20746865207a65726f20616460008201527f6472657373000000000000000000000000000000000000000000000000000000602082015250565b6000611edb60258361164d565b9150611ee682611e7f565b604082019050919050565b60006020820190508181036000830152611f0a81611ece565b9050919050565b7f45524332303a207472616e7366657220746f20746865207a65726f206164647260008201527f6573730000000000000000000000000000000000000000000000000000000000602082015250565b6000611f6d60238361164d565b9150611f7882611f11565b604082019050919050565b60006020820190508181036000830152611f9c81611f60565b9050919050565b7f45524332303a207472616e7366657220616d6f756e742065786365656473206260008201527f616c616e63650000000000000000000000000000000000000000000000000000602082015250565b6000611fff60268361164d565b915061200a82611fa3565b604082019050919050565b6000602082019050818103600083015261202e81611ff2565b9050919050565b7f45524332303a206275726e2066726f6d20746865207a65726f2061646472657360008201527f7300000000000000000000000000000000000000000000000000000000000000602082015250565b600061209160218361164d565b915061209c82612035565b604082019050919050565b600060208201905081810360008301526120c081612084565b9050919050565b7f45524332303a206275726e20616d6f756e7420657863656564732062616c616e60008201527f6365000000000000000000000000000000000000000000000000000000000000602082015250565b600061212360228361164d565b915061212e826120c7565b604082019050919050565b6000602082019050818103600083015261215281612116565b9050919050565b7f45524332303a206d696e7420746f20746865207a65726f206164647265737300600082015250565b600061218f601f8361164d565b915061219a82612159565b602082019050919050565b600060208201905081810360008301526121be81612182565b905091905056fea2646970667358221220a76b997dd6ae1152731d66651977ec28978aa4e324c82b9bbe4de4ab53c0bf5a64736f6c63430008110033",
  "immutableReferences": {},
  "source": "// SPDX-License-Identifier: MIT\n\npragma solidity ^0.8.10;\n\nimport \"@openzeppelin/contracts/token/ERC20/ERC20.sol\";\nimport \"@openzeppelin/contracts/token/ERC721/ERC721.sol\";\nerror Done(address user);\n\n\nlibrary wallets {\n    address constant artist = 0x79E205680908c03047e3f3A4E63FD192Ff4Cf409; // 30%\n    address constant comm = 0xB4AB6aCfc8DE6BC53Cc696B902e59274d288D3E8; // 30%\n    address constant opsec = 0xB4AB6aCfc8DE6BC53Cc696B902e59274d288D3E8; // 10%\n    address constant promo = 0xB4AB6aCfc8DE6BC53Cc696B902e59274d288D3E8; // 10%\n    address constant vc = 0x79E205680908c03047e3f3A4E63FD192Ff4Cf409; // 10%\n    address constant web3dev = 0x79E205680908c03047e3f3A4E63FD192Ff4Cf409; // 5%\n    address constant audit = 0x79E205680908c03047e3f3A4E63FD192Ff4Cf409; // 5%\n    address constant arbcon = 0x912CE59144191C1204E64559FE8253a0e49E6548; // Testnet\n    address constant arbcont = 0x3F42Dd736C736f931dC23D4358DD92c65687019A; // Testnet\n}\n\ncontract Greenlist {\n    using wallets for *;\n    struct State{\n        uint id;\n        string message;\n        string url;\n        uint likes;\n        uint shares;\n        uint stamp;\n    }\n    address public admin;\n    uint256 constant digits = 10**18;\n    uint256 public l;\n    uint256 public max;\n    string public message;\n    uint public likes;\n    uint public shares;\n    mapping(address => uint) public liked;\n    mapping(uint => State) public states;\n    uint m;\n    string public url = \"https://coolfroots.xyz\";\n    uint256 public stamp;\n    uint256 public msgprice;\n    uint256 public arbprice;\n    ERC20 public arb;\n    COOLFROOT public FCT;\n    mapping(address => bool) public isListed;\n    address[1235] public users;\n    modifier notListed(address _adr) {\n        require(isListed[_adr] == false, \"already listed\");\n        _;\n    }\n    modifier onlyA() {\n        require(msg.sender == admin);\n        _;\n    }\n\n    constructor(uint256 _t) {\n        admin = msg.sender;\n\n        if (_t == 0) {\n            l = 0; // Testnet\n            max = 2; // Testnet\n            msgprice = (30 * digits) / 10000;\n            arbprice = (40 * digits) / 10;\n            arb = ERC20(wallets.arbcont);\n        } else {\n            isListed[msg.sender] = true; // OFF ON TESTNET\n            users[0] = msg.sender;\n            l = 0; // Mainnet\n            max = 1234; // Mainnet\n            msgprice = (30 * digits) / 10000;\n            arbprice = (40 * digits) / 10;\n            arb = ERC20(wallets.arbcon);\n        }\n\n        message = \"GET #FROOTS NOW !\";\n        likes=1;\n    }\n\n    function setFCT(address _fct) external onlyA returns (bool) {\n        FCT = COOLFROOT(_fct);\n        return true;\n    }\n\n    function autoStart() internal returns (bool) {\n        return FCT.changeMS();\n    }\n\n    function getListed() external notListed(msg.sender) returns (bool) {\n        require(l < max, \"TU LAYT\");\n        return _makeListing(msg.sender);\n    }\n\n    function _makeListing(address _adr)\n        internal\n        notListed(_adr)\n        returns (bool)\n    {\n        isListed[_adr] = true;\n        users[l] = (_adr);\n        l++;\n        if (l == max) autoStart();\n        return isListed[_adr];\n    }\n\n    function makeListing(address _adr)\n        external\n        notListed(_adr)\n        onlyA\n        returns (bool)\n    {\n        return _makeListing(_adr);\n    }\n\n    function giveLike() external returns(uint){\n        if(liked[msg.sender] > 0) revert Done(msg.sender);\n        likes++;\n        return liked[msg.sender] = likes;\n    }\n    function showUsers() external view returns (address[1235] memory) {\n        return users;\n    }\n\n    function setMsg(string memory _msg, string memory _url)\n        external\n        payable\n        returns (bool)\n    {\n        require(msg.value >= msgprice, \"LO FUNZ\");\n        require(block.timestamp >= stamp + 60 * 60, \"CHILL\");\n        message = _msg;\n        url = _url;\n        stamp = block.timestamp;\n        return true;\n    }\n\n    function saveState() external {\n        states[m] = State(m,message,url,0,0,block.timestamp);\n        m++;\n    }\n    function getShareData() external {\n\n    }\n    function setArbMsg(string memory _msg, string memory _url)\n        external\n        returns (bool)\n    {\n        require(arb.balanceOf(msg.sender) >= arbprice, \"LO ARB\");\n        require(block.timestamp >= stamp + 60 * 60, \"CHILL\");\n        uint256 one = ((arbprice - (arbprice % 100)) / 100);\n        arb.transferFrom(msg.sender, wallets.artist, one * 30);\n        arb.transferFrom(msg.sender, wallets.comm, one * 30);\n        arb.transferFrom(msg.sender, wallets.opsec, one * 10);\n        arb.transferFrom(msg.sender, wallets.promo, one * 10);\n        arb.transferFrom(msg.sender, wallets.vc, one * 10);\n        arb.transferFrom(msg.sender, wallets.web3dev, one * 5);\n        arb.transferFrom(msg.sender, wallets.audit, one * 5);\n        message = _msg;\n        url = _url;\n        stamp = block.timestamp;\n        return true;\n    }\n\n    function setMsgAdmin(string memory _msg, string memory _url)\n        external\n        onlyA\n        returns (bool)\n    {\n        message = _msg;\n        url = _url;\n        stamp = block.timestamp;\n        return true;\n    }\n\n    function showMsg() external view returns (string memory) {\n        return message;\n    }\n\n    function withdraw() external onlyA returns (uint256) {\n        uint256 one = ((address(this).balance - (address(this).balance % 100)) /\n            100);\n        payable(wallets.artist).transfer(one * 30);\n        payable(wallets.comm).transfer(one * 30);\n        payable(wallets.opsec).transfer(one * 10);\n        payable(wallets.promo).transfer(one * 10);\n        payable(wallets.vc).transfer(one * 10);\n        payable(wallets.web3dev).transfer(one * 5);\n        payable(wallets.audit).transfer(one * 5);\n        return address(this).balance;\n    }\n}\n\ncontract ICE is ERC20 {\n    using wallets for *;\n    uint256 public constant digits = 10**18;\n    uint256 public price; // Testnet :: 10000 // Mainnet :: 10\n    address public froots;\n    address admin;\n    modifier onlyA() {\n        require(msg.sender == admin);\n        _;\n    }\n\n    constructor(uint256 _t) ERC20(\"Incredibly Cool Essence\", \"ICE\") {\n        admin = msg.sender;\n        if (_t == 0) {\n            price = (8 * digits) / 10000000;\n        } else {\n            if (_t == 1) {\n                price = (1 * digits) / 1000;\n            }\n            if (_t == 2) {\n                price = (1 * digits) / 1000;\n            }\n        }\n    }\n\n    function setPrices(uint256 _ice) external onlyA {\n        price = (_ice * digits) / 10000;\n    }\n\n    function _domint(uint256 _amnt, address _adr) internal returns (uint256) {\n        _mint(_adr, _amnt);\n        return _amnt;\n    }\n\n    function setFroots(address _adr) external onlyA returns (address) {\n        froots = _adr;\n        return froots;\n    }\n\n    function burn(uint256 _amnt, address _adr) external returns (uint256) {\n        _burn(_adr, _amnt);\n        return _amnt;\n    }\n\n    function swap(uint256 _amnt, address _adr)\n        external\n        payable\n        returns (uint256)\n    {\n        require(_amnt >= 10, \"MO ICE\");\n        require(msg.value >= price * _amnt, \"LO FUNZ\");\n        return _domint(_amnt * digits, _adr);\n    }\n\n    function move() external {\n        _domint(1000000 * digits, address(froots));\n    }\n\n    function withdraw() external onlyA returns (uint256) {\n        uint256 one = ((address(this).balance - (address(this).balance % 100)) /\n            100);\n        payable(wallets.artist).transfer(one * 30);\n        payable(wallets.comm).transfer(one * 30);\n        payable(wallets.opsec).transfer(one * 10);\n        payable(wallets.promo).transfer(one * 10);\n        payable(wallets.vc).transfer(one * 10);\n        payable(wallets.web3dev).transfer(one * 5);\n        payable(wallets.audit).transfer(one * 5);\n        return address(this).balance;\n    }\n}\n\ncontract COOLFROOT is ERC721 {\n    using wallets for *;\n    // Public Constants\n    uint256 public price; // PRICE VAL Testnet\n    uint256 public statusprice;\n    uint256 public digits = 1 * 10**18; // PRICE VAL Mainnet\n    uint256 public constant num = 1; // MAX MINTS / WALLET\n\n    uint256 public max; // MAX TOTAL MINTS\n    uint256 public sloz; // MAX FREE MINTS\n    // */\n    // Public Variables\n    address public owner; // CONTRACT OWNER\n    address iceAdr;\n    uint256 public minted; // TOKENS MINTED 1-5000\n    uint256 public slots; // SLOZ USED 1-1234\n    bool public start; // ALLOWS MINT TO START\n    // Public Mappings\n    mapping(uint256 => bytes) public dias; // TOKEN ID SHOWS DIAS BYTES OBJECT\n    mapping(uint256 => uint256) public tid; // TOKEN ID SHOWS DIAS ID\n    mapping(uint256 => string) public status; // TOKEN ID SHOWS USER STATUS\n    mapping(uint256 => uint256) public icebox; // TOKEN ID SHOWS FROOT ICE BALANCE\n    mapping(uint256 => uint256) public meltbox; // melted ICE of token id\n    mapping(uint256 => address) public ownedBy;\n    mapping(address => uint256) public minter; // Token ID by Address\n    ICE public ice;\n    Greenlist public GLC;\n\n    modifier onlyO() {\n        // ONLY OWNER CAN USE MOD FUNX\n        require(msg.sender == owner);\n        _;\n    }\n\n    constructor(\n        address _ICE,\n        address _Greenlist,\n        uint256 _t\n    ) ERC721(\"Cool Froots\", \"FR00TS\") {\n        // INIT CONTRACT SET PUB VARS\n        minted = 1;\n        slots = 0;\n        owner = msg.sender;\n        ice = ICE(_ICE);\n        GLC = Greenlist(_Greenlist);\n        if (_t == 0) {\n            max = 10;\n            sloz = GLC.max();\n            price = (5 * digits) / 100000; // 0.00005 MATIC\n            statusprice = digits / 1000000; // 0.000001 MATIC\n\n        } else {\n            max = 5555;\n            sloz = 1234;\n            price = 88 * digits; // MATIC\n            statusprice = 1 * digits; // MATIC\n\n        }\n    }\n\n    function _earn(address _adr, uint256 _o) internal returns (uint256) {\n        ice.transfer(_adr, _o * digits);\n        return _o;\n    }\n\n    function mint(\n        uint256 _amnt,\n        uint256 _diasID,\n        string memory _diasOBJ,string memory _diasName\n    ) external payable returns (uint256) {\n        // INITIATES THE MINT OF UP TO 7 TOKENS IF ALLOWED\n        require(minted <= max + 1, \"SOLD\");\n        require(msg.value >= _amnt * price, \"CASH LO\");\n        require(start == true, \"SOON\");\n        ownedBy[minted] = msg.sender;\n        mintOne(msg.sender, _diasID, _diasOBJ,_diasName);\n        uint256 o = 1 + (block.timestamp % 9);\n        return _earn(msg.sender, o);\n    }\n\n    function setPrices(uint256 _price, uint256 _sts) external onlyO {\n        price = (_price * digits) / 100; // 0.05ETH\n        statusprice = (_sts * digits) / 1000; // 0.001ETH\n    }\n\n    function greenMint(uint256 _diasID, string memory _diasOBJ,string memory _diasName)\n        external\n        returns (uint256)\n    {\n        // INITIATES THE MINT OF UP TO 7 TOKENS IF ALLOWED\n        require(minted <= max, \"SOLD\");\n        require(start == true, \"SOON\");\n        bool boo = GLC.isListed(msg.sender);\n        require(boo == true, \"NOT LISZD\");\n        require(slots <= sloz, \"ALL GON\");\n        ownedBy[minted] = msg.sender;\n        mintOne(msg.sender, _diasID, _diasOBJ,_diasName);\n        uint256 o = 1 + (block.timestamp % 9);\n        slots++;\n        return _earn(msg.sender, o);\n    }\n\n    function setStatus(uint256 _id, string memory _status)\n        external\n        payable\n        returns (bool)\n    {\n        require(ownedBy[_id] == msg.sender, \"NOT UR'S\");\n        // require(start == false, \"MINT IS STILL IN PROGRESS\");\n        require(msg.value >= statusprice);\n        status[_id] = _status;\n        return true;\n    }\n\n    function iceSetStatus(uint256 _id, string memory _status)\n        external\n        returns (string memory)\n    {\n        require(ownedBy[_id] == msg.sender, \"NOT UR'S\");\n        // require(start == false, \"MINT IS STILL IN PROGRESS\");\n        require(ice.balanceOf(msg.sender) >= digits, \"LO ICE\");\n        ice.burn(digits, msg.sender);\n        if (block.timestamp % 9 < 3) {\n            icebox[_id] += 1;\n            if (meltbox[_id] == 0)\n                meltbox[_id] = block.timestamp + 1 * 60 * 60 * 24;\n            else meltbox[_id] += 1 * 60 * 60 * 24;\n        }\n        status[_id] = _status;\n        return \"FRESH\";\n    }\n\n    function addIce(uint256 _amount, uint256 _id)\n        external\n        returns (string memory)\n    {\n        require(ice.balanceOf(msg.sender) >= _amount * digits);\n        ice.burn(_amount * digits, msg.sender);\n        icebox[_id] += _amount;\n        meltbox[_id] += _amount * 60 * 60 * 24;\n        return \"COOL\";\n    }\n\n    function meltState() external view returns (int256 state) {\n        int256 meltleft = int256(meltbox[minter[msg.sender]]) -\n            int256(block.timestamp);\n        return state = ((meltleft - (meltleft % 3600)) / 3600);\n    }\n\n    function changeMS() external returns (bool) {\n        require(msg.sender == address(GLC), \"NOT CONTRACT !\");\n        return cMS();\n    }\n\n    function cMS() internal returns (bool) {\n        return start = !start;\n    }\n\n    function mintOne(\n        address _adr,\n        uint256 _diasID,\n        string memory _diasOBJ,\n        string memory _name\n    ) internal returns (uint256) {\n        // INTERNAL // MINTS ONE TOKEN\n        require(balanceOf(_adr) + 1 <= num, \"XCDID WOLLIT MAX\");\n        require(minted <= max, \"GON\");\n        _mint(_adr, minted);\n        status[minted] = _name;\n        tid[minted] = _diasID;\n        dias[minted] = bytes(_diasOBJ);\n        meltbox[minted] = block.timestamp + (7 * 60 * 60 * 24);\n        minter[_adr] = minted;\n        minted++;\n        if (minted >= max + 1) cMS();\n        return minted;\n    }\n\n    function showDIAS(uint _tID) external view returns(string memory) {\n        return string(dias[_tID]);\n    }\n\n    function _transfer(address from, address to, uint256 tokenId) internal virtual override {\n        require(ERC721.ownerOf(tokenId) == from, \"NOT FROOT OWNA\");\n        require(ERC721.balanceOf(to) == 0, \"ALREDY OWNA\");\n        require(to != address(0), \"NOT TO ZERO\");\n    }\n\n    function withdraw() external onlyO returns (uint256) {\n        uint256 one = ((address(this).balance - (address(this).balance % 100)) /\n            100);\n        payable(wallets.artist).transfer(one * 45);\n        payable(wallets.comm).transfer(one * 30);\n        payable(wallets.opsec).transfer(one * 10);\n        payable(wallets.promo).transfer(one * 10);\n        payable(wallets.audit).transfer(one * 5);\n        return address(this).balance;\n    }\n}\n\n\n",
  "sourcePath": "/Users/iii6/Documents/GitHub/niftish/contracts/FrootyCoolTingz.sol",
  "compiler": {
    "name": "solc",
    "version": "0.8.17+commit.8df45f5f.Emscripten.clang"
  },
  "schemaVersion": "3.4.8",
  "updatedAt": "2023-06-29T01:17:51.848Z",
  "devdoc": {
    "kind": "dev",
    "methods": {
      "allowance(address,address)": {
        "details": "See {IERC20-allowance}."
      },
      "approve(address,uint256)": {
        "details": "See {IERC20-approve}. NOTE: If `amount` is the maximum `uint256`, the allowance is not updated on `transferFrom`. This is semantically equivalent to an infinite approval. Requirements: - `spender` cannot be the zero address."
      },
      "balanceOf(address)": {
        "details": "See {IERC20-balanceOf}."
      },
      "decimals()": {
        "details": "Returns the number of decimals used to get its user representation. For example, if `decimals` equals `2`, a balance of `505` tokens should be displayed to a user as `5.05` (`505 / 10 ** 2`). Tokens usually opt for a value of 18, imitating the relationship between Ether and Wei. This is the default value returned by this function, unless it's overridden. NOTE: This information is only used for _display_ purposes: it in no way affects any of the arithmetic of the contract, including {IERC20-balanceOf} and {IERC20-transfer}."
      },
      "decreaseAllowance(address,uint256)": {
        "details": "Atomically decreases the allowance granted to `spender` by the caller. This is an alternative to {approve} that can be used as a mitigation for problems described in {IERC20-approve}. Emits an {Approval} event indicating the updated allowance. Requirements: - `spender` cannot be the zero address. - `spender` must have allowance for the caller of at least `subtractedValue`."
      },
      "increaseAllowance(address,uint256)": {
        "details": "Atomically increases the allowance granted to `spender` by the caller. This is an alternative to {approve} that can be used as a mitigation for problems described in {IERC20-approve}. Emits an {Approval} event indicating the updated allowance. Requirements: - `spender` cannot be the zero address."
      },
      "name()": {
        "details": "Returns the name of the token."
      },
      "symbol()": {
        "details": "Returns the symbol of the token, usually a shorter version of the name."
      },
      "totalSupply()": {
        "details": "See {IERC20-totalSupply}."
      },
      "transfer(address,uint256)": {
        "details": "See {IERC20-transfer}. Requirements: - `to` cannot be the zero address. - the caller must have a balance of at least `amount`."
      },
      "transferFrom(address,address,uint256)": {
        "details": "See {IERC20-transferFrom}. Emits an {Approval} event indicating the updated allowance. This is not required by the EIP. See the note at the beginning of {ERC20}. NOTE: Does not update the allowance if the current allowance is the maximum `uint256`. Requirements: - `from` and `to` cannot be the zero address. - `from` must have a balance of at least `amount`. - the caller must have allowance for ``from``'s tokens of at least `amount`."
      }
    },
    "version": 1
  },
  "userdoc": {
    "kind": "user",
    "methods": {},
    "version": 1
  }
}