{
  "contractName": "ICE",
  "abi": [
    {
      "inputs": [
        {
          "internalType": "uint256",
          "name": "_t",
          "type": "uint256"
        }
      ],
      "stateMutability": "nonpayable",
      "type": "constructor"
    },
    {
      "anonymous": false,
      "inputs": [
        {
          "indexed": true,
          "internalType": "address",
          "name": "owner",
          "type": "address"
        },
        {
          "indexed": true,
          "internalType": "address",
          "name": "spender",
          "type": "address"
        },
        {
          "indexed": false,
          "internalType": "uint256",
          "name": "value",
          "type": "uint256"
        }
      ],
      "name": "Approval",
      "type": "event"
    },
    {
      "anonymous": false,
      "inputs": [
        {
          "indexed": true,
          "internalType": "address",
          "name": "from",
          "type": "address"
        },
        {
          "indexed": true,
          "internalType": "address",
          "name": "to",
          "type": "address"
        },
        {
          "indexed": false,
          "internalType": "uint256",
          "name": "value",
          "type": "uint256"
        }
      ],
      "name": "Transfer",
      "type": "event"
    },
    {
      "inputs": [
        {
          "internalType": "address",
          "name": "owner",
          "type": "address"
        },
        {
          "internalType": "address",
          "name": "spender",
          "type": "address"
        }
      ],
      "name": "allowance",
      "outputs": [
        {
          "internalType": "uint256",
          "name": "",
          "type": "uint256"
        }
      ],
      "stateMutability": "view",
      "type": "function",
      "constant": true
    },
    {
      "inputs": [
        {
          "internalType": "address",
          "name": "spender",
          "type": "address"
        },
        {
          "internalType": "uint256",
          "name": "amount",
          "type": "uint256"
        }
      ],
      "name": "approve",
      "outputs": [
        {
          "internalType": "bool",
          "name": "",
          "type": "bool"
        }
      ],
      "stateMutability": "nonpayable",
      "type": "function"
    },
    {
      "inputs": [],
      "name": "arb",
      "outputs": [
        {
          "internalType": "contract ERC20",
          "name": "",
          "type": "address"
        }
      ],
      "stateMutability": "view",
      "type": "function",
      "constant": true
    },
    {
      "inputs": [],
      "name": "arbprice",
      "outputs": [
        {
          "internalType": "uint256",
          "name": "",
          "type": "uint256"
        }
      ],
      "stateMutability": "view",
      "type": "function",
      "constant": true
    },
    {
      "inputs": [
        {
          "internalType": "address",
          "name": "account",
          "type": "address"
        }
      ],
      "name": "balanceOf",
      "outputs": [
        {
          "internalType": "uint256",
          "name": "",
          "type": "uint256"
        }
      ],
      "stateMutability": "view",
      "type": "function",
      "constant": true
    },
    {
      "inputs": [],
      "name": "decimals",
      "outputs": [
        {
          "internalType": "uint8",
          "name": "",
          "type": "uint8"
        }
      ],
      "stateMutability": "view",
      "type": "function",
      "constant": true
    },
    {
      "inputs": [
        {
          "internalType": "address",
          "name": "spender",
          "type": "address"
        },
        {
          "internalType": "uint256",
          "name": "subtractedValue",
          "type": "uint256"
        }
      ],
      "name": "decreaseAllowance",
      "outputs": [
        {
          "internalType": "bool",
          "name": "",
          "type": "bool"
        }
      ],
      "stateMutability": "nonpayable",
      "type": "function"
    },
    {
      "inputs": [],
      "name": "digits",
      "outputs": [
        {
          "internalType": "uint256",
          "name": "",
          "type": "uint256"
        }
      ],
      "stateMutability": "view",
      "type": "function",
      "constant": true
    },
    {
      "inputs": [],
      "name": "froots",
      "outputs": [
        {
          "internalType": "address",
          "name": "",
          "type": "address"
        }
      ],
      "stateMutability": "view",
      "type": "function",
      "constant": true
    },
    {
      "inputs": [
        {
          "internalType": "address",
          "name": "spender",
          "type": "address"
        },
        {
          "internalType": "uint256",
          "name": "addedValue",
          "type": "uint256"
        }
      ],
      "name": "increaseAllowance",
      "outputs": [
        {
          "internalType": "bool",
          "name": "",
          "type": "bool"
        }
      ],
      "stateMutability": "nonpayable",
      "type": "function"
    },
    {
      "inputs": [],
      "name": "name",
      "outputs": [
        {
          "internalType": "string",
          "name": "",
          "type": "string"
        }
      ],
      "stateMutability": "view",
      "type": "function",
      "constant": true
    },
    {
      "inputs": [],
      "name": "price",
      "outputs": [
        {
          "internalType": "uint256",
          "name": "",
          "type": "uint256"
        }
      ],
      "stateMutability": "view",
      "type": "function",
      "constant": true
    },
    {
      "inputs": [],
      "name": "symbol",
      "outputs": [
        {
          "internalType": "string",
          "name": "",
          "type": "string"
        }
      ],
      "stateMutability": "view",
      "type": "function",
      "constant": true
    },
    {
      "inputs": [],
      "name": "totalSupply",
      "outputs": [
        {
          "internalType": "uint256",
          "name": "",
          "type": "uint256"
        }
      ],
      "stateMutability": "view",
      "type": "function",
      "constant": true
    },
    {
      "inputs": [
        {
          "internalType": "address",
          "name": "recipient",
          "type": "address"
        },
        {
          "internalType": "uint256",
          "name": "amount",
          "type": "uint256"
        }
      ],
      "name": "transfer",
      "outputs": [
        {
          "internalType": "bool",
          "name": "",
          "type": "bool"
        }
      ],
      "stateMutability": "nonpayable",
      "type": "function"
    },
    {
      "inputs": [
        {
          "internalType": "address",
          "name": "sender",
          "type": "address"
        },
        {
          "internalType": "address",
          "name": "recipient",
          "type": "address"
        },
        {
          "internalType": "uint256",
          "name": "amount",
          "type": "uint256"
        }
      ],
      "name": "transferFrom",
      "outputs": [
        {
          "internalType": "bool",
          "name": "",
          "type": "bool"
        }
      ],
      "stateMutability": "nonpayable",
      "type": "function"
    },
    {
      "inputs": [
        {
          "internalType": "address",
          "name": "_adr",
          "type": "address"
        }
      ],
      "name": "setFroots",
      "outputs": [
        {
          "internalType": "address",
          "name": "",
          "type": "address"
        }
      ],
      "stateMutability": "nonpayable",
      "type": "function"
    },
    {
      "inputs": [
        {
          "internalType": "address",
          "name": "_arb",
          "type": "address"
        }
      ],
      "name": "setARB",
      "outputs": [],
      "stateMutability": "nonpayable",
      "type": "function"
    },
    {
      "inputs": [
        {
          "internalType": "uint256",
          "name": "_amnt",
          "type": "uint256"
        },
        {
          "internalType": "address",
          "name": "_adr",
          "type": "address"
        }
      ],
      "name": "burn",
      "outputs": [
        {
          "internalType": "uint256",
          "name": "",
          "type": "uint256"
        }
      ],
      "stateMutability": "nonpayable",
      "type": "function"
    },
    {
      "inputs": [
        {
          "internalType": "uint256",
          "name": "_amnt",
          "type": "uint256"
        },
        {
          "internalType": "address",
          "name": "_adr",
          "type": "address"
        }
      ],
      "name": "swap",
      "outputs": [
        {
          "internalType": "uint256",
          "name": "",
          "type": "uint256"
        }
      ],
      "stateMutability": "payable",
      "type": "function",
      "payable": true
    },
    {
      "inputs": [
        {
          "internalType": "uint256",
          "name": "_amnt",
          "type": "uint256"
        },
        {
          "internalType": "address",
          "name": "_adr",
          "type": "address"
        }
      ],
      "name": "arbuy",
      "outputs": [
        {
          "internalType": "uint256",
          "name": "",
          "type": "uint256"
        }
      ],
      "stateMutability": "nonpayable",
      "type": "function"
    },
    {
      "inputs": [
        {
          "internalType": "address",
          "name": "_adr",
          "type": "address"
        }
      ],
      "name": "move",
      "outputs": [],
      "stateMutability": "nonpayable",
      "type": "function"
    },
    {
      "inputs": [],
      "name": "withdraw",
      "outputs": [
        {
          "internalType": "uint256",
          "name": "",
          "type": "uint256"
        }
      ],
      "stateMutability": "nonpayable",
      "type": "function"
    }
  ],
  "bytecode": "0x60806040523480156200001157600080fd5b50604051620033ac380380620033ac83398181016040528101906200003791906200064b565b6040518060400160405280601781526020017f496e6372656469626c7920436f6f6c20457373656e63650000000000000000008152506040518060400160405280600381526020017f49434500000000000000000000000000000000000000000000000000000000008152508160039081620000b49190620008ed565b508060049081620000c69190620008ed565b50505033600860006101000a81548173ffffffffffffffffffffffffffffffffffffffff021916908373ffffffffffffffffffffffffffffffffffffffff1602179055506200014869021e19e0c9bab2400000600860009054906101000a900473ffffffffffffffffffffffffffffffffffffffff166200046c60201b60201c565b506200017969021e19e0c9bab240000073b4ab6acfc8de6bc53cc696b902e59274d288d3e86200046c60201b60201c565b50620001aa69021e19e0c9bab24000007379e205680908c03047e3f3a4e63fd192ff4cf4096200046c60201b60201c565b50620001e969021e19e0c9bab2400000600860009054906101000a900473ffffffffffffffffffffffffffffffffffffffff166200046c60201b60201c565b5060008103620002535762989680670de0b6b3a764000060086200020e919062000a03565b6200021a919062000a7d565b600581905550620186a0670de0b6b3a7640000600f6200023b919062000a03565b62000247919062000a7d565b60068190555062000465565b6001810362000289576103e8670de0b6b3a7640000600162000276919062000a03565b62000282919062000a7d565b6005819055505b60028103620002bf576103e8670de0b6b3a76400006001620002ac919062000a03565b620002b8919062000a7d565b6005819055505b60038103620002f5576103e8670de0b6b3a76400006001620002e2919062000a03565b620002ee919062000a7d565b6005819055505b600481036200032b576103e8670de0b6b3a7640000600162000318919062000a03565b62000324919062000a7d565b6005819055505b6005810362000361576103e8670de0b6b3a764000060016200034e919062000a03565b6200035a919062000a7d565b6005819055505b6006810362000397576103e8670de0b6b3a7640000600162000384919062000a03565b62000390919062000a7d565b6005819055505b60078103620003cd576103e8670de0b6b3a76400006001620003ba919062000a03565b620003c6919062000a7d565b6005819055505b6008810362000403576103e8670de0b6b3a76400006001620003f0919062000a03565b620003fc919062000a7d565b6005819055505b600981036200046457612710670de0b6b3a7640000600862000426919062000a03565b62000432919062000a7d565b6005819055506064670de0b6b3a7640000600f62000451919062000a03565b6200045d919062000a7d565b6006819055505b5b5062000ba1565b60006200048082846200048960201b60201c565b82905092915050565b600073ffffffffffffffffffffffffffffffffffffffff168273ffffffffffffffffffffffffffffffffffffffff1603620004fb576040517f08c379a0000000000000000000000000000000000000000000000000000000008152600401620004f29062000b16565b60405180910390fd5b6200050f600083836200060160201b60201c565b806002600082825462000523919062000b38565b92505081905550806000808473ffffffffffffffffffffffffffffffffffffffff1673ffffffffffffffffffffffffffffffffffffffff16815260200190815260200160002060008282546200057a919062000b38565b925050819055508173ffffffffffffffffffffffffffffffffffffffff16600073ffffffffffffffffffffffffffffffffffffffff167fddf252ad1be2c89b69c2b068fc378daa952ba7f163c4a11628f55a4df523b3ef83604051620005e1919062000b84565b60405180910390a3620005fd600083836200060660201b60201c565b5050565b505050565b505050565b600080fd5b6000819050919050565b620006258162000610565b81146200063157600080fd5b50565b60008151905062000645816200061a565b92915050565b6000602082840312156200066457620006636200060b565b5b6000620006748482850162000634565b91505092915050565b600081519050919050565b7f4e487b7100000000000000000000000000000000000000000000000000000000600052604160045260246000fd5b7f4e487b7100000000000000000000000000000000000000000000000000000000600052602260045260246000fd5b60006002820490506001821680620006ff57607f821691505b602082108103620007155762000714620006b7565b5b50919050565b60008190508160005260206000209050919050565b60006020601f8301049050919050565b600082821b905092915050565b6000600883026200077f7fffffffffffffffffffffffffffffffffffffffffffffffffffffffffffffffff8262000740565b6200078b868362000740565b95508019841693508086168417925050509392505050565b6000819050919050565b6000620007ce620007c8620007c28462000610565b620007a3565b62000610565b9050919050565b6000819050919050565b620007ea83620007ad565b62000802620007f982620007d5565b8484546200074d565b825550505050565b600090565b620008196200080a565b62000826818484620007df565b505050565b5b818110156200084e57620008426000826200080f565b6001810190506200082c565b5050565b601f8211156200089d5762000867816200071b565b620008728462000730565b8101602085101562000882578190505b6200089a620008918562000730565b8301826200082b565b50505b505050565b600082821c905092915050565b6000620008c260001984600802620008a2565b1980831691505092915050565b6000620008dd8383620008af565b9150826002028217905092915050565b620008f8826200067d565b67ffffffffffffffff81111562000914576200091362000688565b5b620009208254620006e6565b6200092d82828562000852565b600060209050601f83116001811462000965576000841562000950578287015190505b6200095c8582620008cf565b865550620009cc565b601f19841662000975866200071b565b60005b828110156200099f5784890151825560018201915060208501945060208101905062000978565b86831015620009bf5784890151620009bb601f891682620008af565b8355505b6001600288020188555050505b505050505050565b7f4e487b7100000000000000000000000000000000000000000000000000000000600052601160045260246000fd5b600062000a108262000610565b915062000a1d8362000610565b925082820262000a2d8162000610565b9150828204841483151762000a475762000a46620009d4565b5b5092915050565b7f4e487b7100000000000000000000000000000000000000000000000000000000600052601260045260246000fd5b600062000a8a8262000610565b915062000a978362000610565b92508262000aaa5762000aa962000a4e565b5b828204905092915050565b600082825260208201905092915050565b7f45524332303a206d696e7420746f20746865207a65726f206164647265737300600082015250565b600062000afe601f8362000ab5565b915062000b0b8262000ac6565b602082019050919050565b6000602082019050818103600083015262000b318162000aef565b9050919050565b600062000b458262000610565b915062000b528362000610565b925082820190508082111562000b6d5762000b6c620009d4565b5b92915050565b62000b7e8162000610565b82525050565b600060208201905062000b9b600083018462000b73565b92915050565b6127fb8062000bb16000396000f3fe6080604052600436106101405760003560e01c80637cbca3e0116100b6578063a9059cbb1161006f578063a9059cbb1461049a578063acb5fedf146104d7578063d3986f0814610502578063dd62ed3e14610532578063e3c44ff71461056f578063fcd3533c1461059a57610140565b80637cbca3e01461037657806395d89b411461039f5780639e20437c146103ca578063a035b1fe146103f5578063a449060014610420578063a457c2d71461045d57610140565b806323cadd341161010857806323cadd3414610252578063313ce5671461027b57806339509351146102a65780633ccfd60b146102e357806370a082311461030e57806375ff10fd1461034b57610140565b806306fdde0314610145578063095ea7b3146101705780630fda531c146101ad57806318160ddd146101ea57806323b872dd14610215575b600080fd5b34801561015157600080fd5b5061015a6105d7565b6040516101679190611b21565b60405180910390f35b34801561017c57600080fd5b5061019760048036038101906101929190611bdc565b610669565b6040516101a49190611c37565b60405180910390f35b3480156101b957600080fd5b506101d460048036038101906101cf9190611c52565b610687565b6040516101e19190611ca1565b60405180910390f35b3480156101f657600080fd5b506101ff610a5d565b60405161020c9190611ca1565b60405180910390f35b34801561022157600080fd5b5061023c60048036038101906102379190611cbc565b610a67565b6040516102499190611c37565b60405180910390f35b34801561025e57600080fd5b5061027960048036038101906102749190611d0f565b610b5f565b005b34801561028757600080fd5b50610290610bdd565b60405161029d9190611d58565b60405180910390f35b3480156102b257600080fd5b506102cd60048036038101906102c89190611bdc565b610be6565b6040516102da9190611c37565b60405180910390f35b3480156102ef57600080fd5b506102f8610c92565b6040516103059190611ca1565b60405180910390f35b34801561031a57600080fd5b5061033560048036038101906103309190611d0f565b610dea565b6040516103429190611ca1565b60405180910390f35b34801561035757600080fd5b50610360610e32565b60405161036d9190611d82565b60405180910390f35b34801561038257600080fd5b5061039d60048036038101906103989190611d0f565b610e58565b005b3480156103ab57600080fd5b506103b4610ef6565b6040516103c19190611b21565b60405180910390f35b3480156103d657600080fd5b506103df610f88565b6040516103ec9190611ca1565b60405180910390f35b34801561040157600080fd5b5061040a610f94565b6040516104179190611ca1565b60405180910390f35b34801561042c57600080fd5b5061044760048036038101906104429190611d0f565b610f9a565b6040516104549190611d82565b60405180910390f35b34801561046957600080fd5b50610484600480360381019061047f9190611bdc565b611061565b6040516104919190611c37565b60405180910390f35b3480156104a657600080fd5b506104c160048036038101906104bc9190611bdc565b61114c565b6040516104ce9190611c37565b60405180910390f35b3480156104e357600080fd5b506104ec61116a565b6040516104f99190611dfc565b60405180910390f35b61051c60048036038101906105179190611c52565b611190565b6040516105299190611ca1565b60405180910390f35b34801561053e57600080fd5b5061055960048036038101906105549190611e17565b61124b565b6040516105669190611ca1565b60405180910390f35b34801561057b57600080fd5b506105846112d2565b6040516105919190611ca1565b60405180910390f35b3480156105a657600080fd5b506105c160048036038101906105bc9190611c52565b6112d8565b6040516105ce9190611ca1565b60405180910390f35b6060600380546105e690611e86565b80601f016020809104026020016040519081016040528092919081815260200182805461061290611e86565b801561065f5780601f106106345761010080835404028352916020019161065f565b820191906000526020600020905b81548152906001019060200180831161064257829003601f168201915b5050505050905090565b600061067d6106766112ed565b84846112f5565b6001905092915050565b6000600a8310156106cd576040517f08c379a00000000000000000000000000000000000000000000000000000000081526004016106c490611f03565b60405180910390fd5b826006546106db9190611f52565b600960009054906101000a900473ffffffffffffffffffffffffffffffffffffffff1673ffffffffffffffffffffffffffffffffffffffff166370a08231336040518263ffffffff1660e01b81526004016107369190611d82565b602060405180830381865afa158015610753573d6000803e3d6000fd5b505050506040513d601f19601f820116820180604052508101906107779190611fa9565b10156107b8576040517f08c379a00000000000000000000000000000000000000000000000000000000081526004016107af90612022565b60405180910390fd5b60006064846006546107ca9190611f52565b6107d49190612071565b846006546107e29190611f52565b6107ec91906120a2565b9050600960009054906101000a900473ffffffffffffffffffffffffffffffffffffffff1673ffffffffffffffffffffffffffffffffffffffff166323b872dd337379e205680908c03047e3f3a4e63fd192ff4cf40960328561084f9190611f52565b6040518463ffffffff1660e01b815260040161086d939291906120d6565b6020604051808303816000875af115801561088c573d6000803e3d6000fd5b505050506040513d601f19601f820116820180604052508101906108b09190612139565b50600960009054906101000a900473ffffffffffffffffffffffffffffffffffffffff1673ffffffffffffffffffffffffffffffffffffffff166323b872dd3373b4ab6acfc8de6bc53cc696b902e59274d288d3e8601e856109129190611f52565b6040518463ffffffff1660e01b8152600401610930939291906120d6565b6020604051808303816000875af115801561094f573d6000803e3d6000fd5b505050506040513d601f19601f820116820180604052508101906109739190612139565b50600960009054906101000a900473ffffffffffffffffffffffffffffffffffffffff1673ffffffffffffffffffffffffffffffffffffffff166323b872dd3373b4ab6acfc8de6bc53cc696b902e59274d288d3e86014856109d59190611f52565b6040518463ffffffff1660e01b81526004016109f3939291906120d6565b6020604051808303816000875af1158015610a12573d6000803e3d6000fd5b505050506040513d601f19601f82011682018060405250810190610a369190612139565b50610a54670de0b6b3a764000085610a4e9190611f52565b846114be565b91505092915050565b6000600254905090565b6000610a748484846114d3565b6000600160008673ffffffffffffffffffffffffffffffffffffffff1673ffffffffffffffffffffffffffffffffffffffff1681526020019081526020016000206000610abf6112ed565b73ffffffffffffffffffffffffffffffffffffffff1673ffffffffffffffffffffffffffffffffffffffff16815260200190815260200160002054905082811015610b3f576040517f08c379a0000000000000000000000000000000000000000000000000000000008152600401610b36906121d8565b60405180910390fd5b610b5385610b4b6112ed565b8584036112f5565b60019150509392505050565b600860009054906101000a900473ffffffffffffffffffffffffffffffffffffffff1673ffffffffffffffffffffffffffffffffffffffff163373ffffffffffffffffffffffffffffffffffffffff1614610bb957600080fd5b610bd9670de0b6b3a7640000620f4240610bd39190611f52565b826114be565b5050565b60006012905090565b6000610c88610bf36112ed565b848460016000610c016112ed565b73ffffffffffffffffffffffffffffffffffffffff1673ffffffffffffffffffffffffffffffffffffffff16815260200190815260200160002060008873ffffffffffffffffffffffffffffffffffffffff1673ffffffffffffffffffffffffffffffffffffffff16815260200190815260200160002054610c8391906121f8565b6112f5565b6001905092915050565b6000600860009054906101000a900473ffffffffffffffffffffffffffffffffffffffff1673ffffffffffffffffffffffffffffffffffffffff163373ffffffffffffffffffffffffffffffffffffffff1614610cee57600080fd5b600060648047610cfe9190612071565b47610d0991906120a2565b610d13919061222c565b90507379e205680908c03047e3f3a4e63fd192ff4cf40973ffffffffffffffffffffffffffffffffffffffff166108fc604683610d509190611f52565b9081150290604051600060405180830381858888f19350505050158015610d7b573d6000803e3d6000fd5b5073b4ab6acfc8de6bc53cc696b902e59274d288d3e873ffffffffffffffffffffffffffffffffffffffff166108fc601e83610db79190611f52565b9081150290604051600060405180830381858888f19350505050158015610de2573d6000803e3d6000fd5b504791505090565b60008060008373ffffffffffffffffffffffffffffffffffffffff1673ffffffffffffffffffffffffffffffffffffffff168152602001908152602001600020549050919050565b600760009054906101000a900473ffffffffffffffffffffffffffffffffffffffff1681565b600860009054906101000a900473ffffffffffffffffffffffffffffffffffffffff1673ffffffffffffffffffffffffffffffffffffffff163373ffffffffffffffffffffffffffffffffffffffff1614610eb257600080fd5b80600960006101000a81548173ffffffffffffffffffffffffffffffffffffffff021916908373ffffffffffffffffffffffffffffffffffffffff16021790555050565b606060048054610f0590611e86565b80601f0160208091040260200160405190810160405280929190818152602001828054610f3190611e86565b8015610f7e5780601f10610f5357610100808354040283529160200191610f7e565b820191906000526020600020905b815481529060010190602001808311610f6157829003601f168201915b5050505050905090565b670de0b6b3a764000081565b60055481565b6000600860009054906101000a900473ffffffffffffffffffffffffffffffffffffffff1673ffffffffffffffffffffffffffffffffffffffff163373ffffffffffffffffffffffffffffffffffffffff1614610ff657600080fd5b81600760006101000a81548173ffffffffffffffffffffffffffffffffffffffff021916908373ffffffffffffffffffffffffffffffffffffffff160217905550600760009054906101000a900473ffffffffffffffffffffffffffffffffffffffff169050919050565b600080600160006110706112ed565b73ffffffffffffffffffffffffffffffffffffffff1673ffffffffffffffffffffffffffffffffffffffff16815260200190815260200160002060008573ffffffffffffffffffffffffffffffffffffffff1673ffffffffffffffffffffffffffffffffffffffff1681526020019081526020016000205490508281101561112d576040517f08c379a0000000000000000000000000000000000000000000000000000000008152600401611124906122cf565b60405180910390fd5b6111416111386112ed565b858584036112f5565b600191505092915050565b60006111606111596112ed565b84846114d3565b6001905092915050565b600960009054906101000a900473ffffffffffffffffffffffffffffffffffffffff1681565b6000600a8310156111d6576040517f08c379a00000000000000000000000000000000000000000000000000000000081526004016111cd90611f03565b60405180910390fd5b826005546111e49190611f52565b341015611226576040517f08c379a000000000000000000000000000000000000000000000000000000000815260040161121d9061233b565b60405180910390fd5b611243670de0b6b3a76400008461123d9190611f52565b836114be565b905092915050565b6000600160008473ffffffffffffffffffffffffffffffffffffffff1673ffffffffffffffffffffffffffffffffffffffff16815260200190815260200160002060008373ffffffffffffffffffffffffffffffffffffffff1673ffffffffffffffffffffffffffffffffffffffff16815260200190815260200160002054905092915050565b60065481565b60006112e48284611752565b82905092915050565b600033905090565b600073ffffffffffffffffffffffffffffffffffffffff168373ffffffffffffffffffffffffffffffffffffffff1603611364576040517f08c379a000000000000000000000000000000000000000000000000000000000815260040161135b906123cd565b60405180910390fd5b600073ffffffffffffffffffffffffffffffffffffffff168273ffffffffffffffffffffffffffffffffffffffff16036113d3576040517f08c379a00000000000000000000000000000000000000000000000000000000081526004016113ca9061245f565b60405180910390fd5b80600160008573ffffffffffffffffffffffffffffffffffffffff1673ffffffffffffffffffffffffffffffffffffffff16815260200190815260200160002060008473ffffffffffffffffffffffffffffffffffffffff1673ffffffffffffffffffffffffffffffffffffffff168152602001908152602001600020819055508173ffffffffffffffffffffffffffffffffffffffff168373ffffffffffffffffffffffffffffffffffffffff167f8c5be1e5ebec7d5bd14f71427d1e84f3dd0314c0f7b2291e5b200ac8c7c3b925836040516114b19190611ca1565b60405180910390a3505050565b60006114ca8284611928565b82905092915050565b600073ffffffffffffffffffffffffffffffffffffffff168373ffffffffffffffffffffffffffffffffffffffff1603611542576040517f08c379a0000000000000000000000000000000000000000000000000000000008152600401611539906124f1565b60405180910390fd5b600073ffffffffffffffffffffffffffffffffffffffff168273ffffffffffffffffffffffffffffffffffffffff16036115b1576040517f08c379a00000000000000000000000000000000000000000000000000000000081526004016115a890612583565b60405180910390fd5b6115bc838383611a87565b60008060008573ffffffffffffffffffffffffffffffffffffffff1673ffffffffffffffffffffffffffffffffffffffff16815260200190815260200160002054905081811015611642576040517f08c379a000000000000000000000000000000000000000000000000000000000815260040161163990612615565b60405180910390fd5b8181036000808673ffffffffffffffffffffffffffffffffffffffff1673ffffffffffffffffffffffffffffffffffffffff16815260200190815260200160002081905550816000808573ffffffffffffffffffffffffffffffffffffffff1673ffffffffffffffffffffffffffffffffffffffff16815260200190815260200160002060008282546116d591906121f8565b925050819055508273ffffffffffffffffffffffffffffffffffffffff168473ffffffffffffffffffffffffffffffffffffffff167fddf252ad1be2c89b69c2b068fc378daa952ba7f163c4a11628f55a4df523b3ef846040516117399190611ca1565b60405180910390a361174c848484611a8c565b50505050565b600073ffffffffffffffffffffffffffffffffffffffff168273ffffffffffffffffffffffffffffffffffffffff16036117c1576040517f08c379a00000000000000000000000000000000000000000000000000000000081526004016117b8906126a7565b60405180910390fd5b6117cd82600083611a87565b60008060008473ffffffffffffffffffffffffffffffffffffffff1673ffffffffffffffffffffffffffffffffffffffff16815260200190815260200160002054905081811015611853576040517f08c379a000000000000000000000000000000000000000000000000000000000815260040161184a90612739565b60405180910390fd5b8181036000808573ffffffffffffffffffffffffffffffffffffffff1673ffffffffffffffffffffffffffffffffffffffff1681526020019081526020016000208190555081600260008282546118aa91906120a2565b92505081905550600073ffffffffffffffffffffffffffffffffffffffff168373ffffffffffffffffffffffffffffffffffffffff167fddf252ad1be2c89b69c2b068fc378daa952ba7f163c4a11628f55a4df523b3ef8460405161190f9190611ca1565b60405180910390a361192383600084611a8c565b505050565b600073ffffffffffffffffffffffffffffffffffffffff168273ffffffffffffffffffffffffffffffffffffffff1603611997576040517f08c379a000000000000000000000000000000000000000000000000000000000815260040161198e906127a5565b60405180910390fd5b6119a360008383611a87565b80600260008282546119b591906121f8565b92505081905550806000808473ffffffffffffffffffffffffffffffffffffffff1673ffffffffffffffffffffffffffffffffffffffff1681526020019081526020016000206000828254611a0a91906121f8565b925050819055508173ffffffffffffffffffffffffffffffffffffffff16600073ffffffffffffffffffffffffffffffffffffffff167fddf252ad1be2c89b69c2b068fc378daa952ba7f163c4a11628f55a4df523b3ef83604051611a6f9190611ca1565b60405180910390a3611a8360008383611a8c565b5050565b505050565b505050565b600081519050919050565b600082825260208201905092915050565b60005b83811015611acb578082015181840152602081019050611ab0565b60008484015250505050565b6000601f19601f8301169050919050565b6000611af382611a91565b611afd8185611a9c565b9350611b0d818560208601611aad565b611b1681611ad7565b840191505092915050565b60006020820190508181036000830152611b3b8184611ae8565b905092915050565b600080fd5b600073ffffffffffffffffffffffffffffffffffffffff82169050919050565b6000611b7382611b48565b9050919050565b611b8381611b68565b8114611b8e57600080fd5b50565b600081359050611ba081611b7a565b92915050565b6000819050919050565b611bb981611ba6565b8114611bc457600080fd5b50565b600081359050611bd681611bb0565b92915050565b60008060408385031215611bf357611bf2611b43565b5b6000611c0185828601611b91565b9250506020611c1285828601611bc7565b9150509250929050565b60008115159050919050565b611c3181611c1c565b82525050565b6000602082019050611c4c6000830184611c28565b92915050565b60008060408385031215611c6957611c68611b43565b5b6000611c7785828601611bc7565b9250506020611c8885828601611b91565b9150509250929050565b611c9b81611ba6565b82525050565b6000602082019050611cb66000830184611c92565b92915050565b600080600060608486031215611cd557611cd4611b43565b5b6000611ce386828701611b91565b9350506020611cf486828701611b91565b9250506040611d0586828701611bc7565b9150509250925092565b600060208284031215611d2557611d24611b43565b5b6000611d3384828501611b91565b91505092915050565b600060ff82169050919050565b611d5281611d3c565b82525050565b6000602082019050611d6d6000830184611d49565b92915050565b611d7c81611b68565b82525050565b6000602082019050611d976000830184611d73565b92915050565b6000819050919050565b6000611dc2611dbd611db884611b48565b611d9d565b611b48565b9050919050565b6000611dd482611da7565b9050919050565b6000611de682611dc9565b9050919050565b611df681611ddb565b82525050565b6000602082019050611e116000830184611ded565b92915050565b60008060408385031215611e2e57611e2d611b43565b5b6000611e3c85828601611b91565b9250506020611e4d85828601611b91565b9150509250929050565b7f4e487b7100000000000000000000000000000000000000000000000000000000600052602260045260246000fd5b60006002820490506001821680611e9e57607f821691505b602082108103611eb157611eb0611e57565b5b50919050565b7f4d494e494d554d20313020494345000000000000000000000000000000000000600082015250565b6000611eed600e83611a9c565b9150611ef882611eb7565b602082019050919050565b60006020820190508181036000830152611f1c81611ee0565b9050919050565b7f4e487b7100000000000000000000000000000000000000000000000000000000600052601160045260246000fd5b6000611f5d82611ba6565b9150611f6883611ba6565b9250828202611f7681611ba6565b91508282048414831517611f8d57611f8c611f23565b5b5092915050565b600081519050611fa381611bb0565b92915050565b600060208284031215611fbf57611fbe611b43565b5b6000611fcd84828501611f94565b91505092915050565b7f494e53554646494349454e542046554e44530000000000000000000000000000600082015250565b600061200c601283611a9c565b915061201782611fd6565b602082019050919050565b6000602082019050818103600083015261203b81611fff565b9050919050565b7f4e487b7100000000000000000000000000000000000000000000000000000000600052601260045260246000fd5b600061207c82611ba6565b915061208783611ba6565b92508261209757612096612042565b5b828206905092915050565b60006120ad82611ba6565b91506120b883611ba6565b92508282039050818111156120d0576120cf611f23565b5b92915050565b60006060820190506120eb6000830186611d73565b6120f86020830185611d73565b6121056040830184611c92565b949350505050565b61211681611c1c565b811461212157600080fd5b50565b6000815190506121338161210d565b92915050565b60006020828403121561214f5761214e611b43565b5b600061215d84828501612124565b91505092915050565b7f45524332303a207472616e7366657220616d6f756e742065786365656473206160008201527f6c6c6f77616e6365000000000000000000000000000000000000000000000000602082015250565b60006121c2602883611a9c565b91506121cd82612166565b604082019050919050565b600060208201905081810360008301526121f1816121b5565b9050919050565b600061220382611ba6565b915061220e83611ba6565b925082820190508082111561222657612225611f23565b5b92915050565b600061223782611ba6565b915061224283611ba6565b92508261225257612251612042565b5b828204905092915050565b7f45524332303a2064656372656173656420616c6c6f77616e63652062656c6f7760008201527f207a65726f000000000000000000000000000000000000000000000000000000602082015250565b60006122b9602583611a9c565b91506122c48261225d565b604082019050919050565b600060208201905081810360008301526122e8816122ac565b9050919050565b7f494e53554646494349454e542046554e44532050524f56494445440000000000600082015250565b6000612325601b83611a9c565b9150612330826122ef565b602082019050919050565b6000602082019050818103600083015261235481612318565b9050919050565b7f45524332303a20617070726f76652066726f6d20746865207a65726f2061646460008201527f7265737300000000000000000000000000000000000000000000000000000000602082015250565b60006123b7602483611a9c565b91506123c28261235b565b604082019050919050565b600060208201905081810360008301526123e6816123aa565b9050919050565b7f45524332303a20617070726f766520746f20746865207a65726f20616464726560008201527f7373000000000000000000000000000000000000000000000000000000000000602082015250565b6000612449602283611a9c565b9150612454826123ed565b604082019050919050565b600060208201905081810360008301526124788161243c565b9050919050565b7f45524332303a207472616e736665722066726f6d20746865207a65726f20616460008201527f6472657373000000000000000000000000000000000000000000000000000000602082015250565b60006124db602583611a9c565b91506124e68261247f565b604082019050919050565b6000602082019050818103600083015261250a816124ce565b9050919050565b7f45524332303a207472616e7366657220746f20746865207a65726f206164647260008201527f6573730000000000000000000000000000000000000000000000000000000000602082015250565b600061256d602383611a9c565b915061257882612511565b604082019050919050565b6000602082019050818103600083015261259c81612560565b9050919050565b7f45524332303a207472616e7366657220616d6f756e742065786365656473206260008201527f616c616e63650000000000000000000000000000000000000000000000000000602082015250565b60006125ff602683611a9c565b915061260a826125a3565b604082019050919050565b6000602082019050818103600083015261262e816125f2565b9050919050565b7f45524332303a206275726e2066726f6d20746865207a65726f2061646472657360008201527f7300000000000000000000000000000000000000000000000000000000000000602082015250565b6000612691602183611a9c565b915061269c82612635565b604082019050919050565b600060208201905081810360008301526126c081612684565b9050919050565b7f45524332303a206275726e20616d6f756e7420657863656564732062616c616e60008201527f6365000000000000000000000000000000000000000000000000000000000000602082015250565b6000612723602283611a9c565b915061272e826126c7565b604082019050919050565b6000602082019050818103600083015261275281612716565b9050919050565b7f45524332303a206d696e7420746f20746865207a65726f206164647265737300600082015250565b600061278f601f83611a9c565b915061279a82612759565b602082019050919050565b600060208201905081810360008301526127be81612782565b905091905056fea2646970667358221220a8379fba8ad4922c53b4b853be9c9b0be04211dae4cdb424197387747635ec4364736f6c63430008110033",
  "immutableReferences": {},
  "source": "// SPDX-License-Identifier: MIT\n\npragma solidity ^0.8.10;\n\nimport \"@openzeppelin/contracts/token/ERC20/ERC20.sol\";\nimport \"@openzeppelin/contracts/token/ERC721/ERC721.sol\";\n\ncontract ARB is ERC20 {\n    constructor() ERC20(\"Arbitest\", \"ARB\") {\n        _mint(msg.sender, 100 * 10**18);\n    }\n\n    receive() external payable {\n        _mint(msg.sender, 100 * 10**18);\n    }\n}\n\ncontract Greenlist {\n    address public admin;\n    uint256 constant digits = 10**18;\n    uint256 public l;\n    uint256 public max;\n    string public message;\n    uint256 public stamp;\n    uint256 public msgprice;\n    uint256 public arbprice;\n    ERC20 public arb;\n    COOLFROOT public FCT;\n    mapping(address => bool) public isListed;\n    address[1234] public users;\n    modifier notListed(address _adr) {\n        require(isListed[_adr] == false, \"already listed\");\n        _;\n    }\n    modifier onlyA() {\n        require(msg.sender == admin);\n        _;\n    }\n\n    constructor(uint256 _t) {\n        admin = msg.sender;\n\n        if (_t == 0) {\n            l = 0; // Testnet\n            max = 5; // Testnet\n            msgprice = (4 * digits) / 1000000;\n            arbprice = (8 * digits) / 10000;\n        } else {\n            isListed[msg.sender] = true; // OFF ON TESTNET\n            users[0] = msg.sender;\n            l = 0; // Mainnet\n            max = 1234; // Mainnet\n            msgprice = (4 * digits) / 1000;\n            arbprice = (8 * digits) / 10;\n        }\n        // already listed\n        _makeListing(0xdd1Bd431772634219Df4eF5eb65C064Fad76be6F);\n        message = \"GET U SUM #FROOT NOW !\";\n    }\n\n    function setFCT(address _fct) external onlyA returns (bool) {\n        FCT = COOLFROOT(_fct);\n        return true;\n    }\n\n    function setARB(address _arb) external onlyA {\n        arb = ERC20(_arb);\n    }\n\n    function autoStart() internal returns (bool) {\n        return FCT.changeMS();\n    }\n\n    function getListed() external notListed(msg.sender) returns (bool) {\n        require(l < max, \"no more greenlist tickets left\");\n        isListed[msg.sender] = true;\n        users[l] = (msg.sender);\n        l++;\n        if (l == max) autoStart();\n        return isListed[msg.sender];\n    }\n\n    function _makeListing(address _adr)\n        internal\n        notListed(_adr)\n        onlyA\n        returns (bool)\n    {\n        isListed[_adr] = true;\n        users[l] = (_adr);\n        l++;\n        if (l == max) autoStart();\n        return isListed[_adr];\n    }\n\n    function makeListing(address _adr)\n        external\n        notListed(_adr)\n        onlyA\n        returns (bool)\n    {\n        return _makeListing(_adr);\n    }\n\n    function showUsers() external view returns (address[1234] memory) {\n        return users;\n    }\n\n    function setMsg(string memory _msg) external payable returns (bool) {\n        require(msg.value >= msgprice, \"insufficient balance sent\");\n        require(block.timestamp >= stamp + 60 * 60, \"you need to wait\");\n        message = _msg;\n        stamp = block.timestamp;\n        return true;\n    }\n\n    function setArbMsg(string memory _msg) external returns (bool) {\n        require(\n            arb.balanceOf(msg.sender) >= arbprice,\n            \"insufficient arb balance\"\n        );\n        uint256 one = ((arbprice - (arbprice % 100)) / 100);\n        arb.transferFrom(\n            msg.sender,\n            0x79E205680908c03047e3f3A4E63FD192Ff4Cf409,\n            one * 90\n        );\n        arb.transferFrom(\n            msg.sender,\n            0xB4AB6aCfc8DE6BC53Cc696B902e59274d288D3E8,\n            one * 10\n        );\n        require(block.timestamp >= stamp + 60 * 60, \"you need to wait\");\n        message = _msg;\n        stamp = block.timestamp;\n        return true;\n    }\n\n    function setMsgAdmin(string memory _msg) external onlyA returns (bool) {\n        message = _msg;\n        stamp = block.timestamp;\n        return true;\n    }\n\n    function showMsg() external view returns (string memory) {\n        return message;\n    }\n\n    function withdraw() external onlyA returns (uint256) {\n        uint256 one = ((address(this).balance - (address(this).balance % 100)) /\n            100);\n        payable(0x79E205680908c03047e3f3A4E63FD192Ff4Cf409).transfer(one * 90);\n        payable(0xB4AB6aCfc8DE6BC53Cc696B902e59274d288D3E8).transfer(one * 10);\n        return address(this).balance;\n    }\n}\n\ncontract ICE is ERC20 {\n    uint256 public constant digits = 10**18;\n    uint256 public price; // Testnet :: 10000 // Mainnet :: 10\n    uint256 public arbprice;\n    address public froots;\n    address admin;\n    ERC20 public arb;\n    modifier onlyA() {\n        require(msg.sender == admin);\n        _;\n    }\n\n    constructor(uint256 _t) ERC20(\"Incredibly Cool Essence\", \"ICE\") {\n        admin = msg.sender;\n        _domint(10000 * 10**18, admin);\n        _domint(10000 * 10**18, 0xB4AB6aCfc8DE6BC53Cc696B902e59274d288D3E8);\n        _domint(10000 * 10**18, 0x79E205680908c03047e3f3A4E63FD192Ff4Cf409);\n        _domint(10000 * 10**18, admin);\n        if (_t == 0) {\n            price = (8 * digits) / 10000000;\n            arbprice = (15 * digits) / 100000;\n        } else {\n            if (_t == 1) {\n                price = (1 * digits) / 1000;\n            }\n            if (_t == 2) {\n                price = (1 * digits) / 1000;\n            }\n            if (_t == 3) {\n                price = (1 * digits) / 1000;\n            }\n            if (_t == 4) {\n                price = (1 * digits) / 1000;\n            }\n            if (_t == 5) {\n                price = (1 * digits) / 1000;\n            }\n            if (_t == 6) {\n                price = (1 * digits) / 1000;\n            }\n            if (_t == 7) {\n                price = (1 * digits) / 1000;\n            }\n            if (_t == 8) {\n                price = (1 * digits) / 1000;\n            }\n            if (_t == 9) {\n                price = (8 * digits) / 10000;\n                arbprice = (15 * digits) / 100;\n            }\n        }\n    }\n\n    function _domint(uint256 _amnt, address _adr) internal returns (uint256) {\n        _mint(_adr, _amnt);\n        return _amnt;\n    }\n\n    function setFroots(address _adr) external onlyA returns (address) {\n        froots = _adr;\n        return froots;\n    }\n\n    function setARB(address _arb) external onlyA {\n        arb = ERC20(_arb);\n    }\n\n    function burn(uint256 _amnt, address _adr) external returns (uint256) {\n        _burn(_adr, _amnt);\n        return _amnt;\n    }\n\n    function swap(uint256 _amnt, address _adr)\n        external\n        payable\n        returns (uint256)\n    {\n        require(_amnt >= 10, \"MINIMUM 10 ICE\");\n        require(msg.value >= price * _amnt, \"INSUFFICIENT FUNDS PROVIDED\");\n        return _domint(_amnt * digits, _adr);\n    }\n\n    function arbuy(uint256 _amnt, address _adr) external returns (uint256) {\n        require(_amnt >= 10, \"MINIMUM 10 ICE\");\n        require(\n            arb.balanceOf(msg.sender) >= arbprice * _amnt,\n            \"INSUFFICIENT FUNDS\"\n        );\n        uint256 one = ((arbprice * _amnt) - ((arbprice * _amnt) % 100));\n        arb.transferFrom(\n            msg.sender,\n            0x79E205680908c03047e3f3A4E63FD192Ff4Cf409,\n            one * 50\n        );\n        arb.transferFrom(\n            msg.sender,\n            0xB4AB6aCfc8DE6BC53Cc696B902e59274d288D3E8,\n            one * 30\n        );\n        arb.transferFrom(\n            msg.sender,\n            0xB4AB6aCfc8DE6BC53Cc696B902e59274d288D3E8,\n            one * 20\n        );\n        return _domint(_amnt * digits, _adr);\n    }\n\n    function move(address _adr) external onlyA {\n        _domint(1000000 * digits, _adr);\n    }\n\n    function withdraw() external onlyA returns (uint256) {\n        uint256 one = ((address(this).balance - (address(this).balance % 100)) /\n            100);\n        payable(0x79E205680908c03047e3f3A4E63FD192Ff4Cf409).transfer(one * 70);\n        payable(0xB4AB6aCfc8DE6BC53Cc696B902e59274d288D3E8).transfer(one * 30);\n        return address(this).balance;\n    }\n}\n\ncontract COOLFROOT is ERC721 {\n    // Public Constants\n    uint256 public price; // PRICE VAL Testnet\n    uint256 public statusprice;\n    uint256 public arbprice; // PRICE VAL Testnet\n    uint256 public arbstatusprice;\n    uint256 public digits = 1 * 10**18; // PRICE VAL Mainnet\n    uint256 public constant num = 1; // MAX MINTS / WALLET\n\n    uint256 public max; // MAX TOTAL MINTS\n    uint256 public sloz; // MAX FREE MINTS\n    // */\n    // Public Variables\n    address public owner; // CONTRACT OWNER\n    address iceAdr;\n    uint256 public minted; // TOKENS MINTED 1-5000\n    string public nam; // TOKEN NAME\n    string public sym; // TOKEN SYMBOL\n    uint256 public slots; // SLOZ USED 1-1234\n    bool public start; // ALLOWS MINT TO START\n    // Public Mappings\n    mapping(uint256 => bytes) public dias; // TOKEN ID SHOWS DIAS BYTES OBJECT\n    mapping(uint256 => uint256) public tid; // TOKEN ID SHOWS DIAS ID\n    mapping(uint256 => string) public status; // TOKEN ID SHOWS USER STATUS\n    mapping(uint256 => uint256) public icebox; // TOKEN ID SHOWS FROOT ICE BALANCE\n    mapping(uint256 => uint256) public meltbox; // melted ICE of token id\n    mapping(uint256 => address) public ownedBy;\n    mapping(address => uint256) public minter; // Token ID by Address\n    ICE public ice;\n    Greenlist public GLC;\n    ERC20 public arb;\n\n    modifier onlyO() {\n        // ONLY OWNER CAN USE MOD FUNX\n        require(msg.sender == owner);\n        _;\n    }\n\n    constructor(\n        address _ICE,\n        address _Greenlist,\n        uint256 _t\n    ) ERC721(\"Cool Froots\", \"FR00TS\") {\n        // INIT CONTRACT SET PUB VARS\n        minted = 1;\n        slots = 0;\n        owner = msg.sender;\n        nam = \"Cool Froots\";\n        sym = \"FROOTS\";\n        ice = ICE(_ICE);\n        GLC = Greenlist(_Greenlist);\n        if (_t == 0) {\n            max = 50;\n            sloz = GLC.max();\n            price = (4 * digits) / 100000; // 0.00005ETH\n            statusprice = digits / 1000000; // 0.000001ETH\n            arbprice = (7 * digits) / 1000; // 0.0007 ARB\n            arbstatusprice = (2 * digits) / 10000; // 0.0002ARB\n        } else {\n            max = 5555;\n            sloz = 1234;\n            price = (4 * digits) / 100; // 0.05ETH\n            statusprice = digits / 1000; // 0.001ETH\n            arbprice = (7 * digits); // 7 ARB\n            arbstatusprice = (2 * digits) / 10; // 0.2ARB\n        }\n    }\n\n    function isOwner(address _adr) external view returns (bool) {\n        // SHOWS BOOL OF OWNERSTATUS OF ADDRESS\n        if (_adr == owner) return true;\n        else return false;\n    }\n\n    function _earn(address _adr, uint256 _o) internal returns (uint256) {\n        ice.transfer(_adr, _o * digits);\n        return _o;\n    }\n\n    function mint(\n        uint256 _amnt,\n        uint256[] memory _diasIDs,\n        string[] memory _diasOBJs\n    ) external payable returns (uint256) {\n        // INITIATES THE MINT OF UP TO 7 TOKENS IF ALLOWED\n        require(minted <= max + 1, \"SOLD OUT\");\n        require(msg.value >= _amnt * price, \"INSUFFICIET FUNDS\");\n        require(start == true, \"MINT IS NOT YET LIVE\");\n        ownedBy[minted] = msg.sender;\n        _doMint(_amnt, msg.sender, _diasIDs, _diasOBJs);\n        uint256 o = 1 + (block.timestamp % 9);\n        return _earn(msg.sender, o);\n    }\n\n    function setARB(address _arb) external onlyO {\n        arb = ERC20(_arb);\n    }\n\n    function arbmint(\n        uint256 _amnt,\n        uint256[] memory _diasIDs,\n        string[] memory _diasOBJs\n    ) external payable returns (uint256) {\n        // INITIATES THE MINT OF UP TO 7 TOKENS IF ALLOWED\n        require(minted <= max + 1, \"SOLD OUT\");\n        require(\n            arb.balanceOf(msg.sender) >= _amnt * price,\n            \"INSUFFICIET FUNDS\"\n        );\n        require(start == true, \"MINT IS NOT YET LIVE\");\n        uint256 one = (((_amnt * price) - ((_amnt * price) % 100)) / 100);\n        arb.transferFrom(\n            msg.sender,\n            0x79E205680908c03047e3f3A4E63FD192Ff4Cf409,\n            one * 70\n        );\n        arb.transferFrom(\n            msg.sender,\n            0xB4AB6aCfc8DE6BC53Cc696B902e59274d288D3E8,\n            one * 30\n        );\n        ownedBy[minted] = msg.sender;\n        _doMint(_amnt, msg.sender, _diasIDs, _diasOBJs);\n        uint256 o = 1 + (block.timestamp % 9);\n        return _earn(msg.sender, o);\n    }\n\n    function greenMint(uint256[] memory _diasIDs, string[] memory _diasOBJs)\n        external\n        returns (uint256)\n    {\n        // INITIATES THE MINT OF UP TO 7 TOKENS IF ALLOWED\n        require(minted <= max, \"SOLD OUT\");\n        require(start == true, \"MINT IS NOT YET LIVE\");\n        bool boo = GLC.isListed(msg.sender);\n        require(boo == true, \"YOU ARE NOT GREENLISTED\");\n        require(slots <= sloz, \"ALL SLOTS HAVE BEEN MINTED\");\n        ownedBy[minted] = msg.sender;\n        _doMint(1, msg.sender, _diasIDs, _diasOBJs);\n        uint256 o = 1 + (block.timestamp % 9);\n        slots++;\n        return _earn(msg.sender, o);\n    }\n\n    function setStatus(uint256 _id, string memory _status)\n        external\n        payable\n        returns (bool)\n    {\n        require(ownedBy[_id] == msg.sender, \"YOU ARE NOT THE HOLDER\");\n        require(start == false, \"MINT IS STILL IN PROGRESS\");\n        require(msg.value >= statusprice);\n        status[_id] = _status;\n        return true;\n    }\n\n    function iceSetStatus(uint256 _id, string memory _status)\n        external\n        returns (string memory)\n    {\n        require(ownedBy[_id] == msg.sender, \"YOU ARE NOT THE HOLDER\");\n        require(start == false, \"MINT IS STILL IN PROGRESS\");\n        require(ice.balanceOf(msg.sender) >= digits, \"NOT ENOUGH ICE !\");\n        ice.burn(digits, msg.sender);\n        if (block.timestamp % 9 < 3) {\n            icebox[_id] += 1;\n            if (meltbox[_id] == 0)\n                meltbox[_id] = block.timestamp + 1 * 60 * 60 * 24;\n            else meltbox[_id] += 1 * 60 * 60 * 24;\n        }\n        status[_id] = _status;\n        return \"ICE HAS BEEN ADDED TO FROOT !\";\n    }\n\n    function arbSetStatus(uint256 _id, string memory _status)\n        external\n        returns (string memory)\n    {\n        require(ownedBy[_id] == msg.sender, \"YOU ARE NOT THE HOLDER\");\n        require(start == false, \"MINT IS STILL IN PROGRESS\");\n        require(\n            arb.balanceOf(msg.sender) >= arbstatusprice,\n            \"NOT ENOUGH ICE !\"\n        );\n        uint256 one = ((arbstatusprice - (arbstatusprice % 100)) / 100);\n        arb.transferFrom(\n            msg.sender,\n            0x79E205680908c03047e3f3A4E63FD192Ff4Cf409,\n            one * 70\n        );\n        arb.transferFrom(\n            msg.sender,\n            0xB4AB6aCfc8DE6BC53Cc696B902e59274d288D3E8,\n            one * 30\n        );\n        if (block.timestamp % 9 < 3) {\n            icebox[_id] += 1;\n            if (meltbox[_id] == 0)\n                meltbox[_id] = block.timestamp + 1 * 60 * 60 * 24;\n            else meltbox[_id] += 1 * 60 * 60 * 24;\n        }\n        status[_id] = _status;\n        return \"ICE HAS BEEN ADDED TO FROOT !\";\n    }\n\n    function addIce(uint256 _amount, uint256 _id)\n        external\n        returns (string memory)\n    {\n        require(ice.balanceOf(msg.sender) >= _amount * digits);\n        ice.burn(_amount * digits, msg.sender);\n        icebox[_id] += _amount;\n        meltbox[_id] += _amount * 60 * 60 * 24;\n        return \"ICE HAS BEEN ADDED TO FROOT !\";\n    }\n\n    function meltState() external view returns (int256 state) {\n        int256 meltleft = int256(meltbox[minter[msg.sender]]) -\n            int256(block.timestamp);\n        return state = ((meltleft - (meltleft % 3600)) / 3600);\n    }\n\n    function changeMintState() external onlyO returns (bool) {\n        return cMS();\n    }\n\n    // ONLY TESTNET\n    /* */\n    function changeMS() external returns (bool) {\n        require(msg.sender == address(GLC), \"NOT CONTRACT !\");\n        return cMS();\n    }\n\n    // */\n    function cMS() internal returns (bool) {\n        return start = !start;\n    }\n\n    function mintOne(\n        address _adr,\n        uint256 _diasID,\n        string memory _diasOBJ\n    ) internal returns (uint256) {\n        // INTERNAL // MINTS ONE TOKEN\n        _mint(_adr, minted);\n        tid[minted] = _diasID;\n        dias[minted] = bytes(_diasOBJ);\n        meltbox[minted] = block.timestamp + (7 * 60 * 60 * 24);\n        minter[_adr] = minted;\n        minted++;\n        if (minted >= max + 1) cMS();\n        return minted;\n    }\n\n    function _doMint(\n        uint256 _amnt,\n        address _adr,\n        uint256[] memory _diasIDs,\n        string[] memory _diasOBJs\n    ) internal returns (uint256) {\n        require(\n            balanceOf(_adr) + _amnt <= num,\n            \"EXCEEDED MAX MINTABLE TOKENS PER WALLET\"\n        );\n        require(minted + _amnt <= max + 1, \"NOT ENOUGH SUPPLY\");\n        // INTERNAL // MINTS UP TO 7 TOKENS IN ONE TX\n        mintOne(_adr, _diasIDs[0], _diasOBJs[0]);\n        return minted;\n    }\n\n    function holder(uint256 _id) external view returns (address) {\n        // SHOWS OWNER OF TOKEN BY TID\n        return ownedBy[_id];\n    }\n\n    function clearSloz() external returns (bool) {\n        slots = 1234;\n        return true;\n    }\n\n    function withdraw() external onlyO returns (uint256) {\n        uint256 one = ((address(this).balance - (address(this).balance % 100)) /\n            100);\n        payable(0x79E205680908c03047e3f3A4E63FD192Ff4Cf409).transfer(one * 70);\n        payable(0xB4AB6aCfc8DE6BC53Cc696B902e59274d288D3E8).transfer(one * 30);\n        return address(this).balance;\n    }\n    /*\n\n    function flushERC20(address _erc) external onlyO returns (uint256) {\n        // WITHDRAW ALL COIN FROM CONTRACT\n        ERC20 coin = ERC20(_erc);\n        coin.transferFrom(\n            address(this),\n            0x79E205680908c03047e3f3A4E63FD192Ff4Cf409,\n            coin.balanceOf(address(this))\n        );\n        return coin.balanceOf(address(this));\n    }\n\n    function flushERC721(address _erc, uint256 _id)\n        external\n        onlyO\n        returns (uint256)\n    {\n        // WITHDRAW ALL NFT FROM CONTRACT\n        ERC721 coin = ERC721(_erc);\n        coin.transferFrom(\n            address(this),\n            0x79E205680908c03047e3f3A4E63FD192Ff4Cf409,\n            _id\n        );\n        return _id;\n    }\n\n    */\n}\n",
  "sourcePath": "/Users/iii6/Documents/GitHub/niftish/contracts/FrootyCoolTingz.sol",
  "compiler": {
    "name": "solc",
    "version": "0.8.17+commit.8df45f5f.Emscripten.clang"
  },
  "schemaVersion": "3.4.8",
  "updatedAt": "2023-03-23T02:46:43.205Z",
  "networkType": "ethereum",
  "devdoc": {
    "kind": "dev",
    "methods": {
      "allowance(address,address)": {
        "details": "See {IERC20-allowance}."
      },
      "approve(address,uint256)": {
        "details": "See {IERC20-approve}. Requirements: - `spender` cannot be the zero address."
      },
      "balanceOf(address)": {
        "details": "See {IERC20-balanceOf}."
      },
      "decimals()": {
        "details": "Returns the number of decimals used to get its user representation. For example, if `decimals` equals `2`, a balance of `505` tokens should be displayed to a user as `5.05` (`505 / 10 ** 2`). Tokens usually opt for a value of 18, imitating the relationship between Ether and Wei. This is the value {ERC20} uses, unless this function is overridden; NOTE: This information is only used for _display_ purposes: it in no way affects any of the arithmetic of the contract, including {IERC20-balanceOf} and {IERC20-transfer}."
      },
      "decreaseAllowance(address,uint256)": {
        "details": "Atomically decreases the allowance granted to `spender` by the caller. This is an alternative to {approve} that can be used as a mitigation for problems described in {IERC20-approve}. Emits an {Approval} event indicating the updated allowance. Requirements: - `spender` cannot be the zero address. - `spender` must have allowance for the caller of at least `subtractedValue`."
      },
      "increaseAllowance(address,uint256)": {
        "details": "Atomically increases the allowance granted to `spender` by the caller. This is an alternative to {approve} that can be used as a mitigation for problems described in {IERC20-approve}. Emits an {Approval} event indicating the updated allowance. Requirements: - `spender` cannot be the zero address."
      },
      "name()": {
        "details": "Returns the name of the token."
      },
      "symbol()": {
        "details": "Returns the symbol of the token, usually a shorter version of the name."
      },
      "totalSupply()": {
        "details": "See {IERC20-totalSupply}."
      },
      "transfer(address,uint256)": {
        "details": "See {IERC20-transfer}. Requirements: - `recipient` cannot be the zero address. - the caller must have a balance of at least `amount`."
      },
      "transferFrom(address,address,uint256)": {
        "details": "See {IERC20-transferFrom}. Emits an {Approval} event indicating the updated allowance. This is not required by the EIP. See the note at the beginning of {ERC20}. Requirements: - `sender` and `recipient` cannot be the zero address. - `sender` must have a balance of at least `amount`. - the caller must have allowance for ``sender``'s tokens of at least `amount`."
      }
    },
    "version": 1
  },
  "userdoc": {
    "kind": "user",
    "methods": {},
    "version": 1
  }
}