{
  "contractName": "ICE",
  "abi": [
    {
      "inputs": [
        {
          "internalType": "uint256",
          "name": "_t",
          "type": "uint256"
        }
      ],
      "stateMutability": "nonpayable",
      "type": "constructor"
    },
    {
      "anonymous": false,
      "inputs": [
        {
          "indexed": true,
          "internalType": "address",
          "name": "owner",
          "type": "address"
        },
        {
          "indexed": true,
          "internalType": "address",
          "name": "spender",
          "type": "address"
        },
        {
          "indexed": false,
          "internalType": "uint256",
          "name": "value",
          "type": "uint256"
        }
      ],
      "name": "Approval",
      "type": "event"
    },
    {
      "anonymous": false,
      "inputs": [
        {
          "indexed": true,
          "internalType": "address",
          "name": "from",
          "type": "address"
        },
        {
          "indexed": true,
          "internalType": "address",
          "name": "to",
          "type": "address"
        },
        {
          "indexed": false,
          "internalType": "uint256",
          "name": "value",
          "type": "uint256"
        }
      ],
      "name": "Transfer",
      "type": "event"
    },
    {
      "inputs": [
        {
          "internalType": "address",
          "name": "owner",
          "type": "address"
        },
        {
          "internalType": "address",
          "name": "spender",
          "type": "address"
        }
      ],
      "name": "allowance",
      "outputs": [
        {
          "internalType": "uint256",
          "name": "",
          "type": "uint256"
        }
      ],
      "stateMutability": "view",
      "type": "function",
      "constant": true
    },
    {
      "inputs": [
        {
          "internalType": "address",
          "name": "spender",
          "type": "address"
        },
        {
          "internalType": "uint256",
          "name": "amount",
          "type": "uint256"
        }
      ],
      "name": "approve",
      "outputs": [
        {
          "internalType": "bool",
          "name": "",
          "type": "bool"
        }
      ],
      "stateMutability": "nonpayable",
      "type": "function"
    },
    {
      "inputs": [
        {
          "internalType": "address",
          "name": "account",
          "type": "address"
        }
      ],
      "name": "balanceOf",
      "outputs": [
        {
          "internalType": "uint256",
          "name": "",
          "type": "uint256"
        }
      ],
      "stateMutability": "view",
      "type": "function",
      "constant": true
    },
    {
      "inputs": [],
      "name": "decimals",
      "outputs": [
        {
          "internalType": "uint8",
          "name": "",
          "type": "uint8"
        }
      ],
      "stateMutability": "view",
      "type": "function",
      "constant": true
    },
    {
      "inputs": [
        {
          "internalType": "address",
          "name": "spender",
          "type": "address"
        },
        {
          "internalType": "uint256",
          "name": "subtractedValue",
          "type": "uint256"
        }
      ],
      "name": "decreaseAllowance",
      "outputs": [
        {
          "internalType": "bool",
          "name": "",
          "type": "bool"
        }
      ],
      "stateMutability": "nonpayable",
      "type": "function"
    },
    {
      "inputs": [],
      "name": "digits",
      "outputs": [
        {
          "internalType": "uint256",
          "name": "",
          "type": "uint256"
        }
      ],
      "stateMutability": "view",
      "type": "function",
      "constant": true
    },
    {
      "inputs": [
        {
          "internalType": "address",
          "name": "spender",
          "type": "address"
        },
        {
          "internalType": "uint256",
          "name": "addedValue",
          "type": "uint256"
        }
      ],
      "name": "increaseAllowance",
      "outputs": [
        {
          "internalType": "bool",
          "name": "",
          "type": "bool"
        }
      ],
      "stateMutability": "nonpayable",
      "type": "function"
    },
    {
      "inputs": [],
      "name": "name",
      "outputs": [
        {
          "internalType": "string",
          "name": "",
          "type": "string"
        }
      ],
      "stateMutability": "view",
      "type": "function",
      "constant": true
    },
    {
      "inputs": [],
      "name": "price",
      "outputs": [
        {
          "internalType": "uint256",
          "name": "",
          "type": "uint256"
        }
      ],
      "stateMutability": "view",
      "type": "function",
      "constant": true
    },
    {
      "inputs": [],
      "name": "symbol",
      "outputs": [
        {
          "internalType": "string",
          "name": "",
          "type": "string"
        }
      ],
      "stateMutability": "view",
      "type": "function",
      "constant": true
    },
    {
      "inputs": [],
      "name": "totalSupply",
      "outputs": [
        {
          "internalType": "uint256",
          "name": "",
          "type": "uint256"
        }
      ],
      "stateMutability": "view",
      "type": "function",
      "constant": true
    },
    {
      "inputs": [
        {
          "internalType": "address",
          "name": "recipient",
          "type": "address"
        },
        {
          "internalType": "uint256",
          "name": "amount",
          "type": "uint256"
        }
      ],
      "name": "transfer",
      "outputs": [
        {
          "internalType": "bool",
          "name": "",
          "type": "bool"
        }
      ],
      "stateMutability": "nonpayable",
      "type": "function"
    },
    {
      "inputs": [
        {
          "internalType": "address",
          "name": "sender",
          "type": "address"
        },
        {
          "internalType": "address",
          "name": "recipient",
          "type": "address"
        },
        {
          "internalType": "uint256",
          "name": "amount",
          "type": "uint256"
        }
      ],
      "name": "transferFrom",
      "outputs": [
        {
          "internalType": "bool",
          "name": "",
          "type": "bool"
        }
      ],
      "stateMutability": "nonpayable",
      "type": "function"
    },
    {
      "inputs": [
        {
          "internalType": "uint256",
          "name": "_amnt",
          "type": "uint256"
        },
        {
          "internalType": "address",
          "name": "_adr",
          "type": "address"
        }
      ],
      "name": "burn",
      "outputs": [
        {
          "internalType": "uint256",
          "name": "",
          "type": "uint256"
        }
      ],
      "stateMutability": "nonpayable",
      "type": "function"
    },
    {
      "inputs": [
        {
          "internalType": "uint256",
          "name": "_amnt",
          "type": "uint256"
        },
        {
          "internalType": "address",
          "name": "_adr",
          "type": "address"
        }
      ],
      "name": "swap",
      "outputs": [
        {
          "internalType": "uint256",
          "name": "",
          "type": "uint256"
        }
      ],
      "stateMutability": "payable",
      "type": "function",
      "payable": true
    },
    {
      "inputs": [
        {
          "internalType": "address",
          "name": "_adr",
          "type": "address"
        },
        {
          "internalType": "uint256",
          "name": "_amount",
          "type": "uint256"
        }
      ],
      "name": "earn",
      "outputs": [
        {
          "internalType": "bool",
          "name": "",
          "type": "bool"
        }
      ],
      "stateMutability": "nonpayable",
      "type": "function"
    }
  ],
  "bytecode": "0x60806040523480156200001157600080fd5b506040516200279d3803806200279d833981810160405281019062000037919062000476565b6040518060400160405280601781526020017f496e6372656469626c7920436f6f6c20457373656e63650000000000000000008152506040518060400160405280600381526020017f49434500000000000000000000000000000000000000000000000000000000008152508160039081620000b4919062000718565b508060049081620000c6919062000718565b50505033600660006101000a81548173ffffffffffffffffffffffffffffffffffffffff021916908373ffffffffffffffffffffffffffffffffffffffff160217905550600081036200014557612710670de0b6b3a764000060016200012d91906200082e565b620001399190620008a8565b60058190555062000250565b600181036200017b57612710670de0b6b3a764000060036200016891906200082e565b620001749190620008a8565b6005819055505b60028103620001b057600a670de0b6b3a764000060066200019d91906200082e565b620001a99190620008a8565b6005819055505b60038103620001e5576064670de0b6b3a76400006003620001d291906200082e565b620001de9190620008a8565b6005819055505b600481036200021a576064670de0b6b3a764000060036200020791906200082e565b620002139190620008a8565b6005819055505b600581036200024f57600a670de0b6b3a764000060066200023c91906200082e565b620002489190620008a8565b6005819055505b5b6200028f6a084595161401484a000000600660009054906101000a900473ffffffffffffffffffffffffffffffffffffffff166200029760201b60201c565b5050620009cc565b6000620002ab8284620002b460201b60201c565b82905092915050565b600073ffffffffffffffffffffffffffffffffffffffff168273ffffffffffffffffffffffffffffffffffffffff160362000326576040517f08c379a00000000000000000000000000000000000000000000000000000000081526004016200031d9062000941565b60405180910390fd5b6200033a600083836200042c60201b60201c565b80600260008282546200034e919062000963565b92505081905550806000808473ffffffffffffffffffffffffffffffffffffffff1673ffffffffffffffffffffffffffffffffffffffff1681526020019081526020016000206000828254620003a5919062000963565b925050819055508173ffffffffffffffffffffffffffffffffffffffff16600073ffffffffffffffffffffffffffffffffffffffff167fddf252ad1be2c89b69c2b068fc378daa952ba7f163c4a11628f55a4df523b3ef836040516200040c9190620009af565b60405180910390a362000428600083836200043160201b60201c565b5050565b505050565b505050565b600080fd5b6000819050919050565b62000450816200043b565b81146200045c57600080fd5b50565b600081519050620004708162000445565b92915050565b6000602082840312156200048f576200048e62000436565b5b60006200049f848285016200045f565b91505092915050565b600081519050919050565b7f4e487b7100000000000000000000000000000000000000000000000000000000600052604160045260246000fd5b7f4e487b7100000000000000000000000000000000000000000000000000000000600052602260045260246000fd5b600060028204905060018216806200052a57607f821691505b60208210810362000540576200053f620004e2565b5b50919050565b60008190508160005260206000209050919050565b60006020601f8301049050919050565b600082821b905092915050565b600060088302620005aa7fffffffffffffffffffffffffffffffffffffffffffffffffffffffffffffffff826200056b565b620005b686836200056b565b95508019841693508086168417925050509392505050565b6000819050919050565b6000620005f9620005f3620005ed846200043b565b620005ce565b6200043b565b9050919050565b6000819050919050565b6200061583620005d8565b6200062d620006248262000600565b84845462000578565b825550505050565b600090565b6200064462000635565b620006518184846200060a565b505050565b5b8181101562000679576200066d6000826200063a565b60018101905062000657565b5050565b601f821115620006c857620006928162000546565b6200069d846200055b565b81016020851015620006ad578190505b620006c5620006bc856200055b565b83018262000656565b50505b505050565b600082821c905092915050565b6000620006ed60001984600802620006cd565b1980831691505092915050565b6000620007088383620006da565b9150826002028217905092915050565b6200072382620004a8565b67ffffffffffffffff8111156200073f576200073e620004b3565b5b6200074b825462000511565b620007588282856200067d565b600060209050601f8311600181146200079057600084156200077b578287015190505b620007878582620006fa565b865550620007f7565b601f198416620007a08662000546565b60005b82811015620007ca57848901518255600182019150602085019450602081019050620007a3565b86831015620007ea5784890151620007e6601f891682620006da565b8355505b6001600288020188555050505b505050505050565b7f4e487b7100000000000000000000000000000000000000000000000000000000600052601160045260246000fd5b60006200083b826200043b565b915062000848836200043b565b925082820262000858816200043b565b91508282048414831517620008725762000871620007ff565b5b5092915050565b7f4e487b7100000000000000000000000000000000000000000000000000000000600052601260045260246000fd5b6000620008b5826200043b565b9150620008c2836200043b565b925082620008d557620008d462000879565b5b828204905092915050565b600082825260208201905092915050565b7f45524332303a206d696e7420746f20746865207a65726f206164647265737300600082015250565b600062000929601f83620008e0565b91506200093682620008f1565b602082019050919050565b600060208201905081810360008301526200095c816200091a565b9050919050565b600062000970826200043b565b91506200097d836200043b565b9250828201905080821115620009985762000997620007ff565b5b92915050565b620009a9816200043b565b82525050565b6000602082019050620009c660008301846200099e565b92915050565b611dc180620009dc6000396000f3fe6080604052600436106100f35760003560e01c80639e20437c1161008a578063b02bf4b911610059578063b02bf4b914610368578063d3986f08146103a5578063dd62ed3e146103d5578063fcd3533c14610412576100f3565b80639e20437c14610298578063a035b1fe146102c3578063a457c2d7146102ee578063a9059cbb1461032b576100f3565b8063313ce567116100c6578063313ce567146101c857806339509351146101f357806370a082311461023057806395d89b411461026d576100f3565b806306fdde03146100f8578063095ea7b31461012357806318160ddd1461016057806323b872dd1461018b575b600080fd5b34801561010457600080fd5b5061010d61044f565b60405161011a91906112fa565b60405180910390f35b34801561012f57600080fd5b5061014a600480360381019061014591906113b5565b6104e1565b6040516101579190611410565b60405180910390f35b34801561016c57600080fd5b506101756104ff565b604051610182919061143a565b60405180910390f35b34801561019757600080fd5b506101b260048036038101906101ad9190611455565b610509565b6040516101bf9190611410565b60405180910390f35b3480156101d457600080fd5b506101dd610601565b6040516101ea91906114c4565b60405180910390f35b3480156101ff57600080fd5b5061021a600480360381019061021591906113b5565b61060a565b6040516102279190611410565b60405180910390f35b34801561023c57600080fd5b50610257600480360381019061025291906114df565b6106b6565b604051610264919061143a565b60405180910390f35b34801561027957600080fd5b506102826106fe565b60405161028f91906112fa565b60405180910390f35b3480156102a457600080fd5b506102ad610790565b6040516102ba919061143a565b60405180910390f35b3480156102cf57600080fd5b506102d861079c565b6040516102e5919061143a565b60405180910390f35b3480156102fa57600080fd5b50610315600480360381019061031091906113b5565b6107a2565b6040516103229190611410565b60405180910390f35b34801561033757600080fd5b50610352600480360381019061034d91906113b5565b61088d565b60405161035f9190611410565b60405180910390f35b34801561037457600080fd5b5061038f600480360381019061038a91906113b5565b6108ab565b60405161039c9190611410565b60405180910390f35b6103bf60048036038101906103ba919061150c565b6108d5565b6040516103cc919061143a565b60405180910390f35b3480156103e157600080fd5b506103fc60048036038101906103f7919061154c565b610a2a565b604051610409919061143a565b60405180910390f35b34801561041e57600080fd5b506104396004803603810190610434919061150c565b610ab1565b604051610446919061143a565b60405180910390f35b60606003805461045e906115bb565b80601f016020809104026020016040519081016040528092919081815260200182805461048a906115bb565b80156104d75780601f106104ac576101008083540402835291602001916104d7565b820191906000526020600020905b8154815290600101906020018083116104ba57829003601f168201915b5050505050905090565b60006104f56104ee610ac6565b8484610ace565b6001905092915050565b6000600254905090565b6000610516848484610c97565b6000600160008673ffffffffffffffffffffffffffffffffffffffff1673ffffffffffffffffffffffffffffffffffffffff1681526020019081526020016000206000610561610ac6565b73ffffffffffffffffffffffffffffffffffffffff1673ffffffffffffffffffffffffffffffffffffffff168152602001908152602001600020549050828110156105e1576040517f08c379a00000000000000000000000000000000000000000000000000000000081526004016105d89061165e565b60405180910390fd5b6105f5856105ed610ac6565b858403610ace565b60019150509392505050565b60006012905090565b60006106ac610617610ac6565b848460016000610625610ac6565b73ffffffffffffffffffffffffffffffffffffffff1673ffffffffffffffffffffffffffffffffffffffff16815260200190815260200160002060008873ffffffffffffffffffffffffffffffffffffffff1673ffffffffffffffffffffffffffffffffffffffff168152602001908152602001600020546106a791906116ad565b610ace565b6001905092915050565b60008060008373ffffffffffffffffffffffffffffffffffffffff1673ffffffffffffffffffffffffffffffffffffffff168152602001908152602001600020549050919050565b60606004805461070d906115bb565b80601f0160208091040260200160405190810160405280929190818152602001828054610739906115bb565b80156107865780601f1061075b57610100808354040283529160200191610786565b820191906000526020600020905b81548152906001019060200180831161076957829003601f168201915b5050505050905090565b670de0b6b3a764000081565b60055481565b600080600160006107b1610ac6565b73ffffffffffffffffffffffffffffffffffffffff1673ffffffffffffffffffffffffffffffffffffffff16815260200190815260200160002060008573ffffffffffffffffffffffffffffffffffffffff1673ffffffffffffffffffffffffffffffffffffffff1681526020019081526020016000205490508281101561086e576040517f08c379a000000000000000000000000000000000000000000000000000000000815260040161086590611753565b60405180910390fd5b610882610879610ac6565b85858403610ace565b600191505092915050565b60006108a161089a610ac6565b8484610c97565b6001905092915050565b60006108ca670de0b6b3a7640000836108c49190611773565b84610f16565b506001905092915050565b6000600a83101561091b576040517f08c379a000000000000000000000000000000000000000000000000000000000815260040161091290611801565b60405180910390fd5b826005546109299190611773565b34101561096b576040517f08c379a00000000000000000000000000000000000000000000000000000000081526004016109629061186d565b60405180910390fd5b60638311156109845760058361098191906116ad565b92505b6103e783111561099e57603c8361099b91906116ad565b92505b61270f8311156109b9576102bc836109b691906116ad565b92505b6201869f8311156109d557611f40836109d291906116ad565b92505b620f423f8311156109f25762015f90836109ef91906116ad565b92505b620f423f831115610a1857600a83610a0a91906118bc565b83610a1591906116ad565b92505b610a228383610f16565b905092915050565b6000600160008473ffffffffffffffffffffffffffffffffffffffff1673ffffffffffffffffffffffffffffffffffffffff16815260200190815260200160002060008373ffffffffffffffffffffffffffffffffffffffff1673ffffffffffffffffffffffffffffffffffffffff16815260200190815260200160002054905092915050565b6000610abd8284610f2b565b82905092915050565b600033905090565b600073ffffffffffffffffffffffffffffffffffffffff168373ffffffffffffffffffffffffffffffffffffffff1603610b3d576040517f08c379a0000000000000000000000000000000000000000000000000000000008152600401610b349061195f565b60405180910390fd5b600073ffffffffffffffffffffffffffffffffffffffff168273ffffffffffffffffffffffffffffffffffffffff1603610bac576040517f08c379a0000000000000000000000000000000000000000000000000000000008152600401610ba3906119f1565b60405180910390fd5b80600160008573ffffffffffffffffffffffffffffffffffffffff1673ffffffffffffffffffffffffffffffffffffffff16815260200190815260200160002060008473ffffffffffffffffffffffffffffffffffffffff1673ffffffffffffffffffffffffffffffffffffffff168152602001908152602001600020819055508173ffffffffffffffffffffffffffffffffffffffff168373ffffffffffffffffffffffffffffffffffffffff167f8c5be1e5ebec7d5bd14f71427d1e84f3dd0314c0f7b2291e5b200ac8c7c3b92583604051610c8a919061143a565b60405180910390a3505050565b600073ffffffffffffffffffffffffffffffffffffffff168373ffffffffffffffffffffffffffffffffffffffff1603610d06576040517f08c379a0000000000000000000000000000000000000000000000000000000008152600401610cfd90611a83565b60405180910390fd5b600073ffffffffffffffffffffffffffffffffffffffff168273ffffffffffffffffffffffffffffffffffffffff1603610d75576040517f08c379a0000000000000000000000000000000000000000000000000000000008152600401610d6c90611b15565b60405180910390fd5b610d80838383611101565b60008060008573ffffffffffffffffffffffffffffffffffffffff1673ffffffffffffffffffffffffffffffffffffffff16815260200190815260200160002054905081811015610e06576040517f08c379a0000000000000000000000000000000000000000000000000000000008152600401610dfd90611ba7565b60405180910390fd5b8181036000808673ffffffffffffffffffffffffffffffffffffffff1673ffffffffffffffffffffffffffffffffffffffff16815260200190815260200160002081905550816000808573ffffffffffffffffffffffffffffffffffffffff1673ffffffffffffffffffffffffffffffffffffffff1681526020019081526020016000206000828254610e9991906116ad565b925050819055508273ffffffffffffffffffffffffffffffffffffffff168473ffffffffffffffffffffffffffffffffffffffff167fddf252ad1be2c89b69c2b068fc378daa952ba7f163c4a11628f55a4df523b3ef84604051610efd919061143a565b60405180910390a3610f10848484611106565b50505050565b6000610f22828461110b565b82905092915050565b600073ffffffffffffffffffffffffffffffffffffffff168273ffffffffffffffffffffffffffffffffffffffff1603610f9a576040517f08c379a0000000000000000000000000000000000000000000000000000000008152600401610f9190611c39565b60405180910390fd5b610fa682600083611101565b60008060008473ffffffffffffffffffffffffffffffffffffffff1673ffffffffffffffffffffffffffffffffffffffff1681526020019081526020016000205490508181101561102c576040517f08c379a000000000000000000000000000000000000000000000000000000000815260040161102390611ccb565b60405180910390fd5b8181036000808573ffffffffffffffffffffffffffffffffffffffff1673ffffffffffffffffffffffffffffffffffffffff1681526020019081526020016000208190555081600260008282546110839190611ceb565b92505081905550600073ffffffffffffffffffffffffffffffffffffffff168373ffffffffffffffffffffffffffffffffffffffff167fddf252ad1be2c89b69c2b068fc378daa952ba7f163c4a11628f55a4df523b3ef846040516110e8919061143a565b60405180910390a36110fc83600084611106565b505050565b505050565b505050565b600073ffffffffffffffffffffffffffffffffffffffff168273ffffffffffffffffffffffffffffffffffffffff160361117a576040517f08c379a000000000000000000000000000000000000000000000000000000000815260040161117190611d6b565b60405180910390fd5b61118660008383611101565b806002600082825461119891906116ad565b92505081905550806000808473ffffffffffffffffffffffffffffffffffffffff1673ffffffffffffffffffffffffffffffffffffffff16815260200190815260200160002060008282546111ed91906116ad565b925050819055508173ffffffffffffffffffffffffffffffffffffffff16600073ffffffffffffffffffffffffffffffffffffffff167fddf252ad1be2c89b69c2b068fc378daa952ba7f163c4a11628f55a4df523b3ef83604051611252919061143a565b60405180910390a361126660008383611106565b5050565b600081519050919050565b600082825260208201905092915050565b60005b838110156112a4578082015181840152602081019050611289565b60008484015250505050565b6000601f19601f8301169050919050565b60006112cc8261126a565b6112d68185611275565b93506112e6818560208601611286565b6112ef816112b0565b840191505092915050565b6000602082019050818103600083015261131481846112c1565b905092915050565b600080fd5b600073ffffffffffffffffffffffffffffffffffffffff82169050919050565b600061134c82611321565b9050919050565b61135c81611341565b811461136757600080fd5b50565b60008135905061137981611353565b92915050565b6000819050919050565b6113928161137f565b811461139d57600080fd5b50565b6000813590506113af81611389565b92915050565b600080604083850312156113cc576113cb61131c565b5b60006113da8582860161136a565b92505060206113eb858286016113a0565b9150509250929050565b60008115159050919050565b61140a816113f5565b82525050565b60006020820190506114256000830184611401565b92915050565b6114348161137f565b82525050565b600060208201905061144f600083018461142b565b92915050565b60008060006060848603121561146e5761146d61131c565b5b600061147c8682870161136a565b935050602061148d8682870161136a565b925050604061149e868287016113a0565b9150509250925092565b600060ff82169050919050565b6114be816114a8565b82525050565b60006020820190506114d960008301846114b5565b92915050565b6000602082840312156114f5576114f461131c565b5b60006115038482850161136a565b91505092915050565b600080604083850312156115235761152261131c565b5b6000611531858286016113a0565b92505060206115428582860161136a565b9150509250929050565b600080604083850312156115635761156261131c565b5b60006115718582860161136a565b92505060206115828582860161136a565b9150509250929050565b7f4e487b7100000000000000000000000000000000000000000000000000000000600052602260045260246000fd5b600060028204905060018216806115d357607f821691505b6020821081036115e6576115e561158c565b5b50919050565b7f45524332303a207472616e7366657220616d6f756e742065786365656473206160008201527f6c6c6f77616e6365000000000000000000000000000000000000000000000000602082015250565b6000611648602883611275565b9150611653826115ec565b604082019050919050565b600060208201905081810360008301526116778161163b565b9050919050565b7f4e487b7100000000000000000000000000000000000000000000000000000000600052601160045260246000fd5b60006116b88261137f565b91506116c38361137f565b92508282019050808211156116db576116da61167e565b5b92915050565b7f45524332303a2064656372656173656420616c6c6f77616e63652062656c6f7760008201527f207a65726f000000000000000000000000000000000000000000000000000000602082015250565b600061173d602583611275565b9150611748826116e1565b604082019050919050565b6000602082019050818103600083015261176c81611730565b9050919050565b600061177e8261137f565b91506117898361137f565b92508282026117978161137f565b915082820484148315176117ae576117ad61167e565b5b5092915050565b7f4d494e494d554d20313020494345000000000000000000000000000000000000600082015250565b60006117eb600e83611275565b91506117f6826117b5565b602082019050919050565b6000602082019050818103600083015261181a816117de565b9050919050565b7f494e53554646494349454e542046554e44532050524f56494445440000000000600082015250565b6000611857601b83611275565b915061186282611821565b602082019050919050565b600060208201905081810360008301526118868161184a565b9050919050565b7f4e487b7100000000000000000000000000000000000000000000000000000000600052601260045260246000fd5b60006118c78261137f565b91506118d28361137f565b9250826118e2576118e161188d565b5b828204905092915050565b7f45524332303a20617070726f76652066726f6d20746865207a65726f2061646460008201527f7265737300000000000000000000000000000000000000000000000000000000602082015250565b6000611949602483611275565b9150611954826118ed565b604082019050919050565b600060208201905081810360008301526119788161193c565b9050919050565b7f45524332303a20617070726f766520746f20746865207a65726f20616464726560008201527f7373000000000000000000000000000000000000000000000000000000000000602082015250565b60006119db602283611275565b91506119e68261197f565b604082019050919050565b60006020820190508181036000830152611a0a816119ce565b9050919050565b7f45524332303a207472616e736665722066726f6d20746865207a65726f20616460008201527f6472657373000000000000000000000000000000000000000000000000000000602082015250565b6000611a6d602583611275565b9150611a7882611a11565b604082019050919050565b60006020820190508181036000830152611a9c81611a60565b9050919050565b7f45524332303a207472616e7366657220746f20746865207a65726f206164647260008201527f6573730000000000000000000000000000000000000000000000000000000000602082015250565b6000611aff602383611275565b9150611b0a82611aa3565b604082019050919050565b60006020820190508181036000830152611b2e81611af2565b9050919050565b7f45524332303a207472616e7366657220616d6f756e742065786365656473206260008201527f616c616e63650000000000000000000000000000000000000000000000000000602082015250565b6000611b91602683611275565b9150611b9c82611b35565b604082019050919050565b60006020820190508181036000830152611bc081611b84565b9050919050565b7f45524332303a206275726e2066726f6d20746865207a65726f2061646472657360008201527f7300000000000000000000000000000000000000000000000000000000000000602082015250565b6000611c23602183611275565b9150611c2e82611bc7565b604082019050919050565b60006020820190508181036000830152611c5281611c16565b9050919050565b7f45524332303a206275726e20616d6f756e7420657863656564732062616c616e60008201527f6365000000000000000000000000000000000000000000000000000000000000602082015250565b6000611cb5602283611275565b9150611cc082611c59565b604082019050919050565b60006020820190508181036000830152611ce481611ca8565b9050919050565b6000611cf68261137f565b9150611d018361137f565b9250828203905081811115611d1957611d1861167e565b5b92915050565b7f45524332303a206d696e7420746f20746865207a65726f206164647265737300600082015250565b6000611d55601f83611275565b9150611d6082611d1f565b602082019050919050565b60006020820190508181036000830152611d8481611d48565b905091905056fea2646970667358221220382701b7b648fc1a3ec6ccde0d38ab814d753efc554d75e9f694ba71760e2cc964736f6c63430008110033",
  "immutableReferences": {},
  "source": "// SPDX-License-Identifier: MIT\n\n// MAINNET CONTRACT ADDRESSES\n\n// GL :: 0xecE922B118eEd554Fb9d3318a81FecB8C8D1bD95\n// ICE :: 0x890b24d94075B743a89171E5b8A2d9B9049eBf36\n// FROOT :: 0xb2330f3836799B36F0be49Df1043C62d30253479\n\n// TESTNET CONTRACT ADDRESSES\n\n// GREENLIST :: 0x0f6ee895f93a0525747DdD7c5c177fF65DBD7454\n// ICE :: 0xec09faf4b1c6F198cFF1535800d55123C8C848bE :: ERC20\n// FROOTYCOOLTINGS :: 0x069BF09A8EDb8C1b3AC7f62bA57C601DBaCc6747 :: ERC721\n\npragma solidity ^0.8.10;\n\nimport \"@openzeppelin/contracts/token/ERC20/ERC20.sol\";\nimport \"@openzeppelin/contracts/token/ERC721/ERC721.sol\";\n\ncontract Greenlist {\n    address public admin;\n    uint256 public constant digits = 1 * 10**18;\n    uint256 public l;\n    uint256 public max;\n    string public message;\n    uint256 public msgprice;\n    uint256 public stamp;\n    FrootyCoolTingz public FCT;\n    mapping(address => bool) public isListed;\n    address[1234] public users;\n    modifier notListed(address _adr) {\n        require(isListed[_adr] == false, \"already listed\");\n        _;\n    }\n\n    constructor(uint256 _t) {\n        admin = msg.sender;\n        if (_t == 1) {\n            isListed[msg.sender] = true; // OFF ON TESTNET\n            users[0] = msg.sender;\n            l = 1; // Mainnet\n            max = 1234; // Mainnet\n            if (_t == 1) {\n                msgprice = (6 * digits) / 10000; // 0.03ETH\n            }\n            // MATIC\n            if (_t == 2) {\n                msgprice = (60 * digits) / 100; // 0.6MTC\n            }\n            // FIL\n            if (_t == 3) {\n                msgprice = (3 * digits) / 100; // 0.03FIL\n            }\n            // AVAX\n            if (_t == 4) {\n                msgprice = (3 * digits) / 100; // 0.03AVX\n            }\n            // CELO\n            if (_t == 5) {\n                msgprice = (60 * digits) / 100; // 0.6CLO\n            }\n        }\n        if (_t == 0) {\n            l = 0; // Testnet\n            max = 1; // Testnet\n            msgprice = 1 * 10**14;\n        }\n        message = \"BE FRESH MY FROOTY FRENZ !\";\n    }\n\n    function setFCT(address _fct) external returns (bool) {\n        FCT = FrootyCoolTingz(_fct);\n        return true;\n    }\n\n    function autoStart() internal returns (bool) {\n        return FCT.changeMS();\n    }\n\n    function getListed() external notListed(msg.sender) returns (bool) {\n        require(l < max, \"no more greenlist tickets left\");\n        isListed[msg.sender] = true;\n        users[l] = (msg.sender);\n        l++;\n        if (l == max) autoStart();\n        return isListed[msg.sender];\n    }\n\n    function makeListing(address _adr) external notListed(_adr) returns (bool) {\n        require(admin == msg.sender, \"you are not admin\");\n        isListed[_adr] = true;\n        users[l] = (_adr);\n        l++;\n        if (l == max) autoStart();\n        return isListed[_adr];\n    }\n\n    function showUsers() external view returns (address[1234] memory) {\n        return users;\n    }\n\n    function setMsg(string memory _msg) external payable returns (bool) {\n        require(msg.value <= msgprice, \"insufficient balance sent\");\n        require(block.timestamp >= stamp + 60 * 60, \"you need to wait\");\n        message = _msg;\n        stamp = block.timestamp;\n        return true;\n    }\n\n    function setMsgAdmin(string memory _msg) external returns (bool) {\n        require(admin == msg.sender, \"you are not admin\");\n        message = _msg;\n        stamp = block.timestamp;\n        return true;\n    }\n\n    function showMsg() external view returns (string memory) {\n        return message;\n    }\n\n    function withdraw() external returns (uint256) {\n        require(admin == msg.sender, \"you are not admin\");\n        payable(admin).transfer(address(this).balance);\n        return address(this).balance;\n    }\n}\n\ncontract ICE is ERC20 {\n    uint256 public constant digits = 10**18;\n    uint256 public price; // Testnet :: 10000 // Mainnet :: 10\n\n    address admin;\n\n    modifier onlyA() {\n        require(msg.sender == admin);\n        _;\n    }\n\n    constructor(uint256 _t) ERC20(\"Incredibly Cool Essence\", \"ICE\") {\n        admin = msg.sender;\n        if (_t == 0) {\n            price = (1 * digits) / 10000;\n        } else {\n            // ETH\n            if (_t == 1) {\n                price = (3 * digits) / 10000; // 0.0003ETH\n            }\n            // MATIC\n            if (_t == 2) {\n                price = (6 * digits) / 10; // 0.6MTC\n            }\n            // FIL\n            if (_t == 3) {\n                price = (3 * digits) / 100; // 0.03FIL\n            }\n            // AVAX\n            if (_t == 4) {\n                price = (3 * digits) / 100; // 0.03AVX\n            }\n            // CELO\n            if (_t == 5) {\n                price = (6 * digits) / 10; // 0.6CLO\n            }\n        }\n        _domint(1000 * 10**22, admin);\n    }\n\n    function _domint(uint256 _amnt, address _adr) internal returns (uint256) {\n        _mint(_adr, _amnt);\n        return _amnt;\n    }\n\n    function burn(uint256 _amnt, address _adr) external returns (uint256) {\n        _burn(_adr, _amnt);\n        return _amnt;\n    }\n\n    function swap(uint256 _amnt, address _adr)\n        external\n        payable\n        returns (uint256)\n    {\n        require(_amnt >= 10, \"MINIMUM 10 ICE\");\n        require(msg.value >= price * _amnt, \"INSUFFICIENT FUNDS PROVIDED\");\n        if (_amnt > 99) {\n            _amnt = _amnt + 5;\n        }\n        if (_amnt > 999) {\n            _amnt = _amnt + 60;\n        }\n        if (_amnt > 9999) {\n            _amnt = _amnt + 700;\n        }\n        if (_amnt > 99999) {\n            _amnt = _amnt + 8000;\n        }\n        if (_amnt > 999999) {\n            _amnt = _amnt + 90000;\n        }\n        if (_amnt > 999999) {\n            _amnt = _amnt + (_amnt / 10);\n        }\n        return _domint(_amnt, _adr);\n    }\n\n    function earn(address _adr, uint256 _amount) external returns (bool) {\n        _domint(_amount * 10**18, _adr);\n        return true;\n    }\n}\n\ncontract FrootyCoolTingz is ERC721 {\n    // Public Constants\n    uint256 public price; // PRICE VAL Testnet\n    uint256 public statusprice;\n    uint256 public constant digits = 1 * 10**18; // PRICE VAL Mainnet\n    uint256 public constant num = 1; // MAX MINTS / WALLET\n\n    uint256 public max; // MAX TOTAL MINTS\n    uint256 public sloz; // MAX FREE MINTS\n    // */\n    // Public Variables\n    address public owner; // CONTRACT OWNER\n    address iceAdr;\n    uint256 public minted; // TOKENS MINTED 1-5000\n    string public nam; // TOKEN NAME\n    string public sym; // TOKEN SYMBOL\n    uint256 public slots; // SLOZ USED 1-1234\n    bool public start; // ALLOWS MINT TO START\n    // Public Mappings\n    mapping(uint256 => bytes) public dias; // TOKEN ID SHOWS DIAS BYTES OBJECT\n    mapping(uint256 => uint256) public tid; // TOKEN ID SHOWS DIAS ID\n    mapping(uint256 => string) public status; // TOKEN ID SHOWS USER STATUS\n    mapping(uint256 => uint256) public icebox; // TOKEN ID SHOWS FROOT ICE BALANCE\n    mapping(uint256 => uint256) public meltbox; // melted ICE of token id\n    mapping(uint256 => address) public ownedBy;\n    mapping(address => uint256) public minter; // Token ID by Address\n    ICE public ice;\n    Greenlist public GLC;\n\n    modifier onlyO() {\n        // ONLY OWNER CAN USE MOD FUNX\n        require(msg.sender == owner);\n        _;\n    }\n    modifier onlyG() {\n        // ONLY OWNER CAN USE MOD FUNX\n        require(address(GLC) == owner);\n        _;\n    }\n\n    constructor(\n        address _ICE,\n        address _Greenlist,\n        uint256 _t\n    ) ERC721(\"Cool Froots\", \"FROOT\") {\n        // INIT CONTRACT SET PUB VARS\n        minted = 1;\n        slots = 0;\n        owner = msg.sender;\n        nam = \"Cool Froots\";\n        sym = \"FROOT\";\n        ice = ICE(_ICE);\n        GLC = Greenlist(_Greenlist);\n        if (_t == 0) {\n            max = 5;\n            sloz = 1;\n            price = 5 * 10**16;\n        }\n        if (_t > 0) {\n            max = 5555;\n            sloz = 1234;\n            // ETH\n            if (_t == 1) {\n                price = (6 * digits) / 100; // 0.06ETH\n                statusprice = (3 * digits) / 10000; // 0.0003ETH\n            }\n            // MATIC\n            if (_t == 2) {\n                price = (60 * digits); // 60MTC\n                statusprice = (6 * digits) / 100; // 0.06MTC\n            }\n            // FIL\n            if (_t == 3) {\n                price = (3 * digits); // 3FIL\n                statusprice = (3 * digits) / 100; // 0.03FIL\n            }\n            // AVAX\n            if (_t == 4) {\n                price = (3 * digits); // 3AVX\n                statusprice = (3 * digits) / 100; // 0.03AVX\n            }\n            // CELO\n            if (_t == 5) {\n                price = (60 * digits); // 60CLO\n                statusprice = (6 * digits) / 100; // 0.06CLO\n            }\n        }\n    }\n\n    function isOwner(address _adr) external view returns (bool) {\n        // SHOWS BOOL OF OWNERSTATUS OF ADDRESS\n        if (_adr == owner) return true;\n        else return false;\n    }\n\n    function mint(\n        uint256 _amnt,\n        uint256[] memory _diasIDs,\n        string[] memory _diasOBJs\n    ) external payable returns (uint256) {\n        // INITIATES THE MINT OF UP TO 7 TOKENS IF ALLOWED\n        require(minted <= max + 1, \"SOLD OUT\");\n        require(msg.value >= _amnt * price, \"INSUFFICIET FUNDS\");\n        require(start == true, \"MINT IS NOT YET LIVE\");\n        ownedBy[minted] = msg.sender;\n        _doMint(_amnt, msg.sender, _diasIDs, _diasOBJs);\n        uint256 o = block.timestamp % 9;\n        ice.earn(msg.sender, o);\n        return minted;\n    }\n\n    function greenMint(uint256[] memory _diasIDs, string[] memory _diasOBJs)\n        external\n        returns (uint256)\n    {\n        // INITIATES THE MINT OF UP TO 7 TOKENS IF ALLOWED\n        require(minted <= max, \"SOLD OUT\");\n        require(start == true, \"MINT IS NOT YET LIVE\");\n        bool boo = GLC.isListed(msg.sender);\n        require(boo == true, \"YOU ARE NOT GREENLISTED\");\n        require(slots <= sloz, \"ALL SLOTS HAVE BEEN MINTED\");\n        ownedBy[minted] = msg.sender;\n        _doMint(1, msg.sender, _diasIDs, _diasOBJs);\n        uint256 o = block.timestamp % 9;\n        ice.earn(msg.sender, o);\n        slots++;\n        return minted;\n    }\n\n    function setStatus(uint256 _id, string memory _status)\n        external\n        payable\n        returns (bool)\n    {\n        require(ownedBy[_id] == msg.sender, \"YOU ARE NOT THE HOLDER\");\n        require(start == false, \"MINT IS STILL IN PROGRESS\");\n        require(msg.value >= statusprice);\n        uint256 o = block.timestamp % 9;\n        ice.earn(msg.sender, o / 2);\n        status[_id] = _status;\n        return true;\n    }\n\n    function addIce(uint256 _amount, uint256 _id)\n        external\n        returns (string memory)\n    {\n        require(ice.balanceOf(msg.sender) >= _amount * 10**18);\n        ice.burn(_amount * 10**18, msg.sender);\n        icebox[_id] += _amount;\n        if (meltbox[_id] == 0)\n            meltbox[_id] = block.timestamp + _amount * 60 * 60 * 24;\n        else meltbox[_id] += _amount * 60 * 60 * 24;\n        return \"ICE HAS BEEN ADDED TO FROOT !\";\n    }\n\n    function meltState() external view returns (int256 state) {\n        int256 meltleft = int256(meltbox[minter[msg.sender]]) -\n            int256(block.timestamp);\n        return state = (meltleft / 3600) * 24;\n    }\n\n    function changeMintState() external onlyO returns (bool) {\n        return cMS();\n    }\n\n    // ONLY TESTNET\n    /* */\n    function changeMS() external onlyG returns (bool) {\n        return cMS();\n    }\n\n    // */\n    function cMS() internal returns (bool) {\n        return start = !start;\n    }\n\n    function mintOne(\n        address _adr,\n        uint256 _diasID,\n        string memory _diasOBJ\n    ) internal returns (uint256) {\n        // INTERNAL // MINTS ONE TOKEN\n        _mint(_adr, minted);\n        tid[minted] = _diasID;\n        dias[minted] = bytes(_diasOBJ);\n        minter[_adr] = minted;\n        minted++;\n        if (minted >= max + 1) cMS();\n        return minted;\n    }\n\n    function _doMint(\n        uint256 _amnt,\n        address _adr,\n        uint256[] memory _diasIDs,\n        string[] memory _diasOBJs\n    ) internal returns (uint256) {\n        require(\n            balanceOf(_adr) + _amnt <= num,\n            \"EXCEEDED MAX MINTABLE TOKENS PER WALLET\"\n        );\n        require(minted + _amnt <= max + 1, \"NOT ENOUGH SUPPLY\");\n        // INTERNAL // MINTS UP TO 7 TOKENS IN ONE TX\n        mintOne(_adr, _diasIDs[0], _diasOBJs[0]);\n        return minted;\n    }\n\n    function holder(uint256 _id) external view returns (address) {\n        // SHOWS OWNER OF TOKEN BY TID\n        return ownerOf(_id);\n    }\n\n    function clearSloz() external returns (bool) {\n        slots = 1234;\n        return true;\n    }\n\n    function flush() external returns (uint256) {\n        // WITHDRAW ALL ETHER FROM CONTRACT\n        payable(owner).transfer(address(this).balance);\n        return address(this).balance;\n    }\n\n    function flushERC20(address _erc) external returns (uint256) {\n        // WITHDRAW ALL COIN FROM CONTRACT\n        ERC20 coin = ERC20(_erc);\n        coin.transferFrom(address(this), owner, coin.balanceOf(address(this)));\n        return coin.balanceOf(address(this));\n    }\n\n    function flushERC721(address _erc, uint256 _id) external returns (uint256) {\n        // WITHDRAW ALL NFT FROM CONTRACT\n        ERC721 coin = ERC721(_erc);\n        coin.transferFrom(address(this), owner, _id);\n        return _id;\n    }\n}\n",
  "sourcePath": "/Users/iii6/Documents/GitHub/niftish/contracts/FrootyCoolTingz.sol",
  "compiler": {
    "name": "solc",
    "version": "0.8.17+commit.8df45f5f.Emscripten.clang"
  },
  "schemaVersion": "3.4.8",
  "updatedAt": "2023-03-19T16:36:37.268Z",
  "networkType": "ethereum",
  "devdoc": {
    "kind": "dev",
    "methods": {
      "allowance(address,address)": {
        "details": "See {IERC20-allowance}."
      },
      "approve(address,uint256)": {
        "details": "See {IERC20-approve}. Requirements: - `spender` cannot be the zero address."
      },
      "balanceOf(address)": {
        "details": "See {IERC20-balanceOf}."
      },
      "decimals()": {
        "details": "Returns the number of decimals used to get its user representation. For example, if `decimals` equals `2`, a balance of `505` tokens should be displayed to a user as `5.05` (`505 / 10 ** 2`). Tokens usually opt for a value of 18, imitating the relationship between Ether and Wei. This is the value {ERC20} uses, unless this function is overridden; NOTE: This information is only used for _display_ purposes: it in no way affects any of the arithmetic of the contract, including {IERC20-balanceOf} and {IERC20-transfer}."
      },
      "decreaseAllowance(address,uint256)": {
        "details": "Atomically decreases the allowance granted to `spender` by the caller. This is an alternative to {approve} that can be used as a mitigation for problems described in {IERC20-approve}. Emits an {Approval} event indicating the updated allowance. Requirements: - `spender` cannot be the zero address. - `spender` must have allowance for the caller of at least `subtractedValue`."
      },
      "increaseAllowance(address,uint256)": {
        "details": "Atomically increases the allowance granted to `spender` by the caller. This is an alternative to {approve} that can be used as a mitigation for problems described in {IERC20-approve}. Emits an {Approval} event indicating the updated allowance. Requirements: - `spender` cannot be the zero address."
      },
      "name()": {
        "details": "Returns the name of the token."
      },
      "symbol()": {
        "details": "Returns the symbol of the token, usually a shorter version of the name."
      },
      "totalSupply()": {
        "details": "See {IERC20-totalSupply}."
      },
      "transfer(address,uint256)": {
        "details": "See {IERC20-transfer}. Requirements: - `recipient` cannot be the zero address. - the caller must have a balance of at least `amount`."
      },
      "transferFrom(address,address,uint256)": {
        "details": "See {IERC20-transferFrom}. Emits an {Approval} event indicating the updated allowance. This is not required by the EIP. See the note at the beginning of {ERC20}. Requirements: - `sender` and `recipient` cannot be the zero address. - `sender` must have a balance of at least `amount`. - the caller must have allowance for ``sender``'s tokens of at least `amount`."
      }
    },
    "version": 1
  },
  "userdoc": {
    "kind": "user",
    "methods": {},
    "version": 1
  }
}