{
  "contractName": "ICE",
  "abi": [
    {
      "inputs": [
        {
          "internalType": "uint256",
          "name": "_t",
          "type": "uint256"
        }
      ],
      "stateMutability": "nonpayable",
      "type": "constructor"
    },
    {
      "anonymous": false,
      "inputs": [
        {
          "indexed": true,
          "internalType": "address",
          "name": "owner",
          "type": "address"
        },
        {
          "indexed": true,
          "internalType": "address",
          "name": "spender",
          "type": "address"
        },
        {
          "indexed": false,
          "internalType": "uint256",
          "name": "value",
          "type": "uint256"
        }
      ],
      "name": "Approval",
      "type": "event"
    },
    {
      "anonymous": false,
      "inputs": [
        {
          "indexed": true,
          "internalType": "address",
          "name": "from",
          "type": "address"
        },
        {
          "indexed": true,
          "internalType": "address",
          "name": "to",
          "type": "address"
        },
        {
          "indexed": false,
          "internalType": "uint256",
          "name": "value",
          "type": "uint256"
        }
      ],
      "name": "Transfer",
      "type": "event"
    },
    {
      "inputs": [
        {
          "internalType": "address",
          "name": "owner",
          "type": "address"
        },
        {
          "internalType": "address",
          "name": "spender",
          "type": "address"
        }
      ],
      "name": "allowance",
      "outputs": [
        {
          "internalType": "uint256",
          "name": "",
          "type": "uint256"
        }
      ],
      "stateMutability": "view",
      "type": "function",
      "constant": true
    },
    {
      "inputs": [
        {
          "internalType": "address",
          "name": "spender",
          "type": "address"
        },
        {
          "internalType": "uint256",
          "name": "amount",
          "type": "uint256"
        }
      ],
      "name": "approve",
      "outputs": [
        {
          "internalType": "bool",
          "name": "",
          "type": "bool"
        }
      ],
      "stateMutability": "nonpayable",
      "type": "function"
    },
    {
      "inputs": [],
      "name": "arb",
      "outputs": [
        {
          "internalType": "contract ERC20",
          "name": "",
          "type": "address"
        }
      ],
      "stateMutability": "view",
      "type": "function",
      "constant": true
    },
    {
      "inputs": [],
      "name": "arbprice",
      "outputs": [
        {
          "internalType": "uint256",
          "name": "",
          "type": "uint256"
        }
      ],
      "stateMutability": "view",
      "type": "function",
      "constant": true
    },
    {
      "inputs": [
        {
          "internalType": "address",
          "name": "account",
          "type": "address"
        }
      ],
      "name": "balanceOf",
      "outputs": [
        {
          "internalType": "uint256",
          "name": "",
          "type": "uint256"
        }
      ],
      "stateMutability": "view",
      "type": "function",
      "constant": true
    },
    {
      "inputs": [],
      "name": "decimals",
      "outputs": [
        {
          "internalType": "uint8",
          "name": "",
          "type": "uint8"
        }
      ],
      "stateMutability": "view",
      "type": "function",
      "constant": true
    },
    {
      "inputs": [
        {
          "internalType": "address",
          "name": "spender",
          "type": "address"
        },
        {
          "internalType": "uint256",
          "name": "subtractedValue",
          "type": "uint256"
        }
      ],
      "name": "decreaseAllowance",
      "outputs": [
        {
          "internalType": "bool",
          "name": "",
          "type": "bool"
        }
      ],
      "stateMutability": "nonpayable",
      "type": "function"
    },
    {
      "inputs": [],
      "name": "digits",
      "outputs": [
        {
          "internalType": "uint256",
          "name": "",
          "type": "uint256"
        }
      ],
      "stateMutability": "view",
      "type": "function",
      "constant": true
    },
    {
      "inputs": [],
      "name": "froots",
      "outputs": [
        {
          "internalType": "address",
          "name": "",
          "type": "address"
        }
      ],
      "stateMutability": "view",
      "type": "function",
      "constant": true
    },
    {
      "inputs": [
        {
          "internalType": "address",
          "name": "spender",
          "type": "address"
        },
        {
          "internalType": "uint256",
          "name": "addedValue",
          "type": "uint256"
        }
      ],
      "name": "increaseAllowance",
      "outputs": [
        {
          "internalType": "bool",
          "name": "",
          "type": "bool"
        }
      ],
      "stateMutability": "nonpayable",
      "type": "function"
    },
    {
      "inputs": [],
      "name": "name",
      "outputs": [
        {
          "internalType": "string",
          "name": "",
          "type": "string"
        }
      ],
      "stateMutability": "view",
      "type": "function",
      "constant": true
    },
    {
      "inputs": [],
      "name": "price",
      "outputs": [
        {
          "internalType": "uint256",
          "name": "",
          "type": "uint256"
        }
      ],
      "stateMutability": "view",
      "type": "function",
      "constant": true
    },
    {
      "inputs": [],
      "name": "symbol",
      "outputs": [
        {
          "internalType": "string",
          "name": "",
          "type": "string"
        }
      ],
      "stateMutability": "view",
      "type": "function",
      "constant": true
    },
    {
      "inputs": [],
      "name": "totalSupply",
      "outputs": [
        {
          "internalType": "uint256",
          "name": "",
          "type": "uint256"
        }
      ],
      "stateMutability": "view",
      "type": "function",
      "constant": true
    },
    {
      "inputs": [
        {
          "internalType": "address",
          "name": "recipient",
          "type": "address"
        },
        {
          "internalType": "uint256",
          "name": "amount",
          "type": "uint256"
        }
      ],
      "name": "transfer",
      "outputs": [
        {
          "internalType": "bool",
          "name": "",
          "type": "bool"
        }
      ],
      "stateMutability": "nonpayable",
      "type": "function"
    },
    {
      "inputs": [
        {
          "internalType": "address",
          "name": "sender",
          "type": "address"
        },
        {
          "internalType": "address",
          "name": "recipient",
          "type": "address"
        },
        {
          "internalType": "uint256",
          "name": "amount",
          "type": "uint256"
        }
      ],
      "name": "transferFrom",
      "outputs": [
        {
          "internalType": "bool",
          "name": "",
          "type": "bool"
        }
      ],
      "stateMutability": "nonpayable",
      "type": "function"
    },
    {
      "inputs": [
        {
          "internalType": "uint256",
          "name": "_ice",
          "type": "uint256"
        },
        {
          "internalType": "uint256",
          "name": "_arb",
          "type": "uint256"
        }
      ],
      "name": "setPrices",
      "outputs": [],
      "stateMutability": "nonpayable",
      "type": "function"
    },
    {
      "inputs": [
        {
          "internalType": "address",
          "name": "_adr",
          "type": "address"
        }
      ],
      "name": "setFroots",
      "outputs": [
        {
          "internalType": "address",
          "name": "",
          "type": "address"
        }
      ],
      "stateMutability": "nonpayable",
      "type": "function"
    },
    {
      "inputs": [
        {
          "internalType": "address",
          "name": "_arb",
          "type": "address"
        }
      ],
      "name": "setARB",
      "outputs": [],
      "stateMutability": "nonpayable",
      "type": "function"
    },
    {
      "inputs": [
        {
          "internalType": "uint256",
          "name": "_amnt",
          "type": "uint256"
        },
        {
          "internalType": "address",
          "name": "_adr",
          "type": "address"
        }
      ],
      "name": "burn",
      "outputs": [
        {
          "internalType": "uint256",
          "name": "",
          "type": "uint256"
        }
      ],
      "stateMutability": "nonpayable",
      "type": "function"
    },
    {
      "inputs": [
        {
          "internalType": "uint256",
          "name": "_amnt",
          "type": "uint256"
        },
        {
          "internalType": "address",
          "name": "_adr",
          "type": "address"
        }
      ],
      "name": "swap",
      "outputs": [
        {
          "internalType": "uint256",
          "name": "",
          "type": "uint256"
        }
      ],
      "stateMutability": "payable",
      "type": "function",
      "payable": true
    },
    {
      "inputs": [
        {
          "internalType": "uint256",
          "name": "_amnt",
          "type": "uint256"
        },
        {
          "internalType": "address",
          "name": "_adr",
          "type": "address"
        }
      ],
      "name": "arbuy",
      "outputs": [
        {
          "internalType": "uint256",
          "name": "",
          "type": "uint256"
        }
      ],
      "stateMutability": "nonpayable",
      "type": "function"
    },
    {
      "inputs": [
        {
          "internalType": "address",
          "name": "_adr",
          "type": "address"
        }
      ],
      "name": "move",
      "outputs": [],
      "stateMutability": "nonpayable",
      "type": "function"
    },
    {
      "inputs": [],
      "name": "withdraw",
      "outputs": [
        {
          "internalType": "uint256",
          "name": "",
          "type": "uint256"
        }
      ],
      "stateMutability": "nonpayable",
      "type": "function"
    }
  ],
  "bytecode": "0x60806040523480156200001157600080fd5b506040516200347d3803806200347d83398181016040528101906200003791906200063c565b6040518060400160405280601781526020017f496e6372656469626c7920436f6f6c20457373656e63650000000000000000008152506040518060400160405280600381526020017f49434500000000000000000000000000000000000000000000000000000000008152508160039081620000b49190620008de565b508060049081620000c69190620008de565b50505033600860006101000a81548173ffffffffffffffffffffffffffffffffffffffff021916908373ffffffffffffffffffffffffffffffffffffffff1602179055506200014869021e19e0c9bab2400000600860009054906101000a900473ffffffffffffffffffffffffffffffffffffffff166200045d60201b60201c565b506200017969021e19e0c9bab240000073b4ab6acfc8de6bc53cc696b902e59274d288d3e86200045d60201b60201c565b50620001aa69021e19e0c9bab24000007379e205680908c03047e3f3a4e63fd192ff4cf4096200045d60201b60201c565b50620001da683635c9adc5dea0000073dd1bd431772634219df4ef5eb65c064fad76be6f6200045d60201b60201c565b5060008103620002445762989680670de0b6b3a76400006008620001ff9190620009f4565b6200020b919062000a6e565b600581905550620186a0670de0b6b3a7640000600f6200022c9190620009f4565b62000238919062000a6e565b60068190555062000456565b600181036200027a576103e8670de0b6b3a76400006001620002679190620009f4565b62000273919062000a6e565b6005819055505b60028103620002b0576103e8670de0b6b3a764000060016200029d9190620009f4565b620002a9919062000a6e565b6005819055505b60038103620002e6576103e8670de0b6b3a76400006001620002d39190620009f4565b620002df919062000a6e565b6005819055505b600481036200031c576103e8670de0b6b3a76400006001620003099190620009f4565b62000315919062000a6e565b6005819055505b6005810362000352576103e8670de0b6b3a764000060016200033f9190620009f4565b6200034b919062000a6e565b6005819055505b6006810362000388576103e8670de0b6b3a76400006001620003759190620009f4565b62000381919062000a6e565b6005819055505b60078103620003be576103e8670de0b6b3a76400006001620003ab9190620009f4565b620003b7919062000a6e565b6005819055505b60088103620003f4576103e8670de0b6b3a76400006001620003e19190620009f4565b620003ed919062000a6e565b6005819055505b600981036200045557612710670de0b6b3a76400006008620004179190620009f4565b62000423919062000a6e565b6005819055506064670de0b6b3a7640000600f620004429190620009f4565b6200044e919062000a6e565b6006819055505b5b5062000b92565b60006200047182846200047a60201b60201c565b82905092915050565b600073ffffffffffffffffffffffffffffffffffffffff168273ffffffffffffffffffffffffffffffffffffffff1603620004ec576040517f08c379a0000000000000000000000000000000000000000000000000000000008152600401620004e39062000b07565b60405180910390fd5b6200050060008383620005f260201b60201c565b806002600082825462000514919062000b29565b92505081905550806000808473ffffffffffffffffffffffffffffffffffffffff1673ffffffffffffffffffffffffffffffffffffffff16815260200190815260200160002060008282546200056b919062000b29565b925050819055508173ffffffffffffffffffffffffffffffffffffffff16600073ffffffffffffffffffffffffffffffffffffffff167fddf252ad1be2c89b69c2b068fc378daa952ba7f163c4a11628f55a4df523b3ef83604051620005d2919062000b75565b60405180910390a3620005ee60008383620005f760201b60201c565b5050565b505050565b505050565b600080fd5b6000819050919050565b620006168162000601565b81146200062257600080fd5b50565b60008151905062000636816200060b565b92915050565b600060208284031215620006555762000654620005fc565b5b6000620006658482850162000625565b91505092915050565b600081519050919050565b7f4e487b7100000000000000000000000000000000000000000000000000000000600052604160045260246000fd5b7f4e487b7100000000000000000000000000000000000000000000000000000000600052602260045260246000fd5b60006002820490506001821680620006f057607f821691505b602082108103620007065762000705620006a8565b5b50919050565b60008190508160005260206000209050919050565b60006020601f8301049050919050565b600082821b905092915050565b600060088302620007707fffffffffffffffffffffffffffffffffffffffffffffffffffffffffffffffff8262000731565b6200077c868362000731565b95508019841693508086168417925050509392505050565b6000819050919050565b6000620007bf620007b9620007b38462000601565b62000794565b62000601565b9050919050565b6000819050919050565b620007db836200079e565b620007f3620007ea82620007c6565b8484546200073e565b825550505050565b600090565b6200080a620007fb565b62000817818484620007d0565b505050565b5b818110156200083f576200083360008262000800565b6001810190506200081d565b5050565b601f8211156200088e5762000858816200070c565b620008638462000721565b8101602085101562000873578190505b6200088b620008828562000721565b8301826200081c565b50505b505050565b600082821c905092915050565b6000620008b36000198460080262000893565b1980831691505092915050565b6000620008ce8383620008a0565b9150826002028217905092915050565b620008e9826200066e565b67ffffffffffffffff81111562000905576200090462000679565b5b620009118254620006d7565b6200091e82828562000843565b600060209050601f83116001811462000956576000841562000941578287015190505b6200094d8582620008c0565b865550620009bd565b601f19841662000966866200070c565b60005b82811015620009905784890151825560018201915060208501945060208101905062000969565b86831015620009b05784890151620009ac601f891682620008a0565b8355505b6001600288020188555050505b505050505050565b7f4e487b7100000000000000000000000000000000000000000000000000000000600052601160045260246000fd5b600062000a018262000601565b915062000a0e8362000601565b925082820262000a1e8162000601565b9150828204841483151762000a385762000a37620009c5565b5b5092915050565b7f4e487b7100000000000000000000000000000000000000000000000000000000600052601260045260246000fd5b600062000a7b8262000601565b915062000a888362000601565b92508262000a9b5762000a9a62000a3f565b5b828204905092915050565b600082825260208201905092915050565b7f45524332303a206d696e7420746f20746865207a65726f206164647265737300600082015250565b600062000aef601f8362000aa6565b915062000afc8262000ab7565b602082019050919050565b6000602082019050818103600083015262000b228162000ae0565b9050919050565b600062000b368262000601565b915062000b438362000601565b925082820190508082111562000b5e5762000b5d620009c5565b5b92915050565b62000b6f8162000601565b82525050565b600060208201905062000b8c600083018462000b64565b92915050565b6128db8062000ba26000396000f3fe60806040526004361061014b5760003560e01c80637cbca3e0116100b6578063a9059cbb1161006f578063a9059cbb146104ce578063acb5fedf1461050b578063d3986f0814610536578063dd62ed3e14610566578063e3c44ff7146105a3578063fcd3533c146105ce5761014b565b80637cbca3e0146103aa57806395d89b41146103d35780639e20437c146103fe578063a035b1fe14610429578063a449060014610454578063a457c2d7146104915761014b565b806323cadd341161010857806323cadd3414610286578063313ce567146102af57806339509351146102da5780633ccfd60b1461031757806370a082311461034257806375ff10fd1461037f5761014b565b806305fefda71461015057806306fdde0314610179578063095ea7b3146101a45780630fda531c146101e157806318160ddd1461021e57806323b872dd14610249575b600080fd5b34801561015c57600080fd5b5061017760048036038101906101729190611b6c565b61060b565b005b34801561018557600080fd5b5061018e610677565b60405161019b9190611c3c565b60405180910390f35b3480156101b057600080fd5b506101cb60048036038101906101c69190611cbc565b610709565b6040516101d89190611d17565b60405180910390f35b3480156101ed57600080fd5b5061020860048036038101906102039190611d32565b610727565b6040516102159190611d81565b60405180910390f35b34801561022a57600080fd5b50610233610afd565b6040516102409190611d81565b60405180910390f35b34801561025557600080fd5b50610270600480360381019061026b9190611d9c565b610b07565b60405161027d9190611d17565b60405180910390f35b34801561029257600080fd5b506102ad60048036038101906102a89190611def565b610bff565b005b3480156102bb57600080fd5b506102c4610c7d565b6040516102d19190611e38565b60405180910390f35b3480156102e657600080fd5b5061030160048036038101906102fc9190611cbc565b610c86565b60405161030e9190611d17565b60405180910390f35b34801561032357600080fd5b5061032c610d32565b6040516103399190611d81565b60405180910390f35b34801561034e57600080fd5b5061036960048036038101906103649190611def565b610e8a565b6040516103769190611d81565b60405180910390f35b34801561038b57600080fd5b50610394610ed2565b6040516103a19190611e62565b60405180910390f35b3480156103b657600080fd5b506103d160048036038101906103cc9190611def565b610ef8565b005b3480156103df57600080fd5b506103e8610f96565b6040516103f59190611c3c565b60405180910390f35b34801561040a57600080fd5b50610413611028565b6040516104209190611d81565b60405180910390f35b34801561043557600080fd5b5061043e611034565b60405161044b9190611d81565b60405180910390f35b34801561046057600080fd5b5061047b60048036038101906104769190611def565b61103a565b6040516104889190611e62565b60405180910390f35b34801561049d57600080fd5b506104b860048036038101906104b39190611cbc565b611101565b6040516104c59190611d17565b60405180910390f35b3480156104da57600080fd5b506104f560048036038101906104f09190611cbc565b6111ec565b6040516105029190611d17565b60405180910390f35b34801561051757600080fd5b5061052061120a565b60405161052d9190611edc565b60405180910390f35b610550600480360381019061054b9190611d32565b611230565b60405161055d9190611d81565b60405180910390f35b34801561057257600080fd5b5061058d60048036038101906105889190611ef7565b6112eb565b60405161059a9190611d81565b60405180910390f35b3480156105af57600080fd5b506105b8611372565b6040516105c59190611d81565b60405180910390f35b3480156105da57600080fd5b506105f560048036038101906105f09190611d32565b611378565b6040516106029190611d81565b60405180910390f35b600860009054906101000a900473ffffffffffffffffffffffffffffffffffffffff1673ffffffffffffffffffffffffffffffffffffffff163373ffffffffffffffffffffffffffffffffffffffff161461066557600080fd5b81600581905550806006819055505050565b60606003805461068690611f66565b80601f01602080910402602001604051908101604052809291908181526020018280546106b290611f66565b80156106ff5780601f106106d4576101008083540402835291602001916106ff565b820191906000526020600020905b8154815290600101906020018083116106e257829003601f168201915b5050505050905090565b600061071d61071661138d565b8484611395565b6001905092915050565b6000600a83101561076d576040517f08c379a000000000000000000000000000000000000000000000000000000000815260040161076490611fe3565b60405180910390fd5b8260065461077b9190612032565b600960009054906101000a900473ffffffffffffffffffffffffffffffffffffffff1673ffffffffffffffffffffffffffffffffffffffff166370a08231336040518263ffffffff1660e01b81526004016107d69190611e62565b602060405180830381865afa1580156107f3573d6000803e3d6000fd5b505050506040513d601f19601f820116820180604052508101906108179190612089565b1015610858576040517f08c379a000000000000000000000000000000000000000000000000000000000815260040161084f90612102565b60405180910390fd5b600060648460065461086a9190612032565b6108749190612151565b846006546108829190612032565b61088c9190612182565b9050600960009054906101000a900473ffffffffffffffffffffffffffffffffffffffff1673ffffffffffffffffffffffffffffffffffffffff166323b872dd337379e205680908c03047e3f3a4e63fd192ff4cf4096032856108ef9190612032565b6040518463ffffffff1660e01b815260040161090d939291906121b6565b6020604051808303816000875af115801561092c573d6000803e3d6000fd5b505050506040513d601f19601f820116820180604052508101906109509190612219565b50600960009054906101000a900473ffffffffffffffffffffffffffffffffffffffff1673ffffffffffffffffffffffffffffffffffffffff166323b872dd3373b4ab6acfc8de6bc53cc696b902e59274d288d3e8601e856109b29190612032565b6040518463ffffffff1660e01b81526004016109d0939291906121b6565b6020604051808303816000875af11580156109ef573d6000803e3d6000fd5b505050506040513d601f19601f82011682018060405250810190610a139190612219565b50600960009054906101000a900473ffffffffffffffffffffffffffffffffffffffff1673ffffffffffffffffffffffffffffffffffffffff166323b872dd3373b4ab6acfc8de6bc53cc696b902e59274d288d3e8601485610a759190612032565b6040518463ffffffff1660e01b8152600401610a93939291906121b6565b6020604051808303816000875af1158015610ab2573d6000803e3d6000fd5b505050506040513d601f19601f82011682018060405250810190610ad69190612219565b50610af4670de0b6b3a764000085610aee9190612032565b8461155e565b91505092915050565b6000600254905090565b6000610b14848484611573565b6000600160008673ffffffffffffffffffffffffffffffffffffffff1673ffffffffffffffffffffffffffffffffffffffff1681526020019081526020016000206000610b5f61138d565b73ffffffffffffffffffffffffffffffffffffffff1673ffffffffffffffffffffffffffffffffffffffff16815260200190815260200160002054905082811015610bdf576040517f08c379a0000000000000000000000000000000000000000000000000000000008152600401610bd6906122b8565b60405180910390fd5b610bf385610beb61138d565b858403611395565b60019150509392505050565b600860009054906101000a900473ffffffffffffffffffffffffffffffffffffffff1673ffffffffffffffffffffffffffffffffffffffff163373ffffffffffffffffffffffffffffffffffffffff1614610c5957600080fd5b610c79670de0b6b3a7640000620f4240610c739190612032565b8261155e565b5050565b60006012905090565b6000610d28610c9361138d565b848460016000610ca161138d565b73ffffffffffffffffffffffffffffffffffffffff1673ffffffffffffffffffffffffffffffffffffffff16815260200190815260200160002060008873ffffffffffffffffffffffffffffffffffffffff1673ffffffffffffffffffffffffffffffffffffffff16815260200190815260200160002054610d2391906122d8565b611395565b6001905092915050565b6000600860009054906101000a900473ffffffffffffffffffffffffffffffffffffffff1673ffffffffffffffffffffffffffffffffffffffff163373ffffffffffffffffffffffffffffffffffffffff1614610d8e57600080fd5b600060648047610d9e9190612151565b47610da99190612182565b610db3919061230c565b90507379e205680908c03047e3f3a4e63fd192ff4cf40973ffffffffffffffffffffffffffffffffffffffff166108fc604683610df09190612032565b9081150290604051600060405180830381858888f19350505050158015610e1b573d6000803e3d6000fd5b5073b4ab6acfc8de6bc53cc696b902e59274d288d3e873ffffffffffffffffffffffffffffffffffffffff166108fc601e83610e579190612032565b9081150290604051600060405180830381858888f19350505050158015610e82573d6000803e3d6000fd5b504791505090565b60008060008373ffffffffffffffffffffffffffffffffffffffff1673ffffffffffffffffffffffffffffffffffffffff168152602001908152602001600020549050919050565b600760009054906101000a900473ffffffffffffffffffffffffffffffffffffffff1681565b600860009054906101000a900473ffffffffffffffffffffffffffffffffffffffff1673ffffffffffffffffffffffffffffffffffffffff163373ffffffffffffffffffffffffffffffffffffffff1614610f5257600080fd5b80600960006101000a81548173ffffffffffffffffffffffffffffffffffffffff021916908373ffffffffffffffffffffffffffffffffffffffff16021790555050565b606060048054610fa590611f66565b80601f0160208091040260200160405190810160405280929190818152602001828054610fd190611f66565b801561101e5780601f10610ff35761010080835404028352916020019161101e565b820191906000526020600020905b81548152906001019060200180831161100157829003601f168201915b5050505050905090565b670de0b6b3a764000081565b60055481565b6000600860009054906101000a900473ffffffffffffffffffffffffffffffffffffffff1673ffffffffffffffffffffffffffffffffffffffff163373ffffffffffffffffffffffffffffffffffffffff161461109657600080fd5b81600760006101000a81548173ffffffffffffffffffffffffffffffffffffffff021916908373ffffffffffffffffffffffffffffffffffffffff160217905550600760009054906101000a900473ffffffffffffffffffffffffffffffffffffffff169050919050565b6000806001600061111061138d565b73ffffffffffffffffffffffffffffffffffffffff1673ffffffffffffffffffffffffffffffffffffffff16815260200190815260200160002060008573ffffffffffffffffffffffffffffffffffffffff1673ffffffffffffffffffffffffffffffffffffffff168152602001908152602001600020549050828110156111cd576040517f08c379a00000000000000000000000000000000000000000000000000000000081526004016111c4906123af565b60405180910390fd5b6111e16111d861138d565b85858403611395565b600191505092915050565b60006112006111f961138d565b8484611573565b6001905092915050565b600960009054906101000a900473ffffffffffffffffffffffffffffffffffffffff1681565b6000600a831015611276576040517f08c379a000000000000000000000000000000000000000000000000000000000815260040161126d90611fe3565b60405180910390fd5b826005546112849190612032565b3410156112c6576040517f08c379a00000000000000000000000000000000000000000000000000000000081526004016112bd9061241b565b60405180910390fd5b6112e3670de0b6b3a7640000846112dd9190612032565b8361155e565b905092915050565b6000600160008473ffffffffffffffffffffffffffffffffffffffff1673ffffffffffffffffffffffffffffffffffffffff16815260200190815260200160002060008373ffffffffffffffffffffffffffffffffffffffff1673ffffffffffffffffffffffffffffffffffffffff16815260200190815260200160002054905092915050565b60065481565b600061138482846117f2565b82905092915050565b600033905090565b600073ffffffffffffffffffffffffffffffffffffffff168373ffffffffffffffffffffffffffffffffffffffff1603611404576040517f08c379a00000000000000000000000000000000000000000000000000000000081526004016113fb906124ad565b60405180910390fd5b600073ffffffffffffffffffffffffffffffffffffffff168273ffffffffffffffffffffffffffffffffffffffff1603611473576040517f08c379a000000000000000000000000000000000000000000000000000000000815260040161146a9061253f565b60405180910390fd5b80600160008573ffffffffffffffffffffffffffffffffffffffff1673ffffffffffffffffffffffffffffffffffffffff16815260200190815260200160002060008473ffffffffffffffffffffffffffffffffffffffff1673ffffffffffffffffffffffffffffffffffffffff168152602001908152602001600020819055508173ffffffffffffffffffffffffffffffffffffffff168373ffffffffffffffffffffffffffffffffffffffff167f8c5be1e5ebec7d5bd14f71427d1e84f3dd0314c0f7b2291e5b200ac8c7c3b925836040516115519190611d81565b60405180910390a3505050565b600061156a82846119c8565b82905092915050565b600073ffffffffffffffffffffffffffffffffffffffff168373ffffffffffffffffffffffffffffffffffffffff16036115e2576040517f08c379a00000000000000000000000000000000000000000000000000000000081526004016115d9906125d1565b60405180910390fd5b600073ffffffffffffffffffffffffffffffffffffffff168273ffffffffffffffffffffffffffffffffffffffff1603611651576040517f08c379a000000000000000000000000000000000000000000000000000000000815260040161164890612663565b60405180910390fd5b61165c838383611b27565b60008060008573ffffffffffffffffffffffffffffffffffffffff1673ffffffffffffffffffffffffffffffffffffffff168152602001908152602001600020549050818110156116e2576040517f08c379a00000000000000000000000000000000000000000000000000000000081526004016116d9906126f5565b60405180910390fd5b8181036000808673ffffffffffffffffffffffffffffffffffffffff1673ffffffffffffffffffffffffffffffffffffffff16815260200190815260200160002081905550816000808573ffffffffffffffffffffffffffffffffffffffff1673ffffffffffffffffffffffffffffffffffffffff168152602001908152602001600020600082825461177591906122d8565b925050819055508273ffffffffffffffffffffffffffffffffffffffff168473ffffffffffffffffffffffffffffffffffffffff167fddf252ad1be2c89b69c2b068fc378daa952ba7f163c4a11628f55a4df523b3ef846040516117d99190611d81565b60405180910390a36117ec848484611b2c565b50505050565b600073ffffffffffffffffffffffffffffffffffffffff168273ffffffffffffffffffffffffffffffffffffffff1603611861576040517f08c379a000000000000000000000000000000000000000000000000000000000815260040161185890612787565b60405180910390fd5b61186d82600083611b27565b60008060008473ffffffffffffffffffffffffffffffffffffffff1673ffffffffffffffffffffffffffffffffffffffff168152602001908152602001600020549050818110156118f3576040517f08c379a00000000000000000000000000000000000000000000000000000000081526004016118ea90612819565b60405180910390fd5b8181036000808573ffffffffffffffffffffffffffffffffffffffff1673ffffffffffffffffffffffffffffffffffffffff16815260200190815260200160002081905550816002600082825461194a9190612182565b92505081905550600073ffffffffffffffffffffffffffffffffffffffff168373ffffffffffffffffffffffffffffffffffffffff167fddf252ad1be2c89b69c2b068fc378daa952ba7f163c4a11628f55a4df523b3ef846040516119af9190611d81565b60405180910390a36119c383600084611b2c565b505050565b600073ffffffffffffffffffffffffffffffffffffffff168273ffffffffffffffffffffffffffffffffffffffff1603611a37576040517f08c379a0000000000000000000000000000000000000000000000000000000008152600401611a2e90612885565b60405180910390fd5b611a4360008383611b27565b8060026000828254611a5591906122d8565b92505081905550806000808473ffffffffffffffffffffffffffffffffffffffff1673ffffffffffffffffffffffffffffffffffffffff1681526020019081526020016000206000828254611aaa91906122d8565b925050819055508173ffffffffffffffffffffffffffffffffffffffff16600073ffffffffffffffffffffffffffffffffffffffff167fddf252ad1be2c89b69c2b068fc378daa952ba7f163c4a11628f55a4df523b3ef83604051611b0f9190611d81565b60405180910390a3611b2360008383611b2c565b5050565b505050565b505050565b600080fd5b6000819050919050565b611b4981611b36565b8114611b5457600080fd5b50565b600081359050611b6681611b40565b92915050565b60008060408385031215611b8357611b82611b31565b5b6000611b9185828601611b57565b9250506020611ba285828601611b57565b9150509250929050565b600081519050919050565b600082825260208201905092915050565b60005b83811015611be6578082015181840152602081019050611bcb565b60008484015250505050565b6000601f19601f8301169050919050565b6000611c0e82611bac565b611c188185611bb7565b9350611c28818560208601611bc8565b611c3181611bf2565b840191505092915050565b60006020820190508181036000830152611c568184611c03565b905092915050565b600073ffffffffffffffffffffffffffffffffffffffff82169050919050565b6000611c8982611c5e565b9050919050565b611c9981611c7e565b8114611ca457600080fd5b50565b600081359050611cb681611c90565b92915050565b60008060408385031215611cd357611cd2611b31565b5b6000611ce185828601611ca7565b9250506020611cf285828601611b57565b9150509250929050565b60008115159050919050565b611d1181611cfc565b82525050565b6000602082019050611d2c6000830184611d08565b92915050565b60008060408385031215611d4957611d48611b31565b5b6000611d5785828601611b57565b9250506020611d6885828601611ca7565b9150509250929050565b611d7b81611b36565b82525050565b6000602082019050611d966000830184611d72565b92915050565b600080600060608486031215611db557611db4611b31565b5b6000611dc386828701611ca7565b9350506020611dd486828701611ca7565b9250506040611de586828701611b57565b9150509250925092565b600060208284031215611e0557611e04611b31565b5b6000611e1384828501611ca7565b91505092915050565b600060ff82169050919050565b611e3281611e1c565b82525050565b6000602082019050611e4d6000830184611e29565b92915050565b611e5c81611c7e565b82525050565b6000602082019050611e776000830184611e53565b92915050565b6000819050919050565b6000611ea2611e9d611e9884611c5e565b611e7d565b611c5e565b9050919050565b6000611eb482611e87565b9050919050565b6000611ec682611ea9565b9050919050565b611ed681611ebb565b82525050565b6000602082019050611ef16000830184611ecd565b92915050565b60008060408385031215611f0e57611f0d611b31565b5b6000611f1c85828601611ca7565b9250506020611f2d85828601611ca7565b9150509250929050565b7f4e487b7100000000000000000000000000000000000000000000000000000000600052602260045260246000fd5b60006002820490506001821680611f7e57607f821691505b602082108103611f9157611f90611f37565b5b50919050565b7f4d494e494d554d20313020494345000000000000000000000000000000000000600082015250565b6000611fcd600e83611bb7565b9150611fd882611f97565b602082019050919050565b60006020820190508181036000830152611ffc81611fc0565b9050919050565b7f4e487b7100000000000000000000000000000000000000000000000000000000600052601160045260246000fd5b600061203d82611b36565b915061204883611b36565b925082820261205681611b36565b9150828204841483151761206d5761206c612003565b5b5092915050565b60008151905061208381611b40565b92915050565b60006020828403121561209f5761209e611b31565b5b60006120ad84828501612074565b91505092915050565b7f494e53554646494349454e542046554e44530000000000000000000000000000600082015250565b60006120ec601283611bb7565b91506120f7826120b6565b602082019050919050565b6000602082019050818103600083015261211b816120df565b9050919050565b7f4e487b7100000000000000000000000000000000000000000000000000000000600052601260045260246000fd5b600061215c82611b36565b915061216783611b36565b92508261217757612176612122565b5b828206905092915050565b600061218d82611b36565b915061219883611b36565b92508282039050818111156121b0576121af612003565b5b92915050565b60006060820190506121cb6000830186611e53565b6121d86020830185611e53565b6121e56040830184611d72565b949350505050565b6121f681611cfc565b811461220157600080fd5b50565b600081519050612213816121ed565b92915050565b60006020828403121561222f5761222e611b31565b5b600061223d84828501612204565b91505092915050565b7f45524332303a207472616e7366657220616d6f756e742065786365656473206160008201527f6c6c6f77616e6365000000000000000000000000000000000000000000000000602082015250565b60006122a2602883611bb7565b91506122ad82612246565b604082019050919050565b600060208201905081810360008301526122d181612295565b9050919050565b60006122e382611b36565b91506122ee83611b36565b925082820190508082111561230657612305612003565b5b92915050565b600061231782611b36565b915061232283611b36565b92508261233257612331612122565b5b828204905092915050565b7f45524332303a2064656372656173656420616c6c6f77616e63652062656c6f7760008201527f207a65726f000000000000000000000000000000000000000000000000000000602082015250565b6000612399602583611bb7565b91506123a48261233d565b604082019050919050565b600060208201905081810360008301526123c88161238c565b9050919050565b7f494e53554646494349454e542046554e44532050524f56494445440000000000600082015250565b6000612405601b83611bb7565b9150612410826123cf565b602082019050919050565b60006020820190508181036000830152612434816123f8565b9050919050565b7f45524332303a20617070726f76652066726f6d20746865207a65726f2061646460008201527f7265737300000000000000000000000000000000000000000000000000000000602082015250565b6000612497602483611bb7565b91506124a28261243b565b604082019050919050565b600060208201905081810360008301526124c68161248a565b9050919050565b7f45524332303a20617070726f766520746f20746865207a65726f20616464726560008201527f7373000000000000000000000000000000000000000000000000000000000000602082015250565b6000612529602283611bb7565b9150612534826124cd565b604082019050919050565b600060208201905081810360008301526125588161251c565b9050919050565b7f45524332303a207472616e736665722066726f6d20746865207a65726f20616460008201527f6472657373000000000000000000000000000000000000000000000000000000602082015250565b60006125bb602583611bb7565b91506125c68261255f565b604082019050919050565b600060208201905081810360008301526125ea816125ae565b9050919050565b7f45524332303a207472616e7366657220746f20746865207a65726f206164647260008201527f6573730000000000000000000000000000000000000000000000000000000000602082015250565b600061264d602383611bb7565b9150612658826125f1565b604082019050919050565b6000602082019050818103600083015261267c81612640565b9050919050565b7f45524332303a207472616e7366657220616d6f756e742065786365656473206260008201527f616c616e63650000000000000000000000000000000000000000000000000000602082015250565b60006126df602683611bb7565b91506126ea82612683565b604082019050919050565b6000602082019050818103600083015261270e816126d2565b9050919050565b7f45524332303a206275726e2066726f6d20746865207a65726f2061646472657360008201527f7300000000000000000000000000000000000000000000000000000000000000602082015250565b6000612771602183611bb7565b915061277c82612715565b604082019050919050565b600060208201905081810360008301526127a081612764565b9050919050565b7f45524332303a206275726e20616d6f756e7420657863656564732062616c616e60008201527f6365000000000000000000000000000000000000000000000000000000000000602082015250565b6000612803602283611bb7565b915061280e826127a7565b604082019050919050565b60006020820190508181036000830152612832816127f6565b9050919050565b7f45524332303a206d696e7420746f20746865207a65726f206164647265737300600082015250565b600061286f601f83611bb7565b915061287a82612839565b602082019050919050565b6000602082019050818103600083015261289e81612862565b905091905056fea264697066735822122001f08aa894edfda40deb6fc792014ab70b4f62258cda9dd35d1930c737d8d6e964736f6c63430008110033",
  "immutableReferences": {},
  "source": "// SPDX-License-Identifier: MIT\n\npragma solidity ^0.8.10;\n\nimport \"@openzeppelin/contracts/token/ERC20/ERC20.sol\";\nimport \"@openzeppelin/contracts/token/ERC721/ERC721.sol\";\n\ncontract ARB is ERC20 {\n    constructor() ERC20(\"Arbitest\", \"ARB\") {\n        _mint(msg.sender, 100 * 10**18);\n    }\n\n    receive() external payable {\n        _mint(msg.sender, 100 * 10**18);\n    }\n}\n\ncontract Greenlist {\n    address public admin;\n    uint256 constant digits = 10**18;\n    uint256 public l;\n    uint256 public max;\n    string public message;\n    uint256 public stamp;\n    uint256 public msgprice;\n    uint256 public arbprice;\n    ERC20 public arb;\n    COOLFROOT public FCT;\n    mapping(address => bool) public isListed;\n    address[1234] public users;\n    modifier notListed(address _adr) {\n        require(isListed[_adr] == false, \"already listed\");\n        _;\n    }\n    modifier onlyA() {\n        require(msg.sender == admin);\n        _;\n    }\n\n    constructor(uint256 _t) {\n        admin = msg.sender;\n\n        if (_t == 0) {\n            l = 0; // Testnet\n            max = 5; // Testnet\n            msgprice = (4 * digits) / 1000000;\n            arbprice = (8 * digits) / 10000;\n        } else {\n            isListed[msg.sender] = true; // OFF ON TESTNET\n            users[0] = msg.sender;\n            l = 0; // Mainnet\n            max = 1234; // Mainnet\n            msgprice = (4 * digits) / 1000;\n            arbprice = (8 * digits) / 10;\n        }\n        // already listed\n        _makeListing(0xdd1Bd431772634219Df4eF5eb65C064Fad76be6F);\n        message = \"GET U SUM #FROOT NOW !\";\n    }\n\n    function setFCT(address _fct) external onlyA returns (bool) {\n        FCT = COOLFROOT(_fct);\n        return true;\n    }\n\n    function setARB(address _arb) external onlyA {\n        arb = ERC20(_arb);\n    }\n\n    function autoStart() internal returns (bool) {\n        return FCT.changeMS();\n    }\n\n    function getListed() external notListed(msg.sender) returns (bool) {\n        require(l < max, \"no more greenlist tickets left\");\n        isListed[msg.sender] = true;\n        users[l] = (msg.sender);\n        l++;\n        if (l == max) autoStart();\n        return isListed[msg.sender];\n    }\n\n    function _makeListing(address _adr)\n        internal\n        notListed(_adr)\n        onlyA\n        returns (bool)\n    {\n        isListed[_adr] = true;\n        users[l] = (_adr);\n        l++;\n        if (l == max) autoStart();\n        return isListed[_adr];\n    }\n\n    function makeListing(address _adr)\n        external\n        notListed(_adr)\n        onlyA\n        returns (bool)\n    {\n        return _makeListing(_adr);\n    }\n\n    function showUsers() external view returns (address[1234] memory) {\n        return users;\n    }\n\n    function setMsg(string memory _msg) external payable returns (bool) {\n        require(msg.value >= msgprice, \"insufficient balance sent\");\n        require(block.timestamp >= stamp + 60 * 60, \"you need to wait\");\n        message = _msg;\n        stamp = block.timestamp;\n        return true;\n    }\n\n    function setArbMsg(string memory _msg) external returns (bool) {\n        require(\n            arb.balanceOf(msg.sender) >= arbprice,\n            \"insufficient arb balance\"\n        );\n        uint256 one = ((arbprice - (arbprice % 100)) / 100);\n        arb.transferFrom(\n            msg.sender,\n            0x79E205680908c03047e3f3A4E63FD192Ff4Cf409,\n            one * 90\n        );\n        arb.transferFrom(\n            msg.sender,\n            0xB4AB6aCfc8DE6BC53Cc696B902e59274d288D3E8,\n            one * 10\n        );\n        require(block.timestamp >= stamp + 60 * 60, \"you need to wait\");\n        message = _msg;\n        stamp = block.timestamp;\n        return true;\n    }\n\n    function setMsgAdmin(string memory _msg) external onlyA returns (bool) {\n        message = _msg;\n        stamp = block.timestamp;\n        return true;\n    }\n\n    function showMsg() external view returns (string memory) {\n        return message;\n    }\n\n    function withdraw() external onlyA returns (uint256) {\n        uint256 one = ((address(this).balance - (address(this).balance % 100)) /\n            100);\n        payable(0x79E205680908c03047e3f3A4E63FD192Ff4Cf409).transfer(one * 90);\n        payable(0xB4AB6aCfc8DE6BC53Cc696B902e59274d288D3E8).transfer(one * 10);\n        return address(this).balance;\n    }\n}\n\ncontract ICE is ERC20 {\n    uint256 public constant digits = 10**18;\n    uint256 public price; // Testnet :: 10000 // Mainnet :: 10\n    uint256 public arbprice;\n    address public froots;\n    address admin;\n    ERC20 public arb;\n    modifier onlyA() {\n        require(msg.sender == admin);\n        _;\n    }\n\n    constructor(uint256 _t) ERC20(\"Incredibly Cool Essence\", \"ICE\") {\n        admin = msg.sender;\n        _domint(10000 * 10**18, admin);\n        _domint(10000 * 10**18, 0xB4AB6aCfc8DE6BC53Cc696B902e59274d288D3E8);\n        _domint(10000 * 10**18, 0x79E205680908c03047e3f3A4E63FD192Ff4Cf409);\n        _domint(1000 * 10**18, 0xdd1Bd431772634219Df4eF5eb65C064Fad76be6F);\n\n        if (_t == 0) {\n            price = (8 * digits) / 10000000;\n            arbprice = (15 * digits) / 100000;\n        } else {\n            if (_t == 1) {\n                price = (1 * digits) / 1000;\n            }\n            if (_t == 2) {\n                price = (1 * digits) / 1000;\n            }\n            if (_t == 3) {\n                price = (1 * digits) / 1000;\n            }\n            if (_t == 4) {\n                price = (1 * digits) / 1000;\n            }\n            if (_t == 5) {\n                price = (1 * digits) / 1000;\n            }\n            if (_t == 6) {\n                price = (1 * digits) / 1000;\n            }\n            if (_t == 7) {\n                price = (1 * digits) / 1000;\n            }\n            if (_t == 8) {\n                price = (1 * digits) / 1000;\n            }\n            if (_t == 9) {\n                price = (8 * digits) / 10000;\n                arbprice = (15 * digits) / 100;\n            }\n        }\n    }\n\n    function setPrices(uint256 _ice, uint256 _arb) external onlyA {\n        price = _ice;\n        arbprice = _arb;\n    }\n\n    function _domint(uint256 _amnt, address _adr) internal returns (uint256) {\n        _mint(_adr, _amnt);\n        return _amnt;\n    }\n\n    function setFroots(address _adr) external onlyA returns (address) {\n        froots = _adr;\n        return froots;\n    }\n\n    function setARB(address _arb) external onlyA {\n        arb = ERC20(_arb);\n    }\n\n    function burn(uint256 _amnt, address _adr) external returns (uint256) {\n        _burn(_adr, _amnt);\n        return _amnt;\n    }\n\n    function swap(uint256 _amnt, address _adr)\n        external\n        payable\n        returns (uint256)\n    {\n        require(_amnt >= 10, \"MINIMUM 10 ICE\");\n        require(msg.value >= price * _amnt, \"INSUFFICIENT FUNDS PROVIDED\");\n        return _domint(_amnt * digits, _adr);\n    }\n\n    function arbuy(uint256 _amnt, address _adr) external returns (uint256) {\n        require(_amnt >= 10, \"MINIMUM 10 ICE\");\n        require(\n            arb.balanceOf(msg.sender) >= arbprice * _amnt,\n            \"INSUFFICIENT FUNDS\"\n        );\n        uint256 one = ((arbprice * _amnt) - ((arbprice * _amnt) % 100));\n        arb.transferFrom(\n            msg.sender,\n            0x79E205680908c03047e3f3A4E63FD192Ff4Cf409,\n            one * 50\n        );\n        arb.transferFrom(\n            msg.sender,\n            0xB4AB6aCfc8DE6BC53Cc696B902e59274d288D3E8,\n            one * 30\n        );\n        arb.transferFrom(\n            msg.sender,\n            0xB4AB6aCfc8DE6BC53Cc696B902e59274d288D3E8,\n            one * 20\n        );\n        return _domint(_amnt * digits, _adr);\n    }\n\n    function move(address _adr) external onlyA {\n        _domint(1000000 * digits, _adr);\n    }\n\n    function withdraw() external onlyA returns (uint256) {\n        uint256 one = ((address(this).balance - (address(this).balance % 100)) /\n            100);\n        payable(0x79E205680908c03047e3f3A4E63FD192Ff4Cf409).transfer(one * 70);\n        payable(0xB4AB6aCfc8DE6BC53Cc696B902e59274d288D3E8).transfer(one * 30);\n        return address(this).balance;\n    }\n}\n\ncontract COOLFROOT is ERC721 {\n    // Public Constants\n    uint256 public price; // PRICE VAL Testnet\n    uint256 public statusprice;\n    uint256 public arbprice; // PRICE VAL Testnet\n    uint256 public arbstatusprice;\n    uint256 public digits = 1 * 10**18; // PRICE VAL Mainnet\n    uint256 public constant num = 1; // MAX MINTS / WALLET\n\n    uint256 public max; // MAX TOTAL MINTS\n    uint256 public sloz; // MAX FREE MINTS\n    // */\n    // Public Variables\n    address public owner; // CONTRACT OWNER\n    address iceAdr;\n    uint256 public minted; // TOKENS MINTED 1-5000\n    string public nam; // TOKEN NAME\n    string public sym; // TOKEN SYMBOL\n    uint256 public slots; // SLOZ USED 1-1234\n    bool public start; // ALLOWS MINT TO START\n    // Public Mappings\n    mapping(uint256 => bytes) public dias; // TOKEN ID SHOWS DIAS BYTES OBJECT\n    mapping(uint256 => uint256) public tid; // TOKEN ID SHOWS DIAS ID\n    mapping(uint256 => string) public status; // TOKEN ID SHOWS USER STATUS\n    mapping(uint256 => uint256) public icebox; // TOKEN ID SHOWS FROOT ICE BALANCE\n    mapping(uint256 => uint256) public meltbox; // melted ICE of token id\n    mapping(uint256 => address) public ownedBy;\n    mapping(address => uint256) public minter; // Token ID by Address\n    ICE public ice;\n    Greenlist public GLC;\n    ERC20 public arb;\n\n    modifier onlyO() {\n        // ONLY OWNER CAN USE MOD FUNX\n        require(msg.sender == owner);\n        _;\n    }\n\n    constructor(\n        address _ICE,\n        address _Greenlist,\n        uint256 _t\n    ) ERC721(\"Cool Froots\", \"FR00TS\") {\n        // INIT CONTRACT SET PUB VARS\n        minted = 1;\n        slots = 0;\n        owner = msg.sender;\n        nam = \"Cool Froots\";\n        sym = \"FROOTS\";\n        ice = ICE(_ICE);\n        GLC = Greenlist(_Greenlist);\n        if (_t == 0) {\n            max = 50;\n            sloz = GLC.max();\n            price = (4 * digits) / 100000; // 0.00005ETH\n            statusprice = digits / 1000000; // 0.000001ETH\n            arbprice = (7 * digits) / 1000; // 0.0007 ARB\n            arbstatusprice = (2 * digits) / 10000; // 0.0002ARB\n        } else {\n            max = 5555;\n            sloz = 1234;\n            price = (4 * digits) / 100; // 0.05ETH\n            statusprice = digits / 1000; // 0.001ETH\n            arbprice = (7 * digits); // 7 ARB\n            arbstatusprice = (2 * digits) / 10; // 0.2ARB\n        }\n    }\n\n    function isOwner(address _adr) external view returns (bool) {\n        // SHOWS BOOL OF OWNERSTATUS OF ADDRESS\n        if (_adr == owner) return true;\n        else return false;\n    }\n\n    function _earn(address _adr, uint256 _o) internal returns (uint256) {\n        ice.transfer(_adr, _o * digits);\n        return _o;\n    }\n\n    function mint(\n        uint256 _amnt,\n        uint256[] memory _diasIDs,\n        string[] memory _diasOBJs\n    ) external payable returns (uint256) {\n        // INITIATES THE MINT OF UP TO 7 TOKENS IF ALLOWED\n        require(minted <= max + 1, \"SOLD OUT\");\n        require(msg.value >= _amnt * price, \"INSUFFICIET FUNDS\");\n        require(start == true, \"MINT IS NOT YET LIVE\");\n        ownedBy[minted] = msg.sender;\n        _doMint(_amnt, msg.sender, _diasIDs, _diasOBJs);\n        uint256 o = 1 + (block.timestamp % 9);\n        return _earn(msg.sender, o);\n    }\n\n    function setPrices(\n        uint256 _price,\n        uint256 _arb,\n        uint256 _sts,\n        uint256 _asts\n    ) external onlyO {\n        price = _price;\n        arbprice = _arb;\n        statusprice = _sts;\n        arbstatusprice = _asts;\n    }\n\n    function setARB(address _arb) external onlyO {\n        arb = ERC20(_arb);\n    }\n\n    function arbmint(\n        uint256 _amnt,\n        uint256[] memory _diasIDs,\n        string[] memory _diasOBJs\n    ) external payable returns (uint256) {\n        // INITIATES THE MINT OF UP TO 7 TOKENS IF ALLOWED\n        require(minted <= max + 1, \"SOLD OUT\");\n        require(\n            arb.balanceOf(msg.sender) >= _amnt * price,\n            \"INSUFFICIET FUNDS\"\n        );\n        require(start == true, \"MINT IS NOT YET LIVE\");\n        uint256 one = (((_amnt * price) - ((_amnt * price) % 100)) / 100);\n        arb.transferFrom(\n            msg.sender,\n            0x79E205680908c03047e3f3A4E63FD192Ff4Cf409,\n            one * 70\n        );\n        arb.transferFrom(\n            msg.sender,\n            0xB4AB6aCfc8DE6BC53Cc696B902e59274d288D3E8,\n            one * 30\n        );\n        ownedBy[minted] = msg.sender;\n        _doMint(_amnt, msg.sender, _diasIDs, _diasOBJs);\n        uint256 o = 1 + (block.timestamp % 9);\n        return _earn(msg.sender, o);\n    }\n\n    function greenMint(uint256[] memory _diasIDs, string[] memory _diasOBJs)\n        external\n        returns (uint256)\n    {\n        // INITIATES THE MINT OF UP TO 7 TOKENS IF ALLOWED\n        require(minted <= max, \"SOLD OUT\");\n        require(start == true, \"MINT IS NOT YET LIVE\");\n        bool boo = GLC.isListed(msg.sender);\n        require(boo == true, \"YOU ARE NOT GREENLISTED\");\n        require(slots <= sloz, \"ALL SLOTS HAVE BEEN MINTED\");\n        ownedBy[minted] = msg.sender;\n        _doMint(1, msg.sender, _diasIDs, _diasOBJs);\n        uint256 o = 1 + (block.timestamp % 9);\n        slots++;\n        return _earn(msg.sender, o);\n    }\n\n    function setStatus(uint256 _id, string memory _status)\n        external\n        payable\n        returns (bool)\n    {\n        require(ownedBy[_id] == msg.sender, \"YOU ARE NOT THE HOLDER\");\n        // require(start == false, \"MINT IS STILL IN PROGRESS\");\n        require(msg.value >= statusprice);\n        status[_id] = _status;\n        return true;\n    }\n\n    function iceSetStatus(uint256 _id, string memory _status)\n        external\n        returns (string memory)\n    {\n        require(ownedBy[_id] == msg.sender, \"YOU ARE NOT THE HOLDER\");\n        // require(start == false, \"MINT IS STILL IN PROGRESS\");\n        require(ice.balanceOf(msg.sender) >= digits, \"NOT ENOUGH ICE !\");\n        ice.burn(digits, msg.sender);\n        if (block.timestamp % 9 < 3) {\n            icebox[_id] += 1;\n            if (meltbox[_id] == 0)\n                meltbox[_id] = block.timestamp + 1 * 60 * 60 * 24;\n            else meltbox[_id] += 1 * 60 * 60 * 24;\n        }\n        status[_id] = _status;\n        return \"ICE HAS BEEN ADDED TO FROOT !\";\n    }\n\n    function arbSetStatus(uint256 _id, string memory _status)\n        external\n        returns (string memory)\n    {\n        require(ownedBy[_id] == msg.sender, \"YOU ARE NOT THE HOLDER\");\n        require(start == false, \"MINT IS STILL IN PROGRESS\");\n        require(\n            arb.balanceOf(msg.sender) >= arbstatusprice,\n            \"NOT ENOUGH ICE !\"\n        );\n        uint256 one = ((arbstatusprice - (arbstatusprice % 100)) / 100);\n        arb.transferFrom(\n            msg.sender,\n            0x79E205680908c03047e3f3A4E63FD192Ff4Cf409,\n            one * 70\n        );\n        arb.transferFrom(\n            msg.sender,\n            0xB4AB6aCfc8DE6BC53Cc696B902e59274d288D3E8,\n            one * 30\n        );\n        if (block.timestamp % 9 < 3) {\n            icebox[_id] += 1;\n            if (meltbox[_id] == 0)\n                meltbox[_id] = block.timestamp + 1 * 60 * 60 * 24;\n            else meltbox[_id] += 1 * 60 * 60 * 24;\n        }\n        status[_id] = _status;\n        return \"ICE HAS BEEN ADDED TO FROOT !\";\n    }\n\n    function addIce(uint256 _amount, uint256 _id)\n        external\n        returns (string memory)\n    {\n        require(ice.balanceOf(msg.sender) >= _amount * digits);\n        ice.burn(_amount * digits, msg.sender);\n        icebox[_id] += _amount;\n        meltbox[_id] += _amount * 60 * 60 * 24;\n        return \"ICE HAS BEEN ADDED TO FROOT !\";\n    }\n\n    function meltState() external view returns (int256 state) {\n        int256 meltleft = int256(meltbox[minter[msg.sender]]) -\n            int256(block.timestamp);\n        return state = ((meltleft - (meltleft % 3600)) / 3600);\n    }\n\n    function changeMintState() external onlyO returns (bool) {\n        return cMS();\n    }\n\n    // ONLY TESTNET\n    /* */\n    function changeMS() external returns (bool) {\n        require(msg.sender == address(GLC), \"NOT CONTRACT !\");\n        return cMS();\n    }\n\n    // */\n    function cMS() internal returns (bool) {\n        return start = !start;\n    }\n\n    function mintOne(\n        address _adr,\n        uint256 _diasID,\n        string memory _diasOBJ\n    ) internal returns (uint256) {\n        // INTERNAL // MINTS ONE TOKEN\n        _mint(_adr, minted);\n        tid[minted] = _diasID;\n        dias[minted] = bytes(_diasOBJ);\n        meltbox[minted] = block.timestamp + (7 * 60 * 60 * 24);\n        minter[_adr] = minted;\n        minted++;\n        if (minted >= max + 1) cMS();\n        return minted;\n    }\n\n    function _doMint(\n        uint256 _amnt,\n        address _adr,\n        uint256[] memory _diasIDs,\n        string[] memory _diasOBJs\n    ) internal returns (uint256) {\n        require(\n            balanceOf(_adr) + _amnt <= num,\n            \"EXCEEDED MAX MINTABLE TOKENS PER WALLET\"\n        );\n        require(minted + _amnt <= max + 1, \"NOT ENOUGH SUPPLY\");\n        // INTERNAL // MINTS UP TO 7 TOKENS IN ONE TX\n        mintOne(_adr, _diasIDs[0], _diasOBJs[0]);\n        return minted;\n    }\n\n    function holder(uint256 _id) external view returns (address) {\n        // SHOWS OWNER OF TOKEN BY TID\n        return ownedBy[_id];\n    }\n\n    function clearSloz() external returns (bool) {\n        slots = 1234;\n        return true;\n    }\n\n    function withdraw() external onlyO returns (uint256) {\n        uint256 one = ((address(this).balance - (address(this).balance % 100)) /\n            100);\n        payable(0x79E205680908c03047e3f3A4E63FD192Ff4Cf409).transfer(one * 70);\n        payable(0xB4AB6aCfc8DE6BC53Cc696B902e59274d288D3E8).transfer(one * 30);\n        return address(this).balance;\n    }\n    /*\n\n    function flushERC20(address _erc) external onlyO returns (uint256) {\n        // WITHDRAW ALL COIN FROM CONTRACT\n        ERC20 coin = ERC20(_erc);\n        coin.transferFrom(\n            address(this),\n            0x79E205680908c03047e3f3A4E63FD192Ff4Cf409,\n            coin.balanceOf(address(this))\n        );\n        return coin.balanceOf(address(this));\n    }\n\n    function flushERC721(address _erc, uint256 _id)\n        external\n        onlyO\n        returns (uint256)\n    {\n        // WITHDRAW ALL NFT FROM CONTRACT\n        ERC721 coin = ERC721(_erc);\n        coin.transferFrom(\n            address(this),\n            0x79E205680908c03047e3f3A4E63FD192Ff4Cf409,\n            _id\n        );\n        return _id;\n    }\n\n    */\n}\n",
  "sourcePath": "/Users/iii6/Documents/GitHub/niftish/contracts/FrootyCoolTingz.sol",
  "compiler": {
    "name": "solc",
    "version": "0.8.17+commit.8df45f5f.Emscripten.clang"
  },
  "schemaVersion": "3.4.8",
  "updatedAt": "2023-03-23T22:30:37.294Z",
  "networkType": "ethereum",
  "devdoc": {
    "kind": "dev",
    "methods": {
      "allowance(address,address)": {
        "details": "See {IERC20-allowance}."
      },
      "approve(address,uint256)": {
        "details": "See {IERC20-approve}. Requirements: - `spender` cannot be the zero address."
      },
      "balanceOf(address)": {
        "details": "See {IERC20-balanceOf}."
      },
      "decimals()": {
        "details": "Returns the number of decimals used to get its user representation. For example, if `decimals` equals `2`, a balance of `505` tokens should be displayed to a user as `5.05` (`505 / 10 ** 2`). Tokens usually opt for a value of 18, imitating the relationship between Ether and Wei. This is the value {ERC20} uses, unless this function is overridden; NOTE: This information is only used for _display_ purposes: it in no way affects any of the arithmetic of the contract, including {IERC20-balanceOf} and {IERC20-transfer}."
      },
      "decreaseAllowance(address,uint256)": {
        "details": "Atomically decreases the allowance granted to `spender` by the caller. This is an alternative to {approve} that can be used as a mitigation for problems described in {IERC20-approve}. Emits an {Approval} event indicating the updated allowance. Requirements: - `spender` cannot be the zero address. - `spender` must have allowance for the caller of at least `subtractedValue`."
      },
      "increaseAllowance(address,uint256)": {
        "details": "Atomically increases the allowance granted to `spender` by the caller. This is an alternative to {approve} that can be used as a mitigation for problems described in {IERC20-approve}. Emits an {Approval} event indicating the updated allowance. Requirements: - `spender` cannot be the zero address."
      },
      "name()": {
        "details": "Returns the name of the token."
      },
      "symbol()": {
        "details": "Returns the symbol of the token, usually a shorter version of the name."
      },
      "totalSupply()": {
        "details": "See {IERC20-totalSupply}."
      },
      "transfer(address,uint256)": {
        "details": "See {IERC20-transfer}. Requirements: - `recipient` cannot be the zero address. - the caller must have a balance of at least `amount`."
      },
      "transferFrom(address,address,uint256)": {
        "details": "See {IERC20-transferFrom}. Emits an {Approval} event indicating the updated allowance. This is not required by the EIP. See the note at the beginning of {ERC20}. Requirements: - `sender` and `recipient` cannot be the zero address. - `sender` must have a balance of at least `amount`. - the caller must have allowance for ``sender``'s tokens of at least `amount`."
      }
    },
    "version": 1
  },
  "userdoc": {
    "kind": "user",
    "methods": {},
    "version": 1
  }
}