{
  "contractName": "Market",
  "abi": [
    {
      "inputs": [],
      "stateMutability": "nonpayable",
      "type": "constructor"
    },
    {
      "inputs": [],
      "name": "admin",
      "outputs": [
        {
          "internalType": "address",
          "name": "",
          "type": "address"
        }
      ],
      "stateMutability": "view",
      "type": "function"
    },
    {
      "inputs": [
        {
          "internalType": "address",
          "name": "",
          "type": "address"
        }
      ],
      "name": "myListCount",
      "outputs": [
        {
          "internalType": "uint256",
          "name": "",
          "type": "uint256"
        }
      ],
      "stateMutability": "view",
      "type": "function"
    },
    {
      "inputs": [
        {
          "internalType": "address",
          "name": "",
          "type": "address"
        },
        {
          "internalType": "uint256",
          "name": "",
          "type": "uint256"
        }
      ],
      "name": "myListings",
      "outputs": [
        {
          "internalType": "uint256",
          "name": "id",
          "type": "uint256"
        },
        {
          "internalType": "address",
          "name": "holder",
          "type": "address"
        },
        {
          "internalType": "uint256",
          "name": "tid",
          "type": "uint256"
        },
        {
          "internalType": "uint256",
          "name": "price",
          "type": "uint256"
        },
        {
          "internalType": "uint256",
          "name": "deadline",
          "type": "uint256"
        }
      ],
      "stateMutability": "view",
      "type": "function"
    },
    {
      "inputs": [
        {
          "internalType": "uint256",
          "name": "",
          "type": "uint256"
        }
      ],
      "name": "tid2lc",
      "outputs": [
        {
          "internalType": "uint256",
          "name": "",
          "type": "uint256"
        }
      ],
      "stateMutability": "view",
      "type": "function"
    },
    {
      "inputs": [
        {
          "internalType": "address",
          "name": "_adr",
          "type": "address"
        },
        {
          "internalType": "uint256",
          "name": "_tid",
          "type": "uint256"
        },
        {
          "internalType": "uint256",
          "name": "_price",
          "type": "uint256"
        },
        {
          "internalType": "uint256",
          "name": "_dead",
          "type": "uint256"
        }
      ],
      "name": "makeListing",
      "outputs": [
        {
          "internalType": "bool",
          "name": "",
          "type": "bool"
        }
      ],
      "stateMutability": "nonpayable",
      "type": "function"
    },
    {
      "inputs": [
        {
          "internalType": "address",
          "name": "_adr",
          "type": "address"
        },
        {
          "internalType": "uint256",
          "name": "_tid",
          "type": "uint256"
        }
      ],
      "name": "deleteListing",
      "outputs": [
        {
          "internalType": "bool",
          "name": "",
          "type": "bool"
        }
      ],
      "stateMutability": "nonpayable",
      "type": "function"
    }
  ],
  "bytecode": "0x608060405234801561001057600080fd5b50336000806101000a81548173ffffffffffffffffffffffffffffffffffffffff021916908373ffffffffffffffffffffffffffffffffffffffff160217905550610b88806100606000396000f3fe608060405234801561001057600080fd5b50600436106100625760003560e01c80633a647cf8146100675780634fe5d98514610097578063996c24a8146100c7578063c425a321146100f7578063c6aacbb41461012b578063f851a4401461015b575b600080fd5b610081600480360381019061007c91906107d4565b610179565b60405161008e919061081a565b60405180910390f35b6100b160048036038101906100ac9190610861565b610191565b6040516100be91906108bc565b60405180910390f35b6100e160048036038101906100dc91906108d7565b6103bd565b6040516100ee91906108bc565b60405180910390f35b610111600480360381019061010c9190610861565b6106d2565b60405161012295949392919061094d565b60405180910390f35b610145600480360381019061014091906109a0565b610735565b604051610152919061081a565b60405180910390f35b61016361074d565b60405161017091906109cd565b60405180910390f35b60016020528060005260406000206000915090505481565b600080600360008573ffffffffffffffffffffffffffffffffffffffff1673ffffffffffffffffffffffffffffffffffffffff1681526020019081526020016000206000600260008681526020019081526020016000205481526020019081526020016000206040518060a0016040529081600082015481526020016001820160009054906101000a900473ffffffffffffffffffffffffffffffffffffffff1673ffffffffffffffffffffffffffffffffffffffff1673ffffffffffffffffffffffffffffffffffffffff168152602001600282015481526020016003820154815260200160048201548152505090506000816020019073ffffffffffffffffffffffffffffffffffffffff16908173ffffffffffffffffffffffffffffffffffffffff168152505060008160400181815250506000816060018181525050600081608001818152505080600360008673ffffffffffffffffffffffffffffffffffffffff1673ffffffffffffffffffffffffffffffffffffffff1681526020019081526020016000206000600260008781526020019081526020016000205481526020019081526020016000206000820151816000015560208201518160010160006101000a81548173ffffffffffffffffffffffffffffffffffffffff021916908373ffffffffffffffffffffffffffffffffffffffff160217905550604082015181600201556060820151816003015560808201518160040155905050600191505092915050565b600080600560009054906101000a900473ffffffffffffffffffffffffffffffffffffffff1690508573ffffffffffffffffffffffffffffffffffffffff168173ffffffffffffffffffffffffffffffffffffffff1663ba899a2e876040518263ffffffff1660e01b8152600401610435919061081a565b602060405180830381865afa158015610452573d6000803e3d6000fd5b505050506040513d601f19601f8201168201806040525081019061047691906109fd565b73ffffffffffffffffffffffffffffffffffffffff16146104cc576040517f08c379a00000000000000000000000000000000000000000000000000000000081526004016104c390610a87565b60405180910390fd5b6040518060a0016040528060045481526020018773ffffffffffffffffffffffffffffffffffffffff16815260200186815260200185815260200184426105139190610ad6565b815250600360008873ffffffffffffffffffffffffffffffffffffffff1673ffffffffffffffffffffffffffffffffffffffff1681526020019081526020016000206000600160008a73ffffffffffffffffffffffffffffffffffffffff1673ffffffffffffffffffffffffffffffffffffffff1681526020019081526020016000205481526020019081526020016000206000820151816000015560208201518160010160006101000a81548173ffffffffffffffffffffffffffffffffffffffff021916908373ffffffffffffffffffffffffffffffffffffffff16021790555060408201518160020155606082015181600301556080820151816004015590505060045460026000600160008a73ffffffffffffffffffffffffffffffffffffffff1673ffffffffffffffffffffffffffffffffffffffff16815260200190815260200160002054815260200190815260200160002081905550600160008773ffffffffffffffffffffffffffffffffffffffff1673ffffffffffffffffffffffffffffffffffffffff16815260200190815260200160002060008154809291906106c090610b0a565b91905055506001915050949350505050565b6003602052816000526040600020602052806000526040600020600091509150508060000154908060010160009054906101000a900473ffffffffffffffffffffffffffffffffffffffff16908060020154908060030154908060040154905085565b60026020528060005260406000206000915090505481565b60008054906101000a900473ffffffffffffffffffffffffffffffffffffffff1681565b600080fd5b600073ffffffffffffffffffffffffffffffffffffffff82169050919050565b60006107a182610776565b9050919050565b6107b181610796565b81146107bc57600080fd5b50565b6000813590506107ce816107a8565b92915050565b6000602082840312156107ea576107e9610771565b5b60006107f8848285016107bf565b91505092915050565b6000819050919050565b61081481610801565b82525050565b600060208201905061082f600083018461080b565b92915050565b61083e81610801565b811461084957600080fd5b50565b60008135905061085b81610835565b92915050565b6000806040838503121561087857610877610771565b5b6000610886858286016107bf565b92505060206108978582860161084c565b9150509250929050565b60008115159050919050565b6108b6816108a1565b82525050565b60006020820190506108d160008301846108ad565b92915050565b600080600080608085870312156108f1576108f0610771565b5b60006108ff878288016107bf565b94505060206109108782880161084c565b93505060406109218782880161084c565b92505060606109328782880161084c565b91505092959194509250565b61094781610796565b82525050565b600060a082019050610962600083018861080b565b61096f602083018761093e565b61097c604083018661080b565b610989606083018561080b565b610996608083018461080b565b9695505050505050565b6000602082840312156109b6576109b5610771565b5b60006109c48482850161084c565b91505092915050565b60006020820190506109e2600083018461093e565b92915050565b6000815190506109f7816107a8565b92915050565b600060208284031215610a1357610a12610771565b5b6000610a21848285016109e8565b91505092915050565b600082825260208201905092915050565b7f596f7520617265206e6f7420746865206f776e65722021000000000000000000600082015250565b6000610a71601783610a2a565b9150610a7c82610a3b565b602082019050919050565b60006020820190508181036000830152610aa081610a64565b9050919050565b7f4e487b7100000000000000000000000000000000000000000000000000000000600052601160045260246000fd5b6000610ae182610801565b9150610aec83610801565b9250828201905080821115610b0457610b03610aa7565b5b92915050565b6000610b1582610801565b91507fffffffffffffffffffffffffffffffffffffffffffffffffffffffffffffffff8203610b4757610b46610aa7565b5b60018201905091905056fea2646970667358221220092c7f7471a1e1305aa6b2517b8eafa482b0f0a235e1502690e00cd221247d2e64736f6c63430008100033",
  "immutableReferences": {},
  "source": "// SPDX-License-Identifier: MIT\npragma solidity ^0.8.10;\n\nimport \"@openzeppelin/contracts/token/ERC20/ERC20.sol\";\nimport \"@openzeppelin/contracts/token/ERC721/ERC721.sol\";\nimport \"./ICE.sol\";\nimport \"./FrootyCoolTingz.sol\";\n\ncontract Market {\n    address public admin;\n\n    mapping(address => uint256) public myListCount;\n    mapping(uint256 => uint256) public tid2lc;\n    mapping(address => mapping(uint256 => Listing)) public myListings;\n    uint256 l;\n    address ftcAdr;\n\n    struct Listing {\n        uint256 id;\n        address holder;\n        uint256 tid;\n        uint256 price;\n        uint256 deadline;\n    }\n\n    struct Auction {\n        uint256 id;\n        address holder;\n        uint256 tid;\n        uint256 minprice;\n        uint256 iterSteps;\n        uint256 deadline;\n    }\n\n    struct Offer {\n        uint256 id;\n        address holder;\n        uint256 tid;\n        address buyer;\n        uint256 price;\n        uint256 deadline;\n    }\n    struct AuctionOffer {\n        uint256 id;\n        address holder;\n        uint256 tid;\n        address buyer;\n        uint256 price;\n        uint256 deadline;\n    }\n    struct DedicatedListing {\n        uint256 id;\n        address holder;\n        uint256 tid;\n        address buyer;\n        uint256 price;\n        uint256 deadline;\n    }\n\n    constructor() {\n        admin = msg.sender;\n    }\n\n    function makeListing(\n        address _adr,\n        uint256 _tid,\n        uint256 _price,\n        uint256 _dead\n    ) external returns (bool) {\n        FrootyCoolTingz FCT = FrootyCoolTingz(ftcAdr);\n        require(FCT.holder(_tid) == _adr, \"You are not the owner !\");\n        myListings[_adr][myListCount[_adr]] = Listing(\n            l,\n            _adr,\n            _tid,\n            _price,\n            block.timestamp + _dead\n        );\n        tid2lc[myListCount[_adr]] = l;\n        myListCount[_adr]++;\n        return true;\n    }\n\n    function deleteListing(address _adr, uint256 _tid) external returns (bool) {\n        Listing memory thisList = myListings[_adr][tid2lc[_tid]];\n        thisList.holder = 0x0000000000000000000000000000000000000000;\n        thisList.tid = 0;\n        thisList.price = 0;\n        thisList.deadline = 0;\n        myListings[_adr][tid2lc[_tid]] = thisList;\n        return true;\n    }\n}\n",
  "sourcePath": "/Users/iii6/Documents/GitHub/niftish/contracts/Market.sol",
  "compiler": {
    "name": "solc",
    "version": "0.8.16+commit.07a7930e.Emscripten.clang"
  },
  "schemaVersion": "3.4.8",
  "updatedAt": "2022-09-19T16:11:59.496Z",
  "devdoc": {
    "kind": "dev",
    "methods": {},
    "version": 1
  },
  "userdoc": {
    "kind": "user",
    "methods": {},
    "version": 1
  }
}