{
  "contractName": "Market",
  "abi": [
    {
      "inputs": [
        {
          "internalType": "address",
          "name": "_FCT",
          "type": "address"
        },
        {
          "internalType": "address",
          "name": "_ICE",
          "type": "address"
        },
        {
          "internalType": "address",
          "name": "_GL",
          "type": "address"
        },
        {
          "internalType": "uint256",
          "name": "_t",
          "type": "uint256"
        }
      ],
      "stateMutability": "nonpayable",
      "type": "constructor"
    },
    {
      "inputs": [],
      "name": "admin",
      "outputs": [
        {
          "internalType": "address",
          "name": "",
          "type": "address"
        }
      ],
      "stateMutability": "view",
      "type": "function",
      "constant": true
    },
    {
      "inputs": [],
      "name": "fct",
      "outputs": [
        {
          "internalType": "contract COOLFROOT",
          "name": "",
          "type": "address"
        }
      ],
      "stateMutability": "view",
      "type": "function",
      "constant": true
    },
    {
      "inputs": [],
      "name": "fee",
      "outputs": [
        {
          "internalType": "uint256",
          "name": "",
          "type": "uint256"
        }
      ],
      "stateMutability": "view",
      "type": "function",
      "constant": true
    },
    {
      "inputs": [],
      "name": "gl",
      "outputs": [
        {
          "internalType": "contract Greenlist",
          "name": "",
          "type": "address"
        }
      ],
      "stateMutability": "view",
      "type": "function",
      "constant": true
    },
    {
      "inputs": [],
      "name": "ice",
      "outputs": [
        {
          "internalType": "contract ICE",
          "name": "",
          "type": "address"
        }
      ],
      "stateMutability": "view",
      "type": "function",
      "constant": true
    },
    {
      "inputs": [
        {
          "internalType": "address",
          "name": "",
          "type": "address"
        }
      ],
      "name": "myListCount",
      "outputs": [
        {
          "internalType": "uint256",
          "name": "",
          "type": "uint256"
        }
      ],
      "stateMutability": "view",
      "type": "function",
      "constant": true
    },
    {
      "inputs": [
        {
          "internalType": "address",
          "name": "",
          "type": "address"
        },
        {
          "internalType": "uint256",
          "name": "",
          "type": "uint256"
        }
      ],
      "name": "myListings",
      "outputs": [
        {
          "internalType": "uint256",
          "name": "id",
          "type": "uint256"
        },
        {
          "internalType": "address",
          "name": "holder",
          "type": "address"
        },
        {
          "internalType": "uint256",
          "name": "tid",
          "type": "uint256"
        },
        {
          "internalType": "uint256",
          "name": "price",
          "type": "uint256"
        },
        {
          "internalType": "uint256",
          "name": "deadline",
          "type": "uint256"
        }
      ],
      "stateMutability": "view",
      "type": "function",
      "constant": true
    },
    {
      "inputs": [],
      "name": "roy",
      "outputs": [
        {
          "internalType": "uint256",
          "name": "",
          "type": "uint256"
        }
      ],
      "stateMutability": "view",
      "type": "function",
      "constant": true
    },
    {
      "inputs": [
        {
          "internalType": "uint256",
          "name": "",
          "type": "uint256"
        }
      ],
      "name": "tid2lc",
      "outputs": [
        {
          "internalType": "uint256",
          "name": "",
          "type": "uint256"
        }
      ],
      "stateMutability": "view",
      "type": "function",
      "constant": true
    },
    {
      "inputs": [
        {
          "internalType": "address",
          "name": "_adr",
          "type": "address"
        },
        {
          "internalType": "uint256",
          "name": "_tid",
          "type": "uint256"
        },
        {
          "internalType": "uint256",
          "name": "_price",
          "type": "uint256"
        },
        {
          "internalType": "uint256",
          "name": "_dead",
          "type": "uint256"
        }
      ],
      "name": "makeListing",
      "outputs": [
        {
          "internalType": "bool",
          "name": "",
          "type": "bool"
        }
      ],
      "stateMutability": "nonpayable",
      "type": "function"
    },
    {
      "inputs": [
        {
          "internalType": "address",
          "name": "_adr",
          "type": "address"
        },
        {
          "internalType": "uint256",
          "name": "_tid",
          "type": "uint256"
        }
      ],
      "name": "deleteListing",
      "outputs": [
        {
          "internalType": "bool",
          "name": "",
          "type": "bool"
        }
      ],
      "stateMutability": "nonpayable",
      "type": "function"
    }
  ],
  "bytecode": "0x60806040523480156200001157600080fd5b506040516200112b3803806200112b8339818101604052810190620000379190620002d9565b336000806101000a81548173ffffffffffffffffffffffffffffffffffffffff021916908373ffffffffffffffffffffffffffffffffffffffff16021790555083600560006101000a81548173ffffffffffffffffffffffffffffffffffffffff021916908373ffffffffffffffffffffffffffffffffffffffff16021790555082600660006101000a81548173ffffffffffffffffffffffffffffffffffffffff021916908373ffffffffffffffffffffffffffffffffffffffff16021790555081600760006101000a81548173ffffffffffffffffffffffffffffffffffffffff021916908373ffffffffffffffffffffffffffffffffffffffff160217905550600081036200015957600560088190555060006009819055506200022a565b600181036200017357600560088190555060016009819055505b600281036200018d57600560088190555060016009819055505b60038103620001a757600560088190555060016009819055505b60048103620001c157600560088190555060016009819055505b60058103620001db57600560088190555060016009819055505b60068103620001f557600560088190555060016009819055505b600781036200020f57600560088190555060016009819055505b600881036200022957600560088190555060016009819055505b5b505050506200034b565b600080fd5b600073ffffffffffffffffffffffffffffffffffffffff82169050919050565b6000620002668262000239565b9050919050565b620002788162000259565b81146200028457600080fd5b50565b60008151905062000298816200026d565b92915050565b6000819050919050565b620002b3816200029e565b8114620002bf57600080fd5b50565b600081519050620002d381620002a8565b92915050565b60008060008060808587031215620002f657620002f562000234565b5b6000620003068782880162000287565b9450506020620003198782880162000287565b93505060406200032c8782880162000287565b92505060606200033f87828801620002c2565b91505092959194509250565b610dd0806200035b6000396000f3fe608060405234801561001057600080fd5b50600436106100a95760003560e01c8063a77a394911610071578063a77a39491461017a578063b75c8c4b14610198578063c425a321146101b6578063c6aacbb4146101ea578063ddca3f431461021a578063f851a44014610238576100a9565b80633a647cf8146100ae5780634c2a860d146100de5780634fe5d985146100fc578063940b54a81461012c578063996c24a81461014a575b600080fd5b6100c860048036038101906100c3919061092a565b610256565b6040516100d59190610970565b60405180910390f35b6100e661026e565b6040516100f391906109ea565b60405180910390f35b61011660048036038101906101119190610a31565b610294565b6040516101239190610a8c565b60405180910390f35b6101346104c0565b6040516101419190610970565b60405180910390f35b610164600480360381019061015f9190610aa7565b6104c6565b6040516101719190610a8c565b60405180910390f35b6101826107d6565b60405161018f9190610b2f565b60405180910390f35b6101a06107fc565b6040516101ad9190610b6b565b60405180910390f35b6101d060048036038101906101cb9190610a31565b610822565b6040516101e1959493929190610b95565b60405180910390f35b61020460048036038101906101ff9190610be8565b610885565b6040516102119190610970565b60405180910390f35b61022261089d565b60405161022f9190610970565b60405180910390f35b6102406108a3565b60405161024d9190610c15565b60405180910390f35b60016020528060005260406000206000915090505481565b600660009054906101000a900473ffffffffffffffffffffffffffffffffffffffff1681565b600080600360008573ffffffffffffffffffffffffffffffffffffffff1673ffffffffffffffffffffffffffffffffffffffff1681526020019081526020016000206000600260008681526020019081526020016000205481526020019081526020016000206040518060a0016040529081600082015481526020016001820160009054906101000a900473ffffffffffffffffffffffffffffffffffffffff1673ffffffffffffffffffffffffffffffffffffffff1673ffffffffffffffffffffffffffffffffffffffff168152602001600282015481526020016003820154815260200160048201548152505090506000816020019073ffffffffffffffffffffffffffffffffffffffff16908173ffffffffffffffffffffffffffffffffffffffff168152505060008160400181815250506000816060018181525050600081608001818152505080600360008673ffffffffffffffffffffffffffffffffffffffff1673ffffffffffffffffffffffffffffffffffffffff1681526020019081526020016000206000600260008781526020019081526020016000205481526020019081526020016000206000820151816000015560208201518160010160006101000a81548173ffffffffffffffffffffffffffffffffffffffff021916908373ffffffffffffffffffffffffffffffffffffffff160217905550604082015181600201556060820151816003015560808201518160040155905050600191505092915050565b60085481565b60008473ffffffffffffffffffffffffffffffffffffffff16600560009054906101000a900473ffffffffffffffffffffffffffffffffffffffff1673ffffffffffffffffffffffffffffffffffffffff1663ba899a2e866040518263ffffffff1660e01b815260040161053a9190610970565b602060405180830381865afa158015610557573d6000803e3d6000fd5b505050506040513d601f19601f8201168201806040525081019061057b9190610c45565b73ffffffffffffffffffffffffffffffffffffffff16146105d1576040517f08c379a00000000000000000000000000000000000000000000000000000000081526004016105c890610ccf565b60405180910390fd5b6040518060a0016040528060045481526020018673ffffffffffffffffffffffffffffffffffffffff16815260200185815260200184815260200183426106189190610d1e565b815250600360008773ffffffffffffffffffffffffffffffffffffffff1673ffffffffffffffffffffffffffffffffffffffff1681526020019081526020016000206000600160008973ffffffffffffffffffffffffffffffffffffffff1673ffffffffffffffffffffffffffffffffffffffff1681526020019081526020016000205481526020019081526020016000206000820151816000015560208201518160010160006101000a81548173ffffffffffffffffffffffffffffffffffffffff021916908373ffffffffffffffffffffffffffffffffffffffff16021790555060408201518160020155606082015181600301556080820151816004015590505060045460026000600160008973ffffffffffffffffffffffffffffffffffffffff1673ffffffffffffffffffffffffffffffffffffffff16815260200190815260200160002054815260200190815260200160002081905550600160008673ffffffffffffffffffffffffffffffffffffffff1673ffffffffffffffffffffffffffffffffffffffff16815260200190815260200160002060008154809291906107c590610d52565b919050555060019050949350505050565b600760009054906101000a900473ffffffffffffffffffffffffffffffffffffffff1681565b600560009054906101000a900473ffffffffffffffffffffffffffffffffffffffff1681565b6003602052816000526040600020602052806000526040600020600091509150508060000154908060010160009054906101000a900473ffffffffffffffffffffffffffffffffffffffff16908060020154908060030154908060040154905085565b60026020528060005260406000206000915090505481565b60095481565b60008054906101000a900473ffffffffffffffffffffffffffffffffffffffff1681565b600080fd5b600073ffffffffffffffffffffffffffffffffffffffff82169050919050565b60006108f7826108cc565b9050919050565b610907816108ec565b811461091257600080fd5b50565b600081359050610924816108fe565b92915050565b6000602082840312156109405761093f6108c7565b5b600061094e84828501610915565b91505092915050565b6000819050919050565b61096a81610957565b82525050565b60006020820190506109856000830184610961565b92915050565b6000819050919050565b60006109b06109ab6109a6846108cc565b61098b565b6108cc565b9050919050565b60006109c282610995565b9050919050565b60006109d4826109b7565b9050919050565b6109e4816109c9565b82525050565b60006020820190506109ff60008301846109db565b92915050565b610a0e81610957565b8114610a1957600080fd5b50565b600081359050610a2b81610a05565b92915050565b60008060408385031215610a4857610a476108c7565b5b6000610a5685828601610915565b9250506020610a6785828601610a1c565b9150509250929050565b60008115159050919050565b610a8681610a71565b82525050565b6000602082019050610aa16000830184610a7d565b92915050565b60008060008060808587031215610ac157610ac06108c7565b5b6000610acf87828801610915565b9450506020610ae087828801610a1c565b9350506040610af187828801610a1c565b9250506060610b0287828801610a1c565b91505092959194509250565b6000610b19826109b7565b9050919050565b610b2981610b0e565b82525050565b6000602082019050610b446000830184610b20565b92915050565b6000610b55826109b7565b9050919050565b610b6581610b4a565b82525050565b6000602082019050610b806000830184610b5c565b92915050565b610b8f816108ec565b82525050565b600060a082019050610baa6000830188610961565b610bb76020830187610b86565b610bc46040830186610961565b610bd16060830185610961565b610bde6080830184610961565b9695505050505050565b600060208284031215610bfe57610bfd6108c7565b5b6000610c0c84828501610a1c565b91505092915050565b6000602082019050610c2a6000830184610b86565b92915050565b600081519050610c3f816108fe565b92915050565b600060208284031215610c5b57610c5a6108c7565b5b6000610c6984828501610c30565b91505092915050565b600082825260208201905092915050565b7f596f7520617265206e6f7420746865206f776e65722021000000000000000000600082015250565b6000610cb9601783610c72565b9150610cc482610c83565b602082019050919050565b60006020820190508181036000830152610ce881610cac565b9050919050565b7f4e487b7100000000000000000000000000000000000000000000000000000000600052601160045260246000fd5b6000610d2982610957565b9150610d3483610957565b9250828201905080821115610d4c57610d4b610cef565b5b92915050565b6000610d5d82610957565b91507fffffffffffffffffffffffffffffffffffffffffffffffffffffffffffffffff8203610d8f57610d8e610cef565b5b60018201905091905056fea2646970667358221220a778ce4458e1c97f86e2df984982be46ad307937cec6ff4099d047f49834effe64736f6c63430008110033",
  "immutableReferences": {},
  "source": "// SPDX-License-Identifier: MIT\npragma solidity ^0.8.10;\n\nimport \"@openzeppelin/contracts/token/ERC20/ERC20.sol\";\nimport \"@openzeppelin/contracts/token/ERC721/ERC721.sol\";\nimport \"./FrootyCoolTingz.sol\";\n\ncontract Market {\n    address public admin; // CONTRACT OWNER\n\n    mapping(address => uint256) public myListCount; // LISTING COUNT FOR USER\n    mapping(uint256 => uint256) public tid2lc; // TAKES Token Id and returns ListCount\n    mapping(address => mapping(uint256 => Listing)) public myListings; // LISTINGS OF USER\n    uint256 l; // NUMBER OF LISTINGS\n    COOLFROOT public fct; // FROOT ADDRESS\n    ICE public ice;\n    Greenlist public gl;\n    uint256 public roy;\n    uint256 public fee;\n\n    struct Listing {\n        // STRUCT FOR SALES LISTINGS\n        uint256 id;\n        address holder;\n        uint256 tid;\n        uint256 price;\n        uint256 deadline;\n    }\n\n    struct Auction {\n        // STRUCT FOR AUCTION LISTINGS\n        uint256 id;\n        address holder;\n        uint256 tid;\n        uint256 minprice;\n        uint256 iterSteps;\n        uint256 deadline;\n    }\n\n    struct Offer {\n        // STRUCT FOR OFFERS\n        uint256 id;\n        address holder;\n        uint256 tid;\n        address buyer;\n        uint256 price;\n        uint256 deadline;\n    }\n    struct AuctionOffer {\n        // STRUCT FOR AUCTION OFFERS\n        uint256 id;\n        address holder;\n        uint256 tid;\n        address buyer;\n        uint256 price;\n        uint256 deadline;\n    }\n    struct DedicatedListing {\n        // STRUCT FOR DEDICATED LISTING\n        uint256 id;\n        address holder;\n        uint256 tid;\n        address buyer;\n        uint256 price;\n        uint256 deadline;\n    }\n\n    constructor(\n        address _FCT,\n        address _ICE,\n        address _GL,\n        uint256 _t\n    ) {\n        admin = msg.sender;\n        fct = COOLFROOT(_FCT);\n        ice = ICE(_ICE);\n        gl = Greenlist(_GL);\n        if (_t == 0) {\n            roy = 5;\n            fee = 0;\n        } else {\n            if (_t == 1) {\n                roy = 5;\n                fee = 1;\n            }\n            if (_t == 2) {\n                roy = 5;\n                fee = 1;\n            }\n            if (_t == 3) {\n                roy = 5;\n                fee = 1;\n            }\n            if (_t == 4) {\n                roy = 5;\n                fee = 1;\n            }\n            if (_t == 5) {\n                roy = 5;\n                fee = 1;\n            }\n            if (_t == 6) {\n                roy = 5;\n                fee = 1;\n            }\n            if (_t == 7) {\n                roy = 5;\n                fee = 1;\n            }\n            if (_t == 8) {\n                roy = 5;\n                fee = 1;\n            }\n        }\n    }\n\n    function makeListing(\n        address _adr,\n        uint256 _tid,\n        uint256 _price,\n        uint256 _dead\n    ) external returns (bool) {\n        // MAKE A LISTING\n        require(fct.holder(_tid) == _adr, \"You are not the owner !\");\n        myListings[_adr][myListCount[_adr]] = Listing(\n            l,\n            _adr,\n            _tid,\n            _price,\n            block.timestamp + _dead\n        );\n        tid2lc[myListCount[_adr]] = l;\n        myListCount[_adr]++;\n        return true;\n    }\n\n    function deleteListing(address _adr, uint256 _tid) external returns (bool) {\n        // DELETE A LISTING\n        Listing memory thisList = myListings[_adr][tid2lc[_tid]];\n        thisList.holder = 0x0000000000000000000000000000000000000000;\n        thisList.tid = 0;\n        thisList.price = 0;\n        thisList.deadline = 0;\n        myListings[_adr][tid2lc[_tid]] = thisList;\n        return true;\n    }\n}\n",
  "sourcePath": "/Users/iii6/Documents/GitHub/niftish/contracts/Market.sol",
  "compiler": {
    "name": "solc",
    "version": "0.8.17+commit.8df45f5f.Emscripten.clang"
  },
  "schemaVersion": "3.4.8",
  "updatedAt": "2023-03-23T22:30:37.329Z",
  "networkType": "ethereum",
  "devdoc": {
    "kind": "dev",
    "methods": {},
    "version": 1
  },
  "userdoc": {
    "kind": "user",
    "methods": {},
    "version": 1
  }
}