{
  "contractName": "Market",
  "abi": [
    {
      "inputs": [
        {
          "internalType": "uint256",
          "name": "_t",
          "type": "uint256"
        }
      ],
      "stateMutability": "nonpayable",
      "type": "constructor"
    },
    {
      "inputs": [],
      "name": "admin",
      "outputs": [
        {
          "internalType": "address",
          "name": "",
          "type": "address"
        }
      ],
      "stateMutability": "view",
      "type": "function"
    },
    {
      "inputs": [
        {
          "internalType": "uint256",
          "name": "",
          "type": "uint256"
        }
      ],
      "name": "coin",
      "outputs": [
        {
          "internalType": "contract ERC20",
          "name": "",
          "type": "address"
        }
      ],
      "stateMutability": "view",
      "type": "function"
    },
    {
      "inputs": [],
      "name": "fee",
      "outputs": [
        {
          "internalType": "uint256",
          "name": "",
          "type": "uint256"
        }
      ],
      "stateMutability": "view",
      "type": "function"
    },
    {
      "inputs": [
        {
          "internalType": "uint256",
          "name": "",
          "type": "uint256"
        }
      ],
      "name": "nft",
      "outputs": [
        {
          "internalType": "contract ERC721",
          "name": "",
          "type": "address"
        }
      ],
      "stateMutability": "view",
      "type": "function"
    },
    {
      "inputs": [],
      "name": "roy",
      "outputs": [
        {
          "internalType": "uint256",
          "name": "",
          "type": "uint256"
        }
      ],
      "stateMutability": "view",
      "type": "function"
    },
    {
      "inputs": [
        {
          "internalType": "address",
          "name": "_nft",
          "type": "address"
        },
        {
          "internalType": "string",
          "name": "_name",
          "type": "string"
        },
        {
          "internalType": "uint256",
          "name": "_roy",
          "type": "uint256"
        },
        {
          "internalType": "uint256",
          "name": "_total",
          "type": "uint256"
        }
      ],
      "name": "setNFT",
      "outputs": [],
      "stateMutability": "nonpayable",
      "type": "function"
    },
    {
      "inputs": [
        {
          "internalType": "address",
          "name": "_coin",
          "type": "address"
        },
        {
          "internalType": "string",
          "name": "_name",
          "type": "string"
        },
        {
          "internalType": "uint256",
          "name": "_roy",
          "type": "uint256"
        },
        {
          "internalType": "uint256",
          "name": "_max",
          "type": "uint256"
        }
      ],
      "name": "setCoin",
      "outputs": [],
      "stateMutability": "nonpayable",
      "type": "function"
    }
  ],
  "bytecode": "0x60806040523480156200001157600080fd5b5060405162000ed938038062000ed98339818101604052810190620000379190620001ae565b336000806101000a81548173ffffffffffffffffffffffffffffffffffffffff021916908373ffffffffffffffffffffffffffffffffffffffff16021790555060008103620000965760056009819055506001600a8190555062000167565b60018103620000b05760056009819055506001600a819055505b60028103620000ca5760056009819055506001600a819055505b60038103620000e45760056009819055506001600a819055505b60048103620000fe5760056009819055506001600a819055505b60058103620001185760056009819055506001600a819055505b60068103620001325760056009819055506001600a819055505b600781036200014c5760056009819055506001600a819055505b60088103620001665760056009819055506001600a819055505b5b50620001e0565b600080fd5b6000819050919050565b620001888162000173565b81146200019457600080fd5b50565b600081519050620001a8816200017d565b92915050565b600060208284031215620001c757620001c66200016e565b5b6000620001d78482850162000197565b91505092915050565b610ce980620001f06000396000f3fe608060405234801561001057600080fd5b506004361061007d5760003560e01c8063940b54a81161005b578063940b54a8146100ea5780639d0214cb14610108578063ddca3f4314610138578063f851a440146101565761007d565b80630fa0a8911461008257806360cd17d31461009e57806393b5d289146100ce575b600080fd5b61009c60048036038101906100979190610774565b610174565b005b6100b860048036038101906100b391906107f7565b610326565b6040516100c59190610883565b60405180910390f35b6100e860048036038101906100e39190610774565b610365565b005b6100f2610517565b6040516100ff91906108ad565b60405180910390f35b610122600480360381019061011d91906107f7565b61051d565b60405161012f91906108e9565b60405180910390f35b61014061055c565b60405161014d91906108ad565b60405180910390f35b61015e610562565b60405161016b9190610913565b60405180910390f35b8360056006548154811061018b5761018a61092e565b5b9060005260206000200160006101000a81548173ffffffffffffffffffffffffffffffffffffffff021916908373ffffffffffffffffffffffffffffffffffffffff1602179055506040518060c0016040528060065481526020018573ffffffffffffffffffffffffffffffffffffffff1681526020018481526020018381526020018281526020013373ffffffffffffffffffffffffffffffffffffffff168152506008600060065481526020019081526020016000206000820151816000015560208201518160010160006101000a81548173ffffffffffffffffffffffffffffffffffffffff021916908373ffffffffffffffffffffffffffffffffffffffff16021790555060408201518160020190816102a99190610b6a565b50606082015181600301556080820151816004015560a08201518160050160006101000a81548173ffffffffffffffffffffffffffffffffffffffff021916908373ffffffffffffffffffffffffffffffffffffffff1602179055509050506006600081548092919061031b90610c6b565b919050555050505050565b6005818154811061033657600080fd5b906000526020600020016000915054906101000a900473ffffffffffffffffffffffffffffffffffffffff1681565b8360016002548154811061037c5761037b61092e565b5b9060005260206000200160006101000a81548173ffffffffffffffffffffffffffffffffffffffff021916908373ffffffffffffffffffffffffffffffffffffffff1602179055506040518060c0016040528060025481526020018573ffffffffffffffffffffffffffffffffffffffff1681526020018481526020018381526020018281526020013373ffffffffffffffffffffffffffffffffffffffff168152506004600060025481526020019081526020016000206000820151816000015560208201518160010160006101000a81548173ffffffffffffffffffffffffffffffffffffffff021916908373ffffffffffffffffffffffffffffffffffffffff160217905550604082015181600201908161049a9190610b6a565b50606082015181600301556080820151816004015560a08201518160050160006101000a81548173ffffffffffffffffffffffffffffffffffffffff021916908373ffffffffffffffffffffffffffffffffffffffff1602179055509050506002600081548092919061050c90610c6b565b919050555050505050565b60095481565b6001818154811061052d57600080fd5b906000526020600020016000915054906101000a900473ffffffffffffffffffffffffffffffffffffffff1681565b600a5481565b60008054906101000a900473ffffffffffffffffffffffffffffffffffffffff1681565b6000604051905090565b600080fd5b600080fd5b600073ffffffffffffffffffffffffffffffffffffffff82169050919050565b60006105c58261059a565b9050919050565b6105d5816105ba565b81146105e057600080fd5b50565b6000813590506105f2816105cc565b92915050565b600080fd5b600080fd5b6000601f19601f8301169050919050565b7f4e487b7100000000000000000000000000000000000000000000000000000000600052604160045260246000fd5b61064b82610602565b810181811067ffffffffffffffff8211171561066a57610669610613565b5b80604052505050565b600061067d610586565b90506106898282610642565b919050565b600067ffffffffffffffff8211156106a9576106a8610613565b5b6106b282610602565b9050602081019050919050565b82818337600083830152505050565b60006106e16106dc8461068e565b610673565b9050828152602081018484840111156106fd576106fc6105fd565b5b6107088482856106bf565b509392505050565b600082601f830112610725576107246105f8565b5b81356107358482602086016106ce565b91505092915050565b6000819050919050565b6107518161073e565b811461075c57600080fd5b50565b60008135905061076e81610748565b92915050565b6000806000806080858703121561078e5761078d610590565b5b600061079c878288016105e3565b945050602085013567ffffffffffffffff8111156107bd576107bc610595565b5b6107c987828801610710565b93505060406107da8782880161075f565b92505060606107eb8782880161075f565b91505092959194509250565b60006020828403121561080d5761080c610590565b5b600061081b8482850161075f565b91505092915050565b6000819050919050565b600061084961084461083f8461059a565b610824565b61059a565b9050919050565b600061085b8261082e565b9050919050565b600061086d82610850565b9050919050565b61087d81610862565b82525050565b60006020820190506108986000830184610874565b92915050565b6108a78161073e565b82525050565b60006020820190506108c2600083018461089e565b92915050565b60006108d382610850565b9050919050565b6108e3816108c8565b82525050565b60006020820190506108fe60008301846108da565b92915050565b61090d816105ba565b82525050565b60006020820190506109286000830184610904565b92915050565b7f4e487b7100000000000000000000000000000000000000000000000000000000600052603260045260246000fd5b600081519050919050565b7f4e487b7100000000000000000000000000000000000000000000000000000000600052602260045260246000fd5b600060028204905060018216806109af57607f821691505b6020821081036109c2576109c1610968565b5b50919050565b60008190508160005260206000209050919050565b60006020601f8301049050919050565b600082821b905092915050565b600060088302610a2a7fffffffffffffffffffffffffffffffffffffffffffffffffffffffffffffffff826109ed565b610a3486836109ed565b95508019841693508086168417925050509392505050565b6000610a67610a62610a5d8461073e565b610824565b61073e565b9050919050565b6000819050919050565b610a8183610a4c565b610a95610a8d82610a6e565b8484546109fa565b825550505050565b600090565b610aaa610a9d565b610ab5818484610a78565b505050565b5b81811015610ad957610ace600082610aa2565b600181019050610abb565b5050565b601f821115610b1e57610aef816109c8565b610af8846109dd565b81016020851015610b07578190505b610b1b610b13856109dd565b830182610aba565b50505b505050565b600082821c905092915050565b6000610b4160001984600802610b23565b1980831691505092915050565b6000610b5a8383610b30565b9150826002028217905092915050565b610b738261095d565b67ffffffffffffffff811115610b8c57610b8b610613565b5b610b968254610997565b610ba1828285610add565b600060209050601f831160018114610bd45760008415610bc2578287015190505b610bcc8582610b4e565b865550610c34565b601f198416610be2866109c8565b60005b82811015610c0a57848901518255600182019150602085019450602081019050610be5565b86831015610c275784890151610c23601f891682610b30565b8355505b6001600288020188555050505b505050505050565b7f4e487b7100000000000000000000000000000000000000000000000000000000600052601160045260246000fd5b6000610c768261073e565b91507fffffffffffffffffffffffffffffffffffffffffffffffffffffffffffffffff8203610ca857610ca7610c3c565b5b60018201905091905056fea26469706673582212202e07d94d9d4488ca909fddb886239fde81afd0afdbce6e997606c68d459aeb2564736f6c63430008110033",
  "immutableReferences": {},
  "source": "// SPDX-License-Identifier: MIT\npragma solidity ^0.8.10;\n\nimport \"@openzeppelin/contracts/token/ERC20/ERC20.sol\";\nimport \"@openzeppelin/contracts/token/ERC721/ERC721.sol\";\nimport \"./FrootyCoolTingz.sol\";\n\ncontract Market {\n    address public admin; // CONTRACT OWNER\n\n    ERC721[] public nft; // FROOT ADDRESS\n    uint256 n;\n    mapping(address => uint256) idByNFTAdr;\n    mapping(uint256 => NFT) NftById;\n\n    ERC20[] public coin;\n    uint256 e;\n    mapping(address => uint256) idByCoinAdr;\n    mapping(uint256 => Coin) CoinById;\n\n    uint256 public roy;\n    uint256 public fee;\n\n    struct NFT {\n        // STRUCT FOR SALES LISTINGS\n        uint256 id;\n        address contractAdr;\n        bytes info;\n        uint256 roy;\n        uint256 total;\n        address admin;\n    }\n    struct Coin {\n        // STRUCT FOR SALES LISTINGS\n        uint256 id;\n        address contractAdr;\n        bytes info;\n        uint256 roy;\n        uint256 max;\n        address admin;\n    }\n\n    constructor(uint256 _t) {\n        admin = msg.sender;\n\n        if (_t == 0) {\n            roy = 5;\n            fee = 1;\n        } else {\n            if (_t == 1) {\n                roy = 5;\n                fee = 1;\n            }\n            if (_t == 2) {\n                roy = 5;\n                fee = 1;\n            }\n            if (_t == 3) {\n                roy = 5;\n                fee = 1;\n            }\n            if (_t == 4) {\n                roy = 5;\n                fee = 1;\n            }\n            if (_t == 5) {\n                roy = 5;\n                fee = 1;\n            }\n            if (_t == 6) {\n                roy = 5;\n                fee = 1;\n            }\n            if (_t == 7) {\n                roy = 5;\n                fee = 1;\n            }\n            if (_t == 8) {\n                roy = 5;\n                fee = 1;\n            }\n        }\n    }\n\n    function setNFT(\n        address _nft,\n        string memory _name,\n        uint256 _roy,\n        uint256 _total\n    ) external {\n        nft[n] = ERC721(_nft);\n        NftById[n] = NFT(n, _nft, bytes(_name), _roy, _total, msg.sender);\n        n++;\n    }\n\n    function setCoin(\n        address _coin,\n        string memory _name,\n        uint256 _roy,\n        uint256 _max\n    ) external {\n        coin[e] = ERC20(_coin);\n        CoinById[e] = Coin(e, _coin, bytes(_name), _roy, _max, msg.sender);\n        e++;\n    }\n}\n",
  "sourcePath": "/Users/iii6/Documents/GitHub/niftish/contracts/Market.sol",
  "compiler": {
    "name": "solc",
    "version": "0.8.17+commit.8df45f5f.Emscripten.clang"
  },
  "schemaVersion": "3.4.8",
  "updatedAt": "2023-03-30T23:48:20.947Z",
  "devdoc": {
    "kind": "dev",
    "methods": {},
    "version": 1
  },
  "userdoc": {
    "kind": "user",
    "methods": {},
    "version": 1
  }
}