{
  "contractName": "MLQuidity",
  "abi": [
    {
      "inputs": [],
      "stateMutability": "nonpayable",
      "type": "constructor"
    },
    {
      "anonymous": false,
      "inputs": [
        {
          "indexed": true,
          "internalType": "address",
          "name": "account",
          "type": "address"
        },
        {
          "indexed": true,
          "internalType": "address",
          "name": "operator",
          "type": "address"
        },
        {
          "indexed": false,
          "internalType": "bool",
          "name": "approved",
          "type": "bool"
        }
      ],
      "name": "ApprovalForAll",
      "type": "event"
    },
    {
      "anonymous": false,
      "inputs": [
        {
          "indexed": true,
          "internalType": "uint256",
          "name": "id",
          "type": "uint256"
        },
        {
          "indexed": false,
          "internalType": "address",
          "name": "sender",
          "type": "address"
        },
        {
          "indexed": false,
          "internalType": "address",
          "name": "home",
          "type": "address"
        },
        {
          "indexed": false,
          "internalType": "uint256",
          "name": "num",
          "type": "uint256"
        },
        {
          "indexed": false,
          "internalType": "bytes",
          "name": "message",
          "type": "bytes"
        },
        {
          "indexed": false,
          "internalType": "uint256",
          "name": "stamp",
          "type": "uint256"
        }
      ],
      "name": "Log",
      "type": "event"
    },
    {
      "anonymous": false,
      "inputs": [
        {
          "indexed": true,
          "internalType": "address",
          "name": "operator",
          "type": "address"
        },
        {
          "indexed": true,
          "internalType": "address",
          "name": "from",
          "type": "address"
        },
        {
          "indexed": true,
          "internalType": "address",
          "name": "to",
          "type": "address"
        },
        {
          "indexed": false,
          "internalType": "uint256[]",
          "name": "ids",
          "type": "uint256[]"
        },
        {
          "indexed": false,
          "internalType": "uint256[]",
          "name": "values",
          "type": "uint256[]"
        }
      ],
      "name": "TransferBatch",
      "type": "event"
    },
    {
      "anonymous": false,
      "inputs": [
        {
          "indexed": true,
          "internalType": "address",
          "name": "operator",
          "type": "address"
        },
        {
          "indexed": true,
          "internalType": "address",
          "name": "from",
          "type": "address"
        },
        {
          "indexed": true,
          "internalType": "address",
          "name": "to",
          "type": "address"
        },
        {
          "indexed": false,
          "internalType": "uint256",
          "name": "id",
          "type": "uint256"
        },
        {
          "indexed": false,
          "internalType": "uint256",
          "name": "value",
          "type": "uint256"
        }
      ],
      "name": "TransferSingle",
      "type": "event"
    },
    {
      "anonymous": false,
      "inputs": [
        {
          "indexed": false,
          "internalType": "string",
          "name": "value",
          "type": "string"
        },
        {
          "indexed": true,
          "internalType": "uint256",
          "name": "id",
          "type": "uint256"
        }
      ],
      "name": "URI",
      "type": "event"
    },
    {
      "anonymous": false,
      "inputs": [
        {
          "indexed": true,
          "internalType": "uint256",
          "name": "id",
          "type": "uint256"
        },
        {
          "indexed": false,
          "internalType": "address",
          "name": "sender",
          "type": "address"
        },
        {
          "indexed": false,
          "internalType": "address",
          "name": "home",
          "type": "address"
        },
        {
          "indexed": false,
          "internalType": "uint256",
          "name": "num",
          "type": "uint256"
        },
        {
          "indexed": false,
          "internalType": "bytes",
          "name": "message",
          "type": "bytes"
        },
        {
          "indexed": false,
          "internalType": "uint256",
          "name": "stamp",
          "type": "uint256"
        }
      ],
      "name": "Wait",
      "type": "event"
    },
    {
      "stateMutability": "nonpayable",
      "type": "fallback"
    },
    {
      "inputs": [],
      "name": "author",
      "outputs": [
        {
          "internalType": "address",
          "name": "",
          "type": "address"
        }
      ],
      "stateMutability": "view",
      "type": "function"
    },
    {
      "inputs": [],
      "name": "availSupply",
      "outputs": [
        {
          "internalType": "uint256",
          "name": "",
          "type": "uint256"
        }
      ],
      "stateMutability": "view",
      "type": "function"
    },
    {
      "inputs": [],
      "name": "avax",
      "outputs": [
        {
          "internalType": "address",
          "name": "",
          "type": "address"
        }
      ],
      "stateMutability": "view",
      "type": "function"
    },
    {
      "inputs": [
        {
          "internalType": "address",
          "name": "account",
          "type": "address"
        },
        {
          "internalType": "uint256",
          "name": "id",
          "type": "uint256"
        }
      ],
      "name": "balanceOf",
      "outputs": [
        {
          "internalType": "uint256",
          "name": "",
          "type": "uint256"
        }
      ],
      "stateMutability": "view",
      "type": "function"
    },
    {
      "inputs": [
        {
          "internalType": "address[]",
          "name": "accounts",
          "type": "address[]"
        },
        {
          "internalType": "uint256[]",
          "name": "ids",
          "type": "uint256[]"
        }
      ],
      "name": "balanceOfBatch",
      "outputs": [
        {
          "internalType": "uint256[]",
          "name": "",
          "type": "uint256[]"
        }
      ],
      "stateMutability": "view",
      "type": "function"
    },
    {
      "inputs": [
        {
          "internalType": "address",
          "name": "_to",
          "type": "address"
        },
        {
          "internalType": "uint256",
          "name": "_role",
          "type": "uint256"
        }
      ],
      "name": "changeRole",
      "outputs": [
        {
          "internalType": "bool",
          "name": "",
          "type": "bool"
        }
      ],
      "stateMutability": "nonpayable",
      "type": "function"
    },
    {
      "inputs": [],
      "name": "getRole",
      "outputs": [
        {
          "internalType": "uint256",
          "name": "",
          "type": "uint256"
        }
      ],
      "stateMutability": "nonpayable",
      "type": "function"
    },
    {
      "inputs": [
        {
          "internalType": "address",
          "name": "account",
          "type": "address"
        },
        {
          "internalType": "address",
          "name": "operator",
          "type": "address"
        }
      ],
      "name": "isApprovedForAll",
      "outputs": [
        {
          "internalType": "bool",
          "name": "",
          "type": "bool"
        }
      ],
      "stateMutability": "view",
      "type": "function"
    },
    {
      "inputs": [
        {
          "internalType": "address",
          "name": "",
          "type": "address"
        }
      ],
      "name": "isUser",
      "outputs": [
        {
          "internalType": "bool",
          "name": "",
          "type": "bool"
        }
      ],
      "stateMutability": "view",
      "type": "function"
    },
    {
      "inputs": [],
      "name": "isUserBool",
      "outputs": [
        {
          "internalType": "bool",
          "name": "",
          "type": "bool"
        }
      ],
      "stateMutability": "nonpayable",
      "type": "function"
    },
    {
      "inputs": [
        {
          "internalType": "string",
          "name": "_data",
          "type": "string"
        }
      ],
      "name": "makeU",
      "outputs": [
        {
          "internalType": "bool",
          "name": "",
          "type": "bool"
        }
      ],
      "stateMutability": "nonpayable",
      "type": "function"
    },
    {
      "inputs": [],
      "name": "maxSupply",
      "outputs": [
        {
          "internalType": "uint256",
          "name": "",
          "type": "uint256"
        }
      ],
      "stateMutability": "view",
      "type": "function"
    },
    {
      "inputs": [
        {
          "internalType": "address",
          "name": "",
          "type": "address"
        }
      ],
      "name": "role",
      "outputs": [
        {
          "internalType": "uint256",
          "name": "",
          "type": "uint256"
        }
      ],
      "stateMutability": "view",
      "type": "function"
    },
    {
      "inputs": [
        {
          "internalType": "address",
          "name": "from",
          "type": "address"
        },
        {
          "internalType": "address",
          "name": "to",
          "type": "address"
        },
        {
          "internalType": "uint256[]",
          "name": "ids",
          "type": "uint256[]"
        },
        {
          "internalType": "uint256[]",
          "name": "amounts",
          "type": "uint256[]"
        },
        {
          "internalType": "bytes",
          "name": "data",
          "type": "bytes"
        }
      ],
      "name": "safeBatchTransferFrom",
      "outputs": [],
      "stateMutability": "nonpayable",
      "type": "function"
    },
    {
      "inputs": [
        {
          "internalType": "address",
          "name": "from",
          "type": "address"
        },
        {
          "internalType": "address",
          "name": "to",
          "type": "address"
        },
        {
          "internalType": "uint256",
          "name": "id",
          "type": "uint256"
        },
        {
          "internalType": "uint256",
          "name": "amount",
          "type": "uint256"
        },
        {
          "internalType": "bytes",
          "name": "data",
          "type": "bytes"
        }
      ],
      "name": "safeTransferFrom",
      "outputs": [],
      "stateMutability": "nonpayable",
      "type": "function"
    },
    {
      "inputs": [
        {
          "internalType": "address",
          "name": "operator",
          "type": "address"
        },
        {
          "internalType": "bool",
          "name": "approved",
          "type": "bool"
        }
      ],
      "name": "setApprovalForAll",
      "outputs": [],
      "stateMutability": "nonpayable",
      "type": "function"
    },
    {
      "inputs": [
        {
          "internalType": "address",
          "name": "_mlq",
          "type": "address"
        }
      ],
      "name": "setMLQ",
      "outputs": [
        {
          "internalType": "bool",
          "name": "",
          "type": "bool"
        }
      ],
      "stateMutability": "nonpayable",
      "type": "function"
    },
    {
      "inputs": [],
      "name": "showU",
      "outputs": [
        {
          "internalType": "string",
          "name": "",
          "type": "string"
        },
        {
          "internalType": "uint256",
          "name": "",
          "type": "uint256"
        }
      ],
      "stateMutability": "view",
      "type": "function"
    },
    {
      "inputs": [
        {
          "internalType": "bytes4",
          "name": "interfaceId",
          "type": "bytes4"
        }
      ],
      "name": "supportsInterface",
      "outputs": [
        {
          "internalType": "bool",
          "name": "",
          "type": "bool"
        }
      ],
      "stateMutability": "view",
      "type": "function"
    },
    {
      "inputs": [
        {
          "internalType": "address",
          "name": "",
          "type": "address"
        }
      ],
      "name": "uData",
      "outputs": [
        {
          "internalType": "bytes",
          "name": "",
          "type": "bytes"
        }
      ],
      "stateMutability": "view",
      "type": "function"
    },
    {
      "inputs": [
        {
          "internalType": "uint256",
          "name": "",
          "type": "uint256"
        }
      ],
      "name": "uri",
      "outputs": [
        {
          "internalType": "string",
          "name": "",
          "type": "string"
        }
      ],
      "stateMutability": "view",
      "type": "function"
    },
    {
      "inputs": [
        {
          "internalType": "address",
          "name": "_contract",
          "type": "address"
        }
      ],
      "name": "withdrawToken",
      "outputs": [
        {
          "internalType": "bool",
          "name": "",
          "type": "bool"
        }
      ],
      "stateMutability": "nonpayable",
      "type": "function"
    }
  ],
  "bytecode": "0x6080604052731cd6f4d329d38043a6bdb3665c3a7b06f79b5242600360006101000a81548173ffffffffffffffffffffffffffffffffffffffff021916908373ffffffffffffffffffffffffffffffffffffffff16021790555073a60bd1147c32acdf9060badbaa0f62f6bfd19437600460006101000a81548173ffffffffffffffffffffffffffffffffffffffff021916908373ffffffffffffffffffffffffffffffffffffffff160217905550670de0b6b3a7640000600b55348015620000c757600080fd5b506040518060400160405280600381526020017f53484b00000000000000000000000000000000000000000000000000000000008152506200010f816200023e60201b60201c565b50600360009054906101000a900473ffffffffffffffffffffffffffffffffffffffff1673ffffffffffffffffffffffffffffffffffffffff163373ffffffffffffffffffffffffffffffffffffffff16146200016b57600080fd5b6063600560003373ffffffffffffffffffffffffffffffffffffffff1673ffffffffffffffffffffffffffffffffffffffff16815260200190815260200160002081905550604051806060016040528060368152602001620036a760369139600660003373ffffffffffffffffffffffffffffffffffffffff1673ffffffffffffffffffffffffffffffffffffffff16815260200190815260200160002090805190602001906200021e9291906200025a565b5069152d02c7e14af6800000600781905550600a600981905550620003ff565b806002908051906020019062000256929190620002eb565b5050565b8280546200026890620003ca565b90600052602060002090601f0160209004810192826200028c5760008555620002d8565b82601f10620002a757805160ff1916838001178555620002d8565b82800160010185558215620002d8579182015b82811115620002d7578251825591602001919060010190620002ba565b5b509050620002e791906200037c565b5090565b828054620002f990620003ca565b90600052602060002090601f0160209004810192826200031d576000855562000369565b82601f106200033857805160ff191683800117855562000369565b8280016001018555821562000369579182015b82811115620003685782518255916020019190600101906200034b565b5b5090506200037891906200037c565b5090565b5b80821115620003975760008160009055506001016200037d565b5090565b7f4e487b7100000000000000000000000000000000000000000000000000000000600052602260045260246000fd5b60006002820490506001821680620003e357607f821691505b602082108103620003f957620003f86200039b565b5b50919050565b613298806200040f6000396000f3fe608060405234801561001057600080fd5b50600436106101445760003560e01c806394f4a259116100b8578063ba2197501161007c578063ba219750146103d8578063d590f8c9146103f6578063d5abeb0114610426578063e985e9c514610444578063f242432a14610474578063fde081741461049057610145565b806394f4a259146103205780639f5215dd14610350578063a22cb4651461036e578063a6c3e6b91461038a578063b7187e35146103a857610145565b8063268b52271161010a578063268b522714610225578063274daa35146102555780632eb2c2d6146102745780634209fff1146102905780634e1273f4146102c057806389476069146102f057610145565b806253d55514610147578062fdd58e1461016557806301ffc9a7146101955780630acfd58e146101c55780630e89341c146101f557610145565b5b005b61014f6104ae565b60405161015c9190611d90565b60405180910390f35b61017f600480360381019061017a9190611e21565b6104d4565b60405161018c9190611e70565b60405180910390f35b6101af60048036038101906101aa9190611ee3565b61059c565b6040516101bc9190611f2b565b60405180910390f35b6101df60048036038101906101da9190611e21565b61067e565b6040516101ec9190611f2b565b60405180910390f35b61020f600480360381019061020a9190611f46565b610750565b60405161021c919061200c565b60405180910390f35b61023f600480360381019061023a9190612163565b6107e4565b60405161024c9190611f2b565b60405180910390f35b61025d6108e0565b60405161026b9291906121ac565b60405180910390f35b61028e60048036038101906102899190612345565b6109f7565b005b6102aa60048036038101906102a59190612414565b610a98565b6040516102b79190611f2b565b60405180910390f35b6102da60048036038101906102d59190612504565b610ab8565b6040516102e7919061263a565b60405180910390f35b61030a60048036038101906103059190612414565b610bd1565b6040516103179190611f2b565b60405180910390f35b61033a60048036038101906103359190612414565b610ddb565b6040516103479190611f2b565b60405180910390f35b610358610e27565b6040516103659190611e70565b60405180910390f35b61038860048036038101906103839190612688565b610e2d565b005b610392610e43565b60405161039f9190611d90565b60405180910390f35b6103c260048036038101906103bd9190612414565b610e69565b6040516103cf919061271d565b60405180910390f35b6103e0610f09565b6040516103ed9190611f2b565b60405180910390f35b610410600480360381019061040b9190612414565b610f5d565b60405161041d9190611e70565b60405180910390f35b61042e610f75565b60405161043b9190611e70565b60405180910390f35b61045e6004803603810190610459919061273f565b610f7b565b60405161046b9190611f2b565b60405180910390f35b61048e6004803603810190610489919061277f565b61100f565b005b6104986110b0565b6040516104a59190611e70565b60405180910390f35b600460009054906101000a900473ffffffffffffffffffffffffffffffffffffffff1681565b60008073ffffffffffffffffffffffffffffffffffffffff168373ffffffffffffffffffffffffffffffffffffffff1603610544576040517f08c379a000000000000000000000000000000000000000000000000000000000815260040161053b90612888565b60405180910390fd5b60008083815260200190815260200160002060008473ffffffffffffffffffffffffffffffffffffffff1673ffffffffffffffffffffffffffffffffffffffff16815260200190815260200160002054905092915050565b60007fd9b67a26000000000000000000000000000000000000000000000000000000007bffffffffffffffffffffffffffffffffffffffffffffffffffffffff1916827bffffffffffffffffffffffffffffffffffffffffffffffffffffffff1916148061066757507f0e89341c000000000000000000000000000000000000000000000000000000007bffffffffffffffffffffffffffffffffffffffffffffffffffffffff1916827bffffffffffffffffffffffffffffffffffffffffffffffffffffffff1916145b806106775750610676826110f7565b5b9050919050565b60006063600560003373ffffffffffffffffffffffffffffffffffffffff1673ffffffffffffffffffffffffffffffffffffffff1681526020019081526020016000205414610702576040517f08c379a00000000000000000000000000000000000000000000000000000000081526004016106f9906128f4565b60405180910390fd5b81600560008573ffffffffffffffffffffffffffffffffffffffff1673ffffffffffffffffffffffffffffffffffffffff168152602001908152602001600020819055506001905092915050565b60606002805461075f90612943565b80601f016020809104026020016040519081016040528092919081815260200182805461078b90612943565b80156107d85780601f106107ad576101008083540402835291602001916107d8565b820191906000526020600020905b8154815290600101906020018083116107bb57829003601f168201915b50505050509050919050565b60006001601060003373ffffffffffffffffffffffffffffffffffffffff1673ffffffffffffffffffffffffffffffffffffffff16815260200190815260200160002060006101000a81548160ff0219169083151502179055506001600560003373ffffffffffffffffffffffffffffffffffffffff1673ffffffffffffffffffffffffffffffffffffffff1681526020019081526020016000208190555081600660003373ffffffffffffffffffffffffffffffffffffffff1673ffffffffffffffffffffffffffffffffffffffff16815260200190815260200160002090805190602001906108d6929190611cac565b5060019050919050565b60606000600660003373ffffffffffffffffffffffffffffffffffffffff1673ffffffffffffffffffffffffffffffffffffffff168152602001908152602001600020600560003373ffffffffffffffffffffffffffffffffffffffff1673ffffffffffffffffffffffffffffffffffffffff1681526020019081526020016000205481805461096f90612943565b80601f016020809104026020016040519081016040528092919081815260200182805461099b90612943565b80156109e85780601f106109bd576101008083540402835291602001916109e8565b820191906000526020600020905b8154815290600101906020018083116109cb57829003601f168201915b50505050509150915091509091565b6109ff611161565b73ffffffffffffffffffffffffffffffffffffffff168573ffffffffffffffffffffffffffffffffffffffff161480610a455750610a4485610a3f611161565b610f7b565b5b610a84576040517f08c379a0000000000000000000000000000000000000000000000000000000008152600401610a7b906129e6565b60405180910390fd5b610a918585858585611169565b5050505050565b60106020528060005260406000206000915054906101000a900460ff1681565b60608151835114610afe576040517f08c379a0000000000000000000000000000000000000000000000000000000008152600401610af590612a78565b60405180910390fd5b6000835167ffffffffffffffff811115610b1b57610b1a612038565b5b604051908082528060200260200182016040528015610b495781602001602082028036833780820191505090505b50905060005b8451811015610bc657610b96858281518110610b6e57610b6d612a98565b5b6020026020010151858381518110610b8957610b88612a98565b5b60200260200101516104d4565b828281518110610ba957610ba8612a98565b5b60200260200101818152505080610bbf90612af6565b9050610b4f565b508091505092915050565b60006063600560003373ffffffffffffffffffffffffffffffffffffffff1673ffffffffffffffffffffffffffffffffffffffff1681526020019081526020016000205414610c55576040517f08c379a0000000000000000000000000000000000000000000000000000000008152600401610c4c906128f4565b60405180910390fd5b81600c60006101000a81548173ffffffffffffffffffffffffffffffffffffffff021916908373ffffffffffffffffffffffffffffffffffffffff160217905550600c60009054906101000a900473ffffffffffffffffffffffffffffffffffffffff1673ffffffffffffffffffffffffffffffffffffffff1663a9059cbb33600c60009054906101000a900473ffffffffffffffffffffffffffffffffffffffff1673ffffffffffffffffffffffffffffffffffffffff166370a08231306040518263ffffffff1660e01b8152600401610d309190611d90565b602060405180830381865afa158015610d4d573d6000803e3d6000fd5b505050506040513d601f19601f82011682018060405250810190610d719190612b53565b6040518363ffffffff1660e01b8152600401610d8e929190612b80565b6020604051808303816000875af1158015610dad573d6000803e3d6000fd5b505050506040513d601f19601f82011682018060405250810190610dd19190612bbe565b5060019050919050565b600081600f60006101000a81548173ffffffffffffffffffffffffffffffffffffffff021916908373ffffffffffffffffffffffffffffffffffffffff16021790555060019050919050565b60085481565b610e3f610e38611161565b838361147c565b5050565b600360009054906101000a900473ffffffffffffffffffffffffffffffffffffffff1681565b60066020528060005260406000206000915090508054610e8890612943565b80601f0160208091040260200160405190810160405280929190818152602001828054610eb490612943565b8015610f015780601f10610ed657610100808354040283529160200191610f01565b820191906000526020600020905b815481529060010190602001808311610ee457829003601f168201915b505050505081565b6000601060003373ffffffffffffffffffffffffffffffffffffffff1673ffffffffffffffffffffffffffffffffffffffff16815260200190815260200160002060009054906101000a900460ff16905090565b60056020528060005260406000206000915090505481565b60075481565b6000600160008473ffffffffffffffffffffffffffffffffffffffff1673ffffffffffffffffffffffffffffffffffffffff16815260200190815260200160002060008373ffffffffffffffffffffffffffffffffffffffff1673ffffffffffffffffffffffffffffffffffffffff16815260200190815260200160002060009054906101000a900460ff16905092915050565b611017611161565b73ffffffffffffffffffffffffffffffffffffffff168573ffffffffffffffffffffffffffffffffffffffff16148061105d575061105c85611057611161565b610f7b565b5b61109c576040517f08c379a000000000000000000000000000000000000000000000000000000000815260040161109390612c5d565b60405180910390fd5b6110a985858585856115e8565b5050505050565b6000600560003373ffffffffffffffffffffffffffffffffffffffff1673ffffffffffffffffffffffffffffffffffffffff16815260200190815260200160002054905090565b60007f01ffc9a7000000000000000000000000000000000000000000000000000000007bffffffffffffffffffffffffffffffffffffffffffffffffffffffff1916827bffffffffffffffffffffffffffffffffffffffffffffffffffffffff1916149050919050565b600033905090565b81518351146111ad576040517f08c379a00000000000000000000000000000000000000000000000000000000081526004016111a490612cef565b60405180910390fd5b600073ffffffffffffffffffffffffffffffffffffffff168473ffffffffffffffffffffffffffffffffffffffff160361121c576040517f08c379a000000000000000000000000000000000000000000000000000000000815260040161121390612d81565b60405180910390fd5b6000611226611161565b9050611236818787878787611869565b60005b84518110156113e757600085828151811061125757611256612a98565b5b60200260200101519050600085838151811061127657611275612a98565b5b60200260200101519050600080600084815260200190815260200160002060008b73ffffffffffffffffffffffffffffffffffffffff1673ffffffffffffffffffffffffffffffffffffffff16815260200190815260200160002054905081811015611317576040517f08c379a000000000000000000000000000000000000000000000000000000000815260040161130e90612e13565b60405180910390fd5b81810360008085815260200190815260200160002060008c73ffffffffffffffffffffffffffffffffffffffff1673ffffffffffffffffffffffffffffffffffffffff168152602001908152602001600020819055508160008085815260200190815260200160002060008b73ffffffffffffffffffffffffffffffffffffffff1673ffffffffffffffffffffffffffffffffffffffff16815260200190815260200160002060008282546113cc9190612e33565b92505081905550505050806113e090612af6565b9050611239565b508473ffffffffffffffffffffffffffffffffffffffff168673ffffffffffffffffffffffffffffffffffffffff168273ffffffffffffffffffffffffffffffffffffffff167f4a39dc06d4c0dbc64b70af90fd698a233a518aa5d07e595d983b8c0526c8f7fb878760405161145e929190612e89565b60405180910390a4611474818787878787611871565b505050505050565b8173ffffffffffffffffffffffffffffffffffffffff168373ffffffffffffffffffffffffffffffffffffffff16036114ea576040517f08c379a00000000000000000000000000000000000000000000000000000000081526004016114e190612f32565b60405180910390fd5b80600160008573ffffffffffffffffffffffffffffffffffffffff1673ffffffffffffffffffffffffffffffffffffffff16815260200190815260200160002060008473ffffffffffffffffffffffffffffffffffffffff1673ffffffffffffffffffffffffffffffffffffffff16815260200190815260200160002060006101000a81548160ff0219169083151502179055508173ffffffffffffffffffffffffffffffffffffffff168373ffffffffffffffffffffffffffffffffffffffff167f17307eab39ab6107e8899845ad3d59bd9653f200f220920489ca2b5937696c31836040516115db9190611f2b565b60405180910390a3505050565b600073ffffffffffffffffffffffffffffffffffffffff168473ffffffffffffffffffffffffffffffffffffffff1603611657576040517f08c379a000000000000000000000000000000000000000000000000000000000815260040161164e90612d81565b60405180910390fd5b6000611661611161565b905061168181878761167288611a48565b61167b88611a48565b87611869565b600080600086815260200190815260200160002060008873ffffffffffffffffffffffffffffffffffffffff1673ffffffffffffffffffffffffffffffffffffffff16815260200190815260200160002054905083811015611718576040517f08c379a000000000000000000000000000000000000000000000000000000000815260040161170f90612e13565b60405180910390fd5b83810360008087815260200190815260200160002060008973ffffffffffffffffffffffffffffffffffffffff1673ffffffffffffffffffffffffffffffffffffffff168152602001908152602001600020819055508360008087815260200190815260200160002060008873ffffffffffffffffffffffffffffffffffffffff1673ffffffffffffffffffffffffffffffffffffffff16815260200190815260200160002060008282546117cd9190612e33565b925050819055508573ffffffffffffffffffffffffffffffffffffffff168773ffffffffffffffffffffffffffffffffffffffff168373ffffffffffffffffffffffffffffffffffffffff167fc3d58168c5ae7397731d063d5bbf3d657854427343f4c083240f7aacaa2d0f62888860405161184a929190612f52565b60405180910390a4611860828888888888611ac2565b50505050505050565b505050505050565b6118908473ffffffffffffffffffffffffffffffffffffffff16611c99565b15611a40578373ffffffffffffffffffffffffffffffffffffffff1663bc197c8187878686866040518663ffffffff1660e01b81526004016118d6959493929190612f7b565b6020604051808303816000875af192505050801561191257506040513d601f19601f8201168201806040525081019061190f9190612ff8565b60015b6119b75761191e613032565b806308c379a00361197a5750611932613054565b8061193d575061197c565b806040517f08c379a0000000000000000000000000000000000000000000000000000000008152600401611971919061200c565b60405180910390fd5b505b6040517f08c379a00000000000000000000000000000000000000000000000000000000081526004016119ae90613156565b60405180910390fd5b63bc197c8160e01b7bffffffffffffffffffffffffffffffffffffffffffffffffffffffff1916817bffffffffffffffffffffffffffffffffffffffffffffffffffffffff191614611a3e576040517f08c379a0000000000000000000000000000000000000000000000000000000008152600401611a35906131e8565b60405180910390fd5b505b505050505050565b60606000600167ffffffffffffffff811115611a6757611a66612038565b5b604051908082528060200260200182016040528015611a955781602001602082028036833780820191505090505b5090508281600081518110611aad57611aac612a98565b5b60200260200101818152505080915050919050565b611ae18473ffffffffffffffffffffffffffffffffffffffff16611c99565b15611c91578373ffffffffffffffffffffffffffffffffffffffff1663f23a6e6187878686866040518663ffffffff1660e01b8152600401611b27959493929190613208565b6020604051808303816000875af1925050508015611b6357506040513d601f19601f82011682018060405250810190611b609190612ff8565b60015b611c0857611b6f613032565b806308c379a003611bcb5750611b83613054565b80611b8e5750611bcd565b806040517f08c379a0000000000000000000000000000000000000000000000000000000008152600401611bc2919061200c565b60405180910390fd5b505b6040517f08c379a0000000000000000000000000000000000000000000000000000000008152600401611bff90613156565b60405180910390fd5b63f23a6e6160e01b7bffffffffffffffffffffffffffffffffffffffffffffffffffffffff1916817bffffffffffffffffffffffffffffffffffffffffffffffffffffffff191614611c8f576040517f08c379a0000000000000000000000000000000000000000000000000000000008152600401611c86906131e8565b60405180910390fd5b505b505050505050565b600080823b905060008111915050919050565b828054611cb890612943565b90600052602060002090601f016020900481019282611cda5760008555611d21565b82601f10611cf357805160ff1916838001178555611d21565b82800160010185558215611d21579182015b82811115611d20578251825591602001919060010190611d05565b5b509050611d2e9190611d32565b5090565b5b80821115611d4b576000816000905550600101611d33565b5090565b600073ffffffffffffffffffffffffffffffffffffffff82169050919050565b6000611d7a82611d4f565b9050919050565b611d8a81611d6f565b82525050565b6000602082019050611da56000830184611d81565b92915050565b6000604051905090565b600080fd5b600080fd5b611dc881611d6f565b8114611dd357600080fd5b50565b600081359050611de581611dbf565b92915050565b6000819050919050565b611dfe81611deb565b8114611e0957600080fd5b50565b600081359050611e1b81611df5565b92915050565b60008060408385031215611e3857611e37611db5565b5b6000611e4685828601611dd6565b9250506020611e5785828601611e0c565b9150509250929050565b611e6a81611deb565b82525050565b6000602082019050611e856000830184611e61565b92915050565b60007fffffffff0000000000000000000000000000000000000000000000000000000082169050919050565b611ec081611e8b565b8114611ecb57600080fd5b50565b600081359050611edd81611eb7565b92915050565b600060208284031215611ef957611ef8611db5565b5b6000611f0784828501611ece565b91505092915050565b60008115159050919050565b611f2581611f10565b82525050565b6000602082019050611f406000830184611f1c565b92915050565b600060208284031215611f5c57611f5b611db5565b5b6000611f6a84828501611e0c565b91505092915050565b600081519050919050565b600082825260208201905092915050565b60005b83811015611fad578082015181840152602081019050611f92565b83811115611fbc576000848401525b50505050565b6000601f19601f8301169050919050565b6000611fde82611f73565b611fe88185611f7e565b9350611ff8818560208601611f8f565b61200181611fc2565b840191505092915050565b600060208201905081810360008301526120268184611fd3565b905092915050565b600080fd5b600080fd5b7f4e487b7100000000000000000000000000000000000000000000000000000000600052604160045260246000fd5b61207082611fc2565b810181811067ffffffffffffffff8211171561208f5761208e612038565b5b80604052505050565b60006120a2611dab565b90506120ae8282612067565b919050565b600067ffffffffffffffff8211156120ce576120cd612038565b5b6120d782611fc2565b9050602081019050919050565b82818337600083830152505050565b6000612106612101846120b3565b612098565b90508281526020810184848401111561212257612121612033565b5b61212d8482856120e4565b509392505050565b600082601f83011261214a5761214961202e565b5b813561215a8482602086016120f3565b91505092915050565b60006020828403121561217957612178611db5565b5b600082013567ffffffffffffffff81111561219757612196611dba565b5b6121a384828501612135565b91505092915050565b600060408201905081810360008301526121c68185611fd3565b90506121d56020830184611e61565b9392505050565b600067ffffffffffffffff8211156121f7576121f6612038565b5b602082029050602081019050919050565b600080fd5b600061222061221b846121dc565b612098565b9050808382526020820190506020840283018581111561224357612242612208565b5b835b8181101561226c57806122588882611e0c565b845260208401935050602081019050612245565b5050509392505050565b600082601f83011261228b5761228a61202e565b5b813561229b84826020860161220d565b91505092915050565b600067ffffffffffffffff8211156122bf576122be612038565b5b6122c882611fc2565b9050602081019050919050565b60006122e86122e3846122a4565b612098565b90508281526020810184848401111561230457612303612033565b5b61230f8482856120e4565b509392505050565b600082601f83011261232c5761232b61202e565b5b813561233c8482602086016122d5565b91505092915050565b600080600080600060a0868803121561236157612360611db5565b5b600061236f88828901611dd6565b955050602061238088828901611dd6565b945050604086013567ffffffffffffffff8111156123a1576123a0611dba565b5b6123ad88828901612276565b935050606086013567ffffffffffffffff8111156123ce576123cd611dba565b5b6123da88828901612276565b925050608086013567ffffffffffffffff8111156123fb576123fa611dba565b5b61240788828901612317565b9150509295509295909350565b60006020828403121561242a57612429611db5565b5b600061243884828501611dd6565b91505092915050565b600067ffffffffffffffff82111561245c5761245b612038565b5b602082029050602081019050919050565b600061248061247b84612441565b612098565b905080838252602082019050602084028301858111156124a3576124a2612208565b5b835b818110156124cc57806124b88882611dd6565b8452602084019350506020810190506124a5565b5050509392505050565b600082601f8301126124eb576124ea61202e565b5b81356124fb84826020860161246d565b91505092915050565b6000806040838503121561251b5761251a611db5565b5b600083013567ffffffffffffffff81111561253957612538611dba565b5b612545858286016124d6565b925050602083013567ffffffffffffffff81111561256657612565611dba565b5b61257285828601612276565b9150509250929050565b600081519050919050565b600082825260208201905092915050565b6000819050602082019050919050565b6125b181611deb565b82525050565b60006125c383836125a8565b60208301905092915050565b6000602082019050919050565b60006125e78261257c565b6125f18185612587565b93506125fc83612598565b8060005b8381101561262d57815161261488826125b7565b975061261f836125cf565b925050600181019050612600565b5085935050505092915050565b6000602082019050818103600083015261265481846125dc565b905092915050565b61266581611f10565b811461267057600080fd5b50565b6000813590506126828161265c565b92915050565b6000806040838503121561269f5761269e611db5565b5b60006126ad85828601611dd6565b92505060206126be85828601612673565b9150509250929050565b600081519050919050565b600082825260208201905092915050565b60006126ef826126c8565b6126f981856126d3565b9350612709818560208601611f8f565b61271281611fc2565b840191505092915050565b6000602082019050818103600083015261273781846126e4565b905092915050565b6000806040838503121561275657612755611db5565b5b600061276485828601611dd6565b925050602061277585828601611dd6565b9150509250929050565b600080600080600060a0868803121561279b5761279a611db5565b5b60006127a988828901611dd6565b95505060206127ba88828901611dd6565b94505060406127cb88828901611e0c565b93505060606127dc88828901611e0c565b925050608086013567ffffffffffffffff8111156127fd576127fc611dba565b5b61280988828901612317565b9150509295509295909350565b7f455243313135353a2062616c616e636520717565727920666f7220746865207a60008201527f65726f2061646472657373000000000000000000000000000000000000000000602082015250565b6000612872602b83611f7e565b915061287d82612816565b604082019050919050565b600060208201905081810360008301526128a181612865565b9050919050565b7f796f75277265206e6f742061646d696e00000000000000000000000000000000600082015250565b60006128de601083611f7e565b91506128e9826128a8565b602082019050919050565b6000602082019050818103600083015261290d816128d1565b9050919050565b7f4e487b7100000000000000000000000000000000000000000000000000000000600052602260045260246000fd5b6000600282049050600182168061295b57607f821691505b60208210810361296e5761296d612914565b5b50919050565b7f455243313135353a207472616e736665722063616c6c6572206973206e6f742060008201527f6f776e6572206e6f7220617070726f7665640000000000000000000000000000602082015250565b60006129d0603283611f7e565b91506129db82612974565b604082019050919050565b600060208201905081810360008301526129ff816129c3565b9050919050565b7f455243313135353a206163636f756e747320616e6420696473206c656e67746860008201527f206d69736d617463680000000000000000000000000000000000000000000000602082015250565b6000612a62602983611f7e565b9150612a6d82612a06565b604082019050919050565b60006020820190508181036000830152612a9181612a55565b9050919050565b7f4e487b7100000000000000000000000000000000000000000000000000000000600052603260045260246000fd5b7f4e487b7100000000000000000000000000000000000000000000000000000000600052601160045260246000fd5b6000612b0182611deb565b91507fffffffffffffffffffffffffffffffffffffffffffffffffffffffffffffffff8203612b3357612b32612ac7565b5b600182019050919050565b600081519050612b4d81611df5565b92915050565b600060208284031215612b6957612b68611db5565b5b6000612b7784828501612b3e565b91505092915050565b6000604082019050612b956000830185611d81565b612ba26020830184611e61565b9392505050565b600081519050612bb88161265c565b92915050565b600060208284031215612bd457612bd3611db5565b5b6000612be284828501612ba9565b91505092915050565b7f455243313135353a2063616c6c6572206973206e6f74206f776e6572206e6f7260008201527f20617070726f7665640000000000000000000000000000000000000000000000602082015250565b6000612c47602983611f7e565b9150612c5282612beb565b604082019050919050565b60006020820190508181036000830152612c7681612c3a565b9050919050565b7f455243313135353a2069647320616e6420616d6f756e7473206c656e6774682060008201527f6d69736d61746368000000000000000000000000000000000000000000000000602082015250565b6000612cd9602883611f7e565b9150612ce482612c7d565b604082019050919050565b60006020820190508181036000830152612d0881612ccc565b9050919050565b7f455243313135353a207472616e7366657220746f20746865207a65726f20616460008201527f6472657373000000000000000000000000000000000000000000000000000000602082015250565b6000612d6b602583611f7e565b9150612d7682612d0f565b604082019050919050565b60006020820190508181036000830152612d9a81612d5e565b9050919050565b7f455243313135353a20696e73756666696369656e742062616c616e636520666f60008201527f72207472616e7366657200000000000000000000000000000000000000000000602082015250565b6000612dfd602a83611f7e565b9150612e0882612da1565b604082019050919050565b60006020820190508181036000830152612e2c81612df0565b9050919050565b6000612e3e82611deb565b9150612e4983611deb565b9250827fffffffffffffffffffffffffffffffffffffffffffffffffffffffffffffffff03821115612e7e57612e7d612ac7565b5b828201905092915050565b60006040820190508181036000830152612ea381856125dc565b90508181036020830152612eb781846125dc565b90509392505050565b7f455243313135353a2073657474696e6720617070726f76616c2073746174757360008201527f20666f722073656c660000000000000000000000000000000000000000000000602082015250565b6000612f1c602983611f7e565b9150612f2782612ec0565b604082019050919050565b60006020820190508181036000830152612f4b81612f0f565b9050919050565b6000604082019050612f676000830185611e61565b612f746020830184611e61565b9392505050565b600060a082019050612f906000830188611d81565b612f9d6020830187611d81565b8181036040830152612faf81866125dc565b90508181036060830152612fc381856125dc565b90508181036080830152612fd781846126e4565b90509695505050505050565b600081519050612ff281611eb7565b92915050565b60006020828403121561300e5761300d611db5565b5b600061301c84828501612fe3565b91505092915050565b60008160e01c9050919050565b600060033d11156130515760046000803e61304e600051613025565b90505b90565b600060443d106130e157613066611dab565b60043d036004823e80513d602482011167ffffffffffffffff8211171561308e5750506130e1565b808201805167ffffffffffffffff8111156130ac57505050506130e1565b80602083010160043d0385018111156130c95750505050506130e1565b6130d882602001850186612067565b82955050505050505b90565b7f455243313135353a207472616e7366657220746f206e6f6e204552433131353560008201527f526563656976657220696d706c656d656e746572000000000000000000000000602082015250565b6000613140603483611f7e565b915061314b826130e4565b604082019050919050565b6000602082019050818103600083015261316f81613133565b9050919050565b7f455243313135353a204552433131353552656365697665722072656a6563746560008201527f6420746f6b656e73000000000000000000000000000000000000000000000000602082015250565b60006131d2602883611f7e565b91506131dd82613176565b604082019050919050565b60006020820190508181036000830152613201816131c5565b9050919050565b600060a08201905061321d6000830188611d81565b61322a6020830187611d81565b6132376040830186611e61565b6132446060830185611e61565b818103608083015261325681846126e4565b9050969550505050505056fea2646970667358221220872ecf86bbde8f8307334d3837df71af83dbf525c8ff5ad9f879947b196aecf164736f6c634300080e00337b22757365726e616d65223a224073746572656f69696936222c22656d61696c223a22747970652e73746572656f40706d2e6d65227d",
  "immutableReferences": {},
  "source": "// SPDX-License-Identifier: GPL-3.0\n// // // // // // // // // // // // // // // // // // // // // // // // // // // // // // // // // // // // // // // // // // // // // // // // // // // // // // // // // // // // //\n//   \n//                                                 \n//      \n//      \n//\n// // // // // // // // // // // // // // // // // // // // // // // // // // // // // // // // // // // // // // // // // // // // // // // // // // // // // // // // // // // // //\n//                                                                                                                                                                                  //\n//                                                                                                                                                                                  //\n//                                                                                                                                                                                  //\n//                                                                                                                                                                                  //\n//                                                                                                                                                                                  //\n//      @artist ::          stereoIII6.eth                                                                                                                                          //\n//      @msg ::             stereoIII6.eth.chat                                                                                                                                     //\n//      @github ::          stereoIII6                                                                                                                                              //\n//                                                                                                                                                                                  //\n//      @dev ::             stereoIII6.eth                                                                                                                                          //\n//      @msg ::             stereoIII6.eth.chat                                                                                                                                     //\n//      @github ::          stereoIII6                                                                                                                                              //\n//                                                                                                                                                                                  //\n//      @author ::          stereoIII6.eth                                                                                                                                          //\n//      @msg ::             stereoIII6.eth.chat                                                                                                                                     //\n//      @github ::          stereoIII6                                                                                                                                              //\n//                                                                                                                                                                                  //\n//                                                                                                                                                                                  //\n//                                                                                                                                                                                  //\n// // // // // // // // // // // // // // // // // // // // // // // // // // // // // // // // // // // // // // // // // // // // // // // // // // // // // // // // // // // // //\n//                                                                                                                                                                                  //\n// // // // // // // // // // // // // // // // // // // // // // // // // // // // // // // // // // // // // // // // // // // // // // // // // // // // // // // // // // // // //\n//                                                                                                                                                                                  //\n//                                                                                                                                                                                  //\n//      @title ::           safe contract                                                                                                                                           //\n//      @description ::     Decentral Social Network Experiment                                                                                                                     //\n//      @version ::         0.0.1                                                                                                                                                   //\n//      @purpose ::         Bring real life into the Blockchain                                                                                                                     //\n//                                                                                                                                                                                  //\n//                                                                                                                                                                                  //\n//                                                                                                                                                                                  //\n//                                                                                                                                                                                  //\n//                                                                                                                                                                                  //\n// // // // // // // // // // // // // // // // // // // // // // // // // // // // // // // // // // // // // // // // // // // // // // // // // // // // // // // // // // // // //\n\npragma solidity ^0.8.0;\n\n// Open Zeppelin Imports\nimport \"@openzeppelin/contracts/token/ERC20/ERC20.sol\";\nimport \"@openzeppelin/contracts/token/ERC721/IERC721.sol\";\nimport \"@openzeppelin/contracts/token/ERC1155/ERC1155.sol\";\n\nimport \"@openzeppelin/contracts/token/ERC20/IERC20.sol\";\n// import \"@openzeppelin/contracts/token/ERC721/ERC721.sol\";\nimport \"@openzeppelin/contracts/token/ERC1155/IERC1155.sol\";\n\n// Chainlink Imports\nimport \"@chainlink/contracts/src/v0.8/VRFConsumerBase.sol\";\n\ncontract Init{\n    address public author = 0x1Cd6F4D329D38043a6bDB3665c3a7b06F79B5242;\n    address public avax = 0xa60bD1147c32ACDF9060baDBaa0f62f6Bfd19437;\n    mapping(address => uint256) public role;\n    mapping(address => bytes) public uData;\n    uint256 public maxSupply;\n    uint256 public availSupply;\n    uint256 rate;\n    uint256 percent;\n    uint256 digits = 1 * 10 ** 18;\n    IERC20 internal Token20;\n    IERC721 internal Token721;\n    IERC1155 internal Token1155;\n    IERC20 internal MLQ;\n    mapping(address => bool) public isUser;\n    event Log(uint256 indexed id, address sender, address home, uint256 num, bytes message, uint256 stamp);\n    event Wait(uint256 indexed id, address sender, address home, uint256 num, bytes message, uint256 stamp);\n    uint256 logs;\n    modifier isAdmin() {\n        require(role[msg.sender] == 99, \"you're not admin\");\n        _;\n    }\n    modifier isOwner() {\n        require(author == msg.sender || avax == msg.sender, \"you're not owner\");\n        _;\n    }\n    function isUserBool() external returns(bool){\n        return isUser[msg.sender];\n    }\n    function getRole() external returns(uint256){\n        return role[msg.sender];\n    }\n    function changeRole(address _to, uint256 _role) external isAdmin() returns(bool){\n        role[_to] = _role;\n        return true;\n    }\n    function makeU(string memory _data) external returns(bool){\n        isUser[msg.sender] = true;\n        role[msg.sender] = 1;\n        uData[msg.sender] = bytes(_data);\n        return true;\n    }\n    function showU() external view returns(string memory, uint256){\n        return(string(uData[msg.sender]),role[msg.sender]);\n    }\n    function withdrawToken(address _contract) external isAdmin() returns(bool){\n        Token20 = IERC20(_contract);  \n        Token20.transfer(msg.sender,Token20.balanceOf(address(this)));\n        return true;\n    }\n    function setMLQ(address _mlq) external returns(bool){\n        MLQ = IERC20(_mlq);\n        return true;\n    }\n    function divide(uint256 _a, uint256 _b) internal pure returns(uint256 res){\n        uint256 rem = _a % _b;\n        res = (_a - rem) / _b;\n    }\n    fallback() external{\n\n    }\n}\n\ncontract MLQ is ERC20, Init{\n    constructor() ERC20(\"Milq Token\",\"MLQ\") {\n        require(msg.sender == author || msg.sender == avax, \"not admin\");\n        role[msg.sender] = 99;\n        uData[msg.sender] = bytes('{\"username\":\"@stereoiii6\",\"email\":\"type.stereo@pm.me\"}');\n        maxSupply = 1000000 * 10 ** 18;\n        rate = 100;\n        mint(5000);\n    }\n    function mint(uint256 _amount) isOwner() internal returns(bool){\n        uint256 ts = totalSupply();\n        require((_amount * 10 ** 18) <= maxSupply - ts);\n        _mint(address(this), rate * _amount * 10 ** 18);\n        return true;\n    }\n    function buy() external payable returns(bool){\n        uint256 ts = totalSupply();\n        require((msg.value * rate) <= maxSupply - ts,\"supply\");\n        require(msg.value > 0,\"value\");\n\n        _mint(msg.sender,msg.value * rate);\n        return true;\n    }\n    function showSafeWallet() isAdmin() external view returns(uint256, uint256){\n        return (address(this).balance,balanceOf(address(this)));\n    }\n    function withdraw(uint256 _eth, uint256 _mlq) isAdmin() external returns(bool){\n        require(_mlq * 10 ** 18 <= balanceOf(address(this)));\n        require(_eth * 10 ** 18 <= address(this).balance);\n        transfer(payable(msg.sender), _mlq * 10 ** 18);\n        payable(msg.sender).transfer(_eth * 10 ** 18);\n        return true;\n    }\n}\n\ncontract MLQuidity is ERC1155, Init{\n    constructor() ERC1155(\"SHK\"){\n        require(msg.sender == author);\n        role[msg.sender] = 99;\n        uData[msg.sender] = bytes('{\"username\":\"@stereoiii6\",\"email\":\"type.stereo@pm.me\"}');\n        maxSupply = 100000 * 10 ** 18;\n        rate = 10;\n    }\n}",
  "sourcePath": "/Users/jediswag/Documents/GitHub/affilly8/contracts/MLQ.sol",
  "compiler": {
    "name": "solc",
    "version": "0.8.14+commit.80d49f37.Emscripten.clang"
  },
  "schemaVersion": "3.4.4",
  "updatedAt": "2022-05-28T20:33:49.121Z",
  "devdoc": {
    "kind": "dev",
    "methods": {
      "balanceOf(address,uint256)": {
        "details": "See {IERC1155-balanceOf}. Requirements: - `account` cannot be the zero address."
      },
      "balanceOfBatch(address[],uint256[])": {
        "details": "See {IERC1155-balanceOfBatch}. Requirements: - `accounts` and `ids` must have the same length."
      },
      "isApprovedForAll(address,address)": {
        "details": "See {IERC1155-isApprovedForAll}."
      },
      "safeBatchTransferFrom(address,address,uint256[],uint256[],bytes)": {
        "details": "See {IERC1155-safeBatchTransferFrom}."
      },
      "safeTransferFrom(address,address,uint256,uint256,bytes)": {
        "details": "See {IERC1155-safeTransferFrom}."
      },
      "setApprovalForAll(address,bool)": {
        "details": "See {IERC1155-setApprovalForAll}."
      },
      "supportsInterface(bytes4)": {
        "details": "See {IERC165-supportsInterface}."
      },
      "uri(uint256)": {
        "details": "See {IERC1155MetadataURI-uri}. This implementation returns the same URI for *all* token types. It relies on the token type ID substitution mechanism https://eips.ethereum.org/EIPS/eip-1155#metadata[defined in the EIP]. Clients calling this function must replace the `\\{id\\}` substring with the actual token type ID."
      }
    },
    "version": 1
  },
  "userdoc": {
    "kind": "user",
    "methods": {},
    "version": 1
  }
}