{
  "contractName": "NFT_Factory",
  "abi": [
    {
      "inputs": [],
      "stateMutability": "nonpayable",
      "type": "constructor"
    },
    {
      "inputs": [],
      "name": "contracts",
      "outputs": [
        {
          "internalType": "uint256",
          "name": "",
          "type": "uint256"
        }
      ],
      "stateMutability": "view",
      "type": "function",
      "constant": true
    },
    {
      "inputs": [
        {
          "internalType": "address",
          "name": "",
          "type": "address"
        }
      ],
      "name": "projectMap",
      "outputs": [
        {
          "internalType": "contract ERC721",
          "name": "",
          "type": "address"
        }
      ],
      "stateMutability": "view",
      "type": "function",
      "constant": true
    },
    {
      "inputs": [
        {
          "internalType": "uint256",
          "name": "",
          "type": "uint256"
        }
      ],
      "name": "projects",
      "outputs": [
        {
          "internalType": "address",
          "name": "",
          "type": "address"
        }
      ],
      "stateMutability": "view",
      "type": "function",
      "constant": true
    },
    {
      "inputs": [
        {
          "internalType": "address",
          "name": "_author",
          "type": "address"
        },
        {
          "internalType": "address",
          "name": "_avax",
          "type": "address"
        },
        {
          "internalType": "uint256",
          "name": "_max",
          "type": "uint256"
        },
        {
          "internalType": "string",
          "name": "_name",
          "type": "string"
        },
        {
          "internalType": "string",
          "name": "_sym",
          "type": "string"
        },
        {
          "internalType": "string",
          "name": "_uri",
          "type": "string"
        },
        {
          "internalType": "uint256",
          "name": "_n",
          "type": "uint256"
        },
        {
          "internalType": "uint256",
          "name": "_m",
          "type": "uint256"
        }
      ],
      "name": "makeProject",
      "outputs": [
        {
          "internalType": "address",
          "name": "",
          "type": "address"
        }
      ],
      "stateMutability": "nonpayable",
      "type": "function"
    }
  ],
  "bytecode": "0x608060405234801561001057600080fd5b50655af3107a40006003819055506145268061002d6000396000f3fe60806040523480156200001157600080fd5b5060043610620000525760003560e01c8063107046bd14620000575780636c0f79b6146200008d5780637258113d14620000af578063a61f5f0b14620000e5575b600080fd5b6200007560048036038101906200006f9190620003b1565b6200011b565b60405162000084919062000428565b60405180910390f35b620000976200014e565b604051620000a6919062000456565b60405180910390f35b620000cd6004803603810190620000c79190620004a4565b62000154565b604051620000dc919062000541565b60405180910390f35b620001036004803603810190620000fd9190620006c0565b62000187565b60405162000112919062000428565b60405180910390f35b60006020528060005260406000206000915054906101000a900473ffffffffffffffffffffffffffffffffffffffff1681565b60025481565b60016020528060005260406000206000915054906101000a900473ffffffffffffffffffffffffffffffffffffffff1681565b600088888888888888886040516200019f9062000354565b620001b298979695949392919062000879565b604051809103906000f080158015620001cf573d6000803e3d6000fd5b50600460006101000a81548173ffffffffffffffffffffffffffffffffffffffff021916908373ffffffffffffffffffffffffffffffffffffffff1602179055506000600460009054906101000a900473ffffffffffffffffffffffffffffffffffffffff16905080600080600254815260200190815260200160002060006101000a81548173ffffffffffffffffffffffffffffffffffffffff021916908373ffffffffffffffffffffffffffffffffffffffff160217905550600460009054906101000a900473ffffffffffffffffffffffffffffffffffffffff16600160008373ffffffffffffffffffffffffffffffffffffffff1673ffffffffffffffffffffffffffffffffffffffff16815260200190815260200160002060006101000a81548173ffffffffffffffffffffffffffffffffffffffff021916908373ffffffffffffffffffffffffffffffffffffffff160217905550600260008154809291906200033f906200094b565b91905055508091505098975050505050505050565b613b58806200099983390190565b6000604051905090565b600080fd5b600080fd5b6000819050919050565b6200038b8162000376565b81146200039757600080fd5b50565b600081359050620003ab8162000380565b92915050565b600060208284031215620003ca57620003c96200036c565b5b6000620003da848285016200039a565b91505092915050565b600073ffffffffffffffffffffffffffffffffffffffff82169050919050565b60006200041082620003e3565b9050919050565b620004228162000403565b82525050565b60006020820190506200043f600083018462000417565b92915050565b620004508162000376565b82525050565b60006020820190506200046d600083018462000445565b92915050565b6200047e8162000403565b81146200048a57600080fd5b50565b6000813590506200049e8162000473565b92915050565b600060208284031215620004bd57620004bc6200036c565b5b6000620004cd848285016200048d565b91505092915050565b6000819050919050565b600062000501620004fb620004f584620003e3565b620004d6565b620003e3565b9050919050565b60006200051582620004e0565b9050919050565b6000620005298262000508565b9050919050565b6200053b816200051c565b82525050565b600060208201905062000558600083018462000530565b92915050565b600080fd5b600080fd5b6000601f19601f8301169050919050565b7f4e487b7100000000000000000000000000000000000000000000000000000000600052604160045260246000fd5b620005b38262000568565b810181811067ffffffffffffffff82111715620005d557620005d462000579565b5b80604052505050565b6000620005ea62000362565b9050620005f88282620005a8565b919050565b600067ffffffffffffffff8211156200061b576200061a62000579565b5b620006268262000568565b9050602081019050919050565b82818337600083830152505050565b6000620006596200065384620005fd565b620005de565b90508281526020810184848401111562000678576200067762000563565b5b6200068584828562000633565b509392505050565b600082601f830112620006a557620006a46200055e565b5b8135620006b784826020860162000642565b91505092915050565b600080600080600080600080610100898b031215620006e457620006e36200036c565b5b6000620006f48b828c016200048d565b9850506020620007078b828c016200048d565b97505060406200071a8b828c016200039a565b965050606089013567ffffffffffffffff8111156200073e576200073d62000371565b5b6200074c8b828c016200068d565b955050608089013567ffffffffffffffff81111562000770576200076f62000371565b5b6200077e8b828c016200068d565b94505060a089013567ffffffffffffffff811115620007a257620007a162000371565b5b620007b08b828c016200068d565b93505060c0620007c38b828c016200039a565b92505060e0620007d68b828c016200039a565b9150509295985092959890939650565b600081519050919050565b600082825260208201905092915050565b60005b838110156200082257808201518184015260208101905062000805565b8381111562000832576000848401525b50505050565b60006200084582620007e6565b620008518185620007f1565b93506200086381856020860162000802565b6200086e8162000568565b840191505092915050565b60006101008201905062000891600083018b62000417565b620008a0602083018a62000417565b620008af604083018962000445565b8181036060830152620008c3818862000838565b90508181036080830152620008d9818762000838565b905081810360a0830152620008ef818662000838565b90506200090060c083018562000445565b6200090f60e083018462000445565b9998505050505050505050565b7f4e487b7100000000000000000000000000000000000000000000000000000000600052601160045260246000fd5b6000620009588262000376565b91507fffffffffffffffffffffffffffffffffffffffffffffffffffffffffffffffff82036200098d576200098c6200091c565b5b60018201905091905056fe60806040523480156200001157600080fd5b5060405162003b5838038062003b5883398181016040528101906200003791906200043c565b84848160009080519060200190620000519291906200014f565b5080600190805190602001906200006a9291906200014f565b50505087600860006101000a81548173ffffffffffffffffffffffffffffffffffffffff021916908373ffffffffffffffffffffffffffffffffffffffff16021790555086600960006101000a81548173ffffffffffffffffffffffffffffffffffffffff021916908373ffffffffffffffffffffffffffffffffffffffff16021790555085600e819055506001600d8190555082600f9080519060200190620001169291906200014f565b5081601262000126919062000591565b600a62000134919062000720565b601081905550806011819055505050505050505050620007d5565b8280546200015d90620007a0565b90600052602060002090601f016020900481019282620001815760008555620001cd565b82601f106200019c57805160ff1916838001178555620001cd565b82800160010185558215620001cd579182015b82811115620001cc578251825591602001919060010190620001af565b5b509050620001dc9190620001e0565b5090565b5b80821115620001fb576000816000905550600101620001e1565b5090565b6000604051905090565b600080fd5b600080fd5b600073ffffffffffffffffffffffffffffffffffffffff82169050919050565b6000620002408262000213565b9050919050565b620002528162000233565b81146200025e57600080fd5b50565b600081519050620002728162000247565b92915050565b6000819050919050565b6200028d8162000278565b81146200029957600080fd5b50565b600081519050620002ad8162000282565b92915050565b600080fd5b600080fd5b6000601f19601f8301169050919050565b7f4e487b7100000000000000000000000000000000000000000000000000000000600052604160045260246000fd5b6200030882620002bd565b810181811067ffffffffffffffff821117156200032a5762000329620002ce565b5b80604052505050565b60006200033f620001ff565b90506200034d8282620002fd565b919050565b600067ffffffffffffffff82111562000370576200036f620002ce565b5b6200037b82620002bd565b9050602081019050919050565b60005b83811015620003a85780820151818401526020810190506200038b565b83811115620003b8576000848401525b50505050565b6000620003d5620003cf8462000352565b62000333565b905082815260208101848484011115620003f457620003f3620002b8565b5b6200040184828562000388565b509392505050565b600082601f830112620004215762000420620002b3565b5b815162000433848260208601620003be565b91505092915050565b600080600080600080600080610100898b03121562000460576200045f62000209565b5b6000620004708b828c0162000261565b9850506020620004838b828c0162000261565b9750506040620004968b828c016200029c565b965050606089015167ffffffffffffffff811115620004ba57620004b96200020e565b5b620004c88b828c0162000409565b955050608089015167ffffffffffffffff811115620004ec57620004eb6200020e565b5b620004fa8b828c0162000409565b94505060a089015167ffffffffffffffff8111156200051e576200051d6200020e565b5b6200052c8b828c0162000409565b93505060c06200053f8b828c016200029c565b92505060e0620005528b828c016200029c565b9150509295985092959890939650565b7f4e487b7100000000000000000000000000000000000000000000000000000000600052601160045260246000fd5b60006200059e8262000278565b9150620005ab8362000278565b925082821015620005c157620005c062000562565b5b828203905092915050565b60008160011c9050919050565b6000808291508390505b60018511156200062b5780860481111562000603576200060262000562565b5b6001851615620006135780820291505b80810290506200062385620005cc565b9450620005e3565b94509492505050565b60008262000646576001905062000719565b8162000656576000905062000719565b81600181146200066f57600281146200067a57620006b0565b600191505062000719565b60ff8411156200068f576200068e62000562565b5b8360020a915084821115620006a957620006a862000562565b5b5062000719565b5060208310610133831016604e8410600b8410161715620006ea5782820a905083811115620006e457620006e362000562565b5b62000719565b620006f98484846001620005d9565b9250905081840481111562000713576200071262000562565b5b81810290505b9392505050565b60006200072d8262000278565b91506200073a8362000278565b9250620007697fffffffffffffffffffffffffffffffffffffffffffffffffffffffffffffffff848462000634565b905092915050565b7f4e487b7100000000000000000000000000000000000000000000000000000000600052602260045260246000fd5b60006002820490506001821680620007b957607f821691505b602082108103620007cf57620007ce62000771565b5b50919050565b61337380620007e56000396000f3fe6080604052600436106101395760003560e01c806370a08231116100ab578063a22cb4651161006f578063a22cb46514610456578063b88d4fde1461047f578063c7945de0146104a8578063c87b56dd146104d3578063cb4de94414610510578063e985e9c51461054d5761013a565b806370a08231146103565780637f71d94c14610393578063853828b6146103d057806386001cd1146103ee57806395d89b411461042b5761013a565b806323b872dd116100fd57806323b872dd146102345780632ddbd13a1461025d57806342842e0e1461028857806356c31637146102b15780636352211e146102ee5780636ac5db191461032b5761013a565b806301ffc9a71461014857806306fdde0314610185578063081812fc146101b0578063095ea7b3146101ed5780632004ffd9146102165761013a565b5b34801561014657600080fd5b005b34801561015457600080fd5b5061016f600480360381019061016a919061210d565b61058a565b60405161017c9190612155565b60405180910390f35b34801561019157600080fd5b5061019a61066c565b6040516101a79190612209565b60405180910390f35b3480156101bc57600080fd5b506101d760048036038101906101d29190612261565b6106fe565b6040516101e491906122cf565b60405180910390f35b3480156101f957600080fd5b50610214600480360381019061020f9190612316565b610783565b005b61021e61089a565b60405161022b9190612155565b60405180910390f35b34801561024057600080fd5b5061025b60048036038101906102569190612356565b610ac7565b005b34801561026957600080fd5b50610272610b27565b60405161027f91906123b8565b60405180910390f35b34801561029457600080fd5b506102af60048036038101906102aa9190612356565b610b2d565b005b3480156102bd57600080fd5b506102d860048036038101906102d391906123d3565b610b4d565b6040516102e59190612155565b60405180910390f35b3480156102fa57600080fd5b5061031560048036038101906103109190612261565b610b61565b60405161032291906122cf565b60405180910390f35b34801561033757600080fd5b50610340610c12565b60405161034d91906123b8565b60405180910390f35b34801561036257600080fd5b5061037d60048036038101906103789190612413565b610c18565b60405161038a91906123b8565b60405180910390f35b34801561039f57600080fd5b506103ba60048036038101906103b59190612413565b610ccf565b6040516103c791906123b8565b60405180910390f35b6103d8610ce7565b6040516103e59190612155565b60405180910390f35b3480156103fa57600080fd5b5061041560048036038101906104109190612316565b610e76565b60405161042291906123b8565b60405180910390f35b34801561043757600080fd5b50610440610e9b565b60405161044d9190612209565b60405180910390f35b34801561046257600080fd5b5061047d6004803603810190610478919061246c565b610f2d565b005b34801561048b57600080fd5b506104a660048036038101906104a191906125e1565b610f43565b005b3480156104b457600080fd5b506104bd610fa5565b6040516104ca9190612155565b60405180910390f35b3480156104df57600080fd5b506104fa60048036038101906104f59190612261565b61117e565b6040516105079190612209565b60405180910390f35b34801561051c57600080fd5b5061053760048036038101906105329190612261565b611337565b6040516105449190612209565b60405180910390f35b34801561055957600080fd5b50610574600480360381019061056f9190612664565b6113d7565b6040516105819190612155565b60405180910390f35b60007f80ac58cd000000000000000000000000000000000000000000000000000000007bffffffffffffffffffffffffffffffffffffffffffffffffffffffff1916827bffffffffffffffffffffffffffffffffffffffffffffffffffffffff1916148061065557507f5b5e139f000000000000000000000000000000000000000000000000000000007bffffffffffffffffffffffffffffffffffffffffffffffffffffffff1916827bffffffffffffffffffffffffffffffffffffffffffffffffffffffff1916145b8061066557506106648261146b565b5b9050919050565b60606000805461067b906126d3565b80601f01602080910402602001604051908101604052809291908181526020018280546106a7906126d3565b80156106f45780601f106106c9576101008083540402835291602001916106f4565b820191906000526020600020905b8154815290600101906020018083116106d757829003601f168201915b5050505050905090565b6000610709826114d5565b610748576040517f08c379a000000000000000000000000000000000000000000000000000000000815260040161073f90612776565b60405180910390fd5b6004600083815260200190815260200160002060009054906101000a900473ffffffffffffffffffffffffffffffffffffffff169050919050565b600061078e82610b61565b90508073ffffffffffffffffffffffffffffffffffffffff168373ffffffffffffffffffffffffffffffffffffffff16036107fe576040517f08c379a00000000000000000000000000000000000000000000000000000000081526004016107f590612808565b60405180910390fd5b8073ffffffffffffffffffffffffffffffffffffffff1661081d611541565b73ffffffffffffffffffffffffffffffffffffffff16148061084c575061084b81610846611541565b6113d7565b5b61088b576040517f08c379a00000000000000000000000000000000000000000000000000000000081526004016108829061289a565b60405180910390fd5b6108958383611549565b505050565b600060105460016108ab91906128e9565b3410156108ed576040517f08c379a00000000000000000000000000000000000000000000000000000000081526004016108e49061298f565b60405180910390fd5b601154600a60003373ffffffffffffffffffffffffffffffffffffffff1673ffffffffffffffffffffffffffffffffffffffff168152602001908152602001600020541115610971576040517f08c379a0000000000000000000000000000000000000000000000000000000008152600401610968906129fb565b60405180910390fd5b61097d33600d54611602565b610989333060016117cf565b610994600d5461117e565b600c6000600d54815260200190815260200160002090805190602001906109bc929190611ffe565b50600d54600b60003373ffffffffffffffffffffffffffffffffffffffff1673ffffffffffffffffffffffffffffffffffffffff1681526020019081526020016000206000600a60003373ffffffffffffffffffffffffffffffffffffffff1673ffffffffffffffffffffffffffffffffffffffff16815260200190815260200160002054815260200190815260200160002081905550600a60003373ffffffffffffffffffffffffffffffffffffffff1673ffffffffffffffffffffffffffffffffffffffff1681526020019081526020016000206000815480929190610aa390612a1b565b9190505550600d6000815480929190610abb90612a1b565b91905055506001905090565b610ad8610ad2611541565b8261193b565b610b17576040517f08c379a0000000000000000000000000000000000000000000000000000000008152600401610b0e90612ad5565b60405180910390fd5b610b22838383611a19565b505050565b600d5481565b610b4883838360405180602001604052806000815250610f43565b505050565b6000610b59828461193b565b905092915050565b6000806002600084815260200190815260200160002060009054906101000a900473ffffffffffffffffffffffffffffffffffffffff169050600073ffffffffffffffffffffffffffffffffffffffff168173ffffffffffffffffffffffffffffffffffffffff1603610c09576040517f08c379a0000000000000000000000000000000000000000000000000000000008152600401610c0090612b67565b60405180910390fd5b80915050919050565b600e5481565b60008073ffffffffffffffffffffffffffffffffffffffff168273ffffffffffffffffffffffffffffffffffffffff1603610c88576040517f08c379a0000000000000000000000000000000000000000000000000000000008152600401610c7f90612bf9565b60405180910390fd5b600360008373ffffffffffffffffffffffffffffffffffffffff1673ffffffffffffffffffffffffffffffffffffffff168152602001908152602001600020549050919050565b600a6020528060005260406000206000915090505481565b60003373ffffffffffffffffffffffffffffffffffffffff16600860009054906101000a900473ffffffffffffffffffffffffffffffffffffffff1673ffffffffffffffffffffffffffffffffffffffff1614610d79576040517f08c379a0000000000000000000000000000000000000000000000000000000008152600401610d7090612c65565b60405180910390fd5b6010546001610d8891906128e9565b600860009054906101000a900473ffffffffffffffffffffffffffffffffffffffff1673ffffffffffffffffffffffffffffffffffffffff16311015610dcd57600080fd5b600860009054906101000a900473ffffffffffffffffffffffffffffffffffffffff1673ffffffffffffffffffffffffffffffffffffffff166108fc600860009054906101000a900473ffffffffffffffffffffffffffffffffffffffff1673ffffffffffffffffffffffffffffffffffffffff16319081150290604051600060405180830381858888f19350505050158015610e6e573d6000803e3d6000fd5b506001905090565b600b602052816000526040600020602052806000526040600020600091509150505481565b606060018054610eaa906126d3565b80601f0160208091040260200160405190810160405280929190818152602001828054610ed6906126d3565b8015610f235780601f10610ef857610100808354040283529160200191610f23565b820191906000526020600020905b815481529060010190602001808311610f0657829003601f168201915b5050505050905090565b610f3f610f38611541565b83836117cf565b5050565b610f54610f4e611541565b8361193b565b610f93576040517f08c379a0000000000000000000000000000000000000000000000000000000008152600401610f8a90612ad5565b60405180910390fd5b610f9f84848484611c74565b50505050565b600080600a60003373ffffffffffffffffffffffffffffffffffffffff1673ffffffffffffffffffffffffffffffffffffffff1681526020019081526020016000205414611028576040517f08c379a000000000000000000000000000000000000000000000000000000000815260040161101f906129fb565b60405180910390fd5b61103433600d54611602565b611040333060016117cf565b61104b600d5461117e565b600c6000600d5481526020019081526020016000209080519060200190611073929190611ffe565b50600d54600b60003373ffffffffffffffffffffffffffffffffffffffff1673ffffffffffffffffffffffffffffffffffffffff1681526020019081526020016000206000600a60003373ffffffffffffffffffffffffffffffffffffffff1673ffffffffffffffffffffffffffffffffffffffff16815260200190815260200160002054815260200190815260200160002081905550600a60003373ffffffffffffffffffffffffffffffffffffffff1673ffffffffffffffffffffffffffffffffffffffff168152602001908152602001600020600081548092919061115a90612a1b565b9190505550600d600081548092919061117290612a1b565b91905055506001905090565b6060611189826114d5565b6111c8576040517f08c379a00000000000000000000000000000000000000000000000000000000081526004016111bf90612cf7565b60405180910390fd5b60006111d383611cd0565b905060006112a1600f80546111e7906126d3565b80601f0160208091040260200160405190810160405280929190818152602001828054611213906126d3565b80156112605780601f1061123557610100808354040283529160200191611260565b820191906000526020600020905b81548152906001019060200180831161124357829003601f168201915b50505050506040518060400160405280600181526020017f2f0000000000000000000000000000000000000000000000000000000000000081525084611e30565b9050600f80546112b0906126d3565b80601f01602080910402602001604051908101604052809291908181526020018280546112dc906126d3565b80156113295780601f106112fe57610100808354040283529160200191611329565b820191906000526020600020905b81548152906001019060200180831161130c57829003601f168201915b505050505092505050919050565b600c6020528060005260406000206000915090508054611356906126d3565b80601f0160208091040260200160405190810160405280929190818152602001828054611382906126d3565b80156113cf5780601f106113a4576101008083540402835291602001916113cf565b820191906000526020600020905b8154815290600101906020018083116113b257829003601f168201915b505050505081565b6000600560008473ffffffffffffffffffffffffffffffffffffffff1673ffffffffffffffffffffffffffffffffffffffff16815260200190815260200160002060008373ffffffffffffffffffffffffffffffffffffffff1673ffffffffffffffffffffffffffffffffffffffff16815260200190815260200160002060009054906101000a900460ff16905092915050565b60007f01ffc9a7000000000000000000000000000000000000000000000000000000007bffffffffffffffffffffffffffffffffffffffffffffffffffffffff1916827bffffffffffffffffffffffffffffffffffffffffffffffffffffffff1916149050919050565b60008073ffffffffffffffffffffffffffffffffffffffff166002600084815260200190815260200160002060009054906101000a900473ffffffffffffffffffffffffffffffffffffffff1673ffffffffffffffffffffffffffffffffffffffff1614159050919050565b600033905090565b816004600083815260200190815260200160002060006101000a81548173ffffffffffffffffffffffffffffffffffffffff021916908373ffffffffffffffffffffffffffffffffffffffff160217905550808273ffffffffffffffffffffffffffffffffffffffff166115bc83610b61565b73ffffffffffffffffffffffffffffffffffffffff167f8c5be1e5ebec7d5bd14f71427d1e84f3dd0314c0f7b2291e5b200ac8c7c3b92560405160405180910390a45050565b600073ffffffffffffffffffffffffffffffffffffffff168273ffffffffffffffffffffffffffffffffffffffff1603611671576040517f08c379a000000000000000000000000000000000000000000000000000000000815260040161166890612d63565b60405180910390fd5b61167a816114d5565b156116ba576040517f08c379a00000000000000000000000000000000000000000000000000000000081526004016116b190612dcf565b60405180910390fd5b6116c660008383611e5f565b6001600360008473ffffffffffffffffffffffffffffffffffffffff1673ffffffffffffffffffffffffffffffffffffffff16815260200190815260200160002060008282546117169190612def565b92505081905550816002600083815260200190815260200160002060006101000a81548173ffffffffffffffffffffffffffffffffffffffff021916908373ffffffffffffffffffffffffffffffffffffffff160217905550808273ffffffffffffffffffffffffffffffffffffffff16600073ffffffffffffffffffffffffffffffffffffffff167fddf252ad1be2c89b69c2b068fc378daa952ba7f163c4a11628f55a4df523b3ef60405160405180910390a45050565b8173ffffffffffffffffffffffffffffffffffffffff168373ffffffffffffffffffffffffffffffffffffffff160361183d576040517f08c379a000000000000000000000000000000000000000000000000000000000815260040161183490612e91565b60405180910390fd5b80600560008573ffffffffffffffffffffffffffffffffffffffff1673ffffffffffffffffffffffffffffffffffffffff16815260200190815260200160002060008473ffffffffffffffffffffffffffffffffffffffff1673ffffffffffffffffffffffffffffffffffffffff16815260200190815260200160002060006101000a81548160ff0219169083151502179055508173ffffffffffffffffffffffffffffffffffffffff168373ffffffffffffffffffffffffffffffffffffffff167f17307eab39ab6107e8899845ad3d59bd9653f200f220920489ca2b5937696c318360405161192e9190612155565b60405180910390a3505050565b6000611946826114d5565b611985576040517f08c379a000000000000000000000000000000000000000000000000000000000815260040161197c90612f23565b60405180910390fd5b600061199083610b61565b90508073ffffffffffffffffffffffffffffffffffffffff168473ffffffffffffffffffffffffffffffffffffffff1614806119ff57508373ffffffffffffffffffffffffffffffffffffffff166119e7846106fe565b73ffffffffffffffffffffffffffffffffffffffff16145b80611a105750611a0f81856113d7565b5b91505092915050565b8273ffffffffffffffffffffffffffffffffffffffff16611a3982610b61565b73ffffffffffffffffffffffffffffffffffffffff1614611a8f576040517f08c379a0000000000000000000000000000000000000000000000000000000008152600401611a8690612fb5565b60405180910390fd5b600073ffffffffffffffffffffffffffffffffffffffff168273ffffffffffffffffffffffffffffffffffffffff1603611afe576040517f08c379a0000000000000000000000000000000000000000000000000000000008152600401611af590613047565b60405180910390fd5b611b09838383611e5f565b611b14600082611549565b6001600360008573ffffffffffffffffffffffffffffffffffffffff1673ffffffffffffffffffffffffffffffffffffffff1681526020019081526020016000206000828254611b649190613067565b925050819055506001600360008473ffffffffffffffffffffffffffffffffffffffff1673ffffffffffffffffffffffffffffffffffffffff1681526020019081526020016000206000828254611bbb9190612def565b92505081905550816002600083815260200190815260200160002060006101000a81548173ffffffffffffffffffffffffffffffffffffffff021916908373ffffffffffffffffffffffffffffffffffffffff160217905550808273ffffffffffffffffffffffffffffffffffffffff168473ffffffffffffffffffffffffffffffffffffffff167fddf252ad1be2c89b69c2b068fc378daa952ba7f163c4a11628f55a4df523b3ef60405160405180910390a4505050565b611c7f848484611a19565b611c8b84848484611e64565b611cca576040517f08c379a0000000000000000000000000000000000000000000000000000000008152600401611cc19061310d565b60405180910390fd5b50505050565b606060008203611d17576040518060400160405280600181526020017f30000000000000000000000000000000000000000000000000000000000000008152509050611e2b565b600082905060005b60008214611d49578080611d3290612a1b565b915050600a82611d42919061315c565b9150611d1f565b60008167ffffffffffffffff811115611d6557611d646124b6565b5b6040519080825280601f01601f191660200182016040528015611d975781602001600182028036833780820191505090505b5090505b60008514611e2457600182611db09190613067565b9150600a85611dbf919061318d565b6030611dcb9190612def565b60f81b818381518110611de157611de06131be565b5b60200101907effffffffffffffffffffffffffffffffffffffffffffffffffffffffffffff1916908160001a905350600a85611e1d919061315c565b9450611d9b565b8093505050505b919050565b6060838383604051602001611e4793929190613229565b60405160208183030381529060405290509392505050565b505050565b6000611e858473ffffffffffffffffffffffffffffffffffffffff16611feb565b15611fde578373ffffffffffffffffffffffffffffffffffffffff1663150b7a02611eae611541565b8786866040518563ffffffff1660e01b8152600401611ed094939291906132af565b6020604051808303816000875af1925050508015611f0c57506040513d601f19601f82011682018060405250810190611f099190613310565b60015b611f8e573d8060008114611f3c576040519150601f19603f3d011682016040523d82523d6000602084013e611f41565b606091505b506000815103611f86576040517f08c379a0000000000000000000000000000000000000000000000000000000008152600401611f7d9061310d565b60405180910390fd5b805181602001fd5b63150b7a0260e01b7bffffffffffffffffffffffffffffffffffffffffffffffffffffffff1916817bffffffffffffffffffffffffffffffffffffffffffffffffffffffff191614915050611fe3565b600190505b949350505050565b600080823b905060008111915050919050565b82805461200a906126d3565b90600052602060002090601f01602090048101928261202c5760008555612073565b82601f1061204557805160ff1916838001178555612073565b82800160010185558215612073579182015b82811115612072578251825591602001919060010190612057565b5b5090506120809190612084565b5090565b5b8082111561209d576000816000905550600101612085565b5090565b6000604051905090565b600080fd5b600080fd5b60007fffffffff0000000000000000000000000000000000000000000000000000000082169050919050565b6120ea816120b5565b81146120f557600080fd5b50565b600081359050612107816120e1565b92915050565b600060208284031215612123576121226120ab565b5b6000612131848285016120f8565b91505092915050565b60008115159050919050565b61214f8161213a565b82525050565b600060208201905061216a6000830184612146565b92915050565b600081519050919050565b600082825260208201905092915050565b60005b838110156121aa57808201518184015260208101905061218f565b838111156121b9576000848401525b50505050565b6000601f19601f8301169050919050565b60006121db82612170565b6121e5818561217b565b93506121f581856020860161218c565b6121fe816121bf565b840191505092915050565b6000602082019050818103600083015261222381846121d0565b905092915050565b6000819050919050565b61223e8161222b565b811461224957600080fd5b50565b60008135905061225b81612235565b92915050565b600060208284031215612277576122766120ab565b5b60006122858482850161224c565b91505092915050565b600073ffffffffffffffffffffffffffffffffffffffff82169050919050565b60006122b98261228e565b9050919050565b6122c9816122ae565b82525050565b60006020820190506122e460008301846122c0565b92915050565b6122f3816122ae565b81146122fe57600080fd5b50565b600081359050612310816122ea565b92915050565b6000806040838503121561232d5761232c6120ab565b5b600061233b85828601612301565b925050602061234c8582860161224c565b9150509250929050565b60008060006060848603121561236f5761236e6120ab565b5b600061237d86828701612301565b935050602061238e86828701612301565b925050604061239f8682870161224c565b9150509250925092565b6123b28161222b565b82525050565b60006020820190506123cd60008301846123a9565b92915050565b600080604083850312156123ea576123e96120ab565b5b60006123f88582860161224c565b925050602061240985828601612301565b9150509250929050565b600060208284031215612429576124286120ab565b5b600061243784828501612301565b91505092915050565b6124498161213a565b811461245457600080fd5b50565b60008135905061246681612440565b92915050565b60008060408385031215612483576124826120ab565b5b600061249185828601612301565b92505060206124a285828601612457565b9150509250929050565b600080fd5b600080fd5b7f4e487b7100000000000000000000000000000000000000000000000000000000600052604160045260246000fd5b6124ee826121bf565b810181811067ffffffffffffffff8211171561250d5761250c6124b6565b5b80604052505050565b60006125206120a1565b905061252c82826124e5565b919050565b600067ffffffffffffffff82111561254c5761254b6124b6565b5b612555826121bf565b9050602081019050919050565b82818337600083830152505050565b600061258461257f84612531565b612516565b9050828152602081018484840111156125a05761259f6124b1565b5b6125ab848285612562565b509392505050565b600082601f8301126125c8576125c76124ac565b5b81356125d8848260208601612571565b91505092915050565b600080600080608085870312156125fb576125fa6120ab565b5b600061260987828801612301565b945050602061261a87828801612301565b935050604061262b8782880161224c565b925050606085013567ffffffffffffffff81111561264c5761264b6120b0565b5b612658878288016125b3565b91505092959194509250565b6000806040838503121561267b5761267a6120ab565b5b600061268985828601612301565b925050602061269a85828601612301565b9150509250929050565b7f4e487b7100000000000000000000000000000000000000000000000000000000600052602260045260246000fd5b600060028204905060018216806126eb57607f821691505b6020821081036126fe576126fd6126a4565b5b50919050565b7f4552433732313a20617070726f76656420717565727920666f72206e6f6e657860008201527f697374656e7420746f6b656e0000000000000000000000000000000000000000602082015250565b6000612760602c8361217b565b915061276b82612704565b604082019050919050565b6000602082019050818103600083015261278f81612753565b9050919050565b7f4552433732313a20617070726f76616c20746f2063757272656e74206f776e6560008201527f7200000000000000000000000000000000000000000000000000000000000000602082015250565b60006127f260218361217b565b91506127fd82612796565b604082019050919050565b60006020820190508181036000830152612821816127e5565b9050919050565b7f4552433732313a20617070726f76652063616c6c6572206973206e6f74206f7760008201527f6e6572206e6f7220617070726f76656420666f7220616c6c0000000000000000602082015250565b600061288460388361217b565b915061288f82612828565b604082019050919050565b600060208201905081810360008301526128b381612877565b9050919050565b7f4e487b7100000000000000000000000000000000000000000000000000000000600052601160045260246000fd5b60006128f48261222b565b91506128ff8361222b565b9250817fffffffffffffffffffffffffffffffffffffffffffffffffffffffffffffffff0483118215151615612938576129376128ba565b5b828202905092915050565b7f696e737566696369656e742062616c616e6365202e2e2e000000000000000000600082015250565b600061297960178361217b565b915061298482612943565b602082019050919050565b600060208201905081810360008301526129a88161296c565b9050919050565b7f6d6178206c696d69742072656163686564202e2e2e0000000000000000000000600082015250565b60006129e560158361217b565b91506129f0826129af565b602082019050919050565b60006020820190508181036000830152612a14816129d8565b9050919050565b6000612a268261222b565b91507fffffffffffffffffffffffffffffffffffffffffffffffffffffffffffffffff8203612a5857612a576128ba565b5b600182019050919050565b7f4552433732313a207472616e736665722063616c6c6572206973206e6f74206f60008201527f776e6572206e6f7220617070726f766564000000000000000000000000000000602082015250565b6000612abf60318361217b565b9150612aca82612a63565b604082019050919050565b60006020820190508181036000830152612aee81612ab2565b9050919050565b7f4552433732313a206f776e657220717565727920666f72206e6f6e657869737460008201527f656e7420746f6b656e0000000000000000000000000000000000000000000000602082015250565b6000612b5160298361217b565b9150612b5c82612af5565b604082019050919050565b60006020820190508181036000830152612b8081612b44565b9050919050565b7f4552433732313a2062616c616e636520717565727920666f7220746865207a6560008201527f726f206164647265737300000000000000000000000000000000000000000000602082015250565b6000612be3602a8361217b565b9150612bee82612b87565b604082019050919050565b60006020820190508181036000830152612c1281612bd6565b9050919050565b7f6e6f7420617574686f72697a6564202e2e2e0000000000000000000000000000600082015250565b6000612c4f60128361217b565b9150612c5a82612c19565b602082019050919050565b60006020820190508181036000830152612c7e81612c42565b9050919050565b7f45524337323155524953746f726167653a2055524920717565727920666f722060008201527f6e6f6e6578697374656e7420746f6b656e000000000000000000000000000000602082015250565b6000612ce160318361217b565b9150612cec82612c85565b604082019050919050565b60006020820190508181036000830152612d1081612cd4565b9050919050565b7f4552433732313a206d696e7420746f20746865207a65726f2061646472657373600082015250565b6000612d4d60208361217b565b9150612d5882612d17565b602082019050919050565b60006020820190508181036000830152612d7c81612d40565b9050919050565b7f4552433732313a20746f6b656e20616c7265616479206d696e74656400000000600082015250565b6000612db9601c8361217b565b9150612dc482612d83565b602082019050919050565b60006020820190508181036000830152612de881612dac565b9050919050565b6000612dfa8261222b565b9150612e058361222b565b9250827fffffffffffffffffffffffffffffffffffffffffffffffffffffffffffffffff03821115612e3a57612e396128ba565b5b828201905092915050565b7f4552433732313a20617070726f766520746f2063616c6c657200000000000000600082015250565b6000612e7b60198361217b565b9150612e8682612e45565b602082019050919050565b60006020820190508181036000830152612eaa81612e6e565b9050919050565b7f4552433732313a206f70657261746f7220717565727920666f72206e6f6e657860008201527f697374656e7420746f6b656e0000000000000000000000000000000000000000602082015250565b6000612f0d602c8361217b565b9150612f1882612eb1565b604082019050919050565b60006020820190508181036000830152612f3c81612f00565b9050919050565b7f4552433732313a207472616e73666572206f6620746f6b656e2074686174206960008201527f73206e6f74206f776e0000000000000000000000000000000000000000000000602082015250565b6000612f9f60298361217b565b9150612faa82612f43565b604082019050919050565b60006020820190508181036000830152612fce81612f92565b9050919050565b7f4552433732313a207472616e7366657220746f20746865207a65726f2061646460008201527f7265737300000000000000000000000000000000000000000000000000000000602082015250565b600061303160248361217b565b915061303c82612fd5565b604082019050919050565b6000602082019050818103600083015261306081613024565b9050919050565b60006130728261222b565b915061307d8361222b565b9250828210156130905761308f6128ba565b5b828203905092915050565b7f4552433732313a207472616e7366657220746f206e6f6e20455243373231526560008201527f63656976657220696d706c656d656e7465720000000000000000000000000000602082015250565b60006130f760328361217b565b91506131028261309b565b604082019050919050565b60006020820190508181036000830152613126816130ea565b9050919050565b7f4e487b7100000000000000000000000000000000000000000000000000000000600052601260045260246000fd5b60006131678261222b565b91506131728361222b565b9250826131825761318161312d565b5b828204905092915050565b60006131988261222b565b91506131a38361222b565b9250826131b3576131b261312d565b5b828206905092915050565b7f4e487b7100000000000000000000000000000000000000000000000000000000600052603260045260246000fd5b600081905092915050565b600061320382612170565b61320d81856131ed565b935061321d81856020860161218c565b80840191505092915050565b600061323582866131f8565b915061324182856131f8565b915061324d82846131f8565b9150819050949350505050565b600081519050919050565b600082825260208201905092915050565b60006132818261325a565b61328b8185613265565b935061329b81856020860161218c565b6132a4816121bf565b840191505092915050565b60006080820190506132c460008301876122c0565b6132d160208301866122c0565b6132de60408301856123a9565b81810360608301526132f08184613276565b905095945050505050565b60008151905061330a816120e1565b92915050565b600060208284031215613326576133256120ab565b5b6000613334848285016132fb565b9150509291505056fea2646970667358221220ff046daab08d7724c55751ebe6e4c3dfc3d30668a4bf9f2eabf0b844a2ff2dea64736f6c634300080e0033a2646970667358221220983ca684ca6c85076b6f85869f3dd9d2540550b7602409d8fc689c3a80c5da6064736f6c634300080e0033",
  "immutableReferences": {},
  "source": "// SPDX-License-Identifier: GPL-3.0\n// // // // // // // // // // // // // // // // // // // // // // // // // // // // // // // // // // // // // // // // // // // // // // // // // // // // // // // // // // // // //\n//   \n//                                                 \n//      \n//      \n//\n// // // // // // // // // // // // // // // // // // // // // // // // // // // // // // // // // // // // // // // // // // // // // // // // // // // // // // // // // // // // //\n//                                                                                                                                                                                  //\n//                                                                                                                                                                                  //\n//                                                                                                                                                                                  //\n//                                                                                                                                                                                  //\n//                                                                                                                                                                                  //\n//      @artist ::          stereoIII6.eth                                                                                                                                          //\n//      @msg ::             stereoIII6.eth.chat                                                                                                                                     //\n//      @github ::          stereoIII6                                                                                                                                              //\n//                                                                                                                                                                                  //\n//      @dev ::             stereoIII6.eth                                                                                                                                          //\n//      @msg ::             stereoIII6.eth.chat                                                                                                                                     //\n//      @github ::          stereoIII6                                                                                                                                              //\n//                                                                                                                                                                                  //\n//      @author ::          stereoIII6.eth                                                                                                                                          //\n//      @msg ::             stereoIII6.eth.chat                                                                                                                                     //\n//      @github ::          stereoIII6                                                                                                                                              //\n//                                                                                                                                                                                  //\n//                                                                                                                                                                                  //\n//                                                                                                                                                                                  //\n// // // // // // // // // // // // // // // // // // // // // // // // // // // // // // // // // // // // // // // // // // // // // // // // // // // // // // // // // // // // //\n//                                                                                                                                                                                  //\n// // // // // // // // // // // // // // // // // // // // // // // // // // // // // // // // // // // // // // // // // // // // // // // // // // // // // // // // // // // // //\n//                                                                                                                                                                                  //\n//                                                                                                                                                                                  //\n//      @title ::           safe contract                                                                                                                                           //\n//      @description ::     Decentral Social Network Experiment                                                                                                                     //\n//      @version ::         0.0.1                                                                                                                                                   //\n//      @purpose ::         Bring real life into the Blockchain                                                                                                                     //\n//                                                                                                                                                                                  //\n//                                                                                                                                                                                  //\n//                                                                                                                                                                                  //\n//                                                                                                                                                                                  //\n//                                                                                                                                                                                  //\n// // // // // // // // // // // // // // // // // // // // // // // // // // // // // // // // // // // // // // // // // // // // // // // // // // // // // // // // // // // // //\n\n\n\npragma solidity ^0.8.3;\nimport \"@openzeppelin/contracts/token/ERC721/ERC721.sol\";\nimport \"./NFT_Project.sol\";\n\ncontract NFT_Factory {\n\n    mapping(uint256 => address) public projects;\n    mapping(address => ERC721) public projectMap;\n    uint256 public contracts;\n    uint256 internal digits;\n    // ERC721 internal project;\n    NFT_Project internal project;\n\n    constructor() {\n        digits = 10 ** 14;\n    }\n\n    function makeProject(address _author, address _avax,uint256 _max, string memory _name, string memory _sym, string memory _uri, uint256 _n, uint256 _m) external returns(address){\n        project = new NFT_Project(_author, _avax, _max, _name, _sym, _uri, _n, _m);\n        address a = address(project);\n        projects[contracts] = a;\n        projectMap[a] = project;\n        contracts++;\n        return a;\n    } \n\n}\n\n\n",
  "sourcePath": "/Users/jediswag/Documents/GitHub/affilly8/contracts/NFT_Factory.sol",
  "compiler": {
    "name": "solc",
    "version": "0.8.14+commit.80d49f37.Emscripten.clang"
  },
  "schemaVersion": "3.4.4",
  "updatedAt": "2022-05-30T06:09:22.319Z",
  "networkType": "ethereum",
  "devdoc": {
    "kind": "dev",
    "methods": {},
    "version": 1
  },
  "userdoc": {
    "kind": "user",
    "methods": {},
    "version": 1
  }
}