{
  "contractName": "NFT_Factory",
  "abi": [
    {
      "inputs": [],
      "stateMutability": "nonpayable",
      "type": "constructor"
    },
    {
      "inputs": [],
      "name": "contracts",
      "outputs": [
        {
          "internalType": "uint256",
          "name": "",
          "type": "uint256"
        }
      ],
      "stateMutability": "view",
      "type": "function",
      "constant": true
    },
    {
      "inputs": [
        {
          "internalType": "address",
          "name": "",
          "type": "address"
        }
      ],
      "name": "projectMap",
      "outputs": [
        {
          "internalType": "contract ERC721",
          "name": "",
          "type": "address"
        }
      ],
      "stateMutability": "view",
      "type": "function",
      "constant": true
    },
    {
      "inputs": [
        {
          "internalType": "uint256",
          "name": "",
          "type": "uint256"
        }
      ],
      "name": "projects",
      "outputs": [
        {
          "internalType": "address",
          "name": "",
          "type": "address"
        }
      ],
      "stateMutability": "view",
      "type": "function",
      "constant": true
    },
    {
      "inputs": [
        {
          "internalType": "address",
          "name": "_author",
          "type": "address"
        },
        {
          "internalType": "uint256",
          "name": "_max",
          "type": "uint256"
        },
        {
          "internalType": "string",
          "name": "_name",
          "type": "string"
        },
        {
          "internalType": "string",
          "name": "_sym",
          "type": "string"
        },
        {
          "internalType": "string",
          "name": "_uri",
          "type": "string"
        },
        {
          "internalType": "uint256",
          "name": "_n",
          "type": "uint256"
        },
        {
          "internalType": "uint256",
          "name": "_m",
          "type": "uint256"
        }
      ],
      "name": "makeProject",
      "outputs": [
        {
          "internalType": "address",
          "name": "",
          "type": "address"
        }
      ],
      "stateMutability": "nonpayable",
      "type": "function"
    }
  ],
  "bytecode": "0x608060405234801561001057600080fd5b50655af3107a40006003819055506144618061002d6000396000f3fe60806040523480156200001157600080fd5b5060043610620000525760003560e01c8063107046bd14620000575780636c0f79b6146200008d5780637258113d14620000af5780639f8bdcd814620000e5575b600080fd5b6200007560048036038101906200006f9190620003ae565b6200011b565b60405162000084919062000425565b60405180910390f35b620000976200014e565b604051620000a6919062000453565b60405180910390f35b620000cd6004803603810190620000c79190620004a1565b62000154565b604051620000dc91906200053e565b60405180910390f35b620001036004803603810190620000fd9190620006bd565b62000187565b60405162000112919062000425565b60405180910390f35b60006020528060005260406000206000915054906101000a900473ffffffffffffffffffffffffffffffffffffffff1681565b60025481565b60016020528060005260406000206000915054906101000a900473ffffffffffffffffffffffffffffffffffffffff1681565b6000878787878787876040516200019e9062000351565b620001b0979695949392919062000860565b604051809103906000f080158015620001cd573d6000803e3d6000fd5b50600460006101000a81548173ffffffffffffffffffffffffffffffffffffffff021916908373ffffffffffffffffffffffffffffffffffffffff1602179055506000600460009054906101000a900473ffffffffffffffffffffffffffffffffffffffff16905080600080600254815260200190815260200160002060006101000a81548173ffffffffffffffffffffffffffffffffffffffff021916908373ffffffffffffffffffffffffffffffffffffffff160217905550600460009054906101000a900473ffffffffffffffffffffffffffffffffffffffff16600160008373ffffffffffffffffffffffffffffffffffffffff1673ffffffffffffffffffffffffffffffffffffffff16815260200190815260200160002060006101000a81548173ffffffffffffffffffffffffffffffffffffffff021916908373ffffffffffffffffffffffffffffffffffffffff160217905550600260008154809291906200033d9062000921565b919050555080915050979650505050505050565b613abd806200096f83390190565b6000604051905090565b600080fd5b600080fd5b6000819050919050565b620003888162000373565b81146200039457600080fd5b50565b600081359050620003a8816200037d565b92915050565b600060208284031215620003c757620003c662000369565b5b6000620003d78482850162000397565b91505092915050565b600073ffffffffffffffffffffffffffffffffffffffff82169050919050565b60006200040d82620003e0565b9050919050565b6200041f8162000400565b82525050565b60006020820190506200043c600083018462000414565b92915050565b6200044d8162000373565b82525050565b60006020820190506200046a600083018462000442565b92915050565b6200047b8162000400565b81146200048757600080fd5b50565b6000813590506200049b8162000470565b92915050565b600060208284031215620004ba57620004b962000369565b5b6000620004ca848285016200048a565b91505092915050565b6000819050919050565b6000620004fe620004f8620004f284620003e0565b620004d3565b620003e0565b9050919050565b60006200051282620004dd565b9050919050565b6000620005268262000505565b9050919050565b620005388162000519565b82525050565b60006020820190506200055560008301846200052d565b92915050565b600080fd5b600080fd5b6000601f19601f8301169050919050565b7f4e487b7100000000000000000000000000000000000000000000000000000000600052604160045260246000fd5b620005b08262000565565b810181811067ffffffffffffffff82111715620005d257620005d162000576565b5b80604052505050565b6000620005e76200035f565b9050620005f58282620005a5565b919050565b600067ffffffffffffffff82111562000618576200061762000576565b5b620006238262000565565b9050602081019050919050565b82818337600083830152505050565b6000620006566200065084620005fa565b620005db565b90508281526020810184848401111562000675576200067462000560565b5b6200068284828562000630565b509392505050565b600082601f830112620006a257620006a16200055b565b5b8135620006b48482602086016200063f565b91505092915050565b600080600080600080600060e0888a031215620006df57620006de62000369565b5b6000620006ef8a828b016200048a565b9750506020620007028a828b0162000397565b965050604088013567ffffffffffffffff8111156200072657620007256200036e565b5b620007348a828b016200068a565b955050606088013567ffffffffffffffff8111156200075857620007576200036e565b5b620007668a828b016200068a565b945050608088013567ffffffffffffffff8111156200078a57620007896200036e565b5b620007988a828b016200068a565b93505060a0620007ab8a828b0162000397565b92505060c0620007be8a828b0162000397565b91505092959891949750929550565b600081519050919050565b600082825260208201905092915050565b60005b8381101562000809578082015181840152602081019050620007ec565b8381111562000819576000848401525b50505050565b60006200082c82620007cd565b620008388185620007d8565b93506200084a818560208601620007e9565b620008558162000565565b840191505092915050565b600060e08201905062000877600083018a62000414565b62000886602083018962000442565b81810360408301526200089a81886200081f565b90508181036060830152620008b081876200081f565b90508181036080830152620008c681866200081f565b9050620008d760a083018562000442565b620008e660c083018462000442565b98975050505050505050565b7f4e487b7100000000000000000000000000000000000000000000000000000000600052601160045260246000fd5b60006200092e8262000373565b91507fffffffffffffffffffffffffffffffffffffffffffffffffffffffffffffffff8203620009635762000962620008f2565b5b60018201905091905056fe60806040523480156200001157600080fd5b5060405162003abd38038062003abd8339818101604052810190620000379190620003fa565b84848160009080519060200190620000519291906200010d565b5080600190805190602001906200006a9291906200010d565b50505086600860006101000a81548173ffffffffffffffffffffffffffffffffffffffff021916908373ffffffffffffffffffffffffffffffffffffffff16021790555085600d819055506001600c8190555082600e9080519060200190620000d59291906200010d565b50816012620000e5919062000539565b600a620000f39190620006c8565b600f8190555080601081905550505050505050506200077d565b8280546200011b9062000748565b90600052602060002090601f0160209004810192826200013f57600085556200018b565b82601f106200015a57805160ff19168380011785556200018b565b828001600101855582156200018b579182015b828111156200018a5782518255916020019190600101906200016d565b5b5090506200019a91906200019e565b5090565b5b80821115620001b95760008160009055506001016200019f565b5090565b6000604051905090565b600080fd5b600080fd5b600073ffffffffffffffffffffffffffffffffffffffff82169050919050565b6000620001fe82620001d1565b9050919050565b6200021081620001f1565b81146200021c57600080fd5b50565b600081519050620002308162000205565b92915050565b6000819050919050565b6200024b8162000236565b81146200025757600080fd5b50565b6000815190506200026b8162000240565b92915050565b600080fd5b600080fd5b6000601f19601f8301169050919050565b7f4e487b7100000000000000000000000000000000000000000000000000000000600052604160045260246000fd5b620002c6826200027b565b810181811067ffffffffffffffff82111715620002e857620002e76200028c565b5b80604052505050565b6000620002fd620001bd565b90506200030b8282620002bb565b919050565b600067ffffffffffffffff8211156200032e576200032d6200028c565b5b62000339826200027b565b9050602081019050919050565b60005b838110156200036657808201518184015260208101905062000349565b8381111562000376576000848401525b50505050565b6000620003936200038d8462000310565b620002f1565b905082815260208101848484011115620003b257620003b162000276565b5b620003bf84828562000346565b509392505050565b600082601f830112620003df57620003de62000271565b5b8151620003f18482602086016200037c565b91505092915050565b600080600080600080600060e0888a0312156200041c576200041b620001c7565b5b60006200042c8a828b016200021f565b97505060206200043f8a828b016200025a565b965050604088015167ffffffffffffffff811115620004635762000462620001cc565b5b620004718a828b01620003c7565b955050606088015167ffffffffffffffff811115620004955762000494620001cc565b5b620004a38a828b01620003c7565b945050608088015167ffffffffffffffff811115620004c757620004c6620001cc565b5b620004d58a828b01620003c7565b93505060a0620004e88a828b016200025a565b92505060c0620004fb8a828b016200025a565b91505092959891949750929550565b7f4e487b7100000000000000000000000000000000000000000000000000000000600052601160045260246000fd5b6000620005468262000236565b9150620005538362000236565b9250828210156200056957620005686200050a565b5b828203905092915050565b60008160011c9050919050565b6000808291508390505b6001851115620005d357808604811115620005ab57620005aa6200050a565b5b6001851615620005bb5780820291505b8081029050620005cb8562000574565b94506200058b565b94509492505050565b600082620005ee5760019050620006c1565b81620005fe5760009050620006c1565b8160018114620006175760028114620006225762000658565b6001915050620006c1565b60ff8411156200063757620006366200050a565b5b8360020a9150848211156200065157620006506200050a565b5b50620006c1565b5060208310610133831016604e8410600b8410161715620006925782820a9050838111156200068c576200068b6200050a565b5b620006c1565b620006a1848484600162000581565b92509050818404811115620006bb57620006ba6200050a565b5b81810290505b9392505050565b6000620006d58262000236565b9150620006e28362000236565b9250620007117fffffffffffffffffffffffffffffffffffffffffffffffffffffffffffffffff8484620005dc565b905092915050565b7f4e487b7100000000000000000000000000000000000000000000000000000000600052602260045260246000fd5b600060028204905060018216806200076157607f821691505b60208210810362000777576200077662000719565b5b50919050565b613330806200078d6000396000f3fe6080604052600436106101395760003560e01c80637910867b116100ab578063a22cb4651161006f578063a22cb46514610456578063b88d4fde1461047f578063c7945de0146104a8578063c87b56dd146104d3578063cb4de94414610510578063e985e9c51461054d5761013a565b80637910867b146103565780637f71d94c14610393578063853828b6146103d057806386001cd1146103ee57806395d89b411461042b5761013a565b806323b872dd116100fd57806323b872dd146102345780632ddbd13a1461025d57806342842e0e146102885780636352211e146102b15780636ac5db19146102ee57806370a08231146103195761013a565b806301ffc9a71461014857806306fdde0314610185578063081812fc146101b0578063095ea7b3146101ed5780632004ffd9146102165761013a565b5b34801561014657600080fd5b005b34801561015457600080fd5b5061016f600480360381019061016a919061210a565b61058a565b60405161017c9190612152565b60405180910390f35b34801561019157600080fd5b5061019a61066c565b6040516101a79190612206565b60405180910390f35b3480156101bc57600080fd5b506101d760048036038101906101d2919061225e565b6106fe565b6040516101e491906122cc565b60405180910390f35b3480156101f957600080fd5b50610214600480360381019061020f9190612313565b610783565b005b61021e61089a565b60405161022b9190612152565b60405180910390f35b34801561024057600080fd5b5061025b60048036038101906102569190612353565b610ac6565b005b34801561026957600080fd5b50610272610b26565b60405161027f91906123b5565b60405180910390f35b34801561029457600080fd5b506102af60048036038101906102aa9190612353565b610b2c565b005b3480156102bd57600080fd5b506102d860048036038101906102d3919061225e565b610b4c565b6040516102e591906122cc565b60405180910390f35b3480156102fa57600080fd5b50610303610bfd565b60405161031091906123b5565b60405180910390f35b34801561032557600080fd5b50610340600480360381019061033b91906123d0565b610c03565b60405161034d91906123b5565b60405180910390f35b34801561036257600080fd5b5061037d6004803603810190610378919061225e565b610cba565b60405161038a9190612152565b60405180910390f35b34801561039f57600080fd5b506103ba60048036038101906103b591906123d0565b610ccd565b6040516103c791906123b5565b60405180910390f35b6103d8610ce5565b6040516103e59190612152565b60405180910390f35b3480156103fa57600080fd5b5061041560048036038101906104109190612313565b610e74565b60405161042291906123b5565b60405180910390f35b34801561043757600080fd5b50610440610e99565b60405161044d9190612206565b60405180910390f35b34801561046257600080fd5b5061047d60048036038101906104789190612429565b610f2b565b005b34801561048b57600080fd5b506104a660048036038101906104a1919061259e565b610f41565b005b3480156104b457600080fd5b506104bd610fa3565b6040516104ca9190612152565b60405180910390f35b3480156104df57600080fd5b506104fa60048036038101906104f5919061225e565b61117b565b6040516105079190612206565b60405180910390f35b34801561051c57600080fd5b506105376004803603810190610532919061225e565b611334565b6040516105449190612206565b60405180910390f35b34801561055957600080fd5b50610574600480360381019061056f9190612621565b6113d4565b6040516105819190612152565b60405180910390f35b60007f80ac58cd000000000000000000000000000000000000000000000000000000007bffffffffffffffffffffffffffffffffffffffffffffffffffffffff1916827bffffffffffffffffffffffffffffffffffffffffffffffffffffffff1916148061065557507f5b5e139f000000000000000000000000000000000000000000000000000000007bffffffffffffffffffffffffffffffffffffffffffffffffffffffff1916827bffffffffffffffffffffffffffffffffffffffffffffffffffffffff1916145b80610665575061066482611468565b5b9050919050565b60606000805461067b90612690565b80601f01602080910402602001604051908101604052809291908181526020018280546106a790612690565b80156106f45780601f106106c9576101008083540402835291602001916106f4565b820191906000526020600020905b8154815290600101906020018083116106d757829003601f168201915b5050505050905090565b6000610709826114d2565b610748576040517f08c379a000000000000000000000000000000000000000000000000000000000815260040161073f90612733565b60405180910390fd5b6004600083815260200190815260200160002060009054906101000a900473ffffffffffffffffffffffffffffffffffffffff169050919050565b600061078e82610b4c565b90508073ffffffffffffffffffffffffffffffffffffffff168373ffffffffffffffffffffffffffffffffffffffff16036107fe576040517f08c379a00000000000000000000000000000000000000000000000000000000081526004016107f5906127c5565b60405180910390fd5b8073ffffffffffffffffffffffffffffffffffffffff1661081d61153e565b73ffffffffffffffffffffffffffffffffffffffff16148061084c575061084b8161084661153e565b6113d4565b5b61088b576040517f08c379a000000000000000000000000000000000000000000000000000000000815260040161088290612857565b60405180910390fd5b6108958383611546565b505050565b6000600f5460016108ab91906128a6565b3410156108ed576040517f08c379a00000000000000000000000000000000000000000000000000000000081526004016108e49061294c565b60405180910390fd5b601054600960003373ffffffffffffffffffffffffffffffffffffffff1673ffffffffffffffffffffffffffffffffffffffff168152602001908152602001600020541115610971576040517f08c379a0000000000000000000000000000000000000000000000000000000008152600401610968906129b8565b60405180910390fd5b61097d33600c546115ff565b610988336001610f2b565b610993600c5461117b565b600b6000600c54815260200190815260200160002090805190602001906109bb929190611ffb565b50600c54600a60003373ffffffffffffffffffffffffffffffffffffffff1673ffffffffffffffffffffffffffffffffffffffff1681526020019081526020016000206000600960003373ffffffffffffffffffffffffffffffffffffffff1673ffffffffffffffffffffffffffffffffffffffff16815260200190815260200160002054815260200190815260200160002081905550600960003373ffffffffffffffffffffffffffffffffffffffff1673ffffffffffffffffffffffffffffffffffffffff1681526020019081526020016000206000815480929190610aa2906129d8565b9190505550600c6000815480929190610aba906129d8565b91905055506001905090565b610ad7610ad161153e565b826117cc565b610b16576040517f08c379a0000000000000000000000000000000000000000000000000000000008152600401610b0d90612a92565b60405180910390fd5b610b218383836118aa565b505050565b600c5481565b610b4783838360405180602001604052806000815250610f41565b505050565b6000806002600084815260200190815260200160002060009054906101000a900473ffffffffffffffffffffffffffffffffffffffff169050600073ffffffffffffffffffffffffffffffffffffffff168173ffffffffffffffffffffffffffffffffffffffff1603610bf4576040517f08c379a0000000000000000000000000000000000000000000000000000000008152600401610beb90612b24565b60405180910390fd5b80915050919050565b600d5481565b60008073ffffffffffffffffffffffffffffffffffffffff168273ffffffffffffffffffffffffffffffffffffffff1603610c73576040517f08c379a0000000000000000000000000000000000000000000000000000000008152600401610c6a90612bb6565b60405180910390fd5b600360008373ffffffffffffffffffffffffffffffffffffffff1673ffffffffffffffffffffffffffffffffffffffff168152602001908152602001600020549050919050565b6000610cc633836117cc565b9050919050565b60096020528060005260406000206000915090505481565b60003373ffffffffffffffffffffffffffffffffffffffff16600860009054906101000a900473ffffffffffffffffffffffffffffffffffffffff1673ffffffffffffffffffffffffffffffffffffffff1614610d77576040517f08c379a0000000000000000000000000000000000000000000000000000000008152600401610d6e90612c22565b60405180910390fd5b600f546001610d8691906128a6565b600860009054906101000a900473ffffffffffffffffffffffffffffffffffffffff1673ffffffffffffffffffffffffffffffffffffffff16311015610dcb57600080fd5b600860009054906101000a900473ffffffffffffffffffffffffffffffffffffffff1673ffffffffffffffffffffffffffffffffffffffff166108fc600860009054906101000a900473ffffffffffffffffffffffffffffffffffffffff1673ffffffffffffffffffffffffffffffffffffffff16319081150290604051600060405180830381858888f19350505050158015610e6c573d6000803e3d6000fd5b506001905090565b600a602052816000526040600020602052806000526040600020600091509150505481565b606060018054610ea890612690565b80601f0160208091040260200160405190810160405280929190818152602001828054610ed490612690565b8015610f215780601f10610ef657610100808354040283529160200191610f21565b820191906000526020600020905b815481529060010190602001808311610f0457829003601f168201915b5050505050905090565b610f3d610f3661153e565b8383611b05565b5050565b610f52610f4c61153e565b836117cc565b610f91576040517f08c379a0000000000000000000000000000000000000000000000000000000008152600401610f8890612a92565b60405180910390fd5b610f9d84848484611c71565b50505050565b600080600960003373ffffffffffffffffffffffffffffffffffffffff1673ffffffffffffffffffffffffffffffffffffffff1681526020019081526020016000205414611026576040517f08c379a000000000000000000000000000000000000000000000000000000000815260040161101d906129b8565b60405180910390fd5b61103233600c546115ff565b61103d336001610f2b565b611048600c5461117b565b600b6000600c5481526020019081526020016000209080519060200190611070929190611ffb565b50600c54600a60003373ffffffffffffffffffffffffffffffffffffffff1673ffffffffffffffffffffffffffffffffffffffff1681526020019081526020016000206000600960003373ffffffffffffffffffffffffffffffffffffffff1673ffffffffffffffffffffffffffffffffffffffff16815260200190815260200160002054815260200190815260200160002081905550600960003373ffffffffffffffffffffffffffffffffffffffff1673ffffffffffffffffffffffffffffffffffffffff1681526020019081526020016000206000815480929190611157906129d8565b9190505550600c600081548092919061116f906129d8565b91905055506001905090565b6060611186826114d2565b6111c5576040517f08c379a00000000000000000000000000000000000000000000000000000000081526004016111bc90612cb4565b60405180910390fd5b60006111d083611ccd565b9050600061129e600e80546111e490612690565b80601f016020809104026020016040519081016040528092919081815260200182805461121090612690565b801561125d5780601f106112325761010080835404028352916020019161125d565b820191906000526020600020905b81548152906001019060200180831161124057829003601f168201915b50505050506040518060400160405280600181526020017f2f0000000000000000000000000000000000000000000000000000000000000081525084611e2d565b9050600e80546112ad90612690565b80601f01602080910402602001604051908101604052809291908181526020018280546112d990612690565b80156113265780601f106112fb57610100808354040283529160200191611326565b820191906000526020600020905b81548152906001019060200180831161130957829003601f168201915b505050505092505050919050565b600b602052806000526040600020600091509050805461135390612690565b80601f016020809104026020016040519081016040528092919081815260200182805461137f90612690565b80156113cc5780601f106113a1576101008083540402835291602001916113cc565b820191906000526020600020905b8154815290600101906020018083116113af57829003601f168201915b505050505081565b6000600560008473ffffffffffffffffffffffffffffffffffffffff1673ffffffffffffffffffffffffffffffffffffffff16815260200190815260200160002060008373ffffffffffffffffffffffffffffffffffffffff1673ffffffffffffffffffffffffffffffffffffffff16815260200190815260200160002060009054906101000a900460ff16905092915050565b60007f01ffc9a7000000000000000000000000000000000000000000000000000000007bffffffffffffffffffffffffffffffffffffffffffffffffffffffff1916827bffffffffffffffffffffffffffffffffffffffffffffffffffffffff1916149050919050565b60008073ffffffffffffffffffffffffffffffffffffffff166002600084815260200190815260200160002060009054906101000a900473ffffffffffffffffffffffffffffffffffffffff1673ffffffffffffffffffffffffffffffffffffffff1614159050919050565b600033905090565b816004600083815260200190815260200160002060006101000a81548173ffffffffffffffffffffffffffffffffffffffff021916908373ffffffffffffffffffffffffffffffffffffffff160217905550808273ffffffffffffffffffffffffffffffffffffffff166115b983610b4c565b73ffffffffffffffffffffffffffffffffffffffff167f8c5be1e5ebec7d5bd14f71427d1e84f3dd0314c0f7b2291e5b200ac8c7c3b92560405160405180910390a45050565b600073ffffffffffffffffffffffffffffffffffffffff168273ffffffffffffffffffffffffffffffffffffffff160361166e576040517f08c379a000000000000000000000000000000000000000000000000000000000815260040161166590612d20565b60405180910390fd5b611677816114d2565b156116b7576040517f08c379a00000000000000000000000000000000000000000000000000000000081526004016116ae90612d8c565b60405180910390fd5b6116c360008383611e5c565b6001600360008473ffffffffffffffffffffffffffffffffffffffff1673ffffffffffffffffffffffffffffffffffffffff16815260200190815260200160002060008282546117139190612dac565b92505081905550816002600083815260200190815260200160002060006101000a81548173ffffffffffffffffffffffffffffffffffffffff021916908373ffffffffffffffffffffffffffffffffffffffff160217905550808273ffffffffffffffffffffffffffffffffffffffff16600073ffffffffffffffffffffffffffffffffffffffff167fddf252ad1be2c89b69c2b068fc378daa952ba7f163c4a11628f55a4df523b3ef60405160405180910390a45050565b60006117d7826114d2565b611816576040517f08c379a000000000000000000000000000000000000000000000000000000000815260040161180d90612e74565b60405180910390fd5b600061182183610b4c565b90508073ffffffffffffffffffffffffffffffffffffffff168473ffffffffffffffffffffffffffffffffffffffff16148061189057508373ffffffffffffffffffffffffffffffffffffffff16611878846106fe565b73ffffffffffffffffffffffffffffffffffffffff16145b806118a157506118a081856113d4565b5b91505092915050565b8273ffffffffffffffffffffffffffffffffffffffff166118ca82610b4c565b73ffffffffffffffffffffffffffffffffffffffff1614611920576040517f08c379a000000000000000000000000000000000000000000000000000000000815260040161191790612f06565b60405180910390fd5b600073ffffffffffffffffffffffffffffffffffffffff168273ffffffffffffffffffffffffffffffffffffffff160361198f576040517f08c379a000000000000000000000000000000000000000000000000000000000815260040161198690612f98565b60405180910390fd5b61199a838383611e5c565b6119a5600082611546565b6001600360008573ffffffffffffffffffffffffffffffffffffffff1673ffffffffffffffffffffffffffffffffffffffff16815260200190815260200160002060008282546119f59190612fb8565b925050819055506001600360008473ffffffffffffffffffffffffffffffffffffffff1673ffffffffffffffffffffffffffffffffffffffff1681526020019081526020016000206000828254611a4c9190612dac565b92505081905550816002600083815260200190815260200160002060006101000a81548173ffffffffffffffffffffffffffffffffffffffff021916908373ffffffffffffffffffffffffffffffffffffffff160217905550808273ffffffffffffffffffffffffffffffffffffffff168473ffffffffffffffffffffffffffffffffffffffff167fddf252ad1be2c89b69c2b068fc378daa952ba7f163c4a11628f55a4df523b3ef60405160405180910390a4505050565b8173ffffffffffffffffffffffffffffffffffffffff168373ffffffffffffffffffffffffffffffffffffffff1603611b73576040517f08c379a0000000000000000000000000000000000000000000000000000000008152600401611b6a90613038565b60405180910390fd5b80600560008573ffffffffffffffffffffffffffffffffffffffff1673ffffffffffffffffffffffffffffffffffffffff16815260200190815260200160002060008473ffffffffffffffffffffffffffffffffffffffff1673ffffffffffffffffffffffffffffffffffffffff16815260200190815260200160002060006101000a81548160ff0219169083151502179055508173ffffffffffffffffffffffffffffffffffffffff168373ffffffffffffffffffffffffffffffffffffffff167f17307eab39ab6107e8899845ad3d59bd9653f200f220920489ca2b5937696c3183604051611c649190612152565b60405180910390a3505050565b611c7c8484846118aa565b611c8884848484611e61565b611cc7576040517f08c379a0000000000000000000000000000000000000000000000000000000008152600401611cbe906130ca565b60405180910390fd5b50505050565b606060008203611d14576040518060400160405280600181526020017f30000000000000000000000000000000000000000000000000000000000000008152509050611e28565b600082905060005b60008214611d46578080611d2f906129d8565b915050600a82611d3f9190613119565b9150611d1c565b60008167ffffffffffffffff811115611d6257611d61612473565b5b6040519080825280601f01601f191660200182016040528015611d945781602001600182028036833780820191505090505b5090505b60008514611e2157600182611dad9190612fb8565b9150600a85611dbc919061314a565b6030611dc89190612dac565b60f81b818381518110611dde57611ddd61317b565b5b60200101907effffffffffffffffffffffffffffffffffffffffffffffffffffffffffffff1916908160001a905350600a85611e1a9190613119565b9450611d98565b8093505050505b919050565b6060838383604051602001611e44939291906131e6565b60405160208183030381529060405290509392505050565b505050565b6000611e828473ffffffffffffffffffffffffffffffffffffffff16611fe8565b15611fdb578373ffffffffffffffffffffffffffffffffffffffff1663150b7a02611eab61153e565b8786866040518563ffffffff1660e01b8152600401611ecd949392919061326c565b6020604051808303816000875af1925050508015611f0957506040513d601f19601f82011682018060405250810190611f0691906132cd565b60015b611f8b573d8060008114611f39576040519150601f19603f3d011682016040523d82523d6000602084013e611f3e565b606091505b506000815103611f83576040517f08c379a0000000000000000000000000000000000000000000000000000000008152600401611f7a906130ca565b60405180910390fd5b805181602001fd5b63150b7a0260e01b7bffffffffffffffffffffffffffffffffffffffffffffffffffffffff1916817bffffffffffffffffffffffffffffffffffffffffffffffffffffffff191614915050611fe0565b600190505b949350505050565b600080823b905060008111915050919050565b82805461200790612690565b90600052602060002090601f0160209004810192826120295760008555612070565b82601f1061204257805160ff1916838001178555612070565b82800160010185558215612070579182015b8281111561206f578251825591602001919060010190612054565b5b50905061207d9190612081565b5090565b5b8082111561209a576000816000905550600101612082565b5090565b6000604051905090565b600080fd5b600080fd5b60007fffffffff0000000000000000000000000000000000000000000000000000000082169050919050565b6120e7816120b2565b81146120f257600080fd5b50565b600081359050612104816120de565b92915050565b6000602082840312156121205761211f6120a8565b5b600061212e848285016120f5565b91505092915050565b60008115159050919050565b61214c81612137565b82525050565b60006020820190506121676000830184612143565b92915050565b600081519050919050565b600082825260208201905092915050565b60005b838110156121a757808201518184015260208101905061218c565b838111156121b6576000848401525b50505050565b6000601f19601f8301169050919050565b60006121d88261216d565b6121e28185612178565b93506121f2818560208601612189565b6121fb816121bc565b840191505092915050565b6000602082019050818103600083015261222081846121cd565b905092915050565b6000819050919050565b61223b81612228565b811461224657600080fd5b50565b60008135905061225881612232565b92915050565b600060208284031215612274576122736120a8565b5b600061228284828501612249565b91505092915050565b600073ffffffffffffffffffffffffffffffffffffffff82169050919050565b60006122b68261228b565b9050919050565b6122c6816122ab565b82525050565b60006020820190506122e160008301846122bd565b92915050565b6122f0816122ab565b81146122fb57600080fd5b50565b60008135905061230d816122e7565b92915050565b6000806040838503121561232a576123296120a8565b5b6000612338858286016122fe565b925050602061234985828601612249565b9150509250929050565b60008060006060848603121561236c5761236b6120a8565b5b600061237a868287016122fe565b935050602061238b868287016122fe565b925050604061239c86828701612249565b9150509250925092565b6123af81612228565b82525050565b60006020820190506123ca60008301846123a6565b92915050565b6000602082840312156123e6576123e56120a8565b5b60006123f4848285016122fe565b91505092915050565b61240681612137565b811461241157600080fd5b50565b600081359050612423816123fd565b92915050565b600080604083850312156124405761243f6120a8565b5b600061244e858286016122fe565b925050602061245f85828601612414565b9150509250929050565b600080fd5b600080fd5b7f4e487b7100000000000000000000000000000000000000000000000000000000600052604160045260246000fd5b6124ab826121bc565b810181811067ffffffffffffffff821117156124ca576124c9612473565b5b80604052505050565b60006124dd61209e565b90506124e982826124a2565b919050565b600067ffffffffffffffff82111561250957612508612473565b5b612512826121bc565b9050602081019050919050565b82818337600083830152505050565b600061254161253c846124ee565b6124d3565b90508281526020810184848401111561255d5761255c61246e565b5b61256884828561251f565b509392505050565b600082601f83011261258557612584612469565b5b813561259584826020860161252e565b91505092915050565b600080600080608085870312156125b8576125b76120a8565b5b60006125c6878288016122fe565b94505060206125d7878288016122fe565b93505060406125e887828801612249565b925050606085013567ffffffffffffffff811115612609576126086120ad565b5b61261587828801612570565b91505092959194509250565b60008060408385031215612638576126376120a8565b5b6000612646858286016122fe565b9250506020612657858286016122fe565b9150509250929050565b7f4e487b7100000000000000000000000000000000000000000000000000000000600052602260045260246000fd5b600060028204905060018216806126a857607f821691505b6020821081036126bb576126ba612661565b5b50919050565b7f4552433732313a20617070726f76656420717565727920666f72206e6f6e657860008201527f697374656e7420746f6b656e0000000000000000000000000000000000000000602082015250565b600061271d602c83612178565b9150612728826126c1565b604082019050919050565b6000602082019050818103600083015261274c81612710565b9050919050565b7f4552433732313a20617070726f76616c20746f2063757272656e74206f776e6560008201527f7200000000000000000000000000000000000000000000000000000000000000602082015250565b60006127af602183612178565b91506127ba82612753565b604082019050919050565b600060208201905081810360008301526127de816127a2565b9050919050565b7f4552433732313a20617070726f76652063616c6c6572206973206e6f74206f7760008201527f6e6572206e6f7220617070726f76656420666f7220616c6c0000000000000000602082015250565b6000612841603883612178565b915061284c826127e5565b604082019050919050565b6000602082019050818103600083015261287081612834565b9050919050565b7f4e487b7100000000000000000000000000000000000000000000000000000000600052601160045260246000fd5b60006128b182612228565b91506128bc83612228565b9250817fffffffffffffffffffffffffffffffffffffffffffffffffffffffffffffffff04831182151516156128f5576128f4612877565b5b828202905092915050565b7f696e737566696369656e742062616c616e6365202e2e2e000000000000000000600082015250565b6000612936601783612178565b915061294182612900565b602082019050919050565b6000602082019050818103600083015261296581612929565b9050919050565b7f6d6178206c696d69742072656163686564202e2e2e0000000000000000000000600082015250565b60006129a2601583612178565b91506129ad8261296c565b602082019050919050565b600060208201905081810360008301526129d181612995565b9050919050565b60006129e382612228565b91507fffffffffffffffffffffffffffffffffffffffffffffffffffffffffffffffff8203612a1557612a14612877565b5b600182019050919050565b7f4552433732313a207472616e736665722063616c6c6572206973206e6f74206f60008201527f776e6572206e6f7220617070726f766564000000000000000000000000000000602082015250565b6000612a7c603183612178565b9150612a8782612a20565b604082019050919050565b60006020820190508181036000830152612aab81612a6f565b9050919050565b7f4552433732313a206f776e657220717565727920666f72206e6f6e657869737460008201527f656e7420746f6b656e0000000000000000000000000000000000000000000000602082015250565b6000612b0e602983612178565b9150612b1982612ab2565b604082019050919050565b60006020820190508181036000830152612b3d81612b01565b9050919050565b7f4552433732313a2062616c616e636520717565727920666f7220746865207a6560008201527f726f206164647265737300000000000000000000000000000000000000000000602082015250565b6000612ba0602a83612178565b9150612bab82612b44565b604082019050919050565b60006020820190508181036000830152612bcf81612b93565b9050919050565b7f6e6f7420617574686f72697a6564202e2e2e0000000000000000000000000000600082015250565b6000612c0c601283612178565b9150612c1782612bd6565b602082019050919050565b60006020820190508181036000830152612c3b81612bff565b9050919050565b7f45524337323155524953746f726167653a2055524920717565727920666f722060008201527f6e6f6e6578697374656e7420746f6b656e000000000000000000000000000000602082015250565b6000612c9e603183612178565b9150612ca982612c42565b604082019050919050565b60006020820190508181036000830152612ccd81612c91565b9050919050565b7f4552433732313a206d696e7420746f20746865207a65726f2061646472657373600082015250565b6000612d0a602083612178565b9150612d1582612cd4565b602082019050919050565b60006020820190508181036000830152612d3981612cfd565b9050919050565b7f4552433732313a20746f6b656e20616c7265616479206d696e74656400000000600082015250565b6000612d76601c83612178565b9150612d8182612d40565b602082019050919050565b60006020820190508181036000830152612da581612d69565b9050919050565b6000612db782612228565b9150612dc283612228565b9250827fffffffffffffffffffffffffffffffffffffffffffffffffffffffffffffffff03821115612df757612df6612877565b5b828201905092915050565b7f4552433732313a206f70657261746f7220717565727920666f72206e6f6e657860008201527f697374656e7420746f6b656e0000000000000000000000000000000000000000602082015250565b6000612e5e602c83612178565b9150612e6982612e02565b604082019050919050565b60006020820190508181036000830152612e8d81612e51565b9050919050565b7f4552433732313a207472616e73666572206f6620746f6b656e2074686174206960008201527f73206e6f74206f776e0000000000000000000000000000000000000000000000602082015250565b6000612ef0602983612178565b9150612efb82612e94565b604082019050919050565b60006020820190508181036000830152612f1f81612ee3565b9050919050565b7f4552433732313a207472616e7366657220746f20746865207a65726f2061646460008201527f7265737300000000000000000000000000000000000000000000000000000000602082015250565b6000612f82602483612178565b9150612f8d82612f26565b604082019050919050565b60006020820190508181036000830152612fb181612f75565b9050919050565b6000612fc382612228565b9150612fce83612228565b925082821015612fe157612fe0612877565b5b828203905092915050565b7f4552433732313a20617070726f766520746f2063616c6c657200000000000000600082015250565b6000613022601983612178565b915061302d82612fec565b602082019050919050565b6000602082019050818103600083015261305181613015565b9050919050565b7f4552433732313a207472616e7366657220746f206e6f6e20455243373231526560008201527f63656976657220696d706c656d656e7465720000000000000000000000000000602082015250565b60006130b4603283612178565b91506130bf82613058565b604082019050919050565b600060208201905081810360008301526130e3816130a7565b9050919050565b7f4e487b7100000000000000000000000000000000000000000000000000000000600052601260045260246000fd5b600061312482612228565b915061312f83612228565b92508261313f5761313e6130ea565b5b828204905092915050565b600061315582612228565b915061316083612228565b9250826131705761316f6130ea565b5b828206905092915050565b7f4e487b7100000000000000000000000000000000000000000000000000000000600052603260045260246000fd5b600081905092915050565b60006131c08261216d565b6131ca81856131aa565b93506131da818560208601612189565b80840191505092915050565b60006131f282866131b5565b91506131fe82856131b5565b915061320a82846131b5565b9150819050949350505050565b600081519050919050565b600082825260208201905092915050565b600061323e82613217565b6132488185613222565b9350613258818560208601612189565b613261816121bc565b840191505092915050565b600060808201905061328160008301876122bd565b61328e60208301866122bd565b61329b60408301856123a6565b81810360608301526132ad8184613233565b905095945050505050565b6000815190506132c7816120de565b92915050565b6000602082840312156132e3576132e26120a8565b5b60006132f1848285016132b8565b9150509291505056fea2646970667358221220295b42cd7750b7ab80a56e335f46d07fb538334a588b2208c113f019a1546ee064736f6c634300080e0033a26469706673582212201429746c22b8e95b4a96eba5de24eaa228869281351a4df4dc4984602090aac164736f6c634300080e0033",
  "immutableReferences": {},
  "source": "// SPDX-License-Identifier: GPL-3.0\n// // // // // // // // // // // // // // // // // // // // // // // // // // // // // // // // // // // // // // // // // // // // // // // // // // // // // // // // // // // // //\n//   \n//                                                 \n//      \n//      \n//\n// // // // // // // // // // // // // // // // // // // // // // // // // // // // // // // // // // // // // // // // // // // // // // // // // // // // // // // // // // // // //\n//                                                                                                                                                                                  //\n//                                                                                                                                                                                  //\n//                                                                                                                                                                                  //\n//                                                                                                                                                                                  //\n//                                                                                                                                                                                  //\n//      @artist ::          stereoIII6.eth                                                                                                                                          //\n//      @msg ::             stereoIII6.eth.chat                                                                                                                                     //\n//      @github ::          stereoIII6                                                                                                                                              //\n//                                                                                                                                                                                  //\n//      @dev ::             stereoIII6.eth                                                                                                                                          //\n//      @msg ::             stereoIII6.eth.chat                                                                                                                                     //\n//      @github ::          stereoIII6                                                                                                                                              //\n//                                                                                                                                                                                  //\n//      @author ::          stereoIII6.eth                                                                                                                                          //\n//      @msg ::             stereoIII6.eth.chat                                                                                                                                     //\n//      @github ::          stereoIII6                                                                                                                                              //\n//                                                                                                                                                                                  //\n//                                                                                                                                                                                  //\n//                                                                                                                                                                                  //\n// // // // // // // // // // // // // // // // // // // // // // // // // // // // // // // // // // // // // // // // // // // // // // // // // // // // // // // // // // // // //\n//                                                                                                                                                                                  //\n// // // // // // // // // // // // // // // // // // // // // // // // // // // // // // // // // // // // // // // // // // // // // // // // // // // // // // // // // // // // //\n//                                                                                                                                                                                  //\n//                                                                                                                                                                                  //\n//      @title ::           safe contract                                                                                                                                           //\n//      @description ::     Decentral Social Network Experiment                                                                                                                     //\n//      @version ::         0.0.1                                                                                                                                                   //\n//      @purpose ::         Bring real life into the Blockchain                                                                                                                     //\n//                                                                                                                                                                                  //\n//                                                                                                                                                                                  //\n//                                                                                                                                                                                  //\n//                                                                                                                                                                                  //\n//                                                                                                                                                                                  //\n// // // // // // // // // // // // // // // // // // // // // // // // // // // // // // // // // // // // // // // // // // // // // // // // // // // // // // // // // // // // //\n\n\n\npragma solidity ^0.8.3;\nimport \"@openzeppelin/contracts/token/ERC721/ERC721.sol\";\nimport \"./NFT_Project.sol\";\n\ncontract NFT_Factory {\n\n    mapping(uint256 => address) public projects;\n    mapping(address => ERC721) public projectMap;\n    uint256 public contracts;\n    uint256 internal digits;\n    // ERC721 internal project;\n    NFT_Project internal project;\n\n    constructor() {\n        digits = 10 ** 14;\n    }\n\n    function makeProject(address _author, uint256 _max, string memory _name, string memory _sym, string memory _uri, uint256 _n, uint256 _m) external returns(address){\n        project = new NFT_Project(_author, _max, _name, _sym, _uri, _n, _m);\n        address a = address(project);\n        projects[contracts] = a;\n        projectMap[a] = project;\n        contracts++;\n        return a;\n    } \n\n}\n\n\n",
  "sourcePath": "/Users/jediswag/Documents/GitHub/affilly8/contracts/NFT_Factory.sol",
  "compiler": {
    "name": "solc",
    "version": "0.8.14+commit.80d49f37.Emscripten.clang"
  },
  "schemaVersion": "3.4.4",
  "updatedAt": "2022-05-28T05:11:06.967Z",
  "networkType": "ethereum",
  "devdoc": {
    "kind": "dev",
    "methods": {},
    "version": 1
  },
  "userdoc": {
    "kind": "user",
    "methods": {},
    "version": 1
  }
}