{
  "contractName": "PriceConsumerV3",
  "abi": [
    {
      "inputs": [],
      "stateMutability": "nonpayable",
      "type": "constructor"
    },
    {
      "inputs": [],
      "name": "EthUsdPrice",
      "outputs": [
        {
          "internalType": "int256",
          "name": "",
          "type": "int256"
        }
      ],
      "stateMutability": "view",
      "type": "function"
    }
  ],
  "bytecode": "0x608060405234801561001057600080fd5b50732a3796273d47c4ed363b361d3aefb7f7e2a137826000806101000a81548173ffffffffffffffffffffffffffffffffffffffff021916908373ffffffffffffffffffffffffffffffffffffffff16021790555061027b806100746000396000f3fe608060405234801561001057600080fd5b506004361061002b5760003560e01c8063b447b0a514610030575b600080fd5b61003861004e565b6040516100459190610106565b60405180910390f35b60008060008054906101000a900473ffffffffffffffffffffffffffffffffffffffff1673ffffffffffffffffffffffffffffffffffffffff1663feaf968c6040518163ffffffff1660e01b815260040160a060405180830381865afa1580156100bc573d6000803e3d6000fd5b505050506040513d601f19601f820116820180604052508101906100e091906101ca565b5050509150508091505090565b6000819050919050565b610100816100ed565b82525050565b600060208201905061011b60008301846100f7565b92915050565b600080fd5b600069ffffffffffffffffffff82169050919050565b61014581610126565b811461015057600080fd5b50565b6000815190506101628161013c565b92915050565b610171816100ed565b811461017c57600080fd5b50565b60008151905061018e81610168565b92915050565b6000819050919050565b6101a781610194565b81146101b257600080fd5b50565b6000815190506101c48161019e565b92915050565b600080600080600060a086880312156101e6576101e5610121565b5b60006101f488828901610153565b95505060206102058882890161017f565b9450506040610216888289016101b5565b9350506060610227888289016101b5565b925050608061023888828901610153565b915050929550929590935056fea2646970667358221220fe857596f3fd8cc0418ac03d18861edbd0265204bd81751ff3c2d71272371cab64736f6c634300080e0033",
  "immutableReferences": {},
  "source": "// SPDX-License-Identifier: MIT\npragma solidity ^0.8.7;\n\nimport \"@chainlink/contracts/src/v0.8/interfaces/AggregatorV3Interface.sol\";\n\ncontract PriceConsumerV3 {\n\n    AggregatorV3Interface internal priceFeed;\n\n    constructor() {\n        priceFeed = AggregatorV3Interface(0x2A3796273d47c4eD363b361D3AEFb7F7E2A13782);\n    }\n\n    /**\n     * Returns the latest price\n     */\n    function EthUsdPrice() public view returns (int) {\n        (\n            /*uint80 roundID*/,\n            int price,\n            /*uint startedAt*/,\n            /*uint timeStamp*/,\n            /*uint80 answeredInRound*/\n        ) = priceFeed.latestRoundData();\n        return price;\n    }\n}",
  "sourcePath": "/Users/jediswag/Documents/GitHub/affilly8/contracts/PriceConsumerV3.sol",
  "compiler": {
    "name": "solc",
    "version": "0.8.14+commit.80d49f37.Emscripten.clang"
  },
  "schemaVersion": "3.4.4",
  "updatedAt": "2022-05-28T03:09:46.559Z",
  "devdoc": {
    "kind": "dev",
    "methods": {},
    "version": 1
  },
  "userdoc": {
    "kind": "user",
    "methods": {
      "EthUsdPrice()": {
        "notice": "Returns the latest price"
      }
    },
    "version": 1
  }
}