{
  "contractName": "PriceConsumerV3",
  "abi": [
    {
      "inputs": [
        {
          "internalType": "address",
          "name": "_adr",
          "type": "address"
        }
      ],
      "stateMutability": "nonpayable",
      "type": "constructor"
    },
    {
      "inputs": [],
      "name": "EthUsdPrice",
      "outputs": [
        {
          "internalType": "int256",
          "name": "",
          "type": "int256"
        }
      ],
      "stateMutability": "view",
      "type": "function"
    }
  ],
  "bytecode": "0x608060405234801561001057600080fd5b50604051610392380380610392833981810160405281019061003291906100db565b806000806101000a81548173ffffffffffffffffffffffffffffffffffffffff021916908373ffffffffffffffffffffffffffffffffffffffff16021790555050610108565b600080fd5b600073ffffffffffffffffffffffffffffffffffffffff82169050919050565b60006100a88261007d565b9050919050565b6100b88161009d565b81146100c357600080fd5b50565b6000815190506100d5816100af565b92915050565b6000602082840312156100f1576100f0610078565b5b60006100ff848285016100c6565b91505092915050565b61027b806101176000396000f3fe608060405234801561001057600080fd5b506004361061002b5760003560e01c8063b447b0a514610030575b600080fd5b61003861004e565b6040516100459190610106565b60405180910390f35b60008060008054906101000a900473ffffffffffffffffffffffffffffffffffffffff1673ffffffffffffffffffffffffffffffffffffffff1663feaf968c6040518163ffffffff1660e01b815260040160a060405180830381865afa1580156100bc573d6000803e3d6000fd5b505050506040513d601f19601f820116820180604052508101906100e091906101ca565b5050509150508091505090565b6000819050919050565b610100816100ed565b82525050565b600060208201905061011b60008301846100f7565b92915050565b600080fd5b600069ffffffffffffffffffff82169050919050565b61014581610126565b811461015057600080fd5b50565b6000815190506101628161013c565b92915050565b610171816100ed565b811461017c57600080fd5b50565b60008151905061018e81610168565b92915050565b6000819050919050565b6101a781610194565b81146101b257600080fd5b50565b6000815190506101c48161019e565b92915050565b600080600080600060a086880312156101e6576101e5610121565b5b60006101f488828901610153565b95505060206102058882890161017f565b9450506040610216888289016101b5565b9350506060610227888289016101b5565b925050608061023888828901610153565b915050929550929590935056fea2646970667358221220bffdae0e92abc6e30ff2345fa2611dfb0010efeb6194fbc1819069539380ab3364736f6c634300080e0033",
  "immutableReferences": {},
  "source": "// SPDX-License-Identifier: MIT\npragma solidity ^0.8.7;\n\nimport \"@chainlink/contracts/src/v0.8/interfaces/AggregatorV3Interface.sol\";\n\ncontract PriceConsumerV3 {\n\n    AggregatorV3Interface internal priceFeed;\n\n    constructor(address _adr) {\n        priceFeed = AggregatorV3Interface(_adr);\n    }\n\n    /**\n     * Returns the latest price\n     */\n    function EthUsdPrice() public view returns (int) {\n        (\n            /*uint80 roundID*/,\n            int price,\n            /*uint startedAt*/,\n            /*uint timeStamp*/,\n            /*uint80 answeredInRound*/\n        ) = priceFeed.latestRoundData();\n        return price;\n    }\n}",
  "sourcePath": "/Users/jediswag/Documents/GitHub/affilly8/contracts/PriceConsumerV3.sol",
  "compiler": {
    "name": "solc",
    "version": "0.8.14+commit.80d49f37.Emscripten.clang"
  },
  "schemaVersion": "3.4.4",
  "updatedAt": "2022-05-28T20:33:49.155Z",
  "devdoc": {
    "kind": "dev",
    "methods": {},
    "version": 1
  },
  "userdoc": {
    "kind": "user",
    "methods": {
      "EthUsdPrice()": {
        "notice": "Returns the latest price"
      }
    },
    "version": 1
  }
}