{
  "contractName": "Affilly8",
  "abi": [
    {
      "inputs": [],
      "stateMutability": "nonpayable",
      "type": "constructor"
    },
    {
      "anonymous": false,
      "inputs": [
        {
          "indexed": true,
          "internalType": "uint256",
          "name": "id",
          "type": "uint256"
        },
        {
          "indexed": false,
          "internalType": "address",
          "name": "sender",
          "type": "address"
        },
        {
          "indexed": false,
          "internalType": "address",
          "name": "home",
          "type": "address"
        },
        {
          "indexed": false,
          "internalType": "uint256",
          "name": "num",
          "type": "uint256"
        },
        {
          "indexed": false,
          "internalType": "bytes",
          "name": "message",
          "type": "bytes"
        },
        {
          "indexed": false,
          "internalType": "uint256",
          "name": "stamp",
          "type": "uint256"
        }
      ],
      "name": "Log",
      "type": "event"
    },
    {
      "anonymous": false,
      "inputs": [
        {
          "indexed": true,
          "internalType": "uint256",
          "name": "id",
          "type": "uint256"
        },
        {
          "indexed": false,
          "internalType": "address",
          "name": "sender",
          "type": "address"
        },
        {
          "indexed": false,
          "internalType": "address",
          "name": "home",
          "type": "address"
        },
        {
          "indexed": false,
          "internalType": "uint256",
          "name": "num",
          "type": "uint256"
        },
        {
          "indexed": false,
          "internalType": "bytes",
          "name": "message",
          "type": "bytes"
        },
        {
          "indexed": false,
          "internalType": "uint256",
          "name": "stamp",
          "type": "uint256"
        }
      ],
      "name": "Wait",
      "type": "event"
    },
    {
      "stateMutability": "nonpayable",
      "type": "fallback"
    },
    {
      "inputs": [],
      "name": "author",
      "outputs": [
        {
          "internalType": "address",
          "name": "",
          "type": "address"
        }
      ],
      "stateMutability": "view",
      "type": "function",
      "constant": true
    },
    {
      "inputs": [],
      "name": "availSupply",
      "outputs": [
        {
          "internalType": "uint256",
          "name": "",
          "type": "uint256"
        }
      ],
      "stateMutability": "view",
      "type": "function",
      "constant": true
    },
    {
      "inputs": [
        {
          "internalType": "uint256",
          "name": "",
          "type": "uint256"
        }
      ],
      "name": "campaigns",
      "outputs": [
        {
          "internalType": "uint256",
          "name": "id",
          "type": "uint256"
        },
        {
          "internalType": "bytes",
          "name": "data",
          "type": "bytes"
        },
        {
          "internalType": "address",
          "name": "owner",
          "type": "address"
        },
        {
          "internalType": "address",
          "name": "tokenAddress",
          "type": "address"
        },
        {
          "internalType": "uint256",
          "name": "tokenId",
          "type": "uint256"
        },
        {
          "internalType": "uint256",
          "name": "price",
          "type": "uint256"
        },
        {
          "internalType": "address",
          "name": "payCurrency",
          "type": "address"
        },
        {
          "internalType": "uint256",
          "name": "fee",
          "type": "uint256"
        },
        {
          "internalType": "uint256",
          "name": "duration",
          "type": "uint256"
        }
      ],
      "stateMutability": "view",
      "type": "function",
      "constant": true
    },
    {
      "inputs": [
        {
          "internalType": "address",
          "name": "_to",
          "type": "address"
        },
        {
          "internalType": "uint256",
          "name": "_role",
          "type": "uint256"
        }
      ],
      "name": "changeRole",
      "outputs": [
        {
          "internalType": "bool",
          "name": "",
          "type": "bool"
        }
      ],
      "stateMutability": "nonpayable",
      "type": "function"
    },
    {
      "inputs": [
        {
          "internalType": "address",
          "name": "",
          "type": "address"
        }
      ],
      "name": "isUser",
      "outputs": [
        {
          "internalType": "bool",
          "name": "",
          "type": "bool"
        }
      ],
      "stateMutability": "view",
      "type": "function",
      "constant": true
    },
    {
      "inputs": [
        {
          "internalType": "uint256",
          "name": "",
          "type": "uint256"
        }
      ],
      "name": "links",
      "outputs": [
        {
          "internalType": "uint256",
          "name": "id",
          "type": "uint256"
        },
        {
          "internalType": "uint256",
          "name": "campaigId",
          "type": "uint256"
        },
        {
          "internalType": "address",
          "name": "promoter",
          "type": "address"
        }
      ],
      "stateMutability": "view",
      "type": "function",
      "constant": true
    },
    {
      "inputs": [
        {
          "internalType": "string",
          "name": "_data",
          "type": "string"
        }
      ],
      "name": "makeU",
      "outputs": [
        {
          "internalType": "bool",
          "name": "",
          "type": "bool"
        }
      ],
      "stateMutability": "nonpayable",
      "type": "function"
    },
    {
      "inputs": [],
      "name": "maxSupply",
      "outputs": [
        {
          "internalType": "uint256",
          "name": "",
          "type": "uint256"
        }
      ],
      "stateMutability": "view",
      "type": "function",
      "constant": true
    },
    {
      "inputs": [
        {
          "internalType": "address",
          "name": "",
          "type": "address"
        }
      ],
      "name": "role",
      "outputs": [
        {
          "internalType": "uint256",
          "name": "",
          "type": "uint256"
        }
      ],
      "stateMutability": "view",
      "type": "function",
      "constant": true
    },
    {
      "inputs": [
        {
          "internalType": "address",
          "name": "",
          "type": "address"
        },
        {
          "internalType": "uint256",
          "name": "",
          "type": "uint256"
        }
      ],
      "name": "showCampaign",
      "outputs": [
        {
          "internalType": "uint256",
          "name": "id",
          "type": "uint256"
        },
        {
          "internalType": "bytes",
          "name": "data",
          "type": "bytes"
        },
        {
          "internalType": "address",
          "name": "owner",
          "type": "address"
        },
        {
          "internalType": "address",
          "name": "tokenAddress",
          "type": "address"
        },
        {
          "internalType": "uint256",
          "name": "tokenId",
          "type": "uint256"
        },
        {
          "internalType": "uint256",
          "name": "price",
          "type": "uint256"
        },
        {
          "internalType": "address",
          "name": "payCurrency",
          "type": "address"
        },
        {
          "internalType": "uint256",
          "name": "fee",
          "type": "uint256"
        },
        {
          "internalType": "uint256",
          "name": "duration",
          "type": "uint256"
        }
      ],
      "stateMutability": "view",
      "type": "function",
      "constant": true
    },
    {
      "inputs": [
        {
          "internalType": "address",
          "name": "",
          "type": "address"
        },
        {
          "internalType": "uint256",
          "name": "",
          "type": "uint256"
        }
      ],
      "name": "showLinks",
      "outputs": [
        {
          "internalType": "uint256",
          "name": "id",
          "type": "uint256"
        },
        {
          "internalType": "uint256",
          "name": "campaigId",
          "type": "uint256"
        },
        {
          "internalType": "address",
          "name": "promoter",
          "type": "address"
        }
      ],
      "stateMutability": "view",
      "type": "function",
      "constant": true
    },
    {
      "inputs": [],
      "name": "showU",
      "outputs": [
        {
          "internalType": "string",
          "name": "",
          "type": "string"
        },
        {
          "internalType": "uint256",
          "name": "",
          "type": "uint256"
        }
      ],
      "stateMutability": "view",
      "type": "function",
      "constant": true
    },
    {
      "inputs": [
        {
          "internalType": "uint256",
          "name": "",
          "type": "uint256"
        }
      ],
      "name": "txs",
      "outputs": [
        {
          "internalType": "uint256",
          "name": "id",
          "type": "uint256"
        },
        {
          "internalType": "uint256",
          "name": "rlid",
          "type": "uint256"
        },
        {
          "internalType": "uint256",
          "name": "cid",
          "type": "uint256"
        },
        {
          "internalType": "uint256",
          "name": "txdate",
          "type": "uint256"
        }
      ],
      "stateMutability": "view",
      "type": "function",
      "constant": true
    },
    {
      "inputs": [
        {
          "internalType": "address",
          "name": "",
          "type": "address"
        }
      ],
      "name": "uData",
      "outputs": [
        {
          "internalType": "bytes",
          "name": "",
          "type": "bytes"
        }
      ],
      "stateMutability": "view",
      "type": "function",
      "constant": true
    },
    {
      "inputs": [
        {
          "internalType": "address",
          "name": "_contract",
          "type": "address"
        }
      ],
      "name": "withdrawToken",
      "outputs": [
        {
          "internalType": "bool",
          "name": "",
          "type": "bool"
        }
      ],
      "stateMutability": "nonpayable",
      "type": "function"
    },
    {
      "inputs": [],
      "name": "getCampaignCount",
      "outputs": [
        {
          "internalType": "uint256",
          "name": "",
          "type": "uint256"
        }
      ],
      "stateMutability": "view",
      "type": "function",
      "constant": true
    },
    {
      "inputs": [],
      "name": "getLinkCount",
      "outputs": [
        {
          "internalType": "uint256",
          "name": "",
          "type": "uint256"
        }
      ],
      "stateMutability": "view",
      "type": "function",
      "constant": true
    },
    {
      "inputs": [],
      "name": "getTxCount",
      "outputs": [
        {
          "internalType": "uint256",
          "name": "",
          "type": "uint256"
        }
      ],
      "stateMutability": "view",
      "type": "function",
      "constant": true
    },
    {
      "inputs": [],
      "name": "beProducer",
      "outputs": [
        {
          "internalType": "bool",
          "name": "",
          "type": "bool"
        }
      ],
      "stateMutability": "nonpayable",
      "type": "function"
    },
    {
      "inputs": [],
      "name": "bePromoter",
      "outputs": [
        {
          "internalType": "bool",
          "name": "",
          "type": "bool"
        }
      ],
      "stateMutability": "nonpayable",
      "type": "function"
    },
    {
      "inputs": [
        {
          "internalType": "uint256",
          "name": "_cid",
          "type": "uint256"
        }
      ],
      "name": "makeLink",
      "outputs": [
        {
          "internalType": "bool",
          "name": "",
          "type": "bool"
        }
      ],
      "stateMutability": "nonpayable",
      "type": "function"
    },
    {
      "inputs": [
        {
          "internalType": "uint256",
          "name": "_id",
          "type": "uint256"
        },
        {
          "internalType": "string",
          "name": "_data",
          "type": "string"
        },
        {
          "internalType": "address",
          "name": "_owner",
          "type": "address"
        },
        {
          "internalType": "address",
          "name": "_tokenAddress",
          "type": "address"
        },
        {
          "internalType": "uint256",
          "name": "_tokenId",
          "type": "uint256"
        },
        {
          "internalType": "uint256",
          "name": "_price",
          "type": "uint256"
        },
        {
          "internalType": "address",
          "name": "_payCurrency",
          "type": "address"
        },
        {
          "internalType": "uint256",
          "name": "_fee",
          "type": "uint256"
        },
        {
          "internalType": "uint256",
          "name": "_duration",
          "type": "uint256"
        }
      ],
      "name": "makeCampaign",
      "outputs": [
        {
          "internalType": "bool",
          "name": "",
          "type": "bool"
        }
      ],
      "stateMutability": "payable",
      "type": "function",
      "payable": true
    },
    {
      "inputs": [
        {
          "internalType": "uint256",
          "name": "_cid",
          "type": "uint256"
        }
      ],
      "name": "approveCampaign",
      "outputs": [
        {
          "internalType": "bool",
          "name": "",
          "type": "bool"
        }
      ],
      "stateMutability": "nonpayable",
      "type": "function"
    },
    {
      "inputs": [
        {
          "internalType": "uint256",
          "name": "_rlid",
          "type": "uint256"
        }
      ],
      "name": "finalize",
      "outputs": [
        {
          "internalType": "bool",
          "name": "",
          "type": "bool"
        }
      ],
      "stateMutability": "payable",
      "type": "function",
      "payable": true
    }
  ],
  "bytecode": "0x6080604052731cd6f4d329d38043a6bdb3665c3a7b06f79b52426000806101000a81548173ffffffffffffffffffffffffffffffffffffffff021916908373ffffffffffffffffffffffffffffffffffffffff160217905550670de0b6b3a76400006007553480156200007157600080fd5b5060008054906101000a900473ffffffffffffffffffffffffffffffffffffffff1673ffffffffffffffffffffffffffffffffffffffff163373ffffffffffffffffffffffffffffffffffffffff1614620000cb57600080fd5b6063600160003373ffffffffffffffffffffffffffffffffffffffff1673ffffffffffffffffffffffffffffffffffffffff168152602001908152602001600020819055506002600681905550604051806060016040528060368152602001620045b460369139600260003373ffffffffffffffffffffffffffffffffffffffff1673ffffffffffffffffffffffffffffffffffffffff1681526020019081526020016000209080519060200190620001869291906200027a565b506001600c60003373ffffffffffffffffffffffffffffffffffffffff1673ffffffffffffffffffffffffffffffffffffffff16815260200190815260200160002060006101000a81548160ff021916908315150217905550600d547f5c155e8f37136295b53ae72fb3c0f568542d008fa91b541061b2d58d80d2657f33306103e76040518060400160405280601081526020017f636f6e747261637420637265617465640000000000000000000000000000000081525042604051620002529594939291906200047b565b60405180910390a2600d60008154809291906200026f906200050e565b9190505550620005bf565b82805462000288906200058a565b90600052602060002090601f016020900481019282620002ac5760008555620002f8565b82601f10620002c757805160ff1916838001178555620002f8565b82800160010185558215620002f8579182015b82811115620002f7578251825591602001919060010190620002da565b5b5090506200030791906200030b565b5090565b5b80821115620003265760008160009055506001016200030c565b5090565b600073ffffffffffffffffffffffffffffffffffffffff82169050919050565b600062000357826200032a565b9050919050565b62000369816200034a565b82525050565b6000819050919050565b6000819050919050565b6000819050919050565b6000620003ae620003a8620003a2846200036f565b62000383565b62000379565b9050919050565b620003c0816200038d565b82525050565b600081519050919050565b600082825260208201905092915050565b60005b8381101562000402578082015181840152602081019050620003e5565b8381111562000412576000848401525b50505050565b6000601f19601f8301169050919050565b60006200043682620003c6565b620004428185620003d1565b935062000454818560208601620003e2565b6200045f8162000418565b840191505092915050565b620004758162000379565b82525050565b600060a0820190506200049260008301886200035e565b620004a160208301876200035e565b620004b06040830186620003b5565b8181036060830152620004c4818562000429565b9050620004d560808301846200046a565b9695505050505050565b7f4e487b7100000000000000000000000000000000000000000000000000000000600052601160045260246000fd5b60006200051b8262000379565b91507fffffffffffffffffffffffffffffffffffffffffffffffffffffffffffffffff820362000550576200054f620004df565b5b600182019050919050565b7f4e487b7100000000000000000000000000000000000000000000000000000000600052602260045260246000fd5b60006002820490506001821680620005a357607f821691505b602082108103620005b957620005b86200055b565b5b50919050565b613fe580620005cf6000396000f3fe60806040526004361061014f5760003560e01c806389476069116100b6578063d590f8c91161006f578063d590f8c914610523578063d5abeb0114610560578063ea319b881461058b578063ee4e1b53146105ca578063ef51b79d14610607578063f5715d561461063257610150565b806389476069146103de5780639f5215dd1461041b578063a6c3e6b914610446578063b7187e3514610471578063c96f6ca9146104ae578063d09e747f146104de57610150565b80632a1e5ef3116101085780632a1e5ef3146102a45780632e3606ad146102cf5780634209fff1146102fa5780636caa9218146103375780636d65d97b14610362578063881d8a401461039f57610150565b806305261aea1461015e5780630acfd58e1461018e578063141961bc146101cb5780631dd46c1e14610210578063268b52271461023b578063274daa351461027857610150565b5b34801561015c57600080fd5b005b610178600480360381019061017391906132e0565b610672565b6040516101859190613328565b60405180910390f35b34801561019a57600080fd5b506101b560048036038101906101b091906133a1565b610ff0565b6040516101c29190613328565b60405180910390f35b3480156101d757600080fd5b506101f260048036038101906101ed91906132e0565b6110c2565b60405161020799989796959493929190613498565b60405180910390f35b34801561021c57600080fd5b50610225611208565b604051610232919061352c565b60405180910390f35b34801561024757600080fd5b50610262600480360381019061025d919061367c565b611212565b60405161026f9190613328565b60405180910390f35b34801561028457600080fd5b5061028d61130d565b60405161029b92919061371a565b60405180910390f35b3480156102b057600080fd5b506102b9611424565b6040516102c69190613328565b60405180910390f35b3480156102db57600080fd5b506102e46116ec565b6040516102f19190613328565b60405180910390f35b34801561030657600080fd5b50610321600480360381019061031c919061374a565b6119b4565b60405161032e9190613328565b60405180910390f35b34801561034357600080fd5b5061034c6119d4565b604051610359919061352c565b60405180910390f35b34801561036e57600080fd5b50610389600480360381019061038491906132e0565b6119de565b6040516103969190613328565b60405180910390f35b3480156103ab57600080fd5b506103c660048036038101906103c191906132e0565b611e3f565b6040516103d593929190613777565b60405180910390f35b3480156103ea57600080fd5b506104056004803603810190610400919061374a565b611e99565b6040516104129190613328565b60405180910390f35b34801561042757600080fd5b506104306120c3565b60405161043d919061352c565b60405180910390f35b34801561045257600080fd5b5061045b6120c9565b60405161046891906137ae565b60405180910390f35b34801561047d57600080fd5b506104986004803603810190610493919061374a565b6120ed565b6040516104a591906137c9565b60405180910390f35b6104c860048036038101906104c391906137eb565b61218d565b6040516104d59190613328565b60405180910390f35b3480156104ea57600080fd5b50610505600480360381019061050091906133a1565b612857565b60405161051a99989796959493929190613498565b60405180910390f35b34801561052f57600080fd5b5061054a6004803603810190610545919061374a565b61299a565b604051610557919061352c565b60405180910390f35b34801561056c57600080fd5b506105756129b2565b604051610582919061352c565b60405180910390f35b34801561059757600080fd5b506105b260048036038101906105ad91906133a1565b6129b8565b6040516105c193929190613777565b60405180910390f35b3480156105d657600080fd5b506105f160048036038101906105ec91906132e0565b612a0f565b6040516105fe9190613328565b60405180910390f35b34801561061357600080fd5b5061061c612dd1565b604051610629919061352c565b60405180910390f35b34801561063e57600080fd5b50610659600480360381019061065491906132e0565b612ddb565b60405161066994939291906138d1565b60405180910390f35b600080600f838154811061068957610688613916565b5b90600052602060002090600302016001015490506000600f84815481106106b3576106b2613916565b5b906000526020600020906003020160020160009054906101000a900473ffffffffffffffffffffffffffffffffffffffff1690506000600e83815481106106fd576106fc613916565b5b9060005260206000209060090201604051806101200160405290816000820154815260200160018201805461073190613974565b80601f016020809104026020016040519081016040528092919081815260200182805461075d90613974565b80156107aa5780601f1061077f576101008083540402835291602001916107aa565b820191906000526020600020905b81548152906001019060200180831161078d57829003601f168201915b505050505081526020016002820160009054906101000a900473ffffffffffffffffffffffffffffffffffffffff1673ffffffffffffffffffffffffffffffffffffffff1673ffffffffffffffffffffffffffffffffffffffff1681526020016003820160009054906101000a900473ffffffffffffffffffffffffffffffffffffffff1673ffffffffffffffffffffffffffffffffffffffff1673ffffffffffffffffffffffffffffffffffffffff16815260200160048201548152602001600582015481526020016006820160009054906101000a900473ffffffffffffffffffffffffffffffffffffffff1673ffffffffffffffffffffffffffffffffffffffff1673ffffffffffffffffffffffffffffffffffffffff16815260200160078201548152602001600882015481525050905060006006548260a0015160646108f59190613a03565b6108ff9190613a34565b905060008260e0015160065460646109179190613a8e565b8460a0015160646109289190613a03565b6109329190613a34565b61093c9190613a8e565b90508260600151600960006101000a81548173ffffffffffffffffffffffffffffffffffffffff021916908373ffffffffffffffffffffffffffffffffffffffff160217905550600073ffffffffffffffffffffffffffffffffffffffff168360c0015173ffffffffffffffffffffffffffffffffffffffff1614610d3b578260c00151600860006101000a81548173ffffffffffffffffffffffffffffffffffffffff021916908373ffffffffffffffffffffffffffffffffffffffff1602179055508260a00151600860009054906101000a900473ffffffffffffffffffffffffffffffffffffffff1673ffffffffffffffffffffffffffffffffffffffff166370a08231336040518263ffffffff1660e01b8152600401610a6091906137ae565b602060405180830381865afa158015610a7d573d6000803e3d6000fd5b505050506040513d601f19601f82011682018060405250810190610aa19190613ad7565b1015610aac57600080fd5b600860009054906101000a900473ffffffffffffffffffffffffffffffffffffffff1673ffffffffffffffffffffffffffffffffffffffff166323b872dd338560400151846040518463ffffffff1660e01b8152600401610b0f93929190613b04565b6020604051808303816000875af1158015610b2e573d6000803e3d6000fd5b505050506040513d601f19601f82011682018060405250810190610b529190613b67565b50600960009054906101000a900473ffffffffffffffffffffffffffffffffffffffff1673ffffffffffffffffffffffffffffffffffffffff166323b872dd84604001513386608001516040518463ffffffff1660e01b8152600401610bba93929190613b04565b600060405180830381600087803b158015610bd457600080fd5b505af1158015610be8573d6000803e3d6000fd5b50505050600860009054906101000a900473ffffffffffffffffffffffffffffffffffffffff1673ffffffffffffffffffffffffffffffffffffffff166323b872dd33868660e001516040518463ffffffff1660e01b8152600401610c4f93929190613b04565b6020604051808303816000875af1158015610c6e573d6000803e3d6000fd5b505050506040513d601f19601f82011682018060405250810190610c929190613b67565b50600860009054906101000a900473ffffffffffffffffffffffffffffffffffffffff1673ffffffffffffffffffffffffffffffffffffffff166323b872dd3330856040518463ffffffff1660e01b8152600401610cf293929190613b04565b6020604051808303816000875af1158015610d11573d6000803e3d6000fd5b505050506040513d601f19601f82011682018060405250810190610d359190613b67565b50610ec3565b8260a00151341015610d4c57600080fd5b826040015173ffffffffffffffffffffffffffffffffffffffff166108fc829081150290604051600060405180830381858888f19350505050158015610d96573d6000803e3d6000fd5b50600960009054906101000a900473ffffffffffffffffffffffffffffffffffffffff1673ffffffffffffffffffffffffffffffffffffffff166323b872dd84604001513386608001516040518463ffffffff1660e01b8152600401610dfe93929190613b04565b600060405180830381600087803b158015610e1857600080fd5b505af1158015610e2c573d6000803e3d6000fd5b505050508373ffffffffffffffffffffffffffffffffffffffff166108fc8460e001519081150290604051600060405180830381858888f19350505050158015610e7a573d6000803e3d6000fd5b503073ffffffffffffffffffffffffffffffffffffffff166108fc839081150290604051600060405180830381858888f19350505050158015610ec1573d6000803e3d6000fd5b505b601060405180608001604052806017548152602001898152602001878152602001428152509080600181540180825580915050600190039060005260206000209060040201600090919091909150600082015181600001556020820151816001015560408201518160020155606082015181600301555050600d547f5c155e8f37136295b53ae72fb3c0f568542d008fa91b541061b2d58d80d2657f33308a6040518060400160405280600e81526020017f6c696e6b207478206661696c656400000000000000000000000000000000000081525042604051610faa959493929190613b94565b60405180910390a260176000815480929190610fc590613bee565b9190505550600d6000815480929190610fdd90613bee565b9190505550600195505050505050919050565b60006063600160003373ffffffffffffffffffffffffffffffffffffffff1673ffffffffffffffffffffffffffffffffffffffff1681526020019081526020016000205414611074576040517f08c379a000000000000000000000000000000000000000000000000000000000815260040161106b90613c82565b60405180910390fd5b81600160008573ffffffffffffffffffffffffffffffffffffffff1673ffffffffffffffffffffffffffffffffffffffff168152602001908152602001600020819055506001905092915050565b600e81815481106110d257600080fd5b90600052602060002090600902016000915090508060000154908060010180546110fb90613974565b80601f016020809104026020016040519081016040528092919081815260200182805461112790613974565b80156111745780601f1061114957610100808354040283529160200191611174565b820191906000526020600020905b81548152906001019060200180831161115757829003601f168201915b5050505050908060020160009054906101000a900473ffffffffffffffffffffffffffffffffffffffff16908060030160009054906101000a900473ffffffffffffffffffffffffffffffffffffffff16908060040154908060050154908060060160009054906101000a900473ffffffffffffffffffffffffffffffffffffffff16908060070154908060080154905089565b6000601754905090565b60006001600c60003373ffffffffffffffffffffffffffffffffffffffff1673ffffffffffffffffffffffffffffffffffffffff16815260200190815260200160002060006101000a81548160ff02191690831515021790555060018060003373ffffffffffffffffffffffffffffffffffffffff1673ffffffffffffffffffffffffffffffffffffffff1681526020019081526020016000208190555081600260003373ffffffffffffffffffffffffffffffffffffffff1673ffffffffffffffffffffffffffffffffffffffff1681526020019081526020016000209080519060200190611303929190613166565b5060019050919050565b60606000600260003373ffffffffffffffffffffffffffffffffffffffff1673ffffffffffffffffffffffffffffffffffffffff168152602001908152602001600020600160003373ffffffffffffffffffffffffffffffffffffffff1673ffffffffffffffffffffffffffffffffffffffff1681526020019081526020016000205481805461139c90613974565b80601f01602080910402602001604051908101604052809291908181526020018280546113c890613974565b80156114155780601f106113ea57610100808354040283529160200191611415565b820191906000526020600020905b8154815290600101906020018083116113f857829003601f168201915b50505050509150915091509091565b600060011515600c60003373ffffffffffffffffffffffffffffffffffffffff1673ffffffffffffffffffffffffffffffffffffffff16815260200190815260200160002060009054906101000a900460ff161515146114b9576040517f08c379a00000000000000000000000000000000000000000000000000000000081526004016114b090613cee565b60405180910390fd5b6003600160003373ffffffffffffffffffffffffffffffffffffffff1673ffffffffffffffffffffffffffffffffffffffff168152602001908152602001600020540361153b576040517f08c379a000000000000000000000000000000000000000000000000000000000815260040161153290613d5a565b60405180910390fd5b60018060003373ffffffffffffffffffffffffffffffffffffffff1673ffffffffffffffffffffffffffffffffffffffff16815260200190815260200160002054036115c7576003600160003373ffffffffffffffffffffffffffffffffffffffff1673ffffffffffffffffffffffffffffffffffffffff168152602001908152602001600020819055505b6002600160003373ffffffffffffffffffffffffffffffffffffffff1673ffffffffffffffffffffffffffffffffffffffff1681526020019081526020016000205403611654576004600160003373ffffffffffffffffffffffffffffffffffffffff1673ffffffffffffffffffffffffffffffffffffffff168152602001908152602001600020819055505b600d547f5c155e8f37136295b53ae72fb3c0f568542d008fa91b541061b2d58d80d2657f33306103e76040518060400160405280600f81526020017f626563616d652070726f6d6f7465720000000000000000000000000000000000815250426040516116c5959493929190613dbf565b60405180910390a2600d60008154809291906116e090613bee565b91905055506001905090565b600060011515600c60003373ffffffffffffffffffffffffffffffffffffffff1673ffffffffffffffffffffffffffffffffffffffff16815260200190815260200160002060009054906101000a900460ff16151514611781576040517f08c379a000000000000000000000000000000000000000000000000000000000815260040161177890613cee565b60405180910390fd5b6002600160003373ffffffffffffffffffffffffffffffffffffffff1673ffffffffffffffffffffffffffffffffffffffff1681526020019081526020016000205403611803576040517f08c379a00000000000000000000000000000000000000000000000000000000081526004016117fa90613e65565b60405180910390fd5b60018060003373ffffffffffffffffffffffffffffffffffffffff1673ffffffffffffffffffffffffffffffffffffffff168152602001908152602001600020540361188f576002600160003373ffffffffffffffffffffffffffffffffffffffff1673ffffffffffffffffffffffffffffffffffffffff168152602001908152602001600020819055505b6003600160003373ffffffffffffffffffffffffffffffffffffffff1673ffffffffffffffffffffffffffffffffffffffff168152602001908152602001600020540361191c576004600160003373ffffffffffffffffffffffffffffffffffffffff1673ffffffffffffffffffffffffffffffffffffffff168152602001908152602001600020819055505b600d547f5c155e8f37136295b53ae72fb3c0f568542d008fa91b541061b2d58d80d2657f33306103e76040518060400160405280600f81526020017f626563616d652070726f647563657200000000000000000000000000000000008152504260405161198d959493929190613dbf565b60405180910390a2600d60008154809291906119a890613bee565b91905055506001905090565b600c6020528060005260406000206000915054906101000a900460ff1681565b6000601554905090565b600060011515600c60003373ffffffffffffffffffffffffffffffffffffffff1673ffffffffffffffffffffffffffffffffffffffff16815260200190815260200160002060009054906101000a900460ff16151514611a73576040517f08c379a0000000000000000000000000000000000000000000000000000000008152600401611a6a90613cee565b60405180910390fd5b6002600160003373ffffffffffffffffffffffffffffffffffffffff1673ffffffffffffffffffffffffffffffffffffffff168152602001908152602001600020541480611b0057506003600160003373ffffffffffffffffffffffffffffffffffffffff1673ffffffffffffffffffffffffffffffffffffffff16815260200190815260200160002054145b80611b4a57506063600160003373ffffffffffffffffffffffffffffffffffffffff1673ffffffffffffffffffffffffffffffffffffffff16815260200190815260200160002054145b611b89576040517f08c379a0000000000000000000000000000000000000000000000000000000008152600401611b8090613ed1565b60405180910390fd5b600f604051806060016040528060165481526020018481526020013373ffffffffffffffffffffffffffffffffffffffff168152509080600181540180825580915050600190039060005260206000209060030201600090919091909150600082015181600001556020820151816001015560408201518160020160006101000a81548173ffffffffffffffffffffffffffffffffffffffff021916908373ffffffffffffffffffffffffffffffffffffffff1602179055505050601360003373ffffffffffffffffffffffffffffffffffffffff1673ffffffffffffffffffffffffffffffffffffffff1681526020019081526020016000206000815480929190611c9490613bee565b9190505550600f60165481548110611caf57611cae613916565b5b9060005260206000209060030201601460003373ffffffffffffffffffffffffffffffffffffffff1673ffffffffffffffffffffffffffffffffffffffff1681526020019081526020016000206000601654815260200190815260200160002060008201548160000155600182015481600101556002820160009054906101000a900473ffffffffffffffffffffffffffffffffffffffff168160020160006101000a81548173ffffffffffffffffffffffffffffffffffffffff021916908373ffffffffffffffffffffffffffffffffffffffff160217905550905050600d547f5c155e8f37136295b53ae72fb3c0f568542d008fa91b541061b2d58d80d2657f33306016546040518060400160405280600c81526020017f6c696e6b2063726561746564000000000000000000000000000000000000000081525042604051611dfe959493929190613b94565b60405180910390a2600d6000815480929190611e1990613bee565b919050555060166000815480929190611e3190613bee565b919050555060019050919050565b600f8181548110611e4f57600080fd5b90600052602060002090600302016000915090508060000154908060010154908060020160009054906101000a900473ffffffffffffffffffffffffffffffffffffffff16905083565b60006063600160003373ffffffffffffffffffffffffffffffffffffffff1673ffffffffffffffffffffffffffffffffffffffff1681526020019081526020016000205414611f1d576040517f08c379a0000000000000000000000000000000000000000000000000000000008152600401611f1490613c82565b60405180910390fd5b81600860006101000a81548173ffffffffffffffffffffffffffffffffffffffff021916908373ffffffffffffffffffffffffffffffffffffffff160217905550600860009054906101000a900473ffffffffffffffffffffffffffffffffffffffff1673ffffffffffffffffffffffffffffffffffffffff1663a9059cbb60008054906101000a900473ffffffffffffffffffffffffffffffffffffffff16600860009054906101000a900473ffffffffffffffffffffffffffffffffffffffff1673ffffffffffffffffffffffffffffffffffffffff166370a08231306040518263ffffffff1660e01b815260040161201891906137ae565b602060405180830381865afa158015612035573d6000803e3d6000fd5b505050506040513d601f19601f820116820180604052508101906120599190613ad7565b6040518363ffffffff1660e01b8152600401612076929190613ef1565b6020604051808303816000875af1158015612095573d6000803e3d6000fd5b505050506040513d601f19601f820116820180604052508101906120b99190613b67565b5060019050919050565b60045481565b60008054906101000a900473ffffffffffffffffffffffffffffffffffffffff1681565b6002602052806000526040600020600091509050805461210c90613974565b80601f016020809104026020016040519081016040528092919081815260200182805461213890613974565b80156121855780601f1061215a57610100808354040283529160200191612185565b820191906000526020600020905b81548152906001019060200180831161216857829003601f168201915b505050505081565b600060011515600c60003373ffffffffffffffffffffffffffffffffffffffff1673ffffffffffffffffffffffffffffffffffffffff16815260200190815260200160002060009054906101000a900460ff16151514612222576040517f08c379a000000000000000000000000000000000000000000000000000000000815260040161221990613cee565b60405180910390fd5b60018060003373ffffffffffffffffffffffffffffffffffffffff1673ffffffffffffffffffffffffffffffffffffffff1681526020019081526020016000205414806122ae57506003600160003373ffffffffffffffffffffffffffffffffffffffff1673ffffffffffffffffffffffffffffffffffffffff16815260200190815260200160002054145b806122f857506063600160003373ffffffffffffffffffffffffffffffffffffffff1673ffffffffffffffffffffffffffffffffffffffff16815260200190815260200160002054145b612337576040517f08c379a000000000000000000000000000000000000000000000000000000000815260040161232e90613f66565b60405180910390fd5b600e6040518061012001604052808c81526020018b81526020018a73ffffffffffffffffffffffffffffffffffffffff1681526020018973ffffffffffffffffffffffffffffffffffffffff1681526020018881526020016007548861239d9190613a34565b81526020018673ffffffffffffffffffffffffffffffffffffffff168152602001600754866123cc9190613a34565b8152602001603c80866123df9190613a34565b6123e99190613a34565b815250908060018154018082558091505060019003906000526020600020906009020160009091909190915060008201518160000155602082015181600101908051906020019061243b929190613166565b5060408201518160020160006101000a81548173ffffffffffffffffffffffffffffffffffffffff021916908373ffffffffffffffffffffffffffffffffffffffff16021790555060608201518160030160006101000a81548173ffffffffffffffffffffffffffffffffffffffff021916908373ffffffffffffffffffffffffffffffffffffffff1602179055506080820151816004015560a0820151816005015560c08201518160060160006101000a81548173ffffffffffffffffffffffffffffffffffffffff021916908373ffffffffffffffffffffffffffffffffffffffff16021790555060e0820151816007015561010082015181600801555050601160003373ffffffffffffffffffffffffffffffffffffffff1673ffffffffffffffffffffffffffffffffffffffff168152602001908152602001600020600081548092919061258c90613bee565b9190505550600e601554815481106125a7576125a6613916565b5b9060005260206000209060090201601260003373ffffffffffffffffffffffffffffffffffffffff1673ffffffffffffffffffffffffffffffffffffffff1681526020019081526020016000206000601554815260200190815260200160002060008201548160000155600182018160010190805461262590613974565b6126309291906131ec565b506002820160009054906101000a900473ffffffffffffffffffffffffffffffffffffffff168160020160006101000a81548173ffffffffffffffffffffffffffffffffffffffff021916908373ffffffffffffffffffffffffffffffffffffffff1602179055506003820160009054906101000a900473ffffffffffffffffffffffffffffffffffffffff168160030160006101000a81548173ffffffffffffffffffffffffffffffffffffffff021916908373ffffffffffffffffffffffffffffffffffffffff16021790555060048201548160040155600582015481600501556006820160009054906101000a900473ffffffffffffffffffffffffffffffffffffffff168160060160006101000a81548173ffffffffffffffffffffffffffffffffffffffff021916908373ffffffffffffffffffffffffffffffffffffffff1602179055506007820154816007015560088201548160080155905050600d547f5c155e8f37136295b53ae72fb3c0f568542d008fa91b541061b2d58d80d2657f33306015546040518060400160405280601281526020017f2e2063616d706169676e2063726561746564000000000000000000000000000081525042604051612802959493929190613b94565b60405180910390a2600d600081548092919061281d90613bee565b919050555061282d601554612e1b565b506015600081548092919061284190613bee565b9190505550600190509998505050505050505050565b60126020528160005260406000206020528060005260406000206000915091505080600001549080600101805461288d90613974565b80601f01602080910402602001604051908101604052809291908181526020018280546128b990613974565b80156129065780601f106128db57610100808354040283529160200191612906565b820191906000526020600020905b8154815290600101906020018083116128e957829003601f168201915b5050505050908060020160009054906101000a900473ffffffffffffffffffffffffffffffffffffffff16908060030160009054906101000a900473ffffffffffffffffffffffffffffffffffffffff16908060040154908060050154908060060160009054906101000a900473ffffffffffffffffffffffffffffffffffffffff16908060070154908060080154905089565b60016020528060005260406000206000915090505481565b60035481565b6014602052816000526040600020602052806000526040600020600091509150508060000154908060010154908060020160009054906101000a900473ffffffffffffffffffffffffffffffffffffffff16905083565b600080600e8381548110612a2657612a25613916565b5b90600052602060002090600902016040518061012001604052908160008201548152602001600182018054612a5a90613974565b80601f0160208091040260200160405190810160405280929190818152602001828054612a8690613974565b8015612ad35780601f10612aa857610100808354040283529160200191612ad3565b820191906000526020600020905b815481529060010190602001808311612ab657829003601f168201915b505050505081526020016002820160009054906101000a900473ffffffffffffffffffffffffffffffffffffffff1673ffffffffffffffffffffffffffffffffffffffff1673ffffffffffffffffffffffffffffffffffffffff1681526020016003820160009054906101000a900473ffffffffffffffffffffffffffffffffffffffff1673ffffffffffffffffffffffffffffffffffffffff1673ffffffffffffffffffffffffffffffffffffffff16815260200160048201548152602001600582015481526020016006820160009054906101000a900473ffffffffffffffffffffffffffffffffffffffff1673ffffffffffffffffffffffffffffffffffffffff1673ffffffffffffffffffffffffffffffffffffffff1681526020016007820154815260200160088201548152505090508060600151600960006101000a81548173ffffffffffffffffffffffffffffffffffffffff021916908373ffffffffffffffffffffffffffffffffffffffff1602179055508060c00151600860006101000a81548173ffffffffffffffffffffffffffffffffffffffff021916908373ffffffffffffffffffffffffffffffffffffffff160217905550600960009054906101000a900473ffffffffffffffffffffffffffffffffffffffff1673ffffffffffffffffffffffffffffffffffffffff1663a22cb4653060016040518363ffffffff1660e01b8152600401612cf0929190613f86565b600060405180830381600087803b158015612d0a57600080fd5b505af1158015612d1e573d6000803e3d6000fd5b50505050600860009054906101000a900473ffffffffffffffffffffffffffffffffffffffff1673ffffffffffffffffffffffffffffffffffffffff1663095ea7b3308360a001516040518363ffffffff1660e01b8152600401612d83929190613ef1565b6020604051808303816000875af1158015612da2573d6000803e3d6000fd5b505050506040513d601f19601f82011682018060405250810190612dc69190613b67565b506001915050919050565b6000601654905090565b60108181548110612deb57600080fd5b90600052602060002090600402016000915090508060000154908060010154908060020154908060030154905084565b600060011515600c60003373ffffffffffffffffffffffffffffffffffffffff1673ffffffffffffffffffffffffffffffffffffffff16815260200190815260200160002060009054906101000a900460ff16151514612eb0576040517f08c379a0000000000000000000000000000000000000000000000000000000008152600401612ea790613cee565b60405180910390fd5b600f604051806060016040528060165481526020018481526020013373ffffffffffffffffffffffffffffffffffffffff168152509080600181540180825580915050600190039060005260206000209060030201600090919091909150600082015181600001556020820151816001015560408201518160020160006101000a81548173ffffffffffffffffffffffffffffffffffffffff021916908373ffffffffffffffffffffffffffffffffffffffff1602179055505050601360003373ffffffffffffffffffffffffffffffffffffffff1673ffffffffffffffffffffffffffffffffffffffff1681526020019081526020016000206000815480929190612fbb90613bee565b9190505550600f60165481548110612fd657612fd5613916565b5b9060005260206000209060030201601460003373ffffffffffffffffffffffffffffffffffffffff1673ffffffffffffffffffffffffffffffffffffffff1681526020019081526020016000206000601654815260200190815260200160002060008201548160000155600182015481600101556002820160009054906101000a900473ffffffffffffffffffffffffffffffffffffffff168160020160006101000a81548173ffffffffffffffffffffffffffffffffffffffff021916908373ffffffffffffffffffffffffffffffffffffffff160217905550905050600d547f5c155e8f37136295b53ae72fb3c0f568542d008fa91b541061b2d58d80d2657f33306016546040518060400160405280600c81526020017f6c696e6b2063726561746564000000000000000000000000000000000000000081525042604051613125959493929190613b94565b60405180910390a2600d600081548092919061314090613bee565b91905055506016600081548092919061315890613bee565b919050555060019050919050565b82805461317290613974565b90600052602060002090601f01602090048101928261319457600085556131db565b82601f106131ad57805160ff19168380011785556131db565b828001600101855582156131db579182015b828111156131da5782518255916020019190600101906131bf565b5b5090506131e89190613279565b5090565b8280546131f890613974565b90600052602060002090601f01602090048101928261321a5760008555613268565b82601f1061322b5780548555613268565b8280016001018555821561326857600052602060002091601f016020900482015b8281111561326757825482559160010191906001019061324c565b5b5090506132759190613279565b5090565b5b8082111561329257600081600090555060010161327a565b5090565b6000604051905090565b600080fd5b600080fd5b6000819050919050565b6132bd816132aa565b81146132c857600080fd5b50565b6000813590506132da816132b4565b92915050565b6000602082840312156132f6576132f56132a0565b5b6000613304848285016132cb565b91505092915050565b60008115159050919050565b6133228161330d565b82525050565b600060208201905061333d6000830184613319565b92915050565b600073ffffffffffffffffffffffffffffffffffffffff82169050919050565b600061336e82613343565b9050919050565b61337e81613363565b811461338957600080fd5b50565b60008135905061339b81613375565b92915050565b600080604083850312156133b8576133b76132a0565b5b60006133c68582860161338c565b92505060206133d7858286016132cb565b9150509250929050565b6133ea816132aa565b82525050565b600081519050919050565b600082825260208201905092915050565b60005b8381101561342a57808201518184015260208101905061340f565b83811115613439576000848401525b50505050565b6000601f19601f8301169050919050565b600061345b826133f0565b61346581856133fb565b935061347581856020860161340c565b61347e8161343f565b840191505092915050565b61349281613363565b82525050565b6000610120820190506134ae600083018c6133e1565b81810360208301526134c0818b613450565b90506134cf604083018a613489565b6134dc6060830189613489565b6134e960808301886133e1565b6134f660a08301876133e1565b61350360c0830186613489565b61351060e08301856133e1565b61351e6101008301846133e1565b9a9950505050505050505050565b600060208201905061354160008301846133e1565b92915050565b600080fd5b600080fd5b7f4e487b7100000000000000000000000000000000000000000000000000000000600052604160045260246000fd5b6135898261343f565b810181811067ffffffffffffffff821117156135a8576135a7613551565b5b80604052505050565b60006135bb613296565b90506135c78282613580565b919050565b600067ffffffffffffffff8211156135e7576135e6613551565b5b6135f08261343f565b9050602081019050919050565b82818337600083830152505050565b600061361f61361a846135cc565b6135b1565b90508281526020810184848401111561363b5761363a61354c565b5b6136468482856135fd565b509392505050565b600082601f83011261366357613662613547565b5b813561367384826020860161360c565b91505092915050565b600060208284031215613692576136916132a0565b5b600082013567ffffffffffffffff8111156136b0576136af6132a5565b5b6136bc8482850161364e565b91505092915050565b600081519050919050565b600082825260208201905092915050565b60006136ec826136c5565b6136f681856136d0565b935061370681856020860161340c565b61370f8161343f565b840191505092915050565b6000604082019050818103600083015261373481856136e1565b905061374360208301846133e1565b9392505050565b6000602082840312156137605761375f6132a0565b5b600061376e8482850161338c565b91505092915050565b600060608201905061378c60008301866133e1565b61379960208301856133e1565b6137a66040830184613489565b949350505050565b60006020820190506137c36000830184613489565b92915050565b600060208201905081810360008301526137e38184613450565b905092915050565b60008060008060008060008060006101208a8c03121561380e5761380d6132a0565b5b600061381c8c828d016132cb565b99505060208a013567ffffffffffffffff81111561383d5761383c6132a5565b5b6138498c828d0161364e565b985050604061385a8c828d0161338c565b975050606061386b8c828d0161338c565b965050608061387c8c828d016132cb565b95505060a061388d8c828d016132cb565b94505060c061389e8c828d0161338c565b93505060e06138af8c828d016132cb565b9250506101006138c18c828d016132cb565b9150509295985092959850929598565b60006080820190506138e660008301876133e1565b6138f360208301866133e1565b61390060408301856133e1565b61390d60608301846133e1565b95945050505050565b7f4e487b7100000000000000000000000000000000000000000000000000000000600052603260045260246000fd5b7f4e487b7100000000000000000000000000000000000000000000000000000000600052602260045260246000fd5b6000600282049050600182168061398c57607f821691505b60208210810361399f5761399e613945565b5b50919050565b7f4e487b7100000000000000000000000000000000000000000000000000000000600052601260045260246000fd5b7f4e487b7100000000000000000000000000000000000000000000000000000000600052601160045260246000fd5b6000613a0e826132aa565b9150613a19836132aa565b925082613a2957613a286139a5565b5b828204905092915050565b6000613a3f826132aa565b9150613a4a836132aa565b9250817fffffffffffffffffffffffffffffffffffffffffffffffffffffffffffffffff0483118215151615613a8357613a826139d4565b5b828202905092915050565b6000613a99826132aa565b9150613aa4836132aa565b925082821015613ab757613ab66139d4565b5b828203905092915050565b600081519050613ad1816132b4565b92915050565b600060208284031215613aed57613aec6132a0565b5b6000613afb84828501613ac2565b91505092915050565b6000606082019050613b196000830186613489565b613b266020830185613489565b613b3360408301846133e1565b949350505050565b613b448161330d565b8114613b4f57600080fd5b50565b600081519050613b6181613b3b565b92915050565b600060208284031215613b7d57613b7c6132a0565b5b6000613b8b84828501613b52565b91505092915050565b600060a082019050613ba96000830188613489565b613bb66020830187613489565b613bc360408301866133e1565b8181036060830152613bd58185613450565b9050613be460808301846133e1565b9695505050505050565b6000613bf9826132aa565b91507fffffffffffffffffffffffffffffffffffffffffffffffffffffffffffffffff8203613c2b57613c2a6139d4565b5b600182019050919050565b7f796f75277265206e6f742061646d696e00000000000000000000000000000000600082015250565b6000613c6c6010836136d0565b9150613c7782613c36565b602082019050919050565b60006020820190508181036000830152613c9b81613c5f565b9050919050565b7f796f7520617265206e6f74207573657200000000000000000000000000000000600082015250565b6000613cd86010836136d0565b9150613ce382613ca2565b602082019050919050565b60006020820190508181036000830152613d0781613ccb565b9050919050565b7f796f75206172652070726f6d6f74657200000000000000000000000000000000600082015250565b6000613d446010836136d0565b9150613d4f82613d0e565b602082019050919050565b60006020820190508181036000830152613d7381613d37565b9050919050565b6000819050919050565b6000819050919050565b6000613da9613da4613d9f84613d7a565b613d84565b6132aa565b9050919050565b613db981613d8e565b82525050565b600060a082019050613dd46000830188613489565b613de16020830187613489565b613dee6040830186613db0565b8181036060830152613e008185613450565b9050613e0f60808301846133e1565b9695505050505050565b7f796f75206172652070726f647563657200000000000000000000000000000000600082015250565b6000613e4f6010836136d0565b9150613e5a82613e19565b602082019050919050565b60006020820190508181036000830152613e7e81613e42565b9050919050565b7f796f7520617265206e6f742070726f6d6f746572000000000000000000000000600082015250565b6000613ebb6014836136d0565b9150613ec682613e85565b602082019050919050565b60006020820190508181036000830152613eea81613eae565b9050919050565b6000604082019050613f066000830185613489565b613f1360208301846133e1565b9392505050565b7f796f7520617265206e6f742070726f6475636572000000000000000000000000600082015250565b6000613f506014836136d0565b9150613f5b82613f1a565b602082019050919050565b60006020820190508181036000830152613f7f81613f43565b9050919050565b6000604082019050613f9b6000830185613489565b613fa86020830184613319565b939250505056fea264697066735822122063b2faa569b305afe0dc8f033ca72842ba37a16466d801194815a63764aa10f464736f6c634300080d00337b22757365726e616d65223a224073746572656f69696936222c22656d61696c223a22747970652e73746572656f40706d2e6d65227d",
  "immutableReferences": {},
  "source": "// SPDX-License-Identifier: GPL-3.0\n// // // // // // // // // // // // // // // // // // // // // // // // // // // // // // // // // // // // // // // // // // // // // // // // // // // // // // // // // // // // //\n//   \n//      \n//      \n//      \n//      \n//      \n//      \n//      \n//      \n// \n// // // // // // // // // // // // // // // // // // // // // // // // // // // // // // // // // // // // // // // // // // // // // // // // // // // // // // // // // // // // //\n//                                                                                                                                                                                  //\n//      @dev            ::              stereoIII6.dao                                                                                                                                          //\n//      @msg            ::              type.stereo@pm.me                                                                                                                                    //\n//      @github         ::              @stereoIII6 \n//      @twitter        ::              @stereoIII6                                                                                                                                              //\n//                                                                                                                                                                                      //\n//      @dev            ::              willdera.eth                                                                                                                                          //\n//      @msg            ::                                                                                                                                                  //\n//      @github         ::              @willdera                                                                                                                                              //\n//                                                                                                                                                                                      //\n//      @author         ::              stereoIII6.dao                                                                                                                                          //\n//      msg             ::              type.stereo@pm.me                                                                                                                                    //\n//      @github         ::              @stereoIII6 \n//      @twitter        ::              @stereoIII6                                                                                                                                             //\n//                                                                                                                                                                                  //\n// // // // // // // // // // // // // // // // // // // // // // // // // // // // // // // // // // // // // // // // // // // // // // // // // // // // // // // // // // // // //\n//                                                                                                                                                                                  //\n// // // // // // // // // // // // // // // // // // // // // // // // // // // // // // // // // // // // // // // // // // // // // // // // // // // // // // // // // // // // //\n//                                                                                                                                                                                  //\n//                                                                                                                                                                                  //\n//      @title          ::              Affily8                                                                                                                                     //\n//      @description    ::              decentral affiliate system                                                                                                            //\n//      @version        ::              0.0.1                                                                                                                                       //\n//      @purpose        ::              Refer friennds on the blockchain                                                                                                            //\n//                                                                                                                                                                                  //\n//                                                                                                                                                                                  //\n//                                                                                                                                                                                  //\n//                                                                                                                                                                                  //\n//                                                                                                                                                                                  //\n// // // // // // // // // // // // // // // // // // // // // // // // // // // // // // // // // // // // // // // // // // // // // // // // // // // // // // // // // // // // //\n\n\npragma solidity ^0.8.0;\n// Open Zeppelin Imports\n// import \"@openzeppelin/contracts/token/ERC20/ERC20.sol\";\nimport \"@openzeppelin/contracts/token/ERC20/IERC20.sol\";\n\nimport \"@openzeppelin/contracts/token/ERC721/ERC721.sol\";\nimport \"@openzeppelin/contracts/token/ERC721/IERC721.sol\";\n\n// import \"@openzeppelin/contracts/token/ERC1155/ERC1155.sol\";\nimport \"@openzeppelin/contracts/token/ERC1155/IERC1155.sol\";\n\n// Chainlink Imports\n// import \"@chainlink/contracts/src/v0.8/VRFConsumerBase.sol\";\n// import \"./Nft_Project.sol\";\n\ncontract Init{\n    address public author = 0x1Cd6F4D329D38043a6bDB3665c3a7b06F79B5242;\n    mapping(address => uint256) public role;\n    mapping(address => bytes) public uData;\n    uint256 public maxSupply;\n    uint256 public availSupply;\n    uint256 rate;\n    uint256 percent;\n    uint256 digits = 1 * 10 ** 18;\n    IERC20 internal Token20;\n    IERC721 internal Token721;\n    IERC1155 internal Token1155;\n    IERC20 internal MLQ;\n    mapping(address => bool) public isUser;\n    event Log(uint256 indexed id, address sender, address home, uint256 num, bytes message, uint256 stamp);\n    event Wait(uint256 indexed id, address sender, address home, uint256 num, bytes message, uint256 stamp);\n    uint256 logs;\n    modifier isAdmin() {\n        require(role[msg.sender] == 99, \"you're not admin\");\n        _;\n    }\n    modifier isOwner() {\n        require(author == msg.sender, \"you're not owner\");\n        _;\n    }\n    \n    function changeRole(address _to, uint256 _role) external isAdmin() returns(bool){\n        role[_to] = _role;\n        return true;\n    }\n    function makeU(string memory _data) external returns(bool){\n        isUser[msg.sender] = true;\n        role[msg.sender] = 1;\n        uData[msg.sender] = bytes(_data);\n        return true;\n    }\n    function showU() external view returns(string memory, uint256){\n        return(string(uData[msg.sender]),role[msg.sender]);\n    }\n    function withdrawToken(address _contract) external isAdmin() returns(bool){\n        Token20 = IERC20(_contract);  \n        Token20.transfer(author,Token20.balanceOf(address(this)));\n        return true;\n    }\n    function divide(uint256 _a, uint256 _b) internal pure returns(uint256 res){\n        uint256 rem = _a % _b;\n        res = (_a - rem) / _b;\n    }\n    fallback() external{\n\n    }\n}\ncontract Affilly8 is Init{\n\n    constructor(){                                                                                  // feed with utility token address\n        require(msg.sender == author);                                                                          // only author can build\n        role[msg.sender] = 99; \n        percent = 2;                                                                                 // make author admin\n        uData[msg.sender] = bytes('{\"username\":\"@stereoiii6\",\"email\":\"type.stereo@pm.me\"}');                    // set user data\n        isUser[msg.sender] = true;                                                                              // set is user true\n        emit Log(logs,msg.sender,address(this),999,bytes(\"contract created\"),block.timestamp);                  // log\n        logs++;                                                                                                 // iterate log                                                                                   // grab utility token \n    }                                                                        \n\n    struct Campaign { // NFT sale required fields\n        uint256 id;\n        bytes data;\n        address owner;\n        address tokenAddress;\n        uint256 tokenId;\n        uint256 price;\n        address payCurrency;\n        uint256 fee;\n        uint256 duration;\n    }\n\n    struct RefLinks{                                                                                            // Link Structs\n        uint256 id;                                                                                             // id\n        uint256 campaigId;                                                                                      // campaing reference id\n        address promoter;                                                                                       // fee reciever / promoter\n    }  \n    struct Transactions{\n        uint256 id;\n        uint256 rlid;\n        uint256 cid;\n        uint256 txdate;\n    }                                                                         \n    Campaign[] public campaigns;                                                                                // Campaign Mapping\n    RefLinks[] public links;                                                                                    // List Mapping\n    Transactions[] public txs;\n    mapping(address => uint256) internal myCampaignCount;                                                       // counts users campaigns\n    mapping(address => mapping(uint256 => Campaign)) public showCampaign;                                       // maps users campaigns\n    mapping(address => uint256) internal mylinkCount;                                                           // counts users links\n    mapping(address => mapping(uint256 => RefLinks)) public showLinks;                                          // maps users links\n    uint256 c;                                                                                                  // count campaigns\n    uint256 l;                                                                                                  // count links\n    uint256 t;                                                                                                  // count txs\n    modifier isU(){ // role 1\n        require(isUser[msg.sender] == true, \"you are not user\");\n        _;\n    }\n    modifier isProd(){ // role 2\n        require(role[msg.sender] == 1 || role[msg.sender] == 3 || role[msg.sender] == 99, \"you are not producer\");\n        _;\n    }\n    modifier isProm(){ // role 3\n        require(role[msg.sender] == 2 || role[msg.sender] == 3 || role[msg.sender] == 99, \"you are not promoter\");\n        _;\n    }\n    // both role 4 // admin role 99 \n    // become a producer \n    function getCampaignCount() external view returns(uint256){\n        return c;\n    }\n    function getLinkCount() external view returns(uint256){\n        return l;\n    }\n    function getTxCount() external view returns(uint256){\n        return t;\n    }\n    function beProducer() external isU() returns(bool){\n        require(role[msg.sender] != 2, \"you are producer\");\n        if(role[msg.sender] == 1) { role[msg.sender] = 2;}                                                      // if user is guest\n        if(role[msg.sender] == 3) { role[msg.sender] = 4;}                                                      // is user is promoter\n        emit Log(logs,msg.sender,address(this),999,bytes(\"became producer\"),block.timestamp);\n        logs++;\n        return true;\n    }\n    // become a promoter\n    function bePromoter() external isU() returns(bool){\n        require(role[msg.sender] != 3, \"you are promoter\");\n        if(role[msg.sender] == 1) { role[msg.sender] = 3;}                                                      // if user is guest \n        if(role[msg.sender] == 2) { role[msg.sender] = 4;}                                                      // if user is producer\n        emit Log(logs,msg.sender,address(this),999,bytes(\"became promoter\"),block.timestamp);\n        logs++;\n        return true;\n    }\n    // make a ref link\n    function makeLink(uint256 _cid) external isU() isProm() returns(bool){\n        links.push(RefLinks(l, _cid, msg.sender));                                                              // Push reflink to struct mapping\n        mylinkCount[msg.sender]++;                                                                              // iterate user link count\n        showLinks[msg.sender][l] = links[l];                                                                    // preserve links in mapping\n        emit Log(logs,msg.sender,address(this),l,bytes(\"link created\"),block.timestamp);                        // log \n        logs++;                                                                                                 // iterate log\n        l++;                                                                                                    // iterate link\n        return true;    \n    }   \n    // makes ref links for producers automatically  \n    function makeOwnLink(uint256 _cid) internal isU() returns(bool){    \n        links.push(RefLinks(l, _cid, msg.sender));                                                              // Push reflink to struct mapping\n        mylinkCount[msg.sender]++;                                                                              // iterate user link count\n        showLinks[msg.sender][l] = links[l];                                                                    // preserve links in mapping\n        emit Log(logs,msg.sender,address(this),l,bytes(\"link created\"),block.timestamp);                        // log \n        logs++;                                                                                                 // iterate log\n        l++;                                                                                                    // iterate link\n        return true;    \n    }   \n    // make a campaign  \n    function makeCampaign(  \n        uint256 _id,\n        string memory _data,\n        address _owner,\n        address _tokenAddress,\n        uint256 _tokenId,\n        uint256 _price,\n        address _payCurrency,\n        uint256 _fee,\n        uint256 _duration\n        )   \n        external payable isU() isProd() returns(bool){            \n                                                                                                                // transfer mlq to campaign safe\n        campaigns.push(                                                                                         // push campaign to mapping \n            Campaign( \n                 _id,\n                 bytes(_data),\n                 _owner,\n                 _tokenAddress,\n                 _tokenId,\n                 _price*digits,\n                 _payCurrency,\n                 _fee*digits,\n                 _duration*60*60  \n                )   \n            );  \n        myCampaignCount[msg.sender]++;                                                                          // iterate user campaign count\n        showCampaign[msg.sender][c] = campaigns[c];                                                             // preserve user campaign in mapping\n        emit Log(logs,msg.sender,address(this),c,bytes(\". campaign created\"),block.timestamp);                  // log\n        logs++;                                                                                                 // iterate logs\n        makeOwnLink(c);                                                                                         // create ref link for producer                                                                                                  // iterate item mapping\n        c++;                                                                                                    // iterate campaign mapping\n        return true;    \n    }\n    function approveCampaign(uint256 _cid) external returns(bool){\n        Campaign memory camp = campaigns[_cid]; \n        Token721 = IERC721(camp.tokenAddress);\n        Token20 = IERC20(camp.payCurrency);\n        Token721.setApprovalForAll(address(this),true);\n        Token20.approve(address(this),camp.price);\n        return true;\n    }   \n    // finalize a tx    \n    function finalize(uint _rlid) external payable returns(bool){   \n        uint256 cid = links[_rlid].campaigId;                                                                   // grab campaign id\n        address prom = links[_rlid].promoter;  \n        Campaign memory camp = campaigns[cid];                                                                  // grab link promoter\n        uint256 cfee = (100 / camp.price * percent);                                                                    // grab pay value (price - fee)\n        uint256 pay = (100 / camp.price * (100 - percent)) - camp.fee; \n        Token721 = IERC721(camp.tokenAddress);\n        if(camp.payCurrency != 0x0000000000000000000000000000000000000000) {\n            Token20 = IERC20(camp.payCurrency);\n            require(Token20.balanceOf(msg.sender) >= camp.price);\n            Token20.transferFrom(msg.sender, camp.owner, pay); // pay the nft\n            Token721.transferFrom(camp.owner, msg.sender, camp.tokenId); // send the nft\n            Token20.transferFrom(msg.sender, prom, camp.fee); // pay the promoter\n            Token20.transferFrom(msg.sender, address(this), cfee); // pay the contract\n            }\n        else {\n            require(msg.value >= camp.price);\n            payable(camp.owner).transfer(pay);  // pay nft\n            Token721.transferFrom(camp.owner, msg.sender, camp.tokenId); // send the nft\n            payable(prom).transfer(camp.fee);   // send the nft\n            payable(address(this)).transfer(cfee); // pay the contract\n        }\n        txs.push(Transactions(t, _rlid, cid, block.timestamp));\n        emit Log(logs,msg.sender,address(this),_rlid,bytes(\"link tx failed\"),block.timestamp); \n        t++;                 // log\n        logs++;                                                                                                 // iterate log\n        return true;\n    }\n    \n}",
  "sourcePath": "/Users/jediswag/Documents/GitHub/affilly8/contracts/Afillly8.sol",
  "compiler": {
    "name": "solc",
    "version": "0.8.13+commit.abaa5c0e.Emscripten.clang"
  },
  "schemaVersion": "3.4.4",
  "updatedAt": "2022-05-06T12:59:02.205Z",
  "networkType": "ethereum",
  "devdoc": {
    "kind": "dev",
    "methods": {},
    "version": 1
  },
  "userdoc": {
    "kind": "user",
    "methods": {},
    "version": 1
  }
}