{
  "contractName": "Affilly8",
  "abi": [
    {
      "inputs": [],
      "stateMutability": "nonpayable",
      "type": "constructor"
    },
    {
      "anonymous": false,
      "inputs": [
        {
          "indexed": true,
          "internalType": "uint256",
          "name": "id",
          "type": "uint256"
        },
        {
          "indexed": false,
          "internalType": "address",
          "name": "sender",
          "type": "address"
        },
        {
          "indexed": false,
          "internalType": "address",
          "name": "home",
          "type": "address"
        },
        {
          "indexed": false,
          "internalType": "uint256",
          "name": "num",
          "type": "uint256"
        },
        {
          "indexed": false,
          "internalType": "bytes",
          "name": "message",
          "type": "bytes"
        },
        {
          "indexed": false,
          "internalType": "uint256",
          "name": "stamp",
          "type": "uint256"
        }
      ],
      "name": "Log",
      "type": "event"
    },
    {
      "stateMutability": "nonpayable",
      "type": "fallback"
    },
    {
      "inputs": [],
      "name": "author",
      "outputs": [
        {
          "internalType": "address",
          "name": "",
          "type": "address"
        }
      ],
      "stateMutability": "view",
      "type": "function",
      "constant": true
    },
    {
      "inputs": [],
      "name": "availSupply",
      "outputs": [
        {
          "internalType": "uint256",
          "name": "",
          "type": "uint256"
        }
      ],
      "stateMutability": "view",
      "type": "function",
      "constant": true
    },
    {
      "inputs": [
        {
          "internalType": "uint256",
          "name": "",
          "type": "uint256"
        }
      ],
      "name": "campaigns",
      "outputs": [
        {
          "internalType": "uint256",
          "name": "typ",
          "type": "uint256"
        },
        {
          "internalType": "bytes",
          "name": "description",
          "type": "bytes"
        },
        {
          "internalType": "bytes",
          "name": "txAction",
          "type": "bytes"
        },
        {
          "internalType": "uint256",
          "name": "txPrice",
          "type": "uint256"
        },
        {
          "internalType": "address",
          "name": "currency",
          "type": "address"
        },
        {
          "internalType": "uint256",
          "name": "fee",
          "type": "uint256"
        },
        {
          "internalType": "address",
          "name": "txTo",
          "type": "address"
        },
        {
          "internalType": "uint256",
          "name": "interval",
          "type": "uint256"
        },
        {
          "internalType": "uint256",
          "name": "start",
          "type": "uint256"
        },
        {
          "internalType": "uint256",
          "name": "end",
          "type": "uint256"
        },
        {
          "internalType": "uint256",
          "name": "safeWallet",
          "type": "uint256"
        }
      ],
      "stateMutability": "view",
      "type": "function",
      "constant": true
    },
    {
      "inputs": [
        {
          "internalType": "address",
          "name": "_to",
          "type": "address"
        },
        {
          "internalType": "uint256",
          "name": "_role",
          "type": "uint256"
        }
      ],
      "name": "changeRole",
      "outputs": [
        {
          "internalType": "bool",
          "name": "",
          "type": "bool"
        }
      ],
      "stateMutability": "nonpayable",
      "type": "function"
    },
    {
      "inputs": [
        {
          "internalType": "address",
          "name": "",
          "type": "address"
        }
      ],
      "name": "isUser",
      "outputs": [
        {
          "internalType": "bool",
          "name": "",
          "type": "bool"
        }
      ],
      "stateMutability": "view",
      "type": "function",
      "constant": true
    },
    {
      "inputs": [
        {
          "internalType": "uint256",
          "name": "",
          "type": "uint256"
        }
      ],
      "name": "links",
      "outputs": [
        {
          "internalType": "uint256",
          "name": "id",
          "type": "uint256"
        },
        {
          "internalType": "uint256",
          "name": "campaigId",
          "type": "uint256"
        },
        {
          "internalType": "address",
          "name": "promoter",
          "type": "address"
        }
      ],
      "stateMutability": "view",
      "type": "function",
      "constant": true
    },
    {
      "inputs": [
        {
          "internalType": "string",
          "name": "_data",
          "type": "string"
        }
      ],
      "name": "makeU",
      "outputs": [
        {
          "internalType": "bool",
          "name": "",
          "type": "bool"
        }
      ],
      "stateMutability": "nonpayable",
      "type": "function"
    },
    {
      "inputs": [],
      "name": "maxSupply",
      "outputs": [
        {
          "internalType": "uint256",
          "name": "",
          "type": "uint256"
        }
      ],
      "stateMutability": "view",
      "type": "function",
      "constant": true
    },
    {
      "inputs": [
        {
          "internalType": "address",
          "name": "",
          "type": "address"
        }
      ],
      "name": "role",
      "outputs": [
        {
          "internalType": "uint256",
          "name": "",
          "type": "uint256"
        }
      ],
      "stateMutability": "view",
      "type": "function",
      "constant": true
    },
    {
      "inputs": [
        {
          "internalType": "address",
          "name": "",
          "type": "address"
        },
        {
          "internalType": "uint256",
          "name": "",
          "type": "uint256"
        }
      ],
      "name": "showCampaign",
      "outputs": [
        {
          "internalType": "uint256",
          "name": "typ",
          "type": "uint256"
        },
        {
          "internalType": "bytes",
          "name": "description",
          "type": "bytes"
        },
        {
          "internalType": "bytes",
          "name": "txAction",
          "type": "bytes"
        },
        {
          "internalType": "uint256",
          "name": "txPrice",
          "type": "uint256"
        },
        {
          "internalType": "address",
          "name": "currency",
          "type": "address"
        },
        {
          "internalType": "uint256",
          "name": "fee",
          "type": "uint256"
        },
        {
          "internalType": "address",
          "name": "txTo",
          "type": "address"
        },
        {
          "internalType": "uint256",
          "name": "interval",
          "type": "uint256"
        },
        {
          "internalType": "uint256",
          "name": "start",
          "type": "uint256"
        },
        {
          "internalType": "uint256",
          "name": "end",
          "type": "uint256"
        },
        {
          "internalType": "uint256",
          "name": "safeWallet",
          "type": "uint256"
        }
      ],
      "stateMutability": "view",
      "type": "function",
      "constant": true
    },
    {
      "inputs": [
        {
          "internalType": "address",
          "name": "",
          "type": "address"
        },
        {
          "internalType": "uint256",
          "name": "",
          "type": "uint256"
        }
      ],
      "name": "showLinks",
      "outputs": [
        {
          "internalType": "uint256",
          "name": "id",
          "type": "uint256"
        },
        {
          "internalType": "uint256",
          "name": "campaigId",
          "type": "uint256"
        },
        {
          "internalType": "address",
          "name": "promoter",
          "type": "address"
        }
      ],
      "stateMutability": "view",
      "type": "function",
      "constant": true
    },
    {
      "inputs": [],
      "name": "showU",
      "outputs": [
        {
          "internalType": "string",
          "name": "",
          "type": "string"
        },
        {
          "internalType": "uint256",
          "name": "",
          "type": "uint256"
        }
      ],
      "stateMutability": "view",
      "type": "function",
      "constant": true
    },
    {
      "inputs": [
        {
          "internalType": "address",
          "name": "",
          "type": "address"
        }
      ],
      "name": "uData",
      "outputs": [
        {
          "internalType": "bytes",
          "name": "",
          "type": "bytes"
        }
      ],
      "stateMutability": "view",
      "type": "function",
      "constant": true
    },
    {
      "inputs": [
        {
          "internalType": "address",
          "name": "_contract",
          "type": "address"
        }
      ],
      "name": "withdrawToken",
      "outputs": [
        {
          "internalType": "bool",
          "name": "",
          "type": "bool"
        }
      ],
      "stateMutability": "nonpayable",
      "type": "function"
    },
    {
      "inputs": [],
      "name": "beProducer",
      "outputs": [
        {
          "internalType": "bool",
          "name": "",
          "type": "bool"
        }
      ],
      "stateMutability": "nonpayable",
      "type": "function"
    },
    {
      "inputs": [],
      "name": "bePromoter",
      "outputs": [
        {
          "internalType": "bool",
          "name": "",
          "type": "bool"
        }
      ],
      "stateMutability": "nonpayable",
      "type": "function"
    },
    {
      "inputs": [
        {
          "internalType": "uint256",
          "name": "_cid",
          "type": "uint256"
        }
      ],
      "name": "makeLink",
      "outputs": [
        {
          "internalType": "bool",
          "name": "",
          "type": "bool"
        }
      ],
      "stateMutability": "nonpayable",
      "type": "function"
    },
    {
      "inputs": [
        {
          "internalType": "uint256",
          "name": "_type",
          "type": "uint256"
        },
        {
          "internalType": "string",
          "name": "_desc",
          "type": "string"
        },
        {
          "internalType": "string",
          "name": "_txAction",
          "type": "string"
        },
        {
          "internalType": "uint256",
          "name": "_price",
          "type": "uint256"
        },
        {
          "internalType": "uint256",
          "name": "_fee",
          "type": "uint256"
        },
        {
          "internalType": "address",
          "name": "_currency",
          "type": "address"
        },
        {
          "internalType": "address",
          "name": "_txTarget",
          "type": "address"
        },
        {
          "internalType": "uint256",
          "name": "_int",
          "type": "uint256"
        },
        {
          "internalType": "uint256",
          "name": "_start",
          "type": "uint256"
        },
        {
          "internalType": "uint256",
          "name": "_end",
          "type": "uint256"
        },
        {
          "internalType": "uint256",
          "name": "_safeIn",
          "type": "uint256"
        }
      ],
      "name": "makeCampaign",
      "outputs": [
        {
          "internalType": "bool",
          "name": "",
          "type": "bool"
        }
      ],
      "stateMutability": "payable",
      "type": "function",
      "payable": true
    },
    {
      "inputs": [
        {
          "internalType": "uint256",
          "name": "_rlid",
          "type": "uint256"
        }
      ],
      "name": "finalize",
      "outputs": [
        {
          "internalType": "bool",
          "name": "",
          "type": "bool"
        }
      ],
      "stateMutability": "payable",
      "type": "function",
      "payable": true
    }
  ],
  "bytecode": "0x6080604052731cd6f4d329d38043a6bdb3665c3a7b06f79b52426000806101000a81548173ffffffffffffffffffffffffffffffffffffffff021916908373ffffffffffffffffffffffffffffffffffffffff160217905550670de0b6b3a76400006006553480156200007157600080fd5b5060008054906101000a900473ffffffffffffffffffffffffffffffffffffffff1673ffffffffffffffffffffffffffffffffffffffff163373ffffffffffffffffffffffffffffffffffffffff1614620000cb57600080fd5b6063600160003373ffffffffffffffffffffffffffffffffffffffff1673ffffffffffffffffffffffffffffffffffffffff168152602001908152602001600020819055506040518060600160405280603681526020016200400260369139600260003373ffffffffffffffffffffffffffffffffffffffff1673ffffffffffffffffffffffffffffffffffffffff16815260200190815260200160002090805190602001906200017e92919062000272565b506001600960003373ffffffffffffffffffffffffffffffffffffffff1673ffffffffffffffffffffffffffffffffffffffff16815260200190815260200160002060006101000a81548160ff021916908315150217905550600a547f5c155e8f37136295b53ae72fb3c0f568542d008fa91b541061b2d58d80d2657f33306103e76040518060400160405280601081526020017f636f6e7472616374206372656174656400000000000000000000000000000000815250426040516200024a95949392919062000473565b60405180910390a2600a6000815480929190620002679062000506565b9190505550620005b7565b828054620002809062000582565b90600052602060002090601f016020900481019282620002a45760008555620002f0565b82601f10620002bf57805160ff1916838001178555620002f0565b82800160010185558215620002f0579182015b82811115620002ef578251825591602001919060010190620002d2565b5b509050620002ff919062000303565b5090565b5b808211156200031e57600081600090555060010162000304565b5090565b600073ffffffffffffffffffffffffffffffffffffffff82169050919050565b60006200034f8262000322565b9050919050565b620003618162000342565b82525050565b6000819050919050565b6000819050919050565b6000819050919050565b6000620003a6620003a06200039a8462000367565b6200037b565b62000371565b9050919050565b620003b88162000385565b82525050565b600081519050919050565b600082825260208201905092915050565b60005b83811015620003fa578082015181840152602081019050620003dd565b838111156200040a576000848401525b50505050565b6000601f19601f8301169050919050565b60006200042e82620003be565b6200043a8185620003c9565b93506200044c818560208601620003da565b620004578162000410565b840191505092915050565b6200046d8162000371565b82525050565b600060a0820190506200048a600083018862000356565b62000499602083018762000356565b620004a86040830186620003ad565b8181036060830152620004bc818562000421565b9050620004cd608083018462000462565b9695505050505050565b7f4e487b7100000000000000000000000000000000000000000000000000000000600052601160045260246000fd5b6000620005138262000371565b91507fffffffffffffffffffffffffffffffffffffffffffffffffffffffffffffffff8203620005485762000547620004d7565b5b600182019050919050565b7f4e487b7100000000000000000000000000000000000000000000000000000000600052602260045260246000fd5b600060028204905060018216806200059b57607f821691505b602082108103620005b157620005b062000553565b5b50919050565b613a3b80620005c76000396000f3fe6080604052600436106101185760003560e01c8063820a2002116100a0578063b7187e3511610064578063b7187e3514610416578063d09e747f14610453578063d590f8c91461049a578063d5abeb01146104d7578063ea319b881461050257610119565b8063820a200214610314578063881d8a401461034457806389476069146103835780639f5215dd146103c0578063a6c3e6b9146103eb57610119565b8063274daa35116100e7578063274daa35146102185780632a1e5ef3146102445780632e3606ad1461026f5780634209fff11461029a5780636d65d97b146102d757610119565b806305261aea146101275780630acfd58e14610157578063141961bc14610194578063268b5227146101db57610119565b5b34801561012557600080fd5b005b610141600480360381019061013c9190612c9d565b610541565b60405161014e9190612ce5565b60405180910390f35b34801561016357600080fd5b5061017e60048036038101906101799190612d5e565b610ba1565b60405161018b9190612ce5565b60405180910390f35b3480156101a057600080fd5b506101bb60048036038101906101b69190612c9d565b610c73565b6040516101d29b9a99989796959493929190612e55565b60405180910390f35b3480156101e757600080fd5b5061020260048036038101906101fd9190613043565b610e2d565b60405161020f9190612ce5565b60405180910390f35b34801561022457600080fd5b5061022d610f28565b60405161023b9291906130e1565b60405180910390f35b34801561025057600080fd5b5061025961103f565b6040516102669190612ce5565b60405180910390f35b34801561027b57600080fd5b50610284611307565b6040516102919190612ce5565b60405180910390f35b3480156102a657600080fd5b506102c160048036038101906102bc9190613111565b6115cf565b6040516102ce9190612ce5565b60405180910390f35b3480156102e357600080fd5b506102fe60048036038101906102f99190612c9d565b6115ef565b60405161030b9190612ce5565b60405180910390f35b61032e6004803603810190610329919061313e565b611a50565b60405161033b9190612ce5565b60405180910390f35b34801561035057600080fd5b5061036b60048036038101906103669190612c9d565b61225e565b60405161037a9392919061326a565b60405180910390f35b34801561038f57600080fd5b506103aa60048036038101906103a59190613111565b6122b8565b6040516103b79190612ce5565b60405180910390f35b3480156103cc57600080fd5b506103d56124e2565b6040516103e291906132a1565b60405180910390f35b3480156103f757600080fd5b506104006124e8565b60405161040d91906132bc565b60405180910390f35b34801561042257600080fd5b5061043d60048036038101906104389190613111565b61250c565b60405161044a91906132d7565b60405180910390f35b34801561045f57600080fd5b5061047a60048036038101906104759190612d5e565b6125ac565b6040516104919b9a99989796959493929190612e55565b60405180910390f35b3480156104a657600080fd5b506104c160048036038101906104bc9190613111565b612763565b6040516104ce91906132a1565b60405180910390f35b3480156104e357600080fd5b506104ec61277b565b6040516104f991906132a1565b60405180910390f35b34801561050e57600080fd5b5061052960048036038101906105249190612d5e565b612781565b6040516105389392919061326a565b60405180910390f35b600080600c8381548110610558576105576132f9565b5b90600052602060002090600302016001015490506000600c8481548110610582576105816132f9565b5b906000526020600020906003020160020160009054906101000a900473ffffffffffffffffffffffffffffffffffffffff169050600b82815481106105ca576105c96132f9565b5b90600052602060002090600b020160040160009054906101000a900473ffffffffffffffffffffffffffffffffffffffff16600760006101000a81548173ffffffffffffffffffffffffffffffffffffffff021916908373ffffffffffffffffffffffffffffffffffffffff1602179055506000600b8381548110610652576106516132f9565b5b90600052602060002090600b020160050154600b8481548110610678576106776132f9565b5b90600052602060002090600b0201600301546106949190613357565b90506000600b84815481106106ac576106ab6132f9565b5b90600052602060002090600b020160020180546106c8906133ba565b80601f01602080910402602001604051908101604052809291908181526020018280546106f4906133ba565b80156107415780601f1061071657610100808354040283529160200191610741565b820191906000526020600020905b81548152906001019060200180831161072457829003601f168201915b505050505090506000600b858154811061075e5761075d6132f9565b5b90600052602060002090600b020160060160009054906101000a900473ffffffffffffffffffffffffffffffffffffffff1673ffffffffffffffffffffffffffffffffffffffff168361c3509084604051602401604051602081830303815290604052906040516107cf9190613427565b60405180910390207bffffffffffffffffffffffffffffffffffffffffffffffffffffffff19166020820180517bffffffffffffffffffffffffffffffffffffffffffffffffffffffff8381831617835250505050604051610831919061347a565b600060405180830381858888f193505050503d806000811461086f576040519150601f19603f3d011682016040523d82523d6000602084013e610874565b606091505b5050905080610b03576000806000905080600b8881548110610899576108986132f9565b5b90600052602060002090600b0201600001540361091957309150600b87815481106108c7576108c66132f9565b5b90600052602060002090600b020160050154600b88815481106108ed576108ec6132f9565b5b90600052602060002090600b0201600a01600082825461090d9190613357565b9250508190555061091d565b3391505b600073ffffffffffffffffffffffffffffffffffffffff16600b8881548110610949576109486132f9565b5b90600052602060002090600b020160040160009054906101000a900473ffffffffffffffffffffffffffffffffffffffff1673ffffffffffffffffffffffffffffffffffffffff1614610a6357600760009054906101000a900473ffffffffffffffffffffffffffffffffffffffff1673ffffffffffffffffffffffffffffffffffffffff166323b872dd8388600b8b815481106109ea576109e96132f9565b5b90600052602060002090600b0201600501546040518463ffffffff1660e01b8152600401610a1a93929190613491565b6020604051808303816000875af1158015610a39573d6000803e3d6000fd5b505050506040513d601f19601f82011682018060405250810190610a5d91906134f4565b50610adb565b600a547f5c155e8f37136295b53ae72fb3c0f568542d008fa91b541061b2d58d80d2657f33308c6040518060400160405280601181526020017f6c696e6b2074782066696e616c697a656400000000000000000000000000000081525042604051610ad2959493929190613521565b60405180910390a25b600a6000815480929190610aee9061357b565b91905055506000975050505050505050610b9c565b600a547f5c155e8f37136295b53ae72fb3c0f568542d008fa91b541061b2d58d80d2657f33308a6040518060400160405280600e81526020017f6c696e6b207478206661696c656400000000000000000000000000000000000081525042604051610b72959493929190613521565b60405180910390a2600a6000815480929190610b8d9061357b565b91905055506001955050505050505b919050565b60006063600160003373ffffffffffffffffffffffffffffffffffffffff1673ffffffffffffffffffffffffffffffffffffffff1681526020019081526020016000205414610c25576040517f08c379a0000000000000000000000000000000000000000000000000000000008152600401610c1c9061360f565b60405180910390fd5b81600160008573ffffffffffffffffffffffffffffffffffffffff1673ffffffffffffffffffffffffffffffffffffffff168152602001908152602001600020819055506001905092915050565b600b8181548110610c8357600080fd5b90600052602060002090600b0201600091509050806000015490806001018054610cac906133ba565b80601f0160208091040260200160405190810160405280929190818152602001828054610cd8906133ba565b8015610d255780601f10610cfa57610100808354040283529160200191610d25565b820191906000526020600020905b815481529060010190602001808311610d0857829003601f168201915b505050505090806002018054610d3a906133ba565b80601f0160208091040260200160405190810160405280929190818152602001828054610d66906133ba565b8015610db35780601f10610d8857610100808354040283529160200191610db3565b820191906000526020600020905b815481529060010190602001808311610d9657829003601f168201915b5050505050908060030154908060040160009054906101000a900473ffffffffffffffffffffffffffffffffffffffff16908060050154908060060160009054906101000a900473ffffffffffffffffffffffffffffffffffffffff169080600701549080600801549080600901549080600a015490508b565b60006001600960003373ffffffffffffffffffffffffffffffffffffffff1673ffffffffffffffffffffffffffffffffffffffff16815260200190815260200160002060006101000a81548160ff02191690831515021790555060018060003373ffffffffffffffffffffffffffffffffffffffff1673ffffffffffffffffffffffffffffffffffffffff1681526020019081526020016000208190555081600260003373ffffffffffffffffffffffffffffffffffffffff1673ffffffffffffffffffffffffffffffffffffffff1681526020019081526020016000209080519060200190610f1e929190612b23565b5060019050919050565b60606000600260003373ffffffffffffffffffffffffffffffffffffffff1673ffffffffffffffffffffffffffffffffffffffff168152602001908152602001600020600160003373ffffffffffffffffffffffffffffffffffffffff1673ffffffffffffffffffffffffffffffffffffffff16815260200190815260200160002054818054610fb7906133ba565b80601f0160208091040260200160405190810160405280929190818152602001828054610fe3906133ba565b80156110305780601f1061100557610100808354040283529160200191611030565b820191906000526020600020905b81548152906001019060200180831161101357829003601f168201915b50505050509150915091509091565b600060011515600960003373ffffffffffffffffffffffffffffffffffffffff1673ffffffffffffffffffffffffffffffffffffffff16815260200190815260200160002060009054906101000a900460ff161515146110d4576040517f08c379a00000000000000000000000000000000000000000000000000000000081526004016110cb9061367b565b60405180910390fd5b6003600160003373ffffffffffffffffffffffffffffffffffffffff1673ffffffffffffffffffffffffffffffffffffffff1681526020019081526020016000205403611156576040517f08c379a000000000000000000000000000000000000000000000000000000000815260040161114d906136e7565b60405180910390fd5b60018060003373ffffffffffffffffffffffffffffffffffffffff1673ffffffffffffffffffffffffffffffffffffffff16815260200190815260200160002054036111e2576003600160003373ffffffffffffffffffffffffffffffffffffffff1673ffffffffffffffffffffffffffffffffffffffff168152602001908152602001600020819055505b6002600160003373ffffffffffffffffffffffffffffffffffffffff1673ffffffffffffffffffffffffffffffffffffffff168152602001908152602001600020540361126f576004600160003373ffffffffffffffffffffffffffffffffffffffff1673ffffffffffffffffffffffffffffffffffffffff168152602001908152602001600020819055505b600a547f5c155e8f37136295b53ae72fb3c0f568542d008fa91b541061b2d58d80d2657f33306103e76040518060400160405280600f81526020017f626563616d652070726f6d6f7465720000000000000000000000000000000000815250426040516112e095949392919061374c565b60405180910390a2600a60008154809291906112fb9061357b565b91905055506001905090565b600060011515600960003373ffffffffffffffffffffffffffffffffffffffff1673ffffffffffffffffffffffffffffffffffffffff16815260200190815260200160002060009054906101000a900460ff1615151461139c576040517f08c379a00000000000000000000000000000000000000000000000000000000081526004016113939061367b565b60405180910390fd5b6002600160003373ffffffffffffffffffffffffffffffffffffffff1673ffffffffffffffffffffffffffffffffffffffff168152602001908152602001600020540361141e576040517f08c379a0000000000000000000000000000000000000000000000000000000008152600401611415906137f2565b60405180910390fd5b60018060003373ffffffffffffffffffffffffffffffffffffffff1673ffffffffffffffffffffffffffffffffffffffff16815260200190815260200160002054036114aa576002600160003373ffffffffffffffffffffffffffffffffffffffff1673ffffffffffffffffffffffffffffffffffffffff168152602001908152602001600020819055505b6003600160003373ffffffffffffffffffffffffffffffffffffffff1673ffffffffffffffffffffffffffffffffffffffff1681526020019081526020016000205403611537576004600160003373ffffffffffffffffffffffffffffffffffffffff1673ffffffffffffffffffffffffffffffffffffffff168152602001908152602001600020819055505b600a547f5c155e8f37136295b53ae72fb3c0f568542d008fa91b541061b2d58d80d2657f33306103e76040518060400160405280600f81526020017f626563616d652070726f64756365720000000000000000000000000000000000815250426040516115a895949392919061374c565b60405180910390a2600a60008154809291906115c39061357b565b91905055506001905090565b60096020528060005260406000206000915054906101000a900460ff1681565b600060011515600960003373ffffffffffffffffffffffffffffffffffffffff1673ffffffffffffffffffffffffffffffffffffffff16815260200190815260200160002060009054906101000a900460ff16151514611684576040517f08c379a000000000000000000000000000000000000000000000000000000000815260040161167b9061367b565b60405180910390fd5b6003600160003373ffffffffffffffffffffffffffffffffffffffff1673ffffffffffffffffffffffffffffffffffffffff16815260200190815260200160002054148061171157506004600160003373ffffffffffffffffffffffffffffffffffffffff1673ffffffffffffffffffffffffffffffffffffffff16815260200190815260200160002054145b8061175b57506063600160003373ffffffffffffffffffffffffffffffffffffffff1673ffffffffffffffffffffffffffffffffffffffff16815260200190815260200160002054145b61179a576040517f08c379a00000000000000000000000000000000000000000000000000000000081526004016117919061385e565b60405180910390fd5b600c604051806060016040528060125481526020018481526020013373ffffffffffffffffffffffffffffffffffffffff168152509080600181540180825580915050600190039060005260206000209060030201600090919091909150600082015181600001556020820151816001015560408201518160020160006101000a81548173ffffffffffffffffffffffffffffffffffffffff021916908373ffffffffffffffffffffffffffffffffffffffff1602179055505050600f60003373ffffffffffffffffffffffffffffffffffffffff1673ffffffffffffffffffffffffffffffffffffffff16815260200190815260200160002060008154809291906118a59061357b565b9190505550600c601254815481106118c0576118bf6132f9565b5b9060005260206000209060030201601060003373ffffffffffffffffffffffffffffffffffffffff1673ffffffffffffffffffffffffffffffffffffffff1681526020019081526020016000206000601254815260200190815260200160002060008201548160000155600182015481600101556002820160009054906101000a900473ffffffffffffffffffffffffffffffffffffffff168160020160006101000a81548173ffffffffffffffffffffffffffffffffffffffff021916908373ffffffffffffffffffffffffffffffffffffffff160217905550905050600a547f5c155e8f37136295b53ae72fb3c0f568542d008fa91b541061b2d58d80d2657f33306012546040518060400160405280600c81526020017f6c696e6b2063726561746564000000000000000000000000000000000000000081525042604051611a0f959493929190613521565b60405180910390a2600a6000815480929190611a2a9061357b565b919050555060126000815480929190611a429061357b565b919050555060019050919050565b600060011515600960003373ffffffffffffffffffffffffffffffffffffffff1673ffffffffffffffffffffffffffffffffffffffff16815260200190815260200160002060009054906101000a900460ff16151514611ae5576040517f08c379a0000000000000000000000000000000000000000000000000000000008152600401611adc9061367b565b60405180910390fd5b6002600160003373ffffffffffffffffffffffffffffffffffffffff1673ffffffffffffffffffffffffffffffffffffffff168152602001908152602001600020541480611b7257506004600160003373ffffffffffffffffffffffffffffffffffffffff1673ffffffffffffffffffffffffffffffffffffffff16815260200190815260200160002054145b80611bbc57506063600160003373ffffffffffffffffffffffffffffffffffffffff1673ffffffffffffffffffffffffffffffffffffffff16815260200190815260200160002054145b611bfb576040517f08c379a0000000000000000000000000000000000000000000000000000000008152600401611bf2906138ca565b60405180910390fd5b60008c03611c445760065460326006548a611c1691906138ea565b611c2091906138ea565b611c2a91906138ea565b60065483611c3891906138ea565b1015611c4357600080fd5b5b600860009054906101000a900473ffffffffffffffffffffffffffffffffffffffff1673ffffffffffffffffffffffffffffffffffffffff166323b872dd333060065486611c9291906138ea565b6040518463ffffffff1660e01b8152600401611cb093929190613491565b6020604051808303816000875af1158015611ccf573d6000803e3d6000fd5b505050506040513d601f19601f82011682018060405250810190611cf391906134f4565b50600b6040518061016001604052808e81526020018d81526020018c81526020016006548c611d2291906138ea565b81526020018973ffffffffffffffffffffffffffffffffffffffff1681526020016006548b611d5191906138ea565b81526020018873ffffffffffffffffffffffffffffffffffffffff168152602001603c8089611d8091906138ea565b611d8a91906138ea565b815260200168056bc75e2d63100000603c8089611da791906138ea565b611db191906138ea565b611dbb91906138ea565b42611dc69190613944565b8152602001701d6329f1c35ca4bfabb9f5610000000000603c8088611deb91906138ea565b611df591906138ea565b611dff91906138ea565b42611e0a9190613944565b815260200160065485611e1d91906138ea565b81525090806001815401808255809150506001900390600052602060002090600b0201600090919091909150600082015181600001556020820151816001019080519060200190611e6f929190612b23565b506040820151816002019080519060200190611e8c929190612b23565b506060820151816003015560808201518160040160006101000a81548173ffffffffffffffffffffffffffffffffffffffff021916908373ffffffffffffffffffffffffffffffffffffffff16021790555060a0820151816005015560c08201518160060160006101000a81548173ffffffffffffffffffffffffffffffffffffffff021916908373ffffffffffffffffffffffffffffffffffffffff16021790555060e082015181600701556101008201518160080155610120820151816009015561014082015181600a01555050600d60003373ffffffffffffffffffffffffffffffffffffffff1673ffffffffffffffffffffffffffffffffffffffff1681526020019081526020016000206000815480929190611fac9061357b565b9190505550600b60115481548110611fc757611fc66132f9565b5b90600052602060002090600b0201600e60003373ffffffffffffffffffffffffffffffffffffffff1673ffffffffffffffffffffffffffffffffffffffff16815260200190815260200160002060006011548152602001908152602001600020600082015481600001556001820181600101908054612045906133ba565b612050929190612ba9565b506002820181600201908054612065906133ba565b612070929190612ba9565b50600382015481600301556004820160009054906101000a900473ffffffffffffffffffffffffffffffffffffffff168160040160006101000a81548173ffffffffffffffffffffffffffffffffffffffff021916908373ffffffffffffffffffffffffffffffffffffffff160217905550600582015481600501556006820160009054906101000a900473ffffffffffffffffffffffffffffffffffffffff168160060160006101000a81548173ffffffffffffffffffffffffffffffffffffffff021916908373ffffffffffffffffffffffffffffffffffffffff160217905550600782015481600701556008820154816008015560098201548160090155600a82015481600a0155905050600a547f5c155e8f37136295b53ae72fb3c0f568542d008fa91b541061b2d58d80d2657f33306011546040518060400160405280601281526020017f2e2063616d706169676e20637265617465640000000000000000000000000000815250426040516121ef959493929190613521565b60405180910390a2600a600081548092919061220a9061357b565b919050555061221a6011546127d8565b506012600081548092919061222e9061357b565b9190505550601160008154809291906122469061357b565b9190505550600190509b9a5050505050505050505050565b600c818154811061226e57600080fd5b90600052602060002090600302016000915090508060000154908060010154908060020160009054906101000a900473ffffffffffffffffffffffffffffffffffffffff16905083565b60006063600160003373ffffffffffffffffffffffffffffffffffffffff1673ffffffffffffffffffffffffffffffffffffffff168152602001908152602001600020541461233c576040517f08c379a00000000000000000000000000000000000000000000000000000000081526004016123339061360f565b60405180910390fd5b81600760006101000a81548173ffffffffffffffffffffffffffffffffffffffff021916908373ffffffffffffffffffffffffffffffffffffffff160217905550600760009054906101000a900473ffffffffffffffffffffffffffffffffffffffff1673ffffffffffffffffffffffffffffffffffffffff1663a9059cbb60008054906101000a900473ffffffffffffffffffffffffffffffffffffffff16600760009054906101000a900473ffffffffffffffffffffffffffffffffffffffff1673ffffffffffffffffffffffffffffffffffffffff166370a08231306040518263ffffffff1660e01b815260040161243791906132bc565b602060405180830381865afa158015612454573d6000803e3d6000fd5b505050506040513d601f19601f8201168201806040525081019061247891906139af565b6040518363ffffffff1660e01b81526004016124959291906139dc565b6020604051808303816000875af11580156124b4573d6000803e3d6000fd5b505050506040513d601f19601f820116820180604052508101906124d891906134f4565b5060019050919050565b60045481565b60008054906101000a900473ffffffffffffffffffffffffffffffffffffffff1681565b6002602052806000526040600020600091509050805461252b906133ba565b80601f0160208091040260200160405190810160405280929190818152602001828054612557906133ba565b80156125a45780601f10612579576101008083540402835291602001916125a4565b820191906000526020600020905b81548152906001019060200180831161258757829003601f168201915b505050505081565b600e602052816000526040600020602052806000526040600020600091509150508060000154908060010180546125e2906133ba565b80601f016020809104026020016040519081016040528092919081815260200182805461260e906133ba565b801561265b5780601f106126305761010080835404028352916020019161265b565b820191906000526020600020905b81548152906001019060200180831161263e57829003601f168201915b505050505090806002018054612670906133ba565b80601f016020809104026020016040519081016040528092919081815260200182805461269c906133ba565b80156126e95780601f106126be576101008083540402835291602001916126e9565b820191906000526020600020905b8154815290600101906020018083116126cc57829003601f168201915b5050505050908060030154908060040160009054906101000a900473ffffffffffffffffffffffffffffffffffffffff16908060050154908060060160009054906101000a900473ffffffffffffffffffffffffffffffffffffffff169080600701549080600801549080600901549080600a015490508b565b60016020528060005260406000206000915090505481565b60035481565b6010602052816000526040600020602052806000526040600020600091509150508060000154908060010154908060020160009054906101000a900473ffffffffffffffffffffffffffffffffffffffff16905083565b600060011515600960003373ffffffffffffffffffffffffffffffffffffffff1673ffffffffffffffffffffffffffffffffffffffff16815260200190815260200160002060009054906101000a900460ff1615151461286d576040517f08c379a00000000000000000000000000000000000000000000000000000000081526004016128649061367b565b60405180910390fd5b600c604051806060016040528060125481526020018481526020013373ffffffffffffffffffffffffffffffffffffffff168152509080600181540180825580915050600190039060005260206000209060030201600090919091909150600082015181600001556020820151816001015560408201518160020160006101000a81548173ffffffffffffffffffffffffffffffffffffffff021916908373ffffffffffffffffffffffffffffffffffffffff1602179055505050600f60003373ffffffffffffffffffffffffffffffffffffffff1673ffffffffffffffffffffffffffffffffffffffff16815260200190815260200160002060008154809291906129789061357b565b9190505550600c60125481548110612993576129926132f9565b5b9060005260206000209060030201601060003373ffffffffffffffffffffffffffffffffffffffff1673ffffffffffffffffffffffffffffffffffffffff1681526020019081526020016000206000601254815260200190815260200160002060008201548160000155600182015481600101556002820160009054906101000a900473ffffffffffffffffffffffffffffffffffffffff168160020160006101000a81548173ffffffffffffffffffffffffffffffffffffffff021916908373ffffffffffffffffffffffffffffffffffffffff160217905550905050600a547f5c155e8f37136295b53ae72fb3c0f568542d008fa91b541061b2d58d80d2657f33306012546040518060400160405280600c81526020017f6c696e6b2063726561746564000000000000000000000000000000000000000081525042604051612ae2959493929190613521565b60405180910390a2600a6000815480929190612afd9061357b565b919050555060126000815480929190612b159061357b565b919050555060019050919050565b828054612b2f906133ba565b90600052602060002090601f016020900481019282612b515760008555612b98565b82601f10612b6a57805160ff1916838001178555612b98565b82800160010185558215612b98579182015b82811115612b97578251825591602001919060010190612b7c565b5b509050612ba59190612c36565b5090565b828054612bb5906133ba565b90600052602060002090601f016020900481019282612bd75760008555612c25565b82601f10612be85780548555612c25565b82800160010185558215612c2557600052602060002091601f016020900482015b82811115612c24578254825591600101919060010190612c09565b5b509050612c329190612c36565b5090565b5b80821115612c4f576000816000905550600101612c37565b5090565b6000604051905090565b600080fd5b600080fd5b6000819050919050565b612c7a81612c67565b8114612c8557600080fd5b50565b600081359050612c9781612c71565b92915050565b600060208284031215612cb357612cb2612c5d565b5b6000612cc184828501612c88565b91505092915050565b60008115159050919050565b612cdf81612cca565b82525050565b6000602082019050612cfa6000830184612cd6565b92915050565b600073ffffffffffffffffffffffffffffffffffffffff82169050919050565b6000612d2b82612d00565b9050919050565b612d3b81612d20565b8114612d4657600080fd5b50565b600081359050612d5881612d32565b92915050565b60008060408385031215612d7557612d74612c5d565b5b6000612d8385828601612d49565b9250506020612d9485828601612c88565b9150509250929050565b612da781612c67565b82525050565b600081519050919050565b600082825260208201905092915050565b60005b83811015612de7578082015181840152602081019050612dcc565b83811115612df6576000848401525b50505050565b6000601f19601f8301169050919050565b6000612e1882612dad565b612e228185612db8565b9350612e32818560208601612dc9565b612e3b81612dfc565b840191505092915050565b612e4f81612d20565b82525050565b600061016082019050612e6b600083018e612d9e565b8181036020830152612e7d818d612e0d565b90508181036040830152612e91818c612e0d565b9050612ea0606083018b612d9e565b612ead608083018a612e46565b612eba60a0830189612d9e565b612ec760c0830188612e46565b612ed460e0830187612d9e565b612ee2610100830186612d9e565b612ef0610120830185612d9e565b612efe610140830184612d9e565b9c9b505050505050505050505050565b600080fd5b600080fd5b7f4e487b7100000000000000000000000000000000000000000000000000000000600052604160045260246000fd5b612f5082612dfc565b810181811067ffffffffffffffff82111715612f6f57612f6e612f18565b5b80604052505050565b6000612f82612c53565b9050612f8e8282612f47565b919050565b600067ffffffffffffffff821115612fae57612fad612f18565b5b612fb782612dfc565b9050602081019050919050565b82818337600083830152505050565b6000612fe6612fe184612f93565b612f78565b90508281526020810184848401111561300257613001612f13565b5b61300d848285612fc4565b509392505050565b600082601f83011261302a57613029612f0e565b5b813561303a848260208601612fd3565b91505092915050565b60006020828403121561305957613058612c5d565b5b600082013567ffffffffffffffff81111561307757613076612c62565b5b61308384828501613015565b91505092915050565b600081519050919050565b600082825260208201905092915050565b60006130b38261308c565b6130bd8185613097565b93506130cd818560208601612dc9565b6130d681612dfc565b840191505092915050565b600060408201905081810360008301526130fb81856130a8565b905061310a6020830184612d9e565b9392505050565b60006020828403121561312757613126612c5d565b5b600061313584828501612d49565b91505092915050565b60008060008060008060008060008060006101608c8e03121561316457613163612c5d565b5b60006131728e828f01612c88565b9b505060208c013567ffffffffffffffff81111561319357613192612c62565b5b61319f8e828f01613015565b9a505060408c013567ffffffffffffffff8111156131c0576131bf612c62565b5b6131cc8e828f01613015565b99505060606131dd8e828f01612c88565b98505060806131ee8e828f01612c88565b97505060a06131ff8e828f01612d49565b96505060c06132108e828f01612d49565b95505060e06132218e828f01612c88565b9450506101006132338e828f01612c88565b9350506101206132458e828f01612c88565b9250506101406132578e828f01612c88565b9150509295989b509295989b9093969950565b600060608201905061327f6000830186612d9e565b61328c6020830185612d9e565b6132996040830184612e46565b949350505050565b60006020820190506132b66000830184612d9e565b92915050565b60006020820190506132d16000830184612e46565b92915050565b600060208201905081810360008301526132f18184612e0d565b905092915050565b7f4e487b7100000000000000000000000000000000000000000000000000000000600052603260045260246000fd5b7f4e487b7100000000000000000000000000000000000000000000000000000000600052601160045260246000fd5b600061336282612c67565b915061336d83612c67565b9250828210156133805761337f613328565b5b828203905092915050565b7f4e487b7100000000000000000000000000000000000000000000000000000000600052602260045260246000fd5b600060028204905060018216806133d257607f821691505b6020821081036133e5576133e461338b565b5b50919050565b600081905092915050565b60006134018261308c565b61340b81856133eb565b935061341b818560208601612dc9565b80840191505092915050565b600061343382846133f6565b915081905092915050565b600081905092915050565b600061345482612dad565b61345e818561343e565b935061346e818560208601612dc9565b80840191505092915050565b60006134868284613449565b915081905092915050565b60006060820190506134a66000830186612e46565b6134b36020830185612e46565b6134c06040830184612d9e565b949350505050565b6134d181612cca565b81146134dc57600080fd5b50565b6000815190506134ee816134c8565b92915050565b60006020828403121561350a57613509612c5d565b5b6000613518848285016134df565b91505092915050565b600060a0820190506135366000830188612e46565b6135436020830187612e46565b6135506040830186612d9e565b81810360608301526135628185612e0d565b90506135716080830184612d9e565b9695505050505050565b600061358682612c67565b91507fffffffffffffffffffffffffffffffffffffffffffffffffffffffffffffffff82036135b8576135b7613328565b5b600182019050919050565b7f796f75277265206e6f742061646d696e00000000000000000000000000000000600082015250565b60006135f9601083613097565b9150613604826135c3565b602082019050919050565b60006020820190508181036000830152613628816135ec565b9050919050565b7f796f7520617265206e6f74207573657200000000000000000000000000000000600082015250565b6000613665601083613097565b91506136708261362f565b602082019050919050565b6000602082019050818103600083015261369481613658565b9050919050565b7f796f75206172652070726f6d6f74657200000000000000000000000000000000600082015250565b60006136d1601083613097565b91506136dc8261369b565b602082019050919050565b60006020820190508181036000830152613700816136c4565b9050919050565b6000819050919050565b6000819050919050565b600061373661373161372c84613707565b613711565b612c67565b9050919050565b6137468161371b565b82525050565b600060a0820190506137616000830188612e46565b61376e6020830187612e46565b61377b604083018661373d565b818103606083015261378d8185612e0d565b905061379c6080830184612d9e565b9695505050505050565b7f796f75206172652070726f647563657200000000000000000000000000000000600082015250565b60006137dc601083613097565b91506137e7826137a6565b602082019050919050565b6000602082019050818103600083015261380b816137cf565b9050919050565b7f796f7520617265206e6f742070726f6d6f746572000000000000000000000000600082015250565b6000613848601483613097565b915061385382613812565b602082019050919050565b600060208201905081810360008301526138778161383b565b9050919050565b7f796f7520617265206e6f742070726f6475636572000000000000000000000000600082015250565b60006138b4601483613097565b91506138bf8261387e565b602082019050919050565b600060208201905081810360008301526138e3816138a7565b9050919050565b60006138f582612c67565b915061390083612c67565b9250817fffffffffffffffffffffffffffffffffffffffffffffffffffffffffffffffff048311821515161561393957613938613328565b5b828202905092915050565b600061394f82612c67565b915061395a83612c67565b9250827fffffffffffffffffffffffffffffffffffffffffffffffffffffffffffffffff0382111561398f5761398e613328565b5b828201905092915050565b6000815190506139a981612c71565b92915050565b6000602082840312156139c5576139c4612c5d565b5b60006139d38482850161399a565b91505092915050565b60006040820190506139f16000830185612e46565b6139fe6020830184612d9e565b939250505056fea2646970667358221220864495bc2e95870fbe57bd3c4929c2303cf1e346592bf785da6050e4f1278d5564736f6c634300080d00337b22757365726e616d65223a224073746572656f69696936222c22656d61696c223a22747970652e73746572656f40706d2e6d65227d",
  "immutableReferences": {},
  "source": "// SPDX-License-Identifier: GPL-3.0\n// // // // // // // // // // // // // // // // // // // // // // // // // // // // // // // // // // // // // // // // // // // // // // // // // // // // // // // // // // // // //\n//   \n//      \n//      \n//      \n//      \n//      \n//      \n//      \n//      \n// \n// // // // // // // // // // // // // // // // // // // // // // // // // // // // // // // // // // // // // // // // // // // // // // // // // // // // // // // // // // // // //\n//                                                                                                                                                                                  //\n//      @artist ::          stereoIII6.eth                                                                                                                                          //\n//      @msg ::             stereoIII6.eth.chat                                                                                                                                     //\n//      @github ::          stereoIII6                                                                                                                                              //\n//                                                                                                                                                                                  //\n//      @dev ::             stereoIII6.eth                                                                                                                                          //\n//      @msg ::             stereoIII6.eth.chat                                                                                                                                     //\n//      @github ::          stereoIII6                                                                                                                                              //\n//                                                                                                                                                                                  //\n//      @author ::          stereoIII6.eth                                                                                                                                          //\n//      @msg ::             stereoIII6.eth.chat                                                                                                                                     //\n//      @github ::          stereoIII6                                                                                                                                              //\n//                                                                                                                                                                                  //\n// // // // // // // // // // // // // // // // // // // // // // // // // // // // // // // // // // // // // // // // // // // // // // // // // // // // // // // // // // // // //\n//                                                                                                                                                                                  //\n// // // // // // // // // // // // // // // // // // // // // // // // // // // // // // // // // // // // // // // // // // // // // // // // // // // // // // // // // // // // //\n//                                                                                                                                                                                  //\n//                                                                                                                                                                                  //\n//      @title ::                                                                                                                                                        //\n//      @description ::                                                                                                                          //\n//      @version ::         0.0.1                                                                                                                                                   //\n//      @purpose ::                                                                                                                              //\n//                                                                                                                                                                                  //\n//                                                                                                                                                                                  //\n//                                                                                                                                                                                  //\n//                                                                                                                                                                                  //\n//                                                                                                                                                                                  //\n// // // // // // // // // // // // // // // // // // // // // // // // // // // // // // // // // // // // // // // // // // // // // // // // // // // // // // // // // // // // //\n\n\npragma solidity ^0.8.0;\n// Open Zeppelin Imports\n// import \"@openzeppelin/contracts/token/ERC20/ERC20.sol\";\nimport \"@openzeppelin/contracts/token/ERC20/IERC20.sol\";\n\n// import \"@openzeppelin/contracts/token/ERC721/ERC721.sol\";\nimport \"@openzeppelin/contracts/token/ERC721/IERC721.sol\";\n\nimport \"@openzeppelin/contracts/token/ERC1155/ERC1155.sol\";\nimport \"@openzeppelin/contracts/token/ERC1155/IERC1155.sol\";\n\n// Chainlink Imports\n// import \"@chainlink/contracts/src/v0.8/VRFConsumerBase.sol\";\n\ncontract Init{\n    address public author = 0x1Cd6F4D329D38043a6bDB3665c3a7b06F79B5242;\n    mapping(address => uint256) public role;\n    mapping(address => bytes) public uData;\n    uint256 public maxSupply;\n    uint256 public availSupply;\n    uint256 rate;\n    uint256 digits = 1 * 10 ** 18;\n    IERC20 internal Token;\n    IERC20 internal MLQ;\n    mapping(address => bool) public isUser;\n    event Log(uint256 indexed id, address sender, address home, uint256 num, bytes message, uint256 stamp);\n    uint256 logs;\n    modifier isAdmin() {\n        require(role[msg.sender] == 99, \"you're not admin\");\n        _;\n    }\n    modifier isOwner() {\n        require(author == msg.sender, \"you're not owner\");\n        _;\n    }\n    function changeRole(address _to, uint256 _role) external isAdmin() returns(bool){\n        role[_to] = _role;\n        return true;\n    }\n    function makeU(string memory _data) external returns(bool){\n        isUser[msg.sender] = true;\n        role[msg.sender] = 1;\n        uData[msg.sender] = bytes(_data);\n        return true;\n    }\n    function showU() external view returns(string memory, uint256){\n        return(string(uData[msg.sender]),role[msg.sender]);\n    }\n    function withdrawToken(address _contract) external isAdmin() returns(bool){\n        Token = IERC20(_contract);  \n        Token.transfer(author,Token.balanceOf(address(this)));\n        return true;\n    }\n    function divide(uint256 _a, uint256 _b) internal pure returns(uint256 res){\n        uint256 rem = _a % _b;\n        res = (_a - rem) / _b;\n    }\n    fallback() external{\n\n    }\n}\ncontract Affilly8 is Init {\n\n    constructor(){                                                                                              // feed with utility token address\n        require(msg.sender == author);                                                                          // only author can build\n        role[msg.sender] = 99;                                                                                  // make author admin\n        uData[msg.sender] = bytes('{\"username\":\"@stereoiii6\",\"email\":\"type.stereo@pm.me\"}');                    // set user data\n        isUser[msg.sender] = true;                                                                              // set is user true\n        emit Log(logs,msg.sender,address(this),999,bytes(\"contract created\"),block.timestamp);                  // log\n        logs++;                                                                                                 // grab utility token \n    }\n      \n    struct Campaign{  \n        uint256 typ;                                                                                            // Campaign Struct\n        bytes description;                                                                                      // description var\n        bytes txAction;                                                                                         // 0 - from safe // 1 - from msg.sender \n        uint256 txPrice;                                                                                        // piced in currency\n        address currency;                                                                                       // if 0x0 zero address use ETH\n        uint256 fee;                                                                                            // gets subtracted from price\n        address txTo;                                                                                           // recieves payment\n        uint256 interval;                                                                                       // in hours\n        uint256 start;                                                                                          // in hours\n        uint256 end;                                                                                            // in hours\n        uint256 safeWallet;                                                                                     // campaign balance\n    }                                                                           \n\n    struct RefLinks{                                                                                            // Link Structs\n        uint256 id;                                                                                             // id\n        uint256 campaigId;                                                                                      // campaing reference id\n        address promoter;                                                                                       // fee reciever / promoter\n    }                                                                           \n    Campaign[] public campaigns;                                                                                // Campaign Mapping\n    RefLinks[] public links;                                                                                    // List Mapping\n    \n    mapping(address => uint256) internal myCampaignCount;                                                       // counts users campaigns\n    mapping(address => mapping(uint256 => Campaign)) public showCampaign;                                       // maps users campaigns\n    mapping(address => uint256) internal mylinkCount;                                                           // counts users links\n    mapping(address => mapping(uint256 => RefLinks)) public showLinks;                                          // maps users links\n    uint256 c;                                                                                                  // count campaigns\n    uint256 l;                                                                                                  // count links\n    uint256 t;                                                                                                  // count txs\n    modifier isU(){\n        require(isUser[msg.sender] == true, \"you are not user\");\n        _;\n    }\n    modifier isProd(){\n        require(role[msg.sender] == 2 || role[msg.sender] == 4 || role[msg.sender] == 99, \"you are not producer\");\n        _;\n    }\n    modifier isProm(){\n        require(role[msg.sender] == 3 || role[msg.sender] == 4 || role[msg.sender] == 99, \"you are not promoter\");\n        _;\n    }\n    // become a producer \n    function beProducer() external isU() returns(bool){\n        require(role[msg.sender] != 2, \"you are producer\");\n        if(role[msg.sender] == 1) { role[msg.sender] = 2;}                                                      // if user is guest\n        if(role[msg.sender] == 3) { role[msg.sender] = 4;}                                                      // is user is promoter\n        emit Log(logs,msg.sender,address(this),999,bytes(\"became producer\"),block.timestamp);\n        logs++;\n        return true;\n    }\n    // become a promoter\n    function bePromoter() external isU() returns(bool){\n        require(role[msg.sender] != 3, \"you are promoter\");\n        if(role[msg.sender] == 1) { role[msg.sender] = 3;}                                                      // if user is guest \n        if(role[msg.sender] == 2) { role[msg.sender] = 4;}                                                      // if user is producer\n        emit Log(logs,msg.sender,address(this),999,bytes(\"became promoter\"),block.timestamp);\n        logs++;\n        return true;\n    }\n    // make a ref link\n    function makeLink(uint256 _cid) external isU() isProm() returns(bool){\n        links.push(RefLinks(l, _cid, msg.sender));                                                              // Push reflink to struct mapping\n        mylinkCount[msg.sender]++;                                                                              // iterate user link count\n        showLinks[msg.sender][l] = links[l];                                                                    // preserve links in mapping\n        emit Log(logs,msg.sender,address(this),l,bytes(\"link created\"),block.timestamp);                        // log \n        logs++;                                                                                                 // iterate log\n        l++;                                                                                                    // iterate link\n        return true;    \n    }   \n    // makes ref links for producers automatically  \n    function makeOwnLink(uint256 _cid) internal isU() returns(bool){    \n        links.push(RefLinks(l, _cid, msg.sender));                                                              // Push reflink to struct mapping\n        mylinkCount[msg.sender]++;                                                                              // iterate user link count\n        showLinks[msg.sender][l] = links[l];                                                                    // preserve links in mapping\n        emit Log(logs,msg.sender,address(this),l,bytes(\"link created\"),block.timestamp);                        // log \n        logs++;                                                                                                 // iterate log\n        l++;                                                                                                    // iterate link\n        return true;    \n    }   \n    // make a campaign  \n    function makeCampaign(  \n        uint256 _type,  \n        string memory _desc,    \n        string memory _txAction,    \n        uint256 _price,     \n        uint256 _fee,   \n        address _currency,  \n        address _txTarget,  \n        uint256 _int,   \n        uint256 _start,     \n        uint256 _end,   \n        uint256 _safeIn \n        )   \n        external payable isU() isProd() returns(bool){  \n        if(_type == 0) require(_safeIn*digits >= _fee*digits * 50*digits);  \n        MLQ.transferFrom(msg.sender, address(this),_safeIn * digits);                                          // transfer mlq to campaign safe\n        campaigns.push(                                                                                         // push campaign to mapping \n            Campaign(   \n                _type,  \n                bytes(_desc),   \n                bytes(_txAction),   \n                _price * digits,    \n                _currency,  \n                _fee * digits,  \n                _txTarget,  \n                _int*60*60,     \n                block.timestamp + (_start*60*60) * 10 ** 20,    \n                block.timestamp + (_end*60*60) * 10 ** 40,  \n                _safeIn * digits    \n                )   \n            );  \n        myCampaignCount[msg.sender]++;                                                                          // iterate user campaign count\n        showCampaign[msg.sender][c] = campaigns[c];                                                             // preserve user campaign in mapping\n        emit Log(logs,msg.sender,address(this),c,bytes(\". campaign created\"),block.timestamp);                  // log\n        logs++;                                                                                                 // iterate logs\n        makeOwnLink(c);                                                                                         // create ref link for producer\n        l++;                                                                                                    // iterate item mapping\n        c++;                                                                                                    // iterate campaign mapping\n        return true;    \n    }   \n    // finalize a tx    \n    function finalize(uint _rlid) external payable returns(bool){   \n        uint256 cid = links[_rlid].campaigId;                                                                   // grab campaign id\n        address prom = links[_rlid].promoter;                                                                   // grab link promoter\n        Token = IERC20(campaigns[cid].currency);                                                                // grab payment currency\n        uint256 pay = campaigns[cid].txPrice - campaigns[cid].fee;                                              // grab pay value (price - fee)\n        string memory val = string(campaigns[cid].txAction);                                                    // grab transaction call data\n        (bool success, ) = campaigns[cid].txTo.call{value: pay, gas: 50000}(abi.encodeWithSignature(val));      // call external tx\n        if(!success){                                                                                           // success check\n            address ref;                                                                                        // declare reference payer address\n            uint256 x = 0;                                                                                      // declare comparison uint256\n            if(campaigns[cid].typ == x) {                                                                       // if check campaign payment type\n                ref = address(this);                                                                            // set contract safe wallet address as payer\n                campaigns[cid].safeWallet -= campaigns[cid].fee;                                                // decrease safewallet balance\n            }   \n            else ref = msg.sender;                                                                              // else set msg.sender as payer\n            if(campaigns[cid].currency != 0x0000000000000000000000000000000000000000){                          // if !0 address use contract address\n                Token.transferFrom(ref,prom,campaigns[cid].fee);                                                // transfer fee to promoter\n                     }    \n            else     \n            emit Log(logs,msg.sender,address(this),_rlid,bytes(\"link tx finalized\"),block.timestamp);           // log\n            logs++;                                                                                             // iterate log\n            return false;   \n        }   \n        emit Log(logs,msg.sender,address(this),_rlid,bytes(\"link tx failed\"),block.timestamp);                  // log\n        logs++;                                                                                                 // iterate log\n        return true;\n    }\n    \n}",
  "sourcePath": "/Users/jediswag/Documents/GitHub/affilly8/contracts/Afillly8.sol",
  "compiler": {
    "name": "solc",
    "version": "0.8.13+commit.abaa5c0e.Emscripten.clang"
  },
  "schemaVersion": "3.4.4",
  "updatedAt": "2022-04-30T20:32:49.863Z",
  "networkType": "ethereum",
  "devdoc": {
    "kind": "dev",
    "methods": {},
    "version": 1
  },
  "userdoc": {
    "kind": "user",
    "methods": {},
    "version": 1
  }
}