{
  "contractName": "Affilly8",
  "abi": [
    {
      "inputs": [
        {
          "internalType": "uint256",
          "name": "",
          "type": "uint256"
        }
      ],
      "name": "campaigns",
      "outputs": [
        {
          "internalType": "uint256",
          "name": "id",
          "type": "uint256"
        },
        {
          "internalType": "address",
          "name": "author",
          "type": "address"
        },
        {
          "internalType": "bytes",
          "name": "description",
          "type": "bytes"
        },
        {
          "internalType": "bytes",
          "name": "txAction",
          "type": "bytes"
        },
        {
          "internalType": "uint256",
          "name": "txPrice",
          "type": "uint256"
        },
        {
          "internalType": "address",
          "name": "txTo",
          "type": "address"
        },
        {
          "internalType": "uint8",
          "name": "ppType",
          "type": "uint8"
        },
        {
          "internalType": "uint256",
          "name": "interval",
          "type": "uint256"
        },
        {
          "internalType": "uint256",
          "name": "start",
          "type": "uint256"
        },
        {
          "internalType": "uint256",
          "name": "end",
          "type": "uint256"
        }
      ],
      "stateMutability": "view",
      "type": "function",
      "constant": true
    },
    {
      "inputs": [
        {
          "internalType": "uint256",
          "name": "",
          "type": "uint256"
        }
      ],
      "name": "links",
      "outputs": [
        {
          "internalType": "uint256",
          "name": "id",
          "type": "uint256"
        },
        {
          "internalType": "uint256",
          "name": "campaigId",
          "type": "uint256"
        },
        {
          "internalType": "address",
          "name": "promoter",
          "type": "address"
        }
      ],
      "stateMutability": "view",
      "type": "function",
      "constant": true
    },
    {
      "inputs": [
        {
          "internalType": "address",
          "name": "",
          "type": "address"
        },
        {
          "internalType": "uint256",
          "name": "",
          "type": "uint256"
        }
      ],
      "name": "showCampaign",
      "outputs": [
        {
          "internalType": "uint256",
          "name": "id",
          "type": "uint256"
        },
        {
          "internalType": "address",
          "name": "author",
          "type": "address"
        },
        {
          "internalType": "bytes",
          "name": "description",
          "type": "bytes"
        },
        {
          "internalType": "bytes",
          "name": "txAction",
          "type": "bytes"
        },
        {
          "internalType": "uint256",
          "name": "txPrice",
          "type": "uint256"
        },
        {
          "internalType": "address",
          "name": "txTo",
          "type": "address"
        },
        {
          "internalType": "uint8",
          "name": "ppType",
          "type": "uint8"
        },
        {
          "internalType": "uint256",
          "name": "interval",
          "type": "uint256"
        },
        {
          "internalType": "uint256",
          "name": "start",
          "type": "uint256"
        },
        {
          "internalType": "uint256",
          "name": "end",
          "type": "uint256"
        }
      ],
      "stateMutability": "view",
      "type": "function",
      "constant": true
    },
    {
      "inputs": [
        {
          "internalType": "address",
          "name": "",
          "type": "address"
        },
        {
          "internalType": "uint256",
          "name": "",
          "type": "uint256"
        }
      ],
      "name": "showLinks",
      "outputs": [
        {
          "internalType": "uint256",
          "name": "id",
          "type": "uint256"
        },
        {
          "internalType": "uint256",
          "name": "campaigId",
          "type": "uint256"
        },
        {
          "internalType": "address",
          "name": "promoter",
          "type": "address"
        }
      ],
      "stateMutability": "view",
      "type": "function",
      "constant": true
    },
    {
      "inputs": [
        {
          "internalType": "uint256",
          "name": "",
          "type": "uint256"
        }
      ],
      "name": "users",
      "outputs": [
        {
          "internalType": "uint256",
          "name": "id",
          "type": "uint256"
        },
        {
          "internalType": "address",
          "name": "user",
          "type": "address"
        },
        {
          "internalType": "uint8",
          "name": "role",
          "type": "uint8"
        },
        {
          "internalType": "bytes",
          "name": "name",
          "type": "bytes"
        },
        {
          "internalType": "bytes",
          "name": "status",
          "type": "bytes"
        }
      ],
      "stateMutability": "view",
      "type": "function",
      "constant": true
    },
    {
      "inputs": [
        {
          "internalType": "string",
          "name": "_name",
          "type": "string"
        },
        {
          "internalType": "string",
          "name": "_status",
          "type": "string"
        }
      ],
      "name": "signIn",
      "outputs": [
        {
          "internalType": "bool",
          "name": "",
          "type": "bool"
        }
      ],
      "stateMutability": "nonpayable",
      "type": "function"
    },
    {
      "inputs": [],
      "name": "beProducer",
      "outputs": [
        {
          "internalType": "bool",
          "name": "",
          "type": "bool"
        }
      ],
      "stateMutability": "nonpayable",
      "type": "function"
    },
    {
      "inputs": [],
      "name": "bePromoter",
      "outputs": [
        {
          "internalType": "bool",
          "name": "",
          "type": "bool"
        }
      ],
      "stateMutability": "nonpayable",
      "type": "function"
    },
    {
      "inputs": [
        {
          "internalType": "string",
          "name": "_desc",
          "type": "string"
        },
        {
          "internalType": "string",
          "name": "_txAction",
          "type": "string"
        },
        {
          "internalType": "uint256",
          "name": "_price",
          "type": "uint256"
        },
        {
          "internalType": "address",
          "name": "_to",
          "type": "address"
        },
        {
          "internalType": "uint8",
          "name": "_type",
          "type": "uint8"
        },
        {
          "internalType": "uint256",
          "name": "_int",
          "type": "uint256"
        },
        {
          "internalType": "uint256",
          "name": "_start",
          "type": "uint256"
        },
        {
          "internalType": "uint256",
          "name": "_end",
          "type": "uint256"
        }
      ],
      "name": "makeCampaign",
      "outputs": [
        {
          "internalType": "bool",
          "name": "",
          "type": "bool"
        }
      ],
      "stateMutability": "nonpayable",
      "type": "function"
    },
    {
      "inputs": [
        {
          "internalType": "uint256",
          "name": "_cid",
          "type": "uint256"
        }
      ],
      "name": "makeLink",
      "outputs": [
        {
          "internalType": "bool",
          "name": "",
          "type": "bool"
        }
      ],
      "stateMutability": "nonpayable",
      "type": "function"
    }
  ],
  "bytecode": "0x608060405234801561001057600080fd5b50611fc6806100206000396000f3fe608060405234801561001057600080fd5b506004361061009e5760003560e01c80636d65d97b116100665780636d65d97b1461017c578063881d8a40146101ac578063af0da1f6146101de578063d09e747f1461020e578063ea319b88146102475761009e565b8063141961bc146100a35780632a1e5ef3146100dc5780632c162dbc146100fa5780632e3606ad1461012a578063365b98b214610148575b600080fd5b6100bd60048036038101906100b891906116ec565b610279565b6040516100d39a9998979695949392919061181e565b60405180910390f35b6100e461043a565b6040516100f191906118e3565b60405180910390f35b610114600480360381019061010f9190611a33565b6105f7565b60405161012191906118e3565b60405180910390f35b61013261077d565b60405161013f91906118e3565b60405180910390f35b610162600480360381019061015d91906116ec565b61093b565b604051610173959493929190611aab565b60405180910390f35b610196600480360381019061019191906116ec565b610abe565b6040516101a391906118e3565b60405180910390f35b6101c660048036038101906101c191906116ec565b610de0565b6040516101d593929190611b0c565b60405180910390f35b6101f860048036038101906101f39190611b9b565b610e3a565b60405161020591906118e3565b60405180910390f35b61022860048036038101906102239190611c89565b61135d565b60405161023e9a9998979695949392919061181e565b60405180910390f35b610261600480360381019061025c9190611c89565b61151b565b60405161027093929190611b0c565b60405180910390f35b6001818154811061028957600080fd5b90600052602060002090600902016000915090508060000154908060010160009054906101000a900473ffffffffffffffffffffffffffffffffffffffff16908060020180546102d890611cf8565b80601f016020809104026020016040519081016040528092919081815260200182805461030490611cf8565b80156103515780601f1061032657610100808354040283529160200191610351565b820191906000526020600020905b81548152906001019060200180831161033457829003601f168201915b50505050509080600301805461036690611cf8565b80601f016020809104026020016040519081016040528092919081815260200182805461039290611cf8565b80156103df5780601f106103b4576101008083540402835291602001916103df565b820191906000526020600020905b8154815290600101906020018083116103c257829003601f168201915b5050505050908060040154908060050160009054906101000a900473ffffffffffffffffffffffffffffffffffffffff16908060050160149054906101000a900460ff1690806006015490806007015490806008015490508a565b600080600460003373ffffffffffffffffffffffffffffffffffffffff1673ffffffffffffffffffffffffffffffffffffffff168152602001908152602001600020549050600280828154811061049457610493611d29565b5b906000526020600020906004020160010160149054906101000a900460ff1660ff16036104f6576040517f08c379a00000000000000000000000000000000000000000000000000000000081526004016104ed90611db5565b60405180910390fd5b60006002828154811061050c5761050b611d29565b5b906000526020600020906004020160010160149054906101000a900460ff1660ff160361057257600280828154811061054857610547611d29565b5b906000526020600020906004020160010160146101000a81548160ff021916908360ff1602179055505b60016002828154811061058857610587611d29565b5b906000526020600020906004020160010160149054906101000a900460ff1660ff16036105ef576003600282815481106105c5576105c4611d29565b5b906000526020600020906004020160010160146101000a81548160ff021916908360ff1602179055505b600191505090565b600060026040518060a00160405280600a5481526020013373ffffffffffffffffffffffffffffffffffffffff168152602001600060ff1681526020018581526020018481525090806001815401808255809150506001900390600052602060002090600402016000909190919091506000820151816000015560208201518160010160006101000a81548173ffffffffffffffffffffffffffffffffffffffff021916908373ffffffffffffffffffffffffffffffffffffffff16021790555060408201518160010160146101000a81548160ff021916908360ff16021790555060608201518160020190805190602001906106f5929190611572565b506080820151816003019080519060200190610712929190611572565b505050600a54600460003373ffffffffffffffffffffffffffffffffffffffff1673ffffffffffffffffffffffffffffffffffffffff16815260200190815260200160002081905550600a600081548092919061076e90611e04565b91905055506001905092915050565b600080600460003373ffffffffffffffffffffffffffffffffffffffff1673ffffffffffffffffffffffffffffffffffffffff1681526020019081526020016000205490506001600282815481106107d8576107d7611d29565b5b906000526020600020906004020160010160149054906101000a900460ff1660ff160361083a576040517f08c379a000000000000000000000000000000000000000000000000000000000815260040161083190611e98565b60405180910390fd5b6000600282815481106108505761084f611d29565b5b906000526020600020906004020160010160149054906101000a900460ff1660ff16036108b75760016002828154811061088d5761088c611d29565b5b906000526020600020906004020160010160146101000a81548160ff021916908360ff1602179055505b60028082815481106108cc576108cb611d29565b5b906000526020600020906004020160010160149054906101000a900460ff1660ff16036109335760036002828154811061090957610908611d29565b5b906000526020600020906004020160010160146101000a81548160ff021916908360ff1602179055505b600191505090565b6002818154811061094b57600080fd5b90600052602060002090600402016000915090508060000154908060010160009054906101000a900473ffffffffffffffffffffffffffffffffffffffff16908060010160149054906101000a900460ff16908060020180546109ad90611cf8565b80601f01602080910402602001604051908101604052809291908181526020018280546109d990611cf8565b8015610a265780601f106109fb57610100808354040283529160200191610a26565b820191906000526020600020905b815481529060010190602001808311610a0957829003601f168201915b505050505090806003018054610a3b90611cf8565b80601f0160208091040260200160405190810160405280929190818152602001828054610a6790611cf8565b8015610ab45780601f10610a8957610100808354040283529160200191610ab4565b820191906000526020600020905b815481529060010190602001808311610a9757829003601f168201915b5050505050905085565b600080600460003373ffffffffffffffffffffffffffffffffffffffff1673ffffffffffffffffffffffffffffffffffffffff1681526020019081526020016000205490506002808281548110610b1857610b17611d29565b5b906000526020600020906004020160010160149054906101000a900460ff1660ff161480610b7b5750600360028281548110610b5757610b56611d29565b5b906000526020600020906004020160010160149054906101000a900460ff1660ff16145b610bba576040517f08c379a0000000000000000000000000000000000000000000000000000000008152600401610bb190611f04565b60405180910390fd5b60036040518060600160405280600b5481526020018581526020013373ffffffffffffffffffffffffffffffffffffffff168152509080600181540180825580915050600190039060005260206000209060030201600090919091909150600082015181600001556020820151816001015560408201518160020160006101000a81548173ffffffffffffffffffffffffffffffffffffffff021916908373ffffffffffffffffffffffffffffffffffffffff1602179055505050600760003373ffffffffffffffffffffffffffffffffffffffff1673ffffffffffffffffffffffffffffffffffffffff1681526020019081526020016000206000815480929190610cc590611e04565b91905055506003600b5481548110610ce057610cdf611d29565b5b9060005260206000209060030201600860003373ffffffffffffffffffffffffffffffffffffffff1673ffffffffffffffffffffffffffffffffffffffff1681526020019081526020016000206000600b54815260200190815260200160002060008201548160000155600182015481600101556002820160009054906101000a900473ffffffffffffffffffffffffffffffffffffffff168160020160006101000a81548173ffffffffffffffffffffffffffffffffffffffff021916908373ffffffffffffffffffffffffffffffffffffffff160217905550905050600b6000815480929190610dd190611e04565b91905055506001915050919050565b60038181548110610df057600080fd5b90600052602060002090600302016000915090508060000154908060010154908060020160009054906101000a900473ffffffffffffffffffffffffffffffffffffffff16905083565b600080600460003373ffffffffffffffffffffffffffffffffffffffff1673ffffffffffffffffffffffffffffffffffffffff168152602001908152602001600020549050600160028281548110610e9557610e94611d29565b5b906000526020600020906004020160010160149054906101000a900460ff1660ff161480610ef85750600360028281548110610ed457610ed3611d29565b5b906000526020600020906004020160010160149054906101000a900460ff1660ff16145b610f37576040517f08c379a0000000000000000000000000000000000000000000000000000000008152600401610f2e90611f70565b60405180910390fd5b600160405180610140016040528060095481526020013373ffffffffffffffffffffffffffffffffffffffff1681526020018c81526020018b81526020018a81526020018973ffffffffffffffffffffffffffffffffffffffff1681526020018860ff1681526020018781526020018681526020018581525090806001815401808255809150506001900390600052602060002090600902016000909190919091506000820151816000015560208201518160010160006101000a81548173ffffffffffffffffffffffffffffffffffffffff021916908373ffffffffffffffffffffffffffffffffffffffff1602179055506040820151816002019080519060200190611046929190611572565b506060820151816003019080519060200190611063929190611572565b506080820151816004015560a08201518160050160006101000a81548173ffffffffffffffffffffffffffffffffffffffff021916908373ffffffffffffffffffffffffffffffffffffffff16021790555060c08201518160050160146101000a81548160ff021916908360ff16021790555060e08201518160060155610100820151816007015561012082015181600801555050600560003373ffffffffffffffffffffffffffffffffffffffff1673ffffffffffffffffffffffffffffffffffffffff168152602001908152602001600020600081548092919061114890611e04565b919050555060016009548154811061116357611162611d29565b5b9060005260206000209060090201600660003373ffffffffffffffffffffffffffffffffffffffff1673ffffffffffffffffffffffffffffffffffffffff16815260200190815260200160002060006009548152602001908152602001600020600082015481600001556001820160009054906101000a900473ffffffffffffffffffffffffffffffffffffffff168160010160006101000a81548173ffffffffffffffffffffffffffffffffffffffff021916908373ffffffffffffffffffffffffffffffffffffffff160217905550600282018160020190805461124890611cf8565b6112539291906115f8565b50600382018160030190805461126890611cf8565b6112739291906115f8565b50600482015481600401556005820160009054906101000a900473ffffffffffffffffffffffffffffffffffffffff168160050160006101000a81548173ffffffffffffffffffffffffffffffffffffffff021916908373ffffffffffffffffffffffffffffffffffffffff1602179055506005820160149054906101000a900460ff168160050160146101000a81548160ff021916908360ff1602179055506006820154816006015560078201548160070155600882015481600801559050506009600081548092919061134790611e04565b9190505550600191505098975050505050505050565b6006602052816000526040600020602052806000526040600020600091509150508060000154908060010160009054906101000a900473ffffffffffffffffffffffffffffffffffffffff16908060020180546113b990611cf8565b80601f01602080910402602001604051908101604052809291908181526020018280546113e590611cf8565b80156114325780601f1061140757610100808354040283529160200191611432565b820191906000526020600020905b81548152906001019060200180831161141557829003601f168201915b50505050509080600301805461144790611cf8565b80601f016020809104026020016040519081016040528092919081815260200182805461147390611cf8565b80156114c05780601f10611495576101008083540402835291602001916114c0565b820191906000526020600020905b8154815290600101906020018083116114a357829003601f168201915b5050505050908060040154908060050160009054906101000a900473ffffffffffffffffffffffffffffffffffffffff16908060050160149054906101000a900460ff1690806006015490806007015490806008015490508a565b6008602052816000526040600020602052806000526040600020600091509150508060000154908060010154908060020160009054906101000a900473ffffffffffffffffffffffffffffffffffffffff16905083565b82805461157e90611cf8565b90600052602060002090601f0160209004810192826115a057600085556115e7565b82601f106115b957805160ff19168380011785556115e7565b828001600101855582156115e7579182015b828111156115e65782518255916020019190600101906115cb565b5b5090506115f49190611685565b5090565b82805461160490611cf8565b90600052602060002090601f0160209004810192826116265760008555611674565b82601f106116375780548555611674565b8280016001018555821561167457600052602060002091601f016020900482015b82811115611673578254825591600101919060010190611658565b5b5090506116819190611685565b5090565b5b8082111561169e576000816000905550600101611686565b5090565b6000604051905090565b600080fd5b600080fd5b6000819050919050565b6116c9816116b6565b81146116d457600080fd5b50565b6000813590506116e6816116c0565b92915050565b600060208284031215611702576117016116ac565b5b6000611710848285016116d7565b91505092915050565b611722816116b6565b82525050565b600073ffffffffffffffffffffffffffffffffffffffff82169050919050565b600061175382611728565b9050919050565b61176381611748565b82525050565b600081519050919050565b600082825260208201905092915050565b60005b838110156117a3578082015181840152602081019050611788565b838111156117b2576000848401525b50505050565b6000601f19601f8301169050919050565b60006117d482611769565b6117de8185611774565b93506117ee818560208601611785565b6117f7816117b8565b840191505092915050565b600060ff82169050919050565b61181881611802565b82525050565b600061014082019050611834600083018d611719565b611841602083018c61175a565b8181036040830152611853818b6117c9565b90508181036060830152611867818a6117c9565b90506118766080830189611719565b61188360a083018861175a565b61189060c083018761180f565b61189d60e0830186611719565b6118ab610100830185611719565b6118b9610120830184611719565b9b9a5050505050505050505050565b60008115159050919050565b6118dd816118c8565b82525050565b60006020820190506118f860008301846118d4565b92915050565b600080fd5b600080fd5b7f4e487b7100000000000000000000000000000000000000000000000000000000600052604160045260246000fd5b611940826117b8565b810181811067ffffffffffffffff8211171561195f5761195e611908565b5b80604052505050565b60006119726116a2565b905061197e8282611937565b919050565b600067ffffffffffffffff82111561199e5761199d611908565b5b6119a7826117b8565b9050602081019050919050565b82818337600083830152505050565b60006119d66119d184611983565b611968565b9050828152602081018484840111156119f2576119f1611903565b5b6119fd8482856119b4565b509392505050565b600082601f830112611a1a57611a196118fe565b5b8135611a2a8482602086016119c3565b91505092915050565b60008060408385031215611a4a57611a496116ac565b5b600083013567ffffffffffffffff811115611a6857611a676116b1565b5b611a7485828601611a05565b925050602083013567ffffffffffffffff811115611a9557611a946116b1565b5b611aa185828601611a05565b9150509250929050565b600060a082019050611ac06000830188611719565b611acd602083018761175a565b611ada604083018661180f565b8181036060830152611aec81856117c9565b90508181036080830152611b0081846117c9565b90509695505050505050565b6000606082019050611b216000830186611719565b611b2e6020830185611719565b611b3b604083018461175a565b949350505050565b611b4c81611748565b8114611b5757600080fd5b50565b600081359050611b6981611b43565b92915050565b611b7881611802565b8114611b8357600080fd5b50565b600081359050611b9581611b6f565b92915050565b600080600080600080600080610100898b031215611bbc57611bbb6116ac565b5b600089013567ffffffffffffffff811115611bda57611bd96116b1565b5b611be68b828c01611a05565b985050602089013567ffffffffffffffff811115611c0757611c066116b1565b5b611c138b828c01611a05565b9750506040611c248b828c016116d7565b9650506060611c358b828c01611b5a565b9550506080611c468b828c01611b86565b94505060a0611c578b828c016116d7565b93505060c0611c688b828c016116d7565b92505060e0611c798b828c016116d7565b9150509295985092959890939650565b60008060408385031215611ca057611c9f6116ac565b5b6000611cae85828601611b5a565b9250506020611cbf858286016116d7565b9150509250929050565b7f4e487b7100000000000000000000000000000000000000000000000000000000600052602260045260246000fd5b60006002820490506001821680611d1057607f821691505b602082108103611d2357611d22611cc9565b5b50919050565b7f4e487b7100000000000000000000000000000000000000000000000000000000600052603260045260246000fd5b600082825260208201905092915050565b7f796f75206172652070726f6d6f74657200000000000000000000000000000000600082015250565b6000611d9f601083611d58565b9150611daa82611d69565b602082019050919050565b60006020820190508181036000830152611dce81611d92565b9050919050565b7f4e487b7100000000000000000000000000000000000000000000000000000000600052601160045260246000fd5b6000611e0f826116b6565b91507fffffffffffffffffffffffffffffffffffffffffffffffffffffffffffffffff8203611e4157611e40611dd5565b5b600182019050919050565b7f796f75206172652070726f647563657200000000000000000000000000000000600082015250565b6000611e82601083611d58565b9150611e8d82611e4c565b602082019050919050565b60006020820190508181036000830152611eb181611e75565b9050919050565b7f796f7520617265206e6f742070726f6d6f746572000000000000000000000000600082015250565b6000611eee601483611d58565b9150611ef982611eb8565b602082019050919050565b60006020820190508181036000830152611f1d81611ee1565b9050919050565b7f796f7520617265206e6f742070726f6475636572000000000000000000000000600082015250565b6000611f5a601483611d58565b9150611f6582611f24565b602082019050919050565b60006020820190508181036000830152611f8981611f4d565b905091905056fea2646970667358221220d77503ec015dd6f759a24128d104ac1895bd697468d2ded3d819ea6659fac82764736f6c634300080d0033",
  "immutableReferences": {},
  "source": "// SPDX-License-Identifier: GPL-3.0\n// // // // // // // // // // // // // // // // // // // // // // // // // // // // // // // // // // // // // // // // // // // // // // // // // // // // // // // // // // // // //\n//   \n\n\n//\n// // // // // // // // // // // // // // // // // // // // // // // // // // // // // // // // // // // // // // // // // // // // // // // // // // // // // // // // // // // // //\n//                                                                                                                                                                                  //\n//                                                                                                                                                                                  //\n//                                                                                                                                                                                  //\n//                                                                                                                                                                                  //\n//                                                                                                                                                                                  //\n//      @artist ::          stereoIII6.eth                                                                                                                                          //\n//      @msg ::             stereoIII6.eth.chat                                                                                                                                     //\n//      @github ::          stereoIII6                                                                                                                                              //\n//                                                                                                                                                                                  //\n//      @dev ::             stereoIII6.eth                                                                                                                                          //\n//      @msg ::             stereoIII6.eth.chat                                                                                                                                     //\n//      @github ::          stereoIII6                                                                                                                                              //\n//                                                                                                                                                                                  //\n//      @author ::          stereoIII6.eth                                                                                                                                          //\n//      @msg ::             stereoIII6.eth.chat                                                                                                                                     //\n//      @github ::          stereoIII6                                                                                                                                              //\n//                                                                                                                                                                                  //\n//                                                                                                                                                                                  //\n//                                                                                                                                                                                  //\n// // // // // // // // // // // // // // // // // // // // // // // // // // // // // // // // // // // // // // // // // // // // // // // // // // // // // // // // // // // // //\n//                                                                                                                                                                                  //\n// // // // // // // // // // // // // // // // // // // // // // // // // // // // // // // // // // // // // // // // // // // // // // // // // // // // // // // // // // // // //\n//                                                                                                                                                                                  //\n//                                                                                                                                                                                  //\n//      @title ::                                                                                                                                                        //\n//      @description ::                                                                                                                          //\n//      @version ::         0.0.1                                                                                                                                                   //\n//      @purpose ::                                                                                                                              //\n//                                                                                                                                                                                  //\n//                                                                                                                                                                                  //\n//                                                                                                                                                                                  //\n//                                                                                                                                                                                  //\n//                                                                                                                                                                                  //\n// // // // // // // // // // // // // // // // // // // // // // // // // // // // // // // // // // // // // // // // // // // // // // // // // // // // // // // // // // // // //\n\npragma solidity ^0.8.0;\n\ncontract Affilly8{\n    address admin;\n    uint8 UserRole; // 0-guets, 1-producer, 2-promoter, 3-both, 9-admin    \n    uint8 CampaignType; // 0-View, 1-Click, 2-Referal, 3-Sale, 4-Lifetime\n    struct Campaign{\n        uint256 id;\n        address author;\n        bytes description;\n        bytes txAction;\n        uint256 txPrice;\n        address txTo; \n        uint8 ppType;\n        uint256 interval;  \n        uint256 start;\n        uint256 end;\n    }\n    struct User{\n        uint256 id;\n        address user;\n        uint8 role;\n        bytes name;\n        bytes status;\n    }\n    struct RefLinks{\n        uint256 id;\n        uint256 campaigId;\n        address promoter;\n    }\n    Campaign[] public campaigns;\n    User[] public users;\n    RefLinks[] public links;\n    mapping(address => uint256) internal myId;\n    mapping(address => uint256) internal myCampaignCount;\n    mapping(address => mapping(uint256 => Campaign)) public showCampaign;\n    mapping(address => uint256) internal mylinkCount;\n    mapping(address => mapping(uint256 => RefLinks)) public showLinks;\n    uint256 c;\n    uint256 u;\n    uint256 l;\n    function signIn(string memory _name, string memory _status) external returns(bool){\n        users.push(User(u, msg.sender, 0, bytes(_name), bytes(_status)));\n        myId[msg.sender] = u;\n        u++;\n        return true;\n    }\n    function beProducer() external returns(bool){\n        uint256 id = myId[msg.sender];\n        require(users[id].role != 1, \"you are producer\");\n        if(users[id].role == 0) { users[id].role = 1;}\n        if(users[id].role == 2) { users[id].role = 3;}\n        return true;\n    }\n    function bePromoter() external returns(bool){\n        uint256 id = myId[msg.sender];\n        require(users[id].role != 2, \"you are promoter\");\n        if(users[id].role == 0) { users[id].role = 2;}\n        if(users[id].role == 1) { users[id].role = 3;}\n        return true;\n    }\n    function makeCampaign(string memory _desc, string memory _txAction, uint256 _price, address _to, uint8 _type, uint256 _int, uint256 _start, uint256 _end) external returns(bool){\n        uint256 id = myId[msg.sender];\n        require(users[id].role == 1 || users[id].role == 3, \"you are not producer\");\n        campaigns.push(Campaign(c, msg.sender, bytes(_desc), bytes(_txAction), _price, _to, _type, _int, _start, _end));\n        myCampaignCount[msg.sender]++;\n        showCampaign[msg.sender][c] = campaigns[c];\n        c++;\n        return true;\n    }\n    function makeLink(uint256 _cid) external returns(bool){\n        uint256 id = myId[msg.sender];\n        require(users[id].role == 2 || users[id].role == 3, \"you are not promoter\");\n        links.push(RefLinks(l, _cid, msg.sender));\n        mylinkCount[msg.sender]++;\n        showLinks[msg.sender][l] = links[l];\n        l++;\n        return true;\n    }\n}",
  "sourcePath": "/Users/jediswag/Documents/GitHub/affilly8/contracts/Afillly8.sol",
  "compiler": {
    "name": "solc",
    "version": "0.8.13+commit.abaa5c0e.Emscripten.clang"
  },
  "schemaVersion": "3.4.4",
  "updatedAt": "2022-04-22T14:56:28.075Z",
  "networkType": "ethereum",
  "devdoc": {
    "kind": "dev",
    "methods": {},
    "version": 1
  },
  "userdoc": {
    "kind": "user",
    "methods": {},
    "version": 1
  }
}