{
  "contractName": "Affilly8",
  "abi": [
    {
      "inputs": [],
      "stateMutability": "nonpayable",
      "type": "constructor"
    },
    {
      "anonymous": false,
      "inputs": [
        {
          "indexed": true,
          "internalType": "uint256",
          "name": "id",
          "type": "uint256"
        },
        {
          "indexed": false,
          "internalType": "address",
          "name": "sender",
          "type": "address"
        },
        {
          "indexed": false,
          "internalType": "address",
          "name": "home",
          "type": "address"
        },
        {
          "indexed": false,
          "internalType": "uint256",
          "name": "num",
          "type": "uint256"
        },
        {
          "indexed": false,
          "internalType": "bytes",
          "name": "message",
          "type": "bytes"
        },
        {
          "indexed": false,
          "internalType": "uint256",
          "name": "stamp",
          "type": "uint256"
        }
      ],
      "name": "Log",
      "type": "event"
    },
    {
      "anonymous": false,
      "inputs": [
        {
          "indexed": true,
          "internalType": "uint256",
          "name": "id",
          "type": "uint256"
        },
        {
          "indexed": false,
          "internalType": "address",
          "name": "sender",
          "type": "address"
        },
        {
          "indexed": false,
          "internalType": "address",
          "name": "home",
          "type": "address"
        },
        {
          "indexed": false,
          "internalType": "uint256",
          "name": "num",
          "type": "uint256"
        },
        {
          "indexed": false,
          "internalType": "bytes",
          "name": "message",
          "type": "bytes"
        },
        {
          "indexed": false,
          "internalType": "uint256",
          "name": "stamp",
          "type": "uint256"
        }
      ],
      "name": "Wait",
      "type": "event"
    },
    {
      "stateMutability": "nonpayable",
      "type": "fallback"
    },
    {
      "inputs": [],
      "name": "author",
      "outputs": [
        {
          "internalType": "address",
          "name": "",
          "type": "address"
        }
      ],
      "stateMutability": "view",
      "type": "function",
      "constant": true
    },
    {
      "inputs": [],
      "name": "availSupply",
      "outputs": [
        {
          "internalType": "uint256",
          "name": "",
          "type": "uint256"
        }
      ],
      "stateMutability": "view",
      "type": "function",
      "constant": true
    },
    {
      "inputs": [],
      "name": "avax",
      "outputs": [
        {
          "internalType": "address",
          "name": "",
          "type": "address"
        }
      ],
      "stateMutability": "view",
      "type": "function",
      "constant": true
    },
    {
      "inputs": [
        {
          "internalType": "uint256",
          "name": "",
          "type": "uint256"
        }
      ],
      "name": "campaigns",
      "outputs": [
        {
          "internalType": "uint256",
          "name": "id",
          "type": "uint256"
        },
        {
          "internalType": "bytes",
          "name": "data",
          "type": "bytes"
        },
        {
          "internalType": "address",
          "name": "owner",
          "type": "address"
        },
        {
          "internalType": "address",
          "name": "tokenAddress",
          "type": "address"
        },
        {
          "internalType": "uint256",
          "name": "tokenId",
          "type": "uint256"
        },
        {
          "internalType": "uint256",
          "name": "price",
          "type": "uint256"
        },
        {
          "internalType": "address",
          "name": "payCurrency",
          "type": "address"
        },
        {
          "internalType": "uint256",
          "name": "fee",
          "type": "uint256"
        },
        {
          "internalType": "uint256",
          "name": "duration",
          "type": "uint256"
        }
      ],
      "stateMutability": "view",
      "type": "function",
      "constant": true
    },
    {
      "inputs": [
        {
          "internalType": "address",
          "name": "_to",
          "type": "address"
        },
        {
          "internalType": "uint256",
          "name": "_role",
          "type": "uint256"
        }
      ],
      "name": "changeRole",
      "outputs": [
        {
          "internalType": "bool",
          "name": "",
          "type": "bool"
        }
      ],
      "stateMutability": "nonpayable",
      "type": "function"
    },
    {
      "inputs": [],
      "name": "getRole",
      "outputs": [
        {
          "internalType": "uint256",
          "name": "",
          "type": "uint256"
        }
      ],
      "stateMutability": "view",
      "type": "function",
      "constant": true
    },
    {
      "inputs": [
        {
          "internalType": "address",
          "name": "",
          "type": "address"
        }
      ],
      "name": "isUser",
      "outputs": [
        {
          "internalType": "bool",
          "name": "",
          "type": "bool"
        }
      ],
      "stateMutability": "view",
      "type": "function",
      "constant": true
    },
    {
      "inputs": [],
      "name": "isUserBool",
      "outputs": [
        {
          "internalType": "bool",
          "name": "",
          "type": "bool"
        }
      ],
      "stateMutability": "view",
      "type": "function",
      "constant": true
    },
    {
      "inputs": [
        {
          "internalType": "uint256",
          "name": "",
          "type": "uint256"
        }
      ],
      "name": "links",
      "outputs": [
        {
          "internalType": "uint256",
          "name": "id",
          "type": "uint256"
        },
        {
          "internalType": "uint256",
          "name": "campaigId",
          "type": "uint256"
        },
        {
          "internalType": "address",
          "name": "promoter",
          "type": "address"
        }
      ],
      "stateMutability": "view",
      "type": "function",
      "constant": true
    },
    {
      "inputs": [
        {
          "internalType": "string",
          "name": "_data",
          "type": "string"
        }
      ],
      "name": "makeU",
      "outputs": [
        {
          "internalType": "bool",
          "name": "",
          "type": "bool"
        }
      ],
      "stateMutability": "nonpayable",
      "type": "function"
    },
    {
      "inputs": [],
      "name": "maxSupply",
      "outputs": [
        {
          "internalType": "uint256",
          "name": "",
          "type": "uint256"
        }
      ],
      "stateMutability": "view",
      "type": "function",
      "constant": true
    },
    {
      "inputs": [
        {
          "internalType": "address",
          "name": "",
          "type": "address"
        }
      ],
      "name": "role",
      "outputs": [
        {
          "internalType": "uint256",
          "name": "",
          "type": "uint256"
        }
      ],
      "stateMutability": "view",
      "type": "function",
      "constant": true
    },
    {
      "inputs": [
        {
          "internalType": "address",
          "name": "_mlq",
          "type": "address"
        }
      ],
      "name": "setMLQ",
      "outputs": [
        {
          "internalType": "bool",
          "name": "",
          "type": "bool"
        }
      ],
      "stateMutability": "nonpayable",
      "type": "function"
    },
    {
      "inputs": [
        {
          "internalType": "address",
          "name": "",
          "type": "address"
        },
        {
          "internalType": "uint256",
          "name": "",
          "type": "uint256"
        }
      ],
      "name": "showCampaign",
      "outputs": [
        {
          "internalType": "uint256",
          "name": "id",
          "type": "uint256"
        },
        {
          "internalType": "bytes",
          "name": "data",
          "type": "bytes"
        },
        {
          "internalType": "address",
          "name": "owner",
          "type": "address"
        },
        {
          "internalType": "address",
          "name": "tokenAddress",
          "type": "address"
        },
        {
          "internalType": "uint256",
          "name": "tokenId",
          "type": "uint256"
        },
        {
          "internalType": "uint256",
          "name": "price",
          "type": "uint256"
        },
        {
          "internalType": "address",
          "name": "payCurrency",
          "type": "address"
        },
        {
          "internalType": "uint256",
          "name": "fee",
          "type": "uint256"
        },
        {
          "internalType": "uint256",
          "name": "duration",
          "type": "uint256"
        }
      ],
      "stateMutability": "view",
      "type": "function",
      "constant": true
    },
    {
      "inputs": [
        {
          "internalType": "address",
          "name": "",
          "type": "address"
        },
        {
          "internalType": "uint256",
          "name": "",
          "type": "uint256"
        }
      ],
      "name": "showLinks",
      "outputs": [
        {
          "internalType": "uint256",
          "name": "id",
          "type": "uint256"
        },
        {
          "internalType": "uint256",
          "name": "campaigId",
          "type": "uint256"
        },
        {
          "internalType": "address",
          "name": "promoter",
          "type": "address"
        }
      ],
      "stateMutability": "view",
      "type": "function",
      "constant": true
    },
    {
      "inputs": [],
      "name": "showU",
      "outputs": [
        {
          "internalType": "string",
          "name": "",
          "type": "string"
        },
        {
          "internalType": "uint256",
          "name": "",
          "type": "uint256"
        }
      ],
      "stateMutability": "view",
      "type": "function",
      "constant": true
    },
    {
      "inputs": [
        {
          "internalType": "uint256",
          "name": "",
          "type": "uint256"
        }
      ],
      "name": "txs",
      "outputs": [
        {
          "internalType": "uint256",
          "name": "id",
          "type": "uint256"
        },
        {
          "internalType": "uint256",
          "name": "rlid",
          "type": "uint256"
        },
        {
          "internalType": "uint256",
          "name": "cid",
          "type": "uint256"
        },
        {
          "internalType": "uint256",
          "name": "txdate",
          "type": "uint256"
        }
      ],
      "stateMutability": "view",
      "type": "function",
      "constant": true
    },
    {
      "inputs": [
        {
          "internalType": "address",
          "name": "",
          "type": "address"
        }
      ],
      "name": "uData",
      "outputs": [
        {
          "internalType": "bytes",
          "name": "",
          "type": "bytes"
        }
      ],
      "stateMutability": "view",
      "type": "function",
      "constant": true
    },
    {
      "inputs": [
        {
          "internalType": "address",
          "name": "_contract",
          "type": "address"
        }
      ],
      "name": "withdrawToken",
      "outputs": [
        {
          "internalType": "bool",
          "name": "",
          "type": "bool"
        }
      ],
      "stateMutability": "nonpayable",
      "type": "function"
    },
    {
      "inputs": [],
      "name": "getCampaignCount",
      "outputs": [
        {
          "internalType": "uint256",
          "name": "",
          "type": "uint256"
        }
      ],
      "stateMutability": "view",
      "type": "function",
      "constant": true
    },
    {
      "inputs": [],
      "name": "getLinkCount",
      "outputs": [
        {
          "internalType": "uint256",
          "name": "",
          "type": "uint256"
        }
      ],
      "stateMutability": "view",
      "type": "function",
      "constant": true
    },
    {
      "inputs": [],
      "name": "getTxCount",
      "outputs": [
        {
          "internalType": "uint256",
          "name": "",
          "type": "uint256"
        }
      ],
      "stateMutability": "view",
      "type": "function",
      "constant": true
    },
    {
      "inputs": [
        {
          "internalType": "uint256",
          "name": "_cid",
          "type": "uint256"
        }
      ],
      "name": "getCampaignTokAdr",
      "outputs": [
        {
          "internalType": "address",
          "name": "",
          "type": "address"
        }
      ],
      "stateMutability": "view",
      "type": "function",
      "constant": true
    },
    {
      "inputs": [],
      "name": "beProducer",
      "outputs": [
        {
          "internalType": "bool",
          "name": "",
          "type": "bool"
        }
      ],
      "stateMutability": "nonpayable",
      "type": "function"
    },
    {
      "inputs": [],
      "name": "bePromoter",
      "outputs": [
        {
          "internalType": "bool",
          "name": "",
          "type": "bool"
        }
      ],
      "stateMutability": "nonpayable",
      "type": "function"
    },
    {
      "inputs": [
        {
          "internalType": "uint256",
          "name": "_cid",
          "type": "uint256"
        }
      ],
      "name": "makeLink",
      "outputs": [
        {
          "internalType": "bool",
          "name": "",
          "type": "bool"
        }
      ],
      "stateMutability": "nonpayable",
      "type": "function"
    },
    {
      "inputs": [
        {
          "internalType": "uint256",
          "name": "_id",
          "type": "uint256"
        },
        {
          "internalType": "string",
          "name": "_data",
          "type": "string"
        },
        {
          "internalType": "address",
          "name": "_owner",
          "type": "address"
        },
        {
          "internalType": "address",
          "name": "_tokenAddress",
          "type": "address"
        },
        {
          "internalType": "uint256",
          "name": "_tokenId",
          "type": "uint256"
        },
        {
          "internalType": "uint256",
          "name": "_price",
          "type": "uint256"
        },
        {
          "internalType": "address",
          "name": "_payCurrency",
          "type": "address"
        },
        {
          "internalType": "uint256",
          "name": "_fee",
          "type": "uint256"
        },
        {
          "internalType": "uint256",
          "name": "_duration",
          "type": "uint256"
        }
      ],
      "name": "makeCampaign",
      "outputs": [
        {
          "internalType": "bool",
          "name": "",
          "type": "bool"
        }
      ],
      "stateMutability": "payable",
      "type": "function",
      "payable": true
    },
    {
      "inputs": [
        {
          "internalType": "uint256",
          "name": "_rlid",
          "type": "uint256"
        }
      ],
      "name": "approveCampaign",
      "outputs": [
        {
          "internalType": "bool",
          "name": "",
          "type": "bool"
        }
      ],
      "stateMutability": "nonpayable",
      "type": "function"
    },
    {
      "inputs": [
        {
          "internalType": "uint256",
          "name": "_rlid",
          "type": "uint256"
        }
      ],
      "name": "approveFunds",
      "outputs": [
        {
          "internalType": "bool",
          "name": "",
          "type": "bool"
        }
      ],
      "stateMutability": "nonpayable",
      "type": "function"
    },
    {
      "inputs": [
        {
          "internalType": "uint256",
          "name": "_rlid",
          "type": "uint256"
        }
      ],
      "name": "finalize",
      "outputs": [
        {
          "internalType": "bool",
          "name": "",
          "type": "bool"
        }
      ],
      "stateMutability": "payable",
      "type": "function",
      "payable": true
    },
    {
      "inputs": [
        {
          "internalType": "uint256",
          "name": "_eth",
          "type": "uint256"
        },
        {
          "internalType": "uint256",
          "name": "_mlq",
          "type": "uint256"
        }
      ],
      "name": "withdraw",
      "outputs": [
        {
          "internalType": "bool",
          "name": "",
          "type": "bool"
        }
      ],
      "stateMutability": "nonpayable",
      "type": "function"
    }
  ],
  "bytecode": "0x6080604052731cd6f4d329d38043a6bdb3665c3a7b06f79b52426000806101000a81548173ffffffffffffffffffffffffffffffffffffffff021916908373ffffffffffffffffffffffffffffffffffffffff16021790555073a60bd1147c32acdf9060badbaa0f62f6bfd19437600160006101000a81548173ffffffffffffffffffffffffffffffffffffffff021916908373ffffffffffffffffffffffffffffffffffffffff160217905550670de0b6b3a7640000600855348015620000c657600080fd5b5060008054906101000a900473ffffffffffffffffffffffffffffffffffffffff1673ffffffffffffffffffffffffffffffffffffffff163373ffffffffffffffffffffffffffffffffffffffff1614806200016f5750600160009054906101000a900473ffffffffffffffffffffffffffffffffffffffff1673ffffffffffffffffffffffffffffffffffffffff163373ffffffffffffffffffffffffffffffffffffffff16145b6200017957600080fd5b6063600260003373ffffffffffffffffffffffffffffffffffffffff1673ffffffffffffffffffffffffffffffffffffffff168152602001908152602001600020819055506002600781905550604051806060016040528060368152602001620052fd60369139600360003373ffffffffffffffffffffffffffffffffffffffff1673ffffffffffffffffffffffffffffffffffffffff16815260200190815260200160002090805190602001906200023492919062000328565b506001600d60003373ffffffffffffffffffffffffffffffffffffffff1673ffffffffffffffffffffffffffffffffffffffff16815260200190815260200160002060006101000a81548160ff021916908315150217905550600e547f5c155e8f37136295b53ae72fb3c0f568542d008fa91b541061b2d58d80d2657f33306103e76040518060400160405280601081526020017f636f6e7472616374206372656174656400000000000000000000000000000000815250426040516200030095949392919062000529565b60405180910390a2600e60008154809291906200031d90620005bc565b91905055506200066d565b828054620003369062000638565b90600052602060002090601f0160209004810192826200035a5760008555620003a6565b82601f106200037557805160ff1916838001178555620003a6565b82800160010185558215620003a6579182015b82811115620003a557825182559160200191906001019062000388565b5b509050620003b59190620003b9565b5090565b5b80821115620003d4576000816000905550600101620003ba565b5090565b600073ffffffffffffffffffffffffffffffffffffffff82169050919050565b60006200040582620003d8565b9050919050565b6200041781620003f8565b82525050565b6000819050919050565b6000819050919050565b6000819050919050565b60006200045c6200045662000450846200041d565b62000431565b62000427565b9050919050565b6200046e816200043b565b82525050565b600081519050919050565b600082825260208201905092915050565b60005b83811015620004b057808201518184015260208101905062000493565b83811115620004c0576000848401525b50505050565b6000601f19601f8301169050919050565b6000620004e48262000474565b620004f081856200047f565b93506200050281856020860162000490565b6200050d81620004c6565b840191505092915050565b620005238162000427565b82525050565b600060a0820190506200054060008301886200040c565b6200054f60208301876200040c565b6200055e604083018662000463565b8181036060830152620005728185620004d7565b905062000583608083018462000518565b9695505050505050565b7f4e487b7100000000000000000000000000000000000000000000000000000000600052601160045260246000fd5b6000620005c98262000427565b91507fffffffffffffffffffffffffffffffffffffffffffffffffffffffffffffffff8203620005fe57620005fd6200058d565b5b600182019050919050565b7f4e487b7100000000000000000000000000000000000000000000000000000000600052602260045260246000fd5b600060028204905060018216806200065157607f821691505b60208210810362000667576200066662000609565b5b50919050565b614c80806200067d6000396000f3fe6080604052600436106101db5760003560e01c80638947606911610102578063d590f8c911610095578063ef51b79d11610064578063ef51b79d146107a0578063f4567fa8146107cb578063f5715d5614610808578063fde0817414610848576101dc565b8063d590f8c9146106bc578063d5abeb01146106f9578063ea319b8814610724578063ee4e1b5314610763576101dc565b8063b7187e35116100d1578063b7187e35146105df578063ba2197501461061c578063c96f6ca914610647578063d09e747f14610677576101dc565b8063894760691461050f57806394f4a2591461054c5780639f5215dd14610589578063a6c3e6b9146105b4576101dc565b80632a1e5ef31161017a5780636caa9218116101495780636caa92181461042b5780636d65d97b14610456578063881d8a401461049357806389241f96146104d2576101dc565b80632a1e5ef31461035b5780632e3606ad146103865780634209fff1146103b1578063441a3e70146103ee576101dc565b8063141961bc116101b6578063141961bc146102825780631dd46c1e146102c7578063268b5227146102f2578063274daa351461032f576101dc565b806253d555146101ea57806305261aea146102155780630acfd58e14610245576101dc565b5b3480156101e857600080fd5b005b3480156101f657600080fd5b506101ff610873565b60405161020c9190613e48565b60405180910390f35b61022f600480360381019061022a9190613ead565b610899565b60405161023c9190613ef5565b60405180910390f35b34801561025157600080fd5b5061026c60048036038101906102679190613f3c565b611217565b6040516102799190613ef5565b60405180910390f35b34801561028e57600080fd5b506102a960048036038101906102a49190613ead565b6112e9565b6040516102be99989796959493929190614024565b60405180910390f35b3480156102d357600080fd5b506102dc61142f565b6040516102e991906140b8565b60405180910390f35b3480156102fe57600080fd5b5061031960048036038101906103149190614208565b611439565b6040516103269190613ef5565b60405180910390f35b34801561033b57600080fd5b50610344611535565b6040516103529291906142a6565b60405180910390f35b34801561036757600080fd5b5061037061164c565b60405161037d9190613ef5565b60405180910390f35b34801561039257600080fd5b5061039b611914565b6040516103a89190613ef5565b60405180910390f35b3480156103bd57600080fd5b506103d860048036038101906103d391906142d6565b611bdb565b6040516103e59190613ef5565b60405180910390f35b3480156103fa57600080fd5b5061041560048036038101906104109190614303565b611bfb565b6040516104229190613ef5565b60405180910390f35b34801561043757600080fd5b50610440611e72565b60405161044d91906140b8565b60405180910390f35b34801561046257600080fd5b5061047d60048036038101906104789190613ead565b611e7c565b60405161048a9190613ef5565b60405180910390f35b34801561049f57600080fd5b506104ba60048036038101906104b59190613ead565b6122dd565b6040516104c993929190614343565b60405180910390f35b3480156104de57600080fd5b506104f960048036038101906104f49190613ead565b612337565b6040516105069190613ef5565b60405180910390f35b34801561051b57600080fd5b50610536600480360381019061053191906142d6565b61278a565b6040516105439190613ef5565b60405180910390f35b34801561055857600080fd5b50610573600480360381019061056e91906142d6565b612994565b6040516105809190613ef5565b60405180910390f35b34801561059557600080fd5b5061059e6129e0565b6040516105ab91906140b8565b60405180910390f35b3480156105c057600080fd5b506105c96129e6565b6040516105d69190613e48565b60405180910390f35b3480156105eb57600080fd5b50610606600480360381019061060191906142d6565b612a0a565b604051610613919061437a565b60405180910390f35b34801561062857600080fd5b50610631612aaa565b60405161063e9190613ef5565b60405180910390f35b610661600480360381019061065c919061439c565b612afe565b60405161066e9190613ef5565b60405180910390f35b34801561068357600080fd5b5061069e60048036038101906106999190613f3c565b6131c8565b6040516106b399989796959493929190614024565b60405180910390f35b3480156106c857600080fd5b506106e360048036038101906106de91906142d6565b61330b565b6040516106f091906140b8565b60405180910390f35b34801561070557600080fd5b5061070e613323565b60405161071b91906140b8565b60405180910390f35b34801561073057600080fd5b5061074b60048036038101906107469190613f3c565b613329565b60405161075a93929190614343565b60405180910390f35b34801561076f57600080fd5b5061078a60048036038101906107859190613ead565b613380565b6040516107979190613ef5565b60405180910390f35b3480156107ac57600080fd5b506107b56138ac565b6040516107c291906140b8565b60405180910390f35b3480156107d757600080fd5b506107f260048036038101906107ed9190613ead565b6138b6565b6040516107ff9190613e48565b60405180910390f35b34801561081457600080fd5b5061082f600480360381019061082a9190613ead565b613905565b60405161083f9493929190614482565b60405180910390f35b34801561085457600080fd5b5061085d613945565b60405161086a91906140b8565b60405180910390f35b600160009054906101000a900473ffffffffffffffffffffffffffffffffffffffff1681565b600080601083815481106108b0576108af6144c7565b5b90600052602060002090600302016001015490506000601084815481106108da576108d96144c7565b5b906000526020600020906003020160020160009054906101000a900473ffffffffffffffffffffffffffffffffffffffff1690506000600f8381548110610924576109236144c7565b5b9060005260206000209060090201604051806101200160405290816000820154815260200160018201805461095890614525565b80601f016020809104026020016040519081016040528092919081815260200182805461098490614525565b80156109d15780601f106109a6576101008083540402835291602001916109d1565b820191906000526020600020905b8154815290600101906020018083116109b457829003601f168201915b505050505081526020016002820160009054906101000a900473ffffffffffffffffffffffffffffffffffffffff1673ffffffffffffffffffffffffffffffffffffffff1673ffffffffffffffffffffffffffffffffffffffff1681526020016003820160009054906101000a900473ffffffffffffffffffffffffffffffffffffffff1673ffffffffffffffffffffffffffffffffffffffff1673ffffffffffffffffffffffffffffffffffffffff16815260200160048201548152602001600582015481526020016006820160009054906101000a900473ffffffffffffffffffffffffffffffffffffffff1673ffffffffffffffffffffffffffffffffffffffff1673ffffffffffffffffffffffffffffffffffffffff16815260200160078201548152602001600882015481525050905060006007548260a001516064610b1c91906145b4565b610b2691906145e5565b905060008260e001516007546064610b3e919061463f565b8460a001516064610b4f91906145b4565b610b5991906145e5565b610b63919061463f565b90508260600151600a60006101000a81548173ffffffffffffffffffffffffffffffffffffffff021916908373ffffffffffffffffffffffffffffffffffffffff160217905550600073ffffffffffffffffffffffffffffffffffffffff168360c0015173ffffffffffffffffffffffffffffffffffffffff1614610f62578260c00151600960006101000a81548173ffffffffffffffffffffffffffffffffffffffff021916908373ffffffffffffffffffffffffffffffffffffffff1602179055508260a00151600960009054906101000a900473ffffffffffffffffffffffffffffffffffffffff1673ffffffffffffffffffffffffffffffffffffffff166370a08231336040518263ffffffff1660e01b8152600401610c879190613e48565b602060405180830381865afa158015610ca4573d6000803e3d6000fd5b505050506040513d601f19601f82011682018060405250810190610cc89190614688565b1015610cd357600080fd5b600960009054906101000a900473ffffffffffffffffffffffffffffffffffffffff1673ffffffffffffffffffffffffffffffffffffffff166323b872dd338560400151846040518463ffffffff1660e01b8152600401610d36939291906146b5565b6020604051808303816000875af1158015610d55573d6000803e3d6000fd5b505050506040513d601f19601f82011682018060405250810190610d799190614718565b50600a60009054906101000a900473ffffffffffffffffffffffffffffffffffffffff1673ffffffffffffffffffffffffffffffffffffffff166323b872dd84604001513386608001516040518463ffffffff1660e01b8152600401610de1939291906146b5565b600060405180830381600087803b158015610dfb57600080fd5b505af1158015610e0f573d6000803e3d6000fd5b50505050600960009054906101000a900473ffffffffffffffffffffffffffffffffffffffff1673ffffffffffffffffffffffffffffffffffffffff166323b872dd33868660e001516040518463ffffffff1660e01b8152600401610e76939291906146b5565b6020604051808303816000875af1158015610e95573d6000803e3d6000fd5b505050506040513d601f19601f82011682018060405250810190610eb99190614718565b50600960009054906101000a900473ffffffffffffffffffffffffffffffffffffffff1673ffffffffffffffffffffffffffffffffffffffff166323b872dd3330856040518463ffffffff1660e01b8152600401610f19939291906146b5565b6020604051808303816000875af1158015610f38573d6000803e3d6000fd5b505050506040513d601f19601f82011682018060405250810190610f5c9190614718565b506110ea565b8260a00151341015610f7357600080fd5b826040015173ffffffffffffffffffffffffffffffffffffffff166108fc829081150290604051600060405180830381858888f19350505050158015610fbd573d6000803e3d6000fd5b50600a60009054906101000a900473ffffffffffffffffffffffffffffffffffffffff1673ffffffffffffffffffffffffffffffffffffffff166323b872dd84604001513386608001516040518463ffffffff1660e01b8152600401611025939291906146b5565b600060405180830381600087803b15801561103f57600080fd5b505af1158015611053573d6000803e3d6000fd5b505050508373ffffffffffffffffffffffffffffffffffffffff166108fc8460e001519081150290604051600060405180830381858888f193505050501580156110a1573d6000803e3d6000fd5b503073ffffffffffffffffffffffffffffffffffffffff166108fc839081150290604051600060405180830381858888f193505050501580156110e8573d6000803e3d6000fd5b505b601160405180608001604052806018548152602001898152602001878152602001428152509080600181540180825580915050600190039060005260206000209060040201600090919091909150600082015181600001556020820151816001015560408201518160020155606082015181600301555050600e547f5c155e8f37136295b53ae72fb3c0f568542d008fa91b541061b2d58d80d2657f33308a6040518060400160405280600e81526020017f6c696e6b207478206661696c6564000000000000000000000000000000000000815250426040516111d1959493929190614745565b60405180910390a2601860008154809291906111ec9061479f565b9190505550600e60008154809291906112049061479f565b9190505550600195505050505050919050565b60006063600260003373ffffffffffffffffffffffffffffffffffffffff1673ffffffffffffffffffffffffffffffffffffffff168152602001908152602001600020541461129b576040517f08c379a000000000000000000000000000000000000000000000000000000000815260040161129290614833565b60405180910390fd5b81600260008573ffffffffffffffffffffffffffffffffffffffff1673ffffffffffffffffffffffffffffffffffffffff168152602001908152602001600020819055506001905092915050565b600f81815481106112f957600080fd5b906000526020600020906009020160009150905080600001549080600101805461132290614525565b80601f016020809104026020016040519081016040528092919081815260200182805461134e90614525565b801561139b5780601f106113705761010080835404028352916020019161139b565b820191906000526020600020905b81548152906001019060200180831161137e57829003601f168201915b5050505050908060020160009054906101000a900473ffffffffffffffffffffffffffffffffffffffff16908060030160009054906101000a900473ffffffffffffffffffffffffffffffffffffffff16908060040154908060050154908060060160009054906101000a900473ffffffffffffffffffffffffffffffffffffffff16908060070154908060080154905089565b6000601854905090565b60006001600d60003373ffffffffffffffffffffffffffffffffffffffff1673ffffffffffffffffffffffffffffffffffffffff16815260200190815260200160002060006101000a81548160ff0219169083151502179055506001600260003373ffffffffffffffffffffffffffffffffffffffff1673ffffffffffffffffffffffffffffffffffffffff1681526020019081526020016000208190555081600360003373ffffffffffffffffffffffffffffffffffffffff1673ffffffffffffffffffffffffffffffffffffffff168152602001908152602001600020908051906020019061152b929190613cd7565b5060019050919050565b60606000600360003373ffffffffffffffffffffffffffffffffffffffff1673ffffffffffffffffffffffffffffffffffffffff168152602001908152602001600020600260003373ffffffffffffffffffffffffffffffffffffffff1673ffffffffffffffffffffffffffffffffffffffff168152602001908152602001600020548180546115c490614525565b80601f01602080910402602001604051908101604052809291908181526020018280546115f090614525565b801561163d5780601f106116125761010080835404028352916020019161163d565b820191906000526020600020905b81548152906001019060200180831161162057829003601f168201915b50505050509150915091509091565b600060011515600d60003373ffffffffffffffffffffffffffffffffffffffff1673ffffffffffffffffffffffffffffffffffffffff16815260200190815260200160002060009054906101000a900460ff161515146116e1576040517f08c379a00000000000000000000000000000000000000000000000000000000081526004016116d89061489f565b60405180910390fd5b6003600260003373ffffffffffffffffffffffffffffffffffffffff1673ffffffffffffffffffffffffffffffffffffffff1681526020019081526020016000205403611763576040517f08c379a000000000000000000000000000000000000000000000000000000000815260040161175a9061490b565b60405180910390fd5b6001600260003373ffffffffffffffffffffffffffffffffffffffff1673ffffffffffffffffffffffffffffffffffffffff16815260200190815260200160002054036117f0576003600260003373ffffffffffffffffffffffffffffffffffffffff1673ffffffffffffffffffffffffffffffffffffffff168152602001908152602001600020819055505b60028060003373ffffffffffffffffffffffffffffffffffffffff1673ffffffffffffffffffffffffffffffffffffffff168152602001908152602001600020540361187c576004600260003373ffffffffffffffffffffffffffffffffffffffff1673ffffffffffffffffffffffffffffffffffffffff168152602001908152602001600020819055505b600e547f5c155e8f37136295b53ae72fb3c0f568542d008fa91b541061b2d58d80d2657f33306103e76040518060400160405280600f81526020017f626563616d652070726f6d6f7465720000000000000000000000000000000000815250426040516118ed959493929190614970565b60405180910390a2600e60008154809291906119089061479f565b91905055506001905090565b600060011515600d60003373ffffffffffffffffffffffffffffffffffffffff1673ffffffffffffffffffffffffffffffffffffffff16815260200190815260200160002060009054906101000a900460ff161515146119a9576040517f08c379a00000000000000000000000000000000000000000000000000000000081526004016119a09061489f565b60405180910390fd5b60028060003373ffffffffffffffffffffffffffffffffffffffff1673ffffffffffffffffffffffffffffffffffffffff1681526020019081526020016000205403611a2a576040517f08c379a0000000000000000000000000000000000000000000000000000000008152600401611a2190614a16565b60405180910390fd5b6001600260003373ffffffffffffffffffffffffffffffffffffffff1673ffffffffffffffffffffffffffffffffffffffff1681526020019081526020016000205403611ab65760028060003373ffffffffffffffffffffffffffffffffffffffff1673ffffffffffffffffffffffffffffffffffffffff168152602001908152602001600020819055505b6003600260003373ffffffffffffffffffffffffffffffffffffffff1673ffffffffffffffffffffffffffffffffffffffff1681526020019081526020016000205403611b43576004600260003373ffffffffffffffffffffffffffffffffffffffff1673ffffffffffffffffffffffffffffffffffffffff168152602001908152602001600020819055505b600e547f5c155e8f37136295b53ae72fb3c0f568542d008fa91b541061b2d58d80d2657f33306103e76040518060400160405280600f81526020017f626563616d652070726f6475636572000000000000000000000000000000000081525042604051611bb4959493929190614970565b60405180910390a2600e6000815480929190611bcf9061479f565b91905055506001905090565b600d6020528060005260406000206000915054906101000a900460ff1681565b60006063600260003373ffffffffffffffffffffffffffffffffffffffff1673ffffffffffffffffffffffffffffffffffffffff1681526020019081526020016000205414611c7f576040517f08c379a0000000000000000000000000000000000000000000000000000000008152600401611c7690614833565b60405180910390fd5b600c60009054906101000a900473ffffffffffffffffffffffffffffffffffffffff1673ffffffffffffffffffffffffffffffffffffffff166370a08231306040518263ffffffff1660e01b8152600401611cda9190613e48565b602060405180830381865afa158015611cf7573d6000803e3d6000fd5b505050506040513d601f19601f82011682018060405250810190611d1b9190614688565b670de0b6b3a764000083611d2f91906145e5565b1115611d3a57600080fd5b47670de0b6b3a764000084611d4f91906145e5565b1115611d5a57600080fd5b600c60009054906101000a900473ffffffffffffffffffffffffffffffffffffffff1673ffffffffffffffffffffffffffffffffffffffff1663a9059cbb33670de0b6b3a764000085611dad91906145e5565b6040518363ffffffff1660e01b8152600401611dca929190614a8b565b6020604051808303816000875af1158015611de9573d6000803e3d6000fd5b505050506040513d601f19601f82011682018060405250810190611e0d9190614718565b503373ffffffffffffffffffffffffffffffffffffffff166108fc670de0b6b3a764000085611e3c91906145e5565b9081150290604051600060405180830381858888f19350505050158015611e67573d6000803e3d6000fd5b506001905092915050565b6000601654905090565b600060011515600d60003373ffffffffffffffffffffffffffffffffffffffff1673ffffffffffffffffffffffffffffffffffffffff16815260200190815260200160002060009054906101000a900460ff16151514611f11576040517f08c379a0000000000000000000000000000000000000000000000000000000008152600401611f089061489f565b60405180910390fd5b6003600260003373ffffffffffffffffffffffffffffffffffffffff1673ffffffffffffffffffffffffffffffffffffffff168152602001908152602001600020541480611f9e57506004600260003373ffffffffffffffffffffffffffffffffffffffff1673ffffffffffffffffffffffffffffffffffffffff16815260200190815260200160002054145b80611fe857506063600260003373ffffffffffffffffffffffffffffffffffffffff1673ffffffffffffffffffffffffffffffffffffffff16815260200190815260200160002054145b612027576040517f08c379a000000000000000000000000000000000000000000000000000000000815260040161201e90614b00565b60405180910390fd5b6010604051806060016040528060175481526020018481526020013373ffffffffffffffffffffffffffffffffffffffff168152509080600181540180825580915050600190039060005260206000209060030201600090919091909150600082015181600001556020820151816001015560408201518160020160006101000a81548173ffffffffffffffffffffffffffffffffffffffff021916908373ffffffffffffffffffffffffffffffffffffffff1602179055505050601460003373ffffffffffffffffffffffffffffffffffffffff1673ffffffffffffffffffffffffffffffffffffffff16815260200190815260200160002060008154809291906121329061479f565b919050555060106017548154811061214d5761214c6144c7565b5b9060005260206000209060030201601560003373ffffffffffffffffffffffffffffffffffffffff1673ffffffffffffffffffffffffffffffffffffffff1681526020019081526020016000206000601754815260200190815260200160002060008201548160000155600182015481600101556002820160009054906101000a900473ffffffffffffffffffffffffffffffffffffffff168160020160006101000a81548173ffffffffffffffffffffffffffffffffffffffff021916908373ffffffffffffffffffffffffffffffffffffffff160217905550905050600e547f5c155e8f37136295b53ae72fb3c0f568542d008fa91b541061b2d58d80d2657f33306017546040518060400160405280600c81526020017f6c696e6b206372656174656400000000000000000000000000000000000000008152504260405161229c959493929190614745565b60405180910390a2600e60008154809291906122b79061479f565b9190505550601760008154809291906122cf9061479f565b919050555060019050919050565b601081815481106122ed57600080fd5b90600052602060002090600302016000915090508060000154908060010154908060020160009054906101000a900473ffffffffffffffffffffffffffffffffffffffff16905083565b600080600f601084815481106123505761234f6144c7565b5b90600052602060002090600302016001015481548110612373576123726144c7565b5b906000526020600020906009020160405180610120016040529081600082015481526020016001820180546123a790614525565b80601f01602080910402602001604051908101604052809291908181526020018280546123d390614525565b80156124205780601f106123f557610100808354040283529160200191612420565b820191906000526020600020905b81548152906001019060200180831161240357829003601f168201915b505050505081526020016002820160009054906101000a900473ffffffffffffffffffffffffffffffffffffffff1673ffffffffffffffffffffffffffffffffffffffff1673ffffffffffffffffffffffffffffffffffffffff1681526020016003820160009054906101000a900473ffffffffffffffffffffffffffffffffffffffff1673ffffffffffffffffffffffffffffffffffffffff1673ffffffffffffffffffffffffffffffffffffffff16815260200160048201548152602001600582015481526020016006820160009054906101000a900473ffffffffffffffffffffffffffffffffffffffff1673ffffffffffffffffffffffffffffffffffffffff1673ffffffffffffffffffffffffffffffffffffffff16815260200160078201548152602001600882015481525050905060108381548110612569576125686144c7565b5b906000526020600020906003020160020160009054906101000a900473ffffffffffffffffffffffffffffffffffffffff1673ffffffffffffffffffffffffffffffffffffffff163373ffffffffffffffffffffffffffffffffffffffff161461277957600073ffffffffffffffffffffffffffffffffffffffff168160c0015173ffffffffffffffffffffffffffffffffffffffff1614612774578060c00151600960006101000a81548173ffffffffffffffffffffffffffffffffffffffff021916908373ffffffffffffffffffffffffffffffffffffffff160217905550600960009054906101000a900473ffffffffffffffffffffffffffffffffffffffff1673ffffffffffffffffffffffffffffffffffffffff1663095ea7b3308360a001516040518363ffffffff1660e01b81526004016126ab929190614b20565b6020604051808303816000875af11580156126ca573d6000803e3d6000fd5b505050506040513d601f19601f820116820180604052508101906126ee9190614718565b50600e547f5c155e8f37136295b53ae72fb3c0f568542d008fa91b541061b2d58d80d2657f333084608001516040518060400160405280601081526020017f2e20746f6b656e20617070726f76616c0000000000000000000000000000000081525042604051612762959493929190614745565b60405180910390a26001915050612785565b612783565b6000915050612785565b505b919050565b60006063600260003373ffffffffffffffffffffffffffffffffffffffff1673ffffffffffffffffffffffffffffffffffffffff168152602001908152602001600020541461280e576040517f08c379a000000000000000000000000000000000000000000000000000000000815260040161280590614833565b60405180910390fd5b81600960006101000a81548173ffffffffffffffffffffffffffffffffffffffff021916908373ffffffffffffffffffffffffffffffffffffffff160217905550600960009054906101000a900473ffffffffffffffffffffffffffffffffffffffff1673ffffffffffffffffffffffffffffffffffffffff1663a9059cbb33600960009054906101000a900473ffffffffffffffffffffffffffffffffffffffff1673ffffffffffffffffffffffffffffffffffffffff166370a08231306040518263ffffffff1660e01b81526004016128e99190613e48565b602060405180830381865afa158015612906573d6000803e3d6000fd5b505050506040513d601f19601f8201168201806040525081019061292a9190614688565b6040518363ffffffff1660e01b8152600401612947929190614b20565b6020604051808303816000875af1158015612966573d6000803e3d6000fd5b505050506040513d601f19601f8201168201806040525081019061298a9190614718565b5060019050919050565b600081600c60006101000a81548173ffffffffffffffffffffffffffffffffffffffff021916908373ffffffffffffffffffffffffffffffffffffffff16021790555060019050919050565b60055481565b60008054906101000a900473ffffffffffffffffffffffffffffffffffffffff1681565b60036020528060005260406000206000915090508054612a2990614525565b80601f0160208091040260200160405190810160405280929190818152602001828054612a5590614525565b8015612aa25780601f10612a7757610100808354040283529160200191612aa2565b820191906000526020600020905b815481529060010190602001808311612a8557829003601f168201915b505050505081565b6000600d60003373ffffffffffffffffffffffffffffffffffffffff1673ffffffffffffffffffffffffffffffffffffffff16815260200190815260200160002060009054906101000a900460ff16905090565b600060011515600d60003373ffffffffffffffffffffffffffffffffffffffff1673ffffffffffffffffffffffffffffffffffffffff16815260200190815260200160002060009054906101000a900460ff16151514612b93576040517f08c379a0000000000000000000000000000000000000000000000000000000008152600401612b8a9061489f565b60405180910390fd5b60028060003373ffffffffffffffffffffffffffffffffffffffff1673ffffffffffffffffffffffffffffffffffffffff168152602001908152602001600020541480612c1f57506004600260003373ffffffffffffffffffffffffffffffffffffffff1673ffffffffffffffffffffffffffffffffffffffff16815260200190815260200160002054145b80612c6957506063600260003373ffffffffffffffffffffffffffffffffffffffff1673ffffffffffffffffffffffffffffffffffffffff16815260200190815260200160002054145b612ca8576040517f08c379a0000000000000000000000000000000000000000000000000000000008152600401612c9f90614b95565b60405180910390fd5b600f6040518061012001604052808c81526020018b81526020018a73ffffffffffffffffffffffffffffffffffffffff1681526020018973ffffffffffffffffffffffffffffffffffffffff16815260200188815260200160085488612d0e91906145e5565b81526020018673ffffffffffffffffffffffffffffffffffffffff16815260200160085486612d3d91906145e5565b8152602001603c8086612d5091906145e5565b612d5a91906145e5565b8152509080600181540180825580915050600190039060005260206000209060090201600090919091909150600082015181600001556020820151816001019080519060200190612dac929190613cd7565b5060408201518160020160006101000a81548173ffffffffffffffffffffffffffffffffffffffff021916908373ffffffffffffffffffffffffffffffffffffffff16021790555060608201518160030160006101000a81548173ffffffffffffffffffffffffffffffffffffffff021916908373ffffffffffffffffffffffffffffffffffffffff1602179055506080820151816004015560a0820151816005015560c08201518160060160006101000a81548173ffffffffffffffffffffffffffffffffffffffff021916908373ffffffffffffffffffffffffffffffffffffffff16021790555060e0820151816007015561010082015181600801555050601260003373ffffffffffffffffffffffffffffffffffffffff1673ffffffffffffffffffffffffffffffffffffffff1681526020019081526020016000206000815480929190612efd9061479f565b9190505550600f60165481548110612f1857612f176144c7565b5b9060005260206000209060090201601360003373ffffffffffffffffffffffffffffffffffffffff1673ffffffffffffffffffffffffffffffffffffffff16815260200190815260200160002060006016548152602001908152602001600020600082015481600001556001820181600101908054612f9690614525565b612fa1929190613d5d565b506002820160009054906101000a900473ffffffffffffffffffffffffffffffffffffffff168160020160006101000a81548173ffffffffffffffffffffffffffffffffffffffff021916908373ffffffffffffffffffffffffffffffffffffffff1602179055506003820160009054906101000a900473ffffffffffffffffffffffffffffffffffffffff168160030160006101000a81548173ffffffffffffffffffffffffffffffffffffffff021916908373ffffffffffffffffffffffffffffffffffffffff16021790555060048201548160040155600582015481600501556006820160009054906101000a900473ffffffffffffffffffffffffffffffffffffffff168160060160006101000a81548173ffffffffffffffffffffffffffffffffffffffff021916908373ffffffffffffffffffffffffffffffffffffffff1602179055506007820154816007015560088201548160080155905050600e547f5c155e8f37136295b53ae72fb3c0f568542d008fa91b541061b2d58d80d2657f33306016546040518060400160405280601281526020017f2e2063616d706169676e2063726561746564000000000000000000000000000081525042604051613173959493929190614745565b60405180910390a2600e600081548092919061318e9061479f565b919050555061319e60165461398c565b50601660008154809291906131b29061479f565b9190505550600190509998505050505050505050565b6013602052816000526040600020602052806000526040600020600091509150508060000154908060010180546131fe90614525565b80601f016020809104026020016040519081016040528092919081815260200182805461322a90614525565b80156132775780601f1061324c57610100808354040283529160200191613277565b820191906000526020600020905b81548152906001019060200180831161325a57829003601f168201915b5050505050908060020160009054906101000a900473ffffffffffffffffffffffffffffffffffffffff16908060030160009054906101000a900473ffffffffffffffffffffffffffffffffffffffff16908060040154908060050154908060060160009054906101000a900473ffffffffffffffffffffffffffffffffffffffff16908060070154908060080154905089565b60026020528060005260406000206000915090505481565b60045481565b6015602052816000526040600020602052806000526040600020600091509150508060000154908060010154908060020160009054906101000a900473ffffffffffffffffffffffffffffffffffffffff16905083565b600080600f60108481548110613399576133986144c7565b5b906000526020600020906003020160010154815481106133bc576133bb6144c7565b5b906000526020600020906009020160405180610120016040529081600082015481526020016001820180546133f090614525565b80601f016020809104026020016040519081016040528092919081815260200182805461341c90614525565b80156134695780601f1061343e57610100808354040283529160200191613469565b820191906000526020600020905b81548152906001019060200180831161344c57829003601f168201915b505050505081526020016002820160009054906101000a900473ffffffffffffffffffffffffffffffffffffffff1673ffffffffffffffffffffffffffffffffffffffff1673ffffffffffffffffffffffffffffffffffffffff1681526020016003820160009054906101000a900473ffffffffffffffffffffffffffffffffffffffff1673ffffffffffffffffffffffffffffffffffffffff1673ffffffffffffffffffffffffffffffffffffffff16815260200160048201548152602001600582015481526020016006820160009054906101000a900473ffffffffffffffffffffffffffffffffffffffff1673ffffffffffffffffffffffffffffffffffffffff1673ffffffffffffffffffffffffffffffffffffffff168152602001600782015481526020016008820154815250509050806040015173ffffffffffffffffffffffffffffffffffffffff163373ffffffffffffffffffffffffffffffffffffffff16036138a1578060600151600a60006101000a81548173ffffffffffffffffffffffffffffffffffffffff021916908373ffffffffffffffffffffffffffffffffffffffff1602179055506000600a60009054906101000a900473ffffffffffffffffffffffffffffffffffffffff1673ffffffffffffffffffffffffffffffffffffffff166370a08231336040518263ffffffff1660e01b81526004016136779190613e48565b602060405180830381865afa158015613694573d6000803e3d6000fd5b505050506040513d601f19601f820116820180604052508101906136b89190614688565b10156136f9576040517f08c379a00000000000000000000000000000000000000000000000000000000081526004016136f090614c01565b60405180910390fd5b600a60009054906101000a900473ffffffffffffffffffffffffffffffffffffffff1673ffffffffffffffffffffffffffffffffffffffff1663a22cb4653060016040518363ffffffff1660e01b8152600401613757929190614c21565b600060405180830381600087803b15801561377157600080fd5b505af1158015613785573d6000803e3d6000fd5b50505050600a60009054906101000a900473ffffffffffffffffffffffffffffffffffffffff1673ffffffffffffffffffffffffffffffffffffffff1663095ea7b33083608001516040518363ffffffff1660e01b81526004016137ea929190614b20565b600060405180830381600087803b15801561380457600080fd5b505af1158015613818573d6000803e3d6000fd5b50505050600e547f5c155e8f37136295b53ae72fb3c0f568542d008fa91b541061b2d58d80d2657f333084608001516040518060400160405280600e81526020017f2e206e667420617070726f76616c0000000000000000000000000000000000008152504260405161388f959493929190614745565b60405180910390a260019150506138a7565b60009150505b919050565b6000601754905090565b6000600f82815481106138cc576138cb6144c7565b5b906000526020600020906009020160030160009054906101000a900473ffffffffffffffffffffffffffffffffffffffff169050919050565b6011818154811061391557600080fd5b90600052602060002090600402016000915090508060000154908060010154908060020154908060030154905084565b6000600260003373ffffffffffffffffffffffffffffffffffffffff1673ffffffffffffffffffffffffffffffffffffffff16815260200190815260200160002054905090565b600060011515600d60003373ffffffffffffffffffffffffffffffffffffffff1673ffffffffffffffffffffffffffffffffffffffff16815260200190815260200160002060009054906101000a900460ff16151514613a21576040517f08c379a0000000000000000000000000000000000000000000000000000000008152600401613a189061489f565b60405180910390fd5b6010604051806060016040528060175481526020018481526020013373ffffffffffffffffffffffffffffffffffffffff168152509080600181540180825580915050600190039060005260206000209060030201600090919091909150600082015181600001556020820151816001015560408201518160020160006101000a81548173ffffffffffffffffffffffffffffffffffffffff021916908373ffffffffffffffffffffffffffffffffffffffff1602179055505050601460003373ffffffffffffffffffffffffffffffffffffffff1673ffffffffffffffffffffffffffffffffffffffff1681526020019081526020016000206000815480929190613b2c9061479f565b9190505550601060175481548110613b4757613b466144c7565b5b9060005260206000209060030201601560003373ffffffffffffffffffffffffffffffffffffffff1673ffffffffffffffffffffffffffffffffffffffff1681526020019081526020016000206000601754815260200190815260200160002060008201548160000155600182015481600101556002820160009054906101000a900473ffffffffffffffffffffffffffffffffffffffff168160020160006101000a81548173ffffffffffffffffffffffffffffffffffffffff021916908373ffffffffffffffffffffffffffffffffffffffff160217905550905050600e547f5c155e8f37136295b53ae72fb3c0f568542d008fa91b541061b2d58d80d2657f33306017546040518060400160405280600c81526020017f6c696e6b2063726561746564000000000000000000000000000000000000000081525042604051613c96959493929190614745565b60405180910390a2600e6000815480929190613cb19061479f565b919050555060176000815480929190613cc99061479f565b919050555060019050919050565b828054613ce390614525565b90600052602060002090601f016020900481019282613d055760008555613d4c565b82601f10613d1e57805160ff1916838001178555613d4c565b82800160010185558215613d4c579182015b82811115613d4b578251825591602001919060010190613d30565b5b509050613d599190613dea565b5090565b828054613d6990614525565b90600052602060002090601f016020900481019282613d8b5760008555613dd9565b82601f10613d9c5780548555613dd9565b82800160010185558215613dd957600052602060002091601f016020900482015b82811115613dd8578254825591600101919060010190613dbd565b5b509050613de69190613dea565b5090565b5b80821115613e03576000816000905550600101613deb565b5090565b600073ffffffffffffffffffffffffffffffffffffffff82169050919050565b6000613e3282613e07565b9050919050565b613e4281613e27565b82525050565b6000602082019050613e5d6000830184613e39565b92915050565b6000604051905090565b600080fd5b600080fd5b6000819050919050565b613e8a81613e77565b8114613e9557600080fd5b50565b600081359050613ea781613e81565b92915050565b600060208284031215613ec357613ec2613e6d565b5b6000613ed184828501613e98565b91505092915050565b60008115159050919050565b613eef81613eda565b82525050565b6000602082019050613f0a6000830184613ee6565b92915050565b613f1981613e27565b8114613f2457600080fd5b50565b600081359050613f3681613f10565b92915050565b60008060408385031215613f5357613f52613e6d565b5b6000613f6185828601613f27565b9250506020613f7285828601613e98565b9150509250929050565b613f8581613e77565b82525050565b600081519050919050565b600082825260208201905092915050565b60005b83811015613fc5578082015181840152602081019050613faa565b83811115613fd4576000848401525b50505050565b6000601f19601f8301169050919050565b6000613ff682613f8b565b6140008185613f96565b9350614010818560208601613fa7565b61401981613fda565b840191505092915050565b60006101208201905061403a600083018c613f7c565b818103602083015261404c818b613feb565b905061405b604083018a613e39565b6140686060830189613e39565b6140756080830188613f7c565b61408260a0830187613f7c565b61408f60c0830186613e39565b61409c60e0830185613f7c565b6140aa610100830184613f7c565b9a9950505050505050505050565b60006020820190506140cd6000830184613f7c565b92915050565b600080fd5b600080fd5b7f4e487b7100000000000000000000000000000000000000000000000000000000600052604160045260246000fd5b61411582613fda565b810181811067ffffffffffffffff82111715614134576141336140dd565b5b80604052505050565b6000614147613e63565b9050614153828261410c565b919050565b600067ffffffffffffffff821115614173576141726140dd565b5b61417c82613fda565b9050602081019050919050565b82818337600083830152505050565b60006141ab6141a684614158565b61413d565b9050828152602081018484840111156141c7576141c66140d8565b5b6141d2848285614189565b509392505050565b600082601f8301126141ef576141ee6140d3565b5b81356141ff848260208601614198565b91505092915050565b60006020828403121561421e5761421d613e6d565b5b600082013567ffffffffffffffff81111561423c5761423b613e72565b5b614248848285016141da565b91505092915050565b600081519050919050565b600082825260208201905092915050565b600061427882614251565b614282818561425c565b9350614292818560208601613fa7565b61429b81613fda565b840191505092915050565b600060408201905081810360008301526142c0818561426d565b90506142cf6020830184613f7c565b9392505050565b6000602082840312156142ec576142eb613e6d565b5b60006142fa84828501613f27565b91505092915050565b6000806040838503121561431a57614319613e6d565b5b600061432885828601613e98565b925050602061433985828601613e98565b9150509250929050565b60006060820190506143586000830186613f7c565b6143656020830185613f7c565b6143726040830184613e39565b949350505050565b600060208201905081810360008301526143948184613feb565b905092915050565b60008060008060008060008060006101208a8c0312156143bf576143be613e6d565b5b60006143cd8c828d01613e98565b99505060208a013567ffffffffffffffff8111156143ee576143ed613e72565b5b6143fa8c828d016141da565b985050604061440b8c828d01613f27565b975050606061441c8c828d01613f27565b965050608061442d8c828d01613e98565b95505060a061443e8c828d01613e98565b94505060c061444f8c828d01613f27565b93505060e06144608c828d01613e98565b9250506101006144728c828d01613e98565b9150509295985092959850929598565b60006080820190506144976000830187613f7c565b6144a46020830186613f7c565b6144b16040830185613f7c565b6144be6060830184613f7c565b95945050505050565b7f4e487b7100000000000000000000000000000000000000000000000000000000600052603260045260246000fd5b7f4e487b7100000000000000000000000000000000000000000000000000000000600052602260045260246000fd5b6000600282049050600182168061453d57607f821691505b6020821081036145505761454f6144f6565b5b50919050565b7f4e487b7100000000000000000000000000000000000000000000000000000000600052601260045260246000fd5b7f4e487b7100000000000000000000000000000000000000000000000000000000600052601160045260246000fd5b60006145bf82613e77565b91506145ca83613e77565b9250826145da576145d9614556565b5b828204905092915050565b60006145f082613e77565b91506145fb83613e77565b9250817fffffffffffffffffffffffffffffffffffffffffffffffffffffffffffffffff048311821515161561463457614633614585565b5b828202905092915050565b600061464a82613e77565b915061465583613e77565b92508282101561466857614667614585565b5b828203905092915050565b60008151905061468281613e81565b92915050565b60006020828403121561469e5761469d613e6d565b5b60006146ac84828501614673565b91505092915050565b60006060820190506146ca6000830186613e39565b6146d76020830185613e39565b6146e46040830184613f7c565b949350505050565b6146f581613eda565b811461470057600080fd5b50565b600081519050614712816146ec565b92915050565b60006020828403121561472e5761472d613e6d565b5b600061473c84828501614703565b91505092915050565b600060a08201905061475a6000830188613e39565b6147676020830187613e39565b6147746040830186613f7c565b81810360608301526147868185613feb565b90506147956080830184613f7c565b9695505050505050565b60006147aa82613e77565b91507fffffffffffffffffffffffffffffffffffffffffffffffffffffffffffffffff82036147dc576147db614585565b5b600182019050919050565b7f796f75277265206e6f742061646d696e00000000000000000000000000000000600082015250565b600061481d60108361425c565b9150614828826147e7565b602082019050919050565b6000602082019050818103600083015261484c81614810565b9050919050565b7f796f7520617265206e6f74207573657200000000000000000000000000000000600082015250565b600061488960108361425c565b915061489482614853565b602082019050919050565b600060208201905081810360008301526148b88161487c565b9050919050565b7f796f75206172652070726f6d6f74657200000000000000000000000000000000600082015250565b60006148f560108361425c565b9150614900826148bf565b602082019050919050565b60006020820190508181036000830152614924816148e8565b9050919050565b6000819050919050565b6000819050919050565b600061495a6149556149508461492b565b614935565b613e77565b9050919050565b61496a8161493f565b82525050565b600060a0820190506149856000830188613e39565b6149926020830187613e39565b61499f6040830186614961565b81810360608301526149b18185613feb565b90506149c06080830184613f7c565b9695505050505050565b7f796f75206172652070726f647563657200000000000000000000000000000000600082015250565b6000614a0060108361425c565b9150614a0b826149ca565b602082019050919050565b60006020820190508181036000830152614a2f816149f3565b9050919050565b6000614a51614a4c614a4784613e07565b614935565b613e07565b9050919050565b6000614a6382614a36565b9050919050565b6000614a7582614a58565b9050919050565b614a8581614a6a565b82525050565b6000604082019050614aa06000830185614a7c565b614aad6020830184613f7c565b9392505050565b7f796f7520617265206e6f742070726f6d6f746572000000000000000000000000600082015250565b6000614aea60148361425c565b9150614af582614ab4565b602082019050919050565b60006020820190508181036000830152614b1981614add565b9050919050565b6000604082019050614b356000830185613e39565b614b426020830184613f7c565b9392505050565b7f796f7520617265206e6f742070726f6475636572000000000000000000000000600082015250565b6000614b7f60148361425c565b9150614b8a82614b49565b602082019050919050565b60006020820190508181036000830152614bae81614b72565b9050919050565b7f6e6f7420616e206f776e65720000000000000000000000000000000000000000600082015250565b6000614beb600c8361425c565b9150614bf682614bb5565b602082019050919050565b60006020820190508181036000830152614c1a81614bde565b9050919050565b6000604082019050614c366000830185613e39565b614c436020830184613ee6565b939250505056fea2646970667358221220c21f049b0829e823b961df400bf59ed167039aace5073f95e9db573ca2ece9a864736f6c634300080e00337b22757365726e616d65223a224073746572656f69696936222c22656d61696c223a22747970652e73746572656f40706d2e6d65227d",
  "immutableReferences": {},
  "source": "// SPDX-License-Identifier: GPL-3.0\n// // // // // // // // // // // // // // // // // // // // // // // // // // // // // // // // // // // // // // // // // // // // // // // // // // // // // // // // // // // // //\n//   \n//      \n//      \n//      \n//      \n//      \n//      \n//      \n//      \n// \n// // // // // // // // // // // // // // // // // // // // // // // // // // // // // // // // // // // // // // // // // // // // // // // // // // // // // // // // // // // // //\n//                                                                                                                                                                                  //\n//      @dev            ::              stereoIII6.dao                                                                                                                                          //\n//      @msg            ::              type.stereo@pm.me                                                                                                                                    //\n//      @github         ::              @stereoIII6 \n//      @twitter        ::              @stereoIII6                                                                                                                                              //\n//                                                                                                                                                                                      //\n//      @dev            ::              willdera.eth                                                                                                                                          //\n//      @msg            ::                                                                                                                                                  //\n//      @github         ::              @willdera                                                                                                                                              //\n//                                                                                                                                                                                      //\n//      @author         ::              stereoIII6.dao                                                                                                                                          //\n//      msg             ::              type.stereo@pm.me                                                                                                                                    //\n//      @github         ::              @stereoIII6 \n//      @twitter        ::              @stereoIII6                                                                                                                                             //\n//                                                                                                                                                                                  //\n// // // // // // // // // // // // // // // // // // // // // // // // // // // // // // // // // // // // // // // // // // // // // // // // // // // // // // // // // // // // //\n//                                                                                                                                                                                  //\n// // // // // // // // // // // // // // // // // // // // // // // // // // // // // // // // // // // // // // // // // // // // // // // // // // // // // // // // // // // // //\n//                                                                                                                                                                                  //\n//                                                                                                                                                                                  //\n//      @title          ::              Affily8                                                                                                                                     //\n//      @description    ::              decentral affiliate system                                                                                                            //\n//      @version        ::              0.0.1                                                                                                                                       //\n//      @purpose        ::              Refer friennds on the blockchain                                                                                                            //\n//                                                                                                                                                                                  //\n//                                                                                                                                                                                  //\n//                                                                                                                                                                                  //\n//                                                                                                                                                                                  //\n//                                                                                                                                                                                  //\n// // // // // // // // // // // // // // // // // // // // // // // // // // // // // // // // // // // // // // // // // // // // // // // // // // // // // // // // // // // // //\n\n\npragma solidity ^0.8.0;\n// Open Zeppelin Imports\n// import \"@openzeppelin/contracts/token/ERC20/ERC20.sol\";\nimport \"@openzeppelin/contracts/token/ERC20/IERC20.sol\";\n\nimport \"@openzeppelin/contracts/token/ERC721/ERC721.sol\";\nimport \"@openzeppelin/contracts/token/ERC721/IERC721.sol\";\n\n// import \"@openzeppelin/contracts/token/ERC1155/ERC1155.sol\";\nimport \"@openzeppelin/contracts/token/ERC1155/IERC1155.sol\";\n\n// Chainlink Imports\n// import \"@chainlink/contracts/src/v0.8/VRFConsumerBase.sol\";\n// import \"./Nft_Project.sol\";\n\ncontract Init{\n    address public author = 0x1Cd6F4D329D38043a6bDB3665c3a7b06F79B5242;\n    address public avax = 0xa60bD1147c32ACDF9060baDBaa0f62f6Bfd19437;\n    mapping(address => uint256) public role;\n    mapping(address => bytes) public uData;\n    uint256 public maxSupply;\n    uint256 public availSupply;\n    uint256 rate;\n    uint256 percent;\n    uint256 digits = 1 * 10 ** 18;\n    IERC20 internal Token20;\n    IERC721 internal Token721;\n    IERC1155 internal Token1155;\n    IERC20 internal MLQ;\n    mapping(address => bool) public isUser;\n    event Log(uint256 indexed id, address sender, address home, uint256 num, bytes message, uint256 stamp);\n    event Wait(uint256 indexed id, address sender, address home, uint256 num, bytes message, uint256 stamp);\n    uint256 logs;\n    modifier isAdmin() {\n        require(role[msg.sender] == 99, \"you're not admin\");\n        _;\n    }\n    modifier isOwner() {\n        require(author == msg.sender || avax == msg.sender, \"you're not owner\");\n        _;\n    }\n    function getRole() external view returns(uint256){\n        return role[msg.sender];\n    }\n    function isUserBool() external view returns(bool){\n        return isUser[msg.sender];\n    }\n    function changeRole(address _to, uint256 _role) external isAdmin() returns(bool){\n        role[_to] = _role;\n        return true;\n    }\n    function makeU(string memory _data) external returns(bool){\n        isUser[msg.sender] = true;\n        role[msg.sender] = 1;\n        uData[msg.sender] = bytes(_data);\n        return true;\n    }\n    function showU() external view returns(string memory, uint256){\n        return(string(uData[msg.sender]),role[msg.sender]);\n    }\n    function withdrawToken(address _contract) external isAdmin() returns(bool){\n        Token20 = IERC20(_contract);  \n        Token20.transfer(msg.sender,Token20.balanceOf(address(this)));\n        return true;\n    }\n    function setMLQ(address _mlq) external returns(bool){\n        MLQ = IERC20(_mlq);\n        return true;\n    }\n    function divide(uint256 _a, uint256 _b) internal pure returns(uint256 res){\n        uint256 rem = _a % _b;\n        res = (_a - rem) / _b;\n    }\n    fallback() external{\n\n    }\n}\ncontract Affilly8 is Init{\n\n    constructor(){                                                                                  // feed with utility token address\n        require(msg.sender == author || msg.sender == avax);                                                                          // only author can build\n        role[msg.sender] = 99; \n        percent = 2;                                                                                 // make author admin\n        uData[msg.sender] = bytes('{\"username\":\"@stereoiii6\",\"email\":\"type.stereo@pm.me\"}');                    // set user data\n        isUser[msg.sender] = true;                                                                              // set is user true\n        emit Log(logs,msg.sender,address(this),999,bytes(\"contract created\"),block.timestamp);                  // log\n        logs++;                                                                                                 // iterate log                                                                                   // grab utility token \n    }                                                                        \n\n    struct Campaign { // NFT sale required fields\n        uint256 id;\n        bytes data;\n        address owner;\n        address tokenAddress;\n        uint256 tokenId;\n        uint256 price;\n        address payCurrency;\n        uint256 fee;\n        uint256 duration;\n    }\n\n    struct RefLinks{                                                                                            // Link Structs\n        uint256 id;                                                                                             // id\n        uint256 campaigId;                                                                                      // campaing reference id\n        address promoter;                                                                                       // fee reciever / promoter\n    }  \n    struct Transactions{\n        uint256 id;\n        uint256 rlid;\n        uint256 cid;\n        uint256 txdate;\n    }                                                                         \n    Campaign[] public campaigns;                                                                                // Campaign Mapping\n    RefLinks[] public links;                                                                                    // List Mapping\n    Transactions[] public txs;\n    mapping(address => uint256) internal myCampaignCount;                                                       // counts users campaigns\n    mapping(address => mapping(uint256 => Campaign)) public showCampaign;                                       // maps users campaigns\n    mapping(address => uint256) internal mylinkCount;                                                           // counts users links\n    mapping(address => mapping(uint256 => RefLinks)) public showLinks;                                          // maps users links\n    uint256 c;                                                                                                  // count campaigns\n    uint256 l;                                                                                                  // count links\n    uint256 t;                                                                                                  // count txs\n    modifier isU(){ // role 1\n        require(isUser[msg.sender] == true, \"you are not user\");\n        _;\n    }\n    modifier isProd(){ // role 2\n        require(role[msg.sender] == 2 || role[msg.sender] == 4 || role[msg.sender] == 99, \"you are not producer\");\n        _;\n    }\n    modifier isProm(){ // role 3\n        require(role[msg.sender] == 3 || role[msg.sender] == 4 || role[msg.sender] == 99, \"you are not promoter\");\n        _;\n    }\n    // both role 4 // admin role 99 \n    // become a producer \n    function getCampaignCount() external view returns(uint256){\n        return c;\n    }\n    function getLinkCount() external view returns(uint256){\n        return l;\n    }\n    function getTxCount() external view returns(uint256){\n        return t;\n    }\n    function getCampaignTokAdr(uint256 _cid) external view returns(address){\n        return campaigns[_cid].tokenAddress;\n    }\n    function beProducer() external isU() returns(bool){\n        require(role[msg.sender] != 2, \"you are producer\");\n        if(role[msg.sender] == 1) { role[msg.sender] = 2;}                                                      // if user is guest\n        if(role[msg.sender] == 3) { role[msg.sender] = 4;}                                                      // is user is promoter\n        emit Log(logs,msg.sender,address(this),999,bytes(\"became producer\"),block.timestamp);\n        logs++;\n        return true;\n    }\n    // become a promoter\n    function bePromoter() external isU() returns(bool){\n        require(role[msg.sender] != 3, \"you are promoter\");\n        if(role[msg.sender] == 1) { role[msg.sender] = 3;}                                                      // if user is guest \n        if(role[msg.sender] == 2) { role[msg.sender] = 4;}                                                      // if user is producer\n        emit Log(logs,msg.sender,address(this),999,bytes(\"became promoter\"),block.timestamp);\n        logs++;\n        return true;\n    }\n    // make a ref link\n    function makeLink(uint256 _cid) external isU() isProm() returns(bool){\n        links.push(RefLinks(l, _cid, msg.sender));                                                              // Push reflink to struct mapping\n        mylinkCount[msg.sender]++;                                                                              // iterate user link count\n        showLinks[msg.sender][l] = links[l];                                                                    // preserve links in mapping\n        emit Log(logs,msg.sender,address(this),l,bytes(\"link created\"),block.timestamp);                        // log \n        logs++;                                                                                                 // iterate log\n        l++;                                                                                                    // iterate link\n        return true;    \n    }   \n    // makes ref links for producers automatically  \n    function makeOwnLink(uint256 _cid) internal isU() returns(bool){    \n        links.push(RefLinks(l, _cid, msg.sender));                                                              // Push reflink to struct mapping\n        mylinkCount[msg.sender]++;                                                                              // iterate user link count\n        showLinks[msg.sender][l] = links[l];                                                                    // preserve links in mapping\n        emit Log(logs,msg.sender,address(this),l,bytes(\"link created\"),block.timestamp);                        // log \n        logs++;                                                                                                 // iterate log\n        l++;                                                                                                    // iterate link\n        return true;    \n    }   \n    // make a campaign  \n    function makeCampaign(  \n        uint256 _id,\n        string memory _data,\n        address _owner,\n        address _tokenAddress,\n        uint256 _tokenId,\n        uint256 _price,\n        address _payCurrency,\n        uint256 _fee,\n        uint256 _duration\n        )   \n        external payable isU() isProd() returns(bool){            \n                                                                                                                // transfer mlq to campaign safe\n        campaigns.push(                                                                                         // push campaign to mapping \n            Campaign( \n                 _id,\n                 bytes(_data),\n                 _owner,\n                 _tokenAddress,\n                 _tokenId,\n                 _price*digits,\n                 _payCurrency,\n                 _fee*digits,\n                 _duration*60*60  \n                )   \n            );  \n        myCampaignCount[msg.sender]++;                                                                          // iterate user campaign count\n        showCampaign[msg.sender][c] = campaigns[c];                                                             // preserve user campaign in mapping\n        emit Log(logs,msg.sender,address(this),c,bytes(\". campaign created\"),block.timestamp);                  // log\n        logs++;                                                                                                 // iterate logs\n        makeOwnLink(c);                                                                                         // create ref link for producer                                                                                                  // iterate item mapping\n        c++;                                                                                                    // iterate campaign mapping\n        return true;    \n    }\n    function approveCampaign(uint256 _rlid) external returns(bool){\n        Campaign memory camp = campaigns[links[_rlid].campaigId]; \n        if(msg.sender == camp.owner){\n        Token721 = IERC721(camp.tokenAddress);\n        require(Token721.balanceOf(msg.sender) >= 0, \"not an owner\");\n        Token721.setApprovalForAll(address(this),true);\n        Token721.approve(address(this),camp.tokenId);\n        emit Log(logs,msg.sender,address(this),camp.tokenId,bytes(\". nft approval\"),block.timestamp);\n        return true;\n        }\n        else return false;\n    } \n    function approveFunds(uint256 _rlid) external returns(bool){\n        Campaign memory camp = campaigns[links[_rlid].campaigId]; \n        if(msg.sender !=  links[_rlid].promoter){\n            if(camp.payCurrency != 0x0000000000000000000000000000000000000000){\n                Token20 = IERC20(camp.payCurrency);\n                Token20.approve(address(this),camp.price);\n                emit Log(logs,msg.sender,address(this),camp.tokenId,bytes(\". token approval\"),block.timestamp);\n            return true;\n            }\n        }\n        else return false;\n    }  \n    // finalize a tx    \n    function finalize(uint _rlid) external payable returns(bool){   \n        uint256 cid = links[_rlid].campaigId;                                                                   // grab campaign id\n        address prom = links[_rlid].promoter;  \n        Campaign memory camp = campaigns[cid];                                                                  // grab link promoter\n        uint256 cfee = (100 / camp.price * percent);                                                                    // grab pay value (price - fee)\n        uint256 pay = (100 / camp.price * (100 - percent)) - camp.fee; \n        Token721 = IERC721(camp.tokenAddress);\n        if(camp.payCurrency != 0x0000000000000000000000000000000000000000) {\n            Token20 = IERC20(camp.payCurrency);\n            require(Token20.balanceOf(msg.sender) >= camp.price);\n            Token20.transferFrom(msg.sender, camp.owner, pay);              // pay the nft\n            Token721.transferFrom(camp.owner, msg.sender, camp.tokenId);    // send the nft\n            Token20.transferFrom(msg.sender, prom, camp.fee);               // pay the promoter\n            Token20.transferFrom(msg.sender, address(this), cfee);          // pay the contract\n            }\n        else {\n            require(msg.value >= camp.price);\n            payable(camp.owner).transfer(pay);                              // pay nft\n            Token721.transferFrom(camp.owner, msg.sender, camp.tokenId);    // send the nft\n            payable(prom).transfer(camp.fee);                               // pay the promoter\n            payable(address(this)).transfer(cfee);                          // pay the contract\n        }\n        txs.push(Transactions(t, _rlid, cid, block.timestamp));\n        emit Log(logs,msg.sender,address(this),_rlid,bytes(\"link tx failed\"),block.timestamp); \n        t++;                 // log\n        logs++;                                                                                                 // iterate log\n        return true;\n    }\n    function withdraw(uint256 _eth, uint256 _mlq) isAdmin() external returns(bool){\n        require(_mlq * 10 ** 18 <= MLQ.balanceOf(address(this)));\n        require(_eth * 10 ** 18 <= address(this).balance);\n        MLQ.transfer(payable(msg.sender), _mlq * 10 ** 18);\n        payable(msg.sender).transfer(_eth * 10 ** 18);\n        return true;\n    }\n}",
  "sourcePath": "/Users/jediswag/Documents/GitHub/affilly8/contracts/Afillly8.sol",
  "compiler": {
    "name": "solc",
    "version": "0.8.14+commit.80d49f37.Emscripten.clang"
  },
  "schemaVersion": "3.4.4",
  "updatedAt": "2022-05-26T09:54:10.033Z",
  "networkType": "ethereum",
  "devdoc": {
    "kind": "dev",
    "methods": {},
    "version": 1
  },
  "userdoc": {
    "kind": "user",
    "methods": {},
    "version": 1
  }
}