{
  "contractName": "Affilly8",
  "abi": [
    {
      "inputs": [],
      "stateMutability": "nonpayable",
      "type": "constructor"
    },
    {
      "anonymous": false,
      "inputs": [
        {
          "indexed": true,
          "internalType": "uint256",
          "name": "id",
          "type": "uint256"
        },
        {
          "indexed": false,
          "internalType": "address",
          "name": "sender",
          "type": "address"
        },
        {
          "indexed": false,
          "internalType": "address",
          "name": "home",
          "type": "address"
        },
        {
          "indexed": false,
          "internalType": "uint256",
          "name": "num",
          "type": "uint256"
        },
        {
          "indexed": false,
          "internalType": "bytes",
          "name": "message",
          "type": "bytes"
        },
        {
          "indexed": false,
          "internalType": "uint256",
          "name": "stamp",
          "type": "uint256"
        }
      ],
      "name": "Log",
      "type": "event"
    },
    {
      "anonymous": false,
      "inputs": [
        {
          "indexed": true,
          "internalType": "uint256",
          "name": "id",
          "type": "uint256"
        },
        {
          "indexed": false,
          "internalType": "address",
          "name": "sender",
          "type": "address"
        },
        {
          "indexed": false,
          "internalType": "address",
          "name": "home",
          "type": "address"
        },
        {
          "indexed": false,
          "internalType": "uint256",
          "name": "num",
          "type": "uint256"
        },
        {
          "indexed": false,
          "internalType": "bytes",
          "name": "message",
          "type": "bytes"
        },
        {
          "indexed": false,
          "internalType": "uint256",
          "name": "stamp",
          "type": "uint256"
        }
      ],
      "name": "Wait",
      "type": "event"
    },
    {
      "stateMutability": "nonpayable",
      "type": "fallback"
    },
    {
      "inputs": [],
      "name": "author",
      "outputs": [
        {
          "internalType": "address",
          "name": "",
          "type": "address"
        }
      ],
      "stateMutability": "view",
      "type": "function"
    },
    {
      "inputs": [],
      "name": "availSupply",
      "outputs": [
        {
          "internalType": "uint256",
          "name": "",
          "type": "uint256"
        }
      ],
      "stateMutability": "view",
      "type": "function"
    },
    {
      "inputs": [
        {
          "internalType": "uint256",
          "name": "",
          "type": "uint256"
        }
      ],
      "name": "campaigns",
      "outputs": [
        {
          "internalType": "uint256",
          "name": "id",
          "type": "uint256"
        },
        {
          "internalType": "bytes",
          "name": "data",
          "type": "bytes"
        },
        {
          "internalType": "address",
          "name": "owner",
          "type": "address"
        },
        {
          "internalType": "address",
          "name": "tokenAddress",
          "type": "address"
        },
        {
          "internalType": "uint256",
          "name": "tokenId",
          "type": "uint256"
        },
        {
          "internalType": "uint256",
          "name": "price",
          "type": "uint256"
        },
        {
          "internalType": "address",
          "name": "payCurrency",
          "type": "address"
        },
        {
          "internalType": "uint256",
          "name": "fee",
          "type": "uint256"
        },
        {
          "internalType": "uint256",
          "name": "duration",
          "type": "uint256"
        }
      ],
      "stateMutability": "view",
      "type": "function"
    },
    {
      "inputs": [
        {
          "internalType": "address",
          "name": "_to",
          "type": "address"
        },
        {
          "internalType": "uint256",
          "name": "_role",
          "type": "uint256"
        }
      ],
      "name": "changeRole",
      "outputs": [
        {
          "internalType": "bool",
          "name": "",
          "type": "bool"
        }
      ],
      "stateMutability": "nonpayable",
      "type": "function"
    },
    {
      "inputs": [
        {
          "internalType": "address",
          "name": "",
          "type": "address"
        }
      ],
      "name": "isUser",
      "outputs": [
        {
          "internalType": "bool",
          "name": "",
          "type": "bool"
        }
      ],
      "stateMutability": "view",
      "type": "function"
    },
    {
      "inputs": [
        {
          "internalType": "uint256",
          "name": "",
          "type": "uint256"
        }
      ],
      "name": "links",
      "outputs": [
        {
          "internalType": "uint256",
          "name": "id",
          "type": "uint256"
        },
        {
          "internalType": "uint256",
          "name": "campaigId",
          "type": "uint256"
        },
        {
          "internalType": "address",
          "name": "promoter",
          "type": "address"
        }
      ],
      "stateMutability": "view",
      "type": "function"
    },
    {
      "inputs": [
        {
          "internalType": "string",
          "name": "_data",
          "type": "string"
        }
      ],
      "name": "makeU",
      "outputs": [
        {
          "internalType": "bool",
          "name": "",
          "type": "bool"
        }
      ],
      "stateMutability": "nonpayable",
      "type": "function"
    },
    {
      "inputs": [],
      "name": "maxSupply",
      "outputs": [
        {
          "internalType": "uint256",
          "name": "",
          "type": "uint256"
        }
      ],
      "stateMutability": "view",
      "type": "function"
    },
    {
      "inputs": [
        {
          "internalType": "address",
          "name": "",
          "type": "address"
        }
      ],
      "name": "role",
      "outputs": [
        {
          "internalType": "uint256",
          "name": "",
          "type": "uint256"
        }
      ],
      "stateMutability": "view",
      "type": "function"
    },
    {
      "inputs": [
        {
          "internalType": "address",
          "name": "",
          "type": "address"
        },
        {
          "internalType": "uint256",
          "name": "",
          "type": "uint256"
        }
      ],
      "name": "showCampaign",
      "outputs": [
        {
          "internalType": "uint256",
          "name": "id",
          "type": "uint256"
        },
        {
          "internalType": "bytes",
          "name": "data",
          "type": "bytes"
        },
        {
          "internalType": "address",
          "name": "owner",
          "type": "address"
        },
        {
          "internalType": "address",
          "name": "tokenAddress",
          "type": "address"
        },
        {
          "internalType": "uint256",
          "name": "tokenId",
          "type": "uint256"
        },
        {
          "internalType": "uint256",
          "name": "price",
          "type": "uint256"
        },
        {
          "internalType": "address",
          "name": "payCurrency",
          "type": "address"
        },
        {
          "internalType": "uint256",
          "name": "fee",
          "type": "uint256"
        },
        {
          "internalType": "uint256",
          "name": "duration",
          "type": "uint256"
        }
      ],
      "stateMutability": "view",
      "type": "function"
    },
    {
      "inputs": [
        {
          "internalType": "address",
          "name": "",
          "type": "address"
        },
        {
          "internalType": "uint256",
          "name": "",
          "type": "uint256"
        }
      ],
      "name": "showLinks",
      "outputs": [
        {
          "internalType": "uint256",
          "name": "id",
          "type": "uint256"
        },
        {
          "internalType": "uint256",
          "name": "campaigId",
          "type": "uint256"
        },
        {
          "internalType": "address",
          "name": "promoter",
          "type": "address"
        }
      ],
      "stateMutability": "view",
      "type": "function"
    },
    {
      "inputs": [],
      "name": "showU",
      "outputs": [
        {
          "internalType": "string",
          "name": "",
          "type": "string"
        },
        {
          "internalType": "uint256",
          "name": "",
          "type": "uint256"
        }
      ],
      "stateMutability": "view",
      "type": "function"
    },
    {
      "inputs": [
        {
          "internalType": "address",
          "name": "",
          "type": "address"
        }
      ],
      "name": "uData",
      "outputs": [
        {
          "internalType": "bytes",
          "name": "",
          "type": "bytes"
        }
      ],
      "stateMutability": "view",
      "type": "function"
    },
    {
      "inputs": [
        {
          "internalType": "address",
          "name": "_contract",
          "type": "address"
        }
      ],
      "name": "withdrawToken",
      "outputs": [
        {
          "internalType": "bool",
          "name": "",
          "type": "bool"
        }
      ],
      "stateMutability": "nonpayable",
      "type": "function"
    },
    {
      "inputs": [],
      "name": "getCount",
      "outputs": [
        {
          "internalType": "uint256",
          "name": "",
          "type": "uint256"
        }
      ],
      "stateMutability": "view",
      "type": "function"
    },
    {
      "inputs": [],
      "name": "beProducer",
      "outputs": [
        {
          "internalType": "bool",
          "name": "",
          "type": "bool"
        }
      ],
      "stateMutability": "nonpayable",
      "type": "function"
    },
    {
      "inputs": [],
      "name": "bePromoter",
      "outputs": [
        {
          "internalType": "bool",
          "name": "",
          "type": "bool"
        }
      ],
      "stateMutability": "nonpayable",
      "type": "function"
    },
    {
      "inputs": [
        {
          "internalType": "uint256",
          "name": "_cid",
          "type": "uint256"
        }
      ],
      "name": "makeLink",
      "outputs": [
        {
          "internalType": "bool",
          "name": "",
          "type": "bool"
        }
      ],
      "stateMutability": "nonpayable",
      "type": "function"
    },
    {
      "inputs": [
        {
          "internalType": "uint256",
          "name": "_id",
          "type": "uint256"
        },
        {
          "internalType": "string",
          "name": "_data",
          "type": "string"
        },
        {
          "internalType": "address",
          "name": "_owner",
          "type": "address"
        },
        {
          "internalType": "address",
          "name": "_tokenAddress",
          "type": "address"
        },
        {
          "internalType": "uint256",
          "name": "_tokenId",
          "type": "uint256"
        },
        {
          "internalType": "uint256",
          "name": "_price",
          "type": "uint256"
        },
        {
          "internalType": "address",
          "name": "_payCurrency",
          "type": "address"
        },
        {
          "internalType": "uint256",
          "name": "_fee",
          "type": "uint256"
        },
        {
          "internalType": "uint256",
          "name": "_duration",
          "type": "uint256"
        }
      ],
      "name": "makeCampaign",
      "outputs": [
        {
          "internalType": "bool",
          "name": "",
          "type": "bool"
        }
      ],
      "stateMutability": "payable",
      "type": "function"
    },
    {
      "inputs": [
        {
          "internalType": "uint256",
          "name": "_cid",
          "type": "uint256"
        }
      ],
      "name": "approveCampaign",
      "outputs": [
        {
          "internalType": "bool",
          "name": "",
          "type": "bool"
        }
      ],
      "stateMutability": "nonpayable",
      "type": "function"
    },
    {
      "inputs": [
        {
          "internalType": "uint256",
          "name": "_rlid",
          "type": "uint256"
        }
      ],
      "name": "finalize",
      "outputs": [
        {
          "internalType": "bool",
          "name": "",
          "type": "bool"
        }
      ],
      "stateMutability": "payable",
      "type": "function"
    }
  ],
  "bytecode": "0x6080604052731cd6f4d329d38043a6bdb3665c3a7b06f79b52426000806101000a81548173ffffffffffffffffffffffffffffffffffffffff021916908373ffffffffffffffffffffffffffffffffffffffff160217905550670de0b6b3a76400006007553480156200007157600080fd5b5060008054906101000a900473ffffffffffffffffffffffffffffffffffffffff1673ffffffffffffffffffffffffffffffffffffffff163373ffffffffffffffffffffffffffffffffffffffff1614620000cb57600080fd5b6063600160003373ffffffffffffffffffffffffffffffffffffffff1673ffffffffffffffffffffffffffffffffffffffff168152602001908152602001600020819055506002600681905550604051806060016040528060368152602001620043ec60369139600260003373ffffffffffffffffffffffffffffffffffffffff1673ffffffffffffffffffffffffffffffffffffffff1681526020019081526020016000209080519060200190620001869291906200027a565b506001600c60003373ffffffffffffffffffffffffffffffffffffffff1673ffffffffffffffffffffffffffffffffffffffff16815260200190815260200160002060006101000a81548160ff021916908315150217905550600d547f5c155e8f37136295b53ae72fb3c0f568542d008fa91b541061b2d58d80d2657f33306103e76040518060400160405280601081526020017f636f6e747261637420637265617465640000000000000000000000000000000081525042604051620002529594939291906200047b565b60405180910390a2600d60008154809291906200026f906200050e565b9190505550620005bf565b82805462000288906200058a565b90600052602060002090601f016020900481019282620002ac5760008555620002f8565b82601f10620002c757805160ff1916838001178555620002f8565b82800160010185558215620002f8579182015b82811115620002f7578251825591602001919060010190620002da565b5b5090506200030791906200030b565b5090565b5b80821115620003265760008160009055506001016200030c565b5090565b600073ffffffffffffffffffffffffffffffffffffffff82169050919050565b600062000357826200032a565b9050919050565b62000369816200034a565b82525050565b6000819050919050565b6000819050919050565b6000819050919050565b6000620003ae620003a8620003a2846200036f565b62000383565b62000379565b9050919050565b620003c0816200038d565b82525050565b600081519050919050565b600082825260208201905092915050565b60005b8381101562000402578082015181840152602081019050620003e5565b8381111562000412576000848401525b50505050565b6000601f19601f8301169050919050565b60006200043682620003c6565b620004428185620003d1565b935062000454818560208601620003e2565b6200045f8162000418565b840191505092915050565b620004758162000379565b82525050565b600060a0820190506200049260008301886200035e565b620004a160208301876200035e565b620004b06040830186620003b5565b8181036060830152620004c4818562000429565b9050620004d560808301846200046a565b9695505050505050565b7f4e487b7100000000000000000000000000000000000000000000000000000000600052601160045260246000fd5b60006200051b8262000379565b91507fffffffffffffffffffffffffffffffffffffffffffffffffffffffffffffffff820362000550576200054f620004df565b5b600182019050919050565b7f4e487b7100000000000000000000000000000000000000000000000000000000600052602260045260246000fd5b60006002820490506001821680620005a357607f821691505b602082108103620005b957620005b86200055b565b5b50919050565b613e1d80620005cf6000396000f3fe60806040526004361061012e5760003560e01c806389476069116100ab578063c96f6ca91161006f578063c96f6ca914610462578063d09e747f14610492578063d590f8c9146104d7578063d5abeb0114610514578063ea319b881461053f578063ee4e1b531461057e5761012f565b806389476069146103675780639f5215dd146103a4578063a6c3e6b9146103cf578063a87d942c146103fa578063b7187e35146104255761012f565b80632a1e5ef3116100f25780632a1e5ef3146102585780632e3606ad146102835780634209fff1146102ae5780636d65d97b146102eb578063881d8a40146103285761012f565b806305261aea1461013d5780630acfd58e1461016d578063141961bc146101aa578063268b5227146101ef578063274daa351461022c5761012f565b5b34801561013b57600080fd5b005b6101576004803603810190610152919061315d565b6105bb565b60405161016491906131a5565b60405180910390f35b34801561017957600080fd5b50610194600480360381019061018f919061321e565b610ea9565b6040516101a191906131a5565b60405180910390f35b3480156101b657600080fd5b506101d160048036038101906101cc919061315d565b610f7b565b6040516101e699989796959493929190613315565b60405180910390f35b3480156101fb57600080fd5b50610216600480360381019061021191906134de565b6110c1565b60405161022391906131a5565b60405180910390f35b34801561023857600080fd5b506102416111bc565b60405161024f92919061357c565b60405180910390f35b34801561026457600080fd5b5061026d6112d3565b60405161027a91906131a5565b60405180910390f35b34801561028f57600080fd5b5061029861159b565b6040516102a591906131a5565b60405180910390f35b3480156102ba57600080fd5b506102d560048036038101906102d091906135ac565b611863565b6040516102e291906131a5565b60405180910390f35b3480156102f757600080fd5b50610312600480360381019061030d919061315d565b611883565b60405161031f91906131a5565b60405180910390f35b34801561033457600080fd5b5061034f600480360381019061034a919061315d565b611ce4565b60405161035e939291906135d9565b60405180910390f35b34801561037357600080fd5b5061038e600480360381019061038991906135ac565b611d3e565b60405161039b91906131a5565b60405180910390f35b3480156103b057600080fd5b506103b9611f68565b6040516103c69190613610565b60405180910390f35b3480156103db57600080fd5b506103e4611f6e565b6040516103f1919061362b565b60405180910390f35b34801561040657600080fd5b5061040f611f92565b60405161041c9190613610565b60405180910390f35b34801561043157600080fd5b5061044c600480360381019061044791906135ac565b611f9c565b6040516104599190613646565b60405180910390f35b61047c60048036038101906104779190613668565b61203c565b60405161048991906131a5565b60405180910390f35b34801561049e57600080fd5b506104b960048036038101906104b4919061321e565b61271e565b6040516104ce99989796959493929190613315565b60405180910390f35b3480156104e357600080fd5b506104fe60048036038101906104f991906135ac565b612861565b60405161050b9190613610565b60405180910390f35b34801561052057600080fd5b50610529612879565b6040516105369190613610565b60405180910390f35b34801561054b57600080fd5b506105666004803603810190610561919061321e565b61287f565b604051610575939291906135d9565b60405180910390f35b34801561058a57600080fd5b506105a560048036038101906105a0919061315d565b6128d6565b6040516105b291906131a5565b60405180910390f35b600080600f83815481106105d2576105d161374e565b5b90600052602060002090600302016001015490506000600f84815481106105fc576105fb61374e565b5b906000526020600020906003020160020160009054906101000a900473ffffffffffffffffffffffffffffffffffffffff1690506000600e83815481106106465761064561374e565b5b9060005260206000209060090201604051806101200160405290816000820154815260200160018201805461067a906137ac565b80601f01602080910402602001604051908101604052809291908181526020018280546106a6906137ac565b80156106f35780601f106106c8576101008083540402835291602001916106f3565b820191906000526020600020905b8154815290600101906020018083116106d657829003601f168201915b505050505081526020016002820160009054906101000a900473ffffffffffffffffffffffffffffffffffffffff1673ffffffffffffffffffffffffffffffffffffffff1673ffffffffffffffffffffffffffffffffffffffff1681526020016003820160009054906101000a900473ffffffffffffffffffffffffffffffffffffffff1673ffffffffffffffffffffffffffffffffffffffff1673ffffffffffffffffffffffffffffffffffffffff16815260200160048201548152602001600582015481526020016006820160009054906101000a900473ffffffffffffffffffffffffffffffffffffffff1673ffffffffffffffffffffffffffffffffffffffff1673ffffffffffffffffffffffffffffffffffffffff16815260200160078201548152602001600882015481525050905060006006548260a00151606461083e919061383b565b610848919061386c565b905060008260e00151600654606461086091906138c6565b8460a001516064610871919061383b565b61087b919061386c565b61088591906138c6565b90508260600151600960006101000a81548173ffffffffffffffffffffffffffffffffffffffff021916908373ffffffffffffffffffffffffffffffffffffffff160217905550600073ffffffffffffffffffffffffffffffffffffffff168360c0015173ffffffffffffffffffffffffffffffffffffffff1614610c84578260c00151600860006101000a81548173ffffffffffffffffffffffffffffffffffffffff021916908373ffffffffffffffffffffffffffffffffffffffff1602179055508260a00151600860009054906101000a900473ffffffffffffffffffffffffffffffffffffffff1673ffffffffffffffffffffffffffffffffffffffff166370a08231336040518263ffffffff1660e01b81526004016109a9919061362b565b602060405180830381865afa1580156109c6573d6000803e3d6000fd5b505050506040513d601f19601f820116820180604052508101906109ea919061390f565b10156109f557600080fd5b600860009054906101000a900473ffffffffffffffffffffffffffffffffffffffff1673ffffffffffffffffffffffffffffffffffffffff166323b872dd338560400151846040518463ffffffff1660e01b8152600401610a589392919061393c565b6020604051808303816000875af1158015610a77573d6000803e3d6000fd5b505050506040513d601f19601f82011682018060405250810190610a9b919061399f565b50600960009054906101000a900473ffffffffffffffffffffffffffffffffffffffff1673ffffffffffffffffffffffffffffffffffffffff166323b872dd84604001513386608001516040518463ffffffff1660e01b8152600401610b039392919061393c565b600060405180830381600087803b158015610b1d57600080fd5b505af1158015610b31573d6000803e3d6000fd5b50505050600860009054906101000a900473ffffffffffffffffffffffffffffffffffffffff1673ffffffffffffffffffffffffffffffffffffffff166323b872dd33868660e001516040518463ffffffff1660e01b8152600401610b989392919061393c565b6020604051808303816000875af1158015610bb7573d6000803e3d6000fd5b505050506040513d601f19601f82011682018060405250810190610bdb919061399f565b50600860009054906101000a900473ffffffffffffffffffffffffffffffffffffffff1673ffffffffffffffffffffffffffffffffffffffff166323b872dd3330856040518463ffffffff1660e01b8152600401610c3b9392919061393c565b6020604051808303816000875af1158015610c5a573d6000803e3d6000fd5b505050506040513d601f19601f82011682018060405250810190610c7e919061399f565b50610e0c565b8260a00151341015610c9557600080fd5b826040015173ffffffffffffffffffffffffffffffffffffffff166108fc829081150290604051600060405180830381858888f19350505050158015610cdf573d6000803e3d6000fd5b50600960009054906101000a900473ffffffffffffffffffffffffffffffffffffffff1673ffffffffffffffffffffffffffffffffffffffff166323b872dd84604001513386608001516040518463ffffffff1660e01b8152600401610d479392919061393c565b600060405180830381600087803b158015610d6157600080fd5b505af1158015610d75573d6000803e3d6000fd5b505050508373ffffffffffffffffffffffffffffffffffffffff166108fc8460e001519081150290604051600060405180830381858888f19350505050158015610dc3573d6000803e3d6000fd5b503073ffffffffffffffffffffffffffffffffffffffff166108fc839081150290604051600060405180830381858888f19350505050158015610e0a573d6000803e3d6000fd5b505b600d547f5c155e8f37136295b53ae72fb3c0f568542d008fa91b541061b2d58d80d2657f33308a6040518060400160405280600e81526020017f6c696e6b207478206661696c656400000000000000000000000000000000000081525042604051610e7b9594939291906139cc565b60405180910390a2600d6000815480929190610e9690613a26565b9190505550600195505050505050919050565b60006063600160003373ffffffffffffffffffffffffffffffffffffffff1673ffffffffffffffffffffffffffffffffffffffff1681526020019081526020016000205414610f2d576040517f08c379a0000000000000000000000000000000000000000000000000000000008152600401610f2490613aba565b60405180910390fd5b81600160008573ffffffffffffffffffffffffffffffffffffffff1673ffffffffffffffffffffffffffffffffffffffff168152602001908152602001600020819055506001905092915050565b600e8181548110610f8b57600080fd5b9060005260206000209060090201600091509050806000015490806001018054610fb4906137ac565b80601f0160208091040260200160405190810160405280929190818152602001828054610fe0906137ac565b801561102d5780601f106110025761010080835404028352916020019161102d565b820191906000526020600020905b81548152906001019060200180831161101057829003601f168201915b5050505050908060020160009054906101000a900473ffffffffffffffffffffffffffffffffffffffff16908060030160009054906101000a900473ffffffffffffffffffffffffffffffffffffffff16908060040154908060050154908060060160009054906101000a900473ffffffffffffffffffffffffffffffffffffffff16908060070154908060080154905089565b60006001600c60003373ffffffffffffffffffffffffffffffffffffffff1673ffffffffffffffffffffffffffffffffffffffff16815260200190815260200160002060006101000a81548160ff02191690831515021790555060018060003373ffffffffffffffffffffffffffffffffffffffff1673ffffffffffffffffffffffffffffffffffffffff1681526020019081526020016000208190555081600260003373ffffffffffffffffffffffffffffffffffffffff1673ffffffffffffffffffffffffffffffffffffffff16815260200190815260200160002090805190602001906111b2929190612fe3565b5060019050919050565b60606000600260003373ffffffffffffffffffffffffffffffffffffffff1673ffffffffffffffffffffffffffffffffffffffff168152602001908152602001600020600160003373ffffffffffffffffffffffffffffffffffffffff1673ffffffffffffffffffffffffffffffffffffffff1681526020019081526020016000205481805461124b906137ac565b80601f0160208091040260200160405190810160405280929190818152602001828054611277906137ac565b80156112c45780601f10611299576101008083540402835291602001916112c4565b820191906000526020600020905b8154815290600101906020018083116112a757829003601f168201915b50505050509150915091509091565b600060011515600c60003373ffffffffffffffffffffffffffffffffffffffff1673ffffffffffffffffffffffffffffffffffffffff16815260200190815260200160002060009054906101000a900460ff16151514611368576040517f08c379a000000000000000000000000000000000000000000000000000000000815260040161135f90613b26565b60405180910390fd5b6003600160003373ffffffffffffffffffffffffffffffffffffffff1673ffffffffffffffffffffffffffffffffffffffff16815260200190815260200160002054036113ea576040517f08c379a00000000000000000000000000000000000000000000000000000000081526004016113e190613b92565b60405180910390fd5b60018060003373ffffffffffffffffffffffffffffffffffffffff1673ffffffffffffffffffffffffffffffffffffffff1681526020019081526020016000205403611476576003600160003373ffffffffffffffffffffffffffffffffffffffff1673ffffffffffffffffffffffffffffffffffffffff168152602001908152602001600020819055505b6002600160003373ffffffffffffffffffffffffffffffffffffffff1673ffffffffffffffffffffffffffffffffffffffff1681526020019081526020016000205403611503576004600160003373ffffffffffffffffffffffffffffffffffffffff1673ffffffffffffffffffffffffffffffffffffffff168152602001908152602001600020819055505b600d547f5c155e8f37136295b53ae72fb3c0f568542d008fa91b541061b2d58d80d2657f33306103e76040518060400160405280600f81526020017f626563616d652070726f6d6f746572000000000000000000000000000000000081525042604051611574959493929190613bf7565b60405180910390a2600d600081548092919061158f90613a26565b91905055506001905090565b600060011515600c60003373ffffffffffffffffffffffffffffffffffffffff1673ffffffffffffffffffffffffffffffffffffffff16815260200190815260200160002060009054906101000a900460ff16151514611630576040517f08c379a000000000000000000000000000000000000000000000000000000000815260040161162790613b26565b60405180910390fd5b6002600160003373ffffffffffffffffffffffffffffffffffffffff1673ffffffffffffffffffffffffffffffffffffffff16815260200190815260200160002054036116b2576040517f08c379a00000000000000000000000000000000000000000000000000000000081526004016116a990613c9d565b60405180910390fd5b60018060003373ffffffffffffffffffffffffffffffffffffffff1673ffffffffffffffffffffffffffffffffffffffff168152602001908152602001600020540361173e576002600160003373ffffffffffffffffffffffffffffffffffffffff1673ffffffffffffffffffffffffffffffffffffffff168152602001908152602001600020819055505b6003600160003373ffffffffffffffffffffffffffffffffffffffff1673ffffffffffffffffffffffffffffffffffffffff16815260200190815260200160002054036117cb576004600160003373ffffffffffffffffffffffffffffffffffffffff1673ffffffffffffffffffffffffffffffffffffffff168152602001908152602001600020819055505b600d547f5c155e8f37136295b53ae72fb3c0f568542d008fa91b541061b2d58d80d2657f33306103e76040518060400160405280600f81526020017f626563616d652070726f647563657200000000000000000000000000000000008152504260405161183c959493929190613bf7565b60405180910390a2600d600081548092919061185790613a26565b91905055506001905090565b600c6020528060005260406000206000915054906101000a900460ff1681565b600060011515600c60003373ffffffffffffffffffffffffffffffffffffffff1673ffffffffffffffffffffffffffffffffffffffff16815260200190815260200160002060009054906101000a900460ff16151514611918576040517f08c379a000000000000000000000000000000000000000000000000000000000815260040161190f90613b26565b60405180910390fd5b6002600160003373ffffffffffffffffffffffffffffffffffffffff1673ffffffffffffffffffffffffffffffffffffffff1681526020019081526020016000205414806119a557506003600160003373ffffffffffffffffffffffffffffffffffffffff1673ffffffffffffffffffffffffffffffffffffffff16815260200190815260200160002054145b806119ef57506063600160003373ffffffffffffffffffffffffffffffffffffffff1673ffffffffffffffffffffffffffffffffffffffff16815260200190815260200160002054145b611a2e576040517f08c379a0000000000000000000000000000000000000000000000000000000008152600401611a2590613d09565b60405180910390fd5b600f604051806060016040528060155481526020018481526020013373ffffffffffffffffffffffffffffffffffffffff168152509080600181540180825580915050600190039060005260206000209060030201600090919091909150600082015181600001556020820151816001015560408201518160020160006101000a81548173ffffffffffffffffffffffffffffffffffffffff021916908373ffffffffffffffffffffffffffffffffffffffff1602179055505050601260003373ffffffffffffffffffffffffffffffffffffffff1673ffffffffffffffffffffffffffffffffffffffff1681526020019081526020016000206000815480929190611b3990613a26565b9190505550600f60155481548110611b5457611b5361374e565b5b9060005260206000209060030201601360003373ffffffffffffffffffffffffffffffffffffffff1673ffffffffffffffffffffffffffffffffffffffff1681526020019081526020016000206000601554815260200190815260200160002060008201548160000155600182015481600101556002820160009054906101000a900473ffffffffffffffffffffffffffffffffffffffff168160020160006101000a81548173ffffffffffffffffffffffffffffffffffffffff021916908373ffffffffffffffffffffffffffffffffffffffff160217905550905050600d547f5c155e8f37136295b53ae72fb3c0f568542d008fa91b541061b2d58d80d2657f33306015546040518060400160405280600c81526020017f6c696e6b2063726561746564000000000000000000000000000000000000000081525042604051611ca39594939291906139cc565b60405180910390a2600d6000815480929190611cbe90613a26565b919050555060156000815480929190611cd690613a26565b919050555060019050919050565b600f8181548110611cf457600080fd5b90600052602060002090600302016000915090508060000154908060010154908060020160009054906101000a900473ffffffffffffffffffffffffffffffffffffffff16905083565b60006063600160003373ffffffffffffffffffffffffffffffffffffffff1673ffffffffffffffffffffffffffffffffffffffff1681526020019081526020016000205414611dc2576040517f08c379a0000000000000000000000000000000000000000000000000000000008152600401611db990613aba565b60405180910390fd5b81600860006101000a81548173ffffffffffffffffffffffffffffffffffffffff021916908373ffffffffffffffffffffffffffffffffffffffff160217905550600860009054906101000a900473ffffffffffffffffffffffffffffffffffffffff1673ffffffffffffffffffffffffffffffffffffffff1663a9059cbb60008054906101000a900473ffffffffffffffffffffffffffffffffffffffff16600860009054906101000a900473ffffffffffffffffffffffffffffffffffffffff1673ffffffffffffffffffffffffffffffffffffffff166370a08231306040518263ffffffff1660e01b8152600401611ebd919061362b565b602060405180830381865afa158015611eda573d6000803e3d6000fd5b505050506040513d601f19601f82011682018060405250810190611efe919061390f565b6040518363ffffffff1660e01b8152600401611f1b929190613d29565b6020604051808303816000875af1158015611f3a573d6000803e3d6000fd5b505050506040513d601f19601f82011682018060405250810190611f5e919061399f565b5060019050919050565b60045481565b60008054906101000a900473ffffffffffffffffffffffffffffffffffffffff1681565b6000601454905090565b60026020528060005260406000206000915090508054611fbb906137ac565b80601f0160208091040260200160405190810160405280929190818152602001828054611fe7906137ac565b80156120345780601f1061200957610100808354040283529160200191612034565b820191906000526020600020905b81548152906001019060200180831161201757829003601f168201915b505050505081565b600060011515600c60003373ffffffffffffffffffffffffffffffffffffffff1673ffffffffffffffffffffffffffffffffffffffff16815260200190815260200160002060009054906101000a900460ff161515146120d1576040517f08c379a00000000000000000000000000000000000000000000000000000000081526004016120c890613b26565b60405180910390fd5b60018060003373ffffffffffffffffffffffffffffffffffffffff1673ffffffffffffffffffffffffffffffffffffffff16815260200190815260200160002054148061215d57506003600160003373ffffffffffffffffffffffffffffffffffffffff1673ffffffffffffffffffffffffffffffffffffffff16815260200190815260200160002054145b806121a757506063600160003373ffffffffffffffffffffffffffffffffffffffff1673ffffffffffffffffffffffffffffffffffffffff16815260200190815260200160002054145b6121e6576040517f08c379a00000000000000000000000000000000000000000000000000000000081526004016121dd90613d9e565b60405180910390fd5b600e6040518061012001604052808c81526020018b81526020018a73ffffffffffffffffffffffffffffffffffffffff1681526020018973ffffffffffffffffffffffffffffffffffffffff1681526020018881526020016007548861224c919061386c565b81526020018673ffffffffffffffffffffffffffffffffffffffff1681526020016007548661227b919061386c565b8152602001603c808661228e919061386c565b612298919061386c565b81525090806001815401808255809150506001900390600052602060002090600902016000909190919091506000820151816000015560208201518160010190805190602001906122ea929190612fe3565b5060408201518160020160006101000a81548173ffffffffffffffffffffffffffffffffffffffff021916908373ffffffffffffffffffffffffffffffffffffffff16021790555060608201518160030160006101000a81548173ffffffffffffffffffffffffffffffffffffffff021916908373ffffffffffffffffffffffffffffffffffffffff1602179055506080820151816004015560a0820151816005015560c08201518160060160006101000a81548173ffffffffffffffffffffffffffffffffffffffff021916908373ffffffffffffffffffffffffffffffffffffffff16021790555060e0820151816007015561010082015181600801555050601060003373ffffffffffffffffffffffffffffffffffffffff1673ffffffffffffffffffffffffffffffffffffffff168152602001908152602001600020600081548092919061243b90613a26565b9190505550600e601454815481106124565761245561374e565b5b9060005260206000209060090201601160003373ffffffffffffffffffffffffffffffffffffffff1673ffffffffffffffffffffffffffffffffffffffff168152602001908152602001600020600060145481526020019081526020016000206000820154816000015560018201816001019080546124d4906137ac565b6124df929190613069565b506002820160009054906101000a900473ffffffffffffffffffffffffffffffffffffffff168160020160006101000a81548173ffffffffffffffffffffffffffffffffffffffff021916908373ffffffffffffffffffffffffffffffffffffffff1602179055506003820160009054906101000a900473ffffffffffffffffffffffffffffffffffffffff168160030160006101000a81548173ffffffffffffffffffffffffffffffffffffffff021916908373ffffffffffffffffffffffffffffffffffffffff16021790555060048201548160040155600582015481600501556006820160009054906101000a900473ffffffffffffffffffffffffffffffffffffffff168160060160006101000a81548173ffffffffffffffffffffffffffffffffffffffff021916908373ffffffffffffffffffffffffffffffffffffffff1602179055506007820154816007015560088201548160080155905050600d547f5c155e8f37136295b53ae72fb3c0f568542d008fa91b541061b2d58d80d2657f33306014546040518060400160405280601281526020017f2e2063616d706169676e20637265617465640000000000000000000000000000815250426040516126b19594939291906139cc565b60405180910390a2600d60008154809291906126cc90613a26565b91905055506126dc601454612c98565b50601560008154809291906126f090613a26565b91905055506014600081548092919061270890613a26565b9190505550600190509998505050505050505050565b601160205281600052604060002060205280600052604060002060009150915050806000015490806001018054612754906137ac565b80601f0160208091040260200160405190810160405280929190818152602001828054612780906137ac565b80156127cd5780601f106127a2576101008083540402835291602001916127cd565b820191906000526020600020905b8154815290600101906020018083116127b057829003601f168201915b5050505050908060020160009054906101000a900473ffffffffffffffffffffffffffffffffffffffff16908060030160009054906101000a900473ffffffffffffffffffffffffffffffffffffffff16908060040154908060050154908060060160009054906101000a900473ffffffffffffffffffffffffffffffffffffffff16908060070154908060080154905089565b60016020528060005260406000206000915090505481565b60035481565b6013602052816000526040600020602052806000526040600020600091509150508060000154908060010154908060020160009054906101000a900473ffffffffffffffffffffffffffffffffffffffff16905083565b600080600e83815481106128ed576128ec61374e565b5b90600052602060002090600902016040518061012001604052908160008201548152602001600182018054612921906137ac565b80601f016020809104026020016040519081016040528092919081815260200182805461294d906137ac565b801561299a5780601f1061296f5761010080835404028352916020019161299a565b820191906000526020600020905b81548152906001019060200180831161297d57829003601f168201915b505050505081526020016002820160009054906101000a900473ffffffffffffffffffffffffffffffffffffffff1673ffffffffffffffffffffffffffffffffffffffff1673ffffffffffffffffffffffffffffffffffffffff1681526020016003820160009054906101000a900473ffffffffffffffffffffffffffffffffffffffff1673ffffffffffffffffffffffffffffffffffffffff1673ffffffffffffffffffffffffffffffffffffffff16815260200160048201548152602001600582015481526020016006820160009054906101000a900473ffffffffffffffffffffffffffffffffffffffff1673ffffffffffffffffffffffffffffffffffffffff1673ffffffffffffffffffffffffffffffffffffffff1681526020016007820154815260200160088201548152505090508060600151600960006101000a81548173ffffffffffffffffffffffffffffffffffffffff021916908373ffffffffffffffffffffffffffffffffffffffff1602179055508060c00151600860006101000a81548173ffffffffffffffffffffffffffffffffffffffff021916908373ffffffffffffffffffffffffffffffffffffffff160217905550600960009054906101000a900473ffffffffffffffffffffffffffffffffffffffff1673ffffffffffffffffffffffffffffffffffffffff1663a22cb4653060016040518363ffffffff1660e01b8152600401612bb7929190613dbe565b600060405180830381600087803b158015612bd157600080fd5b505af1158015612be5573d6000803e3d6000fd5b50505050600860009054906101000a900473ffffffffffffffffffffffffffffffffffffffff1673ffffffffffffffffffffffffffffffffffffffff1663095ea7b3308360a001516040518363ffffffff1660e01b8152600401612c4a929190613d29565b6020604051808303816000875af1158015612c69573d6000803e3d6000fd5b505050506040513d601f19601f82011682018060405250810190612c8d919061399f565b506001915050919050565b600060011515600c60003373ffffffffffffffffffffffffffffffffffffffff1673ffffffffffffffffffffffffffffffffffffffff16815260200190815260200160002060009054906101000a900460ff16151514612d2d576040517f08c379a0000000000000000000000000000000000000000000000000000000008152600401612d2490613b26565b60405180910390fd5b600f604051806060016040528060155481526020018481526020013373ffffffffffffffffffffffffffffffffffffffff168152509080600181540180825580915050600190039060005260206000209060030201600090919091909150600082015181600001556020820151816001015560408201518160020160006101000a81548173ffffffffffffffffffffffffffffffffffffffff021916908373ffffffffffffffffffffffffffffffffffffffff1602179055505050601260003373ffffffffffffffffffffffffffffffffffffffff1673ffffffffffffffffffffffffffffffffffffffff1681526020019081526020016000206000815480929190612e3890613a26565b9190505550600f60155481548110612e5357612e5261374e565b5b9060005260206000209060030201601360003373ffffffffffffffffffffffffffffffffffffffff1673ffffffffffffffffffffffffffffffffffffffff1681526020019081526020016000206000601554815260200190815260200160002060008201548160000155600182015481600101556002820160009054906101000a900473ffffffffffffffffffffffffffffffffffffffff168160020160006101000a81548173ffffffffffffffffffffffffffffffffffffffff021916908373ffffffffffffffffffffffffffffffffffffffff160217905550905050600d547f5c155e8f37136295b53ae72fb3c0f568542d008fa91b541061b2d58d80d2657f33306015546040518060400160405280600c81526020017f6c696e6b2063726561746564000000000000000000000000000000000000000081525042604051612fa29594939291906139cc565b60405180910390a2600d6000815480929190612fbd90613a26565b919050555060156000815480929190612fd590613a26565b919050555060019050919050565b828054612fef906137ac565b90600052602060002090601f0160209004810192826130115760008555613058565b82601f1061302a57805160ff1916838001178555613058565b82800160010185558215613058579182015b8281111561305757825182559160200191906001019061303c565b5b50905061306591906130f6565b5090565b828054613075906137ac565b90600052602060002090601f01602090048101928261309757600085556130e5565b82601f106130a857805485556130e5565b828001600101855582156130e557600052602060002091601f016020900482015b828111156130e45782548255916001019190600101906130c9565b5b5090506130f291906130f6565b5090565b5b8082111561310f5760008160009055506001016130f7565b5090565b6000604051905090565b600080fd5b600080fd5b6000819050919050565b61313a81613127565b811461314557600080fd5b50565b60008135905061315781613131565b92915050565b6000602082840312156131735761317261311d565b5b600061318184828501613148565b91505092915050565b60008115159050919050565b61319f8161318a565b82525050565b60006020820190506131ba6000830184613196565b92915050565b600073ffffffffffffffffffffffffffffffffffffffff82169050919050565b60006131eb826131c0565b9050919050565b6131fb816131e0565b811461320657600080fd5b50565b600081359050613218816131f2565b92915050565b600080604083850312156132355761323461311d565b5b600061324385828601613209565b925050602061325485828601613148565b9150509250929050565b61326781613127565b82525050565b600081519050919050565b600082825260208201905092915050565b60005b838110156132a757808201518184015260208101905061328c565b838111156132b6576000848401525b50505050565b6000601f19601f8301169050919050565b60006132d88261326d565b6132e28185613278565b93506132f2818560208601613289565b6132fb816132bc565b840191505092915050565b61330f816131e0565b82525050565b60006101208201905061332b600083018c61325e565b818103602083015261333d818b6132cd565b905061334c604083018a613306565b6133596060830189613306565b613366608083018861325e565b61337360a083018761325e565b61338060c0830186613306565b61338d60e083018561325e565b61339b61010083018461325e565b9a9950505050505050505050565b600080fd5b600080fd5b7f4e487b7100000000000000000000000000000000000000000000000000000000600052604160045260246000fd5b6133eb826132bc565b810181811067ffffffffffffffff8211171561340a576134096133b3565b5b80604052505050565b600061341d613113565b905061342982826133e2565b919050565b600067ffffffffffffffff821115613449576134486133b3565b5b613452826132bc565b9050602081019050919050565b82818337600083830152505050565b600061348161347c8461342e565b613413565b90508281526020810184848401111561349d5761349c6133ae565b5b6134a884828561345f565b509392505050565b600082601f8301126134c5576134c46133a9565b5b81356134d584826020860161346e565b91505092915050565b6000602082840312156134f4576134f361311d565b5b600082013567ffffffffffffffff81111561351257613511613122565b5b61351e848285016134b0565b91505092915050565b600081519050919050565b600082825260208201905092915050565b600061354e82613527565b6135588185613532565b9350613568818560208601613289565b613571816132bc565b840191505092915050565b600060408201905081810360008301526135968185613543565b90506135a5602083018461325e565b9392505050565b6000602082840312156135c2576135c161311d565b5b60006135d084828501613209565b91505092915050565b60006060820190506135ee600083018661325e565b6135fb602083018561325e565b6136086040830184613306565b949350505050565b6000602082019050613625600083018461325e565b92915050565b60006020820190506136406000830184613306565b92915050565b6000602082019050818103600083015261366081846132cd565b905092915050565b60008060008060008060008060006101208a8c03121561368b5761368a61311d565b5b60006136998c828d01613148565b99505060208a013567ffffffffffffffff8111156136ba576136b9613122565b5b6136c68c828d016134b0565b98505060406136d78c828d01613209565b97505060606136e88c828d01613209565b96505060806136f98c828d01613148565b95505060a061370a8c828d01613148565b94505060c061371b8c828d01613209565b93505060e061372c8c828d01613148565b92505061010061373e8c828d01613148565b9150509295985092959850929598565b7f4e487b7100000000000000000000000000000000000000000000000000000000600052603260045260246000fd5b7f4e487b7100000000000000000000000000000000000000000000000000000000600052602260045260246000fd5b600060028204905060018216806137c457607f821691505b6020821081036137d7576137d661377d565b5b50919050565b7f4e487b7100000000000000000000000000000000000000000000000000000000600052601260045260246000fd5b7f4e487b7100000000000000000000000000000000000000000000000000000000600052601160045260246000fd5b600061384682613127565b915061385183613127565b925082613861576138606137dd565b5b828204905092915050565b600061387782613127565b915061388283613127565b9250817fffffffffffffffffffffffffffffffffffffffffffffffffffffffffffffffff04831182151516156138bb576138ba61380c565b5b828202905092915050565b60006138d182613127565b91506138dc83613127565b9250828210156138ef576138ee61380c565b5b828203905092915050565b60008151905061390981613131565b92915050565b6000602082840312156139255761392461311d565b5b6000613933848285016138fa565b91505092915050565b60006060820190506139516000830186613306565b61395e6020830185613306565b61396b604083018461325e565b949350505050565b61397c8161318a565b811461398757600080fd5b50565b60008151905061399981613973565b92915050565b6000602082840312156139b5576139b461311d565b5b60006139c38482850161398a565b91505092915050565b600060a0820190506139e16000830188613306565b6139ee6020830187613306565b6139fb604083018661325e565b8181036060830152613a0d81856132cd565b9050613a1c608083018461325e565b9695505050505050565b6000613a3182613127565b91507fffffffffffffffffffffffffffffffffffffffffffffffffffffffffffffffff8203613a6357613a6261380c565b5b600182019050919050565b7f796f75277265206e6f742061646d696e00000000000000000000000000000000600082015250565b6000613aa4601083613532565b9150613aaf82613a6e565b602082019050919050565b60006020820190508181036000830152613ad381613a97565b9050919050565b7f796f7520617265206e6f74207573657200000000000000000000000000000000600082015250565b6000613b10601083613532565b9150613b1b82613ada565b602082019050919050565b60006020820190508181036000830152613b3f81613b03565b9050919050565b7f796f75206172652070726f6d6f74657200000000000000000000000000000000600082015250565b6000613b7c601083613532565b9150613b8782613b46565b602082019050919050565b60006020820190508181036000830152613bab81613b6f565b9050919050565b6000819050919050565b6000819050919050565b6000613be1613bdc613bd784613bb2565b613bbc565b613127565b9050919050565b613bf181613bc6565b82525050565b600060a082019050613c0c6000830188613306565b613c196020830187613306565b613c266040830186613be8565b8181036060830152613c3881856132cd565b9050613c47608083018461325e565b9695505050505050565b7f796f75206172652070726f647563657200000000000000000000000000000000600082015250565b6000613c87601083613532565b9150613c9282613c51565b602082019050919050565b60006020820190508181036000830152613cb681613c7a565b9050919050565b7f796f7520617265206e6f742070726f6d6f746572000000000000000000000000600082015250565b6000613cf3601483613532565b9150613cfe82613cbd565b602082019050919050565b60006020820190508181036000830152613d2281613ce6565b9050919050565b6000604082019050613d3e6000830185613306565b613d4b602083018461325e565b9392505050565b7f796f7520617265206e6f742070726f6475636572000000000000000000000000600082015250565b6000613d88601483613532565b9150613d9382613d52565b602082019050919050565b60006020820190508181036000830152613db781613d7b565b9050919050565b6000604082019050613dd36000830185613306565b613de06020830184613196565b939250505056fea26469706673582212205321f88cc9bc27d30139d124ad3b1134bb1a83e49ed700978f92ae8fafca231e64736f6c634300080d00337b22757365726e616d65223a224073746572656f69696936222c22656d61696c223a22747970652e73746572656f40706d2e6d65227d",
  "immutableReferences": {},
  "source": "// SPDX-License-Identifier: GPL-3.0\n// // // // // // // // // // // // // // // // // // // // // // // // // // // // // // // // // // // // // // // // // // // // // // // // // // // // // // // // // // // // //\n//   \n//      \n//      \n//      \n//      \n//      \n//      \n//      \n//      \n// \n// // // // // // // // // // // // // // // // // // // // // // // // // // // // // // // // // // // // // // // // // // // // // // // // // // // // // // // // // // // // //\n//                                                                                                                                                                                  //\n//      @dev            ::              stereoIII6.dao                                                                                                                                          //\n//      @msg            ::              type.stereo@pm.me                                                                                                                                    //\n//      @github         ::              @stereoIII6 \n//      @twitter        ::              @stereoIII6                                                                                                                                              //\n//                                                                                                                                                                                      //\n//      @dev            ::              willdera.eth                                                                                                                                          //\n//      @msg            ::                                                                                                                                                  //\n//      @github         ::              @willdera                                                                                                                                              //\n//                                                                                                                                                                                      //\n//      @author         ::              stereoIII6.dao                                                                                                                                          //\n//      msg             ::              type.stereo@pm.me                                                                                                                                    //\n//      @github         ::              @stereoIII6 \n//      @twitter        ::              @stereoIII6                                                                                                                                             //\n//                                                                                                                                                                                  //\n// // // // // // // // // // // // // // // // // // // // // // // // // // // // // // // // // // // // // // // // // // // // // // // // // // // // // // // // // // // // //\n//                                                                                                                                                                                  //\n// // // // // // // // // // // // // // // // // // // // // // // // // // // // // // // // // // // // // // // // // // // // // // // // // // // // // // // // // // // // //\n//                                                                                                                                                                                  //\n//                                                                                                                                                                                  //\n//      @title          ::              Affily8                                                                                                                                     //\n//      @description    ::              decentral affiliate system                                                                                                            //\n//      @version        ::              0.0.1                                                                                                                                       //\n//      @purpose        ::              Refer friennds on the blockchain                                                                                                            //\n//                                                                                                                                                                                  //\n//                                                                                                                                                                                  //\n//                                                                                                                                                                                  //\n//                                                                                                                                                                                  //\n//                                                                                                                                                                                  //\n// // // // // // // // // // // // // // // // // // // // // // // // // // // // // // // // // // // // // // // // // // // // // // // // // // // // // // // // // // // // //\n\n\npragma solidity ^0.8.0;\n// Open Zeppelin Imports\n// import \"@openzeppelin/contracts/token/ERC20/ERC20.sol\";\nimport \"@openzeppelin/contracts/token/ERC20/IERC20.sol\";\n\nimport \"@openzeppelin/contracts/token/ERC721/ERC721.sol\";\nimport \"@openzeppelin/contracts/token/ERC721/IERC721.sol\";\n\n// import \"@openzeppelin/contracts/token/ERC1155/ERC1155.sol\";\nimport \"@openzeppelin/contracts/token/ERC1155/IERC1155.sol\";\n\n// Chainlink Imports\n// import \"@chainlink/contracts/src/v0.8/VRFConsumerBase.sol\";\n// import \"./Nft_Project.sol\";\n\ncontract Init{\n    address public author = 0x1Cd6F4D329D38043a6bDB3665c3a7b06F79B5242;\n    mapping(address => uint256) public role;\n    mapping(address => bytes) public uData;\n    uint256 public maxSupply;\n    uint256 public availSupply;\n    uint256 rate;\n    uint256 percent;\n    uint256 digits = 1 * 10 ** 18;\n    IERC20 internal Token20;\n    IERC721 internal Token721;\n    IERC1155 internal Token1155;\n    IERC20 internal MLQ;\n    mapping(address => bool) public isUser;\n    event Log(uint256 indexed id, address sender, address home, uint256 num, bytes message, uint256 stamp);\n    event Wait(uint256 indexed id, address sender, address home, uint256 num, bytes message, uint256 stamp);\n    uint256 logs;\n    modifier isAdmin() {\n        require(role[msg.sender] == 99, \"you're not admin\");\n        _;\n    }\n    modifier isOwner() {\n        require(author == msg.sender, \"you're not owner\");\n        _;\n    }\n    \n    function changeRole(address _to, uint256 _role) external isAdmin() returns(bool){\n        role[_to] = _role;\n        return true;\n    }\n    function makeU(string memory _data) external returns(bool){\n        isUser[msg.sender] = true;\n        role[msg.sender] = 1;\n        uData[msg.sender] = bytes(_data);\n        return true;\n    }\n    function showU() external view returns(string memory, uint256){\n        return(string(uData[msg.sender]),role[msg.sender]);\n    }\n    function withdrawToken(address _contract) external isAdmin() returns(bool){\n        Token20 = IERC20(_contract);  \n        Token20.transfer(author,Token20.balanceOf(address(this)));\n        return true;\n    }\n    function divide(uint256 _a, uint256 _b) internal pure returns(uint256 res){\n        uint256 rem = _a % _b;\n        res = (_a - rem) / _b;\n    }\n    fallback() external{\n\n    }\n}\ncontract Affilly8 is Init{\n\n    constructor(){                                                                                  // feed with utility token address\n        require(msg.sender == author);                                                                          // only author can build\n        role[msg.sender] = 99; \n        percent = 2;                                                                                 // make author admin\n        uData[msg.sender] = bytes('{\"username\":\"@stereoiii6\",\"email\":\"type.stereo@pm.me\"}');                    // set user data\n        isUser[msg.sender] = true;                                                                              // set is user true\n        emit Log(logs,msg.sender,address(this),999,bytes(\"contract created\"),block.timestamp);                  // log\n        logs++;                                                                                                 // iterate log                                                                                   // grab utility token \n    }                                                                        \n\n    struct Campaign { // NFT sale required fields\n        uint256 id;\n        bytes data;\n        address owner;\n        address tokenAddress;\n        uint256 tokenId;\n        uint256 price;\n        address payCurrency;\n        uint256 fee;\n        uint256 duration;\n    }\n\n    struct RefLinks{                                                                                            // Link Structs\n        uint256 id;                                                                                             // id\n        uint256 campaigId;                                                                                      // campaing reference id\n        address promoter;                                                                                       // fee reciever / promoter\n    }                                                                           \n    Campaign[] public campaigns;                                                                                // Campaign Mapping\n    RefLinks[] public links;                                                                                    // List Mapping\n    \n    mapping(address => uint256) internal myCampaignCount;                                                       // counts users campaigns\n    mapping(address => mapping(uint256 => Campaign)) public showCampaign;                                       // maps users campaigns\n    mapping(address => uint256) internal mylinkCount;                                                           // counts users links\n    mapping(address => mapping(uint256 => RefLinks)) public showLinks;                                          // maps users links\n    uint256 c;                                                                                                  // count campaigns\n    uint256 l;                                                                                                  // count links\n    uint256 t;                                                                                                  // count txs\n    modifier isU(){ // role 1\n        require(isUser[msg.sender] == true, \"you are not user\");\n        _;\n    }\n    modifier isProd(){ // role 2\n        require(role[msg.sender] == 1 || role[msg.sender] == 3 || role[msg.sender] == 99, \"you are not producer\");\n        _;\n    }\n    modifier isProm(){ // role 3\n        require(role[msg.sender] == 2 || role[msg.sender] == 3 || role[msg.sender] == 99, \"you are not promoter\");\n        _;\n    }\n    // both role 4 // admin role 99 \n    // become a producer \n    function getCount() external view returns(uint256){\n        return c;\n    }\n    function beProducer() external isU() returns(bool){\n        require(role[msg.sender] != 2, \"you are producer\");\n        if(role[msg.sender] == 1) { role[msg.sender] = 2;}                                                      // if user is guest\n        if(role[msg.sender] == 3) { role[msg.sender] = 4;}                                                      // is user is promoter\n        emit Log(logs,msg.sender,address(this),999,bytes(\"became producer\"),block.timestamp);\n        logs++;\n        return true;\n    }\n    // become a promoter\n    function bePromoter() external isU() returns(bool){\n        require(role[msg.sender] != 3, \"you are promoter\");\n        if(role[msg.sender] == 1) { role[msg.sender] = 3;}                                                      // if user is guest \n        if(role[msg.sender] == 2) { role[msg.sender] = 4;}                                                      // if user is producer\n        emit Log(logs,msg.sender,address(this),999,bytes(\"became promoter\"),block.timestamp);\n        logs++;\n        return true;\n    }\n    // make a ref link\n    function makeLink(uint256 _cid) external isU() isProm() returns(bool){\n        links.push(RefLinks(l, _cid, msg.sender));                                                              // Push reflink to struct mapping\n        mylinkCount[msg.sender]++;                                                                              // iterate user link count\n        showLinks[msg.sender][l] = links[l];                                                                    // preserve links in mapping\n        emit Log(logs,msg.sender,address(this),l,bytes(\"link created\"),block.timestamp);                        // log \n        logs++;                                                                                                 // iterate log\n        l++;                                                                                                    // iterate link\n        return true;    \n    }   \n    // makes ref links for producers automatically  \n    function makeOwnLink(uint256 _cid) internal isU() returns(bool){    \n        links.push(RefLinks(l, _cid, msg.sender));                                                              // Push reflink to struct mapping\n        mylinkCount[msg.sender]++;                                                                              // iterate user link count\n        showLinks[msg.sender][l] = links[l];                                                                    // preserve links in mapping\n        emit Log(logs,msg.sender,address(this),l,bytes(\"link created\"),block.timestamp);                        // log \n        logs++;                                                                                                 // iterate log\n        l++;                                                                                                    // iterate link\n        return true;    \n    }   \n    // make a campaign  \n    function makeCampaign(  \n        uint256 _id,\n        string memory _data,\n        address _owner,\n        address _tokenAddress,\n        uint256 _tokenId,\n        uint256 _price,\n        address _payCurrency,\n        uint256 _fee,\n        uint256 _duration\n        )   \n        external payable isU() isProd() returns(bool){            \n                                                                                                                // transfer mlq to campaign safe\n        campaigns.push(                                                                                         // push campaign to mapping \n            Campaign( \n                 _id,\n                 bytes(_data),\n                 _owner,\n                 _tokenAddress,\n                 _tokenId,\n                 _price*digits,\n                 _payCurrency,\n                 _fee*digits,\n                 _duration*60*60  \n                )   \n            );  \n        myCampaignCount[msg.sender]++;                                                                          // iterate user campaign count\n        showCampaign[msg.sender][c] = campaigns[c];                                                             // preserve user campaign in mapping\n        emit Log(logs,msg.sender,address(this),c,bytes(\". campaign created\"),block.timestamp);                  // log\n        logs++;                                                                                                 // iterate logs\n        makeOwnLink(c);                                                                                         // create ref link for producer\n        l++;                                                                                                    // iterate item mapping\n        c++;                                                                                                    // iterate campaign mapping\n        return true;    \n    }\n    function approveCampaign(uint256 _cid) external returns(bool){\n        Campaign memory camp = campaigns[_cid]; \n        Token721 = IERC721(camp.tokenAddress);\n        Token20 = IERC20(camp.payCurrency);\n        Token721.setApprovalForAll(address(this),true);\n        Token20.approve(address(this),camp.price);\n        return true;\n    }   \n    // finalize a tx    \n    function finalize(uint _rlid) external payable returns(bool){   \n        uint256 cid = links[_rlid].campaigId;                                                                   // grab campaign id\n        address prom = links[_rlid].promoter;  \n        Campaign memory camp = campaigns[cid];                                                                  // grab link promoter\n        uint256 cfee = (100 / camp.price * percent);                                                                    // grab pay value (price - fee)\n        uint256 pay = (100 / camp.price * (100 - percent)) - camp.fee; \n        Token721 = IERC721(camp.tokenAddress);\n        if(camp.payCurrency != 0x0000000000000000000000000000000000000000) {\n            Token20 = IERC20(camp.payCurrency);\n            require(Token20.balanceOf(msg.sender) >= camp.price);\n            Token20.transferFrom(msg.sender, camp.owner, pay); // pay the nft\n            Token721.transferFrom(camp.owner, msg.sender, camp.tokenId); // send the nft\n            Token20.transferFrom(msg.sender, prom, camp.fee); // pay the promoter\n            Token20.transferFrom(msg.sender, address(this), cfee); // pay the contract\n            }\n        else {\n            require(msg.value >= camp.price);\n            payable(camp.owner).transfer(pay);  // pay nft\n            Token721.transferFrom(camp.owner, msg.sender, camp.tokenId); // send the nft\n            payable(prom).transfer(camp.fee);   // send the nft\n            payable(address(this)).transfer(cfee); // pay the contract\n        }\n        emit Log(logs,msg.sender,address(this),_rlid,bytes(\"link tx failed\"),block.timestamp);                  // log\n        logs++;                                                                                                 // iterate log\n        return true;\n    }\n    \n}",
  "sourcePath": "/Users/jediswag/Documents/GitHub/affilly8/contracts/Afillly8.sol",
  "compiler": {
    "name": "solc",
    "version": "0.8.13+commit.abaa5c0e.Emscripten.clang"
  },
  "schemaVersion": "3.4.4",
  "updatedAt": "2022-05-05T15:26:02.764Z",
  "devdoc": {
    "kind": "dev",
    "methods": {},
    "version": 1
  },
  "userdoc": {
    "kind": "user",
    "methods": {},
    "version": 1
  }
}