{
  "contractName": "Affilly8",
  "abi": [
    {
      "inputs": [],
      "stateMutability": "nonpayable",
      "type": "constructor"
    },
    {
      "anonymous": false,
      "inputs": [
        {
          "indexed": true,
          "internalType": "uint256",
          "name": "id",
          "type": "uint256"
        },
        {
          "indexed": false,
          "internalType": "address",
          "name": "sender",
          "type": "address"
        },
        {
          "indexed": false,
          "internalType": "address",
          "name": "home",
          "type": "address"
        },
        {
          "indexed": false,
          "internalType": "uint256",
          "name": "num",
          "type": "uint256"
        },
        {
          "indexed": false,
          "internalType": "bytes",
          "name": "message",
          "type": "bytes"
        },
        {
          "indexed": false,
          "internalType": "uint256",
          "name": "stamp",
          "type": "uint256"
        }
      ],
      "name": "Log",
      "type": "event"
    },
    {
      "anonymous": false,
      "inputs": [
        {
          "indexed": true,
          "internalType": "uint256",
          "name": "id",
          "type": "uint256"
        },
        {
          "indexed": false,
          "internalType": "address",
          "name": "sender",
          "type": "address"
        },
        {
          "indexed": false,
          "internalType": "address",
          "name": "home",
          "type": "address"
        },
        {
          "indexed": false,
          "internalType": "uint256",
          "name": "num",
          "type": "uint256"
        },
        {
          "indexed": false,
          "internalType": "bytes",
          "name": "message",
          "type": "bytes"
        },
        {
          "indexed": false,
          "internalType": "uint256",
          "name": "stamp",
          "type": "uint256"
        }
      ],
      "name": "Wait",
      "type": "event"
    },
    {
      "stateMutability": "nonpayable",
      "type": "fallback"
    },
    {
      "inputs": [],
      "name": "author",
      "outputs": [
        {
          "internalType": "address",
          "name": "",
          "type": "address"
        }
      ],
      "stateMutability": "view",
      "type": "function",
      "constant": true
    },
    {
      "inputs": [],
      "name": "availSupply",
      "outputs": [
        {
          "internalType": "uint256",
          "name": "",
          "type": "uint256"
        }
      ],
      "stateMutability": "view",
      "type": "function",
      "constant": true
    },
    {
      "inputs": [
        {
          "internalType": "uint256",
          "name": "",
          "type": "uint256"
        }
      ],
      "name": "campaigns",
      "outputs": [
        {
          "internalType": "uint256",
          "name": "id",
          "type": "uint256"
        },
        {
          "internalType": "bytes",
          "name": "data",
          "type": "bytes"
        },
        {
          "internalType": "address",
          "name": "owner",
          "type": "address"
        },
        {
          "internalType": "address",
          "name": "tokenAddress",
          "type": "address"
        },
        {
          "internalType": "uint256",
          "name": "tokenId",
          "type": "uint256"
        },
        {
          "internalType": "uint256",
          "name": "price",
          "type": "uint256"
        },
        {
          "internalType": "address",
          "name": "payCurrency",
          "type": "address"
        },
        {
          "internalType": "uint256",
          "name": "fee",
          "type": "uint256"
        },
        {
          "internalType": "uint256",
          "name": "duration",
          "type": "uint256"
        }
      ],
      "stateMutability": "view",
      "type": "function",
      "constant": true
    },
    {
      "inputs": [
        {
          "internalType": "address",
          "name": "_to",
          "type": "address"
        },
        {
          "internalType": "uint256",
          "name": "_role",
          "type": "uint256"
        }
      ],
      "name": "changeRole",
      "outputs": [
        {
          "internalType": "bool",
          "name": "",
          "type": "bool"
        }
      ],
      "stateMutability": "nonpayable",
      "type": "function"
    },
    {
      "inputs": [
        {
          "internalType": "address",
          "name": "",
          "type": "address"
        }
      ],
      "name": "isUser",
      "outputs": [
        {
          "internalType": "bool",
          "name": "",
          "type": "bool"
        }
      ],
      "stateMutability": "view",
      "type": "function",
      "constant": true
    },
    {
      "inputs": [
        {
          "internalType": "uint256",
          "name": "",
          "type": "uint256"
        }
      ],
      "name": "links",
      "outputs": [
        {
          "internalType": "uint256",
          "name": "id",
          "type": "uint256"
        },
        {
          "internalType": "uint256",
          "name": "campaigId",
          "type": "uint256"
        },
        {
          "internalType": "address",
          "name": "promoter",
          "type": "address"
        }
      ],
      "stateMutability": "view",
      "type": "function",
      "constant": true
    },
    {
      "inputs": [
        {
          "internalType": "string",
          "name": "_data",
          "type": "string"
        }
      ],
      "name": "makeU",
      "outputs": [
        {
          "internalType": "bool",
          "name": "",
          "type": "bool"
        }
      ],
      "stateMutability": "nonpayable",
      "type": "function"
    },
    {
      "inputs": [],
      "name": "maxSupply",
      "outputs": [
        {
          "internalType": "uint256",
          "name": "",
          "type": "uint256"
        }
      ],
      "stateMutability": "view",
      "type": "function",
      "constant": true
    },
    {
      "inputs": [
        {
          "internalType": "address",
          "name": "",
          "type": "address"
        }
      ],
      "name": "role",
      "outputs": [
        {
          "internalType": "uint256",
          "name": "",
          "type": "uint256"
        }
      ],
      "stateMutability": "view",
      "type": "function",
      "constant": true
    },
    {
      "inputs": [
        {
          "internalType": "address",
          "name": "",
          "type": "address"
        },
        {
          "internalType": "uint256",
          "name": "",
          "type": "uint256"
        }
      ],
      "name": "showCampaign",
      "outputs": [
        {
          "internalType": "uint256",
          "name": "id",
          "type": "uint256"
        },
        {
          "internalType": "bytes",
          "name": "data",
          "type": "bytes"
        },
        {
          "internalType": "address",
          "name": "owner",
          "type": "address"
        },
        {
          "internalType": "address",
          "name": "tokenAddress",
          "type": "address"
        },
        {
          "internalType": "uint256",
          "name": "tokenId",
          "type": "uint256"
        },
        {
          "internalType": "uint256",
          "name": "price",
          "type": "uint256"
        },
        {
          "internalType": "address",
          "name": "payCurrency",
          "type": "address"
        },
        {
          "internalType": "uint256",
          "name": "fee",
          "type": "uint256"
        },
        {
          "internalType": "uint256",
          "name": "duration",
          "type": "uint256"
        }
      ],
      "stateMutability": "view",
      "type": "function",
      "constant": true
    },
    {
      "inputs": [
        {
          "internalType": "address",
          "name": "",
          "type": "address"
        },
        {
          "internalType": "uint256",
          "name": "",
          "type": "uint256"
        }
      ],
      "name": "showLinks",
      "outputs": [
        {
          "internalType": "uint256",
          "name": "id",
          "type": "uint256"
        },
        {
          "internalType": "uint256",
          "name": "campaigId",
          "type": "uint256"
        },
        {
          "internalType": "address",
          "name": "promoter",
          "type": "address"
        }
      ],
      "stateMutability": "view",
      "type": "function",
      "constant": true
    },
    {
      "inputs": [],
      "name": "showU",
      "outputs": [
        {
          "internalType": "string",
          "name": "",
          "type": "string"
        },
        {
          "internalType": "uint256",
          "name": "",
          "type": "uint256"
        }
      ],
      "stateMutability": "view",
      "type": "function",
      "constant": true
    },
    {
      "inputs": [
        {
          "internalType": "address",
          "name": "",
          "type": "address"
        }
      ],
      "name": "uData",
      "outputs": [
        {
          "internalType": "bytes",
          "name": "",
          "type": "bytes"
        }
      ],
      "stateMutability": "view",
      "type": "function",
      "constant": true
    },
    {
      "inputs": [
        {
          "internalType": "address",
          "name": "_contract",
          "type": "address"
        }
      ],
      "name": "withdrawToken",
      "outputs": [
        {
          "internalType": "bool",
          "name": "",
          "type": "bool"
        }
      ],
      "stateMutability": "nonpayable",
      "type": "function"
    },
    {
      "inputs": [],
      "name": "beProducer",
      "outputs": [
        {
          "internalType": "bool",
          "name": "",
          "type": "bool"
        }
      ],
      "stateMutability": "nonpayable",
      "type": "function"
    },
    {
      "inputs": [],
      "name": "bePromoter",
      "outputs": [
        {
          "internalType": "bool",
          "name": "",
          "type": "bool"
        }
      ],
      "stateMutability": "nonpayable",
      "type": "function"
    },
    {
      "inputs": [
        {
          "internalType": "uint256",
          "name": "_cid",
          "type": "uint256"
        }
      ],
      "name": "makeLink",
      "outputs": [
        {
          "internalType": "bool",
          "name": "",
          "type": "bool"
        }
      ],
      "stateMutability": "nonpayable",
      "type": "function"
    },
    {
      "inputs": [
        {
          "internalType": "uint256",
          "name": "_id",
          "type": "uint256"
        },
        {
          "internalType": "string",
          "name": "_data",
          "type": "string"
        },
        {
          "internalType": "address",
          "name": "_owner",
          "type": "address"
        },
        {
          "internalType": "address",
          "name": "_tokenAddress",
          "type": "address"
        },
        {
          "internalType": "uint256",
          "name": "_tokenId",
          "type": "uint256"
        },
        {
          "internalType": "uint256",
          "name": "_price",
          "type": "uint256"
        },
        {
          "internalType": "address",
          "name": "_payCurrency",
          "type": "address"
        },
        {
          "internalType": "uint256",
          "name": "_fee",
          "type": "uint256"
        },
        {
          "internalType": "uint256",
          "name": "_duration",
          "type": "uint256"
        }
      ],
      "name": "makeCampaign",
      "outputs": [
        {
          "internalType": "bool",
          "name": "",
          "type": "bool"
        }
      ],
      "stateMutability": "payable",
      "type": "function",
      "payable": true
    },
    {
      "inputs": [
        {
          "internalType": "uint256",
          "name": "_cid",
          "type": "uint256"
        }
      ],
      "name": "approveCampaign",
      "outputs": [
        {
          "internalType": "bool",
          "name": "",
          "type": "bool"
        }
      ],
      "stateMutability": "nonpayable",
      "type": "function"
    },
    {
      "inputs": [
        {
          "internalType": "uint256",
          "name": "_rlid",
          "type": "uint256"
        }
      ],
      "name": "finalize",
      "outputs": [
        {
          "internalType": "bool",
          "name": "",
          "type": "bool"
        }
      ],
      "stateMutability": "payable",
      "type": "function",
      "payable": true
    }
  ],
  "bytecode": "0x6080604052731cd6f4d329d38043a6bdb3665c3a7b06f79b52426000806101000a81548173ffffffffffffffffffffffffffffffffffffffff021916908373ffffffffffffffffffffffffffffffffffffffff160217905550670de0b6b3a76400006007553480156200007157600080fd5b5060008054906101000a900473ffffffffffffffffffffffffffffffffffffffff1673ffffffffffffffffffffffffffffffffffffffff163373ffffffffffffffffffffffffffffffffffffffff1614620000cb57600080fd5b6063600160003373ffffffffffffffffffffffffffffffffffffffff1673ffffffffffffffffffffffffffffffffffffffff168152602001908152602001600020819055506002600681905550604051806060016040528060368152602001620043ac60369139600260003373ffffffffffffffffffffffffffffffffffffffff1673ffffffffffffffffffffffffffffffffffffffff1681526020019081526020016000209080519060200190620001869291906200027a565b506001600c60003373ffffffffffffffffffffffffffffffffffffffff1673ffffffffffffffffffffffffffffffffffffffff16815260200190815260200160002060006101000a81548160ff021916908315150217905550600d547f5c155e8f37136295b53ae72fb3c0f568542d008fa91b541061b2d58d80d2657f33306103e76040518060400160405280601081526020017f636f6e747261637420637265617465640000000000000000000000000000000081525042604051620002529594939291906200047b565b60405180910390a2600d60008154809291906200026f906200050e565b9190505550620005bf565b82805462000288906200058a565b90600052602060002090601f016020900481019282620002ac5760008555620002f8565b82601f10620002c757805160ff1916838001178555620002f8565b82800160010185558215620002f8579182015b82811115620002f7578251825591602001919060010190620002da565b5b5090506200030791906200030b565b5090565b5b80821115620003265760008160009055506001016200030c565b5090565b600073ffffffffffffffffffffffffffffffffffffffff82169050919050565b600062000357826200032a565b9050919050565b62000369816200034a565b82525050565b6000819050919050565b6000819050919050565b6000819050919050565b6000620003ae620003a8620003a2846200036f565b62000383565b62000379565b9050919050565b620003c0816200038d565b82525050565b600081519050919050565b600082825260208201905092915050565b60005b8381101562000402578082015181840152602081019050620003e5565b8381111562000412576000848401525b50505050565b6000601f19601f8301169050919050565b60006200043682620003c6565b620004428185620003d1565b935062000454818560208601620003e2565b6200045f8162000418565b840191505092915050565b620004758162000379565b82525050565b600060a0820190506200049260008301886200035e565b620004a160208301876200035e565b620004b06040830186620003b5565b8181036060830152620004c4818562000429565b9050620004d560808301846200046a565b9695505050505050565b7f4e487b7100000000000000000000000000000000000000000000000000000000600052601160045260246000fd5b60006200051b8262000379565b91507fffffffffffffffffffffffffffffffffffffffffffffffffffffffffffffffff820362000550576200054f620004df565b5b600182019050919050565b7f4e487b7100000000000000000000000000000000000000000000000000000000600052602260045260246000fd5b60006002820490506001821680620005a357607f821691505b602082108103620005b957620005b86200055b565b5b50919050565b613ddd80620005cf6000396000f3fe6080604052600436106101235760003560e01c806389476069116100a0578063d09e747f11610064578063d09e747f1461045c578063d590f8c9146104a1578063d5abeb01146104de578063ea319b8814610509578063ee4e1b531461054857610124565b8063894760691461035c5780639f5215dd14610399578063a6c3e6b9146103c4578063b7187e35146103ef578063c96f6ca91461042c57610124565b80632a1e5ef3116100e75780632a1e5ef31461024d5780632e3606ad146102785780634209fff1146102a35780636d65d97b146102e0578063881d8a401461031d57610124565b806305261aea146101325780630acfd58e14610162578063141961bc1461019f578063268b5227146101e4578063274daa351461022157610124565b5b34801561013057600080fd5b005b61014c6004803603810190610147919061311d565b610585565b6040516101599190613165565b60405180910390f35b34801561016e57600080fd5b50610189600480360381019061018491906131de565b610e73565b6040516101969190613165565b60405180910390f35b3480156101ab57600080fd5b506101c660048036038101906101c1919061311d565b610f45565b6040516101db999897969594939291906132d5565b60405180910390f35b3480156101f057600080fd5b5061020b6004803603810190610206919061349e565b61108b565b6040516102189190613165565b60405180910390f35b34801561022d57600080fd5b50610236611186565b60405161024492919061353c565b60405180910390f35b34801561025957600080fd5b5061026261129d565b60405161026f9190613165565b60405180910390f35b34801561028457600080fd5b5061028d611565565b60405161029a9190613165565b60405180910390f35b3480156102af57600080fd5b506102ca60048036038101906102c5919061356c565b61182d565b6040516102d79190613165565b60405180910390f35b3480156102ec57600080fd5b506103076004803603810190610302919061311d565b61184d565b6040516103149190613165565b60405180910390f35b34801561032957600080fd5b50610344600480360381019061033f919061311d565b611cae565b60405161035393929190613599565b60405180910390f35b34801561036857600080fd5b50610383600480360381019061037e919061356c565b611d08565b6040516103909190613165565b60405180910390f35b3480156103a557600080fd5b506103ae611f32565b6040516103bb91906135d0565b60405180910390f35b3480156103d057600080fd5b506103d9611f38565b6040516103e691906135eb565b60405180910390f35b3480156103fb57600080fd5b506104166004803603810190610411919061356c565b611f5c565b6040516104239190613606565b60405180910390f35b61044660048036038101906104419190613628565b611ffc565b6040516104539190613165565b60405180910390f35b34801561046857600080fd5b50610483600480360381019061047e91906131de565b6126de565b604051610498999897969594939291906132d5565b60405180910390f35b3480156104ad57600080fd5b506104c860048036038101906104c3919061356c565b612821565b6040516104d591906135d0565b60405180910390f35b3480156104ea57600080fd5b506104f3612839565b60405161050091906135d0565b60405180910390f35b34801561051557600080fd5b50610530600480360381019061052b91906131de565b61283f565b60405161053f93929190613599565b60405180910390f35b34801561055457600080fd5b5061056f600480360381019061056a919061311d565b612896565b60405161057c9190613165565b60405180910390f35b600080600f838154811061059c5761059b61370e565b5b90600052602060002090600302016001015490506000600f84815481106105c6576105c561370e565b5b906000526020600020906003020160020160009054906101000a900473ffffffffffffffffffffffffffffffffffffffff1690506000600e83815481106106105761060f61370e565b5b906000526020600020906009020160405180610120016040529081600082015481526020016001820180546106449061376c565b80601f01602080910402602001604051908101604052809291908181526020018280546106709061376c565b80156106bd5780601f10610692576101008083540402835291602001916106bd565b820191906000526020600020905b8154815290600101906020018083116106a057829003601f168201915b505050505081526020016002820160009054906101000a900473ffffffffffffffffffffffffffffffffffffffff1673ffffffffffffffffffffffffffffffffffffffff1673ffffffffffffffffffffffffffffffffffffffff1681526020016003820160009054906101000a900473ffffffffffffffffffffffffffffffffffffffff1673ffffffffffffffffffffffffffffffffffffffff1673ffffffffffffffffffffffffffffffffffffffff16815260200160048201548152602001600582015481526020016006820160009054906101000a900473ffffffffffffffffffffffffffffffffffffffff1673ffffffffffffffffffffffffffffffffffffffff1673ffffffffffffffffffffffffffffffffffffffff16815260200160078201548152602001600882015481525050905060006006548260a00151606461080891906137fb565b610812919061382c565b905060008260e00151600654606461082a9190613886565b8460a00151606461083b91906137fb565b610845919061382c565b61084f9190613886565b90508260600151600960006101000a81548173ffffffffffffffffffffffffffffffffffffffff021916908373ffffffffffffffffffffffffffffffffffffffff160217905550600073ffffffffffffffffffffffffffffffffffffffff168360c0015173ffffffffffffffffffffffffffffffffffffffff1614610c4e578260c00151600860006101000a81548173ffffffffffffffffffffffffffffffffffffffff021916908373ffffffffffffffffffffffffffffffffffffffff1602179055508260a00151600860009054906101000a900473ffffffffffffffffffffffffffffffffffffffff1673ffffffffffffffffffffffffffffffffffffffff166370a08231336040518263ffffffff1660e01b815260040161097391906135eb565b602060405180830381865afa158015610990573d6000803e3d6000fd5b505050506040513d601f19601f820116820180604052508101906109b491906138cf565b10156109bf57600080fd5b600860009054906101000a900473ffffffffffffffffffffffffffffffffffffffff1673ffffffffffffffffffffffffffffffffffffffff166323b872dd338560400151846040518463ffffffff1660e01b8152600401610a22939291906138fc565b6020604051808303816000875af1158015610a41573d6000803e3d6000fd5b505050506040513d601f19601f82011682018060405250810190610a65919061395f565b50600960009054906101000a900473ffffffffffffffffffffffffffffffffffffffff1673ffffffffffffffffffffffffffffffffffffffff166323b872dd84604001513386608001516040518463ffffffff1660e01b8152600401610acd939291906138fc565b600060405180830381600087803b158015610ae757600080fd5b505af1158015610afb573d6000803e3d6000fd5b50505050600860009054906101000a900473ffffffffffffffffffffffffffffffffffffffff1673ffffffffffffffffffffffffffffffffffffffff166323b872dd33868660e001516040518463ffffffff1660e01b8152600401610b62939291906138fc565b6020604051808303816000875af1158015610b81573d6000803e3d6000fd5b505050506040513d601f19601f82011682018060405250810190610ba5919061395f565b50600860009054906101000a900473ffffffffffffffffffffffffffffffffffffffff1673ffffffffffffffffffffffffffffffffffffffff166323b872dd3330856040518463ffffffff1660e01b8152600401610c05939291906138fc565b6020604051808303816000875af1158015610c24573d6000803e3d6000fd5b505050506040513d601f19601f82011682018060405250810190610c48919061395f565b50610dd6565b8260a00151341015610c5f57600080fd5b826040015173ffffffffffffffffffffffffffffffffffffffff166108fc829081150290604051600060405180830381858888f19350505050158015610ca9573d6000803e3d6000fd5b50600960009054906101000a900473ffffffffffffffffffffffffffffffffffffffff1673ffffffffffffffffffffffffffffffffffffffff166323b872dd84604001513386608001516040518463ffffffff1660e01b8152600401610d11939291906138fc565b600060405180830381600087803b158015610d2b57600080fd5b505af1158015610d3f573d6000803e3d6000fd5b505050508373ffffffffffffffffffffffffffffffffffffffff166108fc8460e001519081150290604051600060405180830381858888f19350505050158015610d8d573d6000803e3d6000fd5b503073ffffffffffffffffffffffffffffffffffffffff166108fc839081150290604051600060405180830381858888f19350505050158015610dd4573d6000803e3d6000fd5b505b600d547f5c155e8f37136295b53ae72fb3c0f568542d008fa91b541061b2d58d80d2657f33308a6040518060400160405280600e81526020017f6c696e6b207478206661696c656400000000000000000000000000000000000081525042604051610e4595949392919061398c565b60405180910390a2600d6000815480929190610e60906139e6565b9190505550600195505050505050919050565b60006063600160003373ffffffffffffffffffffffffffffffffffffffff1673ffffffffffffffffffffffffffffffffffffffff1681526020019081526020016000205414610ef7576040517f08c379a0000000000000000000000000000000000000000000000000000000008152600401610eee90613a7a565b60405180910390fd5b81600160008573ffffffffffffffffffffffffffffffffffffffff1673ffffffffffffffffffffffffffffffffffffffff168152602001908152602001600020819055506001905092915050565b600e8181548110610f5557600080fd5b9060005260206000209060090201600091509050806000015490806001018054610f7e9061376c565b80601f0160208091040260200160405190810160405280929190818152602001828054610faa9061376c565b8015610ff75780601f10610fcc57610100808354040283529160200191610ff7565b820191906000526020600020905b815481529060010190602001808311610fda57829003601f168201915b5050505050908060020160009054906101000a900473ffffffffffffffffffffffffffffffffffffffff16908060030160009054906101000a900473ffffffffffffffffffffffffffffffffffffffff16908060040154908060050154908060060160009054906101000a900473ffffffffffffffffffffffffffffffffffffffff16908060070154908060080154905089565b60006001600c60003373ffffffffffffffffffffffffffffffffffffffff1673ffffffffffffffffffffffffffffffffffffffff16815260200190815260200160002060006101000a81548160ff02191690831515021790555060018060003373ffffffffffffffffffffffffffffffffffffffff1673ffffffffffffffffffffffffffffffffffffffff1681526020019081526020016000208190555081600260003373ffffffffffffffffffffffffffffffffffffffff1673ffffffffffffffffffffffffffffffffffffffff168152602001908152602001600020908051906020019061117c929190612fa3565b5060019050919050565b60606000600260003373ffffffffffffffffffffffffffffffffffffffff1673ffffffffffffffffffffffffffffffffffffffff168152602001908152602001600020600160003373ffffffffffffffffffffffffffffffffffffffff1673ffffffffffffffffffffffffffffffffffffffff168152602001908152602001600020548180546112159061376c565b80601f01602080910402602001604051908101604052809291908181526020018280546112419061376c565b801561128e5780601f106112635761010080835404028352916020019161128e565b820191906000526020600020905b81548152906001019060200180831161127157829003601f168201915b50505050509150915091509091565b600060011515600c60003373ffffffffffffffffffffffffffffffffffffffff1673ffffffffffffffffffffffffffffffffffffffff16815260200190815260200160002060009054906101000a900460ff16151514611332576040517f08c379a000000000000000000000000000000000000000000000000000000000815260040161132990613ae6565b60405180910390fd5b6003600160003373ffffffffffffffffffffffffffffffffffffffff1673ffffffffffffffffffffffffffffffffffffffff16815260200190815260200160002054036113b4576040517f08c379a00000000000000000000000000000000000000000000000000000000081526004016113ab90613b52565b60405180910390fd5b60018060003373ffffffffffffffffffffffffffffffffffffffff1673ffffffffffffffffffffffffffffffffffffffff1681526020019081526020016000205403611440576003600160003373ffffffffffffffffffffffffffffffffffffffff1673ffffffffffffffffffffffffffffffffffffffff168152602001908152602001600020819055505b6002600160003373ffffffffffffffffffffffffffffffffffffffff1673ffffffffffffffffffffffffffffffffffffffff16815260200190815260200160002054036114cd576004600160003373ffffffffffffffffffffffffffffffffffffffff1673ffffffffffffffffffffffffffffffffffffffff168152602001908152602001600020819055505b600d547f5c155e8f37136295b53ae72fb3c0f568542d008fa91b541061b2d58d80d2657f33306103e76040518060400160405280600f81526020017f626563616d652070726f6d6f74657200000000000000000000000000000000008152504260405161153e959493929190613bb7565b60405180910390a2600d6000815480929190611559906139e6565b91905055506001905090565b600060011515600c60003373ffffffffffffffffffffffffffffffffffffffff1673ffffffffffffffffffffffffffffffffffffffff16815260200190815260200160002060009054906101000a900460ff161515146115fa576040517f08c379a00000000000000000000000000000000000000000000000000000000081526004016115f190613ae6565b60405180910390fd5b6002600160003373ffffffffffffffffffffffffffffffffffffffff1673ffffffffffffffffffffffffffffffffffffffff168152602001908152602001600020540361167c576040517f08c379a000000000000000000000000000000000000000000000000000000000815260040161167390613c5d565b60405180910390fd5b60018060003373ffffffffffffffffffffffffffffffffffffffff1673ffffffffffffffffffffffffffffffffffffffff1681526020019081526020016000205403611708576002600160003373ffffffffffffffffffffffffffffffffffffffff1673ffffffffffffffffffffffffffffffffffffffff168152602001908152602001600020819055505b6003600160003373ffffffffffffffffffffffffffffffffffffffff1673ffffffffffffffffffffffffffffffffffffffff1681526020019081526020016000205403611795576004600160003373ffffffffffffffffffffffffffffffffffffffff1673ffffffffffffffffffffffffffffffffffffffff168152602001908152602001600020819055505b600d547f5c155e8f37136295b53ae72fb3c0f568542d008fa91b541061b2d58d80d2657f33306103e76040518060400160405280600f81526020017f626563616d652070726f6475636572000000000000000000000000000000000081525042604051611806959493929190613bb7565b60405180910390a2600d6000815480929190611821906139e6565b91905055506001905090565b600c6020528060005260406000206000915054906101000a900460ff1681565b600060011515600c60003373ffffffffffffffffffffffffffffffffffffffff1673ffffffffffffffffffffffffffffffffffffffff16815260200190815260200160002060009054906101000a900460ff161515146118e2576040517f08c379a00000000000000000000000000000000000000000000000000000000081526004016118d990613ae6565b60405180910390fd5b6002600160003373ffffffffffffffffffffffffffffffffffffffff1673ffffffffffffffffffffffffffffffffffffffff16815260200190815260200160002054148061196f57506003600160003373ffffffffffffffffffffffffffffffffffffffff1673ffffffffffffffffffffffffffffffffffffffff16815260200190815260200160002054145b806119b957506063600160003373ffffffffffffffffffffffffffffffffffffffff1673ffffffffffffffffffffffffffffffffffffffff16815260200190815260200160002054145b6119f8576040517f08c379a00000000000000000000000000000000000000000000000000000000081526004016119ef90613cc9565b60405180910390fd5b600f604051806060016040528060155481526020018481526020013373ffffffffffffffffffffffffffffffffffffffff168152509080600181540180825580915050600190039060005260206000209060030201600090919091909150600082015181600001556020820151816001015560408201518160020160006101000a81548173ffffffffffffffffffffffffffffffffffffffff021916908373ffffffffffffffffffffffffffffffffffffffff1602179055505050601260003373ffffffffffffffffffffffffffffffffffffffff1673ffffffffffffffffffffffffffffffffffffffff1681526020019081526020016000206000815480929190611b03906139e6565b9190505550600f60155481548110611b1e57611b1d61370e565b5b9060005260206000209060030201601360003373ffffffffffffffffffffffffffffffffffffffff1673ffffffffffffffffffffffffffffffffffffffff1681526020019081526020016000206000601554815260200190815260200160002060008201548160000155600182015481600101556002820160009054906101000a900473ffffffffffffffffffffffffffffffffffffffff168160020160006101000a81548173ffffffffffffffffffffffffffffffffffffffff021916908373ffffffffffffffffffffffffffffffffffffffff160217905550905050600d547f5c155e8f37136295b53ae72fb3c0f568542d008fa91b541061b2d58d80d2657f33306015546040518060400160405280600c81526020017f6c696e6b2063726561746564000000000000000000000000000000000000000081525042604051611c6d95949392919061398c565b60405180910390a2600d6000815480929190611c88906139e6565b919050555060156000815480929190611ca0906139e6565b919050555060019050919050565b600f8181548110611cbe57600080fd5b90600052602060002090600302016000915090508060000154908060010154908060020160009054906101000a900473ffffffffffffffffffffffffffffffffffffffff16905083565b60006063600160003373ffffffffffffffffffffffffffffffffffffffff1673ffffffffffffffffffffffffffffffffffffffff1681526020019081526020016000205414611d8c576040517f08c379a0000000000000000000000000000000000000000000000000000000008152600401611d8390613a7a565b60405180910390fd5b81600860006101000a81548173ffffffffffffffffffffffffffffffffffffffff021916908373ffffffffffffffffffffffffffffffffffffffff160217905550600860009054906101000a900473ffffffffffffffffffffffffffffffffffffffff1673ffffffffffffffffffffffffffffffffffffffff1663a9059cbb60008054906101000a900473ffffffffffffffffffffffffffffffffffffffff16600860009054906101000a900473ffffffffffffffffffffffffffffffffffffffff1673ffffffffffffffffffffffffffffffffffffffff166370a08231306040518263ffffffff1660e01b8152600401611e8791906135eb565b602060405180830381865afa158015611ea4573d6000803e3d6000fd5b505050506040513d601f19601f82011682018060405250810190611ec891906138cf565b6040518363ffffffff1660e01b8152600401611ee5929190613ce9565b6020604051808303816000875af1158015611f04573d6000803e3d6000fd5b505050506040513d601f19601f82011682018060405250810190611f28919061395f565b5060019050919050565b60045481565b60008054906101000a900473ffffffffffffffffffffffffffffffffffffffff1681565b60026020528060005260406000206000915090508054611f7b9061376c565b80601f0160208091040260200160405190810160405280929190818152602001828054611fa79061376c565b8015611ff45780601f10611fc957610100808354040283529160200191611ff4565b820191906000526020600020905b815481529060010190602001808311611fd757829003601f168201915b505050505081565b600060011515600c60003373ffffffffffffffffffffffffffffffffffffffff1673ffffffffffffffffffffffffffffffffffffffff16815260200190815260200160002060009054906101000a900460ff16151514612091576040517f08c379a000000000000000000000000000000000000000000000000000000000815260040161208890613ae6565b60405180910390fd5b60018060003373ffffffffffffffffffffffffffffffffffffffff1673ffffffffffffffffffffffffffffffffffffffff16815260200190815260200160002054148061211d57506003600160003373ffffffffffffffffffffffffffffffffffffffff1673ffffffffffffffffffffffffffffffffffffffff16815260200190815260200160002054145b8061216757506063600160003373ffffffffffffffffffffffffffffffffffffffff1673ffffffffffffffffffffffffffffffffffffffff16815260200190815260200160002054145b6121a6576040517f08c379a000000000000000000000000000000000000000000000000000000000815260040161219d90613d5e565b60405180910390fd5b600e6040518061012001604052808c81526020018b81526020018a73ffffffffffffffffffffffffffffffffffffffff1681526020018973ffffffffffffffffffffffffffffffffffffffff1681526020018881526020016007548861220c919061382c565b81526020018673ffffffffffffffffffffffffffffffffffffffff1681526020016007548661223b919061382c565b8152602001603c808661224e919061382c565b612258919061382c565b81525090806001815401808255809150506001900390600052602060002090600902016000909190919091506000820151816000015560208201518160010190805190602001906122aa929190612fa3565b5060408201518160020160006101000a81548173ffffffffffffffffffffffffffffffffffffffff021916908373ffffffffffffffffffffffffffffffffffffffff16021790555060608201518160030160006101000a81548173ffffffffffffffffffffffffffffffffffffffff021916908373ffffffffffffffffffffffffffffffffffffffff1602179055506080820151816004015560a0820151816005015560c08201518160060160006101000a81548173ffffffffffffffffffffffffffffffffffffffff021916908373ffffffffffffffffffffffffffffffffffffffff16021790555060e0820151816007015561010082015181600801555050601060003373ffffffffffffffffffffffffffffffffffffffff1673ffffffffffffffffffffffffffffffffffffffff16815260200190815260200160002060008154809291906123fb906139e6565b9190505550600e601454815481106124165761241561370e565b5b9060005260206000209060090201601160003373ffffffffffffffffffffffffffffffffffffffff1673ffffffffffffffffffffffffffffffffffffffff168152602001908152602001600020600060145481526020019081526020016000206000820154816000015560018201816001019080546124949061376c565b61249f929190613029565b506002820160009054906101000a900473ffffffffffffffffffffffffffffffffffffffff168160020160006101000a81548173ffffffffffffffffffffffffffffffffffffffff021916908373ffffffffffffffffffffffffffffffffffffffff1602179055506003820160009054906101000a900473ffffffffffffffffffffffffffffffffffffffff168160030160006101000a81548173ffffffffffffffffffffffffffffffffffffffff021916908373ffffffffffffffffffffffffffffffffffffffff16021790555060048201548160040155600582015481600501556006820160009054906101000a900473ffffffffffffffffffffffffffffffffffffffff168160060160006101000a81548173ffffffffffffffffffffffffffffffffffffffff021916908373ffffffffffffffffffffffffffffffffffffffff1602179055506007820154816007015560088201548160080155905050600d547f5c155e8f37136295b53ae72fb3c0f568542d008fa91b541061b2d58d80d2657f33306014546040518060400160405280601281526020017f2e2063616d706169676e206372656174656400000000000000000000000000008152504260405161267195949392919061398c565b60405180910390a2600d600081548092919061268c906139e6565b919050555061269c601454612c58565b50601560008154809291906126b0906139e6565b9190505550601460008154809291906126c8906139e6565b9190505550600190509998505050505050505050565b6011602052816000526040600020602052806000526040600020600091509150508060000154908060010180546127149061376c565b80601f01602080910402602001604051908101604052809291908181526020018280546127409061376c565b801561278d5780601f106127625761010080835404028352916020019161278d565b820191906000526020600020905b81548152906001019060200180831161277057829003601f168201915b5050505050908060020160009054906101000a900473ffffffffffffffffffffffffffffffffffffffff16908060030160009054906101000a900473ffffffffffffffffffffffffffffffffffffffff16908060040154908060050154908060060160009054906101000a900473ffffffffffffffffffffffffffffffffffffffff16908060070154908060080154905089565b60016020528060005260406000206000915090505481565b60035481565b6013602052816000526040600020602052806000526040600020600091509150508060000154908060010154908060020160009054906101000a900473ffffffffffffffffffffffffffffffffffffffff16905083565b600080600e83815481106128ad576128ac61370e565b5b906000526020600020906009020160405180610120016040529081600082015481526020016001820180546128e19061376c565b80601f016020809104026020016040519081016040528092919081815260200182805461290d9061376c565b801561295a5780601f1061292f5761010080835404028352916020019161295a565b820191906000526020600020905b81548152906001019060200180831161293d57829003601f168201915b505050505081526020016002820160009054906101000a900473ffffffffffffffffffffffffffffffffffffffff1673ffffffffffffffffffffffffffffffffffffffff1673ffffffffffffffffffffffffffffffffffffffff1681526020016003820160009054906101000a900473ffffffffffffffffffffffffffffffffffffffff1673ffffffffffffffffffffffffffffffffffffffff1673ffffffffffffffffffffffffffffffffffffffff16815260200160048201548152602001600582015481526020016006820160009054906101000a900473ffffffffffffffffffffffffffffffffffffffff1673ffffffffffffffffffffffffffffffffffffffff1673ffffffffffffffffffffffffffffffffffffffff1681526020016007820154815260200160088201548152505090508060600151600960006101000a81548173ffffffffffffffffffffffffffffffffffffffff021916908373ffffffffffffffffffffffffffffffffffffffff1602179055508060c00151600860006101000a81548173ffffffffffffffffffffffffffffffffffffffff021916908373ffffffffffffffffffffffffffffffffffffffff160217905550600960009054906101000a900473ffffffffffffffffffffffffffffffffffffffff1673ffffffffffffffffffffffffffffffffffffffff1663a22cb4653060016040518363ffffffff1660e01b8152600401612b77929190613d7e565b600060405180830381600087803b158015612b9157600080fd5b505af1158015612ba5573d6000803e3d6000fd5b50505050600860009054906101000a900473ffffffffffffffffffffffffffffffffffffffff1673ffffffffffffffffffffffffffffffffffffffff1663095ea7b3308360a001516040518363ffffffff1660e01b8152600401612c0a929190613ce9565b6020604051808303816000875af1158015612c29573d6000803e3d6000fd5b505050506040513d601f19601f82011682018060405250810190612c4d919061395f565b506001915050919050565b600060011515600c60003373ffffffffffffffffffffffffffffffffffffffff1673ffffffffffffffffffffffffffffffffffffffff16815260200190815260200160002060009054906101000a900460ff16151514612ced576040517f08c379a0000000000000000000000000000000000000000000000000000000008152600401612ce490613ae6565b60405180910390fd5b600f604051806060016040528060155481526020018481526020013373ffffffffffffffffffffffffffffffffffffffff168152509080600181540180825580915050600190039060005260206000209060030201600090919091909150600082015181600001556020820151816001015560408201518160020160006101000a81548173ffffffffffffffffffffffffffffffffffffffff021916908373ffffffffffffffffffffffffffffffffffffffff1602179055505050601260003373ffffffffffffffffffffffffffffffffffffffff1673ffffffffffffffffffffffffffffffffffffffff1681526020019081526020016000206000815480929190612df8906139e6565b9190505550600f60155481548110612e1357612e1261370e565b5b9060005260206000209060030201601360003373ffffffffffffffffffffffffffffffffffffffff1673ffffffffffffffffffffffffffffffffffffffff1681526020019081526020016000206000601554815260200190815260200160002060008201548160000155600182015481600101556002820160009054906101000a900473ffffffffffffffffffffffffffffffffffffffff168160020160006101000a81548173ffffffffffffffffffffffffffffffffffffffff021916908373ffffffffffffffffffffffffffffffffffffffff160217905550905050600d547f5c155e8f37136295b53ae72fb3c0f568542d008fa91b541061b2d58d80d2657f33306015546040518060400160405280600c81526020017f6c696e6b2063726561746564000000000000000000000000000000000000000081525042604051612f6295949392919061398c565b60405180910390a2600d6000815480929190612f7d906139e6565b919050555060156000815480929190612f95906139e6565b919050555060019050919050565b828054612faf9061376c565b90600052602060002090601f016020900481019282612fd15760008555613018565b82601f10612fea57805160ff1916838001178555613018565b82800160010185558215613018579182015b82811115613017578251825591602001919060010190612ffc565b5b50905061302591906130b6565b5090565b8280546130359061376c565b90600052602060002090601f01602090048101928261305757600085556130a5565b82601f1061306857805485556130a5565b828001600101855582156130a557600052602060002091601f016020900482015b828111156130a4578254825591600101919060010190613089565b5b5090506130b291906130b6565b5090565b5b808211156130cf5760008160009055506001016130b7565b5090565b6000604051905090565b600080fd5b600080fd5b6000819050919050565b6130fa816130e7565b811461310557600080fd5b50565b600081359050613117816130f1565b92915050565b600060208284031215613133576131326130dd565b5b600061314184828501613108565b91505092915050565b60008115159050919050565b61315f8161314a565b82525050565b600060208201905061317a6000830184613156565b92915050565b600073ffffffffffffffffffffffffffffffffffffffff82169050919050565b60006131ab82613180565b9050919050565b6131bb816131a0565b81146131c657600080fd5b50565b6000813590506131d8816131b2565b92915050565b600080604083850312156131f5576131f46130dd565b5b6000613203858286016131c9565b925050602061321485828601613108565b9150509250929050565b613227816130e7565b82525050565b600081519050919050565b600082825260208201905092915050565b60005b8381101561326757808201518184015260208101905061324c565b83811115613276576000848401525b50505050565b6000601f19601f8301169050919050565b60006132988261322d565b6132a28185613238565b93506132b2818560208601613249565b6132bb8161327c565b840191505092915050565b6132cf816131a0565b82525050565b6000610120820190506132eb600083018c61321e565b81810360208301526132fd818b61328d565b905061330c604083018a6132c6565b61331960608301896132c6565b613326608083018861321e565b61333360a083018761321e565b61334060c08301866132c6565b61334d60e083018561321e565b61335b61010083018461321e565b9a9950505050505050505050565b600080fd5b600080fd5b7f4e487b7100000000000000000000000000000000000000000000000000000000600052604160045260246000fd5b6133ab8261327c565b810181811067ffffffffffffffff821117156133ca576133c9613373565b5b80604052505050565b60006133dd6130d3565b90506133e982826133a2565b919050565b600067ffffffffffffffff82111561340957613408613373565b5b6134128261327c565b9050602081019050919050565b82818337600083830152505050565b600061344161343c846133ee565b6133d3565b90508281526020810184848401111561345d5761345c61336e565b5b61346884828561341f565b509392505050565b600082601f83011261348557613484613369565b5b813561349584826020860161342e565b91505092915050565b6000602082840312156134b4576134b36130dd565b5b600082013567ffffffffffffffff8111156134d2576134d16130e2565b5b6134de84828501613470565b91505092915050565b600081519050919050565b600082825260208201905092915050565b600061350e826134e7565b61351881856134f2565b9350613528818560208601613249565b6135318161327c565b840191505092915050565b600060408201905081810360008301526135568185613503565b9050613565602083018461321e565b9392505050565b600060208284031215613582576135816130dd565b5b6000613590848285016131c9565b91505092915050565b60006060820190506135ae600083018661321e565b6135bb602083018561321e565b6135c860408301846132c6565b949350505050565b60006020820190506135e5600083018461321e565b92915050565b600060208201905061360060008301846132c6565b92915050565b60006020820190508181036000830152613620818461328d565b905092915050565b60008060008060008060008060006101208a8c03121561364b5761364a6130dd565b5b60006136598c828d01613108565b99505060208a013567ffffffffffffffff81111561367a576136796130e2565b5b6136868c828d01613470565b98505060406136978c828d016131c9565b97505060606136a88c828d016131c9565b96505060806136b98c828d01613108565b95505060a06136ca8c828d01613108565b94505060c06136db8c828d016131c9565b93505060e06136ec8c828d01613108565b9250506101006136fe8c828d01613108565b9150509295985092959850929598565b7f4e487b7100000000000000000000000000000000000000000000000000000000600052603260045260246000fd5b7f4e487b7100000000000000000000000000000000000000000000000000000000600052602260045260246000fd5b6000600282049050600182168061378457607f821691505b6020821081036137975761379661373d565b5b50919050565b7f4e487b7100000000000000000000000000000000000000000000000000000000600052601260045260246000fd5b7f4e487b7100000000000000000000000000000000000000000000000000000000600052601160045260246000fd5b6000613806826130e7565b9150613811836130e7565b9250826138215761382061379d565b5b828204905092915050565b6000613837826130e7565b9150613842836130e7565b9250817fffffffffffffffffffffffffffffffffffffffffffffffffffffffffffffffff048311821515161561387b5761387a6137cc565b5b828202905092915050565b6000613891826130e7565b915061389c836130e7565b9250828210156138af576138ae6137cc565b5b828203905092915050565b6000815190506138c9816130f1565b92915050565b6000602082840312156138e5576138e46130dd565b5b60006138f3848285016138ba565b91505092915050565b600060608201905061391160008301866132c6565b61391e60208301856132c6565b61392b604083018461321e565b949350505050565b61393c8161314a565b811461394757600080fd5b50565b60008151905061395981613933565b92915050565b600060208284031215613975576139746130dd565b5b60006139838482850161394a565b91505092915050565b600060a0820190506139a160008301886132c6565b6139ae60208301876132c6565b6139bb604083018661321e565b81810360608301526139cd818561328d565b90506139dc608083018461321e565b9695505050505050565b60006139f1826130e7565b91507fffffffffffffffffffffffffffffffffffffffffffffffffffffffffffffffff8203613a2357613a226137cc565b5b600182019050919050565b7f796f75277265206e6f742061646d696e00000000000000000000000000000000600082015250565b6000613a646010836134f2565b9150613a6f82613a2e565b602082019050919050565b60006020820190508181036000830152613a9381613a57565b9050919050565b7f796f7520617265206e6f74207573657200000000000000000000000000000000600082015250565b6000613ad06010836134f2565b9150613adb82613a9a565b602082019050919050565b60006020820190508181036000830152613aff81613ac3565b9050919050565b7f796f75206172652070726f6d6f74657200000000000000000000000000000000600082015250565b6000613b3c6010836134f2565b9150613b4782613b06565b602082019050919050565b60006020820190508181036000830152613b6b81613b2f565b9050919050565b6000819050919050565b6000819050919050565b6000613ba1613b9c613b9784613b72565b613b7c565b6130e7565b9050919050565b613bb181613b86565b82525050565b600060a082019050613bcc60008301886132c6565b613bd960208301876132c6565b613be66040830186613ba8565b8181036060830152613bf8818561328d565b9050613c07608083018461321e565b9695505050505050565b7f796f75206172652070726f647563657200000000000000000000000000000000600082015250565b6000613c476010836134f2565b9150613c5282613c11565b602082019050919050565b60006020820190508181036000830152613c7681613c3a565b9050919050565b7f796f7520617265206e6f742070726f6d6f746572000000000000000000000000600082015250565b6000613cb36014836134f2565b9150613cbe82613c7d565b602082019050919050565b60006020820190508181036000830152613ce281613ca6565b9050919050565b6000604082019050613cfe60008301856132c6565b613d0b602083018461321e565b9392505050565b7f796f7520617265206e6f742070726f6475636572000000000000000000000000600082015250565b6000613d486014836134f2565b9150613d5382613d12565b602082019050919050565b60006020820190508181036000830152613d7781613d3b565b9050919050565b6000604082019050613d9360008301856132c6565b613da06020830184613156565b939250505056fea2646970667358221220c4cded00fc74ca5a62c96f19c2936d9c92cb6fc80d7688aa208adc34790a0b1d64736f6c634300080d00337b22757365726e616d65223a224073746572656f69696936222c22656d61696c223a22747970652e73746572656f40706d2e6d65227d",
  "immutableReferences": {},
  "source": "// SPDX-License-Identifier: GPL-3.0\n// // // // // // // // // // // // // // // // // // // // // // // // // // // // // // // // // // // // // // // // // // // // // // // // // // // // // // // // // // // // //\n//   \n//      \n//      \n//      \n//      \n//      \n//      \n//      \n//      \n// \n// // // // // // // // // // // // // // // // // // // // // // // // // // // // // // // // // // // // // // // // // // // // // // // // // // // // // // // // // // // // //\n//                                                                                                                                                                                  //\n//      @dev            ::              stereoIII6.dao                                                                                                                                          //\n//      @msg            ::              type.stereo@pm.me                                                                                                                                    //\n//      @github         ::              @stereoIII6 \n//      @twitter        ::              @stereoIII6                                                                                                                                              //\n//                                                                                                                                                                                      //\n//      @dev            ::              willdera.eth                                                                                                                                          //\n//      @msg            ::                                                                                                                                                  //\n//      @github         ::              @willdera                                                                                                                                              //\n//                                                                                                                                                                                      //\n//      @author         ::              stereoIII6.dao                                                                                                                                          //\n//      msg             ::              type.stereo@pm.me                                                                                                                                    //\n//      @github         ::              @stereoIII6 \n//      @twitter        ::              @stereoIII6                                                                                                                                             //\n//                                                                                                                                                                                  //\n// // // // // // // // // // // // // // // // // // // // // // // // // // // // // // // // // // // // // // // // // // // // // // // // // // // // // // // // // // // // //\n//                                                                                                                                                                                  //\n// // // // // // // // // // // // // // // // // // // // // // // // // // // // // // // // // // // // // // // // // // // // // // // // // // // // // // // // // // // // //\n//                                                                                                                                                                                  //\n//                                                                                                                                                                                  //\n//      @title          ::              Affily8                                                                                                                                     //\n//      @description    ::              decentral affiliate system                                                                                                            //\n//      @version        ::              0.0.1                                                                                                                                       //\n//      @purpose        ::              Refer friennds on the blockchain                                                                                                            //\n//                                                                                                                                                                                  //\n//                                                                                                                                                                                  //\n//                                                                                                                                                                                  //\n//                                                                                                                                                                                  //\n//                                                                                                                                                                                  //\n// // // // // // // // // // // // // // // // // // // // // // // // // // // // // // // // // // // // // // // // // // // // // // // // // // // // // // // // // // // // //\n\n\npragma solidity ^0.8.0;\n// Open Zeppelin Imports\n// import \"@openzeppelin/contracts/token/ERC20/ERC20.sol\";\nimport \"@openzeppelin/contracts/token/ERC20/IERC20.sol\";\n\nimport \"@openzeppelin/contracts/token/ERC721/ERC721.sol\";\nimport \"@openzeppelin/contracts/token/ERC721/IERC721.sol\";\n\n// import \"@openzeppelin/contracts/token/ERC1155/ERC1155.sol\";\nimport \"@openzeppelin/contracts/token/ERC1155/IERC1155.sol\";\n\n// Chainlink Imports\n// import \"@chainlink/contracts/src/v0.8/VRFConsumerBase.sol\";\n// import \"./Nft_Project.sol\";\n\ncontract Init{\n    address public author = 0x1Cd6F4D329D38043a6bDB3665c3a7b06F79B5242;\n    mapping(address => uint256) public role;\n    mapping(address => bytes) public uData;\n    uint256 public maxSupply;\n    uint256 public availSupply;\n    uint256 rate;\n    uint256 percent;\n    uint256 digits = 1 * 10 ** 18;\n    IERC20 internal Token20;\n    IERC721 internal Token721;\n    IERC1155 internal Token1155;\n    IERC20 internal MLQ;\n    mapping(address => bool) public isUser;\n    event Log(uint256 indexed id, address sender, address home, uint256 num, bytes message, uint256 stamp);\n    event Wait(uint256 indexed id, address sender, address home, uint256 num, bytes message, uint256 stamp);\n    uint256 logs;\n    modifier isAdmin() {\n        require(role[msg.sender] == 99, \"you're not admin\");\n        _;\n    }\n    modifier isOwner() {\n        require(author == msg.sender, \"you're not owner\");\n        _;\n    }\n    function changeRole(address _to, uint256 _role) external isAdmin() returns(bool){\n        role[_to] = _role;\n        return true;\n    }\n    function makeU(string memory _data) external returns(bool){\n        isUser[msg.sender] = true;\n        role[msg.sender] = 1;\n        uData[msg.sender] = bytes(_data);\n        return true;\n    }\n    function showU() external view returns(string memory, uint256){\n        return(string(uData[msg.sender]),role[msg.sender]);\n    }\n    function withdrawToken(address _contract) external isAdmin() returns(bool){\n        Token20 = IERC20(_contract);  \n        Token20.transfer(author,Token20.balanceOf(address(this)));\n        return true;\n    }\n    function divide(uint256 _a, uint256 _b) internal pure returns(uint256 res){\n        uint256 rem = _a % _b;\n        res = (_a - rem) / _b;\n    }\n    fallback() external{\n\n    }\n}\ncontract Affilly8 is Init{\n\n    constructor(){                                                                                  // feed with utility token address\n        require(msg.sender == author);                                                                          // only author can build\n        role[msg.sender] = 99; \n        percent = 2;                                                                                 // make author admin\n        uData[msg.sender] = bytes('{\"username\":\"@stereoiii6\",\"email\":\"type.stereo@pm.me\"}');                    // set user data\n        isUser[msg.sender] = true;                                                                              // set is user true\n        emit Log(logs,msg.sender,address(this),999,bytes(\"contract created\"),block.timestamp);                  // log\n        logs++;                                                                                                 // iterate log                                                                                   // grab utility token \n    }                                                                        \n\n    struct Campaign { // NFT sale required fields\n        uint256 id;\n        bytes data;\n        address owner;\n        address tokenAddress;\n        uint256 tokenId;\n        uint256 price;\n        address payCurrency;\n        uint256 fee;\n        uint256 duration;\n    }\n\n    struct RefLinks{                                                                                            // Link Structs\n        uint256 id;                                                                                             // id\n        uint256 campaigId;                                                                                      // campaing reference id\n        address promoter;                                                                                       // fee reciever / promoter\n    }                                                                           \n    Campaign[] public campaigns;                                                                                // Campaign Mapping\n    RefLinks[] public links;                                                                                    // List Mapping\n    \n    mapping(address => uint256) internal myCampaignCount;                                                       // counts users campaigns\n    mapping(address => mapping(uint256 => Campaign)) public showCampaign;                                       // maps users campaigns\n    mapping(address => uint256) internal mylinkCount;                                                           // counts users links\n    mapping(address => mapping(uint256 => RefLinks)) public showLinks;                                          // maps users links\n    uint256 c;                                                                                                  // count campaigns\n    uint256 l;                                                                                                  // count links\n    uint256 t;                                                                                                  // count txs\n    modifier isU(){ // role 1\n        require(isUser[msg.sender] == true, \"you are not user\");\n        _;\n    }\n    modifier isProd(){ // role 2\n        require(role[msg.sender] == 1 || role[msg.sender] == 3 || role[msg.sender] == 99, \"you are not producer\");\n        _;\n    }\n    modifier isProm(){ // role 3\n        require(role[msg.sender] == 2 || role[msg.sender] == 3 || role[msg.sender] == 99, \"you are not promoter\");\n        _;\n    }\n    // both role 4 // admin role 99 \n    // become a producer \n    function beProducer() external isU() returns(bool){\n        require(role[msg.sender] != 2, \"you are producer\");\n        if(role[msg.sender] == 1) { role[msg.sender] = 2;}                                                      // if user is guest\n        if(role[msg.sender] == 3) { role[msg.sender] = 4;}                                                      // is user is promoter\n        emit Log(logs,msg.sender,address(this),999,bytes(\"became producer\"),block.timestamp);\n        logs++;\n        return true;\n    }\n    // become a promoter\n    function bePromoter() external isU() returns(bool){\n        require(role[msg.sender] != 3, \"you are promoter\");\n        if(role[msg.sender] == 1) { role[msg.sender] = 3;}                                                      // if user is guest \n        if(role[msg.sender] == 2) { role[msg.sender] = 4;}                                                      // if user is producer\n        emit Log(logs,msg.sender,address(this),999,bytes(\"became promoter\"),block.timestamp);\n        logs++;\n        return true;\n    }\n    // make a ref link\n    function makeLink(uint256 _cid) external isU() isProm() returns(bool){\n        links.push(RefLinks(l, _cid, msg.sender));                                                              // Push reflink to struct mapping\n        mylinkCount[msg.sender]++;                                                                              // iterate user link count\n        showLinks[msg.sender][l] = links[l];                                                                    // preserve links in mapping\n        emit Log(logs,msg.sender,address(this),l,bytes(\"link created\"),block.timestamp);                        // log \n        logs++;                                                                                                 // iterate log\n        l++;                                                                                                    // iterate link\n        return true;    \n    }   \n    // makes ref links for producers automatically  \n    function makeOwnLink(uint256 _cid) internal isU() returns(bool){    \n        links.push(RefLinks(l, _cid, msg.sender));                                                              // Push reflink to struct mapping\n        mylinkCount[msg.sender]++;                                                                              // iterate user link count\n        showLinks[msg.sender][l] = links[l];                                                                    // preserve links in mapping\n        emit Log(logs,msg.sender,address(this),l,bytes(\"link created\"),block.timestamp);                        // log \n        logs++;                                                                                                 // iterate log\n        l++;                                                                                                    // iterate link\n        return true;    \n    }   \n    // make a campaign  \n    function makeCampaign(  \n        uint256 _id,\n        string memory _data,\n        address _owner,\n        address _tokenAddress,\n        uint256 _tokenId,\n        uint256 _price,\n        address _payCurrency,\n        uint256 _fee,\n        uint256 _duration\n        )   \n        external payable isU() isProd() returns(bool){            \n                                                                                                                // transfer mlq to campaign safe\n        campaigns.push(                                                                                         // push campaign to mapping \n            Campaign( \n                 _id,\n                 bytes(_data),\n                 _owner,\n                 _tokenAddress,\n                 _tokenId,\n                 _price*digits,\n                 _payCurrency,\n                 _fee*digits,\n                 _duration*60*60  \n                )   \n            );  \n        myCampaignCount[msg.sender]++;                                                                          // iterate user campaign count\n        showCampaign[msg.sender][c] = campaigns[c];                                                             // preserve user campaign in mapping\n        emit Log(logs,msg.sender,address(this),c,bytes(\". campaign created\"),block.timestamp);                  // log\n        logs++;                                                                                                 // iterate logs\n        makeOwnLink(c);                                                                                         // create ref link for producer\n        l++;                                                                                                    // iterate item mapping\n        c++;                                                                                                    // iterate campaign mapping\n        return true;    \n    }\n    function approveCampaign(uint256 _cid) external returns(bool){\n        Campaign memory camp = campaigns[_cid]; \n        Token721 = IERC721(camp.tokenAddress);\n        Token20 = IERC20(camp.payCurrency);\n        Token721.setApprovalForAll(address(this),true);\n        Token20.approve(address(this),camp.price);\n        return true;\n    }   \n    // finalize a tx    \n    function finalize(uint _rlid) external payable returns(bool){   \n        uint256 cid = links[_rlid].campaigId;                                                                   // grab campaign id\n        address prom = links[_rlid].promoter;  \n        Campaign memory camp = campaigns[cid];                                                                  // grab link promoter\n        uint256 cfee = (100 / camp.price * percent);                                                                    // grab pay value (price - fee)\n        uint256 pay = (100 / camp.price * (100 - percent)) - camp.fee; \n        Token721 = IERC721(camp.tokenAddress);\n        if(camp.payCurrency != 0x0000000000000000000000000000000000000000) {\n            Token20 = IERC20(camp.payCurrency);\n            require(Token20.balanceOf(msg.sender) >= camp.price);\n            Token20.transferFrom(msg.sender, camp.owner, pay); // pay the nft\n            Token721.transferFrom(camp.owner, msg.sender, camp.tokenId); // send the nft\n            Token20.transferFrom(msg.sender, prom, camp.fee); // pay the promoter\n            Token20.transferFrom(msg.sender, address(this), cfee); // pay the contract\n            }\n        else {\n            require(msg.value >= camp.price);\n            payable(camp.owner).transfer(pay);  // pay nft\n            Token721.transferFrom(camp.owner, msg.sender, camp.tokenId); // send the nft\n            payable(prom).transfer(camp.fee);   // send the nft\n            payable(address(this)).transfer(cfee); // pay the contract\n        }\n        emit Log(logs,msg.sender,address(this),_rlid,bytes(\"link tx failed\"),block.timestamp);                  // log\n        logs++;                                                                                                 // iterate log\n        return true;\n    }\n    \n}",
  "sourcePath": "/Users/jediswag/Documents/GitHub/affilly8/contracts/Afillly8.sol",
  "compiler": {
    "name": "solc",
    "version": "0.8.13+commit.abaa5c0e.Emscripten.clang"
  },
  "schemaVersion": "3.4.4",
  "updatedAt": "2022-05-05T05:05:00.285Z",
  "networkType": "ethereum",
  "devdoc": {
    "kind": "dev",
    "methods": {},
    "version": 1
  },
  "userdoc": {
    "kind": "user",
    "methods": {},
    "version": 1
  }
}