{
  "contractName": "DynMem",
  "abi": [
    {
      "inputs": [],
      "stateMutability": "nonpayable",
      "type": "constructor"
    },
    {
      "anonymous": false,
      "inputs": [
        {
          "indexed": true,
          "internalType": "address",
          "name": "account",
          "type": "address"
        },
        {
          "indexed": true,
          "internalType": "address",
          "name": "operator",
          "type": "address"
        },
        {
          "indexed": false,
          "internalType": "bool",
          "name": "approved",
          "type": "bool"
        }
      ],
      "name": "ApprovalForAll",
      "type": "event"
    },
    {
      "anonymous": false,
      "inputs": [
        {
          "indexed": true,
          "internalType": "uint256",
          "name": "_a",
          "type": "uint256"
        },
        {
          "indexed": false,
          "internalType": "string",
          "name": "_log",
          "type": "string"
        },
        {
          "indexed": false,
          "internalType": "address",
          "name": "_adr",
          "type": "address"
        },
        {
          "indexed": false,
          "internalType": "uint256",
          "name": "_tmstmp",
          "type": "uint256"
        }
      ],
      "name": "Log",
      "type": "event"
    },
    {
      "anonymous": false,
      "inputs": [
        {
          "indexed": true,
          "internalType": "address",
          "name": "operator",
          "type": "address"
        },
        {
          "indexed": true,
          "internalType": "address",
          "name": "from",
          "type": "address"
        },
        {
          "indexed": true,
          "internalType": "address",
          "name": "to",
          "type": "address"
        },
        {
          "indexed": false,
          "internalType": "uint256[]",
          "name": "ids",
          "type": "uint256[]"
        },
        {
          "indexed": false,
          "internalType": "uint256[]",
          "name": "values",
          "type": "uint256[]"
        }
      ],
      "name": "TransferBatch",
      "type": "event"
    },
    {
      "anonymous": false,
      "inputs": [
        {
          "indexed": true,
          "internalType": "address",
          "name": "operator",
          "type": "address"
        },
        {
          "indexed": true,
          "internalType": "address",
          "name": "from",
          "type": "address"
        },
        {
          "indexed": true,
          "internalType": "address",
          "name": "to",
          "type": "address"
        },
        {
          "indexed": false,
          "internalType": "uint256",
          "name": "id",
          "type": "uint256"
        },
        {
          "indexed": false,
          "internalType": "uint256",
          "name": "value",
          "type": "uint256"
        }
      ],
      "name": "TransferSingle",
      "type": "event"
    },
    {
      "anonymous": false,
      "inputs": [
        {
          "indexed": false,
          "internalType": "string",
          "name": "value",
          "type": "string"
        },
        {
          "indexed": true,
          "internalType": "uint256",
          "name": "id",
          "type": "uint256"
        }
      ],
      "name": "URI",
      "type": "event"
    },
    {
      "stateMutability": "nonpayable",
      "type": "fallback"
    },
    {
      "inputs": [
        {
          "internalType": "address",
          "name": "account",
          "type": "address"
        },
        {
          "internalType": "uint256",
          "name": "id",
          "type": "uint256"
        }
      ],
      "name": "balanceOf",
      "outputs": [
        {
          "internalType": "uint256",
          "name": "",
          "type": "uint256"
        }
      ],
      "stateMutability": "view",
      "type": "function"
    },
    {
      "inputs": [
        {
          "internalType": "address[]",
          "name": "accounts",
          "type": "address[]"
        },
        {
          "internalType": "uint256[]",
          "name": "ids",
          "type": "uint256[]"
        }
      ],
      "name": "balanceOfBatch",
      "outputs": [
        {
          "internalType": "uint256[]",
          "name": "",
          "type": "uint256[]"
        }
      ],
      "stateMutability": "view",
      "type": "function"
    },
    {
      "inputs": [
        {
          "internalType": "address",
          "name": "account",
          "type": "address"
        },
        {
          "internalType": "address",
          "name": "operator",
          "type": "address"
        }
      ],
      "name": "isApprovedForAll",
      "outputs": [
        {
          "internalType": "bool",
          "name": "",
          "type": "bool"
        }
      ],
      "stateMutability": "view",
      "type": "function"
    },
    {
      "inputs": [
        {
          "internalType": "uint256",
          "name": "",
          "type": "uint256"
        }
      ],
      "name": "members",
      "outputs": [
        {
          "internalType": "uint256",
          "name": "memID",
          "type": "uint256"
        },
        {
          "internalType": "address",
          "name": "adr",
          "type": "address"
        },
        {
          "internalType": "string",
          "name": "name",
          "type": "string"
        },
        {
          "internalType": "uint256",
          "name": "rank",
          "type": "uint256"
        },
        {
          "internalType": "uint256",
          "name": "bday",
          "type": "uint256"
        },
        {
          "internalType": "uint256",
          "name": "since",
          "type": "uint256"
        },
        {
          "internalType": "string",
          "name": "status",
          "type": "string"
        },
        {
          "internalType": "string",
          "name": "dias",
          "type": "string"
        }
      ],
      "stateMutability": "view",
      "type": "function"
    },
    {
      "inputs": [],
      "name": "randomResult",
      "outputs": [
        {
          "internalType": "uint256",
          "name": "",
          "type": "uint256"
        }
      ],
      "stateMutability": "view",
      "type": "function"
    },
    {
      "inputs": [
        {
          "internalType": "bytes32",
          "name": "requestId",
          "type": "bytes32"
        },
        {
          "internalType": "uint256",
          "name": "randomness",
          "type": "uint256"
        }
      ],
      "name": "rawFulfillRandomness",
      "outputs": [],
      "stateMutability": "nonpayable",
      "type": "function"
    },
    {
      "inputs": [
        {
          "internalType": "address",
          "name": "from",
          "type": "address"
        },
        {
          "internalType": "address",
          "name": "to",
          "type": "address"
        },
        {
          "internalType": "uint256[]",
          "name": "ids",
          "type": "uint256[]"
        },
        {
          "internalType": "uint256[]",
          "name": "amounts",
          "type": "uint256[]"
        },
        {
          "internalType": "bytes",
          "name": "data",
          "type": "bytes"
        }
      ],
      "name": "safeBatchTransferFrom",
      "outputs": [],
      "stateMutability": "nonpayable",
      "type": "function"
    },
    {
      "inputs": [
        {
          "internalType": "address",
          "name": "from",
          "type": "address"
        },
        {
          "internalType": "address",
          "name": "to",
          "type": "address"
        },
        {
          "internalType": "uint256",
          "name": "id",
          "type": "uint256"
        },
        {
          "internalType": "uint256",
          "name": "amount",
          "type": "uint256"
        },
        {
          "internalType": "bytes",
          "name": "data",
          "type": "bytes"
        }
      ],
      "name": "safeTransferFrom",
      "outputs": [],
      "stateMutability": "nonpayable",
      "type": "function"
    },
    {
      "inputs": [
        {
          "internalType": "address",
          "name": "operator",
          "type": "address"
        },
        {
          "internalType": "bool",
          "name": "approved",
          "type": "bool"
        }
      ],
      "name": "setApprovalForAll",
      "outputs": [],
      "stateMutability": "nonpayable",
      "type": "function"
    },
    {
      "inputs": [
        {
          "internalType": "bytes4",
          "name": "interfaceId",
          "type": "bytes4"
        }
      ],
      "name": "supportsInterface",
      "outputs": [
        {
          "internalType": "bool",
          "name": "",
          "type": "bool"
        }
      ],
      "stateMutability": "view",
      "type": "function"
    },
    {
      "inputs": [
        {
          "internalType": "uint256",
          "name": "",
          "type": "uint256"
        }
      ],
      "name": "uri",
      "outputs": [
        {
          "internalType": "string",
          "name": "",
          "type": "string"
        }
      ],
      "stateMutability": "view",
      "type": "function"
    },
    {
      "inputs": [
        {
          "internalType": "string",
          "name": "_message",
          "type": "string"
        }
      ],
      "name": "getMsgHash",
      "outputs": [
        {
          "internalType": "bytes32",
          "name": "",
          "type": "bytes32"
        }
      ],
      "stateMutability": "pure",
      "type": "function"
    },
    {
      "inputs": [
        {
          "internalType": "bytes32",
          "name": "_mHash",
          "type": "bytes32"
        }
      ],
      "name": "getEthMsgHash",
      "outputs": [
        {
          "internalType": "bytes32",
          "name": "",
          "type": "bytes32"
        }
      ],
      "stateMutability": "pure",
      "type": "function"
    },
    {
      "inputs": [
        {
          "internalType": "bytes32",
          "name": "_ethSigMsgHash",
          "type": "bytes32"
        },
        {
          "internalType": "bytes",
          "name": "_sig",
          "type": "bytes"
        }
      ],
      "name": "recover",
      "outputs": [
        {
          "internalType": "address",
          "name": "",
          "type": "address"
        }
      ],
      "stateMutability": "pure",
      "type": "function"
    },
    {
      "inputs": [
        {
          "internalType": "address",
          "name": "_signer",
          "type": "address"
        },
        {
          "internalType": "string",
          "name": "_message",
          "type": "string"
        },
        {
          "internalType": "bytes",
          "name": "_sig",
          "type": "bytes"
        }
      ],
      "name": "verify",
      "outputs": [
        {
          "internalType": "bool",
          "name": "",
          "type": "bool"
        }
      ],
      "stateMutability": "pure",
      "type": "function"
    },
    {
      "inputs": [],
      "name": "isSigned",
      "outputs": [
        {
          "internalType": "uint256",
          "name": "",
          "type": "uint256"
        }
      ],
      "stateMutability": "view",
      "type": "function"
    },
    {
      "inputs": [],
      "name": "getRandomResult",
      "outputs": [
        {
          "internalType": "uint256",
          "name": "",
          "type": "uint256"
        }
      ],
      "stateMutability": "view",
      "type": "function"
    },
    {
      "inputs": [
        {
          "internalType": "address",
          "name": "_adr",
          "type": "address"
        }
      ],
      "name": "slotId",
      "outputs": [
        {
          "internalType": "uint256",
          "name": "",
          "type": "uint256"
        }
      ],
      "stateMutability": "view",
      "type": "function"
    },
    {
      "inputs": [],
      "name": "countMem",
      "outputs": [
        {
          "internalType": "uint256",
          "name": "",
          "type": "uint256"
        }
      ],
      "stateMutability": "view",
      "type": "function"
    },
    {
      "inputs": [
        {
          "internalType": "string",
          "name": "_name",
          "type": "string"
        },
        {
          "internalType": "uint256",
          "name": "_rank",
          "type": "uint256"
        },
        {
          "internalType": "uint256",
          "name": "_bday",
          "type": "uint256"
        },
        {
          "internalType": "string",
          "name": "_dias",
          "type": "string"
        },
        {
          "internalType": "string",
          "name": "_status",
          "type": "string"
        }
      ],
      "name": "makeMember",
      "outputs": [
        {
          "internalType": "bool",
          "name": "",
          "type": "bool"
        }
      ],
      "stateMutability": "nonpayable",
      "type": "function"
    },
    {
      "inputs": [
        {
          "internalType": "uint256",
          "name": "_id",
          "type": "uint256"
        },
        {
          "internalType": "uint256",
          "name": "_rank",
          "type": "uint256"
        },
        {
          "internalType": "uint256",
          "name": "_since",
          "type": "uint256"
        },
        {
          "internalType": "string",
          "name": "_status",
          "type": "string"
        }
      ],
      "name": "editMember",
      "outputs": [
        {
          "internalType": "bool",
          "name": "",
          "type": "bool"
        }
      ],
      "stateMutability": "nonpayable",
      "type": "function"
    },
    {
      "inputs": [
        {
          "internalType": "string",
          "name": "_status",
          "type": "string"
        }
      ],
      "name": "setStatus",
      "outputs": [
        {
          "internalType": "bool",
          "name": "",
          "type": "bool"
        }
      ],
      "stateMutability": "nonpayable",
      "type": "function"
    },
    {
      "inputs": [],
      "name": "withdraw",
      "outputs": [
        {
          "internalType": "bool",
          "name": "",
          "type": "bool"
        }
      ],
      "stateMutability": "nonpayable",
      "type": "function"
    },
    {
      "inputs": [],
      "name": "doRand",
      "outputs": [
        {
          "internalType": "bool",
          "name": "",
          "type": "bool"
        }
      ],
      "stateMutability": "nonpayable",
      "type": "function"
    }
  ],
  "bytecode": "0x60c06040523480156200001157600080fd5b50738c7382f9d8f56b33781fe506e897a4f1e2d1725573326c977e6efc84e512bb9c30f76e30c160ed06fb6040518060400160405280601281526020017f44796e616d6963204d656d62657273686970000000000000000000000000000081525062000083816200017c60201b60201c565b508173ffffffffffffffffffffffffffffffffffffffff1660a08173ffffffffffffffffffffffffffffffffffffffff16815250508073ffffffffffffffffffffffffffffffffffffffff1660808173ffffffffffffffffffffffffffffffffffffffff1681525050505033600860006101000a81548173ffffffffffffffffffffffffffffffffffffffff021916908373ffffffffffffffffffffffffffffffffffffffff1602179055507f6e75b569a01ef56d18cab6a8e71e6600d6ce853834d4a5748b720d06f878b3a460001b600481905550655af3107a40006005819055506001600a819055506001600981905550620002ac565b80600290805190602001906200019492919062000198565b5050565b828054620001a69062000277565b90600052602060002090601f016020900481019282620001ca576000855562000216565b82601f10620001e557805160ff191683800117855562000216565b8280016001018555821562000216579182015b8281111562000215578251825591602001919060010190620001f8565b5b50905062000225919062000229565b5090565b5b80821115620002445760008160009055506001016200022a565b5090565b7f4e487b7100000000000000000000000000000000000000000000000000000000600052602260045260246000fd5b600060028204905060018216806200029057607f821691505b602082108103620002a657620002a562000248565b5b50919050565b60805160a0516145ef620002e0600039600081816113f70152612149015260008181611775015261210d01526145ef6000f3fe608060405234801561001057600080fd5b506004361061015b5760003560e01c80636ed85a72116100c3578063a22cb4651161007c578063a22cb46514610443578063bd3437651461045f578063e66a6b221461048f578063e985e9c5146104ad578063f242432a146104dd578063f47eadfa146104f95761015c565b80636ed85a721461035b57806371e00add1461038b5780637390c786146103a95780637d2211d6146103c757806384caa86a146103f757806394985ddd146104275761015c565b80632eb2c2d6116101155780632eb2c2d61461026c578063383ff076146102885780633ccfd60b146102b857806342619f66146102d65780634e1273f4146102f45780635daf08ca146103245761015c565b8062fdd58e1461015e57806301ffc9a71461018e5780630e89341c146101be57806319045a25146101ee5780631b752bfb1461021e5780632dd34f0f1461023c5761015c565b5b005b61017860048036038101906101739190612859565b610529565b60405161018591906128a8565b60405180910390f35b6101a860048036038101906101a3919061291b565b6105f1565b6040516101b59190612963565b60405180910390f35b6101d860048036038101906101d3919061297e565b6106d3565b6040516101e59190612a44565b60405180910390f35b61020860048036038101906102039190612bd1565b610767565b6040516102159190612c3c565b60405180910390f35b6102266107d6565b6040516102339190612963565b60405180910390f35b61025660048036038101906102519190612cf8565b6107e8565b6040516102639190612963565b60405180910390f35b61028660048036038101906102819190612e4b565b610846565b005b6102a2600480360381019061029d9190612f1a565b6108e7565b6040516102af9190612963565b60405180910390f35b6102c0610a6b565b6040516102cd9190612963565b60405180910390f35b6102de610bd0565b6040516102eb91906128a8565b60405180910390f35b61030e60048036038101906103099190613060565b610bd6565b60405161031b9190613196565b60405180910390f35b61033e6004803603810190610339919061297e565b610cef565b6040516103529897969594939291906131b8565b60405180910390f35b610375600480360381019061037091906132a6565b610eff565b6040516103829190612963565b60405180910390f35b6103936112d5565b6040516103a091906128a8565b60405180910390f35b6103b16112df565b6040516103be91906128a8565b60405180910390f35b6103e160048036038101906103dc9190613382565b6112e9565b6040516103ee9190612963565b60405180910390f35b610411600480360381019061040c91906133cb565b6113c5565b60405161041e9190613407565b60405180910390f35b610441600480360381019061043c9190613422565b6113f5565b005b61045d6004803603810190610458919061348e565b611491565b005b610479600480360381019061047491906134ce565b6114a7565b60405161048691906128a8565b60405180910390f35b6104976114f0565b6040516104a491906128a8565b60405180910390f35b6104c760048036038101906104c291906134fb565b611537565b6040516104d49190612963565b60405180910390f35b6104f760048036038101906104f2919061353b565b6115cb565b005b610513600480360381019061050e9190613382565b61166c565b6040516105209190613407565b60405180910390f35b60008073ffffffffffffffffffffffffffffffffffffffff168373ffffffffffffffffffffffffffffffffffffffff1603610599576040517f08c379a000000000000000000000000000000000000000000000000000000000815260040161059090613644565b60405180910390fd5b60008083815260200190815260200160002060008473ffffffffffffffffffffffffffffffffffffffff1673ffffffffffffffffffffffffffffffffffffffff16815260200190815260200160002054905092915050565b60007fd9b67a26000000000000000000000000000000000000000000000000000000007bffffffffffffffffffffffffffffffffffffffffffffffffffffffff1916827bffffffffffffffffffffffffffffffffffffffffffffffffffffffff191614806106bc57507f0e89341c000000000000000000000000000000000000000000000000000000007bffffffffffffffffffffffffffffffffffffffffffffffffffffffff1916827bffffffffffffffffffffffffffffffffffffffffffffffffffffffff1916145b806106cc57506106cb8261169c565b5b9050919050565b6060600280546106e290613693565b80601f016020809104026020016040519081016040528092919081815260200182805461070e90613693565b801561075b5780601f106107305761010080835404028352916020019161075b565b820191906000526020600020905b81548152906001019060200180831161073e57829003601f168201915b50505050509050919050565b60008060008061077685611706565b9250925092506001868285856040516000815260200160405260405161079f94939291906136e0565b6020604051602081039080840390855afa1580156107c1573d6000803e3d6000fd5b50505060206040510351935050505092915050565b60006107e061176e565b506001905090565b6000806107f48461166c565b90506000610801826113c5565b90508573ffffffffffffffffffffffffffffffffffffffff166108248286610767565b73ffffffffffffffffffffffffffffffffffffffff1614925050509392505050565b61084e611861565b73ffffffffffffffffffffffffffffffffffffffff168573ffffffffffffffffffffffffffffffffffffffff16148061089457506108938561088e611861565b611537565b5b6108d3576040517f08c379a00000000000000000000000000000000000000000000000000000000081526004016108ca90613797565b60405180910390fd5b6108e08585858585611869565b5050505050565b6000600860009054906101000a900473ffffffffffffffffffffffffffffffffffffffff1673ffffffffffffffffffffffffffffffffffffffff163373ffffffffffffffffffffffffffffffffffffffff1614610979576040517f08c379a000000000000000000000000000000000000000000000000000000000815260040161097090613803565b60405180910390fd5b83600b868154811061098e5761098d613823565b5b90600052602060002090600802016003018190555082600b86815481106109b8576109b7613823565b5b90600052602060002090600802016005018190555081600b86815481106109e2576109e1613823565b5b90600052602060002090600802016006019080519060200190610a0692919061270e565b506009547fe3648883f47ec1d53d0270c8601b9913cef3f9c1a20160105a9fa31101ac5b28833342604051610a3d93929190613852565b60405180910390a2600160096000828254610a5891906138bf565b9250508190555060019050949350505050565b6000600860009054906101000a900473ffffffffffffffffffffffffffffffffffffffff1673ffffffffffffffffffffffffffffffffffffffff163373ffffffffffffffffffffffffffffffffffffffff1614610afd576040517f08c379a0000000000000000000000000000000000000000000000000000000008152600401610af490613803565b60405180910390fd5b60004711610b0a57600080fd5b600860009054906101000a900473ffffffffffffffffffffffffffffffffffffffff1673ffffffffffffffffffffffffffffffffffffffff166108fc479081150290604051600060405180830381858888f19350505050158015610b72573d6000803e3d6000fd5b506009547fe3648883f47ec1d53d0270c8601b9913cef3f9c1a20160105a9fa31101ac5b283342604051610ba7929190613961565b60405180910390a2600160096000828254610bc291906138bf565b925050819055506001905090565b60065481565b60608151835114610c1c576040517f08c379a0000000000000000000000000000000000000000000000000000000008152600401610c1390613a0f565b60405180910390fd5b6000835167ffffffffffffffff811115610c3957610c38612aa6565b5b604051908082528060200260200182016040528015610c675781602001602082028036833780820191505090505b50905060005b8451811015610ce457610cb4858281518110610c8c57610c8b613823565b5b6020026020010151858381518110610ca757610ca6613823565b5b6020026020010151610529565b828281518110610cc757610cc6613823565b5b60200260200101818152505080610cdd90613a2f565b9050610c6d565b508091505092915050565b600b8181548110610cff57600080fd5b90600052602060002090600802016000915090508060000154908060010160009054906101000a900473ffffffffffffffffffffffffffffffffffffffff1690806002018054610d4e90613693565b80601f0160208091040260200160405190810160405280929190818152602001828054610d7a90613693565b8015610dc75780601f10610d9c57610100808354040283529160200191610dc7565b820191906000526020600020905b815481529060010190602001808311610daa57829003601f168201915b505050505090806003015490806004015490806005015490806006018054610dee90613693565b80601f0160208091040260200160405190810160405280929190818152602001828054610e1a90613693565b8015610e675780601f10610e3c57610100808354040283529160200191610e67565b820191906000526020600020905b815481529060010190602001808311610e4a57829003601f168201915b505050505090806007018054610e7c90613693565b80601f0160208091040260200160405190810160405280929190818152602001828054610ea890613693565b8015610ef55780601f10610eca57610100808354040283529160200191610ef5565b820191906000526020600020905b815481529060010190602001808311610ed857829003601f168201915b5050505050905088565b600080151560076000600654815260200190815260200160002060009054906101000a900460ff16151514610f3357600080fd5b600b60405180610100016040528060065481526020013373ffffffffffffffffffffffffffffffffffffffff1681526020018b8b8080601f016020809104026020016040519081016040528093929190818152602001838380828437600081840152601f19601f82011690508083019250505050505050815260200189815260200188815260200142815260200185858080601f016020809104026020016040519081016040528093929190818152602001838380828437600081840152601f19601f82011690508083019250505050505050815260200187878080601f016020809104026020016040519081016040528093929190818152602001838380828437600081840152601f19601f8201169050808301925050505050505081525090806001815401808255809150506001900390600052602060002090600802016000909190919091506000820151816000015560208201518160010160006101000a81548173ffffffffffffffffffffffffffffffffffffffff021916908373ffffffffffffffffffffffffffffffffffffffff16021790555060408201518160020190805190602001906110e992919061270e565b50606082015181600301556080820151816004015560a0820151816005015560c082015181600601908051906020019061112492919061270e565b5060e082015181600701908051906020019061114192919061270e565b505050600654600c60003373ffffffffffffffffffffffffffffffffffffffff1673ffffffffffffffffffffffffffffffffffffffff16815260200190815260200160002081905550600a54600d60003373ffffffffffffffffffffffffffffffffffffffff1673ffffffffffffffffffffffffffffffffffffffff1681526020019081526020016000208190555061122333600654600188888080601f016020809104026020016040519081016040528093929190818152602001838380828437600081840152601f19601f82011690508083019250505050505050611b7c565b600160076000600654815260200190815260200160002060006101000a81548160ff0219169083151502179055506009547fe3648883f47ec1d53d0270c8601b9913cef3f9c1a20160105a9fa31101ac5b288a8a33426040516112899493929190613aa4565b60405180910390a26001600960008282546112a491906138bf565b925050819055506001600a60008282546112be91906138bf565b925050819055506001905098975050505050505050565b6000600a54905090565b6000600654905090565b600081600b600c60003373ffffffffffffffffffffffffffffffffffffffff1673ffffffffffffffffffffffffffffffffffffffff168152602001908152602001600020548154811061133f5761133e613823565b5b9060005260206000209060080201600601908051906020019061136392919061270e565b506009547fe3648883f47ec1d53d0270c8601b9913cef3f9c1a20160105a9fa31101ac5b2883334260405161139a93929190613852565b60405180910390a26001600960008282546113b591906138bf565b9250508190555060019050919050565b6000816040516020016113d89190613b5c565b604051602081830303815290604052805190602001209050919050565b7f000000000000000000000000000000000000000000000000000000000000000073ffffffffffffffffffffffffffffffffffffffff163373ffffffffffffffffffffffffffffffffffffffff1614611483576040517f08c379a000000000000000000000000000000000000000000000000000000000815260040161147a90613bce565b60405180910390fd5b61148d8282611d11565b5050565b6114a361149c611861565b8383611d1c565b5050565b6000600d60008373ffffffffffffffffffffffffffffffffffffffff1673ffffffffffffffffffffffffffffffffffffffff168152602001908152602001600020549050919050565b6000600c60003373ffffffffffffffffffffffffffffffffffffffff1673ffffffffffffffffffffffffffffffffffffffff16815260200190815260200160002054905090565b6000600160008473ffffffffffffffffffffffffffffffffffffffff1673ffffffffffffffffffffffffffffffffffffffff16815260200190815260200160002060008373ffffffffffffffffffffffffffffffffffffffff1673ffffffffffffffffffffffffffffffffffffffff16815260200190815260200160002060009054906101000a900460ff16905092915050565b6115d3611861565b73ffffffffffffffffffffffffffffffffffffffff168573ffffffffffffffffffffffffffffffffffffffff161480611619575061161885611613611861565b611537565b5b611658576040517f08c379a000000000000000000000000000000000000000000000000000000000815260040161164f90613c60565b60405180910390fd5b6116658585858585611e88565b5050505050565b60008160405160200161167f9190613cb1565b604051602081830303815290604052805190602001209050919050565b60007f01ffc9a7000000000000000000000000000000000000000000000000000000007bffffffffffffffffffffffffffffffffffffffffffffffffffffffff1916827bffffffffffffffffffffffffffffffffffffffffffffffffffffffff1916149050919050565b6000806000604184511461174f576040517f08c379a000000000000000000000000000000000000000000000000000000000815260040161174690613d14565b60405180910390fd5b6020840151925060408401519150606084015160001a90509193909250565b60006005547f000000000000000000000000000000000000000000000000000000000000000073ffffffffffffffffffffffffffffffffffffffff166370a08231306040518263ffffffff1660e01b81526004016117cc9190612c3c565b602060405180830381865afa1580156117e9573d6000803e3d6000fd5b505050506040513d601f19601f8201168201806040525081019061180d9190613d49565b101561184e576040517f08c379a000000000000000000000000000000000000000000000000000000000815260040161184590613de8565b60405180910390fd5b61185c600454600554612109565b905090565b600033905090565b81518351146118ad576040517f08c379a00000000000000000000000000000000000000000000000000000000081526004016118a490613e7a565b60405180910390fd5b600073ffffffffffffffffffffffffffffffffffffffff168473ffffffffffffffffffffffffffffffffffffffff160361191c576040517f08c379a000000000000000000000000000000000000000000000000000000000815260040161191390613f0c565b60405180910390fd5b6000611926611861565b905061193681878787878761225c565b60005b8451811015611ae757600085828151811061195757611956613823565b5b60200260200101519050600085838151811061197657611975613823565b5b60200260200101519050600080600084815260200190815260200160002060008b73ffffffffffffffffffffffffffffffffffffffff1673ffffffffffffffffffffffffffffffffffffffff16815260200190815260200160002054905081811015611a17576040517f08c379a0000000000000000000000000000000000000000000000000000000008152600401611a0e90613f9e565b60405180910390fd5b81810360008085815260200190815260200160002060008c73ffffffffffffffffffffffffffffffffffffffff1673ffffffffffffffffffffffffffffffffffffffff168152602001908152602001600020819055508160008085815260200190815260200160002060008b73ffffffffffffffffffffffffffffffffffffffff1673ffffffffffffffffffffffffffffffffffffffff1681526020019081526020016000206000828254611acc91906138bf565b9250508190555050505080611ae090613a2f565b9050611939565b508473ffffffffffffffffffffffffffffffffffffffff168673ffffffffffffffffffffffffffffffffffffffff168273ffffffffffffffffffffffffffffffffffffffff167f4a39dc06d4c0dbc64b70af90fd698a233a518aa5d07e595d983b8c0526c8f7fb8787604051611b5e929190613fbe565b60405180910390a4611b74818787878787612264565b505050505050565b600073ffffffffffffffffffffffffffffffffffffffff168473ffffffffffffffffffffffffffffffffffffffff1603611beb576040517f08c379a0000000000000000000000000000000000000000000000000000000008152600401611be290614067565b60405180910390fd5b6000611bf5611861565b9050611c1681600087611c078861243b565b611c108861243b565b8761225c565b8260008086815260200190815260200160002060008773ffffffffffffffffffffffffffffffffffffffff1673ffffffffffffffffffffffffffffffffffffffff1681526020019081526020016000206000828254611c7591906138bf565b925050819055508473ffffffffffffffffffffffffffffffffffffffff16600073ffffffffffffffffffffffffffffffffffffffff168273ffffffffffffffffffffffffffffffffffffffff167fc3d58168c5ae7397731d063d5bbf3d657854427343f4c083240f7aacaa2d0f628787604051611cf3929190614087565b60405180910390a4611d0a816000878787876124b5565b5050505050565b806006819055505050565b8173ffffffffffffffffffffffffffffffffffffffff168373ffffffffffffffffffffffffffffffffffffffff1603611d8a576040517f08c379a0000000000000000000000000000000000000000000000000000000008152600401611d8190614122565b60405180910390fd5b80600160008573ffffffffffffffffffffffffffffffffffffffff1673ffffffffffffffffffffffffffffffffffffffff16815260200190815260200160002060008473ffffffffffffffffffffffffffffffffffffffff1673ffffffffffffffffffffffffffffffffffffffff16815260200190815260200160002060006101000a81548160ff0219169083151502179055508173ffffffffffffffffffffffffffffffffffffffff168373ffffffffffffffffffffffffffffffffffffffff167f17307eab39ab6107e8899845ad3d59bd9653f200f220920489ca2b5937696c3183604051611e7b9190612963565b60405180910390a3505050565b600073ffffffffffffffffffffffffffffffffffffffff168473ffffffffffffffffffffffffffffffffffffffff1603611ef7576040517f08c379a0000000000000000000000000000000000000000000000000000000008152600401611eee90613f0c565b60405180910390fd5b6000611f01611861565b9050611f21818787611f128861243b565b611f1b8861243b565b8761225c565b600080600086815260200190815260200160002060008873ffffffffffffffffffffffffffffffffffffffff1673ffffffffffffffffffffffffffffffffffffffff16815260200190815260200160002054905083811015611fb8576040517f08c379a0000000000000000000000000000000000000000000000000000000008152600401611faf90613f9e565b60405180910390fd5b83810360008087815260200190815260200160002060008973ffffffffffffffffffffffffffffffffffffffff1673ffffffffffffffffffffffffffffffffffffffff168152602001908152602001600020819055508360008087815260200190815260200160002060008873ffffffffffffffffffffffffffffffffffffffff1673ffffffffffffffffffffffffffffffffffffffff168152602001908152602001600020600082825461206d91906138bf565b925050819055508573ffffffffffffffffffffffffffffffffffffffff168773ffffffffffffffffffffffffffffffffffffffff168373ffffffffffffffffffffffffffffffffffffffff167fc3d58168c5ae7397731d063d5bbf3d657854427343f4c083240f7aacaa2d0f6288886040516120ea929190614087565b60405180910390a46121008288888888886124b5565b50505050505050565b60007f000000000000000000000000000000000000000000000000000000000000000073ffffffffffffffffffffffffffffffffffffffff16634000aea07f00000000000000000000000000000000000000000000000000000000000000008486600060405160200161217d929190614142565b6040516020818303038152906040526040518463ffffffff1660e01b81526004016121aa939291906141c0565b6020604051808303816000875af11580156121c9573d6000803e3d6000fd5b505050506040513d601f19601f820116820180604052508101906121ed9190614213565b50600061221084600030600360008981526020019081526020016000205461268c565b90506001600360008681526020019081526020016000205461223291906138bf565b600360008681526020019081526020016000208190555061225384826126c8565b91505092915050565b505050505050565b6122838473ffffffffffffffffffffffffffffffffffffffff166126fb565b15612433578373ffffffffffffffffffffffffffffffffffffffff1663bc197c8187878686866040518663ffffffff1660e01b81526004016122c9959493929190614240565b6020604051808303816000875af192505050801561230557506040513d601f19601f8201168201806040525081019061230291906142bd565b60015b6123aa576123116142f7565b806308c379a00361236d5750612325614319565b80612330575061236f565b806040517f08c379a00000000000000000000000000000000000000000000000000000000081526004016123649190612a44565b60405180910390fd5b505b6040517f08c379a00000000000000000000000000000000000000000000000000000000081526004016123a19061441b565b60405180910390fd5b63bc197c8160e01b7bffffffffffffffffffffffffffffffffffffffffffffffffffffffff1916817bffffffffffffffffffffffffffffffffffffffffffffffffffffffff191614612431576040517f08c379a0000000000000000000000000000000000000000000000000000000008152600401612428906144ad565b60405180910390fd5b505b505050505050565b60606000600167ffffffffffffffff81111561245a57612459612aa6565b5b6040519080825280602002602001820160405280156124885781602001602082028036833780820191505090505b50905082816000815181106124a05761249f613823565b5b60200260200101818152505080915050919050565b6124d48473ffffffffffffffffffffffffffffffffffffffff166126fb565b15612684578373ffffffffffffffffffffffffffffffffffffffff1663f23a6e6187878686866040518663ffffffff1660e01b815260040161251a9594939291906144cd565b6020604051808303816000875af192505050801561255657506040513d601f19601f8201168201806040525081019061255391906142bd565b60015b6125fb576125626142f7565b806308c379a0036125be5750612576614319565b8061258157506125c0565b806040517f08c379a00000000000000000000000000000000000000000000000000000000081526004016125b59190612a44565b60405180910390fd5b505b6040517f08c379a00000000000000000000000000000000000000000000000000000000081526004016125f29061441b565b60405180910390fd5b63f23a6e6160e01b7bffffffffffffffffffffffffffffffffffffffffffffffffffffffff1916817bffffffffffffffffffffffffffffffffffffffffffffffffffffffff191614612682576040517f08c379a0000000000000000000000000000000000000000000000000000000008152600401612679906144ad565b60405180910390fd5b505b505050505050565b6000848484846040516020016126a59493929190614527565b6040516020818303038152906040528051906020012060001c9050949350505050565b600082826040516020016126dd92919061458d565b60405160208183030381529060405280519060200120905092915050565b600080823b905060008111915050919050565b82805461271a90613693565b90600052602060002090601f01602090048101928261273c5760008555612783565b82601f1061275557805160ff1916838001178555612783565b82800160010185558215612783579182015b82811115612782578251825591602001919060010190612767565b5b5090506127909190612794565b5090565b5b808211156127ad576000816000905550600101612795565b5090565b6000604051905090565b600080fd5b600080fd5b600073ffffffffffffffffffffffffffffffffffffffff82169050919050565b60006127f0826127c5565b9050919050565b612800816127e5565b811461280b57600080fd5b50565b60008135905061281d816127f7565b92915050565b6000819050919050565b61283681612823565b811461284157600080fd5b50565b6000813590506128538161282d565b92915050565b600080604083850312156128705761286f6127bb565b5b600061287e8582860161280e565b925050602061288f85828601612844565b9150509250929050565b6128a281612823565b82525050565b60006020820190506128bd6000830184612899565b92915050565b60007fffffffff0000000000000000000000000000000000000000000000000000000082169050919050565b6128f8816128c3565b811461290357600080fd5b50565b600081359050612915816128ef565b92915050565b600060208284031215612931576129306127bb565b5b600061293f84828501612906565b91505092915050565b60008115159050919050565b61295d81612948565b82525050565b60006020820190506129786000830184612954565b92915050565b600060208284031215612994576129936127bb565b5b60006129a284828501612844565b91505092915050565b600081519050919050565b600082825260208201905092915050565b60005b838110156129e55780820151818401526020810190506129ca565b838111156129f4576000848401525b50505050565b6000601f19601f8301169050919050565b6000612a16826129ab565b612a2081856129b6565b9350612a308185602086016129c7565b612a39816129fa565b840191505092915050565b60006020820190508181036000830152612a5e8184612a0b565b905092915050565b6000819050919050565b612a7981612a66565b8114612a8457600080fd5b50565b600081359050612a9681612a70565b92915050565b600080fd5b600080fd5b7f4e487b7100000000000000000000000000000000000000000000000000000000600052604160045260246000fd5b612ade826129fa565b810181811067ffffffffffffffff82111715612afd57612afc612aa6565b5b80604052505050565b6000612b106127b1565b9050612b1c8282612ad5565b919050565b600067ffffffffffffffff821115612b3c57612b3b612aa6565b5b612b45826129fa565b9050602081019050919050565b82818337600083830152505050565b6000612b74612b6f84612b21565b612b06565b905082815260208101848484011115612b9057612b8f612aa1565b5b612b9b848285612b52565b509392505050565b600082601f830112612bb857612bb7612a9c565b5b8135612bc8848260208601612b61565b91505092915050565b60008060408385031215612be857612be76127bb565b5b6000612bf685828601612a87565b925050602083013567ffffffffffffffff811115612c1757612c166127c0565b5b612c2385828601612ba3565b9150509250929050565b612c36816127e5565b82525050565b6000602082019050612c516000830184612c2d565b92915050565b600067ffffffffffffffff821115612c7257612c71612aa6565b5b612c7b826129fa565b9050602081019050919050565b6000612c9b612c9684612c57565b612b06565b905082815260208101848484011115612cb757612cb6612aa1565b5b612cc2848285612b52565b509392505050565b600082601f830112612cdf57612cde612a9c565b5b8135612cef848260208601612c88565b91505092915050565b600080600060608486031215612d1157612d106127bb565b5b6000612d1f8682870161280e565b935050602084013567ffffffffffffffff811115612d4057612d3f6127c0565b5b612d4c86828701612cca565b925050604084013567ffffffffffffffff811115612d6d57612d6c6127c0565b5b612d7986828701612ba3565b9150509250925092565b600067ffffffffffffffff821115612d9e57612d9d612aa6565b5b602082029050602081019050919050565b600080fd5b6000612dc7612dc284612d83565b612b06565b90508083825260208201905060208402830185811115612dea57612de9612daf565b5b835b81811015612e135780612dff8882612844565b845260208401935050602081019050612dec565b5050509392505050565b600082601f830112612e3257612e31612a9c565b5b8135612e42848260208601612db4565b91505092915050565b600080600080600060a08688031215612e6757612e666127bb565b5b6000612e758882890161280e565b9550506020612e868882890161280e565b945050604086013567ffffffffffffffff811115612ea757612ea66127c0565b5b612eb388828901612e1d565b935050606086013567ffffffffffffffff811115612ed457612ed36127c0565b5b612ee088828901612e1d565b925050608086013567ffffffffffffffff811115612f0157612f006127c0565b5b612f0d88828901612ba3565b9150509295509295909350565b60008060008060808587031215612f3457612f336127bb565b5b6000612f4287828801612844565b9450506020612f5387828801612844565b9350506040612f6487828801612844565b925050606085013567ffffffffffffffff811115612f8557612f846127c0565b5b612f9187828801612cca565b91505092959194509250565b600067ffffffffffffffff821115612fb857612fb7612aa6565b5b602082029050602081019050919050565b6000612fdc612fd784612f9d565b612b06565b90508083825260208201905060208402830185811115612fff57612ffe612daf565b5b835b818110156130285780613014888261280e565b845260208401935050602081019050613001565b5050509392505050565b600082601f83011261304757613046612a9c565b5b8135613057848260208601612fc9565b91505092915050565b60008060408385031215613077576130766127bb565b5b600083013567ffffffffffffffff811115613095576130946127c0565b5b6130a185828601613032565b925050602083013567ffffffffffffffff8111156130c2576130c16127c0565b5b6130ce85828601612e1d565b9150509250929050565b600081519050919050565b600082825260208201905092915050565b6000819050602082019050919050565b61310d81612823565b82525050565b600061311f8383613104565b60208301905092915050565b6000602082019050919050565b6000613143826130d8565b61314d81856130e3565b9350613158836130f4565b8060005b838110156131895781516131708882613113565b975061317b8361312b565b92505060018101905061315c565b5085935050505092915050565b600060208201905081810360008301526131b08184613138565b905092915050565b6000610100820190506131ce600083018b612899565b6131db602083018a612c2d565b81810360408301526131ed8189612a0b565b90506131fc6060830188612899565b6132096080830187612899565b61321660a0830186612899565b81810360c08301526132288185612a0b565b905081810360e083015261323c8184612a0b565b90509998505050505050505050565b600080fd5b60008083601f84011261326657613265612a9c565b5b8235905067ffffffffffffffff8111156132835761328261324b565b5b60208301915083600182028301111561329f5761329e612daf565b5b9250929050565b60008060008060008060008060a0898b0312156132c6576132c56127bb565b5b600089013567ffffffffffffffff8111156132e4576132e36127c0565b5b6132f08b828c01613250565b985098505060206133038b828c01612844565b96505060406133148b828c01612844565b955050606089013567ffffffffffffffff811115613335576133346127c0565b5b6133418b828c01613250565b9450945050608089013567ffffffffffffffff811115613364576133636127c0565b5b6133708b828c01613250565b92509250509295985092959890939650565b600060208284031215613398576133976127bb565b5b600082013567ffffffffffffffff8111156133b6576133b56127c0565b5b6133c284828501612cca565b91505092915050565b6000602082840312156133e1576133e06127bb565b5b60006133ef84828501612a87565b91505092915050565b61340181612a66565b82525050565b600060208201905061341c60008301846133f8565b92915050565b60008060408385031215613439576134386127bb565b5b600061344785828601612a87565b925050602061345885828601612844565b9150509250929050565b61346b81612948565b811461347657600080fd5b50565b60008135905061348881613462565b92915050565b600080604083850312156134a5576134a46127bb565b5b60006134b38582860161280e565b92505060206134c485828601613479565b9150509250929050565b6000602082840312156134e4576134e36127bb565b5b60006134f28482850161280e565b91505092915050565b60008060408385031215613512576135116127bb565b5b60006135208582860161280e565b92505060206135318582860161280e565b9150509250929050565b600080600080600060a08688031215613557576135566127bb565b5b60006135658882890161280e565b95505060206135768882890161280e565b945050604061358788828901612844565b935050606061359888828901612844565b925050608086013567ffffffffffffffff8111156135b9576135b86127c0565b5b6135c588828901612ba3565b9150509295509295909350565b7f455243313135353a2062616c616e636520717565727920666f7220746865207a60008201527f65726f2061646472657373000000000000000000000000000000000000000000602082015250565b600061362e602b836129b6565b9150613639826135d2565b604082019050919050565b6000602082019050818103600083015261365d81613621565b9050919050565b7f4e487b7100000000000000000000000000000000000000000000000000000000600052602260045260246000fd5b600060028204905060018216806136ab57607f821691505b6020821081036136be576136bd613664565b5b50919050565b600060ff82169050919050565b6136da816136c4565b82525050565b60006080820190506136f560008301876133f8565b61370260208301866136d1565b61370f60408301856133f8565b61371c60608301846133f8565b95945050505050565b7f455243313135353a207472616e736665722063616c6c6572206973206e6f742060008201527f6f776e6572206e6f7220617070726f7665640000000000000000000000000000602082015250565b60006137816032836129b6565b915061378c82613725565b604082019050919050565b600060208201905081810360008301526137b081613774565b9050919050565b7f756e617574686f72697a65640000000000000000000000000000000000000000600082015250565b60006137ed600c836129b6565b91506137f8826137b7565b602082019050919050565b6000602082019050818103600083015261381c816137e0565b9050919050565b7f4e487b7100000000000000000000000000000000000000000000000000000000600052603260045260246000fd5b6000606082019050818103600083015261386c8186612a0b565b905061387b6020830185612c2d565b6138886040830184612899565b949350505050565b7f4e487b7100000000000000000000000000000000000000000000000000000000600052601160045260246000fd5b60006138ca82612823565b91506138d583612823565b9250827fffffffffffffffffffffffffffffffffffffffffffffffffffffffffffffffff0382111561390a57613909613890565b5b828201905092915050565b7f61646d696e20636f6e7472616374207769746864726177616c00000000000000600082015250565b600061394b6019836129b6565b915061395682613915565b602082019050919050565b6000606082019050818103600083015261397a8161393e565b90506139896020830185612c2d565b6139966040830184612899565b9392505050565b7f455243313135353a206163636f756e747320616e6420696473206c656e67746860008201527f206d69736d617463680000000000000000000000000000000000000000000000602082015250565b60006139f96029836129b6565b9150613a048261399d565b604082019050919050565b60006020820190508181036000830152613a28816139ec565b9050919050565b6000613a3a82612823565b91507fffffffffffffffffffffffffffffffffffffffffffffffffffffffffffffffff8203613a6c57613a6b613890565b5b600182019050919050565b6000613a8383856129b6565b9350613a90838584612b52565b613a99836129fa565b840190509392505050565b60006060820190508181036000830152613abf818688613a77565b9050613ace6020830185612c2d565b613adb6040830184612899565b95945050505050565b600081905092915050565b7f19457468657265756d205369676e6564204d6573736167653a0a333200000000600082015250565b6000613b25601c83613ae4565b9150613b3082613aef565b601c82019050919050565b6000819050919050565b613b56613b5182612a66565b613b3b565b82525050565b6000613b6782613b18565b9150613b738284613b45565b60208201915081905092915050565b7f4f6e6c7920565246436f6f7264696e61746f722063616e2066756c66696c6c00600082015250565b6000613bb8601f836129b6565b9150613bc382613b82565b602082019050919050565b60006020820190508181036000830152613be781613bab565b9050919050565b7f455243313135353a2063616c6c6572206973206e6f74206f776e6572206e6f7260008201527f20617070726f7665640000000000000000000000000000000000000000000000602082015250565b6000613c4a6029836129b6565b9150613c5582613bee565b604082019050919050565b60006020820190508181036000830152613c7981613c3d565b9050919050565b6000613c8b826129ab565b613c958185613ae4565b9350613ca58185602086016129c7565b80840191505092915050565b6000613cbd8284613c80565b915081905092915050565b7f696e76616c696420736967206c656e6774680000000000000000000000000000600082015250565b6000613cfe6012836129b6565b9150613d0982613cc8565b602082019050919050565b60006020820190508181036000830152613d2d81613cf1565b9050919050565b600081519050613d438161282d565b92915050565b600060208284031215613d5f57613d5e6127bb565b5b6000613d6d84828501613d34565b91505092915050565b7f4e6f7420656e6f756768204c494e4b202d2066696c6c20636f6e74726163742060008201527f7769746820666175636574000000000000000000000000000000000000000000602082015250565b6000613dd2602b836129b6565b9150613ddd82613d76565b604082019050919050565b60006020820190508181036000830152613e0181613dc5565b9050919050565b7f455243313135353a2069647320616e6420616d6f756e7473206c656e6774682060008201527f6d69736d61746368000000000000000000000000000000000000000000000000602082015250565b6000613e646028836129b6565b9150613e6f82613e08565b604082019050919050565b60006020820190508181036000830152613e9381613e57565b9050919050565b7f455243313135353a207472616e7366657220746f20746865207a65726f20616460008201527f6472657373000000000000000000000000000000000000000000000000000000602082015250565b6000613ef66025836129b6565b9150613f0182613e9a565b604082019050919050565b60006020820190508181036000830152613f2581613ee9565b9050919050565b7f455243313135353a20696e73756666696369656e742062616c616e636520666f60008201527f72207472616e7366657200000000000000000000000000000000000000000000602082015250565b6000613f88602a836129b6565b9150613f9382613f2c565b604082019050919050565b60006020820190508181036000830152613fb781613f7b565b9050919050565b60006040820190508181036000830152613fd88185613138565b90508181036020830152613fec8184613138565b90509392505050565b7f455243313135353a206d696e7420746f20746865207a65726f2061646472657360008201527f7300000000000000000000000000000000000000000000000000000000000000602082015250565b60006140516021836129b6565b915061405c82613ff5565b604082019050919050565b6000602082019050818103600083015261408081614044565b9050919050565b600060408201905061409c6000830185612899565b6140a96020830184612899565b9392505050565b7f455243313135353a2073657474696e6720617070726f76616c2073746174757360008201527f20666f722073656c660000000000000000000000000000000000000000000000602082015250565b600061410c6029836129b6565b9150614117826140b0565b604082019050919050565b6000602082019050818103600083015261413b816140ff565b9050919050565b600060408201905061415760008301856133f8565b6141646020830184612899565b9392505050565b600081519050919050565b600082825260208201905092915050565b60006141928261416b565b61419c8185614176565b93506141ac8185602086016129c7565b6141b5816129fa565b840191505092915050565b60006060820190506141d56000830186612c2d565b6141e26020830185612899565b81810360408301526141f48184614187565b9050949350505050565b60008151905061420d81613462565b92915050565b600060208284031215614229576142286127bb565b5b6000614237848285016141fe565b91505092915050565b600060a0820190506142556000830188612c2d565b6142626020830187612c2d565b81810360408301526142748186613138565b905081810360608301526142888185613138565b9050818103608083015261429c8184614187565b90509695505050505050565b6000815190506142b7816128ef565b92915050565b6000602082840312156142d3576142d26127bb565b5b60006142e1848285016142a8565b91505092915050565b60008160e01c9050919050565b600060033d11156143165760046000803e6143136000516142ea565b90505b90565b600060443d106143a65761432b6127b1565b60043d036004823e80513d602482011167ffffffffffffffff821117156143535750506143a6565b808201805167ffffffffffffffff81111561437157505050506143a6565b80602083010160043d03850181111561438e5750505050506143a6565b61439d82602001850186612ad5565b82955050505050505b90565b7f455243313135353a207472616e7366657220746f206e6f6e204552433131353560008201527f526563656976657220696d706c656d656e746572000000000000000000000000602082015250565b60006144056034836129b6565b9150614410826143a9565b604082019050919050565b60006020820190508181036000830152614434816143f8565b9050919050565b7f455243313135353a204552433131353552656365697665722072656a6563746560008201527f6420746f6b656e73000000000000000000000000000000000000000000000000602082015250565b60006144976028836129b6565b91506144a28261443b565b604082019050919050565b600060208201905081810360008301526144c68161448a565b9050919050565b600060a0820190506144e26000830188612c2d565b6144ef6020830187612c2d565b6144fc6040830186612899565b6145096060830185612899565b818103608083015261451b8184614187565b90509695505050505050565b600060808201905061453c60008301876133f8565b6145496020830186612899565b6145566040830185612c2d565b6145636060830184612899565b95945050505050565b6000819050919050565b61458761458282612823565b61456c565b82525050565b60006145998285613b45565b6020820191506145a98284614576565b602082019150819050939250505056fea2646970667358221220ab322416ce2428ef226f9fcfdff6ba304263bb8d36b89583bc03718b482a2f7264736f6c634300080d0033",
  "immutableReferences": {
    "73": [
      {
        "length": 32,
        "start": 6005
      },
      {
        "length": 32,
        "start": 8461
      }
    ],
    "75": [
      {
        "length": 32,
        "start": 5111
      },
      {
        "length": 32,
        "start": 8521
      }
    ]
  },
  "source": "// SPDX-License-Identifier: GPL-3.0\n// // // // // // // // // // // // // // // // // // // // // // // // // // // // // // // // // // // // // // // // // // // // // // // // // // // // // // // // // // // // //\n//   \n\n\n//\n// // // // // // // // // // // // // // // // // // // // // // // // // // // // // // // // // // // // // // // // // // // // // // // // // // // // // // // // // // // // //\n//                                                                                                                                                                                  //\n//                                                                                                                                                                                  //\n//                                                                                                                                                                                  //\n//                                                                                                                                                                                  //\n//                                                                                                                                                                                  //\n//      @artist ::          stereoIII6.eth                                                                                                                                          //\n//      @msg ::             stereoIII6.eth.chat                                                                                                                                     //\n//      @github ::          stereoIII6                                                                                                                                              //\n//                                                                                                                                                                                  //\n//      @dev ::             stereoIII6.eth                                                                                                                                          //\n//      @msg ::             stereoIII6.eth.chat                                                                                                                                     //\n//      @github ::          stereoIII6                                                                                                                                              //\n//                                                                                                                                                                                  //\n//      @author ::          stereoIII6.eth                                                                                                                                          //\n//      @msg ::             stereoIII6.eth.chat                                                                                                                                     //\n//      @github ::          stereoIII6                                                                                                                                              //\n//                                                                                                                                                                                  //\n//                                                                                                                                                                                  //\n//                                                                                                                                                                                  //\n// // // // // // // // // // // // // // // // // // // // // // // // // // // // // // // // // // // // // // // // // // // // // // // // // // // // // // // // // // // // //\n//                                                                                                                                                                                  //\n// // // // // // // // // // // // // // // // // // // // // // // // // // // // // // // // // // // // // // // // // // // // // // // // // // // // // // // // // // // // //\n//                                                                                                                                                                                  //\n//                                                                                                                                                                                  //\n//      @title ::                                                                                                                                                        //\n//      @description ::                                                                                                                          //\n//      @version ::         0.0.1                                                                                                                                                   //\n//      @purpose ::                                                                                                                              //\n//                                                                                                                                                                                  //\n//                                                                                                                                                                                  //\n//                                                                                                                                                                                  //\n//                                                                                                                                                                                  //\n//                                                                                                                                                                                  //\n// // // // // // // // // // // // // // // // // // // // // // // // // // // // // // // // // // // // // // // // // // // // // // // // // // // // // // // // // // // // //\n\npragma solidity ^0.8.0;\n/** \nOpen Zeppelin Imports\n**/\n//import \"@openzeppelin/contracts/token/ERC1155/ERC1155.sol\";\n//import \"@openzeppelin/contracts/token/ERC1155/IERC1155.sol\";\n//import \"@openzeppelin/contracts/token/ERC721/ERC721.sol\";\n//import \"@openzeppelin/contracts/token/ERC721/IERC721.sol\";\nimport \"@openzeppelin/contracts/token/ERC1155/ERC1155.sol\";\n//import \"@openzeppelin/contracts/token/ERC20/ERC20.sol\";\n// import \"@openzeppelin/contracts/token/ERC20/IERC20.sol\";\n\nimport \"@chainlink/contracts/src/v0.8/VRFConsumerBase.sol\";\n\n\n\ncontract DynMem is ERC1155, VRFConsumerBase {\n    \n    bytes32 internal keyHash;\n    uint256 internal fee;\n    uint256 public randomResult;\n    mapping(uint256 => bool) ranBool;\n    address payable admin;\n    event Log(uint256 indexed _a, string _log, address _adr, uint256 _tmstmp); \n    uint256 internal g;\n    uint256 internal i;\n    struct Member {\n        uint256 memID;\n        address adr;\n        string name;\n        uint256 rank;\n        uint256 bday;\n        uint256 since;\n        string status;\n        string dias;\n    }\n    Member[] public members;\n    mapping(address => uint256) internal idByAdr;\n    mapping(address => uint256) internal slotByAdr;\n    modifier isAdmin() {\n        require (msg.sender == admin,\"unauthorized\");\n        _;\n    }\n    function getMsgHash(string memory _message) public pure returns(bytes32){\n        return keccak256(abi.encodePacked(_message));\n    }\n     function getEthMsgHash(bytes32 _mHash) public pure returns(bytes32){\n        return keccak256(abi.encodePacked(\"\\x19Ethereum Signed Message:\\n32\",_mHash));\n    }\n    function recover(bytes32 _ethSigMsgHash, bytes memory _sig) public pure returns(address){\n        (bytes32 r, bytes32 s, uint8 v) = _split(_sig);\n        return ecrecover(_ethSigMsgHash, v, r, s);\n    }\n    function _split(bytes memory _sig) internal pure returns(bytes32 r,bytes32 s, uint8 v){\n        require(_sig.length == 65, \"invalid sig length\");\n        assembly {\n            r := mload(add(_sig, 32))\n            s := mload(add(_sig, 64))\n            v := byte(0, mload(add(_sig, 96)))\n        }\n    }\n     function verify(address _signer, string memory _message, bytes memory _sig)  external pure returns(bool){\n        bytes32 mHash = getMsgHash(_message);\n        bytes32 ethSigMsgHash = getEthMsgHash(mHash);\n        return recover(ethSigMsgHash, _sig) == _signer;\n    }\n    function isSigned() external view returns(uint256){\n        return idByAdr[msg.sender];\n    }\n    function getRandomResult() external view returns(uint256){\n        return randomResult;\n    }\n    function slotId(address _adr) external view returns(uint256){\n        return slotByAdr[_adr];\n    }\n    function countMem() external view returns(uint256){\n        return i;\n    }\n    function makeMember(string calldata _name, uint256 _rank, uint256 _bday, string calldata _dias, string calldata _status) external returns(bool){\n        require(ranBool[randomResult] == false);\n        members.push(Member(randomResult,msg.sender,_name,_rank,_bday,block.timestamp,_status,_dias));\n        idByAdr[msg.sender] = randomResult;\n        slotByAdr[msg.sender] = i;\n        _mint(msg.sender,randomResult,1,bytes(_dias));\n        ranBool[randomResult] = true;\n        emit Log(g, _name, msg.sender, block.timestamp);\n        g += 1;\n        i += 1;\n        return true;\n    }\n    function editMember(uint256 _id, uint256 _rank, uint256 _since, string memory _status) isAdmin() external returns(bool){\n        members[_id].rank = _rank;\n        members[_id].since = _since;\n        members[_id].status = _status;\n        emit Log(g, _status, msg.sender, block.timestamp);\n        g += 1;\n        return true;\n    }\n    function setStatus(string memory _status) external returns(bool){\n        \n        members[idByAdr[msg.sender]].status = _status;\n        emit Log(g, _status, msg.sender, block.timestamp);\n        g += 1;\n        return true;\n    }\n    function withdraw() isAdmin() external returns(bool){\n        require(address(this).balance > 0);\n        admin.transfer(address(this).balance);\n        emit Log(g, \"admin contract withdrawal\", msg.sender, block.timestamp);\n        g += 1;\n        return true;\n    }\n    function getRandomNumber() internal returns (bytes32 requestId) {\n        require(LINK.balanceOf(address(this)) >= fee, \"Not enough LINK - fill contract with faucet\");\n        return requestRandomness(keyHash, fee);\n    }\n\n    function doRand() external returns(bool){\n        getRandomNumber();\n        return true;\n    }\n    function fulfillRandomness(bytes32 requestId, uint256 randomness) internal override {\n        randomResult = randomness;\n    }\n    fallback() external {}\n\n    constructor() VRFConsumerBase(\n            0x8C7382F9D8f56b33781fE506E897a4F1e2d17255, // VRF Coordinator\n            0x326C977E6efc84E512bB9C30f76E30c160eD06FB  // LINK Token\n        ) ERC1155(\"Dynamic Membership\"){\n        admin = payable(msg.sender);\n        keyHash = 0x6e75b569a01ef56d18cab6a8e71e6600d6ce853834d4a5748b720d06f878b3a4;\n        fee = 0.0001 * 10 ** 18; // 0.1 LINK (Varies by network)\n        i = 1;\n        g = 1;\n    }\n    \n\n\n    // function withdrawLink() external {} - Implement a withdraw function to avoid locking your LINK in the contract\n}",
  "sourcePath": "/Users/jediswag/Documents/GitHub/affilly8/contracts/DynMem.sol",
  "compiler": {
    "name": "solc",
    "version": "0.8.13+commit.abaa5c0e.Emscripten.clang"
  },
  "schemaVersion": "3.4.4",
  "updatedAt": "2022-04-22T14:42:53.335Z",
  "devdoc": {
    "kind": "dev",
    "methods": {
      "balanceOf(address,uint256)": {
        "details": "See {IERC1155-balanceOf}. Requirements: - `account` cannot be the zero address."
      },
      "balanceOfBatch(address[],uint256[])": {
        "details": "See {IERC1155-balanceOfBatch}. Requirements: - `accounts` and `ids` must have the same length."
      },
      "isApprovedForAll(address,address)": {
        "details": "See {IERC1155-isApprovedForAll}."
      },
      "safeBatchTransferFrom(address,address,uint256[],uint256[],bytes)": {
        "details": "See {IERC1155-safeBatchTransferFrom}."
      },
      "safeTransferFrom(address,address,uint256,uint256,bytes)": {
        "details": "See {IERC1155-safeTransferFrom}."
      },
      "setApprovalForAll(address,bool)": {
        "details": "See {IERC1155-setApprovalForAll}."
      },
      "supportsInterface(bytes4)": {
        "details": "See {IERC165-supportsInterface}."
      },
      "uri(uint256)": {
        "details": "See {IERC1155MetadataURI-uri}. This implementation returns the same URI for *all* token types. It relies on the token type ID substitution mechanism https://eips.ethereum.org/EIPS/eip-1155#metadata[defined in the EIP]. Clients calling this function must replace the `\\{id\\}` substring with the actual token type ID."
      }
    },
    "version": 1
  },
  "userdoc": {
    "kind": "user",
    "methods": {},
    "version": 1
  }
}