{
  "contractName": "MLQ",
  "abi": [
    {
      "inputs": [],
      "stateMutability": "nonpayable",
      "type": "constructor"
    },
    {
      "anonymous": false,
      "inputs": [
        {
          "indexed": true,
          "internalType": "address",
          "name": "owner",
          "type": "address"
        },
        {
          "indexed": true,
          "internalType": "address",
          "name": "spender",
          "type": "address"
        },
        {
          "indexed": false,
          "internalType": "uint256",
          "name": "value",
          "type": "uint256"
        }
      ],
      "name": "Approval",
      "type": "event"
    },
    {
      "anonymous": false,
      "inputs": [
        {
          "indexed": true,
          "internalType": "uint256",
          "name": "id",
          "type": "uint256"
        },
        {
          "indexed": false,
          "internalType": "address",
          "name": "sender",
          "type": "address"
        },
        {
          "indexed": false,
          "internalType": "address",
          "name": "home",
          "type": "address"
        },
        {
          "indexed": false,
          "internalType": "uint256",
          "name": "num",
          "type": "uint256"
        },
        {
          "indexed": false,
          "internalType": "bytes",
          "name": "message",
          "type": "bytes"
        },
        {
          "indexed": false,
          "internalType": "uint256",
          "name": "stamp",
          "type": "uint256"
        }
      ],
      "name": "Log",
      "type": "event"
    },
    {
      "anonymous": false,
      "inputs": [
        {
          "indexed": true,
          "internalType": "address",
          "name": "from",
          "type": "address"
        },
        {
          "indexed": true,
          "internalType": "address",
          "name": "to",
          "type": "address"
        },
        {
          "indexed": false,
          "internalType": "uint256",
          "name": "value",
          "type": "uint256"
        }
      ],
      "name": "Transfer",
      "type": "event"
    },
    {
      "anonymous": false,
      "inputs": [
        {
          "indexed": true,
          "internalType": "uint256",
          "name": "id",
          "type": "uint256"
        },
        {
          "indexed": false,
          "internalType": "address",
          "name": "sender",
          "type": "address"
        },
        {
          "indexed": false,
          "internalType": "address",
          "name": "home",
          "type": "address"
        },
        {
          "indexed": false,
          "internalType": "uint256",
          "name": "num",
          "type": "uint256"
        },
        {
          "indexed": false,
          "internalType": "bytes",
          "name": "message",
          "type": "bytes"
        },
        {
          "indexed": false,
          "internalType": "uint256",
          "name": "stamp",
          "type": "uint256"
        }
      ],
      "name": "Wait",
      "type": "event"
    },
    {
      "stateMutability": "nonpayable",
      "type": "fallback"
    },
    {
      "inputs": [
        {
          "internalType": "address",
          "name": "owner",
          "type": "address"
        },
        {
          "internalType": "address",
          "name": "spender",
          "type": "address"
        }
      ],
      "name": "allowance",
      "outputs": [
        {
          "internalType": "uint256",
          "name": "",
          "type": "uint256"
        }
      ],
      "stateMutability": "view",
      "type": "function",
      "constant": true
    },
    {
      "inputs": [
        {
          "internalType": "address",
          "name": "spender",
          "type": "address"
        },
        {
          "internalType": "uint256",
          "name": "amount",
          "type": "uint256"
        }
      ],
      "name": "approve",
      "outputs": [
        {
          "internalType": "bool",
          "name": "",
          "type": "bool"
        }
      ],
      "stateMutability": "nonpayable",
      "type": "function"
    },
    {
      "inputs": [],
      "name": "author",
      "outputs": [
        {
          "internalType": "address",
          "name": "",
          "type": "address"
        }
      ],
      "stateMutability": "view",
      "type": "function",
      "constant": true
    },
    {
      "inputs": [],
      "name": "availSupply",
      "outputs": [
        {
          "internalType": "uint256",
          "name": "",
          "type": "uint256"
        }
      ],
      "stateMutability": "view",
      "type": "function",
      "constant": true
    },
    {
      "inputs": [],
      "name": "avax",
      "outputs": [
        {
          "internalType": "address",
          "name": "",
          "type": "address"
        }
      ],
      "stateMutability": "view",
      "type": "function",
      "constant": true
    },
    {
      "inputs": [
        {
          "internalType": "address",
          "name": "account",
          "type": "address"
        }
      ],
      "name": "balanceOf",
      "outputs": [
        {
          "internalType": "uint256",
          "name": "",
          "type": "uint256"
        }
      ],
      "stateMutability": "view",
      "type": "function",
      "constant": true
    },
    {
      "inputs": [
        {
          "internalType": "address",
          "name": "_to",
          "type": "address"
        },
        {
          "internalType": "uint256",
          "name": "_role",
          "type": "uint256"
        }
      ],
      "name": "changeRole",
      "outputs": [
        {
          "internalType": "bool",
          "name": "",
          "type": "bool"
        }
      ],
      "stateMutability": "nonpayable",
      "type": "function"
    },
    {
      "inputs": [],
      "name": "decimals",
      "outputs": [
        {
          "internalType": "uint8",
          "name": "",
          "type": "uint8"
        }
      ],
      "stateMutability": "view",
      "type": "function",
      "constant": true
    },
    {
      "inputs": [
        {
          "internalType": "address",
          "name": "spender",
          "type": "address"
        },
        {
          "internalType": "uint256",
          "name": "subtractedValue",
          "type": "uint256"
        }
      ],
      "name": "decreaseAllowance",
      "outputs": [
        {
          "internalType": "bool",
          "name": "",
          "type": "bool"
        }
      ],
      "stateMutability": "nonpayable",
      "type": "function"
    },
    {
      "inputs": [],
      "name": "getRole",
      "outputs": [
        {
          "internalType": "uint256",
          "name": "",
          "type": "uint256"
        }
      ],
      "stateMutability": "nonpayable",
      "type": "function"
    },
    {
      "inputs": [
        {
          "internalType": "address",
          "name": "spender",
          "type": "address"
        },
        {
          "internalType": "uint256",
          "name": "addedValue",
          "type": "uint256"
        }
      ],
      "name": "increaseAllowance",
      "outputs": [
        {
          "internalType": "bool",
          "name": "",
          "type": "bool"
        }
      ],
      "stateMutability": "nonpayable",
      "type": "function"
    },
    {
      "inputs": [
        {
          "internalType": "address",
          "name": "",
          "type": "address"
        }
      ],
      "name": "isUser",
      "outputs": [
        {
          "internalType": "bool",
          "name": "",
          "type": "bool"
        }
      ],
      "stateMutability": "view",
      "type": "function",
      "constant": true
    },
    {
      "inputs": [],
      "name": "isUserBool",
      "outputs": [
        {
          "internalType": "bool",
          "name": "",
          "type": "bool"
        }
      ],
      "stateMutability": "nonpayable",
      "type": "function"
    },
    {
      "inputs": [
        {
          "internalType": "string",
          "name": "_data",
          "type": "string"
        }
      ],
      "name": "makeU",
      "outputs": [
        {
          "internalType": "bool",
          "name": "",
          "type": "bool"
        }
      ],
      "stateMutability": "nonpayable",
      "type": "function"
    },
    {
      "inputs": [],
      "name": "maxSupply",
      "outputs": [
        {
          "internalType": "uint256",
          "name": "",
          "type": "uint256"
        }
      ],
      "stateMutability": "view",
      "type": "function",
      "constant": true
    },
    {
      "inputs": [],
      "name": "name",
      "outputs": [
        {
          "internalType": "string",
          "name": "",
          "type": "string"
        }
      ],
      "stateMutability": "view",
      "type": "function",
      "constant": true
    },
    {
      "inputs": [
        {
          "internalType": "address",
          "name": "",
          "type": "address"
        }
      ],
      "name": "role",
      "outputs": [
        {
          "internalType": "uint256",
          "name": "",
          "type": "uint256"
        }
      ],
      "stateMutability": "view",
      "type": "function",
      "constant": true
    },
    {
      "inputs": [
        {
          "internalType": "address",
          "name": "_mlq",
          "type": "address"
        }
      ],
      "name": "setMLQ",
      "outputs": [
        {
          "internalType": "bool",
          "name": "",
          "type": "bool"
        }
      ],
      "stateMutability": "nonpayable",
      "type": "function"
    },
    {
      "inputs": [],
      "name": "showU",
      "outputs": [
        {
          "internalType": "string",
          "name": "",
          "type": "string"
        },
        {
          "internalType": "uint256",
          "name": "",
          "type": "uint256"
        }
      ],
      "stateMutability": "view",
      "type": "function",
      "constant": true
    },
    {
      "inputs": [],
      "name": "symbol",
      "outputs": [
        {
          "internalType": "string",
          "name": "",
          "type": "string"
        }
      ],
      "stateMutability": "view",
      "type": "function",
      "constant": true
    },
    {
      "inputs": [],
      "name": "totalSupply",
      "outputs": [
        {
          "internalType": "uint256",
          "name": "",
          "type": "uint256"
        }
      ],
      "stateMutability": "view",
      "type": "function",
      "constant": true
    },
    {
      "inputs": [
        {
          "internalType": "address",
          "name": "recipient",
          "type": "address"
        },
        {
          "internalType": "uint256",
          "name": "amount",
          "type": "uint256"
        }
      ],
      "name": "transfer",
      "outputs": [
        {
          "internalType": "bool",
          "name": "",
          "type": "bool"
        }
      ],
      "stateMutability": "nonpayable",
      "type": "function"
    },
    {
      "inputs": [
        {
          "internalType": "address",
          "name": "sender",
          "type": "address"
        },
        {
          "internalType": "address",
          "name": "recipient",
          "type": "address"
        },
        {
          "internalType": "uint256",
          "name": "amount",
          "type": "uint256"
        }
      ],
      "name": "transferFrom",
      "outputs": [
        {
          "internalType": "bool",
          "name": "",
          "type": "bool"
        }
      ],
      "stateMutability": "nonpayable",
      "type": "function"
    },
    {
      "inputs": [
        {
          "internalType": "address",
          "name": "",
          "type": "address"
        }
      ],
      "name": "uData",
      "outputs": [
        {
          "internalType": "bytes",
          "name": "",
          "type": "bytes"
        }
      ],
      "stateMutability": "view",
      "type": "function",
      "constant": true
    },
    {
      "inputs": [
        {
          "internalType": "address",
          "name": "_contract",
          "type": "address"
        }
      ],
      "name": "withdrawToken",
      "outputs": [
        {
          "internalType": "bool",
          "name": "",
          "type": "bool"
        }
      ],
      "stateMutability": "nonpayable",
      "type": "function"
    },
    {
      "inputs": [],
      "name": "buy",
      "outputs": [
        {
          "internalType": "bool",
          "name": "",
          "type": "bool"
        }
      ],
      "stateMutability": "payable",
      "type": "function",
      "payable": true
    },
    {
      "inputs": [],
      "name": "showSafeWallet",
      "outputs": [
        {
          "internalType": "uint256",
          "name": "",
          "type": "uint256"
        },
        {
          "internalType": "uint256",
          "name": "",
          "type": "uint256"
        }
      ],
      "stateMutability": "view",
      "type": "function",
      "constant": true
    },
    {
      "inputs": [
        {
          "internalType": "uint256",
          "name": "_eth",
          "type": "uint256"
        },
        {
          "internalType": "uint256",
          "name": "_mlq",
          "type": "uint256"
        }
      ],
      "name": "withdraw",
      "outputs": [
        {
          "internalType": "bool",
          "name": "",
          "type": "bool"
        }
      ],
      "stateMutability": "nonpayable",
      "type": "function"
    }
  ],
  "bytecode": "0x6080604052731cd6f4d329d38043a6bdb3665c3a7b06f79b5242600560006101000a81548173ffffffffffffffffffffffffffffffffffffffff021916908373ffffffffffffffffffffffffffffffffffffffff16021790555073a60bd1147c32acdf9060badbaa0f62f6bfd19437600660006101000a81548173ffffffffffffffffffffffffffffffffffffffff021916908373ffffffffffffffffffffffffffffffffffffffff160217905550670de0b6b3a7640000600d55348015620000c757600080fd5b506040518060400160405280600a81526020017f4d696c7120546f6b656e000000000000000000000000000000000000000000008152506040518060400160405280600381526020017f4d4c51000000000000000000000000000000000000000000000000000000000081525081600390805190602001906200014c9291906200063b565b508060049080519060200190620001659291906200063b565b505050600560009054906101000a900473ffffffffffffffffffffffffffffffffffffffff1673ffffffffffffffffffffffffffffffffffffffff163373ffffffffffffffffffffffffffffffffffffffff161480620002125750600660009054906101000a900473ffffffffffffffffffffffffffffffffffffffff1673ffffffffffffffffffffffffffffffffffffffff163373ffffffffffffffffffffffffffffffffffffffff16145b62000254576040517f08c379a00000000000000000000000000000000000000000000000000000000081526004016200024b90620007dd565b60405180910390fd5b6063600760003373ffffffffffffffffffffffffffffffffffffffff1673ffffffffffffffffffffffffffffffffffffffff16815260200190815260200160002081905550604051806060016040528060368152602001620034e860369139600860003373ffffffffffffffffffffffffffffffffffffffff1673ffffffffffffffffffffffffffffffffffffffff168152602001908152602001600020908051906020019062000307929190620006cc565b5069d3c21bcecceda10000006009819055506064600b81905550620003346113886200033b60201b60201c565b5062000aa7565b60003373ffffffffffffffffffffffffffffffffffffffff16600560009054906101000a900473ffffffffffffffffffffffffffffffffffffffff1673ffffffffffffffffffffffffffffffffffffffff161480620003e757503373ffffffffffffffffffffffffffffffffffffffff16600660009054906101000a900473ffffffffffffffffffffffffffffffffffffffff1673ffffffffffffffffffffffffffffffffffffffff16145b62000429576040517f08c379a000000000000000000000000000000000000000000000000000000000815260040162000420906200084f565b60405180910390fd5b60006200043b620004af60201b60201c565b9050806009546200044d9190620008aa565b670de0b6b3a764000084620004639190620008e5565b11156200046f57600080fd5b620004a530670de0b6b3a764000085600b546200048d9190620008e5565b620004999190620008e5565b620004b960201b60201c565b6001915050919050565b6000600254905090565b600073ffffffffffffffffffffffffffffffffffffffff168273ffffffffffffffffffffffffffffffffffffffff16036200052b576040517f08c379a0000000000000000000000000000000000000000000000000000000008152600401620005229062000996565b60405180910390fd5b6200053f600083836200063160201b60201c565b8060026000828254620005539190620009b8565b92505081905550806000808473ffffffffffffffffffffffffffffffffffffffff1673ffffffffffffffffffffffffffffffffffffffff1681526020019081526020016000206000828254620005aa9190620009b8565b925050819055508173ffffffffffffffffffffffffffffffffffffffff16600073ffffffffffffffffffffffffffffffffffffffff167fddf252ad1be2c89b69c2b068fc378daa952ba7f163c4a11628f55a4df523b3ef8360405162000611919062000a26565b60405180910390a36200062d600083836200063660201b60201c565b5050565b505050565b505050565b828054620006499062000a72565b90600052602060002090601f0160209004810192826200066d5760008555620006b9565b82601f106200068857805160ff1916838001178555620006b9565b82800160010185558215620006b9579182015b82811115620006b85782518255916020019190600101906200069b565b5b509050620006c891906200075d565b5090565b828054620006da9062000a72565b90600052602060002090601f016020900481019282620006fe57600085556200074a565b82601f106200071957805160ff19168380011785556200074a565b828001600101855582156200074a579182015b82811115620007495782518255916020019190600101906200072c565b5b5090506200075991906200075d565b5090565b5b80821115620007785760008160009055506001016200075e565b5090565b600082825260208201905092915050565b7f6e6f742061646d696e0000000000000000000000000000000000000000000000600082015250565b6000620007c56009836200077c565b9150620007d2826200078d565b602082019050919050565b60006020820190508181036000830152620007f881620007b6565b9050919050565b7f796f75277265206e6f74206f776e657200000000000000000000000000000000600082015250565b6000620008376010836200077c565b91506200084482620007ff565b602082019050919050565b600060208201905081810360008301526200086a8162000828565b9050919050565b6000819050919050565b7f4e487b7100000000000000000000000000000000000000000000000000000000600052601160045260246000fd5b6000620008b78262000871565b9150620008c48362000871565b925082821015620008da57620008d96200087b565b5b828203905092915050565b6000620008f28262000871565b9150620008ff8362000871565b9250817fffffffffffffffffffffffffffffffffffffffffffffffffffffffffffffffff04831182151516156200093b576200093a6200087b565b5b828202905092915050565b7f45524332303a206d696e7420746f20746865207a65726f206164647265737300600082015250565b60006200097e601f836200077c565b91506200098b8262000946565b602082019050919050565b60006020820190508181036000830152620009b1816200096f565b9050919050565b6000620009c58262000871565b9150620009d28362000871565b9250827fffffffffffffffffffffffffffffffffffffffffffffffffffffffffffffffff0382111562000a0a5762000a096200087b565b5b828201905092915050565b62000a208162000871565b82525050565b600060208201905062000a3d600083018462000a15565b92915050565b7f4e487b7100000000000000000000000000000000000000000000000000000000600052602260045260246000fd5b6000600282049050600182168062000a8b57607f821691505b60208210810362000aa15762000aa062000a43565b5b50919050565b612a318062000ab76000396000f3fe6080604052600436106101ba5760003560e01c806394f4a259116100ec578063a9059cbb1161008a578063d590f8c911610064578063d590f8c9146106b0578063d5abeb01146106ed578063dd62ed3e14610718578063fde0817414610755576101bb565b8063a9059cbb1461060b578063b7187e3514610648578063ba21975014610685576101bb565b80639f5215dd116100c65780639f5215dd1461055a578063a457c2d714610585578063a6c3e6b9146105c2578063a6f2ae3a146105ed576101bb565b806394f4a259146104c657806395d89b4114610503578063990592091461052e576101bb565b8063274daa35116101595780634209fff1116101335780634209fff1146103d2578063441a3e701461040f57806370a082311461044c5780638947606914610489576101bb565b8063274daa351461033e578063313ce5671461036a5780633950935114610395576101bb565b80630acfd58e116101955780630acfd58e1461025c57806318160ddd1461029957806323b872dd146102c4578063268b522714610301576101bb565b806253d555146101c957806306fdde03146101f4578063095ea7b31461021f576101bb565b5b3480156101c757600080fd5b005b3480156101d557600080fd5b506101de610780565b6040516101eb9190611ca5565b60405180910390f35b34801561020057600080fd5b506102096107a6565b6040516102169190611d59565b60405180910390f35b34801561022b57600080fd5b5061024660048036038101906102419190611df1565b610838565b6040516102539190611e4c565b60405180910390f35b34801561026857600080fd5b50610283600480360381019061027e9190611df1565b610856565b6040516102909190611e4c565b60405180910390f35b3480156102a557600080fd5b506102ae610928565b6040516102bb9190611e76565b60405180910390f35b3480156102d057600080fd5b506102eb60048036038101906102e69190611e91565b610932565b6040516102f89190611e4c565b60405180910390f35b34801561030d57600080fd5b5061032860048036038101906103239190612019565b610a2a565b6040516103359190611e4c565b60405180910390f35b34801561034a57600080fd5b50610353610b26565b604051610361929190612062565b60405180910390f35b34801561037657600080fd5b5061037f610c3d565b60405161038c91906120ae565b60405180910390f35b3480156103a157600080fd5b506103bc60048036038101906103b79190611df1565b610c46565b6040516103c99190611e4c565b60405180910390f35b3480156103de57600080fd5b506103f960048036038101906103f491906120c9565b610cf2565b6040516104069190611e4c565b60405180910390f35b34801561041b57600080fd5b50610436600480360381019061043191906120f6565b610d12565b6040516104439190611e4c565b60405180910390f35b34801561045857600080fd5b50610473600480360381019061046e91906120c9565b610e60565b6040516104809190611e76565b60405180910390f35b34801561049557600080fd5b506104b060048036038101906104ab91906120c9565b610ea8565b6040516104bd9190611e4c565b60405180910390f35b3480156104d257600080fd5b506104ed60048036038101906104e891906120c9565b6110b2565b6040516104fa9190611e4c565b60405180910390f35b34801561050f57600080fd5b506105186110fe565b6040516105259190611d59565b60405180910390f35b34801561053a57600080fd5b50610543611190565b604051610551929190612136565b60405180910390f35b34801561056657600080fd5b5061056f611227565b60405161057c9190611e76565b60405180910390f35b34801561059157600080fd5b506105ac60048036038101906105a79190611df1565b61122d565b6040516105b99190611e4c565b60405180910390f35b3480156105ce57600080fd5b506105d7611318565b6040516105e49190611ca5565b60405180910390f35b6105f561133e565b6040516106029190611e4c565b60405180910390f35b34801561061757600080fd5b50610632600480360381019061062d9190611df1565b61140a565b60405161063f9190611e4c565b60405180910390f35b34801561065457600080fd5b5061066f600480360381019061066a91906120c9565b611428565b60405161067c91906121b4565b60405180910390f35b34801561069157600080fd5b5061069a6114c8565b6040516106a79190611e4c565b60405180910390f35b3480156106bc57600080fd5b506106d760048036038101906106d291906120c9565b61151c565b6040516106e49190611e76565b60405180910390f35b3480156106f957600080fd5b50610702611534565b60405161070f9190611e76565b60405180910390f35b34801561072457600080fd5b5061073f600480360381019061073a91906121d6565b61153a565b60405161074c9190611e76565b60405180910390f35b34801561076157600080fd5b5061076a6115c1565b6040516107779190611e76565b60405180910390f35b600660009054906101000a900473ffffffffffffffffffffffffffffffffffffffff1681565b6060600380546107b590612245565b80601f01602080910402602001604051908101604052809291908181526020018280546107e190612245565b801561082e5780601f106108035761010080835404028352916020019161082e565b820191906000526020600020905b81548152906001019060200180831161081157829003601f168201915b5050505050905090565b600061084c610845611608565b8484611610565b6001905092915050565b60006063600760003373ffffffffffffffffffffffffffffffffffffffff1673ffffffffffffffffffffffffffffffffffffffff16815260200190815260200160002054146108da576040517f08c379a00000000000000000000000000000000000000000000000000000000081526004016108d1906122c2565b60405180910390fd5b81600760008573ffffffffffffffffffffffffffffffffffffffff1673ffffffffffffffffffffffffffffffffffffffff168152602001908152602001600020819055506001905092915050565b6000600254905090565b600061093f8484846117d9565b6000600160008673ffffffffffffffffffffffffffffffffffffffff1673ffffffffffffffffffffffffffffffffffffffff168152602001908152602001600020600061098a611608565b73ffffffffffffffffffffffffffffffffffffffff1673ffffffffffffffffffffffffffffffffffffffff16815260200190815260200160002054905082811015610a0a576040517f08c379a0000000000000000000000000000000000000000000000000000000008152600401610a0190612354565b60405180910390fd5b610a1e85610a16611608565b858403611610565b60019150509392505050565b60006001601260003373ffffffffffffffffffffffffffffffffffffffff1673ffffffffffffffffffffffffffffffffffffffff16815260200190815260200160002060006101000a81548160ff0219169083151502179055506001600760003373ffffffffffffffffffffffffffffffffffffffff1673ffffffffffffffffffffffffffffffffffffffff1681526020019081526020016000208190555081600860003373ffffffffffffffffffffffffffffffffffffffff1673ffffffffffffffffffffffffffffffffffffffff1681526020019081526020016000209080519060200190610b1c929190611bc1565b5060019050919050565b60606000600860003373ffffffffffffffffffffffffffffffffffffffff1673ffffffffffffffffffffffffffffffffffffffff168152602001908152602001600020600760003373ffffffffffffffffffffffffffffffffffffffff1673ffffffffffffffffffffffffffffffffffffffff16815260200190815260200160002054818054610bb590612245565b80601f0160208091040260200160405190810160405280929190818152602001828054610be190612245565b8015610c2e5780601f10610c0357610100808354040283529160200191610c2e565b820191906000526020600020905b815481529060010190602001808311610c1157829003601f168201915b50505050509150915091509091565b60006012905090565b6000610ce8610c53611608565b848460016000610c61611608565b73ffffffffffffffffffffffffffffffffffffffff1673ffffffffffffffffffffffffffffffffffffffff16815260200190815260200160002060008873ffffffffffffffffffffffffffffffffffffffff1673ffffffffffffffffffffffffffffffffffffffff16815260200190815260200160002054610ce391906123a3565b611610565b6001905092915050565b60126020528060005260406000206000915054906101000a900460ff1681565b60006063600760003373ffffffffffffffffffffffffffffffffffffffff1673ffffffffffffffffffffffffffffffffffffffff1681526020019081526020016000205414610d96576040517f08c379a0000000000000000000000000000000000000000000000000000000008152600401610d8d906122c2565b60405180910390fd5b610d9f30610e60565b670de0b6b3a764000083610db391906123f9565b1115610dbe57600080fd5b47670de0b6b3a764000084610dd391906123f9565b1115610dde57600080fd5b610dfb33670de0b6b3a764000084610df691906123f9565b61140a565b503373ffffffffffffffffffffffffffffffffffffffff166108fc670de0b6b3a764000085610e2a91906123f9565b9081150290604051600060405180830381858888f19350505050158015610e55573d6000803e3d6000fd5b506001905092915050565b60008060008373ffffffffffffffffffffffffffffffffffffffff1673ffffffffffffffffffffffffffffffffffffffff168152602001908152602001600020549050919050565b60006063600760003373ffffffffffffffffffffffffffffffffffffffff1673ffffffffffffffffffffffffffffffffffffffff1681526020019081526020016000205414610f2c576040517f08c379a0000000000000000000000000000000000000000000000000000000008152600401610f23906122c2565b60405180910390fd5b81600e60006101000a81548173ffffffffffffffffffffffffffffffffffffffff021916908373ffffffffffffffffffffffffffffffffffffffff160217905550600e60009054906101000a900473ffffffffffffffffffffffffffffffffffffffff1673ffffffffffffffffffffffffffffffffffffffff1663a9059cbb33600e60009054906101000a900473ffffffffffffffffffffffffffffffffffffffff1673ffffffffffffffffffffffffffffffffffffffff166370a08231306040518263ffffffff1660e01b81526004016110079190611ca5565b602060405180830381865afa158015611024573d6000803e3d6000fd5b505050506040513d601f19601f820116820180604052508101906110489190612468565b6040518363ffffffff1660e01b8152600401611065929190612495565b6020604051808303816000875af1158015611084573d6000803e3d6000fd5b505050506040513d601f19601f820116820180604052508101906110a891906124ea565b5060019050919050565b600081601160006101000a81548173ffffffffffffffffffffffffffffffffffffffff021916908373ffffffffffffffffffffffffffffffffffffffff16021790555060019050919050565b60606004805461110d90612245565b80601f016020809104026020016040519081016040528092919081815260200182805461113990612245565b80156111865780601f1061115b57610100808354040283529160200191611186565b820191906000526020600020905b81548152906001019060200180831161116957829003601f168201915b5050505050905090565b6000806063600760003373ffffffffffffffffffffffffffffffffffffffff1673ffffffffffffffffffffffffffffffffffffffff1681526020019081526020016000205414611215576040517f08c379a000000000000000000000000000000000000000000000000000000000815260040161120c906122c2565b60405180910390fd5b4761121f30610e60565b915091509091565b600a5481565b6000806001600061123c611608565b73ffffffffffffffffffffffffffffffffffffffff1673ffffffffffffffffffffffffffffffffffffffff16815260200190815260200160002060008573ffffffffffffffffffffffffffffffffffffffff1673ffffffffffffffffffffffffffffffffffffffff168152602001908152602001600020549050828110156112f9576040517f08c379a00000000000000000000000000000000000000000000000000000000081526004016112f090612589565b60405180910390fd5b61130d611304611608565b85858403611610565b600191505092915050565b600560009054906101000a900473ffffffffffffffffffffffffffffffffffffffff1681565b600080611349610928565b90508060095461135991906125a9565b600b543461136791906123f9565b11156113a8576040517f08c379a000000000000000000000000000000000000000000000000000000000815260040161139f90612629565b60405180910390fd5b600034116113eb576040517f08c379a00000000000000000000000000000000000000000000000000000000081526004016113e290612695565b60405180910390fd5b61140233600b54346113fd91906123f9565b611a58565b600191505090565b600061141e611417611608565b84846117d9565b6001905092915050565b6008602052806000526040600020600091509050805461144790612245565b80601f016020809104026020016040519081016040528092919081815260200182805461147390612245565b80156114c05780601f10611495576101008083540402835291602001916114c0565b820191906000526020600020905b8154815290600101906020018083116114a357829003601f168201915b505050505081565b6000601260003373ffffffffffffffffffffffffffffffffffffffff1673ffffffffffffffffffffffffffffffffffffffff16815260200190815260200160002060009054906101000a900460ff16905090565b60076020528060005260406000206000915090505481565b60095481565b6000600160008473ffffffffffffffffffffffffffffffffffffffff1673ffffffffffffffffffffffffffffffffffffffff16815260200190815260200160002060008373ffffffffffffffffffffffffffffffffffffffff1673ffffffffffffffffffffffffffffffffffffffff16815260200190815260200160002054905092915050565b6000600760003373ffffffffffffffffffffffffffffffffffffffff1673ffffffffffffffffffffffffffffffffffffffff16815260200190815260200160002054905090565b600033905090565b600073ffffffffffffffffffffffffffffffffffffffff168373ffffffffffffffffffffffffffffffffffffffff160361167f576040517f08c379a000000000000000000000000000000000000000000000000000000000815260040161167690612727565b60405180910390fd5b600073ffffffffffffffffffffffffffffffffffffffff168273ffffffffffffffffffffffffffffffffffffffff16036116ee576040517f08c379a00000000000000000000000000000000000000000000000000000000081526004016116e5906127b9565b60405180910390fd5b80600160008573ffffffffffffffffffffffffffffffffffffffff1673ffffffffffffffffffffffffffffffffffffffff16815260200190815260200160002060008473ffffffffffffffffffffffffffffffffffffffff1673ffffffffffffffffffffffffffffffffffffffff168152602001908152602001600020819055508173ffffffffffffffffffffffffffffffffffffffff168373ffffffffffffffffffffffffffffffffffffffff167f8c5be1e5ebec7d5bd14f71427d1e84f3dd0314c0f7b2291e5b200ac8c7c3b925836040516117cc9190611e76565b60405180910390a3505050565b600073ffffffffffffffffffffffffffffffffffffffff168373ffffffffffffffffffffffffffffffffffffffff1603611848576040517f08c379a000000000000000000000000000000000000000000000000000000000815260040161183f9061284b565b60405180910390fd5b600073ffffffffffffffffffffffffffffffffffffffff168273ffffffffffffffffffffffffffffffffffffffff16036118b7576040517f08c379a00000000000000000000000000000000000000000000000000000000081526004016118ae906128dd565b60405180910390fd5b6118c2838383611bb7565b60008060008573ffffffffffffffffffffffffffffffffffffffff1673ffffffffffffffffffffffffffffffffffffffff16815260200190815260200160002054905081811015611948576040517f08c379a000000000000000000000000000000000000000000000000000000000815260040161193f9061296f565b60405180910390fd5b8181036000808673ffffffffffffffffffffffffffffffffffffffff1673ffffffffffffffffffffffffffffffffffffffff16815260200190815260200160002081905550816000808573ffffffffffffffffffffffffffffffffffffffff1673ffffffffffffffffffffffffffffffffffffffff16815260200190815260200160002060008282546119db91906123a3565b925050819055508273ffffffffffffffffffffffffffffffffffffffff168473ffffffffffffffffffffffffffffffffffffffff167fddf252ad1be2c89b69c2b068fc378daa952ba7f163c4a11628f55a4df523b3ef84604051611a3f9190611e76565b60405180910390a3611a52848484611bbc565b50505050565b600073ffffffffffffffffffffffffffffffffffffffff168273ffffffffffffffffffffffffffffffffffffffff1603611ac7576040517f08c379a0000000000000000000000000000000000000000000000000000000008152600401611abe906129db565b60405180910390fd5b611ad360008383611bb7565b8060026000828254611ae591906123a3565b92505081905550806000808473ffffffffffffffffffffffffffffffffffffffff1673ffffffffffffffffffffffffffffffffffffffff1681526020019081526020016000206000828254611b3a91906123a3565b925050819055508173ffffffffffffffffffffffffffffffffffffffff16600073ffffffffffffffffffffffffffffffffffffffff167fddf252ad1be2c89b69c2b068fc378daa952ba7f163c4a11628f55a4df523b3ef83604051611b9f9190611e76565b60405180910390a3611bb360008383611bbc565b5050565b505050565b505050565b828054611bcd90612245565b90600052602060002090601f016020900481019282611bef5760008555611c36565b82601f10611c0857805160ff1916838001178555611c36565b82800160010185558215611c36579182015b82811115611c35578251825591602001919060010190611c1a565b5b509050611c439190611c47565b5090565b5b80821115611c60576000816000905550600101611c48565b5090565b600073ffffffffffffffffffffffffffffffffffffffff82169050919050565b6000611c8f82611c64565b9050919050565b611c9f81611c84565b82525050565b6000602082019050611cba6000830184611c96565b92915050565b600081519050919050565b600082825260208201905092915050565b60005b83811015611cfa578082015181840152602081019050611cdf565b83811115611d09576000848401525b50505050565b6000601f19601f8301169050919050565b6000611d2b82611cc0565b611d358185611ccb565b9350611d45818560208601611cdc565b611d4e81611d0f565b840191505092915050565b60006020820190508181036000830152611d738184611d20565b905092915050565b6000604051905090565b600080fd5b600080fd5b611d9881611c84565b8114611da357600080fd5b50565b600081359050611db581611d8f565b92915050565b6000819050919050565b611dce81611dbb565b8114611dd957600080fd5b50565b600081359050611deb81611dc5565b92915050565b60008060408385031215611e0857611e07611d85565b5b6000611e1685828601611da6565b9250506020611e2785828601611ddc565b9150509250929050565b60008115159050919050565b611e4681611e31565b82525050565b6000602082019050611e616000830184611e3d565b92915050565b611e7081611dbb565b82525050565b6000602082019050611e8b6000830184611e67565b92915050565b600080600060608486031215611eaa57611ea9611d85565b5b6000611eb886828701611da6565b9350506020611ec986828701611da6565b9250506040611eda86828701611ddc565b9150509250925092565b600080fd5b600080fd5b7f4e487b7100000000000000000000000000000000000000000000000000000000600052604160045260246000fd5b611f2682611d0f565b810181811067ffffffffffffffff82111715611f4557611f44611eee565b5b80604052505050565b6000611f58611d7b565b9050611f648282611f1d565b919050565b600067ffffffffffffffff821115611f8457611f83611eee565b5b611f8d82611d0f565b9050602081019050919050565b82818337600083830152505050565b6000611fbc611fb784611f69565b611f4e565b905082815260208101848484011115611fd857611fd7611ee9565b5b611fe3848285611f9a565b509392505050565b600082601f83011261200057611fff611ee4565b5b8135612010848260208601611fa9565b91505092915050565b60006020828403121561202f5761202e611d85565b5b600082013567ffffffffffffffff81111561204d5761204c611d8a565b5b61205984828501611feb565b91505092915050565b6000604082019050818103600083015261207c8185611d20565b905061208b6020830184611e67565b9392505050565b600060ff82169050919050565b6120a881612092565b82525050565b60006020820190506120c3600083018461209f565b92915050565b6000602082840312156120df576120de611d85565b5b60006120ed84828501611da6565b91505092915050565b6000806040838503121561210d5761210c611d85565b5b600061211b85828601611ddc565b925050602061212c85828601611ddc565b9150509250929050565b600060408201905061214b6000830185611e67565b6121586020830184611e67565b9392505050565b600081519050919050565b600082825260208201905092915050565b60006121868261215f565b612190818561216a565b93506121a0818560208601611cdc565b6121a981611d0f565b840191505092915050565b600060208201905081810360008301526121ce818461217b565b905092915050565b600080604083850312156121ed576121ec611d85565b5b60006121fb85828601611da6565b925050602061220c85828601611da6565b9150509250929050565b7f4e487b7100000000000000000000000000000000000000000000000000000000600052602260045260246000fd5b6000600282049050600182168061225d57607f821691505b6020821081036122705761226f612216565b5b50919050565b7f796f75277265206e6f742061646d696e00000000000000000000000000000000600082015250565b60006122ac601083611ccb565b91506122b782612276565b602082019050919050565b600060208201905081810360008301526122db8161229f565b9050919050565b7f45524332303a207472616e7366657220616d6f756e742065786365656473206160008201527f6c6c6f77616e6365000000000000000000000000000000000000000000000000602082015250565b600061233e602883611ccb565b9150612349826122e2565b604082019050919050565b6000602082019050818103600083015261236d81612331565b9050919050565b7f4e487b7100000000000000000000000000000000000000000000000000000000600052601160045260246000fd5b60006123ae82611dbb565b91506123b983611dbb565b9250827fffffffffffffffffffffffffffffffffffffffffffffffffffffffffffffffff038211156123ee576123ed612374565b5b828201905092915050565b600061240482611dbb565b915061240f83611dbb565b9250817fffffffffffffffffffffffffffffffffffffffffffffffffffffffffffffffff048311821515161561244857612447612374565b5b828202905092915050565b60008151905061246281611dc5565b92915050565b60006020828403121561247e5761247d611d85565b5b600061248c84828501612453565b91505092915050565b60006040820190506124aa6000830185611c96565b6124b76020830184611e67565b9392505050565b6124c781611e31565b81146124d257600080fd5b50565b6000815190506124e4816124be565b92915050565b600060208284031215612500576124ff611d85565b5b600061250e848285016124d5565b91505092915050565b7f45524332303a2064656372656173656420616c6c6f77616e63652062656c6f7760008201527f207a65726f000000000000000000000000000000000000000000000000000000602082015250565b6000612573602583611ccb565b915061257e82612517565b604082019050919050565b600060208201905081810360008301526125a281612566565b9050919050565b60006125b482611dbb565b91506125bf83611dbb565b9250828210156125d2576125d1612374565b5b828203905092915050565b7f737570706c790000000000000000000000000000000000000000000000000000600082015250565b6000612613600683611ccb565b915061261e826125dd565b602082019050919050565b6000602082019050818103600083015261264281612606565b9050919050565b7f76616c7565000000000000000000000000000000000000000000000000000000600082015250565b600061267f600583611ccb565b915061268a82612649565b602082019050919050565b600060208201905081810360008301526126ae81612672565b9050919050565b7f45524332303a20617070726f76652066726f6d20746865207a65726f2061646460008201527f7265737300000000000000000000000000000000000000000000000000000000602082015250565b6000612711602483611ccb565b915061271c826126b5565b604082019050919050565b6000602082019050818103600083015261274081612704565b9050919050565b7f45524332303a20617070726f766520746f20746865207a65726f20616464726560008201527f7373000000000000000000000000000000000000000000000000000000000000602082015250565b60006127a3602283611ccb565b91506127ae82612747565b604082019050919050565b600060208201905081810360008301526127d281612796565b9050919050565b7f45524332303a207472616e736665722066726f6d20746865207a65726f20616460008201527f6472657373000000000000000000000000000000000000000000000000000000602082015250565b6000612835602583611ccb565b9150612840826127d9565b604082019050919050565b6000602082019050818103600083015261286481612828565b9050919050565b7f45524332303a207472616e7366657220746f20746865207a65726f206164647260008201527f6573730000000000000000000000000000000000000000000000000000000000602082015250565b60006128c7602383611ccb565b91506128d28261286b565b604082019050919050565b600060208201905081810360008301526128f6816128ba565b9050919050565b7f45524332303a207472616e7366657220616d6f756e742065786365656473206260008201527f616c616e63650000000000000000000000000000000000000000000000000000602082015250565b6000612959602683611ccb565b9150612964826128fd565b604082019050919050565b600060208201905081810360008301526129888161294c565b9050919050565b7f45524332303a206d696e7420746f20746865207a65726f206164647265737300600082015250565b60006129c5601f83611ccb565b91506129d08261298f565b602082019050919050565b600060208201905081810360008301526129f4816129b8565b905091905056fea26469706673582212206f6f16e95ba2f0cec89217fee902700057dce846da88ff21d80acb41be56464d64736f6c634300080e00337b22757365726e616d65223a224073746572656f69696936222c22656d61696c223a22747970652e73746572656f40706d2e6d65227d",
  "immutableReferences": {},
  "source": "// SPDX-License-Identifier: GPL-3.0\n// // // // // // // // // // // // // // // // // // // // // // // // // // // // // // // // // // // // // // // // // // // // // // // // // // // // // // // // // // // // //\n//   \n//                                                 \n//      \n//      \n//\n// // // // // // // // // // // // // // // // // // // // // // // // // // // // // // // // // // // // // // // // // // // // // // // // // // // // // // // // // // // // //\n//                                                                                                                                                                                  //\n//                                                                                                                                                                                  //\n//                                                                                                                                                                                  //\n//                                                                                                                                                                                  //\n//                                                                                                                                                                                  //\n//      @artist ::          stereoIII6.eth                                                                                                                                          //\n//      @msg ::             stereoIII6.eth.chat                                                                                                                                     //\n//      @github ::          stereoIII6                                                                                                                                              //\n//                                                                                                                                                                                  //\n//      @dev ::             stereoIII6.eth                                                                                                                                          //\n//      @msg ::             stereoIII6.eth.chat                                                                                                                                     //\n//      @github ::          stereoIII6                                                                                                                                              //\n//                                                                                                                                                                                  //\n//      @author ::          stereoIII6.eth                                                                                                                                          //\n//      @msg ::             stereoIII6.eth.chat                                                                                                                                     //\n//      @github ::          stereoIII6                                                                                                                                              //\n//                                                                                                                                                                                  //\n//                                                                                                                                                                                  //\n//                                                                                                                                                                                  //\n// // // // // // // // // // // // // // // // // // // // // // // // // // // // // // // // // // // // // // // // // // // // // // // // // // // // // // // // // // // // //\n//                                                                                                                                                                                  //\n// // // // // // // // // // // // // // // // // // // // // // // // // // // // // // // // // // // // // // // // // // // // // // // // // // // // // // // // // // // // //\n//                                                                                                                                                                                  //\n//                                                                                                                                                                                  //\n//      @title ::           safe contract                                                                                                                                           //\n//      @description ::     Decentral Social Network Experiment                                                                                                                     //\n//      @version ::         0.0.1                                                                                                                                                   //\n//      @purpose ::         Bring real life into the Blockchain                                                                                                                     //\n//                                                                                                                                                                                  //\n//                                                                                                                                                                                  //\n//                                                                                                                                                                                  //\n//                                                                                                                                                                                  //\n//                                                                                                                                                                                  //\n// // // // // // // // // // // // // // // // // // // // // // // // // // // // // // // // // // // // // // // // // // // // // // // // // // // // // // // // // // // // //\n\npragma solidity ^0.8.0;\n\n// Open Zeppelin Imports\nimport \"@openzeppelin/contracts/token/ERC20/ERC20.sol\";\nimport \"@openzeppelin/contracts/token/ERC721/IERC721.sol\";\nimport \"@openzeppelin/contracts/token/ERC1155/ERC1155.sol\";\n\nimport \"@openzeppelin/contracts/token/ERC20/IERC20.sol\";\n// import \"@openzeppelin/contracts/token/ERC721/ERC721.sol\";\nimport \"@openzeppelin/contracts/token/ERC1155/IERC1155.sol\";\n\n// Chainlink Imports\nimport \"@chainlink/contracts/src/v0.8/VRFConsumerBase.sol\";\n\ncontract Init{\n    address public author = 0x1Cd6F4D329D38043a6bDB3665c3a7b06F79B5242;\n    address public avax = 0xa60bD1147c32ACDF9060baDBaa0f62f6Bfd19437;\n    mapping(address => uint256) public role;\n    mapping(address => bytes) public uData;\n    uint256 public maxSupply;\n    uint256 public availSupply;\n    uint256 rate;\n    uint256 percent;\n    uint256 digits = 1 * 10 ** 18;\n    IERC20 internal Token20;\n    IERC721 internal Token721;\n    IERC1155 internal Token1155;\n    IERC20 internal MLQ;\n    mapping(address => bool) public isUser;\n    event Log(uint256 indexed id, address sender, address home, uint256 num, bytes message, uint256 stamp);\n    event Wait(uint256 indexed id, address sender, address home, uint256 num, bytes message, uint256 stamp);\n    uint256 logs;\n    modifier isAdmin() {\n        require(role[msg.sender] == 99, \"you're not admin\");\n        _;\n    }\n    modifier isOwner() {\n        require(author == msg.sender || avax == msg.sender, \"you're not owner\");\n        _;\n    }\n    function isUserBool() external returns(bool){\n        return isUser[msg.sender];\n    }\n    function getRole() external returns(uint256){\n        return role[msg.sender];\n    }\n    function changeRole(address _to, uint256 _role) external isAdmin() returns(bool){\n        role[_to] = _role;\n        return true;\n    }\n    function makeU(string memory _data) external returns(bool){\n        isUser[msg.sender] = true;\n        role[msg.sender] = 1;\n        uData[msg.sender] = bytes(_data);\n        return true;\n    }\n    function showU() external view returns(string memory, uint256){\n        return(string(uData[msg.sender]),role[msg.sender]);\n    }\n    function withdrawToken(address _contract) external isAdmin() returns(bool){\n        Token20 = IERC20(_contract);  \n        Token20.transfer(msg.sender,Token20.balanceOf(address(this)));\n        return true;\n    }\n    function setMLQ(address _mlq) external returns(bool){\n        MLQ = IERC20(_mlq);\n        return true;\n    }\n    function divide(uint256 _a, uint256 _b) internal pure returns(uint256 res){\n        uint256 rem = _a % _b;\n        res = (_a - rem) / _b;\n    }\n    fallback() external{\n\n    }\n}\n\ncontract MLQ is ERC20, Init{\n    constructor() ERC20(\"Milq Token\",\"MLQ\") {\n        require(msg.sender == author || msg.sender == avax, \"not admin\");\n        role[msg.sender] = 99;\n        uData[msg.sender] = bytes('{\"username\":\"@stereoiii6\",\"email\":\"type.stereo@pm.me\"}');\n        maxSupply = 1000000 * 10 ** 18;\n        rate = 100;\n        mint(5000);\n    }\n    function mint(uint256 _amount) isOwner() internal returns(bool){\n        uint256 ts = totalSupply();\n        require((_amount * 10 ** 18) <= maxSupply - ts);\n        _mint(address(this), rate * _amount * 10 ** 18);\n        return true;\n    }\n    function buy() external payable returns(bool){\n        uint256 ts = totalSupply();\n        require((msg.value * rate) <= maxSupply - ts,\"supply\");\n        require(msg.value > 0,\"value\");\n\n        _mint(msg.sender,msg.value * rate);\n        return true;\n    }\n    function showSafeWallet() isAdmin() external view returns(uint256, uint256){\n        return (address(this).balance,balanceOf(address(this)));\n    }\n    function withdraw(uint256 _eth, uint256 _mlq) isAdmin() external returns(bool){\n        require(_mlq * 10 ** 18 <= balanceOf(address(this)));\n        require(_eth * 10 ** 18 <= address(this).balance);\n        transfer(payable(msg.sender), _mlq * 10 ** 18);\n        payable(msg.sender).transfer(_eth * 10 ** 18);\n        return true;\n    }\n}\n\ncontract MLQuidity is ERC1155, Init{\n    constructor() ERC1155(\"SHK\"){\n        require(msg.sender == author);\n        role[msg.sender] = 99;\n        uData[msg.sender] = bytes('{\"username\":\"@stereoiii6\",\"email\":\"type.stereo@pm.me\"}');\n        maxSupply = 100000 * 10 ** 18;\n        rate = 10;\n    }\n}",
  "sourcePath": "/Users/jediswag/Documents/GitHub/affilly8/contracts/MLQ.sol",
  "compiler": {
    "name": "solc",
    "version": "0.8.14+commit.80d49f37.Emscripten.clang"
  },
  "schemaVersion": "3.4.4",
  "updatedAt": "2022-05-28T00:05:02.128Z",
  "networkType": "ethereum",
  "devdoc": {
    "kind": "dev",
    "methods": {
      "allowance(address,address)": {
        "details": "See {IERC20-allowance}."
      },
      "approve(address,uint256)": {
        "details": "See {IERC20-approve}. Requirements: - `spender` cannot be the zero address."
      },
      "balanceOf(address)": {
        "details": "See {IERC20-balanceOf}."
      },
      "decimals()": {
        "details": "Returns the number of decimals used to get its user representation. For example, if `decimals` equals `2`, a balance of `505` tokens should be displayed to a user as `5.05` (`505 / 10 ** 2`). Tokens usually opt for a value of 18, imitating the relationship between Ether and Wei. This is the value {ERC20} uses, unless this function is overridden; NOTE: This information is only used for _display_ purposes: it in no way affects any of the arithmetic of the contract, including {IERC20-balanceOf} and {IERC20-transfer}."
      },
      "decreaseAllowance(address,uint256)": {
        "details": "Atomically decreases the allowance granted to `spender` by the caller. This is an alternative to {approve} that can be used as a mitigation for problems described in {IERC20-approve}. Emits an {Approval} event indicating the updated allowance. Requirements: - `spender` cannot be the zero address. - `spender` must have allowance for the caller of at least `subtractedValue`."
      },
      "increaseAllowance(address,uint256)": {
        "details": "Atomically increases the allowance granted to `spender` by the caller. This is an alternative to {approve} that can be used as a mitigation for problems described in {IERC20-approve}. Emits an {Approval} event indicating the updated allowance. Requirements: - `spender` cannot be the zero address."
      },
      "name()": {
        "details": "Returns the name of the token."
      },
      "symbol()": {
        "details": "Returns the symbol of the token, usually a shorter version of the name."
      },
      "totalSupply()": {
        "details": "See {IERC20-totalSupply}."
      },
      "transfer(address,uint256)": {
        "details": "See {IERC20-transfer}. Requirements: - `recipient` cannot be the zero address. - the caller must have a balance of at least `amount`."
      },
      "transferFrom(address,address,uint256)": {
        "details": "See {IERC20-transferFrom}. Emits an {Approval} event indicating the updated allowance. This is not required by the EIP. See the note at the beginning of {ERC20}. Requirements: - `sender` and `recipient` cannot be the zero address. - `sender` must have a balance of at least `amount`. - the caller must have allowance for ``sender``'s tokens of at least `amount`."
      }
    },
    "version": 1
  },
  "userdoc": {
    "kind": "user",
    "methods": {},
    "version": 1
  }
}