{
  "contractName": "NFT_Project",
  "abi": [
    {
      "inputs": [
        {
          "internalType": "address",
          "name": "_author",
          "type": "address"
        },
        {
          "internalType": "uint256",
          "name": "_max",
          "type": "uint256"
        },
        {
          "internalType": "string",
          "name": "_name",
          "type": "string"
        },
        {
          "internalType": "string",
          "name": "_sym",
          "type": "string"
        },
        {
          "internalType": "string",
          "name": "_baseUri",
          "type": "string"
        },
        {
          "internalType": "uint256",
          "name": "_n",
          "type": "uint256"
        },
        {
          "internalType": "uint256",
          "name": "_m",
          "type": "uint256"
        }
      ],
      "stateMutability": "nonpayable",
      "type": "constructor"
    },
    {
      "anonymous": false,
      "inputs": [
        {
          "indexed": true,
          "internalType": "address",
          "name": "owner",
          "type": "address"
        },
        {
          "indexed": true,
          "internalType": "address",
          "name": "approved",
          "type": "address"
        },
        {
          "indexed": true,
          "internalType": "uint256",
          "name": "tokenId",
          "type": "uint256"
        }
      ],
      "name": "Approval",
      "type": "event"
    },
    {
      "anonymous": false,
      "inputs": [
        {
          "indexed": true,
          "internalType": "address",
          "name": "owner",
          "type": "address"
        },
        {
          "indexed": true,
          "internalType": "address",
          "name": "operator",
          "type": "address"
        },
        {
          "indexed": false,
          "internalType": "bool",
          "name": "approved",
          "type": "bool"
        }
      ],
      "name": "ApprovalForAll",
      "type": "event"
    },
    {
      "anonymous": false,
      "inputs": [
        {
          "indexed": true,
          "internalType": "address",
          "name": "from",
          "type": "address"
        },
        {
          "indexed": true,
          "internalType": "address",
          "name": "to",
          "type": "address"
        },
        {
          "indexed": true,
          "internalType": "uint256",
          "name": "tokenId",
          "type": "uint256"
        }
      ],
      "name": "Transfer",
      "type": "event"
    },
    {
      "stateMutability": "nonpayable",
      "type": "fallback"
    },
    {
      "inputs": [
        {
          "internalType": "uint256",
          "name": "",
          "type": "uint256"
        }
      ],
      "name": "_tokenURIz",
      "outputs": [
        {
          "internalType": "string",
          "name": "",
          "type": "string"
        }
      ],
      "stateMutability": "view",
      "type": "function"
    },
    {
      "inputs": [
        {
          "internalType": "address",
          "name": "to",
          "type": "address"
        },
        {
          "internalType": "uint256",
          "name": "tokenId",
          "type": "uint256"
        }
      ],
      "name": "approve",
      "outputs": [],
      "stateMutability": "nonpayable",
      "type": "function"
    },
    {
      "inputs": [
        {
          "internalType": "address",
          "name": "owner",
          "type": "address"
        }
      ],
      "name": "balanceOf",
      "outputs": [
        {
          "internalType": "uint256",
          "name": "",
          "type": "uint256"
        }
      ],
      "stateMutability": "view",
      "type": "function"
    },
    {
      "inputs": [
        {
          "internalType": "uint256",
          "name": "tokenId",
          "type": "uint256"
        }
      ],
      "name": "getApproved",
      "outputs": [
        {
          "internalType": "address",
          "name": "",
          "type": "address"
        }
      ],
      "stateMutability": "view",
      "type": "function"
    },
    {
      "inputs": [
        {
          "internalType": "address",
          "name": "owner",
          "type": "address"
        },
        {
          "internalType": "address",
          "name": "operator",
          "type": "address"
        }
      ],
      "name": "isApprovedForAll",
      "outputs": [
        {
          "internalType": "bool",
          "name": "",
          "type": "bool"
        }
      ],
      "stateMutability": "view",
      "type": "function"
    },
    {
      "inputs": [],
      "name": "max",
      "outputs": [
        {
          "internalType": "uint256",
          "name": "",
          "type": "uint256"
        }
      ],
      "stateMutability": "view",
      "type": "function"
    },
    {
      "inputs": [
        {
          "internalType": "address",
          "name": "",
          "type": "address"
        }
      ],
      "name": "myNFTAmount",
      "outputs": [
        {
          "internalType": "uint256",
          "name": "",
          "type": "uint256"
        }
      ],
      "stateMutability": "view",
      "type": "function"
    },
    {
      "inputs": [
        {
          "internalType": "address",
          "name": "",
          "type": "address"
        },
        {
          "internalType": "uint256",
          "name": "",
          "type": "uint256"
        }
      ],
      "name": "myNFTs",
      "outputs": [
        {
          "internalType": "uint256",
          "name": "",
          "type": "uint256"
        }
      ],
      "stateMutability": "view",
      "type": "function"
    },
    {
      "inputs": [],
      "name": "name",
      "outputs": [
        {
          "internalType": "string",
          "name": "",
          "type": "string"
        }
      ],
      "stateMutability": "view",
      "type": "function"
    },
    {
      "inputs": [
        {
          "internalType": "uint256",
          "name": "tokenId",
          "type": "uint256"
        }
      ],
      "name": "ownerOf",
      "outputs": [
        {
          "internalType": "address",
          "name": "",
          "type": "address"
        }
      ],
      "stateMutability": "view",
      "type": "function"
    },
    {
      "inputs": [
        {
          "internalType": "address",
          "name": "from",
          "type": "address"
        },
        {
          "internalType": "address",
          "name": "to",
          "type": "address"
        },
        {
          "internalType": "uint256",
          "name": "tokenId",
          "type": "uint256"
        }
      ],
      "name": "safeTransferFrom",
      "outputs": [],
      "stateMutability": "nonpayable",
      "type": "function"
    },
    {
      "inputs": [
        {
          "internalType": "address",
          "name": "from",
          "type": "address"
        },
        {
          "internalType": "address",
          "name": "to",
          "type": "address"
        },
        {
          "internalType": "uint256",
          "name": "tokenId",
          "type": "uint256"
        },
        {
          "internalType": "bytes",
          "name": "_data",
          "type": "bytes"
        }
      ],
      "name": "safeTransferFrom",
      "outputs": [],
      "stateMutability": "nonpayable",
      "type": "function"
    },
    {
      "inputs": [
        {
          "internalType": "address",
          "name": "operator",
          "type": "address"
        },
        {
          "internalType": "bool",
          "name": "approved",
          "type": "bool"
        }
      ],
      "name": "setApprovalForAll",
      "outputs": [],
      "stateMutability": "nonpayable",
      "type": "function"
    },
    {
      "inputs": [
        {
          "internalType": "bytes4",
          "name": "interfaceId",
          "type": "bytes4"
        }
      ],
      "name": "supportsInterface",
      "outputs": [
        {
          "internalType": "bool",
          "name": "",
          "type": "bool"
        }
      ],
      "stateMutability": "view",
      "type": "function"
    },
    {
      "inputs": [],
      "name": "symbol",
      "outputs": [
        {
          "internalType": "string",
          "name": "",
          "type": "string"
        }
      ],
      "stateMutability": "view",
      "type": "function"
    },
    {
      "inputs": [],
      "name": "total",
      "outputs": [
        {
          "internalType": "uint256",
          "name": "",
          "type": "uint256"
        }
      ],
      "stateMutability": "view",
      "type": "function"
    },
    {
      "inputs": [
        {
          "internalType": "address",
          "name": "from",
          "type": "address"
        },
        {
          "internalType": "address",
          "name": "to",
          "type": "address"
        },
        {
          "internalType": "uint256",
          "name": "tokenId",
          "type": "uint256"
        }
      ],
      "name": "transferFrom",
      "outputs": [],
      "stateMutability": "nonpayable",
      "type": "function"
    },
    {
      "inputs": [],
      "name": "mintToken",
      "outputs": [
        {
          "internalType": "bool",
          "name": "",
          "type": "bool"
        }
      ],
      "stateMutability": "payable",
      "type": "function"
    },
    {
      "inputs": [],
      "name": "dropToken",
      "outputs": [
        {
          "internalType": "bool",
          "name": "",
          "type": "bool"
        }
      ],
      "stateMutability": "nonpayable",
      "type": "function"
    },
    {
      "inputs": [
        {
          "internalType": "uint256",
          "name": "tokenId",
          "type": "uint256"
        }
      ],
      "name": "tokenURI",
      "outputs": [
        {
          "internalType": "string",
          "name": "",
          "type": "string"
        }
      ],
      "stateMutability": "view",
      "type": "function"
    },
    {
      "inputs": [],
      "name": "withdrawAll",
      "outputs": [
        {
          "internalType": "bool",
          "name": "",
          "type": "bool"
        }
      ],
      "stateMutability": "payable",
      "type": "function"
    }
  ],
  "bytecode": "0x60806040523480156200001157600080fd5b5060405162003a4c38038062003a4c8339818101604052810190620000379190620003fa565b84848160009080519060200190620000519291906200010d565b5080600190805190602001906200006a9291906200010d565b50505086600860006101000a81548173ffffffffffffffffffffffffffffffffffffffff021916908373ffffffffffffffffffffffffffffffffffffffff16021790555085600d819055506001600c8190555082600e9080519060200190620000d59291906200010d565b50816012620000e5919062000539565b600a620000f39190620006c8565b600f8190555080601081905550505050505050506200077d565b8280546200011b9062000748565b90600052602060002090601f0160209004810192826200013f57600085556200018b565b82601f106200015a57805160ff19168380011785556200018b565b828001600101855582156200018b579182015b828111156200018a5782518255916020019190600101906200016d565b5b5090506200019a91906200019e565b5090565b5b80821115620001b95760008160009055506001016200019f565b5090565b6000604051905090565b600080fd5b600080fd5b600073ffffffffffffffffffffffffffffffffffffffff82169050919050565b6000620001fe82620001d1565b9050919050565b6200021081620001f1565b81146200021c57600080fd5b50565b600081519050620002308162000205565b92915050565b6000819050919050565b6200024b8162000236565b81146200025757600080fd5b50565b6000815190506200026b8162000240565b92915050565b600080fd5b600080fd5b6000601f19601f8301169050919050565b7f4e487b7100000000000000000000000000000000000000000000000000000000600052604160045260246000fd5b620002c6826200027b565b810181811067ffffffffffffffff82111715620002e857620002e76200028c565b5b80604052505050565b6000620002fd620001bd565b90506200030b8282620002bb565b919050565b600067ffffffffffffffff8211156200032e576200032d6200028c565b5b62000339826200027b565b9050602081019050919050565b60005b838110156200036657808201518184015260208101905062000349565b8381111562000376576000848401525b50505050565b6000620003936200038d8462000310565b620002f1565b905082815260208101848484011115620003b257620003b162000276565b5b620003bf84828562000346565b509392505050565b600082601f830112620003df57620003de62000271565b5b8151620003f18482602086016200037c565b91505092915050565b600080600080600080600060e0888a0312156200041c576200041b620001c7565b5b60006200042c8a828b016200021f565b97505060206200043f8a828b016200025a565b965050604088015167ffffffffffffffff811115620004635762000462620001cc565b5b620004718a828b01620003c7565b955050606088015167ffffffffffffffff811115620004955762000494620001cc565b5b620004a38a828b01620003c7565b945050608088015167ffffffffffffffff811115620004c757620004c6620001cc565b5b620004d58a828b01620003c7565b93505060a0620004e88a828b016200025a565b92505060c0620004fb8a828b016200025a565b91505092959891949750929550565b7f4e487b7100000000000000000000000000000000000000000000000000000000600052601160045260246000fd5b6000620005468262000236565b9150620005538362000236565b9250828210156200056957620005686200050a565b5b828203905092915050565b60008160011c9050919050565b6000808291508390505b6001851115620005d357808604811115620005ab57620005aa6200050a565b5b6001851615620005bb5780820291505b8081029050620005cb8562000574565b94506200058b565b94509492505050565b600082620005ee5760019050620006c1565b81620005fe5760009050620006c1565b8160018114620006175760028114620006225762000658565b6001915050620006c1565b60ff8411156200063757620006366200050a565b5b8360020a9150848211156200065157620006506200050a565b5b50620006c1565b5060208310610133831016604e8410600b8410161715620006925782820a9050838111156200068c576200068b6200050a565b5b620006c1565b620006a1848484600162000581565b92509050818404811115620006bb57620006ba6200050a565b5b81810290505b9392505050565b6000620006d58262000236565b9150620006e28362000236565b9250620007117fffffffffffffffffffffffffffffffffffffffffffffffffffffffffffffffff8484620005dc565b905092915050565b7f4e487b7100000000000000000000000000000000000000000000000000000000600052602260045260246000fd5b600060028204905060018216806200076157607f821691505b60208210810362000777576200077662000719565b5b50919050565b6132bf806200078d6000396000f3fe60806040526004361061012e5760003560e01c806370a08231116100ab578063a22cb4651161006f578063a22cb4651461040e578063b88d4fde14610437578063c7945de014610460578063c87b56dd1461048b578063cb4de944146104c8578063e985e9c5146105055761012f565b806370a082311461030e5780637f71d94c1461034b578063853828b61461038857806386001cd1146103a657806395d89b41146103e35761012f565b806323b872dd116100f257806323b872dd146102295780632ddbd13a1461025257806342842e0e1461027d5780636352211e146102a65780636ac5db19146102e35761012f565b806301ffc9a71461013d57806306fdde031461017a578063081812fc146101a5578063095ea7b3146101e25780632004ffd91461020b5761012f565b5b34801561013b57600080fd5b005b34801561014957600080fd5b50610164600480360381019061015f9190612099565b610542565b60405161017191906120e1565b60405180910390f35b34801561018657600080fd5b5061018f610624565b60405161019c9190612195565b60405180910390f35b3480156101b157600080fd5b506101cc60048036038101906101c791906121ed565b6106b6565b6040516101d9919061225b565b60405180910390f35b3480156101ee57600080fd5b50610209600480360381019061020491906122a2565b61073b565b005b610213610852565b60405161022091906120e1565b60405180910390f35b34801561023557600080fd5b50610250600480360381019061024b91906122e2565b610a73565b005b34801561025e57600080fd5b50610267610ad3565b6040516102749190612344565b60405180910390f35b34801561028957600080fd5b506102a4600480360381019061029f91906122e2565b610ad9565b005b3480156102b257600080fd5b506102cd60048036038101906102c891906121ed565b610af9565b6040516102da919061225b565b60405180910390f35b3480156102ef57600080fd5b506102f8610baa565b6040516103059190612344565b60405180910390f35b34801561031a57600080fd5b506103356004803603810190610330919061235f565b610bb0565b6040516103429190612344565b60405180910390f35b34801561035757600080fd5b50610372600480360381019061036d919061235f565b610c67565b60405161037f9190612344565b60405180910390f35b610390610c7f565b60405161039d91906120e1565b60405180910390f35b3480156103b257600080fd5b506103cd60048036038101906103c891906122a2565b610e0e565b6040516103da9190612344565b60405180910390f35b3480156103ef57600080fd5b506103f8610e33565b6040516104059190612195565b60405180910390f35b34801561041a57600080fd5b50610435600480360381019061043091906123b8565b610ec5565b005b34801561044357600080fd5b5061045e6004803603810190610459919061252d565b610edb565b005b34801561046c57600080fd5b50610475610f3d565b60405161048291906120e1565b60405180910390f35b34801561049757600080fd5b506104b260048036038101906104ad91906121ed565b61110a565b6040516104bf9190612195565b60405180910390f35b3480156104d457600080fd5b506104ef60048036038101906104ea91906121ed565b6112c3565b6040516104fc9190612195565b60405180910390f35b34801561051157600080fd5b5061052c600480360381019061052791906125b0565b611363565b60405161053991906120e1565b60405180910390f35b60007f80ac58cd000000000000000000000000000000000000000000000000000000007bffffffffffffffffffffffffffffffffffffffffffffffffffffffff1916827bffffffffffffffffffffffffffffffffffffffffffffffffffffffff1916148061060d57507f5b5e139f000000000000000000000000000000000000000000000000000000007bffffffffffffffffffffffffffffffffffffffffffffffffffffffff1916827bffffffffffffffffffffffffffffffffffffffffffffffffffffffff1916145b8061061d575061061c826113f7565b5b9050919050565b6060600080546106339061261f565b80601f016020809104026020016040519081016040528092919081815260200182805461065f9061261f565b80156106ac5780601f10610681576101008083540402835291602001916106ac565b820191906000526020600020905b81548152906001019060200180831161068f57829003601f168201915b5050505050905090565b60006106c182611461565b610700576040517f08c379a00000000000000000000000000000000000000000000000000000000081526004016106f7906126c2565b60405180910390fd5b6004600083815260200190815260200160002060009054906101000a900473ffffffffffffffffffffffffffffffffffffffff169050919050565b600061074682610af9565b90508073ffffffffffffffffffffffffffffffffffffffff168373ffffffffffffffffffffffffffffffffffffffff16036107b6576040517f08c379a00000000000000000000000000000000000000000000000000000000081526004016107ad90612754565b60405180910390fd5b8073ffffffffffffffffffffffffffffffffffffffff166107d56114cd565b73ffffffffffffffffffffffffffffffffffffffff1614806108045750610803816107fe6114cd565b611363565b5b610843576040517f08c379a000000000000000000000000000000000000000000000000000000000815260040161083a906127e6565b60405180910390fd5b61084d83836114d5565b505050565b6000600f5460016108639190612835565b3410156108a5576040517f08c379a000000000000000000000000000000000000000000000000000000000815260040161089c906128db565b60405180910390fd5b601054600960003373ffffffffffffffffffffffffffffffffffffffff1673ffffffffffffffffffffffffffffffffffffffff168152602001908152602001600020541115610929576040517f08c379a000000000000000000000000000000000000000000000000000000000815260040161092090612947565b60405180910390fd5b61093533600c5461158e565b610940600c5461110a565b600b6000600c5481526020019081526020016000209080519060200190610968929190611f8a565b50600c54600a60003373ffffffffffffffffffffffffffffffffffffffff1673ffffffffffffffffffffffffffffffffffffffff1681526020019081526020016000206000600960003373ffffffffffffffffffffffffffffffffffffffff1673ffffffffffffffffffffffffffffffffffffffff16815260200190815260200160002054815260200190815260200160002081905550600960003373ffffffffffffffffffffffffffffffffffffffff1673ffffffffffffffffffffffffffffffffffffffff1681526020019081526020016000206000815480929190610a4f90612967565b9190505550600c6000815480929190610a6790612967565b91905055506001905090565b610a84610a7e6114cd565b8261175b565b610ac3576040517f08c379a0000000000000000000000000000000000000000000000000000000008152600401610aba90612a21565b60405180910390fd5b610ace838383611839565b505050565b600c5481565b610af483838360405180602001604052806000815250610edb565b505050565b6000806002600084815260200190815260200160002060009054906101000a900473ffffffffffffffffffffffffffffffffffffffff169050600073ffffffffffffffffffffffffffffffffffffffff168173ffffffffffffffffffffffffffffffffffffffff1603610ba1576040517f08c379a0000000000000000000000000000000000000000000000000000000008152600401610b9890612ab3565b60405180910390fd5b80915050919050565b600d5481565b60008073ffffffffffffffffffffffffffffffffffffffff168273ffffffffffffffffffffffffffffffffffffffff1603610c20576040517f08c379a0000000000000000000000000000000000000000000000000000000008152600401610c1790612b45565b60405180910390fd5b600360008373ffffffffffffffffffffffffffffffffffffffff1673ffffffffffffffffffffffffffffffffffffffff168152602001908152602001600020549050919050565b60096020528060005260406000206000915090505481565b60003373ffffffffffffffffffffffffffffffffffffffff16600860009054906101000a900473ffffffffffffffffffffffffffffffffffffffff1673ffffffffffffffffffffffffffffffffffffffff1614610d11576040517f08c379a0000000000000000000000000000000000000000000000000000000008152600401610d0890612bb1565b60405180910390fd5b600f546001610d209190612835565b600860009054906101000a900473ffffffffffffffffffffffffffffffffffffffff1673ffffffffffffffffffffffffffffffffffffffff16311015610d6557600080fd5b600860009054906101000a900473ffffffffffffffffffffffffffffffffffffffff1673ffffffffffffffffffffffffffffffffffffffff166108fc600860009054906101000a900473ffffffffffffffffffffffffffffffffffffffff1673ffffffffffffffffffffffffffffffffffffffff16319081150290604051600060405180830381858888f19350505050158015610e06573d6000803e3d6000fd5b506001905090565b600a602052816000526040600020602052806000526040600020600091509150505481565b606060018054610e429061261f565b80601f0160208091040260200160405190810160405280929190818152602001828054610e6e9061261f565b8015610ebb5780601f10610e9057610100808354040283529160200191610ebb565b820191906000526020600020905b815481529060010190602001808311610e9e57829003601f168201915b5050505050905090565b610ed7610ed06114cd565b8383611a94565b5050565b610eec610ee66114cd565b8361175b565b610f2b576040517f08c379a0000000000000000000000000000000000000000000000000000000008152600401610f2290612a21565b60405180910390fd5b610f3784848484611c00565b50505050565b600080600960003373ffffffffffffffffffffffffffffffffffffffff1673ffffffffffffffffffffffffffffffffffffffff1681526020019081526020016000205414610fc0576040517f08c379a0000000000000000000000000000000000000000000000000000000008152600401610fb790612947565b60405180910390fd5b610fcc33600c5461158e565b610fd7600c5461110a565b600b6000600c5481526020019081526020016000209080519060200190610fff929190611f8a565b50600c54600a60003373ffffffffffffffffffffffffffffffffffffffff1673ffffffffffffffffffffffffffffffffffffffff1681526020019081526020016000206000600960003373ffffffffffffffffffffffffffffffffffffffff1673ffffffffffffffffffffffffffffffffffffffff16815260200190815260200160002054815260200190815260200160002081905550600960003373ffffffffffffffffffffffffffffffffffffffff1673ffffffffffffffffffffffffffffffffffffffff16815260200190815260200160002060008154809291906110e690612967565b9190505550600c60008154809291906110fe90612967565b91905055506001905090565b606061111582611461565b611154576040517f08c379a000000000000000000000000000000000000000000000000000000000815260040161114b90612c43565b60405180910390fd5b600061115f83611c5c565b9050600061122d600e80546111739061261f565b80601f016020809104026020016040519081016040528092919081815260200182805461119f9061261f565b80156111ec5780601f106111c1576101008083540402835291602001916111ec565b820191906000526020600020905b8154815290600101906020018083116111cf57829003601f168201915b50505050506040518060400160405280600181526020017f2f0000000000000000000000000000000000000000000000000000000000000081525084611dbc565b9050600e805461123c9061261f565b80601f01602080910402602001604051908101604052809291908181526020018280546112689061261f565b80156112b55780601f1061128a576101008083540402835291602001916112b5565b820191906000526020600020905b81548152906001019060200180831161129857829003601f168201915b505050505092505050919050565b600b60205280600052604060002060009150905080546112e29061261f565b80601f016020809104026020016040519081016040528092919081815260200182805461130e9061261f565b801561135b5780601f106113305761010080835404028352916020019161135b565b820191906000526020600020905b81548152906001019060200180831161133e57829003601f168201915b505050505081565b6000600560008473ffffffffffffffffffffffffffffffffffffffff1673ffffffffffffffffffffffffffffffffffffffff16815260200190815260200160002060008373ffffffffffffffffffffffffffffffffffffffff1673ffffffffffffffffffffffffffffffffffffffff16815260200190815260200160002060009054906101000a900460ff16905092915050565b60007f01ffc9a7000000000000000000000000000000000000000000000000000000007bffffffffffffffffffffffffffffffffffffffffffffffffffffffff1916827bffffffffffffffffffffffffffffffffffffffffffffffffffffffff1916149050919050565b60008073ffffffffffffffffffffffffffffffffffffffff166002600084815260200190815260200160002060009054906101000a900473ffffffffffffffffffffffffffffffffffffffff1673ffffffffffffffffffffffffffffffffffffffff1614159050919050565b600033905090565b816004600083815260200190815260200160002060006101000a81548173ffffffffffffffffffffffffffffffffffffffff021916908373ffffffffffffffffffffffffffffffffffffffff160217905550808273ffffffffffffffffffffffffffffffffffffffff1661154883610af9565b73ffffffffffffffffffffffffffffffffffffffff167f8c5be1e5ebec7d5bd14f71427d1e84f3dd0314c0f7b2291e5b200ac8c7c3b92560405160405180910390a45050565b600073ffffffffffffffffffffffffffffffffffffffff168273ffffffffffffffffffffffffffffffffffffffff16036115fd576040517f08c379a00000000000000000000000000000000000000000000000000000000081526004016115f490612caf565b60405180910390fd5b61160681611461565b15611646576040517f08c379a000000000000000000000000000000000000000000000000000000000815260040161163d90612d1b565b60405180910390fd5b61165260008383611deb565b6001600360008473ffffffffffffffffffffffffffffffffffffffff1673ffffffffffffffffffffffffffffffffffffffff16815260200190815260200160002060008282546116a29190612d3b565b92505081905550816002600083815260200190815260200160002060006101000a81548173ffffffffffffffffffffffffffffffffffffffff021916908373ffffffffffffffffffffffffffffffffffffffff160217905550808273ffffffffffffffffffffffffffffffffffffffff16600073ffffffffffffffffffffffffffffffffffffffff167fddf252ad1be2c89b69c2b068fc378daa952ba7f163c4a11628f55a4df523b3ef60405160405180910390a45050565b600061176682611461565b6117a5576040517f08c379a000000000000000000000000000000000000000000000000000000000815260040161179c90612e03565b60405180910390fd5b60006117b083610af9565b90508073ffffffffffffffffffffffffffffffffffffffff168473ffffffffffffffffffffffffffffffffffffffff16148061181f57508373ffffffffffffffffffffffffffffffffffffffff16611807846106b6565b73ffffffffffffffffffffffffffffffffffffffff16145b80611830575061182f8185611363565b5b91505092915050565b8273ffffffffffffffffffffffffffffffffffffffff1661185982610af9565b73ffffffffffffffffffffffffffffffffffffffff16146118af576040517f08c379a00000000000000000000000000000000000000000000000000000000081526004016118a690612e95565b60405180910390fd5b600073ffffffffffffffffffffffffffffffffffffffff168273ffffffffffffffffffffffffffffffffffffffff160361191e576040517f08c379a000000000000000000000000000000000000000000000000000000000815260040161191590612f27565b60405180910390fd5b611929838383611deb565b6119346000826114d5565b6001600360008573ffffffffffffffffffffffffffffffffffffffff1673ffffffffffffffffffffffffffffffffffffffff16815260200190815260200160002060008282546119849190612f47565b925050819055506001600360008473ffffffffffffffffffffffffffffffffffffffff1673ffffffffffffffffffffffffffffffffffffffff16815260200190815260200160002060008282546119db9190612d3b565b92505081905550816002600083815260200190815260200160002060006101000a81548173ffffffffffffffffffffffffffffffffffffffff021916908373ffffffffffffffffffffffffffffffffffffffff160217905550808273ffffffffffffffffffffffffffffffffffffffff168473ffffffffffffffffffffffffffffffffffffffff167fddf252ad1be2c89b69c2b068fc378daa952ba7f163c4a11628f55a4df523b3ef60405160405180910390a4505050565b8173ffffffffffffffffffffffffffffffffffffffff168373ffffffffffffffffffffffffffffffffffffffff1603611b02576040517f08c379a0000000000000000000000000000000000000000000000000000000008152600401611af990612fc7565b60405180910390fd5b80600560008573ffffffffffffffffffffffffffffffffffffffff1673ffffffffffffffffffffffffffffffffffffffff16815260200190815260200160002060008473ffffffffffffffffffffffffffffffffffffffff1673ffffffffffffffffffffffffffffffffffffffff16815260200190815260200160002060006101000a81548160ff0219169083151502179055508173ffffffffffffffffffffffffffffffffffffffff168373ffffffffffffffffffffffffffffffffffffffff167f17307eab39ab6107e8899845ad3d59bd9653f200f220920489ca2b5937696c3183604051611bf391906120e1565b60405180910390a3505050565b611c0b848484611839565b611c1784848484611df0565b611c56576040517f08c379a0000000000000000000000000000000000000000000000000000000008152600401611c4d90613059565b60405180910390fd5b50505050565b606060008203611ca3576040518060400160405280600181526020017f30000000000000000000000000000000000000000000000000000000000000008152509050611db7565b600082905060005b60008214611cd5578080611cbe90612967565b915050600a82611cce91906130a8565b9150611cab565b60008167ffffffffffffffff811115611cf157611cf0612402565b5b6040519080825280601f01601f191660200182016040528015611d235781602001600182028036833780820191505090505b5090505b60008514611db057600182611d3c9190612f47565b9150600a85611d4b91906130d9565b6030611d579190612d3b565b60f81b818381518110611d6d57611d6c61310a565b5b60200101907effffffffffffffffffffffffffffffffffffffffffffffffffffffffffffff1916908160001a905350600a85611da991906130a8565b9450611d27565b8093505050505b919050565b6060838383604051602001611dd393929190613175565b60405160208183030381529060405290509392505050565b505050565b6000611e118473ffffffffffffffffffffffffffffffffffffffff16611f77565b15611f6a578373ffffffffffffffffffffffffffffffffffffffff1663150b7a02611e3a6114cd565b8786866040518563ffffffff1660e01b8152600401611e5c94939291906131fb565b6020604051808303816000875af1925050508015611e9857506040513d601f19601f82011682018060405250810190611e95919061325c565b60015b611f1a573d8060008114611ec8576040519150601f19603f3d011682016040523d82523d6000602084013e611ecd565b606091505b506000815103611f12576040517f08c379a0000000000000000000000000000000000000000000000000000000008152600401611f0990613059565b60405180910390fd5b805181602001fd5b63150b7a0260e01b7bffffffffffffffffffffffffffffffffffffffffffffffffffffffff1916817bffffffffffffffffffffffffffffffffffffffffffffffffffffffff191614915050611f6f565b600190505b949350505050565b600080823b905060008111915050919050565b828054611f969061261f565b90600052602060002090601f016020900481019282611fb85760008555611fff565b82601f10611fd157805160ff1916838001178555611fff565b82800160010185558215611fff579182015b82811115611ffe578251825591602001919060010190611fe3565b5b50905061200c9190612010565b5090565b5b80821115612029576000816000905550600101612011565b5090565b6000604051905090565b600080fd5b600080fd5b60007fffffffff0000000000000000000000000000000000000000000000000000000082169050919050565b61207681612041565b811461208157600080fd5b50565b6000813590506120938161206d565b92915050565b6000602082840312156120af576120ae612037565b5b60006120bd84828501612084565b91505092915050565b60008115159050919050565b6120db816120c6565b82525050565b60006020820190506120f660008301846120d2565b92915050565b600081519050919050565b600082825260208201905092915050565b60005b8381101561213657808201518184015260208101905061211b565b83811115612145576000848401525b50505050565b6000601f19601f8301169050919050565b6000612167826120fc565b6121718185612107565b9350612181818560208601612118565b61218a8161214b565b840191505092915050565b600060208201905081810360008301526121af818461215c565b905092915050565b6000819050919050565b6121ca816121b7565b81146121d557600080fd5b50565b6000813590506121e7816121c1565b92915050565b60006020828403121561220357612202612037565b5b6000612211848285016121d8565b91505092915050565b600073ffffffffffffffffffffffffffffffffffffffff82169050919050565b60006122458261221a565b9050919050565b6122558161223a565b82525050565b6000602082019050612270600083018461224c565b92915050565b61227f8161223a565b811461228a57600080fd5b50565b60008135905061229c81612276565b92915050565b600080604083850312156122b9576122b8612037565b5b60006122c78582860161228d565b92505060206122d8858286016121d8565b9150509250929050565b6000806000606084860312156122fb576122fa612037565b5b60006123098682870161228d565b935050602061231a8682870161228d565b925050604061232b868287016121d8565b9150509250925092565b61233e816121b7565b82525050565b60006020820190506123596000830184612335565b92915050565b60006020828403121561237557612374612037565b5b60006123838482850161228d565b91505092915050565b612395816120c6565b81146123a057600080fd5b50565b6000813590506123b28161238c565b92915050565b600080604083850312156123cf576123ce612037565b5b60006123dd8582860161228d565b92505060206123ee858286016123a3565b9150509250929050565b600080fd5b600080fd5b7f4e487b7100000000000000000000000000000000000000000000000000000000600052604160045260246000fd5b61243a8261214b565b810181811067ffffffffffffffff8211171561245957612458612402565b5b80604052505050565b600061246c61202d565b90506124788282612431565b919050565b600067ffffffffffffffff82111561249857612497612402565b5b6124a18261214b565b9050602081019050919050565b82818337600083830152505050565b60006124d06124cb8461247d565b612462565b9050828152602081018484840111156124ec576124eb6123fd565b5b6124f78482856124ae565b509392505050565b600082601f830112612514576125136123f8565b5b81356125248482602086016124bd565b91505092915050565b6000806000806080858703121561254757612546612037565b5b60006125558782880161228d565b94505060206125668782880161228d565b9350506040612577878288016121d8565b925050606085013567ffffffffffffffff8111156125985761259761203c565b5b6125a4878288016124ff565b91505092959194509250565b600080604083850312156125c7576125c6612037565b5b60006125d58582860161228d565b92505060206125e68582860161228d565b9150509250929050565b7f4e487b7100000000000000000000000000000000000000000000000000000000600052602260045260246000fd5b6000600282049050600182168061263757607f821691505b60208210810361264a576126496125f0565b5b50919050565b7f4552433732313a20617070726f76656420717565727920666f72206e6f6e657860008201527f697374656e7420746f6b656e0000000000000000000000000000000000000000602082015250565b60006126ac602c83612107565b91506126b782612650565b604082019050919050565b600060208201905081810360008301526126db8161269f565b9050919050565b7f4552433732313a20617070726f76616c20746f2063757272656e74206f776e6560008201527f7200000000000000000000000000000000000000000000000000000000000000602082015250565b600061273e602183612107565b9150612749826126e2565b604082019050919050565b6000602082019050818103600083015261276d81612731565b9050919050565b7f4552433732313a20617070726f76652063616c6c6572206973206e6f74206f7760008201527f6e6572206e6f7220617070726f76656420666f7220616c6c0000000000000000602082015250565b60006127d0603883612107565b91506127db82612774565b604082019050919050565b600060208201905081810360008301526127ff816127c3565b9050919050565b7f4e487b7100000000000000000000000000000000000000000000000000000000600052601160045260246000fd5b6000612840826121b7565b915061284b836121b7565b9250817fffffffffffffffffffffffffffffffffffffffffffffffffffffffffffffffff048311821515161561288457612883612806565b5b828202905092915050565b7f696e737566696369656e742062616c616e6365202e2e2e000000000000000000600082015250565b60006128c5601783612107565b91506128d08261288f565b602082019050919050565b600060208201905081810360008301526128f4816128b8565b9050919050565b7f6d6178206c696d69742072656163686564202e2e2e0000000000000000000000600082015250565b6000612931601583612107565b915061293c826128fb565b602082019050919050565b6000602082019050818103600083015261296081612924565b9050919050565b6000612972826121b7565b91507fffffffffffffffffffffffffffffffffffffffffffffffffffffffffffffffff82036129a4576129a3612806565b5b600182019050919050565b7f4552433732313a207472616e736665722063616c6c6572206973206e6f74206f60008201527f776e6572206e6f7220617070726f766564000000000000000000000000000000602082015250565b6000612a0b603183612107565b9150612a16826129af565b604082019050919050565b60006020820190508181036000830152612a3a816129fe565b9050919050565b7f4552433732313a206f776e657220717565727920666f72206e6f6e657869737460008201527f656e7420746f6b656e0000000000000000000000000000000000000000000000602082015250565b6000612a9d602983612107565b9150612aa882612a41565b604082019050919050565b60006020820190508181036000830152612acc81612a90565b9050919050565b7f4552433732313a2062616c616e636520717565727920666f7220746865207a6560008201527f726f206164647265737300000000000000000000000000000000000000000000602082015250565b6000612b2f602a83612107565b9150612b3a82612ad3565b604082019050919050565b60006020820190508181036000830152612b5e81612b22565b9050919050565b7f6e6f7420617574686f72697a6564202e2e2e0000000000000000000000000000600082015250565b6000612b9b601283612107565b9150612ba682612b65565b602082019050919050565b60006020820190508181036000830152612bca81612b8e565b9050919050565b7f45524337323155524953746f726167653a2055524920717565727920666f722060008201527f6e6f6e6578697374656e7420746f6b656e000000000000000000000000000000602082015250565b6000612c2d603183612107565b9150612c3882612bd1565b604082019050919050565b60006020820190508181036000830152612c5c81612c20565b9050919050565b7f4552433732313a206d696e7420746f20746865207a65726f2061646472657373600082015250565b6000612c99602083612107565b9150612ca482612c63565b602082019050919050565b60006020820190508181036000830152612cc881612c8c565b9050919050565b7f4552433732313a20746f6b656e20616c7265616479206d696e74656400000000600082015250565b6000612d05601c83612107565b9150612d1082612ccf565b602082019050919050565b60006020820190508181036000830152612d3481612cf8565b9050919050565b6000612d46826121b7565b9150612d51836121b7565b9250827fffffffffffffffffffffffffffffffffffffffffffffffffffffffffffffffff03821115612d8657612d85612806565b5b828201905092915050565b7f4552433732313a206f70657261746f7220717565727920666f72206e6f6e657860008201527f697374656e7420746f6b656e0000000000000000000000000000000000000000602082015250565b6000612ded602c83612107565b9150612df882612d91565b604082019050919050565b60006020820190508181036000830152612e1c81612de0565b9050919050565b7f4552433732313a207472616e73666572206f6620746f6b656e2074686174206960008201527f73206e6f74206f776e0000000000000000000000000000000000000000000000602082015250565b6000612e7f602983612107565b9150612e8a82612e23565b604082019050919050565b60006020820190508181036000830152612eae81612e72565b9050919050565b7f4552433732313a207472616e7366657220746f20746865207a65726f2061646460008201527f7265737300000000000000000000000000000000000000000000000000000000602082015250565b6000612f11602483612107565b9150612f1c82612eb5565b604082019050919050565b60006020820190508181036000830152612f4081612f04565b9050919050565b6000612f52826121b7565b9150612f5d836121b7565b925082821015612f7057612f6f612806565b5b828203905092915050565b7f4552433732313a20617070726f766520746f2063616c6c657200000000000000600082015250565b6000612fb1601983612107565b9150612fbc82612f7b565b602082019050919050565b60006020820190508181036000830152612fe081612fa4565b9050919050565b7f4552433732313a207472616e7366657220746f206e6f6e20455243373231526560008201527f63656976657220696d706c656d656e7465720000000000000000000000000000602082015250565b6000613043603283612107565b915061304e82612fe7565b604082019050919050565b6000602082019050818103600083015261307281613036565b9050919050565b7f4e487b7100000000000000000000000000000000000000000000000000000000600052601260045260246000fd5b60006130b3826121b7565b91506130be836121b7565b9250826130ce576130cd613079565b5b828204905092915050565b60006130e4826121b7565b91506130ef836121b7565b9250826130ff576130fe613079565b5b828206905092915050565b7f4e487b7100000000000000000000000000000000000000000000000000000000600052603260045260246000fd5b600081905092915050565b600061314f826120fc565b6131598185613139565b9350613169818560208601612118565b80840191505092915050565b60006131818286613144565b915061318d8285613144565b91506131998284613144565b9150819050949350505050565b600081519050919050565b600082825260208201905092915050565b60006131cd826131a6565b6131d781856131b1565b93506131e7818560208601612118565b6131f08161214b565b840191505092915050565b6000608082019050613210600083018761224c565b61321d602083018661224c565b61322a6040830185612335565b818103606083015261323c81846131c2565b905095945050505050565b6000815190506132568161206d565b92915050565b60006020828403121561327257613271612037565b5b600061328084828501613247565b9150509291505056fea26469706673582212202ab9866c498821fc454cef9ca564bc7373d571aae14635148d34b661e32b0f1e64736f6c634300080d0033",
  "immutableReferences": {},
  "source": "// SPDX-License-Identifier: GPL-3.0\n// // // // // // // // // // // // // // // // // // // // // // // // // // // // // // // // // // // // // // // // // // // // // // // // // // // // // // // // // // // // //\n//   \n//                                                 \n//      \n//      \n//\n// // // // // // // // // // // // // // // // // // // // // // // // // // // // // // // // // // // // // // // // // // // // // // // // // // // // // // // // // // // // //\n//                                                                                                                                                                                  //\n//                                                                                                                                                                                  //\n//                                                                                                                                                                                  //\n//                                                                                                                                                                                  //\n//                                                                                                                                                                                  //\n//      @artist ::          stereoIII6.eth                                                                                                                                          //\n//      @msg ::             stereoIII6.eth.chat                                                                                                                                     //\n//      @github ::          stereoIII6                                                                                                                                              //\n//                                                                                                                                                                                  //\n//      @dev ::             stereoIII6.eth                                                                                                                                          //\n//      @msg ::             stereoIII6.eth.chat                                                                                                                                     //\n//      @github ::          stereoIII6                                                                                                                                              //\n//                                                                                                                                                                                  //\n//      @author ::          stereoIII6.eth                                                                                                                                          //\n//      @msg ::             stereoIII6.eth.chat                                                                                                                                     //\n//      @github ::          stereoIII6                                                                                                                                              //\n//                                                                                                                                                                                  //\n//                                                                                                                                                                                  //\n//                                                                                                                                                                                  //\n// // // // // // // // // // // // // // // // // // // // // // // // // // // // // // // // // // // // // // // // // // // // // // // // // // // // // // // // // // // // //\n//                                                                                                                                                                                  //\n// // // // // // // // // // // // // // // // // // // // // // // // // // // // // // // // // // // // // // // // // // // // // // // // // // // // // // // // // // // // //\n//                                                                                                                                                                                  //\n//                                                                                                                                                                                  //\n//      @title ::           safe contract                                                                                                                                           //\n//      @description ::     Decentral Social Network Experiment                                                                                                                     //\n//      @version ::         0.0.1                                                                                                                                                   //\n//      @purpose ::         Bring real life into the Blockchain                                                                                                                     //\n//                                                                                                                                                                                  //\n//                                                                                                                                                                                  //\n//                                                                                                                                                                                  //\n//                                                                                                                                                                                  //\n//                                                                                                                                                                                  //\n// // // // // // // // // // // // // // // // // // // // // // // // // // // // // // // // // // // // // // // // // // // // // // // // // // // // // // // // // // // // //\npragma solidity ^0.8.3;\nimport \"@openzeppelin/contracts/utils/Counters.sol\";\nimport \"@openzeppelin/contracts/token/ERC721/extensions/ERC721URIStorage.sol\";\nimport \"@openzeppelin/contracts/token/ERC721/ERC721.sol\";\nimport \"@openzeppelin/contracts/utils/Strings.sol\";\n\ncontract NFT_Project is ERC721URIStorage {\n    // counter class \n    using Counters for Counters.Counter; \n    // iterator for token ids\n    Counters.Counter internal _tokenIds;\n    // admin account = author \n    address internal admin;\n    //      user    => amount\n    mapping(address => uint256) public myNFTAmount;\n    //      user    => wallet id        => token id\n    mapping(address => mapping(uint256 => uint256)) public myNFTs;\n    //      token id    => token uri\n    mapping(uint256 => string) public _tokenURIz;\n    // total amount of minted tokens\n    uint256 public total;\n    // maximum amount of tokens to mint\n    uint256 public max;\n    // base uri that points to ipfs\n    string internal baseURI;\n    // decimal spaces wanted at eth level\n    uint256 internal digits;\n    // maximum amount of tokens per lootbox\n    uint internal maxBoxSize;\n\n\n    constructor(address _author, uint256 _max, string memory _name, string memory _sym, string memory _baseUri, uint256 _n, uint256 _m) ERC721(_name, _sym) {\n        admin = _author; // author from input\n        max = _max;\n        total = 1;\n        baseURI = _baseUri;\n        digits = 10 ** (18 - _n);\n        maxBoxSize = _m;\n    }\n\n    function mintToken() external payable returns(bool) {\n        require(msg.value >= 1*digits,\"insuficient balance ...\");\n        require(myNFTAmount[msg.sender] <= maxBoxSize, \"max limit reached ...\");\n        _mint(msg.sender, total);\n        _tokenURIz[total] = tokenURI(total);\n        myNFTs[msg.sender][myNFTAmount[msg.sender]] = total;\n        myNFTAmount[msg.sender]++;\n        total++;\n        return true;\n    }\n    function dropToken() external returns(bool){\n        require(myNFTAmount[msg.sender] == 0, \"max limit reached ...\");\n        _mint(msg.sender, total);\n        _tokenURIz[total] = tokenURI(total);\n        myNFTs[msg.sender][myNFTAmount[msg.sender]] = total;\n        myNFTAmount[msg.sender]++;\n        total++;\n        return true;\n    }\n    function tokenURI(uint256 tokenId) public view virtual override returns(string memory){\n        require(_exists(tokenId), \"ERC721URIStorage: URI query for nonexistent token\");\n        string memory idstring = Strings.toString(tokenId);\n        string memory diasPath = append(baseURI,\"/\",idstring);\n        return baseURI;\n    }\n    function withdrawAll() external payable returns(bool){\n        require(admin == msg.sender, \"not authorized ...\");\n        require(admin.balance >= 1 * digits);\n        payable(admin).transfer(admin.balance);\n        return true;\n    }\n    function append(string memory a, string memory b, string memory c) internal pure returns (string memory) {\n    return string (abi.encodePacked(a, b, c));\n    }\n    fallback() external {\n\n    }\n}",
  "sourcePath": "/Users/jediswag/Documents/GitHub/affilly8/contracts/NFT_Project.sol",
  "compiler": {
    "name": "solc",
    "version": "0.8.13+commit.abaa5c0e.Emscripten.clang"
  },
  "schemaVersion": "3.4.4",
  "updatedAt": "2022-05-07T16:30:05.497Z",
  "devdoc": {
    "kind": "dev",
    "methods": {
      "approve(address,uint256)": {
        "details": "See {IERC721-approve}."
      },
      "balanceOf(address)": {
        "details": "See {IERC721-balanceOf}."
      },
      "getApproved(uint256)": {
        "details": "See {IERC721-getApproved}."
      },
      "isApprovedForAll(address,address)": {
        "details": "See {IERC721-isApprovedForAll}."
      },
      "name()": {
        "details": "See {IERC721Metadata-name}."
      },
      "ownerOf(uint256)": {
        "details": "See {IERC721-ownerOf}."
      },
      "safeTransferFrom(address,address,uint256)": {
        "details": "See {IERC721-safeTransferFrom}."
      },
      "safeTransferFrom(address,address,uint256,bytes)": {
        "details": "See {IERC721-safeTransferFrom}."
      },
      "setApprovalForAll(address,bool)": {
        "details": "See {IERC721-setApprovalForAll}."
      },
      "supportsInterface(bytes4)": {
        "details": "See {IERC165-supportsInterface}."
      },
      "symbol()": {
        "details": "See {IERC721Metadata-symbol}."
      },
      "tokenURI(uint256)": {
        "details": "See {IERC721Metadata-tokenURI}."
      },
      "transferFrom(address,address,uint256)": {
        "details": "See {IERC721-transferFrom}."
      }
    },
    "version": 1
  },
  "userdoc": {
    "kind": "user",
    "methods": {},
    "version": 1
  }
}